{
  "_format": "hh-sol-artifact-1",
  "contractName": "MockUSDC",
  "sourceName": "contracts/MockUSDC.sol",
  "abi": [
    {
      "inputs": [],
      "stateMutability": "nonpayable",
      "type": "constructor"
    },
    {
      "inputs": [
        {
          "internalType": "address",
          "name": "spender",
          "type": "address"
        },
        {
          "internalType": "uint256",
          "name": "allowance",
          "type": "uint256"
        },
        {
          "internalType": "uint256",
          "name": "needed",
          "type": "uint256"
        }
      ],
      "name": "ERC20InsufficientAllowance",
      "type": "error"
    },
    {
      "inputs": [
        {
          "internalType": "address",
          "name": "sender",
          "type": "address"
        },
        {
          "internalType": "uint256",
          "name": "balance",
          "type": "uint256"
        },
        {
          "internalType": "uint256",
          "name": "needed",
          "type": "uint256"
        }
      ],
      "name": "ERC20InsufficientBalance",
      "type": "error"
    },
    {
      "inputs": [
        {
          "internalType": "address",
          "name": "approver",
          "type": "address"
        }
      ],
      "name": "ERC20InvalidApprover",
      "type": "error"
    },
    {
      "inputs": [
        {
          "internalType": "address",
          "name": "receiver",
          "type": "address"
        }
      ],
      "name": "ERC20InvalidReceiver",
      "type": "error"
    },
    {
      "inputs": [
        {
          "internalType": "address",
          "name": "sender",
          "type": "address"
        }
      ],
      "name": "ERC20InvalidSender",
      "type": "error"
    },
    {
      "inputs": [
        {
          "internalType": "address",
          "name": "spender",
          "type": "address"
        }
      ],
      "name": "ERC20InvalidSpender",
      "type": "error"
    },
    {
      "anonymous": false,
      "inputs": [
        {
          "indexed": true,
          "internalType": "address",
          "name": "owner",
          "type": "address"
        },
        {
          "indexed": true,
          "internalType": "address",
          "name": "spender",
          "type": "address"
        },
        {
          "indexed": false,
          "internalType": "uint256",
          "name": "value",
          "type": "uint256"
        }
      ],
      "name": "Approval",
      "type": "event"
    },
    {
      "anonymous": false,
      "inputs": [
        {
          "indexed": true,
          "internalType": "address",
          "name": "from",
          "type": "address"
        },
        {
          "indexed": true,
          "internalType": "address",
          "name": "to",
          "type": "address"
        },
        {
          "indexed": false,
          "internalType": "uint256",
          "name": "value",
          "type": "uint256"
        }
      ],
      "name": "Transfer",
      "type": "event"
    },
    {
      "inputs": [
        {
          "internalType": "address",
          "name": "owner",
          "type": "address"
        },
        {
          "internalType": "address",
          "name": "spender",
          "type": "address"
        }
      ],
      "name": "allowance",
      "outputs": [
        {
          "internalType": "uint256",
          "name": "",
          "type": "uint256"
        }
      ],
      "stateMutability": "view",
      "type": "function"
    },
    {
      "inputs": [
        {
          "internalType": "address",
          "name": "spender",
          "type": "address"
        },
        {
          "internalType": "uint256",
          "name": "value",
          "type": "uint256"
        }
      ],
      "name": "approve",
      "outputs": [
        {
          "internalType": "bool",
          "name": "",
          "type": "bool"
        }
      ],
      "stateMutability": "nonpayable",
      "type": "function"
    },
    {
      "inputs": [
        {
          "internalType": "address",
          "name": "account",
          "type": "address"
        }
      ],
      "name": "balanceOf",
      "outputs": [
        {
          "internalType": "uint256",
          "name": "",
          "type": "uint256"
        }
      ],
      "stateMutability": "view",
      "type": "function"
    },
    {
      "inputs": [],
      "name": "decimals",
      "outputs": [
        {
          "internalType": "uint8",
          "name": "",
          "type": "uint8"
        }
      ],
      "stateMutability": "pure",
      "type": "function"
    },
    {
      "inputs": [
        {
          "internalType": "uint256",
          "name": "amount",
          "type": "uint256"
        }
      ],
      "name": "faucet",
      "outputs": [],
      "stateMutability": "nonpayable",
      "type": "function"
    },
    {
      "inputs": [
        {
          "internalType": "address",
          "name": "to",
          "type": "address"
        },
        {
          "internalType": "uint256",
          "name": "amount",
          "type": "uint256"
        }
      ],
      "name": "mint",
      "outputs": [],
      "stateMutability": "nonpayable",
      "type": "function"
    },
    {
      "inputs": [],
      "name": "name",
      "outputs": [
        {
          "internalType": "string",
          "name": "",
          "type": "string"
        }
      ],
      "stateMutability": "view",
      "type": "function"
    },
    {
      "inputs": [],
      "name": "symbol",
      "outputs": [
        {
          "internalType": "string",
          "name": "",
          "type": "string"
        }
      ],
      "stateMutability": "view",
      "type": "function"
    },
    {
      "inputs": [],
      "name": "totalSupply",
      "outputs": [
        {
          "internalType": "uint256",
          "name": "",
          "type": "uint256"
        }
      ],
      "stateMutability": "view",
      "type": "function"
    },
    {
      "inputs": [
        {
          "internalType": "address",
          "name": "to",
          "type": "address"
        },
        {
          "internalType": "uint256",
          "name": "value",
          "type": "uint256"
        }
      ],
      "name": "transfer",
      "outputs": [
        {
          "internalType": "bool",
          "name": "",
          "type": "bool"
        }
      ],
      "stateMutability": "nonpayable",
      "type": "function"
    },
    {
      "inputs": [
        {
          "internalType": "address",
          "name": "from",
          "type": "address"
        },
        {
          "internalType": "address",
          "name": "to",
          "type": "address"
        },
        {
          "internalType": "uint256",
          "name": "value",
          "type": "uint256"
        }
      ],
      "name": "transferFrom",
      "outputs": [
        {
          "internalType": "bool",
          "name": "",
          "type": "bool"
        }
      ],
      "stateMutability": "nonpayable",
      "type": "function"
    }
  ],
  "bytecode": "0x608034620003c2576040906001600160401b039080830182811182821017620003ac578352600f81526020906e55534420436f696e20284d6f636b2960881b8282015283519284840184811082821117620003ac578552600493848152635553444360e01b84820152825182811162000397576003918254916001958684811c941680156200038c575b8885101462000377578190601f9485811162000321575b508890858311600114620002ba57600092620002ae575b505060001982861b1c191690861b1783555b8051938411620002995786548581811c911680156200028e575b8782101462000279578281116200022e575b5085918411600114620001c357938394918492600095620001b7575b50501b92600019911b1c19161782555b3315620001a05760025464e8d4a51000928382018092116200018b57506000917fddf252ad1be2c89b69c2b068fc378daa952ba7f163c4a11628f55a4df523b3ef9160025533835282815284832084815401905584519384523393a3516107c89081620003c88239f35b601190634e487b7160e01b6000525260246000fd5b506000602492519163ec442f0560e01b8352820152fd5b01519350388062000111565b9190601f198416928760005284876000209460005b8989838310620002165750505010620001fb575b50505050811b01825562000121565b01519060f884600019921b161c1916905538808080620001ec565b868601518955909701969485019488935001620001d8565b87600052866000208380870160051c8201928988106200026f575b0160051c019086905b82811062000262575050620000f5565b6000815501869062000252565b9250819262000249565b602288634e487b7160e01b6000525260246000fd5b90607f1690620000e3565b604187634e487b7160e01b6000525260246000fd5b015190503880620000b7565b90889350601f19831691876000528a6000209260005b8c8282106200030a5750508411620002f1575b505050811b018355620000c9565b015160001983881b60f8161c19169055388080620002e3565b8385015186558c97909501949384019301620002d0565b90915085600052886000208580850160051c8201928b86106200036d575b918a91869594930160051c01915b8281106200035d575050620000a0565b600081558594508a91016200034d565b925081926200033f565b602289634e487b7160e01b6000525260246000fd5b93607f169362000089565b604186634e487b7160e01b6000525260246000fd5b634e487b7160e01b600052604160045260246000fd5b600080fdfe608060408181526004918236101561001657600080fd5b600092833560e01c91826306fdde03146104e957508163095ea7b31461043f57816318160ddd1461042057816323b872dd1461032c578163313ce5671461031057816340c10f19146102e8578163579158971461027157816370a082311461023a57816395d89b411461011957508063a9059cbb146100e95763dd62ed3e1461009e57600080fd5b346100e557806003193601126100e557806020926100ba61060c565b6100c2610627565b6001600160a01b0391821683526001865283832091168252845220549051908152f35b5080fd5b50346100e557806003193601126100e55760209061011261010861060c565b602435903361063d565b5160018152f35b8383346100e557816003193601126100e55780519082845460018160011c9060018316928315610230575b602093848410811461021d5783885290811561020157506001146101ac575b505050829003601f01601f191682019267ffffffffffffffff84118385101761019957508291826101959252826105c3565b0390f35b634e487b7160e01b815260418552602490fd5b8787529192508591837f8a35acfbc15ff81a39ae7d344fd709f28e8600b4aa8c65c6b64bfe7fe36bd19b5b8385106101ed5750505050830101858080610163565b8054888601830152930192849082016101d7565b60ff1916878501525050151560051b8401019050858080610163565b634e487b7160e01b895260228a52602489fd5b91607f1691610144565b5050346100e55760203660031901126100e55760209181906001600160a01b0361026261060c565b16815280845220549051908152f35b9050346102e45760203660031901126102e4578035916402540be40083116102a1578361029e843361071b565b80f35b906020606492519162461bcd60e51b8352820152601c60248201527f4d61782031306b205553444320706572206661756365742063616c6c000000006044820152fd5b8280fd5b5050346100e55736600319011261030d5761029e61030461060c565b6024359061071b565b80fd5b5050346100e557816003193601126100e5576020905160068152f35b9050823461030d57606036600319011261030d5761034861060c565b610350610627565b916044359360018060a01b03831680835260016020528683203384526020528683205491600019831061038c575b60208861011289898961063d565b8683106103f45781156103dd5733156103c6575082526001602090815286832033845281529186902090859003905582906101128761037e565b8751634a1406b160e11b8152908101849052602490fd5b875163e602df0560e01b8152908101849052602490fd5b8751637dc7a0d960e11b8152339181019182526020820193909352604081018790528291506060010390fd5b5050346100e557816003193601126100e5576020906002549051908152f35b9050346102e457816003193601126102e45761045961060c565b6024359033156104d2576001600160a01b03169182156104bb57508083602095338152600187528181208582528752205582519081527f8c5be1e5ebec7d5bd14f71427d1e84f3dd0314c0f7b2291e5b200ac8c7c3b925843392a35160018152f35b8351634a1406b160e11b8152908101859052602490fd5b835163e602df0560e01b8152808401869052602490fd5b849084346102e457826003193601126102e4578260035460018160011c90600183169283156105b9575b602093848410811461021d57838852908115610201575060011461056357505050829003601f01601f191682019267ffffffffffffffff84118385101761019957508291826101959252826105c3565b600387529192508591837fc2575a0e9e593c00f959f8c92f12db2869c3395a3b0502d05e2516446f71f85b5b8385106105a55750505050830101858080610163565b80548886018301529301928490820161058f565b91607f1691610513565b6020808252825181830181905290939260005b8281106105f857505060409293506000838284010152601f8019910116010190565b8181018601518482016040015285016105d6565b600435906001600160a01b038216820361062257565b600080fd5b602435906001600160a01b038216820361062257565b916001600160a01b0380841692831561070257169283156106e957600090838252816020526040822054908382106106b7575091604082827fddf252ad1be2c89b69c2b068fc378daa952ba7f163c4a11628f55a4df523b3ef958760209652828652038282205586815220818154019055604051908152a3565b60405163391434e360e21b81526001600160a01b03919091166004820152602481019190915260448101839052606490fd5b60405163ec442f0560e01b815260006004820152602490fd5b604051634b637e8f60e11b815260006004820152602490fd5b6001600160a01b03169081156106e9576002549080820180921161077c5760207fddf252ad1be2c89b69c2b068fc378daa952ba7f163c4a11628f55a4df523b3ef9160009360025584845283825260408420818154019055604051908152a3565b634e487b7160e01b600052601160045260246000fdfea26469706673582212207b35ac3b14c6bd3fb4438519c3a1efe6dcfe62a26c66cfebfff4b5010122298c64736f6c63430008180033",
  "linkReferences": {},
  "deployedLinkReferences": {}
}