{
  "_format": "hh-sol-artifact-1",
  "contractName": "MarketplaceV3",
  "sourceName": "contracts/MarketplaceV3.sol",
  "abi": [
    {
      "inputs": [
        {
          "internalType": "uint256",
          "name": "feeBps_",
          "type": "uint256"
        },
        {
          "internalType": "address",
          "name": "feeRecipient_",
          "type": "address"
        },
        {
          "internalType": "uint256",
          "name": "modelsLimit_",
          "type": "uint256"
        },
        {
          "internalType": "address",
          "name": "licenseNFTOwner",
          "type": "address"
        }
      ],
      "stateMutability": "nonpayable",
      "type": "constructor"
    },
    {
      "inputs": [],
      "name": "AgentRegistrationFailed",
      "type": "error"
    },
    {
      "inputs": [],
      "name": "AgentRegistryNotSet",
      "type": "error"
    },
    {
      "inputs": [],
      "name": "ContractNotAllowed",
      "type": "error"
    },
    {
      "inputs": [],
      "name": "EnforcedPause",
      "type": "error"
    },
    {
      "inputs": [],
      "name": "ExpectedPause",
      "type": "error"
    },
    {
      "inputs": [],
      "name": "FeeOverCap",
      "type": "error"
    },
    {
      "inputs": [],
      "name": "FeePlusRoyaltyOver100",
      "type": "error"
    },
    {
      "inputs": [],
      "name": "InsufficientFunds",
      "type": "error"
    },
    {
      "inputs": [],
      "name": "InvalidBps",
      "type": "error"
    },
    {
      "inputs": [],
      "name": "InvalidDelivery",
      "type": "error"
    },
    {
      "inputs": [],
      "name": "InvalidDuration",
      "type": "error"
    },
    {
      "inputs": [],
      "name": "InvalidInferencePrice",
      "type": "error"
    },
    {
      "inputs": [],
      "name": "InvalidKind",
      "type": "error"
    },
    {
      "inputs": [],
      "name": "InvalidRights",
      "type": "error"
    },
    {
      "inputs": [],
      "name": "InvalidVersion",
      "type": "error"
    },
    {
      "inputs": [],
      "name": "LicenseRevokedError",
      "type": "error"
    },
    {
      "inputs": [],
      "name": "ModelsLimitReached",
      "type": "error"
    },
    {
      "inputs": [],
      "name": "NoPendingChange",
      "type": "error"
    },
    {
      "inputs": [],
      "name": "NotListed",
      "type": "error"
    },
    {
      "inputs": [],
      "name": "NotOwner",
      "type": "error"
    },
    {
      "inputs": [
        {
          "internalType": "address",
          "name": "owner",
          "type": "address"
        }
      ],
      "name": "OwnableInvalidOwner",
      "type": "error"
    },
    {
      "inputs": [
        {
          "internalType": "address",
          "name": "account",
          "type": "address"
        }
      ],
      "name": "OwnableUnauthorizedAccount",
      "type": "error"
    },
    {
      "inputs": [],
      "name": "PaymentTokenNotSet",
      "type": "error"
    },
    {
      "inputs": [],
      "name": "PriceNotConfigured",
      "type": "error"
    },
    {
      "inputs": [],
      "name": "PriceTooHigh",
      "type": "error"
    },
    {
      "inputs": [],
      "name": "ReentrancyGuardReentrantCall",
      "type": "error"
    },
    {
      "inputs": [
        {
          "internalType": "address",
          "name": "token",
          "type": "address"
        }
      ],
      "name": "SafeERC20FailedOperation",
      "type": "error"
    },
    {
      "inputs": [],
      "name": "TimelockNotExpired",
      "type": "error"
    },
    {
      "inputs": [],
      "name": "TransferFailed",
      "type": "error"
    },
    {
      "inputs": [],
      "name": "ZeroAddress",
      "type": "error"
    },
    {
      "anonymous": false,
      "inputs": [
        {
          "indexed": true,
          "internalType": "uint256",
          "name": "modelId",
          "type": "uint256"
        },
        {
          "indexed": true,
          "internalType": "uint256",
          "name": "agentId",
          "type": "uint256"
        },
        {
          "indexed": true,
          "internalType": "address",
          "name": "owner",
          "type": "address"
        }
      ],
      "name": "AgentLinked",
      "type": "event"
    },
    {
      "anonymous": false,
      "inputs": [
        {
          "indexed": true,
          "internalType": "uint256",
          "name": "modelId",
          "type": "uint256"
        },
        {
          "indexed": true,
          "internalType": "uint256",
          "name": "agentId",
          "type": "uint256"
        },
        {
          "indexed": false,
          "internalType": "string",
          "name": "metadataUri",
          "type": "string"
        }
      ],
      "name": "AgentMetadataUpdated",
      "type": "event"
    },
    {
      "anonymous": false,
      "inputs": [
        {
          "indexed": true,
          "internalType": "address",
          "name": "registry",
          "type": "address"
        }
      ],
      "name": "AgentRegistrySet",
      "type": "event"
    },
    {
      "anonymous": false,
      "inputs": [
        {
          "indexed": true,
          "internalType": "address",
          "name": "owner",
          "type": "address"
        },
        {
          "indexed": true,
          "internalType": "bytes32",
          "name": "slugHash",
          "type": "bytes32"
        },
        {
          "indexed": true,
          "internalType": "uint256",
          "name": "agentId",
          "type": "uint256"
        }
      ],
      "name": "FamilyAgentLinked",
      "type": "event"
    },
    {
      "anonymous": false,
      "inputs": [
        {
          "indexed": true,
          "internalType": "address",
          "name": "to",
          "type": "address"
        },
        {
          "indexed": false,
          "internalType": "uint256",
          "name": "amount",
          "type": "uint256"
        }
      ],
      "name": "FundsSwept",
      "type": "event"
    },
    {
      "anonymous": false,
      "inputs": [
        {
          "indexed": true,
          "internalType": "uint256",
          "name": "modelId",
          "type": "uint256"
        },
        {
          "indexed": false,
          "internalType": "uint256",
          "name": "oldPrice",
          "type": "uint256"
        },
        {
          "indexed": false,
          "internalType": "uint256",
          "name": "newPrice",
          "type": "uint256"
        },
        {
          "indexed": true,
          "internalType": "address",
          "name": "updatedBy",
          "type": "address"
        }
      ],
      "name": "InferencePriceUpdated",
      "type": "event"
    },
    {
      "anonymous": false,
      "inputs": [
        {
          "indexed": true,
          "internalType": "uint256",
          "name": "modelId",
          "type": "uint256"
        },
        {
          "indexed": false,
          "internalType": "address",
          "name": "oldWallet",
          "type": "address"
        },
        {
          "indexed": false,
          "internalType": "address",
          "name": "newWallet",
          "type": "address"
        },
        {
          "indexed": false,
          "internalType": "uint256",
          "name": "effectiveAt",
          "type": "uint256"
        }
      ],
      "name": "InferenceWalletChangeRequested",
      "type": "event"
    },
    {
      "anonymous": false,
      "inputs": [
        {
          "indexed": true,
          "internalType": "uint256",
          "name": "modelId",
          "type": "uint256"
        },
        {
          "indexed": false,
          "internalType": "address",
          "name": "oldWallet",
          "type": "address"
        },
        {
          "indexed": false,
          "internalType": "address",
          "name": "newWallet",
          "type": "address"
        }
      ],
      "name": "InferenceWalletChanged",
      "type": "event"
    },
    {
      "anonymous": false,
      "inputs": [
        {
          "indexed": true,
          "internalType": "uint256",
          "name": "licenseId",
          "type": "uint256"
        },
        {
          "indexed": true,
          "internalType": "uint256",
          "name": "modelId",
          "type": "uint256"
        },
        {
          "indexed": true,
          "internalType": "address",
          "name": "buyer",
          "type": "address"
        },
        {
          "indexed": false,
          "internalType": "uint8",
          "name": "kind",
          "type": "uint8"
        },
        {
          "indexed": false,
          "internalType": "uint8",
          "name": "rights",
          "type": "uint8"
        },
        {
          "indexed": false,
          "internalType": "uint64",
          "name": "expiresAt",
          "type": "uint64"
        },
        {
          "indexed": false,
          "internalType": "uint16",
          "name": "version",
          "type": "uint16"
        },
        {
          "indexed": false,
          "internalType": "uint256",
          "name": "pricePaid",
          "type": "uint256"
        },
        {
          "indexed": false,
          "internalType": "uint256",
          "name": "feePaid",
          "type": "uint256"
        },
        {
          "indexed": false,
          "internalType": "uint256",
          "name": "royaltyPaid",
          "type": "uint256"
        }
      ],
      "name": "LicenseMinted",
      "type": "event"
    },
    {
      "anonymous": false,
      "inputs": [
        {
          "indexed": false,
          "internalType": "address",
          "name": "license",
          "type": "address"
        }
      ],
      "name": "LicenseNFTCreated",
      "type": "event"
    },
    {
      "anonymous": false,
      "inputs": [
        {
          "indexed": true,
          "internalType": "uint256",
          "name": "licenseId",
          "type": "uint256"
        },
        {
          "indexed": true,
          "internalType": "uint256",
          "name": "modelId",
          "type": "uint256"
        },
        {
          "indexed": false,
          "internalType": "uint64",
          "name": "newExpiresAt",
          "type": "uint64"
        },
        {
          "indexed": false,
          "internalType": "uint16",
          "name": "months",
          "type": "uint16"
        },
        {
          "indexed": false,
          "internalType": "uint256",
          "name": "pricePaid",
          "type": "uint256"
        },
        {
          "indexed": false,
          "internalType": "uint256",
          "name": "feePaid",
          "type": "uint256"
        },
        {
          "indexed": false,
          "internalType": "uint256",
          "name": "royaltyPaid",
          "type": "uint256"
        }
      ],
      "name": "LicenseRenewed",
      "type": "event"
    },
    {
      "anonymous": false,
      "inputs": [
        {
          "indexed": true,
          "internalType": "uint256",
          "name": "tokenId",
          "type": "uint256"
        },
        {
          "indexed": true,
          "internalType": "uint256",
          "name": "modelId",
          "type": "uint256"
        },
        {
          "indexed": true,
          "internalType": "address",
          "name": "by",
          "type": "address"
        }
      ],
      "name": "LicenseRevoked",
      "type": "event"
    },
    {
      "anonymous": false,
      "inputs": [
        {
          "indexed": false,
          "internalType": "uint256",
          "name": "feeBps",
          "type": "uint256"
        },
        {
          "indexed": false,
          "internalType": "address",
          "name": "feeRecipient",
          "type": "address"
        }
      ],
      "name": "MarketFeesSet",
      "type": "event"
    },
    {
      "anonymous": false,
      "inputs": [
        {
          "indexed": true,
          "internalType": "uint256",
          "name": "id",
          "type": "uint256"
        },
        {
          "indexed": true,
          "internalType": "address",
          "name": "owner",
          "type": "address"
        }
      ],
      "name": "ModelListed",
      "type": "event"
    },
    {
      "anonymous": false,
      "inputs": [
        {
          "indexed": true,
          "internalType": "uint256",
          "name": "id",
          "type": "uint256"
        },
        {
          "indexed": true,
          "internalType": "address",
          "name": "owner",
          "type": "address"
        }
      ],
      "name": "ModelUnlisted",
      "type": "event"
    },
    {
      "anonymous": false,
      "inputs": [
        {
          "indexed": true,
          "internalType": "uint256",
          "name": "id",
          "type": "uint256"
        },
        {
          "indexed": true,
          "internalType": "address",
          "name": "owner",
          "type": "address"
        },
        {
          "indexed": false,
          "internalType": "bool",
          "name": "listed",
          "type": "bool"
        }
      ],
      "name": "ModelUpdated",
      "type": "event"
    },
    {
      "anonymous": false,
      "inputs": [
        {
          "indexed": false,
          "internalType": "uint256",
          "name": "active",
          "type": "uint256"
        }
      ],
      "name": "ModelsCountChanged",
      "type": "event"
    },
    {
      "anonymous": false,
      "inputs": [
        {
          "indexed": false,
          "internalType": "uint256",
          "name": "newLimit",
          "type": "uint256"
        }
      ],
      "name": "ModelsLimitSet",
      "type": "event"
    },
    {
      "anonymous": false,
      "inputs": [
        {
          "indexed": true,
          "internalType": "address",
          "name": "previousOwner",
          "type": "address"
        },
        {
          "indexed": true,
          "internalType": "address",
          "name": "newOwner",
          "type": "address"
        }
      ],
      "name": "OwnershipTransferStarted",
      "type": "event"
    },
    {
      "anonymous": false,
      "inputs": [
        {
          "indexed": true,
          "internalType": "address",
          "name": "previousOwner",
          "type": "address"
        },
        {
          "indexed": true,
          "internalType": "address",
          "name": "newOwner",
          "type": "address"
        }
      ],
      "name": "OwnershipTransferred",
      "type": "event"
    },
    {
      "anonymous": false,
      "inputs": [
        {
          "indexed": false,
          "internalType": "address",
          "name": "account",
          "type": "address"
        }
      ],
      "name": "Paused",
      "type": "event"
    },
    {
      "anonymous": false,
      "inputs": [
        {
          "indexed": true,
          "internalType": "address",
          "name": "token",
          "type": "address"
        }
      ],
      "name": "PaymentTokenSet",
      "type": "event"
    },
    {
      "anonymous": false,
      "inputs": [
        {
          "indexed": true,
          "internalType": "uint256",
          "name": "newModelId",
          "type": "uint256"
        },
        {
          "indexed": true,
          "internalType": "uint256",
          "name": "originalModelId",
          "type": "uint256"
        }
      ],
      "name": "SplitterAliased",
      "type": "event"
    },
    {
      "anonymous": false,
      "inputs": [
        {
          "indexed": true,
          "internalType": "uint256",
          "name": "modelId",
          "type": "uint256"
        },
        {
          "indexed": true,
          "internalType": "address",
          "name": "splitter",
          "type": "address"
        }
      ],
      "name": "SplitterCreated",
      "type": "event"
    },
    {
      "anonymous": false,
      "inputs": [
        {
          "indexed": true,
          "internalType": "address",
          "name": "factory",
          "type": "address"
        }
      ],
      "name": "SplitterFactorySet",
      "type": "event"
    },
    {
      "anonymous": false,
      "inputs": [
        {
          "indexed": false,
          "internalType": "address",
          "name": "account",
          "type": "address"
        }
      ],
      "name": "Unpaused",
      "type": "event"
    },
    {
      "inputs": [],
      "name": "KIND_PERPETUAL",
      "outputs": [
        {
          "internalType": "uint8",
          "name": "",
          "type": "uint8"
        }
      ],
      "stateMutability": "view",
      "type": "function"
    },
    {
      "inputs": [],
      "name": "KIND_SUBSCRIPTION",
      "outputs": [
        {
          "internalType": "uint8",
          "name": "",
          "type": "uint8"
        }
      ],
      "stateMutability": "view",
      "type": "function"
    },
    {
      "inputs": [],
      "name": "MAX_BPS",
      "outputs": [
        {
          "internalType": "uint256",
          "name": "",
          "type": "uint256"
        }
      ],
      "stateMutability": "view",
      "type": "function"
    },
    {
      "inputs": [],
      "name": "MAX_FEE_BPS_CAP",
      "outputs": [
        {
          "internalType": "uint256",
          "name": "",
          "type": "uint256"
        }
      ],
      "stateMutability": "view",
      "type": "function"
    },
    {
      "inputs": [],
      "name": "MAX_INFERENCE_PRICE",
      "outputs": [
        {
          "internalType": "uint256",
          "name": "",
          "type": "uint256"
        }
      ],
      "stateMutability": "view",
      "type": "function"
    },
    {
      "inputs": [],
      "name": "MAX_PRICE_CAP",
      "outputs": [
        {
          "internalType": "uint256",
          "name": "",
          "type": "uint256"
        }
      ],
      "stateMutability": "view",
      "type": "function"
    },
    {
      "inputs": [],
      "name": "MIN_INFERENCE_PRICE",
      "outputs": [
        {
          "internalType": "uint256",
          "name": "",
          "type": "uint256"
        }
      ],
      "stateMutability": "view",
      "type": "function"
    },
    {
      "inputs": [],
      "name": "RIGHTS_API",
      "outputs": [
        {
          "internalType": "uint8",
          "name": "",
          "type": "uint8"
        }
      ],
      "stateMutability": "view",
      "type": "function"
    },
    {
      "inputs": [],
      "name": "RIGHTS_DOWNLOAD",
      "outputs": [
        {
          "internalType": "uint8",
          "name": "",
          "type": "uint8"
        }
      ],
      "stateMutability": "view",
      "type": "function"
    },
    {
      "inputs": [],
      "name": "TIMELOCK_DELAY",
      "outputs": [
        {
          "internalType": "uint256",
          "name": "",
          "type": "uint256"
        }
      ],
      "stateMutability": "view",
      "type": "function"
    },
    {
      "inputs": [],
      "name": "acceptOwnership",
      "outputs": [],
      "stateMutability": "nonpayable",
      "type": "function"
    },
    {
      "inputs": [],
      "name": "activeModels",
      "outputs": [
        {
          "internalType": "uint256",
          "name": "",
          "type": "uint256"
        }
      ],
      "stateMutability": "view",
      "type": "function"
    },
    {
      "inputs": [],
      "name": "agentRegistry",
      "outputs": [
        {
          "internalType": "contract IAgentRegistry",
          "name": "",
          "type": "address"
        }
      ],
      "stateMutability": "view",
      "type": "function"
    },
    {
      "inputs": [
        {
          "internalType": "uint256",
          "name": "modelId",
          "type": "uint256"
        },
        {
          "internalType": "uint8",
          "name": "licenseKind",
          "type": "uint8"
        },
        {
          "internalType": "uint16",
          "name": "months",
          "type": "uint16"
        },
        {
          "internalType": "bool",
          "name": "transferable",
          "type": "bool"
        }
      ],
      "name": "buyLicense",
      "outputs": [],
      "stateMutability": "nonpayable",
      "type": "function"
    },
    {
      "inputs": [
        {
          "internalType": "uint256",
          "name": "modelId",
          "type": "uint256"
        },
        {
          "internalType": "uint8",
          "name": "licenseKind",
          "type": "uint8"
        },
        {
          "internalType": "uint16",
          "name": "months",
          "type": "uint16"
        },
        {
          "internalType": "bool",
          "name": "transferable",
          "type": "bool"
        },
        {
          "internalType": "string",
          "name": "tokenUri",
          "type": "string"
        }
      ],
      "name": "buyLicenseWithURI",
      "outputs": [],
      "stateMutability": "nonpayable",
      "type": "function"
    },
    {
      "inputs": [
        {
          "internalType": "uint256",
          "name": "modelId",
          "type": "uint256"
        }
      ],
      "name": "cancelInferenceWalletChange",
      "outputs": [],
      "stateMutability": "nonpayable",
      "type": "function"
    },
    {
      "inputs": [
        {
          "internalType": "uint256",
          "name": "modelId",
          "type": "uint256"
        }
      ],
      "name": "executeInferenceWalletChange",
      "outputs": [],
      "stateMutability": "nonpayable",
      "type": "function"
    },
    {
      "inputs": [
        {
          "internalType": "address",
          "name": "",
          "type": "address"
        },
        {
          "internalType": "bytes32",
          "name": "",
          "type": "bytes32"
        }
      ],
      "name": "families",
      "outputs": [
        {
          "internalType": "uint256",
          "name": "latestId",
          "type": "uint256"
        },
        {
          "internalType": "uint16",
          "name": "latestVersion",
          "type": "uint16"
        },
        {
          "internalType": "uint256",
          "name": "agentId",
          "type": "uint256"
        },
        {
          "internalType": "uint256",
          "name": "firstModelId",
          "type": "uint256"
        }
      ],
      "stateMutability": "view",
      "type": "function"
    },
    {
      "inputs": [],
      "name": "feeBps",
      "outputs": [
        {
          "internalType": "uint256",
          "name": "",
          "type": "uint256"
        }
      ],
      "stateMutability": "view",
      "type": "function"
    },
    {
      "inputs": [],
      "name": "feeRecipient",
      "outputs": [
        {
          "internalType": "address",
          "name": "",
          "type": "address"
        }
      ],
      "stateMutability": "view",
      "type": "function"
    },
    {
      "inputs": [
        {
          "internalType": "address",
          "name": "owner",
          "type": "address"
        },
        {
          "internalType": "string",
          "name": "slug",
          "type": "string"
        }
      ],
      "name": "getFamilyAgent",
      "outputs": [
        {
          "internalType": "uint256",
          "name": "",
          "type": "uint256"
        }
      ],
      "stateMutability": "view",
      "type": "function"
    },
    {
      "inputs": [
        {
          "internalType": "address",
          "name": "owner",
          "type": "address"
        },
        {
          "internalType": "string",
          "name": "slug",
          "type": "string"
        }
      ],
      "name": "getFamilyMeta",
      "outputs": [
        {
          "internalType": "uint256",
          "name": "latestId",
          "type": "uint256"
        },
        {
          "internalType": "uint16",
          "name": "latestVersion",
          "type": "uint16"
        },
        {
          "internalType": "uint256",
          "name": "agentId",
          "type": "uint256"
        }
      ],
      "stateMutability": "view",
      "type": "function"
    },
    {
      "inputs": [
        {
          "internalType": "uint256",
          "name": "modelId",
          "type": "uint256"
        }
      ],
      "name": "getInferenceInfo",
      "outputs": [
        {
          "internalType": "uint256",
          "name": "priceInference",
          "type": "uint256"
        },
        {
          "internalType": "address",
          "name": "inferenceWallet",
          "type": "address"
        },
        {
          "internalType": "uint256",
          "name": "royaltyBps",
          "type": "uint256"
        },
        {
          "internalType": "uint256",
          "name": "marketplaceBps",
          "type": "uint256"
        }
      ],
      "stateMutability": "view",
      "type": "function"
    },
    {
      "inputs": [
        {
          "internalType": "uint256",
          "name": "modelId",
          "type": "uint256"
        }
      ],
      "name": "getModel",
      "outputs": [
        {
          "components": [
            {
              "internalType": "address",
              "name": "owner",
              "type": "address"
            },
            {
              "internalType": "address",
              "name": "creator",
              "type": "address"
            },
            {
              "internalType": "string",
              "name": "name",
              "type": "string"
            },
            {
              "internalType": "string",
              "name": "uri",
              "type": "string"
            },
            {
              "internalType": "uint256",
              "name": "royaltyBps",
              "type": "uint256"
            },
            {
              "internalType": "bool",
              "name": "listed",
              "type": "bool"
            },
            {
              "internalType": "uint256",
              "name": "pricePerpetual",
              "type": "uint256"
            },
            {
              "internalType": "uint256",
              "name": "priceSubscription",
              "type": "uint256"
            },
            {
              "internalType": "uint256",
              "name": "defaultDurationDays",
              "type": "uint256"
            },
            {
              "internalType": "uint8",
              "name": "deliveryRightsDefault",
              "type": "uint8"
            },
            {
              "internalType": "uint8",
              "name": "deliveryModeHint",
              "type": "uint8"
            },
            {
              "internalType": "uint16",
              "name": "version",
              "type": "uint16"
            },
            {
              "internalType": "bytes32",
              "name": "termsHash",
              "type": "bytes32"
            },
            {
              "internalType": "uint256",
              "name": "priceInference",
              "type": "uint256"
            },
            {
              "internalType": "address",
              "name": "inferenceWallet",
              "type": "address"
            }
          ],
          "internalType": "struct MarketplaceV3.Model",
          "name": "",
          "type": "tuple"
        }
      ],
      "stateMutability": "view",
      "type": "function"
    },
    {
      "inputs": [
        {
          "internalType": "uint256",
          "name": "modelId",
          "type": "uint256"
        },
        {
          "internalType": "string",
          "name": "slug",
          "type": "string"
        }
      ],
      "name": "getModelFamilyAgent",
      "outputs": [
        {
          "internalType": "uint256",
          "name": "",
          "type": "uint256"
        }
      ],
      "stateMutability": "view",
      "type": "function"
    },
    {
      "inputs": [
        {
          "internalType": "uint256",
          "name": "modelId",
          "type": "uint256"
        }
      ],
      "name": "getModelPaymentInfo",
      "outputs": [
        {
          "internalType": "address",
          "name": "owner",
          "type": "address"
        },
        {
          "internalType": "address",
          "name": "splitter",
          "type": "address"
        },
        {
          "internalType": "uint256",
          "name": "priceInference",
          "type": "uint256"
        },
        {
          "internalType": "uint256",
          "name": "royaltyBps",
          "type": "uint256"
        }
      ],
      "stateMutability": "view",
      "type": "function"
    },
    {
      "inputs": [
        {
          "internalType": "uint256",
          "name": "modelId",
          "type": "uint256"
        }
      ],
      "name": "getModelSplitter",
      "outputs": [
        {
          "internalType": "address",
          "name": "splitter",
          "type": "address"
        }
      ],
      "stateMutability": "view",
      "type": "function"
    },
    {
      "inputs": [],
      "name": "lastLicenseId",
      "outputs": [
        {
          "internalType": "uint256",
          "name": "",
          "type": "uint256"
        }
      ],
      "stateMutability": "view",
      "type": "function"
    },
    {
      "inputs": [],
      "name": "licenseNFT",
      "outputs": [
        {
          "internalType": "contract LicenseNFTV2",
          "name": "",
          "type": "address"
        }
      ],
      "stateMutability": "view",
      "type": "function"
    },
    {
      "inputs": [],
      "name": "licenseNFTAddress",
      "outputs": [
        {
          "internalType": "address",
          "name": "",
          "type": "address"
        }
      ],
      "stateMutability": "view",
      "type": "function"
    },
    {
      "inputs": [
        {
          "internalType": "uint256",
          "name": "tokenId",
          "type": "uint256"
        }
      ],
      "name": "licenseStatus",
      "outputs": [
        {
          "internalType": "bool",
          "name": "revoked_",
          "type": "bool"
        },
        {
          "internalType": "bool",
          "name": "validApi",
          "type": "bool"
        },
        {
          "internalType": "bool",
          "name": "validDownload",
          "type": "bool"
        },
        {
          "internalType": "uint8",
          "name": "kind",
          "type": "uint8"
        },
        {
          "internalType": "uint64",
          "name": "expiresAt",
          "type": "uint64"
        },
        {
          "internalType": "address",
          "name": "owner",
          "type": "address"
        }
      ],
      "stateMutability": "view",
      "type": "function"
    },
    {
      "inputs": [
        {
          "internalType": "string",
          "name": "slug",
          "type": "string"
        },
        {
          "internalType": "uint256",
          "name": "agentId",
          "type": "uint256"
        }
      ],
      "name": "linkExistingAgentToFamily",
      "outputs": [],
      "stateMutability": "nonpayable",
      "type": "function"
    },
    {
      "inputs": [
        {
          "internalType": "string",
          "name": "slug",
          "type": "string"
        },
        {
          "internalType": "string",
          "name": "name",
          "type": "string"
        },
        {
          "internalType": "string",
          "name": "uri",
          "type": "string"
        },
        {
          "internalType": "uint256",
          "name": "royaltyBps_",
          "type": "uint256"
        },
        {
          "internalType": "uint256",
          "name": "pricePerpetual",
          "type": "uint256"
        },
        {
          "internalType": "uint256",
          "name": "priceSubscription",
          "type": "uint256"
        },
        {
          "internalType": "uint256",
          "name": "defaultDurationDays",
          "type": "uint256"
        },
        {
          "internalType": "uint8",
          "name": "deliveryRightsDefault",
          "type": "uint8"
        },
        {
          "internalType": "uint8",
          "name": "deliveryModeHint",
          "type": "uint8"
        },
        {
          "internalType": "bytes32",
          "name": "termsHash",
          "type": "bytes32"
        }
      ],
      "name": "listOrUpgrade",
      "outputs": [],
      "stateMutability": "nonpayable",
      "type": "function"
    },
    {
      "inputs": [
        {
          "internalType": "string",
          "name": "slug",
          "type": "string"
        },
        {
          "internalType": "string",
          "name": "name",
          "type": "string"
        },
        {
          "internalType": "string",
          "name": "uri",
          "type": "string"
        },
        {
          "internalType": "uint256",
          "name": "royaltyBps_",
          "type": "uint256"
        },
        {
          "internalType": "uint256",
          "name": "pricePerpetual",
          "type": "uint256"
        },
        {
          "internalType": "uint256",
          "name": "priceSubscription",
          "type": "uint256"
        },
        {
          "internalType": "uint256",
          "name": "defaultDurationDays",
          "type": "uint256"
        },
        {
          "internalType": "uint8",
          "name": "deliveryRightsDefault",
          "type": "uint8"
        },
        {
          "internalType": "uint8",
          "name": "deliveryModeHint",
          "type": "uint8"
        },
        {
          "internalType": "bytes32",
          "name": "termsHash",
          "type": "bytes32"
        },
        {
          "internalType": "uint256",
          "name": "priceInference_",
          "type": "uint256"
        },
        {
          "internalType": "address",
          "name": "inferenceWallet_",
          "type": "address"
        }
      ],
      "name": "listOrUpgrade",
      "outputs": [],
      "stateMutability": "nonpayable",
      "type": "function"
    },
    {
      "inputs": [
        {
          "internalType": "string",
          "name": "slug",
          "type": "string"
        },
        {
          "internalType": "string",
          "name": "name",
          "type": "string"
        },
        {
          "internalType": "string",
          "name": "uri",
          "type": "string"
        },
        {
          "internalType": "uint256",
          "name": "royaltyBps_",
          "type": "uint256"
        },
        {
          "internalType": "uint256",
          "name": "pricePerpetual",
          "type": "uint256"
        },
        {
          "internalType": "uint256",
          "name": "priceSubscription",
          "type": "uint256"
        },
        {
          "internalType": "uint256",
          "name": "defaultDurationDays",
          "type": "uint256"
        },
        {
          "internalType": "uint8",
          "name": "deliveryRightsDefault",
          "type": "uint8"
        },
        {
          "internalType": "uint8",
          "name": "deliveryModeHint",
          "type": "uint8"
        },
        {
          "internalType": "bytes32",
          "name": "termsHash",
          "type": "bytes32"
        },
        {
          "internalType": "uint256",
          "name": "priceInference_",
          "type": "uint256"
        },
        {
          "internalType": "address",
          "name": "inferenceWallet_",
          "type": "address"
        },
        {
          "components": [
            {
              "internalType": "string",
              "name": "endpoint",
              "type": "string"
            },
            {
              "internalType": "address",
              "name": "wallet",
              "type": "address"
            },
            {
              "internalType": "string",
              "name": "metadataUri",
              "type": "string"
            }
          ],
          "internalType": "struct MarketplaceV3.AgentParams",
          "name": "agentParams",
          "type": "tuple"
        }
      ],
      "name": "listOrUpgradeWithAgent",
      "outputs": [
        {
          "internalType": "uint256",
          "name": "modelId",
          "type": "uint256"
        },
        {
          "internalType": "uint256",
          "name": "agentId",
          "type": "uint256"
        }
      ],
      "stateMutability": "nonpayable",
      "type": "function"
    },
    {
      "inputs": [
        {
          "internalType": "uint256",
          "name": "",
          "type": "uint256"
        }
      ],
      "name": "models",
      "outputs": [
        {
          "internalType": "address",
          "name": "owner",
          "type": "address"
        },
        {
          "internalType": "address",
          "name": "creator",
          "type": "address"
        },
        {
          "internalType": "string",
          "name": "name",
          "type": "string"
        },
        {
          "internalType": "string",
          "name": "uri",
          "type": "string"
        },
        {
          "internalType": "uint256",
          "name": "royaltyBps",
          "type": "uint256"
        },
        {
          "internalType": "bool",
          "name": "listed",
          "type": "bool"
        },
        {
          "internalType": "uint256",
          "name": "pricePerpetual",
          "type": "uint256"
        },
        {
          "internalType": "uint256",
          "name": "priceSubscription",
          "type": "uint256"
        },
        {
          "internalType": "uint256",
          "name": "defaultDurationDays",
          "type": "uint256"
        },
        {
          "internalType": "uint8",
          "name": "deliveryRightsDefault",
          "type": "uint8"
        },
        {
          "internalType": "uint8",
          "name": "deliveryModeHint",
          "type": "uint8"
        },
        {
          "internalType": "uint16",
          "name": "version",
          "type": "uint16"
        },
        {
          "internalType": "bytes32",
          "name": "termsHash",
          "type": "bytes32"
        },
        {
          "internalType": "uint256",
          "name": "priceInference",
          "type": "uint256"
        },
        {
          "internalType": "address",
          "name": "inferenceWallet",
          "type": "address"
        }
      ],
      "stateMutability": "view",
      "type": "function"
    },
    {
      "inputs": [],
      "name": "modelsLimit",
      "outputs": [
        {
          "internalType": "uint256",
          "name": "",
          "type": "uint256"
        }
      ],
      "stateMutability": "view",
      "type": "function"
    },
    {
      "inputs": [],
      "name": "nextId",
      "outputs": [
        {
          "internalType": "uint256",
          "name": "",
          "type": "uint256"
        }
      ],
      "stateMutability": "view",
      "type": "function"
    },
    {
      "inputs": [],
      "name": "owner",
      "outputs": [
        {
          "internalType": "address",
          "name": "",
          "type": "address"
        }
      ],
      "stateMutability": "view",
      "type": "function"
    },
    {
      "inputs": [],
      "name": "pause",
      "outputs": [],
      "stateMutability": "nonpayable",
      "type": "function"
    },
    {
      "inputs": [],
      "name": "paused",
      "outputs": [
        {
          "internalType": "bool",
          "name": "",
          "type": "bool"
        }
      ],
      "stateMutability": "view",
      "type": "function"
    },
    {
      "inputs": [],
      "name": "paymentToken",
      "outputs": [
        {
          "internalType": "contract IERC20",
          "name": "",
          "type": "address"
        }
      ],
      "stateMutability": "view",
      "type": "function"
    },
    {
      "inputs": [
        {
          "internalType": "uint256",
          "name": "",
          "type": "uint256"
        }
      ],
      "name": "pendingInferenceWalletChanges",
      "outputs": [
        {
          "internalType": "address",
          "name": "newWallet",
          "type": "address"
        },
        {
          "internalType": "uint256",
          "name": "effectiveAt",
          "type": "uint256"
        }
      ],
      "stateMutability": "view",
      "type": "function"
    },
    {
      "inputs": [],
      "name": "pendingOwner",
      "outputs": [
        {
          "internalType": "address",
          "name": "",
          "type": "address"
        }
      ],
      "stateMutability": "view",
      "type": "function"
    },
    {
      "inputs": [
        {
          "internalType": "uint256",
          "name": "tokenId",
          "type": "uint256"
        },
        {
          "internalType": "uint16",
          "name": "months",
          "type": "uint16"
        }
      ],
      "name": "renewLicense",
      "outputs": [],
      "stateMutability": "nonpayable",
      "type": "function"
    },
    {
      "inputs": [],
      "name": "renounceOwnership",
      "outputs": [],
      "stateMutability": "nonpayable",
      "type": "function"
    },
    {
      "inputs": [
        {
          "internalType": "uint256",
          "name": "modelId",
          "type": "uint256"
        },
        {
          "internalType": "address",
          "name": "newWallet",
          "type": "address"
        }
      ],
      "name": "requestInferenceWalletChange",
      "outputs": [],
      "stateMutability": "nonpayable",
      "type": "function"
    },
    {
      "inputs": [
        {
          "internalType": "uint256",
          "name": "tokenId",
          "type": "uint256"
        }
      ],
      "name": "revokeByAdmin",
      "outputs": [],
      "stateMutability": "nonpayable",
      "type": "function"
    },
    {
      "inputs": [
        {
          "internalType": "uint256",
          "name": "tokenId",
          "type": "uint256"
        }
      ],
      "name": "revokeByModelOwner",
      "outputs": [],
      "stateMutability": "nonpayable",
      "type": "function"
    },
    {
      "inputs": [
        {
          "internalType": "uint256",
          "name": "",
          "type": "uint256"
        }
      ],
      "name": "revoked",
      "outputs": [
        {
          "internalType": "bool",
          "name": "",
          "type": "bool"
        }
      ],
      "stateMutability": "view",
      "type": "function"
    },
    {
      "inputs": [
        {
          "internalType": "address",
          "name": "_registry",
          "type": "address"
        }
      ],
      "name": "setAgentRegistry",
      "outputs": [],
      "stateMutability": "nonpayable",
      "type": "function"
    },
    {
      "inputs": [
        {
          "internalType": "uint256",
          "name": "newFeeBps",
          "type": "uint256"
        },
        {
          "internalType": "address",
          "name": "newRecipient",
          "type": "address"
        }
      ],
      "name": "setFees",
      "outputs": [],
      "stateMutability": "nonpayable",
      "type": "function"
    },
    {
      "inputs": [
        {
          "internalType": "uint256",
          "name": "modelId",
          "type": "uint256"
        },
        {
          "internalType": "uint256",
          "name": "newPrice",
          "type": "uint256"
        }
      ],
      "name": "setInferencePrice",
      "outputs": [],
      "stateMutability": "nonpayable",
      "type": "function"
    },
    {
      "inputs": [
        {
          "internalType": "uint256",
          "name": "modelId",
          "type": "uint256"
        },
        {
          "internalType": "uint256",
          "name": "pricePerpetual",
          "type": "uint256"
        },
        {
          "internalType": "uint256",
          "name": "priceSubscription",
          "type": "uint256"
        },
        {
          "internalType": "uint256",
          "name": "defaultDurationDays",
          "type": "uint256"
        },
        {
          "internalType": "uint8",
          "name": "deliveryRightsDefault",
          "type": "uint8"
        },
        {
          "internalType": "uint8",
          "name": "deliveryModeHint",
          "type": "uint8"
        },
        {
          "internalType": "bytes32",
          "name": "termsHash",
          "type": "bytes32"
        }
      ],
      "name": "setLicensingParams",
      "outputs": [],
      "stateMutability": "nonpayable",
      "type": "function"
    },
    {
      "inputs": [
        {
          "internalType": "uint256",
          "name": "modelId",
          "type": "uint256"
        },
        {
          "internalType": "bool",
          "name": "listed",
          "type": "bool"
        }
      ],
      "name": "setListed",
      "outputs": [],
      "stateMutability": "nonpayable",
      "type": "function"
    },
    {
      "inputs": [
        {
          "internalType": "uint256",
          "name": "lim",
          "type": "uint256"
        }
      ],
      "name": "setModelsLimit",
      "outputs": [],
      "stateMutability": "nonpayable",
      "type": "function"
    },
    {
      "inputs": [
        {
          "internalType": "address",
          "name": "_token",
          "type": "address"
        }
      ],
      "name": "setPaymentToken",
      "outputs": [],
      "stateMutability": "nonpayable",
      "type": "function"
    },
    {
      "inputs": [
        {
          "internalType": "address",
          "name": "_factory",
          "type": "address"
        }
      ],
      "name": "setSplitterFactory",
      "outputs": [],
      "stateMutability": "nonpayable",
      "type": "function"
    },
    {
      "inputs": [],
      "name": "splitterFactory",
      "outputs": [
        {
          "internalType": "contract ISplitterFactory",
          "name": "",
          "type": "address"
        }
      ],
      "stateMutability": "view",
      "type": "function"
    },
    {
      "inputs": [
        {
          "internalType": "address",
          "name": "to",
          "type": "address"
        },
        {
          "internalType": "uint256",
          "name": "amount",
          "type": "uint256"
        }
      ],
      "name": "sweep",
      "outputs": [],
      "stateMutability": "nonpayable",
      "type": "function"
    },
    {
      "inputs": [
        {
          "internalType": "address",
          "name": "token",
          "type": "address"
        },
        {
          "internalType": "address",
          "name": "to",
          "type": "address"
        },
        {
          "internalType": "uint256",
          "name": "amount",
          "type": "uint256"
        }
      ],
      "name": "sweepToken",
      "outputs": [],
      "stateMutability": "nonpayable",
      "type": "function"
    },
    {
      "inputs": [
        {
          "internalType": "address",
          "name": "newOwner",
          "type": "address"
        }
      ],
      "name": "transferOwnership",
      "outputs": [],
      "stateMutability": "nonpayable",
      "type": "function"
    },
    {
      "inputs": [],
      "name": "unpause",
      "outputs": [],
      "stateMutability": "nonpayable",
      "type": "function"
    },
    {
      "inputs": [
        {
          "internalType": "uint256",
          "name": "modelId",
          "type": "uint256"
        },
        {
          "internalType": "string",
          "name": "agentEndpoint",
          "type": "string"
        },
        {
          "internalType": "address",
          "name": "agentWallet",
          "type": "address"
        }
      ],
      "name": "updateModelAgent",
      "outputs": [],
      "stateMutability": "nonpayable",
      "type": "function"
    },
    {
      "stateMutability": "payable",
      "type": "receive"
    }
  ],
  "bytecode": "0x60a0346200026457601f620072b338819003918201601f1916830192916001600160401b039182851184861017620002695781608092859260409788528339810103126200026457815162000057602084016200027f565b926200006a60608683015192016200027f565b9233156200024c5760018060a01b031991826001541660015560009384549360018060a01b039733828716178755895195893391167f8be0079c531659141344cd1fd0a4f28419497f9722a3daafe3b4186f6b6457e08980a360016002556004956001875561271084116200023e57506107d083116200022e5788169182156200021e57600655600754161760075560095585516128c080820190828210848311176200020b576020918391620049d3833930815203019084f08015620001fd578086916080521693843b1562000207578560248592838a51988994859363f2fde38b60e01b855216888401525af18015620001fd57620001c5575b8560008051602062007293833981519152602087608051168351908152a15161473e90816200029582396080518181816108dc015281816109fe01528181610df9015281816110f60152818161190601528181611bb101526125380152f35b8311620001ea5750508252602060008051602062007293833981519152388062000166565b634e487b7160e01b825260419052602490fd5b86513d85823e3d90fd5b8380fd5b634e487b7160e01b865260418552602486fd5b895163d92e233d60e01b81528690fd5b895163c1bd884560e01b81528690fd5b63c6cc5d7f60e01b81528690fd5b8551631e4fbdf760e01b815260006004820152602490fd5b600080fd5b634e487b7160e01b600052604160045260246000fd5b51906001600160a01b0382168203620002645756fe6080604052600436101561001b575b361561001957600080fd5b005b6000803560e01c80630135adcd14613a4857806308c05903146139f35780630d1cfcae146139ca5780631c65c86d146139085780631e141e8b14613814578063227dc4c4146137f657806323da4f01146137af57806323ea1f5f146112d357806324a9d8531461379157806328342ecf146137275780632d88c211146131ac5780633013ce2914613183578063345c0f771461269e57806337c73865146125025780633d162cdc1461245f5780633f4ba83a146123f457806346453f2814612389578063469048401461236057806347e803611461230457806347eaa7a214611d215780634b746cd114611a325780635608d9e514611a095780635ba1c1a9146119eb5780635c975abb146119c857806361b8ce8c146119aa578063636d5870146118cd57806364aff9ec146118835780636a030ca9146117705780636a326ab1146117065780636d361694146114b75780636ea056a914611449578063715018a6146113e357806375bb91b2146113c75780637918413b1461135d57806379ba5097146112d85780637d53deff146112d357806381cd7439146112b65780638456cb591461125b57806388daf7f414610fb25780638da5cb5b14610f8b5780639ccebcec14610f07578063a249668a14610ee8578063acb27c6814610ecc578063c384373a14610eae578063c3c2265f14610dc0578063c7d2497414610d7c578063c8aa67b314610d5e578063d078818814610d17578063d2d5ec4d14610cc9578063d402e464146109a3578063d5b141e714610974578063d9a5aa9614610927578063da68d47d146108c6578063df99e5341461090b578063e0a3dd96146108c6578063e30c39781461089d578063f09449ba14610744578063f2fde38b146106d7578063f483708d1461060f578063f5b96972146105ef578063f60eb4bf1461046f578063f77bc7761461043e578063f932ecac146103065763fd967f47146102e7575061000e565b3461030357806003193601126103035760206040516127108152f35b80fd5b503461030357604036600319011261030357600435610323613c1b565b61032b61417d565b818352600a6020526040832080546001600160a01b03908116330361042c5780831691821561041a5761035d84614329565b620151804201928342116104065791600c610400927fe0ab772b3b6cddb6293c9c400e007d0bd007f54e8a59244023fb3360b89172ff969594604051906103a382613cfb565b81526001602082018781528a8c52600d6020528560408d209351166001600160601b0360a01b84541617835551910155015416916040519384938460409194939294606082019560018060a01b0380921683521660208201520152565b0390a280f35b634e487b7160e01b87526011600452602487fd5b60405163d92e233d60e01b8152600490fd5b6040516330cd747160e01b8152600490fd5b503461030357602036600319011261030357602061045d60043561410c565b6040516001600160a01b039091168152f35b5034610303576060366003190112610303576004356024356001600160401b0381116105eb576104a3903690600401613c31565b916044356001600160a01b0381811693918490036105c1576104c361417d565b828652600a60205280604087205416330361042c57600f541680156105d9576040519263173e79bb60e01b84526004840152602083602481845afa9283156105ce578693610595575b508215610583578594813b1561057f5785809461054d9660405197889687958694633bda90a360e01b86526004860152606060248601526064850191613f71565b90604483015203925af18015610574576105645750f35b61056d90613d2c565b6103035780f35b6040513d84823e3d90fd5b8580fd5b60405163a9146eeb60e01b8152600490fd5b9092506020813d6020116105c6575b816105b160209383613d76565b810103126105c15751913861050c565b600080fd5b3d91506105a4565b6040513d88823e3d90fd5b604051633c43607360e11b8152600490fd5b8280fd5b5034610303578060031936011261030357602060405164e8d4a510008152f35b5034610303576040366003190112610303576004356001600160401b0381116106d357610643610658913690600401613c31565b91906024359261065161417d565b3691613edf565b60208151910120338352600b60205260408320818452602052604083208054156105835760020180546106c157600f546001600160a01b0316156105d957829055337f6e992eb7068e17c8e71ba9dbe83c4b6e1f8dd75b188e22290b0d4721fb76bbca8480a480f35b6040516371a31c2760e01b8152600490fd5b5080fd5b5034610303576020366003190112610303576106f1613bee565b6106f961426e565b600180546001600160a01b0319166001600160a01b0392831690811790915582549091167f38d16b8cac22d99fc7c124b9cd0de2d3fa1faef420bfe791d8c362d765e227008380a380f35b503461030357604036600319011261030357600435602435801580158092036105c15761076f61417d565b828452600a6020526040842080546001600160a01b039290831633810361042c57857fa417ee948a5c9d2786613a25b5c7344175c18ea547f629c63f7de4ceaacb90986020600586019788549860ff8a169960ff83169060ff1916179055604051908152a31561084f575416604051926000805160206146e98339815191528580a380610844575b610801575b505b80f35b6008546000198101908111610830576000805160206146c983398151915291816020926008558152a1386107fc565b634e487b7160e01b83526011600452602483fd5b5060085415156107f7565b505090501561085b5780f35b60085460018101809111610889576020816000805160206146c983398151915292600855604051908152a180f35b634e487b7160e01b82526011600452602482fd5b50346103035780600319360112610303576001546040516001600160a01b039091168152602090f35b50346103035780600319360112610303576040517f00000000000000000000000000000000000000000000000000000000000000006001600160a01b03168152602090f35b5034610303578060031936011261030357602060405160648152f35b5034610303576002604060209261094a61094036613c5e565b9291923691613edf565b8051908601206001600160a01b039091168252600b85528282209082528452200154604051908152f35b50346103035760203660031901126103035760ff60406020926004358152600c84522054166040519015158152f35b5034610303576040366003190112610303576004356024359061ffff82168092036105c1576109d061417d565b6109d8614282565b8115610cb75760405163596e890960e11b8152600481018290526001600160a01b0392907f000000000000000000000000000000000000000000000000000000000000000084169060e081602481855afa9081156105ce578691610c88575b506040516331a9108f60e11b815260048101859052602095908681602481875afa908115610c7d578891610c50575b50813391160361042c57600160ff878401511603610c3e57848752600c865260ff604088205416610c2c5781518752600a86526040872090600654610ab0600484015480926142bf565b60078301548015610c1a5786610ac59161404d565b9164e8d4a510008311610c0857610ae99181600186015416339286541691856144d8565b509390926001600160401b03908160608401511688428211600014610bf8576008610b1792935b015461404d565b906201518091828102928184041490151715610be45782918c93610b3b9216613f32565b1695803b156106d35781809160448b6040519485938492633f97add560e21b845260048401528c60248401525af1801561057457610bc2575b5050907fffa941bdd74336abc13129ba18ac9721bf531ff9f07161484dfb56f1f28dd5be9560a0959493925198604051958652850152604084015260608301526080820152a3600160025580f35b610bd190969594939296613d2c565b610be057909192938838610b74565b8880fd5b634e487b7160e01b8c52601160045260248cfd5b610b179150600884421693610b10565b60405163127f08c960e11b8152600490fd5b604051631140cf7f60e01b8152600490fd5b604051633806084560e11b8152600490fd5b6040516302b79ed360e41b8152600490fd5b610c709150873d8911610c76575b610c688183613d76565b810190613ea5565b38610a66565b503d610c5e565b6040513d8a823e3d90fd5b610caa915060e03d60e011610cb0575b610ca28183613d76565b810190613fc1565b38610a37565b503d610c98565b604051637616640160e01b8152600490fd5b5034610303576020366003190112610303577f3a266fd63d408074525facb4c91054de12d4e7bf0cad93604b63ef604f96e7fc6020600435610d0961426e565b80600955604051908152a180f35b503461030357604036600319011261030357602435906001600160401b038211610303576020610d56610d4d3660048601613c31565b906004356140b6565b604051908152f35b50346103035780600319360112610303576020600854604051908152f35b5034610303576020366003190112610303576004358152600d6020908152604091829020805460019091015483516001600160a01b03909216825291810191909152f35b50346103035760203660031901126103035760405163596e890960e11b8152600480359082018190526001600160a01b0360e0836024817f000000000000000000000000000000000000000000000000000000000000000085165afa928315610ea3578493610e82575b5082518452600a602052604084205416330361042c57808352600c60205260408320805460ff19166001179055905133917fa0fdfae94a7f0d72d671fdddac883ffa712b07cfc84408bfb3ced264d1fc58f18480a480f35b610e9c91935060e03d60e011610cb057610ca28183613d76565b9138610e2a565b6040513d86823e3d90fd5b50346103035780600319360112610303576020600554604051908152f35b5034610303578060031936011261030357602060405160028152f35b50346103035780600319360112610303576020604051633b9aca008152f35b503461030357604036600319011261030357602435600435610f2761417d565b808352600a6020526040832080546001600160a01b0316330361042c57600b90610f50846142e4565b0191808354935560405192835260208301527f6f410fdce106b8b5c37fa32842357b3f2ecea680083897d5490141b384e1bb0160403393a380f35b5034610303578060031936011261030357546040516001600160a01b039091168152602090f35b503461030357608036600319011261030357610fcc613bc2565b610fd4613ca1565b90610fdd613cb2565b610fe561417d565b610fed614282565b6004358452600a602052604084209060ff600583015416156112495760065461101b600484015480926142bf565b61103960ff600985015461103082821661419b565b60081c166141e1565b61106661104786868661448b565b60018501548554919333926001600160a01b03908116921690856144d8565b508796600160ff8816146111f0575b5061ffff6009860154600a8701546040519661109088613d3f565b600435885260ff8a16602089015260ff831660408901526001600160401b038b1660608901521515608088015260a087015260101c1660c08501526110ec6040519463424d8dbf60e11b86523360048701526024860190614060565b602084610104818b7f00000000000000000000000000000000000000000000000000000000000000006001600160a01b03165af1938415610c7d5788946111ba575b506005849055600994909401546040805160ff978816815296821660208801526001600160401b039097169686019690965260109590951c61ffff166060850152608084015260a083019390935260c08201523391600435917f83a9edc2809eed4960fd3ccb7da06a85b3e878e6e1568e8ca281ae543adcc493908060e081015b0390a4600160025580f35b9093506020813d6020116111e8575b816111d660209383613d76565b810103126105c15751926111af61112e565b3d91506111c9565b61120691975061ffff600887015491169061404d565b62015180908181029181830414901517156112355761122d6001600160401b039142613f32565b169538611075565b634e487b7160e01b88526011600452602488fd5b60405163665c1c5760e01b8152600490fd5b503461030357806003193601126103035761127461426e565b61127c61417d565b600160ff1960035416176003557f62e78cea01bee320cd4e420270b5ea74000d11b0c9f74754ebdbfc544b05a2586020604051338152a180f35b503461030357806003193601126103035760206040516107d08152f35b613bd2565b50346103035780600319360112610303576001546001600160a01b033381831603611345576001600160601b0360a01b8092166001556000549133908316176000553391167f8be0079c531659141344cd1fd0a4f28419497f9722a3daafe3b4186f6b6457e0600080a380f35b60405163118cdaa760e01b8152336004820152602490fd5b503461030357602036600319011261030357611377613bee565b61137f61426e565b6001600160a01b0316801561041a57600e80546001600160a01b031916821790557f50a7789fc3a529664680ca40d3b269c318a2d1e034e09941fd478adc549ed42c8280a280f35b5034610303578060031936011261030357602090604051908152f35b50346103035780600319360112610303576113fc61426e565b600180546001600160a01b0319908116909155600080549182168155906001600160a01b03167f8be0079c531659141344cd1fd0a4f28419497f9722a3daafe3b4186f6b6457e08280a380f35b503461030357604036600319011261030357611463613bee565b60243561146e61426e565b6001600160a01b03821691821561041a57816114ad7f6e20afaadac1247355fa762fa54c781b1749acd4853577725d30ff0acf2d8ed0936020936145ea565b604051908152a280f35b503461030357602036600319011261030357806040916101c083516114db81613d5a565b8281528260208201526060858201526060808201528260808201528260a08201528260c08201528260e08201528261010082015282610120820152826101408201528261016082015282610180820152826101a082015201526004358152600a602052206040519061154c82613d5a565b80546001600160a01b039081168352600182015416602083015261157260028201613d97565b604083015261158360038201613d97565b60608301526004810154608083015260ff600582015416151560a0830152600681015460c0830152600781015460e0830152600881015461010083015261ffff600982015460ff811661012085015260ff8160081c1661014085015260101c16610160830152600a810154610180830152600b8101546101a0830152600c60018060a01b03910154166101c082015260405180916020825260018060a01b03815116602083015260018060a01b03602082015116604083015261167061165a60408301516101e06060860152610200850190613e3c565b6060830151848203601f19016080860152613e3c565b90608081015160a084015260a0810151151560c084015260c081015160e084015260e081015161010084015261010081015161012084015260ff6101208201511661014084015260ff6101408201511661016084015261ffff610160820151166101808401526101808101516101a08401526101a08101516101c08401526101c060018060a01b03910151166101e08301520390f35b503461030357602036600319011261030357611720613bee565b61172861426e565b6001600160a01b0316801561041a57601080546001600160a01b031916821790557fcb0aeffe884eb88fb2a31a2f3e4bd1d2763bdee48ba93b28c6e87501228cf7438280a280f35b5034610303576020366003190112610303576004358152600a60205260409020805460018201546001600160a01b0390811692918116916117b360028201613d97565b906117c060038201613d97565b92600482015493600583015460ff166006840154600785015490600886015492600987015494600a88015496600b89015498600c015416986040519c8d9c8d6101e092839282526020820152604001528c0161181b91613e3c565b8b810360608d015261182c91613e3c565b9860808b0152151560a08a015260c089015260e088015261010087015260ff81166101208701528060081c60ff1661014087015260101c61ffff166101608601526101808501526101a08401526101c08301520390f35b50346103035760603660031901126103035761189d613bee565b6118a5613c1b565b906118ae61426e565b6001600160a01b03918083161561041a576107fe9260443592166145a9565b5034610303576020366003190112610303576004356118ea61426e565b60405163596e890960e11b81526004810182905260e0816024817f00000000000000000000000000000000000000000000000000000000000000006001600160a01b03165afa90811561199f578391611980575b50818352600c60205260408320805460ff191660011790555133917fa0fdfae94a7f0d72d671fdddac883ffa712b07cfc84408bfb3ced264d1fc58f18480a480f35b611999915060e03d60e011610cb057610ca28183613d76565b3861193e565b6040513d85823e3d90fd5b50346103035780600319360112610303576020600454604051908152f35b5034610303578060031936011261030357602060ff600354166040519015158152f35b50346103035780600319360112610303576020604051620151808152f35b5034610303578060031936011261030357600e546040516001600160a01b039091168152602090f35b50346103035760a036600319011261030357611a4c613bc2565b611a54613ca1565b611a5c613cb2565b906084356001600160401b038111611d1d57611a7c903690600401613c31565b9091611a8661417d565b611a8e614282565b6004358652600a602052604086209060ff6005830154161561124957859360065492611abf600482015480956142bf565b611ad460ff600983015461103082821661419b565b611b01611ae284888461448b565b60018301548354919633926001600160a01b03908116921690886144d8565b509690928a94600160ff841614611cb6575b50602091611bac611b989260098601549b600a8701549c61ffff9d8e9260ff60405197611b3f89613d3f565b6004358952168988015260ff831660408801526001600160401b038c1660608801521515608087015260a086015260101c1660c0840152604051998a94859463b03fbfbb60e01b86523360048701526024860190614060565b610120610104850152610124840191613f71565b03818c7f00000000000000000000000000000000000000000000000000000000000000006001600160a01b03165af1948515611cab578995611c6f575b506005859055600901546040805160ff998a16815298821660208a01526001600160401b039093169288019290925261ffff60109290921c909516166060860152608085015260a084019290925260c0830152339160043591907f83a9edc2809eed4960fd3ccb7da06a85b3e878e6e1568e8ca281ae543adcc493908060e081016111af565b919450946020823d602011611ca3575b81611c8c60209383613d76565b810103126105c157905190949093906111af611be9565b3d9150611c7f565b6040513d8b823e3d90fd5b6008840154919550611ccd925061ffff169061404d565b62015180908082810204821481151715611d095789611bac6001600160401b03611cfe602095611b98950242613f32565b169692505091611b13565b634e487b7160e01b8b52601160045260248bfd5b8480fd5b503461030357610180366003190112610303576004356001600160401b0381116106d357611d53903690600401613c31565b906024356001600160401b03811161230057611d73903690600401613c31565b92906044356001600160401b03811161057f57611d94903690600401613c31565b929093611d9f613ba1565b93611e0e611dab613bb1565b92611db4613c04565b94611dbd61417d565b611dc86064356142a3565b611dd66064356006546142bf565b611ddf8861419b565b611de8856141e1565b611df960c43560a435608435614227565b611e05610144356142e4565b61065186614329565b60208151910120338952600b60205260408920908952602052604088209561ffff806001890154161461058357865480612273575b506009548015159081612266575b506122545760045497611e6389613f23565b600455888a52600a60205260408a2095336001600160601b0360a01b88541617875560018701336001600160601b0360a01b8254161790556001600160401b038211612240578190611eb86002890154613cc1565b601f81116121ee575b508b90601f8311600114612182578c92612177575b50508160011b916000199060031b1c19161760028601555b6001600160401b03821161216357611f096003860154613cc1565b601f811161211f575b508890601f83116001146120a65792826001979593611fa19361ffff98968d9261209b575b505081891b916000199060031b1c19161760038501555b606435600485015560058401805460ff191688179055608435600685015560a435600785015560c43560088086019190915560098501805461ffff191660ff979097169690961791901b61ff0016178455565b61012435600a83015561014435600b83015560a085901b859003908082161561209157600c90925b0180546001600160a01b031916919092161790558354156120745761200f611ff5838587015416613e7c565b825463ffff00001916601082901b63ffff00001617909255565b8484551661ffff1982840154161791015560085460018101809111610830576020816000805160206146c983398151915292600855604051908152a133907f0da0a1595d5f9a5872904ca8eceb17d6befc55070d4fd387e4c2f1d4553dd01a8380a380f35b805463ffff00001916601084901b63ffff0000161790558161200f565b50600c3392611fc9565b013590503880611f37565b600386018a5260208a20918a5b601f1985168110612107575083611fa19361ffff98969360019a9896938b94601f198116106120ed575b505050811b016003850155611f4e565b0135600019600384901b60f8161c191690553880806120dd565b909260206001819286860135815501940191016120b3565b600386018a5260208a20601f840160051c81016020851061215c575b601f830160051c82018110612151575050611f12565b8b815560010161213b565b508061213b565b634e487b7160e01b89526041600452602489fd5b013590503880611ed6565b600289018d5260208d208d9450915b601f19841685106121d6576001945083601f198116106121bc575b505050811b016002860155611eee565b0135600019600384901b60f8161c191690553880806121ac565b81810135835560209485019460019093019201612191565b909150600288018c5260208c20601f840160051c810160208510612239575b84939291908e5b601f840160051c8301821061222b57505050611ec1565b81558594506001018e612214565b508061220d565b634e487b7160e01b8b52604160045260248bfd5b604051635703766960e01b8152600490fd5b9050600854101538611e51565b8952600a6020526040892060058101805460ff8116612294575b5050611e43565b60ff19169055600854806122cc575b50875490546001600160a01b0316906000805160206146e98339815191528b80a338808061228d565b80600019810111611d09576000190160088190556040519081526000805160206146c983398151915290602090a1386122a3565b8380fd5b503461030357604060609161231b61094036613c5e565b602081519101209060018060a01b03168252600b60205282822090825260205220805490600261ffff6001830154169101549060405192835260208301526040820152f35b50346103035780600319360112610303576007546040516001600160a01b039091168152602090f35b5034610303576040366003190112610303576080906040906001600160a01b036123b1613bee565b168152600b60205281812060243582526020522080549061ffff600182015416906003600282015491015491604051938452602084015260408301526060820152f35b503461030357806003193601126103035761240d61426e565b60035460ff81161561244d5760ff19166003557f5db9ee0a495bf2e6ff9c91a7834c1ba4fdd244a5e8aa4e537bd38aeae4b073aa6020604051338152a180f35b604051638dfc202b60e01b8152600490fd5b50346103035760403660031901126103035760043561247c613c1b565b61248461426e565b61248d826142a3565b6107d082116124f0576001600160a01b0316801561041a57816040917fc5732485634831b5e1b586e2011c5f2b392fe136310c230cf1f04d6caf30c15a93600655806001600160601b0360a01b600754161760075582519182526020820152a180f35b60405163c1bd884560e01b8152600490fd5b5034610303576020806003193601126106d35760405163596e890960e11b815260048035908201819052916001600160a01b03917f000000000000000000000000000000000000000000000000000000000000000083169160e082602481865afa9182156105ce57869261267d575b50848652600c81528060ff604088205416956024604051809681936331a9108f60e11b835260048301525afa9283156105ce579560c096819461265e575b5060ff8284015116916001600160401b0360608501511693876000146125f95750815b604051971515885215159087015215156040860152606085015260808401521660a0820152f35b831592508215612654575b6040015160ff16918080612640575b9281612621575b50916125d2565b6002811491508115612635575b503861261a565b60039150143861262e565b506001831480612613575060038314612613565b4285119250612604565b612676919450823d8411610c7657610c688183613d76565b92386125af565b61269791925060e03d60e011610cb057610ca28183613d76565b9038612571565b5034610303576101a0366003190112610303576004356001600160401b0381116106d3576126d0903690600401613c31565b906024356001600160401b038111612300576126f0903690600401613c31565b92906044356001600160401b03811161057f57612711903690600401613c31565b909161271b613ba1565b91612724613bb1565b9061272d613c04565b966001600160401b03610184351161317f576060610184353603600319011261317f576127b79061275c61417d565b612764614282565b8a976127716064356142a3565b61277f6064356006546142bf565b6127888761419b565b612791856141e1565b6127a260c43560a435608435614227565b6127ae610144356142e4565b6106518a614329565b60208151910120338a52600b60205260408a20908a52602052604089209461ffff8060018801541614610583578554806130f2575b5060095480151590816130e5575b50612254576004549861280c8a613f23565b600455898b52600a60205260408b2094336001600160601b0360a01b87541617865560018601336001600160601b0360a01b8254161790556001600160401b0382116130d15781906128616002880154613cc1565b601f811161307f575b508c90601f8311600114613013578d92613008575b50508160011b916000199060031b1c19161760028501555b6001600160401b038211612ff4576128b26003850154613cc1565b601f8111612faf575b508990601f8311600114612f3957918061ffff96959492612949948d92612f2e575b50508160011b916000199060031b1c19161760038401555b606435600484015560058301805460ff19166001179055608435600684015560a435600784015560c43560088085019190915560098401805461ffff191660ff969096169590951791901b61ff0016178355565b61012435600a82015561014435600b8201556001600160a01b03861615612f2557600c86915b0180546001600160a01b0319166001600160a01b03909216919091179055825415612f0e576129a6611ff583600186015416613e7c565b169160018314612f03575b8482556001808301805461ffff19168517905560085490810181116104065760208160016000805160206146c98339815191529301600855600160405191018152a160405133867f0da0a1595d5f9a5872904ca8eceb17d6befc55070d4fd387e4c2f1d4553dd01a8980a360028301549081158080612ee9575b15612d2d575050600f546001600160a01b03169491505083156105d95761018435602401906001600160a01b03612a6183613f92565b1615612d095750612a73602091613f92565b935b612a856004610184350180613f3f565b9190958888612af5612aa36044610184350161018435600401613f3f565b612ae36040519c8d998a9889976337a1b71960e01b89523360048a0152602489015260018060a01b0316604488015260a0606488015260a4870191613f71565b84810360031901608486015291613f71565b03925af1859381612cd5575b50612b18576040516371a31c2760e01b8152600490fd5b826002820155823390857f40cd9ad911657e73bc37df0291d3b65b0da93eebffd743e2e74b46536c3a30ec8880a45b600e546001600160a01b03169182612b6f575b60408585600160025582519182526020820152f35b600103612b9157505060409250612b896064353384614360565b388080612b5a565b600301908154908115159182612c5b575b505015612c4957600e54815485916001600160a01b0316803b156105eb57604483926040519485938492630510543360e41b84528a600485015260248401525af19081612c35575b50604094918491612c0a57505050612c056064353384614360565b612b89565b7f2776847df6aaa00870d9115b292329e86ed994cb33a78a2f987e9d751c0b02e090549280a3612b89565b612c3f8691613d2c565b611d1d5738612bea565b5060409250612c056064353384614360565b6020919250602460405180948193633816c5d160e11b835260048301525afa908115612cca578591612c90575b503880612ba2565b90506020813d602011612cc2575b81612cab60209383613d76565b81010312611d1d57612cbc90613fa6565b38612c88565b3d9150612c9e565b6040513d87823e3d90fd5b9093506020813d602011612d01575b81612cf160209383613d76565b810103126105c157519238612b01565b3d9150612ce4565b90506001600160a01b03811615612d24576020905b93612a75565b50602033612d1e565b909192955015612d3f575b5050612b47565b90935085843381887f40cd9ad911657e73bc37df0291d3b65b0da93eebffd743e2e74b46536c3a30ec8580a4600f546001600160a01b03169081612ea4575b50505050612d986044610184350161018435600401613f3f565b9050151580612e90575b612dae575b3880612d38565b60018060a01b03600f5416856002830154612dd56044610184350161018435600401613f3f565b93803b1561230057612e0e948480946040519788958694859363b2d8593d60e01b85526004850152604060248501526044840191613f71565b03925af19182612e7c575b505015612da7576002810154847f3cb407773e5c351f31e21929ef7f1db8ddf609610f0f8e462599e9db21b71b93612e5d6044610184350161018435600401613f3f565b612e74604051928392602084526020840191613f71565b0390a3612da7565b612e8590613d2c565b61057f578538612e19565b50600f546001600160a01b03161515612da2565b813b156105eb5783838193604493634dcdbd5960e11b84528b600485015260248401525af1612ed6575b858180612d7e565b612ee290959195613d2c565b9338612ece565b50612efa6004610184350180613f3f565b90501515612a2b565b8460038301556129b1565b805463ffff000019166201000017905560016129a6565b600c339161296f565b0135905038806128dd565b600385018b5260208b20918b5b601f1985168110612f9757509261ffff969594926001926129499583601f19811610612f7d575b505050811b0160038401556128f5565b0135600019600384901b60f8161c19169055388080612f6d565b90926020600181928686013581550194019101612f46565b600385018b5260208b20601f840160051c810160208510612fed575b8c601f840160051c83018210612fe3575050506128bb565b8155600101612fcb565b5080612fcb565b634e487b7160e01b8a52604160045260248afd5b01359050388061287f565b600288018e5260208e208e9450915b601f1984168510613067576001945083601f1981161061304d575b505050811b016002850155612897565b0135600019600384901b60f8161c1916905538808061303d565b81810135835560209485019460019093019201613022565b909150600287018d5260208d20601f840160051c8101602085106130ca575b84939291908f5b601f840160051c830182106130bc5750505061286a565b81558594506001018f6130a5565b508061309e565b634e487b7160e01b8c52604160045260248cfd5b90506008541015386127fa565b8a52600a60205260408a2060058101805460ff8116613113575b50506127ec565b60ff191690556008548061314b575b50865490546001600160a01b0316906000805160206146e98339815191528c80a338808061310c565b80600019810111610be4576000190160088190556040519081526000805160206146c983398151915290602090a138613122565b8980fd5b50346103035780600319360112610303576010546040516001600160a01b039091168152602090f35b503461030357610140366003190112610303576004356001600160401b0381116106d3576131de903690600401613c31565b6024356001600160401b038111612300576131fd903690600401613c31565b92906044356001600160401b03811161057f5761321e903690600401613c31565b61327a61322c959295613ba1565b94613235613bb1565b9361323e61417d565b6132496064356142a3565b6132576064356006546142bf565b6132608761419b565b613269856141e1565b61065160c43560a435608435614227565b60208151910120338852600b60205260408820908852602052604087209461ffff806001880154161461058357855480613686575b506009548015159081613679575b5061225457600454966132cf88613f23565b600455878952600a6020526040892094336001600160601b0360a01b87541617865560018601336001600160601b0360a01b8254161790556001600160401b038211612ff45781906133246002880154613cc1565b601f8111613628575b508a90601f83116001146135bc578b926135b1575b50508160011b916000199060031b1c19161760028501555b6001600160401b03821161359d576133756003850154613cc1565b601f8111613559575b508790601f83116001146134e0576001959383600c9461ffff979461340e948d926134d5575b505081891b916000199060031b1c19161760038401555b606435600484015560058301805460ff191688179055608435600684015560a435600784015560c43560088085019190915560098401805461ffff191660ff979097169690961791901b61ff0016178455565b61012435600a820155600b81018890550180546001600160a01b031916331790558354156134b857613447611ff5838587015416613e7c565b8484551661ffff198284015416179101556008546001810180911161083057906000805160206146c98339815191526020836107fe94600855604051908152a133817f0da0a1595d5f9a5872904ca8eceb17d6befc55070d4fd387e4c2f1d4553dd01a8580a3606435903390614360565b805463ffff00001916601084901b63ffff00001617905581613447565b0135905038806133a4565b6003850189526020892091895b601f198516811061354157509360018461ffff979461340e94839a98600c98601f19811610613527575b505050811b0160038401556133bb565b0135600019600384901b60f8161c19169055388080613517565b909260206001819286860135815501940191016134ed565b60038501895260208920601f840160051c810160208510613596575b601f830160051c8201811061358b57505061337e565b8a8155600101613575565b5080613575565b634e487b7160e01b88526041600452602488fd5b013590503880613342565b600288018c5260208c208c9450915b601f1984168510613610576001945083601f198116106135f6575b505050811b01600285015561335a565b0135600019600384901b60f8161c191690553880806135e6565b818101358355602094850194600190930192016135cb565b909150600287018b5260208b20601f840160051c810160208510613672575b90849392915b8d601f840160051c830182106136655750505061332d565b815585945060010161364d565b5080613647565b90506008541015386132bd565b8852600a6020526040882060058101805460ff81166136a7575b50506132af565b60ff19169055600854806136df575b50865490546001600160a01b0316906000805160206146e98339815191528a80a33880806136a0565b80600019810111613713576000190160088190556040519081526000805160206146c983398151915290602090a1386136b6565b634e487b7160e01b8a52601160045260248afd5b503461030357602036600319011261030357613741613bee565b61374961426e565b6001600160a01b0316801561041a57600f80546001600160a01b031916821790557f1c3b6db6b438df64d69fe11676a03581a3860962063a836411d7cac590063f568280a280f35b50346103035780600319360112610303576020600654604051908152f35b503461030357602036600319011261030357600435808252600a60205260408220546001600160a01b0316330361042c578152600d60205280600160408220828155015580f35b50346103035780600319360112610303576020600954604051908152f35b5034610303576020806003193601126106d357600435808352600a82526040832080549192916001600160a01b03908116330361042c57838552600d8352604085209060016040519261386684613cfb565b828154168452015484830190808252156138f6575142106138e4577fea983ef69798673fd095eaf6ce96e30087e2403d023c0b66930487e5216d53879381600c6040950193845494828251166001600160601b0360a01b8716179055878952600d83528860018782208281550155511691845193168352820152a280f35b60405163621e25c360e01b8152600490fd5b60405163147fde5f60e31b8152600490fd5b5034610303576020806003193601126106d3576004358291818452600a8152604084209060018060a01b0380835416946004600b8501549401549482600e5416908161396c575b505060809650604051958652169084015260408301526060820152f35b849192506024604051809481936344cc01b360e11b835260048301525afa9081156139bf57608097916139a2575b50388061394f565b6139b99150833d8511610c7657610c688183613d76565b3861399a565b6040513d89823e3d90fd5b5034610303578060031936011261030357600f546040516001600160a01b039091168152602090f35b50346103035760203660031901126103035760406080916004358152600a60205220600b81015490600460018060a01b03600c8301541691015460065491604051938452602084015260408301526060820152f35b50346103035760e03660031901126103035760443560043560843560ff81169060243590606435838203613b9d5760a4359060ff82168203613b9957613a8c61417d565b858852600a60205260408820805490976001600160a01b039590918616330361042c57613abb613b039561419b565b613ac4846141e1565b613acf838383614227565b600689015560078801556008870155600986019360ff19855416178455839061ff0082549160081b169061ff001916179055565b61ffff80835460101c16908114610583577fa417ee948a5c9d2786613a25b5c7344175c18ea547f629c63f7de4ceaacb90989260209260ff92600592613b6b918015613b8657613b5290613e7c565b63ffff000082549160101b169063ffff00001916179055565b60c435600a880155865416950154166040519015158152a380f35b50805463ffff0000191662010000179055565b8780fd5b8680fd5b60e4359060ff821682036105c157565b610104359060ff821682036105c157565b6024359060ff821682036105c157565b346105c15760003660031901126105c157602060405160018152f35b600435906001600160a01b03821682036105c157565b61016435906001600160a01b03821682036105c157565b602435906001600160a01b03821682036105c157565b9181601f840112156105c1578235916001600160401b0383116105c157602083818601950101116105c157565b9060406003198301126105c1576004356001600160a01b03811681036105c15791602435906001600160401b0382116105c157613c9d91600401613c31565b9091565b6044359061ffff821682036105c157565b6064359081151582036105c157565b90600182811c92168015613cf1575b6020831014613cdb57565b634e487b7160e01b600052602260045260246000fd5b91607f1691613cd0565b604081019081106001600160401b03821117613d1657604052565b634e487b7160e01b600052604160045260246000fd5b6001600160401b038111613d1657604052565b60e081019081106001600160401b03821117613d1657604052565b6101e081019081106001600160401b03821117613d1657604052565b90601f801991011681019081106001600160401b03821117613d1657604052565b90604051918260008254613daa81613cc1565b90818452602094600191600181169081600014613e1a5750600114613ddb575b505050613dd992500383613d76565b565b600090815285812095935091905b818310613e02575050613dd99350820101388080613dca565b85548884018501529485019487945091830191613de9565b92505050613dd994925060ff191682840152151560051b820101388080613dca565b919082519283825260005b848110613e68575050826000602080949584010152601f8019910116010190565b602081830181015184830182015201613e47565b90600161ffff80931601918211613e8f57565b634e487b7160e01b600052601160045260246000fd5b908160209103126105c157516001600160a01b03811681036105c15790565b6001600160401b038111613d1657601f01601f191660200190565b929192613eeb82613ec4565b91613ef96040519384613d76565b8294818452818301116105c1578281602093846000960137010152565b91908203918211613e8f57565b6000198114613e8f5760010190565b91908201809211613e8f57565b903590601e19813603018212156105c157018035906001600160401b0382116105c1576020019181360383136105c157565b908060209392818452848401376000828201840152601f01601f1916010190565b356001600160a01b03811681036105c15790565b519081151582036105c157565b519060ff821682036105c157565b908160e09103126105c15760405190613fd982613d3f565b80518252613fe960208201613fb3565b6020830152613ffa60408201613fb3565b60408301526060810151906001600160401b03821682036105c15760c091606084015261402960808201613fa6565b608084015260a081015160a0840152015161ffff811681036105c15760c082015290565b81810292918115918404141715613e8f57565b61ffff60c080928051855260ff602082015116602086015260ff60408201511660408601526001600160401b03606082015116606086015260808101511515608086015260a081015160a0860152015116910152565b91906000928352600a60205260018060a01b0360408420541691821561410657916140e8600294926040943691613edf565b60208151910120908252600b60205282822090825260205220015490565b50505090565b600e546001600160a01b0316908115614176576020906024604051809481936344cc01b360e11b835260048301525afa90811561416a5760009161414e575090565b614167915060203d602011610c7657610c688183613d76565b90565b6040513d6000823e3d90fd5b5050600090565b60ff6003541661418957565b60405163d93c066560e01b8152600490fd5b60ff16600181149081156141d6575b81156141cb575b50156141b957565b604051630eb911d560e01b8152600490fd5b6003915014386141b1565b6002811491506141aa565b60ff166001811490811561421c575b8115614211575b50156141ff57565b604051632abf7d0d60e21b8152600490fd5b6003915014386141f7565b6002811491506141f0565b801580614266575b610c1a5764e8d4a5100080911190811561425c575b50610c085761425357610cb757565b600111610cb757565b9050811138614244565b50811561422f565b6000546001600160a01b0316330361134557565b60028054146142915760028055565b604051633ee5aeb560e01b8152600490fd5b612710106142ad57565b60405163c6cc5d7f60e01b8152600490fd5b612710916142cc91613f32565b116142d357565b60405162c9a16b60e31b8152600490fd5b8015159081614307575b506142f557565b604051632e0d2f7560e01b8152600490fd5b606481109150811561431b575b50386142ee565b633b9aca0091501138614314565b6001600160a01b03811615159081614355575b5061434357565b6040516311970e2d60e31b8152600490fd5b90503b15153861433c565b600e5490926001600160a01b0392909183168061437f575b5050505050565b604051633816c5d160e11b815260048101869052602092908381602481865afa90811561416a57600091614456575b50156143bb575b50614378565b60848591600085946040519788958694632972764d60e11b86528c600487015216806024860152604485015260648401525af1918291600093614437575b5050614408575b8080806143b5565b16907fd6d3a3b0133de6515b878d7d0c6151618cfc9fab7b3105554b711cea1ce3157c600080a3388080614400565b61444e929350803d10610c7657610c688183613d76565b9038806143f9565b90508381813d8311614484575b61446d8183613d76565b810103126105c15761447e90613fa6565b386143ae565b503d614463565b9060ff16806144a457506006915001548015610c1a5790565b600103610c3e5760070154908115610c1a5761ffff168015610cb7576144c99161404d565b64e8d4a510008111610c085790565b60105491956001600160a01b0395949093909286168015614597576127109788600654614505908661404d565b04986145128a928661404d565b04978892836145218488613f16565b9061452b91613f16565b6040516323b872dd60e01b60208201526001600160a01b039a909a1660248b01523060448b01526064808b0197909752958952949788959061456e608482613d76565b6145779161466c565b60075416906145859161464f565b61458e9161464f565b613dd99161464f565b60405163a51ad60560e01b8152600490fd5b60405163a9059cbb60e01b60208201526001600160a01b03929092166024830152604480830193909352918152613dd9916145e5606483613d76565b61466c565b811561464b576000918291829182916001600160a01b03165af13d15614646573d61461481613ec4565b906146226040519283613d76565b8152600060203d92013e5b1561463457565b6040516312171d8360e31b8152600490fd5b61462d565b5050565b90801561464b57601054613dd992906001600160a01b03166145a9565b906000602091828151910182855af11561416a576000513d6146bf57506001600160a01b0381163b155b61469d5750565b604051635274afe760e01b81526001600160a01b039091166004820152602490fd5b6001141561469656fe00a17e39748f90dcc231579b95804358753dc835acd3f3972717efc03a8b5511c3090e5fbc3f92a65283d58dece4ae699cc0ca8e124dbc474240bb1aed0b77e7a2646970667358221220c03b62427613dcbbe13b8d29b049f849f21753c53c0290ad34549cbf6c9f511b64736f6c634300081800336080346200041857601f19906001600160401b0390601f90620028c03881900383810186168301858111848210176200040257839282916040528339602092839181010312620004185751936001600160a01b03938486169384870362000418576200006a6200041d565b93601885527f4d61726b6574706c6163654149204c6963656e73652056320000000000000000818601526200009e6200041d565b90600882526726a820a4a624a19960c11b8183015285519484861162000402576000958654976001988981811c91168015620003f7575b85821014620003e35790818784931162000390575b5084908783116001146200032f57899262000323575b5050600019600383901b1c191690881b1786555b82519485116200030f5786548781811c9116801562000304575b83821014620002f05790818587969594931162000297575b508193851160011462000232575050849262000226575b5050600019600383901b1c191690831b1782555b33156200020e5760018060a01b03199081600754166007556006549133908316176006557f8be0079c531659141344cd1fd0a4f28419497f9722a3daafe3b4186f6b6457e0604051953393169180a360085515620001ff575060098054610100600160a81b03191660089290921b610100600160a81b031691909117905560405161248290816200043e8239f35b63d92e233d60e01b8152600490fd5b60249060405190631e4fbdf760e01b82526004820152fd5b0151905038806200015d565b879593929193168587528387209387905b8282106200027d575050841162000263575b505050811b01825562000171565b015160001960f88460031b161c1916905538808062000255565b848401518655899790950194938401939081019062000243565b9091929394508787528287208580880160051c820192858910620002e6575b9188978b9297969594930160051c01915b828110620002d757505062000146565b8981558897508a9101620002c7565b92508192620002b6565b634e487b7160e01b87526022600452602487fd5b90607f16906200012e565b634e487b7160e01b86526041600452602486fd5b01519050388062000100565b90848b9416918a8052868b20928b5b888282106200037957505084116200035f575b505050811b01865562000114565b015160001960f88460031b161c1916905538808062000351565b8385015186558e979095019493840193016200033e565b9091508880528489208780850160051c820192878610620003d9575b918c91869594930160051c01915b828110620003ca575050620000ea565b8b81558594508c9101620003ba565b92508192620003ac565b634e487b7160e01b89526022600452602489fd5b90607f1690620000d5565b634e487b7160e01b600052604160045260246000fd5b600080fd5b60408051919082016001600160401b03811183821017620004025760405256fe6080604081815260048036101561001557600080fd5b600092833560e01c90816301ffc9a71461173b5750806306fdde031461168a578063081812fc1461164f578063095ea7b314611573578063162094c41461138b57806318160ddd1461136c57806323b872dd1461135457806331f9abb91461128e5780633f4ba83a1461122557806342842e0e146111f657806355f804b3146110065780635ba1c1a914610fe85780635c975abb14610fc45780636352211e14610f9357806370a0823114610f3e578063715018a614610ed757806379ba509714610e4f5780638456cb5914610df4578063849b1b7e14610cb05780638da5cb5b14610c875780638f31ae0614610c2a57806395d89b4114610b3f578063a175734614610b0a578063a22cb46514610a69578063aab5a87714610a4c578063abc8c7af14610a1f578063b03fbfbb14610738578063b2dd12121461061c578063b88d4fde14610588578063c58636c01461051f578063c87b56dd146104cc578063e30c3978146104a3578063e985e9c514610451578063f2fde38b146103e3578063f577a50014610392578063f7ea85701461036b578063fc86e3ed1461029f5763fe5eb754146101c557600080fd5b3461029b578160031936011261029b578035916024356001600160401b03811692838203610297576009546001600160a01b039060081c8116330361028857858752600260205283872054161561027b5750916020916102737f054fa8435d3273ca8d4ef85d3750539bc2d0fde8fd9ad8e6b3c82a83fe8c255994868852600d85526001838920019069ffffffffffffffff000082549160101b169069ffffffffffffffff00001916179055565b51908152a280f35b8251626f708760e21b8152fd5b508251632b35006d60e21b8152fd5b8580fd5b8280fd5b50903461029b578260031936011261029b576102b9612005565b8051916102c583611882565b600a546001600160a01b039081168452600b5460208501818152919391901561035d57514210610350575050600980549251610100600160a81b03198416600882811b610100600160a81b031691909117909255600a859055600b859055821692901c167fc7afa5bbbb939feca6615e3a8c298615524ec5b0f27c48a211ee475fd2aca5878380a380f35b5163621e25c360e01b8152fd5b505163147fde5f60e31b8152fd5b833461038f578060031936011261038f57610384612005565b80600a5580600b5580f35b80fd5b503461029b57602036600319011261029b578035808452600260205292829020546001600160a01b0316156103d657506103cd602092611f47565b90519015158152f35b9051626f708760e21b8152fd5b833461038f57602036600319011261038f576103fd6117ef565b610405612005565b600780546001600160a01b0319166001600160a01b039283169081179091556006549091167f38d16b8cac22d99fc7c124b9cd0de2d3fa1faef420bfe791d8c362d765e227008380a380f35b50503461049f578060031936011261049f5760ff816020936104716117ef565b61047961180a565b6001600160a01b0391821683526005875283832091168252855220549151911615158152f35b5080fd5b50503461049f578160031936011261049f5760075490516001600160a01b039091168152602090f35b503461029b57602036600319011261029b578035808452600260205292829020546001600160a01b0316156103d6575061050861051b92611c15565b90519182916020835260208301906117ca565b0390f35b503461029b57602036600319011261029b5780358084526002602052828420549091906001600160a01b03161561027b57506001828460ff9360209652600d865220015460081c16906001821491821561057d575b50519015158152f35b600314915038610574565b50903461029b57608036600319011261029b576105a36117ef565b6105ab61180a565b6044359185606435956001600160401b03871161049f573660238801121561049f57860135956105e66105dd88611993565b965196876118e9565b868652366024888301011161049f5786610619976024602093018389013786010152610613838383611a10565b336122de565b80f35b50913461038f576020928360031936011261049f578035908260c08551610642816118b3565b828152828882015282878201528260608201528260808201528260a082015201528183526002855260018060a01b0384842054161561072b5760e0856003868087878152600d855220815191610697836118b3565b8154948584526001830154918185019060ff8416825260ff818701818660081c1681526001600160401b03948260608a0195878960101c1687528160808c019960501c161515895260c060028b01549a60a08d019b8c5261ffff9d8e910154169b019a8b5285519c8d525116908b01525116908801525116606086015251151560808501525160a0840152511660c0820152f35b8351626f708760e21b8152fd5b50903461029b5761012036600319011261029b576107546117ef565b9261075e3661190a565b906001600160401b036101043581811161029b5761077f9036908701611820565b6009549092906001600160a01b039060081c81163303610a0f576107a1612031565b6107a9612054565b8816156109ff5761020083116109ef57600c546107c590611bf0565b9687600c55878552602098600d8a52888887209780518955600198898101908d83015160ff16918054928d85015160081b61ff00169061ffff19809516171781558760608501511661083890829069ffffffffffffffff000082549160101b169069ffffffffffffffff00001916179055565b6080840151151581549060ff60501b9060501b169060ff60501b191617905560a083015160028201556003019160c0015161ffff169082541617905561087d91612072565b83610891575b505050505060085551908152f35b878552600f89528685209184116109dc575090816108b1889493546119ae565b601f8111610988575b5084601f84116001146109175760008051602061242d83398151915294958461090c575b50600019600385901b1c191683871b1790555b6108ff8651928392836119e8565b0390a23880808080610883565b9050820135386108de565b601f198416958282528a8220915b8b89898310610971575050508460008051602061242d833981519152969710610957575b50508583811b0190556108f1565b830135600019600386901b60f8161c191690553880610949565b8387013585558c9850909301929182019101610925565b9080929394508552888520601f850160051c8101918a86106109d2575b899594939291601f89920160051c01915b8281106109c45750506108ba565b8781558a96508891016109b6565b90915081906109a5565b634e487b7160e01b855260419052602484fd5b85516322e3481360e21b81528790fd5b855163d92e233d60e01b81528790fd5b8651632b35006d60e21b81528890fd5b50503461049f578160031936011261049f57600954905160089190911c6001600160a01b03168152602090f35b50503461049f578160031936011261049f57602090516102008152f35b50903461029b578060031936011261029b57610a836117ef565b9060243591821515809303610b06576001600160a01b0316928315610af15750338452600560205280842083855260205280842060ff1981541660ff8416179055519081527f17307eab39ab6107e8899845ad3d59bd9653f200f220920489ca2b5937696c3160203392a380f35b836024925191630b61174360e31b8352820152fd5b8480fd5b82843461038f578060031936011261038f5750600a54600b5491516001600160a01b0390911681526020810191909152604090f35b82843461038f578060031936011261038f57815191828260019360015494610b66866119ae565b9182855260209687600182169182600014610c03575050600114610ba7575b50505061051b9291610b989103856118e9565b519282849384528301906117ca565b9190869350600183527fb10e2d527612073b26eecdfd717e6a320cf44b4afac2b0732d9fcbe2b7fa0cf65b828410610beb5750505082010181610b9861051b610b85565b8054848a018601528895508794909301928101610bd2565b60ff19168782015293151560051b86019093019350849250610b98915061051b9050610b85565b503461029b57602036600319011261029b5780358084526002602052828420549091906001600160a01b03161561027b57506001828460ff9360209652600d865220015460081c16906002821491821561057d5750519015158152f35b50503461049f578160031936011261049f5760065490516001600160a01b039091168152602090f35b503461029b5761010036600319011261029b57610ccb6117ef565b90610cd53661190a565b6009549091906001600160a01b039060081c81163303610de557610cf7612031565b610cff612054565b831615610dd757506020938392610dcc92610d1b600c54611bf0565b95869384600c55848152600d8952208151815561ffff60c06003600184019360ff8c870151169480549561ff008c89015160081b1690861980981617178155610d926001600160401b03606089015116829069ffffffffffffffff000082549160101b169069ffffffffffffffff00001916179055565b6080870151151581549060ff60501b9060501b169060ff60501b191617905560a08601516002820155019301511690825416179055612072565b600160085551908152f35b835163d92e233d60e01b8152fd5b508351632b35006d60e21b8152fd5b50503461049f578160031936011261049f5760207f62e78cea01bee320cd4e420270b5ea74000d11b0c9f74754ebdbfc544b05a25891610e32612005565b610e3a612054565b600160ff19600954161760095551338152a180f35b50903461029b578260031936011261029b57600754916001600160a01b03913383851603610ec05750506001600160601b0360a01b8092166007556006549133908316176006553391167f8be0079c531659141344cd1fd0a4f28419497f9722a3daafe3b4186f6b6457e08380a380f35b60249250519063118cdaa760e01b82523390820152fd5b833461038f578060031936011261038f57610ef0612005565b600780546001600160a01b031990811690915560068054918216905581906001600160a01b03167f8be0079c531659141344cd1fd0a4f28419497f9722a3daafe3b4186f6b6457e08280a380f35b50913461038f57602036600319011261038f576001600160a01b03610f616117ef565b16928315610f7e5750806020938392526003845220549051908152f35b91516322718ad960e21b815291820152602490fd5b50913461038f57602036600319011261038f5750610fb360209235611fca565b90516001600160a01b039091168152f35b50503461049f578160031936011261049f5760209060ff6009541690519015158152f35b50503461049f578160031936011261049f5760209051620151808152f35b5082903461049f57602092602060031936011261029b576001600160401b03908235828111610b065761103c9036908501611820565b939092611047612005565b61020085116111e75784116109dc5750611062600e546119ae565b601f8111611184575b508394601f84116001146110d957506110c8908385967f6741b2fc379fad678116fe3d4d4b9a1a184ab53ba36b86ad0fa66340b1ab41ad96916110ce575b508460011b906000198660031b1c191617600e555b51928392836119e8565b0390a180f35b9050830135876110a9565b94601f198416600e86527fbb7b4a454dc3493923482f07822329ed19e8244eff582cc204f8554c3620c3fd9686905b82821061116b575050956110c89291857f6741b2fc379fad678116fe3d4d4b9a1a184ab53ba36b86ad0fa66340b1ab41ad979810611151575b5050600184811b01600e556110be565b840135600019600387901b60f8161c191690558680611141565b8386013589556001909801979283019290810190611108565b600e85527fbb7b4a454dc3493923482f07822329ed19e8244eff582cc204f8554c3620c3fd601f850160051c810191602086106111dd575b601f0160051c01905b8181106111d2575061106b565b8581556001016111c5565b90915081906111bc565b5090516322e3481360e21b8152fd5b50503461049f576106199061120a3661184d565b91925192611217846118ce565b858452610613838383611a10565b503461029b578260031936011261029b5761123e612005565b6009549060ff821615611280575060ff1916600955513381527f5db9ee0a495bf2e6ff9c91a7834c1ba4fdd244a5e8aa4e537bd38aeae4b073aa90602090a180f35b8251638dfc202b60e01b8152fd5b50903461029b57602036600319011261029b576112a96117ef565b916112b2612005565b6001600160a01b0392831692831561134557620151804201918242116113325750816020917f25a8bbb0546fb970f237a9d8faaebb8610077d196eef4ba1d6145ad23a6910419383865161130581611882565b8881520152856001600160601b0360a01b600a541617600a5581600b5560095460081c169351908152a380f35b634e487b7160e01b865260119052602485fd5b50905163d92e233d60e01b8152fd5b833461038f576106196113663661184d565b91611a10565b50503461049f578160031936011261049f57602090600c549051908152f35b5082903461049f578260031936011261049f578035906001600160401b0390602435828111610b06576113c19036908301611820565b600954909391926001600160a01b039160081c82163303611565578587526020916002835288882054161561155857610200851161154a57858752600f8252878720928511611537575061141582546119ae565b601f81116114f4575b508590601f851160011461147a5750956114699184879860008051602061242d83398151915297989161146f575b508560011b906000198760031b1c191617905551928392836119e8565b0390a280f35b90508401358961144c565b90601f1985168388528288209288905b8282106114dc5750509161146993918660008051602061242d83398151915298999a94106114c2575b5050600185811b0190556110be565b850135600019600388901b60f8161c1916905588806114b3565b80600185968294968a0135815501950193019061148a565b828752818720601f860160051c81019183871061152d575b601f0160051c01905b818110611522575061141e565b878155600101611515565b909150819061150c565b634e487b7160e01b875260419052602486fd5b87516322e3481360e21b8152fd5b8751626f708760e21b8152fd5b8751632b35006d60e21b8152fd5b50903461029b578060031936011261029b5761158d6117ef565b9160243561159a81611fca565b3315158061163c575b80611613575b6115fd576001600160a01b039485169482918691167f8c5be1e5ebec7d5bd14f71427d1e84f3dd0314c0f7b2291e5b200ac8c7c3b9258880a48452602052822080546001600160a01b031916909117905580f35b835163a9fbf51f60e01b81523381850152602490fd5b506001600160a01b03811686526005602090815284872033885290528386205460ff16156115a9565b506001600160a01b0381163314156115a3565b503461029b57602036600319011261029b5791826020933561167081611fca565b50825283528190205490516001600160a01b039091168152f35b82843461038f578060031936011261038f57815191828283546116ac816119ae565b9081845260209560019187600182169182600014610c035750506001146116e05750505061051b9291610b989103856118e9565b91908693508280527f290decd9548b62a8d60345a988386fc84ba6bc95484008f6362f93160ef3e5635b8284106117235750505082010181610b9861051b610b85565b8054848a01860152889550879490930192810161170a565b9250503461029b57602036600319011261029b573563ffffffff60e01b811680910361029b57602092506380ac58cd60e01b8114908115611796575b8115611785575b5015158152f35b6301ffc9a760e01b1490503861177e565b635b5e139f60e01b81149150611777565b60005b8381106117ba5750506000910152565b81810151838201526020016117aa565b906020916117e3815180928185528580860191016117a7565b601f01601f1916010190565b600435906001600160a01b038216820361180557565b600080fd5b602435906001600160a01b038216820361180557565b9181601f84011215611805578235916001600160401b038311611805576020838186019501011161180557565b6060906003190112611805576001600160a01b0390600435828116810361180557916024359081168103611805579060443590565b604081019081106001600160401b0382111761189d57604052565b634e487b7160e01b600052604160045260246000fd5b60e081019081106001600160401b0382111761189d57604052565b602081019081106001600160401b0382111761189d57604052565b90601f801991011681019081106001600160401b0382111761189d57604052565b60e09060231901126118055760405190611923826118b3565b81602435815260443560ff8116810361180557602082015260643560ff811681036118055760408201526084356001600160401b038116810361180557606082015260a435801515810361180557608082015260c43560a082015260e4359061ffff821682036118055760c00152565b6001600160401b03811161189d57601f01601f191660200190565b90600182811c921680156119de575b60208310146119c857565b634e487b7160e01b600052602260045260246000fd5b91607f16916119bd565b90918060409360208452816020850152848401376000828201840152601f01601f1916010190565b916001600160a01b03918216918215611bd757600093828552602093600285526040958387822054169533151580611b49575b508787151580611b16575b84845260038352818420805460010190558784526002835281842080546001600160a01b0319168617905581519488908a7fddf252ad1be2c89b69c2b068fc378daa952ba7f163c4a11628f55a4df523b3ef8780a480611b0e575b611ae2575b505050501692838303611ac15750505050565b6064945051926364283d7b60e01b8452600484015260248301526044820152fd5b60ff92600d6001935220015460501c1615611aff57808087611aae565b63dc8d8db760e01b8152600490fd5b506001611aa9565b600088815260046020526040902080546001600160a01b0319169055888452600383528184208054600019019055611a4e565b80611b96575b15611b5a5738611a43565b878688611b77576024915190637e27328960e01b82526004820152fd5b905163177e802f60e01b81523360048201526024810191909152604490fd5b503387148015611bbb575b80611b4f5750858252600481523385898420541614611b4f565b5086825260058152878220338352815260ff8883205416611ba1565b604051633250574960e11b815260006004820152602490fd5b6000198114611bff5760010190565b634e487b7160e01b600052601160045260246000fd5b600090808252602090600f8252604092838120918451829381815495611c3a876119ae565b92838352600197898982169182600014611f27575050600114611ee9575b50611c65925003826118e9565b8051611ee057508451600e5490938385611c7e846119ae565b9182825288820194898582169182600014611ec5575050600114611e6a575b611ca9925003866118e9565b845115611e535782839185947a184f03e93ff9f4daa797ed6e38ed64bf6a1f0100000000000000009081811015611e46575b5050876d04ee2d6d415b85acef810000000080851015611e38575b5050662386f26fc1000080841015611e29575b506305f5e10080841015611e1a575b5061271080841015611e0b575b506064831015611dfb575b600a80931015611df2575b9081602186611d64838d9901611d5c611d5382611993565b9a519a8b6118e9565b808a52611993565b888c019990601f1901368b3750870101905b611dbc575b5050505090611dad611db995949392611d9e9751978895518092888801906117a7565b840191518093868401906117a7565b010380845201826118e9565b90565b600019019083906f181899199a1a9b1b9c1cb0b131b232b360811b8282061a835304918215611ded57919082611d76565b611d7b565b80940193611d3b565b9391606460029104920193611d30565b60049195930492019338611d25565b60089195930492019338611d18565b60109195930492019338611d09565b950194909204918738611cf6565b8a96500492503880611cdb565b505050929150505190611e65826118ce565b815290565b5050600e8552858786847fbb7b4a454dc3493923482f07822329ed19e8244eff582cc204f8554c3620c3fd5b858310611eac575050611ca99350820101611c9d565b80919294505483858c0101520191018890848993611e96565b60ff19168752611ca994151560051b8401019150611c9d9050565b94505050505090565b915050845281868086208787915b858310611f0e575050611c65935082010138611c58565b8091929450548385880101520191018790878593611ef7565b60ff191685820152611c6595151560051b8501019250389150611c589050565b600052600d602052604060002060405190611f61826118b3565b8054825260018101549160c061ffff600360ff86169485602086015260ff8760081c16604086015260ff6001600160401b038860101c169788606088015260501c1615156080860152600281015460a086015201541691015215611fc457421090565b50600190565b6000818152600260205260409020546001600160a01b0316908115611fed575090565b60249060405190637e27328960e01b82526004820152fd5b6006546001600160a01b0316330361201957565b60405163118cdaa760e01b8152336004820152602490fd5b600260085414612042576002600855565b604051633ee5aeb560e01b8152600490fd5b60ff6009541661206057565b60405163d93c066560e01b8152600490fd5b6040805161207f816118ce565b6000808252936001600160a01b038481169490929085156122c6578287526020936002855285882054168015159081612293575b878952600386528689206001815401905584895260028652868920886001600160601b0360a01b82541617905584888851927fddf252ad1be2c89b69c2b068fc378daa952ba7f163c4a11628f55a4df523b3ef8c80a4818061228b575b612267575b5061224f573b612128575b505050505050565b82612166918596979894955180938192630a85bd0160e11b968784523360048501528c602485015260448401526080606484015260848301906117ca565b03818a8a5af187918161220b575b506121d4575050503d6000146121cb573d61218e81611993565b9061219b845192836118e9565b81528094823d92013e5b835193846121c5578251633250574960e11b815260048101859052602490fd5b84925001fd5b606093506121a5565b919550915063ffffffff60e01b16036121f4575050388080808080612120565b602492505190633250574960e11b82526004820152fd5b9091508481813d8311612248575b61222381836118e9565b8101031261224457516001600160e01b031981168103612244579038612174565b8780fd5b503d612219565b84516339e3563760e11b815260048101889052602490fd5b600d865260ff6001888b20015460501c166121155763dc8d8db760e01b8152600490fd5b506001612110565b600085815260046020526040902080546001600160a01b03191690558089526003865286892080546000190190556120b3565b8451633250574960e11b815260048101889052602490fd5b90939192833b6122f0575b5050505050565b604051630a85bd0160e11b8082526001600160a01b03938416600483015295831660248201526044810191909152608060648201529492169260209291859061233d9060848301906117ca565b039483816000978189895af18691816123e8575b506123b2575050503d6000146123a9573d61236b81611993565b9061237960405192836118e9565b81528093823d92013e5b825192836123a457604051633250574960e11b815260048101849052602490fd5b019050fd5b60609250612383565b919450915063ffffffff60e01b16036123d0575038808080806122e9565b60249060405190633250574960e11b82526004820152fd5b9091508481813d8311612425575b61240081836118e9565b8101031261242157516001600160e01b031981168103612421579038612351565b8680fd5b503d6123f656fe931f495b9a8e5d8e61946ea5d61e021f636cfe213a801f97589c18c152e408bda2646970667358221220085ce13a5785591d64e3a21b81256b23163123a7b219651605b99d62ef72820f64736f6c63430008180033c3a99852514e5923cdffb2779c4b432ed502acf7b7ca78b2087a8c49d82bf6a7",
  "linkReferences": {},
  "deployedLinkReferences": {}
}