{
  "_format": "hh-sol-artifact-1",
  "contractName": "LicenseNFTV2",
  "sourceName": "contracts/LicenseNFTV2.sol",
  "abi": [
    {
      "inputs": [
        {
          "internalType": "address",
          "name": "marketplace_",
          "type": "address"
        }
      ],
      "stateMutability": "nonpayable",
      "type": "constructor"
    },
    {
      "inputs": [
        {
          "internalType": "address",
          "name": "sender",
          "type": "address"
        },
        {
          "internalType": "uint256",
          "name": "tokenId",
          "type": "uint256"
        },
        {
          "internalType": "address",
          "name": "owner",
          "type": "address"
        }
      ],
      "name": "ERC721IncorrectOwner",
      "type": "error"
    },
    {
      "inputs": [
        {
          "internalType": "address",
          "name": "operator",
          "type": "address"
        },
        {
          "internalType": "uint256",
          "name": "tokenId",
          "type": "uint256"
        }
      ],
      "name": "ERC721InsufficientApproval",
      "type": "error"
    },
    {
      "inputs": [
        {
          "internalType": "address",
          "name": "approver",
          "type": "address"
        }
      ],
      "name": "ERC721InvalidApprover",
      "type": "error"
    },
    {
      "inputs": [
        {
          "internalType": "address",
          "name": "operator",
          "type": "address"
        }
      ],
      "name": "ERC721InvalidOperator",
      "type": "error"
    },
    {
      "inputs": [
        {
          "internalType": "address",
          "name": "owner",
          "type": "address"
        }
      ],
      "name": "ERC721InvalidOwner",
      "type": "error"
    },
    {
      "inputs": [
        {
          "internalType": "address",
          "name": "receiver",
          "type": "address"
        }
      ],
      "name": "ERC721InvalidReceiver",
      "type": "error"
    },
    {
      "inputs": [
        {
          "internalType": "address",
          "name": "sender",
          "type": "address"
        }
      ],
      "name": "ERC721InvalidSender",
      "type": "error"
    },
    {
      "inputs": [
        {
          "internalType": "uint256",
          "name": "tokenId",
          "type": "uint256"
        }
      ],
      "name": "ERC721NonexistentToken",
      "type": "error"
    },
    {
      "inputs": [],
      "name": "EnforcedPause",
      "type": "error"
    },
    {
      "inputs": [],
      "name": "ExpectedPause",
      "type": "error"
    },
    {
      "inputs": [],
      "name": "NoPendingChange",
      "type": "error"
    },
    {
      "inputs": [],
      "name": "NotTransferable",
      "type": "error"
    },
    {
      "inputs": [],
      "name": "OnlyMarketplace",
      "type": "error"
    },
    {
      "inputs": [
        {
          "internalType": "address",
          "name": "owner",
          "type": "address"
        }
      ],
      "name": "OwnableInvalidOwner",
      "type": "error"
    },
    {
      "inputs": [
        {
          "internalType": "address",
          "name": "account",
          "type": "address"
        }
      ],
      "name": "OwnableUnauthorizedAccount",
      "type": "error"
    },
    {
      "inputs": [],
      "name": "ReentrancyGuardReentrantCall",
      "type": "error"
    },
    {
      "inputs": [],
      "name": "TimelockNotExpired",
      "type": "error"
    },
    {
      "inputs": [],
      "name": "TokenNotExists",
      "type": "error"
    },
    {
      "inputs": [],
      "name": "URITooLong",
      "type": "error"
    },
    {
      "inputs": [],
      "name": "ZeroAddress",
      "type": "error"
    },
    {
      "anonymous": false,
      "inputs": [
        {
          "indexed": true,
          "internalType": "address",
          "name": "owner",
          "type": "address"
        },
        {
          "indexed": true,
          "internalType": "address",
          "name": "approved",
          "type": "address"
        },
        {
          "indexed": true,
          "internalType": "uint256",
          "name": "tokenId",
          "type": "uint256"
        }
      ],
      "name": "Approval",
      "type": "event"
    },
    {
      "anonymous": false,
      "inputs": [
        {
          "indexed": true,
          "internalType": "address",
          "name": "owner",
          "type": "address"
        },
        {
          "indexed": true,
          "internalType": "address",
          "name": "operator",
          "type": "address"
        },
        {
          "indexed": false,
          "internalType": "bool",
          "name": "approved",
          "type": "bool"
        }
      ],
      "name": "ApprovalForAll",
      "type": "event"
    },
    {
      "anonymous": false,
      "inputs": [
        {
          "indexed": false,
          "internalType": "string",
          "name": "newBaseURI",
          "type": "string"
        }
      ],
      "name": "BaseURIUpdated",
      "type": "event"
    },
    {
      "anonymous": false,
      "inputs": [
        {
          "indexed": true,
          "internalType": "uint256",
          "name": "tokenId",
          "type": "uint256"
        },
        {
          "indexed": false,
          "internalType": "uint64",
          "name": "newExpiresAt",
          "type": "uint64"
        }
      ],
      "name": "LicenseExpirationUpdated",
      "type": "event"
    },
    {
      "anonymous": false,
      "inputs": [
        {
          "indexed": true,
          "internalType": "address",
          "name": "oldMarketplace",
          "type": "address"
        },
        {
          "indexed": true,
          "internalType": "address",
          "name": "newMarketplace",
          "type": "address"
        },
        {
          "indexed": false,
          "internalType": "uint256",
          "name": "effectiveAt",
          "type": "uint256"
        }
      ],
      "name": "MarketplaceChangeRequested",
      "type": "event"
    },
    {
      "anonymous": false,
      "inputs": [
        {
          "indexed": true,
          "internalType": "address",
          "name": "oldMarketplace",
          "type": "address"
        },
        {
          "indexed": true,
          "internalType": "address",
          "name": "newMarketplace",
          "type": "address"
        }
      ],
      "name": "MarketplaceChanged",
      "type": "event"
    },
    {
      "anonymous": false,
      "inputs": [
        {
          "indexed": true,
          "internalType": "address",
          "name": "previousOwner",
          "type": "address"
        },
        {
          "indexed": true,
          "internalType": "address",
          "name": "newOwner",
          "type": "address"
        }
      ],
      "name": "OwnershipTransferStarted",
      "type": "event"
    },
    {
      "anonymous": false,
      "inputs": [
        {
          "indexed": true,
          "internalType": "address",
          "name": "previousOwner",
          "type": "address"
        },
        {
          "indexed": true,
          "internalType": "address",
          "name": "newOwner",
          "type": "address"
        }
      ],
      "name": "OwnershipTransferred",
      "type": "event"
    },
    {
      "anonymous": false,
      "inputs": [
        {
          "indexed": false,
          "internalType": "address",
          "name": "account",
          "type": "address"
        }
      ],
      "name": "Paused",
      "type": "event"
    },
    {
      "anonymous": false,
      "inputs": [
        {
          "indexed": true,
          "internalType": "uint256",
          "name": "tokenId",
          "type": "uint256"
        },
        {
          "indexed": false,
          "internalType": "string",
          "name": "uri",
          "type": "string"
        }
      ],
      "name": "TokenURIUpdated",
      "type": "event"
    },
    {
      "anonymous": false,
      "inputs": [
        {
          "indexed": true,
          "internalType": "address",
          "name": "from",
          "type": "address"
        },
        {
          "indexed": true,
          "internalType": "address",
          "name": "to",
          "type": "address"
        },
        {
          "indexed": true,
          "internalType": "uint256",
          "name": "tokenId",
          "type": "uint256"
        }
      ],
      "name": "Transfer",
      "type": "event"
    },
    {
      "anonymous": false,
      "inputs": [
        {
          "indexed": false,
          "internalType": "address",
          "name": "account",
          "type": "address"
        }
      ],
      "name": "Unpaused",
      "type": "event"
    },
    {
      "inputs": [],
      "name": "MAX_URI_LENGTH",
      "outputs": [
        {
          "internalType": "uint256",
          "name": "",
          "type": "uint256"
        }
      ],
      "stateMutability": "view",
      "type": "function"
    },
    {
      "inputs": [],
      "name": "TIMELOCK_DELAY",
      "outputs": [
        {
          "internalType": "uint256",
          "name": "",
          "type": "uint256"
        }
      ],
      "stateMutability": "view",
      "type": "function"
    },
    {
      "inputs": [],
      "name": "acceptOwnership",
      "outputs": [],
      "stateMutability": "nonpayable",
      "type": "function"
    },
    {
      "inputs": [
        {
          "internalType": "address",
          "name": "to",
          "type": "address"
        },
        {
          "internalType": "uint256",
          "name": "tokenId",
          "type": "uint256"
        }
      ],
      "name": "approve",
      "outputs": [],
      "stateMutability": "nonpayable",
      "type": "function"
    },
    {
      "inputs": [
        {
          "internalType": "address",
          "name": "owner",
          "type": "address"
        }
      ],
      "name": "balanceOf",
      "outputs": [
        {
          "internalType": "uint256",
          "name": "",
          "type": "uint256"
        }
      ],
      "stateMutability": "view",
      "type": "function"
    },
    {
      "inputs": [],
      "name": "cancelMarketplaceChange",
      "outputs": [],
      "stateMutability": "nonpayable",
      "type": "function"
    },
    {
      "inputs": [],
      "name": "executeMarketplaceChange",
      "outputs": [],
      "stateMutability": "nonpayable",
      "type": "function"
    },
    {
      "inputs": [
        {
          "internalType": "uint256",
          "name": "tokenId",
          "type": "uint256"
        }
      ],
      "name": "getApproved",
      "outputs": [
        {
          "internalType": "address",
          "name": "",
          "type": "address"
        }
      ],
      "stateMutability": "view",
      "type": "function"
    },
    {
      "inputs": [
        {
          "internalType": "uint256",
          "name": "tokenId",
          "type": "uint256"
        }
      ],
      "name": "getLicense",
      "outputs": [
        {
          "components": [
            {
              "internalType": "uint256",
              "name": "modelId",
              "type": "uint256"
            },
            {
              "internalType": "uint8",
              "name": "licenseKind",
              "type": "uint8"
            },
            {
              "internalType": "uint8",
              "name": "rights",
              "type": "uint8"
            },
            {
              "internalType": "uint64",
              "name": "expiresAt",
              "type": "uint64"
            },
            {
              "internalType": "bool",
              "name": "transferable",
              "type": "bool"
            },
            {
              "internalType": "bytes32",
              "name": "termsHash",
              "type": "bytes32"
            },
            {
              "internalType": "uint16",
              "name": "version",
              "type": "uint16"
            }
          ],
          "internalType": "struct LicenseNFTV2.LicenseData",
          "name": "",
          "type": "tuple"
        }
      ],
      "stateMutability": "view",
      "type": "function"
    },
    {
      "inputs": [
        {
          "internalType": "uint256",
          "name": "tokenId",
          "type": "uint256"
        }
      ],
      "name": "hasApiRights",
      "outputs": [
        {
          "internalType": "bool",
          "name": "",
          "type": "bool"
        }
      ],
      "stateMutability": "view",
      "type": "function"
    },
    {
      "inputs": [
        {
          "internalType": "uint256",
          "name": "tokenId",
          "type": "uint256"
        }
      ],
      "name": "hasDownloadRights",
      "outputs": [
        {
          "internalType": "bool",
          "name": "",
          "type": "bool"
        }
      ],
      "stateMutability": "view",
      "type": "function"
    },
    {
      "inputs": [
        {
          "internalType": "address",
          "name": "owner",
          "type": "address"
        },
        {
          "internalType": "address",
          "name": "operator",
          "type": "address"
        }
      ],
      "name": "isApprovedForAll",
      "outputs": [
        {
          "internalType": "bool",
          "name": "",
          "type": "bool"
        }
      ],
      "stateMutability": "view",
      "type": "function"
    },
    {
      "inputs": [
        {
          "internalType": "uint256",
          "name": "tokenId",
          "type": "uint256"
        }
      ],
      "name": "isValid",
      "outputs": [
        {
          "internalType": "bool",
          "name": "",
          "type": "bool"
        }
      ],
      "stateMutability": "view",
      "type": "function"
    },
    {
      "inputs": [],
      "name": "marketplace",
      "outputs": [
        {
          "internalType": "address",
          "name": "",
          "type": "address"
        }
      ],
      "stateMutability": "view",
      "type": "function"
    },
    {
      "inputs": [
        {
          "internalType": "address",
          "name": "to",
          "type": "address"
        },
        {
          "components": [
            {
              "internalType": "uint256",
              "name": "modelId",
              "type": "uint256"
            },
            {
              "internalType": "uint8",
              "name": "licenseKind",
              "type": "uint8"
            },
            {
              "internalType": "uint8",
              "name": "rights",
              "type": "uint8"
            },
            {
              "internalType": "uint64",
              "name": "expiresAt",
              "type": "uint64"
            },
            {
              "internalType": "bool",
              "name": "transferable",
              "type": "bool"
            },
            {
              "internalType": "bytes32",
              "name": "termsHash",
              "type": "bytes32"
            },
            {
              "internalType": "uint16",
              "name": "version",
              "type": "uint16"
            }
          ],
          "internalType": "struct LicenseNFTV2.LicenseData",
          "name": "d",
          "type": "tuple"
        }
      ],
      "name": "mint",
      "outputs": [
        {
          "internalType": "uint256",
          "name": "tokenId",
          "type": "uint256"
        }
      ],
      "stateMutability": "nonpayable",
      "type": "function"
    },
    {
      "inputs": [
        {
          "internalType": "address",
          "name": "to",
          "type": "address"
        },
        {
          "components": [
            {
              "internalType": "uint256",
              "name": "modelId",
              "type": "uint256"
            },
            {
              "internalType": "uint8",
              "name": "licenseKind",
              "type": "uint8"
            },
            {
              "internalType": "uint8",
              "name": "rights",
              "type": "uint8"
            },
            {
              "internalType": "uint64",
              "name": "expiresAt",
              "type": "uint64"
            },
            {
              "internalType": "bool",
              "name": "transferable",
              "type": "bool"
            },
            {
              "internalType": "bytes32",
              "name": "termsHash",
              "type": "bytes32"
            },
            {
              "internalType": "uint16",
              "name": "version",
              "type": "uint16"
            }
          ],
          "internalType": "struct LicenseNFTV2.LicenseData",
          "name": "d",
          "type": "tuple"
        },
        {
          "internalType": "string",
          "name": "uri",
          "type": "string"
        }
      ],
      "name": "mintWithURI",
      "outputs": [
        {
          "internalType": "uint256",
          "name": "tokenId",
          "type": "uint256"
        }
      ],
      "stateMutability": "nonpayable",
      "type": "function"
    },
    {
      "inputs": [],
      "name": "name",
      "outputs": [
        {
          "internalType": "string",
          "name": "",
          "type": "string"
        }
      ],
      "stateMutability": "view",
      "type": "function"
    },
    {
      "inputs": [],
      "name": "owner",
      "outputs": [
        {
          "internalType": "address",
          "name": "",
          "type": "address"
        }
      ],
      "stateMutability": "view",
      "type": "function"
    },
    {
      "inputs": [
        {
          "internalType": "uint256",
          "name": "tokenId",
          "type": "uint256"
        }
      ],
      "name": "ownerOf",
      "outputs": [
        {
          "internalType": "address",
          "name": "",
          "type": "address"
        }
      ],
      "stateMutability": "view",
      "type": "function"
    },
    {
      "inputs": [],
      "name": "pause",
      "outputs": [],
      "stateMutability": "nonpayable",
      "type": "function"
    },
    {
      "inputs": [],
      "name": "paused",
      "outputs": [
        {
          "internalType": "bool",
          "name": "",
          "type": "bool"
        }
      ],
      "stateMutability": "view",
      "type": "function"
    },
    {
      "inputs": [],
      "name": "pendingMarketplaceChange",
      "outputs": [
        {
          "internalType": "address",
          "name": "newMarketplace",
          "type": "address"
        },
        {
          "internalType": "uint256",
          "name": "effectiveAt",
          "type": "uint256"
        }
      ],
      "stateMutability": "view",
      "type": "function"
    },
    {
      "inputs": [],
      "name": "pendingOwner",
      "outputs": [
        {
          "internalType": "address",
          "name": "",
          "type": "address"
        }
      ],
      "stateMutability": "view",
      "type": "function"
    },
    {
      "inputs": [],
      "name": "renounceOwnership",
      "outputs": [],
      "stateMutability": "nonpayable",
      "type": "function"
    },
    {
      "inputs": [
        {
          "internalType": "address",
          "name": "newMarketplace",
          "type": "address"
        }
      ],
      "name": "requestMarketplaceChange",
      "outputs": [],
      "stateMutability": "nonpayable",
      "type": "function"
    },
    {
      "inputs": [
        {
          "internalType": "address",
          "name": "from",
          "type": "address"
        },
        {
          "internalType": "address",
          "name": "to",
          "type": "address"
        },
        {
          "internalType": "uint256",
          "name": "tokenId",
          "type": "uint256"
        }
      ],
      "name": "safeTransferFrom",
      "outputs": [],
      "stateMutability": "nonpayable",
      "type": "function"
    },
    {
      "inputs": [
        {
          "internalType": "address",
          "name": "from",
          "type": "address"
        },
        {
          "internalType": "address",
          "name": "to",
          "type": "address"
        },
        {
          "internalType": "uint256",
          "name": "tokenId",
          "type": "uint256"
        },
        {
          "internalType": "bytes",
          "name": "data",
          "type": "bytes"
        }
      ],
      "name": "safeTransferFrom",
      "outputs": [],
      "stateMutability": "nonpayable",
      "type": "function"
    },
    {
      "inputs": [
        {
          "internalType": "address",
          "name": "operator",
          "type": "address"
        },
        {
          "internalType": "bool",
          "name": "approved",
          "type": "bool"
        }
      ],
      "name": "setApprovalForAll",
      "outputs": [],
      "stateMutability": "nonpayable",
      "type": "function"
    },
    {
      "inputs": [
        {
          "internalType": "string",
          "name": "newBaseURI",
          "type": "string"
        }
      ],
      "name": "setBaseURI",
      "outputs": [],
      "stateMutability": "nonpayable",
      "type": "function"
    },
    {
      "inputs": [
        {
          "internalType": "uint256",
          "name": "tokenId",
          "type": "uint256"
        },
        {
          "internalType": "string",
          "name": "uri",
          "type": "string"
        }
      ],
      "name": "setTokenURI",
      "outputs": [],
      "stateMutability": "nonpayable",
      "type": "function"
    },
    {
      "inputs": [
        {
          "internalType": "bytes4",
          "name": "interfaceId",
          "type": "bytes4"
        }
      ],
      "name": "supportsInterface",
      "outputs": [
        {
          "internalType": "bool",
          "name": "",
          "type": "bool"
        }
      ],
      "stateMutability": "view",
      "type": "function"
    },
    {
      "inputs": [],
      "name": "symbol",
      "outputs": [
        {
          "internalType": "string",
          "name": "",
          "type": "string"
        }
      ],
      "stateMutability": "view",
      "type": "function"
    },
    {
      "inputs": [
        {
          "internalType": "uint256",
          "name": "tokenId",
          "type": "uint256"
        }
      ],
      "name": "tokenURI",
      "outputs": [
        {
          "internalType": "string",
          "name": "",
          "type": "string"
        }
      ],
      "stateMutability": "view",
      "type": "function"
    },
    {
      "inputs": [],
      "name": "totalSupply",
      "outputs": [
        {
          "internalType": "uint256",
          "name": "",
          "type": "uint256"
        }
      ],
      "stateMutability": "view",
      "type": "function"
    },
    {
      "inputs": [
        {
          "internalType": "address",
          "name": "from",
          "type": "address"
        },
        {
          "internalType": "address",
          "name": "to",
          "type": "address"
        },
        {
          "internalType": "uint256",
          "name": "tokenId",
          "type": "uint256"
        }
      ],
      "name": "transferFrom",
      "outputs": [],
      "stateMutability": "nonpayable",
      "type": "function"
    },
    {
      "inputs": [
        {
          "internalType": "address",
          "name": "newOwner",
          "type": "address"
        }
      ],
      "name": "transferOwnership",
      "outputs": [],
      "stateMutability": "nonpayable",
      "type": "function"
    },
    {
      "inputs": [],
      "name": "unpause",
      "outputs": [],
      "stateMutability": "nonpayable",
      "type": "function"
    },
    {
      "inputs": [
        {
          "internalType": "uint256",
          "name": "tokenId",
          "type": "uint256"
        },
        {
          "internalType": "uint64",
          "name": "newExpiresAt",
          "type": "uint64"
        }
      ],
      "name": "updateExpires",
      "outputs": [],
      "stateMutability": "nonpayable",
      "type": "function"
    }
  ],
  "bytecode": "0x6080346200041857601f19906001600160401b0390601f90620028c03881900383810186168301858111848210176200040257839282916040528339602092839181010312620004185751936001600160a01b03938486169384870362000418576200006a6200041d565b93601885527f4d61726b6574706c6163654149204c6963656e73652056320000000000000000818601526200009e6200041d565b90600882526726a820a4a624a19960c11b8183015285519484861162000402576000958654976001988981811c91168015620003f7575b85821014620003e35790818784931162000390575b5084908783116001146200032f57899262000323575b5050600019600383901b1c191690881b1786555b82519485116200030f5786548781811c9116801562000304575b83821014620002f05790818587969594931162000297575b508193851160011462000232575050849262000226575b5050600019600383901b1c191690831b1782555b33156200020e5760018060a01b03199081600754166007556006549133908316176006557f8be0079c531659141344cd1fd0a4f28419497f9722a3daafe3b4186f6b6457e0604051953393169180a360085515620001ff575060098054610100600160a81b03191660089290921b610100600160a81b031691909117905560405161248290816200043e8239f35b63d92e233d60e01b8152600490fd5b60249060405190631e4fbdf760e01b82526004820152fd5b0151905038806200015d565b879593929193168587528387209387905b8282106200027d575050841162000263575b505050811b01825562000171565b015160001960f88460031b161c1916905538808062000255565b848401518655899790950194938401939081019062000243565b9091929394508787528287208580880160051c820192858910620002e6575b9188978b9297969594930160051c01915b828110620002d757505062000146565b8981558897508a9101620002c7565b92508192620002b6565b634e487b7160e01b87526022600452602487fd5b90607f16906200012e565b634e487b7160e01b86526041600452602486fd5b01519050388062000100565b90848b9416918a8052868b20928b5b888282106200037957505084116200035f575b505050811b01865562000114565b015160001960f88460031b161c1916905538808062000351565b8385015186558e979095019493840193016200033e565b9091508880528489208780850160051c820192878610620003d9575b918c91869594930160051c01915b828110620003ca575050620000ea565b8b81558594508c9101620003ba565b92508192620003ac565b634e487b7160e01b89526022600452602489fd5b90607f1690620000d5565b634e487b7160e01b600052604160045260246000fd5b600080fd5b60408051919082016001600160401b03811183821017620004025760405256fe6080604081815260048036101561001557600080fd5b600092833560e01c90816301ffc9a71461173b5750806306fdde031461168a578063081812fc1461164f578063095ea7b314611573578063162094c41461138b57806318160ddd1461136c57806323b872dd1461135457806331f9abb91461128e5780633f4ba83a1461122557806342842e0e146111f657806355f804b3146110065780635ba1c1a914610fe85780635c975abb14610fc45780636352211e14610f9357806370a0823114610f3e578063715018a614610ed757806379ba509714610e4f5780638456cb5914610df4578063849b1b7e14610cb05780638da5cb5b14610c875780638f31ae0614610c2a57806395d89b4114610b3f578063a175734614610b0a578063a22cb46514610a69578063aab5a87714610a4c578063abc8c7af14610a1f578063b03fbfbb14610738578063b2dd12121461061c578063b88d4fde14610588578063c58636c01461051f578063c87b56dd146104cc578063e30c3978146104a3578063e985e9c514610451578063f2fde38b146103e3578063f577a50014610392578063f7ea85701461036b578063fc86e3ed1461029f5763fe5eb754146101c557600080fd5b3461029b578160031936011261029b578035916024356001600160401b03811692838203610297576009546001600160a01b039060081c8116330361028857858752600260205283872054161561027b5750916020916102737f054fa8435d3273ca8d4ef85d3750539bc2d0fde8fd9ad8e6b3c82a83fe8c255994868852600d85526001838920019069ffffffffffffffff000082549160101b169069ffffffffffffffff00001916179055565b51908152a280f35b8251626f708760e21b8152fd5b508251632b35006d60e21b8152fd5b8580fd5b8280fd5b50903461029b578260031936011261029b576102b9612005565b8051916102c583611882565b600a546001600160a01b039081168452600b5460208501818152919391901561035d57514210610350575050600980549251610100600160a81b03198416600882811b610100600160a81b031691909117909255600a859055600b859055821692901c167fc7afa5bbbb939feca6615e3a8c298615524ec5b0f27c48a211ee475fd2aca5878380a380f35b5163621e25c360e01b8152fd5b505163147fde5f60e31b8152fd5b833461038f578060031936011261038f57610384612005565b80600a5580600b5580f35b80fd5b503461029b57602036600319011261029b578035808452600260205292829020546001600160a01b0316156103d657506103cd602092611f47565b90519015158152f35b9051626f708760e21b8152fd5b833461038f57602036600319011261038f576103fd6117ef565b610405612005565b600780546001600160a01b0319166001600160a01b039283169081179091556006549091167f38d16b8cac22d99fc7c124b9cd0de2d3fa1faef420bfe791d8c362d765e227008380a380f35b50503461049f578060031936011261049f5760ff816020936104716117ef565b61047961180a565b6001600160a01b0391821683526005875283832091168252855220549151911615158152f35b5080fd5b50503461049f578160031936011261049f5760075490516001600160a01b039091168152602090f35b503461029b57602036600319011261029b578035808452600260205292829020546001600160a01b0316156103d6575061050861051b92611c15565b90519182916020835260208301906117ca565b0390f35b503461029b57602036600319011261029b5780358084526002602052828420549091906001600160a01b03161561027b57506001828460ff9360209652600d865220015460081c16906001821491821561057d575b50519015158152f35b600314915038610574565b50903461029b57608036600319011261029b576105a36117ef565b6105ab61180a565b6044359185606435956001600160401b03871161049f573660238801121561049f57860135956105e66105dd88611993565b965196876118e9565b868652366024888301011161049f5786610619976024602093018389013786010152610613838383611a10565b336122de565b80f35b50913461038f576020928360031936011261049f578035908260c08551610642816118b3565b828152828882015282878201528260608201528260808201528260a082015201528183526002855260018060a01b0384842054161561072b5760e0856003868087878152600d855220815191610697836118b3565b8154948584526001830154918185019060ff8416825260ff818701818660081c1681526001600160401b03948260608a0195878960101c1687528160808c019960501c161515895260c060028b01549a60a08d019b8c5261ffff9d8e910154169b019a8b5285519c8d525116908b01525116908801525116606086015251151560808501525160a0840152511660c0820152f35b8351626f708760e21b8152fd5b50903461029b5761012036600319011261029b576107546117ef565b9261075e3661190a565b906001600160401b036101043581811161029b5761077f9036908701611820565b6009549092906001600160a01b039060081c81163303610a0f576107a1612031565b6107a9612054565b8816156109ff5761020083116109ef57600c546107c590611bf0565b9687600c55878552602098600d8a52888887209780518955600198898101908d83015160ff16918054928d85015160081b61ff00169061ffff19809516171781558760608501511661083890829069ffffffffffffffff000082549160101b169069ffffffffffffffff00001916179055565b6080840151151581549060ff60501b9060501b169060ff60501b191617905560a083015160028201556003019160c0015161ffff169082541617905561087d91612072565b83610891575b505050505060085551908152f35b878552600f89528685209184116109dc575090816108b1889493546119ae565b601f8111610988575b5084601f84116001146109175760008051602061242d83398151915294958461090c575b50600019600385901b1c191683871b1790555b6108ff8651928392836119e8565b0390a23880808080610883565b9050820135386108de565b601f198416958282528a8220915b8b89898310610971575050508460008051602061242d833981519152969710610957575b50508583811b0190556108f1565b830135600019600386901b60f8161c191690553880610949565b8387013585558c9850909301929182019101610925565b9080929394508552888520601f850160051c8101918a86106109d2575b899594939291601f89920160051c01915b8281106109c45750506108ba565b8781558a96508891016109b6565b90915081906109a5565b634e487b7160e01b855260419052602484fd5b85516322e3481360e21b81528790fd5b855163d92e233d60e01b81528790fd5b8651632b35006d60e21b81528890fd5b50503461049f578160031936011261049f57600954905160089190911c6001600160a01b03168152602090f35b50503461049f578160031936011261049f57602090516102008152f35b50903461029b578060031936011261029b57610a836117ef565b9060243591821515809303610b06576001600160a01b0316928315610af15750338452600560205280842083855260205280842060ff1981541660ff8416179055519081527f17307eab39ab6107e8899845ad3d59bd9653f200f220920489ca2b5937696c3160203392a380f35b836024925191630b61174360e31b8352820152fd5b8480fd5b82843461038f578060031936011261038f5750600a54600b5491516001600160a01b0390911681526020810191909152604090f35b82843461038f578060031936011261038f57815191828260019360015494610b66866119ae565b9182855260209687600182169182600014610c03575050600114610ba7575b50505061051b9291610b989103856118e9565b519282849384528301906117ca565b9190869350600183527fb10e2d527612073b26eecdfd717e6a320cf44b4afac2b0732d9fcbe2b7fa0cf65b828410610beb5750505082010181610b9861051b610b85565b8054848a018601528895508794909301928101610bd2565b60ff19168782015293151560051b86019093019350849250610b98915061051b9050610b85565b503461029b57602036600319011261029b5780358084526002602052828420549091906001600160a01b03161561027b57506001828460ff9360209652600d865220015460081c16906002821491821561057d5750519015158152f35b50503461049f578160031936011261049f5760065490516001600160a01b039091168152602090f35b503461029b5761010036600319011261029b57610ccb6117ef565b90610cd53661190a565b6009549091906001600160a01b039060081c81163303610de557610cf7612031565b610cff612054565b831615610dd757506020938392610dcc92610d1b600c54611bf0565b95869384600c55848152600d8952208151815561ffff60c06003600184019360ff8c870151169480549561ff008c89015160081b1690861980981617178155610d926001600160401b03606089015116829069ffffffffffffffff000082549160101b169069ffffffffffffffff00001916179055565b6080870151151581549060ff60501b9060501b169060ff60501b191617905560a08601516002820155019301511690825416179055612072565b600160085551908152f35b835163d92e233d60e01b8152fd5b508351632b35006d60e21b8152fd5b50503461049f578160031936011261049f5760207f62e78cea01bee320cd4e420270b5ea74000d11b0c9f74754ebdbfc544b05a25891610e32612005565b610e3a612054565b600160ff19600954161760095551338152a180f35b50903461029b578260031936011261029b57600754916001600160a01b03913383851603610ec05750506001600160601b0360a01b8092166007556006549133908316176006553391167f8be0079c531659141344cd1fd0a4f28419497f9722a3daafe3b4186f6b6457e08380a380f35b60249250519063118cdaa760e01b82523390820152fd5b833461038f578060031936011261038f57610ef0612005565b600780546001600160a01b031990811690915560068054918216905581906001600160a01b03167f8be0079c531659141344cd1fd0a4f28419497f9722a3daafe3b4186f6b6457e08280a380f35b50913461038f57602036600319011261038f576001600160a01b03610f616117ef565b16928315610f7e5750806020938392526003845220549051908152f35b91516322718ad960e21b815291820152602490fd5b50913461038f57602036600319011261038f5750610fb360209235611fca565b90516001600160a01b039091168152f35b50503461049f578160031936011261049f5760209060ff6009541690519015158152f35b50503461049f578160031936011261049f5760209051620151808152f35b5082903461049f57602092602060031936011261029b576001600160401b03908235828111610b065761103c9036908501611820565b939092611047612005565b61020085116111e75784116109dc5750611062600e546119ae565b601f8111611184575b508394601f84116001146110d957506110c8908385967f6741b2fc379fad678116fe3d4d4b9a1a184ab53ba36b86ad0fa66340b1ab41ad96916110ce575b508460011b906000198660031b1c191617600e555b51928392836119e8565b0390a180f35b9050830135876110a9565b94601f198416600e86527fbb7b4a454dc3493923482f07822329ed19e8244eff582cc204f8554c3620c3fd9686905b82821061116b575050956110c89291857f6741b2fc379fad678116fe3d4d4b9a1a184ab53ba36b86ad0fa66340b1ab41ad979810611151575b5050600184811b01600e556110be565b840135600019600387901b60f8161c191690558680611141565b8386013589556001909801979283019290810190611108565b600e85527fbb7b4a454dc3493923482f07822329ed19e8244eff582cc204f8554c3620c3fd601f850160051c810191602086106111dd575b601f0160051c01905b8181106111d2575061106b565b8581556001016111c5565b90915081906111bc565b5090516322e3481360e21b8152fd5b50503461049f576106199061120a3661184d565b91925192611217846118ce565b858452610613838383611a10565b503461029b578260031936011261029b5761123e612005565b6009549060ff821615611280575060ff1916600955513381527f5db9ee0a495bf2e6ff9c91a7834c1ba4fdd244a5e8aa4e537bd38aeae4b073aa90602090a180f35b8251638dfc202b60e01b8152fd5b50903461029b57602036600319011261029b576112a96117ef565b916112b2612005565b6001600160a01b0392831692831561134557620151804201918242116113325750816020917f25a8bbb0546fb970f237a9d8faaebb8610077d196eef4ba1d6145ad23a6910419383865161130581611882565b8881520152856001600160601b0360a01b600a541617600a5581600b5560095460081c169351908152a380f35b634e487b7160e01b865260119052602485fd5b50905163d92e233d60e01b8152fd5b833461038f576106196113663661184d565b91611a10565b50503461049f578160031936011261049f57602090600c549051908152f35b5082903461049f578260031936011261049f578035906001600160401b0390602435828111610b06576113c19036908301611820565b600954909391926001600160a01b039160081c82163303611565578587526020916002835288882054161561155857610200851161154a57858752600f8252878720928511611537575061141582546119ae565b601f81116114f4575b508590601f851160011461147a5750956114699184879860008051602061242d83398151915297989161146f575b508560011b906000198760031b1c191617905551928392836119e8565b0390a280f35b90508401358961144c565b90601f1985168388528288209288905b8282106114dc5750509161146993918660008051602061242d83398151915298999a94106114c2575b5050600185811b0190556110be565b850135600019600388901b60f8161c1916905588806114b3565b80600185968294968a0135815501950193019061148a565b828752818720601f860160051c81019183871061152d575b601f0160051c01905b818110611522575061141e565b878155600101611515565b909150819061150c565b634e487b7160e01b875260419052602486fd5b87516322e3481360e21b8152fd5b8751626f708760e21b8152fd5b8751632b35006d60e21b8152fd5b50903461029b578060031936011261029b5761158d6117ef565b9160243561159a81611fca565b3315158061163c575b80611613575b6115fd576001600160a01b039485169482918691167f8c5be1e5ebec7d5bd14f71427d1e84f3dd0314c0f7b2291e5b200ac8c7c3b9258880a48452602052822080546001600160a01b031916909117905580f35b835163a9fbf51f60e01b81523381850152602490fd5b506001600160a01b03811686526005602090815284872033885290528386205460ff16156115a9565b506001600160a01b0381163314156115a3565b503461029b57602036600319011261029b5791826020933561167081611fca565b50825283528190205490516001600160a01b039091168152f35b82843461038f578060031936011261038f57815191828283546116ac816119ae565b9081845260209560019187600182169182600014610c035750506001146116e05750505061051b9291610b989103856118e9565b91908693508280527f290decd9548b62a8d60345a988386fc84ba6bc95484008f6362f93160ef3e5635b8284106117235750505082010181610b9861051b610b85565b8054848a01860152889550879490930192810161170a565b9250503461029b57602036600319011261029b573563ffffffff60e01b811680910361029b57602092506380ac58cd60e01b8114908115611796575b8115611785575b5015158152f35b6301ffc9a760e01b1490503861177e565b635b5e139f60e01b81149150611777565b60005b8381106117ba5750506000910152565b81810151838201526020016117aa565b906020916117e3815180928185528580860191016117a7565b601f01601f1916010190565b600435906001600160a01b038216820361180557565b600080fd5b602435906001600160a01b038216820361180557565b9181601f84011215611805578235916001600160401b038311611805576020838186019501011161180557565b6060906003190112611805576001600160a01b0390600435828116810361180557916024359081168103611805579060443590565b604081019081106001600160401b0382111761189d57604052565b634e487b7160e01b600052604160045260246000fd5b60e081019081106001600160401b0382111761189d57604052565b602081019081106001600160401b0382111761189d57604052565b90601f801991011681019081106001600160401b0382111761189d57604052565b60e09060231901126118055760405190611923826118b3565b81602435815260443560ff8116810361180557602082015260643560ff811681036118055760408201526084356001600160401b038116810361180557606082015260a435801515810361180557608082015260c43560a082015260e4359061ffff821682036118055760c00152565b6001600160401b03811161189d57601f01601f191660200190565b90600182811c921680156119de575b60208310146119c857565b634e487b7160e01b600052602260045260246000fd5b91607f16916119bd565b90918060409360208452816020850152848401376000828201840152601f01601f1916010190565b916001600160a01b03918216918215611bd757600093828552602093600285526040958387822054169533151580611b49575b508787151580611b16575b84845260038352818420805460010190558784526002835281842080546001600160a01b0319168617905581519488908a7fddf252ad1be2c89b69c2b068fc378daa952ba7f163c4a11628f55a4df523b3ef8780a480611b0e575b611ae2575b505050501692838303611ac15750505050565b6064945051926364283d7b60e01b8452600484015260248301526044820152fd5b60ff92600d6001935220015460501c1615611aff57808087611aae565b63dc8d8db760e01b8152600490fd5b506001611aa9565b600088815260046020526040902080546001600160a01b0319169055888452600383528184208054600019019055611a4e565b80611b96575b15611b5a5738611a43565b878688611b77576024915190637e27328960e01b82526004820152fd5b905163177e802f60e01b81523360048201526024810191909152604490fd5b503387148015611bbb575b80611b4f5750858252600481523385898420541614611b4f565b5086825260058152878220338352815260ff8883205416611ba1565b604051633250574960e11b815260006004820152602490fd5b6000198114611bff5760010190565b634e487b7160e01b600052601160045260246000fd5b600090808252602090600f8252604092838120918451829381815495611c3a876119ae565b92838352600197898982169182600014611f27575050600114611ee9575b50611c65925003826118e9565b8051611ee057508451600e5490938385611c7e846119ae565b9182825288820194898582169182600014611ec5575050600114611e6a575b611ca9925003866118e9565b845115611e535782839185947a184f03e93ff9f4daa797ed6e38ed64bf6a1f0100000000000000009081811015611e46575b5050876d04ee2d6d415b85acef810000000080851015611e38575b5050662386f26fc1000080841015611e29575b506305f5e10080841015611e1a575b5061271080841015611e0b575b506064831015611dfb575b600a80931015611df2575b9081602186611d64838d9901611d5c611d5382611993565b9a519a8b6118e9565b808a52611993565b888c019990601f1901368b3750870101905b611dbc575b5050505090611dad611db995949392611d9e9751978895518092888801906117a7565b840191518093868401906117a7565b010380845201826118e9565b90565b600019019083906f181899199a1a9b1b9c1cb0b131b232b360811b8282061a835304918215611ded57919082611d76565b611d7b565b80940193611d3b565b9391606460029104920193611d30565b60049195930492019338611d25565b60089195930492019338611d18565b60109195930492019338611d09565b950194909204918738611cf6565b8a96500492503880611cdb565b505050929150505190611e65826118ce565b815290565b5050600e8552858786847fbb7b4a454dc3493923482f07822329ed19e8244eff582cc204f8554c3620c3fd5b858310611eac575050611ca99350820101611c9d565b80919294505483858c0101520191018890848993611e96565b60ff19168752611ca994151560051b8401019150611c9d9050565b94505050505090565b915050845281868086208787915b858310611f0e575050611c65935082010138611c58565b8091929450548385880101520191018790878593611ef7565b60ff191685820152611c6595151560051b8501019250389150611c589050565b600052600d602052604060002060405190611f61826118b3565b8054825260018101549160c061ffff600360ff86169485602086015260ff8760081c16604086015260ff6001600160401b038860101c169788606088015260501c1615156080860152600281015460a086015201541691015215611fc457421090565b50600190565b6000818152600260205260409020546001600160a01b0316908115611fed575090565b60249060405190637e27328960e01b82526004820152fd5b6006546001600160a01b0316330361201957565b60405163118cdaa760e01b8152336004820152602490fd5b600260085414612042576002600855565b604051633ee5aeb560e01b8152600490fd5b60ff6009541661206057565b60405163d93c066560e01b8152600490fd5b6040805161207f816118ce565b6000808252936001600160a01b038481169490929085156122c6578287526020936002855285882054168015159081612293575b878952600386528689206001815401905584895260028652868920886001600160601b0360a01b82541617905584888851927fddf252ad1be2c89b69c2b068fc378daa952ba7f163c4a11628f55a4df523b3ef8c80a4818061228b575b612267575b5061224f573b612128575b505050505050565b82612166918596979894955180938192630a85bd0160e11b968784523360048501528c602485015260448401526080606484015260848301906117ca565b03818a8a5af187918161220b575b506121d4575050503d6000146121cb573d61218e81611993565b9061219b845192836118e9565b81528094823d92013e5b835193846121c5578251633250574960e11b815260048101859052602490fd5b84925001fd5b606093506121a5565b919550915063ffffffff60e01b16036121f4575050388080808080612120565b602492505190633250574960e11b82526004820152fd5b9091508481813d8311612248575b61222381836118e9565b8101031261224457516001600160e01b031981168103612244579038612174565b8780fd5b503d612219565b84516339e3563760e11b815260048101889052602490fd5b600d865260ff6001888b20015460501c166121155763dc8d8db760e01b8152600490fd5b506001612110565b600085815260046020526040902080546001600160a01b03191690558089526003865286892080546000190190556120b3565b8451633250574960e11b815260048101889052602490fd5b90939192833b6122f0575b5050505050565b604051630a85bd0160e11b8082526001600160a01b03938416600483015295831660248201526044810191909152608060648201529492169260209291859061233d9060848301906117ca565b039483816000978189895af18691816123e8575b506123b2575050503d6000146123a9573d61236b81611993565b9061237960405192836118e9565b81528093823d92013e5b825192836123a457604051633250574960e11b815260048101849052602490fd5b019050fd5b60609250612383565b919450915063ffffffff60e01b16036123d0575038808080806122e9565b60249060405190633250574960e11b82526004820152fd5b9091508481813d8311612425575b61240081836118e9565b8101031261242157516001600160e01b031981168103612421579038612351565b8680fd5b503d6123f656fe931f495b9a8e5d8e61946ea5d61e021f636cfe213a801f97589c18c152e408bda2646970667358221220085ce13a5785591d64e3a21b81256b23163123a7b219651605b99d62ef72820f64736f6c63430008180033",
  "linkReferences": {},
  "deployedLinkReferences": {}
}