{
  "_format": "hh-sol-artifact-1",
  "contractName": "ReputationRegistryV2",
  "sourceName": "contracts/ReputationRegistryV2.sol",
  "abi": [
    {
      "inputs": [
        {
          "internalType": "address",
          "name": "_agentRegistry",
          "type": "address"
        }
      ],
      "stateMutability": "nonpayable",
      "type": "constructor"
    },
    {
      "inputs": [],
      "name": "AlreadySubmittedFeedback",
      "type": "error"
    },
    {
      "inputs": [],
      "name": "EnforcedPause",
      "type": "error"
    },
    {
      "inputs": [],
      "name": "ExpectedPause",
      "type": "error"
    },
    {
      "inputs": [],
      "name": "FeedbackHistoryFull",
      "type": "error"
    },
    {
      "inputs": [],
      "name": "FeedbackWindowExpired",
      "type": "error"
    },
    {
      "inputs": [],
      "name": "InvalidAgentId",
      "type": "error"
    },
    {
      "inputs": [],
      "name": "InvalidInferenceHash",
      "type": "error"
    },
    {
      "inputs": [],
      "name": "OnlyAuthorizedRecorder",
      "type": "error"
    },
    {
      "inputs": [
        {
          "internalType": "address",
          "name": "owner",
          "type": "address"
        }
      ],
      "name": "OwnableInvalidOwner",
      "type": "error"
    },
    {
      "inputs": [
        {
          "internalType": "address",
          "name": "account",
          "type": "address"
        }
      ],
      "name": "OwnableUnauthorizedAccount",
      "type": "error"
    },
    {
      "inputs": [],
      "name": "ReentrancyGuardReentrantCall",
      "type": "error"
    },
    {
      "inputs": [],
      "name": "ZeroAddress",
      "type": "error"
    },
    {
      "anonymous": false,
      "inputs": [
        {
          "indexed": true,
          "internalType": "address",
          "name": "newRegistry",
          "type": "address"
        }
      ],
      "name": "AgentRegistryUpdated",
      "type": "event"
    },
    {
      "anonymous": false,
      "inputs": [
        {
          "indexed": true,
          "internalType": "address",
          "name": "recorder",
          "type": "address"
        },
        {
          "indexed": false,
          "internalType": "bool",
          "name": "authorized",
          "type": "bool"
        }
      ],
      "name": "AuthorizedRecorderUpdated",
      "type": "event"
    },
    {
      "anonymous": false,
      "inputs": [
        {
          "indexed": true,
          "internalType": "uint256",
          "name": "agentId",
          "type": "uint256"
        },
        {
          "indexed": true,
          "internalType": "address",
          "name": "user",
          "type": "address"
        },
        {
          "indexed": false,
          "internalType": "bool",
          "name": "positive",
          "type": "bool"
        },
        {
          "indexed": true,
          "internalType": "bytes32",
          "name": "inferenceHash",
          "type": "bytes32"
        },
        {
          "indexed": false,
          "internalType": "uint256",
          "name": "timestamp",
          "type": "uint256"
        }
      ],
      "name": "FeedbackSubmitted",
      "type": "event"
    },
    {
      "anonymous": false,
      "inputs": [
        {
          "indexed": true,
          "internalType": "bytes32",
          "name": "inferenceHash",
          "type": "bytes32"
        },
        {
          "indexed": true,
          "internalType": "uint256",
          "name": "agentId",
          "type": "uint256"
        },
        {
          "indexed": true,
          "internalType": "address",
          "name": "user",
          "type": "address"
        },
        {
          "indexed": false,
          "internalType": "uint256",
          "name": "timestamp",
          "type": "uint256"
        }
      ],
      "name": "InferenceRecorded",
      "type": "event"
    },
    {
      "anonymous": false,
      "inputs": [
        {
          "indexed": true,
          "internalType": "address",
          "name": "previousOwner",
          "type": "address"
        },
        {
          "indexed": true,
          "internalType": "address",
          "name": "newOwner",
          "type": "address"
        }
      ],
      "name": "OwnershipTransferStarted",
      "type": "event"
    },
    {
      "anonymous": false,
      "inputs": [
        {
          "indexed": true,
          "internalType": "address",
          "name": "previousOwner",
          "type": "address"
        },
        {
          "indexed": true,
          "internalType": "address",
          "name": "newOwner",
          "type": "address"
        }
      ],
      "name": "OwnershipTransferred",
      "type": "event"
    },
    {
      "anonymous": false,
      "inputs": [
        {
          "indexed": false,
          "internalType": "address",
          "name": "account",
          "type": "address"
        }
      ],
      "name": "Paused",
      "type": "event"
    },
    {
      "anonymous": false,
      "inputs": [
        {
          "indexed": true,
          "internalType": "uint256",
          "name": "agentId",
          "type": "uint256"
        },
        {
          "indexed": false,
          "internalType": "uint256",
          "name": "positiveCount",
          "type": "uint256"
        },
        {
          "indexed": false,
          "internalType": "uint256",
          "name": "negativeCount",
          "type": "uint256"
        },
        {
          "indexed": false,
          "internalType": "uint256",
          "name": "score",
          "type": "uint256"
        }
      ],
      "name": "ReputationUpdated",
      "type": "event"
    },
    {
      "anonymous": false,
      "inputs": [
        {
          "indexed": false,
          "internalType": "address",
          "name": "account",
          "type": "address"
        }
      ],
      "name": "Unpaused",
      "type": "event"
    },
    {
      "inputs": [],
      "name": "FEEDBACK_WINDOW",
      "outputs": [
        {
          "internalType": "uint256",
          "name": "",
          "type": "uint256"
        }
      ],
      "stateMutability": "view",
      "type": "function"
    },
    {
      "inputs": [],
      "name": "MAX_FEEDBACK_HISTORY",
      "outputs": [
        {
          "internalType": "uint256",
          "name": "",
          "type": "uint256"
        }
      ],
      "stateMutability": "view",
      "type": "function"
    },
    {
      "inputs": [],
      "name": "MIN_FEEDBACK_FOR_SCORE",
      "outputs": [
        {
          "internalType": "uint256",
          "name": "",
          "type": "uint256"
        }
      ],
      "stateMutability": "view",
      "type": "function"
    },
    {
      "inputs": [],
      "name": "SCORE_PRECISION",
      "outputs": [
        {
          "internalType": "uint256",
          "name": "",
          "type": "uint256"
        }
      ],
      "stateMutability": "view",
      "type": "function"
    },
    {
      "inputs": [],
      "name": "acceptOwnership",
      "outputs": [],
      "stateMutability": "nonpayable",
      "type": "function"
    },
    {
      "inputs": [],
      "name": "agentRegistry",
      "outputs": [
        {
          "internalType": "address",
          "name": "",
          "type": "address"
        }
      ],
      "stateMutability": "view",
      "type": "function"
    },
    {
      "inputs": [
        {
          "internalType": "address",
          "name": "",
          "type": "address"
        }
      ],
      "name": "authorizedRecorders",
      "outputs": [
        {
          "internalType": "bool",
          "name": "",
          "type": "bool"
        }
      ],
      "stateMutability": "view",
      "type": "function"
    },
    {
      "inputs": [
        {
          "internalType": "uint256",
          "name": "agentId",
          "type": "uint256"
        }
      ],
      "name": "calculateScore",
      "outputs": [
        {
          "internalType": "uint256",
          "name": "",
          "type": "uint256"
        }
      ],
      "stateMutability": "view",
      "type": "function"
    },
    {
      "inputs": [
        {
          "internalType": "uint256",
          "name": "agentId",
          "type": "uint256"
        },
        {
          "internalType": "address",
          "name": "user",
          "type": "address"
        },
        {
          "internalType": "bytes32",
          "name": "inferenceHash",
          "type": "bytes32"
        }
      ],
      "name": "canSubmitFeedback",
      "outputs": [
        {
          "internalType": "bool",
          "name": "canSubmit",
          "type": "bool"
        },
        {
          "internalType": "string",
          "name": "reason",
          "type": "string"
        }
      ],
      "stateMutability": "view",
      "type": "function"
    },
    {
      "inputs": [
        {
          "internalType": "uint256",
          "name": "",
          "type": "uint256"
        },
        {
          "internalType": "uint256",
          "name": "",
          "type": "uint256"
        }
      ],
      "name": "feedbackHistory",
      "outputs": [
        {
          "internalType": "address",
          "name": "user",
          "type": "address"
        },
        {
          "internalType": "bool",
          "name": "positive",
          "type": "bool"
        },
        {
          "internalType": "uint256",
          "name": "timestamp",
          "type": "uint256"
        },
        {
          "internalType": "bytes32",
          "name": "inferenceHash",
          "type": "bytes32"
        }
      ],
      "stateMutability": "view",
      "type": "function"
    },
    {
      "inputs": [
        {
          "internalType": "uint256",
          "name": "agentId",
          "type": "uint256"
        }
      ],
      "name": "getFeedbackCounts",
      "outputs": [
        {
          "internalType": "uint256",
          "name": "positive",
          "type": "uint256"
        },
        {
          "internalType": "uint256",
          "name": "negative",
          "type": "uint256"
        },
        {
          "internalType": "uint256",
          "name": "total",
          "type": "uint256"
        }
      ],
      "stateMutability": "view",
      "type": "function"
    },
    {
      "inputs": [
        {
          "internalType": "uint256",
          "name": "agentId",
          "type": "uint256"
        },
        {
          "internalType": "uint256",
          "name": "count",
          "type": "uint256"
        }
      ],
      "name": "getRecentFeedback",
      "outputs": [
        {
          "components": [
            {
              "internalType": "address",
              "name": "user",
              "type": "address"
            },
            {
              "internalType": "bool",
              "name": "positive",
              "type": "bool"
            },
            {
              "internalType": "uint256",
              "name": "timestamp",
              "type": "uint256"
            },
            {
              "internalType": "bytes32",
              "name": "inferenceHash",
              "type": "bytes32"
            }
          ],
          "internalType": "struct ReputationRegistryV2.Feedback[]",
          "name": "",
          "type": "tuple[]"
        }
      ],
      "stateMutability": "view",
      "type": "function"
    },
    {
      "inputs": [
        {
          "internalType": "uint256",
          "name": "agentId",
          "type": "uint256"
        }
      ],
      "name": "getReputation",
      "outputs": [
        {
          "components": [
            {
              "internalType": "uint256",
              "name": "positiveCount",
              "type": "uint256"
            },
            {
              "internalType": "uint256",
              "name": "negativeCount",
              "type": "uint256"
            },
            {
              "internalType": "uint256",
              "name": "totalFeedback",
              "type": "uint256"
            },
            {
              "internalType": "uint256",
              "name": "lastFeedbackAt",
              "type": "uint256"
            },
            {
              "internalType": "uint256",
              "name": "weightedScore",
              "type": "uint256"
            }
          ],
          "internalType": "struct ReputationRegistryV2.Reputation",
          "name": "",
          "type": "tuple"
        }
      ],
      "stateMutability": "view",
      "type": "function"
    },
    {
      "inputs": [
        {
          "internalType": "uint256",
          "name": "agentId",
          "type": "uint256"
        }
      ],
      "name": "getTrustLevel",
      "outputs": [
        {
          "internalType": "uint8",
          "name": "",
          "type": "uint8"
        }
      ],
      "stateMutability": "view",
      "type": "function"
    },
    {
      "inputs": [
        {
          "internalType": "bytes32",
          "name": "",
          "type": "bytes32"
        }
      ],
      "name": "hasSubmittedFeedback",
      "outputs": [
        {
          "internalType": "bool",
          "name": "",
          "type": "bool"
        }
      ],
      "stateMutability": "view",
      "type": "function"
    },
    {
      "inputs": [
        {
          "internalType": "bytes32",
          "name": "",
          "type": "bytes32"
        }
      ],
      "name": "inferenceAgents",
      "outputs": [
        {
          "internalType": "uint256",
          "name": "",
          "type": "uint256"
        }
      ],
      "stateMutability": "view",
      "type": "function"
    },
    {
      "inputs": [
        {
          "internalType": "bytes32",
          "name": "",
          "type": "bytes32"
        }
      ],
      "name": "inferenceTimestamps",
      "outputs": [
        {
          "internalType": "uint256",
          "name": "",
          "type": "uint256"
        }
      ],
      "stateMutability": "view",
      "type": "function"
    },
    {
      "inputs": [],
      "name": "owner",
      "outputs": [
        {
          "internalType": "address",
          "name": "",
          "type": "address"
        }
      ],
      "stateMutability": "view",
      "type": "function"
    },
    {
      "inputs": [],
      "name": "pause",
      "outputs": [],
      "stateMutability": "nonpayable",
      "type": "function"
    },
    {
      "inputs": [],
      "name": "paused",
      "outputs": [
        {
          "internalType": "bool",
          "name": "",
          "type": "bool"
        }
      ],
      "stateMutability": "view",
      "type": "function"
    },
    {
      "inputs": [],
      "name": "pendingOwner",
      "outputs": [
        {
          "internalType": "address",
          "name": "",
          "type": "address"
        }
      ],
      "stateMutability": "view",
      "type": "function"
    },
    {
      "inputs": [
        {
          "internalType": "bytes32",
          "name": "inferenceHash",
          "type": "bytes32"
        },
        {
          "internalType": "uint256",
          "name": "agentId",
          "type": "uint256"
        },
        {
          "internalType": "address",
          "name": "user",
          "type": "address"
        }
      ],
      "name": "recordInference",
      "outputs": [],
      "stateMutability": "nonpayable",
      "type": "function"
    },
    {
      "inputs": [],
      "name": "renounceOwnership",
      "outputs": [],
      "stateMutability": "nonpayable",
      "type": "function"
    },
    {
      "inputs": [
        {
          "internalType": "uint256",
          "name": "",
          "type": "uint256"
        }
      ],
      "name": "reputations",
      "outputs": [
        {
          "internalType": "uint256",
          "name": "positiveCount",
          "type": "uint256"
        },
        {
          "internalType": "uint256",
          "name": "negativeCount",
          "type": "uint256"
        },
        {
          "internalType": "uint256",
          "name": "totalFeedback",
          "type": "uint256"
        },
        {
          "internalType": "uint256",
          "name": "lastFeedbackAt",
          "type": "uint256"
        },
        {
          "internalType": "uint256",
          "name": "weightedScore",
          "type": "uint256"
        }
      ],
      "stateMutability": "view",
      "type": "function"
    },
    {
      "inputs": [
        {
          "internalType": "address",
          "name": "_agentRegistry",
          "type": "address"
        }
      ],
      "name": "setAgentRegistry",
      "outputs": [],
      "stateMutability": "nonpayable",
      "type": "function"
    },
    {
      "inputs": [
        {
          "internalType": "address",
          "name": "recorder",
          "type": "address"
        },
        {
          "internalType": "bool",
          "name": "authorized",
          "type": "bool"
        }
      ],
      "name": "setAuthorizedRecorder",
      "outputs": [],
      "stateMutability": "nonpayable",
      "type": "function"
    },
    {
      "inputs": [
        {
          "internalType": "uint256",
          "name": "agentId",
          "type": "uint256"
        },
        {
          "internalType": "bool",
          "name": "positive",
          "type": "bool"
        },
        {
          "internalType": "bytes32",
          "name": "inferenceHash",
          "type": "bytes32"
        }
      ],
      "name": "submitFeedback",
      "outputs": [],
      "stateMutability": "nonpayable",
      "type": "function"
    },
    {
      "inputs": [
        {
          "internalType": "address",
          "name": "newOwner",
          "type": "address"
        }
      ],
      "name": "transferOwnership",
      "outputs": [],
      "stateMutability": "nonpayable",
      "type": "function"
    },
    {
      "inputs": [],
      "name": "unpause",
      "outputs": [],
      "stateMutability": "nonpayable",
      "type": "function"
    }
  ],
  "bytecode": "0x60803461010657601f61165838819003918201601f19168301916001600160401b0383118484101761010b5780849260209460405283398101031261010657516001600160a01b038082168083036101065733156100ed5760018060a01b03198060015416600155600054903390821617600055604051923391167f8be0079c531659141344cd1fd0a4f28419497f9722a3daafe3b4186f6b6457e0600080a36001600255156100de575060038054610100600160a81b03191660089290921b610100600160a81b031691909117905560405161153690816101228239f35b63d92e233d60e01b8152600490fd5b604051631e4fbdf760e01b815260006004820152602490fd5b600080fd5b634e487b7160e01b600052604160045260246000fdfe6080806040526004908136101561001557600080fd5b600090813560e01c9081630d1cfcae14610f5657508063136018bc14610f30578063272d023a14610ea957806328342ecf14610e1957806337bf64bd14610d9b5780633a59fc1f14610d1c5780633f4ba83a14610cb1578063530b6d2114610c8857806359bc719d14610c595780635c975abb14610c36578063715018a614610bd157806372fa9b8514610b7b57806379ba509714610af95780637da147b514610adb5780638456cb5914610a8057806389370d8b146109d95780638da5cb5b146109b2578063ac9a5e9a14610973578063b426429f14610949578063b60a3b9314610851578063bcf20bea14610827578063c3445ca31461080b578063cfe9ea2d146107a2578063d69b23ba14610706578063e30c3978146106dd578063e3bcacd6146106c0578063e5d4e8e4146106a4578063f2fde38b146106375763fb1eb7ec1461016257600080fd5b346106345760603660031901126106345761017b610f99565b60029081805414610623578180556101916114e2565b833515610612576044351561060157604080518535602082019081523360601b6bffffffffffffffffffffffff19169282019290925260443560548201526101e681607481015b03601f198101835282611076565b519020808452600660205260ff6040852054166105f05760443584526007602052604084205480610591575b508352600660205260408320600160ff19825416179055833583528360205260408320908060001461057c5761024882546114a7565b82555b82820161025881546114a7565b90554260038301558435845284602052604084208485908691600560205260408820908154914262278cff19420111610569576064831115610563576064925b8a5b8481106104d157505050505082548160011b918083048814901517156104be57906102c491611359565b90858301548160011b918083048814901517156104be57906102e591611359565b908782156104b1575060648102908082046064149015171561049e57879161030c91611098565b9101555b843584526005602052604084208054906103e882106103c7575b5050600193947faf5692cc9b8ad144229fa0e32a83390bd644dbc02cc27ee00a357da85b2d47599160405190151581524260208201526044359033907f37abcfdc727ed95477ee6f5c95abdaef2ee61cfd45098fc31db6ffb73d942e846040853592a4848354930154906103c06103a182356110b8565b6040519384933596846040919493926060820195825260208201520152565b0390a25580f35b604051916103d483611022565b3383526020830184151581526040840191428352606085019360443585526801000000000000000082101561048b579061041391600182018155610fbe565b9490946104795751845491516001600160a81b03199092166001600160a01b03919091161790151560a01b60ff60a01b161783555160018301555190840155847faf5692cc9b8ad144229fa0e32a83390bd644dbc02cc27ee00a357da85b2d475961032a565b634e487b7160e01b8952888a52602489fd5b634e487b7160e01b8a5260418b5260248afd5b634e487b7160e01b875260118852602487fd5b9150506032910155610310565b634e487b7160e01b885260118952602488fd5b81600019810111610550576104f36104ed82600019850161116e565b84610fbe565b5062278cff19420160018201541015610510575b5060010161029a565b9661051f60ff919792976114a7565b975460a01c161561053d576105356001916114a7565b955b90610507565b949261054a6001916114a7565b93610537565b634e487b7160e01b8c5260118d5260248cfd5b82610298565b634e487b7160e01b8a5260118b5260248afd5b6001820161058a81546114a7565b905561024b565b600860205285356040862054036105df576201518081018091116105cc5742116105bb5738610212565b604051630af243e760e21b81528590fd5b634e487b7160e01b855260118652602485fd5b60405163e6394a7760e01b81528690fd5b604051633f872c1360e11b81528590fd5b6040516365796b7760e11b81528490fd5b60405163e6394a7760e01b81528490fd5b604051633ee5aeb560e01b81528490fd5b80fd5b503461063457602036600319011261063457610651610f7e565b6106596114b6565b600180546001600160a01b0319166001600160a01b0392831690811790915582549091167f38d16b8cac22d99fc7c124b9cd0de2d3fa1faef420bfe791d8c362d765e227008380a380f35b5034610634578060031936011261063457602060405160058152f35b503461063457806003193601126106345760206040516103e88152f35b50346106345780600319360112610634576001546040516001600160a01b039091168152602090f35b50903461079e57606090606060031936011261079a57602435906001600160a01b03821682036107965761073e916044359135611366565b916040519384921515835260209360406020850152805192836040860152825b8481106107805750505060608094508284010152601f80199101168101030190f35b808301870151888201830152879550860161075e565b8380fd5b8280fd5b5080fd5b5034610634576107b136610fa8565b919081526005602052604081209081548310156106345760806107d48484610fbe565b50805490600260018201549101549060ff6040519360018060a01b038116855260a01c161515602084015260408301526060820152f35b5034610634578060031936011261063457602060405160648152f35b50903461079e57602036600319011261079e57602091604091358152600883522054604051908152f35b50903461079e57606036600319011261079e576001600160a01b036044358181169260243592813592859003610945576108896114e2565b338652600960205260ff604087205416159081610937575b5061092857811561091957821561090a57508084526007602052604084208054156108ca578480f35b42905560086020528160408520557f175e5ae5373d67e016180c1069731386e83f482cb3ef40502768f42ca90223866020604051428152a4388080808480f35b60405163e6394a7760e01b8152fd5b6040516365796b7760e11b8152fd5b604051630928bc5160e11b8152fd5b9050855416331415386108a1565b8580fd5b50903461079e57602036600319011261079e57602091604091358152600783522054604051908152f35b50346106345760203660031901126106345760209060ff906040906001600160a01b0361099e610f7e565b168152600984522054166040519015158152f35b5034610634578060031936011261063457546040516001600160a01b039091168152602090f35b50903461079e57602036600319011261079e5760408260a093608083516109ff81610ff0565b8281528260208201528285820152826060820152015282358152826020522060405190610a2b82610ff0565b8054928383526001820154602084019081526080600284015492604086019384526003850154946060870195865201549401938452604051948552516020850152516040840152516060830152516080820152f35b5034610634578060031936011261063457610a996114b6565b610aa16114e2565b600160ff1960035416176003557f62e78cea01bee320cd4e420270b5ea74000d11b0c9f74754ebdbfc544b05a2586020604051338152a180f35b50346106345780600319360112610634576020604051620151808152f35b50903461079e578160031936011261079e57600154906001600160a01b03903382841603610b6357506001600160a01b031991821660015582543392811683178455167f8be0079c531659141344cd1fd0a4f28419497f9722a3daafe3b4186f6b6457e08380a380f35b6024906040519063118cdaa760e01b82523390820152fd5b50903461079e57602036600319011261079e57604060a092823581528260205220908154916001810154916002820154906003830154920154926040519485526020850152604084015260608301526080820152f35b5034610634578060031936011261063457610bea6114b6565b600180546001600160a01b03199081169091558154908116825581906001600160a01b03167f8be0079c531659141344cd1fd0a4f28419497f9722a3daafe3b4186f6b6457e08280a380f35b5034610634578060031936011261063457602060ff600354166040519015158152f35b50903461079e57602036600319011261079e57604060209260ff92358152600684522054166040519015158152f35b5034610634576020366003190112610634576020610ca683356112cc565b60ff60405191168152f35b50903461079e578160031936011261079e57610ccb6114b6565b6003549060ff821615610d0d575060ff19166003557f5db9ee0a495bf2e6ff9c91a7834c1ba4fdd244a5e8aa4e537bd38aeae4b073aa6020604051338152a180f35b604051638dfc202b60e01b8152fd5b503461063457610d34610d2e36610fa8565b9061118f565b60405190602080830190808452825180925280604085019301945b828110610d5c5784840385f35b855180516001600160a01b0316855280830151151585840152604080820151908601526060908101519085015294810194608090930192600101610d4f565b503461063457602036600319011261063457604090823581528260205220610e1560405191610dc983610ff0565b8054928381526080600183015495866020840152600284015493846040850152600381015460608501520154910152604051938493846040919493926060820195825260208201520152565b0390f35b50903461079e57602036600319011261079e57610e34610f7e565b610e3c6114b6565b6001600160a01b038116918215610e9a575060038054610100600160a81b03191660089290921b610100600160a81b03169190911790557f9439fd4044a7a9da5dc12ba69cff9b7e91dcbc73cd8f170d7cecb1339d59c5528280a280f35b60405163d92e233d60e01b8152fd5b50903461079e57604036600319011261079e57610ec4610f7e565b610ecc610f99565b90610ed56114b6565b6001600160a01b0316918215610e9a575060207f9afd647c85cc419b6a32c991e1a3ab4c320acbd7d9735e07d507960c5bb71e809183855260098252604085209015159060ff1981541660ff8316179055604051908152a280f35b5034610634576020366003190112610634576020610f4e83356110b8565b604051908152f35b90503461079e578160031936011261079e5760035460081c6001600160a01b03168152602090f35b600435906001600160a01b0382168203610f9457565b600080fd5b602435908115158203610f9457565b6040906003190112610f94576004359060243590565b8054821015610fda576000526003602060002091020190600090565b634e487b7160e01b600052603260045260246000fd5b60a0810190811067ffffffffffffffff82111761100c57604052565b634e487b7160e01b600052604160045260246000fd5b6080810190811067ffffffffffffffff82111761100c57604052565b6020810190811067ffffffffffffffff82111761100c57604052565b6040810190811067ffffffffffffffff82111761100c57604052565b90601f8019910116810190811067ffffffffffffffff82111761100c57604052565b81156110a2570490565b634e487b7160e01b600052601260045260246000fd5b600052600460205260406000206040516110d181610ff0565b60806005835492838152600185015460208201526002850154906004604082019683885260038101546060840152015493849101521061114e578061114857506064810290808204606414901517156111325761112f915190611098565b90565b634e487b7160e01b600052601160045260246000fd5b91505090565b505050603290565b67ffffffffffffffff811161100c5760051b60200190565b9190820391821161113257565b8051821015610fda5760209160051b010190565b90600091825260206005602052604080842080549384156112b757848111156112b15750835b6111be85611156565b956111cb84519788611076565b858752601f196111da87611156565b0185825b828110611285575050506000198201918211815b87811061120457505050505050505090565b81611271578061121f6112196001938761116e565b87610fbe565b50600288519161122e83611022565b60ff8154868060a01b038116855260a01c1615158b840152848101548a8401520154606082015261125f828c61117b565b5261126a818b61117b565b50016111f2565b634e487b7160e01b83526011600452602483fd5b865161129081611022565b8481528483820152848882015284606082015282828c0101520186906111de565b936111b5565b505091505051906112c78261103e565b815290565b806000526004602052600560406000206040516112e881610ff0565b8154815260018201546020820152608060046002840154938460408501526003810154606085015201549101521061135357611323906110b8565b605a81101561134d57604b811015611347576032111561134257600190565b600290565b50600390565b50600490565b50600090565b9190820180921161113257565b60408051602080820184815260609590951b6bffffffffffffffffffffffff1916828401526054820186905291959493919291906113a781607481016101d8565b5190209260009384526006835260ff868520541661146c578352600782528483205490816113e1575b50505060019251906112c78261103e565b600883528584205403611441576201518081018091116112715742116114085780806113d0565b907f466565646261636b2077696e646f772065787069726564000000000000000000909351916114378361105a565b6017835282015290565b50906d082cecadce840dad2e6dac2e8c6d60931b909351916114628361105a565b600e835282015290565b5050907f416c7265616479207375626d697474656420666565646261636b0000000000009093519161149d8361105a565b601a835282015290565b60001981146111325760010190565b6000546001600160a01b031633036114ca57565b60405163118cdaa760e01b8152336004820152602490fd5b60ff600354166114ee57565b60405163d93c066560e01b8152600490fdfea2646970667358221220b9cd5d796b232fa06bda953819c659a835bcce9fc992967b181dc8fc42f72fdc64736f6c63430008180033",
  "linkReferences": {},
  "deployedLinkReferences": {}
}