{
  "_format": "hh-sol-artifact-1",
  "contractName": "ReentrantFeeReceiver",
  "sourceName": "contracts/test/ReentrantFeeReceiver.sol",
  "abi": [
    {
      "inputs": [
        {
          "internalType": "contract Marketplace",
          "name": "_market",
          "type": "address"
        }
      ],
      "stateMutability": "nonpayable",
      "type": "constructor"
    },
    {
      "inputs": [],
      "name": "attempted",
      "outputs": [
        {
          "internalType": "bool",
          "name": "",
          "type": "bool"
        }
      ],
      "stateMutability": "view",
      "type": "function"
    },
    {
      "inputs": [],
      "name": "kind",
      "outputs": [
        {
          "internalType": "uint8",
          "name": "",
          "type": "uint8"
        }
      ],
      "stateMutability": "view",
      "type": "function"
    },
    {
      "inputs": [
        {
          "internalType": "string",
          "name": "slug",
          "type": "string"
        },
        {
          "internalType": "string",
          "name": "name",
          "type": "string"
        },
        {
          "internalType": "string",
          "name": "uri",
          "type": "string"
        },
        {
          "internalType": "uint256",
          "name": "royaltyBps",
          "type": "uint256"
        },
        {
          "internalType": "uint256",
          "name": "pricePerpetual",
          "type": "uint256"
        },
        {
          "internalType": "uint256",
          "name": "priceSubscription",
          "type": "uint256"
        },
        {
          "internalType": "uint256",
          "name": "defaultDurationDays",
          "type": "uint256"
        },
        {
          "internalType": "uint8",
          "name": "deliveryRightsDefault",
          "type": "uint8"
        },
        {
          "internalType": "uint8",
          "name": "deliveryModeHint",
          "type": "uint8"
        },
        {
          "internalType": "bytes32",
          "name": "termsHash",
          "type": "bytes32"
        }
      ],
      "name": "listSelf",
      "outputs": [],
      "stateMutability": "nonpayable",
      "type": "function"
    },
    {
      "inputs": [],
      "name": "market",
      "outputs": [
        {
          "internalType": "contract Marketplace",
          "name": "",
          "type": "address"
        }
      ],
      "stateMutability": "view",
      "type": "function"
    },
    {
      "inputs": [],
      "name": "modelId",
      "outputs": [
        {
          "internalType": "uint256",
          "name": "",
          "type": "uint256"
        }
      ],
      "stateMutability": "view",
      "type": "function"
    },
    {
      "inputs": [],
      "name": "months",
      "outputs": [
        {
          "internalType": "uint16",
          "name": "",
          "type": "uint16"
        }
      ],
      "stateMutability": "view",
      "type": "function"
    },
    {
      "inputs": [
        {
          "internalType": "uint256",
          "name": "_modelId",
          "type": "uint256"
        },
        {
          "internalType": "uint8",
          "name": "_kind",
          "type": "uint8"
        },
        {
          "internalType": "uint16",
          "name": "_months",
          "type": "uint16"
        }
      ],
      "name": "setParams",
      "outputs": [],
      "stateMutability": "nonpayable",
      "type": "function"
    },
    {
      "stateMutability": "payable",
      "type": "receive"
    }
  ],
  "bytecode": "0x60a03461007e57601f61053738819003918201601f19168301916001600160401b038311848410176100835780849260209460405283398101031261007e57516001600160a01b038116810361007e5760805260405161049d908161009a8239608051818181604501528181610221015281816102ec01526103830152f35b600080fd5b634e487b7160e01b600052604160045260246000fdfe60808060405260043610156100c7575b50361561001b57600080fd5b60015460ff8160181c161561002c57005b63ff0000001981166301000000176001819055600054917f00000000000000000000000000000000000000000000000000000000000000006001600160a01b031691823b156100c25760ff9360009361ffff6084936040519788968795632236bdfd60e21b8752600487015216602485015260081c16604483015284606483015234905af16100b757005b6100c09061041c565b005b600080fd5b600090813560e01c90816304baa00b146103cf5750806343cdaad2146103b257806380f556051461036d578063917f51b414610347578063acd50c7314610197578063aeef8f36146101725763dc5e42e00361000f573461016f57606036600319011261016f5760243560ff81168091036100c2576044359061ffff8216820361016b57600435835562ffff006001549260081b169162ffffff1916171760015580f35b8280fd5b80fd5b503461016f578060031936011261016f57602061ffff60015460081c16604051908152f35b503461016f5761014036600319011261016f5767ffffffffffffffff81600435828111610343576101cc9036906004016103ee565b909260243581811161033f576101e69036906004016103ee565b909160443590811161033b576102009036906004016103ee565b909260e4359260ff8416840361033757610104359160ff83168303610333577f00000000000000000000000000000000000000000000000000000000000000006001600160a01b03163b15610333576101449560ff946102966102a89387956102846040519e8f9d8e9d8e632d88c21160e01b815261014060048201520191610446565b8b81036003190160248d015291610446565b8881036003190160448a015291610446565b936064356064870152608435608487015260a43560a487015260c43560c48701521660e4850152166101048301526101243561012483015203818360018060a01b037f0000000000000000000000000000000000000000000000000000000000000000165af180156103285761031c575080f35b6103259061041c565b80f35b6040513d84823e3d90fd5b8780fd5b8680fd5b8480fd5b8380fd5b5080fd5b503461016f578060031936011261016f57602060ff60015460181c166040519015158152f35b503461016f578060031936011261016f576040517f00000000000000000000000000000000000000000000000000000000000000006001600160a01b03168152602090f35b503461016f578060031936011261016f5760209054604051908152f35b90503461034357816003193601126103435760209060ff600154168152f35b9181601f840112156100c25782359167ffffffffffffffff83116100c257602083818601950101116100c257565b67ffffffffffffffff811161043057604052565b634e487b7160e01b600052604160045260246000fd5b908060209392818452848401376000828201840152601f01601f191601019056fea26469706673582212203ca797c3ec661b65016650ec3ed8a775265c9588e51dfaa9408312182e409dd364736f6c63430008180033",
  "linkReferences": {},
  "deployedLinkReferences": {}
}