{
  "_format": "hh-sol-artifact-1",
  "contractName": "LicenseNFT",
  "sourceName": "contracts/LicenseNFT.sol",
  "abi": [
    {
      "inputs": [
        {
          "internalType": "address",
          "name": "marketplace_",
          "type": "address"
        }
      ],
      "stateMutability": "nonpayable",
      "type": "constructor"
    },
    {
      "inputs": [
        {
          "internalType": "address",
          "name": "sender",
          "type": "address"
        },
        {
          "internalType": "uint256",
          "name": "tokenId",
          "type": "uint256"
        },
        {
          "internalType": "address",
          "name": "owner",
          "type": "address"
        }
      ],
      "name": "ERC721IncorrectOwner",
      "type": "error"
    },
    {
      "inputs": [
        {
          "internalType": "address",
          "name": "operator",
          "type": "address"
        },
        {
          "internalType": "uint256",
          "name": "tokenId",
          "type": "uint256"
        }
      ],
      "name": "ERC721InsufficientApproval",
      "type": "error"
    },
    {
      "inputs": [
        {
          "internalType": "address",
          "name": "approver",
          "type": "address"
        }
      ],
      "name": "ERC721InvalidApprover",
      "type": "error"
    },
    {
      "inputs": [
        {
          "internalType": "address",
          "name": "operator",
          "type": "address"
        }
      ],
      "name": "ERC721InvalidOperator",
      "type": "error"
    },
    {
      "inputs": [
        {
          "internalType": "address",
          "name": "owner",
          "type": "address"
        }
      ],
      "name": "ERC721InvalidOwner",
      "type": "error"
    },
    {
      "inputs": [
        {
          "internalType": "address",
          "name": "receiver",
          "type": "address"
        }
      ],
      "name": "ERC721InvalidReceiver",
      "type": "error"
    },
    {
      "inputs": [
        {
          "internalType": "address",
          "name": "sender",
          "type": "address"
        }
      ],
      "name": "ERC721InvalidSender",
      "type": "error"
    },
    {
      "inputs": [
        {
          "internalType": "uint256",
          "name": "tokenId",
          "type": "uint256"
        }
      ],
      "name": "ERC721NonexistentToken",
      "type": "error"
    },
    {
      "inputs": [
        {
          "internalType": "address",
          "name": "owner",
          "type": "address"
        }
      ],
      "name": "OwnableInvalidOwner",
      "type": "error"
    },
    {
      "inputs": [
        {
          "internalType": "address",
          "name": "account",
          "type": "address"
        }
      ],
      "name": "OwnableUnauthorizedAccount",
      "type": "error"
    },
    {
      "anonymous": false,
      "inputs": [
        {
          "indexed": true,
          "internalType": "address",
          "name": "owner",
          "type": "address"
        },
        {
          "indexed": true,
          "internalType": "address",
          "name": "approved",
          "type": "address"
        },
        {
          "indexed": true,
          "internalType": "uint256",
          "name": "tokenId",
          "type": "uint256"
        }
      ],
      "name": "Approval",
      "type": "event"
    },
    {
      "anonymous": false,
      "inputs": [
        {
          "indexed": true,
          "internalType": "address",
          "name": "owner",
          "type": "address"
        },
        {
          "indexed": true,
          "internalType": "address",
          "name": "operator",
          "type": "address"
        },
        {
          "indexed": false,
          "internalType": "bool",
          "name": "approved",
          "type": "bool"
        }
      ],
      "name": "ApprovalForAll",
      "type": "event"
    },
    {
      "anonymous": false,
      "inputs": [
        {
          "indexed": true,
          "internalType": "address",
          "name": "previousOwner",
          "type": "address"
        },
        {
          "indexed": true,
          "internalType": "address",
          "name": "newOwner",
          "type": "address"
        }
      ],
      "name": "OwnershipTransferred",
      "type": "event"
    },
    {
      "anonymous": false,
      "inputs": [
        {
          "indexed": true,
          "internalType": "address",
          "name": "from",
          "type": "address"
        },
        {
          "indexed": true,
          "internalType": "address",
          "name": "to",
          "type": "address"
        },
        {
          "indexed": true,
          "internalType": "uint256",
          "name": "tokenId",
          "type": "uint256"
        }
      ],
      "name": "Transfer",
      "type": "event"
    },
    {
      "inputs": [
        {
          "internalType": "address",
          "name": "to",
          "type": "address"
        },
        {
          "internalType": "uint256",
          "name": "tokenId",
          "type": "uint256"
        }
      ],
      "name": "approve",
      "outputs": [],
      "stateMutability": "nonpayable",
      "type": "function"
    },
    {
      "inputs": [
        {
          "internalType": "address",
          "name": "owner",
          "type": "address"
        }
      ],
      "name": "balanceOf",
      "outputs": [
        {
          "internalType": "uint256",
          "name": "",
          "type": "uint256"
        }
      ],
      "stateMutability": "view",
      "type": "function"
    },
    {
      "inputs": [
        {
          "internalType": "uint256",
          "name": "tokenId",
          "type": "uint256"
        }
      ],
      "name": "getApproved",
      "outputs": [
        {
          "internalType": "address",
          "name": "",
          "type": "address"
        }
      ],
      "stateMutability": "view",
      "type": "function"
    },
    {
      "inputs": [
        {
          "internalType": "uint256",
          "name": "tokenId",
          "type": "uint256"
        }
      ],
      "name": "getLicense",
      "outputs": [
        {
          "components": [
            {
              "internalType": "uint256",
              "name": "modelId",
              "type": "uint256"
            },
            {
              "internalType": "uint8",
              "name": "licenseKind",
              "type": "uint8"
            },
            {
              "internalType": "uint8",
              "name": "rights",
              "type": "uint8"
            },
            {
              "internalType": "uint64",
              "name": "expiresAt",
              "type": "uint64"
            },
            {
              "internalType": "bool",
              "name": "transferable",
              "type": "bool"
            },
            {
              "internalType": "bytes32",
              "name": "termsHash",
              "type": "bytes32"
            },
            {
              "internalType": "uint16",
              "name": "version",
              "type": "uint16"
            }
          ],
          "internalType": "struct LicenseNFT.LicenseData",
          "name": "",
          "type": "tuple"
        }
      ],
      "stateMutability": "view",
      "type": "function"
    },
    {
      "inputs": [
        {
          "internalType": "address",
          "name": "owner",
          "type": "address"
        },
        {
          "internalType": "address",
          "name": "operator",
          "type": "address"
        }
      ],
      "name": "isApprovedForAll",
      "outputs": [
        {
          "internalType": "bool",
          "name": "",
          "type": "bool"
        }
      ],
      "stateMutability": "view",
      "type": "function"
    },
    {
      "inputs": [],
      "name": "marketplace",
      "outputs": [
        {
          "internalType": "address",
          "name": "",
          "type": "address"
        }
      ],
      "stateMutability": "view",
      "type": "function"
    },
    {
      "inputs": [
        {
          "internalType": "address",
          "name": "to",
          "type": "address"
        },
        {
          "components": [
            {
              "internalType": "uint256",
              "name": "modelId",
              "type": "uint256"
            },
            {
              "internalType": "uint8",
              "name": "licenseKind",
              "type": "uint8"
            },
            {
              "internalType": "uint8",
              "name": "rights",
              "type": "uint8"
            },
            {
              "internalType": "uint64",
              "name": "expiresAt",
              "type": "uint64"
            },
            {
              "internalType": "bool",
              "name": "transferable",
              "type": "bool"
            },
            {
              "internalType": "bytes32",
              "name": "termsHash",
              "type": "bytes32"
            },
            {
              "internalType": "uint16",
              "name": "version",
              "type": "uint16"
            }
          ],
          "internalType": "struct LicenseNFT.LicenseData",
          "name": "d",
          "type": "tuple"
        }
      ],
      "name": "mint",
      "outputs": [
        {
          "internalType": "uint256",
          "name": "tokenId",
          "type": "uint256"
        }
      ],
      "stateMutability": "nonpayable",
      "type": "function"
    },
    {
      "inputs": [
        {
          "internalType": "address",
          "name": "to",
          "type": "address"
        },
        {
          "components": [
            {
              "internalType": "uint256",
              "name": "modelId",
              "type": "uint256"
            },
            {
              "internalType": "uint8",
              "name": "licenseKind",
              "type": "uint8"
            },
            {
              "internalType": "uint8",
              "name": "rights",
              "type": "uint8"
            },
            {
              "internalType": "uint64",
              "name": "expiresAt",
              "type": "uint64"
            },
            {
              "internalType": "bool",
              "name": "transferable",
              "type": "bool"
            },
            {
              "internalType": "bytes32",
              "name": "termsHash",
              "type": "bytes32"
            },
            {
              "internalType": "uint16",
              "name": "version",
              "type": "uint16"
            }
          ],
          "internalType": "struct LicenseNFT.LicenseData",
          "name": "d",
          "type": "tuple"
        },
        {
          "internalType": "string",
          "name": "uri",
          "type": "string"
        }
      ],
      "name": "mintWithURI",
      "outputs": [
        {
          "internalType": "uint256",
          "name": "tokenId",
          "type": "uint256"
        }
      ],
      "stateMutability": "nonpayable",
      "type": "function"
    },
    {
      "inputs": [],
      "name": "name",
      "outputs": [
        {
          "internalType": "string",
          "name": "",
          "type": "string"
        }
      ],
      "stateMutability": "view",
      "type": "function"
    },
    {
      "inputs": [],
      "name": "owner",
      "outputs": [
        {
          "internalType": "address",
          "name": "",
          "type": "address"
        }
      ],
      "stateMutability": "view",
      "type": "function"
    },
    {
      "inputs": [
        {
          "internalType": "uint256",
          "name": "tokenId",
          "type": "uint256"
        }
      ],
      "name": "ownerOf",
      "outputs": [
        {
          "internalType": "address",
          "name": "",
          "type": "address"
        }
      ],
      "stateMutability": "view",
      "type": "function"
    },
    {
      "inputs": [],
      "name": "renounceOwnership",
      "outputs": [],
      "stateMutability": "nonpayable",
      "type": "function"
    },
    {
      "inputs": [
        {
          "internalType": "address",
          "name": "from",
          "type": "address"
        },
        {
          "internalType": "address",
          "name": "to",
          "type": "address"
        },
        {
          "internalType": "uint256",
          "name": "tokenId",
          "type": "uint256"
        }
      ],
      "name": "safeTransferFrom",
      "outputs": [],
      "stateMutability": "nonpayable",
      "type": "function"
    },
    {
      "inputs": [
        {
          "internalType": "address",
          "name": "from",
          "type": "address"
        },
        {
          "internalType": "address",
          "name": "to",
          "type": "address"
        },
        {
          "internalType": "uint256",
          "name": "tokenId",
          "type": "uint256"
        },
        {
          "internalType": "bytes",
          "name": "data",
          "type": "bytes"
        }
      ],
      "name": "safeTransferFrom",
      "outputs": [],
      "stateMutability": "nonpayable",
      "type": "function"
    },
    {
      "inputs": [
        {
          "internalType": "address",
          "name": "operator",
          "type": "address"
        },
        {
          "internalType": "bool",
          "name": "approved",
          "type": "bool"
        }
      ],
      "name": "setApprovalForAll",
      "outputs": [],
      "stateMutability": "nonpayable",
      "type": "function"
    },
    {
      "inputs": [
        {
          "internalType": "string",
          "name": "newBaseURI",
          "type": "string"
        }
      ],
      "name": "setBaseURI",
      "outputs": [],
      "stateMutability": "nonpayable",
      "type": "function"
    },
    {
      "inputs": [
        {
          "internalType": "address",
          "name": "m",
          "type": "address"
        }
      ],
      "name": "setMarketplace",
      "outputs": [],
      "stateMutability": "nonpayable",
      "type": "function"
    },
    {
      "inputs": [
        {
          "internalType": "uint256",
          "name": "tokenId",
          "type": "uint256"
        },
        {
          "internalType": "string",
          "name": "uri",
          "type": "string"
        }
      ],
      "name": "setTokenURI",
      "outputs": [],
      "stateMutability": "nonpayable",
      "type": "function"
    },
    {
      "inputs": [
        {
          "internalType": "bytes4",
          "name": "interfaceId",
          "type": "bytes4"
        }
      ],
      "name": "supportsInterface",
      "outputs": [
        {
          "internalType": "bool",
          "name": "",
          "type": "bool"
        }
      ],
      "stateMutability": "view",
      "type": "function"
    },
    {
      "inputs": [],
      "name": "symbol",
      "outputs": [
        {
          "internalType": "string",
          "name": "",
          "type": "string"
        }
      ],
      "stateMutability": "view",
      "type": "function"
    },
    {
      "inputs": [
        {
          "internalType": "uint256",
          "name": "tokenId",
          "type": "uint256"
        }
      ],
      "name": "tokenURI",
      "outputs": [
        {
          "internalType": "string",
          "name": "",
          "type": "string"
        }
      ],
      "stateMutability": "view",
      "type": "function"
    },
    {
      "inputs": [],
      "name": "totalSupply",
      "outputs": [
        {
          "internalType": "uint256",
          "name": "",
          "type": "uint256"
        }
      ],
      "stateMutability": "view",
      "type": "function"
    },
    {
      "inputs": [
        {
          "internalType": "address",
          "name": "from",
          "type": "address"
        },
        {
          "internalType": "address",
          "name": "to",
          "type": "address"
        },
        {
          "internalType": "uint256",
          "name": "tokenId",
          "type": "uint256"
        }
      ],
      "name": "transferFrom",
      "outputs": [],
      "stateMutability": "nonpayable",
      "type": "function"
    },
    {
      "inputs": [
        {
          "internalType": "address",
          "name": "newOwner",
          "type": "address"
        }
      ],
      "name": "transferOwnership",
      "outputs": [],
      "stateMutability": "nonpayable",
      "type": "function"
    },
    {
      "inputs": [
        {
          "internalType": "uint256",
          "name": "tokenId",
          "type": "uint256"
        },
        {
          "internalType": "uint64",
          "name": "newExpiresAt",
          "type": "uint64"
        }
      ],
      "name": "updateExpires",
      "outputs": [],
      "stateMutability": "nonpayable",
      "type": "function"
    }
  ],
  "bytecode": "0x608034620003d557601f906001600160401b0390601f19906200215c388190038581018416830185811184821017620003bf57839282916040528339602092839181010312620003d557516001600160a01b03948582169491859003620003d5576200006a620003da565b92601584527f4d61726b6574706c6163654149204c6963656e73650000000000000000000000818501526200009e620003da565b9060078252664d5041494c494360c81b81830152845195848711620003bf576000968754966001978881811c91168015620003b4575b85821014620003a0579081878493116200034d575b508490878311600114620002ec578a92620002e0575b5050600019600383901b1c191690871b1787555b8251948511620002cc5785548681811c91168015620002c1575b83821014620002ad5790818587969594931162000254575b5081938511600114620001ef5750508592620001e3575b5050600019600383901b1c191690821b1790555b3315620001cb5760065460018060a01b03199133838316176006557f8be0079c531659141344cd1fd0a4f28419497f9722a3daafe3b4186f6b6457e0604051953393169180a36007541617600755611d619081620003fb8239f35b60249060405190631e4fbdf760e01b82526004820152fd5b0151905038806200015c565b869593929193168588528388209388905b8282106200023a575050841162000220575b505050811b01905562000170565b015160001960f88460031b161c1916905538808062000212565b848401518655889790950194938401939081019062000200565b9091929394508688528288208580880160051c820192858910620002a3575b9188978a9297969594930160051c01915b8281106200029457505062000145565b8a815588975089910162000284565b9250819262000273565b634e487b7160e01b88526022600452602488fd5b90607f16906200012d565b634e487b7160e01b87526041600452602487fd5b015190503880620000ff565b90848a9416918b8052868c20928c5b888282106200033657505084116200031c575b505050811b01875562000113565b015160001960f88460031b161c191690553880806200030e565b8385015186558d97909501949384019301620002fb565b909150898052848a208780850160051c82019287861062000396575b918b91869594930160051c01915b82811062000387575050620000e9565b8c81558594508b910162000377565b9250819262000369565b634e487b7160e01b8a52602260045260248afd5b90607f1690620000d4565b634e487b7160e01b600052604160045260246000fd5b600080fd5b60408051919082016001600160401b03811183821017620003bf5760405256fe6080604081815260048036101561001557600080fd5b600092833560e01c90816301ffc9a71461100f5750806306fdde0314610f5e578063081812fc14610f23578063095ea7b314610e47578063162094c414610cc557806318160ddd14610ca657806323b872dd14610c8e57806342842e0e14610c5f57806355f804b314610ad85780636352211e14610aa757806370a0823114610a52578063715018a6146109f557806373ad6c2d146109b5578063849b1b7e146108b25780638da5cb5b1461088957806395d89b411461079e578063a22cb465146106fd578063abc8c7af146106d4578063b03fbfbb14610482578063b2dd121214610371578063b88d4fde146102e0578063c87b56dd146102a5578063e985e9c514610253578063f2fde38b146101c95763fe5eb7541461013657600080fd5b346101c557816003193601126101c55735602435906001600160401b03821682036101c1576101be9260019161018e838060a01b0361017a816007541633146112a1565b8288526002602052838820541615156112e0565b855260096020528420019069ffffffffffffffff000082549160101b169069ffffffffffffffff00001916179055565b80f35b8380fd5b8280fd5b50346101c55760203660031901126101c5576101e36110c3565b906101ec61191f565b6001600160a01b0391821692831561023d575050600654826001600160601b0360a01b821617600655167f8be0079c531659141344cd1fd0a4f28419497f9722a3daafe3b4186f6b6457e08380a380f35b51631e4fbdf760e01b8152908101849052602490fd5b5050346102a157806003193601126102a15760ff816020936102736110c3565b61027b6110de565b6001600160a01b0391821683526005875283832091168252855220549151911615158152f35b5080fd5b5091346102dd5760203660031901126102dd57506102c66102d99235611544565b905191829160208352602083019061109e565b0390f35b80fd5b5090346101c55760803660031901126101c5576102fb6110c3565b6103036110de565b6044359185606435956001600160401b0387116102a157366023880112156102a1578601359561033e6103358861124c565b965196876111a2565b86865236602488830101116102a157866101be97602460209301838901378601015261036b838383611319565b33611bdd565b5090346101c557602091826003193601126101c157908060e094600393358160c0845161039d81611156565b828152828982015282868201528260608201528260808201528260a08201520152808252600286526103db60018060a01b03848420541615156112e0565b815260098552208151916103ee83611156565b8154948584526001830154918185019060ff8416825260ff818701818660081c1681526001600160401b03948260608a0195878960101c1687528160808c019960501c161515895260c060028b01549a60a08d019b8c5261ffff9d8e910154169b019a8b5285519c8d525116908b01525116908801525116606086015251151560808501525160a0840152511660c0820152f35b5090346101c5576101203660031901126101c55761049e6110c3565b926104a8366111c3565b6001600160401b0391610104358381116102a1576104c990369087016110f4565b9190600160a01b600190036007541633146104e3906112a1565b6008546104ef9061151f565b968760085587835260209860098a52888885209680518855600197888101908d83015160ff16918054928d85015160081b61ff00169061ffff19809516171781558b60608501511661056290829069ffffffffffffffff000082549160101b169069ffffffffffffffff00001916179055565b6080840151151581549060ff60501b9060501b169060ff60501b191617905560a083015160028201556003019160c0015161ffff16908254161790556105a79161194b565b836105b6575b88888851908152f35b878352600b89528683209584116106c157506105d28554611267565b601f811161067b575b5081601f841160011461061c5791839491849394610611575b50501b916000199060031b1c19161790555b3880808080806105ad565b0135925038806105f4565b9183601f1981168785528a8520945b8b88838310610664575050501061064a575b505050811b019055610606565b0135600019600384901b60f8161c1916905538808061063d565b85870135885590960195938401938793500161062b565b858352888320601f850160051c8101918a86106106b7575b601f0160051c019085905b8281106106ac5750506105db565b84815501859061069e565b9091508190610693565b634e487b7160e01b835260419052602482fd5b5050346102a157816003193601126102a15760075490516001600160a01b039091168152602090f35b5090346101c557806003193601126101c5576107176110c3565b906024359182151580930361079a576001600160a01b03169283156107855750338452600560205280842083855260205280842060ff1981541660ff8416179055519081527f17307eab39ab6107e8899845ad3d59bd9653f200f220920489ca2b5937696c3160203392a380f35b836024925191630b61174360e31b8352820152fd5b8480fd5b8284346102dd57806003193601126102dd578151918282600193600154946107c586611267565b9182855260209687600182169182600014610862575050600114610806575b5050506102d992916107f79103856111a2565b5192828493845283019061109e565b9190869350600183527fb10e2d527612073b26eecdfd717e6a320cf44b4afac2b0732d9fcbe2b7fa0cf65b82841061084a57505050820101816107f76102d96107e4565b8054848a018601528895508794909301928101610831565b60ff19168782015293151560051b860190930193508492506107f791506102d990506107e4565b5050346102a157816003193601126102a15760065490516001600160a01b039091168152602090f35b5050346102a1576101003660031901126102a157806109af6020936108d56110c3565b6108de366111c3565b6108f360018060a01b036007541633146112a1565b6108fe60085461151f565b9586938460085584815260098952208151815561ffff60c06003600184019360ff8c870151169480549561ff008c89015160081b16908619809816171781556109756001600160401b03606089015116829069ffffffffffffffff000082549160101b169069ffffffffffffffff00001916179055565b6080870151151581549060ff60501b9060501b169060ff60501b191617905560a0860151600282015501930151169082541617905561194b565b51908152f35b83346102dd5760203660031901126102dd576109cf6110c3565b6109d761191f565b60018060a01b03166001600160601b0360a01b600754161760075580f35b83346102dd57806003193601126102dd57610a0e61191f565b600680546001600160a01b0319811690915581906001600160a01b03167f8be0079c531659141344cd1fd0a4f28419497f9722a3daafe3b4186f6b6457e08280a380f35b5091346102dd5760203660031901126102dd576001600160a01b03610a756110c3565b16928315610a925750806020938392526003845220549051908152f35b91516322718ad960e21b815291820152602490fd5b5091346102dd5760203660031901126102dd5750610ac7602092356118e4565b90516001600160a01b039091168152f35b5082346102dd5760209160206003193601126102a1576001600160401b0381358181116101c157610b0c90369084016110f4565b929091610b1761191f565b8311610c4c5750610b29600a54611267565b601f8111610bed575b508293601f8311600114610b6f5750928293829392610b64575b50508160011b916000199060031b1c191617600a5580f35b013590508380610b4c565b601f198316947fc65a7bb8d6351c1cf70c95a316cc6a92839c986682d98bc35f958f4883f9d2a8929185905b878210610bd5575050836001959610610bbb575b505050811b01600a5580f35b0135600019600384901b60f8161c19169055838080610baf565b80600184968294958701358155019501920190610b9b565b7fc65a7bb8d6351c1cf70c95a316cc6a92839c986682d98bc35f958f4883f9d2a8601f840160051c81019160208510610c42575b601f0160051c01905b818110610c375750610b32565b848155600101610c2a565b9091508190610c21565b634e487b7160e01b845260419052602483fd5b5050346102a1576101be90610c7336611121565b91925192610c8084611187565b85845261036b838383611319565b83346102dd576101be610ca036611121565b91611319565b5050346102a157816003193601126102a1576020906008549051908152f35b509190346102a157806003193601126102a1578235926001600160401b039160243583811161079a57610cfb90369084016110f4565b92909160018060a01b0396610d15886007541633146112a1565b808752610d2e60209860028a52838920541615156112e0565b8652600b87528520938311610e345750610d488354611267565b601f8111610df1575b508394601f8311600114610d8e575093839482939492610d83575b50508160011b916000199060031b1c191617905580f35b013590503880610d6c565b90601f198316958486528286209286905b888210610dd957505083600195969710610dbf575b505050811b01905580f35b0135600019600384901b60f8161c19169055388080610db4565b80600184968294958701358155019501920190610d9f565b838552858520601f840160051c810191878510610e2a575b601f0160051c01905b818110610e1f5750610d51565b858155600101610e12565b9091508190610e09565b634e487b7160e01b855260419052602484fd5b5090346101c557806003193601126101c557610e616110c3565b91602435610e6e816118e4565b33151580610f10575b80610ee7575b610ed1576001600160a01b039485169482918691167f8c5be1e5ebec7d5bd14f71427d1e84f3dd0314c0f7b2291e5b200ac8c7c3b9258880a48452602052822080546001600160a01b031916909117905580f35b835163a9fbf51f60e01b81523381850152602490fd5b506001600160a01b03811686526005602090815284872033885290528386205460ff1615610e7d565b506001600160a01b038116331415610e77565b50346101c55760203660031901126101c557918260209335610f44816118e4565b50825283528190205490516001600160a01b039091168152f35b8284346102dd57806003193601126102dd5781519182828354610f8081611267565b9081845260209560019187600182169182600014610862575050600114610fb4575050506102d992916107f79103856111a2565b91908693508280527f290decd9548b62a8d60345a988386fc84ba6bc95484008f6362f93160ef3e5635b828410610ff757505050820101816107f76102d96107e4565b8054848a018601528895508794909301928101610fde565b925050346101c55760203660031901126101c5573563ffffffff60e01b81168091036101c557602092506380ac58cd60e01b811490811561106a575b8115611059575b5015158152f35b6301ffc9a760e01b14905038611052565b635b5e139f60e01b8114915061104b565b60005b83811061108e5750506000910152565b818101518382015260200161107e565b906020916110b78151809281855285808601910161107b565b601f01601f1916010190565b600435906001600160a01b03821682036110d957565b600080fd5b602435906001600160a01b03821682036110d957565b9181601f840112156110d9578235916001600160401b0383116110d957602083818601950101116110d957565b60609060031901126110d9576001600160a01b039060043582811681036110d9579160243590811681036110d9579060443590565b60e081019081106001600160401b0382111761117157604052565b634e487b7160e01b600052604160045260246000fd5b602081019081106001600160401b0382111761117157604052565b90601f801991011681019081106001600160401b0382111761117157604052565b60e09060231901126110d957604051906111dc82611156565b81602435815260443560ff811681036110d957602082015260643560ff811681036110d95760408201526084356001600160401b03811681036110d957606082015260a43580151581036110d957608082015260c43560a082015260e4359061ffff821682036110d95760c00152565b6001600160401b03811161117157601f01601f191660200190565b90600182811c92168015611297575b602083101461128157565b634e487b7160e01b600052602260045260246000fd5b91607f1691611276565b156112a857565b60405162461bcd60e51b815260206004820152601060248201526f6f6e6c79206d61726b6574706c61636560801b6044820152606490fd5b156112e757565b60405162461bcd60e51b815260206004820152600a6024820152696e6f742065786973747360b01b6044820152606490fd5b6001600160a01b0391821692909183156115065760009282845260209460028652604095868481882054169633151580611476575b5087151580611443575b84825260038452828220805460010190558782526002845282822080546001600160a01b0319168617905582519488908a7fddf252ad1be2c89b69c2b068fc378daa952ba7f163c4a11628f55a4df523b3ef8580a48061143b575b6113ec575b5050505016928383036113cb5750505050565b6064945051926364283d7b60e01b8452600484015260248301526044820152fd5b60098352206001015460501c60ff16156114075786816113b8565b62461bcd60e51b82526004820152601060248201526f6e6f74207472616e7366657261626c6560801b604482015260649150fd5b5060016113b3565b600088815260046020526040902080546001600160a01b0319169055888252600384528282208054600019019055611358565b909150806114c5575b1561148c5787903861134e565b8786886114a9576024915190637e27328960e01b82526004820152fd5b604491519063177e802f60e01b82523360048301526024820152fd5b5033871480156114ea575b8061147f575085815260048252338589832054161461147f565b5086815260058252878120338252825260ff88822054166114d0565b604051633250574960e11b815260006004820152602490fd5b600019811461152e5760010190565b634e487b7160e01b600052601160045260246000fd5b60008181526002602090815260408083205490939192906001600160a01b03161561188857818152600b8352838120845181549391818461158487611267565b9283835260019789898216918260001461186857505060011461182a575b506115af925003826111a2565b805161182157508451600a8054919484866115c985611267565b91828252898201958a85821691826000146118065750506001146117ab575b6115f4925003876111a2565b85511561179357849390817a184f03e93ff9f4daa797ed6e38ed64bf6a1f0100000000000000008181811015611785575b5050600a90896d04ee2d6d415b85acef810000000080831015611779575b5050662386f26fc100008082101561176c575b506305f5e1008082101561175f575b5061271080821015611752575b506064811015611744575b101561173b575b90816021866116ad838d99016116a561169c8261124c565b9a519a8b6111a2565b808a5261124c565b888c019990601f1901368b3750870101905b611705575b50505050906116f6611702959493926116e797519788955180928888019061107b565b8401915180938684019061107b565b010380845201826111a2565b90565b600019019083906f181899199a1a9b1b9c1cb0b131b232b360811b8282061a835304918215611736579190826116bf565b6116c4565b80940193611684565b60646002910496019561167d565b6004910496019538611672565b6008910496019538611665565b6010910496019538611656565b97019690048938611643565b8b9750049050600a38611625565b505050509291505051906117a682611187565b815290565b5050600a8652868887847fc65a7bb8d6351c1cf70c95a316cc6a92839c986682d98bc35f958f4883f9d2a85b8583106117ed5750506115f493508201016115e8565b80919294505483858d0101520191018990848a936117d7565b60ff191688526115f494151560051b84010191506115e89050565b94505050505090565b915050845281868086208787915b85831061184f5750506115af9350820101386115a2565b8091929450548385880101520191018790878593611838565b60ff1916858201526115af95151560051b85010192503891506115a29050565b835162461bcd60e51b815260048101849052602f60248201527f4552433732314d657461646174613a2055524920717565727920666f72206e6f60448201526e3732bc34b9ba32b73a103a37b5b2b760891b6064820152608490fd5b6000818152600260205260409020546001600160a01b0316908115611907575090565b60249060405190637e27328960e01b82526004820152fd5b6006546001600160a01b0316330361193357565b60405163118cdaa760e01b8152336004820152602490fd5b6040805161195881611187565b6000808252936001600160a01b03848116949092908515611bc5578287526020936002855285882054168015159081611b92575b878952600386528689206001815401905584895260028652868920886001600160601b0360a01b82541617905584888851927fddf252ad1be2c89b69c2b068fc378daa952ba7f163c4a11628f55a4df523b3ef8c80a48180611b8a575b611b40575b50611b28573b611a01575b505050505050565b82611a3f918596979894955180938192630a85bd0160e11b968784523360048501528c6024850152604484015260806064840152608483019061109e565b03818a8a5af1879181611ae4575b50611aad575050503d600014611aa4573d611a678161124c565b90611a74845192836111a2565b81528094823d92013e5b83519384611a9e578251633250574960e11b815260048101859052602490fd5b84925001fd5b60609350611a7e565b919550915063ffffffff60e01b1603611acd5750503880808080806119f9565b602492505190633250574960e11b82526004820152fd5b9091508481813d8311611b21575b611afc81836111a2565b81010312611b1d57516001600160e01b031981168103611b1d579038611a4d565b8780fd5b503d611af2565b84516339e3563760e11b815260048101889052602490fd5b6009865260ff6001888b20015460501c166119ee5762461bcd60e51b815260048101869052601060248201526f6e6f74207472616e7366657261626c6560801b6044820152606490fd5b5060016119e9565b600085815260046020526040902080546001600160a01b031916905580895260038652868920805460001901905561198c565b8451633250574960e11b815260048101889052602490fd5b90939192833b611bef575b5050505050565b604051630a85bd0160e11b8082526001600160a01b039384166004830152958316602482015260448101919091526080606482015294921692602092918590611c3c90608483019061109e565b039483816000978189895af1869181611ce7575b50611cb1575050503d600014611ca8573d611c6a8161124c565b90611c7860405192836111a2565b81528093823d92013e5b82519283611ca357604051633250574960e11b815260048101849052602490fd5b019050fd5b60609250611c82565b919450915063ffffffff60e01b1603611ccf57503880808080611be8565b60249060405190633250574960e11b82526004820152fd5b9091508481813d8311611d24575b611cff81836111a2565b81010312611d2057516001600160e01b031981168103611d20579038611c50565b8680fd5b503d611cf556fea26469706673582212205eb1a53bd08cf94efcc5a226a6663d836443b21eca9b093e3c9a1d40a9a2b14364736f6c63430008180033",
  "linkReferences": {},
  "deployedLinkReferences": {}
}