{
  "_format": "hh-sol-artifact-1",
  "contractName": "AgentRegistry",
  "sourceName": "contracts/AgentRegistry.sol",
  "abi": [
    {
      "inputs": [
        {
          "internalType": "address",
          "name": "_marketplace",
          "type": "address"
        }
      ],
      "stateMutability": "nonpayable",
      "type": "constructor"
    },
    {
      "inputs": [],
      "name": "AgentAlreadyExists",
      "type": "error"
    },
    {
      "inputs": [
        {
          "internalType": "address",
          "name": "sender",
          "type": "address"
        },
        {
          "internalType": "uint256",
          "name": "tokenId",
          "type": "uint256"
        },
        {
          "internalType": "address",
          "name": "owner",
          "type": "address"
        }
      ],
      "name": "ERC721IncorrectOwner",
      "type": "error"
    },
    {
      "inputs": [
        {
          "internalType": "address",
          "name": "operator",
          "type": "address"
        },
        {
          "internalType": "uint256",
          "name": "tokenId",
          "type": "uint256"
        }
      ],
      "name": "ERC721InsufficientApproval",
      "type": "error"
    },
    {
      "inputs": [
        {
          "internalType": "address",
          "name": "approver",
          "type": "address"
        }
      ],
      "name": "ERC721InvalidApprover",
      "type": "error"
    },
    {
      "inputs": [
        {
          "internalType": "address",
          "name": "operator",
          "type": "address"
        }
      ],
      "name": "ERC721InvalidOperator",
      "type": "error"
    },
    {
      "inputs": [
        {
          "internalType": "address",
          "name": "owner",
          "type": "address"
        }
      ],
      "name": "ERC721InvalidOwner",
      "type": "error"
    },
    {
      "inputs": [
        {
          "internalType": "address",
          "name": "receiver",
          "type": "address"
        }
      ],
      "name": "ERC721InvalidReceiver",
      "type": "error"
    },
    {
      "inputs": [
        {
          "internalType": "address",
          "name": "sender",
          "type": "address"
        }
      ],
      "name": "ERC721InvalidSender",
      "type": "error"
    },
    {
      "inputs": [
        {
          "internalType": "uint256",
          "name": "tokenId",
          "type": "uint256"
        }
      ],
      "name": "ERC721NonexistentToken",
      "type": "error"
    },
    {
      "inputs": [],
      "name": "InvalidModelId",
      "type": "error"
    },
    {
      "inputs": [],
      "name": "NotAgentOwner",
      "type": "error"
    },
    {
      "inputs": [
        {
          "internalType": "address",
          "name": "owner",
          "type": "address"
        }
      ],
      "name": "OwnableInvalidOwner",
      "type": "error"
    },
    {
      "inputs": [
        {
          "internalType": "address",
          "name": "account",
          "type": "address"
        }
      ],
      "name": "OwnableUnauthorizedAccount",
      "type": "error"
    },
    {
      "inputs": [],
      "name": "ZeroAddress",
      "type": "error"
    },
    {
      "anonymous": false,
      "inputs": [
        {
          "indexed": true,
          "internalType": "uint256",
          "name": "agentId",
          "type": "uint256"
        },
        {
          "indexed": false,
          "internalType": "string",
          "name": "endpoint",
          "type": "string"
        }
      ],
      "name": "AgentEndpointUpdated",
      "type": "event"
    },
    {
      "anonymous": false,
      "inputs": [
        {
          "indexed": true,
          "internalType": "uint256",
          "name": "agentId",
          "type": "uint256"
        },
        {
          "indexed": false,
          "internalType": "string",
          "name": "newUri",
          "type": "string"
        }
      ],
      "name": "AgentMetadataUpdated",
      "type": "event"
    },
    {
      "anonymous": false,
      "inputs": [
        {
          "indexed": true,
          "internalType": "uint256",
          "name": "agentId",
          "type": "uint256"
        },
        {
          "indexed": true,
          "internalType": "address",
          "name": "owner",
          "type": "address"
        },
        {
          "indexed": true,
          "internalType": "uint256",
          "name": "modelId",
          "type": "uint256"
        },
        {
          "indexed": false,
          "internalType": "string",
          "name": "metadataUri",
          "type": "string"
        }
      ],
      "name": "AgentRegistered",
      "type": "event"
    },
    {
      "anonymous": false,
      "inputs": [
        {
          "indexed": true,
          "internalType": "address",
          "name": "owner",
          "type": "address"
        },
        {
          "indexed": true,
          "internalType": "address",
          "name": "approved",
          "type": "address"
        },
        {
          "indexed": true,
          "internalType": "uint256",
          "name": "tokenId",
          "type": "uint256"
        }
      ],
      "name": "Approval",
      "type": "event"
    },
    {
      "anonymous": false,
      "inputs": [
        {
          "indexed": true,
          "internalType": "address",
          "name": "owner",
          "type": "address"
        },
        {
          "indexed": true,
          "internalType": "address",
          "name": "operator",
          "type": "address"
        },
        {
          "indexed": false,
          "internalType": "bool",
          "name": "approved",
          "type": "bool"
        }
      ],
      "name": "ApprovalForAll",
      "type": "event"
    },
    {
      "anonymous": false,
      "inputs": [
        {
          "indexed": false,
          "internalType": "uint256",
          "name": "_fromTokenId",
          "type": "uint256"
        },
        {
          "indexed": false,
          "internalType": "uint256",
          "name": "_toTokenId",
          "type": "uint256"
        }
      ],
      "name": "BatchMetadataUpdate",
      "type": "event"
    },
    {
      "anonymous": false,
      "inputs": [
        {
          "indexed": false,
          "internalType": "uint256",
          "name": "_tokenId",
          "type": "uint256"
        }
      ],
      "name": "MetadataUpdate",
      "type": "event"
    },
    {
      "anonymous": false,
      "inputs": [
        {
          "indexed": true,
          "internalType": "address",
          "name": "previousOwner",
          "type": "address"
        },
        {
          "indexed": true,
          "internalType": "address",
          "name": "newOwner",
          "type": "address"
        }
      ],
      "name": "OwnershipTransferred",
      "type": "event"
    },
    {
      "anonymous": false,
      "inputs": [
        {
          "indexed": true,
          "internalType": "address",
          "name": "from",
          "type": "address"
        },
        {
          "indexed": true,
          "internalType": "address",
          "name": "to",
          "type": "address"
        },
        {
          "indexed": true,
          "internalType": "uint256",
          "name": "tokenId",
          "type": "uint256"
        }
      ],
      "name": "Transfer",
      "type": "event"
    },
    {
      "inputs": [
        {
          "internalType": "uint256",
          "name": "",
          "type": "uint256"
        }
      ],
      "name": "agents",
      "outputs": [
        {
          "internalType": "uint256",
          "name": "modelId",
          "type": "uint256"
        },
        {
          "internalType": "address",
          "name": "wallet",
          "type": "address"
        },
        {
          "internalType": "string",
          "name": "endpoint",
          "type": "string"
        },
        {
          "internalType": "uint256",
          "name": "registeredAt",
          "type": "uint256"
        },
        {
          "internalType": "bool",
          "name": "active",
          "type": "bool"
        }
      ],
      "stateMutability": "view",
      "type": "function"
    },
    {
      "inputs": [
        {
          "internalType": "address",
          "name": "to",
          "type": "address"
        },
        {
          "internalType": "uint256",
          "name": "tokenId",
          "type": "uint256"
        }
      ],
      "name": "approve",
      "outputs": [],
      "stateMutability": "nonpayable",
      "type": "function"
    },
    {
      "inputs": [
        {
          "internalType": "address",
          "name": "owner",
          "type": "address"
        }
      ],
      "name": "balanceOf",
      "outputs": [
        {
          "internalType": "uint256",
          "name": "",
          "type": "uint256"
        }
      ],
      "stateMutability": "view",
      "type": "function"
    },
    {
      "inputs": [
        {
          "internalType": "uint256",
          "name": "agentId",
          "type": "uint256"
        }
      ],
      "name": "deactivate",
      "outputs": [],
      "stateMutability": "nonpayable",
      "type": "function"
    },
    {
      "inputs": [
        {
          "internalType": "uint256",
          "name": "agentId",
          "type": "uint256"
        }
      ],
      "name": "getAgent",
      "outputs": [
        {
          "components": [
            {
              "internalType": "uint256",
              "name": "modelId",
              "type": "uint256"
            },
            {
              "internalType": "address",
              "name": "wallet",
              "type": "address"
            },
            {
              "internalType": "string",
              "name": "endpoint",
              "type": "string"
            },
            {
              "internalType": "uint256",
              "name": "registeredAt",
              "type": "uint256"
            },
            {
              "internalType": "bool",
              "name": "active",
              "type": "bool"
            }
          ],
          "internalType": "struct AgentRegistry.Agent",
          "name": "",
          "type": "tuple"
        }
      ],
      "stateMutability": "view",
      "type": "function"
    },
    {
      "inputs": [
        {
          "internalType": "uint256",
          "name": "modelId",
          "type": "uint256"
        }
      ],
      "name": "getAgentByModel",
      "outputs": [
        {
          "internalType": "uint256",
          "name": "",
          "type": "uint256"
        }
      ],
      "stateMutability": "view",
      "type": "function"
    },
    {
      "inputs": [
        {
          "internalType": "uint256",
          "name": "tokenId",
          "type": "uint256"
        }
      ],
      "name": "getApproved",
      "outputs": [
        {
          "internalType": "address",
          "name": "",
          "type": "address"
        }
      ],
      "stateMutability": "view",
      "type": "function"
    },
    {
      "inputs": [
        {
          "internalType": "uint256",
          "name": "agentId",
          "type": "uint256"
        }
      ],
      "name": "getPaymentWallet",
      "outputs": [
        {
          "internalType": "address",
          "name": "",
          "type": "address"
        }
      ],
      "stateMutability": "view",
      "type": "function"
    },
    {
      "inputs": [
        {
          "internalType": "address",
          "name": "owner",
          "type": "address"
        },
        {
          "internalType": "address",
          "name": "operator",
          "type": "address"
        }
      ],
      "name": "isApprovedForAll",
      "outputs": [
        {
          "internalType": "bool",
          "name": "",
          "type": "bool"
        }
      ],
      "stateMutability": "view",
      "type": "function"
    },
    {
      "inputs": [
        {
          "internalType": "uint256",
          "name": "agentId",
          "type": "uint256"
        }
      ],
      "name": "isValidAgent",
      "outputs": [
        {
          "internalType": "bool",
          "name": "",
          "type": "bool"
        }
      ],
      "stateMutability": "view",
      "type": "function"
    },
    {
      "inputs": [],
      "name": "marketplace",
      "outputs": [
        {
          "internalType": "address",
          "name": "",
          "type": "address"
        }
      ],
      "stateMutability": "view",
      "type": "function"
    },
    {
      "inputs": [
        {
          "internalType": "uint256",
          "name": "",
          "type": "uint256"
        }
      ],
      "name": "modelToAgent",
      "outputs": [
        {
          "internalType": "uint256",
          "name": "",
          "type": "uint256"
        }
      ],
      "stateMutability": "view",
      "type": "function"
    },
    {
      "inputs": [],
      "name": "name",
      "outputs": [
        {
          "internalType": "string",
          "name": "",
          "type": "string"
        }
      ],
      "stateMutability": "view",
      "type": "function"
    },
    {
      "inputs": [],
      "name": "nextAgentId",
      "outputs": [
        {
          "internalType": "uint256",
          "name": "",
          "type": "uint256"
        }
      ],
      "stateMutability": "view",
      "type": "function"
    },
    {
      "inputs": [],
      "name": "owner",
      "outputs": [
        {
          "internalType": "address",
          "name": "",
          "type": "address"
        }
      ],
      "stateMutability": "view",
      "type": "function"
    },
    {
      "inputs": [
        {
          "internalType": "uint256",
          "name": "tokenId",
          "type": "uint256"
        }
      ],
      "name": "ownerOf",
      "outputs": [
        {
          "internalType": "address",
          "name": "",
          "type": "address"
        }
      ],
      "stateMutability": "view",
      "type": "function"
    },
    {
      "inputs": [
        {
          "internalType": "uint256",
          "name": "agentId",
          "type": "uint256"
        }
      ],
      "name": "reactivate",
      "outputs": [],
      "stateMutability": "nonpayable",
      "type": "function"
    },
    {
      "inputs": [
        {
          "internalType": "uint256",
          "name": "modelId",
          "type": "uint256"
        },
        {
          "internalType": "address",
          "name": "wallet",
          "type": "address"
        },
        {
          "internalType": "string",
          "name": "endpoint",
          "type": "string"
        },
        {
          "internalType": "string",
          "name": "metadataUri",
          "type": "string"
        }
      ],
      "name": "registerAgent",
      "outputs": [
        {
          "internalType": "uint256",
          "name": "agentId",
          "type": "uint256"
        }
      ],
      "stateMutability": "nonpayable",
      "type": "function"
    },
    {
      "inputs": [],
      "name": "renounceOwnership",
      "outputs": [],
      "stateMutability": "nonpayable",
      "type": "function"
    },
    {
      "inputs": [
        {
          "internalType": "address",
          "name": "from",
          "type": "address"
        },
        {
          "internalType": "address",
          "name": "to",
          "type": "address"
        },
        {
          "internalType": "uint256",
          "name": "tokenId",
          "type": "uint256"
        }
      ],
      "name": "safeTransferFrom",
      "outputs": [],
      "stateMutability": "nonpayable",
      "type": "function"
    },
    {
      "inputs": [
        {
          "internalType": "address",
          "name": "from",
          "type": "address"
        },
        {
          "internalType": "address",
          "name": "to",
          "type": "address"
        },
        {
          "internalType": "uint256",
          "name": "tokenId",
          "type": "uint256"
        },
        {
          "internalType": "bytes",
          "name": "data",
          "type": "bytes"
        }
      ],
      "name": "safeTransferFrom",
      "outputs": [],
      "stateMutability": "nonpayable",
      "type": "function"
    },
    {
      "inputs": [
        {
          "internalType": "address",
          "name": "operator",
          "type": "address"
        },
        {
          "internalType": "bool",
          "name": "approved",
          "type": "bool"
        }
      ],
      "name": "setApprovalForAll",
      "outputs": [],
      "stateMutability": "nonpayable",
      "type": "function"
    },
    {
      "inputs": [
        {
          "internalType": "address",
          "name": "_marketplace",
          "type": "address"
        }
      ],
      "name": "setMarketplace",
      "outputs": [],
      "stateMutability": "nonpayable",
      "type": "function"
    },
    {
      "inputs": [
        {
          "internalType": "bytes4",
          "name": "interfaceId",
          "type": "bytes4"
        }
      ],
      "name": "supportsInterface",
      "outputs": [
        {
          "internalType": "bool",
          "name": "",
          "type": "bool"
        }
      ],
      "stateMutability": "view",
      "type": "function"
    },
    {
      "inputs": [],
      "name": "symbol",
      "outputs": [
        {
          "internalType": "string",
          "name": "",
          "type": "string"
        }
      ],
      "stateMutability": "view",
      "type": "function"
    },
    {
      "inputs": [
        {
          "internalType": "uint256",
          "name": "tokenId",
          "type": "uint256"
        }
      ],
      "name": "tokenURI",
      "outputs": [
        {
          "internalType": "string",
          "name": "",
          "type": "string"
        }
      ],
      "stateMutability": "view",
      "type": "function"
    },
    {
      "inputs": [
        {
          "internalType": "address",
          "name": "from",
          "type": "address"
        },
        {
          "internalType": "address",
          "name": "to",
          "type": "address"
        },
        {
          "internalType": "uint256",
          "name": "tokenId",
          "type": "uint256"
        }
      ],
      "name": "transferFrom",
      "outputs": [],
      "stateMutability": "nonpayable",
      "type": "function"
    },
    {
      "inputs": [
        {
          "internalType": "address",
          "name": "newOwner",
          "type": "address"
        }
      ],
      "name": "transferOwnership",
      "outputs": [],
      "stateMutability": "nonpayable",
      "type": "function"
    },
    {
      "inputs": [
        {
          "internalType": "uint256",
          "name": "agentId",
          "type": "uint256"
        },
        {
          "internalType": "string",
          "name": "newEndpoint",
          "type": "string"
        }
      ],
      "name": "updateEndpoint",
      "outputs": [],
      "stateMutability": "nonpayable",
      "type": "function"
    },
    {
      "inputs": [
        {
          "internalType": "uint256",
          "name": "agentId",
          "type": "uint256"
        },
        {
          "internalType": "string",
          "name": "newUri",
          "type": "string"
        }
      ],
      "name": "updateMetadata",
      "outputs": [],
      "stateMutability": "nonpayable",
      "type": "function"
    }
  ],
  "bytecode": "0x608034620003e7576001600160401b0390601f1990601f9062001e23388190038381018516830186811184821017620003d157839282916040528339602092839181010312620003e757516001600160a01b038082169590939091869003620003e7576200006c620003ec565b92600c84526b15d85cda5052481059d95b9d60a21b818501526200008f620003ec565b90600a82526915d054d24b5051d1539560b21b81830152845196848811620003d1576000978854966001978881811c91168015620003c6575b85821014620003b2579081878493116200035f575b508490878311600114620002fe578b92620002f2575b5050600019600383901b1c191690871b1788555b8251948511620002de5785548681811c91168015620002d3575b83821014620002bf5790818587969594931162000266575b5081938511600114620002015750508692620001f5575b5050600019600383901b1c191690821b1781555b3315620001dc5760075460018060a01b03199333858316176007557f8be0079c531659141344cd1fd0a4f28419497f9722a3daafe3b4186f6b6457e0604051943393169180a36008558215620001cd5750600b541617600b55604051611a1690816200040d8239f35b63d92e233d60e01b8152600490fd5b604051631e4fbdf760e01b815260048101849052602490fd5b01519050388062000150565b869593929193168589528389209389905b8282106200024c575050841162000232575b505050811b01815562000164565b015160001960f88460031b161c1916905538808062000224565b848401518655889790950194938401939081019062000212565b9091929394508689528289208580880160051c820192858910620002b5575b9188978a9297969594930160051c01915b828110620002a657505062000139565b8b815588975089910162000296565b9250819262000285565b634e487b7160e01b89526022600452602489fd5b90607f169062000121565b634e487b7160e01b88526041600452602488fd5b015190503880620000f3565b90848a9416918c8052868d20928d5b888282106200034857505084116200032e575b505050811b01885562000107565b015160001960f88460031b161c1916905538808062000320565b8385015186558d979095019493840193016200030d565b9091508a8052848b208780850160051c820192878610620003a8575b918b91869594930160051c01915b82811062000399575050620000dd565b8d81558594508b910162000389565b925081926200037b565b634e487b7160e01b8b52602260045260248bfd5b90607f1690620000c8565b634e487b7160e01b600052604160045260246000fd5b600080fd5b60408051919082016001600160401b03811183821017620003d15760405256fe608080604052600436101561001357600080fd5b60003560e01c90816301ffc9a7146111a25750806306fdde03146110f7578063081812fc146110b9578063095ea7b314610fd257806309df30ec14610f86578063173e79bb1461028457806323b872dd14610f6f578063251f3b7e14610a9e5780632de5aaf7146109be57806330efc498146109a057806342842e0e146109725780634afc374c1461094a578063513856c8146108cb57806353c8388e1461086d57806354fec772146106f95780636352211e146106c957806370a0823114610670578063715018a61461061357806373ad6c2d146105b95780638da5cb5b14610590578063916b9bef1461053557806395d89b4114610452578063a22cb465146103a4578063abc8c7af1461037b578063b88d4fde1461030d578063c87b56dd146102b0578063d58e0c9e14610284578063dbd7e9491461024d578063e985e9c5146101f75763f2fde38b1461016957600080fd5b346101f25760203660031901126101f257610182611267565b61018a611866565b6001600160a01b039081169081156101d957600754826001600160601b0360a01b821617600755167f8be0079c531659141344cd1fd0a4f28419497f9722a3daafe3b4186f6b6457e0600080a3005b604051631e4fbdf760e01b815260006004820152602490fd5b600080fd5b346101f25760403660031901126101f257610210611267565b61021861127d565b9060018060a01b03809116600052600560205260406000209116600052602052602060ff604060002054166040519015158152f35b346101f25760203660031901126101f2576004356000526009602052602060018060a01b0360016040600020015416604051908152f35b346101f25760203660031901126101f257600435600052600a6020526020604060002054604051908152f35b346101f25760203660031901126101f2576004356102cd816116f0565b5060005260066020526103096102e6604060002061138a565b60006040516102f48161134c565b52604051918291602083526020830190611227565b0390f35b346101f25760803660031901126101f257610326611267565b61032e61127d565b906044356064359267ffffffffffffffff84116101f257366023850112156101f25761036761037994369060248160040135910161147f565b926103738383836114b6565b33611892565b005b346101f25760003660031901126101f257600b546040516001600160a01b039091168152602090f35b346101f25760403660031901126101f2576103bd611267565b60243590811515908183036101f2576001600160a01b03169182156104395761040b9033600052600560205260406000208460005260205260406000209060ff801983541691151516179055565b6040519081527f17307eab39ab6107e8899845ad3d59bd9653f200f220920489ca2b5937696c3160203392a3005b604051630b61174360e31b815260048101849052602490fd5b346101f25760003660031901126101f257604051600060018260015492610478846112f6565b92838352602094856001821691826000146105155750506001146104b8575b506104a492500383611368565b610309604051928284938452830190611227565b84915060016000527fb10e2d527612073b26eecdfd717e6a320cf44b4afac2b0732d9fcbe2b7fa0cf6906000915b8583106104fd5750506104a4935082010185610497565b805483890185015287945086939092019181016104e6565b60ff1916858201526104a495151560051b85010192508791506104979050565b346101f25760203660031901126101f257600435610552816116f0565b336001600160a01b039091160361057e576000908152600960205260409020600401805460ff19169055005b604051630e41dcbf60e21b8152600490fd5b346101f25760003660031901126101f2576007546040516001600160a01b039091168152602090f35b346101f25760203660031901126101f2576105d2611267565b6105da611866565b6001600160a01b03168015610601576001600160601b0360a01b600b541617600b55600080f35b60405163d92e233d60e01b8152600490fd5b346101f25760003660031901126101f25761062c611866565b600780546001600160a01b031981169091556000906001600160a01b03167f8be0079c531659141344cd1fd0a4f28419497f9722a3daafe3b4186f6b6457e08280a3005b346101f25760203660031901126101f2576001600160a01b03610691611267565b1680156106b05760005260036020526020604060002054604051908152f35b6040516322718ad960e21b815260006004820152602490fd5b346101f25760203660031901126101f25760206106e76004356116f0565b6040516001600160a01b039091168152f35b346101f2576107073661142f565b6107128392936116f0565b336001600160a01b039091160361057e57816000526020926009602052600260406000200167ffffffffffffffff83116108575761075a8361075483546112f6565b8361163c565b600094601f84116001146107cf57506107ad83807f6a3a0beb54691369cfa3d9ccbfee7ad49dcfeb928219b0c2eab1e9261488a76296976000916107c4575b508160011b916000199060031b1c19161790565b90555b6107bf60405192839283611692565b0390a2005b905084013588610799565b601f19841695826000526020600020916000905b88821061083f575050847f6a3a0beb54691369cfa3d9ccbfee7ad49dcfeb928219b0c2eab1e9261488a762969710610825575b5050600183811b0190556107b0565b830135600019600386901b60f8161c191690558580610816565b806001849582949589013581550194019201906107e3565b634e487b7160e01b600052604160045260246000fd5b346101f25761087b3661142f565b610884836116f0565b336001600160a01b039091160361057e577f859fac2fc059a2fa38efe7236e1c16278c1519298d62dd05582ff7fa392a1045916107b06108c536848461147f565b8561172b565b346101f25760203660031901126101f2576004356000908152600960205260409020805460018201546001600160a01b03169161090a6002820161138a565b61093960ff6004600385015494015416916040519586958652602086015260a0604086015260a0850190611227565b916060840152151560808301520390f35b346101f25760203660031901126101f25760206109686004356116ba565b6040519015158152f35b346101f25761037961098336611293565b90604051926109918461134c565b600084526103738383836114b6565b346101f25760003660031901126101f2576020600854604051908152f35b346101f2576020806003193601126101f257600060806040516109e081611330565b828152828482015260606040820152826060820152015260043560005260098152604060002060405190610a1382611330565b8054825260018101546001600160a01b0390811684840190815290610a8b90610a3e6002850161138a565b906040860191825260ff600460038701549660608901978852015416936080870194151585526040519788978189525190880152511660408601525160a0606086015260c0850190611227565b9151608084015251151560a08301520390f35b346101f25760803660031901126101f257610ab761127d565b67ffffffffffffffff6044358181116101f257610ad89036906004016112c8565b90916064358181116101f257610af29036906004016112c8565b92909460043515610f5d576001600160a01b031691821561060157600435600052600a602052604060002054610f4b57600854946000198614610f3557610b5a906001870160085560405193610b4785611330565b600435855260208501958652369161147f565b906040830191825260608301914283526001608085015286600052600960205260406000209484518655600186019060018060a01b039051166001600160601b0360a01b82541617905551805191821161085757610bc882610bbf60028801546112f6565b6002880161163c565b602090601f8311600114610ebd5792610c0483608094610c27989794600497600092610eb2575b50508160011b916000199060031b1c19161790565b60028601555b5160038501550151151591019060ff801983541691151516179055565b600435600052600a60205281604060002055604051610c458161134c565b600081523315610e99576000838152600260205260409020546001600160a01b031680151590849082610e62575b3360005260036020526040600020600181540190558160005260026020526040600020336001600160601b0360a01b82541617905533907fddf252ad1be2c89b69c2b068fc378daa952ba7f163c4a11628f55a4df523b3ef600080a4610e4957333b610d32575b50602092610cf2610cec36848461147f565b8461172b565b827fcbb96f51f0d44aad38bd37e9959154a2f979b86301a6efbcb08d83f10ac9c82060405180610d2760043596339683611692565b0390a4604051908152f35b60405160208180610d6c630a85bd0160e11b9586835233600484015260006024840152886044840152608060648401526084830190611227565b03816000335af160009181610e04575b50610dd6573d15610dcf573d610d9181611463565b90610d9f6040519283611368565b81523d6000602083013e5b80519081610dca57604051633250574960e11b8152336004820152602490fd5b602001fd5b6060610daa565b6001600160e01b03191603610dec576020610cda565b604051633250574960e11b8152336004820152602490fd5b9091506020813d602011610e41575b81610e2060209383611368565b810103126101f257516001600160e01b0319811681036101f2579086610d7c565b3d9150610e13565b6040516339e3563760e11b815260006004820152602490fd5b600082815260046020526040902080546001600160a01b031916905580600052600360205260406000206000198154019055610c73565b604051633250574960e11b815260006004820152602490fd5b015190508c80610bef565b90601f198316916002870160005260206000209260005b818110610f1d575093610c27979693600496936001938360809810610f04575b505050811b016002860155610c0a565b015160001960f88460031b161c191690558b8080610ef4565b92936020600181928786015181550195019301610ed4565b634e487b7160e01b600052601160045260246000fd5b604051630d82532d60e21b8152600490fd5b604051636979d35160e11b8152600490fd5b346101f257610379610f8036611293565b916114b6565b346101f25760203660031901126101f257600435610fa3816116f0565b336001600160a01b039091160361057e576000908152600960205260409020600401805460ff19166001179055005b346101f25760403660031901126101f257610feb611267565b602435610ff7816116f0565b331515806110a6575b80611079575b611061576001600160a01b039283169282918491167f8c5be1e5ebec7d5bd14f71427d1e84f3dd0314c0f7b2291e5b200ac8c7c3b925600080a4600090815260046020526040902080546001600160a01b0319169091179055005b60405163a9fbf51f60e01b8152336004820152602490fd5b5060018060a01b038116600052600560205260406000203360005260205260ff6040600020541615611006565b506001600160a01b038116331415611000565b346101f25760203660031901126101f2576004356110d6816116f0565b506000526004602052602060018060a01b0360406000205416604051908152f35b346101f25760003660031901126101f25760405160008054908261111a836112f6565b918282526020936001908560018216918260001461051557505060011461114857506104a492500383611368565b6000808052859250907f290decd9548b62a8d60345a988386fc84ba6bc95484008f6362f93160ef3e5635b85831061118a5750506104a4935082010185610497565b80548389018501528794508693909201918101611173565b346101f25760203660031901126101f2576004359063ffffffff60e01b82168092036101f257602091632483248360e11b81149081156111e4575b5015158152f35b6380ac58cd60e01b811491508115611216575b8115611205575b50836111dd565b6301ffc9a760e01b149050836111fe565b635b5e139f60e01b811491506111f7565b919082519283825260005b848110611253575050826000602080949584010152601f8019910116010190565b602081830181015184830182015201611232565b600435906001600160a01b03821682036101f257565b602435906001600160a01b03821682036101f257565b60609060031901126101f2576001600160a01b039060043582811681036101f2579160243590811681036101f2579060443590565b9181601f840112156101f25782359167ffffffffffffffff83116101f257602083818601950101116101f257565b90600182811c92168015611326575b602083101461131057565b634e487b7160e01b600052602260045260246000fd5b91607f1691611305565b60a0810190811067ffffffffffffffff82111761085757604052565b6020810190811067ffffffffffffffff82111761085757604052565b90601f8019910116810190811067ffffffffffffffff82111761085757604052565b9060405191826000825461139d816112f6565b9081845260209460019160018116908160001461140d57506001146113ce575b5050506113cc92500383611368565b565b600090815285812095935091905b8183106113f55750506113cc93508201013880806113bd565b855488840185015294850194879450918301916113dc565b925050506113cc94925060ff191682840152151560051b8201013880806113bd565b9060406003198301126101f257600435916024359067ffffffffffffffff82116101f25761145f916004016112c8565b9091565b67ffffffffffffffff811161085757601f01601f191660200190565b92919261148b82611463565b916114996040519384611368565b8294818452818301116101f2578281602093846000960137010152565b6001600160a01b039182169290918315610e99576000928284528260209560028752604096848888205416968791331515806115a6575b509060027fddf252ad1be2c89b69c2b068fc378daa952ba7f163c4a11628f55a4df523b3ef9284611573575b858352600381528b8320805460010190558683525289812080546001600160a01b0319168517905580a416928383036115525750505050565b6064945051926364283d7b60e01b8452600484015260248301526044820152fd5b600087815260046020526040902080546001600160a01b0319169055848352600381528b83208054600019019055611519565b919394509150806115fb575b156115c2578592918791386114ed565b8786886115df576024915190637e27328960e01b82526004820152fd5b604491519063177e802f60e01b82523360048301526024820152fd5b503387148015611620575b806115b257508582526004815233858984205416146115b2565b5086825260058152878220338352815260ff8883205416611606565b90601f811161164a57505050565b6000916000526020600020906020601f850160051c83019410611688575b601f0160051c01915b82811061167d57505050565b818155600101611671565b9092508290611668565b90918060409360208452816020850152848401376000828201840152601f01601f1916010190565b801580156116e4575b6116de57600052600960205260ff6004604060002001541690565b50600090565b506008548110156116c3565b6000818152600260205260409020546001600160a01b0316908115611713575090565b60249060405190637e27328960e01b82526004820152fd5b91909160009080825260209160068352604081209085519567ffffffffffffffff8711611852576117668761176085546112f6565b8561163c565b8491601f88116001146117ce57966117b79281927ff8e1a15aba9398e019f0b49df1a4fde98ee17ae345cb5f6b5e2c27f5033e8ce79899926117c35750508160011b916000199060031b1c19161790565b90555b604051908152a1565b015190503880610bef565b9190601f198816848452868420935b81811061183b57509160019391897ff8e1a15aba9398e019f0b49df1a4fde98ee17ae345cb5f6b5e2c27f5033e8ce7999a9410611822575b505050811b0190556117ba565b015160001960f88460031b161c19169055388080611815565b9293876001819287860151815501950193016117dd565b634e487b7160e01b82526041600452602482fd5b6007546001600160a01b0316330361187a57565b60405163118cdaa760e01b8152336004820152602490fd5b90939192833b6118a4575b5050505050565b604051630a85bd0160e11b8082526001600160a01b0393841660048301529583166024820152604481019190915260806064820152949216926020929185906118f1906084830190611227565b039483816000978189895af186918161199c575b50611966575050503d60001461195d573d61191f81611463565b9061192d6040519283611368565b81528093823d92013e5b8251928361195857604051633250574960e11b815260048101849052602490fd5b019050fd5b60609250611937565b919450915063ffffffff60e01b16036119845750388080808061189d565b60249060405190633250574960e11b82526004820152fd5b9091508481813d83116119d9575b6119b48183611368565b810103126119d557516001600160e01b0319811681036119d5579038611905565b8680fd5b503d6119aa56fea26469706673582212204ac3f42c8e1c749f8271b62abc12e1e9b6968c9df7ff3ad7ea3ea674d0136b6064736f6c63430008180033",
  "linkReferences": {},
  "deployedLinkReferences": {}
}