{
  "_format": "hh-sol-artifact-1",
  "contractName": "Marketplace",
  "sourceName": "contracts/Marketplace.sol",
  "abi": [
    {
      "inputs": [
        {
          "internalType": "uint256",
          "name": "feeBps_",
          "type": "uint256"
        },
        {
          "internalType": "address",
          "name": "feeRecipient_",
          "type": "address"
        },
        {
          "internalType": "uint256",
          "name": "modelsLimit_",
          "type": "uint256"
        },
        {
          "internalType": "address",
          "name": "licenseNFTOwner",
          "type": "address"
        }
      ],
      "stateMutability": "nonpayable",
      "type": "constructor"
    },
    {
      "inputs": [],
      "name": "FeeOverCap",
      "type": "error"
    },
    {
      "inputs": [],
      "name": "FeePlusRoyaltyOver100",
      "type": "error"
    },
    {
      "inputs": [],
      "name": "InsufficientFunds",
      "type": "error"
    },
    {
      "inputs": [],
      "name": "InvalidBps",
      "type": "error"
    },
    {
      "inputs": [],
      "name": "InvalidDelivery",
      "type": "error"
    },
    {
      "inputs": [],
      "name": "InvalidDuration",
      "type": "error"
    },
    {
      "inputs": [],
      "name": "InvalidKind",
      "type": "error"
    },
    {
      "inputs": [],
      "name": "InvalidRights",
      "type": "error"
    },
    {
      "inputs": [],
      "name": "InvalidVersion",
      "type": "error"
    },
    {
      "inputs": [],
      "name": "LicenseRevokedError",
      "type": "error"
    },
    {
      "inputs": [],
      "name": "MarketIsPaused",
      "type": "error"
    },
    {
      "inputs": [],
      "name": "ModelsLimitReached",
      "type": "error"
    },
    {
      "inputs": [],
      "name": "NotListed",
      "type": "error"
    },
    {
      "inputs": [],
      "name": "NotOwner",
      "type": "error"
    },
    {
      "inputs": [
        {
          "internalType": "address",
          "name": "owner",
          "type": "address"
        }
      ],
      "name": "OwnableInvalidOwner",
      "type": "error"
    },
    {
      "inputs": [
        {
          "internalType": "address",
          "name": "account",
          "type": "address"
        }
      ],
      "name": "OwnableUnauthorizedAccount",
      "type": "error"
    },
    {
      "inputs": [],
      "name": "PriceNotConfigured",
      "type": "error"
    },
    {
      "inputs": [],
      "name": "PriceTooHigh",
      "type": "error"
    },
    {
      "inputs": [],
      "name": "ReentrancyGuardReentrantCall",
      "type": "error"
    },
    {
      "inputs": [],
      "name": "TransferFailed",
      "type": "error"
    },
    {
      "inputs": [],
      "name": "ZeroAddress",
      "type": "error"
    },
    {
      "anonymous": false,
      "inputs": [
        {
          "indexed": false,
          "internalType": "uint256",
          "name": "licenseId",
          "type": "uint256"
        },
        {
          "indexed": false,
          "internalType": "uint256",
          "name": "modelId",
          "type": "uint256"
        },
        {
          "indexed": false,
          "internalType": "address",
          "name": "buyer",
          "type": "address"
        },
        {
          "indexed": false,
          "internalType": "uint8",
          "name": "kind",
          "type": "uint8"
        },
        {
          "indexed": false,
          "internalType": "uint8",
          "name": "rights",
          "type": "uint8"
        },
        {
          "indexed": false,
          "internalType": "uint64",
          "name": "expiresAt",
          "type": "uint64"
        },
        {
          "indexed": false,
          "internalType": "uint16",
          "name": "version",
          "type": "uint16"
        },
        {
          "indexed": false,
          "internalType": "uint256",
          "name": "pricePaid",
          "type": "uint256"
        },
        {
          "indexed": false,
          "internalType": "uint256",
          "name": "feePaid",
          "type": "uint256"
        },
        {
          "indexed": false,
          "internalType": "uint256",
          "name": "royaltyPaid",
          "type": "uint256"
        }
      ],
      "name": "LicenseMinted",
      "type": "event"
    },
    {
      "anonymous": false,
      "inputs": [
        {
          "indexed": false,
          "internalType": "address",
          "name": "license",
          "type": "address"
        }
      ],
      "name": "LicenseNFTCreated",
      "type": "event"
    },
    {
      "anonymous": false,
      "inputs": [
        {
          "indexed": false,
          "internalType": "uint256",
          "name": "licenseId",
          "type": "uint256"
        },
        {
          "indexed": false,
          "internalType": "uint256",
          "name": "modelId",
          "type": "uint256"
        },
        {
          "indexed": false,
          "internalType": "uint64",
          "name": "newExpiresAt",
          "type": "uint64"
        },
        {
          "indexed": false,
          "internalType": "uint16",
          "name": "months",
          "type": "uint16"
        },
        {
          "indexed": false,
          "internalType": "uint256",
          "name": "pricePaid",
          "type": "uint256"
        },
        {
          "indexed": false,
          "internalType": "uint256",
          "name": "feePaid",
          "type": "uint256"
        },
        {
          "indexed": false,
          "internalType": "uint256",
          "name": "royaltyPaid",
          "type": "uint256"
        }
      ],
      "name": "LicenseRenewed",
      "type": "event"
    },
    {
      "anonymous": false,
      "inputs": [
        {
          "indexed": false,
          "internalType": "uint256",
          "name": "tokenId",
          "type": "uint256"
        },
        {
          "indexed": false,
          "internalType": "uint256",
          "name": "modelId",
          "type": "uint256"
        },
        {
          "indexed": false,
          "internalType": "address",
          "name": "by",
          "type": "address"
        }
      ],
      "name": "LicenseRevoked",
      "type": "event"
    },
    {
      "anonymous": false,
      "inputs": [
        {
          "indexed": false,
          "internalType": "uint256",
          "name": "feeBps",
          "type": "uint256"
        },
        {
          "indexed": false,
          "internalType": "address",
          "name": "feeRecipient",
          "type": "address"
        }
      ],
      "name": "MarketFeesSet",
      "type": "event"
    },
    {
      "anonymous": false,
      "inputs": [
        {
          "indexed": false,
          "internalType": "bool",
          "name": "paused",
          "type": "bool"
        }
      ],
      "name": "MarketPaused",
      "type": "event"
    },
    {
      "anonymous": false,
      "inputs": [
        {
          "indexed": false,
          "internalType": "uint256",
          "name": "id",
          "type": "uint256"
        },
        {
          "indexed": false,
          "internalType": "address",
          "name": "owner",
          "type": "address"
        }
      ],
      "name": "ModelListed",
      "type": "event"
    },
    {
      "anonymous": false,
      "inputs": [
        {
          "indexed": false,
          "internalType": "uint256",
          "name": "id",
          "type": "uint256"
        },
        {
          "indexed": false,
          "internalType": "address",
          "name": "owner",
          "type": "address"
        }
      ],
      "name": "ModelUnlisted",
      "type": "event"
    },
    {
      "anonymous": false,
      "inputs": [
        {
          "indexed": false,
          "internalType": "uint256",
          "name": "id",
          "type": "uint256"
        },
        {
          "indexed": false,
          "internalType": "address",
          "name": "owner",
          "type": "address"
        },
        {
          "indexed": false,
          "internalType": "bool",
          "name": "listed",
          "type": "bool"
        }
      ],
      "name": "ModelUpdated",
      "type": "event"
    },
    {
      "anonymous": false,
      "inputs": [
        {
          "indexed": false,
          "internalType": "uint256",
          "name": "active",
          "type": "uint256"
        }
      ],
      "name": "ModelsCountChanged",
      "type": "event"
    },
    {
      "anonymous": false,
      "inputs": [
        {
          "indexed": false,
          "internalType": "uint256",
          "name": "newLimit",
          "type": "uint256"
        }
      ],
      "name": "ModelsLimitSet",
      "type": "event"
    },
    {
      "anonymous": false,
      "inputs": [
        {
          "indexed": true,
          "internalType": "address",
          "name": "previousOwner",
          "type": "address"
        },
        {
          "indexed": true,
          "internalType": "address",
          "name": "newOwner",
          "type": "address"
        }
      ],
      "name": "OwnershipTransferred",
      "type": "event"
    },
    {
      "inputs": [],
      "name": "KIND_PERPETUAL",
      "outputs": [
        {
          "internalType": "uint8",
          "name": "",
          "type": "uint8"
        }
      ],
      "stateMutability": "view",
      "type": "function"
    },
    {
      "inputs": [],
      "name": "KIND_SUBSCRIPTION",
      "outputs": [
        {
          "internalType": "uint8",
          "name": "",
          "type": "uint8"
        }
      ],
      "stateMutability": "view",
      "type": "function"
    },
    {
      "inputs": [],
      "name": "MAX_BPS",
      "outputs": [
        {
          "internalType": "uint256",
          "name": "",
          "type": "uint256"
        }
      ],
      "stateMutability": "view",
      "type": "function"
    },
    {
      "inputs": [],
      "name": "MAX_FEE_BPS_CAP",
      "outputs": [
        {
          "internalType": "uint256",
          "name": "",
          "type": "uint256"
        }
      ],
      "stateMutability": "view",
      "type": "function"
    },
    {
      "inputs": [],
      "name": "MAX_PRICE_CAP",
      "outputs": [
        {
          "internalType": "uint256",
          "name": "",
          "type": "uint256"
        }
      ],
      "stateMutability": "view",
      "type": "function"
    },
    {
      "inputs": [],
      "name": "RIGHTS_API",
      "outputs": [
        {
          "internalType": "uint8",
          "name": "",
          "type": "uint8"
        }
      ],
      "stateMutability": "view",
      "type": "function"
    },
    {
      "inputs": [],
      "name": "RIGHTS_DOWNLOAD",
      "outputs": [
        {
          "internalType": "uint8",
          "name": "",
          "type": "uint8"
        }
      ],
      "stateMutability": "view",
      "type": "function"
    },
    {
      "inputs": [],
      "name": "activeModels",
      "outputs": [
        {
          "internalType": "uint256",
          "name": "",
          "type": "uint256"
        }
      ],
      "stateMutability": "view",
      "type": "function"
    },
    {
      "inputs": [
        {
          "internalType": "uint256",
          "name": "modelId",
          "type": "uint256"
        },
        {
          "internalType": "uint8",
          "name": "licenseKind",
          "type": "uint8"
        },
        {
          "internalType": "uint16",
          "name": "months",
          "type": "uint16"
        },
        {
          "internalType": "bool",
          "name": "transferable",
          "type": "bool"
        }
      ],
      "name": "buyLicense",
      "outputs": [],
      "stateMutability": "payable",
      "type": "function"
    },
    {
      "inputs": [
        {
          "internalType": "uint256",
          "name": "modelId",
          "type": "uint256"
        },
        {
          "internalType": "uint8",
          "name": "licenseKind",
          "type": "uint8"
        },
        {
          "internalType": "uint16",
          "name": "months",
          "type": "uint16"
        },
        {
          "internalType": "bool",
          "name": "transferable",
          "type": "bool"
        },
        {
          "internalType": "string",
          "name": "tokenUri",
          "type": "string"
        }
      ],
      "name": "buyLicenseWithURI",
      "outputs": [],
      "stateMutability": "payable",
      "type": "function"
    },
    {
      "inputs": [
        {
          "internalType": "address",
          "name": "",
          "type": "address"
        },
        {
          "internalType": "bytes32",
          "name": "",
          "type": "bytes32"
        }
      ],
      "name": "families",
      "outputs": [
        {
          "internalType": "uint256",
          "name": "latestId",
          "type": "uint256"
        },
        {
          "internalType": "uint16",
          "name": "latestVersion",
          "type": "uint16"
        }
      ],
      "stateMutability": "view",
      "type": "function"
    },
    {
      "inputs": [],
      "name": "feeBps",
      "outputs": [
        {
          "internalType": "uint256",
          "name": "",
          "type": "uint256"
        }
      ],
      "stateMutability": "view",
      "type": "function"
    },
    {
      "inputs": [],
      "name": "feeRecipient",
      "outputs": [
        {
          "internalType": "address",
          "name": "",
          "type": "address"
        }
      ],
      "stateMutability": "view",
      "type": "function"
    },
    {
      "inputs": [],
      "name": "lastLicenseId",
      "outputs": [
        {
          "internalType": "uint256",
          "name": "",
          "type": "uint256"
        }
      ],
      "stateMutability": "view",
      "type": "function"
    },
    {
      "inputs": [],
      "name": "licenseNFT",
      "outputs": [
        {
          "internalType": "contract LicenseNFT",
          "name": "",
          "type": "address"
        }
      ],
      "stateMutability": "view",
      "type": "function"
    },
    {
      "inputs": [],
      "name": "licenseNFTAddress",
      "outputs": [
        {
          "internalType": "address",
          "name": "",
          "type": "address"
        }
      ],
      "stateMutability": "view",
      "type": "function"
    },
    {
      "inputs": [
        {
          "internalType": "uint256",
          "name": "tokenId",
          "type": "uint256"
        }
      ],
      "name": "licenseStatus",
      "outputs": [
        {
          "internalType": "bool",
          "name": "revoked_",
          "type": "bool"
        },
        {
          "internalType": "bool",
          "name": "validApi",
          "type": "bool"
        },
        {
          "internalType": "bool",
          "name": "validDownload",
          "type": "bool"
        },
        {
          "internalType": "uint8",
          "name": "kind",
          "type": "uint8"
        },
        {
          "internalType": "uint64",
          "name": "expiresAt",
          "type": "uint64"
        },
        {
          "internalType": "address",
          "name": "owner",
          "type": "address"
        }
      ],
      "stateMutability": "view",
      "type": "function"
    },
    {
      "inputs": [
        {
          "internalType": "string",
          "name": "slug",
          "type": "string"
        },
        {
          "internalType": "string",
          "name": "name",
          "type": "string"
        },
        {
          "internalType": "string",
          "name": "uri",
          "type": "string"
        },
        {
          "internalType": "uint256",
          "name": "royaltyBps_",
          "type": "uint256"
        },
        {
          "internalType": "uint256",
          "name": "pricePerpetual",
          "type": "uint256"
        },
        {
          "internalType": "uint256",
          "name": "priceSubscription",
          "type": "uint256"
        },
        {
          "internalType": "uint256",
          "name": "defaultDurationDays",
          "type": "uint256"
        },
        {
          "internalType": "uint8",
          "name": "deliveryRightsDefault",
          "type": "uint8"
        },
        {
          "internalType": "uint8",
          "name": "deliveryModeHint",
          "type": "uint8"
        },
        {
          "internalType": "bytes32",
          "name": "termsHash",
          "type": "bytes32"
        }
      ],
      "name": "listOrUpgrade",
      "outputs": [],
      "stateMutability": "nonpayable",
      "type": "function"
    },
    {
      "inputs": [
        {
          "internalType": "uint256",
          "name": "",
          "type": "uint256"
        }
      ],
      "name": "models",
      "outputs": [
        {
          "internalType": "address",
          "name": "owner",
          "type": "address"
        },
        {
          "internalType": "address",
          "name": "creator",
          "type": "address"
        },
        {
          "internalType": "string",
          "name": "name",
          "type": "string"
        },
        {
          "internalType": "string",
          "name": "uri",
          "type": "string"
        },
        {
          "internalType": "uint256",
          "name": "royaltyBps",
          "type": "uint256"
        },
        {
          "internalType": "bool",
          "name": "listed",
          "type": "bool"
        },
        {
          "internalType": "uint256",
          "name": "pricePerpetual",
          "type": "uint256"
        },
        {
          "internalType": "uint256",
          "name": "priceSubscription",
          "type": "uint256"
        },
        {
          "internalType": "uint256",
          "name": "defaultDurationDays",
          "type": "uint256"
        },
        {
          "internalType": "uint8",
          "name": "deliveryRightsDefault",
          "type": "uint8"
        },
        {
          "internalType": "uint8",
          "name": "deliveryModeHint",
          "type": "uint8"
        },
        {
          "internalType": "uint16",
          "name": "version",
          "type": "uint16"
        },
        {
          "internalType": "bytes32",
          "name": "termsHash",
          "type": "bytes32"
        }
      ],
      "stateMutability": "view",
      "type": "function"
    },
    {
      "inputs": [],
      "name": "modelsLimit",
      "outputs": [
        {
          "internalType": "uint256",
          "name": "",
          "type": "uint256"
        }
      ],
      "stateMutability": "view",
      "type": "function"
    },
    {
      "inputs": [],
      "name": "nextId",
      "outputs": [
        {
          "internalType": "uint256",
          "name": "",
          "type": "uint256"
        }
      ],
      "stateMutability": "view",
      "type": "function"
    },
    {
      "inputs": [],
      "name": "owner",
      "outputs": [
        {
          "internalType": "address",
          "name": "",
          "type": "address"
        }
      ],
      "stateMutability": "view",
      "type": "function"
    },
    {
      "inputs": [],
      "name": "paused",
      "outputs": [
        {
          "internalType": "bool",
          "name": "",
          "type": "bool"
        }
      ],
      "stateMutability": "view",
      "type": "function"
    },
    {
      "inputs": [
        {
          "internalType": "uint256",
          "name": "tokenId",
          "type": "uint256"
        },
        {
          "internalType": "uint16",
          "name": "months",
          "type": "uint16"
        }
      ],
      "name": "renewLicense",
      "outputs": [],
      "stateMutability": "payable",
      "type": "function"
    },
    {
      "inputs": [],
      "name": "renounceOwnership",
      "outputs": [],
      "stateMutability": "nonpayable",
      "type": "function"
    },
    {
      "inputs": [
        {
          "internalType": "uint256",
          "name": "tokenId",
          "type": "uint256"
        }
      ],
      "name": "revokeByAdmin",
      "outputs": [],
      "stateMutability": "nonpayable",
      "type": "function"
    },
    {
      "inputs": [
        {
          "internalType": "uint256",
          "name": "tokenId",
          "type": "uint256"
        }
      ],
      "name": "revokeByModelOwner",
      "outputs": [],
      "stateMutability": "nonpayable",
      "type": "function"
    },
    {
      "inputs": [
        {
          "internalType": "uint256",
          "name": "",
          "type": "uint256"
        }
      ],
      "name": "revoked",
      "outputs": [
        {
          "internalType": "bool",
          "name": "",
          "type": "bool"
        }
      ],
      "stateMutability": "view",
      "type": "function"
    },
    {
      "inputs": [
        {
          "internalType": "uint256",
          "name": "newFeeBps",
          "type": "uint256"
        },
        {
          "internalType": "address",
          "name": "newRecipient",
          "type": "address"
        }
      ],
      "name": "setFees",
      "outputs": [],
      "stateMutability": "nonpayable",
      "type": "function"
    },
    {
      "inputs": [
        {
          "internalType": "uint256",
          "name": "modelId",
          "type": "uint256"
        },
        {
          "internalType": "uint256",
          "name": "pricePerpetual",
          "type": "uint256"
        },
        {
          "internalType": "uint256",
          "name": "priceSubscription",
          "type": "uint256"
        },
        {
          "internalType": "uint256",
          "name": "defaultDurationDays",
          "type": "uint256"
        },
        {
          "internalType": "uint8",
          "name": "deliveryRightsDefault",
          "type": "uint8"
        },
        {
          "internalType": "uint8",
          "name": "deliveryModeHint",
          "type": "uint8"
        },
        {
          "internalType": "bytes32",
          "name": "termsHash",
          "type": "bytes32"
        }
      ],
      "name": "setLicensingParams",
      "outputs": [],
      "stateMutability": "nonpayable",
      "type": "function"
    },
    {
      "inputs": [
        {
          "internalType": "uint256",
          "name": "modelId",
          "type": "uint256"
        },
        {
          "internalType": "bool",
          "name": "listed",
          "type": "bool"
        }
      ],
      "name": "setListed",
      "outputs": [],
      "stateMutability": "nonpayable",
      "type": "function"
    },
    {
      "inputs": [
        {
          "internalType": "uint256",
          "name": "lim",
          "type": "uint256"
        }
      ],
      "name": "setModelsLimit",
      "outputs": [],
      "stateMutability": "nonpayable",
      "type": "function"
    },
    {
      "inputs": [
        {
          "internalType": "bool",
          "name": "p",
          "type": "bool"
        }
      ],
      "name": "setPaused",
      "outputs": [],
      "stateMutability": "nonpayable",
      "type": "function"
    },
    {
      "inputs": [
        {
          "internalType": "address",
          "name": "to",
          "type": "address"
        },
        {
          "internalType": "uint256",
          "name": "amount",
          "type": "uint256"
        }
      ],
      "name": "sweep",
      "outputs": [],
      "stateMutability": "nonpayable",
      "type": "function"
    },
    {
      "inputs": [
        {
          "internalType": "address",
          "name": "newOwner",
          "type": "address"
        }
      ],
      "name": "transferOwnership",
      "outputs": [],
      "stateMutability": "nonpayable",
      "type": "function"
    },
    {
      "stateMutability": "payable",
      "type": "receive"
    }
  ],
  "bytecode": "0x60a0346200026457601f620048bc38819003918201601f19168301926001600160401b0392909183851183861017620002695781608092849260409788528339810103126200026457805162000058602083016200027f565b926200006b60608685015194016200027f565b9233156200024c57600080546001600160a01b031980821633908117845589516001600160a01b039994979492939091908a167f8be0079c531659141344cd1fd0a4f28419497f9722a3daafe3b4186f6b6457e08980a360018055600160025561271084116200023d57506107d083116200022c5787169182156200021b576004556005541617600555600755845161215c80820190828210848311176200020757602091839162002740833930815203019083f08015620001f9578085916080521692833b1562000203578460248492838951978894859363f2fde38b60e01b85521660048401525af18015620001f957620001c2575b846000805160206200489c833981519152602086608051168351908152a1516124ab908162000295823960805181818161044b01528181610505015281816108ba01528181610b3701528181610e880152818161111901526113d30152f35b8211620001e55750825260206000805160206200489c8339815191523862000163565b634e487b7160e01b81526041600452602490fd5b85513d84823e3d90fd5b8280fd5b634e487b7160e01b85526041600452602485fd5b885163d92e233d60e01b8152600490fd5b885163c1bd884560e01b8152600490fd5b63c6cc5d7f60e01b8152600490fd5b8551631e4fbdf760e01b815260006004820152602490fd5b600080fd5b634e487b7160e01b600052604160045260246000fd5b51906001600160a01b0382168203620002645756fe608080604052600436101561001d575b50361561001b57600080fd5b005b60009060e08235811c9182630135adcd14611c585750816316c38b3c14611bea578163227dc4c414611bcc57816323ea1f5f14610caf57816324a9d85314611bae5781632d88c2111461154957816337c738651461139b5781633d162cdc146112d157816346453f281461127f57816346904840146112565781634b746cd114610f845781635c975abb14610f5e57816361b8ce8c14610f40578163636d587014610e4f5781636a030ca914610d585781636ea056a914610d2a578163715018a614610cd057816375bb91b214610cb45781637d53deff14610caf57816381cd743914610c9257816388daf7f4146109ec5781638da5cb5b146109c5578163acb27c68146109a9578163c384373a1461098b578163c3c2265f1461087f578163c8aa67b314610861578163d2d5ec4d14610813578163d402e464146104a957508063d5b141e71461047a578063da68d47d14610435578063e0a3dd9614610435578063f09449ba1461027d578063f2fde38b146101ed578063f5b96972146101c85763fd967f470361000f57346101c557806003193601126101c55760206040516127108152f35b80fd5b50346101c557806003193601126101c557602060405169152d02c7e14af68000008152f35b50346101c55760203660031901126101c557610207611e4a565b61020f61229d565b6001600160a01b0390811690811561026457600054826bffffffffffffffffffffffff60a01b821617600055167f8be0079c531659141344cd1fd0a4f28419497f9722a3daafe3b4186f6b6457e0600080a380f35b604051631e4fbdf760e01b815260048101849052602490fd5b50346101c55760403660031901126101c5576024358015801591600435908381036104305760ff60055460a01c1661041e57818552600860205260408520805490936001600160a01b0392909183169033820361040c5760058601805460ff98891660ff19821617909155604080518781526001600160a01b039490941660208501529115159183019190915295909516947fa417ee948a5c9d2786613a25b5c7344175c18ea547f629c63f7de4ceaacb909890606090a1156103d35791546040805192835292166001600160a01b031660208201527fc3090e5fbc3f92a65283d58dece4ae699cc0ca8e124dbc474240bb1aed0b77e79190a1806103c8575b610385575b80f35b60065460001981019081116103b45760208160008051602061243683398151915292600655604051908152a180f35b634e487b7160e01b82526011600452602482fd5b50600654151561037d565b505050156103de5780f35b600654600181018091116103b45760208160008051602061243683398151915292600655604051908152a180f35b6040516330cd747160e01b8152600490fd5b60405163741df93960e01b8152600490fd5b600080fd5b50346101c557806003193601126101c5576040517f00000000000000000000000000000000000000000000000000000000000000006001600160a01b03168152602090f35b50346101c55760203660031901126101c55760ff60406020926004358152600a84522054166040519015158152f35b8260403660031901126101c55760043591602492833561ffff811680910361080f5760ff60055460a01c1661041e576104e061230a565b80156107fd5760405163596e890960e11b815260048101839052906001600160a01b037f000000000000000000000000000000000000000000000000000000000000000081169185848981865afa9384156107f25787946107c3575b506040516331a9108f60e11b8152600481018690526020939084818b81855afa9081156107b857899161078b575b50833391160361040c57600160ff85870151160361077957858852600a845260ff6040892054166107675784518852600884526040882093600454936105b5600487015480966122e5565b6007860154801561075557846105ca916120fb565b9469152d02c7e14af680000086116107435785340361073157816105f99260018901541690885416918761237f565b509690956001600160401b0390816060840151168642821160001461072157600861062792935b01546120fb565b90620151809182810292818404149015171561070e5782918261064a9216612033565b1693803b1561070a57908b8d60448c8389966040519788958694633f97add560e21b865260048601528401525af180156106ff576106d5575b50507fffa941bdd74336abc13129ba18ac9721bf531ff9f07161484dfb56f1f28dd5be999a50519060405197885287015260408601526060850152608084015260a083015260c0820152a16001805580f35b819b929b116106ec57604052989950898b80610683565b634e487b7160e01b825260416004528b82fd5b6040513d8e823e3d90fd5b8b80fd5b634e487b7160e01b8d5260116004528d8dfd5b6106279150600884421693610620565b60405163356680b760e01b8152600490fd5b60405163127f08c960e11b8152600490fd5b604051631140cf7f60e01b8152600490fd5b604051633806084560e11b8152600490fd5b6040516302b79ed360e41b8152600490fd5b6107ab9150853d87116107b1575b6107a38183611edc565b8101906120dc565b8a61056a565b503d610799565b6040513d8b823e3d90fd5b6107e4919450863d88116107eb575b6107dc8183611edc565b81019061204e565b928861053c565b503d6107d2565b6040513d89823e3d90fd5b604051637616640160e01b8152600490fd5b8380fd5b82346101c55760203660031901126101c5577f3a266fd63d408074525facb4c91054de12d4e7bf0cad93604b63ef604f96e7fc602060043561085361229d565b80600755604051908152a180f35b82346101c557806003193601126101c5576020600654604051908152f35b9050346109875760203660031901126109875760405163596e890960e11b815260048035908201819052906001600160a01b039083816024817f000000000000000000000000000000000000000000000000000000000000000086165afa93841561097c57859461095d575b5050825184526008602052604084205416330361040c57808352600a60209081526040808520805460ff19166001179055925183519283529082015233918101919091527fa0fdfae94a7f0d72d671fdddac883ffa712b07cfc84408bfb3ced264d1fc58f19080606081015b0390a180f35b610974929450803d106107eb576107dc8183611edc565b9138806108eb565b6040513d87823e3d90fd5b5080fd5b82346101c557806003193601126101c5576020600354604051908152f35b82346101c557806003193601126101c557602060405160028152f35b82346101c557806003193601126101c557546040516001600160a01b039091168152602090f35b8260803660031901126101c557600435610a04611de2565b610a0c611e60565b610a14611df2565b60ff918260055460a01c1661041e57610a2b61230a565b848652600860205260408620918360058401541615610c805760045494610a57600485015480976122e5565b6009840191610a76868454610a6d8282166121c5565b60081c1661220b565b610a8184838761232d565b928334036107315788610aa760018060a01b03998a60018a0154168b8a5416918861237f565b509790968c948a8088169260018414610c09575b50610b3593610104936020969361ffff93600a8a549401549260405196610ae188611eab565b875289870152831660408601526001600160401b038a1660608601521515608085015260a084015260101c1660c08201528d6040519c8d94859363424d8dbf60e11b8552336004860152602485019061210e565b7f0000000000000000000000000000000000000000000000000000000000000000165af1978815610bfe578a98610baa575b509060008051602061245683398151915298610ba09695949392896003555492604051998a9961ffff8660101c1695169233918b612164565b0390a16001805580f35b95949392919097506020863d602011610bf6575b81610bcb60209383611edc565b81010312610bf2579451969394929391929091600080516020612456833981519152610b67565b8980fd5b3d9150610bbe565b6040513d8c823e3d90fd5b919395965050610c2591935061ffff60088601549116906120fb565b6201518090818102918183041490151715610c6c578b61ffff8b9695602095610b35956001600160401b03610c5d6101049742612033565b16999350939650935093610abb565b634e487b7160e01b8d52601160045260248dfd5b60405163665c1c5760e01b8152600490fd5b82346101c557806003193601126101c55760206040516107d08152f35b611e01565b82346101c557806003193601126101c557602090604051908152f35b82346101c557806003193601126101c557610ce961229d565b80546001600160a01b03198116825581906001600160a01b03167f8be0079c531659141344cd1fd0a4f28419497f9722a3daafe3b4186f6b6457e08280a380f35b82346101c55760403660031901126101c557610382610d47611e4a565b610d4f61229d565b602435906123d0565b82346101c55760203660031901126101c5576004358152600860205260409020805460018201546001600160a01b039182169391169161ffff610d9d60028301611efd565b91610daa60038201611efd565b60048201549460ff600584015416906006840154600785015492610e09600887015495610dfb600a60098a01549901549a6040519e8f9e8f906101a092825260208201528160408201520190611fa2565b8c810360608e015290611fa2565b9860808b0152151560a08a015260c089015287015261010086015260ff811661012086015260ff8160081c1661014086015260101c166101608401526101808301520390f35b90503461098757602036600319011261098757600435610e6d61229d565b60405163596e890960e11b81526004810182905282816024817f00000000000000000000000000000000000000000000000000000000000000006001600160a01b03165afa908115610f35577fa0fdfae94a7f0d72d671fdddac883ffa712b07cfc84408bfb3ced264d1fc58f1938592610f18575b5050818452600a60209081526040808620805460ff19166001179055915182519384529083015233908201528060608101610957565b610f2e9250803d106107eb576107dc8183611edc565b3880610ee2565b6040513d86823e3d90fd5b82346101c557806003193601126101c5576020600254604051908152f35b82346101c557806003193601126101c557602060ff60055460a01c166040519015158152f35b8260a03660031901126101c557610f99611de2565b610fa1611e60565b90610faa611df2565b906084356001600160401b03811161125257610fca903690600401611e1d565b9260ff60055460a01c1661041e57610fe061230a565b600435865260086020526040862060ff60058201541615610c80576004549061100e600482015480936122e5565b61102360ff6009830154610a6d8282166121c5565b61102e87868361232d565b918234036107315760018201548254611057926001600160a01b0391821692909116908561237f565b509490938998600160ff8916146111ea575b506020918761ffff6110e9938c6009880154916001600160401b03600a8a01549260ff6040519761109989611eab565b6004358952168a88015260ff851660408801521660608601521515608085015260a084015260101c1660c0820152604051998a93849263b03fbfbb60e01b8452336004850152602484019061210e565b6101206101048301528061012483015280610144938484013781810183018d9052601f01601f191681010301818b7f00000000000000000000000000000000000000000000000000000000000000006001600160a01b03165af19586156111df578896611191575b5090600080516020612456833981519152966009610ba09594938860035501549060405197889760ff61ffff8560101c169416913390600435908b612164565b9392919095506020843d6020116111d7575b816111b060209383611edc565b810103126111d35792519491929091600080516020612456833981519152611151565b8780fd5b3d91506111a3565b6040513d8a823e3d90fd5b61120091995061ffff60088501549116906120fb565b6201518090808281020482148115171561123e57918761ffff6001600160401b036112326110e9956020970242612033565b169b9350505091611069565b634e487b7160e01b8b52601160045260248bfd5b8480fd5b82346101c557806003193601126101c5576005546040516001600160a01b039091168152602090f35b82346101c55760403660031901126101c55760409081906001600160a01b036112a6611e4a565b168152600960205281812060243582526020522061ffff600182549201541682519182526020820152f35b82346101c55760403660031901126101c5576024356001600160a01b0381169060043582820361080f5761130361229d565b61130c816122c9565b6107d08111611389578215611377576004819055600580546001600160a01b031916909317909255604080519283526001600160a01b0390911660208301527fc5732485634831b5e1b586e2011c5f2b392fe136310c230cf1f04d6caf30c15a919081908101610957565b60405163d92e233d60e01b8152600490fd5b60405163c1bd884560e01b8152600490fd5b90503461098757602090816003193601126115455760405163596e890960e11b815260048035908201819052926001600160a01b03927f00000000000000000000000000000000000000000000000000000000000000008416929091908281602481875afa9283156107f2578793611526575b5050848652600a81528060ff604088205416956024604051809681936331a9108f60e11b835260048301525afa92831561151b579560c09681946114fc575b5060ff8284015116916001600160401b0360608501511693876000146114975750815b604051971515885215159087015215156040860152606085015260808401521660a0820152f35b8315925082156114f2575b6040015160ff169180806114de575b92816114bf575b5091611470565b60028114915081156114d3575b50386114b8565b6003915014386114cc565b5060018314806114b15750600383146114b1565b42851192506114a2565b611514919450823d84116107b1576107a38183611edc565b923861144d565b6040513d88823e3d90fd5b61153d929350803d106107eb576107dc8183611edc565b90388061140e565b8280fd5b82346101c5576101403660031901126101c5576004356001600160401b0381116109875761157b903690600401611e1d565b906024356001600160401b03811161080f5761159b903690600401611e1d565b926044356001600160401b038111611baa576115bb903690600401611e1d565b91909360ff60e4351660e43503611ba65760ff61010435166101043503611ba65760ff60055460a01c1661041e576115f46064356122c9565b6116026064356004546122e5565b61160d60e4356121c5565b6116196101043561220b565b61162a60c43560a435608435612251565b866116348361200b565b916116426040519384611edc565b838352602083019336818301116115455780602092863783010152519020338652600960205260408620908652602052604085209261ffff8060018601541614611b9457835480611ab2575b506007548015159081611aa5575b50611a9357600254946000198614611a7f5760018601600255858752600860205260408720936bffffffffffffffffffffffff60a01b3381875416178655600186019033908254161790556001600160401b038211611a6b5781906117046002870154611e71565b601f8111611a1b575b508890601f83116001146119af5789926119a4575b50508160011b916000199060031b1c19161760028401555b6001600160401b038211611990576117556003840154611e71565b601f811161194c575b508590601f83116001146118da5791806001949261ffff9489926118cf575b505081851b916000199060031b1c19161760038201555b606435600482015560058101805460ff191684179055608435600682015560a435600782015560c43560088083019190915560098201805461ffff191660e43560ff16176101043590921b61ff0016919091178155908454156118b05761181c611802848688015416611fe2565b835463ffff00001916601082901b63ffff00001617909355565b600a610124359101558484551661ffff198284015416179101556006546001810180911161189c577f0da0a1595d5f9a5872904ca8eceb17d6befc55070d4fd387e4c2f1d4553dd01a9160008051602061243683398151915260208361095794600655604051908152a16040805191825233602083015290918291820190565b634e487b7160e01b83526011600452602483fd5b815463ffff00001916601085901b63ffff00001617909155829061181c565b01359050888061177d565b6003840187526020872091875b601f198516811061193457509260019492859261ffff9583601f1981161061191a575b505050811b016003820155611794565b0135600019600384901b60f8161c1916905588808061190a565b909260206001819286860135815501940191016118e7565b60038401875260208720601f840160051c810160208510611989575b601f830160051c8201811061197e57505061175e565b888155600101611968565b5080611968565b634e487b7160e01b86526041600452602486fd5b013590508880611722565b600287018a5260208a208a9450915b601f1984168510611a03576001945083601f198116106119e9575b505050811b01600284015561173a565b0135600019600384901b60f8161c191690558880806119d9565b818101358355602094850194600190930192016119be565b90915060028601895260208920601f840160051c810160208510611a64575b90849392915b601f830160051c82018110611a5657505061170d565b8b8155859450600101611a40565b5080611a3a565b634e487b7160e01b88526041600452602488fd5b634e487b7160e01b87526011600452602487fd5b604051635703766960e01b8152600490fd5b905060065410158761169c565b865260086020526040862060058101805460ff8116611ad3575b505061168e565b60ff1916905560065480611b29575b5084549054604080519283526001600160a01b0390911660208301527fc3090e5fbc3f92a65283d58dece4ae699cc0ca8e124dbc474240bb1aed0b77e791a1868080611acc565b80600019810111611b80576000190160068190556040519081527fc3090e5fbc3f92a65283d58dece4ae699cc0ca8e124dbc474240bb1aed0b77e7919060008051602061243683398151915290602090a190611ae2565b634e487b7160e01b88526011600452602488fd5b60405163a9146eeb60e01b8152600490fd5b8680fd5b8580fd5b82346101c557806003193601126101c5576020600454604051908152f35b82346101c557806003193601126101c5576020600754604051908152f35b82346101c55760203660031901126101c5576004358015158091036109875760207fb11504260ecfcffb6ebdeb716f8ea67351cd54f23af3d6bbec03c41e93b86c4591611c3561229d565b6005805460ff60a01b191660a083901b60ff60a01b16179055604051908152a180f35b91503461154557366003190112610987576004356024359060443591606435936084359060ff8216958683036111d35760a4359160ff83168303611dde5760ff60055460a01c16611dcf5750848852600860205260408820805490966001600160a01b039590918616330361040c57611cd3611d1b956121c5565b611cdc8461220b565b611ce7838383612251565b600688015560078701556008860155600985019560ff19875416178655859061ff0082549160081b169061ff001916179055565b61ffff80855460101c16908114611b94577fa417ee948a5c9d2786613a25b5c7344175c18ea547f629c63f7de4ceaacb9098946109579260ff92600592611d84918015611dbc57611d6b90611fe2565b63ffff000082549160101b169063ffff00001916179055565b60c435600a8701558554169401541660405193849384919260409194936060840195845260018060a01b031660208401521515910152565b50805463ffff0000191662010000179055565b63741df93960e01b8152600490fd5b8880fd5b6024359060ff8216820361043057565b60643590811515820361043057565b3461043057600036600319011261043057602060405160018152f35b9181601f84011215610430578235916001600160401b038311610430576020838186019501011161043057565b600435906001600160a01b038216820361043057565b6044359061ffff8216820361043057565b90600182811c92168015611ea1575b6020831014611e8b57565b634e487b7160e01b600052602260045260246000fd5b91607f1691611e80565b60e081019081106001600160401b03821117611ec657604052565b634e487b7160e01b600052604160045260246000fd5b90601f801991011681019081106001600160401b03821117611ec657604052565b90604051918260008254611f1081611e71565b90818452602094600191600181169081600014611f805750600114611f41575b505050611f3f92500383611edc565b565b600090815285812095935091905b818310611f68575050611f3f9350820101388080611f30565b85548884018501529485019487945091830191611f4f565b92505050611f3f94925060ff191682840152151560051b820101388080611f30565b919082519283825260005b848110611fce575050826000602080949584010152601f8019910116010190565b602081830181015184830182015201611fad565b90600161ffff80931601918211611ff557565b634e487b7160e01b600052601160045260246000fd5b6001600160401b038111611ec657601f01601f191660200190565b91908203918211611ff557565b91908201809211611ff557565b519060ff8216820361043057565b908160e0910312610430576040519061206682611eab565b8051825261207660208201612040565b602083015261208760408201612040565b604083015260608101516001600160401b038116810361043057606083015260808101519081151582036104305760c091608084015260a081015160a0840152015161ffff811681036104305760c082015290565b9081602091031261043057516001600160a01b03811681036104305790565b81810292918115918404141715611ff557565b61ffff60c080928051855260ff602082015116602086015260ff60408201511660408601526001600160401b03606082015116606086015260808101511515608086015260a081015160a0860152015116910152565b979593919a9998969492909a61014089019b89526020890152600160a01b6001900316604088015260ff16606087015260ff1660808601526001600160401b031660a085015261ffff1660c084015260e08301526101008201526101200152565b60ff1660018114908115612200575b81156121f5575b50156121e357565b604051630eb911d560e01b8152600490fd5b6003915014386121db565b6002811491506121d4565b60ff1660018114908115612246575b811561223b575b501561222957565b604051632abf7d0d60e21b8152600490fd5b600391501438612221565b60028114915061221a565b801580612295575b6107555769152d02c7e14af680000080911190811561228b575b5061074357612282576107fd57565b6001116107fd57565b9050811138612273565b508115612259565b6000546001600160a01b031633036122b157565b60405163118cdaa760e01b8152336004820152602490fd5b612710106122d357565b60405163c6cc5d7f60e01b8152600490fd5b612710916122f291612033565b116122f957565b60405162c9a16b60e31b8152600490fd5b60026001541461231b576002600155565b604051633ee5aeb560e01b8152600490fd5b9060ff1680612346575060069150015480156107555790565b60010361077957600701549081156107555761ffff1680156107fd5761236b916120fb565b69152d02c7e14af680000081116107435790565b6123ad9491926123b8946123d06123bd611f3f94612710806123a3600454846120fb565b049a8b99836120fb565b049889988992612026565b612026565b9586936123d08a60018060a01b03600554165b8115612431576000918291829182916001600160a01b03165af13d1561242c573d6123fa8161200b565b906124086040519283611edc565b8152600060203d92013e5b1561241a57565b6040516312171d8360e31b8152600490fd5b612413565b505056fe00a17e39748f90dcc231579b95804358753dc835acd3f3972717efc03a8b551183a9edc2809eed4960fd3ccb7da06a85b3e878e6e1568e8ca281ae543adcc493a2646970667358221220f828969272d5445326a07abde8976f81b8125e8ee18de40926364ab734b9f63664736f6c63430008180033608034620003d557601f906001600160401b0390601f19906200215c388190038581018416830185811184821017620003bf57839282916040528339602092839181010312620003d557516001600160a01b03948582169491859003620003d5576200006a620003da565b92601584527f4d61726b6574706c6163654149204c6963656e73650000000000000000000000818501526200009e620003da565b9060078252664d5041494c494360c81b81830152845195848711620003bf576000968754966001978881811c91168015620003b4575b85821014620003a0579081878493116200034d575b508490878311600114620002ec578a92620002e0575b5050600019600383901b1c191690871b1787555b8251948511620002cc5785548681811c91168015620002c1575b83821014620002ad5790818587969594931162000254575b5081938511600114620001ef5750508592620001e3575b5050600019600383901b1c191690821b1790555b3315620001cb5760065460018060a01b03199133838316176006557f8be0079c531659141344cd1fd0a4f28419497f9722a3daafe3b4186f6b6457e0604051953393169180a36007541617600755611d619081620003fb8239f35b60249060405190631e4fbdf760e01b82526004820152fd5b0151905038806200015c565b869593929193168588528388209388905b8282106200023a575050841162000220575b505050811b01905562000170565b015160001960f88460031b161c1916905538808062000212565b848401518655889790950194938401939081019062000200565b9091929394508688528288208580880160051c820192858910620002a3575b9188978a9297969594930160051c01915b8281106200029457505062000145565b8a815588975089910162000284565b9250819262000273565b634e487b7160e01b88526022600452602488fd5b90607f16906200012d565b634e487b7160e01b87526041600452602487fd5b015190503880620000ff565b90848a9416918b8052868c20928c5b888282106200033657505084116200031c575b505050811b01875562000113565b015160001960f88460031b161c191690553880806200030e565b8385015186558d97909501949384019301620002fb565b909150898052848a208780850160051c82019287861062000396575b918b91869594930160051c01915b82811062000387575050620000e9565b8c81558594508b910162000377565b9250819262000369565b634e487b7160e01b8a52602260045260248afd5b90607f1690620000d4565b634e487b7160e01b600052604160045260246000fd5b600080fd5b60408051919082016001600160401b03811183821017620003bf5760405256fe6080604081815260048036101561001557600080fd5b600092833560e01c90816301ffc9a71461100f5750806306fdde0314610f5e578063081812fc14610f23578063095ea7b314610e47578063162094c414610cc557806318160ddd14610ca657806323b872dd14610c8e57806342842e0e14610c5f57806355f804b314610ad85780636352211e14610aa757806370a0823114610a52578063715018a6146109f557806373ad6c2d146109b5578063849b1b7e146108b25780638da5cb5b1461088957806395d89b411461079e578063a22cb465146106fd578063abc8c7af146106d4578063b03fbfbb14610482578063b2dd121214610371578063b88d4fde146102e0578063c87b56dd146102a5578063e985e9c514610253578063f2fde38b146101c95763fe5eb7541461013657600080fd5b346101c557816003193601126101c55735602435906001600160401b03821682036101c1576101be9260019161018e838060a01b0361017a816007541633146112a1565b8288526002602052838820541615156112e0565b855260096020528420019069ffffffffffffffff000082549160101b169069ffffffffffffffff00001916179055565b80f35b8380fd5b8280fd5b50346101c55760203660031901126101c5576101e36110c3565b906101ec61191f565b6001600160a01b0391821692831561023d575050600654826001600160601b0360a01b821617600655167f8be0079c531659141344cd1fd0a4f28419497f9722a3daafe3b4186f6b6457e08380a380f35b51631e4fbdf760e01b8152908101849052602490fd5b5050346102a157806003193601126102a15760ff816020936102736110c3565b61027b6110de565b6001600160a01b0391821683526005875283832091168252855220549151911615158152f35b5080fd5b5091346102dd5760203660031901126102dd57506102c66102d99235611544565b905191829160208352602083019061109e565b0390f35b80fd5b5090346101c55760803660031901126101c5576102fb6110c3565b6103036110de565b6044359185606435956001600160401b0387116102a157366023880112156102a1578601359561033e6103358861124c565b965196876111a2565b86865236602488830101116102a157866101be97602460209301838901378601015261036b838383611319565b33611bdd565b5090346101c557602091826003193601126101c157908060e094600393358160c0845161039d81611156565b828152828982015282868201528260608201528260808201528260a08201520152808252600286526103db60018060a01b03848420541615156112e0565b815260098552208151916103ee83611156565b8154948584526001830154918185019060ff8416825260ff818701818660081c1681526001600160401b03948260608a0195878960101c1687528160808c019960501c161515895260c060028b01549a60a08d019b8c5261ffff9d8e910154169b019a8b5285519c8d525116908b01525116908801525116606086015251151560808501525160a0840152511660c0820152f35b5090346101c5576101203660031901126101c55761049e6110c3565b926104a8366111c3565b6001600160401b0391610104358381116102a1576104c990369087016110f4565b9190600160a01b600190036007541633146104e3906112a1565b6008546104ef9061151f565b968760085587835260209860098a52888885209680518855600197888101908d83015160ff16918054928d85015160081b61ff00169061ffff19809516171781558b60608501511661056290829069ffffffffffffffff000082549160101b169069ffffffffffffffff00001916179055565b6080840151151581549060ff60501b9060501b169060ff60501b191617905560a083015160028201556003019160c0015161ffff16908254161790556105a79161194b565b836105b6575b88888851908152f35b878352600b89528683209584116106c157506105d28554611267565b601f811161067b575b5081601f841160011461061c5791839491849394610611575b50501b916000199060031b1c19161790555b3880808080806105ad565b0135925038806105f4565b9183601f1981168785528a8520945b8b88838310610664575050501061064a575b505050811b019055610606565b0135600019600384901b60f8161c1916905538808061063d565b85870135885590960195938401938793500161062b565b858352888320601f850160051c8101918a86106106b7575b601f0160051c019085905b8281106106ac5750506105db565b84815501859061069e565b9091508190610693565b634e487b7160e01b835260419052602482fd5b5050346102a157816003193601126102a15760075490516001600160a01b039091168152602090f35b5090346101c557806003193601126101c5576107176110c3565b906024359182151580930361079a576001600160a01b03169283156107855750338452600560205280842083855260205280842060ff1981541660ff8416179055519081527f17307eab39ab6107e8899845ad3d59bd9653f200f220920489ca2b5937696c3160203392a380f35b836024925191630b61174360e31b8352820152fd5b8480fd5b8284346102dd57806003193601126102dd578151918282600193600154946107c586611267565b9182855260209687600182169182600014610862575050600114610806575b5050506102d992916107f79103856111a2565b5192828493845283019061109e565b9190869350600183527fb10e2d527612073b26eecdfd717e6a320cf44b4afac2b0732d9fcbe2b7fa0cf65b82841061084a57505050820101816107f76102d96107e4565b8054848a018601528895508794909301928101610831565b60ff19168782015293151560051b860190930193508492506107f791506102d990506107e4565b5050346102a157816003193601126102a15760065490516001600160a01b039091168152602090f35b5050346102a1576101003660031901126102a157806109af6020936108d56110c3565b6108de366111c3565b6108f360018060a01b036007541633146112a1565b6108fe60085461151f565b9586938460085584815260098952208151815561ffff60c06003600184019360ff8c870151169480549561ff008c89015160081b16908619809816171781556109756001600160401b03606089015116829069ffffffffffffffff000082549160101b169069ffffffffffffffff00001916179055565b6080870151151581549060ff60501b9060501b169060ff60501b191617905560a0860151600282015501930151169082541617905561194b565b51908152f35b83346102dd5760203660031901126102dd576109cf6110c3565b6109d761191f565b60018060a01b03166001600160601b0360a01b600754161760075580f35b83346102dd57806003193601126102dd57610a0e61191f565b600680546001600160a01b0319811690915581906001600160a01b03167f8be0079c531659141344cd1fd0a4f28419497f9722a3daafe3b4186f6b6457e08280a380f35b5091346102dd5760203660031901126102dd576001600160a01b03610a756110c3565b16928315610a925750806020938392526003845220549051908152f35b91516322718ad960e21b815291820152602490fd5b5091346102dd5760203660031901126102dd5750610ac7602092356118e4565b90516001600160a01b039091168152f35b5082346102dd5760209160206003193601126102a1576001600160401b0381358181116101c157610b0c90369084016110f4565b929091610b1761191f565b8311610c4c5750610b29600a54611267565b601f8111610bed575b508293601f8311600114610b6f5750928293829392610b64575b50508160011b916000199060031b1c191617600a5580f35b013590508380610b4c565b601f198316947fc65a7bb8d6351c1cf70c95a316cc6a92839c986682d98bc35f958f4883f9d2a8929185905b878210610bd5575050836001959610610bbb575b505050811b01600a5580f35b0135600019600384901b60f8161c19169055838080610baf565b80600184968294958701358155019501920190610b9b565b7fc65a7bb8d6351c1cf70c95a316cc6a92839c986682d98bc35f958f4883f9d2a8601f840160051c81019160208510610c42575b601f0160051c01905b818110610c375750610b32565b848155600101610c2a565b9091508190610c21565b634e487b7160e01b845260419052602483fd5b5050346102a1576101be90610c7336611121565b91925192610c8084611187565b85845261036b838383611319565b83346102dd576101be610ca036611121565b91611319565b5050346102a157816003193601126102a1576020906008549051908152f35b509190346102a157806003193601126102a1578235926001600160401b039160243583811161079a57610cfb90369084016110f4565b92909160018060a01b0396610d15886007541633146112a1565b808752610d2e60209860028a52838920541615156112e0565b8652600b87528520938311610e345750610d488354611267565b601f8111610df1575b508394601f8311600114610d8e575093839482939492610d83575b50508160011b916000199060031b1c191617905580f35b013590503880610d6c565b90601f198316958486528286209286905b888210610dd957505083600195969710610dbf575b505050811b01905580f35b0135600019600384901b60f8161c19169055388080610db4565b80600184968294958701358155019501920190610d9f565b838552858520601f840160051c810191878510610e2a575b601f0160051c01905b818110610e1f5750610d51565b858155600101610e12565b9091508190610e09565b634e487b7160e01b855260419052602484fd5b5090346101c557806003193601126101c557610e616110c3565b91602435610e6e816118e4565b33151580610f10575b80610ee7575b610ed1576001600160a01b039485169482918691167f8c5be1e5ebec7d5bd14f71427d1e84f3dd0314c0f7b2291e5b200ac8c7c3b9258880a48452602052822080546001600160a01b031916909117905580f35b835163a9fbf51f60e01b81523381850152602490fd5b506001600160a01b03811686526005602090815284872033885290528386205460ff1615610e7d565b506001600160a01b038116331415610e77565b50346101c55760203660031901126101c557918260209335610f44816118e4565b50825283528190205490516001600160a01b039091168152f35b8284346102dd57806003193601126102dd5781519182828354610f8081611267565b9081845260209560019187600182169182600014610862575050600114610fb4575050506102d992916107f79103856111a2565b91908693508280527f290decd9548b62a8d60345a988386fc84ba6bc95484008f6362f93160ef3e5635b828410610ff757505050820101816107f76102d96107e4565b8054848a018601528895508794909301928101610fde565b925050346101c55760203660031901126101c5573563ffffffff60e01b81168091036101c557602092506380ac58cd60e01b811490811561106a575b8115611059575b5015158152f35b6301ffc9a760e01b14905038611052565b635b5e139f60e01b8114915061104b565b60005b83811061108e5750506000910152565b818101518382015260200161107e565b906020916110b78151809281855285808601910161107b565b601f01601f1916010190565b600435906001600160a01b03821682036110d957565b600080fd5b602435906001600160a01b03821682036110d957565b9181601f840112156110d9578235916001600160401b0383116110d957602083818601950101116110d957565b60609060031901126110d9576001600160a01b039060043582811681036110d9579160243590811681036110d9579060443590565b60e081019081106001600160401b0382111761117157604052565b634e487b7160e01b600052604160045260246000fd5b602081019081106001600160401b0382111761117157604052565b90601f801991011681019081106001600160401b0382111761117157604052565b60e09060231901126110d957604051906111dc82611156565b81602435815260443560ff811681036110d957602082015260643560ff811681036110d95760408201526084356001600160401b03811681036110d957606082015260a43580151581036110d957608082015260c43560a082015260e4359061ffff821682036110d95760c00152565b6001600160401b03811161117157601f01601f191660200190565b90600182811c92168015611297575b602083101461128157565b634e487b7160e01b600052602260045260246000fd5b91607f1691611276565b156112a857565b60405162461bcd60e51b815260206004820152601060248201526f6f6e6c79206d61726b6574706c61636560801b6044820152606490fd5b156112e757565b60405162461bcd60e51b815260206004820152600a6024820152696e6f742065786973747360b01b6044820152606490fd5b6001600160a01b0391821692909183156115065760009282845260209460028652604095868481882054169633151580611476575b5087151580611443575b84825260038452828220805460010190558782526002845282822080546001600160a01b0319168617905582519488908a7fddf252ad1be2c89b69c2b068fc378daa952ba7f163c4a11628f55a4df523b3ef8580a48061143b575b6113ec575b5050505016928383036113cb5750505050565b6064945051926364283d7b60e01b8452600484015260248301526044820152fd5b60098352206001015460501c60ff16156114075786816113b8565b62461bcd60e51b82526004820152601060248201526f6e6f74207472616e7366657261626c6560801b604482015260649150fd5b5060016113b3565b600088815260046020526040902080546001600160a01b0319169055888252600384528282208054600019019055611358565b909150806114c5575b1561148c5787903861134e565b8786886114a9576024915190637e27328960e01b82526004820152fd5b604491519063177e802f60e01b82523360048301526024820152fd5b5033871480156114ea575b8061147f575085815260048252338589832054161461147f565b5086815260058252878120338252825260ff88822054166114d0565b604051633250574960e11b815260006004820152602490fd5b600019811461152e5760010190565b634e487b7160e01b600052601160045260246000fd5b60008181526002602090815260408083205490939192906001600160a01b03161561188857818152600b8352838120845181549391818461158487611267565b9283835260019789898216918260001461186857505060011461182a575b506115af925003826111a2565b805161182157508451600a8054919484866115c985611267565b91828252898201958a85821691826000146118065750506001146117ab575b6115f4925003876111a2565b85511561179357849390817a184f03e93ff9f4daa797ed6e38ed64bf6a1f0100000000000000008181811015611785575b5050600a90896d04ee2d6d415b85acef810000000080831015611779575b5050662386f26fc100008082101561176c575b506305f5e1008082101561175f575b5061271080821015611752575b506064811015611744575b101561173b575b90816021866116ad838d99016116a561169c8261124c565b9a519a8b6111a2565b808a5261124c565b888c019990601f1901368b3750870101905b611705575b50505050906116f6611702959493926116e797519788955180928888019061107b565b8401915180938684019061107b565b010380845201826111a2565b90565b600019019083906f181899199a1a9b1b9c1cb0b131b232b360811b8282061a835304918215611736579190826116bf565b6116c4565b80940193611684565b60646002910496019561167d565b6004910496019538611672565b6008910496019538611665565b6010910496019538611656565b97019690048938611643565b8b9750049050600a38611625565b505050509291505051906117a682611187565b815290565b5050600a8652868887847fc65a7bb8d6351c1cf70c95a316cc6a92839c986682d98bc35f958f4883f9d2a85b8583106117ed5750506115f493508201016115e8565b80919294505483858d0101520191018990848a936117d7565b60ff191688526115f494151560051b84010191506115e89050565b94505050505090565b915050845281868086208787915b85831061184f5750506115af9350820101386115a2565b8091929450548385880101520191018790878593611838565b60ff1916858201526115af95151560051b85010192503891506115a29050565b835162461bcd60e51b815260048101849052602f60248201527f4552433732314d657461646174613a2055524920717565727920666f72206e6f60448201526e3732bc34b9ba32b73a103a37b5b2b760891b6064820152608490fd5b6000818152600260205260409020546001600160a01b0316908115611907575090565b60249060405190637e27328960e01b82526004820152fd5b6006546001600160a01b0316330361193357565b60405163118cdaa760e01b8152336004820152602490fd5b6040805161195881611187565b6000808252936001600160a01b03848116949092908515611bc5578287526020936002855285882054168015159081611b92575b878952600386528689206001815401905584895260028652868920886001600160601b0360a01b82541617905584888851927fddf252ad1be2c89b69c2b068fc378daa952ba7f163c4a11628f55a4df523b3ef8c80a48180611b8a575b611b40575b50611b28573b611a01575b505050505050565b82611a3f918596979894955180938192630a85bd0160e11b968784523360048501528c6024850152604484015260806064840152608483019061109e565b03818a8a5af1879181611ae4575b50611aad575050503d600014611aa4573d611a678161124c565b90611a74845192836111a2565b81528094823d92013e5b83519384611a9e578251633250574960e11b815260048101859052602490fd5b84925001fd5b60609350611a7e565b919550915063ffffffff60e01b1603611acd5750503880808080806119f9565b602492505190633250574960e11b82526004820152fd5b9091508481813d8311611b21575b611afc81836111a2565b81010312611b1d57516001600160e01b031981168103611b1d579038611a4d565b8780fd5b503d611af2565b84516339e3563760e11b815260048101889052602490fd5b6009865260ff6001888b20015460501c166119ee5762461bcd60e51b815260048101869052601060248201526f6e6f74207472616e7366657261626c6560801b6044820152606490fd5b5060016119e9565b600085815260046020526040902080546001600160a01b031916905580895260038652868920805460001901905561198c565b8451633250574960e11b815260048101889052602490fd5b90939192833b611bef575b5050505050565b604051630a85bd0160e11b8082526001600160a01b039384166004830152958316602482015260448101919091526080606482015294921692602092918590611c3c90608483019061109e565b039483816000978189895af1869181611ce7575b50611cb1575050503d600014611ca8573d611c6a8161124c565b90611c7860405192836111a2565b81528093823d92013e5b82519283611ca357604051633250574960e11b815260048101849052602490fd5b019050fd5b60609250611c82565b919450915063ffffffff60e01b1603611ccf57503880808080611be8565b60249060405190633250574960e11b82526004820152fd5b9091508481813d8311611d24575b611cff81836111a2565b81010312611d2057516001600160e01b031981168103611d20579038611c50565b8680fd5b503d611cf556fea26469706673582212205eb1a53bd08cf94efcc5a226a6663d836443b21eca9b093e3c9a1d40a9a2b14364736f6c63430008180033c3a99852514e5923cdffb2779c4b432ed502acf7b7ca78b2087a8c49d82bf6a7",
  "linkReferences": {},
  "deployedLinkReferences": {}
}