{
  "_format": "hh-sol-artifact-1",
  "contractName": "MarketplaceV2",
  "sourceName": "contracts/MarketplaceV2.sol",
  "abi": [
    {
      "inputs": [
        {
          "internalType": "uint256",
          "name": "feeBps_",
          "type": "uint256"
        },
        {
          "internalType": "address",
          "name": "feeRecipient_",
          "type": "address"
        },
        {
          "internalType": "uint256",
          "name": "modelsLimit_",
          "type": "uint256"
        },
        {
          "internalType": "address",
          "name": "licenseNFTOwner",
          "type": "address"
        }
      ],
      "stateMutability": "nonpayable",
      "type": "constructor"
    },
    {
      "inputs": [],
      "name": "AgentRegistrationFailed",
      "type": "error"
    },
    {
      "inputs": [],
      "name": "AgentRegistryNotSet",
      "type": "error"
    },
    {
      "inputs": [],
      "name": "ContractNotAllowed",
      "type": "error"
    },
    {
      "inputs": [],
      "name": "EnforcedPause",
      "type": "error"
    },
    {
      "inputs": [],
      "name": "ExpectedPause",
      "type": "error"
    },
    {
      "inputs": [],
      "name": "FeeOverCap",
      "type": "error"
    },
    {
      "inputs": [],
      "name": "FeePlusRoyaltyOver100",
      "type": "error"
    },
    {
      "inputs": [],
      "name": "InsufficientFunds",
      "type": "error"
    },
    {
      "inputs": [],
      "name": "InvalidBps",
      "type": "error"
    },
    {
      "inputs": [],
      "name": "InvalidDelivery",
      "type": "error"
    },
    {
      "inputs": [],
      "name": "InvalidDuration",
      "type": "error"
    },
    {
      "inputs": [],
      "name": "InvalidInferencePrice",
      "type": "error"
    },
    {
      "inputs": [],
      "name": "InvalidKind",
      "type": "error"
    },
    {
      "inputs": [],
      "name": "InvalidRights",
      "type": "error"
    },
    {
      "inputs": [],
      "name": "InvalidVersion",
      "type": "error"
    },
    {
      "inputs": [],
      "name": "LicenseRevokedError",
      "type": "error"
    },
    {
      "inputs": [],
      "name": "ModelsLimitReached",
      "type": "error"
    },
    {
      "inputs": [],
      "name": "NoPendingChange",
      "type": "error"
    },
    {
      "inputs": [],
      "name": "NotListed",
      "type": "error"
    },
    {
      "inputs": [],
      "name": "NotOwner",
      "type": "error"
    },
    {
      "inputs": [
        {
          "internalType": "address",
          "name": "owner",
          "type": "address"
        }
      ],
      "name": "OwnableInvalidOwner",
      "type": "error"
    },
    {
      "inputs": [
        {
          "internalType": "address",
          "name": "account",
          "type": "address"
        }
      ],
      "name": "OwnableUnauthorizedAccount",
      "type": "error"
    },
    {
      "inputs": [],
      "name": "PaymentTokenNotSet",
      "type": "error"
    },
    {
      "inputs": [],
      "name": "PriceNotConfigured",
      "type": "error"
    },
    {
      "inputs": [],
      "name": "PriceTooHigh",
      "type": "error"
    },
    {
      "inputs": [],
      "name": "ReentrancyGuardReentrantCall",
      "type": "error"
    },
    {
      "inputs": [
        {
          "internalType": "address",
          "name": "token",
          "type": "address"
        }
      ],
      "name": "SafeERC20FailedOperation",
      "type": "error"
    },
    {
      "inputs": [],
      "name": "TimelockNotExpired",
      "type": "error"
    },
    {
      "inputs": [],
      "name": "TransferFailed",
      "type": "error"
    },
    {
      "inputs": [],
      "name": "ZeroAddress",
      "type": "error"
    },
    {
      "anonymous": false,
      "inputs": [
        {
          "indexed": true,
          "internalType": "uint256",
          "name": "modelId",
          "type": "uint256"
        },
        {
          "indexed": true,
          "internalType": "uint256",
          "name": "agentId",
          "type": "uint256"
        },
        {
          "indexed": true,
          "internalType": "address",
          "name": "owner",
          "type": "address"
        }
      ],
      "name": "AgentLinked",
      "type": "event"
    },
    {
      "anonymous": false,
      "inputs": [
        {
          "indexed": true,
          "internalType": "address",
          "name": "registry",
          "type": "address"
        }
      ],
      "name": "AgentRegistrySet",
      "type": "event"
    },
    {
      "anonymous": false,
      "inputs": [
        {
          "indexed": true,
          "internalType": "address",
          "name": "to",
          "type": "address"
        },
        {
          "indexed": false,
          "internalType": "uint256",
          "name": "amount",
          "type": "uint256"
        }
      ],
      "name": "FundsSwept",
      "type": "event"
    },
    {
      "anonymous": false,
      "inputs": [
        {
          "indexed": true,
          "internalType": "uint256",
          "name": "modelId",
          "type": "uint256"
        },
        {
          "indexed": false,
          "internalType": "uint256",
          "name": "oldPrice",
          "type": "uint256"
        },
        {
          "indexed": false,
          "internalType": "uint256",
          "name": "newPrice",
          "type": "uint256"
        },
        {
          "indexed": true,
          "internalType": "address",
          "name": "updatedBy",
          "type": "address"
        }
      ],
      "name": "InferencePriceUpdated",
      "type": "event"
    },
    {
      "anonymous": false,
      "inputs": [
        {
          "indexed": true,
          "internalType": "address",
          "name": "splitter",
          "type": "address"
        }
      ],
      "name": "InferenceSplitterSet",
      "type": "event"
    },
    {
      "anonymous": false,
      "inputs": [
        {
          "indexed": true,
          "internalType": "uint256",
          "name": "modelId",
          "type": "uint256"
        },
        {
          "indexed": false,
          "internalType": "address",
          "name": "oldWallet",
          "type": "address"
        },
        {
          "indexed": false,
          "internalType": "address",
          "name": "newWallet",
          "type": "address"
        },
        {
          "indexed": false,
          "internalType": "uint256",
          "name": "effectiveAt",
          "type": "uint256"
        }
      ],
      "name": "InferenceWalletChangeRequested",
      "type": "event"
    },
    {
      "anonymous": false,
      "inputs": [
        {
          "indexed": true,
          "internalType": "uint256",
          "name": "modelId",
          "type": "uint256"
        },
        {
          "indexed": false,
          "internalType": "address",
          "name": "oldWallet",
          "type": "address"
        },
        {
          "indexed": false,
          "internalType": "address",
          "name": "newWallet",
          "type": "address"
        }
      ],
      "name": "InferenceWalletChanged",
      "type": "event"
    },
    {
      "anonymous": false,
      "inputs": [
        {
          "indexed": true,
          "internalType": "uint256",
          "name": "licenseId",
          "type": "uint256"
        },
        {
          "indexed": true,
          "internalType": "uint256",
          "name": "modelId",
          "type": "uint256"
        },
        {
          "indexed": true,
          "internalType": "address",
          "name": "buyer",
          "type": "address"
        },
        {
          "indexed": false,
          "internalType": "uint8",
          "name": "kind",
          "type": "uint8"
        },
        {
          "indexed": false,
          "internalType": "uint8",
          "name": "rights",
          "type": "uint8"
        },
        {
          "indexed": false,
          "internalType": "uint64",
          "name": "expiresAt",
          "type": "uint64"
        },
        {
          "indexed": false,
          "internalType": "uint16",
          "name": "version",
          "type": "uint16"
        },
        {
          "indexed": false,
          "internalType": "uint256",
          "name": "pricePaid",
          "type": "uint256"
        },
        {
          "indexed": false,
          "internalType": "uint256",
          "name": "feePaid",
          "type": "uint256"
        },
        {
          "indexed": false,
          "internalType": "uint256",
          "name": "royaltyPaid",
          "type": "uint256"
        }
      ],
      "name": "LicenseMinted",
      "type": "event"
    },
    {
      "anonymous": false,
      "inputs": [
        {
          "indexed": false,
          "internalType": "address",
          "name": "license",
          "type": "address"
        }
      ],
      "name": "LicenseNFTCreated",
      "type": "event"
    },
    {
      "anonymous": false,
      "inputs": [
        {
          "indexed": true,
          "internalType": "uint256",
          "name": "licenseId",
          "type": "uint256"
        },
        {
          "indexed": true,
          "internalType": "uint256",
          "name": "modelId",
          "type": "uint256"
        },
        {
          "indexed": false,
          "internalType": "uint64",
          "name": "newExpiresAt",
          "type": "uint64"
        },
        {
          "indexed": false,
          "internalType": "uint16",
          "name": "months",
          "type": "uint16"
        },
        {
          "indexed": false,
          "internalType": "uint256",
          "name": "pricePaid",
          "type": "uint256"
        },
        {
          "indexed": false,
          "internalType": "uint256",
          "name": "feePaid",
          "type": "uint256"
        },
        {
          "indexed": false,
          "internalType": "uint256",
          "name": "royaltyPaid",
          "type": "uint256"
        }
      ],
      "name": "LicenseRenewed",
      "type": "event"
    },
    {
      "anonymous": false,
      "inputs": [
        {
          "indexed": true,
          "internalType": "uint256",
          "name": "tokenId",
          "type": "uint256"
        },
        {
          "indexed": true,
          "internalType": "uint256",
          "name": "modelId",
          "type": "uint256"
        },
        {
          "indexed": true,
          "internalType": "address",
          "name": "by",
          "type": "address"
        }
      ],
      "name": "LicenseRevoked",
      "type": "event"
    },
    {
      "anonymous": false,
      "inputs": [
        {
          "indexed": false,
          "internalType": "uint256",
          "name": "feeBps",
          "type": "uint256"
        },
        {
          "indexed": false,
          "internalType": "address",
          "name": "feeRecipient",
          "type": "address"
        }
      ],
      "name": "MarketFeesSet",
      "type": "event"
    },
    {
      "anonymous": false,
      "inputs": [
        {
          "indexed": true,
          "internalType": "uint256",
          "name": "id",
          "type": "uint256"
        },
        {
          "indexed": true,
          "internalType": "address",
          "name": "owner",
          "type": "address"
        }
      ],
      "name": "ModelListed",
      "type": "event"
    },
    {
      "anonymous": false,
      "inputs": [
        {
          "indexed": true,
          "internalType": "uint256",
          "name": "id",
          "type": "uint256"
        },
        {
          "indexed": true,
          "internalType": "address",
          "name": "owner",
          "type": "address"
        }
      ],
      "name": "ModelUnlisted",
      "type": "event"
    },
    {
      "anonymous": false,
      "inputs": [
        {
          "indexed": true,
          "internalType": "uint256",
          "name": "id",
          "type": "uint256"
        },
        {
          "indexed": true,
          "internalType": "address",
          "name": "owner",
          "type": "address"
        },
        {
          "indexed": false,
          "internalType": "bool",
          "name": "listed",
          "type": "bool"
        }
      ],
      "name": "ModelUpdated",
      "type": "event"
    },
    {
      "anonymous": false,
      "inputs": [
        {
          "indexed": false,
          "internalType": "uint256",
          "name": "active",
          "type": "uint256"
        }
      ],
      "name": "ModelsCountChanged",
      "type": "event"
    },
    {
      "anonymous": false,
      "inputs": [
        {
          "indexed": false,
          "internalType": "uint256",
          "name": "newLimit",
          "type": "uint256"
        }
      ],
      "name": "ModelsLimitSet",
      "type": "event"
    },
    {
      "anonymous": false,
      "inputs": [
        {
          "indexed": true,
          "internalType": "address",
          "name": "previousOwner",
          "type": "address"
        },
        {
          "indexed": true,
          "internalType": "address",
          "name": "newOwner",
          "type": "address"
        }
      ],
      "name": "OwnershipTransferStarted",
      "type": "event"
    },
    {
      "anonymous": false,
      "inputs": [
        {
          "indexed": true,
          "internalType": "address",
          "name": "previousOwner",
          "type": "address"
        },
        {
          "indexed": true,
          "internalType": "address",
          "name": "newOwner",
          "type": "address"
        }
      ],
      "name": "OwnershipTransferred",
      "type": "event"
    },
    {
      "anonymous": false,
      "inputs": [
        {
          "indexed": false,
          "internalType": "address",
          "name": "account",
          "type": "address"
        }
      ],
      "name": "Paused",
      "type": "event"
    },
    {
      "anonymous": false,
      "inputs": [
        {
          "indexed": true,
          "internalType": "address",
          "name": "token",
          "type": "address"
        }
      ],
      "name": "PaymentTokenSet",
      "type": "event"
    },
    {
      "anonymous": false,
      "inputs": [
        {
          "indexed": false,
          "internalType": "address",
          "name": "account",
          "type": "address"
        }
      ],
      "name": "Unpaused",
      "type": "event"
    },
    {
      "inputs": [],
      "name": "KIND_PERPETUAL",
      "outputs": [
        {
          "internalType": "uint8",
          "name": "",
          "type": "uint8"
        }
      ],
      "stateMutability": "view",
      "type": "function"
    },
    {
      "inputs": [],
      "name": "KIND_SUBSCRIPTION",
      "outputs": [
        {
          "internalType": "uint8",
          "name": "",
          "type": "uint8"
        }
      ],
      "stateMutability": "view",
      "type": "function"
    },
    {
      "inputs": [],
      "name": "MAX_BPS",
      "outputs": [
        {
          "internalType": "uint256",
          "name": "",
          "type": "uint256"
        }
      ],
      "stateMutability": "view",
      "type": "function"
    },
    {
      "inputs": [],
      "name": "MAX_FEE_BPS_CAP",
      "outputs": [
        {
          "internalType": "uint256",
          "name": "",
          "type": "uint256"
        }
      ],
      "stateMutability": "view",
      "type": "function"
    },
    {
      "inputs": [],
      "name": "MAX_INFERENCE_PRICE",
      "outputs": [
        {
          "internalType": "uint256",
          "name": "",
          "type": "uint256"
        }
      ],
      "stateMutability": "view",
      "type": "function"
    },
    {
      "inputs": [],
      "name": "MAX_PRICE_CAP",
      "outputs": [
        {
          "internalType": "uint256",
          "name": "",
          "type": "uint256"
        }
      ],
      "stateMutability": "view",
      "type": "function"
    },
    {
      "inputs": [],
      "name": "MIN_INFERENCE_PRICE",
      "outputs": [
        {
          "internalType": "uint256",
          "name": "",
          "type": "uint256"
        }
      ],
      "stateMutability": "view",
      "type": "function"
    },
    {
      "inputs": [],
      "name": "RIGHTS_API",
      "outputs": [
        {
          "internalType": "uint8",
          "name": "",
          "type": "uint8"
        }
      ],
      "stateMutability": "view",
      "type": "function"
    },
    {
      "inputs": [],
      "name": "RIGHTS_DOWNLOAD",
      "outputs": [
        {
          "internalType": "uint8",
          "name": "",
          "type": "uint8"
        }
      ],
      "stateMutability": "view",
      "type": "function"
    },
    {
      "inputs": [],
      "name": "TIMELOCK_DELAY",
      "outputs": [
        {
          "internalType": "uint256",
          "name": "",
          "type": "uint256"
        }
      ],
      "stateMutability": "view",
      "type": "function"
    },
    {
      "inputs": [],
      "name": "acceptOwnership",
      "outputs": [],
      "stateMutability": "nonpayable",
      "type": "function"
    },
    {
      "inputs": [],
      "name": "activeModels",
      "outputs": [
        {
          "internalType": "uint256",
          "name": "",
          "type": "uint256"
        }
      ],
      "stateMutability": "view",
      "type": "function"
    },
    {
      "inputs": [],
      "name": "agentRegistry",
      "outputs": [
        {
          "internalType": "contract IAgentRegistry",
          "name": "",
          "type": "address"
        }
      ],
      "stateMutability": "view",
      "type": "function"
    },
    {
      "inputs": [
        {
          "internalType": "uint256",
          "name": "modelId",
          "type": "uint256"
        },
        {
          "internalType": "uint8",
          "name": "licenseKind",
          "type": "uint8"
        },
        {
          "internalType": "uint16",
          "name": "months",
          "type": "uint16"
        },
        {
          "internalType": "bool",
          "name": "transferable",
          "type": "bool"
        }
      ],
      "name": "buyLicense",
      "outputs": [],
      "stateMutability": "nonpayable",
      "type": "function"
    },
    {
      "inputs": [
        {
          "internalType": "uint256",
          "name": "modelId",
          "type": "uint256"
        },
        {
          "internalType": "uint8",
          "name": "licenseKind",
          "type": "uint8"
        },
        {
          "internalType": "uint16",
          "name": "months",
          "type": "uint16"
        },
        {
          "internalType": "bool",
          "name": "transferable",
          "type": "bool"
        },
        {
          "internalType": "string",
          "name": "tokenUri",
          "type": "string"
        }
      ],
      "name": "buyLicenseWithURI",
      "outputs": [],
      "stateMutability": "nonpayable",
      "type": "function"
    },
    {
      "inputs": [
        {
          "internalType": "uint256",
          "name": "modelId",
          "type": "uint256"
        }
      ],
      "name": "cancelInferenceWalletChange",
      "outputs": [],
      "stateMutability": "nonpayable",
      "type": "function"
    },
    {
      "inputs": [
        {
          "internalType": "uint256",
          "name": "modelId",
          "type": "uint256"
        }
      ],
      "name": "executeInferenceWalletChange",
      "outputs": [],
      "stateMutability": "nonpayable",
      "type": "function"
    },
    {
      "inputs": [
        {
          "internalType": "address",
          "name": "",
          "type": "address"
        },
        {
          "internalType": "bytes32",
          "name": "",
          "type": "bytes32"
        }
      ],
      "name": "families",
      "outputs": [
        {
          "internalType": "uint256",
          "name": "latestId",
          "type": "uint256"
        },
        {
          "internalType": "uint16",
          "name": "latestVersion",
          "type": "uint16"
        }
      ],
      "stateMutability": "view",
      "type": "function"
    },
    {
      "inputs": [],
      "name": "feeBps",
      "outputs": [
        {
          "internalType": "uint256",
          "name": "",
          "type": "uint256"
        }
      ],
      "stateMutability": "view",
      "type": "function"
    },
    {
      "inputs": [],
      "name": "feeRecipient",
      "outputs": [
        {
          "internalType": "address",
          "name": "",
          "type": "address"
        }
      ],
      "stateMutability": "view",
      "type": "function"
    },
    {
      "inputs": [
        {
          "internalType": "uint256",
          "name": "modelId",
          "type": "uint256"
        }
      ],
      "name": "getInferenceInfo",
      "outputs": [
        {
          "internalType": "uint256",
          "name": "priceInference",
          "type": "uint256"
        },
        {
          "internalType": "address",
          "name": "inferenceWallet",
          "type": "address"
        },
        {
          "internalType": "uint256",
          "name": "royaltyBps",
          "type": "uint256"
        },
        {
          "internalType": "uint256",
          "name": "marketplaceBps",
          "type": "uint256"
        }
      ],
      "stateMutability": "view",
      "type": "function"
    },
    {
      "inputs": [
        {
          "internalType": "uint256",
          "name": "modelId",
          "type": "uint256"
        }
      ],
      "name": "getModel",
      "outputs": [
        {
          "components": [
            {
              "internalType": "address",
              "name": "owner",
              "type": "address"
            },
            {
              "internalType": "address",
              "name": "creator",
              "type": "address"
            },
            {
              "internalType": "string",
              "name": "name",
              "type": "string"
            },
            {
              "internalType": "string",
              "name": "uri",
              "type": "string"
            },
            {
              "internalType": "uint256",
              "name": "royaltyBps",
              "type": "uint256"
            },
            {
              "internalType": "bool",
              "name": "listed",
              "type": "bool"
            },
            {
              "internalType": "uint256",
              "name": "pricePerpetual",
              "type": "uint256"
            },
            {
              "internalType": "uint256",
              "name": "priceSubscription",
              "type": "uint256"
            },
            {
              "internalType": "uint256",
              "name": "defaultDurationDays",
              "type": "uint256"
            },
            {
              "internalType": "uint8",
              "name": "deliveryRightsDefault",
              "type": "uint8"
            },
            {
              "internalType": "uint8",
              "name": "deliveryModeHint",
              "type": "uint8"
            },
            {
              "internalType": "uint16",
              "name": "version",
              "type": "uint16"
            },
            {
              "internalType": "bytes32",
              "name": "termsHash",
              "type": "bytes32"
            },
            {
              "internalType": "uint256",
              "name": "priceInference",
              "type": "uint256"
            },
            {
              "internalType": "address",
              "name": "inferenceWallet",
              "type": "address"
            }
          ],
          "internalType": "struct MarketplaceV2.Model",
          "name": "",
          "type": "tuple"
        }
      ],
      "stateMutability": "view",
      "type": "function"
    },
    {
      "inputs": [],
      "name": "inferenceSplitter",
      "outputs": [
        {
          "internalType": "address",
          "name": "",
          "type": "address"
        }
      ],
      "stateMutability": "view",
      "type": "function"
    },
    {
      "inputs": [],
      "name": "lastLicenseId",
      "outputs": [
        {
          "internalType": "uint256",
          "name": "",
          "type": "uint256"
        }
      ],
      "stateMutability": "view",
      "type": "function"
    },
    {
      "inputs": [],
      "name": "licenseNFT",
      "outputs": [
        {
          "internalType": "contract LicenseNFT",
          "name": "",
          "type": "address"
        }
      ],
      "stateMutability": "view",
      "type": "function"
    },
    {
      "inputs": [],
      "name": "licenseNFTAddress",
      "outputs": [
        {
          "internalType": "address",
          "name": "",
          "type": "address"
        }
      ],
      "stateMutability": "view",
      "type": "function"
    },
    {
      "inputs": [
        {
          "internalType": "uint256",
          "name": "tokenId",
          "type": "uint256"
        }
      ],
      "name": "licenseStatus",
      "outputs": [
        {
          "internalType": "bool",
          "name": "revoked_",
          "type": "bool"
        },
        {
          "internalType": "bool",
          "name": "validApi",
          "type": "bool"
        },
        {
          "internalType": "bool",
          "name": "validDownload",
          "type": "bool"
        },
        {
          "internalType": "uint8",
          "name": "kind",
          "type": "uint8"
        },
        {
          "internalType": "uint64",
          "name": "expiresAt",
          "type": "uint64"
        },
        {
          "internalType": "address",
          "name": "owner",
          "type": "address"
        }
      ],
      "stateMutability": "view",
      "type": "function"
    },
    {
      "inputs": [
        {
          "internalType": "string",
          "name": "slug",
          "type": "string"
        },
        {
          "internalType": "string",
          "name": "name",
          "type": "string"
        },
        {
          "internalType": "string",
          "name": "uri",
          "type": "string"
        },
        {
          "internalType": "uint256",
          "name": "royaltyBps_",
          "type": "uint256"
        },
        {
          "internalType": "uint256",
          "name": "pricePerpetual",
          "type": "uint256"
        },
        {
          "internalType": "uint256",
          "name": "priceSubscription",
          "type": "uint256"
        },
        {
          "internalType": "uint256",
          "name": "defaultDurationDays",
          "type": "uint256"
        },
        {
          "internalType": "uint8",
          "name": "deliveryRightsDefault",
          "type": "uint8"
        },
        {
          "internalType": "uint8",
          "name": "deliveryModeHint",
          "type": "uint8"
        },
        {
          "internalType": "bytes32",
          "name": "termsHash",
          "type": "bytes32"
        }
      ],
      "name": "listOrUpgrade",
      "outputs": [],
      "stateMutability": "nonpayable",
      "type": "function"
    },
    {
      "inputs": [
        {
          "internalType": "string",
          "name": "slug",
          "type": "string"
        },
        {
          "internalType": "string",
          "name": "name",
          "type": "string"
        },
        {
          "internalType": "string",
          "name": "uri",
          "type": "string"
        },
        {
          "internalType": "uint256",
          "name": "royaltyBps_",
          "type": "uint256"
        },
        {
          "internalType": "uint256",
          "name": "pricePerpetual",
          "type": "uint256"
        },
        {
          "internalType": "uint256",
          "name": "priceSubscription",
          "type": "uint256"
        },
        {
          "internalType": "uint256",
          "name": "defaultDurationDays",
          "type": "uint256"
        },
        {
          "internalType": "uint8",
          "name": "deliveryRightsDefault",
          "type": "uint8"
        },
        {
          "internalType": "uint8",
          "name": "deliveryModeHint",
          "type": "uint8"
        },
        {
          "internalType": "bytes32",
          "name": "termsHash",
          "type": "bytes32"
        },
        {
          "internalType": "uint256",
          "name": "priceInference_",
          "type": "uint256"
        },
        {
          "internalType": "address",
          "name": "inferenceWallet_",
          "type": "address"
        }
      ],
      "name": "listOrUpgrade",
      "outputs": [],
      "stateMutability": "nonpayable",
      "type": "function"
    },
    {
      "inputs": [
        {
          "internalType": "string",
          "name": "slug",
          "type": "string"
        },
        {
          "internalType": "string",
          "name": "name",
          "type": "string"
        },
        {
          "internalType": "string",
          "name": "uri",
          "type": "string"
        },
        {
          "internalType": "uint256",
          "name": "royaltyBps_",
          "type": "uint256"
        },
        {
          "internalType": "uint256",
          "name": "pricePerpetual",
          "type": "uint256"
        },
        {
          "internalType": "uint256",
          "name": "priceSubscription",
          "type": "uint256"
        },
        {
          "internalType": "uint256",
          "name": "defaultDurationDays",
          "type": "uint256"
        },
        {
          "internalType": "uint8",
          "name": "deliveryRightsDefault",
          "type": "uint8"
        },
        {
          "internalType": "uint8",
          "name": "deliveryModeHint",
          "type": "uint8"
        },
        {
          "internalType": "bytes32",
          "name": "termsHash",
          "type": "bytes32"
        },
        {
          "internalType": "uint256",
          "name": "priceInference_",
          "type": "uint256"
        },
        {
          "internalType": "address",
          "name": "inferenceWallet_",
          "type": "address"
        },
        {
          "components": [
            {
              "internalType": "string",
              "name": "endpoint",
              "type": "string"
            },
            {
              "internalType": "address",
              "name": "wallet",
              "type": "address"
            },
            {
              "internalType": "string",
              "name": "metadataUri",
              "type": "string"
            }
          ],
          "internalType": "struct MarketplaceV2.AgentParams",
          "name": "agentParams",
          "type": "tuple"
        }
      ],
      "name": "listOrUpgradeWithAgent",
      "outputs": [
        {
          "internalType": "uint256",
          "name": "modelId",
          "type": "uint256"
        },
        {
          "internalType": "uint256",
          "name": "agentId",
          "type": "uint256"
        }
      ],
      "stateMutability": "nonpayable",
      "type": "function"
    },
    {
      "inputs": [
        {
          "internalType": "uint256",
          "name": "",
          "type": "uint256"
        }
      ],
      "name": "models",
      "outputs": [
        {
          "internalType": "address",
          "name": "owner",
          "type": "address"
        },
        {
          "internalType": "address",
          "name": "creator",
          "type": "address"
        },
        {
          "internalType": "string",
          "name": "name",
          "type": "string"
        },
        {
          "internalType": "string",
          "name": "uri",
          "type": "string"
        },
        {
          "internalType": "uint256",
          "name": "royaltyBps",
          "type": "uint256"
        },
        {
          "internalType": "bool",
          "name": "listed",
          "type": "bool"
        },
        {
          "internalType": "uint256",
          "name": "pricePerpetual",
          "type": "uint256"
        },
        {
          "internalType": "uint256",
          "name": "priceSubscription",
          "type": "uint256"
        },
        {
          "internalType": "uint256",
          "name": "defaultDurationDays",
          "type": "uint256"
        },
        {
          "internalType": "uint8",
          "name": "deliveryRightsDefault",
          "type": "uint8"
        },
        {
          "internalType": "uint8",
          "name": "deliveryModeHint",
          "type": "uint8"
        },
        {
          "internalType": "uint16",
          "name": "version",
          "type": "uint16"
        },
        {
          "internalType": "bytes32",
          "name": "termsHash",
          "type": "bytes32"
        },
        {
          "internalType": "uint256",
          "name": "priceInference",
          "type": "uint256"
        },
        {
          "internalType": "address",
          "name": "inferenceWallet",
          "type": "address"
        }
      ],
      "stateMutability": "view",
      "type": "function"
    },
    {
      "inputs": [],
      "name": "modelsLimit",
      "outputs": [
        {
          "internalType": "uint256",
          "name": "",
          "type": "uint256"
        }
      ],
      "stateMutability": "view",
      "type": "function"
    },
    {
      "inputs": [],
      "name": "nextId",
      "outputs": [
        {
          "internalType": "uint256",
          "name": "",
          "type": "uint256"
        }
      ],
      "stateMutability": "view",
      "type": "function"
    },
    {
      "inputs": [],
      "name": "owner",
      "outputs": [
        {
          "internalType": "address",
          "name": "",
          "type": "address"
        }
      ],
      "stateMutability": "view",
      "type": "function"
    },
    {
      "inputs": [],
      "name": "pause",
      "outputs": [],
      "stateMutability": "nonpayable",
      "type": "function"
    },
    {
      "inputs": [],
      "name": "paused",
      "outputs": [
        {
          "internalType": "bool",
          "name": "",
          "type": "bool"
        }
      ],
      "stateMutability": "view",
      "type": "function"
    },
    {
      "inputs": [],
      "name": "paymentToken",
      "outputs": [
        {
          "internalType": "contract IERC20",
          "name": "",
          "type": "address"
        }
      ],
      "stateMutability": "view",
      "type": "function"
    },
    {
      "inputs": [
        {
          "internalType": "uint256",
          "name": "",
          "type": "uint256"
        }
      ],
      "name": "pendingInferenceWalletChanges",
      "outputs": [
        {
          "internalType": "address",
          "name": "newWallet",
          "type": "address"
        },
        {
          "internalType": "uint256",
          "name": "effectiveAt",
          "type": "uint256"
        }
      ],
      "stateMutability": "view",
      "type": "function"
    },
    {
      "inputs": [],
      "name": "pendingOwner",
      "outputs": [
        {
          "internalType": "address",
          "name": "",
          "type": "address"
        }
      ],
      "stateMutability": "view",
      "type": "function"
    },
    {
      "inputs": [
        {
          "internalType": "uint256",
          "name": "tokenId",
          "type": "uint256"
        },
        {
          "internalType": "uint16",
          "name": "months",
          "type": "uint16"
        }
      ],
      "name": "renewLicense",
      "outputs": [],
      "stateMutability": "nonpayable",
      "type": "function"
    },
    {
      "inputs": [],
      "name": "renounceOwnership",
      "outputs": [],
      "stateMutability": "nonpayable",
      "type": "function"
    },
    {
      "inputs": [
        {
          "internalType": "uint256",
          "name": "modelId",
          "type": "uint256"
        },
        {
          "internalType": "address",
          "name": "newWallet",
          "type": "address"
        }
      ],
      "name": "requestInferenceWalletChange",
      "outputs": [],
      "stateMutability": "nonpayable",
      "type": "function"
    },
    {
      "inputs": [
        {
          "internalType": "uint256",
          "name": "tokenId",
          "type": "uint256"
        }
      ],
      "name": "revokeByAdmin",
      "outputs": [],
      "stateMutability": "nonpayable",
      "type": "function"
    },
    {
      "inputs": [
        {
          "internalType": "uint256",
          "name": "tokenId",
          "type": "uint256"
        }
      ],
      "name": "revokeByModelOwner",
      "outputs": [],
      "stateMutability": "nonpayable",
      "type": "function"
    },
    {
      "inputs": [
        {
          "internalType": "uint256",
          "name": "",
          "type": "uint256"
        }
      ],
      "name": "revoked",
      "outputs": [
        {
          "internalType": "bool",
          "name": "",
          "type": "bool"
        }
      ],
      "stateMutability": "view",
      "type": "function"
    },
    {
      "inputs": [
        {
          "internalType": "address",
          "name": "_registry",
          "type": "address"
        }
      ],
      "name": "setAgentRegistry",
      "outputs": [],
      "stateMutability": "nonpayable",
      "type": "function"
    },
    {
      "inputs": [
        {
          "internalType": "uint256",
          "name": "newFeeBps",
          "type": "uint256"
        },
        {
          "internalType": "address",
          "name": "newRecipient",
          "type": "address"
        }
      ],
      "name": "setFees",
      "outputs": [],
      "stateMutability": "nonpayable",
      "type": "function"
    },
    {
      "inputs": [
        {
          "internalType": "uint256",
          "name": "modelId",
          "type": "uint256"
        },
        {
          "internalType": "uint256",
          "name": "newPrice",
          "type": "uint256"
        }
      ],
      "name": "setInferencePrice",
      "outputs": [],
      "stateMutability": "nonpayable",
      "type": "function"
    },
    {
      "inputs": [
        {
          "internalType": "address",
          "name": "_splitter",
          "type": "address"
        }
      ],
      "name": "setInferenceSplitter",
      "outputs": [],
      "stateMutability": "nonpayable",
      "type": "function"
    },
    {
      "inputs": [
        {
          "internalType": "uint256",
          "name": "modelId",
          "type": "uint256"
        },
        {
          "internalType": "uint256",
          "name": "pricePerpetual",
          "type": "uint256"
        },
        {
          "internalType": "uint256",
          "name": "priceSubscription",
          "type": "uint256"
        },
        {
          "internalType": "uint256",
          "name": "defaultDurationDays",
          "type": "uint256"
        },
        {
          "internalType": "uint8",
          "name": "deliveryRightsDefault",
          "type": "uint8"
        },
        {
          "internalType": "uint8",
          "name": "deliveryModeHint",
          "type": "uint8"
        },
        {
          "internalType": "bytes32",
          "name": "termsHash",
          "type": "bytes32"
        }
      ],
      "name": "setLicensingParams",
      "outputs": [],
      "stateMutability": "nonpayable",
      "type": "function"
    },
    {
      "inputs": [
        {
          "internalType": "uint256",
          "name": "modelId",
          "type": "uint256"
        },
        {
          "internalType": "bool",
          "name": "listed",
          "type": "bool"
        }
      ],
      "name": "setListed",
      "outputs": [],
      "stateMutability": "nonpayable",
      "type": "function"
    },
    {
      "inputs": [
        {
          "internalType": "uint256",
          "name": "lim",
          "type": "uint256"
        }
      ],
      "name": "setModelsLimit",
      "outputs": [],
      "stateMutability": "nonpayable",
      "type": "function"
    },
    {
      "inputs": [
        {
          "internalType": "address",
          "name": "_token",
          "type": "address"
        }
      ],
      "name": "setPaymentToken",
      "outputs": [],
      "stateMutability": "nonpayable",
      "type": "function"
    },
    {
      "inputs": [
        {
          "internalType": "address",
          "name": "to",
          "type": "address"
        },
        {
          "internalType": "uint256",
          "name": "amount",
          "type": "uint256"
        }
      ],
      "name": "sweep",
      "outputs": [],
      "stateMutability": "nonpayable",
      "type": "function"
    },
    {
      "inputs": [
        {
          "internalType": "address",
          "name": "token",
          "type": "address"
        },
        {
          "internalType": "address",
          "name": "to",
          "type": "address"
        },
        {
          "internalType": "uint256",
          "name": "amount",
          "type": "uint256"
        }
      ],
      "name": "sweepToken",
      "outputs": [],
      "stateMutability": "nonpayable",
      "type": "function"
    },
    {
      "inputs": [
        {
          "internalType": "address",
          "name": "newOwner",
          "type": "address"
        }
      ],
      "name": "transferOwnership",
      "outputs": [],
      "stateMutability": "nonpayable",
      "type": "function"
    },
    {
      "inputs": [],
      "name": "unpause",
      "outputs": [],
      "stateMutability": "nonpayable",
      "type": "function"
    },
    {
      "inputs": [
        {
          "internalType": "uint256",
          "name": "modelId",
          "type": "uint256"
        },
        {
          "internalType": "string",
          "name": "agentEndpoint",
          "type": "string"
        },
        {
          "internalType": "address",
          "name": "agentWallet",
          "type": "address"
        }
      ],
      "name": "updateModelAgent",
      "outputs": [],
      "stateMutability": "nonpayable",
      "type": "function"
    },
    {
      "stateMutability": "payable",
      "type": "receive"
    }
  ],
  "bytecode": "0x60a0346200026457601f6200627438819003918201601f1916830192916001600160401b039182851184861017620002695781608092859260409788528339810103126200026457815162000057602084016200027f565b926200006a60608683015192016200027f565b9233156200024c5760018060a01b031991826001541660015560009384549360018060a01b039733828716178755895195893391167f8be0079c531659141344cd1fd0a4f28419497f9722a3daafe3b4186f6b6457e08980a360016002556004956001875561271084116200023e57506107d083116200022e5788169182156200021e576006556007541617600755600955855161215c80820190828210848311176200020b576020918391620040f8833930815203019084f08015620001fd578086916080521693843b1562000207578560248592838a51988994859363f2fde38b60e01b855216888401525af18015620001fd57620001c5575b8560008051602062006254833981519152602087608051168351908152a151613e6390816200029582396080518181816107a10152818161087501528181610c5601528181610f53015281816116f50152818161197701526122940152f35b8311620001ea5750508252602060008051602062006254833981519152388062000166565b634e487b7160e01b825260419052602490fd5b86513d85823e3d90fd5b8380fd5b634e487b7160e01b865260418552602486fd5b895163d92e233d60e01b81528690fd5b895163c1bd884560e01b81528690fd5b63c6cc5d7f60e01b81528690fd5b8551631e4fbdf760e01b815260006004820152602490fd5b600080fd5b634e487b7160e01b600052604160045260246000fd5b51906001600160a01b0382168203620002645756fe6080604052600436101561001b575b361561001957600080fd5b005b6000803560e01c80630135adcd146133a557806308c05903146133505780630d1cfcae146133275780631ade29ca146132fe5780631e141e8b1461320a578063227dc4c4146131ec578063235b3b941461318257806323da4f011461313b57806323ea1f5f1461113457806324a9d8531461311d57806328342ecf146130b35780632d88c21114612bc65780633013ce2914612b9d578063345c0f77146123fa57806337c738651461225e5780633d162cdc146121bb5780633f4ba83a1461215057806346453f28146120fe57806346904840146120d557806347eaa7a214611aeb5780634b746cd1146117f85780635ba1c1a9146117da5780635c975abb146117b757806361b8ce8c14611799578063636d5870146116bc57806364aff9ec146116725780636a030ca91461155f5780636a326ab1146114f55780636d361694146112a65780636ea056a914611238578063715018a6146111d357806375bb91b2146111b757806379ba5097146111395780637d53deff1461113457806381cd7439146111175780638456cb59146110bc57806388daf7f414610e0f5780638da5cb5b14610de85780639ccebcec14610d64578063a249668a14610d45578063acb27c6814610d29578063c384373a14610d0b578063c3c2265f14610c1d578063c7d2497414610bd9578063c8aa67b314610bbb578063d2d5ec4d14610b6d578063d402e4641461081b578063d5b141e7146107ec578063da68d47d1461078b578063df99e534146107d0578063e0a3dd961461078b578063e30c397814610762578063f09449ba14610609578063f2fde38b1461059c578063f5b969721461057c578063f60eb4bf146103fc578063f932ecac146102c45763fd967f47146102a5575061000e565b346102c157806003193601126102c15760206040516127108152f35b80fd5b50346102c15760403660031901126102c1576004356102e1613558565b6102e96139c1565b818352600a6020526040832080546001600160a01b0390811633036103ea578083169182156103d85761031b84613b6d565b620151804201928342116103c45791600c6103be927fe0ab772b3b6cddb6293c9c400e007d0bd007f54e8a59244023fb3360b89172ff9695946040519061036182613611565b81526001602082018781528a8c52600d6020528560408d209351166001600160601b0360a01b84541617835551910155015416916040519384938460409194939294606082019560018060a01b0380921683521660208201520152565b0390a280f35b634e487b7160e01b87526011600452602487fd5b60405163d92e233d60e01b8152600490fd5b6040516330cd747160e01b8152600490fd5b50346102c15760603660031901126102c1576004356024356001600160401b0381116105785761043090369060040161358a565b916044356001600160a01b03818116939184900361054e576104506139c1565b828652600a6020528060408720541633036103ea57600f54168015610566576040519263173e79bb60e01b84526004840152602083602481845afa92831561055b578693610522575b508215610510578594813b1561050c578580946104da9660405197889687958694633bda90a360e01b8652600486015260606024860152606485019161387c565b90604483015203925af18015610501576104f15750f35b6104fa90613679565b6102c15780f35b6040513d84823e3d90fd5b8580fd5b60405163a9146eeb60e01b8152600490fd5b9092506020813d602011610553575b8161053e6020938361368c565b8101031261054e57519138610499565b600080fd5b3d9150610531565b6040513d88823e3d90fd5b604051633c43607360e11b8152600490fd5b8280fd5b50346102c157806003193601126102c157602060405164e8d4a510008152f35b50346102c15760203660031901126102c1576105b661352b565b6105be613ab2565b600180546001600160a01b0319166001600160a01b0392831690811790915582549091167f38d16b8cac22d99fc7c124b9cd0de2d3fa1faef420bfe791d8c362d765e227008380a380f35b50346102c15760403660031901126102c1576004356024358015801580920361054e576106346139c1565b828452600a6020526040842080546001600160a01b03929083163381036103ea57857fa417ee948a5c9d2786613a25b5c7344175c18ea547f629c63f7de4ceaacb90986020600586019788549860ff8a169960ff83169060ff1916179055604051908152a31561071457541660405192600080516020613e0e8339815191528580a380610709575b6106c6575b505b80f35b60085460001981019081116106f557600080516020613dee83398151915291816020926008558152a1386106c1565b634e487b7160e01b83526011600452602483fd5b5060085415156106bc565b50509050156107205780f35b6008546001810180911161074e57602081600080516020613dee83398151915292600855604051908152a180f35b634e487b7160e01b82526011600452602482fd5b50346102c157806003193601126102c1576001546040516001600160a01b039091168152602090f35b50346102c157806003193601126102c1576040517f00000000000000000000000000000000000000000000000000000000000000006001600160a01b03168152602090f35b50346102c157806003193601126102c157602060405160648152f35b50346102c15760203660031901126102c15760ff60406020926004358152600c84522054166040519015158152f35b50346102c15760403660031901126102c1576004356024359061ffff8216809203610578576108486139c1565b610850613ac6565b8115610b5b5760405163596e890960e11b8152600481018290526001600160a01b03927f00000000000000000000000000000000000000000000000000000000000000008416919060e082602481865afa91821561055b578692610b2a575b506040516331a9108f60e11b815260048101859052602095908681602481885afa908115610b1f578891610af2575b5081339116036103ea57600160ff878501511603610ae057848752600c865260ff604088205416610ace5782518752600a8652604087209160065461092860048501548092613b03565b60078401548015610abc578261093d91613958565b9264e8d4a510008411610aaa57610961918160018701541633928754169186613bf1565b509490936001600160401b03908160608401511684428211600014610a9a57600861098f92935b0154613958565b906201518091828102928184041490151715610a865782918c936109b39216613829565b1696803b15610a82578190604460405180948193633f97add560e21b83528d60048401528c60248401525af18015610a7757610a37575b50917fffa941bdd74336abc13129ba18ac9721bf531ff9f07161484dfb56f1f28dd5be95939160a095935198604051958652850152604084015260608301526080820152a3600160025580f35b9160a095939199610a6a7fffa941bdd74336abc13129ba18ac9721bf531ff9f07161484dfb56f1f28dd5be989694613679565b99919395509193956109ea565b6040513d8c823e3d90fd5b5080fd5b634e487b7160e01b8c52601160045260248cfd5b61098f9150600884421693610988565b60405163127f08c960e11b8152600490fd5b604051631140cf7f60e01b8152600490fd5b604051633806084560e11b8152600490fd5b6040516302b79ed360e41b8152600490fd5b610b129150873d8911610b18575b610b0a818361368c565b810190613939565b386108de565b503d610b00565b6040513d8a823e3d90fd5b610b4d91925060e03d60e011610b54575b610b45818361368c565b8101906138ab565b90386108af565b503d610b3b565b604051637616640160e01b8152600490fd5b50346102c15760203660031901126102c1577f3a266fd63d408074525facb4c91054de12d4e7bf0cad93604b63ef604f96e7fc6020600435610bad613ab2565b80600955604051908152a180f35b50346102c157806003193601126102c1576020600854604051908152f35b50346102c15760203660031901126102c1576004358152600d6020908152604091829020805460019091015483516001600160a01b03909216825291810191909152f35b50346102c15760203660031901126102c15760405163596e890960e11b8152600480359082018190526001600160a01b0360e0836024817f000000000000000000000000000000000000000000000000000000000000000085165afa928315610d00578493610cdf575b5082518452600a60205260408420541633036103ea57808352600c60205260408320805460ff19166001179055905133917fa0fdfae94a7f0d72d671fdddac883ffa712b07cfc84408bfb3ced264d1fc58f18480a480f35b610cf991935060e03d60e011610b5457610b45818361368c565b9138610c87565b6040513d86823e3d90fd5b50346102c157806003193601126102c1576020600554604051908152f35b50346102c157806003193601126102c157602060405160028152f35b50346102c157806003193601126102c1576020604051633b9aca008152f35b50346102c15760403660031901126102c157602435600435610d846139c1565b808352600a6020526040832080546001600160a01b031633036103ea57600b90610dad84613b28565b0191808354935560405192835260208301527f6f410fdce106b8b5c37fa32842357b3f2ecea680083897d5490141b384e1bb0160403393a380f35b50346102c157806003193601126102c157546040516001600160a01b039091168152602090f35b50346102c15760803660031901126102c157610e2961351b565b610e316135b7565b90610e3a6135c8565b610e426139c1565b610e4a613ac6565b6004358452600a602052604084209060ff600583015416156110aa57600654610e7860048401548092613b03565b610e9660ff6009850154610e8d8282166139df565b60081c16613a25565b610ec3610ea4868686613ba4565b60018501548554919333926001600160a01b0390811692169085613bf1565b508796600160ff881614611051575b5061ffff6009860154600a87015460405196610eed88613642565b600435885260ff8a16602089015260ff831660408901526001600160401b038b1660608901521515608088015260a087015260101c1660c0850152610f496040519463424d8dbf60e11b8652336004870152602486019061396b565b602084610104818b7f00000000000000000000000000000000000000000000000000000000000000006001600160a01b03165af1938415610b1f578894611017575b506005849055600994909401546040805160ff978816815296821660208801526001600160401b039097169686019690965260109590951c61ffff166060850152608084015260a083019390935260c08201523391600435917f83a9edc2809eed4960fd3ccb7da06a85b3e878e6e1568e8ca281ae543adcc493908060e081015b0390a4600160025580f35b9093506020813d602011611049575b816110336020938361368c565b8101031261104557519261100c610f8b565b8780fd5b3d9150611026565b61106791975061ffff6008870154911690613958565b62015180908181029181830414901517156110965761108e6001600160401b039142613829565b169538610ed2565b634e487b7160e01b88526011600452602488fd5b60405163665c1c5760e01b8152600490fd5b50346102c157806003193601126102c1576110d5613ab2565b6110dd6139c1565b600160ff1960035416176003557f62e78cea01bee320cd4e420270b5ea74000d11b0c9f74754ebdbfc544b05a2586020604051338152a180f35b50346102c157806003193601126102c15760206040516107d08152f35b61356e565b50346102c157806003193601126102c1576001546001600160a01b03338183160361119f576001600160a01b031991821660015582543392811683178455167f8be0079c531659141344cd1fd0a4f28419497f9722a3daafe3b4186f6b6457e08380a380f35b60405163118cdaa760e01b8152336004820152602490fd5b50346102c157806003193601126102c157602090604051908152f35b50346102c157806003193601126102c1576111ec613ab2565b600180546001600160a01b03199081169091558154908116825581906001600160a01b03167f8be0079c531659141344cd1fd0a4f28419497f9722a3daafe3b4186f6b6457e08280a380f35b50346102c15760403660031901126102c15761125261352b565b60243561125d613ab2565b6001600160a01b0382169182156103d8578161129c7f6e20afaadac1247355fa762fa54c781b1749acd4853577725d30ff0acf2d8ed093602093613d03565b604051908152a280f35b50346102c15760203660031901126102c157806040916101c083516112ca8161365d565b8281528260208201526060858201526060808201528260808201528260a08201528260c08201528260e08201528261010082015282610120820152826101408201528261016082015282610180820152826101a082015201526004358152600a602052206040519061133b8261365d565b80546001600160a01b0390811683526001820154166020830152611361600282016136ad565b6040830152611372600382016136ad565b60608301526004810154608083015260ff600582015416151560a0830152600681015460c0830152600781015460e0830152600881015461010083015261ffff600982015460ff811661012085015260ff8160081c1661014085015260101c16610160830152600a810154610180830152600b8101546101a0830152600c60018060a01b03910154166101c082015260405180916020825260018060a01b03815116602083015260018060a01b03602082015116604083015261145f61144960408301516101e06060860152610200850190613752565b6060830151848203601f19016080860152613752565b90608081015160a084015260a0810151151560c084015260c081015160e084015260e081015161010084015261010081015161012084015260ff6101208201511661014084015260ff6101408201511661016084015261ffff610160820151166101808401526101808101516101a08401526101a08101516101c08401526101c060018060a01b03910151166101e08301520390f35b50346102c15760203660031901126102c15761150f61352b565b611517613ab2565b6001600160a01b031680156103d857601080546001600160a01b031916821790557fcb0aeffe884eb88fb2a31a2f3e4bd1d2763bdee48ba93b28c6e87501228cf7438280a280f35b50346102c15760203660031901126102c1576004358152600a60205260409020805460018201546001600160a01b0390811692918116916115a2600282016136ad565b906115af600382016136ad565b92600482015493600583015460ff166006840154600785015490600886015492600987015494600a88015496600b89015498600c015416986040519c8d9c8d6101e092839282526020820152604001528c0161160a91613752565b8b810360608d015261161b91613752565b9860808b0152151560a08a015260c089015260e088015261010087015260ff81166101208701528060081c60ff1661014087015260101c61ffff166101608601526101808501526101a08401526101c08301520390f35b50346102c15760603660031901126102c15761168c61352b565b611694613558565b9061169d613ab2565b6001600160a01b0391808316156103d8576106c3926044359216613cc2565b50346102c15760203660031901126102c1576004356116d9613ab2565b60405163596e890960e11b81526004810182905260e0816024817f00000000000000000000000000000000000000000000000000000000000000006001600160a01b03165afa90811561178e57839161176f575b50818352600c60205260408320805460ff191660011790555133917fa0fdfae94a7f0d72d671fdddac883ffa712b07cfc84408bfb3ced264d1fc58f18480a480f35b611788915060e03d60e011610b5457610b45818361368c565b3861172d565b6040513d85823e3d90fd5b50346102c157806003193601126102c1576020600454604051908152f35b50346102c157806003193601126102c157602060ff600354166040519015158152f35b50346102c157806003193601126102c1576020604051620151808152f35b50346102c15760a03660031901126102c15761181261351b565b61181a6135b7565b6118226135c8565b906084356001600160401b038111611ae75761184290369060040161358a565b909161184c6139c1565b611854613ac6565b6004358652600a602052604086209060ff600583015416156110aa5785936006549261188560048201548095613b03565b61189a60ff6009830154610e8d8282166139df565b6118c76118a8848884613ba4565b60018301548354919633926001600160a01b0390811692169088613bf1565b509690928a94600160ff841614611a80575b5060209161197261195e9260098601549b600a8701549c61ffff9d8e9260ff6040519761190589613642565b6004358952168988015260ff831660408801526001600160401b038c1660608801521515608087015260a086015260101c1660c0840152604051998a94859463b03fbfbb60e01b8652336004870152602486019061396b565b61012061010485015261012484019161387c565b03818c7f00000000000000000000000000000000000000000000000000000000000000006001600160a01b03165af1948515611a75578995611a35575b506005859055600901546040805160ff998a16815298821660208a01526001600160401b039093169288019290925261ffff60109290921c909516166060860152608085015260a084019290925260c0830152339160043591907f83a9edc2809eed4960fd3ccb7da06a85b3e878e6e1568e8ca281ae543adcc493908060e0810161100c565b919450946020823d602011611a6d575b81611a526020938361368c565b81010312611a69579051909490939061100c6119af565b8880fd5b3d9150611a45565b6040513d8b823e3d90fd5b6008840154919550611a97925061ffff1690613958565b62015180908082810204821481151715611ad357896119726001600160401b03611ac860209561195e950242613829565b1696925050916118d9565b634e487b7160e01b8b52601160045260248bfd5b8480fd5b50346102c1576101803660031901126102c1576004356001600160401b038111610a8257611b1d90369060040161358a565b906024356001600160401b0381116120d157611b3d90369060040161358a565b92906044356001600160401b03811161050c57611b5e90369060040161358a565b929093611b696134fa565b93611bdf611b7561350a565b92611b7e613541565b94611b876139c1565b611b92606435613ae7565b611ba0606435600654613b03565b611ba9886139df565b611bb285613a25565b611bc360c43560a435608435613a6b565b611bcf61014435613b28565b611bd886613b6d565b36916137d6565b60208151910120338952600b60205260408920908952602052604088209561ffff806001890154161461051057865480612044575b506009548015159081612037575b506120255760045497611c348961381a565b600455888a52600a60205260408a2095336001600160601b0360a01b88541617875560018701336001600160601b0360a01b8254161790556001600160401b038211612011578190611c8960028901546135d7565b601f8111611fbf575b508b90601f8311600114611f53578c92611f48575b50508160011b916000199060031b1c19161760028601555b6001600160401b038211611f3457611cda60038601546135d7565b601f8111611ef0575b508890601f8311600114611e775792826001979593611d729361ffff98968d92611e6c575b505081891b916000199060031b1c19161760038501555b606435600485015560058401805460ff191688179055608435600685015560a435600785015560c43560088086019190915560098501805461ffff191660ff979097169690961791901b61ff0016178455565b61012435600a83015561014435600b83015560a085901b8590039080821615611e6257600c90925b0180546001600160a01b03191691909216179055835415611e4557611de0611dc6838587015416613792565b825463ffff00001916601082901b63ffff00001617909255565b8484551661ffff19828401541617910155600854600181018091116106f557602081600080516020613dee83398151915292600855604051908152a133907f0da0a1595d5f9a5872904ca8eceb17d6befc55070d4fd387e4c2f1d4553dd01a8380a380f35b805463ffff00001916601084901b63ffff00001617905581611de0565b50600c3392611d9a565b013590503880611d08565b600386018a5260208a20918a5b601f1985168110611ed8575083611d729361ffff98969360019a9896938b94601f19811610611ebe575b505050811b016003850155611d1f565b0135600019600384901b60f8161c19169055388080611eae565b90926020600181928686013581550194019101611e84565b600386018a5260208a20601f840160051c810160208510611f2d575b601f830160051c82018110611f22575050611ce3565b8b8155600101611f0c565b5080611f0c565b634e487b7160e01b89526041600452602489fd5b013590503880611ca7565b600289018d5260208d208d9450915b601f1984168510611fa7576001945083601f19811610611f8d575b505050811b016002860155611cbf565b0135600019600384901b60f8161c19169055388080611f7d565b81810135835560209485019460019093019201611f62565b909150600288018c5260208c20601f840160051c81016020851061200a575b84939291908e5b601f840160051c83018210611ffc57505050611c92565b81558594506001018e611fe5565b5080611fde565b634e487b7160e01b8b52604160045260248bfd5b604051635703766960e01b8152600490fd5b9050600854101538611c22565b8952600a6020526040892060058101805460ff8116612065575b5050611c14565b60ff191690556008548061209d575b50875490546001600160a01b031690600080516020613e0e8339815191528b80a338808061205e565b80600019810111611ad357600019016008819055604051908152600080516020613dee83398151915290602090a138612074565b8380fd5b50346102c157806003193601126102c1576007546040516001600160a01b039091168152602090f35b50346102c15760403660031901126102c15760409081906001600160a01b0361212561352b565b168152600b60205281812060243582526020522061ffff600182549201541682519182526020820152f35b50346102c157806003193601126102c157612169613ab2565b60035460ff8116156121a95760ff19166003557f5db9ee0a495bf2e6ff9c91a7834c1ba4fdd244a5e8aa4e537bd38aeae4b073aa6020604051338152a180f35b604051638dfc202b60e01b8152600490fd5b50346102c15760403660031901126102c1576004356121d8613558565b6121e0613ab2565b6121e982613ae7565b6107d0821161224c576001600160a01b031680156103d857816040917fc5732485634831b5e1b586e2011c5f2b392fe136310c230cf1f04d6caf30c15a93600655806001600160601b0360a01b600754161760075582519182526020820152a180f35b60405163c1bd884560e01b8152600490fd5b50346102c157602080600319360112610a825760405163596e890960e11b815260048035908201819052916001600160a01b03917f000000000000000000000000000000000000000000000000000000000000000083169160e082602481865afa91821561055b5786926123d9575b50848652600c81528060ff604088205416956024604051809681936331a9108f60e11b835260048301525afa92831561055b579560c09681946123ba575b5060ff8284015116916001600160401b0360608501511693876000146123555750815b604051971515885215159087015215156040860152606085015260808401521660a0820152f35b8315925082156123b0575b6040015160ff1691808061239c575b928161237d575b509161232e565b6002811491508115612391575b5038612376565b60039150143861238a565b50600183148061236f57506003831461236f565b4285119250612360565b6123d2919450823d8411610b1857610b0a818361368c565b923861230b565b6123f391925060e03d60e011610b5457610b45818361368c565b90386122cd565b50346102c1576101a03660031901126102c1576004356001600160401b038111610a825761242c90369060040161358a565b6024356001600160401b0381116120d15761244b90369060040161358a565b92906044356001600160401b03811161050c5761246c90369060040161358a565b6124746134fa565b9061247d61350a565b90612486613541565b956001600160401b036101843511612b995760606101843536036003190112612b9957612510906124b56139c1565b6124bd613ac6565b8a986124ca606435613ae7565b6124d8606435600654613b03565b6124e1866139df565b6124ea85613a25565b6124fb60c43560a435608435613a6b565b61250761014435613b28565b611bd889613b6d565b60208151910120338a52600b60205260408a20908a52602052604089209361ffff806001870154161461051057845480612b0c575b506009548015159081612aff575b5061202557600454986125658a61381a565b600455898b52600a60205260408b2096336001600160601b0360a01b89541617885560018801336001600160601b0360a01b8254161790556001600160401b038211612aeb5781906125ba60028a01546135d7565b601f8111612a99575b508c90601f8311600114612a2d578d92612a22575b50508160011b916000199060031b1c19161760028701555b6001600160401b038211612a0e5761260b60038701546135d7565b601f81116129c9575b5089908a601f84116001146129515792806126a29361ffff96936001989692612946575b505081871b916000199060031b1c19161760038801555b606435600488015560058701805460ff191686179055608435600688015560a435600788015560c43560088089019190915560098801805461ffff191660ff959095169490941791901b61ff0016178255565b61012435600a86015561014435600b860155828060a01b0386161515948560001461293d57600c87915b0190848060a01b03166001600160601b0360a01b8254161790558354151560001461292057612702611dc6838587015416613792565b8784551661ffff198284015416179101556008546001810180911161290c57602081600080516020613dee83398151915292600855604051908152a16040519133857f0da0a1595d5f9a5872904ca8eceb17d6befc55070d4fd387e4c2f1d4553dd01a8880a36127786004610184350180613836565b9050612794575b60408585600160025582519182526020820152f35b600f546001600160a01b03169350909183156128fd575061018435602401916001600160a01b036127c484613868565b16156128e25750506127d7602091613868565b915b6127e96004610184350180613836565b91909386866128596128076044610184350161018435600401613836565b6128476040519a8b998a9889976337a1b71960e01b89523360048a0152602489015260018060a01b0316604488015260a0606488015260a487019161387c565b8481036003190160848601529161387c565b03925af18391816128ae575b5061287c576040516371a31c2760e01b8152600490fd5b60409281837f40cd9ad911657e73bc37df0291d3b65b0da93eebffd743e2e74b46536c3a30ec339380a438808061277f565b9091506020813d6020116128da575b816128ca6020938361368c565b810103126120d157519038612865565b3d91506128bd565b909150156128f4576020905b916127d9565b506020336128ee565b633c43607360e11b8152600490fd5b634e487b7160e01b86526011600452602486fd5b805463ffff00001916601084901b63ffff00001617905581612702565b600c33916126cc565b013590503880612638565b50600387018b5260208b20918b5b601f19851681106129b15750836126a29361ffff969360019896938994601f19811610612997575b505050811b01600388015561264f565b0135600019600384901b60f8161c19169055388080612987565b9092602060018192868601358155019401910161295f565b600387018b5260208b20601f840160051c810160208510612a07575b8c601f840160051c830182106129fd57505050612614565b81556001016129e5565b50806129e5565b634e487b7160e01b8a52604160045260248afd5b0135905038806125d8565b60028a018e5260208e208e9450915b601f1984168510612a81576001945083601f19811610612a67575b505050811b0160028701556125f0565b0135600019600384901b60f8161c19169055388080612a57565b81810135835560209485019460019093019201612a3c565b909150600289018d5260208d20601f840160051c810160208510612ae4575b84939291908f5b601f840160051c83018210612ad6575050506125c3565b81558594506001018f612abf565b5080612ab8565b634e487b7160e01b8c52604160045260248cfd5b9050600854101538612553565b8a52600a60205260408a2060058101805460ff8116612b2d575b5050612545565b60ff1916905560085480612b65575b50855490546001600160a01b031690600080516020613e0e8339815191528c80a3388080612b26565b80600019810111610a8657600019016008819055604051908152600080516020613dee83398151915290602090a138612b3c565b8980fd5b50346102c157806003193601126102c1576010546040516001600160a01b039091168152602090f35b50346102c1576101403660031901126102c1576004356001600160401b038111610a8257612bf890369060040161358a565b6024356001600160401b0381116120d157612c1790369060040161358a565b92906044356001600160401b03811161050c57612c3890369060040161358a565b612c94612c469592956134fa565b94612c4f61350a565b93612c586139c1565b612c63606435613ae7565b612c71606435600654613b03565b612c7a876139df565b612c8385613a25565b611bd860c43560a435608435613a6b565b60208151910120338852600b60205260408820908852602052604087209461ffff806001880154161461051057855480613012575b506009548015159081613005575b506120255760045496612ce98861381a565b600455878952600a6020526040892094336001600160601b0360a01b87541617865560018601336001600160601b0360a01b8254161790556001600160401b038211612a0e578190612d3e60028801546135d7565b601f8111612fb4575b508a90601f8311600114612f48578b92612f3d575b50508160011b916000199060031b1c19161760028501555b6001600160401b038211612f2957612d8f60038501546135d7565b601f8111612ee5575b508790601f8311600114612e6c576001959383600c9461ffff9794612e28948d92612e61575b505081891b916000199060031b1c19161760038401555b606435600484015560058301805460ff191688179055608435600684015560a435600784015560c43560088085019190915560098401805461ffff191660ff979097169690961791901b61ff0016178455565b61012435600a820155600b81018890550180546001600160a01b03191633179055835415611e4557611de0611dc6838587015416613792565b013590503880612dbe565b6003850189526020892091895b601f1985168110612ecd57509360018461ffff9794612e2894839a98600c98601f19811610612eb3575b505050811b016003840155612dd5565b0135600019600384901b60f8161c19169055388080612ea3565b90926020600181928686013581550194019101612e79565b60038501895260208920601f840160051c810160208510612f22575b601f830160051c82018110612f17575050612d98565b8a8155600101612f01565b5080612f01565b634e487b7160e01b88526041600452602488fd5b013590503880612d5c565b600288018c5260208c208c9450915b601f1984168510612f9c576001945083601f19811610612f82575b505050811b016002850155612d74565b0135600019600384901b60f8161c19169055388080612f72565b81810135835560209485019460019093019201612f57565b909150600287018b5260208b20601f840160051c810160208510612ffe575b90849392915b8d601f840160051c83018210612ff157505050612d47565b8155859450600101612fd9565b5080612fd3565b9050600854101538612cd7565b8852600a6020526040882060058101805460ff8116613033575b5050612cc9565b60ff191690556008548061306b575b50865490546001600160a01b031690600080516020613e0e8339815191528a80a338808061302c565b8060001981011161309f57600019016008819055604051908152600080516020613dee83398151915290602090a138613042565b634e487b7160e01b8a52601160045260248afd5b50346102c15760203660031901126102c1576130cd61352b565b6130d5613ab2565b6001600160a01b031680156103d857600f80546001600160a01b031916821790557f1c3b6db6b438df64d69fe11676a03581a3860962063a836411d7cac590063f568280a280f35b50346102c157806003193601126102c1576020600654604051908152f35b50346102c15760203660031901126102c157600435808252600a60205260408220546001600160a01b031633036103ea578152600d60205280600160408220828155015580f35b50346102c15760203660031901126102c15761319c61352b565b6131a4613ab2565b6001600160a01b031680156103d857600e80546001600160a01b031916821790557f17842ab69b80ec00f544dd5b40889875faad4813ee423844f70217bd9a7d964f8280a280f35b50346102c157806003193601126102c1576020600954604051908152f35b50346102c157602080600319360112610a8257600435808352600a82526040832080549192916001600160a01b0390811633036103ea57838552600d8352604085209060016040519261325c84613611565b828154168452015484830190808252156132ec575142106132da577fea983ef69798673fd095eaf6ce96e30087e2403d023c0b66930487e5216d53879381600c6040950193845494828251166001600160601b0360a01b8716179055878952600d83528860018782208281550155511691845193168352820152a280f35b60405163621e25c360e01b8152600490fd5b60405163147fde5f60e31b8152600490fd5b50346102c157806003193601126102c157600e546040516001600160a01b039091168152602090f35b50346102c157806003193601126102c157600f546040516001600160a01b039091168152602090f35b50346102c15760203660031901126102c15760406080916004358152600a60205220600b81015490600460018060a01b03600c8301541691015460065491604051938452602084015260408301526060820152f35b50346102c15760e03660031901126102c15760443560043560843560ff811690602435906064358382036134f65760a4359060ff82168203611045576133e96139c1565b858852600a60205260408820805490976001600160a01b03959091861633036103ea57613418613460956139df565b61342184613a25565b61342c838383613a6b565b600689015560078801556008870155600986019360ff19855416178455839061ff0082549160081b169061ff001916179055565b61ffff80835460101c16908114610510577fa417ee948a5c9d2786613a25b5c7344175c18ea547f629c63f7de4ceaacb90989260209260ff926005926134c89180156134e3576134af90613792565b63ffff000082549160101b169063ffff00001916179055565b60c435600a880155865416950154166040519015158152a380f35b50805463ffff0000191662010000179055565b8680fd5b60e4359060ff8216820361054e57565b610104359060ff8216820361054e57565b6024359060ff8216820361054e57565b600435906001600160a01b038216820361054e57565b61016435906001600160a01b038216820361054e57565b602435906001600160a01b038216820361054e57565b3461054e57600036600319011261054e57602060405160018152f35b9181601f8401121561054e578235916001600160401b03831161054e576020838186019501011161054e57565b6044359061ffff8216820361054e57565b60643590811515820361054e57565b90600182811c92168015613607575b60208310146135f157565b634e487b7160e01b600052602260045260246000fd5b91607f16916135e6565b604081019081106001600160401b0382111761362c57604052565b634e487b7160e01b600052604160045260246000fd5b60e081019081106001600160401b0382111761362c57604052565b6101e081019081106001600160401b0382111761362c57604052565b6001600160401b03811161362c57604052565b90601f801991011681019081106001600160401b0382111761362c57604052565b906040519182600082546136c0816135d7565b9081845260209460019160018116908160001461373057506001146136f1575b5050506136ef9250038361368c565b565b600090815285812095935091905b8183106137185750506136ef93508201013880806136e0565b855488840185015294850194879450918301916136ff565b925050506136ef94925060ff191682840152151560051b8201013880806136e0565b919082519283825260005b84811061377e575050826000602080949584010152601f8019910116010190565b60208183018101518483018201520161375d565b90600161ffff809316019182116137a557565b634e487b7160e01b600052601160045260246000fd5b6001600160401b03811161362c57601f01601f191660200190565b9291926137e2826137bb565b916137f0604051938461368c565b82948184528183011161054e578281602093846000960137010152565b919082039182116137a557565b60001981146137a55760010190565b919082018092116137a557565b903590601e198136030182121561054e57018035906001600160401b03821161054e5760200191813603831361054e57565b356001600160a01b038116810361054e5790565b908060209392818452848401376000828201840152601f01601f1916010190565b519060ff8216820361054e57565b908160e091031261054e57604051906138c382613642565b805182526138d36020820161389d565b60208301526138e46040820161389d565b604083015260608101516001600160401b038116810361054e576060830152608081015190811515820361054e5760c091608084015260a081015160a0840152015161ffff8116810361054e5760c082015290565b9081602091031261054e57516001600160a01b038116810361054e5790565b818102929181159184041417156137a557565b61ffff60c080928051855260ff602082015116602086015260ff60408201511660408601526001600160401b03606082015116606086015260808101511515608086015260a081015160a0860152015116910152565b60ff600354166139cd57565b60405163d93c066560e01b8152600490fd5b60ff1660018114908115613a1a575b8115613a0f575b50156139fd57565b604051630eb911d560e01b8152600490fd5b6003915014386139f5565b6002811491506139ee565b60ff1660018114908115613a60575b8115613a55575b5015613a4357565b604051632abf7d0d60e21b8152600490fd5b600391501438613a3b565b600281149150613a34565b801580613aaa575b610abc5764e8d4a51000809111908115613aa0575b50610aaa57613a9757610b5b57565b600111610b5b57565b9050811138613a88565b508115613a73565b6000546001600160a01b0316330361119f57565b6002805414613ad55760028055565b604051633ee5aeb560e01b8152600490fd5b61271010613af157565b60405163c6cc5d7f60e01b8152600490fd5b61271091613b1091613829565b11613b1757565b60405162c9a16b60e31b8152600490fd5b8015159081613b4b575b50613b3957565b604051632e0d2f7560e01b8152600490fd5b6064811091508115613b5f575b5038613b32565b633b9aca0091501138613b58565b6001600160a01b03811615159081613b99575b50613b8757565b6040516311970e2d60e31b8152600490fd5b90503b151538613b80565b9060ff1680613bbd57506006915001548015610abc5790565b600103610ae05760070154908115610abc5761ffff168015610b5b57613be291613958565b64e8d4a510008111610aaa5790565b60105491956001600160a01b0395949093909286168015613cb0576127109788600654613c1e9086613958565b0498613c2b8a9286613958565b0497889283613c3a848861380d565b90613c449161380d565b6040516323b872dd60e01b60208201526001600160a01b039a909a1660248b01523060448b01526064808b01979097529589529497889590613c8760848261368c565b613c9091613d85565b6007541690613c9e91613d68565b613ca791613d68565b6136ef91613d68565b60405163a51ad60560e01b8152600490fd5b60405163a9059cbb60e01b60208201526001600160a01b039290921660248301526044808301939093529181526136ef91613cfe60648361368c565b613d85565b8115613d64576000918291829182916001600160a01b03165af13d15613d5f573d613d2d816137bb565b90613d3b604051928361368c565b8152600060203d92013e5b15613d4d57565b6040516312171d8360e31b8152600490fd5b613d46565b5050565b908015613d64576010546136ef92906001600160a01b0316613cc2565b906000602091828151910182855af115613de1576000513d613dd857506001600160a01b0381163b155b613db65750565b604051635274afe760e01b81526001600160a01b039091166004820152602490fd5b60011415613daf565b6040513d6000823e3d90fdfe00a17e39748f90dcc231579b95804358753dc835acd3f3972717efc03a8b5511c3090e5fbc3f92a65283d58dece4ae699cc0ca8e124dbc474240bb1aed0b77e7a2646970667358221220c703588b21050e7195cbcaae7180cf6c75b86284b28df42163568e7f17f7109564736f6c63430008180033608034620003d557601f906001600160401b0390601f19906200215c388190038581018416830185811184821017620003bf57839282916040528339602092839181010312620003d557516001600160a01b03948582169491859003620003d5576200006a620003da565b92601584527f4d61726b6574706c6163654149204c6963656e73650000000000000000000000818501526200009e620003da565b9060078252664d5041494c494360c81b81830152845195848711620003bf576000968754966001978881811c91168015620003b4575b85821014620003a0579081878493116200034d575b508490878311600114620002ec578a92620002e0575b5050600019600383901b1c191690871b1787555b8251948511620002cc5785548681811c91168015620002c1575b83821014620002ad5790818587969594931162000254575b5081938511600114620001ef5750508592620001e3575b5050600019600383901b1c191690821b1790555b3315620001cb5760065460018060a01b03199133838316176006557f8be0079c531659141344cd1fd0a4f28419497f9722a3daafe3b4186f6b6457e0604051953393169180a36007541617600755611d619081620003fb8239f35b60249060405190631e4fbdf760e01b82526004820152fd5b0151905038806200015c565b869593929193168588528388209388905b8282106200023a575050841162000220575b505050811b01905562000170565b015160001960f88460031b161c1916905538808062000212565b848401518655889790950194938401939081019062000200565b9091929394508688528288208580880160051c820192858910620002a3575b9188978a9297969594930160051c01915b8281106200029457505062000145565b8a815588975089910162000284565b9250819262000273565b634e487b7160e01b88526022600452602488fd5b90607f16906200012d565b634e487b7160e01b87526041600452602487fd5b015190503880620000ff565b90848a9416918b8052868c20928c5b888282106200033657505084116200031c575b505050811b01875562000113565b015160001960f88460031b161c191690553880806200030e565b8385015186558d97909501949384019301620002fb565b909150898052848a208780850160051c82019287861062000396575b918b91869594930160051c01915b82811062000387575050620000e9565b8c81558594508b910162000377565b9250819262000369565b634e487b7160e01b8a52602260045260248afd5b90607f1690620000d4565b634e487b7160e01b600052604160045260246000fd5b600080fd5b60408051919082016001600160401b03811183821017620003bf5760405256fe6080604081815260048036101561001557600080fd5b600092833560e01c90816301ffc9a71461100f5750806306fdde0314610f5e578063081812fc14610f23578063095ea7b314610e47578063162094c414610cc557806318160ddd14610ca657806323b872dd14610c8e57806342842e0e14610c5f57806355f804b314610ad85780636352211e14610aa757806370a0823114610a52578063715018a6146109f557806373ad6c2d146109b5578063849b1b7e146108b25780638da5cb5b1461088957806395d89b411461079e578063a22cb465146106fd578063abc8c7af146106d4578063b03fbfbb14610482578063b2dd121214610371578063b88d4fde146102e0578063c87b56dd146102a5578063e985e9c514610253578063f2fde38b146101c95763fe5eb7541461013657600080fd5b346101c557816003193601126101c55735602435906001600160401b03821682036101c1576101be9260019161018e838060a01b0361017a816007541633146112a1565b8288526002602052838820541615156112e0565b855260096020528420019069ffffffffffffffff000082549160101b169069ffffffffffffffff00001916179055565b80f35b8380fd5b8280fd5b50346101c55760203660031901126101c5576101e36110c3565b906101ec61191f565b6001600160a01b0391821692831561023d575050600654826001600160601b0360a01b821617600655167f8be0079c531659141344cd1fd0a4f28419497f9722a3daafe3b4186f6b6457e08380a380f35b51631e4fbdf760e01b8152908101849052602490fd5b5050346102a157806003193601126102a15760ff816020936102736110c3565b61027b6110de565b6001600160a01b0391821683526005875283832091168252855220549151911615158152f35b5080fd5b5091346102dd5760203660031901126102dd57506102c66102d99235611544565b905191829160208352602083019061109e565b0390f35b80fd5b5090346101c55760803660031901126101c5576102fb6110c3565b6103036110de565b6044359185606435956001600160401b0387116102a157366023880112156102a1578601359561033e6103358861124c565b965196876111a2565b86865236602488830101116102a157866101be97602460209301838901378601015261036b838383611319565b33611bdd565b5090346101c557602091826003193601126101c157908060e094600393358160c0845161039d81611156565b828152828982015282868201528260608201528260808201528260a08201520152808252600286526103db60018060a01b03848420541615156112e0565b815260098552208151916103ee83611156565b8154948584526001830154918185019060ff8416825260ff818701818660081c1681526001600160401b03948260608a0195878960101c1687528160808c019960501c161515895260c060028b01549a60a08d019b8c5261ffff9d8e910154169b019a8b5285519c8d525116908b01525116908801525116606086015251151560808501525160a0840152511660c0820152f35b5090346101c5576101203660031901126101c55761049e6110c3565b926104a8366111c3565b6001600160401b0391610104358381116102a1576104c990369087016110f4565b9190600160a01b600190036007541633146104e3906112a1565b6008546104ef9061151f565b968760085587835260209860098a52888885209680518855600197888101908d83015160ff16918054928d85015160081b61ff00169061ffff19809516171781558b60608501511661056290829069ffffffffffffffff000082549160101b169069ffffffffffffffff00001916179055565b6080840151151581549060ff60501b9060501b169060ff60501b191617905560a083015160028201556003019160c0015161ffff16908254161790556105a79161194b565b836105b6575b88888851908152f35b878352600b89528683209584116106c157506105d28554611267565b601f811161067b575b5081601f841160011461061c5791839491849394610611575b50501b916000199060031b1c19161790555b3880808080806105ad565b0135925038806105f4565b9183601f1981168785528a8520945b8b88838310610664575050501061064a575b505050811b019055610606565b0135600019600384901b60f8161c1916905538808061063d565b85870135885590960195938401938793500161062b565b858352888320601f850160051c8101918a86106106b7575b601f0160051c019085905b8281106106ac5750506105db565b84815501859061069e565b9091508190610693565b634e487b7160e01b835260419052602482fd5b5050346102a157816003193601126102a15760075490516001600160a01b039091168152602090f35b5090346101c557806003193601126101c5576107176110c3565b906024359182151580930361079a576001600160a01b03169283156107855750338452600560205280842083855260205280842060ff1981541660ff8416179055519081527f17307eab39ab6107e8899845ad3d59bd9653f200f220920489ca2b5937696c3160203392a380f35b836024925191630b61174360e31b8352820152fd5b8480fd5b8284346102dd57806003193601126102dd578151918282600193600154946107c586611267565b9182855260209687600182169182600014610862575050600114610806575b5050506102d992916107f79103856111a2565b5192828493845283019061109e565b9190869350600183527fb10e2d527612073b26eecdfd717e6a320cf44b4afac2b0732d9fcbe2b7fa0cf65b82841061084a57505050820101816107f76102d96107e4565b8054848a018601528895508794909301928101610831565b60ff19168782015293151560051b860190930193508492506107f791506102d990506107e4565b5050346102a157816003193601126102a15760065490516001600160a01b039091168152602090f35b5050346102a1576101003660031901126102a157806109af6020936108d56110c3565b6108de366111c3565b6108f360018060a01b036007541633146112a1565b6108fe60085461151f565b9586938460085584815260098952208151815561ffff60c06003600184019360ff8c870151169480549561ff008c89015160081b16908619809816171781556109756001600160401b03606089015116829069ffffffffffffffff000082549160101b169069ffffffffffffffff00001916179055565b6080870151151581549060ff60501b9060501b169060ff60501b191617905560a0860151600282015501930151169082541617905561194b565b51908152f35b83346102dd5760203660031901126102dd576109cf6110c3565b6109d761191f565b60018060a01b03166001600160601b0360a01b600754161760075580f35b83346102dd57806003193601126102dd57610a0e61191f565b600680546001600160a01b0319811690915581906001600160a01b03167f8be0079c531659141344cd1fd0a4f28419497f9722a3daafe3b4186f6b6457e08280a380f35b5091346102dd5760203660031901126102dd576001600160a01b03610a756110c3565b16928315610a925750806020938392526003845220549051908152f35b91516322718ad960e21b815291820152602490fd5b5091346102dd5760203660031901126102dd5750610ac7602092356118e4565b90516001600160a01b039091168152f35b5082346102dd5760209160206003193601126102a1576001600160401b0381358181116101c157610b0c90369084016110f4565b929091610b1761191f565b8311610c4c5750610b29600a54611267565b601f8111610bed575b508293601f8311600114610b6f5750928293829392610b64575b50508160011b916000199060031b1c191617600a5580f35b013590508380610b4c565b601f198316947fc65a7bb8d6351c1cf70c95a316cc6a92839c986682d98bc35f958f4883f9d2a8929185905b878210610bd5575050836001959610610bbb575b505050811b01600a5580f35b0135600019600384901b60f8161c19169055838080610baf565b80600184968294958701358155019501920190610b9b565b7fc65a7bb8d6351c1cf70c95a316cc6a92839c986682d98bc35f958f4883f9d2a8601f840160051c81019160208510610c42575b601f0160051c01905b818110610c375750610b32565b848155600101610c2a565b9091508190610c21565b634e487b7160e01b845260419052602483fd5b5050346102a1576101be90610c7336611121565b91925192610c8084611187565b85845261036b838383611319565b83346102dd576101be610ca036611121565b91611319565b5050346102a157816003193601126102a1576020906008549051908152f35b509190346102a157806003193601126102a1578235926001600160401b039160243583811161079a57610cfb90369084016110f4565b92909160018060a01b0396610d15886007541633146112a1565b808752610d2e60209860028a52838920541615156112e0565b8652600b87528520938311610e345750610d488354611267565b601f8111610df1575b508394601f8311600114610d8e575093839482939492610d83575b50508160011b916000199060031b1c191617905580f35b013590503880610d6c565b90601f198316958486528286209286905b888210610dd957505083600195969710610dbf575b505050811b01905580f35b0135600019600384901b60f8161c19169055388080610db4565b80600184968294958701358155019501920190610d9f565b838552858520601f840160051c810191878510610e2a575b601f0160051c01905b818110610e1f5750610d51565b858155600101610e12565b9091508190610e09565b634e487b7160e01b855260419052602484fd5b5090346101c557806003193601126101c557610e616110c3565b91602435610e6e816118e4565b33151580610f10575b80610ee7575b610ed1576001600160a01b039485169482918691167f8c5be1e5ebec7d5bd14f71427d1e84f3dd0314c0f7b2291e5b200ac8c7c3b9258880a48452602052822080546001600160a01b031916909117905580f35b835163a9fbf51f60e01b81523381850152602490fd5b506001600160a01b03811686526005602090815284872033885290528386205460ff1615610e7d565b506001600160a01b038116331415610e77565b50346101c55760203660031901126101c557918260209335610f44816118e4565b50825283528190205490516001600160a01b039091168152f35b8284346102dd57806003193601126102dd5781519182828354610f8081611267565b9081845260209560019187600182169182600014610862575050600114610fb4575050506102d992916107f79103856111a2565b91908693508280527f290decd9548b62a8d60345a988386fc84ba6bc95484008f6362f93160ef3e5635b828410610ff757505050820101816107f76102d96107e4565b8054848a018601528895508794909301928101610fde565b925050346101c55760203660031901126101c5573563ffffffff60e01b81168091036101c557602092506380ac58cd60e01b811490811561106a575b8115611059575b5015158152f35b6301ffc9a760e01b14905038611052565b635b5e139f60e01b8114915061104b565b60005b83811061108e5750506000910152565b818101518382015260200161107e565b906020916110b78151809281855285808601910161107b565b601f01601f1916010190565b600435906001600160a01b03821682036110d957565b600080fd5b602435906001600160a01b03821682036110d957565b9181601f840112156110d9578235916001600160401b0383116110d957602083818601950101116110d957565b60609060031901126110d9576001600160a01b039060043582811681036110d9579160243590811681036110d9579060443590565b60e081019081106001600160401b0382111761117157604052565b634e487b7160e01b600052604160045260246000fd5b602081019081106001600160401b0382111761117157604052565b90601f801991011681019081106001600160401b0382111761117157604052565b60e09060231901126110d957604051906111dc82611156565b81602435815260443560ff811681036110d957602082015260643560ff811681036110d95760408201526084356001600160401b03811681036110d957606082015260a43580151581036110d957608082015260c43560a082015260e4359061ffff821682036110d95760c00152565b6001600160401b03811161117157601f01601f191660200190565b90600182811c92168015611297575b602083101461128157565b634e487b7160e01b600052602260045260246000fd5b91607f1691611276565b156112a857565b60405162461bcd60e51b815260206004820152601060248201526f6f6e6c79206d61726b6574706c61636560801b6044820152606490fd5b156112e757565b60405162461bcd60e51b815260206004820152600a6024820152696e6f742065786973747360b01b6044820152606490fd5b6001600160a01b0391821692909183156115065760009282845260209460028652604095868481882054169633151580611476575b5087151580611443575b84825260038452828220805460010190558782526002845282822080546001600160a01b0319168617905582519488908a7fddf252ad1be2c89b69c2b068fc378daa952ba7f163c4a11628f55a4df523b3ef8580a48061143b575b6113ec575b5050505016928383036113cb5750505050565b6064945051926364283d7b60e01b8452600484015260248301526044820152fd5b60098352206001015460501c60ff16156114075786816113b8565b62461bcd60e51b82526004820152601060248201526f6e6f74207472616e7366657261626c6560801b604482015260649150fd5b5060016113b3565b600088815260046020526040902080546001600160a01b0319169055888252600384528282208054600019019055611358565b909150806114c5575b1561148c5787903861134e565b8786886114a9576024915190637e27328960e01b82526004820152fd5b604491519063177e802f60e01b82523360048301526024820152fd5b5033871480156114ea575b8061147f575085815260048252338589832054161461147f565b5086815260058252878120338252825260ff88822054166114d0565b604051633250574960e11b815260006004820152602490fd5b600019811461152e5760010190565b634e487b7160e01b600052601160045260246000fd5b60008181526002602090815260408083205490939192906001600160a01b03161561188857818152600b8352838120845181549391818461158487611267565b9283835260019789898216918260001461186857505060011461182a575b506115af925003826111a2565b805161182157508451600a8054919484866115c985611267565b91828252898201958a85821691826000146118065750506001146117ab575b6115f4925003876111a2565b85511561179357849390817a184f03e93ff9f4daa797ed6e38ed64bf6a1f0100000000000000008181811015611785575b5050600a90896d04ee2d6d415b85acef810000000080831015611779575b5050662386f26fc100008082101561176c575b506305f5e1008082101561175f575b5061271080821015611752575b506064811015611744575b101561173b575b90816021866116ad838d99016116a561169c8261124c565b9a519a8b6111a2565b808a5261124c565b888c019990601f1901368b3750870101905b611705575b50505050906116f6611702959493926116e797519788955180928888019061107b565b8401915180938684019061107b565b010380845201826111a2565b90565b600019019083906f181899199a1a9b1b9c1cb0b131b232b360811b8282061a835304918215611736579190826116bf565b6116c4565b80940193611684565b60646002910496019561167d565b6004910496019538611672565b6008910496019538611665565b6010910496019538611656565b97019690048938611643565b8b9750049050600a38611625565b505050509291505051906117a682611187565b815290565b5050600a8652868887847fc65a7bb8d6351c1cf70c95a316cc6a92839c986682d98bc35f958f4883f9d2a85b8583106117ed5750506115f493508201016115e8565b80919294505483858d0101520191018990848a936117d7565b60ff191688526115f494151560051b84010191506115e89050565b94505050505090565b915050845281868086208787915b85831061184f5750506115af9350820101386115a2565b8091929450548385880101520191018790878593611838565b60ff1916858201526115af95151560051b85010192503891506115a29050565b835162461bcd60e51b815260048101849052602f60248201527f4552433732314d657461646174613a2055524920717565727920666f72206e6f60448201526e3732bc34b9ba32b73a103a37b5b2b760891b6064820152608490fd5b6000818152600260205260409020546001600160a01b0316908115611907575090565b60249060405190637e27328960e01b82526004820152fd5b6006546001600160a01b0316330361193357565b60405163118cdaa760e01b8152336004820152602490fd5b6040805161195881611187565b6000808252936001600160a01b03848116949092908515611bc5578287526020936002855285882054168015159081611b92575b878952600386528689206001815401905584895260028652868920886001600160601b0360a01b82541617905584888851927fddf252ad1be2c89b69c2b068fc378daa952ba7f163c4a11628f55a4df523b3ef8c80a48180611b8a575b611b40575b50611b28573b611a01575b505050505050565b82611a3f918596979894955180938192630a85bd0160e11b968784523360048501528c6024850152604484015260806064840152608483019061109e565b03818a8a5af1879181611ae4575b50611aad575050503d600014611aa4573d611a678161124c565b90611a74845192836111a2565b81528094823d92013e5b83519384611a9e578251633250574960e11b815260048101859052602490fd5b84925001fd5b60609350611a7e565b919550915063ffffffff60e01b1603611acd5750503880808080806119f9565b602492505190633250574960e11b82526004820152fd5b9091508481813d8311611b21575b611afc81836111a2565b81010312611b1d57516001600160e01b031981168103611b1d579038611a4d565b8780fd5b503d611af2565b84516339e3563760e11b815260048101889052602490fd5b6009865260ff6001888b20015460501c166119ee5762461bcd60e51b815260048101869052601060248201526f6e6f74207472616e7366657261626c6560801b6044820152606490fd5b5060016119e9565b600085815260046020526040902080546001600160a01b031916905580895260038652868920805460001901905561198c565b8451633250574960e11b815260048101889052602490fd5b90939192833b611bef575b5050505050565b604051630a85bd0160e11b8082526001600160a01b039384166004830152958316602482015260448101919091526080606482015294921692602092918590611c3c90608483019061109e565b039483816000978189895af1869181611ce7575b50611cb1575050503d600014611ca8573d611c6a8161124c565b90611c7860405192836111a2565b81528093823d92013e5b82519283611ca357604051633250574960e11b815260048101849052602490fd5b019050fd5b60609250611c82565b919450915063ffffffff60e01b1603611ccf57503880808080611be8565b60249060405190633250574960e11b82526004820152fd5b9091508481813d8311611d24575b611cff81836111a2565b81010312611d2057516001600160e01b031981168103611d20579038611c50565b8680fd5b503d611cf556fea26469706673582212205eb1a53bd08cf94efcc5a226a6663d836443b21eca9b093e3c9a1d40a9a2b14364736f6c63430008180033c3a99852514e5923cdffb2779c4b432ed502acf7b7ca78b2087a8c49d82bf6a7",
  "linkReferences": {},
  "deployedLinkReferences": {}
}