{"contracts/ModelSplitter.sol":{"ModelSplitter":{"abi":[{"inputs":[],"name":"BelowMinimumWithdrawal","type":"error"},{"inputs":[],"name":"InsufficientBalance","type":"error"},{"inputs":[],"name":"InvalidInitialization","type":"error"},{"inputs":[],"name":"InvalidRecipient","type":"error"},{"inputs":[],"name":"NotInitializing","type":"error"},{"inputs":[],"name":"NothingToDistribute","type":"error"},{"inputs":[],"name":"ReentrancyGuardReentrantCall","type":"error"},{"inputs":[{"internalType":"address","name":"token","type":"address"}],"name":"SafeERC20FailedOperation","type":"error"},{"anonymous":false,"inputs":[{"indexed":false,"internalType":"uint256","name":"amount","type":"uint256"},{"indexed":false,"internalType":"uint256","name":"sellerAmount","type":"uint256"},{"indexed":false,"internalType":"uint256","name":"creatorAmount","type":"uint256"},{"indexed":false,"internalType":"uint256","name":"marketplaceAmount","type":"uint256"}],"name":"Distributed","type":"event"},{"anonymous":false,"inputs":[{"indexed":false,"internalType":"uint64","name":"version","type":"uint64"}],"name":"Initialized","type":"event"},{"anonymous":false,"inputs":[{"indexed":true,"internalType":"address","name":"recipient","type":"address"},{"indexed":false,"internalType":"uint256","name":"amount","type":"uint256"}],"name":"Withdrawal","type":"event"},{"inputs":[],"name":"MAX_BPS","outputs":[{"internalType":"uint256","name":"","type":"uint256"}],"stateMutability":"view","type":"function"},{"inputs":[],"name":"MIN_WITHDRAWAL","outputs":[{"internalType":"uint256","name":"","type":"uint256"}],"stateMutability":"view","type":"function"},{"inputs":[{"internalType":"address","name":"","type":"address"}],"name":"balances","outputs":[{"internalType":"uint256","name":"","type":"uint256"}],"stateMutability":"view","type":"function"},{"inputs":[],"name":"creator","outputs":[{"internalType":"address","name":"","type":"address"}],"stateMutability":"view","type":"function"},{"inputs":[],"name":"distribute","outputs":[{"internalType":"uint256","name":"distributed","type":"uint256"}],"stateMutability":"nonpayable","type":"function"},{"inputs":[],"name":"distributeAndWithdraw","outputs":[],"stateMutability":"nonpayable","type":"function"},{"inputs":[],"name":"getAllBalances","outputs":[{"internalType":"uint256","name":"sellerBalance","type":"uint256"},{"internalType":"uint256","name":"creatorBalance","type":"uint256"},{"internalType":"uint256","name":"marketplaceBalance","type":"uint256"},{"internalType":"uint256","name":"pendingToDistribute","type":"uint256"}],"stateMutability":"view","type":"function"},{"inputs":[],"name":"getSplitConfig","outputs":[{"internalType":"uint256","name":"_modelId","type":"uint256"},{"internalType":"address","name":"_seller","type":"address"},{"internalType":"address","name":"_creator","type":"address"},{"internalType":"address","name":"_marketplaceWallet","type":"address"},{"internalType":"uint256","name":"_royaltyBps","type":"uint256"},{"internalType":"uint256","name":"_marketplaceBps","type":"uint256"}],"stateMutability":"view","type":"function"},{"inputs":[{"internalType":"address","name":"_usdc","type":"address"},{"internalType":"uint256","name":"_modelId","type":"uint256"},{"internalType":"address","name":"_seller","type":"address"},{"internalType":"address","name":"_creator","type":"address"},{"internalType":"address","name":"_marketplaceWallet","type":"address"},{"internalType":"uint256","name":"_royaltyBps","type":"uint256"},{"internalType":"uint256","name":"_marketplaceBps","type":"uint256"}],"name":"initialize","outputs":[],"stateMutability":"nonpayable","type":"function"},{"inputs":[],"name":"marketplaceBps","outputs":[{"internalType":"uint256","name":"","type":"uint256"}],"stateMutability":"view","type":"function"},{"inputs":[],"name":"marketplaceWallet","outputs":[{"internalType":"address","name":"","type":"address"}],"stateMutability":"view","type":"function"},{"inputs":[],"name":"modelId","outputs":[{"internalType":"uint256","name":"","type":"uint256"}],"stateMutability":"view","type":"function"},{"inputs":[],"name":"pendingDistribution","outputs":[{"internalType":"uint256","name":"pending","type":"uint256"}],"stateMutability":"view","type":"function"},{"inputs":[],"name":"royaltyBps","outputs":[{"internalType":"uint256","name":"","type":"uint256"}],"stateMutability":"view","type":"function"},{"inputs":[],"name":"seller","outputs":[{"internalType":"address","name":"","type":"address"}],"stateMutability":"view","type":"function"},{"inputs":[],"name":"totalDistributed","outputs":[{"internalType":"uint256","name":"","type":"uint256"}],"stateMutability":"view","type":"function"},{"inputs":[],"name":"usdc","outputs":[{"internalType":"contract IERC20","name":"","type":"address"}],"stateMutability":"view","type":"function"},{"inputs":[],"name":"withdraw","outputs":[],"stateMutability":"nonpayable","type":"function"},{"inputs":[{"internalType":"uint256","name":"amount","type":"uint256"}],"name":"withdrawAmount","outputs":[],"stateMutability":"nonpayable","type":"function"}],"evm":{"bytecode":{"linkReferences":{},"object":"6080806040523461001657610dc6908161001c8239f35b600080fdfe608060408181526004908136101561001657600080fd5b600091823560e01c93846302d05d3f14610b85575083630562b9f714610b0d57836308551a5314610ae557836327e235e314610aae5783633ccfd60b146109f85783633e413bee146109d157836343cdaad2146109b35783634f9e3e01146107785783636de49e441461071f578363867e7c27146106145783639c22b9a614610526578363a432944514610364578363c63adb2b14610346578363d15ca166146100f8578363d32627a114610328578363e4fc6b6d14610148578363ed9ed6961461011e57508263efca2eed146100fd57505063fd967f47146100f857600080fd5b610bc5565b3461011a578160031936011261011a576020906008549051908152f35b5080fd5b346101445782600319360112610144575490516001600160a01b03909116815260209150f35b8280fd5b9034610144578260031936011261014457610161610c5d565b825481516370a0823160e01b815230818501526020946001600160a01b0394919286908490602490829089165afa92831561031c5781936102ed575b506101e3856002541693848352600788526101dd6101c987852054896003541686528886205490610c3d565b88865416855260078a528785205490610c3d565b90610be2565b9485156102de5761024492857ff7576d8c2653e9d07af5ef229acf59b339e327d4e0eaddb4a96615534cf148f895936102c393612710936102498b8661022b60065483610c4a565b04998a9761023b60055484610c4a565b049a8b92610be2565b610be2565b96835260078c5283832061025e888254610c3d565b90558160035416835260078c52838320610279898254610c3d565b90555416815260078a522061028f828254610c3d565b905561029d87600854610c3d565b600855855193849388859094939260609260808301968352602083015260408201520152565b0390a16001600080516020610d718339815191525551908152f35b845162598fc960e21b81528390fd5b9092508581813d8311610315575b6103058183610c05565b810103126101445751918661019d565b503d6102fb565b508351903d90823e3d90fd5b503461011a578160031936011261011a576020906006549051908152f35b503461011a578160031936011261011a576020906005549051908152f35b346101445760e03660031901126101445761037d610baa565b6001600160a01b0360443581811693919290849003610522576064359083821680920361051e576084359184831680930361051a577ff0c57e16840df040f15088dc2f81fe391c3923bec73e23a9662efc9c229c6a009586549560ff878a1c16159667ffffffffffffffff811680159081610512575b6001149081610508575b1590816104ff575b506104ef5767ffffffffffffffff1981166001178955876104d0575b5061042a610d2f565b610432610d2f565b6001600080516020610d71833981519152556bffffffffffffffffffffffff60a01b9316838a541617895560243560015582600254161760025581600354161760035582541617905560a43560055560c43560065561048f578280f35b805468ff00000000000000001916905551600181527fc7f505b2f371ae2175ee4913f4499e1f2633a7b5936321eed1cdaeb6115181d290602090a181808280f35b68ffffffffffffffffff1916680100000000000000011788558a610421565b895163f92ee8a960e01b81528790fd5b9050158c610405565b303b1591506103fd565b8991506103f3565b8780fd5b8680fd5b8580fd5b9134610611578060031936011261061157805482516370a0823160e01b8152308186015260209490916001600160a01b039086908490602490829085165afa9283156106075784936105d2575b5090816105af926002541685526007875261059c86862054826003541687528787205490610c3d565b9154168452600786528484205490610c3d565b90818111156105ca576105c29250610be2565b905b51908152f35b5050906105c4565b9092508581813d8311610600575b6105ea8183610c05565b810103126105fc5751916105af610573565b8380fd5b503d6105e0565b85513d86823e3d90fd5b80fd5b92503461011a578160031936011261011a5760018060a01b03908160025416835260076020528083205491806003541684528184205493818654168152602083822054928254169660248551809981936370a0823160e01b835230908301525afa80156107135781906106de575b85965061069c8361069787986106d298610c3d565b610c3d565b90818111156106d6576106af9250610be2565b915b51948594859094939260609260808301968352602083015260408201520152565b0390f35b5050916106b1565b50946020813d60201161070b575b816106f960209383610c05565b81010312610522575193948594610682565b3d91506106ec565b508251903d90823e3d90fd5b34610144578260031936011261014457600154600254600354925460055460065486519485526001600160a01b03938416602086015294831695840195909552166060820152608081019290925260a082015260c09150f35b9034610144578260031936011261014457610791610c5d565b825481516370a0823160e01b81523084820152602092916001600160a01b03919084908290602490829086165afa9081156109a957869161097c575b50816002541680875261080d6007928387526101dd6107fa878b205487600354168c52888c205490610c3d565b868a54168b52858952878b205490610c3d565b90816108a6575b50503386528084528286205494851561089857612710861061088a5750847f7fcf532c15f0a6db0bd6d0e038bea71d30d808c7d98cb3bf7268a95bf5081b6594939261086e92338952855287848120553390885416610c8d565b519283523392a26001600080516020610d718339815191525580f35b8351630980da4560e11b8152fd5b8351631e9acf1760e31b8152fd5b7ff7576d8c2653e9d07af5ef229acf59b339e327d4e0eaddb4a96615534cf148f891610972612710806108db60065485610c4a565b04906108e960055485610c4a565b046108f8816102448487610be2565b948c52868a52888c2061090c868254610c3d565b905587600354168c52868a52888c20610926828254610c3d565b9055878b54168c52868a52888c2061093f838254610c3d565b905561094d84600854610c3d565b6008558851948594859094939260609260808301968352602083015260408201520152565b0390a18680610814565b90508381813d83116109a2575b6109938183610c05565b810103126105225751866107cd565b503d610989565b83513d88823e3d90fd5b503461011a578160031936011261011a576020906001549051908152f35b503461011a578160031936011261011a57905490516001600160a01b039091168152602090f35b9034610144578260031936011261014457610a11610c5d565b338352600760205280832054918215610aa0576127108310610a9257503380845260076020528184208490558354610a539184916001600160a01b0316610c8d565b519081527f7fcf532c15f0a6db0bd6d0e038bea71d30d808c7d98cb3bf7268a95bf5081b6560203392a26001600080516020610d718339815191525580f35b9051630980da4560e11b8152fd5b9051631e9acf1760e31b8152fd5b503461011a57602036600319011261011a5760209181906001600160a01b03610ad5610baa565b1681526007845220549051908152f35b503461011a578160031936011261011a5760025490516001600160a01b039091168152602090f35b903461014457602036600319011261014457813591610b2a610c5d565b82158015610b7a575b610a92573384526007602052828285205410610aa057503383526007602052808320610b60838254610be2565b90558254610a5390839033906001600160a01b0316610c8d565b506127108310610b33565b83903461011a578160031936011261011a576003546001600160a01b03168152602090f35b600435906001600160a01b0382168203610bc057565b600080fd5b34610bc0576000366003190112610bc05760206040516127108152f35b91908203918211610bef57565b634e487b7160e01b600052601160045260246000fd5b90601f8019910116810190811067ffffffffffffffff821117610c2757604052565b634e487b7160e01b600052604160045260246000fd5b91908201809211610bef57565b81810292918115918404141715610bef57565b600080516020610d718339815191526002815414610c7b5760029055565b604051633ee5aeb560e01b8152600490fd5b60405163a9059cbb60e01b602082019081526001600160a01b0393841660248301526044808301959095529381529092608082019067ffffffffffffffff821183831017610c2757602092600092604052519082865af115610d23576000513d610d1a57508082163b155b610d00575050565b604051635274afe760e01b81529116600482015260249150fd5b60011415610cf8565b6040513d6000823e3d90fd5b60ff7ff0c57e16840df040f15088dc2f81fe391c3923bec73e23a9662efc9c229c6a005460401c1615610d5e57565b604051631afcd79f60e31b8152600490fdfe9b779b17422d0df92223018b32b4d1fa46e071723d6817e2486d003becc55f00a2646970667358221220195d913d330af8f3666323e964b2b3f6f9bf2d8a3ea2c933965cca32d7b9ec0964736f6c63430008180033","opcodes":"PUSH1 0x80 DUP1 PUSH1 0x40 MSTORE CALLVALUE PUSH2 0x16 JUMPI PUSH2 0xDC6 SWAP1 DUP2 PUSH2 0x1C DUP3 CODECOPY RETURN JUMPDEST PUSH1 0x0 DUP1 REVERT INVALID PUSH1 0x80 PUSH1 0x40 DUP2 DUP2 MSTORE PUSH1 0x4 SWAP1 DUP2 CALLDATASIZE LT ISZERO PUSH2 0x16 JUMPI PUSH1 0x0 DUP1 REVERT JUMPDEST PUSH1 0x0 SWAP2 DUP3 CALLDATALOAD PUSH1 0xE0 SHR SWAP4 DUP5 PUSH4 0x2D05D3F EQ PUSH2 0xB85 JUMPI POP DUP4 PUSH4 0x562B9F7 EQ PUSH2 0xB0D JUMPI DUP4 PUSH4 0x8551A53 EQ PUSH2 0xAE5 JUMPI DUP4 PUSH4 0x27E235E3 EQ PUSH2 0xAAE JUMPI DUP4 PUSH4 0x3CCFD60B EQ PUSH2 0x9F8 JUMPI DUP4 PUSH4 0x3E413BEE EQ PUSH2 0x9D1 JUMPI DUP4 PUSH4 0x43CDAAD2 EQ PUSH2 0x9B3 JUMPI DUP4 PUSH4 0x4F9E3E01 EQ PUSH2 0x778 JUMPI DUP4 PUSH4 0x6DE49E44 EQ PUSH2 0x71F JUMPI DUP4 PUSH4 0x867E7C27 EQ PUSH2 0x614 JUMPI DUP4 PUSH4 0x9C22B9A6 EQ PUSH2 0x526 JUMPI DUP4 PUSH4 0xA4329445 EQ PUSH2 0x364 JUMPI DUP4 PUSH4 0xC63ADB2B EQ PUSH2 0x346 JUMPI DUP4 PUSH4 0xD15CA166 EQ PUSH2 0xF8 JUMPI DUP4 PUSH4 0xD32627A1 EQ PUSH2 0x328 JUMPI DUP4 PUSH4 0xE4FC6B6D EQ PUSH2 0x148 JUMPI DUP4 PUSH4 0xED9ED696 EQ PUSH2 0x11E JUMPI POP DUP3 PUSH4 0xEFCA2EED EQ PUSH2 0xFD JUMPI POP POP PUSH4 0xFD967F47 EQ PUSH2 0xF8 JUMPI PUSH1 0x0 DUP1 REVERT JUMPDEST PUSH2 0xBC5 JUMP JUMPDEST CALLVALUE PUSH2 0x11A JUMPI DUP2 PUSH1 0x3 NOT CALLDATASIZE ADD SLT PUSH2 0x11A JUMPI PUSH1 0x20 SWAP1 PUSH1 0x8 SLOAD SWAP1 MLOAD SWAP1 DUP2 MSTORE RETURN JUMPDEST POP DUP1 REVERT JUMPDEST CALLVALUE PUSH2 0x144 JUMPI DUP3 PUSH1 0x3 NOT CALLDATASIZE ADD SLT PUSH2 0x144 JUMPI SLOAD SWAP1 MLOAD PUSH1 0x1 PUSH1 0x1 PUSH1 0xA0 SHL SUB SWAP1 SWAP2 AND DUP2 MSTORE PUSH1 0x20 SWAP2 POP RETURN JUMPDEST DUP3 DUP1 REVERT JUMPDEST SWAP1 CALLVALUE PUSH2 0x144 JUMPI DUP3 PUSH1 0x3 NOT CALLDATASIZE ADD SLT PUSH2 0x144 JUMPI PUSH2 0x161 PUSH2 0xC5D JUMP JUMPDEST DUP3 SLOAD DUP2 MLOAD PUSH4 0x70A08231 PUSH1 0xE0 SHL DUP2 MSTORE ADDRESS DUP2 DUP6 ADD MSTORE PUSH1 0x20 SWAP5 PUSH1 0x1 PUSH1 0x1 PUSH1 0xA0 SHL SUB SWAP5 SWAP2 SWAP3 DUP7 SWAP1 DUP5 SWAP1 PUSH1 0x24 SWAP1 DUP3 SWAP1 DUP10 AND GAS STATICCALL SWAP3 DUP4 ISZERO PUSH2 0x31C JUMPI DUP2 SWAP4 PUSH2 0x2ED JUMPI JUMPDEST POP PUSH2 0x1E3 DUP6 PUSH1 0x2 SLOAD AND SWAP4 DUP5 DUP4 MSTORE PUSH1 0x7 DUP9 MSTORE PUSH2 0x1DD PUSH2 0x1C9 DUP8 DUP6 KECCAK256 SLOAD DUP10 PUSH1 0x3 SLOAD AND DUP7 MSTORE DUP9 DUP7 KECCAK256 SLOAD SWAP1 PUSH2 0xC3D JUMP JUMPDEST DUP9 DUP7 SLOAD AND DUP6 MSTORE PUSH1 0x7 DUP11 MSTORE DUP8 DUP6 KECCAK256 SLOAD SWAP1 PUSH2 0xC3D JUMP JUMPDEST SWAP1 PUSH2 0xBE2 JUMP JUMPDEST SWAP5 DUP6 ISZERO PUSH2 0x2DE JUMPI PUSH2 0x244 SWAP3 DUP6 PUSH32 0xF7576D8C2653E9D07AF5EF229ACF59B339E327D4E0EADDB4A96615534CF148F8 SWAP6 SWAP4 PUSH2 0x2C3 SWAP4 PUSH2 0x2710 SWAP4 PUSH2 0x249 DUP12 DUP7 PUSH2 0x22B PUSH1 0x6 SLOAD DUP4 PUSH2 0xC4A JUMP JUMPDEST DIV SWAP10 DUP11 SWAP8 PUSH2 0x23B PUSH1 0x5 SLOAD DUP5 PUSH2 0xC4A JUMP JUMPDEST DIV SWAP11 DUP12 SWAP3 PUSH2 0xBE2 JUMP JUMPDEST PUSH2 0xBE2 JUMP JUMPDEST SWAP7 DUP4 MSTORE PUSH1 0x7 DUP13 MSTORE DUP4 DUP4 KECCAK256 PUSH2 0x25E DUP9 DUP3 SLOAD PUSH2 0xC3D JUMP JUMPDEST SWAP1 SSTORE DUP2 PUSH1 0x3 SLOAD AND DUP4 MSTORE PUSH1 0x7 DUP13 MSTORE DUP4 DUP4 KECCAK256 PUSH2 0x279 DUP10 DUP3 SLOAD PUSH2 0xC3D JUMP JUMPDEST SWAP1 SSTORE SLOAD AND DUP2 MSTORE PUSH1 0x7 DUP11 MSTORE KECCAK256 PUSH2 0x28F DUP3 DUP3 SLOAD PUSH2 0xC3D JUMP JUMPDEST SWAP1 SSTORE PUSH2 0x29D DUP8 PUSH1 0x8 SLOAD PUSH2 0xC3D JUMP JUMPDEST PUSH1 0x8 SSTORE DUP6 MLOAD SWAP4 DUP5 SWAP4 DUP9 DUP6 SWAP1 SWAP5 SWAP4 SWAP3 PUSH1 0x60 SWAP3 PUSH1 0x80 DUP4 ADD SWAP7 DUP4 MSTORE PUSH1 0x20 DUP4 ADD MSTORE PUSH1 0x40 DUP3 ADD MSTORE ADD MSTORE JUMP JUMPDEST SUB SWAP1 LOG1 PUSH1 0x1 PUSH1 0x0 DUP1 MLOAD PUSH1 0x20 PUSH2 0xD71 DUP4 CODECOPY DUP2 MLOAD SWAP2 MSTORE SSTORE MLOAD SWAP1 DUP2 MSTORE RETURN JUMPDEST DUP5 MLOAD PUSH3 0x598FC9 PUSH1 0xE2 SHL DUP2 MSTORE DUP4 SWAP1 REVERT JUMPDEST SWAP1 SWAP3 POP DUP6 DUP2 DUP2 RETURNDATASIZE DUP4 GT PUSH2 0x315 JUMPI JUMPDEST PUSH2 0x305 DUP2 DUP4 PUSH2 0xC05 JUMP JUMPDEST DUP2 ADD SUB SLT PUSH2 0x144 JUMPI MLOAD SWAP2 DUP7 PUSH2 0x19D JUMP JUMPDEST POP RETURNDATASIZE PUSH2 0x2FB JUMP JUMPDEST POP DUP4 MLOAD SWAP1 RETURNDATASIZE SWAP1 DUP3 RETURNDATACOPY RETURNDATASIZE SWAP1 REVERT JUMPDEST POP CALLVALUE PUSH2 0x11A JUMPI DUP2 PUSH1 0x3 NOT CALLDATASIZE ADD SLT PUSH2 0x11A JUMPI PUSH1 0x20 SWAP1 PUSH1 0x6 SLOAD SWAP1 MLOAD SWAP1 DUP2 MSTORE RETURN JUMPDEST POP CALLVALUE PUSH2 0x11A JUMPI DUP2 PUSH1 0x3 NOT CALLDATASIZE ADD SLT PUSH2 0x11A JUMPI PUSH1 0x20 SWAP1 PUSH1 0x5 SLOAD SWAP1 MLOAD SWAP1 DUP2 MSTORE RETURN JUMPDEST CALLVALUE PUSH2 0x144 JUMPI PUSH1 0xE0 CALLDATASIZE PUSH1 0x3 NOT ADD SLT PUSH2 0x144 JUMPI PUSH2 0x37D PUSH2 0xBAA JUMP JUMPDEST PUSH1 0x1 PUSH1 0x1 PUSH1 0xA0 SHL SUB PUSH1 0x44 CALLDATALOAD DUP2 DUP2 AND SWAP4 SWAP2 SWAP3 SWAP1 DUP5 SWAP1 SUB PUSH2 0x522 JUMPI PUSH1 0x64 CALLDATALOAD SWAP1 DUP4 DUP3 AND DUP1 SWAP3 SUB PUSH2 0x51E JUMPI PUSH1 0x84 CALLDATALOAD SWAP2 DUP5 DUP4 AND DUP1 SWAP4 SUB PUSH2 0x51A JUMPI PUSH32 0xF0C57E16840DF040F15088DC2F81FE391C3923BEC73E23A9662EFC9C229C6A00 SWAP6 DUP7 SLOAD SWAP6 PUSH1 0xFF DUP8 DUP11 SHR AND ISZERO SWAP7 PUSH8 0xFFFFFFFFFFFFFFFF DUP2 AND DUP1 ISZERO SWAP1 DUP2 PUSH2 0x512 JUMPI JUMPDEST PUSH1 0x1 EQ SWAP1 DUP2 PUSH2 0x508 JUMPI JUMPDEST ISZERO SWAP1 DUP2 PUSH2 0x4FF JUMPI JUMPDEST POP PUSH2 0x4EF JUMPI PUSH8 0xFFFFFFFFFFFFFFFF NOT DUP2 AND PUSH1 0x1 OR DUP10 SSTORE DUP8 PUSH2 0x4D0 JUMPI JUMPDEST POP PUSH2 0x42A PUSH2 0xD2F JUMP JUMPDEST PUSH2 0x432 PUSH2 0xD2F JUMP JUMPDEST PUSH1 0x1 PUSH1 0x0 DUP1 MLOAD PUSH1 0x20 PUSH2 0xD71 DUP4 CODECOPY DUP2 MLOAD SWAP2 MSTORE SSTORE PUSH12 0xFFFFFFFFFFFFFFFFFFFFFFFF PUSH1 0xA0 SHL SWAP4 AND DUP4 DUP11 SLOAD AND OR DUP10 SSTORE PUSH1 0x24 CALLDATALOAD PUSH1 0x1 SSTORE DUP3 PUSH1 0x2 SLOAD AND OR PUSH1 0x2 SSTORE DUP2 PUSH1 0x3 SLOAD AND OR PUSH1 0x3 SSTORE DUP3 SLOAD AND OR SWAP1 SSTORE PUSH1 0xA4 CALLDATALOAD PUSH1 0x5 SSTORE PUSH1 0xC4 CALLDATALOAD PUSH1 0x6 SSTORE PUSH2 0x48F JUMPI DUP3 DUP1 RETURN JUMPDEST DUP1 SLOAD PUSH9 0xFF0000000000000000 NOT AND SWAP1 SSTORE MLOAD PUSH1 0x1 DUP2 MSTORE PUSH32 0xC7F505B2F371AE2175EE4913F4499E1F2633A7B5936321EED1CDAEB6115181D2 SWAP1 PUSH1 0x20 SWAP1 LOG1 DUP2 DUP1 DUP3 DUP1 RETURN JUMPDEST PUSH9 0xFFFFFFFFFFFFFFFFFF NOT AND PUSH9 0x10000000000000001 OR DUP9 SSTORE DUP11 PUSH2 0x421 JUMP JUMPDEST DUP10 MLOAD PUSH4 0xF92EE8A9 PUSH1 0xE0 SHL DUP2 MSTORE DUP8 SWAP1 REVERT JUMPDEST SWAP1 POP ISZERO DUP13 PUSH2 0x405 JUMP JUMPDEST ADDRESS EXTCODESIZE ISZERO SWAP2 POP PUSH2 0x3FD JUMP JUMPDEST DUP10 SWAP2 POP PUSH2 0x3F3 JUMP JUMPDEST DUP8 DUP1 REVERT JUMPDEST DUP7 DUP1 REVERT JUMPDEST DUP6 DUP1 REVERT JUMPDEST SWAP2 CALLVALUE PUSH2 0x611 JUMPI DUP1 PUSH1 0x3 NOT CALLDATASIZE ADD SLT PUSH2 0x611 JUMPI DUP1 SLOAD DUP3 MLOAD PUSH4 0x70A08231 PUSH1 0xE0 SHL DUP2 MSTORE ADDRESS DUP2 DUP7 ADD MSTORE PUSH1 0x20 SWAP5 SWAP1 SWAP2 PUSH1 0x1 PUSH1 0x1 PUSH1 0xA0 SHL SUB SWAP1 DUP7 SWAP1 DUP5 SWAP1 PUSH1 0x24 SWAP1 DUP3 SWAP1 DUP6 AND GAS STATICCALL SWAP3 DUP4 ISZERO PUSH2 0x607 JUMPI DUP5 SWAP4 PUSH2 0x5D2 JUMPI JUMPDEST POP SWAP1 DUP2 PUSH2 0x5AF SWAP3 PUSH1 0x2 SLOAD AND DUP6 MSTORE PUSH1 0x7 DUP8 MSTORE PUSH2 0x59C DUP7 DUP7 KECCAK256 SLOAD DUP3 PUSH1 0x3 SLOAD AND DUP8 MSTORE DUP8 DUP8 KECCAK256 SLOAD SWAP1 PUSH2 0xC3D JUMP JUMPDEST SWAP2 SLOAD AND DUP5 MSTORE PUSH1 0x7 DUP7 MSTORE DUP5 DUP5 KECCAK256 SLOAD SWAP1 PUSH2 0xC3D JUMP JUMPDEST SWAP1 DUP2 DUP2 GT ISZERO PUSH2 0x5CA JUMPI PUSH2 0x5C2 SWAP3 POP PUSH2 0xBE2 JUMP JUMPDEST SWAP1 JUMPDEST MLOAD SWAP1 DUP2 MSTORE RETURN JUMPDEST POP POP SWAP1 PUSH2 0x5C4 JUMP JUMPDEST SWAP1 SWAP3 POP DUP6 DUP2 DUP2 RETURNDATASIZE DUP4 GT PUSH2 0x600 JUMPI JUMPDEST PUSH2 0x5EA DUP2 DUP4 PUSH2 0xC05 JUMP JUMPDEST DUP2 ADD SUB SLT PUSH2 0x5FC JUMPI MLOAD SWAP2 PUSH2 0x5AF PUSH2 0x573 JUMP JUMPDEST DUP4 DUP1 REVERT JUMPDEST POP RETURNDATASIZE PUSH2 0x5E0 JUMP JUMPDEST DUP6 MLOAD RETURNDATASIZE DUP7 DUP3 RETURNDATACOPY RETURNDATASIZE SWAP1 REVERT JUMPDEST DUP1 REVERT JUMPDEST SWAP3 POP CALLVALUE PUSH2 0x11A JUMPI DUP2 PUSH1 0x3 NOT CALLDATASIZE ADD SLT PUSH2 0x11A JUMPI PUSH1 0x1 DUP1 PUSH1 0xA0 SHL SUB SWAP1 DUP2 PUSH1 0x2 SLOAD AND DUP4 MSTORE PUSH1 0x7 PUSH1 0x20 MSTORE DUP1 DUP4 KECCAK256 SLOAD SWAP2 DUP1 PUSH1 0x3 SLOAD AND DUP5 MSTORE DUP2 DUP5 KECCAK256 SLOAD SWAP4 DUP2 DUP7 SLOAD AND DUP2 MSTORE PUSH1 0x20 DUP4 DUP3 KECCAK256 SLOAD SWAP3 DUP3 SLOAD AND SWAP7 PUSH1 0x24 DUP6 MLOAD DUP1 SWAP10 DUP2 SWAP4 PUSH4 0x70A08231 PUSH1 0xE0 SHL DUP4 MSTORE ADDRESS SWAP1 DUP4 ADD MSTORE GAS STATICCALL DUP1 ISZERO PUSH2 0x713 JUMPI DUP2 SWAP1 PUSH2 0x6DE JUMPI JUMPDEST DUP6 SWAP7 POP PUSH2 0x69C DUP4 PUSH2 0x697 DUP8 SWAP9 PUSH2 0x6D2 SWAP9 PUSH2 0xC3D JUMP JUMPDEST PUSH2 0xC3D JUMP JUMPDEST SWAP1 DUP2 DUP2 GT ISZERO PUSH2 0x6D6 JUMPI PUSH2 0x6AF SWAP3 POP PUSH2 0xBE2 JUMP JUMPDEST SWAP2 JUMPDEST MLOAD SWAP5 DUP6 SWAP5 DUP6 SWAP1 SWAP5 SWAP4 SWAP3 PUSH1 0x60 SWAP3 PUSH1 0x80 DUP4 ADD SWAP7 DUP4 MSTORE PUSH1 0x20 DUP4 ADD MSTORE PUSH1 0x40 DUP3 ADD MSTORE ADD MSTORE JUMP JUMPDEST SUB SWAP1 RETURN JUMPDEST POP POP SWAP2 PUSH2 0x6B1 JUMP JUMPDEST POP SWAP5 PUSH1 0x20 DUP2 RETURNDATASIZE PUSH1 0x20 GT PUSH2 0x70B JUMPI JUMPDEST DUP2 PUSH2 0x6F9 PUSH1 0x20 SWAP4 DUP4 PUSH2 0xC05 JUMP JUMPDEST DUP2 ADD SUB SLT PUSH2 0x522 JUMPI MLOAD SWAP4 SWAP5 DUP6 SWAP5 PUSH2 0x682 JUMP JUMPDEST RETURNDATASIZE SWAP2 POP PUSH2 0x6EC JUMP JUMPDEST POP DUP3 MLOAD SWAP1 RETURNDATASIZE SWAP1 DUP3 RETURNDATACOPY RETURNDATASIZE SWAP1 REVERT JUMPDEST CALLVALUE PUSH2 0x144 JUMPI DUP3 PUSH1 0x3 NOT CALLDATASIZE ADD SLT PUSH2 0x144 JUMPI PUSH1 0x1 SLOAD PUSH1 0x2 SLOAD PUSH1 0x3 SLOAD SWAP3 SLOAD PUSH1 0x5 SLOAD PUSH1 0x6 SLOAD DUP7 MLOAD SWAP5 DUP6 MSTORE PUSH1 0x1 PUSH1 0x1 PUSH1 0xA0 SHL SUB SWAP4 DUP5 AND PUSH1 0x20 DUP7 ADD MSTORE SWAP5 DUP4 AND SWAP6 DUP5 ADD SWAP6 SWAP1 SWAP6 MSTORE AND PUSH1 0x60 DUP3 ADD MSTORE PUSH1 0x80 DUP2 ADD SWAP3 SWAP1 SWAP3 MSTORE PUSH1 0xA0 DUP3 ADD MSTORE PUSH1 0xC0 SWAP2 POP RETURN JUMPDEST SWAP1 CALLVALUE PUSH2 0x144 JUMPI DUP3 PUSH1 0x3 NOT CALLDATASIZE ADD SLT PUSH2 0x144 JUMPI PUSH2 0x791 PUSH2 0xC5D JUMP JUMPDEST DUP3 SLOAD DUP2 MLOAD PUSH4 0x70A08231 PUSH1 0xE0 SHL DUP2 MSTORE ADDRESS DUP5 DUP3 ADD MSTORE PUSH1 0x20 SWAP3 SWAP2 PUSH1 0x1 PUSH1 0x1 PUSH1 0xA0 SHL SUB SWAP2 SWAP1 DUP5 SWAP1 DUP3 SWAP1 PUSH1 0x24 SWAP1 DUP3 SWAP1 DUP7 AND GAS STATICCALL SWAP1 DUP2 ISZERO PUSH2 0x9A9 JUMPI DUP7 SWAP2 PUSH2 0x97C JUMPI JUMPDEST POP DUP2 PUSH1 0x2 SLOAD AND DUP1 DUP8 MSTORE PUSH2 0x80D PUSH1 0x7 SWAP3 DUP4 DUP8 MSTORE PUSH2 0x1DD PUSH2 0x7FA DUP8 DUP12 KECCAK256 SLOAD DUP8 PUSH1 0x3 SLOAD AND DUP13 MSTORE DUP9 DUP13 KECCAK256 SLOAD SWAP1 PUSH2 0xC3D JUMP JUMPDEST DUP7 DUP11 SLOAD AND DUP12 MSTORE DUP6 DUP10 MSTORE DUP8 DUP12 KECCAK256 SLOAD SWAP1 PUSH2 0xC3D JUMP JUMPDEST SWAP1 DUP2 PUSH2 0x8A6 JUMPI JUMPDEST POP POP CALLER DUP7 MSTORE DUP1 DUP5 MSTORE DUP3 DUP7 KECCAK256 SLOAD SWAP5 DUP6 ISZERO PUSH2 0x898 JUMPI PUSH2 0x2710 DUP7 LT PUSH2 0x88A JUMPI POP DUP5 PUSH32 0x7FCF532C15F0A6DB0BD6D0E038BEA71D30D808C7D98CB3BF7268A95BF5081B65 SWAP5 SWAP4 SWAP3 PUSH2 0x86E SWAP3 CALLER DUP10 MSTORE DUP6 MSTORE DUP8 DUP5 DUP2 KECCAK256 SSTORE CALLER SWAP1 DUP9 SLOAD AND PUSH2 0xC8D JUMP JUMPDEST MLOAD SWAP3 DUP4 MSTORE CALLER SWAP3 LOG2 PUSH1 0x1 PUSH1 0x0 DUP1 MLOAD PUSH1 0x20 PUSH2 0xD71 DUP4 CODECOPY DUP2 MLOAD SWAP2 MSTORE SSTORE DUP1 RETURN JUMPDEST DUP4 MLOAD PUSH4 0x980DA45 PUSH1 0xE1 SHL DUP2 MSTORE REVERT JUMPDEST DUP4 MLOAD PUSH4 0x1E9ACF17 PUSH1 0xE3 SHL DUP2 MSTORE REVERT JUMPDEST PUSH32 0xF7576D8C2653E9D07AF5EF229ACF59B339E327D4E0EADDB4A96615534CF148F8 SWAP2 PUSH2 0x972 PUSH2 0x2710 DUP1 PUSH2 0x8DB PUSH1 0x6 SLOAD DUP6 PUSH2 0xC4A JUMP JUMPDEST DIV SWAP1 PUSH2 0x8E9 PUSH1 0x5 SLOAD DUP6 PUSH2 0xC4A JUMP JUMPDEST DIV PUSH2 0x8F8 DUP2 PUSH2 0x244 DUP5 DUP8 PUSH2 0xBE2 JUMP JUMPDEST SWAP5 DUP13 MSTORE DUP7 DUP11 MSTORE DUP9 DUP13 KECCAK256 PUSH2 0x90C DUP7 DUP3 SLOAD PUSH2 0xC3D JUMP JUMPDEST SWAP1 SSTORE DUP8 PUSH1 0x3 SLOAD AND DUP13 MSTORE DUP7 DUP11 MSTORE DUP9 DUP13 KECCAK256 PUSH2 0x926 DUP3 DUP3 SLOAD PUSH2 0xC3D JUMP JUMPDEST SWAP1 SSTORE DUP8 DUP12 SLOAD AND DUP13 MSTORE DUP7 DUP11 MSTORE DUP9 DUP13 KECCAK256 PUSH2 0x93F DUP4 DUP3 SLOAD PUSH2 0xC3D JUMP JUMPDEST SWAP1 SSTORE PUSH2 0x94D DUP5 PUSH1 0x8 SLOAD PUSH2 0xC3D JUMP JUMPDEST PUSH1 0x8 SSTORE DUP9 MLOAD SWAP5 DUP6 SWAP5 DUP6 SWAP1 SWAP5 SWAP4 SWAP3 PUSH1 0x60 SWAP3 PUSH1 0x80 DUP4 ADD SWAP7 DUP4 MSTORE PUSH1 0x20 DUP4 ADD MSTORE PUSH1 0x40 DUP3 ADD MSTORE ADD MSTORE JUMP JUMPDEST SUB SWAP1 LOG1 DUP7 DUP1 PUSH2 0x814 JUMP JUMPDEST SWAP1 POP DUP4 DUP2 DUP2 RETURNDATASIZE DUP4 GT PUSH2 0x9A2 JUMPI JUMPDEST PUSH2 0x993 DUP2 DUP4 PUSH2 0xC05 JUMP JUMPDEST DUP2 ADD SUB SLT PUSH2 0x522 JUMPI MLOAD DUP7 PUSH2 0x7CD JUMP JUMPDEST POP RETURNDATASIZE PUSH2 0x989 JUMP JUMPDEST DUP4 MLOAD RETURNDATASIZE DUP9 DUP3 RETURNDATACOPY RETURNDATASIZE SWAP1 REVERT JUMPDEST POP CALLVALUE PUSH2 0x11A JUMPI DUP2 PUSH1 0x3 NOT CALLDATASIZE ADD SLT PUSH2 0x11A JUMPI PUSH1 0x20 SWAP1 PUSH1 0x1 SLOAD SWAP1 MLOAD SWAP1 DUP2 MSTORE RETURN JUMPDEST POP CALLVALUE PUSH2 0x11A JUMPI DUP2 PUSH1 0x3 NOT CALLDATASIZE ADD SLT PUSH2 0x11A JUMPI SWAP1 SLOAD SWAP1 MLOAD PUSH1 0x1 PUSH1 0x1 PUSH1 0xA0 SHL SUB SWAP1 SWAP2 AND DUP2 MSTORE PUSH1 0x20 SWAP1 RETURN JUMPDEST SWAP1 CALLVALUE PUSH2 0x144 JUMPI DUP3 PUSH1 0x3 NOT CALLDATASIZE ADD SLT PUSH2 0x144 JUMPI PUSH2 0xA11 PUSH2 0xC5D JUMP JUMPDEST CALLER DUP4 MSTORE PUSH1 0x7 PUSH1 0x20 MSTORE DUP1 DUP4 KECCAK256 SLOAD SWAP2 DUP3 ISZERO PUSH2 0xAA0 JUMPI PUSH2 0x2710 DUP4 LT PUSH2 0xA92 JUMPI POP CALLER DUP1 DUP5 MSTORE PUSH1 0x7 PUSH1 0x20 MSTORE DUP2 DUP5 KECCAK256 DUP5 SWAP1 SSTORE DUP4 SLOAD PUSH2 0xA53 SWAP2 DUP5 SWAP2 PUSH1 0x1 PUSH1 0x1 PUSH1 0xA0 SHL SUB AND PUSH2 0xC8D JUMP JUMPDEST MLOAD SWAP1 DUP2 MSTORE PUSH32 0x7FCF532C15F0A6DB0BD6D0E038BEA71D30D808C7D98CB3BF7268A95BF5081B65 PUSH1 0x20 CALLER SWAP3 LOG2 PUSH1 0x1 PUSH1 0x0 DUP1 MLOAD PUSH1 0x20 PUSH2 0xD71 DUP4 CODECOPY DUP2 MLOAD SWAP2 MSTORE SSTORE DUP1 RETURN JUMPDEST SWAP1 MLOAD PUSH4 0x980DA45 PUSH1 0xE1 SHL DUP2 MSTORE REVERT JUMPDEST SWAP1 MLOAD PUSH4 0x1E9ACF17 PUSH1 0xE3 SHL DUP2 MSTORE REVERT JUMPDEST POP CALLVALUE PUSH2 0x11A JUMPI PUSH1 0x20 CALLDATASIZE PUSH1 0x3 NOT ADD SLT PUSH2 0x11A JUMPI PUSH1 0x20 SWAP2 DUP2 SWAP1 PUSH1 0x1 PUSH1 0x1 PUSH1 0xA0 SHL SUB PUSH2 0xAD5 PUSH2 0xBAA JUMP JUMPDEST AND DUP2 MSTORE PUSH1 0x7 DUP5 MSTORE KECCAK256 SLOAD SWAP1 MLOAD SWAP1 DUP2 MSTORE RETURN JUMPDEST POP CALLVALUE PUSH2 0x11A JUMPI DUP2 PUSH1 0x3 NOT CALLDATASIZE ADD SLT PUSH2 0x11A JUMPI PUSH1 0x2 SLOAD SWAP1 MLOAD PUSH1 0x1 PUSH1 0x1 PUSH1 0xA0 SHL SUB SWAP1 SWAP2 AND DUP2 MSTORE PUSH1 0x20 SWAP1 RETURN JUMPDEST SWAP1 CALLVALUE PUSH2 0x144 JUMPI PUSH1 0x20 CALLDATASIZE PUSH1 0x3 NOT ADD SLT PUSH2 0x144 JUMPI DUP2 CALLDATALOAD SWAP2 PUSH2 0xB2A PUSH2 0xC5D JUMP JUMPDEST DUP3 ISZERO DUP1 ISZERO PUSH2 0xB7A JUMPI JUMPDEST PUSH2 0xA92 JUMPI CALLER DUP5 MSTORE PUSH1 0x7 PUSH1 0x20 MSTORE DUP3 DUP3 DUP6 KECCAK256 SLOAD LT PUSH2 0xAA0 JUMPI POP CALLER DUP4 MSTORE PUSH1 0x7 PUSH1 0x20 MSTORE DUP1 DUP4 KECCAK256 PUSH2 0xB60 DUP4 DUP3 SLOAD PUSH2 0xBE2 JUMP JUMPDEST SWAP1 SSTORE DUP3 SLOAD PUSH2 0xA53 SWAP1 DUP4 SWAP1 CALLER SWAP1 PUSH1 0x1 PUSH1 0x1 PUSH1 0xA0 SHL SUB AND PUSH2 0xC8D JUMP JUMPDEST POP PUSH2 0x2710 DUP4 LT PUSH2 0xB33 JUMP JUMPDEST DUP4 SWAP1 CALLVALUE PUSH2 0x11A JUMPI DUP2 PUSH1 0x3 NOT CALLDATASIZE ADD SLT PUSH2 0x11A JUMPI PUSH1 0x3 SLOAD PUSH1 0x1 PUSH1 0x1 PUSH1 0xA0 SHL SUB AND DUP2 MSTORE PUSH1 0x20 SWAP1 RETURN JUMPDEST PUSH1 0x4 CALLDATALOAD SWAP1 PUSH1 0x1 PUSH1 0x1 PUSH1 0xA0 SHL SUB DUP3 AND DUP3 SUB PUSH2 0xBC0 JUMPI JUMP JUMPDEST PUSH1 0x0 DUP1 REVERT JUMPDEST CALLVALUE PUSH2 0xBC0 JUMPI PUSH1 0x0 CALLDATASIZE PUSH1 0x3 NOT ADD SLT PUSH2 0xBC0 JUMPI PUSH1 0x20 PUSH1 0x40 MLOAD PUSH2 0x2710 DUP2 MSTORE RETURN JUMPDEST SWAP2 SWAP1 DUP3 SUB SWAP2 DUP3 GT PUSH2 0xBEF JUMPI JUMP JUMPDEST PUSH4 0x4E487B71 PUSH1 0xE0 SHL PUSH1 0x0 MSTORE PUSH1 0x11 PUSH1 0x4 MSTORE PUSH1 0x24 PUSH1 0x0 REVERT JUMPDEST SWAP1 PUSH1 0x1F DUP1 NOT SWAP2 ADD AND DUP2 ADD SWAP1 DUP2 LT PUSH8 0xFFFFFFFFFFFFFFFF DUP3 GT OR PUSH2 0xC27 JUMPI PUSH1 0x40 MSTORE JUMP JUMPDEST PUSH4 0x4E487B71 PUSH1 0xE0 SHL PUSH1 0x0 MSTORE PUSH1 0x41 PUSH1 0x4 MSTORE PUSH1 0x24 PUSH1 0x0 REVERT JUMPDEST SWAP2 SWAP1 DUP3 ADD DUP1 SWAP3 GT PUSH2 0xBEF JUMPI JUMP JUMPDEST DUP2 DUP2 MUL SWAP3 SWAP2 DUP2 ISZERO SWAP2 DUP5 DIV EQ OR ISZERO PUSH2 0xBEF JUMPI JUMP JUMPDEST PUSH1 0x0 DUP1 MLOAD PUSH1 0x20 PUSH2 0xD71 DUP4 CODECOPY DUP2 MLOAD SWAP2 MSTORE PUSH1 0x2 DUP2 SLOAD EQ PUSH2 0xC7B JUMPI PUSH1 0x2 SWAP1 SSTORE JUMP JUMPDEST PUSH1 0x40 MLOAD PUSH4 0x3EE5AEB5 PUSH1 0xE0 SHL DUP2 MSTORE PUSH1 0x4 SWAP1 REVERT JUMPDEST PUSH1 0x40 MLOAD PUSH4 0xA9059CBB PUSH1 0xE0 SHL PUSH1 0x20 DUP3 ADD SWAP1 DUP2 MSTORE PUSH1 0x1 PUSH1 0x1 PUSH1 0xA0 SHL SUB SWAP4 DUP5 AND PUSH1 0x24 DUP4 ADD MSTORE PUSH1 0x44 DUP1 DUP4 ADD SWAP6 SWAP1 SWAP6 MSTORE SWAP4 DUP2 MSTORE SWAP1 SWAP3 PUSH1 0x80 DUP3 ADD SWAP1 PUSH8 0xFFFFFFFFFFFFFFFF DUP3 GT DUP4 DUP4 LT OR PUSH2 0xC27 JUMPI PUSH1 0x20 SWAP3 PUSH1 0x0 SWAP3 PUSH1 0x40 MSTORE MLOAD SWAP1 DUP3 DUP7 GAS CALL ISZERO PUSH2 0xD23 JUMPI PUSH1 0x0 MLOAD RETURNDATASIZE PUSH2 0xD1A JUMPI POP DUP1 DUP3 AND EXTCODESIZE ISZERO JUMPDEST PUSH2 0xD00 JUMPI POP POP JUMP JUMPDEST PUSH1 0x40 MLOAD PUSH4 0x5274AFE7 PUSH1 0xE0 SHL DUP2 MSTORE SWAP2 AND PUSH1 0x4 DUP3 ADD MSTORE PUSH1 0x24 SWAP2 POP REVERT JUMPDEST PUSH1 0x1 EQ ISZERO PUSH2 0xCF8 JUMP JUMPDEST PUSH1 0x40 MLOAD RETURNDATASIZE PUSH1 0x0 DUP3 RETURNDATACOPY RETURNDATASIZE SWAP1 REVERT JUMPDEST PUSH1 0xFF PUSH32 0xF0C57E16840DF040F15088DC2F81FE391C3923BEC73E23A9662EFC9C229C6A00 SLOAD PUSH1 0x40 SHR AND ISZERO PUSH2 0xD5E JUMPI JUMP JUMPDEST PUSH1 0x40 MLOAD PUSH4 0x1AFCD79F PUSH1 0xE3 SHL DUP2 MSTORE PUSH1 0x4 SWAP1 REVERT INVALID SWAP12 PUSH24 0x9B17422D0DF92223018B32B4D1FA46E071723D6817E2486D STOP EXTCODESIZE 0xEC 0xC5 PUSH0 STOP LOG2 PUSH5 0x6970667358 0x22 SLT KECCAK256 NOT TSTORE SWAP2 RETURNDATASIZE CALLER EXP 0xF8 RETURN PUSH7 0x6323E964B2B3F6 0xF9 0xBF 0x2D DUP11 RETURNDATACOPY LOG2 0xC9 CALLER SWAP7 TLOAD 0xCA ORIGIN 0xD7 0xB9 0xEC MULMOD PUSH5 0x736F6C6343 STOP ADDMOD XOR STOP CALLER "},"methodIdentifiers":{"MAX_BPS()":"fd967f47","MIN_WITHDRAWAL()":"d15ca166","balances(address)":"27e235e3","creator()":"02d05d3f","distribute()":"e4fc6b6d","distributeAndWithdraw()":"4f9e3e01","getAllBalances()":"867e7c27","getSplitConfig()":"6de49e44","initialize(address,uint256,address,address,address,uint256,uint256)":"a4329445","marketplaceBps()":"d32627a1","marketplaceWallet()":"ed9ed696","modelId()":"43cdaad2","pendingDistribution()":"9c22b9a6","royaltyBps()":"c63adb2b","seller()":"08551a53","totalDistributed()":"efca2eed","usdc()":"3e413bee","withdraw()":"3ccfd60b","withdrawAmount(uint256)":"0562b9f7"}}}}}