{"contracts/SplitterFactory.sol":{"SplitterFactory":{"abi":[{"inputs":[{"internalType":"address","name":"_usdc","type":"address"},{"internalType":"address","name":"_marketplaceWallet","type":"address"},{"internalType":"uint256","name":"_defaultMarketplaceBps","type":"uint256"}],"stateMutability":"nonpayable","type":"constructor"},{"inputs":[],"name":"FailedDeployment","type":"error"},{"inputs":[{"internalType":"uint256","name":"balance","type":"uint256"},{"internalType":"uint256","name":"needed","type":"uint256"}],"name":"InsufficientBalance","type":"error"},{"inputs":[],"name":"InvalidBps","type":"error"},{"inputs":[],"name":"OnlyAuthorized","type":"error"},{"inputs":[{"internalType":"address","name":"owner","type":"address"}],"name":"OwnableInvalidOwner","type":"error"},{"inputs":[{"internalType":"address","name":"account","type":"address"}],"name":"OwnableUnauthorizedAccount","type":"error"},{"inputs":[],"name":"SplitterAlreadyExists","type":"error"},{"inputs":[],"name":"SplitterDoesNotExist","type":"error"},{"inputs":[],"name":"ZeroAddress","type":"error"},{"anonymous":false,"inputs":[{"indexed":true,"internalType":"address","name":"account","type":"address"},{"indexed":false,"internalType":"bool","name":"authorized","type":"bool"}],"name":"AuthorizationChanged","type":"event"},{"anonymous":false,"inputs":[{"indexed":false,"internalType":"uint256","name":"oldBps","type":"uint256"},{"indexed":false,"internalType":"uint256","name":"newBps","type":"uint256"}],"name":"DefaultMarketplaceBpsChanged","type":"event"},{"anonymous":false,"inputs":[{"indexed":true,"internalType":"address","name":"oldWallet","type":"address"},{"indexed":true,"internalType":"address","name":"newWallet","type":"address"}],"name":"MarketplaceWalletChanged","type":"event"},{"anonymous":false,"inputs":[{"indexed":true,"internalType":"address","name":"previousOwner","type":"address"},{"indexed":true,"internalType":"address","name":"newOwner","type":"address"}],"name":"OwnershipTransferStarted","type":"event"},{"anonymous":false,"inputs":[{"indexed":true,"internalType":"address","name":"previousOwner","type":"address"},{"indexed":true,"internalType":"address","name":"newOwner","type":"address"}],"name":"OwnershipTransferred","type":"event"},{"anonymous":false,"inputs":[{"indexed":true,"internalType":"uint256","name":"modelId","type":"uint256"},{"indexed":true,"internalType":"address","name":"splitter","type":"address"},{"indexed":true,"internalType":"address","name":"seller","type":"address"},{"indexed":false,"internalType":"address","name":"creator","type":"address"},{"indexed":false,"internalType":"uint256","name":"royaltyBps","type":"uint256"},{"indexed":false,"internalType":"uint256","name":"marketplaceBps","type":"uint256"}],"name":"SplitterCreated","type":"event"},{"inputs":[],"name":"MAX_BPS","outputs":[{"internalType":"uint256","name":"","type":"uint256"}],"stateMutability":"view","type":"function"},{"inputs":[],"name":"MAX_MARKETPLACE_BPS","outputs":[{"internalType":"uint256","name":"","type":"uint256"}],"stateMutability":"view","type":"function"},{"inputs":[],"name":"MAX_ROYALTY_BPS","outputs":[{"internalType":"uint256","name":"","type":"uint256"}],"stateMutability":"view","type":"function"},{"inputs":[],"name":"acceptOwnership","outputs":[],"stateMutability":"nonpayable","type":"function"},{"inputs":[{"internalType":"address","name":"","type":"address"}],"name":"authorized","outputs":[{"internalType":"bool","name":"","type":"bool"}],"stateMutability":"view","type":"function"},{"inputs":[{"internalType":"uint256","name":"modelId","type":"uint256"},{"internalType":"address","name":"seller","type":"address"},{"internalType":"address","name":"creator","type":"address"},{"internalType":"uint256","name":"royaltyBps","type":"uint256"}],"name":"createSplitter","outputs":[{"internalType":"address","name":"splitter","type":"address"}],"stateMutability":"nonpayable","type":"function"},{"inputs":[{"internalType":"uint256","name":"modelId","type":"uint256"},{"internalType":"address","name":"seller","type":"address"},{"internalType":"address","name":"creator","type":"address"},{"internalType":"uint256","name":"royaltyBps","type":"uint256"},{"internalType":"uint256","name":"marketplaceBps","type":"uint256"}],"name":"createSplitterWithCustomFee","outputs":[{"internalType":"address","name":"splitter","type":"address"}],"stateMutability":"nonpayable","type":"function"},{"inputs":[],"name":"defaultMarketplaceBps","outputs":[{"internalType":"uint256","name":"","type":"uint256"}],"stateMutability":"view","type":"function"},{"inputs":[{"internalType":"uint256","name":"modelId","type":"uint256"}],"name":"getSplitter","outputs":[{"internalType":"address","name":"splitter","type":"address"}],"stateMutability":"view","type":"function"},{"inputs":[{"internalType":"uint256","name":"modelId","type":"uint256"}],"name":"getSplitterInfo","outputs":[{"internalType":"address","name":"splitter","type":"address"},{"internalType":"address","name":"seller","type":"address"},{"internalType":"address","name":"creator","type":"address"},{"internalType":"uint256","name":"royaltyBps","type":"uint256"},{"internalType":"uint256","name":"marketplaceBps","type":"uint256"},{"internalType":"uint256","name":"totalDistributed","type":"uint256"}],"stateMutability":"view","type":"function"},{"inputs":[],"name":"implementation","outputs":[{"internalType":"address","name":"","type":"address"}],"stateMutability":"view","type":"function"},{"inputs":[],"name":"marketplaceWallet","outputs":[{"internalType":"address","name":"","type":"address"}],"stateMutability":"view","type":"function"},{"inputs":[],"name":"owner","outputs":[{"internalType":"address","name":"","type":"address"}],"stateMutability":"view","type":"function"},{"inputs":[],"name":"pendingOwner","outputs":[{"internalType":"address","name":"","type":"address"}],"stateMutability":"view","type":"function"},{"inputs":[{"internalType":"uint256","name":"modelId","type":"uint256"}],"name":"predictSplitterAddress","outputs":[{"internalType":"address","name":"predicted","type":"address"}],"stateMutability":"view","type":"function"},{"inputs":[],"name":"renounceOwnership","outputs":[],"stateMutability":"nonpayable","type":"function"},{"inputs":[{"internalType":"address","name":"account","type":"address"},{"internalType":"bool","name":"_authorized","type":"bool"}],"name":"setAuthorized","outputs":[],"stateMutability":"nonpayable","type":"function"},{"inputs":[{"internalType":"uint256","name":"newBps","type":"uint256"}],"name":"setDefaultMarketplaceBps","outputs":[],"stateMutability":"nonpayable","type":"function"},{"inputs":[{"internalType":"address","name":"newWallet","type":"address"}],"name":"setMarketplaceWallet","outputs":[],"stateMutability":"nonpayable","type":"function"},{"inputs":[{"internalType":"uint256","name":"modelId","type":"uint256"}],"name":"splitterExists","outputs":[{"internalType":"bool","name":"exists","type":"bool"}],"stateMutability":"view","type":"function"},{"inputs":[{"internalType":"uint256","name":"","type":"uint256"}],"name":"splitters","outputs":[{"internalType":"address","name":"","type":"address"}],"stateMutability":"view","type":"function"},{"inputs":[],"name":"totalSplitters","outputs":[{"internalType":"uint256","name":"","type":"uint256"}],"stateMutability":"view","type":"function"},{"inputs":[{"internalType":"address","name":"newOwner","type":"address"}],"name":"transferOwnership","outputs":[],"stateMutability":"nonpayable","type":"function"},{"inputs":[],"name":"usdc","outputs":[{"internalType":"address","name":"","type":"address"}],"stateMutability":"view","type":"function"}],"evm":{"bytecode":{"linkReferences":{},"object":"60c0346101ad57601f611c8538819003918201601f1916830192916001600160401b0391828511848610176101b25781606092859260409788528339810103126101ad5761004c826101c8565b908361005a602085016101c8565b930151331561019557600180546001600160a01b031990811690915560008054338184168117835588516001600160a01b0398939794939290919089167f8be0079c531659141344cd1fd0a4f28419497f9722a3daafe3b4186f6b6457e08980a38784161561018657508616918215610175576103e884116101645760a0526002541617600255600355835190610de2808301918383109083111761015057908291610ea38339039082f090811561014557501660805251610cc690816101dd82396080518181816104e0015281816108110152610ab3015260a0518181816107560152610b370152f35b8351903d90823e3d90fd5b634e487b7160e01b84526041600452602484fd5b875163c6cc5d7f60e01b8152600490fd5b875163d92e233d60e01b8152600490fd5b63d92e233d60e01b8152600490fd5b8451631e4fbdf760e01b815260006004820152602490fd5b600080fd5b634e487b7160e01b600052604160045260246000fd5b51906001600160a01b03821682036101ad5756fe6040608081526004908136101561001557600080fd5b600091823560e01c90816301f199f7146108df57816306e792ec146108735781630a08bcb4146107c15781630c508c01146107a25781633dca40e6146107855781633e413bee1461074157816345f79c521461072257816348807bbb146102fb5781634c8d4a921461070557816352e4ec9a1461067957816359f123041461050f5781635c60da1b146104cb578163702d8ba214610497578163711bf9b214610415578163715018a6146103b057816379ba50971461032d57816389980366146102fb5781638da5cb5b146102d3578163b918161114610295578163ca4c64cf1461020a57508063e30c3978146101e2578063ed9ed696146101ba578063f2fde38b1461014a5763fd967f471461012b57600080fd5b34610146578160031936011261014657602090516127108152f35b5080fd5b82346101b75760203660031901126101b75761016461097f565b61016c6109fd565b600180546001600160a01b0319166001600160a01b0392831690811790915582549091167f38d16b8cac22d99fc7c124b9cd0de2d3fa1faef420bfe791d8c362d765e227008380a380f35b80fd5b503461014657816003193601126101465760025490516001600160a01b039091168152602090f35b503461014657816003193601126101465760015490516001600160a01b039091168152602090f35b9050346102915760203660031901126102915761022561097f565b9061022e6109fd565b6001600160a01b03918216928315610284575050600254826bffffffffffffffffffffffff60a01b821617600255167f6f79e27210b19a4c7601e0a512e1a79bc305548722d4b80c87588effce7a55118380a380f35b5163d92e233d60e01b8152fd5b8280fd5b5050346101465760203660031901126101465760209160ff9082906001600160a01b036102c061097f565b1681526005855220541690519015158152f35b505034610146578160031936011261014657905490516001600160a01b039091168152602090f35b90503461029157602036600319011261029157803583526020908152918190205490516001600160a01b039091168152f35b91905034610291578260031936011261029157600154916001600160a01b039133838516036103995750506001600160a01b031991821660015582543392811683178455167f8be0079c531659141344cd1fd0a4f28419497f9722a3daafe3b4186f6b6457e08380a380f35b60249250519063118cdaa760e01b82523390820152fd5b83346101b757806003193601126101b7576103c96109fd565b600180546001600160a01b03199081169091558154908116825581906001600160a01b03167f8be0079c531659141344cd1fd0a4f28419497f9722a3daafe3b4186f6b6457e08280a380f35b50503461014657806003193601126101465761042f61097f565b60243590811515809203610493577f5fe3a0cb9aeae856eac34445ace9544f3e15c21fa6f9bffeca60d662a690ca1b9160209161046a6109fd565b6001600160a01b031680865260058352848620805460ff191660ff84161790559351908152a280f35b8380fd5b90503461029157602036600319011261029157803583526020908152918190205490516001600160a01b0390911615158152f35b505034610146578160031936011261014657517f00000000000000000000000000000000000000000000000000000000000000006001600160a01b03168152602090f35b8284346101b757602092836003193601126101465780358252808452828220546001600160a01b0390811693841561066a578051631b79279160e21b81529160c0838581895afa9384156106605785978691879588976105f2575b50818551809263efca2eed60e01b8252818c5afa9788156105e75780986105b2575b50508260c0998551998a52169088015216908501526060840152608083015260a0820152f35b90999750818a813d83116105e0575b6105cb81836109c7565b810103126101b757508260c09951979961058c565b503d6105c1565b8551903d90823e3d90fd5b9550955097505060c0833d60c011610658575b8161061260c093836109c7565b81010312610654576106258784016109e9565b926106318382016109e9565b9761063e606083016109e9565b5060a0608083015192015194989194958a61056a565b8480fd5b3d9150610605565b82513d87823e3d90fd5b51632cacf93560e01b81529050fd5b8284346101b75760803660031901126101b75761069461094e565b9061069d610969565b90338152600560205260ff84822054161590816106f0575b506106e157906020936106d092600354926064359235610a29565b90516001600160a01b039091168152f35b505051637d7b71b560e01b8152fd5b546001600160a01b03163314159050856106b5565b505034610146578160031936011261014657602090516103e88152f35b5050346101465781600319360112610146576020906006549051908152f35b505034610146578160031936011261014657517f00000000000000000000000000000000000000000000000000000000000000006001600160a01b03168152602090f35b505034610146578160031936011261014657602090516107d08152f35b5050346101465781600319360112610146576020906003549051908152f35b90503461029157602036600319011261029157602092508151838101913582528381526107ed81610995565b5190208151903060388301526f5af43d82803e903d91602b57fd5bf3ff60248301527f00000000000000000000000000000000000000000000000000000000000000006014830152733d602d80600a3d3981f3363d3d373d3d3d363d73825260588201526037600c82012060788201526055604360018060a01b03920120169051908152f35b8284346101b75760a03660031901126101b75761088e61094e565b90610897610969565b90338152600560205260ff84822054161590816108ca575b506106e157906020936106d092608435926064359235610a29565b546001600160a01b03163314159050856108af565b905034610291576020366003190112610291578035906108fd6109fd565b6103e882116109405750907f94150bd44dc151252e6fed96f99d18a1632237baddcc944ce5016825b0f79fcc91600354908060035582519182526020820152a180f35b825163c6cc5d7f60e01b8152fd5b602435906001600160a01b038216820361096457565b600080fd5b604435906001600160a01b038216820361096457565b600435906001600160a01b038216820361096457565b6040810190811067ffffffffffffffff8211176109b157604052565b634e487b7160e01b600052604160045260246000fd5b90601f8019910116810190811067ffffffffffffffff8211176109b157604052565b51906001600160a01b038216820361096457565b6000546001600160a01b03163303610a1157565b60405163118cdaa760e01b8152336004820152602490fd5b90949391929460009282845260049160209783895260018060a01b03986040928a8489205416610c80578a16978815610c70578a16948515610c62576107d08311610c41576103e88511610c4157848301808411610c4f5761271010610c4157835182810190888252838152610a9e81610995565b5190206e5af43d82803e903d91602b57fd5bf37f0000000000000000000000000000000000000000000000000000000000000000763d602d80600a3d3981f3363d3d373d3d3d363d7300000062ffffff8260881c16178b5260781b178352603760098af5978b8916988915610c31579b80600254168a3b15610291578960e48d93858e81958e8d51988997889663a432944560e01b88527f0000000000000000000000000000000000000000000000000000000000000000168d88015260248701526044860152606485015260848401528a60a48401528c60c48401525af18015610c2757610bfd575b5087815281835284812080546001600160a01b0319168a179055600654916000198314610bea57505060010160065582519485528401528201527f13f0ab3cc0ce6251e502076982de0501be274d59cfe1ff59d5b4bab74657b6d890606090a4565b634e487b7160e01b825260119052602490fd5b67ffffffffffffffff8111610c1457855238610b88565b506041602492634e487b7160e01b835252fd5b86513d84823e3d90fd5b855163b06ebf3d60e01b81528390fd5b835163c6cc5d7f60e01b8152fd5b634e487b7160e01b895260118252602489fd5b835163d92e233d60e01b8152fd5b835163d92e233d60e01b81528690fd5b8351634c62cb7b60e11b81528690fdfea26469706673582212202a8b9e4fb1cd4c80c05bd2b4f17b0ffbddd5154b1e50025ab1611c0f2694452b64736f6c634300081800336080806040523461001657610dc6908161001c8239f35b600080fdfe608060408181526004908136101561001657600080fd5b600091823560e01c93846302d05d3f14610b85575083630562b9f714610b0d57836308551a5314610ae557836327e235e314610aae5783633ccfd60b146109f85783633e413bee146109d157836343cdaad2146109b35783634f9e3e01146107785783636de49e441461071f578363867e7c27146106145783639c22b9a614610526578363a432944514610364578363c63adb2b14610346578363d15ca166146100f8578363d32627a114610328578363e4fc6b6d14610148578363ed9ed6961461011e57508263efca2eed146100fd57505063fd967f47146100f857600080fd5b610bc5565b3461011a578160031936011261011a576020906008549051908152f35b5080fd5b346101445782600319360112610144575490516001600160a01b03909116815260209150f35b8280fd5b9034610144578260031936011261014457610161610c5d565b825481516370a0823160e01b815230818501526020946001600160a01b0394919286908490602490829089165afa92831561031c5781936102ed575b506101e3856002541693848352600788526101dd6101c987852054896003541686528886205490610c3d565b88865416855260078a528785205490610c3d565b90610be2565b9485156102de5761024492857ff7576d8c2653e9d07af5ef229acf59b339e327d4e0eaddb4a96615534cf148f895936102c393612710936102498b8661022b60065483610c4a565b04998a9761023b60055484610c4a565b049a8b92610be2565b610be2565b96835260078c5283832061025e888254610c3d565b90558160035416835260078c52838320610279898254610c3d565b90555416815260078a522061028f828254610c3d565b905561029d87600854610c3d565b600855855193849388859094939260609260808301968352602083015260408201520152565b0390a16001600080516020610d718339815191525551908152f35b845162598fc960e21b81528390fd5b9092508581813d8311610315575b6103058183610c05565b810103126101445751918661019d565b503d6102fb565b508351903d90823e3d90fd5b503461011a578160031936011261011a576020906006549051908152f35b503461011a578160031936011261011a576020906005549051908152f35b346101445760e03660031901126101445761037d610baa565b6001600160a01b0360443581811693919290849003610522576064359083821680920361051e576084359184831680930361051a577ff0c57e16840df040f15088dc2f81fe391c3923bec73e23a9662efc9c229c6a009586549560ff878a1c16159667ffffffffffffffff811680159081610512575b6001149081610508575b1590816104ff575b506104ef5767ffffffffffffffff1981166001178955876104d0575b5061042a610d2f565b610432610d2f565b6001600080516020610d71833981519152556bffffffffffffffffffffffff60a01b9316838a541617895560243560015582600254161760025581600354161760035582541617905560a43560055560c43560065561048f578280f35b805468ff00000000000000001916905551600181527fc7f505b2f371ae2175ee4913f4499e1f2633a7b5936321eed1cdaeb6115181d290602090a181808280f35b68ffffffffffffffffff1916680100000000000000011788558a610421565b895163f92ee8a960e01b81528790fd5b9050158c610405565b303b1591506103fd565b8991506103f3565b8780fd5b8680fd5b8580fd5b9134610611578060031936011261061157805482516370a0823160e01b8152308186015260209490916001600160a01b039086908490602490829085165afa9283156106075784936105d2575b5090816105af926002541685526007875261059c86862054826003541687528787205490610c3d565b9154168452600786528484205490610c3d565b90818111156105ca576105c29250610be2565b905b51908152f35b5050906105c4565b9092508581813d8311610600575b6105ea8183610c05565b810103126105fc5751916105af610573565b8380fd5b503d6105e0565b85513d86823e3d90fd5b80fd5b92503461011a578160031936011261011a5760018060a01b03908160025416835260076020528083205491806003541684528184205493818654168152602083822054928254169660248551809981936370a0823160e01b835230908301525afa80156107135781906106de575b85965061069c8361069787986106d298610c3d565b610c3d565b90818111156106d6576106af9250610be2565b915b51948594859094939260609260808301968352602083015260408201520152565b0390f35b5050916106b1565b50946020813d60201161070b575b816106f960209383610c05565b81010312610522575193948594610682565b3d91506106ec565b508251903d90823e3d90fd5b34610144578260031936011261014457600154600254600354925460055460065486519485526001600160a01b03938416602086015294831695840195909552166060820152608081019290925260a082015260c09150f35b9034610144578260031936011261014457610791610c5d565b825481516370a0823160e01b81523084820152602092916001600160a01b03919084908290602490829086165afa9081156109a957869161097c575b50816002541680875261080d6007928387526101dd6107fa878b205487600354168c52888c205490610c3d565b868a54168b52858952878b205490610c3d565b90816108a6575b50503386528084528286205494851561089857612710861061088a5750847f7fcf532c15f0a6db0bd6d0e038bea71d30d808c7d98cb3bf7268a95bf5081b6594939261086e92338952855287848120553390885416610c8d565b519283523392a26001600080516020610d718339815191525580f35b8351630980da4560e11b8152fd5b8351631e9acf1760e31b8152fd5b7ff7576d8c2653e9d07af5ef229acf59b339e327d4e0eaddb4a96615534cf148f891610972612710806108db60065485610c4a565b04906108e960055485610c4a565b046108f8816102448487610be2565b948c52868a52888c2061090c868254610c3d565b905587600354168c52868a52888c20610926828254610c3d565b9055878b54168c52868a52888c2061093f838254610c3d565b905561094d84600854610c3d565b6008558851948594859094939260609260808301968352602083015260408201520152565b0390a18680610814565b90508381813d83116109a2575b6109938183610c05565b810103126105225751866107cd565b503d610989565b83513d88823e3d90fd5b503461011a578160031936011261011a576020906001549051908152f35b503461011a578160031936011261011a57905490516001600160a01b039091168152602090f35b9034610144578260031936011261014457610a11610c5d565b338352600760205280832054918215610aa0576127108310610a9257503380845260076020528184208490558354610a539184916001600160a01b0316610c8d565b519081527f7fcf532c15f0a6db0bd6d0e038bea71d30d808c7d98cb3bf7268a95bf5081b6560203392a26001600080516020610d718339815191525580f35b9051630980da4560e11b8152fd5b9051631e9acf1760e31b8152fd5b503461011a57602036600319011261011a5760209181906001600160a01b03610ad5610baa565b1681526007845220549051908152f35b503461011a578160031936011261011a5760025490516001600160a01b039091168152602090f35b903461014457602036600319011261014457813591610b2a610c5d565b82158015610b7a575b610a92573384526007602052828285205410610aa057503383526007602052808320610b60838254610be2565b90558254610a5390839033906001600160a01b0316610c8d565b506127108310610b33565b83903461011a578160031936011261011a576003546001600160a01b03168152602090f35b600435906001600160a01b0382168203610bc057565b600080fd5b34610bc0576000366003190112610bc05760206040516127108152f35b91908203918211610bef57565b634e487b7160e01b600052601160045260246000fd5b90601f8019910116810190811067ffffffffffffffff821117610c2757604052565b634e487b7160e01b600052604160045260246000fd5b91908201809211610bef57565b81810292918115918404141715610bef57565b600080516020610d718339815191526002815414610c7b5760029055565b604051633ee5aeb560e01b8152600490fd5b60405163a9059cbb60e01b602082019081526001600160a01b0393841660248301526044808301959095529381529092608082019067ffffffffffffffff821183831017610c2757602092600092604052519082865af115610d23576000513d610d1a57508082163b155b610d00575050565b604051635274afe760e01b81529116600482015260249150fd5b60011415610cf8565b6040513d6000823e3d90fd5b60ff7ff0c57e16840df040f15088dc2f81fe391c3923bec73e23a9662efc9c229c6a005460401c1615610d5e57565b604051631afcd79f60e31b8152600490fdfe9b779b17422d0df92223018b32b4d1fa46e071723d6817e2486d003becc55f00a2646970667358221220195d913d330af8f3666323e964b2b3f6f9bf2d8a3ea2c933965cca32d7b9ec0964736f6c63430008180033","opcodes":"PUSH1 0xC0 CALLVALUE PUSH2 0x1AD JUMPI PUSH1 0x1F PUSH2 0x1C85 CODESIZE DUP2 SWAP1 SUB SWAP2 DUP3 ADD PUSH1 0x1F NOT AND DUP4 ADD SWAP3 SWAP2 PUSH1 0x1 PUSH1 0x1 PUSH1 0x40 SHL SUB SWAP2 DUP3 DUP6 GT DUP5 DUP7 LT OR PUSH2 0x1B2 JUMPI DUP2 PUSH1 0x60 SWAP3 DUP6 SWAP3 PUSH1 0x40 SWAP8 DUP9 MSTORE DUP4 CODECOPY DUP2 ADD SUB SLT PUSH2 0x1AD JUMPI PUSH2 0x4C DUP3 PUSH2 0x1C8 JUMP JUMPDEST SWAP1 DUP4 PUSH2 0x5A PUSH1 0x20 DUP6 ADD PUSH2 0x1C8 JUMP JUMPDEST SWAP4 ADD MLOAD CALLER ISZERO PUSH2 0x195 JUMPI PUSH1 0x1 DUP1 SLOAD PUSH1 0x1 PUSH1 0x1 PUSH1 0xA0 SHL SUB NOT SWAP1 DUP2 AND SWAP1 SWAP2 SSTORE PUSH1 0x0 DUP1 SLOAD CALLER DUP2 DUP5 AND DUP2 OR DUP4 SSTORE DUP9 MLOAD PUSH1 0x1 PUSH1 0x1 PUSH1 0xA0 SHL SUB SWAP9 SWAP4 SWAP8 SWAP5 SWAP4 SWAP3 SWAP1 SWAP2 SWAP1 DUP10 AND PUSH32 0x8BE0079C531659141344CD1FD0A4F28419497F9722A3DAAFE3B4186F6B6457E0 DUP10 DUP1 LOG3 DUP8 DUP5 AND ISZERO PUSH2 0x186 JUMPI POP DUP7 AND SWAP2 DUP3 ISZERO PUSH2 0x175 JUMPI PUSH2 0x3E8 DUP5 GT PUSH2 0x164 JUMPI PUSH1 0xA0 MSTORE PUSH1 0x2 SLOAD AND OR PUSH1 0x2 SSTORE PUSH1 0x3 SSTORE DUP4 MLOAD SWAP1 PUSH2 0xDE2 DUP1 DUP4 ADD SWAP2 DUP4 DUP4 LT SWAP1 DUP4 GT OR PUSH2 0x150 JUMPI SWAP1 DUP3 SWAP2 PUSH2 0xEA3 DUP4 CODECOPY SUB SWAP1 DUP3 CREATE SWAP1 DUP2 ISZERO PUSH2 0x145 JUMPI POP AND PUSH1 0x80 MSTORE MLOAD PUSH2 0xCC6 SWAP1 DUP2 PUSH2 0x1DD DUP3 CODECOPY PUSH1 0x80 MLOAD DUP2 DUP2 DUP2 PUSH2 0x4E0 ADD MSTORE DUP2 DUP2 PUSH2 0x811 ADD MSTORE PUSH2 0xAB3 ADD MSTORE PUSH1 0xA0 MLOAD DUP2 DUP2 DUP2 PUSH2 0x756 ADD MSTORE PUSH2 0xB37 ADD MSTORE RETURN JUMPDEST DUP4 MLOAD SWAP1 RETURNDATASIZE SWAP1 DUP3 RETURNDATACOPY RETURNDATASIZE SWAP1 REVERT JUMPDEST PUSH4 0x4E487B71 PUSH1 0xE0 SHL DUP5 MSTORE PUSH1 0x41 PUSH1 0x4 MSTORE PUSH1 0x24 DUP5 REVERT JUMPDEST DUP8 MLOAD PUSH4 0xC6CC5D7F PUSH1 0xE0 SHL DUP2 MSTORE PUSH1 0x4 SWAP1 REVERT JUMPDEST DUP8 MLOAD PUSH4 0xD92E233D PUSH1 0xE0 SHL DUP2 MSTORE PUSH1 0x4 SWAP1 REVERT JUMPDEST PUSH4 0xD92E233D PUSH1 0xE0 SHL DUP2 MSTORE PUSH1 0x4 SWAP1 REVERT JUMPDEST DUP5 MLOAD PUSH4 0x1E4FBDF7 PUSH1 0xE0 SHL DUP2 MSTORE PUSH1 0x0 PUSH1 0x4 DUP3 ADD MSTORE PUSH1 0x24 SWAP1 REVERT JUMPDEST PUSH1 0x0 DUP1 REVERT JUMPDEST PUSH4 0x4E487B71 PUSH1 0xE0 SHL PUSH1 0x0 MSTORE PUSH1 0x41 PUSH1 0x4 MSTORE PUSH1 0x24 PUSH1 0x0 REVERT JUMPDEST MLOAD SWAP1 PUSH1 0x1 PUSH1 0x1 PUSH1 0xA0 SHL SUB DUP3 AND DUP3 SUB PUSH2 0x1AD JUMPI JUMP INVALID PUSH1 0x40 PUSH1 0x80 DUP2 MSTORE PUSH1 0x4 SWAP1 DUP2 CALLDATASIZE LT ISZERO PUSH2 0x15 JUMPI PUSH1 0x0 DUP1 REVERT JUMPDEST PUSH1 0x0 SWAP2 DUP3 CALLDATALOAD PUSH1 0xE0 SHR SWAP1 DUP2 PUSH4 0x1F199F7 EQ PUSH2 0x8DF JUMPI DUP2 PUSH4 0x6E792EC EQ PUSH2 0x873 JUMPI DUP2 PUSH4 0xA08BCB4 EQ PUSH2 0x7C1 JUMPI DUP2 PUSH4 0xC508C01 EQ PUSH2 0x7A2 JUMPI DUP2 PUSH4 0x3DCA40E6 EQ PUSH2 0x785 JUMPI DUP2 PUSH4 0x3E413BEE EQ PUSH2 0x741 JUMPI DUP2 PUSH4 0x45F79C52 EQ PUSH2 0x722 JUMPI DUP2 PUSH4 0x48807BBB EQ PUSH2 0x2FB JUMPI DUP2 PUSH4 0x4C8D4A92 EQ PUSH2 0x705 JUMPI DUP2 PUSH4 0x52E4EC9A EQ PUSH2 0x679 JUMPI DUP2 PUSH4 0x59F12304 EQ PUSH2 0x50F JUMPI DUP2 PUSH4 0x5C60DA1B EQ PUSH2 0x4CB JUMPI DUP2 PUSH4 0x702D8BA2 EQ PUSH2 0x497 JUMPI DUP2 PUSH4 0x711BF9B2 EQ PUSH2 0x415 JUMPI DUP2 PUSH4 0x715018A6 EQ PUSH2 0x3B0 JUMPI DUP2 PUSH4 0x79BA5097 EQ PUSH2 0x32D JUMPI DUP2 PUSH4 0x89980366 EQ PUSH2 0x2FB JUMPI DUP2 PUSH4 0x8DA5CB5B EQ PUSH2 0x2D3 JUMPI DUP2 PUSH4 0xB9181611 EQ PUSH2 0x295 JUMPI DUP2 PUSH4 0xCA4C64CF EQ PUSH2 0x20A JUMPI POP DUP1 PUSH4 0xE30C3978 EQ PUSH2 0x1E2 JUMPI DUP1 PUSH4 0xED9ED696 EQ PUSH2 0x1BA JUMPI DUP1 PUSH4 0xF2FDE38B EQ PUSH2 0x14A JUMPI PUSH4 0xFD967F47 EQ PUSH2 0x12B JUMPI PUSH1 0x0 DUP1 REVERT JUMPDEST CALLVALUE PUSH2 0x146 JUMPI DUP2 PUSH1 0x3 NOT CALLDATASIZE ADD SLT PUSH2 0x146 JUMPI PUSH1 0x20 SWAP1 MLOAD PUSH2 0x2710 DUP2 MSTORE RETURN JUMPDEST POP DUP1 REVERT JUMPDEST DUP3 CALLVALUE PUSH2 0x1B7 JUMPI PUSH1 0x20 CALLDATASIZE PUSH1 0x3 NOT ADD SLT PUSH2 0x1B7 JUMPI PUSH2 0x164 PUSH2 0x97F JUMP JUMPDEST PUSH2 0x16C PUSH2 0x9FD JUMP JUMPDEST PUSH1 0x1 DUP1 SLOAD PUSH1 0x1 PUSH1 0x1 PUSH1 0xA0 SHL SUB NOT AND PUSH1 0x1 PUSH1 0x1 PUSH1 0xA0 SHL SUB SWAP3 DUP4 AND SWAP1 DUP2 OR SWAP1 SWAP2 SSTORE DUP3 SLOAD SWAP1 SWAP2 AND PUSH32 0x38D16B8CAC22D99FC7C124B9CD0DE2D3FA1FAEF420BFE791D8C362D765E22700 DUP4 DUP1 LOG3 DUP1 RETURN JUMPDEST DUP1 REVERT JUMPDEST POP CALLVALUE PUSH2 0x146 JUMPI DUP2 PUSH1 0x3 NOT CALLDATASIZE ADD SLT PUSH2 0x146 JUMPI PUSH1 0x2 SLOAD SWAP1 MLOAD PUSH1 0x1 PUSH1 0x1 PUSH1 0xA0 SHL SUB SWAP1 SWAP2 AND DUP2 MSTORE PUSH1 0x20 SWAP1 RETURN JUMPDEST POP CALLVALUE PUSH2 0x146 JUMPI DUP2 PUSH1 0x3 NOT CALLDATASIZE ADD SLT PUSH2 0x146 JUMPI PUSH1 0x1 SLOAD SWAP1 MLOAD PUSH1 0x1 PUSH1 0x1 PUSH1 0xA0 SHL SUB SWAP1 SWAP2 AND DUP2 MSTORE PUSH1 0x20 SWAP1 RETURN JUMPDEST SWAP1 POP CALLVALUE PUSH2 0x291 JUMPI PUSH1 0x20 CALLDATASIZE PUSH1 0x3 NOT ADD SLT PUSH2 0x291 JUMPI PUSH2 0x225 PUSH2 0x97F JUMP JUMPDEST SWAP1 PUSH2 0x22E PUSH2 0x9FD JUMP JUMPDEST PUSH1 0x1 PUSH1 0x1 PUSH1 0xA0 SHL SUB SWAP2 DUP3 AND SWAP3 DUP4 ISZERO PUSH2 0x284 JUMPI POP POP PUSH1 0x2 SLOAD DUP3 PUSH12 0xFFFFFFFFFFFFFFFFFFFFFFFF PUSH1 0xA0 SHL DUP3 AND OR PUSH1 0x2 SSTORE AND PUSH32 0x6F79E27210B19A4C7601E0A512E1A79BC305548722D4B80C87588EFFCE7A5511 DUP4 DUP1 LOG3 DUP1 RETURN JUMPDEST MLOAD PUSH4 0xD92E233D PUSH1 0xE0 SHL DUP2 MSTORE REVERT JUMPDEST DUP3 DUP1 REVERT JUMPDEST POP POP CALLVALUE PUSH2 0x146 JUMPI PUSH1 0x20 CALLDATASIZE PUSH1 0x3 NOT ADD SLT PUSH2 0x146 JUMPI PUSH1 0x20 SWAP2 PUSH1 0xFF SWAP1 DUP3 SWAP1 PUSH1 0x1 PUSH1 0x1 PUSH1 0xA0 SHL SUB PUSH2 0x2C0 PUSH2 0x97F JUMP JUMPDEST AND DUP2 MSTORE PUSH1 0x5 DUP6 MSTORE KECCAK256 SLOAD AND SWAP1 MLOAD SWAP1 ISZERO ISZERO DUP2 MSTORE RETURN JUMPDEST POP POP CALLVALUE PUSH2 0x146 JUMPI DUP2 PUSH1 0x3 NOT CALLDATASIZE ADD SLT PUSH2 0x146 JUMPI SWAP1 SLOAD SWAP1 MLOAD PUSH1 0x1 PUSH1 0x1 PUSH1 0xA0 SHL SUB SWAP1 SWAP2 AND DUP2 MSTORE PUSH1 0x20 SWAP1 RETURN JUMPDEST SWAP1 POP CALLVALUE PUSH2 0x291 JUMPI PUSH1 0x20 CALLDATASIZE PUSH1 0x3 NOT ADD SLT PUSH2 0x291 JUMPI DUP1 CALLDATALOAD DUP4 MSTORE PUSH1 0x20 SWAP1 DUP2 MSTORE SWAP2 DUP2 SWAP1 KECCAK256 SLOAD SWAP1 MLOAD PUSH1 0x1 PUSH1 0x1 PUSH1 0xA0 SHL SUB SWAP1 SWAP2 AND DUP2 MSTORE RETURN JUMPDEST SWAP2 SWAP1 POP CALLVALUE PUSH2 0x291 JUMPI DUP3 PUSH1 0x3 NOT CALLDATASIZE ADD SLT PUSH2 0x291 JUMPI PUSH1 0x1 SLOAD SWAP2 PUSH1 0x1 PUSH1 0x1 PUSH1 0xA0 SHL SUB SWAP2 CALLER DUP4 DUP6 AND SUB PUSH2 0x399 JUMPI POP POP PUSH1 0x1 PUSH1 0x1 PUSH1 0xA0 SHL SUB NOT SWAP2 DUP3 AND PUSH1 0x1 SSTORE DUP3 SLOAD CALLER SWAP3 DUP2 AND DUP4 OR DUP5 SSTORE AND PUSH32 0x8BE0079C531659141344CD1FD0A4F28419497F9722A3DAAFE3B4186F6B6457E0 DUP4 DUP1 LOG3 DUP1 RETURN JUMPDEST PUSH1 0x24 SWAP3 POP MLOAD SWAP1 PUSH4 0x118CDAA7 PUSH1 0xE0 SHL DUP3 MSTORE CALLER SWAP1 DUP3 ADD MSTORE REVERT JUMPDEST DUP4 CALLVALUE PUSH2 0x1B7 JUMPI DUP1 PUSH1 0x3 NOT CALLDATASIZE ADD SLT PUSH2 0x1B7 JUMPI PUSH2 0x3C9 PUSH2 0x9FD JUMP JUMPDEST PUSH1 0x1 DUP1 SLOAD PUSH1 0x1 PUSH1 0x1 PUSH1 0xA0 SHL SUB NOT SWAP1 DUP2 AND SWAP1 SWAP2 SSTORE DUP2 SLOAD SWAP1 DUP2 AND DUP3 SSTORE DUP2 SWAP1 PUSH1 0x1 PUSH1 0x1 PUSH1 0xA0 SHL SUB AND PUSH32 0x8BE0079C531659141344CD1FD0A4F28419497F9722A3DAAFE3B4186F6B6457E0 DUP3 DUP1 LOG3 DUP1 RETURN JUMPDEST POP POP CALLVALUE PUSH2 0x146 JUMPI DUP1 PUSH1 0x3 NOT CALLDATASIZE ADD SLT PUSH2 0x146 JUMPI PUSH2 0x42F PUSH2 0x97F JUMP JUMPDEST PUSH1 0x24 CALLDATALOAD SWAP1 DUP2 ISZERO ISZERO DUP1 SWAP3 SUB PUSH2 0x493 JUMPI PUSH32 0x5FE3A0CB9AEAE856EAC34445ACE9544F3E15C21FA6F9BFFECA60D662A690CA1B SWAP2 PUSH1 0x20 SWAP2 PUSH2 0x46A PUSH2 0x9FD JUMP JUMPDEST PUSH1 0x1 PUSH1 0x1 PUSH1 0xA0 SHL SUB AND DUP1 DUP7 MSTORE PUSH1 0x5 DUP4 MSTORE DUP5 DUP7 KECCAK256 DUP1 SLOAD PUSH1 0xFF NOT AND PUSH1 0xFF DUP5 AND OR SWAP1 SSTORE SWAP4 MLOAD SWAP1 DUP2 MSTORE LOG2 DUP1 RETURN JUMPDEST DUP4 DUP1 REVERT JUMPDEST SWAP1 POP CALLVALUE PUSH2 0x291 JUMPI PUSH1 0x20 CALLDATASIZE PUSH1 0x3 NOT ADD SLT PUSH2 0x291 JUMPI DUP1 CALLDATALOAD DUP4 MSTORE PUSH1 0x20 SWAP1 DUP2 MSTORE SWAP2 DUP2 SWAP1 KECCAK256 SLOAD SWAP1 MLOAD PUSH1 0x1 PUSH1 0x1 PUSH1 0xA0 SHL SUB SWAP1 SWAP2 AND ISZERO ISZERO DUP2 MSTORE RETURN JUMPDEST POP POP CALLVALUE PUSH2 0x146 JUMPI DUP2 PUSH1 0x3 NOT CALLDATASIZE ADD SLT PUSH2 0x146 JUMPI MLOAD PUSH32 0x0 PUSH1 0x1 PUSH1 0x1 PUSH1 0xA0 SHL SUB AND DUP2 MSTORE PUSH1 0x20 SWAP1 RETURN JUMPDEST DUP3 DUP5 CALLVALUE PUSH2 0x1B7 JUMPI PUSH1 0x20 SWAP3 DUP4 PUSH1 0x3 NOT CALLDATASIZE ADD SLT PUSH2 0x146 JUMPI DUP1 CALLDATALOAD DUP3 MSTORE DUP1 DUP5 MSTORE DUP3 DUP3 KECCAK256 SLOAD PUSH1 0x1 PUSH1 0x1 PUSH1 0xA0 SHL SUB SWAP1 DUP2 AND SWAP4 DUP5 ISZERO PUSH2 0x66A JUMPI DUP1 MLOAD PUSH4 0x1B792791 PUSH1 0xE2 SHL DUP2 MSTORE SWAP2 PUSH1 0xC0 DUP4 DUP6 DUP2 DUP10 GAS STATICCALL SWAP4 DUP5 ISZERO PUSH2 0x660 JUMPI DUP6 SWAP8 DUP7 SWAP2 DUP8 SWAP6 DUP9 SWAP8 PUSH2 0x5F2 JUMPI JUMPDEST POP DUP2 DUP6 MLOAD DUP1 SWAP3 PUSH4 0xEFCA2EED PUSH1 0xE0 SHL DUP3 MSTORE DUP2 DUP13 GAS STATICCALL SWAP8 DUP9 ISZERO PUSH2 0x5E7 JUMPI DUP1 SWAP9 PUSH2 0x5B2 JUMPI JUMPDEST POP POP DUP3 PUSH1 0xC0 SWAP10 DUP6 MLOAD SWAP10 DUP11 MSTORE AND SWAP1 DUP9 ADD MSTORE AND SWAP1 DUP6 ADD MSTORE PUSH1 0x60 DUP5 ADD MSTORE PUSH1 0x80 DUP4 ADD MSTORE PUSH1 0xA0 DUP3 ADD MSTORE RETURN JUMPDEST SWAP1 SWAP10 SWAP8 POP DUP2 DUP11 DUP2 RETURNDATASIZE DUP4 GT PUSH2 0x5E0 JUMPI JUMPDEST PUSH2 0x5CB DUP2 DUP4 PUSH2 0x9C7 JUMP JUMPDEST DUP2 ADD SUB SLT PUSH2 0x1B7 JUMPI POP DUP3 PUSH1 0xC0 SWAP10 MLOAD SWAP8 SWAP10 PUSH2 0x58C JUMP JUMPDEST POP RETURNDATASIZE PUSH2 0x5C1 JUMP JUMPDEST DUP6 MLOAD SWAP1 RETURNDATASIZE SWAP1 DUP3 RETURNDATACOPY RETURNDATASIZE SWAP1 REVERT JUMPDEST SWAP6 POP SWAP6 POP SWAP8 POP POP PUSH1 0xC0 DUP4 RETURNDATASIZE PUSH1 0xC0 GT PUSH2 0x658 JUMPI JUMPDEST DUP2 PUSH2 0x612 PUSH1 0xC0 SWAP4 DUP4 PUSH2 0x9C7 JUMP JUMPDEST DUP2 ADD SUB SLT PUSH2 0x654 JUMPI PUSH2 0x625 DUP8 DUP5 ADD PUSH2 0x9E9 JUMP JUMPDEST SWAP3 PUSH2 0x631 DUP4 DUP3 ADD PUSH2 0x9E9 JUMP JUMPDEST SWAP8 PUSH2 0x63E PUSH1 0x60 DUP4 ADD PUSH2 0x9E9 JUMP JUMPDEST POP PUSH1 0xA0 PUSH1 0x80 DUP4 ADD MLOAD SWAP3 ADD MLOAD SWAP5 SWAP9 SWAP2 SWAP5 SWAP6 DUP11 PUSH2 0x56A JUMP JUMPDEST DUP5 DUP1 REVERT JUMPDEST RETURNDATASIZE SWAP2 POP PUSH2 0x605 JUMP JUMPDEST DUP3 MLOAD RETURNDATASIZE DUP8 DUP3 RETURNDATACOPY RETURNDATASIZE SWAP1 REVERT JUMPDEST MLOAD PUSH4 0x2CACF935 PUSH1 0xE0 SHL DUP2 MSTORE SWAP1 POP REVERT JUMPDEST DUP3 DUP5 CALLVALUE PUSH2 0x1B7 JUMPI PUSH1 0x80 CALLDATASIZE PUSH1 0x3 NOT ADD SLT PUSH2 0x1B7 JUMPI PUSH2 0x694 PUSH2 0x94E JUMP JUMPDEST SWAP1 PUSH2 0x69D PUSH2 0x969 JUMP JUMPDEST SWAP1 CALLER DUP2 MSTORE PUSH1 0x5 PUSH1 0x20 MSTORE PUSH1 0xFF DUP5 DUP3 KECCAK256 SLOAD AND ISZERO SWAP1 DUP2 PUSH2 0x6F0 JUMPI JUMPDEST POP PUSH2 0x6E1 JUMPI SWAP1 PUSH1 0x20 SWAP4 PUSH2 0x6D0 SWAP3 PUSH1 0x3 SLOAD SWAP3 PUSH1 0x64 CALLDATALOAD SWAP3 CALLDATALOAD PUSH2 0xA29 JUMP JUMPDEST SWAP1 MLOAD PUSH1 0x1 PUSH1 0x1 PUSH1 0xA0 SHL SUB SWAP1 SWAP2 AND DUP2 MSTORE RETURN JUMPDEST POP POP MLOAD PUSH4 0x7D7B71B5 PUSH1 0xE0 SHL DUP2 MSTORE REVERT JUMPDEST SLOAD PUSH1 0x1 PUSH1 0x1 PUSH1 0xA0 SHL SUB AND CALLER EQ ISZERO SWAP1 POP DUP6 PUSH2 0x6B5 JUMP JUMPDEST POP POP CALLVALUE PUSH2 0x146 JUMPI DUP2 PUSH1 0x3 NOT CALLDATASIZE ADD SLT PUSH2 0x146 JUMPI PUSH1 0x20 SWAP1 MLOAD PUSH2 0x3E8 DUP2 MSTORE RETURN JUMPDEST POP POP CALLVALUE PUSH2 0x146 JUMPI DUP2 PUSH1 0x3 NOT CALLDATASIZE ADD SLT PUSH2 0x146 JUMPI PUSH1 0x20 SWAP1 PUSH1 0x6 SLOAD SWAP1 MLOAD SWAP1 DUP2 MSTORE RETURN JUMPDEST POP POP CALLVALUE PUSH2 0x146 JUMPI DUP2 PUSH1 0x3 NOT CALLDATASIZE ADD SLT PUSH2 0x146 JUMPI MLOAD PUSH32 0x0 PUSH1 0x1 PUSH1 0x1 PUSH1 0xA0 SHL SUB AND DUP2 MSTORE PUSH1 0x20 SWAP1 RETURN JUMPDEST POP POP CALLVALUE PUSH2 0x146 JUMPI DUP2 PUSH1 0x3 NOT CALLDATASIZE ADD SLT PUSH2 0x146 JUMPI PUSH1 0x20 SWAP1 MLOAD PUSH2 0x7D0 DUP2 MSTORE RETURN JUMPDEST POP POP CALLVALUE PUSH2 0x146 JUMPI DUP2 PUSH1 0x3 NOT CALLDATASIZE ADD SLT PUSH2 0x146 JUMPI PUSH1 0x20 SWAP1 PUSH1 0x3 SLOAD SWAP1 MLOAD SWAP1 DUP2 MSTORE RETURN JUMPDEST SWAP1 POP CALLVALUE PUSH2 0x291 JUMPI PUSH1 0x20 CALLDATASIZE PUSH1 0x3 NOT ADD SLT PUSH2 0x291 JUMPI PUSH1 0x20 SWAP3 POP DUP2 MLOAD DUP4 DUP2 ADD SWAP2 CALLDATALOAD DUP3 MSTORE DUP4 DUP2 MSTORE PUSH2 0x7ED DUP2 PUSH2 0x995 JUMP JUMPDEST MLOAD SWAP1 KECCAK256 DUP2 MLOAD SWAP1 ADDRESS PUSH1 0x38 DUP4 ADD MSTORE PUSH16 0x5AF43D82803E903D91602B57FD5BF3FF PUSH1 0x24 DUP4 ADD MSTORE PUSH32 0x0 PUSH1 0x14 DUP4 ADD MSTORE PUSH20 0x3D602D80600A3D3981F3363D3D373D3D3D363D73 DUP3 MSTORE PUSH1 0x58 DUP3 ADD MSTORE PUSH1 0x37 PUSH1 0xC DUP3 ADD KECCAK256 PUSH1 0x78 DUP3 ADD MSTORE PUSH1 0x55 PUSH1 0x43 PUSH1 0x1 DUP1 PUSH1 0xA0 SHL SUB SWAP3 ADD KECCAK256 AND SWAP1 MLOAD SWAP1 DUP2 MSTORE RETURN JUMPDEST DUP3 DUP5 CALLVALUE PUSH2 0x1B7 JUMPI PUSH1 0xA0 CALLDATASIZE PUSH1 0x3 NOT ADD SLT PUSH2 0x1B7 JUMPI PUSH2 0x88E PUSH2 0x94E JUMP JUMPDEST SWAP1 PUSH2 0x897 PUSH2 0x969 JUMP JUMPDEST SWAP1 CALLER DUP2 MSTORE PUSH1 0x5 PUSH1 0x20 MSTORE PUSH1 0xFF DUP5 DUP3 KECCAK256 SLOAD AND ISZERO SWAP1 DUP2 PUSH2 0x8CA JUMPI JUMPDEST POP PUSH2 0x6E1 JUMPI SWAP1 PUSH1 0x20 SWAP4 PUSH2 0x6D0 SWAP3 PUSH1 0x84 CALLDATALOAD SWAP3 PUSH1 0x64 CALLDATALOAD SWAP3 CALLDATALOAD PUSH2 0xA29 JUMP JUMPDEST SLOAD PUSH1 0x1 PUSH1 0x1 PUSH1 0xA0 SHL SUB AND CALLER EQ ISZERO SWAP1 POP DUP6 PUSH2 0x8AF JUMP JUMPDEST SWAP1 POP CALLVALUE PUSH2 0x291 JUMPI PUSH1 0x20 CALLDATASIZE PUSH1 0x3 NOT ADD SLT PUSH2 0x291 JUMPI DUP1 CALLDATALOAD SWAP1 PUSH2 0x8FD PUSH2 0x9FD JUMP JUMPDEST PUSH2 0x3E8 DUP3 GT PUSH2 0x940 JUMPI POP SWAP1 PUSH32 0x94150BD44DC151252E6FED96F99D18A1632237BADDCC944CE5016825B0F79FCC SWAP2 PUSH1 0x3 SLOAD SWAP1 DUP1 PUSH1 0x3 SSTORE DUP3 MLOAD SWAP2 DUP3 MSTORE PUSH1 0x20 DUP3 ADD MSTORE LOG1 DUP1 RETURN JUMPDEST DUP3 MLOAD PUSH4 0xC6CC5D7F PUSH1 0xE0 SHL DUP2 MSTORE REVERT JUMPDEST PUSH1 0x24 CALLDATALOAD SWAP1 PUSH1 0x1 PUSH1 0x1 PUSH1 0xA0 SHL SUB DUP3 AND DUP3 SUB PUSH2 0x964 JUMPI JUMP JUMPDEST PUSH1 0x0 DUP1 REVERT JUMPDEST PUSH1 0x44 CALLDATALOAD SWAP1 PUSH1 0x1 PUSH1 0x1 PUSH1 0xA0 SHL SUB DUP3 AND DUP3 SUB PUSH2 0x964 JUMPI JUMP JUMPDEST PUSH1 0x4 CALLDATALOAD SWAP1 PUSH1 0x1 PUSH1 0x1 PUSH1 0xA0 SHL SUB DUP3 AND DUP3 SUB PUSH2 0x964 JUMPI JUMP JUMPDEST PUSH1 0x40 DUP2 ADD SWAP1 DUP2 LT PUSH8 0xFFFFFFFFFFFFFFFF DUP3 GT OR PUSH2 0x9B1 JUMPI PUSH1 0x40 MSTORE JUMP JUMPDEST PUSH4 0x4E487B71 PUSH1 0xE0 SHL PUSH1 0x0 MSTORE PUSH1 0x41 PUSH1 0x4 MSTORE PUSH1 0x24 PUSH1 0x0 REVERT JUMPDEST SWAP1 PUSH1 0x1F DUP1 NOT SWAP2 ADD AND DUP2 ADD SWAP1 DUP2 LT PUSH8 0xFFFFFFFFFFFFFFFF DUP3 GT OR PUSH2 0x9B1 JUMPI PUSH1 0x40 MSTORE JUMP JUMPDEST MLOAD SWAP1 PUSH1 0x1 PUSH1 0x1 PUSH1 0xA0 SHL SUB DUP3 AND DUP3 SUB PUSH2 0x964 JUMPI JUMP JUMPDEST PUSH1 0x0 SLOAD PUSH1 0x1 PUSH1 0x1 PUSH1 0xA0 SHL SUB AND CALLER SUB PUSH2 0xA11 JUMPI JUMP JUMPDEST PUSH1 0x40 MLOAD PUSH4 0x118CDAA7 PUSH1 0xE0 SHL DUP2 MSTORE CALLER PUSH1 0x4 DUP3 ADD MSTORE PUSH1 0x24 SWAP1 REVERT JUMPDEST SWAP1 SWAP5 SWAP4 SWAP2 SWAP3 SWAP5 PUSH1 0x0 SWAP3 DUP3 DUP5 MSTORE PUSH1 0x4 SWAP2 PUSH1 0x20 SWAP8 DUP4 DUP10 MSTORE PUSH1 0x1 DUP1 PUSH1 0xA0 SHL SUB SWAP9 PUSH1 0x40 SWAP3 DUP11 DUP5 DUP10 KECCAK256 SLOAD AND PUSH2 0xC80 JUMPI DUP11 AND SWAP8 DUP9 ISZERO PUSH2 0xC70 JUMPI DUP11 AND SWAP5 DUP6 ISZERO PUSH2 0xC62 JUMPI PUSH2 0x7D0 DUP4 GT PUSH2 0xC41 JUMPI PUSH2 0x3E8 DUP6 GT PUSH2 0xC41 JUMPI DUP5 DUP4 ADD DUP1 DUP5 GT PUSH2 0xC4F JUMPI PUSH2 0x2710 LT PUSH2 0xC41 JUMPI DUP4 MLOAD DUP3 DUP2 ADD SWAP1 DUP9 DUP3 MSTORE DUP4 DUP2 MSTORE PUSH2 0xA9E DUP2 PUSH2 0x995 JUMP JUMPDEST MLOAD SWAP1 KECCAK256 PUSH15 0x5AF43D82803E903D91602B57FD5BF3 PUSH32 0x0 PUSH23 0x3D602D80600A3D3981F3363D3D373D3D3D363D73000000 PUSH3 0xFFFFFF DUP3 PUSH1 0x88 SHR AND OR DUP12 MSTORE PUSH1 0x78 SHL OR DUP4 MSTORE PUSH1 0x37 PUSH1 0x9 DUP11 CREATE2 SWAP8 DUP12 DUP10 AND SWAP9 DUP10 ISZERO PUSH2 0xC31 JUMPI SWAP12 DUP1 PUSH1 0x2 SLOAD AND DUP11 EXTCODESIZE ISZERO PUSH2 0x291 JUMPI DUP10 PUSH1 0xE4 DUP14 SWAP4 DUP6 DUP15 DUP2 SWAP6 DUP15 DUP14 MLOAD SWAP9 DUP10 SWAP8 DUP9 SWAP7 PUSH4 0xA4329445 PUSH1 0xE0 SHL DUP9 MSTORE PUSH32 0x0 AND DUP14 DUP9 ADD MSTORE PUSH1 0x24 DUP8 ADD MSTORE PUSH1 0x44 DUP7 ADD MSTORE PUSH1 0x64 DUP6 ADD MSTORE PUSH1 0x84 DUP5 ADD MSTORE DUP11 PUSH1 0xA4 DUP5 ADD MSTORE DUP13 PUSH1 0xC4 DUP5 ADD MSTORE GAS CALL DUP1 ISZERO PUSH2 0xC27 JUMPI PUSH2 0xBFD JUMPI JUMPDEST POP DUP8 DUP2 MSTORE DUP2 DUP4 MSTORE DUP5 DUP2 KECCAK256 DUP1 SLOAD PUSH1 0x1 PUSH1 0x1 PUSH1 0xA0 SHL SUB NOT AND DUP11 OR SWAP1 SSTORE PUSH1 0x6 SLOAD SWAP2 PUSH1 0x0 NOT DUP4 EQ PUSH2 0xBEA JUMPI POP POP PUSH1 0x1 ADD PUSH1 0x6 SSTORE DUP3 MLOAD SWAP5 DUP6 MSTORE DUP5 ADD MSTORE DUP3 ADD MSTORE PUSH32 0x13F0AB3CC0CE6251E502076982DE0501BE274D59CFE1FF59D5B4BAB74657B6D8 SWAP1 PUSH1 0x60 SWAP1 LOG4 JUMP JUMPDEST PUSH4 0x4E487B71 PUSH1 0xE0 SHL DUP3 MSTORE PUSH1 0x11 SWAP1 MSTORE PUSH1 0x24 SWAP1 REVERT JUMPDEST PUSH8 0xFFFFFFFFFFFFFFFF DUP2 GT PUSH2 0xC14 JUMPI DUP6 MSTORE CODESIZE PUSH2 0xB88 JUMP JUMPDEST POP PUSH1 0x41 PUSH1 0x24 SWAP3 PUSH4 0x4E487B71 PUSH1 0xE0 SHL DUP4 MSTORE MSTORE REVERT JUMPDEST DUP7 MLOAD RETURNDATASIZE DUP5 DUP3 RETURNDATACOPY RETURNDATASIZE SWAP1 REVERT JUMPDEST DUP6 MLOAD PUSH4 0xB06EBF3D PUSH1 0xE0 SHL DUP2 MSTORE DUP4 SWAP1 REVERT JUMPDEST DUP4 MLOAD PUSH4 0xC6CC5D7F PUSH1 0xE0 SHL DUP2 MSTORE REVERT JUMPDEST PUSH4 0x4E487B71 PUSH1 0xE0 SHL DUP10 MSTORE PUSH1 0x11 DUP3 MSTORE PUSH1 0x24 DUP10 REVERT JUMPDEST DUP4 MLOAD PUSH4 0xD92E233D PUSH1 0xE0 SHL DUP2 MSTORE REVERT JUMPDEST DUP4 MLOAD PUSH4 0xD92E233D PUSH1 0xE0 SHL DUP2 MSTORE DUP7 SWAP1 REVERT JUMPDEST DUP4 MLOAD PUSH4 0x4C62CB7B PUSH1 0xE1 SHL DUP2 MSTORE DUP7 SWAP1 REVERT INVALID LOG2 PUSH5 0x6970667358 0x22 SLT KECCAK256 0x2A DUP12 SWAP15 0x4F 0xB1 0xCD 0x4C DUP1 0xC0 JUMPDEST 0xD2 0xB4 CALL PUSH28 0xFFBDDD5154B1E50025AB1611C0F2694452B64736F6C634300081800 CALLER PUSH1 0x80 DUP1 PUSH1 0x40 MSTORE CALLVALUE PUSH2 0x16 JUMPI PUSH2 0xDC6 SWAP1 DUP2 PUSH2 0x1C DUP3 CODECOPY RETURN JUMPDEST PUSH1 0x0 DUP1 REVERT INVALID PUSH1 0x80 PUSH1 0x40 DUP2 DUP2 MSTORE PUSH1 0x4 SWAP1 DUP2 CALLDATASIZE LT ISZERO PUSH2 0x16 JUMPI PUSH1 0x0 DUP1 REVERT JUMPDEST PUSH1 0x0 SWAP2 DUP3 CALLDATALOAD PUSH1 0xE0 SHR SWAP4 DUP5 PUSH4 0x2D05D3F EQ PUSH2 0xB85 JUMPI POP DUP4 PUSH4 0x562B9F7 EQ PUSH2 0xB0D JUMPI DUP4 PUSH4 0x8551A53 EQ PUSH2 0xAE5 JUMPI DUP4 PUSH4 0x27E235E3 EQ PUSH2 0xAAE JUMPI DUP4 PUSH4 0x3CCFD60B EQ PUSH2 0x9F8 JUMPI DUP4 PUSH4 0x3E413BEE EQ PUSH2 0x9D1 JUMPI DUP4 PUSH4 0x43CDAAD2 EQ PUSH2 0x9B3 JUMPI DUP4 PUSH4 0x4F9E3E01 EQ PUSH2 0x778 JUMPI DUP4 PUSH4 0x6DE49E44 EQ PUSH2 0x71F JUMPI DUP4 PUSH4 0x867E7C27 EQ PUSH2 0x614 JUMPI DUP4 PUSH4 0x9C22B9A6 EQ PUSH2 0x526 JUMPI DUP4 PUSH4 0xA4329445 EQ PUSH2 0x364 JUMPI DUP4 PUSH4 0xC63ADB2B EQ PUSH2 0x346 JUMPI DUP4 PUSH4 0xD15CA166 EQ PUSH2 0xF8 JUMPI DUP4 PUSH4 0xD32627A1 EQ PUSH2 0x328 JUMPI DUP4 PUSH4 0xE4FC6B6D EQ PUSH2 0x148 JUMPI DUP4 PUSH4 0xED9ED696 EQ PUSH2 0x11E JUMPI POP DUP3 PUSH4 0xEFCA2EED EQ PUSH2 0xFD JUMPI POP POP PUSH4 0xFD967F47 EQ PUSH2 0xF8 JUMPI PUSH1 0x0 DUP1 REVERT JUMPDEST PUSH2 0xBC5 JUMP JUMPDEST CALLVALUE PUSH2 0x11A JUMPI DUP2 PUSH1 0x3 NOT CALLDATASIZE ADD SLT PUSH2 0x11A JUMPI PUSH1 0x20 SWAP1 PUSH1 0x8 SLOAD SWAP1 MLOAD SWAP1 DUP2 MSTORE RETURN JUMPDEST POP DUP1 REVERT JUMPDEST CALLVALUE PUSH2 0x144 JUMPI DUP3 PUSH1 0x3 NOT CALLDATASIZE ADD SLT PUSH2 0x144 JUMPI SLOAD SWAP1 MLOAD PUSH1 0x1 PUSH1 0x1 PUSH1 0xA0 SHL SUB SWAP1 SWAP2 AND DUP2 MSTORE PUSH1 0x20 SWAP2 POP RETURN JUMPDEST DUP3 DUP1 REVERT JUMPDEST SWAP1 CALLVALUE PUSH2 0x144 JUMPI DUP3 PUSH1 0x3 NOT CALLDATASIZE ADD SLT PUSH2 0x144 JUMPI PUSH2 0x161 PUSH2 0xC5D JUMP JUMPDEST DUP3 SLOAD DUP2 MLOAD PUSH4 0x70A08231 PUSH1 0xE0 SHL DUP2 MSTORE ADDRESS DUP2 DUP6 ADD MSTORE PUSH1 0x20 SWAP5 PUSH1 0x1 PUSH1 0x1 PUSH1 0xA0 SHL SUB SWAP5 SWAP2 SWAP3 DUP7 SWAP1 DUP5 SWAP1 PUSH1 0x24 SWAP1 DUP3 SWAP1 DUP10 AND GAS STATICCALL SWAP3 DUP4 ISZERO PUSH2 0x31C JUMPI DUP2 SWAP4 PUSH2 0x2ED JUMPI JUMPDEST POP PUSH2 0x1E3 DUP6 PUSH1 0x2 SLOAD AND SWAP4 DUP5 DUP4 MSTORE PUSH1 0x7 DUP9 MSTORE PUSH2 0x1DD PUSH2 0x1C9 DUP8 DUP6 KECCAK256 SLOAD DUP10 PUSH1 0x3 SLOAD AND DUP7 MSTORE DUP9 DUP7 KECCAK256 SLOAD SWAP1 PUSH2 0xC3D JUMP JUMPDEST DUP9 DUP7 SLOAD AND DUP6 MSTORE PUSH1 0x7 DUP11 MSTORE DUP8 DUP6 KECCAK256 SLOAD SWAP1 PUSH2 0xC3D JUMP JUMPDEST SWAP1 PUSH2 0xBE2 JUMP JUMPDEST SWAP5 DUP6 ISZERO PUSH2 0x2DE JUMPI PUSH2 0x244 SWAP3 DUP6 PUSH32 0xF7576D8C2653E9D07AF5EF229ACF59B339E327D4E0EADDB4A96615534CF148F8 SWAP6 SWAP4 PUSH2 0x2C3 SWAP4 PUSH2 0x2710 SWAP4 PUSH2 0x249 DUP12 DUP7 PUSH2 0x22B PUSH1 0x6 SLOAD DUP4 PUSH2 0xC4A JUMP JUMPDEST DIV SWAP10 DUP11 SWAP8 PUSH2 0x23B PUSH1 0x5 SLOAD DUP5 PUSH2 0xC4A JUMP JUMPDEST DIV SWAP11 DUP12 SWAP3 PUSH2 0xBE2 JUMP JUMPDEST PUSH2 0xBE2 JUMP JUMPDEST SWAP7 DUP4 MSTORE PUSH1 0x7 DUP13 MSTORE DUP4 DUP4 KECCAK256 PUSH2 0x25E DUP9 DUP3 SLOAD PUSH2 0xC3D JUMP JUMPDEST SWAP1 SSTORE DUP2 PUSH1 0x3 SLOAD AND DUP4 MSTORE PUSH1 0x7 DUP13 MSTORE DUP4 DUP4 KECCAK256 PUSH2 0x279 DUP10 DUP3 SLOAD PUSH2 0xC3D JUMP JUMPDEST SWAP1 SSTORE SLOAD AND DUP2 MSTORE PUSH1 0x7 DUP11 MSTORE KECCAK256 PUSH2 0x28F DUP3 DUP3 SLOAD PUSH2 0xC3D JUMP JUMPDEST SWAP1 SSTORE PUSH2 0x29D DUP8 PUSH1 0x8 SLOAD PUSH2 0xC3D JUMP JUMPDEST PUSH1 0x8 SSTORE DUP6 MLOAD SWAP4 DUP5 SWAP4 DUP9 DUP6 SWAP1 SWAP5 SWAP4 SWAP3 PUSH1 0x60 SWAP3 PUSH1 0x80 DUP4 ADD SWAP7 DUP4 MSTORE PUSH1 0x20 DUP4 ADD MSTORE PUSH1 0x40 DUP3 ADD MSTORE ADD MSTORE JUMP JUMPDEST SUB SWAP1 LOG1 PUSH1 0x1 PUSH1 0x0 DUP1 MLOAD PUSH1 0x20 PUSH2 0xD71 DUP4 CODECOPY DUP2 MLOAD SWAP2 MSTORE SSTORE MLOAD SWAP1 DUP2 MSTORE RETURN JUMPDEST DUP5 MLOAD PUSH3 0x598FC9 PUSH1 0xE2 SHL DUP2 MSTORE DUP4 SWAP1 REVERT JUMPDEST SWAP1 SWAP3 POP DUP6 DUP2 DUP2 RETURNDATASIZE DUP4 GT PUSH2 0x315 JUMPI JUMPDEST PUSH2 0x305 DUP2 DUP4 PUSH2 0xC05 JUMP JUMPDEST DUP2 ADD SUB SLT PUSH2 0x144 JUMPI MLOAD SWAP2 DUP7 PUSH2 0x19D JUMP JUMPDEST POP RETURNDATASIZE PUSH2 0x2FB JUMP JUMPDEST POP DUP4 MLOAD SWAP1 RETURNDATASIZE SWAP1 DUP3 RETURNDATACOPY RETURNDATASIZE SWAP1 REVERT JUMPDEST POP CALLVALUE PUSH2 0x11A JUMPI DUP2 PUSH1 0x3 NOT CALLDATASIZE ADD SLT PUSH2 0x11A JUMPI PUSH1 0x20 SWAP1 PUSH1 0x6 SLOAD SWAP1 MLOAD SWAP1 DUP2 MSTORE RETURN JUMPDEST POP CALLVALUE PUSH2 0x11A JUMPI DUP2 PUSH1 0x3 NOT CALLDATASIZE ADD SLT PUSH2 0x11A JUMPI PUSH1 0x20 SWAP1 PUSH1 0x5 SLOAD SWAP1 MLOAD SWAP1 DUP2 MSTORE RETURN JUMPDEST CALLVALUE PUSH2 0x144 JUMPI PUSH1 0xE0 CALLDATASIZE PUSH1 0x3 NOT ADD SLT PUSH2 0x144 JUMPI PUSH2 0x37D PUSH2 0xBAA JUMP JUMPDEST PUSH1 0x1 PUSH1 0x1 PUSH1 0xA0 SHL SUB PUSH1 0x44 CALLDATALOAD DUP2 DUP2 AND SWAP4 SWAP2 SWAP3 SWAP1 DUP5 SWAP1 SUB PUSH2 0x522 JUMPI PUSH1 0x64 CALLDATALOAD SWAP1 DUP4 DUP3 AND DUP1 SWAP3 SUB PUSH2 0x51E JUMPI PUSH1 0x84 CALLDATALOAD SWAP2 DUP5 DUP4 AND DUP1 SWAP4 SUB PUSH2 0x51A JUMPI PUSH32 0xF0C57E16840DF040F15088DC2F81FE391C3923BEC73E23A9662EFC9C229C6A00 SWAP6 DUP7 SLOAD SWAP6 PUSH1 0xFF DUP8 DUP11 SHR AND ISZERO SWAP7 PUSH8 0xFFFFFFFFFFFFFFFF DUP2 AND DUP1 ISZERO SWAP1 DUP2 PUSH2 0x512 JUMPI JUMPDEST PUSH1 0x1 EQ SWAP1 DUP2 PUSH2 0x508 JUMPI JUMPDEST ISZERO SWAP1 DUP2 PUSH2 0x4FF JUMPI JUMPDEST POP PUSH2 0x4EF JUMPI PUSH8 0xFFFFFFFFFFFFFFFF NOT DUP2 AND PUSH1 0x1 OR DUP10 SSTORE DUP8 PUSH2 0x4D0 JUMPI JUMPDEST POP PUSH2 0x42A PUSH2 0xD2F JUMP JUMPDEST PUSH2 0x432 PUSH2 0xD2F JUMP JUMPDEST PUSH1 0x1 PUSH1 0x0 DUP1 MLOAD PUSH1 0x20 PUSH2 0xD71 DUP4 CODECOPY DUP2 MLOAD SWAP2 MSTORE SSTORE PUSH12 0xFFFFFFFFFFFFFFFFFFFFFFFF PUSH1 0xA0 SHL SWAP4 AND DUP4 DUP11 SLOAD AND OR DUP10 SSTORE PUSH1 0x24 CALLDATALOAD PUSH1 0x1 SSTORE DUP3 PUSH1 0x2 SLOAD AND OR PUSH1 0x2 SSTORE DUP2 PUSH1 0x3 SLOAD AND OR PUSH1 0x3 SSTORE DUP3 SLOAD AND OR SWAP1 SSTORE PUSH1 0xA4 CALLDATALOAD PUSH1 0x5 SSTORE PUSH1 0xC4 CALLDATALOAD PUSH1 0x6 SSTORE PUSH2 0x48F JUMPI DUP3 DUP1 RETURN JUMPDEST DUP1 SLOAD PUSH9 0xFF0000000000000000 NOT AND SWAP1 SSTORE MLOAD PUSH1 0x1 DUP2 MSTORE PUSH32 0xC7F505B2F371AE2175EE4913F4499E1F2633A7B5936321EED1CDAEB6115181D2 SWAP1 PUSH1 0x20 SWAP1 LOG1 DUP2 DUP1 DUP3 DUP1 RETURN JUMPDEST PUSH9 0xFFFFFFFFFFFFFFFFFF NOT AND PUSH9 0x10000000000000001 OR DUP9 SSTORE DUP11 PUSH2 0x421 JUMP JUMPDEST DUP10 MLOAD PUSH4 0xF92EE8A9 PUSH1 0xE0 SHL DUP2 MSTORE DUP8 SWAP1 REVERT JUMPDEST SWAP1 POP ISZERO DUP13 PUSH2 0x405 JUMP JUMPDEST ADDRESS EXTCODESIZE ISZERO SWAP2 POP PUSH2 0x3FD JUMP JUMPDEST DUP10 SWAP2 POP PUSH2 0x3F3 JUMP JUMPDEST DUP8 DUP1 REVERT JUMPDEST DUP7 DUP1 REVERT JUMPDEST DUP6 DUP1 REVERT JUMPDEST SWAP2 CALLVALUE PUSH2 0x611 JUMPI DUP1 PUSH1 0x3 NOT CALLDATASIZE ADD SLT PUSH2 0x611 JUMPI DUP1 SLOAD DUP3 MLOAD PUSH4 0x70A08231 PUSH1 0xE0 SHL DUP2 MSTORE ADDRESS DUP2 DUP7 ADD MSTORE PUSH1 0x20 SWAP5 SWAP1 SWAP2 PUSH1 0x1 PUSH1 0x1 PUSH1 0xA0 SHL SUB SWAP1 DUP7 SWAP1 DUP5 SWAP1 PUSH1 0x24 SWAP1 DUP3 SWAP1 DUP6 AND GAS STATICCALL SWAP3 DUP4 ISZERO PUSH2 0x607 JUMPI DUP5 SWAP4 PUSH2 0x5D2 JUMPI JUMPDEST POP SWAP1 DUP2 PUSH2 0x5AF SWAP3 PUSH1 0x2 SLOAD AND DUP6 MSTORE PUSH1 0x7 DUP8 MSTORE PUSH2 0x59C DUP7 DUP7 KECCAK256 SLOAD DUP3 PUSH1 0x3 SLOAD AND DUP8 MSTORE DUP8 DUP8 KECCAK256 SLOAD SWAP1 PUSH2 0xC3D JUMP JUMPDEST SWAP2 SLOAD AND DUP5 MSTORE PUSH1 0x7 DUP7 MSTORE DUP5 DUP5 KECCAK256 SLOAD SWAP1 PUSH2 0xC3D JUMP JUMPDEST SWAP1 DUP2 DUP2 GT ISZERO PUSH2 0x5CA JUMPI PUSH2 0x5C2 SWAP3 POP PUSH2 0xBE2 JUMP JUMPDEST SWAP1 JUMPDEST MLOAD SWAP1 DUP2 MSTORE RETURN JUMPDEST POP POP SWAP1 PUSH2 0x5C4 JUMP JUMPDEST SWAP1 SWAP3 POP DUP6 DUP2 DUP2 RETURNDATASIZE DUP4 GT PUSH2 0x600 JUMPI JUMPDEST PUSH2 0x5EA DUP2 DUP4 PUSH2 0xC05 JUMP JUMPDEST DUP2 ADD SUB SLT PUSH2 0x5FC JUMPI MLOAD SWAP2 PUSH2 0x5AF PUSH2 0x573 JUMP JUMPDEST DUP4 DUP1 REVERT JUMPDEST POP RETURNDATASIZE PUSH2 0x5E0 JUMP JUMPDEST DUP6 MLOAD RETURNDATASIZE DUP7 DUP3 RETURNDATACOPY RETURNDATASIZE SWAP1 REVERT JUMPDEST DUP1 REVERT JUMPDEST SWAP3 POP CALLVALUE PUSH2 0x11A JUMPI DUP2 PUSH1 0x3 NOT CALLDATASIZE ADD SLT PUSH2 0x11A JUMPI PUSH1 0x1 DUP1 PUSH1 0xA0 SHL SUB SWAP1 DUP2 PUSH1 0x2 SLOAD AND DUP4 MSTORE PUSH1 0x7 PUSH1 0x20 MSTORE DUP1 DUP4 KECCAK256 SLOAD SWAP2 DUP1 PUSH1 0x3 SLOAD AND DUP5 MSTORE DUP2 DUP5 KECCAK256 SLOAD SWAP4 DUP2 DUP7 SLOAD AND DUP2 MSTORE PUSH1 0x20 DUP4 DUP3 KECCAK256 SLOAD SWAP3 DUP3 SLOAD AND SWAP7 PUSH1 0x24 DUP6 MLOAD DUP1 SWAP10 DUP2 SWAP4 PUSH4 0x70A08231 PUSH1 0xE0 SHL DUP4 MSTORE ADDRESS SWAP1 DUP4 ADD MSTORE GAS STATICCALL DUP1 ISZERO PUSH2 0x713 JUMPI DUP2 SWAP1 PUSH2 0x6DE JUMPI JUMPDEST DUP6 SWAP7 POP PUSH2 0x69C DUP4 PUSH2 0x697 DUP8 SWAP9 PUSH2 0x6D2 SWAP9 PUSH2 0xC3D JUMP JUMPDEST PUSH2 0xC3D JUMP JUMPDEST SWAP1 DUP2 DUP2 GT ISZERO PUSH2 0x6D6 JUMPI PUSH2 0x6AF SWAP3 POP PUSH2 0xBE2 JUMP JUMPDEST SWAP2 JUMPDEST MLOAD SWAP5 DUP6 SWAP5 DUP6 SWAP1 SWAP5 SWAP4 SWAP3 PUSH1 0x60 SWAP3 PUSH1 0x80 DUP4 ADD SWAP7 DUP4 MSTORE PUSH1 0x20 DUP4 ADD MSTORE PUSH1 0x40 DUP3 ADD MSTORE ADD MSTORE JUMP JUMPDEST SUB SWAP1 RETURN JUMPDEST POP POP SWAP2 PUSH2 0x6B1 JUMP JUMPDEST POP SWAP5 PUSH1 0x20 DUP2 RETURNDATASIZE PUSH1 0x20 GT PUSH2 0x70B JUMPI JUMPDEST DUP2 PUSH2 0x6F9 PUSH1 0x20 SWAP4 DUP4 PUSH2 0xC05 JUMP JUMPDEST DUP2 ADD SUB SLT PUSH2 0x522 JUMPI MLOAD SWAP4 SWAP5 DUP6 SWAP5 PUSH2 0x682 JUMP JUMPDEST RETURNDATASIZE SWAP2 POP PUSH2 0x6EC JUMP JUMPDEST POP DUP3 MLOAD SWAP1 RETURNDATASIZE SWAP1 DUP3 RETURNDATACOPY RETURNDATASIZE SWAP1 REVERT JUMPDEST CALLVALUE PUSH2 0x144 JUMPI DUP3 PUSH1 0x3 NOT CALLDATASIZE ADD SLT PUSH2 0x144 JUMPI PUSH1 0x1 SLOAD PUSH1 0x2 SLOAD PUSH1 0x3 SLOAD SWAP3 SLOAD PUSH1 0x5 SLOAD PUSH1 0x6 SLOAD DUP7 MLOAD SWAP5 DUP6 MSTORE PUSH1 0x1 PUSH1 0x1 PUSH1 0xA0 SHL SUB SWAP4 DUP5 AND PUSH1 0x20 DUP7 ADD MSTORE SWAP5 DUP4 AND SWAP6 DUP5 ADD SWAP6 SWAP1 SWAP6 MSTORE AND PUSH1 0x60 DUP3 ADD MSTORE PUSH1 0x80 DUP2 ADD SWAP3 SWAP1 SWAP3 MSTORE PUSH1 0xA0 DUP3 ADD MSTORE PUSH1 0xC0 SWAP2 POP RETURN JUMPDEST SWAP1 CALLVALUE PUSH2 0x144 JUMPI DUP3 PUSH1 0x3 NOT CALLDATASIZE ADD SLT PUSH2 0x144 JUMPI PUSH2 0x791 PUSH2 0xC5D JUMP JUMPDEST DUP3 SLOAD DUP2 MLOAD PUSH4 0x70A08231 PUSH1 0xE0 SHL DUP2 MSTORE ADDRESS DUP5 DUP3 ADD MSTORE PUSH1 0x20 SWAP3 SWAP2 PUSH1 0x1 PUSH1 0x1 PUSH1 0xA0 SHL SUB SWAP2 SWAP1 DUP5 SWAP1 DUP3 SWAP1 PUSH1 0x24 SWAP1 DUP3 SWAP1 DUP7 AND GAS STATICCALL SWAP1 DUP2 ISZERO PUSH2 0x9A9 JUMPI DUP7 SWAP2 PUSH2 0x97C JUMPI JUMPDEST POP DUP2 PUSH1 0x2 SLOAD AND DUP1 DUP8 MSTORE PUSH2 0x80D PUSH1 0x7 SWAP3 DUP4 DUP8 MSTORE PUSH2 0x1DD PUSH2 0x7FA DUP8 DUP12 KECCAK256 SLOAD DUP8 PUSH1 0x3 SLOAD AND DUP13 MSTORE DUP9 DUP13 KECCAK256 SLOAD SWAP1 PUSH2 0xC3D JUMP JUMPDEST DUP7 DUP11 SLOAD AND DUP12 MSTORE DUP6 DUP10 MSTORE DUP8 DUP12 KECCAK256 SLOAD SWAP1 PUSH2 0xC3D JUMP JUMPDEST SWAP1 DUP2 PUSH2 0x8A6 JUMPI JUMPDEST POP POP CALLER DUP7 MSTORE DUP1 DUP5 MSTORE DUP3 DUP7 KECCAK256 SLOAD SWAP5 DUP6 ISZERO PUSH2 0x898 JUMPI PUSH2 0x2710 DUP7 LT PUSH2 0x88A JUMPI POP DUP5 PUSH32 0x7FCF532C15F0A6DB0BD6D0E038BEA71D30D808C7D98CB3BF7268A95BF5081B65 SWAP5 SWAP4 SWAP3 PUSH2 0x86E SWAP3 CALLER DUP10 MSTORE DUP6 MSTORE DUP8 DUP5 DUP2 KECCAK256 SSTORE CALLER SWAP1 DUP9 SLOAD AND PUSH2 0xC8D JUMP JUMPDEST MLOAD SWAP3 DUP4 MSTORE CALLER SWAP3 LOG2 PUSH1 0x1 PUSH1 0x0 DUP1 MLOAD PUSH1 0x20 PUSH2 0xD71 DUP4 CODECOPY DUP2 MLOAD SWAP2 MSTORE SSTORE DUP1 RETURN JUMPDEST DUP4 MLOAD PUSH4 0x980DA45 PUSH1 0xE1 SHL DUP2 MSTORE REVERT JUMPDEST DUP4 MLOAD PUSH4 0x1E9ACF17 PUSH1 0xE3 SHL DUP2 MSTORE REVERT JUMPDEST PUSH32 0xF7576D8C2653E9D07AF5EF229ACF59B339E327D4E0EADDB4A96615534CF148F8 SWAP2 PUSH2 0x972 PUSH2 0x2710 DUP1 PUSH2 0x8DB PUSH1 0x6 SLOAD DUP6 PUSH2 0xC4A JUMP JUMPDEST DIV SWAP1 PUSH2 0x8E9 PUSH1 0x5 SLOAD DUP6 PUSH2 0xC4A JUMP JUMPDEST DIV PUSH2 0x8F8 DUP2 PUSH2 0x244 DUP5 DUP8 PUSH2 0xBE2 JUMP JUMPDEST SWAP5 DUP13 MSTORE DUP7 DUP11 MSTORE DUP9 DUP13 KECCAK256 PUSH2 0x90C DUP7 DUP3 SLOAD PUSH2 0xC3D JUMP JUMPDEST SWAP1 SSTORE DUP8 PUSH1 0x3 SLOAD AND DUP13 MSTORE DUP7 DUP11 MSTORE DUP9 DUP13 KECCAK256 PUSH2 0x926 DUP3 DUP3 SLOAD PUSH2 0xC3D JUMP JUMPDEST SWAP1 SSTORE DUP8 DUP12 SLOAD AND DUP13 MSTORE DUP7 DUP11 MSTORE DUP9 DUP13 KECCAK256 PUSH2 0x93F DUP4 DUP3 SLOAD PUSH2 0xC3D JUMP JUMPDEST SWAP1 SSTORE PUSH2 0x94D DUP5 PUSH1 0x8 SLOAD PUSH2 0xC3D JUMP JUMPDEST PUSH1 0x8 SSTORE DUP9 MLOAD SWAP5 DUP6 SWAP5 DUP6 SWAP1 SWAP5 SWAP4 SWAP3 PUSH1 0x60 SWAP3 PUSH1 0x80 DUP4 ADD SWAP7 DUP4 MSTORE PUSH1 0x20 DUP4 ADD MSTORE PUSH1 0x40 DUP3 ADD MSTORE ADD MSTORE JUMP JUMPDEST SUB SWAP1 LOG1 DUP7 DUP1 PUSH2 0x814 JUMP JUMPDEST SWAP1 POP DUP4 DUP2 DUP2 RETURNDATASIZE DUP4 GT PUSH2 0x9A2 JUMPI JUMPDEST PUSH2 0x993 DUP2 DUP4 PUSH2 0xC05 JUMP JUMPDEST DUP2 ADD SUB SLT PUSH2 0x522 JUMPI MLOAD DUP7 PUSH2 0x7CD JUMP JUMPDEST POP RETURNDATASIZE PUSH2 0x989 JUMP JUMPDEST DUP4 MLOAD RETURNDATASIZE DUP9 DUP3 RETURNDATACOPY RETURNDATASIZE SWAP1 REVERT JUMPDEST POP CALLVALUE PUSH2 0x11A JUMPI DUP2 PUSH1 0x3 NOT CALLDATASIZE ADD SLT PUSH2 0x11A JUMPI PUSH1 0x20 SWAP1 PUSH1 0x1 SLOAD SWAP1 MLOAD SWAP1 DUP2 MSTORE RETURN JUMPDEST POP CALLVALUE PUSH2 0x11A JUMPI DUP2 PUSH1 0x3 NOT CALLDATASIZE ADD SLT PUSH2 0x11A JUMPI SWAP1 SLOAD SWAP1 MLOAD PUSH1 0x1 PUSH1 0x1 PUSH1 0xA0 SHL SUB SWAP1 SWAP2 AND DUP2 MSTORE PUSH1 0x20 SWAP1 RETURN JUMPDEST SWAP1 CALLVALUE PUSH2 0x144 JUMPI DUP3 PUSH1 0x3 NOT CALLDATASIZE ADD SLT PUSH2 0x144 JUMPI PUSH2 0xA11 PUSH2 0xC5D JUMP JUMPDEST CALLER DUP4 MSTORE PUSH1 0x7 PUSH1 0x20 MSTORE DUP1 DUP4 KECCAK256 SLOAD SWAP2 DUP3 ISZERO PUSH2 0xAA0 JUMPI PUSH2 0x2710 DUP4 LT PUSH2 0xA92 JUMPI POP CALLER DUP1 DUP5 MSTORE PUSH1 0x7 PUSH1 0x20 MSTORE DUP2 DUP5 KECCAK256 DUP5 SWAP1 SSTORE DUP4 SLOAD PUSH2 0xA53 SWAP2 DUP5 SWAP2 PUSH1 0x1 PUSH1 0x1 PUSH1 0xA0 SHL SUB AND PUSH2 0xC8D JUMP JUMPDEST MLOAD SWAP1 DUP2 MSTORE PUSH32 0x7FCF532C15F0A6DB0BD6D0E038BEA71D30D808C7D98CB3BF7268A95BF5081B65 PUSH1 0x20 CALLER SWAP3 LOG2 PUSH1 0x1 PUSH1 0x0 DUP1 MLOAD PUSH1 0x20 PUSH2 0xD71 DUP4 CODECOPY DUP2 MLOAD SWAP2 MSTORE SSTORE DUP1 RETURN JUMPDEST SWAP1 MLOAD PUSH4 0x980DA45 PUSH1 0xE1 SHL DUP2 MSTORE REVERT JUMPDEST SWAP1 MLOAD PUSH4 0x1E9ACF17 PUSH1 0xE3 SHL DUP2 MSTORE REVERT JUMPDEST POP CALLVALUE PUSH2 0x11A JUMPI PUSH1 0x20 CALLDATASIZE PUSH1 0x3 NOT ADD SLT PUSH2 0x11A JUMPI PUSH1 0x20 SWAP2 DUP2 SWAP1 PUSH1 0x1 PUSH1 0x1 PUSH1 0xA0 SHL SUB PUSH2 0xAD5 PUSH2 0xBAA JUMP JUMPDEST AND DUP2 MSTORE PUSH1 0x7 DUP5 MSTORE KECCAK256 SLOAD SWAP1 MLOAD SWAP1 DUP2 MSTORE RETURN JUMPDEST POP CALLVALUE PUSH2 0x11A JUMPI DUP2 PUSH1 0x3 NOT CALLDATASIZE ADD SLT PUSH2 0x11A JUMPI PUSH1 0x2 SLOAD SWAP1 MLOAD PUSH1 0x1 PUSH1 0x1 PUSH1 0xA0 SHL SUB SWAP1 SWAP2 AND DUP2 MSTORE PUSH1 0x20 SWAP1 RETURN JUMPDEST SWAP1 CALLVALUE PUSH2 0x144 JUMPI PUSH1 0x20 CALLDATASIZE PUSH1 0x3 NOT ADD SLT PUSH2 0x144 JUMPI DUP2 CALLDATALOAD SWAP2 PUSH2 0xB2A PUSH2 0xC5D JUMP JUMPDEST DUP3 ISZERO DUP1 ISZERO PUSH2 0xB7A JUMPI JUMPDEST PUSH2 0xA92 JUMPI CALLER DUP5 MSTORE PUSH1 0x7 PUSH1 0x20 MSTORE DUP3 DUP3 DUP6 KECCAK256 SLOAD LT PUSH2 0xAA0 JUMPI POP CALLER DUP4 MSTORE PUSH1 0x7 PUSH1 0x20 MSTORE DUP1 DUP4 KECCAK256 PUSH2 0xB60 DUP4 DUP3 SLOAD PUSH2 0xBE2 JUMP JUMPDEST SWAP1 SSTORE DUP3 SLOAD PUSH2 0xA53 SWAP1 DUP4 SWAP1 CALLER SWAP1 PUSH1 0x1 PUSH1 0x1 PUSH1 0xA0 SHL SUB AND PUSH2 0xC8D JUMP JUMPDEST POP PUSH2 0x2710 DUP4 LT PUSH2 0xB33 JUMP JUMPDEST DUP4 SWAP1 CALLVALUE PUSH2 0x11A JUMPI DUP2 PUSH1 0x3 NOT CALLDATASIZE ADD SLT PUSH2 0x11A JUMPI PUSH1 0x3 SLOAD PUSH1 0x1 PUSH1 0x1 PUSH1 0xA0 SHL SUB AND DUP2 MSTORE PUSH1 0x20 SWAP1 RETURN JUMPDEST PUSH1 0x4 CALLDATALOAD SWAP1 PUSH1 0x1 PUSH1 0x1 PUSH1 0xA0 SHL SUB DUP3 AND DUP3 SUB PUSH2 0xBC0 JUMPI JUMP JUMPDEST PUSH1 0x0 DUP1 REVERT JUMPDEST CALLVALUE PUSH2 0xBC0 JUMPI PUSH1 0x0 CALLDATASIZE PUSH1 0x3 NOT ADD SLT PUSH2 0xBC0 JUMPI PUSH1 0x20 PUSH1 0x40 MLOAD PUSH2 0x2710 DUP2 MSTORE RETURN JUMPDEST SWAP2 SWAP1 DUP3 SUB SWAP2 DUP3 GT PUSH2 0xBEF JUMPI JUMP JUMPDEST PUSH4 0x4E487B71 PUSH1 0xE0 SHL PUSH1 0x0 MSTORE PUSH1 0x11 PUSH1 0x4 MSTORE PUSH1 0x24 PUSH1 0x0 REVERT JUMPDEST SWAP1 PUSH1 0x1F DUP1 NOT SWAP2 ADD AND DUP2 ADD SWAP1 DUP2 LT PUSH8 0xFFFFFFFFFFFFFFFF DUP3 GT OR PUSH2 0xC27 JUMPI PUSH1 0x40 MSTORE JUMP JUMPDEST PUSH4 0x4E487B71 PUSH1 0xE0 SHL PUSH1 0x0 MSTORE PUSH1 0x41 PUSH1 0x4 MSTORE PUSH1 0x24 PUSH1 0x0 REVERT JUMPDEST SWAP2 SWAP1 DUP3 ADD DUP1 SWAP3 GT PUSH2 0xBEF JUMPI JUMP JUMPDEST DUP2 DUP2 MUL SWAP3 SWAP2 DUP2 ISZERO SWAP2 DUP5 DIV EQ OR ISZERO PUSH2 0xBEF JUMPI JUMP JUMPDEST PUSH1 0x0 DUP1 MLOAD PUSH1 0x20 PUSH2 0xD71 DUP4 CODECOPY DUP2 MLOAD SWAP2 MSTORE PUSH1 0x2 DUP2 SLOAD EQ PUSH2 0xC7B JUMPI PUSH1 0x2 SWAP1 SSTORE JUMP JUMPDEST PUSH1 0x40 MLOAD PUSH4 0x3EE5AEB5 PUSH1 0xE0 SHL DUP2 MSTORE PUSH1 0x4 SWAP1 REVERT JUMPDEST PUSH1 0x40 MLOAD PUSH4 0xA9059CBB PUSH1 0xE0 SHL PUSH1 0x20 DUP3 ADD SWAP1 DUP2 MSTORE PUSH1 0x1 PUSH1 0x1 PUSH1 0xA0 SHL SUB SWAP4 DUP5 AND PUSH1 0x24 DUP4 ADD MSTORE PUSH1 0x44 DUP1 DUP4 ADD SWAP6 SWAP1 SWAP6 MSTORE SWAP4 DUP2 MSTORE SWAP1 SWAP3 PUSH1 0x80 DUP3 ADD SWAP1 PUSH8 0xFFFFFFFFFFFFFFFF DUP3 GT DUP4 DUP4 LT OR PUSH2 0xC27 JUMPI PUSH1 0x20 SWAP3 PUSH1 0x0 SWAP3 PUSH1 0x40 MSTORE MLOAD SWAP1 DUP3 DUP7 GAS CALL ISZERO PUSH2 0xD23 JUMPI PUSH1 0x0 MLOAD RETURNDATASIZE PUSH2 0xD1A JUMPI POP DUP1 DUP3 AND EXTCODESIZE ISZERO JUMPDEST PUSH2 0xD00 JUMPI POP POP JUMP JUMPDEST PUSH1 0x40 MLOAD PUSH4 0x5274AFE7 PUSH1 0xE0 SHL DUP2 MSTORE SWAP2 AND PUSH1 0x4 DUP3 ADD MSTORE PUSH1 0x24 SWAP2 POP REVERT JUMPDEST PUSH1 0x1 EQ ISZERO PUSH2 0xCF8 JUMP JUMPDEST PUSH1 0x40 MLOAD RETURNDATASIZE PUSH1 0x0 DUP3 RETURNDATACOPY RETURNDATASIZE SWAP1 REVERT JUMPDEST PUSH1 0xFF PUSH32 0xF0C57E16840DF040F15088DC2F81FE391C3923BEC73E23A9662EFC9C229C6A00 SLOAD PUSH1 0x40 SHR AND ISZERO PUSH2 0xD5E JUMPI JUMP JUMPDEST PUSH1 0x40 MLOAD PUSH4 0x1AFCD79F PUSH1 0xE3 SHL DUP2 MSTORE PUSH1 0x4 SWAP1 REVERT INVALID SWAP12 PUSH24 0x9B17422D0DF92223018B32B4D1FA46E071723D6817E2486D STOP EXTCODESIZE 0xEC 0xC5 PUSH0 STOP LOG2 PUSH5 0x6970667358 0x22 SLT KECCAK256 NOT TSTORE SWAP2 RETURNDATASIZE CALLER EXP 0xF8 RETURN PUSH7 0x6323E964B2B3F6 0xF9 0xBF 0x2D DUP11 RETURNDATACOPY LOG2 0xC9 CALLER SWAP7 TLOAD 0xCA ORIGIN 0xD7 0xB9 0xEC MULMOD PUSH5 0x736F6C6343 STOP ADDMOD XOR STOP CALLER "},"methodIdentifiers":{"MAX_BPS()":"fd967f47","MAX_MARKETPLACE_BPS()":"4c8d4a92","MAX_ROYALTY_BPS()":"3dca40e6","acceptOwnership()":"79ba5097","authorized(address)":"b9181611","createSplitter(uint256,address,address,uint256)":"52e4ec9a","createSplitterWithCustomFee(uint256,address,address,uint256,uint256)":"06e792ec","defaultMarketplaceBps()":"0c508c01","getSplitter(uint256)":"89980366","getSplitterInfo(uint256)":"59f12304","implementation()":"5c60da1b","marketplaceWallet()":"ed9ed696","owner()":"8da5cb5b","pendingOwner()":"e30c3978","predictSplitterAddress(uint256)":"0a08bcb4","renounceOwnership()":"715018a6","setAuthorized(address,bool)":"711bf9b2","setDefaultMarketplaceBps(uint256)":"01f199f7","setMarketplaceWallet(address)":"ca4c64cf","splitterExists(uint256)":"702d8ba2","splitters(uint256)":"48807bbb","totalSplitters()":"45f79c52","transferOwnership(address)":"f2fde38b","usdc()":"3e413bee"}}}}}