{"contracts/Marketplace.sol":{"Marketplace":{"abi":[{"inputs":[{"internalType":"uint256","name":"feeBps_","type":"uint256"},{"internalType":"address","name":"feeRecipient_","type":"address"},{"internalType":"uint256","name":"modelsLimit_","type":"uint256"},{"internalType":"address","name":"licenseNFTOwner","type":"address"}],"stateMutability":"nonpayable","type":"constructor"},{"inputs":[],"name":"DirectSaleDisabled","type":"error"},{"inputs":[],"name":"FeeOverCap","type":"error"},{"inputs":[],"name":"FeePlusRoyaltyOver100","type":"error"},{"inputs":[],"name":"InsufficientFunds","type":"error"},{"inputs":[],"name":"InvalidBps","type":"error"},{"inputs":[],"name":"InvalidDelivery","type":"error"},{"inputs":[],"name":"InvalidDuration","type":"error"},{"inputs":[],"name":"InvalidKind","type":"error"},{"inputs":[],"name":"InvalidRights","type":"error"},{"inputs":[],"name":"ModelsLimitReached","type":"error"},{"inputs":[],"name":"NotListed","type":"error"},{"inputs":[],"name":"NotOwner","type":"error"},{"inputs":[{"internalType":"address","name":"owner","type":"address"}],"name":"OwnableInvalidOwner","type":"error"},{"inputs":[{"internalType":"address","name":"account","type":"address"}],"name":"OwnableUnauthorizedAccount","type":"error"},{"inputs":[],"name":"PriceNotConfigured","type":"error"},{"anonymous":false,"inputs":[{"indexed":false,"internalType":"uint256","name":"licenseId","type":"uint256"},{"indexed":false,"internalType":"uint256","name":"modelId","type":"uint256"},{"indexed":false,"internalType":"address","name":"buyer","type":"address"},{"indexed":false,"internalType":"uint8","name":"kind","type":"uint8"},{"indexed":false,"internalType":"uint8","name":"rights","type":"uint8"},{"indexed":false,"internalType":"uint64","name":"expiresAt","type":"uint64"},{"indexed":false,"internalType":"uint16","name":"version","type":"uint16"},{"indexed":false,"internalType":"uint256","name":"pricePaid","type":"uint256"},{"indexed":false,"internalType":"uint256","name":"feePaid","type":"uint256"},{"indexed":false,"internalType":"uint256","name":"royaltyPaid","type":"uint256"}],"name":"LicenseMinted","type":"event"},{"anonymous":false,"inputs":[{"indexed":false,"internalType":"uint256","name":"licenseId","type":"uint256"},{"indexed":false,"internalType":"uint256","name":"modelId","type":"uint256"},{"indexed":false,"internalType":"uint64","name":"newExpiresAt","type":"uint64"},{"indexed":false,"internalType":"uint16","name":"months","type":"uint16"},{"indexed":false,"internalType":"uint256","name":"pricePaid","type":"uint256"},{"indexed":false,"internalType":"uint256","name":"feePaid","type":"uint256"},{"indexed":false,"internalType":"uint256","name":"royaltyPaid","type":"uint256"}],"name":"LicenseRenewed","type":"event"},{"anonymous":false,"inputs":[{"indexed":false,"internalType":"uint256","name":"feeBps","type":"uint256"},{"indexed":false,"internalType":"address","name":"feeRecipient","type":"address"}],"name":"MarketFeesSet","type":"event"},{"anonymous":false,"inputs":[{"indexed":false,"internalType":"bool","name":"paused","type":"bool"}],"name":"MarketPaused","type":"event"},{"anonymous":false,"inputs":[{"indexed":false,"internalType":"uint256","name":"id","type":"uint256"},{"indexed":false,"internalType":"address","name":"owner","type":"address"},{"indexed":false,"internalType":"uint256","name":"priceDirect","type":"uint256"}],"name":"ModelListed","type":"event"},{"anonymous":false,"inputs":[{"indexed":false,"internalType":"uint256","name":"id","type":"uint256"},{"indexed":false,"internalType":"uint256","name":"price","type":"uint256"},{"indexed":false,"internalType":"address","name":"buyer","type":"address"},{"indexed":false,"internalType":"address","name":"seller","type":"address"},{"indexed":false,"internalType":"uint256","name":"feePaid","type":"uint256"},{"indexed":false,"internalType":"uint256","name":"royaltyPaid","type":"uint256"}],"name":"ModelSold","type":"event"},{"anonymous":false,"inputs":[{"indexed":false,"internalType":"uint256","name":"id","type":"uint256"},{"indexed":false,"internalType":"address","name":"owner","type":"address"}],"name":"ModelUnlisted","type":"event"},{"anonymous":false,"inputs":[{"indexed":false,"internalType":"uint256","name":"id","type":"uint256"},{"indexed":false,"internalType":"address","name":"owner","type":"address"},{"indexed":false,"internalType":"uint256","name":"priceDirect","type":"uint256"},{"indexed":false,"internalType":"bool","name":"listed","type":"bool"}],"name":"ModelUpdated","type":"event"},{"anonymous":false,"inputs":[{"indexed":false,"internalType":"uint256","name":"active","type":"uint256"}],"name":"ModelsCountChanged","type":"event"},{"anonymous":false,"inputs":[{"indexed":false,"internalType":"uint256","name":"newLimit","type":"uint256"}],"name":"ModelsLimitSet","type":"event"},{"anonymous":false,"inputs":[{"indexed":true,"internalType":"address","name":"previousOwner","type":"address"},{"indexed":true,"internalType":"address","name":"newOwner","type":"address"}],"name":"OwnershipTransferred","type":"event"},{"inputs":[],"name":"KIND_PERPETUAL","outputs":[{"internalType":"uint8","name":"","type":"uint8"}],"stateMutability":"view","type":"function"},{"inputs":[],"name":"KIND_SUBSCRIPTION","outputs":[{"internalType":"uint8","name":"","type":"uint8"}],"stateMutability":"view","type":"function"},{"inputs":[],"name":"MAX_BPS","outputs":[{"internalType":"uint256","name":"","type":"uint256"}],"stateMutability":"view","type":"function"},{"inputs":[],"name":"MAX_FEE_BPS_CAP","outputs":[{"internalType":"uint256","name":"","type":"uint256"}],"stateMutability":"view","type":"function"},{"inputs":[],"name":"RIGHTS_API","outputs":[{"internalType":"uint8","name":"","type":"uint8"}],"stateMutability":"view","type":"function"},{"inputs":[],"name":"RIGHTS_DOWNLOAD","outputs":[{"internalType":"uint8","name":"","type":"uint8"}],"stateMutability":"view","type":"function"},{"inputs":[],"name":"activeModels","outputs":[{"internalType":"uint256","name":"","type":"uint256"}],"stateMutability":"view","type":"function"},{"inputs":[{"internalType":"uint256","name":"modelId","type":"uint256"},{"internalType":"uint8","name":"licenseKind","type":"uint8"},{"internalType":"uint16","name":"months","type":"uint16"},{"internalType":"bool","name":"transferable","type":"bool"}],"name":"buyLicense","outputs":[],"stateMutability":"payable","type":"function"},{"inputs":[{"internalType":"address","name":"","type":"address"},{"internalType":"string","name":"","type":"string"}],"name":"families","outputs":[{"internalType":"uint256","name":"latestId","type":"uint256"},{"internalType":"uint16","name":"latestVersion","type":"uint16"}],"stateMutability":"view","type":"function"},{"inputs":[],"name":"feeBps","outputs":[{"internalType":"uint256","name":"","type":"uint256"}],"stateMutability":"view","type":"function"},{"inputs":[],"name":"feeRecipient","outputs":[{"internalType":"address","name":"","type":"address"}],"stateMutability":"view","type":"function"},{"inputs":[],"name":"licenseNFT","outputs":[{"internalType":"contract LicenseNFT","name":"","type":"address"}],"stateMutability":"view","type":"function"},{"inputs":[{"internalType":"string","name":"slug","type":"string"},{"internalType":"string","name":"name","type":"string"},{"internalType":"string","name":"uri","type":"string"},{"internalType":"uint256","name":"royaltyBps_","type":"uint256"},{"internalType":"uint256","name":"pricePerpetual","type":"uint256"},{"internalType":"uint256","name":"priceSubscription","type":"uint256"},{"internalType":"uint256","name":"defaultDurationDays","type":"uint256"},{"internalType":"uint8","name":"deliveryRightsDefault","type":"uint8"},{"internalType":"uint8","name":"deliveryModeHint","type":"uint8"},{"internalType":"uint16","name":"version","type":"uint16"},{"internalType":"bytes32","name":"termsHash","type":"bytes32"}],"name":"listOrUpgrade","outputs":[],"stateMutability":"nonpayable","type":"function"},{"inputs":[{"internalType":"uint256","name":"","type":"uint256"}],"name":"models","outputs":[{"internalType":"address","name":"owner","type":"address"},{"internalType":"address","name":"creator","type":"address"},{"internalType":"string","name":"name","type":"string"},{"internalType":"string","name":"uri","type":"string"},{"internalType":"uint256","name":"priceDirect","type":"uint256"},{"internalType":"bool","name":"allowDirectSale","type":"bool"},{"internalType":"uint256","name":"royaltyBps","type":"uint256"},{"internalType":"bool","name":"listed","type":"bool"},{"internalType":"uint256","name":"pricePerpetual","type":"uint256"},{"internalType":"uint256","name":"priceSubscription","type":"uint256"},{"internalType":"uint256","name":"defaultDurationDays","type":"uint256"},{"internalType":"uint8","name":"deliveryRightsDefault","type":"uint8"},{"internalType":"uint8","name":"deliveryModeHint","type":"uint8"},{"internalType":"uint16","name":"version","type":"uint16"},{"internalType":"bytes32","name":"termsHash","type":"bytes32"}],"stateMutability":"view","type":"function"},{"inputs":[],"name":"modelsLimit","outputs":[{"internalType":"uint256","name":"","type":"uint256"}],"stateMutability":"view","type":"function"},{"inputs":[],"name":"nextId","outputs":[{"internalType":"uint256","name":"","type":"uint256"}],"stateMutability":"view","type":"function"},{"inputs":[],"name":"nextLicenseId","outputs":[{"internalType":"uint256","name":"","type":"uint256"}],"stateMutability":"view","type":"function"},{"inputs":[],"name":"owner","outputs":[{"internalType":"address","name":"","type":"address"}],"stateMutability":"view","type":"function"},{"inputs":[],"name":"paused","outputs":[{"internalType":"bool","name":"","type":"bool"}],"stateMutability":"view","type":"function"},{"inputs":[{"internalType":"uint256","name":"tokenId","type":"uint256"},{"internalType":"uint16","name":"months","type":"uint16"}],"name":"renewLicense","outputs":[],"stateMutability":"payable","type":"function"},{"inputs":[],"name":"renounceOwnership","outputs":[],"stateMutability":"nonpayable","type":"function"},{"inputs":[{"internalType":"uint256","name":"newFeeBps","type":"uint256"},{"internalType":"address","name":"newRecipient","type":"address"}],"name":"setFees","outputs":[],"stateMutability":"nonpayable","type":"function"},{"inputs":[{"internalType":"uint256","name":"modelId","type":"uint256"},{"internalType":"uint256","name":"pricePerpetual","type":"uint256"},{"internalType":"uint256","name":"priceSubscription","type":"uint256"},{"internalType":"uint256","name":"defaultDurationDays","type":"uint256"},{"internalType":"uint8","name":"deliveryRightsDefault","type":"uint8"},{"internalType":"uint8","name":"deliveryModeHint","type":"uint8"},{"internalType":"uint16","name":"version","type":"uint16"},{"internalType":"bytes32","name":"termsHash","type":"bytes32"}],"name":"setLicensingParams","outputs":[],"stateMutability":"nonpayable","type":"function"},{"inputs":[{"internalType":"uint256","name":"modelId","type":"uint256"},{"internalType":"bool","name":"listed","type":"bool"}],"name":"setListed","outputs":[],"stateMutability":"nonpayable","type":"function"},{"inputs":[{"internalType":"uint256","name":"lim","type":"uint256"}],"name":"setModelsLimit","outputs":[],"stateMutability":"nonpayable","type":"function"},{"inputs":[{"internalType":"bool","name":"p","type":"bool"}],"name":"setPaused","outputs":[],"stateMutability":"nonpayable","type":"function"},{"inputs":[{"internalType":"address","name":"newOwner","type":"address"}],"name":"transferOwnership","outputs":[],"stateMutability":"nonpayable","type":"function"}],"evm":{"bytecode":{"linkReferences":{},"object":"60a0346200020757601f620035e138819003918201601f1916830192916001600160401b0391828511848610176200020c5781608092859260409788528339810103126200020757815190620000586020840162000222565b916200006b606086860151950162000222565b933315620001ef57600080546001600160a01b0319808216339081178455895193976001600160a01b03969294909390919087167f8be0079c531659141344cd1fd0a4f28419497f9722a3daafe3b4186f6b6457e08a80a36127108211620001e057506107d08111620001cf579084916003551690600454161760045560065584516118248082019082821085831117620001bb57602091839162001dbd833930815203019084f08015620001b1578082916080521693843b15620001ad579060248492838851978894859363f2fde38b60e01b85521660048401525af18015620001a3576200017c575b8351611b8590816200023882396080518181816103ba0152818161043b0152610a560152f35b82116200018f5750815238808062000156565b634e487b7160e01b81526041600452602490fd5b84513d84823e3d90fd5b8380fd5b85513d85823e3d90fd5b634e487b7160e01b86526041600452602486fd5b885163c1bd884560e01b8152600490fd5b63c6cc5d7f60e01b8152600490fd5b8551631e4fbdf760e01b815260006004820152602490fd5b600080fd5b634e487b7160e01b600052604160045260246000fd5b51906001600160a01b0382168203620002075756fe6080604052600436101561001257600080fd5b6000803560e01c806316c38b3c146116205780631c75372d14611042578063227dc4c41461102457806323ea1f5f14610bd957806324a9d853146110065780633d162cdc14610f545780634690484014610f2b578063492f471c14610f0d5780635c975abb14610ee75780635d87dfd514610d8657806361b8ce8c14610d685780636a030ca914610c54578063715018a614610bfa57806375bb91b214610bde5780637d53deff14610bd957806381cd743914610bbc57806388daf7f4146108a95780638da5cb5b14610882578063acb27c6814610866578063c293634014610785578063c8aa67b314610767578063d2d5ec4d14610719578063d402e464146103e9578063da68d47d146103a4578063f09449ba146101f5578063f2fde38b146101655763fd967f471461014657600080fd5b3461016257806003193601126101625760206040516127108152f35b80fd5b50346101625760203660031901126101625761017f6116d7565b6101876118c6565b6001600160a01b039081169081156101dc57600054826bffffffffffffffffffffffff60a01b821617600055167f8be0079c531659141344cd1fd0a4f28419497f9722a3daafe3b4186f6b6457e0600080a380f35b604051631e4fbdf760e01b815260048101849052602490fd5b50346101625760403660031901126101625760243580158015916004359083810361039f5760ff60045460a01c1661039b57818552600760205260408520805490936001600160a01b039290918316903382036103895760078601805460ff98891660ff198216179091556004870154604080518881526001600160a01b03959095166020860152840152901515606083015295909516947f9fc3511935eaa959d5c177fdceb853ae3440d1fc3ac6301563dfefac03d72ec890608090a1156103505791546040805192835292166001600160a01b031660208201527fc3090e5fbc3f92a65283d58dece4ae699cc0ca8e124dbc474240bb1aed0b77e79190a180610345575b6103025780f35b600554600019810190811161033157602081600080516020611b3083398151915292600555604051908152a180f35b634e487b7160e01b82526011600452602482fd5b5060055415156102fb565b5050501561035b5780f35b6005546001810180911161033157602081600080516020611b3083398151915292600555604051908152a180f35b6040516330cd747160e01b8152600490fd5b8480fd5b600080fd5b50346101625780600319360112610162576040517f00000000000000000000000000000000000000000000000000000000000000006001600160a01b03168152602090f35b5060403660031901126101625760043560243561ffff908181168091036107155760ff60045460a01c166107155780156107035760405163596e890960e11b8152600481018490526001600160a01b037f0000000000000000000000000000000000000000000000000000000000000000811692909160e081602481875afa9485156106f857879561063d575b505083518652600760205260408620926009840154801561062b578261049b916118a5565b92833403610619576104bf9060068601549080600188015416908754169186611a38565b509590946001600160401b0390816060840151168542821160001461060957600a6104ed92935b01546118a5565b9062015180918281029281840414901517156105f557916105128192828d9516611898565b1693803b156105f157829060448b6040519586938492633f97add560e21b845260048401528960248401525af180156105e65761059e575b897fffa941bdd74336abc13129ba18ac9721bf531ff9f07161484dfb56f1f28dd5be60e08b8b8b8b8b8b8b51604051968752602087015260408601526060850152608084015260a083015260c0820152a180f35b81999299116105d25760405296817fffa941bdd74336abc13129ba18ac9721bf531ff9f07161484dfb56f1f28dd5be61054a565b634e487b7160e01b82526041600452602482fd5b6040513d8c823e3d90fd5b8280fd5b634e487b7160e01b8b52601160045260248bfd5b6104ed9150600a844216936104e6565b60405163356680b760e01b8152600490fd5b604051631140cf7f60e01b8152600490fd5b9091945060e0823d60e0116106f0575b8161065a60e09383611758565b810103126106e8576040519161066f83611727565b8051835261067f602082016118b8565b6020840152610690604082016118b8565b604084015260608101516001600160401b03811681036106ec57606084015260808101519081151582036106ec5760c091608085015260a081015160a0850152015190811681036106e85760c0820152923880610476565b8680fd5b8880fd5b3d915061064d565b6040513d89823e3d90fd5b604051637616640160e01b8152600490fd5b8380fd5b5034610162576020366003190112610162577f3a266fd63d408074525facb4c91054de12d4e7bf0cad93604b63ef604f96e7fc60206004356107596118c6565b80600655604051908152a180f35b50346101625780600319360112610162576020600554604051908152f35b50346101625760403660031901126101625761079f6116d7565b6024356001600160401b03808211610715573660238301121561071557816004013590811161085257602092604051916107e285601f19601f8401160184611758565b8083528483019336602483830101116106e857866108329593604098888581989660248d97018937860101526001600160a01b03168152600885522086519151919485939192918290859061181e565b8201908152030190209061ffff6001835493015416908351928352820152f35b634e487b7160e01b84526041600452602484fd5b5034610162578060031936011261016257602060405160028152f35b5034610162578060031936011261016257546040516001600160a01b039091168152602090f35b5060803660031901126101625760243560ff81168103610bb85760443561ffff811681036105f1576064359081151582036107155760ff60045460a01c1661071557600435845260076020526040842060ff60078201541615610ba6576003546109186006830154809261190e565b61093660ff600b84015461092d828216611933565b60081c16611979565b6109418386846119e5565b90813403610619576001830154835461096a926001600160a01b03918216929091169084611a38565b509390928791600160ff891614610b4e575b50610988600254611889565b958660025561ffff600b830154600c840154604051936109a785611727565b600435855260ff8c16602086015260ff831660408601526001600160401b038716606086015260808501901515815260a085019182528360c086019360101c1683526001600160401b0360606040519663424d8dbf60e11b88523360048901528051602489015260ff602082015116604489015260ff6040820151166064890152015116608486015251151560a48501525160c4840152511660e4820152602081610104818c60018060a01b037f0000000000000000000000000000000000000000000000000000000000000000165af18015610b4357610b08575b507f83a9edc2809eed4960fd3ccb7da06a85b3e878e6e1568e8ca281ae543adcc493966001600160401b03610140979695949360ff600b61ffff95015493604051998a5260043560208b01523360408b015216606089015260ff831660808901521660a087015260101c1660c085015260e0840152610100830152610120820152a180f35b60209081979695949392973d8311610b3c575b610b258183611758565b81010312610b3857909192939438610a83565b8780fd5b503d610b1b565b6040513d8b823e3d90fd5b610b6291925061ffff16600a8301546118a5565b62015180908082810204821481151715610b92576001600160401b0391610b8a910242611898565b16903861097c565b634e487b7160e01b89526011600452602489fd5b60405163665c1c5760e01b8152600490fd5b5080fd5b503461016257806003193601126101625760206040516107d08152f35b6116bb565b5034610162578060031936011261016257602090604051908152f35b5034610162578060031936011261016257610c136118c6565b80546001600160a01b03198116825581906001600160a01b03167f8be0079c531659141344cd1fd0a4f28419497f9722a3daafe3b4186f6b6457e08280a380f35b5034610162576020366003190112610162576004358152600760205260409020805460018201546001600160a01b0390811692911690610c9660028201611779565b610ca260038301611779565b91600481015492600582015460ff166006830154600784015460ff16600885015491600986015493600a87015495600b88015497600c0154986040519c8d9c8d6101e092839282526020820152604001528c01610cfe91611841565b8b810360608d0152610d0f91611841565b9860808b0152151560a08a015260c0890152151560e088015261010087015261012086015261014085015260ff81166101608501528060081c60ff1661018085015260101c61ffff166101a08401526101c08301520390f35b50346101625780600319360112610162576020600154604051908152f35b5034610162576101003660031901126101625760643560843560043560443560ff83166024358185036106e85760a4359160ff83168303610b385760c4359061ffff821682036106ec5760ff60045460a01c166106ec57858952600760205260408920805490976001600160a01b0395909186163303610389577f9fc3511935eaa959d5c177fdceb853ae3440d1fc3ac6301563dfefac03d72ec899610ee197610e9896610e36610e7e95611933565b610e3f84611979565b610e4a8383836119bf565b60088c015560098b0155600a8a0155600b89019260ff19845416178355829061ff0082549160081b169061ff001916179055565b9063ffff000082549160101b169063ffff00001916179055565b60e435600c8501558354169260ff6007600483015492015416906040519485948592606092959491956080850196855260018060a01b0316602085015260408401521515910152565b0390a180f35b5034610162578060031936011261016257602060ff60045460a01c166040519015158152f35b50346101625780600319360112610162576020600254604051908152f35b50346101625780600319360112610162576004546040516001600160a01b039091168152602090f35b5034610162576040366003190112610162576024356001600160a01b0381169060043582820361071557610f866118c6565b610f8f816118f2565b6107d08111610ff4576003819055600480546001600160a01b031916909317909255604080519283526001600160a01b0390911660208301527fc5732485634831b5e1b586e2011c5f2b392fe136310c230cf1f04d6caf30c15a919081908101610ee1565b60405163c1bd884560e01b8152600490fd5b50346101625780600319360112610162576020600354604051908152f35b50346101625780600319360112610162576020600654604051908152f35b503461016257610160366003190112610162576004356001600160401b038111610bb85761107490369060040161168e565b6024356001600160401b0381116107155761109390369060040161168e565b926044356001600160401b03811161161c576110b390369060040161168e565b909360e4359260ff84168403610b385760ff61010435166101043503610b385761ffff61012435166101243503610b385760ff60045460a01c16610b38576110fc6064356118f2565b61110a60643560035461190e565b61111384611933565b61111f61010435611979565b61113060c43560a4356084356119bf565b600654801515908161160f575b506115fd5760209033895260088252604089208360405194859384378201908152030190209384548061152f575b506001549561117987611889565b600155868852600760205260408820946bffffffffffffffffffffffff60a01b3381885416178755600187019033908254161790556001600160401b03821161151b5781906111cb60028801546116ed565b601f81116114cb575b508990601f831160011461145f578a92611454575b50508160011b916000199060031b1c19161760028501555b6001600160401b0382116114405761121c60038501546116ed565b601f81116113fc575b508690601f83116001146113885791806001969594926112e5948a9261137d575b505081871b916000199060031b1c19161760038401555b8660048401556005830160ff19908181541690556064356006850155600784018682825416179055608435600885015560a435600985015560c435600a85015560ff600b85019216908254161781556112ca61010435829061ff0082549160081b169061ff001916179055565b805463ffff000019166101243560101b63ffff000016179055565b600c610144359101558281550161ffff610124351661ffff1982541617905560055460018101809111611369577f9bd8ea027140589a00b923b981d55ddbfbb8a7c266dcbc6fd9e2eabdbe2ce0cb91600080516020611b30833981519152602083606094600555604051908152a1604051908152336020820152836040820152a180f35b634e487b7160e01b83526011600452602483fd5b013590503880611246565b6003850188526020882091885b601f19851681106113e457509260019695949287926112e59583601f198116106113ca575b505050811b01600384015561125d565b0135600019600384901b60f8161c191690553880806113ba565b90926020600181928686013581550194019101611395565b60038501885260208820601f840160051c810160208510611439575b601f830160051c8201811061142e575050611225565b898155600101611418565b5080611418565b634e487b7160e01b87526041600452602487fd5b0135905038806111e9565b600288018b5260208b208b9450915b601f19841685106114b3576001945083601f19811610611499575b505050811b016002850155611201565b0135600019600384901b60f8161c19169055388080611489565b8181013583556020948501946001909301920161146e565b909150600287018a5260208a20601f840160051c810160208510611514575b90849392915b601f830160051c820181106115065750506111d4565b8c81558594506001016114f0565b50806114ea565b634e487b7160e01b89526041600452602489fd5b875260076020526040872060078101805460ff8116611550575b505061116b565b60ff19169055600554806115a6575b5085549054604080519283526001600160a01b0390911660208301527fc3090e5fbc3f92a65283d58dece4ae699cc0ca8e124dbc474240bb1aed0b77e791a1388080611549565b80600019810111610b92576000190160058190556040519081527fc3090e5fbc3f92a65283d58dece4ae699cc0ca8e124dbc474240bb1aed0b77e79190600080516020611b3083398151915290602090a19061155f565b604051635703766960e01b8152600490fd5b905060055410153861113d565b8580fd5b503461016257602036600319011261016257600435801515809103610bb85760207fb11504260ecfcffb6ebdeb716f8ea67351cd54f23af3d6bbec03c41e93b86c459161166b6118c6565b6004805460ff60a01b191660a083901b60ff60a01b16179055604051908152a180f35b9181601f8401121561039f578235916001600160401b03831161039f576020838186019501011161039f57565b3461039f57600036600319011261039f57602060405160018152f35b600435906001600160a01b038216820361039f57565b90600182811c9216801561171d575b602083101461170757565b634e487b7160e01b600052602260045260246000fd5b91607f16916116fc565b60e081019081106001600160401b0382111761174257604052565b634e487b7160e01b600052604160045260246000fd5b90601f801991011681019081106001600160401b0382111761174257604052565b9060405191826000825461178c816116ed565b908184526020946001916001811690816000146117fc57506001146117bd575b5050506117bb92500383611758565b565b600090815285812095935091905b8183106117e45750506117bb93508201013880806117ac565b855488840185015294850194879450918301916117cb565b925050506117bb94925060ff191682840152151560051b8201013880806117ac565b60005b8381106118315750506000910152565b8181015183820152602001611821565b9060209161185a8151809281855285808601910161181e565b601f01601f1916010190565b9190820391821161187357565b634e487b7160e01b600052601160045260246000fd5b60001981146118735760010190565b9190820180921161187357565b8181029291811591840414171561187357565b519060ff8216820361039f57565b6000546001600160a01b031633036118da57565b60405163118cdaa760e01b8152336004820152602490fd5b612710106118fc57565b60405163c6cc5d7f60e01b8152600490fd5b6127109161191b91611898565b1161192257565b60405162c9a16b60e31b8152600490fd5b60ff166001811490811561196e575b8115611963575b501561195157565b604051630eb911d560e01b8152600490fd5b600391501438611949565b600281149150611942565b60ff16600181149081156119b4575b81156119a9575b501561199757565b604051632abf7d0d60e21b8152600490fd5b60039150143861198f565b600281149150611988565b15806119dd575b61062b576119d45761070357565b60011161070357565b5080156119c6565b9060ff16806119fe5750600891500154801561062b5790565b600103611a26576009015490811561062b5761ffff16801561070357611a23916118a5565b90565b6040516302b79ed360e41b8152600490fd5b92611a6d611a5f959294611a6861271080611a55600354856118a5565b04988998846118a5565b04968792611866565b611866565b928580158015611aff575b50508480158015611acd575b5050508280158015611a9557505050565b6000928392839283928391611ac3575b6001600160a01b031690f115611ab757565b6040513d6000823e3d90fd5b6108fc9150611aa5565b6000928392839283928391611af5575b6001600160a01b031690f115611ab757388481611a84565b6108fc9150611add565b6000808093819360018060a01b0360045416908390611b26575bf115611ab7578538611a78565b506108fc611b1956fe00a17e39748f90dcc231579b95804358753dc835acd3f3972717efc03a8b5511a26469706673582212204e9754fe12a256fa03f3b3c6a2e36394a6d287a2a1b4f59c90daa3e30e0b24b364736f6c63430008180033608034620003d557601f906001600160401b0390601f199062001824388190038581018416830185811184821017620003bf57839282916040528339602092839181010312620003d557516001600160a01b03948582169491859003620003d5576200006a620003da565b92601584527f4d61726b6574706c6163654149204c6963656e73650000000000000000000000818501526200009e620003da565b9060078252664d5041494c494360c81b81830152845195848711620003bf576000968754966001978881811c91168015620003b4575b85821014620003a0579081878493116200034d575b508490878311600114620002ec578a92620002e0575b5050600019600383901b1c191690871b1787555b8251948511620002cc5785548681811c91168015620002c1575b83821014620002ad5790818587969594931162000254575b5081938511600114620001ef5750508592620001e3575b5050600019600383901b1c191690821b1790555b3315620001cb5760065460018060a01b03199133838316176006557f8be0079c531659141344cd1fd0a4f28419497f9722a3daafe3b4186f6b6457e0604051953393169180a360075416176007556114299081620003fb8239f35b60249060405190631e4fbdf760e01b82526004820152fd5b0151905038806200015c565b869593929193168588528388209388905b8282106200023a575050841162000220575b505050811b01905562000170565b015160001960f88460031b161c1916905538808062000212565b848401518655889790950194938401939081019062000200565b9091929394508688528288208580880160051c820192858910620002a3575b9188978a9297969594930160051c01915b8281106200029457505062000145565b8a815588975089910162000284565b9250819262000273565b634e487b7160e01b88526022600452602488fd5b90607f16906200012d565b634e487b7160e01b87526041600452602487fd5b015190503880620000ff565b90848a9416918b8052868c20928c5b888282106200033657505084116200031c575b505050811b01875562000113565b015160001960f88460031b161c191690553880806200030e565b8385015186558d97909501949384019301620002fb565b909150898052848a208780850160051c82019287861062000396575b918b91869594930160051c01915b82811062000387575050620000e9565b8c81558594508b910162000377565b9250819262000369565b634e487b7160e01b8a52602260045260248afd5b90607f1690620000d4565b634e487b7160e01b600052604160045260246000fd5b600080fd5b60408051919082016001600160401b03811183821017620003bf5760405256fe608080604052600436101561001357600080fd5b60003560e01c90816301ffc9a714610e595750806306fdde0314610d98578063081812fc14610d5a578063095ea7b314610c7357806318160ddd14610c5557806323b872dd14610c3e57806342842e0e14610c105780636352211e14610be057806370a0823114610b87578063715018a614610b2a57806373ad6c2d14610ae7578063849b1b7e146106995780638da5cb5b1461067057806395d89b411461055f578063a22cb465146104ba578063abc8c7af14610491578063b2dd121214610375578063b88d4fde146102e0578063c87b56dd14610289578063e985e9c514610233578063f2fde38b146101aa5763fe5eb7541461011157600080fd5b346101a55760403660031901126101a55760043560243567ffffffffffffffff811681036101a5576101a39161016d60018060a01b03610156816007541633146111de565b82600052600260205260406000205416151561121d565b600052600960205260016040600020019069ffffffffffffffff000082549160101b169069ffffffffffffffff00001916179055565b005b600080fd5b346101a55760203660031901126101a5576101c3610f04565b6101cb611291565b6001600160a01b0390811690811561021a57600654826001600160601b0360a01b821617600655167f8be0079c531659141344cd1fd0a4f28419497f9722a3daafe3b4186f6b6457e0600080a3005b604051631e4fbdf760e01b815260006004820152602490fd5b346101a55760403660031901126101a55761024c610f04565b610254610f1a565b9060018060a01b03809116600052600560205260406000209116600052602052602060ff604060002054166040519015158152f35b346101a55760203660031901126101a5576102a5600435611256565b5060006040516102b481610f97565b526102dc6040516102c481610f97565b60008152604051918291602083526020830190610ec4565b0390f35b346101a55760803660031901126101a5576102f9610f04565b610301610f1a565b906044356064359267ffffffffffffffff84116101a557366023850112156101a55783600401359261033284610fd5565b936103406040519586610fb3565b80855236602482880101116101a55760208160009260246101a39901838901378601015261036f838383610ff1565b336112bd565b346101a5576020806003193601126101a55760e090600435600060c060405161039d81610f65565b82815282858201528260408201528260608201528260808201528260a0820152015280600052600282526103df60018060a01b0360406000205416151561121d565b6000526009815260036040600020604051906103fa82610f65565b80549384835260018201549080840160ff8316815260ff60408601818560081c16815267ffffffffffffffff93826060890194868860101c1686528160808b019860501c161515885260c060028a01549960a08c019a8b5261ffff9c8d910154169a01998a526040519b8c525116908a0152511660408801525116606086015251151560808501525160a0840152511660c0820152f35b346101a55760003660031901126101a5576007546040516001600160a01b039091168152602090f35b346101a55760403660031901126101a5576104d3610f04565b602435908115158092036101a5576001600160a01b031690811561054657336000526005602052604060002082600052602052604060002060ff1981541660ff83161790556040519081527f17307eab39ab6107e8899845ad3d59bd9653f200f220920489ca2b5937696c3160203392a3005b604051630b61174360e31b815260048101839052602490fd5b346101a55760003660031901126101a5576040516000600190600154918260011c9160018416918215610666575b60209485851084146106505785879486865291826000146106305750506001146105d3575b506105bf92500383610fb3565b6102dc604051928284938452830190610ec4565b84915060016000527fb10e2d527612073b26eecdfd717e6a320cf44b4afac2b0732d9fcbe2b7fa0cf6906000915b8583106106185750506105bf9350820101856105b2565b80548389018501528794508693909201918101610601565b60ff1916858201526105bf95151560051b85010192508791506105b29050565b634e487b7160e01b600052602260045260246000fd5b92607f169261058d565b346101a55760003660031901126101a5576006546040516001600160a01b039091168152602090f35b346101a5576101003660031901126101a5576106b3610f04565b60e03660231901126101a557604051906106cc82610f65565b602435825260443560ff811681036101a557602083015260643560ff811681036101a557604083015260843567ffffffffffffffff811681036101a557606083015260a43580151581036101a557608083015260c43560a083015260e43561ffff811681036101a55760c083015261074f60018060a01b036007541633146111de565b600854916000198314610ad1576001830160085560018301600052600960205260406000208151815561ffff60c06003600184019360ff6020870151169480549561ff00604089015160081b16908619809816171781556107df67ffffffffffffffff606089015116829069ffffffffffffffff000082549160101b169069ffffffffffffffff00001916179055565b6080870151151581549060ff60501b9060501b169060ff60501b191617905560a0860151600282015501930151169082541617905560405161082081610f97565b600081526001600160a01b038216918215610ab857600184016000908152600260205260409020546001600160a01b03168015159081610a77575b8460005260036020526040600020600181540190556001860160005260026020526040600020856001600160601b0360a01b825416179055604051908560018801917fddf252ad1be2c89b69c2b068fc378daa952ba7f163c4a11628f55a4df523b3ef600080a48180610a6f575b610a22575b50610a09573b6108e7575b602083600160405191018152f35b60405160208180610924630a85bd0160e11b9586835233600484015260006024840152600189016044840152608060648401526084830190610ec4565b03816000875af1600091816109c4575b5061099457823d1561098c573d9061094b82610fd5565b916109596040519384610fb3565b82523d6000602084013e5b8151918261098557604051633250574960e11b815260048101839052602490fd5b6020915001fd5b606090610964565b6001600160e01b031916036109ac57506020826108d9565b60249060405190633250574960e11b82526004820152fd5b9091506020813d602011610a01575b816109e060209383610fb3565b810103126101a557516001600160e01b0319811681036101a5579085610934565b3d91506109d3565b6040516339e3563760e11b815260006004820152602490fd5b600960205260ff60016040600020015460501c166108ce5762461bcd60e51b815260206004820152601060248201526f6e6f74207472616e7366657261626c6560801b6044820152606490fd5b5060016108c9565b610a9d60018701600052600460205260406000206001600160601b0360a01b8154169055565b8060005260036020526040600020600019815401905561085b565b604051633250574960e11b815260006004820152602490fd5b634e487b7160e01b600052601160045260246000fd5b346101a55760203660031901126101a557610b00610f04565b610b08611291565b600780546001600160a01b0319166001600160a01b0392909216919091179055005b346101a55760003660031901126101a557610b43611291565b600680546001600160a01b031981169091556000906001600160a01b03167f8be0079c531659141344cd1fd0a4f28419497f9722a3daafe3b4186f6b6457e08280a3005b346101a55760203660031901126101a5576001600160a01b03610ba8610f04565b168015610bc75760005260036020526020604060002054604051908152f35b6040516322718ad960e21b815260006004820152602490fd5b346101a55760203660031901126101a5576020610bfe600435611256565b6040516001600160a01b039091168152f35b346101a5576101a3610c2136610f30565b9060405192610c2f84610f97565b6000845261036f838383610ff1565b346101a5576101a3610c4f36610f30565b91610ff1565b346101a55760003660031901126101a5576020600854604051908152f35b346101a55760403660031901126101a557610c8c610f04565b602435610c9881611256565b33151580610d47575b80610d1a575b610d02576001600160a01b039283169282918491167f8c5be1e5ebec7d5bd14f71427d1e84f3dd0314c0f7b2291e5b200ac8c7c3b925600080a4600090815260046020526040902080546001600160a01b0319169091179055005b60405163a9fbf51f60e01b8152336004820152602490fd5b5060018060a01b038116600052600560205260406000203360005260205260ff6040600020541615610ca7565b506001600160a01b038116331415610ca1565b346101a55760203660031901126101a557600435610d7781611256565b506000526004602052602060018060a01b0360406000205416604051908152f35b346101a55760003660031901126101a557604051600080549060018260011c9160018416918215610e4f575b6020948585108414610650578587948686529182600014610630575050600114610df557506105bf92500383610fb3565b6000808052859250907f290decd9548b62a8d60345a988386fc84ba6bc95484008f6362f93160ef3e5635b858310610e375750506105bf9350820101856105b2565b80548389018501528794508693909201918101610e20565b92607f1692610dc4565b346101a55760203660031901126101a5576004359063ffffffff60e01b82168092036101a5576020916380ac58cd60e01b8114908115610eb3575b8115610ea2575b5015158152f35b6301ffc9a760e01b14905083610e9b565b635b5e139f60e01b81149150610e94565b919082519283825260005b848110610ef0575050826000602080949584010152601f8019910116010190565b602081830181015184830182015201610ecf565b600435906001600160a01b03821682036101a557565b602435906001600160a01b03821682036101a557565b60609060031901126101a5576001600160a01b039060043582811681036101a5579160243590811681036101a5579060443590565b60e0810190811067ffffffffffffffff821117610f8157604052565b634e487b7160e01b600052604160045260246000fd5b6020810190811067ffffffffffffffff821117610f8157604052565b90601f8019910116810190811067ffffffffffffffff821117610f8157604052565b67ffffffffffffffff8111610f8157601f01601f191660200190565b6001600160a01b039182169290918315610ab8576000928284526020946002865260409586848188205416963315158061114e575b508715158061111b575b84825260038452828220805460010190558782526002845282822080546001600160a01b0319168617905582519488908a7fddf252ad1be2c89b69c2b068fc378daa952ba7f163c4a11628f55a4df523b3ef8580a480611113575b6110c4575b5050505016928383036110a35750505050565b6064945051926364283d7b60e01b8452600484015260248301526044820152fd5b60098352206001015460501c60ff16156110df578681611090565b62461bcd60e51b82526004820152601060248201526f6e6f74207472616e7366657261626c6560801b604482015260649150fd5b50600161108b565b600088815260046020526040902080546001600160a01b0319169055888252600384528282208054600019019055611030565b9091508061119d575b1561116457879038611026565b878688611181576024915190637e27328960e01b82526004820152fd5b604491519063177e802f60e01b82523360048301526024820152fd5b5033871480156111c2575b806111575750858152600482523385898320541614611157565b5086815260058252878120338252825260ff88822054166111a8565b156111e557565b60405162461bcd60e51b815260206004820152601060248201526f6f6e6c79206d61726b6574706c61636560801b6044820152606490fd5b1561122457565b60405162461bcd60e51b815260206004820152600a6024820152696e6f742065786973747360b01b6044820152606490fd5b6000818152600260205260409020546001600160a01b0316908115611279575090565b60249060405190637e27328960e01b82526004820152fd5b6006546001600160a01b031633036112a557565b60405163118cdaa760e01b8152336004820152602490fd5b90939192833b6112cf575b5050505050565b604051630a85bd0160e11b8082526001600160a01b03938416600483015295831660248201526044810191909152608060648201529492169260209291859061131c906084830190610ec4565b039483816000978189895af18691816113af575b50611391575050503d600014611388573d61134a81610fd5565b906113586040519283610fb3565b81528093823d92013e5b8251928361138357604051633250574960e11b815260048101849052602490fd5b019050fd5b60609250611362565b919450915063ffffffff60e01b16036109ac575038808080806112c8565b9091508481813d83116113ec575b6113c78183610fb3565b810103126113e857516001600160e01b0319811681036113e8579038611330565b8680fd5b503d6113bd56fea2646970667358221220d0f552b558c023d32fddb9c952af084dec34da8782a7e874bbccc15aa85aafeb64736f6c63430008180033","opcodes":"PUSH1 0xA0 CALLVALUE PUSH3 0x207 JUMPI PUSH1 0x1F PUSH3 0x35E1 CODESIZE DUP2 SWAP1 SUB SWAP2 DUP3 ADD PUSH1 0x1F NOT AND DUP4 ADD SWAP3 SWAP2 PUSH1 0x1 PUSH1 0x1 PUSH1 0x40 SHL SUB SWAP2 DUP3 DUP6 GT DUP5 DUP7 LT OR PUSH3 0x20C JUMPI DUP2 PUSH1 0x80 SWAP3 DUP6 SWAP3 PUSH1 0x40 SWAP8 DUP9 MSTORE DUP4 CODECOPY DUP2 ADD SUB SLT PUSH3 0x207 JUMPI DUP2 MLOAD SWAP1 PUSH3 0x58 PUSH1 0x20 DUP5 ADD PUSH3 0x222 JUMP JUMPDEST SWAP2 PUSH3 0x6B PUSH1 0x60 DUP7 DUP7 ADD MLOAD SWAP6 ADD PUSH3 0x222 JUMP JUMPDEST SWAP4 CALLER ISZERO PUSH3 0x1EF JUMPI PUSH1 0x0 DUP1 SLOAD PUSH1 0x1 PUSH1 0x1 PUSH1 0xA0 SHL SUB NOT DUP1 DUP3 AND CALLER SWAP1 DUP2 OR DUP5 SSTORE DUP10 MLOAD SWAP4 SWAP8 PUSH1 0x1 PUSH1 0x1 PUSH1 0xA0 SHL SUB SWAP7 SWAP3 SWAP5 SWAP1 SWAP4 SWAP1 SWAP2 SWAP1 DUP8 AND PUSH32 0x8BE0079C531659141344CD1FD0A4F28419497F9722A3DAAFE3B4186F6B6457E0 DUP11 DUP1 LOG3 PUSH2 0x2710 DUP3 GT PUSH3 0x1E0 JUMPI POP PUSH2 0x7D0 DUP2 GT PUSH3 0x1CF JUMPI SWAP1 DUP5 SWAP2 PUSH1 0x3 SSTORE AND SWAP1 PUSH1 0x4 SLOAD AND OR PUSH1 0x4 SSTORE PUSH1 0x6 SSTORE DUP5 MLOAD PUSH2 0x1824 DUP1 DUP3 ADD SWAP1 DUP3 DUP3 LT DUP6 DUP4 GT OR PUSH3 0x1BB JUMPI PUSH1 0x20 SWAP2 DUP4 SWAP2 PUSH3 0x1DBD DUP4 CODECOPY ADDRESS DUP2 MSTORE SUB ADD SWAP1 DUP5 CREATE DUP1 ISZERO PUSH3 0x1B1 JUMPI DUP1 DUP3 SWAP2 PUSH1 0x80 MSTORE AND SWAP4 DUP5 EXTCODESIZE ISZERO PUSH3 0x1AD JUMPI SWAP1 PUSH1 0x24 DUP5 SWAP3 DUP4 DUP9 MLOAD SWAP8 DUP9 SWAP5 DUP6 SWAP4 PUSH4 0xF2FDE38B PUSH1 0xE0 SHL DUP6 MSTORE AND PUSH1 0x4 DUP5 ADD MSTORE GAS CALL DUP1 ISZERO PUSH3 0x1A3 JUMPI PUSH3 0x17C JUMPI JUMPDEST DUP4 MLOAD PUSH2 0x1B85 SWAP1 DUP2 PUSH3 0x238 DUP3 CODECOPY PUSH1 0x80 MLOAD DUP2 DUP2 DUP2 PUSH2 0x3BA ADD MSTORE DUP2 DUP2 PUSH2 0x43B ADD MSTORE PUSH2 0xA56 ADD MSTORE RETURN JUMPDEST DUP3 GT PUSH3 0x18F JUMPI POP DUP2 MSTORE CODESIZE DUP1 DUP1 PUSH3 0x156 JUMP JUMPDEST PUSH4 0x4E487B71 PUSH1 0xE0 SHL DUP2 MSTORE PUSH1 0x41 PUSH1 0x4 MSTORE PUSH1 0x24 SWAP1 REVERT JUMPDEST DUP5 MLOAD RETURNDATASIZE DUP5 DUP3 RETURNDATACOPY RETURNDATASIZE SWAP1 REVERT JUMPDEST DUP4 DUP1 REVERT JUMPDEST DUP6 MLOAD RETURNDATASIZE DUP6 DUP3 RETURNDATACOPY RETURNDATASIZE SWAP1 REVERT JUMPDEST PUSH4 0x4E487B71 PUSH1 0xE0 SHL DUP7 MSTORE PUSH1 0x41 PUSH1 0x4 MSTORE PUSH1 0x24 DUP7 REVERT JUMPDEST DUP9 MLOAD PUSH4 0xC1BD8845 PUSH1 0xE0 SHL DUP2 MSTORE PUSH1 0x4 SWAP1 REVERT JUMPDEST PUSH4 0xC6CC5D7F PUSH1 0xE0 SHL DUP2 MSTORE PUSH1 0x4 SWAP1 REVERT JUMPDEST DUP6 MLOAD PUSH4 0x1E4FBDF7 PUSH1 0xE0 SHL DUP2 MSTORE PUSH1 0x0 PUSH1 0x4 DUP3 ADD MSTORE PUSH1 0x24 SWAP1 REVERT JUMPDEST PUSH1 0x0 DUP1 REVERT JUMPDEST PUSH4 0x4E487B71 PUSH1 0xE0 SHL PUSH1 0x0 MSTORE PUSH1 0x41 PUSH1 0x4 MSTORE PUSH1 0x24 PUSH1 0x0 REVERT JUMPDEST MLOAD SWAP1 PUSH1 0x1 PUSH1 0x1 PUSH1 0xA0 SHL SUB DUP3 AND DUP3 SUB PUSH3 0x207 JUMPI JUMP INVALID PUSH1 0x80 PUSH1 0x40 MSTORE PUSH1 0x4 CALLDATASIZE LT ISZERO PUSH2 0x12 JUMPI PUSH1 0x0 DUP1 REVERT JUMPDEST PUSH1 0x0 DUP1 CALLDATALOAD PUSH1 0xE0 SHR DUP1 PUSH4 0x16C38B3C EQ PUSH2 0x1620 JUMPI DUP1 PUSH4 0x1C75372D EQ PUSH2 0x1042 JUMPI DUP1 PUSH4 0x227DC4C4 EQ PUSH2 0x1024 JUMPI DUP1 PUSH4 0x23EA1F5F EQ PUSH2 0xBD9 JUMPI DUP1 PUSH4 0x24A9D853 EQ PUSH2 0x1006 JUMPI DUP1 PUSH4 0x3D162CDC EQ PUSH2 0xF54 JUMPI DUP1 PUSH4 0x46904840 EQ PUSH2 0xF2B JUMPI DUP1 PUSH4 0x492F471C EQ PUSH2 0xF0D JUMPI DUP1 PUSH4 0x5C975ABB EQ PUSH2 0xEE7 JUMPI DUP1 PUSH4 0x5D87DFD5 EQ PUSH2 0xD86 JUMPI DUP1 PUSH4 0x61B8CE8C EQ PUSH2 0xD68 JUMPI DUP1 PUSH4 0x6A030CA9 EQ PUSH2 0xC54 JUMPI DUP1 PUSH4 0x715018A6 EQ PUSH2 0xBFA JUMPI DUP1 PUSH4 0x75BB91B2 EQ PUSH2 0xBDE JUMPI DUP1 PUSH4 0x7D53DEFF EQ PUSH2 0xBD9 JUMPI DUP1 PUSH4 0x81CD7439 EQ PUSH2 0xBBC JUMPI DUP1 PUSH4 0x88DAF7F4 EQ PUSH2 0x8A9 JUMPI DUP1 PUSH4 0x8DA5CB5B EQ PUSH2 0x882 JUMPI DUP1 PUSH4 0xACB27C68 EQ PUSH2 0x866 JUMPI DUP1 PUSH4 0xC2936340 EQ PUSH2 0x785 JUMPI DUP1 PUSH4 0xC8AA67B3 EQ PUSH2 0x767 JUMPI DUP1 PUSH4 0xD2D5EC4D EQ PUSH2 0x719 JUMPI DUP1 PUSH4 0xD402E464 EQ PUSH2 0x3E9 JUMPI DUP1 PUSH4 0xDA68D47D EQ PUSH2 0x3A4 JUMPI DUP1 PUSH4 0xF09449BA EQ PUSH2 0x1F5 JUMPI DUP1 PUSH4 0xF2FDE38B EQ PUSH2 0x165 JUMPI PUSH4 0xFD967F47 EQ PUSH2 0x146 JUMPI PUSH1 0x0 DUP1 REVERT JUMPDEST CALLVALUE PUSH2 0x162 JUMPI DUP1 PUSH1 0x3 NOT CALLDATASIZE ADD SLT PUSH2 0x162 JUMPI PUSH1 0x20 PUSH1 0x40 MLOAD PUSH2 0x2710 DUP2 MSTORE RETURN JUMPDEST DUP1 REVERT JUMPDEST POP CALLVALUE PUSH2 0x162 JUMPI PUSH1 0x20 CALLDATASIZE PUSH1 0x3 NOT ADD SLT PUSH2 0x162 JUMPI PUSH2 0x17F PUSH2 0x16D7 JUMP JUMPDEST PUSH2 0x187 PUSH2 0x18C6 JUMP JUMPDEST PUSH1 0x1 PUSH1 0x1 PUSH1 0xA0 SHL SUB SWAP1 DUP2 AND SWAP1 DUP2 ISZERO PUSH2 0x1DC JUMPI PUSH1 0x0 SLOAD DUP3 PUSH12 0xFFFFFFFFFFFFFFFFFFFFFFFF PUSH1 0xA0 SHL DUP3 AND OR PUSH1 0x0 SSTORE AND PUSH32 0x8BE0079C531659141344CD1FD0A4F28419497F9722A3DAAFE3B4186F6B6457E0 PUSH1 0x0 DUP1 LOG3 DUP1 RETURN JUMPDEST PUSH1 0x40 MLOAD PUSH4 0x1E4FBDF7 PUSH1 0xE0 SHL DUP2 MSTORE PUSH1 0x4 DUP2 ADD DUP5 SWAP1 MSTORE PUSH1 0x24 SWAP1 REVERT JUMPDEST POP CALLVALUE PUSH2 0x162 JUMPI PUSH1 0x40 CALLDATASIZE PUSH1 0x3 NOT ADD SLT PUSH2 0x162 JUMPI PUSH1 0x24 CALLDATALOAD DUP1 ISZERO DUP1 ISZERO SWAP2 PUSH1 0x4 CALLDATALOAD SWAP1 DUP4 DUP2 SUB PUSH2 0x39F JUMPI PUSH1 0xFF PUSH1 0x4 SLOAD PUSH1 0xA0 SHR AND PUSH2 0x39B JUMPI DUP2 DUP6 MSTORE PUSH1 0x7 PUSH1 0x20 MSTORE PUSH1 0x40 DUP6 KECCAK256 DUP1 SLOAD SWAP1 SWAP4 PUSH1 0x1 PUSH1 0x1 PUSH1 0xA0 SHL SUB SWAP3 SWAP1 SWAP2 DUP4 AND SWAP1 CALLER DUP3 SUB PUSH2 0x389 JUMPI PUSH1 0x7 DUP7 ADD DUP1 SLOAD PUSH1 0xFF SWAP9 DUP10 AND PUSH1 0xFF NOT DUP3 AND OR SWAP1 SWAP2 SSTORE PUSH1 0x4 DUP8 ADD SLOAD PUSH1 0x40 DUP1 MLOAD DUP9 DUP2 MSTORE PUSH1 0x1 PUSH1 0x1 PUSH1 0xA0 SHL SUB SWAP6 SWAP1 SWAP6 AND PUSH1 0x20 DUP7 ADD MSTORE DUP5 ADD MSTORE SWAP1 ISZERO ISZERO PUSH1 0x60 DUP4 ADD MSTORE SWAP6 SWAP1 SWAP6 AND SWAP5 PUSH32 0x9FC3511935EAA959D5C177FDCEB853AE3440D1FC3AC6301563DFEFAC03D72EC8 SWAP1 PUSH1 0x80 SWAP1 LOG1 ISZERO PUSH2 0x350 JUMPI SWAP2 SLOAD PUSH1 0x40 DUP1 MLOAD SWAP3 DUP4 MSTORE SWAP3 AND PUSH1 0x1 PUSH1 0x1 PUSH1 0xA0 SHL SUB AND PUSH1 0x20 DUP3 ADD MSTORE PUSH32 0xC3090E5FBC3F92A65283D58DECE4AE699CC0CA8E124DBC474240BB1AED0B77E7 SWAP2 SWAP1 LOG1 DUP1 PUSH2 0x345 JUMPI JUMPDEST PUSH2 0x302 JUMPI DUP1 RETURN JUMPDEST PUSH1 0x5 SLOAD PUSH1 0x0 NOT DUP2 ADD SWAP1 DUP2 GT PUSH2 0x331 JUMPI PUSH1 0x20 DUP2 PUSH1 0x0 DUP1 MLOAD PUSH1 0x20 PUSH2 0x1B30 DUP4 CODECOPY DUP2 MLOAD SWAP2 MSTORE SWAP3 PUSH1 0x5 SSTORE PUSH1 0x40 MLOAD SWAP1 DUP2 MSTORE LOG1 DUP1 RETURN JUMPDEST PUSH4 0x4E487B71 PUSH1 0xE0 SHL DUP3 MSTORE PUSH1 0x11 PUSH1 0x4 MSTORE PUSH1 0x24 DUP3 REVERT JUMPDEST POP PUSH1 0x5 SLOAD ISZERO ISZERO PUSH2 0x2FB JUMP JUMPDEST POP POP POP ISZERO PUSH2 0x35B JUMPI DUP1 RETURN JUMPDEST PUSH1 0x5 SLOAD PUSH1 0x1 DUP2 ADD DUP1 SWAP2 GT PUSH2 0x331 JUMPI PUSH1 0x20 DUP2 PUSH1 0x0 DUP1 MLOAD PUSH1 0x20 PUSH2 0x1B30 DUP4 CODECOPY DUP2 MLOAD SWAP2 MSTORE SWAP3 PUSH1 0x5 SSTORE PUSH1 0x40 MLOAD SWAP1 DUP2 MSTORE LOG1 DUP1 RETURN JUMPDEST PUSH1 0x40 MLOAD PUSH4 0x30CD7471 PUSH1 0xE0 SHL DUP2 MSTORE PUSH1 0x4 SWAP1 REVERT JUMPDEST DUP5 DUP1 REVERT JUMPDEST PUSH1 0x0 DUP1 REVERT JUMPDEST POP CALLVALUE PUSH2 0x162 JUMPI DUP1 PUSH1 0x3 NOT CALLDATASIZE ADD SLT PUSH2 0x162 JUMPI PUSH1 0x40 MLOAD PUSH32 0x0 PUSH1 0x1 PUSH1 0x1 PUSH1 0xA0 SHL SUB AND DUP2 MSTORE PUSH1 0x20 SWAP1 RETURN JUMPDEST POP PUSH1 0x40 CALLDATASIZE PUSH1 0x3 NOT ADD SLT PUSH2 0x162 JUMPI PUSH1 0x4 CALLDATALOAD PUSH1 0x24 CALLDATALOAD PUSH2 0xFFFF SWAP1 DUP2 DUP2 AND DUP1 SWAP2 SUB PUSH2 0x715 JUMPI PUSH1 0xFF PUSH1 0x4 SLOAD PUSH1 0xA0 SHR AND PUSH2 0x715 JUMPI DUP1 ISZERO PUSH2 0x703 JUMPI PUSH1 0x40 MLOAD PUSH4 0x596E8909 PUSH1 0xE1 SHL DUP2 MSTORE PUSH1 0x4 DUP2 ADD DUP5 SWAP1 MSTORE PUSH1 0x1 PUSH1 0x1 PUSH1 0xA0 SHL SUB PUSH32 0x0 DUP2 AND SWAP3 SWAP1 SWAP2 PUSH1 0xE0 DUP2 PUSH1 0x24 DUP2 DUP8 GAS STATICCALL SWAP5 DUP6 ISZERO PUSH2 0x6F8 JUMPI DUP8 SWAP6 PUSH2 0x63D JUMPI JUMPDEST POP POP DUP4 MLOAD DUP7 MSTORE PUSH1 0x7 PUSH1 0x20 MSTORE PUSH1 0x40 DUP7 KECCAK256 SWAP3 PUSH1 0x9 DUP5 ADD SLOAD DUP1 ISZERO PUSH2 0x62B JUMPI DUP3 PUSH2 0x49B SWAP2 PUSH2 0x18A5 JUMP JUMPDEST SWAP3 DUP4 CALLVALUE SUB PUSH2 0x619 JUMPI PUSH2 0x4BF SWAP1 PUSH1 0x6 DUP7 ADD SLOAD SWAP1 DUP1 PUSH1 0x1 DUP9 ADD SLOAD AND SWAP1 DUP8 SLOAD AND SWAP2 DUP7 PUSH2 0x1A38 JUMP JUMPDEST POP SWAP6 SWAP1 SWAP5 PUSH1 0x1 PUSH1 0x1 PUSH1 0x40 SHL SUB SWAP1 DUP2 PUSH1 0x60 DUP5 ADD MLOAD AND DUP6 TIMESTAMP DUP3 GT PUSH1 0x0 EQ PUSH2 0x609 JUMPI PUSH1 0xA PUSH2 0x4ED SWAP3 SWAP4 JUMPDEST ADD SLOAD PUSH2 0x18A5 JUMP JUMPDEST SWAP1 PUSH3 0x15180 SWAP2 DUP3 DUP2 MUL SWAP3 DUP2 DUP5 DIV EQ SWAP1 ISZERO OR ISZERO PUSH2 0x5F5 JUMPI SWAP2 PUSH2 0x512 DUP2 SWAP3 DUP3 DUP14 SWAP6 AND PUSH2 0x1898 JUMP JUMPDEST AND SWAP4 DUP1 EXTCODESIZE ISZERO PUSH2 0x5F1 JUMPI DUP3 SWAP1 PUSH1 0x44 DUP12 PUSH1 0x40 MLOAD SWAP6 DUP7 SWAP4 DUP5 SWAP3 PUSH4 0x3F97ADD5 PUSH1 0xE2 SHL DUP5 MSTORE PUSH1 0x4 DUP5 ADD MSTORE DUP10 PUSH1 0x24 DUP5 ADD MSTORE GAS CALL DUP1 ISZERO PUSH2 0x5E6 JUMPI PUSH2 0x59E JUMPI JUMPDEST DUP10 PUSH32 0xFFA941BDD74336ABC13129BA18AC9721BF531FF9F07161484DFB56F1F28DD5BE PUSH1 0xE0 DUP12 DUP12 DUP12 DUP12 DUP12 DUP12 DUP12 MLOAD PUSH1 0x40 MLOAD SWAP7 DUP8 MSTORE PUSH1 0x20 DUP8 ADD MSTORE PUSH1 0x40 DUP7 ADD MSTORE PUSH1 0x60 DUP6 ADD MSTORE PUSH1 0x80 DUP5 ADD MSTORE PUSH1 0xA0 DUP4 ADD MSTORE PUSH1 0xC0 DUP3 ADD MSTORE LOG1 DUP1 RETURN JUMPDEST DUP2 SWAP10 SWAP3 SWAP10 GT PUSH2 0x5D2 JUMPI PUSH1 0x40 MSTORE SWAP7 DUP2 PUSH32 0xFFA941BDD74336ABC13129BA18AC9721BF531FF9F07161484DFB56F1F28DD5BE PUSH2 0x54A JUMP JUMPDEST PUSH4 0x4E487B71 PUSH1 0xE0 SHL DUP3 MSTORE PUSH1 0x41 PUSH1 0x4 MSTORE PUSH1 0x24 DUP3 REVERT JUMPDEST PUSH1 0x40 MLOAD RETURNDATASIZE DUP13 DUP3 RETURNDATACOPY RETURNDATASIZE SWAP1 REVERT JUMPDEST DUP3 DUP1 REVERT JUMPDEST PUSH4 0x4E487B71 PUSH1 0xE0 SHL DUP12 MSTORE PUSH1 0x11 PUSH1 0x4 MSTORE PUSH1 0x24 DUP12 REVERT JUMPDEST PUSH2 0x4ED SWAP2 POP PUSH1 0xA DUP5 TIMESTAMP AND SWAP4 PUSH2 0x4E6 JUMP JUMPDEST PUSH1 0x40 MLOAD PUSH4 0x356680B7 PUSH1 0xE0 SHL DUP2 MSTORE PUSH1 0x4 SWAP1 REVERT JUMPDEST PUSH1 0x40 MLOAD PUSH4 0x1140CF7F PUSH1 0xE0 SHL DUP2 MSTORE PUSH1 0x4 SWAP1 REVERT JUMPDEST SWAP1 SWAP2 SWAP5 POP PUSH1 0xE0 DUP3 RETURNDATASIZE PUSH1 0xE0 GT PUSH2 0x6F0 JUMPI JUMPDEST DUP2 PUSH2 0x65A PUSH1 0xE0 SWAP4 DUP4 PUSH2 0x1758 JUMP JUMPDEST DUP2 ADD SUB SLT PUSH2 0x6E8 JUMPI PUSH1 0x40 MLOAD SWAP2 PUSH2 0x66F DUP4 PUSH2 0x1727 JUMP JUMPDEST DUP1 MLOAD DUP4 MSTORE PUSH2 0x67F PUSH1 0x20 DUP3 ADD PUSH2 0x18B8 JUMP JUMPDEST PUSH1 0x20 DUP5 ADD MSTORE PUSH2 0x690 PUSH1 0x40 DUP3 ADD PUSH2 0x18B8 JUMP JUMPDEST PUSH1 0x40 DUP5 ADD MSTORE PUSH1 0x60 DUP2 ADD MLOAD PUSH1 0x1 PUSH1 0x1 PUSH1 0x40 SHL SUB DUP2 AND DUP2 SUB PUSH2 0x6EC JUMPI PUSH1 0x60 DUP5 ADD MSTORE PUSH1 0x80 DUP2 ADD MLOAD SWAP1 DUP2 ISZERO ISZERO DUP3 SUB PUSH2 0x6EC JUMPI PUSH1 0xC0 SWAP2 PUSH1 0x80 DUP6 ADD MSTORE PUSH1 0xA0 DUP2 ADD MLOAD PUSH1 0xA0 DUP6 ADD MSTORE ADD MLOAD SWAP1 DUP2 AND DUP2 SUB PUSH2 0x6E8 JUMPI PUSH1 0xC0 DUP3 ADD MSTORE SWAP3 CODESIZE DUP1 PUSH2 0x476 JUMP JUMPDEST DUP7 DUP1 REVERT JUMPDEST DUP9 DUP1 REVERT JUMPDEST RETURNDATASIZE SWAP2 POP PUSH2 0x64D JUMP JUMPDEST PUSH1 0x40 MLOAD RETURNDATASIZE DUP10 DUP3 RETURNDATACOPY RETURNDATASIZE SWAP1 REVERT JUMPDEST PUSH1 0x40 MLOAD PUSH4 0x76166401 PUSH1 0xE0 SHL DUP2 MSTORE PUSH1 0x4 SWAP1 REVERT JUMPDEST DUP4 DUP1 REVERT JUMPDEST POP CALLVALUE PUSH2 0x162 JUMPI PUSH1 0x20 CALLDATASIZE PUSH1 0x3 NOT ADD SLT PUSH2 0x162 JUMPI PUSH32 0x3A266FD63D408074525FACB4C91054DE12D4E7BF0CAD93604B63EF604F96E7FC PUSH1 0x20 PUSH1 0x4 CALLDATALOAD PUSH2 0x759 PUSH2 0x18C6 JUMP JUMPDEST DUP1 PUSH1 0x6 SSTORE PUSH1 0x40 MLOAD SWAP1 DUP2 MSTORE LOG1 DUP1 RETURN JUMPDEST POP CALLVALUE PUSH2 0x162 JUMPI DUP1 PUSH1 0x3 NOT CALLDATASIZE ADD SLT PUSH2 0x162 JUMPI PUSH1 0x20 PUSH1 0x5 SLOAD PUSH1 0x40 MLOAD SWAP1 DUP2 MSTORE RETURN JUMPDEST POP CALLVALUE PUSH2 0x162 JUMPI PUSH1 0x40 CALLDATASIZE PUSH1 0x3 NOT ADD SLT PUSH2 0x162 JUMPI PUSH2 0x79F PUSH2 0x16D7 JUMP JUMPDEST PUSH1 0x24 CALLDATALOAD PUSH1 0x1 PUSH1 0x1 PUSH1 0x40 SHL SUB DUP1 DUP3 GT PUSH2 0x715 JUMPI CALLDATASIZE PUSH1 0x23 DUP4 ADD SLT ISZERO PUSH2 0x715 JUMPI DUP2 PUSH1 0x4 ADD CALLDATALOAD SWAP1 DUP2 GT PUSH2 0x852 JUMPI PUSH1 0x20 SWAP3 PUSH1 0x40 MLOAD SWAP2 PUSH2 0x7E2 DUP6 PUSH1 0x1F NOT PUSH1 0x1F DUP5 ADD AND ADD DUP5 PUSH2 0x1758 JUMP JUMPDEST DUP1 DUP4 MSTORE DUP5 DUP4 ADD SWAP4 CALLDATASIZE PUSH1 0x24 DUP4 DUP4 ADD ADD GT PUSH2 0x6E8 JUMPI DUP7 PUSH2 0x832 SWAP6 SWAP4 PUSH1 0x40 SWAP9 DUP9 DUP6 DUP2 SWAP9 SWAP7 PUSH1 0x24 DUP14 SWAP8 ADD DUP10 CALLDATACOPY DUP7 ADD ADD MSTORE PUSH1 0x1 PUSH1 0x1 PUSH1 0xA0 SHL SUB AND DUP2 MSTORE PUSH1 0x8 DUP6 MSTORE KECCAK256 DUP7 MLOAD SWAP2 MLOAD SWAP2 SWAP5 DUP6 SWAP4 SWAP2 SWAP3 SWAP2 DUP3 SWAP1 DUP6 SWAP1 PUSH2 0x181E JUMP JUMPDEST DUP3 ADD SWAP1 DUP2 MSTORE SUB ADD SWAP1 KECCAK256 SWAP1 PUSH2 0xFFFF PUSH1 0x1 DUP4 SLOAD SWAP4 ADD SLOAD AND SWAP1 DUP4 MLOAD SWAP3 DUP4 MSTORE DUP3 ADD MSTORE RETURN JUMPDEST PUSH4 0x4E487B71 PUSH1 0xE0 SHL DUP5 MSTORE PUSH1 0x41 PUSH1 0x4 MSTORE PUSH1 0x24 DUP5 REVERT JUMPDEST POP CALLVALUE PUSH2 0x162 JUMPI DUP1 PUSH1 0x3 NOT CALLDATASIZE ADD SLT PUSH2 0x162 JUMPI PUSH1 0x20 PUSH1 0x40 MLOAD PUSH1 0x2 DUP2 MSTORE RETURN JUMPDEST POP CALLVALUE PUSH2 0x162 JUMPI DUP1 PUSH1 0x3 NOT CALLDATASIZE ADD SLT PUSH2 0x162 JUMPI SLOAD PUSH1 0x40 MLOAD PUSH1 0x1 PUSH1 0x1 PUSH1 0xA0 SHL SUB SWAP1 SWAP2 AND DUP2 MSTORE PUSH1 0x20 SWAP1 RETURN JUMPDEST POP PUSH1 0x80 CALLDATASIZE PUSH1 0x3 NOT ADD SLT PUSH2 0x162 JUMPI PUSH1 0x24 CALLDATALOAD PUSH1 0xFF DUP2 AND DUP2 SUB PUSH2 0xBB8 JUMPI PUSH1 0x44 CALLDATALOAD PUSH2 0xFFFF DUP2 AND DUP2 SUB PUSH2 0x5F1 JUMPI PUSH1 0x64 CALLDATALOAD SWAP1 DUP2 ISZERO ISZERO DUP3 SUB PUSH2 0x715 JUMPI PUSH1 0xFF PUSH1 0x4 SLOAD PUSH1 0xA0 SHR AND PUSH2 0x715 JUMPI PUSH1 0x4 CALLDATALOAD DUP5 MSTORE PUSH1 0x7 PUSH1 0x20 MSTORE PUSH1 0x40 DUP5 KECCAK256 PUSH1 0xFF PUSH1 0x7 DUP3 ADD SLOAD AND ISZERO PUSH2 0xBA6 JUMPI PUSH1 0x3 SLOAD PUSH2 0x918 PUSH1 0x6 DUP4 ADD SLOAD DUP1 SWAP3 PUSH2 0x190E JUMP JUMPDEST PUSH2 0x936 PUSH1 0xFF PUSH1 0xB DUP5 ADD SLOAD PUSH2 0x92D DUP3 DUP3 AND PUSH2 0x1933 JUMP JUMPDEST PUSH1 0x8 SHR AND PUSH2 0x1979 JUMP JUMPDEST PUSH2 0x941 DUP4 DUP7 DUP5 PUSH2 0x19E5 JUMP JUMPDEST SWAP1 DUP2 CALLVALUE SUB PUSH2 0x619 JUMPI PUSH1 0x1 DUP4 ADD SLOAD DUP4 SLOAD PUSH2 0x96A SWAP3 PUSH1 0x1 PUSH1 0x1 PUSH1 0xA0 SHL SUB SWAP2 DUP3 AND SWAP3 SWAP1 SWAP2 AND SWAP1 DUP5 PUSH2 0x1A38 JUMP JUMPDEST POP SWAP4 SWAP1 SWAP3 DUP8 SWAP2 PUSH1 0x1 PUSH1 0xFF DUP10 AND EQ PUSH2 0xB4E JUMPI JUMPDEST POP PUSH2 0x988 PUSH1 0x2 SLOAD PUSH2 0x1889 JUMP JUMPDEST SWAP6 DUP7 PUSH1 0x2 SSTORE PUSH2 0xFFFF PUSH1 0xB DUP4 ADD SLOAD PUSH1 0xC DUP5 ADD SLOAD PUSH1 0x40 MLOAD SWAP4 PUSH2 0x9A7 DUP6 PUSH2 0x1727 JUMP JUMPDEST PUSH1 0x4 CALLDATALOAD DUP6 MSTORE PUSH1 0xFF DUP13 AND PUSH1 0x20 DUP7 ADD MSTORE PUSH1 0xFF DUP4 AND PUSH1 0x40 DUP7 ADD MSTORE PUSH1 0x1 PUSH1 0x1 PUSH1 0x40 SHL SUB DUP8 AND PUSH1 0x60 DUP7 ADD MSTORE PUSH1 0x80 DUP6 ADD SWAP1 ISZERO ISZERO DUP2 MSTORE PUSH1 0xA0 DUP6 ADD SWAP2 DUP3 MSTORE DUP4 PUSH1 0xC0 DUP7 ADD SWAP4 PUSH1 0x10 SHR AND DUP4 MSTORE PUSH1 0x1 PUSH1 0x1 PUSH1 0x40 SHL SUB PUSH1 0x60 PUSH1 0x40 MLOAD SWAP7 PUSH4 0x424D8DBF PUSH1 0xE1 SHL DUP9 MSTORE CALLER PUSH1 0x4 DUP10 ADD MSTORE DUP1 MLOAD PUSH1 0x24 DUP10 ADD MSTORE PUSH1 0xFF PUSH1 0x20 DUP3 ADD MLOAD AND PUSH1 0x44 DUP10 ADD MSTORE PUSH1 0xFF PUSH1 0x40 DUP3 ADD MLOAD AND PUSH1 0x64 DUP10 ADD MSTORE ADD MLOAD AND PUSH1 0x84 DUP7 ADD MSTORE MLOAD ISZERO ISZERO PUSH1 0xA4 DUP6 ADD MSTORE MLOAD PUSH1 0xC4 DUP5 ADD MSTORE MLOAD AND PUSH1 0xE4 DUP3 ADD MSTORE PUSH1 0x20 DUP2 PUSH2 0x104 DUP2 DUP13 PUSH1 0x1 DUP1 PUSH1 0xA0 SHL SUB PUSH32 0x0 AND GAS CALL DUP1 ISZERO PUSH2 0xB43 JUMPI PUSH2 0xB08 JUMPI JUMPDEST POP PUSH32 0x83A9EDC2809EED4960FD3CCB7DA06A85B3E878E6E1568E8CA281AE543ADCC493 SWAP7 PUSH1 0x1 PUSH1 0x1 PUSH1 0x40 SHL SUB PUSH2 0x140 SWAP8 SWAP7 SWAP6 SWAP5 SWAP4 PUSH1 0xFF PUSH1 0xB PUSH2 0xFFFF SWAP6 ADD SLOAD SWAP4 PUSH1 0x40 MLOAD SWAP10 DUP11 MSTORE PUSH1 0x4 CALLDATALOAD PUSH1 0x20 DUP12 ADD MSTORE CALLER PUSH1 0x40 DUP12 ADD MSTORE AND PUSH1 0x60 DUP10 ADD MSTORE PUSH1 0xFF DUP4 AND PUSH1 0x80 DUP10 ADD MSTORE AND PUSH1 0xA0 DUP8 ADD MSTORE PUSH1 0x10 SHR AND PUSH1 0xC0 DUP6 ADD MSTORE PUSH1 0xE0 DUP5 ADD MSTORE PUSH2 0x100 DUP4 ADD MSTORE PUSH2 0x120 DUP3 ADD MSTORE LOG1 DUP1 RETURN JUMPDEST PUSH1 0x20 SWAP1 DUP2 SWAP8 SWAP7 SWAP6 SWAP5 SWAP4 SWAP3 SWAP8 RETURNDATASIZE DUP4 GT PUSH2 0xB3C JUMPI JUMPDEST PUSH2 0xB25 DUP2 DUP4 PUSH2 0x1758 JUMP JUMPDEST DUP2 ADD SUB SLT PUSH2 0xB38 JUMPI SWAP1 SWAP2 SWAP3 SWAP4 SWAP5 CODESIZE PUSH2 0xA83 JUMP JUMPDEST DUP8 DUP1 REVERT JUMPDEST POP RETURNDATASIZE PUSH2 0xB1B JUMP JUMPDEST PUSH1 0x40 MLOAD RETURNDATASIZE DUP12 DUP3 RETURNDATACOPY RETURNDATASIZE SWAP1 REVERT JUMPDEST PUSH2 0xB62 SWAP2 SWAP3 POP PUSH2 0xFFFF AND PUSH1 0xA DUP4 ADD SLOAD PUSH2 0x18A5 JUMP JUMPDEST PUSH3 0x15180 SWAP1 DUP1 DUP3 DUP2 MUL DIV DUP3 EQ DUP2 ISZERO OR ISZERO PUSH2 0xB92 JUMPI PUSH1 0x1 PUSH1 0x1 PUSH1 0x40 SHL SUB SWAP2 PUSH2 0xB8A SWAP2 MUL TIMESTAMP PUSH2 0x1898 JUMP JUMPDEST AND SWAP1 CODESIZE PUSH2 0x97C JUMP JUMPDEST PUSH4 0x4E487B71 PUSH1 0xE0 SHL DUP10 MSTORE PUSH1 0x11 PUSH1 0x4 MSTORE PUSH1 0x24 DUP10 REVERT JUMPDEST PUSH1 0x40 MLOAD PUSH4 0x665C1C57 PUSH1 0xE0 SHL DUP2 MSTORE PUSH1 0x4 SWAP1 REVERT JUMPDEST POP DUP1 REVERT JUMPDEST POP CALLVALUE PUSH2 0x162 JUMPI DUP1 PUSH1 0x3 NOT CALLDATASIZE ADD SLT PUSH2 0x162 JUMPI PUSH1 0x20 PUSH1 0x40 MLOAD PUSH2 0x7D0 DUP2 MSTORE RETURN JUMPDEST PUSH2 0x16BB JUMP JUMPDEST POP CALLVALUE PUSH2 0x162 JUMPI DUP1 PUSH1 0x3 NOT CALLDATASIZE ADD SLT PUSH2 0x162 JUMPI PUSH1 0x20 SWAP1 PUSH1 0x40 MLOAD SWAP1 DUP2 MSTORE RETURN JUMPDEST POP CALLVALUE PUSH2 0x162 JUMPI DUP1 PUSH1 0x3 NOT CALLDATASIZE ADD SLT PUSH2 0x162 JUMPI PUSH2 0xC13 PUSH2 0x18C6 JUMP JUMPDEST DUP1 SLOAD PUSH1 0x1 PUSH1 0x1 PUSH1 0xA0 SHL SUB NOT DUP2 AND DUP3 SSTORE DUP2 SWAP1 PUSH1 0x1 PUSH1 0x1 PUSH1 0xA0 SHL SUB AND PUSH32 0x8BE0079C531659141344CD1FD0A4F28419497F9722A3DAAFE3B4186F6B6457E0 DUP3 DUP1 LOG3 DUP1 RETURN JUMPDEST POP CALLVALUE PUSH2 0x162 JUMPI PUSH1 0x20 CALLDATASIZE PUSH1 0x3 NOT ADD SLT PUSH2 0x162 JUMPI PUSH1 0x4 CALLDATALOAD DUP2 MSTORE PUSH1 0x7 PUSH1 0x20 MSTORE PUSH1 0x40 SWAP1 KECCAK256 DUP1 SLOAD PUSH1 0x1 DUP3 ADD SLOAD PUSH1 0x1 PUSH1 0x1 PUSH1 0xA0 SHL SUB SWAP1 DUP2 AND SWAP3 SWAP2 AND SWAP1 PUSH2 0xC96 PUSH1 0x2 DUP3 ADD PUSH2 0x1779 JUMP JUMPDEST PUSH2 0xCA2 PUSH1 0x3 DUP4 ADD PUSH2 0x1779 JUMP JUMPDEST SWAP2 PUSH1 0x4 DUP2 ADD SLOAD SWAP3 PUSH1 0x5 DUP3 ADD SLOAD PUSH1 0xFF AND PUSH1 0x6 DUP4 ADD SLOAD PUSH1 0x7 DUP5 ADD SLOAD PUSH1 0xFF AND PUSH1 0x8 DUP6 ADD SLOAD SWAP2 PUSH1 0x9 DUP7 ADD SLOAD SWAP4 PUSH1 0xA DUP8 ADD SLOAD SWAP6 PUSH1 0xB DUP9 ADD SLOAD SWAP8 PUSH1 0xC ADD SLOAD SWAP9 PUSH1 0x40 MLOAD SWAP13 DUP14 SWAP13 DUP14 PUSH2 0x1E0 SWAP3 DUP4 SWAP3 DUP3 MSTORE PUSH1 0x20 DUP3 ADD MSTORE PUSH1 0x40 ADD MSTORE DUP13 ADD PUSH2 0xCFE SWAP2 PUSH2 0x1841 JUMP JUMPDEST DUP12 DUP2 SUB PUSH1 0x60 DUP14 ADD MSTORE PUSH2 0xD0F SWAP2 PUSH2 0x1841 JUMP JUMPDEST SWAP9 PUSH1 0x80 DUP12 ADD MSTORE ISZERO ISZERO PUSH1 0xA0 DUP11 ADD MSTORE PUSH1 0xC0 DUP10 ADD MSTORE ISZERO ISZERO PUSH1 0xE0 DUP9 ADD MSTORE PUSH2 0x100 DUP8 ADD MSTORE PUSH2 0x120 DUP7 ADD MSTORE PUSH2 0x140 DUP6 ADD MSTORE PUSH1 0xFF DUP2 AND PUSH2 0x160 DUP6 ADD MSTORE DUP1 PUSH1 0x8 SHR PUSH1 0xFF AND PUSH2 0x180 DUP6 ADD MSTORE PUSH1 0x10 SHR PUSH2 0xFFFF AND PUSH2 0x1A0 DUP5 ADD MSTORE PUSH2 0x1C0 DUP4 ADD MSTORE SUB SWAP1 RETURN JUMPDEST POP CALLVALUE PUSH2 0x162 JUMPI DUP1 PUSH1 0x3 NOT CALLDATASIZE ADD SLT PUSH2 0x162 JUMPI PUSH1 0x20 PUSH1 0x1 SLOAD PUSH1 0x40 MLOAD SWAP1 DUP2 MSTORE RETURN JUMPDEST POP CALLVALUE PUSH2 0x162 JUMPI PUSH2 0x100 CALLDATASIZE PUSH1 0x3 NOT ADD SLT PUSH2 0x162 JUMPI PUSH1 0x64 CALLDATALOAD PUSH1 0x84 CALLDATALOAD PUSH1 0x4 CALLDATALOAD PUSH1 0x44 CALLDATALOAD PUSH1 0xFF DUP4 AND PUSH1 0x24 CALLDATALOAD DUP2 DUP6 SUB PUSH2 0x6E8 JUMPI PUSH1 0xA4 CALLDATALOAD SWAP2 PUSH1 0xFF DUP4 AND DUP4 SUB PUSH2 0xB38 JUMPI PUSH1 0xC4 CALLDATALOAD SWAP1 PUSH2 0xFFFF DUP3 AND DUP3 SUB PUSH2 0x6EC JUMPI PUSH1 0xFF PUSH1 0x4 SLOAD PUSH1 0xA0 SHR AND PUSH2 0x6EC JUMPI DUP6 DUP10 MSTORE PUSH1 0x7 PUSH1 0x20 MSTORE PUSH1 0x40 DUP10 KECCAK256 DUP1 SLOAD SWAP1 SWAP8 PUSH1 0x1 PUSH1 0x1 PUSH1 0xA0 SHL SUB SWAP6 SWAP1 SWAP2 DUP7 AND CALLER SUB PUSH2 0x389 JUMPI PUSH32 0x9FC3511935EAA959D5C177FDCEB853AE3440D1FC3AC6301563DFEFAC03D72EC8 SWAP10 PUSH2 0xEE1 SWAP8 PUSH2 0xE98 SWAP7 PUSH2 0xE36 PUSH2 0xE7E SWAP6 PUSH2 0x1933 JUMP JUMPDEST PUSH2 0xE3F DUP5 PUSH2 0x1979 JUMP JUMPDEST PUSH2 0xE4A DUP4 DUP4 DUP4 PUSH2 0x19BF JUMP JUMPDEST PUSH1 0x8 DUP13 ADD SSTORE PUSH1 0x9 DUP12 ADD SSTORE PUSH1 0xA DUP11 ADD SSTORE PUSH1 0xB DUP10 ADD SWAP3 PUSH1 0xFF NOT DUP5 SLOAD AND OR DUP4 SSTORE DUP3 SWAP1 PUSH2 0xFF00 DUP3 SLOAD SWAP2 PUSH1 0x8 SHL AND SWAP1 PUSH2 0xFF00 NOT AND OR SWAP1 SSTORE JUMP JUMPDEST SWAP1 PUSH4 0xFFFF0000 DUP3 SLOAD SWAP2 PUSH1 0x10 SHL AND SWAP1 PUSH4 0xFFFF0000 NOT AND OR SWAP1 SSTORE JUMP JUMPDEST PUSH1 0xE4 CALLDATALOAD PUSH1 0xC DUP6 ADD SSTORE DUP4 SLOAD AND SWAP3 PUSH1 0xFF PUSH1 0x7 PUSH1 0x4 DUP4 ADD SLOAD SWAP3 ADD SLOAD AND SWAP1 PUSH1 0x40 MLOAD SWAP5 DUP6 SWAP5 DUP6 SWAP3 PUSH1 0x60 SWAP3 SWAP6 SWAP5 SWAP2 SWAP6 PUSH1 0x80 DUP6 ADD SWAP7 DUP6 MSTORE PUSH1 0x1 DUP1 PUSH1 0xA0 SHL SUB AND PUSH1 0x20 DUP6 ADD MSTORE PUSH1 0x40 DUP5 ADD MSTORE ISZERO ISZERO SWAP2 ADD MSTORE JUMP JUMPDEST SUB SWAP1 LOG1 DUP1 RETURN JUMPDEST POP CALLVALUE PUSH2 0x162 JUMPI DUP1 PUSH1 0x3 NOT CALLDATASIZE ADD SLT PUSH2 0x162 JUMPI PUSH1 0x20 PUSH1 0xFF PUSH1 0x4 SLOAD PUSH1 0xA0 SHR AND PUSH1 0x40 MLOAD SWAP1 ISZERO ISZERO DUP2 MSTORE RETURN JUMPDEST POP CALLVALUE PUSH2 0x162 JUMPI DUP1 PUSH1 0x3 NOT CALLDATASIZE ADD SLT PUSH2 0x162 JUMPI PUSH1 0x20 PUSH1 0x2 SLOAD PUSH1 0x40 MLOAD SWAP1 DUP2 MSTORE RETURN JUMPDEST POP CALLVALUE PUSH2 0x162 JUMPI DUP1 PUSH1 0x3 NOT CALLDATASIZE ADD SLT PUSH2 0x162 JUMPI PUSH1 0x4 SLOAD PUSH1 0x40 MLOAD PUSH1 0x1 PUSH1 0x1 PUSH1 0xA0 SHL SUB SWAP1 SWAP2 AND DUP2 MSTORE PUSH1 0x20 SWAP1 RETURN JUMPDEST POP CALLVALUE PUSH2 0x162 JUMPI PUSH1 0x40 CALLDATASIZE PUSH1 0x3 NOT ADD SLT PUSH2 0x162 JUMPI PUSH1 0x24 CALLDATALOAD PUSH1 0x1 PUSH1 0x1 PUSH1 0xA0 SHL SUB DUP2 AND SWAP1 PUSH1 0x4 CALLDATALOAD DUP3 DUP3 SUB PUSH2 0x715 JUMPI PUSH2 0xF86 PUSH2 0x18C6 JUMP JUMPDEST PUSH2 0xF8F DUP2 PUSH2 0x18F2 JUMP JUMPDEST PUSH2 0x7D0 DUP2 GT PUSH2 0xFF4 JUMPI PUSH1 0x3 DUP2 SWAP1 SSTORE PUSH1 0x4 DUP1 SLOAD PUSH1 0x1 PUSH1 0x1 PUSH1 0xA0 SHL SUB NOT AND SWAP1 SWAP4 OR SWAP1 SWAP3 SSTORE PUSH1 0x40 DUP1 MLOAD SWAP3 DUP4 MSTORE PUSH1 0x1 PUSH1 0x1 PUSH1 0xA0 SHL SUB SWAP1 SWAP2 AND PUSH1 0x20 DUP4 ADD MSTORE PUSH32 0xC5732485634831B5E1B586E2011C5F2B392FE136310C230CF1F04D6CAF30C15A SWAP2 SWAP1 DUP2 SWAP1 DUP2 ADD PUSH2 0xEE1 JUMP JUMPDEST PUSH1 0x40 MLOAD PUSH4 0xC1BD8845 PUSH1 0xE0 SHL DUP2 MSTORE PUSH1 0x4 SWAP1 REVERT JUMPDEST POP CALLVALUE PUSH2 0x162 JUMPI DUP1 PUSH1 0x3 NOT CALLDATASIZE ADD SLT PUSH2 0x162 JUMPI PUSH1 0x20 PUSH1 0x3 SLOAD PUSH1 0x40 MLOAD SWAP1 DUP2 MSTORE RETURN JUMPDEST POP CALLVALUE PUSH2 0x162 JUMPI DUP1 PUSH1 0x3 NOT CALLDATASIZE ADD SLT PUSH2 0x162 JUMPI PUSH1 0x20 PUSH1 0x6 SLOAD PUSH1 0x40 MLOAD SWAP1 DUP2 MSTORE RETURN JUMPDEST POP CALLVALUE PUSH2 0x162 JUMPI PUSH2 0x160 CALLDATASIZE PUSH1 0x3 NOT ADD SLT PUSH2 0x162 JUMPI PUSH1 0x4 CALLDATALOAD PUSH1 0x1 PUSH1 0x1 PUSH1 0x40 SHL SUB DUP2 GT PUSH2 0xBB8 JUMPI PUSH2 0x1074 SWAP1 CALLDATASIZE SWAP1 PUSH1 0x4 ADD PUSH2 0x168E JUMP JUMPDEST PUSH1 0x24 CALLDATALOAD PUSH1 0x1 PUSH1 0x1 PUSH1 0x40 SHL SUB DUP2 GT PUSH2 0x715 JUMPI PUSH2 0x1093 SWAP1 CALLDATASIZE SWAP1 PUSH1 0x4 ADD PUSH2 0x168E JUMP JUMPDEST SWAP3 PUSH1 0x44 CALLDATALOAD PUSH1 0x1 PUSH1 0x1 PUSH1 0x40 SHL SUB DUP2 GT PUSH2 0x161C JUMPI PUSH2 0x10B3 SWAP1 CALLDATASIZE SWAP1 PUSH1 0x4 ADD PUSH2 0x168E JUMP JUMPDEST SWAP1 SWAP4 PUSH1 0xE4 CALLDATALOAD SWAP3 PUSH1 0xFF DUP5 AND DUP5 SUB PUSH2 0xB38 JUMPI PUSH1 0xFF PUSH2 0x104 CALLDATALOAD AND PUSH2 0x104 CALLDATALOAD SUB PUSH2 0xB38 JUMPI PUSH2 0xFFFF PUSH2 0x124 CALLDATALOAD AND PUSH2 0x124 CALLDATALOAD SUB PUSH2 0xB38 JUMPI PUSH1 0xFF PUSH1 0x4 SLOAD PUSH1 0xA0 SHR AND PUSH2 0xB38 JUMPI PUSH2 0x10FC PUSH1 0x64 CALLDATALOAD PUSH2 0x18F2 JUMP JUMPDEST PUSH2 0x110A PUSH1 0x64 CALLDATALOAD PUSH1 0x3 SLOAD PUSH2 0x190E JUMP JUMPDEST PUSH2 0x1113 DUP5 PUSH2 0x1933 JUMP JUMPDEST PUSH2 0x111F PUSH2 0x104 CALLDATALOAD PUSH2 0x1979 JUMP JUMPDEST PUSH2 0x1130 PUSH1 0xC4 CALLDATALOAD PUSH1 0xA4 CALLDATALOAD PUSH1 0x84 CALLDATALOAD PUSH2 0x19BF JUMP JUMPDEST PUSH1 0x6 SLOAD DUP1 ISZERO ISZERO SWAP1 DUP2 PUSH2 0x160F JUMPI JUMPDEST POP PUSH2 0x15FD JUMPI PUSH1 0x20 SWAP1 CALLER DUP10 MSTORE PUSH1 0x8 DUP3 MSTORE PUSH1 0x40 DUP10 KECCAK256 DUP4 PUSH1 0x40 MLOAD SWAP5 DUP6 SWAP4 DUP5 CALLDATACOPY DUP3 ADD SWAP1 DUP2 MSTORE SUB ADD SWAP1 KECCAK256 SWAP4 DUP5 SLOAD DUP1 PUSH2 0x152F JUMPI JUMPDEST POP PUSH1 0x1 SLOAD SWAP6 PUSH2 0x1179 DUP8 PUSH2 0x1889 JUMP JUMPDEST PUSH1 0x1 SSTORE DUP7 DUP9 MSTORE PUSH1 0x7 PUSH1 0x20 MSTORE PUSH1 0x40 DUP9 KECCAK256 SWAP5 PUSH12 0xFFFFFFFFFFFFFFFFFFFFFFFF PUSH1 0xA0 SHL CALLER DUP2 DUP9 SLOAD AND OR DUP8 SSTORE PUSH1 0x1 DUP8 ADD SWAP1 CALLER SWAP1 DUP3 SLOAD AND OR SWAP1 SSTORE PUSH1 0x1 PUSH1 0x1 PUSH1 0x40 SHL SUB DUP3 GT PUSH2 0x151B JUMPI DUP2 SWAP1 PUSH2 0x11CB PUSH1 0x2 DUP9 ADD SLOAD PUSH2 0x16ED JUMP JUMPDEST PUSH1 0x1F DUP2 GT PUSH2 0x14CB JUMPI JUMPDEST POP DUP10 SWAP1 PUSH1 0x1F DUP4 GT PUSH1 0x1 EQ PUSH2 0x145F JUMPI DUP11 SWAP3 PUSH2 0x1454 JUMPI JUMPDEST POP POP DUP2 PUSH1 0x1 SHL SWAP2 PUSH1 0x0 NOT SWAP1 PUSH1 0x3 SHL SHR NOT AND OR PUSH1 0x2 DUP6 ADD SSTORE JUMPDEST PUSH1 0x1 PUSH1 0x1 PUSH1 0x40 SHL SUB DUP3 GT PUSH2 0x1440 JUMPI PUSH2 0x121C PUSH1 0x3 DUP6 ADD SLOAD PUSH2 0x16ED JUMP JUMPDEST PUSH1 0x1F DUP2 GT PUSH2 0x13FC JUMPI JUMPDEST POP DUP7 SWAP1 PUSH1 0x1F DUP4 GT PUSH1 0x1 EQ PUSH2 0x1388 JUMPI SWAP2 DUP1 PUSH1 0x1 SWAP7 SWAP6 SWAP5 SWAP3 PUSH2 0x12E5 SWAP5 DUP11 SWAP3 PUSH2 0x137D JUMPI JUMPDEST POP POP DUP2 DUP8 SHL SWAP2 PUSH1 0x0 NOT SWAP1 PUSH1 0x3 SHL SHR NOT AND OR PUSH1 0x3 DUP5 ADD SSTORE JUMPDEST DUP7 PUSH1 0x4 DUP5 ADD SSTORE PUSH1 0x5 DUP4 ADD PUSH1 0xFF NOT SWAP1 DUP2 DUP2 SLOAD AND SWAP1 SSTORE PUSH1 0x64 CALLDATALOAD PUSH1 0x6 DUP6 ADD SSTORE PUSH1 0x7 DUP5 ADD DUP7 DUP3 DUP3 SLOAD AND OR SWAP1 SSTORE PUSH1 0x84 CALLDATALOAD PUSH1 0x8 DUP6 ADD SSTORE PUSH1 0xA4 CALLDATALOAD PUSH1 0x9 DUP6 ADD SSTORE PUSH1 0xC4 CALLDATALOAD PUSH1 0xA DUP6 ADD SSTORE PUSH1 0xFF PUSH1 0xB DUP6 ADD SWAP3 AND SWAP1 DUP3 SLOAD AND OR DUP2 SSTORE PUSH2 0x12CA PUSH2 0x104 CALLDATALOAD DUP3 SWAP1 PUSH2 0xFF00 DUP3 SLOAD SWAP2 PUSH1 0x8 SHL AND SWAP1 PUSH2 0xFF00 NOT AND OR SWAP1 SSTORE JUMP JUMPDEST DUP1 SLOAD PUSH4 0xFFFF0000 NOT AND PUSH2 0x124 CALLDATALOAD PUSH1 0x10 SHL PUSH4 0xFFFF0000 AND OR SWAP1 SSTORE JUMP JUMPDEST PUSH1 0xC PUSH2 0x144 CALLDATALOAD SWAP2 ADD SSTORE DUP3 DUP2 SSTORE ADD PUSH2 0xFFFF PUSH2 0x124 CALLDATALOAD AND PUSH2 0xFFFF NOT DUP3 SLOAD AND OR SWAP1 SSTORE PUSH1 0x5 SLOAD PUSH1 0x1 DUP2 ADD DUP1 SWAP2 GT PUSH2 0x1369 JUMPI PUSH32 0x9BD8EA027140589A00B923B981D55DDBFBB8A7C266DCBC6FD9E2EABDBE2CE0CB SWAP2 PUSH1 0x0 DUP1 MLOAD PUSH1 0x20 PUSH2 0x1B30 DUP4 CODECOPY DUP2 MLOAD SWAP2 MSTORE PUSH1 0x20 DUP4 PUSH1 0x60 SWAP5 PUSH1 0x5 SSTORE PUSH1 0x40 MLOAD SWAP1 DUP2 MSTORE LOG1 PUSH1 0x40 MLOAD SWAP1 DUP2 MSTORE CALLER PUSH1 0x20 DUP3 ADD MSTORE DUP4 PUSH1 0x40 DUP3 ADD MSTORE LOG1 DUP1 RETURN JUMPDEST PUSH4 0x4E487B71 PUSH1 0xE0 SHL DUP4 MSTORE PUSH1 0x11 PUSH1 0x4 MSTORE PUSH1 0x24 DUP4 REVERT JUMPDEST ADD CALLDATALOAD SWAP1 POP CODESIZE DUP1 PUSH2 0x1246 JUMP JUMPDEST PUSH1 0x3 DUP6 ADD DUP9 MSTORE PUSH1 0x20 DUP9 KECCAK256 SWAP2 DUP9 JUMPDEST PUSH1 0x1F NOT DUP6 AND DUP2 LT PUSH2 0x13E4 JUMPI POP SWAP3 PUSH1 0x1 SWAP7 SWAP6 SWAP5 SWAP3 DUP8 SWAP3 PUSH2 0x12E5 SWAP6 DUP4 PUSH1 0x1F NOT DUP2 AND LT PUSH2 0x13CA JUMPI JUMPDEST POP POP POP DUP2 SHL ADD PUSH1 0x3 DUP5 ADD SSTORE PUSH2 0x125D JUMP JUMPDEST ADD CALLDATALOAD PUSH1 0x0 NOT PUSH1 0x3 DUP5 SWAP1 SHL PUSH1 0xF8 AND SHR NOT AND SWAP1 SSTORE CODESIZE DUP1 DUP1 PUSH2 0x13BA JUMP JUMPDEST SWAP1 SWAP3 PUSH1 0x20 PUSH1 0x1 DUP2 SWAP3 DUP7 DUP7 ADD CALLDATALOAD DUP2 SSTORE ADD SWAP5 ADD SWAP2 ADD PUSH2 0x1395 JUMP JUMPDEST PUSH1 0x3 DUP6 ADD DUP9 MSTORE PUSH1 0x20 DUP9 KECCAK256 PUSH1 0x1F DUP5 ADD PUSH1 0x5 SHR DUP2 ADD PUSH1 0x20 DUP6 LT PUSH2 0x1439 JUMPI JUMPDEST PUSH1 0x1F DUP4 ADD PUSH1 0x5 SHR DUP3 ADD DUP2 LT PUSH2 0x142E JUMPI POP POP PUSH2 0x1225 JUMP JUMPDEST DUP10 DUP2 SSTORE PUSH1 0x1 ADD PUSH2 0x1418 JUMP JUMPDEST POP DUP1 PUSH2 0x1418 JUMP JUMPDEST PUSH4 0x4E487B71 PUSH1 0xE0 SHL DUP8 MSTORE PUSH1 0x41 PUSH1 0x4 MSTORE PUSH1 0x24 DUP8 REVERT JUMPDEST ADD CALLDATALOAD SWAP1 POP CODESIZE DUP1 PUSH2 0x11E9 JUMP JUMPDEST PUSH1 0x2 DUP9 ADD DUP12 MSTORE PUSH1 0x20 DUP12 KECCAK256 DUP12 SWAP5 POP SWAP2 JUMPDEST PUSH1 0x1F NOT DUP5 AND DUP6 LT PUSH2 0x14B3 JUMPI PUSH1 0x1 SWAP5 POP DUP4 PUSH1 0x1F NOT DUP2 AND LT PUSH2 0x1499 JUMPI JUMPDEST POP POP POP DUP2 SHL ADD PUSH1 0x2 DUP6 ADD SSTORE PUSH2 0x1201 JUMP JUMPDEST ADD CALLDATALOAD PUSH1 0x0 NOT PUSH1 0x3 DUP5 SWAP1 SHL PUSH1 0xF8 AND SHR NOT AND SWAP1 SSTORE CODESIZE DUP1 DUP1 PUSH2 0x1489 JUMP JUMPDEST DUP2 DUP2 ADD CALLDATALOAD DUP4 SSTORE PUSH1 0x20 SWAP5 DUP6 ADD SWAP5 PUSH1 0x1 SWAP1 SWAP4 ADD SWAP3 ADD PUSH2 0x146E JUMP JUMPDEST SWAP1 SWAP2 POP PUSH1 0x2 DUP8 ADD DUP11 MSTORE PUSH1 0x20 DUP11 KECCAK256 PUSH1 0x1F DUP5 ADD PUSH1 0x5 SHR DUP2 ADD PUSH1 0x20 DUP6 LT PUSH2 0x1514 JUMPI JUMPDEST SWAP1 DUP5 SWAP4 SWAP3 SWAP2 JUMPDEST PUSH1 0x1F DUP4 ADD PUSH1 0x5 SHR DUP3 ADD DUP2 LT PUSH2 0x1506 JUMPI POP POP PUSH2 0x11D4 JUMP JUMPDEST DUP13 DUP2 SSTORE DUP6 SWAP5 POP PUSH1 0x1 ADD PUSH2 0x14F0 JUMP JUMPDEST POP DUP1 PUSH2 0x14EA JUMP JUMPDEST PUSH4 0x4E487B71 PUSH1 0xE0 SHL DUP10 MSTORE PUSH1 0x41 PUSH1 0x4 MSTORE PUSH1 0x24 DUP10 REVERT JUMPDEST DUP8 MSTORE PUSH1 0x7 PUSH1 0x20 MSTORE PUSH1 0x40 DUP8 KECCAK256 PUSH1 0x7 DUP2 ADD DUP1 SLOAD PUSH1 0xFF DUP2 AND PUSH2 0x1550 JUMPI JUMPDEST POP POP PUSH2 0x116B JUMP JUMPDEST PUSH1 0xFF NOT AND SWAP1 SSTORE PUSH1 0x5 SLOAD DUP1 PUSH2 0x15A6 JUMPI JUMPDEST POP DUP6 SLOAD SWAP1 SLOAD PUSH1 0x40 DUP1 MLOAD SWAP3 DUP4 MSTORE PUSH1 0x1 PUSH1 0x1 PUSH1 0xA0 SHL SUB SWAP1 SWAP2 AND PUSH1 0x20 DUP4 ADD MSTORE PUSH32 0xC3090E5FBC3F92A65283D58DECE4AE699CC0CA8E124DBC474240BB1AED0B77E7 SWAP2 LOG1 CODESIZE DUP1 DUP1 PUSH2 0x1549 JUMP JUMPDEST DUP1 PUSH1 0x0 NOT DUP2 ADD GT PUSH2 0xB92 JUMPI PUSH1 0x0 NOT ADD PUSH1 0x5 DUP2 SWAP1 SSTORE PUSH1 0x40 MLOAD SWAP1 DUP2 MSTORE PUSH32 0xC3090E5FBC3F92A65283D58DECE4AE699CC0CA8E124DBC474240BB1AED0B77E7 SWAP2 SWAP1 PUSH1 0x0 DUP1 MLOAD PUSH1 0x20 PUSH2 0x1B30 DUP4 CODECOPY DUP2 MLOAD SWAP2 MSTORE SWAP1 PUSH1 0x20 SWAP1 LOG1 SWAP1 PUSH2 0x155F JUMP JUMPDEST PUSH1 0x40 MLOAD PUSH4 0x57037669 PUSH1 0xE0 SHL DUP2 MSTORE PUSH1 0x4 SWAP1 REVERT JUMPDEST SWAP1 POP PUSH1 0x5 SLOAD LT ISZERO CODESIZE PUSH2 0x113D JUMP JUMPDEST DUP6 DUP1 REVERT JUMPDEST POP CALLVALUE PUSH2 0x162 JUMPI PUSH1 0x20 CALLDATASIZE PUSH1 0x3 NOT ADD SLT PUSH2 0x162 JUMPI PUSH1 0x4 CALLDATALOAD DUP1 ISZERO ISZERO DUP1 SWAP2 SUB PUSH2 0xBB8 JUMPI PUSH1 0x20 PUSH32 0xB11504260ECFCFFB6EBDEB716F8EA67351CD54F23AF3D6BBEC03C41E93B86C45 SWAP2 PUSH2 0x166B PUSH2 0x18C6 JUMP JUMPDEST PUSH1 0x4 DUP1 SLOAD PUSH1 0xFF PUSH1 0xA0 SHL NOT AND PUSH1 0xA0 DUP4 SWAP1 SHL PUSH1 0xFF PUSH1 0xA0 SHL AND OR SWAP1 SSTORE PUSH1 0x40 MLOAD SWAP1 DUP2 MSTORE LOG1 DUP1 RETURN JUMPDEST SWAP2 DUP2 PUSH1 0x1F DUP5 ADD SLT ISZERO PUSH2 0x39F JUMPI DUP3 CALLDATALOAD SWAP2 PUSH1 0x1 PUSH1 0x1 PUSH1 0x40 SHL SUB DUP4 GT PUSH2 0x39F JUMPI PUSH1 0x20 DUP4 DUP2 DUP7 ADD SWAP6 ADD ADD GT PUSH2 0x39F JUMPI JUMP JUMPDEST CALLVALUE PUSH2 0x39F JUMPI PUSH1 0x0 CALLDATASIZE PUSH1 0x3 NOT ADD SLT PUSH2 0x39F JUMPI PUSH1 0x20 PUSH1 0x40 MLOAD PUSH1 0x1 DUP2 MSTORE RETURN JUMPDEST PUSH1 0x4 CALLDATALOAD SWAP1 PUSH1 0x1 PUSH1 0x1 PUSH1 0xA0 SHL SUB DUP3 AND DUP3 SUB PUSH2 0x39F JUMPI JUMP JUMPDEST SWAP1 PUSH1 0x1 DUP3 DUP2 SHR SWAP3 AND DUP1 ISZERO PUSH2 0x171D JUMPI JUMPDEST PUSH1 0x20 DUP4 LT EQ PUSH2 0x1707 JUMPI JUMP JUMPDEST PUSH4 0x4E487B71 PUSH1 0xE0 SHL PUSH1 0x0 MSTORE PUSH1 0x22 PUSH1 0x4 MSTORE PUSH1 0x24 PUSH1 0x0 REVERT JUMPDEST SWAP2 PUSH1 0x7F AND SWAP2 PUSH2 0x16FC JUMP JUMPDEST PUSH1 0xE0 DUP2 ADD SWAP1 DUP2 LT PUSH1 0x1 PUSH1 0x1 PUSH1 0x40 SHL SUB DUP3 GT OR PUSH2 0x1742 JUMPI PUSH1 0x40 MSTORE JUMP JUMPDEST PUSH4 0x4E487B71 PUSH1 0xE0 SHL PUSH1 0x0 MSTORE PUSH1 0x41 PUSH1 0x4 MSTORE PUSH1 0x24 PUSH1 0x0 REVERT JUMPDEST SWAP1 PUSH1 0x1F DUP1 NOT SWAP2 ADD AND DUP2 ADD SWAP1 DUP2 LT PUSH1 0x1 PUSH1 0x1 PUSH1 0x40 SHL SUB DUP3 GT OR PUSH2 0x1742 JUMPI PUSH1 0x40 MSTORE JUMP JUMPDEST SWAP1 PUSH1 0x40 MLOAD SWAP2 DUP3 PUSH1 0x0 DUP3 SLOAD PUSH2 0x178C DUP2 PUSH2 0x16ED JUMP JUMPDEST SWAP1 DUP2 DUP5 MSTORE PUSH1 0x20 SWAP5 PUSH1 0x1 SWAP2 PUSH1 0x1 DUP2 AND SWAP1 DUP2 PUSH1 0x0 EQ PUSH2 0x17FC JUMPI POP PUSH1 0x1 EQ PUSH2 0x17BD JUMPI JUMPDEST POP POP POP PUSH2 0x17BB SWAP3 POP SUB DUP4 PUSH2 0x1758 JUMP JUMPDEST JUMP JUMPDEST PUSH1 0x0 SWAP1 DUP2 MSTORE DUP6 DUP2 KECCAK256 SWAP6 SWAP4 POP SWAP2 SWAP1 JUMPDEST DUP2 DUP4 LT PUSH2 0x17E4 JUMPI POP POP PUSH2 0x17BB SWAP4 POP DUP3 ADD ADD CODESIZE DUP1 DUP1 PUSH2 0x17AC JUMP JUMPDEST DUP6 SLOAD DUP9 DUP5 ADD DUP6 ADD MSTORE SWAP5 DUP6 ADD SWAP5 DUP8 SWAP5 POP SWAP2 DUP4 ADD SWAP2 PUSH2 0x17CB JUMP JUMPDEST SWAP3 POP POP POP PUSH2 0x17BB SWAP5 SWAP3 POP PUSH1 0xFF NOT AND DUP3 DUP5 ADD MSTORE ISZERO ISZERO PUSH1 0x5 SHL DUP3 ADD ADD CODESIZE DUP1 DUP1 PUSH2 0x17AC JUMP JUMPDEST PUSH1 0x0 JUMPDEST DUP4 DUP2 LT PUSH2 0x1831 JUMPI POP POP PUSH1 0x0 SWAP2 ADD MSTORE JUMP JUMPDEST DUP2 DUP2 ADD MLOAD DUP4 DUP3 ADD MSTORE PUSH1 0x20 ADD PUSH2 0x1821 JUMP JUMPDEST SWAP1 PUSH1 0x20 SWAP2 PUSH2 0x185A DUP2 MLOAD DUP1 SWAP3 DUP2 DUP6 MSTORE DUP6 DUP1 DUP7 ADD SWAP2 ADD PUSH2 0x181E JUMP JUMPDEST PUSH1 0x1F ADD PUSH1 0x1F NOT AND ADD ADD SWAP1 JUMP JUMPDEST SWAP2 SWAP1 DUP3 SUB SWAP2 DUP3 GT PUSH2 0x1873 JUMPI JUMP JUMPDEST PUSH4 0x4E487B71 PUSH1 0xE0 SHL PUSH1 0x0 MSTORE PUSH1 0x11 PUSH1 0x4 MSTORE PUSH1 0x24 PUSH1 0x0 REVERT JUMPDEST PUSH1 0x0 NOT DUP2 EQ PUSH2 0x1873 JUMPI PUSH1 0x1 ADD SWAP1 JUMP JUMPDEST SWAP2 SWAP1 DUP3 ADD DUP1 SWAP3 GT PUSH2 0x1873 JUMPI JUMP JUMPDEST DUP2 DUP2 MUL SWAP3 SWAP2 DUP2 ISZERO SWAP2 DUP5 DIV EQ OR ISZERO PUSH2 0x1873 JUMPI JUMP JUMPDEST MLOAD SWAP1 PUSH1 0xFF DUP3 AND DUP3 SUB PUSH2 0x39F JUMPI JUMP JUMPDEST PUSH1 0x0 SLOAD PUSH1 0x1 PUSH1 0x1 PUSH1 0xA0 SHL SUB AND CALLER SUB PUSH2 0x18DA JUMPI JUMP JUMPDEST PUSH1 0x40 MLOAD PUSH4 0x118CDAA7 PUSH1 0xE0 SHL DUP2 MSTORE CALLER PUSH1 0x4 DUP3 ADD MSTORE PUSH1 0x24 SWAP1 REVERT JUMPDEST PUSH2 0x2710 LT PUSH2 0x18FC JUMPI JUMP JUMPDEST PUSH1 0x40 MLOAD PUSH4 0xC6CC5D7F PUSH1 0xE0 SHL DUP2 MSTORE PUSH1 0x4 SWAP1 REVERT JUMPDEST PUSH2 0x2710 SWAP2 PUSH2 0x191B SWAP2 PUSH2 0x1898 JUMP JUMPDEST GT PUSH2 0x1922 JUMPI JUMP JUMPDEST PUSH1 0x40 MLOAD PUSH3 0xC9A16B PUSH1 0xE3 SHL DUP2 MSTORE PUSH1 0x4 SWAP1 REVERT JUMPDEST PUSH1 0xFF AND PUSH1 0x1 DUP2 EQ SWAP1 DUP2 ISZERO PUSH2 0x196E JUMPI JUMPDEST DUP2 ISZERO PUSH2 0x1963 JUMPI JUMPDEST POP ISZERO PUSH2 0x1951 JUMPI JUMP JUMPDEST PUSH1 0x40 MLOAD PUSH4 0xEB911D5 PUSH1 0xE0 SHL DUP2 MSTORE PUSH1 0x4 SWAP1 REVERT JUMPDEST PUSH1 0x3 SWAP2 POP EQ CODESIZE PUSH2 0x1949 JUMP JUMPDEST PUSH1 0x2 DUP2 EQ SWAP2 POP PUSH2 0x1942 JUMP JUMPDEST PUSH1 0xFF AND PUSH1 0x1 DUP2 EQ SWAP1 DUP2 ISZERO PUSH2 0x19B4 JUMPI JUMPDEST DUP2 ISZERO PUSH2 0x19A9 JUMPI JUMPDEST POP ISZERO PUSH2 0x1997 JUMPI JUMP JUMPDEST PUSH1 0x40 MLOAD PUSH4 0x2ABF7D0D PUSH1 0xE2 SHL DUP2 MSTORE PUSH1 0x4 SWAP1 REVERT JUMPDEST PUSH1 0x3 SWAP2 POP EQ CODESIZE PUSH2 0x198F JUMP JUMPDEST PUSH1 0x2 DUP2 EQ SWAP2 POP PUSH2 0x1988 JUMP JUMPDEST ISZERO DUP1 PUSH2 0x19DD JUMPI JUMPDEST PUSH2 0x62B JUMPI PUSH2 0x19D4 JUMPI PUSH2 0x703 JUMPI JUMP JUMPDEST PUSH1 0x1 GT PUSH2 0x703 JUMPI JUMP JUMPDEST POP DUP1 ISZERO PUSH2 0x19C6 JUMP JUMPDEST SWAP1 PUSH1 0xFF AND DUP1 PUSH2 0x19FE JUMPI POP PUSH1 0x8 SWAP2 POP ADD SLOAD DUP1 ISZERO PUSH2 0x62B JUMPI SWAP1 JUMP JUMPDEST PUSH1 0x1 SUB PUSH2 0x1A26 JUMPI PUSH1 0x9 ADD SLOAD SWAP1 DUP2 ISZERO PUSH2 0x62B JUMPI PUSH2 0xFFFF AND DUP1 ISZERO PUSH2 0x703 JUMPI PUSH2 0x1A23 SWAP2 PUSH2 0x18A5 JUMP JUMPDEST SWAP1 JUMP JUMPDEST PUSH1 0x40 MLOAD PUSH4 0x2B79ED3 PUSH1 0xE4 SHL DUP2 MSTORE PUSH1 0x4 SWAP1 REVERT JUMPDEST SWAP3 PUSH2 0x1A6D PUSH2 0x1A5F SWAP6 SWAP3 SWAP5 PUSH2 0x1A68 PUSH2 0x2710 DUP1 PUSH2 0x1A55 PUSH1 0x3 SLOAD DUP6 PUSH2 0x18A5 JUMP JUMPDEST DIV SWAP9 DUP10 SWAP9 DUP5 PUSH2 0x18A5 JUMP JUMPDEST DIV SWAP7 DUP8 SWAP3 PUSH2 0x1866 JUMP JUMPDEST PUSH2 0x1866 JUMP JUMPDEST SWAP3 DUP6 DUP1 ISZERO DUP1 ISZERO PUSH2 0x1AFF JUMPI JUMPDEST POP POP DUP5 DUP1 ISZERO DUP1 ISZERO PUSH2 0x1ACD JUMPI JUMPDEST POP POP POP DUP3 DUP1 ISZERO DUP1 ISZERO PUSH2 0x1A95 JUMPI POP POP POP JUMP JUMPDEST PUSH1 0x0 SWAP3 DUP4 SWAP3 DUP4 SWAP3 DUP4 SWAP3 DUP4 SWAP2 PUSH2 0x1AC3 JUMPI JUMPDEST PUSH1 0x1 PUSH1 0x1 PUSH1 0xA0 SHL SUB AND SWAP1 CALL ISZERO PUSH2 0x1AB7 JUMPI JUMP JUMPDEST PUSH1 0x40 MLOAD RETURNDATASIZE PUSH1 0x0 DUP3 RETURNDATACOPY RETURNDATASIZE SWAP1 REVERT JUMPDEST PUSH2 0x8FC SWAP2 POP PUSH2 0x1AA5 JUMP JUMPDEST PUSH1 0x0 SWAP3 DUP4 SWAP3 DUP4 SWAP3 DUP4 SWAP3 DUP4 SWAP2 PUSH2 0x1AF5 JUMPI JUMPDEST PUSH1 0x1 PUSH1 0x1 PUSH1 0xA0 SHL SUB AND SWAP1 CALL ISZERO PUSH2 0x1AB7 JUMPI CODESIZE DUP5 DUP2 PUSH2 0x1A84 JUMP JUMPDEST PUSH2 0x8FC SWAP2 POP PUSH2 0x1ADD JUMP JUMPDEST PUSH1 0x0 DUP1 DUP1 SWAP4 DUP2 SWAP4 PUSH1 0x1 DUP1 PUSH1 0xA0 SHL SUB PUSH1 0x4 SLOAD AND SWAP1 DUP4 SWAP1 PUSH2 0x1B26 JUMPI JUMPDEST CALL ISZERO PUSH2 0x1AB7 JUMPI DUP6 CODESIZE PUSH2 0x1A78 JUMP JUMPDEST POP PUSH2 0x8FC PUSH2 0x1B19 JUMP INVALID STOP LOG1 PUSH31 0x39748F90DCC231579B95804358753DC835ACD3F3972717EFC03A8B5511A264 PUSH10 0x706673582212204E9754 INVALID SLT LOG2 JUMP STATICCALL SUB RETURN 0xB3 0xC6 LOG2 0xE3 PUSH4 0x94A6D287 LOG2 LOG1 0xB4 CREATE2 SWAP13 SWAP1 0xDA LOG3 0xE3 0xE SIGNEXTEND 0x24 0xB3 PUSH5 0x736F6C6343 STOP ADDMOD XOR STOP CALLER PUSH1 0x80 CALLVALUE PUSH3 0x3D5 JUMPI PUSH1 0x1F SWAP1 PUSH1 0x1 PUSH1 0x1 PUSH1 0x40 SHL SUB SWAP1 PUSH1 0x1F NOT SWAP1 PUSH3 0x1824 CODESIZE DUP2 SWAP1 SUB DUP6 DUP2 ADD DUP5 AND DUP4 ADD DUP6 DUP2 GT DUP5 DUP3 LT OR PUSH3 0x3BF JUMPI DUP4 SWAP3 DUP3 SWAP2 PUSH1 0x40 MSTORE DUP4 CODECOPY PUSH1 0x20 SWAP3 DUP4 SWAP2 DUP2 ADD SUB SLT PUSH3 0x3D5 JUMPI MLOAD PUSH1 0x1 PUSH1 0x1 PUSH1 0xA0 SHL SUB SWAP5 DUP6 DUP3 AND SWAP5 SWAP2 DUP6 SWAP1 SUB PUSH3 0x3D5 JUMPI PUSH3 0x6A PUSH3 0x3DA JUMP JUMPDEST SWAP3 PUSH1 0x15 DUP5 MSTORE PUSH32 0x4D61726B6574706C6163654149204C6963656E73650000000000000000000000 DUP2 DUP6 ADD MSTORE PUSH3 0x9E PUSH3 0x3DA JUMP JUMPDEST SWAP1 PUSH1 0x7 DUP3 MSTORE PUSH7 0x4D5041494C4943 PUSH1 0xC8 SHL DUP2 DUP4 ADD MSTORE DUP5 MLOAD SWAP6 DUP5 DUP8 GT PUSH3 0x3BF JUMPI PUSH1 0x0 SWAP7 DUP8 SLOAD SWAP7 PUSH1 0x1 SWAP8 DUP9 DUP2 DUP2 SHR SWAP2 AND DUP1 ISZERO PUSH3 0x3B4 JUMPI JUMPDEST DUP6 DUP3 LT EQ PUSH3 0x3A0 JUMPI SWAP1 DUP2 DUP8 DUP5 SWAP4 GT PUSH3 0x34D JUMPI JUMPDEST POP DUP5 SWAP1 DUP8 DUP4 GT PUSH1 0x1 EQ PUSH3 0x2EC JUMPI DUP11 SWAP3 PUSH3 0x2E0 JUMPI JUMPDEST POP POP PUSH1 0x0 NOT PUSH1 0x3 DUP4 SWAP1 SHL SHR NOT AND SWAP1 DUP8 SHL OR DUP8 SSTORE JUMPDEST DUP3 MLOAD SWAP5 DUP6 GT PUSH3 0x2CC JUMPI DUP6 SLOAD DUP7 DUP2 DUP2 SHR SWAP2 AND DUP1 ISZERO PUSH3 0x2C1 JUMPI JUMPDEST DUP4 DUP3 LT EQ PUSH3 0x2AD JUMPI SWAP1 DUP2 DUP6 DUP8 SWAP7 SWAP6 SWAP5 SWAP4 GT PUSH3 0x254 JUMPI JUMPDEST POP DUP2 SWAP4 DUP6 GT PUSH1 0x1 EQ PUSH3 0x1EF JUMPI POP POP DUP6 SWAP3 PUSH3 0x1E3 JUMPI JUMPDEST POP POP PUSH1 0x0 NOT PUSH1 0x3 DUP4 SWAP1 SHL SHR NOT AND SWAP1 DUP3 SHL OR SWAP1 SSTORE JUMPDEST CALLER ISZERO PUSH3 0x1CB JUMPI PUSH1 0x6 SLOAD PUSH1 0x1 DUP1 PUSH1 0xA0 SHL SUB NOT SWAP2 CALLER DUP4 DUP4 AND OR PUSH1 0x6 SSTORE PUSH32 0x8BE0079C531659141344CD1FD0A4F28419497F9722A3DAAFE3B4186F6B6457E0 PUSH1 0x40 MLOAD SWAP6 CALLER SWAP4 AND SWAP2 DUP1 LOG3 PUSH1 0x7 SLOAD AND OR PUSH1 0x7 SSTORE PUSH2 0x1429 SWAP1 DUP2 PUSH3 0x3FB DUP3 CODECOPY RETURN JUMPDEST PUSH1 0x24 SWAP1 PUSH1 0x40 MLOAD SWAP1 PUSH4 0x1E4FBDF7 PUSH1 0xE0 SHL DUP3 MSTORE PUSH1 0x4 DUP3 ADD MSTORE REVERT JUMPDEST ADD MLOAD SWAP1 POP CODESIZE DUP1 PUSH3 0x15C JUMP JUMPDEST DUP7 SWAP6 SWAP4 SWAP3 SWAP2 SWAP4 AND DUP6 DUP9 MSTORE DUP4 DUP9 KECCAK256 SWAP4 DUP9 SWAP1 JUMPDEST DUP3 DUP3 LT PUSH3 0x23A JUMPI POP POP DUP5 GT PUSH3 0x220 JUMPI JUMPDEST POP POP POP DUP2 SHL ADD SWAP1 SSTORE PUSH3 0x170 JUMP JUMPDEST ADD MLOAD PUSH1 0x0 NOT PUSH1 0xF8 DUP5 PUSH1 0x3 SHL AND SHR NOT AND SWAP1 SSTORE CODESIZE DUP1 DUP1 PUSH3 0x212 JUMP JUMPDEST DUP5 DUP5 ADD MLOAD DUP7 SSTORE DUP9 SWAP8 SWAP1 SWAP6 ADD SWAP5 SWAP4 DUP5 ADD SWAP4 SWAP1 DUP2 ADD SWAP1 PUSH3 0x200 JUMP JUMPDEST SWAP1 SWAP2 SWAP3 SWAP4 SWAP5 POP DUP7 DUP9 MSTORE DUP3 DUP9 KECCAK256 DUP6 DUP1 DUP9 ADD PUSH1 0x5 SHR DUP3 ADD SWAP3 DUP6 DUP10 LT PUSH3 0x2A3 JUMPI JUMPDEST SWAP2 DUP9 SWAP8 DUP11 SWAP3 SWAP8 SWAP7 SWAP6 SWAP5 SWAP4 ADD PUSH1 0x5 SHR ADD SWAP2 JUMPDEST DUP3 DUP2 LT PUSH3 0x294 JUMPI POP POP PUSH3 0x145 JUMP JUMPDEST DUP11 DUP2 SSTORE DUP9 SWAP8 POP DUP10 SWAP2 ADD PUSH3 0x284 JUMP JUMPDEST SWAP3 POP DUP2 SWAP3 PUSH3 0x273 JUMP JUMPDEST PUSH4 0x4E487B71 PUSH1 0xE0 SHL DUP9 MSTORE PUSH1 0x22 PUSH1 0x4 MSTORE PUSH1 0x24 DUP9 REVERT JUMPDEST SWAP1 PUSH1 0x7F AND SWAP1 PUSH3 0x12D JUMP JUMPDEST PUSH4 0x4E487B71 PUSH1 0xE0 SHL DUP8 MSTORE PUSH1 0x41 PUSH1 0x4 MSTORE PUSH1 0x24 DUP8 REVERT JUMPDEST ADD MLOAD SWAP1 POP CODESIZE DUP1 PUSH3 0xFF JUMP JUMPDEST SWAP1 DUP5 DUP11 SWAP5 AND SWAP2 DUP12 DUP1 MSTORE DUP7 DUP13 KECCAK256 SWAP3 DUP13 JUMPDEST DUP9 DUP3 DUP3 LT PUSH3 0x336 JUMPI POP POP DUP5 GT PUSH3 0x31C JUMPI JUMPDEST POP POP POP DUP2 SHL ADD DUP8 SSTORE PUSH3 0x113 JUMP JUMPDEST ADD MLOAD PUSH1 0x0 NOT PUSH1 0xF8 DUP5 PUSH1 0x3 SHL AND SHR NOT AND SWAP1 SSTORE CODESIZE DUP1 DUP1 PUSH3 0x30E JUMP JUMPDEST DUP4 DUP6 ADD MLOAD DUP7 SSTORE DUP14 SWAP8 SWAP1 SWAP6 ADD SWAP5 SWAP4 DUP5 ADD SWAP4 ADD PUSH3 0x2FB JUMP JUMPDEST SWAP1 SWAP2 POP DUP10 DUP1 MSTORE DUP5 DUP11 KECCAK256 DUP8 DUP1 DUP6 ADD PUSH1 0x5 SHR DUP3 ADD SWAP3 DUP8 DUP7 LT PUSH3 0x396 JUMPI JUMPDEST SWAP2 DUP12 SWAP2 DUP7 SWAP6 SWAP5 SWAP4 ADD PUSH1 0x5 SHR ADD SWAP2 JUMPDEST DUP3 DUP2 LT PUSH3 0x387 JUMPI POP POP PUSH3 0xE9 JUMP JUMPDEST DUP13 DUP2 SSTORE DUP6 SWAP5 POP DUP12 SWAP2 ADD PUSH3 0x377 JUMP JUMPDEST SWAP3 POP DUP2 SWAP3 PUSH3 0x369 JUMP JUMPDEST PUSH4 0x4E487B71 PUSH1 0xE0 SHL DUP11 MSTORE PUSH1 0x22 PUSH1 0x4 MSTORE PUSH1 0x24 DUP11 REVERT JUMPDEST SWAP1 PUSH1 0x7F AND SWAP1 PUSH3 0xD4 JUMP JUMPDEST PUSH4 0x4E487B71 PUSH1 0xE0 SHL PUSH1 0x0 MSTORE PUSH1 0x41 PUSH1 0x4 MSTORE PUSH1 0x24 PUSH1 0x0 REVERT JUMPDEST PUSH1 0x0 DUP1 REVERT JUMPDEST PUSH1 0x40 DUP1 MLOAD SWAP2 SWAP1 DUP3 ADD PUSH1 0x1 PUSH1 0x1 PUSH1 0x40 SHL SUB DUP2 GT DUP4 DUP3 LT OR PUSH3 0x3BF JUMPI PUSH1 0x40 MSTORE JUMP INVALID PUSH1 0x80 DUP1 PUSH1 0x40 MSTORE PUSH1 0x4 CALLDATASIZE LT ISZERO PUSH2 0x13 JUMPI PUSH1 0x0 DUP1 REVERT JUMPDEST PUSH1 0x0 CALLDATALOAD PUSH1 0xE0 SHR SWAP1 DUP2 PUSH4 0x1FFC9A7 EQ PUSH2 0xE59 JUMPI POP DUP1 PUSH4 0x6FDDE03 EQ PUSH2 0xD98 JUMPI DUP1 PUSH4 0x81812FC EQ PUSH2 0xD5A JUMPI DUP1 PUSH4 0x95EA7B3 EQ PUSH2 0xC73 JUMPI DUP1 PUSH4 0x18160DDD EQ PUSH2 0xC55 JUMPI DUP1 PUSH4 0x23B872DD EQ PUSH2 0xC3E JUMPI DUP1 PUSH4 0x42842E0E EQ PUSH2 0xC10 JUMPI DUP1 PUSH4 0x6352211E EQ PUSH2 0xBE0 JUMPI DUP1 PUSH4 0x70A08231 EQ PUSH2 0xB87 JUMPI DUP1 PUSH4 0x715018A6 EQ PUSH2 0xB2A JUMPI DUP1 PUSH4 0x73AD6C2D EQ PUSH2 0xAE7 JUMPI DUP1 PUSH4 0x849B1B7E EQ PUSH2 0x699 JUMPI DUP1 PUSH4 0x8DA5CB5B EQ PUSH2 0x670 JUMPI DUP1 PUSH4 0x95D89B41 EQ PUSH2 0x55F JUMPI DUP1 PUSH4 0xA22CB465 EQ PUSH2 0x4BA JUMPI DUP1 PUSH4 0xABC8C7AF EQ PUSH2 0x491 JUMPI DUP1 PUSH4 0xB2DD1212 EQ PUSH2 0x375 JUMPI DUP1 PUSH4 0xB88D4FDE EQ PUSH2 0x2E0 JUMPI DUP1 PUSH4 0xC87B56DD EQ PUSH2 0x289 JUMPI DUP1 PUSH4 0xE985E9C5 EQ PUSH2 0x233 JUMPI DUP1 PUSH4 0xF2FDE38B EQ PUSH2 0x1AA JUMPI PUSH4 0xFE5EB754 EQ PUSH2 0x111 JUMPI PUSH1 0x0 DUP1 REVERT JUMPDEST CALLVALUE PUSH2 0x1A5 JUMPI PUSH1 0x40 CALLDATASIZE PUSH1 0x3 NOT ADD SLT PUSH2 0x1A5 JUMPI PUSH1 0x4 CALLDATALOAD PUSH1 0x24 CALLDATALOAD PUSH8 0xFFFFFFFFFFFFFFFF DUP2 AND DUP2 SUB PUSH2 0x1A5 JUMPI PUSH2 0x1A3 SWAP2 PUSH2 0x16D PUSH1 0x1 DUP1 PUSH1 0xA0 SHL SUB PUSH2 0x156 DUP2 PUSH1 0x7 SLOAD AND CALLER EQ PUSH2 0x11DE JUMP JUMPDEST DUP3 PUSH1 0x0 MSTORE PUSH1 0x2 PUSH1 0x20 MSTORE PUSH1 0x40 PUSH1 0x0 KECCAK256 SLOAD AND ISZERO ISZERO PUSH2 0x121D JUMP JUMPDEST PUSH1 0x0 MSTORE PUSH1 0x9 PUSH1 0x20 MSTORE PUSH1 0x1 PUSH1 0x40 PUSH1 0x0 KECCAK256 ADD SWAP1 PUSH10 0xFFFFFFFFFFFFFFFF0000 DUP3 SLOAD SWAP2 PUSH1 0x10 SHL AND SWAP1 PUSH10 0xFFFFFFFFFFFFFFFF0000 NOT AND OR SWAP1 SSTORE JUMP JUMPDEST STOP JUMPDEST PUSH1 0x0 DUP1 REVERT JUMPDEST CALLVALUE PUSH2 0x1A5 JUMPI PUSH1 0x20 CALLDATASIZE PUSH1 0x3 NOT ADD SLT PUSH2 0x1A5 JUMPI PUSH2 0x1C3 PUSH2 0xF04 JUMP JUMPDEST PUSH2 0x1CB PUSH2 0x1291 JUMP JUMPDEST PUSH1 0x1 PUSH1 0x1 PUSH1 0xA0 SHL SUB SWAP1 DUP2 AND SWAP1 DUP2 ISZERO PUSH2 0x21A JUMPI PUSH1 0x6 SLOAD DUP3 PUSH1 0x1 PUSH1 0x1 PUSH1 0x60 SHL SUB PUSH1 0xA0 SHL DUP3 AND OR PUSH1 0x6 SSTORE AND PUSH32 0x8BE0079C531659141344CD1FD0A4F28419497F9722A3DAAFE3B4186F6B6457E0 PUSH1 0x0 DUP1 LOG3 STOP JUMPDEST PUSH1 0x40 MLOAD PUSH4 0x1E4FBDF7 PUSH1 0xE0 SHL DUP2 MSTORE PUSH1 0x0 PUSH1 0x4 DUP3 ADD MSTORE PUSH1 0x24 SWAP1 REVERT JUMPDEST CALLVALUE PUSH2 0x1A5 JUMPI PUSH1 0x40 CALLDATASIZE PUSH1 0x3 NOT ADD SLT PUSH2 0x1A5 JUMPI PUSH2 0x24C PUSH2 0xF04 JUMP JUMPDEST PUSH2 0x254 PUSH2 0xF1A JUMP JUMPDEST SWAP1 PUSH1 0x1 DUP1 PUSH1 0xA0 SHL SUB DUP1 SWAP2 AND PUSH1 0x0 MSTORE PUSH1 0x5 PUSH1 0x20 MSTORE PUSH1 0x40 PUSH1 0x0 KECCAK256 SWAP2 AND PUSH1 0x0 MSTORE PUSH1 0x20 MSTORE PUSH1 0x20 PUSH1 0xFF PUSH1 0x40 PUSH1 0x0 KECCAK256 SLOAD AND PUSH1 0x40 MLOAD SWAP1 ISZERO ISZERO DUP2 MSTORE RETURN JUMPDEST CALLVALUE PUSH2 0x1A5 JUMPI PUSH1 0x20 CALLDATASIZE PUSH1 0x3 NOT ADD SLT PUSH2 0x1A5 JUMPI PUSH2 0x2A5 PUSH1 0x4 CALLDATALOAD PUSH2 0x1256 JUMP JUMPDEST POP PUSH1 0x0 PUSH1 0x40 MLOAD PUSH2 0x2B4 DUP2 PUSH2 0xF97 JUMP JUMPDEST MSTORE PUSH2 0x2DC PUSH1 0x40 MLOAD PUSH2 0x2C4 DUP2 PUSH2 0xF97 JUMP JUMPDEST PUSH1 0x0 DUP2 MSTORE PUSH1 0x40 MLOAD SWAP2 DUP3 SWAP2 PUSH1 0x20 DUP4 MSTORE PUSH1 0x20 DUP4 ADD SWAP1 PUSH2 0xEC4 JUMP JUMPDEST SUB SWAP1 RETURN JUMPDEST CALLVALUE PUSH2 0x1A5 JUMPI PUSH1 0x80 CALLDATASIZE PUSH1 0x3 NOT ADD SLT PUSH2 0x1A5 JUMPI PUSH2 0x2F9 PUSH2 0xF04 JUMP JUMPDEST PUSH2 0x301 PUSH2 0xF1A JUMP JUMPDEST SWAP1 PUSH1 0x44 CALLDATALOAD PUSH1 0x64 CALLDATALOAD SWAP3 PUSH8 0xFFFFFFFFFFFFFFFF DUP5 GT PUSH2 0x1A5 JUMPI CALLDATASIZE PUSH1 0x23 DUP6 ADD SLT ISZERO PUSH2 0x1A5 JUMPI DUP4 PUSH1 0x4 ADD CALLDATALOAD SWAP3 PUSH2 0x332 DUP5 PUSH2 0xFD5 JUMP JUMPDEST SWAP4 PUSH2 0x340 PUSH1 0x40 MLOAD SWAP6 DUP7 PUSH2 0xFB3 JUMP JUMPDEST DUP1 DUP6 MSTORE CALLDATASIZE PUSH1 0x24 DUP3 DUP9 ADD ADD GT PUSH2 0x1A5 JUMPI PUSH1 0x20 DUP2 PUSH1 0x0 SWAP3 PUSH1 0x24 PUSH2 0x1A3 SWAP10 ADD DUP4 DUP10 ADD CALLDATACOPY DUP7 ADD ADD MSTORE PUSH2 0x36F DUP4 DUP4 DUP4 PUSH2 0xFF1 JUMP JUMPDEST CALLER PUSH2 0x12BD JUMP JUMPDEST CALLVALUE PUSH2 0x1A5 JUMPI PUSH1 0x20 DUP1 PUSH1 0x3 NOT CALLDATASIZE ADD SLT PUSH2 0x1A5 JUMPI PUSH1 0xE0 SWAP1 PUSH1 0x4 CALLDATALOAD PUSH1 0x0 PUSH1 0xC0 PUSH1 0x40 MLOAD PUSH2 0x39D DUP2 PUSH2 0xF65 JUMP JUMPDEST DUP3 DUP2 MSTORE DUP3 DUP6 DUP3 ADD MSTORE DUP3 PUSH1 0x40 DUP3 ADD MSTORE DUP3 PUSH1 0x60 DUP3 ADD MSTORE DUP3 PUSH1 0x80 DUP3 ADD MSTORE DUP3 PUSH1 0xA0 DUP3 ADD MSTORE ADD MSTORE DUP1 PUSH1 0x0 MSTORE PUSH1 0x2 DUP3 MSTORE PUSH2 0x3DF PUSH1 0x1 DUP1 PUSH1 0xA0 SHL SUB PUSH1 0x40 PUSH1 0x0 KECCAK256 SLOAD AND ISZERO ISZERO PUSH2 0x121D JUMP JUMPDEST PUSH1 0x0 MSTORE PUSH1 0x9 DUP2 MSTORE PUSH1 0x3 PUSH1 0x40 PUSH1 0x0 KECCAK256 PUSH1 0x40 MLOAD SWAP1 PUSH2 0x3FA DUP3 PUSH2 0xF65 JUMP JUMPDEST DUP1 SLOAD SWAP4 DUP5 DUP4 MSTORE PUSH1 0x1 DUP3 ADD SLOAD SWAP1 DUP1 DUP5 ADD PUSH1 0xFF DUP4 AND DUP2 MSTORE PUSH1 0xFF PUSH1 0x40 DUP7 ADD DUP2 DUP6 PUSH1 0x8 SHR AND DUP2 MSTORE PUSH8 0xFFFFFFFFFFFFFFFF SWAP4 DUP3 PUSH1 0x60 DUP10 ADD SWAP5 DUP7 DUP9 PUSH1 0x10 SHR AND DUP7 MSTORE DUP2 PUSH1 0x80 DUP12 ADD SWAP9 PUSH1 0x50 SHR AND ISZERO ISZERO DUP9 MSTORE PUSH1 0xC0 PUSH1 0x2 DUP11 ADD SLOAD SWAP10 PUSH1 0xA0 DUP13 ADD SWAP11 DUP12 MSTORE PUSH2 0xFFFF SWAP13 DUP14 SWAP2 ADD SLOAD AND SWAP11 ADD SWAP10 DUP11 MSTORE PUSH1 0x40 MLOAD SWAP12 DUP13 MSTORE MLOAD AND SWAP1 DUP11 ADD MSTORE MLOAD AND PUSH1 0x40 DUP9 ADD MSTORE MLOAD AND PUSH1 0x60 DUP7 ADD MSTORE MLOAD ISZERO ISZERO PUSH1 0x80 DUP6 ADD MSTORE MLOAD PUSH1 0xA0 DUP5 ADD MSTORE MLOAD AND PUSH1 0xC0 DUP3 ADD MSTORE RETURN JUMPDEST CALLVALUE PUSH2 0x1A5 JUMPI PUSH1 0x0 CALLDATASIZE PUSH1 0x3 NOT ADD SLT PUSH2 0x1A5 JUMPI PUSH1 0x7 SLOAD PUSH1 0x40 MLOAD PUSH1 0x1 PUSH1 0x1 PUSH1 0xA0 SHL SUB SWAP1 SWAP2 AND DUP2 MSTORE PUSH1 0x20 SWAP1 RETURN JUMPDEST CALLVALUE PUSH2 0x1A5 JUMPI PUSH1 0x40 CALLDATASIZE PUSH1 0x3 NOT ADD SLT PUSH2 0x1A5 JUMPI PUSH2 0x4D3 PUSH2 0xF04 JUMP JUMPDEST PUSH1 0x24 CALLDATALOAD SWAP1 DUP2 ISZERO ISZERO DUP1 SWAP3 SUB PUSH2 0x1A5 JUMPI PUSH1 0x1 PUSH1 0x1 PUSH1 0xA0 SHL SUB AND SWAP1 DUP2 ISZERO PUSH2 0x546 JUMPI CALLER PUSH1 0x0 MSTORE PUSH1 0x5 PUSH1 0x20 MSTORE PUSH1 0x40 PUSH1 0x0 KECCAK256 DUP3 PUSH1 0x0 MSTORE PUSH1 0x20 MSTORE PUSH1 0x40 PUSH1 0x0 KECCAK256 PUSH1 0xFF NOT DUP2 SLOAD AND PUSH1 0xFF DUP4 AND OR SWAP1 SSTORE PUSH1 0x40 MLOAD SWAP1 DUP2 MSTORE PUSH32 0x17307EAB39AB6107E8899845AD3D59BD9653F200F220920489CA2B5937696C31 PUSH1 0x20 CALLER SWAP3 LOG3 STOP JUMPDEST PUSH1 0x40 MLOAD PUSH4 0xB611743 PUSH1 0xE3 SHL DUP2 MSTORE PUSH1 0x4 DUP2 ADD DUP4 SWAP1 MSTORE PUSH1 0x24 SWAP1 REVERT JUMPDEST CALLVALUE PUSH2 0x1A5 JUMPI PUSH1 0x0 CALLDATASIZE PUSH1 0x3 NOT ADD SLT PUSH2 0x1A5 JUMPI PUSH1 0x40 MLOAD PUSH1 0x0 PUSH1 0x1 SWAP1 PUSH1 0x1 SLOAD SWAP2 DUP3 PUSH1 0x1 SHR SWAP2 PUSH1 0x1 DUP5 AND SWAP2 DUP3 ISZERO PUSH2 0x666 JUMPI JUMPDEST PUSH1 0x20 SWAP5 DUP6 DUP6 LT DUP5 EQ PUSH2 0x650 JUMPI DUP6 DUP8 SWAP5 DUP7 DUP7 MSTORE SWAP2 DUP3 PUSH1 0x0 EQ PUSH2 0x630 JUMPI POP POP PUSH1 0x1 EQ PUSH2 0x5D3 JUMPI JUMPDEST POP PUSH2 0x5BF SWAP3 POP SUB DUP4 PUSH2 0xFB3 JUMP JUMPDEST PUSH2 0x2DC PUSH1 0x40 MLOAD SWAP3 DUP3 DUP5 SWAP4 DUP5 MSTORE DUP4 ADD SWAP1 PUSH2 0xEC4 JUMP JUMPDEST DUP5 SWAP2 POP PUSH1 0x1 PUSH1 0x0 MSTORE PUSH32 0xB10E2D527612073B26EECDFD717E6A320CF44B4AFAC2B0732D9FCBE2B7FA0CF6 SWAP1 PUSH1 0x0 SWAP2 JUMPDEST DUP6 DUP4 LT PUSH2 0x618 JUMPI POP POP PUSH2 0x5BF SWAP4 POP DUP3 ADD ADD DUP6 PUSH2 0x5B2 JUMP JUMPDEST DUP1 SLOAD DUP4 DUP10 ADD DUP6 ADD MSTORE DUP8 SWAP5 POP DUP7 SWAP4 SWAP1 SWAP3 ADD SWAP2 DUP2 ADD PUSH2 0x601 JUMP JUMPDEST PUSH1 0xFF NOT AND DUP6 DUP3 ADD MSTORE PUSH2 0x5BF SWAP6 ISZERO ISZERO PUSH1 0x5 SHL DUP6 ADD ADD SWAP3 POP DUP8 SWAP2 POP PUSH2 0x5B2 SWAP1 POP JUMP JUMPDEST PUSH4 0x4E487B71 PUSH1 0xE0 SHL PUSH1 0x0 MSTORE PUSH1 0x22 PUSH1 0x4 MSTORE PUSH1 0x24 PUSH1 0x0 REVERT JUMPDEST SWAP3 PUSH1 0x7F AND SWAP3 PUSH2 0x58D JUMP JUMPDEST CALLVALUE PUSH2 0x1A5 JUMPI PUSH1 0x0 CALLDATASIZE PUSH1 0x3 NOT ADD SLT PUSH2 0x1A5 JUMPI PUSH1 0x6 SLOAD PUSH1 0x40 MLOAD PUSH1 0x1 PUSH1 0x1 PUSH1 0xA0 SHL SUB SWAP1 SWAP2 AND DUP2 MSTORE PUSH1 0x20 SWAP1 RETURN JUMPDEST CALLVALUE PUSH2 0x1A5 JUMPI PUSH2 0x100 CALLDATASIZE PUSH1 0x3 NOT ADD SLT PUSH2 0x1A5 JUMPI PUSH2 0x6B3 PUSH2 0xF04 JUMP JUMPDEST PUSH1 0xE0 CALLDATASIZE PUSH1 0x23 NOT ADD SLT PUSH2 0x1A5 JUMPI PUSH1 0x40 MLOAD SWAP1 PUSH2 0x6CC DUP3 PUSH2 0xF65 JUMP JUMPDEST PUSH1 0x24 CALLDATALOAD DUP3 MSTORE PUSH1 0x44 CALLDATALOAD PUSH1 0xFF DUP2 AND DUP2 SUB PUSH2 0x1A5 JUMPI PUSH1 0x20 DUP4 ADD MSTORE PUSH1 0x64 CALLDATALOAD PUSH1 0xFF DUP2 AND DUP2 SUB PUSH2 0x1A5 JUMPI PUSH1 0x40 DUP4 ADD MSTORE PUSH1 0x84 CALLDATALOAD PUSH8 0xFFFFFFFFFFFFFFFF DUP2 AND DUP2 SUB PUSH2 0x1A5 JUMPI PUSH1 0x60 DUP4 ADD MSTORE PUSH1 0xA4 CALLDATALOAD DUP1 ISZERO ISZERO DUP2 SUB PUSH2 0x1A5 JUMPI PUSH1 0x80 DUP4 ADD MSTORE PUSH1 0xC4 CALLDATALOAD PUSH1 0xA0 DUP4 ADD MSTORE PUSH1 0xE4 CALLDATALOAD PUSH2 0xFFFF DUP2 AND DUP2 SUB PUSH2 0x1A5 JUMPI PUSH1 0xC0 DUP4 ADD MSTORE PUSH2 0x74F PUSH1 0x1 DUP1 PUSH1 0xA0 SHL SUB PUSH1 0x7 SLOAD AND CALLER EQ PUSH2 0x11DE JUMP JUMPDEST PUSH1 0x8 SLOAD SWAP2 PUSH1 0x0 NOT DUP4 EQ PUSH2 0xAD1 JUMPI PUSH1 0x1 DUP4 ADD PUSH1 0x8 SSTORE PUSH1 0x1 DUP4 ADD PUSH1 0x0 MSTORE PUSH1 0x9 PUSH1 0x20 MSTORE PUSH1 0x40 PUSH1 0x0 KECCAK256 DUP2 MLOAD DUP2 SSTORE PUSH2 0xFFFF PUSH1 0xC0 PUSH1 0x3 PUSH1 0x1 DUP5 ADD SWAP4 PUSH1 0xFF PUSH1 0x20 DUP8 ADD MLOAD AND SWAP5 DUP1 SLOAD SWAP6 PUSH2 0xFF00 PUSH1 0x40 DUP10 ADD MLOAD PUSH1 0x8 SHL AND SWAP1 DUP7 NOT DUP1 SWAP9 AND OR OR DUP2 SSTORE PUSH2 0x7DF PUSH8 0xFFFFFFFFFFFFFFFF PUSH1 0x60 DUP10 ADD MLOAD AND DUP3 SWAP1 PUSH10 0xFFFFFFFFFFFFFFFF0000 DUP3 SLOAD SWAP2 PUSH1 0x10 SHL AND SWAP1 PUSH10 0xFFFFFFFFFFFFFFFF0000 NOT AND OR SWAP1 SSTORE JUMP JUMPDEST PUSH1 0x80 DUP8 ADD MLOAD ISZERO ISZERO DUP2 SLOAD SWAP1 PUSH1 0xFF PUSH1 0x50 SHL SWAP1 PUSH1 0x50 SHL AND SWAP1 PUSH1 0xFF PUSH1 0x50 SHL NOT AND OR SWAP1 SSTORE PUSH1 0xA0 DUP7 ADD MLOAD PUSH1 0x2 DUP3 ADD SSTORE ADD SWAP4 ADD MLOAD AND SWAP1 DUP3 SLOAD AND OR SWAP1 SSTORE PUSH1 0x40 MLOAD PUSH2 0x820 DUP2 PUSH2 0xF97 JUMP JUMPDEST PUSH1 0x0 DUP2 MSTORE PUSH1 0x1 PUSH1 0x1 PUSH1 0xA0 SHL SUB DUP3 AND SWAP2 DUP3 ISZERO PUSH2 0xAB8 JUMPI PUSH1 0x1 DUP5 ADD PUSH1 0x0 SWAP1 DUP2 MSTORE PUSH1 0x2 PUSH1 0x20 MSTORE PUSH1 0x40 SWAP1 KECCAK256 SLOAD PUSH1 0x1 PUSH1 0x1 PUSH1 0xA0 SHL SUB AND DUP1 ISZERO ISZERO SWAP1 DUP2 PUSH2 0xA77 JUMPI JUMPDEST DUP5 PUSH1 0x0 MSTORE PUSH1 0x3 PUSH1 0x20 MSTORE PUSH1 0x40 PUSH1 0x0 KECCAK256 PUSH1 0x1 DUP2 SLOAD ADD SWAP1 SSTORE PUSH1 0x1 DUP7 ADD PUSH1 0x0 MSTORE PUSH1 0x2 PUSH1 0x20 MSTORE PUSH1 0x40 PUSH1 0x0 KECCAK256 DUP6 PUSH1 0x1 PUSH1 0x1 PUSH1 0x60 SHL SUB PUSH1 0xA0 SHL DUP3 SLOAD AND OR SWAP1 SSTORE PUSH1 0x40 MLOAD SWAP1 DUP6 PUSH1 0x1 DUP9 ADD SWAP2 PUSH32 0xDDF252AD1BE2C89B69C2B068FC378DAA952BA7F163C4A11628F55A4DF523B3EF PUSH1 0x0 DUP1 LOG4 DUP2 DUP1 PUSH2 0xA6F JUMPI JUMPDEST PUSH2 0xA22 JUMPI JUMPDEST POP PUSH2 0xA09 JUMPI EXTCODESIZE PUSH2 0x8E7 JUMPI JUMPDEST PUSH1 0x20 DUP4 PUSH1 0x1 PUSH1 0x40 MLOAD SWAP2 ADD DUP2 MSTORE RETURN JUMPDEST PUSH1 0x40 MLOAD PUSH1 0x20 DUP2 DUP1 PUSH2 0x924 PUSH4 0xA85BD01 PUSH1 0xE1 SHL SWAP6 DUP7 DUP4 MSTORE CALLER PUSH1 0x4 DUP5 ADD MSTORE PUSH1 0x0 PUSH1 0x24 DUP5 ADD MSTORE PUSH1 0x1 DUP10 ADD PUSH1 0x44 DUP5 ADD MSTORE PUSH1 0x80 PUSH1 0x64 DUP5 ADD MSTORE PUSH1 0x84 DUP4 ADD SWAP1 PUSH2 0xEC4 JUMP JUMPDEST SUB DUP2 PUSH1 0x0 DUP8 GAS CALL PUSH1 0x0 SWAP2 DUP2 PUSH2 0x9C4 JUMPI JUMPDEST POP PUSH2 0x994 JUMPI DUP3 RETURNDATASIZE ISZERO PUSH2 0x98C JUMPI RETURNDATASIZE SWAP1 PUSH2 0x94B DUP3 PUSH2 0xFD5 JUMP JUMPDEST SWAP2 PUSH2 0x959 PUSH1 0x40 MLOAD SWAP4 DUP5 PUSH2 0xFB3 JUMP JUMPDEST DUP3 MSTORE RETURNDATASIZE PUSH1 0x0 PUSH1 0x20 DUP5 ADD RETURNDATACOPY JUMPDEST DUP2 MLOAD SWAP2 DUP3 PUSH2 0x985 JUMPI PUSH1 0x40 MLOAD PUSH4 0x32505749 PUSH1 0xE1 SHL DUP2 MSTORE PUSH1 0x4 DUP2 ADD DUP4 SWAP1 MSTORE PUSH1 0x24 SWAP1 REVERT JUMPDEST PUSH1 0x20 SWAP2 POP ADD REVERT JUMPDEST PUSH1 0x60 SWAP1 PUSH2 0x964 JUMP JUMPDEST PUSH1 0x1 PUSH1 0x1 PUSH1 0xE0 SHL SUB NOT AND SUB PUSH2 0x9AC JUMPI POP PUSH1 0x20 DUP3 PUSH2 0x8D9 JUMP JUMPDEST PUSH1 0x24 SWAP1 PUSH1 0x40 MLOAD SWAP1 PUSH4 0x32505749 PUSH1 0xE1 SHL DUP3 MSTORE PUSH1 0x4 DUP3 ADD MSTORE REVERT JUMPDEST SWAP1 SWAP2 POP PUSH1 0x20 DUP2 RETURNDATASIZE PUSH1 0x20 GT PUSH2 0xA01 JUMPI JUMPDEST DUP2 PUSH2 0x9E0 PUSH1 0x20 SWAP4 DUP4 PUSH2 0xFB3 JUMP JUMPDEST DUP2 ADD SUB SLT PUSH2 0x1A5 JUMPI MLOAD PUSH1 0x1 PUSH1 0x1 PUSH1 0xE0 SHL SUB NOT DUP2 AND DUP2 SUB PUSH2 0x1A5 JUMPI SWAP1 DUP6 PUSH2 0x934 JUMP JUMPDEST RETURNDATASIZE SWAP2 POP PUSH2 0x9D3 JUMP JUMPDEST PUSH1 0x40 MLOAD PUSH4 0x39E35637 PUSH1 0xE1 SHL DUP2 MSTORE PUSH1 0x0 PUSH1 0x4 DUP3 ADD MSTORE PUSH1 0x24 SWAP1 REVERT JUMPDEST PUSH1 0x9 PUSH1 0x20 MSTORE PUSH1 0xFF PUSH1 0x1 PUSH1 0x40 PUSH1 0x0 KECCAK256 ADD SLOAD PUSH1 0x50 SHR AND PUSH2 0x8CE JUMPI PUSH3 0x461BCD PUSH1 0xE5 SHL DUP2 MSTORE PUSH1 0x20 PUSH1 0x4 DUP3 ADD MSTORE PUSH1 0x10 PUSH1 0x24 DUP3 ADD MSTORE PUSH16 0x6E6F74207472616E7366657261626C65 PUSH1 0x80 SHL PUSH1 0x44 DUP3 ADD MSTORE PUSH1 0x64 SWAP1 REVERT JUMPDEST POP PUSH1 0x1 PUSH2 0x8C9 JUMP JUMPDEST PUSH2 0xA9D PUSH1 0x1 DUP8 ADD PUSH1 0x0 MSTORE PUSH1 0x4 PUSH1 0x20 MSTORE PUSH1 0x40 PUSH1 0x0 KECCAK256 PUSH1 0x1 PUSH1 0x1 PUSH1 0x60 SHL SUB PUSH1 0xA0 SHL DUP2 SLOAD AND SWAP1 SSTORE JUMP JUMPDEST DUP1 PUSH1 0x0 MSTORE PUSH1 0x3 PUSH1 0x20 MSTORE PUSH1 0x40 PUSH1 0x0 KECCAK256 PUSH1 0x0 NOT DUP2 SLOAD ADD SWAP1 SSTORE PUSH2 0x85B JUMP JUMPDEST PUSH1 0x40 MLOAD PUSH4 0x32505749 PUSH1 0xE1 SHL DUP2 MSTORE PUSH1 0x0 PUSH1 0x4 DUP3 ADD MSTORE PUSH1 0x24 SWAP1 REVERT JUMPDEST PUSH4 0x4E487B71 PUSH1 0xE0 SHL PUSH1 0x0 MSTORE PUSH1 0x11 PUSH1 0x4 MSTORE PUSH1 0x24 PUSH1 0x0 REVERT JUMPDEST CALLVALUE PUSH2 0x1A5 JUMPI PUSH1 0x20 CALLDATASIZE PUSH1 0x3 NOT ADD SLT PUSH2 0x1A5 JUMPI PUSH2 0xB00 PUSH2 0xF04 JUMP JUMPDEST PUSH2 0xB08 PUSH2 0x1291 JUMP JUMPDEST PUSH1 0x7 DUP1 SLOAD PUSH1 0x1 PUSH1 0x1 PUSH1 0xA0 SHL SUB NOT AND PUSH1 0x1 PUSH1 0x1 PUSH1 0xA0 SHL SUB SWAP3 SWAP1 SWAP3 AND SWAP2 SWAP1 SWAP2 OR SWAP1 SSTORE STOP JUMPDEST CALLVALUE PUSH2 0x1A5 JUMPI PUSH1 0x0 CALLDATASIZE PUSH1 0x3 NOT ADD SLT PUSH2 0x1A5 JUMPI PUSH2 0xB43 PUSH2 0x1291 JUMP JUMPDEST PUSH1 0x6 DUP1 SLOAD PUSH1 0x1 PUSH1 0x1 PUSH1 0xA0 SHL SUB NOT DUP2 AND SWAP1 SWAP2 SSTORE PUSH1 0x0 SWAP1 PUSH1 0x1 PUSH1 0x1 PUSH1 0xA0 SHL SUB AND PUSH32 0x8BE0079C531659141344CD1FD0A4F28419497F9722A3DAAFE3B4186F6B6457E0 DUP3 DUP1 LOG3 STOP JUMPDEST CALLVALUE PUSH2 0x1A5 JUMPI PUSH1 0x20 CALLDATASIZE PUSH1 0x3 NOT ADD SLT PUSH2 0x1A5 JUMPI PUSH1 0x1 PUSH1 0x1 PUSH1 0xA0 SHL SUB PUSH2 0xBA8 PUSH2 0xF04 JUMP JUMPDEST AND DUP1 ISZERO PUSH2 0xBC7 JUMPI PUSH1 0x0 MSTORE PUSH1 0x3 PUSH1 0x20 MSTORE PUSH1 0x20 PUSH1 0x40 PUSH1 0x0 KECCAK256 SLOAD PUSH1 0x40 MLOAD SWAP1 DUP2 MSTORE RETURN JUMPDEST PUSH1 0x40 MLOAD PUSH4 0x22718AD9 PUSH1 0xE2 SHL DUP2 MSTORE PUSH1 0x0 PUSH1 0x4 DUP3 ADD MSTORE PUSH1 0x24 SWAP1 REVERT JUMPDEST CALLVALUE PUSH2 0x1A5 JUMPI PUSH1 0x20 CALLDATASIZE PUSH1 0x3 NOT ADD SLT PUSH2 0x1A5 JUMPI PUSH1 0x20 PUSH2 0xBFE PUSH1 0x4 CALLDATALOAD PUSH2 0x1256 JUMP JUMPDEST PUSH1 0x40 MLOAD PUSH1 0x1 PUSH1 0x1 PUSH1 0xA0 SHL SUB SWAP1 SWAP2 AND DUP2 MSTORE RETURN JUMPDEST CALLVALUE PUSH2 0x1A5 JUMPI PUSH2 0x1A3 PUSH2 0xC21 CALLDATASIZE PUSH2 0xF30 JUMP JUMPDEST SWAP1 PUSH1 0x40 MLOAD SWAP3 PUSH2 0xC2F DUP5 PUSH2 0xF97 JUMP JUMPDEST PUSH1 0x0 DUP5 MSTORE PUSH2 0x36F DUP4 DUP4 DUP4 PUSH2 0xFF1 JUMP JUMPDEST CALLVALUE PUSH2 0x1A5 JUMPI PUSH2 0x1A3 PUSH2 0xC4F CALLDATASIZE PUSH2 0xF30 JUMP JUMPDEST SWAP2 PUSH2 0xFF1 JUMP JUMPDEST CALLVALUE PUSH2 0x1A5 JUMPI PUSH1 0x0 CALLDATASIZE PUSH1 0x3 NOT ADD SLT PUSH2 0x1A5 JUMPI PUSH1 0x20 PUSH1 0x8 SLOAD PUSH1 0x40 MLOAD SWAP1 DUP2 MSTORE RETURN JUMPDEST CALLVALUE PUSH2 0x1A5 JUMPI PUSH1 0x40 CALLDATASIZE PUSH1 0x3 NOT ADD SLT PUSH2 0x1A5 JUMPI PUSH2 0xC8C PUSH2 0xF04 JUMP JUMPDEST PUSH1 0x24 CALLDATALOAD PUSH2 0xC98 DUP2 PUSH2 0x1256 JUMP JUMPDEST CALLER ISZERO ISZERO DUP1 PUSH2 0xD47 JUMPI JUMPDEST DUP1 PUSH2 0xD1A JUMPI JUMPDEST PUSH2 0xD02 JUMPI PUSH1 0x1 PUSH1 0x1 PUSH1 0xA0 SHL SUB SWAP3 DUP4 AND SWAP3 DUP3 SWAP2 DUP5 SWAP2 AND PUSH32 0x8C5BE1E5EBEC7D5BD14F71427D1E84F3DD0314C0F7B2291E5B200AC8C7C3B925 PUSH1 0x0 DUP1 LOG4 PUSH1 0x0 SWAP1 DUP2 MSTORE PUSH1 0x4 PUSH1 0x20 MSTORE PUSH1 0x40 SWAP1 KECCAK256 DUP1 SLOAD PUSH1 0x1 PUSH1 0x1 PUSH1 0xA0 SHL SUB NOT AND SWAP1 SWAP2 OR SWAP1 SSTORE STOP JUMPDEST PUSH1 0x40 MLOAD PUSH4 0xA9FBF51F PUSH1 0xE0 SHL DUP2 MSTORE CALLER PUSH1 0x4 DUP3 ADD MSTORE PUSH1 0x24 SWAP1 REVERT JUMPDEST POP PUSH1 0x1 DUP1 PUSH1 0xA0 SHL SUB DUP2 AND PUSH1 0x0 MSTORE PUSH1 0x5 PUSH1 0x20 MSTORE PUSH1 0x40 PUSH1 0x0 KECCAK256 CALLER PUSH1 0x0 MSTORE PUSH1 0x20 MSTORE PUSH1 0xFF PUSH1 0x40 PUSH1 0x0 KECCAK256 SLOAD AND ISZERO PUSH2 0xCA7 JUMP JUMPDEST POP PUSH1 0x1 PUSH1 0x1 PUSH1 0xA0 SHL SUB DUP2 AND CALLER EQ ISZERO PUSH2 0xCA1 JUMP JUMPDEST CALLVALUE PUSH2 0x1A5 JUMPI PUSH1 0x20 CALLDATASIZE PUSH1 0x3 NOT ADD SLT PUSH2 0x1A5 JUMPI PUSH1 0x4 CALLDATALOAD PUSH2 0xD77 DUP2 PUSH2 0x1256 JUMP JUMPDEST POP PUSH1 0x0 MSTORE PUSH1 0x4 PUSH1 0x20 MSTORE PUSH1 0x20 PUSH1 0x1 DUP1 PUSH1 0xA0 SHL SUB PUSH1 0x40 PUSH1 0x0 KECCAK256 SLOAD AND PUSH1 0x40 MLOAD SWAP1 DUP2 MSTORE RETURN JUMPDEST CALLVALUE PUSH2 0x1A5 JUMPI PUSH1 0x0 CALLDATASIZE PUSH1 0x3 NOT ADD SLT PUSH2 0x1A5 JUMPI PUSH1 0x40 MLOAD PUSH1 0x0 DUP1 SLOAD SWAP1 PUSH1 0x1 DUP3 PUSH1 0x1 SHR SWAP2 PUSH1 0x1 DUP5 AND SWAP2 DUP3 ISZERO PUSH2 0xE4F JUMPI JUMPDEST PUSH1 0x20 SWAP5 DUP6 DUP6 LT DUP5 EQ PUSH2 0x650 JUMPI DUP6 DUP8 SWAP5 DUP7 DUP7 MSTORE SWAP2 DUP3 PUSH1 0x0 EQ PUSH2 0x630 JUMPI POP POP PUSH1 0x1 EQ PUSH2 0xDF5 JUMPI POP PUSH2 0x5BF SWAP3 POP SUB DUP4 PUSH2 0xFB3 JUMP JUMPDEST PUSH1 0x0 DUP1 DUP1 MSTORE DUP6 SWAP3 POP SWAP1 PUSH32 0x290DECD9548B62A8D60345A988386FC84BA6BC95484008F6362F93160EF3E563 JUMPDEST DUP6 DUP4 LT PUSH2 0xE37 JUMPI POP POP PUSH2 0x5BF SWAP4 POP DUP3 ADD ADD DUP6 PUSH2 0x5B2 JUMP JUMPDEST DUP1 SLOAD DUP4 DUP10 ADD DUP6 ADD MSTORE DUP8 SWAP5 POP DUP7 SWAP4 SWAP1 SWAP3 ADD SWAP2 DUP2 ADD PUSH2 0xE20 JUMP JUMPDEST SWAP3 PUSH1 0x7F AND SWAP3 PUSH2 0xDC4 JUMP JUMPDEST CALLVALUE PUSH2 0x1A5 JUMPI PUSH1 0x20 CALLDATASIZE PUSH1 0x3 NOT ADD SLT PUSH2 0x1A5 JUMPI PUSH1 0x4 CALLDATALOAD SWAP1 PUSH4 0xFFFFFFFF PUSH1 0xE0 SHL DUP3 AND DUP1 SWAP3 SUB PUSH2 0x1A5 JUMPI PUSH1 0x20 SWAP2 PUSH4 0x80AC58CD PUSH1 0xE0 SHL DUP2 EQ SWAP1 DUP2 ISZERO PUSH2 0xEB3 JUMPI JUMPDEST DUP2 ISZERO PUSH2 0xEA2 JUMPI JUMPDEST POP ISZERO ISZERO DUP2 MSTORE RETURN JUMPDEST PUSH4 0x1FFC9A7 PUSH1 0xE0 SHL EQ SWAP1 POP DUP4 PUSH2 0xE9B JUMP JUMPDEST PUSH4 0x5B5E139F PUSH1 0xE0 SHL DUP2 EQ SWAP2 POP PUSH2 0xE94 JUMP JUMPDEST SWAP2 SWAP1 DUP3 MLOAD SWAP3 DUP4 DUP3 MSTORE PUSH1 0x0 JUMPDEST DUP5 DUP2 LT PUSH2 0xEF0 JUMPI POP POP DUP3 PUSH1 0x0 PUSH1 0x20 DUP1 SWAP5 SWAP6 DUP5 ADD ADD MSTORE PUSH1 0x1F DUP1 NOT SWAP2 ADD AND ADD ADD SWAP1 JUMP JUMPDEST PUSH1 0x20 DUP2 DUP4 ADD DUP2 ADD MLOAD DUP5 DUP4 ADD DUP3 ADD MSTORE ADD PUSH2 0xECF JUMP JUMPDEST PUSH1 0x4 CALLDATALOAD SWAP1 PUSH1 0x1 PUSH1 0x1 PUSH1 0xA0 SHL SUB DUP3 AND DUP3 SUB PUSH2 0x1A5 JUMPI JUMP JUMPDEST PUSH1 0x24 CALLDATALOAD SWAP1 PUSH1 0x1 PUSH1 0x1 PUSH1 0xA0 SHL SUB DUP3 AND DUP3 SUB PUSH2 0x1A5 JUMPI JUMP JUMPDEST PUSH1 0x60 SWAP1 PUSH1 0x3 NOT ADD SLT PUSH2 0x1A5 JUMPI PUSH1 0x1 PUSH1 0x1 PUSH1 0xA0 SHL SUB SWAP1 PUSH1 0x4 CALLDATALOAD DUP3 DUP2 AND DUP2 SUB PUSH2 0x1A5 JUMPI SWAP2 PUSH1 0x24 CALLDATALOAD SWAP1 DUP2 AND DUP2 SUB PUSH2 0x1A5 JUMPI SWAP1 PUSH1 0x44 CALLDATALOAD SWAP1 JUMP JUMPDEST PUSH1 0xE0 DUP2 ADD SWAP1 DUP2 LT PUSH8 0xFFFFFFFFFFFFFFFF DUP3 GT OR PUSH2 0xF81 JUMPI PUSH1 0x40 MSTORE JUMP JUMPDEST PUSH4 0x4E487B71 PUSH1 0xE0 SHL PUSH1 0x0 MSTORE PUSH1 0x41 PUSH1 0x4 MSTORE PUSH1 0x24 PUSH1 0x0 REVERT JUMPDEST PUSH1 0x20 DUP2 ADD SWAP1 DUP2 LT PUSH8 0xFFFFFFFFFFFFFFFF DUP3 GT OR PUSH2 0xF81 JUMPI PUSH1 0x40 MSTORE JUMP JUMPDEST SWAP1 PUSH1 0x1F DUP1 NOT SWAP2 ADD AND DUP2 ADD SWAP1 DUP2 LT PUSH8 0xFFFFFFFFFFFFFFFF DUP3 GT OR PUSH2 0xF81 JUMPI PUSH1 0x40 MSTORE JUMP JUMPDEST PUSH8 0xFFFFFFFFFFFFFFFF DUP2 GT PUSH2 0xF81 JUMPI PUSH1 0x1F ADD PUSH1 0x1F NOT AND PUSH1 0x20 ADD SWAP1 JUMP JUMPDEST PUSH1 0x1 PUSH1 0x1 PUSH1 0xA0 SHL SUB SWAP2 DUP3 AND SWAP3 SWAP1 SWAP2 DUP4 ISZERO PUSH2 0xAB8 JUMPI PUSH1 0x0 SWAP3 DUP3 DUP5 MSTORE PUSH1 0x20 SWAP5 PUSH1 0x2 DUP7 MSTORE PUSH1 0x40 SWAP6 DUP7 DUP5 DUP2 DUP9 KECCAK256 SLOAD AND SWAP7 CALLER ISZERO ISZERO DUP1 PUSH2 0x114E JUMPI JUMPDEST POP DUP8 ISZERO ISZERO DUP1 PUSH2 0x111B JUMPI JUMPDEST DUP5 DUP3 MSTORE PUSH1 0x3 DUP5 MSTORE DUP3 DUP3 KECCAK256 DUP1 SLOAD PUSH1 0x1 ADD SWAP1 SSTORE DUP8 DUP3 MSTORE PUSH1 0x2 DUP5 MSTORE DUP3 DUP3 KECCAK256 DUP1 SLOAD PUSH1 0x1 PUSH1 0x1 PUSH1 0xA0 SHL SUB NOT AND DUP7 OR SWAP1 SSTORE DUP3 MLOAD SWAP5 DUP9 SWAP1 DUP11 PUSH32 0xDDF252AD1BE2C89B69C2B068FC378DAA952BA7F163C4A11628F55A4DF523B3EF DUP6 DUP1 LOG4 DUP1 PUSH2 0x1113 JUMPI JUMPDEST PUSH2 0x10C4 JUMPI JUMPDEST POP POP POP POP AND SWAP3 DUP4 DUP4 SUB PUSH2 0x10A3 JUMPI POP POP POP POP JUMP JUMPDEST PUSH1 0x64 SWAP5 POP MLOAD SWAP3 PUSH4 0x64283D7B PUSH1 0xE0 SHL DUP5 MSTORE PUSH1 0x4 DUP5 ADD MSTORE PUSH1 0x24 DUP4 ADD MSTORE PUSH1 0x44 DUP3 ADD MSTORE REVERT JUMPDEST PUSH1 0x9 DUP4 MSTORE KECCAK256 PUSH1 0x1 ADD SLOAD PUSH1 0x50 SHR PUSH1 0xFF AND ISZERO PUSH2 0x10DF JUMPI DUP7 DUP2 PUSH2 0x1090 JUMP JUMPDEST PUSH3 0x461BCD PUSH1 0xE5 SHL DUP3 MSTORE PUSH1 0x4 DUP3 ADD MSTORE PUSH1 0x10 PUSH1 0x24 DUP3 ADD MSTORE PUSH16 0x6E6F74207472616E7366657261626C65 PUSH1 0x80 SHL PUSH1 0x44 DUP3 ADD MSTORE PUSH1 0x64 SWAP2 POP REVERT JUMPDEST POP PUSH1 0x1 PUSH2 0x108B JUMP JUMPDEST PUSH1 0x0 DUP9 DUP2 MSTORE PUSH1 0x4 PUSH1 0x20 MSTORE PUSH1 0x40 SWAP1 KECCAK256 DUP1 SLOAD PUSH1 0x1 PUSH1 0x1 PUSH1 0xA0 SHL SUB NOT AND SWAP1 SSTORE DUP9 DUP3 MSTORE PUSH1 0x3 DUP5 MSTORE DUP3 DUP3 KECCAK256 DUP1 SLOAD PUSH1 0x0 NOT ADD SWAP1 SSTORE PUSH2 0x1030 JUMP JUMPDEST SWAP1 SWAP2 POP DUP1 PUSH2 0x119D JUMPI JUMPDEST ISZERO PUSH2 0x1164 JUMPI DUP8 SWAP1 CODESIZE PUSH2 0x1026 JUMP JUMPDEST DUP8 DUP7 DUP9 PUSH2 0x1181 JUMPI PUSH1 0x24 SWAP2 MLOAD SWAP1 PUSH4 0x7E273289 PUSH1 0xE0 SHL DUP3 MSTORE PUSH1 0x4 DUP3 ADD MSTORE REVERT JUMPDEST PUSH1 0x44 SWAP2 MLOAD SWAP1 PUSH4 0x177E802F PUSH1 0xE0 SHL DUP3 MSTORE CALLER PUSH1 0x4 DUP4 ADD MSTORE PUSH1 0x24 DUP3 ADD MSTORE REVERT JUMPDEST POP CALLER DUP8 EQ DUP1 ISZERO PUSH2 0x11C2 JUMPI JUMPDEST DUP1 PUSH2 0x1157 JUMPI POP DUP6 DUP2 MSTORE PUSH1 0x4 DUP3 MSTORE CALLER DUP6 DUP10 DUP4 KECCAK256 SLOAD AND EQ PUSH2 0x1157 JUMP JUMPDEST POP DUP7 DUP2 MSTORE PUSH1 0x5 DUP3 MSTORE DUP8 DUP2 KECCAK256 CALLER DUP3 MSTORE DUP3 MSTORE PUSH1 0xFF DUP9 DUP3 KECCAK256 SLOAD AND PUSH2 0x11A8 JUMP JUMPDEST ISZERO PUSH2 0x11E5 JUMPI JUMP JUMPDEST PUSH1 0x40 MLOAD PUSH3 0x461BCD PUSH1 0xE5 SHL DUP2 MSTORE PUSH1 0x20 PUSH1 0x4 DUP3 ADD MSTORE PUSH1 0x10 PUSH1 0x24 DUP3 ADD MSTORE PUSH16 0x6F6E6C79206D61726B6574706C616365 PUSH1 0x80 SHL PUSH1 0x44 DUP3 ADD MSTORE PUSH1 0x64 SWAP1 REVERT JUMPDEST ISZERO PUSH2 0x1224 JUMPI JUMP JUMPDEST PUSH1 0x40 MLOAD PUSH3 0x461BCD PUSH1 0xE5 SHL DUP2 MSTORE PUSH1 0x20 PUSH1 0x4 DUP3 ADD MSTORE PUSH1 0xA PUSH1 0x24 DUP3 ADD MSTORE PUSH10 0x6E6F7420657869737473 PUSH1 0xB0 SHL PUSH1 0x44 DUP3 ADD MSTORE PUSH1 0x64 SWAP1 REVERT JUMPDEST PUSH1 0x0 DUP2 DUP2 MSTORE PUSH1 0x2 PUSH1 0x20 MSTORE PUSH1 0x40 SWAP1 KECCAK256 SLOAD PUSH1 0x1 PUSH1 0x1 PUSH1 0xA0 SHL SUB AND SWAP1 DUP2 ISZERO PUSH2 0x1279 JUMPI POP SWAP1 JUMP JUMPDEST PUSH1 0x24 SWAP1 PUSH1 0x40 MLOAD SWAP1 PUSH4 0x7E273289 PUSH1 0xE0 SHL DUP3 MSTORE PUSH1 0x4 DUP3 ADD MSTORE REVERT JUMPDEST PUSH1 0x6 SLOAD PUSH1 0x1 PUSH1 0x1 PUSH1 0xA0 SHL SUB AND CALLER SUB PUSH2 0x12A5 JUMPI JUMP JUMPDEST PUSH1 0x40 MLOAD PUSH4 0x118CDAA7 PUSH1 0xE0 SHL DUP2 MSTORE CALLER PUSH1 0x4 DUP3 ADD MSTORE PUSH1 0x24 SWAP1 REVERT JUMPDEST SWAP1 SWAP4 SWAP2 SWAP3 DUP4 EXTCODESIZE PUSH2 0x12CF JUMPI JUMPDEST POP POP POP POP POP JUMP JUMPDEST PUSH1 0x40 MLOAD PUSH4 0xA85BD01 PUSH1 0xE1 SHL DUP1 DUP3 MSTORE PUSH1 0x1 PUSH1 0x1 PUSH1 0xA0 SHL SUB SWAP4 DUP5 AND PUSH1 0x4 DUP4 ADD MSTORE SWAP6 DUP4 AND PUSH1 0x24 DUP3 ADD MSTORE PUSH1 0x44 DUP2 ADD SWAP2 SWAP1 SWAP2 MSTORE PUSH1 0x80 PUSH1 0x64 DUP3 ADD MSTORE SWAP5 SWAP3 AND SWAP3 PUSH1 0x20 SWAP3 SWAP2 DUP6 SWAP1 PUSH2 0x131C SWAP1 PUSH1 0x84 DUP4 ADD SWAP1 PUSH2 0xEC4 JUMP JUMPDEST SUB SWAP5 DUP4 DUP2 PUSH1 0x0 SWAP8 DUP2 DUP10 DUP10 GAS CALL DUP7 SWAP2 DUP2 PUSH2 0x13AF JUMPI JUMPDEST POP PUSH2 0x1391 JUMPI POP POP POP RETURNDATASIZE PUSH1 0x0 EQ PUSH2 0x1388 JUMPI RETURNDATASIZE PUSH2 0x134A DUP2 PUSH2 0xFD5 JUMP JUMPDEST SWAP1 PUSH2 0x1358 PUSH1 0x40 MLOAD SWAP3 DUP4 PUSH2 0xFB3 JUMP JUMPDEST DUP2 MSTORE DUP1 SWAP4 DUP3 RETURNDATASIZE SWAP3 ADD RETURNDATACOPY JUMPDEST DUP3 MLOAD SWAP3 DUP4 PUSH2 0x1383 JUMPI PUSH1 0x40 MLOAD PUSH4 0x32505749 PUSH1 0xE1 SHL DUP2 MSTORE PUSH1 0x4 DUP2 ADD DUP5 SWAP1 MSTORE PUSH1 0x24 SWAP1 REVERT JUMPDEST ADD SWAP1 POP REVERT JUMPDEST PUSH1 0x60 SWAP3 POP PUSH2 0x1362 JUMP JUMPDEST SWAP2 SWAP5 POP SWAP2 POP PUSH4 0xFFFFFFFF PUSH1 0xE0 SHL AND SUB PUSH2 0x9AC JUMPI POP CODESIZE DUP1 DUP1 DUP1 DUP1 PUSH2 0x12C8 JUMP JUMPDEST SWAP1 SWAP2 POP DUP5 DUP2 DUP2 RETURNDATASIZE DUP4 GT PUSH2 0x13EC JUMPI JUMPDEST PUSH2 0x13C7 DUP2 DUP4 PUSH2 0xFB3 JUMP JUMPDEST DUP2 ADD SUB SLT PUSH2 0x13E8 JUMPI MLOAD PUSH1 0x1 PUSH1 0x1 PUSH1 0xE0 SHL SUB NOT DUP2 AND DUP2 SUB PUSH2 0x13E8 JUMPI SWAP1 CODESIZE PUSH2 0x1330 JUMP JUMPDEST DUP7 DUP1 REVERT JUMPDEST POP RETURNDATASIZE PUSH2 0x13BD JUMP INVALID LOG2 PUSH5 0x6970667358 0x22 SLT KECCAK256 0xD0 CREATE2 MSTORE 0xB5 PC 0xC0 0x23 0xD3 0x2F 0xDD 0xB9 0xC9 MSTORE 0xAF ADDMOD 0x4D 0xEC CALLVALUE 0xDA DUP8 DUP3 0xA7 0xE8 PUSH21 0xBBCCC15AA85AAFEB64736F6C634300081800330000 "},"methodIdentifiers":{"KIND_PERPETUAL()":"75bb91b2","KIND_SUBSCRIPTION()":"7d53deff","MAX_BPS()":"fd967f47","MAX_FEE_BPS_CAP()":"81cd7439","RIGHTS_API()":"23ea1f5f","RIGHTS_DOWNLOAD()":"acb27c68","activeModels()":"c8aa67b3","buyLicense(uint256,uint8,uint16,bool)":"88daf7f4","families(address,string)":"c2936340","feeBps()":"24a9d853","feeRecipient()":"46904840","licenseNFT()":"da68d47d","listOrUpgrade(string,string,string,uint256,uint256,uint256,uint256,uint8,uint8,uint16,bytes32)":"1c75372d","models(uint256)":"6a030ca9","modelsLimit()":"227dc4c4","nextId()":"61b8ce8c","nextLicenseId()":"492f471c","owner()":"8da5cb5b","paused()":"5c975abb","renewLicense(uint256,uint16)":"d402e464","renounceOwnership()":"715018a6","setFees(uint256,address)":"3d162cdc","setLicensingParams(uint256,uint256,uint256,uint256,uint8,uint8,uint16,bytes32)":"5d87dfd5","setListed(uint256,bool)":"f09449ba","setModelsLimit(uint256)":"d2d5ec4d","setPaused(bool)":"16c38b3c","transferOwnership(address)":"f2fde38b"}}}}}