{"contracts/LicenseNFT.sol":{"LicenseNFT":{"abi":[{"inputs":[{"internalType":"address","name":"marketplace_","type":"address"}],"stateMutability":"nonpayable","type":"constructor"},{"inputs":[{"internalType":"address","name":"sender","type":"address"},{"internalType":"uint256","name":"tokenId","type":"uint256"},{"internalType":"address","name":"owner","type":"address"}],"name":"ERC721IncorrectOwner","type":"error"},{"inputs":[{"internalType":"address","name":"operator","type":"address"},{"internalType":"uint256","name":"tokenId","type":"uint256"}],"name":"ERC721InsufficientApproval","type":"error"},{"inputs":[{"internalType":"address","name":"approver","type":"address"}],"name":"ERC721InvalidApprover","type":"error"},{"inputs":[{"internalType":"address","name":"operator","type":"address"}],"name":"ERC721InvalidOperator","type":"error"},{"inputs":[{"internalType":"address","name":"owner","type":"address"}],"name":"ERC721InvalidOwner","type":"error"},{"inputs":[{"internalType":"address","name":"receiver","type":"address"}],"name":"ERC721InvalidReceiver","type":"error"},{"inputs":[{"internalType":"address","name":"sender","type":"address"}],"name":"ERC721InvalidSender","type":"error"},{"inputs":[{"internalType":"uint256","name":"tokenId","type":"uint256"}],"name":"ERC721NonexistentToken","type":"error"},{"inputs":[{"internalType":"address","name":"owner","type":"address"}],"name":"OwnableInvalidOwner","type":"error"},{"inputs":[{"internalType":"address","name":"account","type":"address"}],"name":"OwnableUnauthorizedAccount","type":"error"},{"anonymous":false,"inputs":[{"indexed":true,"internalType":"address","name":"owner","type":"address"},{"indexed":true,"internalType":"address","name":"approved","type":"address"},{"indexed":true,"internalType":"uint256","name":"tokenId","type":"uint256"}],"name":"Approval","type":"event"},{"anonymous":false,"inputs":[{"indexed":true,"internalType":"address","name":"owner","type":"address"},{"indexed":true,"internalType":"address","name":"operator","type":"address"},{"indexed":false,"internalType":"bool","name":"approved","type":"bool"}],"name":"ApprovalForAll","type":"event"},{"anonymous":false,"inputs":[{"indexed":true,"internalType":"address","name":"previousOwner","type":"address"},{"indexed":true,"internalType":"address","name":"newOwner","type":"address"}],"name":"OwnershipTransferred","type":"event"},{"anonymous":false,"inputs":[{"indexed":true,"internalType":"address","name":"from","type":"address"},{"indexed":true,"internalType":"address","name":"to","type":"address"},{"indexed":true,"internalType":"uint256","name":"tokenId","type":"uint256"}],"name":"Transfer","type":"event"},{"inputs":[{"internalType":"address","name":"to","type":"address"},{"internalType":"uint256","name":"tokenId","type":"uint256"}],"name":"approve","outputs":[],"stateMutability":"nonpayable","type":"function"},{"inputs":[{"internalType":"address","name":"owner","type":"address"}],"name":"balanceOf","outputs":[{"internalType":"uint256","name":"","type":"uint256"}],"stateMutability":"view","type":"function"},{"inputs":[{"internalType":"uint256","name":"tokenId","type":"uint256"}],"name":"getApproved","outputs":[{"internalType":"address","name":"","type":"address"}],"stateMutability":"view","type":"function"},{"inputs":[{"internalType":"uint256","name":"tokenId","type":"uint256"}],"name":"getLicense","outputs":[{"components":[{"internalType":"uint256","name":"modelId","type":"uint256"},{"internalType":"uint8","name":"licenseKind","type":"uint8"},{"internalType":"uint8","name":"rights","type":"uint8"},{"internalType":"uint64","name":"expiresAt","type":"uint64"},{"internalType":"bool","name":"transferable","type":"bool"},{"internalType":"bytes32","name":"termsHash","type":"bytes32"},{"internalType":"uint16","name":"version","type":"uint16"}],"internalType":"struct LicenseNFT.LicenseData","name":"","type":"tuple"}],"stateMutability":"view","type":"function"},{"inputs":[{"internalType":"address","name":"owner","type":"address"},{"internalType":"address","name":"operator","type":"address"}],"name":"isApprovedForAll","outputs":[{"internalType":"bool","name":"","type":"bool"}],"stateMutability":"view","type":"function"},{"inputs":[],"name":"marketplace","outputs":[{"internalType":"address","name":"","type":"address"}],"stateMutability":"view","type":"function"},{"inputs":[{"internalType":"address","name":"to","type":"address"},{"components":[{"internalType":"uint256","name":"modelId","type":"uint256"},{"internalType":"uint8","name":"licenseKind","type":"uint8"},{"internalType":"uint8","name":"rights","type":"uint8"},{"internalType":"uint64","name":"expiresAt","type":"uint64"},{"internalType":"bool","name":"transferable","type":"bool"},{"internalType":"bytes32","name":"termsHash","type":"bytes32"},{"internalType":"uint16","name":"version","type":"uint16"}],"internalType":"struct LicenseNFT.LicenseData","name":"d","type":"tuple"}],"name":"mint","outputs":[{"internalType":"uint256","name":"tokenId","type":"uint256"}],"stateMutability":"nonpayable","type":"function"},{"inputs":[],"name":"name","outputs":[{"internalType":"string","name":"","type":"string"}],"stateMutability":"view","type":"function"},{"inputs":[],"name":"owner","outputs":[{"internalType":"address","name":"","type":"address"}],"stateMutability":"view","type":"function"},{"inputs":[{"internalType":"uint256","name":"tokenId","type":"uint256"}],"name":"ownerOf","outputs":[{"internalType":"address","name":"","type":"address"}],"stateMutability":"view","type":"function"},{"inputs":[],"name":"renounceOwnership","outputs":[],"stateMutability":"nonpayable","type":"function"},{"inputs":[{"internalType":"address","name":"from","type":"address"},{"internalType":"address","name":"to","type":"address"},{"internalType":"uint256","name":"tokenId","type":"uint256"}],"name":"safeTransferFrom","outputs":[],"stateMutability":"nonpayable","type":"function"},{"inputs":[{"internalType":"address","name":"from","type":"address"},{"internalType":"address","name":"to","type":"address"},{"internalType":"uint256","name":"tokenId","type":"uint256"},{"internalType":"bytes","name":"data","type":"bytes"}],"name":"safeTransferFrom","outputs":[],"stateMutability":"nonpayable","type":"function"},{"inputs":[{"internalType":"address","name":"operator","type":"address"},{"internalType":"bool","name":"approved","type":"bool"}],"name":"setApprovalForAll","outputs":[],"stateMutability":"nonpayable","type":"function"},{"inputs":[{"internalType":"address","name":"m","type":"address"}],"name":"setMarketplace","outputs":[],"stateMutability":"nonpayable","type":"function"},{"inputs":[{"internalType":"bytes4","name":"interfaceId","type":"bytes4"}],"name":"supportsInterface","outputs":[{"internalType":"bool","name":"","type":"bool"}],"stateMutability":"view","type":"function"},{"inputs":[],"name":"symbol","outputs":[{"internalType":"string","name":"","type":"string"}],"stateMutability":"view","type":"function"},{"inputs":[{"internalType":"uint256","name":"tokenId","type":"uint256"}],"name":"tokenURI","outputs":[{"internalType":"string","name":"","type":"string"}],"stateMutability":"view","type":"function"},{"inputs":[],"name":"totalSupply","outputs":[{"internalType":"uint256","name":"","type":"uint256"}],"stateMutability":"view","type":"function"},{"inputs":[{"internalType":"address","name":"from","type":"address"},{"internalType":"address","name":"to","type":"address"},{"internalType":"uint256","name":"tokenId","type":"uint256"}],"name":"transferFrom","outputs":[],"stateMutability":"nonpayable","type":"function"},{"inputs":[{"internalType":"address","name":"newOwner","type":"address"}],"name":"transferOwnership","outputs":[],"stateMutability":"nonpayable","type":"function"},{"inputs":[{"internalType":"uint256","name":"tokenId","type":"uint256"},{"internalType":"uint64","name":"newExpiresAt","type":"uint64"}],"name":"updateExpires","outputs":[],"stateMutability":"nonpayable","type":"function"}],"evm":{"bytecode":{"linkReferences":{},"object":"608034620003d557601f906001600160401b0390601f199062001824388190038581018416830185811184821017620003bf57839282916040528339602092839181010312620003d557516001600160a01b03948582169491859003620003d5576200006a620003da565b92601584527f4d61726b6574706c6163654149204c6963656e73650000000000000000000000818501526200009e620003da565b9060078252664d5041494c494360c81b81830152845195848711620003bf576000968754966001978881811c91168015620003b4575b85821014620003a0579081878493116200034d575b508490878311600114620002ec578a92620002e0575b5050600019600383901b1c191690871b1787555b8251948511620002cc5785548681811c91168015620002c1575b83821014620002ad5790818587969594931162000254575b5081938511600114620001ef5750508592620001e3575b5050600019600383901b1c191690821b1790555b3315620001cb5760065460018060a01b03199133838316176006557f8be0079c531659141344cd1fd0a4f28419497f9722a3daafe3b4186f6b6457e0604051953393169180a360075416176007556114299081620003fb8239f35b60249060405190631e4fbdf760e01b82526004820152fd5b0151905038806200015c565b869593929193168588528388209388905b8282106200023a575050841162000220575b505050811b01905562000170565b015160001960f88460031b161c1916905538808062000212565b848401518655889790950194938401939081019062000200565b9091929394508688528288208580880160051c820192858910620002a3575b9188978a9297969594930160051c01915b8281106200029457505062000145565b8a815588975089910162000284565b9250819262000273565b634e487b7160e01b88526022600452602488fd5b90607f16906200012d565b634e487b7160e01b87526041600452602487fd5b015190503880620000ff565b90848a9416918b8052868c20928c5b888282106200033657505084116200031c575b505050811b01875562000113565b015160001960f88460031b161c191690553880806200030e565b8385015186558d97909501949384019301620002fb565b909150898052848a208780850160051c82019287861062000396575b918b91869594930160051c01915b82811062000387575050620000e9565b8c81558594508b910162000377565b9250819262000369565b634e487b7160e01b8a52602260045260248afd5b90607f1690620000d4565b634e487b7160e01b600052604160045260246000fd5b600080fd5b60408051919082016001600160401b03811183821017620003bf5760405256fe608080604052600436101561001357600080fd5b60003560e01c90816301ffc9a714610e595750806306fdde0314610d98578063081812fc14610d5a578063095ea7b314610c7357806318160ddd14610c5557806323b872dd14610c3e57806342842e0e14610c105780636352211e14610be057806370a0823114610b87578063715018a614610b2a57806373ad6c2d14610ae7578063849b1b7e146106995780638da5cb5b1461067057806395d89b411461055f578063a22cb465146104ba578063abc8c7af14610491578063b2dd121214610375578063b88d4fde146102e0578063c87b56dd14610289578063e985e9c514610233578063f2fde38b146101aa5763fe5eb7541461011157600080fd5b346101a55760403660031901126101a55760043560243567ffffffffffffffff811681036101a5576101a39161016d60018060a01b03610156816007541633146111de565b82600052600260205260406000205416151561121d565b600052600960205260016040600020019069ffffffffffffffff000082549160101b169069ffffffffffffffff00001916179055565b005b600080fd5b346101a55760203660031901126101a5576101c3610f04565b6101cb611291565b6001600160a01b0390811690811561021a57600654826001600160601b0360a01b821617600655167f8be0079c531659141344cd1fd0a4f28419497f9722a3daafe3b4186f6b6457e0600080a3005b604051631e4fbdf760e01b815260006004820152602490fd5b346101a55760403660031901126101a55761024c610f04565b610254610f1a565b9060018060a01b03809116600052600560205260406000209116600052602052602060ff604060002054166040519015158152f35b346101a55760203660031901126101a5576102a5600435611256565b5060006040516102b481610f97565b526102dc6040516102c481610f97565b60008152604051918291602083526020830190610ec4565b0390f35b346101a55760803660031901126101a5576102f9610f04565b610301610f1a565b906044356064359267ffffffffffffffff84116101a557366023850112156101a55783600401359261033284610fd5565b936103406040519586610fb3565b80855236602482880101116101a55760208160009260246101a39901838901378601015261036f838383610ff1565b336112bd565b346101a5576020806003193601126101a55760e090600435600060c060405161039d81610f65565b82815282858201528260408201528260608201528260808201528260a0820152015280600052600282526103df60018060a01b0360406000205416151561121d565b6000526009815260036040600020604051906103fa82610f65565b80549384835260018201549080840160ff8316815260ff60408601818560081c16815267ffffffffffffffff93826060890194868860101c1686528160808b019860501c161515885260c060028a01549960a08c019a8b5261ffff9c8d910154169a01998a526040519b8c525116908a0152511660408801525116606086015251151560808501525160a0840152511660c0820152f35b346101a55760003660031901126101a5576007546040516001600160a01b039091168152602090f35b346101a55760403660031901126101a5576104d3610f04565b602435908115158092036101a5576001600160a01b031690811561054657336000526005602052604060002082600052602052604060002060ff1981541660ff83161790556040519081527f17307eab39ab6107e8899845ad3d59bd9653f200f220920489ca2b5937696c3160203392a3005b604051630b61174360e31b815260048101839052602490fd5b346101a55760003660031901126101a5576040516000600190600154918260011c9160018416918215610666575b60209485851084146106505785879486865291826000146106305750506001146105d3575b506105bf92500383610fb3565b6102dc604051928284938452830190610ec4565b84915060016000527fb10e2d527612073b26eecdfd717e6a320cf44b4afac2b0732d9fcbe2b7fa0cf6906000915b8583106106185750506105bf9350820101856105b2565b80548389018501528794508693909201918101610601565b60ff1916858201526105bf95151560051b85010192508791506105b29050565b634e487b7160e01b600052602260045260246000fd5b92607f169261058d565b346101a55760003660031901126101a5576006546040516001600160a01b039091168152602090f35b346101a5576101003660031901126101a5576106b3610f04565b60e03660231901126101a557604051906106cc82610f65565b602435825260443560ff811681036101a557602083015260643560ff811681036101a557604083015260843567ffffffffffffffff811681036101a557606083015260a43580151581036101a557608083015260c43560a083015260e43561ffff811681036101a55760c083015261074f60018060a01b036007541633146111de565b600854916000198314610ad1576001830160085560018301600052600960205260406000208151815561ffff60c06003600184019360ff6020870151169480549561ff00604089015160081b16908619809816171781556107df67ffffffffffffffff606089015116829069ffffffffffffffff000082549160101b169069ffffffffffffffff00001916179055565b6080870151151581549060ff60501b9060501b169060ff60501b191617905560a0860151600282015501930151169082541617905560405161082081610f97565b600081526001600160a01b038216918215610ab857600184016000908152600260205260409020546001600160a01b03168015159081610a77575b8460005260036020526040600020600181540190556001860160005260026020526040600020856001600160601b0360a01b825416179055604051908560018801917fddf252ad1be2c89b69c2b068fc378daa952ba7f163c4a11628f55a4df523b3ef600080a48180610a6f575b610a22575b50610a09573b6108e7575b602083600160405191018152f35b60405160208180610924630a85bd0160e11b9586835233600484015260006024840152600189016044840152608060648401526084830190610ec4565b03816000875af1600091816109c4575b5061099457823d1561098c573d9061094b82610fd5565b916109596040519384610fb3565b82523d6000602084013e5b8151918261098557604051633250574960e11b815260048101839052602490fd5b6020915001fd5b606090610964565b6001600160e01b031916036109ac57506020826108d9565b60249060405190633250574960e11b82526004820152fd5b9091506020813d602011610a01575b816109e060209383610fb3565b810103126101a557516001600160e01b0319811681036101a5579085610934565b3d91506109d3565b6040516339e3563760e11b815260006004820152602490fd5b600960205260ff60016040600020015460501c166108ce5762461bcd60e51b815260206004820152601060248201526f6e6f74207472616e7366657261626c6560801b6044820152606490fd5b5060016108c9565b610a9d60018701600052600460205260406000206001600160601b0360a01b8154169055565b8060005260036020526040600020600019815401905561085b565b604051633250574960e11b815260006004820152602490fd5b634e487b7160e01b600052601160045260246000fd5b346101a55760203660031901126101a557610b00610f04565b610b08611291565b600780546001600160a01b0319166001600160a01b0392909216919091179055005b346101a55760003660031901126101a557610b43611291565b600680546001600160a01b031981169091556000906001600160a01b03167f8be0079c531659141344cd1fd0a4f28419497f9722a3daafe3b4186f6b6457e08280a3005b346101a55760203660031901126101a5576001600160a01b03610ba8610f04565b168015610bc75760005260036020526020604060002054604051908152f35b6040516322718ad960e21b815260006004820152602490fd5b346101a55760203660031901126101a5576020610bfe600435611256565b6040516001600160a01b039091168152f35b346101a5576101a3610c2136610f30565b9060405192610c2f84610f97565b6000845261036f838383610ff1565b346101a5576101a3610c4f36610f30565b91610ff1565b346101a55760003660031901126101a5576020600854604051908152f35b346101a55760403660031901126101a557610c8c610f04565b602435610c9881611256565b33151580610d47575b80610d1a575b610d02576001600160a01b039283169282918491167f8c5be1e5ebec7d5bd14f71427d1e84f3dd0314c0f7b2291e5b200ac8c7c3b925600080a4600090815260046020526040902080546001600160a01b0319169091179055005b60405163a9fbf51f60e01b8152336004820152602490fd5b5060018060a01b038116600052600560205260406000203360005260205260ff6040600020541615610ca7565b506001600160a01b038116331415610ca1565b346101a55760203660031901126101a557600435610d7781611256565b506000526004602052602060018060a01b0360406000205416604051908152f35b346101a55760003660031901126101a557604051600080549060018260011c9160018416918215610e4f575b6020948585108414610650578587948686529182600014610630575050600114610df557506105bf92500383610fb3565b6000808052859250907f290decd9548b62a8d60345a988386fc84ba6bc95484008f6362f93160ef3e5635b858310610e375750506105bf9350820101856105b2565b80548389018501528794508693909201918101610e20565b92607f1692610dc4565b346101a55760203660031901126101a5576004359063ffffffff60e01b82168092036101a5576020916380ac58cd60e01b8114908115610eb3575b8115610ea2575b5015158152f35b6301ffc9a760e01b14905083610e9b565b635b5e139f60e01b81149150610e94565b919082519283825260005b848110610ef0575050826000602080949584010152601f8019910116010190565b602081830181015184830182015201610ecf565b600435906001600160a01b03821682036101a557565b602435906001600160a01b03821682036101a557565b60609060031901126101a5576001600160a01b039060043582811681036101a5579160243590811681036101a5579060443590565b60e0810190811067ffffffffffffffff821117610f8157604052565b634e487b7160e01b600052604160045260246000fd5b6020810190811067ffffffffffffffff821117610f8157604052565b90601f8019910116810190811067ffffffffffffffff821117610f8157604052565b67ffffffffffffffff8111610f8157601f01601f191660200190565b6001600160a01b039182169290918315610ab8576000928284526020946002865260409586848188205416963315158061114e575b508715158061111b575b84825260038452828220805460010190558782526002845282822080546001600160a01b0319168617905582519488908a7fddf252ad1be2c89b69c2b068fc378daa952ba7f163c4a11628f55a4df523b3ef8580a480611113575b6110c4575b5050505016928383036110a35750505050565b6064945051926364283d7b60e01b8452600484015260248301526044820152fd5b60098352206001015460501c60ff16156110df578681611090565b62461bcd60e51b82526004820152601060248201526f6e6f74207472616e7366657261626c6560801b604482015260649150fd5b50600161108b565b600088815260046020526040902080546001600160a01b0319169055888252600384528282208054600019019055611030565b9091508061119d575b1561116457879038611026565b878688611181576024915190637e27328960e01b82526004820152fd5b604491519063177e802f60e01b82523360048301526024820152fd5b5033871480156111c2575b806111575750858152600482523385898320541614611157565b5086815260058252878120338252825260ff88822054166111a8565b156111e557565b60405162461bcd60e51b815260206004820152601060248201526f6f6e6c79206d61726b6574706c61636560801b6044820152606490fd5b1561122457565b60405162461bcd60e51b815260206004820152600a6024820152696e6f742065786973747360b01b6044820152606490fd5b6000818152600260205260409020546001600160a01b0316908115611279575090565b60249060405190637e27328960e01b82526004820152fd5b6006546001600160a01b031633036112a557565b60405163118cdaa760e01b8152336004820152602490fd5b90939192833b6112cf575b5050505050565b604051630a85bd0160e11b8082526001600160a01b03938416600483015295831660248201526044810191909152608060648201529492169260209291859061131c906084830190610ec4565b039483816000978189895af18691816113af575b50611391575050503d600014611388573d61134a81610fd5565b906113586040519283610fb3565b81528093823d92013e5b8251928361138357604051633250574960e11b815260048101849052602490fd5b019050fd5b60609250611362565b919450915063ffffffff60e01b16036109ac575038808080806112c8565b9091508481813d83116113ec575b6113c78183610fb3565b810103126113e857516001600160e01b0319811681036113e8579038611330565b8680fd5b503d6113bd56fea2646970667358221220d0f552b558c023d32fddb9c952af084dec34da8782a7e874bbccc15aa85aafeb64736f6c63430008180033","opcodes":"PUSH1 0x80 CALLVALUE PUSH3 0x3D5 JUMPI PUSH1 0x1F SWAP1 PUSH1 0x1 PUSH1 0x1 PUSH1 0x40 SHL SUB SWAP1 PUSH1 0x1F NOT SWAP1 PUSH3 0x1824 CODESIZE DUP2 SWAP1 SUB DUP6 DUP2 ADD DUP5 AND DUP4 ADD DUP6 DUP2 GT DUP5 DUP3 LT OR PUSH3 0x3BF JUMPI DUP4 SWAP3 DUP3 SWAP2 PUSH1 0x40 MSTORE DUP4 CODECOPY PUSH1 0x20 SWAP3 DUP4 SWAP2 DUP2 ADD SUB SLT PUSH3 0x3D5 JUMPI MLOAD PUSH1 0x1 PUSH1 0x1 PUSH1 0xA0 SHL SUB SWAP5 DUP6 DUP3 AND SWAP5 SWAP2 DUP6 SWAP1 SUB PUSH3 0x3D5 JUMPI PUSH3 0x6A PUSH3 0x3DA JUMP JUMPDEST SWAP3 PUSH1 0x15 DUP5 MSTORE PUSH32 0x4D61726B6574706C6163654149204C6963656E73650000000000000000000000 DUP2 DUP6 ADD MSTORE PUSH3 0x9E PUSH3 0x3DA JUMP JUMPDEST SWAP1 PUSH1 0x7 DUP3 MSTORE PUSH7 0x4D5041494C4943 PUSH1 0xC8 SHL DUP2 DUP4 ADD MSTORE DUP5 MLOAD SWAP6 DUP5 DUP8 GT PUSH3 0x3BF JUMPI PUSH1 0x0 SWAP7 DUP8 SLOAD SWAP7 PUSH1 0x1 SWAP8 DUP9 DUP2 DUP2 SHR SWAP2 AND DUP1 ISZERO PUSH3 0x3B4 JUMPI JUMPDEST DUP6 DUP3 LT EQ PUSH3 0x3A0 JUMPI SWAP1 DUP2 DUP8 DUP5 SWAP4 GT PUSH3 0x34D JUMPI JUMPDEST POP DUP5 SWAP1 DUP8 DUP4 GT PUSH1 0x1 EQ PUSH3 0x2EC JUMPI DUP11 SWAP3 PUSH3 0x2E0 JUMPI JUMPDEST POP POP PUSH1 0x0 NOT PUSH1 0x3 DUP4 SWAP1 SHL SHR NOT AND SWAP1 DUP8 SHL OR DUP8 SSTORE JUMPDEST DUP3 MLOAD SWAP5 DUP6 GT PUSH3 0x2CC JUMPI DUP6 SLOAD DUP7 DUP2 DUP2 SHR SWAP2 AND DUP1 ISZERO PUSH3 0x2C1 JUMPI JUMPDEST DUP4 DUP3 LT EQ PUSH3 0x2AD JUMPI SWAP1 DUP2 DUP6 DUP8 SWAP7 SWAP6 SWAP5 SWAP4 GT PUSH3 0x254 JUMPI JUMPDEST POP DUP2 SWAP4 DUP6 GT PUSH1 0x1 EQ PUSH3 0x1EF JUMPI POP POP DUP6 SWAP3 PUSH3 0x1E3 JUMPI JUMPDEST POP POP PUSH1 0x0 NOT PUSH1 0x3 DUP4 SWAP1 SHL SHR NOT AND SWAP1 DUP3 SHL OR SWAP1 SSTORE JUMPDEST CALLER ISZERO PUSH3 0x1CB JUMPI PUSH1 0x6 SLOAD PUSH1 0x1 DUP1 PUSH1 0xA0 SHL SUB NOT SWAP2 CALLER DUP4 DUP4 AND OR PUSH1 0x6 SSTORE PUSH32 0x8BE0079C531659141344CD1FD0A4F28419497F9722A3DAAFE3B4186F6B6457E0 PUSH1 0x40 MLOAD SWAP6 CALLER SWAP4 AND SWAP2 DUP1 LOG3 PUSH1 0x7 SLOAD AND OR PUSH1 0x7 SSTORE PUSH2 0x1429 SWAP1 DUP2 PUSH3 0x3FB DUP3 CODECOPY RETURN JUMPDEST PUSH1 0x24 SWAP1 PUSH1 0x40 MLOAD SWAP1 PUSH4 0x1E4FBDF7 PUSH1 0xE0 SHL DUP3 MSTORE PUSH1 0x4 DUP3 ADD MSTORE REVERT JUMPDEST ADD MLOAD SWAP1 POP CODESIZE DUP1 PUSH3 0x15C JUMP JUMPDEST DUP7 SWAP6 SWAP4 SWAP3 SWAP2 SWAP4 AND DUP6 DUP9 MSTORE DUP4 DUP9 KECCAK256 SWAP4 DUP9 SWAP1 JUMPDEST DUP3 DUP3 LT PUSH3 0x23A JUMPI POP POP DUP5 GT PUSH3 0x220 JUMPI JUMPDEST POP POP POP DUP2 SHL ADD SWAP1 SSTORE PUSH3 0x170 JUMP JUMPDEST ADD MLOAD PUSH1 0x0 NOT PUSH1 0xF8 DUP5 PUSH1 0x3 SHL AND SHR NOT AND SWAP1 SSTORE CODESIZE DUP1 DUP1 PUSH3 0x212 JUMP JUMPDEST DUP5 DUP5 ADD MLOAD DUP7 SSTORE DUP9 SWAP8 SWAP1 SWAP6 ADD SWAP5 SWAP4 DUP5 ADD SWAP4 SWAP1 DUP2 ADD SWAP1 PUSH3 0x200 JUMP JUMPDEST SWAP1 SWAP2 SWAP3 SWAP4 SWAP5 POP DUP7 DUP9 MSTORE DUP3 DUP9 KECCAK256 DUP6 DUP1 DUP9 ADD PUSH1 0x5 SHR DUP3 ADD SWAP3 DUP6 DUP10 LT PUSH3 0x2A3 JUMPI JUMPDEST SWAP2 DUP9 SWAP8 DUP11 SWAP3 SWAP8 SWAP7 SWAP6 SWAP5 SWAP4 ADD PUSH1 0x5 SHR ADD SWAP2 JUMPDEST DUP3 DUP2 LT PUSH3 0x294 JUMPI POP POP PUSH3 0x145 JUMP JUMPDEST DUP11 DUP2 SSTORE DUP9 SWAP8 POP DUP10 SWAP2 ADD PUSH3 0x284 JUMP JUMPDEST SWAP3 POP DUP2 SWAP3 PUSH3 0x273 JUMP JUMPDEST PUSH4 0x4E487B71 PUSH1 0xE0 SHL DUP9 MSTORE PUSH1 0x22 PUSH1 0x4 MSTORE PUSH1 0x24 DUP9 REVERT JUMPDEST SWAP1 PUSH1 0x7F AND SWAP1 PUSH3 0x12D JUMP JUMPDEST PUSH4 0x4E487B71 PUSH1 0xE0 SHL DUP8 MSTORE PUSH1 0x41 PUSH1 0x4 MSTORE PUSH1 0x24 DUP8 REVERT JUMPDEST ADD MLOAD SWAP1 POP CODESIZE DUP1 PUSH3 0xFF JUMP JUMPDEST SWAP1 DUP5 DUP11 SWAP5 AND SWAP2 DUP12 DUP1 MSTORE DUP7 DUP13 KECCAK256 SWAP3 DUP13 JUMPDEST DUP9 DUP3 DUP3 LT PUSH3 0x336 JUMPI POP POP DUP5 GT PUSH3 0x31C JUMPI JUMPDEST POP POP POP DUP2 SHL ADD DUP8 SSTORE PUSH3 0x113 JUMP JUMPDEST ADD MLOAD PUSH1 0x0 NOT PUSH1 0xF8 DUP5 PUSH1 0x3 SHL AND SHR NOT AND SWAP1 SSTORE CODESIZE DUP1 DUP1 PUSH3 0x30E JUMP JUMPDEST DUP4 DUP6 ADD MLOAD DUP7 SSTORE DUP14 SWAP8 SWAP1 SWAP6 ADD SWAP5 SWAP4 DUP5 ADD SWAP4 ADD PUSH3 0x2FB JUMP JUMPDEST SWAP1 SWAP2 POP DUP10 DUP1 MSTORE DUP5 DUP11 KECCAK256 DUP8 DUP1 DUP6 ADD PUSH1 0x5 SHR DUP3 ADD SWAP3 DUP8 DUP7 LT PUSH3 0x396 JUMPI JUMPDEST SWAP2 DUP12 SWAP2 DUP7 SWAP6 SWAP5 SWAP4 ADD PUSH1 0x5 SHR ADD SWAP2 JUMPDEST DUP3 DUP2 LT PUSH3 0x387 JUMPI POP POP PUSH3 0xE9 JUMP JUMPDEST DUP13 DUP2 SSTORE DUP6 SWAP5 POP DUP12 SWAP2 ADD PUSH3 0x377 JUMP JUMPDEST SWAP3 POP DUP2 SWAP3 PUSH3 0x369 JUMP JUMPDEST PUSH4 0x4E487B71 PUSH1 0xE0 SHL DUP11 MSTORE PUSH1 0x22 PUSH1 0x4 MSTORE PUSH1 0x24 DUP11 REVERT JUMPDEST SWAP1 PUSH1 0x7F AND SWAP1 PUSH3 0xD4 JUMP JUMPDEST PUSH4 0x4E487B71 PUSH1 0xE0 SHL PUSH1 0x0 MSTORE PUSH1 0x41 PUSH1 0x4 MSTORE PUSH1 0x24 PUSH1 0x0 REVERT JUMPDEST PUSH1 0x0 DUP1 REVERT JUMPDEST PUSH1 0x40 DUP1 MLOAD SWAP2 SWAP1 DUP3 ADD PUSH1 0x1 PUSH1 0x1 PUSH1 0x40 SHL SUB DUP2 GT DUP4 DUP3 LT OR PUSH3 0x3BF JUMPI PUSH1 0x40 MSTORE JUMP INVALID PUSH1 0x80 DUP1 PUSH1 0x40 MSTORE PUSH1 0x4 CALLDATASIZE LT ISZERO PUSH2 0x13 JUMPI PUSH1 0x0 DUP1 REVERT JUMPDEST PUSH1 0x0 CALLDATALOAD PUSH1 0xE0 SHR SWAP1 DUP2 PUSH4 0x1FFC9A7 EQ PUSH2 0xE59 JUMPI POP DUP1 PUSH4 0x6FDDE03 EQ PUSH2 0xD98 JUMPI DUP1 PUSH4 0x81812FC EQ PUSH2 0xD5A JUMPI DUP1 PUSH4 0x95EA7B3 EQ PUSH2 0xC73 JUMPI DUP1 PUSH4 0x18160DDD EQ PUSH2 0xC55 JUMPI DUP1 PUSH4 0x23B872DD EQ PUSH2 0xC3E JUMPI DUP1 PUSH4 0x42842E0E EQ PUSH2 0xC10 JUMPI DUP1 PUSH4 0x6352211E EQ PUSH2 0xBE0 JUMPI DUP1 PUSH4 0x70A08231 EQ PUSH2 0xB87 JUMPI DUP1 PUSH4 0x715018A6 EQ PUSH2 0xB2A JUMPI DUP1 PUSH4 0x73AD6C2D EQ PUSH2 0xAE7 JUMPI DUP1 PUSH4 0x849B1B7E EQ PUSH2 0x699 JUMPI DUP1 PUSH4 0x8DA5CB5B EQ PUSH2 0x670 JUMPI DUP1 PUSH4 0x95D89B41 EQ PUSH2 0x55F JUMPI DUP1 PUSH4 0xA22CB465 EQ PUSH2 0x4BA JUMPI DUP1 PUSH4 0xABC8C7AF EQ PUSH2 0x491 JUMPI DUP1 PUSH4 0xB2DD1212 EQ PUSH2 0x375 JUMPI DUP1 PUSH4 0xB88D4FDE EQ PUSH2 0x2E0 JUMPI DUP1 PUSH4 0xC87B56DD EQ PUSH2 0x289 JUMPI DUP1 PUSH4 0xE985E9C5 EQ PUSH2 0x233 JUMPI DUP1 PUSH4 0xF2FDE38B EQ PUSH2 0x1AA JUMPI PUSH4 0xFE5EB754 EQ PUSH2 0x111 JUMPI PUSH1 0x0 DUP1 REVERT JUMPDEST CALLVALUE PUSH2 0x1A5 JUMPI PUSH1 0x40 CALLDATASIZE PUSH1 0x3 NOT ADD SLT PUSH2 0x1A5 JUMPI PUSH1 0x4 CALLDATALOAD PUSH1 0x24 CALLDATALOAD PUSH8 0xFFFFFFFFFFFFFFFF DUP2 AND DUP2 SUB PUSH2 0x1A5 JUMPI PUSH2 0x1A3 SWAP2 PUSH2 0x16D PUSH1 0x1 DUP1 PUSH1 0xA0 SHL SUB PUSH2 0x156 DUP2 PUSH1 0x7 SLOAD AND CALLER EQ PUSH2 0x11DE JUMP JUMPDEST DUP3 PUSH1 0x0 MSTORE PUSH1 0x2 PUSH1 0x20 MSTORE PUSH1 0x40 PUSH1 0x0 KECCAK256 SLOAD AND ISZERO ISZERO PUSH2 0x121D JUMP JUMPDEST PUSH1 0x0 MSTORE PUSH1 0x9 PUSH1 0x20 MSTORE PUSH1 0x1 PUSH1 0x40 PUSH1 0x0 KECCAK256 ADD SWAP1 PUSH10 0xFFFFFFFFFFFFFFFF0000 DUP3 SLOAD SWAP2 PUSH1 0x10 SHL AND SWAP1 PUSH10 0xFFFFFFFFFFFFFFFF0000 NOT AND OR SWAP1 SSTORE JUMP JUMPDEST STOP JUMPDEST PUSH1 0x0 DUP1 REVERT JUMPDEST CALLVALUE PUSH2 0x1A5 JUMPI PUSH1 0x20 CALLDATASIZE PUSH1 0x3 NOT ADD SLT PUSH2 0x1A5 JUMPI PUSH2 0x1C3 PUSH2 0xF04 JUMP JUMPDEST PUSH2 0x1CB PUSH2 0x1291 JUMP JUMPDEST PUSH1 0x1 PUSH1 0x1 PUSH1 0xA0 SHL SUB SWAP1 DUP2 AND SWAP1 DUP2 ISZERO PUSH2 0x21A JUMPI PUSH1 0x6 SLOAD DUP3 PUSH1 0x1 PUSH1 0x1 PUSH1 0x60 SHL SUB PUSH1 0xA0 SHL DUP3 AND OR PUSH1 0x6 SSTORE AND PUSH32 0x8BE0079C531659141344CD1FD0A4F28419497F9722A3DAAFE3B4186F6B6457E0 PUSH1 0x0 DUP1 LOG3 STOP JUMPDEST PUSH1 0x40 MLOAD PUSH4 0x1E4FBDF7 PUSH1 0xE0 SHL DUP2 MSTORE PUSH1 0x0 PUSH1 0x4 DUP3 ADD MSTORE PUSH1 0x24 SWAP1 REVERT JUMPDEST CALLVALUE PUSH2 0x1A5 JUMPI PUSH1 0x40 CALLDATASIZE PUSH1 0x3 NOT ADD SLT PUSH2 0x1A5 JUMPI PUSH2 0x24C PUSH2 0xF04 JUMP JUMPDEST PUSH2 0x254 PUSH2 0xF1A JUMP JUMPDEST SWAP1 PUSH1 0x1 DUP1 PUSH1 0xA0 SHL SUB DUP1 SWAP2 AND PUSH1 0x0 MSTORE PUSH1 0x5 PUSH1 0x20 MSTORE PUSH1 0x40 PUSH1 0x0 KECCAK256 SWAP2 AND PUSH1 0x0 MSTORE PUSH1 0x20 MSTORE PUSH1 0x20 PUSH1 0xFF PUSH1 0x40 PUSH1 0x0 KECCAK256 SLOAD AND PUSH1 0x40 MLOAD SWAP1 ISZERO ISZERO DUP2 MSTORE RETURN JUMPDEST CALLVALUE PUSH2 0x1A5 JUMPI PUSH1 0x20 CALLDATASIZE PUSH1 0x3 NOT ADD SLT PUSH2 0x1A5 JUMPI PUSH2 0x2A5 PUSH1 0x4 CALLDATALOAD PUSH2 0x1256 JUMP JUMPDEST POP PUSH1 0x0 PUSH1 0x40 MLOAD PUSH2 0x2B4 DUP2 PUSH2 0xF97 JUMP JUMPDEST MSTORE PUSH2 0x2DC PUSH1 0x40 MLOAD PUSH2 0x2C4 DUP2 PUSH2 0xF97 JUMP JUMPDEST PUSH1 0x0 DUP2 MSTORE PUSH1 0x40 MLOAD SWAP2 DUP3 SWAP2 PUSH1 0x20 DUP4 MSTORE PUSH1 0x20 DUP4 ADD SWAP1 PUSH2 0xEC4 JUMP JUMPDEST SUB SWAP1 RETURN JUMPDEST CALLVALUE PUSH2 0x1A5 JUMPI PUSH1 0x80 CALLDATASIZE PUSH1 0x3 NOT ADD SLT PUSH2 0x1A5 JUMPI PUSH2 0x2F9 PUSH2 0xF04 JUMP JUMPDEST PUSH2 0x301 PUSH2 0xF1A JUMP JUMPDEST SWAP1 PUSH1 0x44 CALLDATALOAD PUSH1 0x64 CALLDATALOAD SWAP3 PUSH8 0xFFFFFFFFFFFFFFFF DUP5 GT PUSH2 0x1A5 JUMPI CALLDATASIZE PUSH1 0x23 DUP6 ADD SLT ISZERO PUSH2 0x1A5 JUMPI DUP4 PUSH1 0x4 ADD CALLDATALOAD SWAP3 PUSH2 0x332 DUP5 PUSH2 0xFD5 JUMP JUMPDEST SWAP4 PUSH2 0x340 PUSH1 0x40 MLOAD SWAP6 DUP7 PUSH2 0xFB3 JUMP JUMPDEST DUP1 DUP6 MSTORE CALLDATASIZE PUSH1 0x24 DUP3 DUP9 ADD ADD GT PUSH2 0x1A5 JUMPI PUSH1 0x20 DUP2 PUSH1 0x0 SWAP3 PUSH1 0x24 PUSH2 0x1A3 SWAP10 ADD DUP4 DUP10 ADD CALLDATACOPY DUP7 ADD ADD MSTORE PUSH2 0x36F DUP4 DUP4 DUP4 PUSH2 0xFF1 JUMP JUMPDEST CALLER PUSH2 0x12BD JUMP JUMPDEST CALLVALUE PUSH2 0x1A5 JUMPI PUSH1 0x20 DUP1 PUSH1 0x3 NOT CALLDATASIZE ADD SLT PUSH2 0x1A5 JUMPI PUSH1 0xE0 SWAP1 PUSH1 0x4 CALLDATALOAD PUSH1 0x0 PUSH1 0xC0 PUSH1 0x40 MLOAD PUSH2 0x39D DUP2 PUSH2 0xF65 JUMP JUMPDEST DUP3 DUP2 MSTORE DUP3 DUP6 DUP3 ADD MSTORE DUP3 PUSH1 0x40 DUP3 ADD MSTORE DUP3 PUSH1 0x60 DUP3 ADD MSTORE DUP3 PUSH1 0x80 DUP3 ADD MSTORE DUP3 PUSH1 0xA0 DUP3 ADD MSTORE ADD MSTORE DUP1 PUSH1 0x0 MSTORE PUSH1 0x2 DUP3 MSTORE PUSH2 0x3DF PUSH1 0x1 DUP1 PUSH1 0xA0 SHL SUB PUSH1 0x40 PUSH1 0x0 KECCAK256 SLOAD AND ISZERO ISZERO PUSH2 0x121D JUMP JUMPDEST PUSH1 0x0 MSTORE PUSH1 0x9 DUP2 MSTORE PUSH1 0x3 PUSH1 0x40 PUSH1 0x0 KECCAK256 PUSH1 0x40 MLOAD SWAP1 PUSH2 0x3FA DUP3 PUSH2 0xF65 JUMP JUMPDEST DUP1 SLOAD SWAP4 DUP5 DUP4 MSTORE PUSH1 0x1 DUP3 ADD SLOAD SWAP1 DUP1 DUP5 ADD PUSH1 0xFF DUP4 AND DUP2 MSTORE PUSH1 0xFF PUSH1 0x40 DUP7 ADD DUP2 DUP6 PUSH1 0x8 SHR AND DUP2 MSTORE PUSH8 0xFFFFFFFFFFFFFFFF SWAP4 DUP3 PUSH1 0x60 DUP10 ADD SWAP5 DUP7 DUP9 PUSH1 0x10 SHR AND DUP7 MSTORE DUP2 PUSH1 0x80 DUP12 ADD SWAP9 PUSH1 0x50 SHR AND ISZERO ISZERO DUP9 MSTORE PUSH1 0xC0 PUSH1 0x2 DUP11 ADD SLOAD SWAP10 PUSH1 0xA0 DUP13 ADD SWAP11 DUP12 MSTORE PUSH2 0xFFFF SWAP13 DUP14 SWAP2 ADD SLOAD AND SWAP11 ADD SWAP10 DUP11 MSTORE PUSH1 0x40 MLOAD SWAP12 DUP13 MSTORE MLOAD AND SWAP1 DUP11 ADD MSTORE MLOAD AND PUSH1 0x40 DUP9 ADD MSTORE MLOAD AND PUSH1 0x60 DUP7 ADD MSTORE MLOAD ISZERO ISZERO PUSH1 0x80 DUP6 ADD MSTORE MLOAD PUSH1 0xA0 DUP5 ADD MSTORE MLOAD AND PUSH1 0xC0 DUP3 ADD MSTORE RETURN JUMPDEST CALLVALUE PUSH2 0x1A5 JUMPI PUSH1 0x0 CALLDATASIZE PUSH1 0x3 NOT ADD SLT PUSH2 0x1A5 JUMPI PUSH1 0x7 SLOAD PUSH1 0x40 MLOAD PUSH1 0x1 PUSH1 0x1 PUSH1 0xA0 SHL SUB SWAP1 SWAP2 AND DUP2 MSTORE PUSH1 0x20 SWAP1 RETURN JUMPDEST CALLVALUE PUSH2 0x1A5 JUMPI PUSH1 0x40 CALLDATASIZE PUSH1 0x3 NOT ADD SLT PUSH2 0x1A5 JUMPI PUSH2 0x4D3 PUSH2 0xF04 JUMP JUMPDEST PUSH1 0x24 CALLDATALOAD SWAP1 DUP2 ISZERO ISZERO DUP1 SWAP3 SUB PUSH2 0x1A5 JUMPI PUSH1 0x1 PUSH1 0x1 PUSH1 0xA0 SHL SUB AND SWAP1 DUP2 ISZERO PUSH2 0x546 JUMPI CALLER PUSH1 0x0 MSTORE PUSH1 0x5 PUSH1 0x20 MSTORE PUSH1 0x40 PUSH1 0x0 KECCAK256 DUP3 PUSH1 0x0 MSTORE PUSH1 0x20 MSTORE PUSH1 0x40 PUSH1 0x0 KECCAK256 PUSH1 0xFF NOT DUP2 SLOAD AND PUSH1 0xFF DUP4 AND OR SWAP1 SSTORE PUSH1 0x40 MLOAD SWAP1 DUP2 MSTORE PUSH32 0x17307EAB39AB6107E8899845AD3D59BD9653F200F220920489CA2B5937696C31 PUSH1 0x20 CALLER SWAP3 LOG3 STOP JUMPDEST PUSH1 0x40 MLOAD PUSH4 0xB611743 PUSH1 0xE3 SHL DUP2 MSTORE PUSH1 0x4 DUP2 ADD DUP4 SWAP1 MSTORE PUSH1 0x24 SWAP1 REVERT JUMPDEST CALLVALUE PUSH2 0x1A5 JUMPI PUSH1 0x0 CALLDATASIZE PUSH1 0x3 NOT ADD SLT PUSH2 0x1A5 JUMPI PUSH1 0x40 MLOAD PUSH1 0x0 PUSH1 0x1 SWAP1 PUSH1 0x1 SLOAD SWAP2 DUP3 PUSH1 0x1 SHR SWAP2 PUSH1 0x1 DUP5 AND SWAP2 DUP3 ISZERO PUSH2 0x666 JUMPI JUMPDEST PUSH1 0x20 SWAP5 DUP6 DUP6 LT DUP5 EQ PUSH2 0x650 JUMPI DUP6 DUP8 SWAP5 DUP7 DUP7 MSTORE SWAP2 DUP3 PUSH1 0x0 EQ PUSH2 0x630 JUMPI POP POP PUSH1 0x1 EQ PUSH2 0x5D3 JUMPI JUMPDEST POP PUSH2 0x5BF SWAP3 POP SUB DUP4 PUSH2 0xFB3 JUMP JUMPDEST PUSH2 0x2DC PUSH1 0x40 MLOAD SWAP3 DUP3 DUP5 SWAP4 DUP5 MSTORE DUP4 ADD SWAP1 PUSH2 0xEC4 JUMP JUMPDEST DUP5 SWAP2 POP PUSH1 0x1 PUSH1 0x0 MSTORE PUSH32 0xB10E2D527612073B26EECDFD717E6A320CF44B4AFAC2B0732D9FCBE2B7FA0CF6 SWAP1 PUSH1 0x0 SWAP2 JUMPDEST DUP6 DUP4 LT PUSH2 0x618 JUMPI POP POP PUSH2 0x5BF SWAP4 POP DUP3 ADD ADD DUP6 PUSH2 0x5B2 JUMP JUMPDEST DUP1 SLOAD DUP4 DUP10 ADD DUP6 ADD MSTORE DUP8 SWAP5 POP DUP7 SWAP4 SWAP1 SWAP3 ADD SWAP2 DUP2 ADD PUSH2 0x601 JUMP JUMPDEST PUSH1 0xFF NOT AND DUP6 DUP3 ADD MSTORE PUSH2 0x5BF SWAP6 ISZERO ISZERO PUSH1 0x5 SHL DUP6 ADD ADD SWAP3 POP DUP8 SWAP2 POP PUSH2 0x5B2 SWAP1 POP JUMP JUMPDEST PUSH4 0x4E487B71 PUSH1 0xE0 SHL PUSH1 0x0 MSTORE PUSH1 0x22 PUSH1 0x4 MSTORE PUSH1 0x24 PUSH1 0x0 REVERT JUMPDEST SWAP3 PUSH1 0x7F AND SWAP3 PUSH2 0x58D JUMP JUMPDEST CALLVALUE PUSH2 0x1A5 JUMPI PUSH1 0x0 CALLDATASIZE PUSH1 0x3 NOT ADD SLT PUSH2 0x1A5 JUMPI PUSH1 0x6 SLOAD PUSH1 0x40 MLOAD PUSH1 0x1 PUSH1 0x1 PUSH1 0xA0 SHL SUB SWAP1 SWAP2 AND DUP2 MSTORE PUSH1 0x20 SWAP1 RETURN JUMPDEST CALLVALUE PUSH2 0x1A5 JUMPI PUSH2 0x100 CALLDATASIZE PUSH1 0x3 NOT ADD SLT PUSH2 0x1A5 JUMPI PUSH2 0x6B3 PUSH2 0xF04 JUMP JUMPDEST PUSH1 0xE0 CALLDATASIZE PUSH1 0x23 NOT ADD SLT PUSH2 0x1A5 JUMPI PUSH1 0x40 MLOAD SWAP1 PUSH2 0x6CC DUP3 PUSH2 0xF65 JUMP JUMPDEST PUSH1 0x24 CALLDATALOAD DUP3 MSTORE PUSH1 0x44 CALLDATALOAD PUSH1 0xFF DUP2 AND DUP2 SUB PUSH2 0x1A5 JUMPI PUSH1 0x20 DUP4 ADD MSTORE PUSH1 0x64 CALLDATALOAD PUSH1 0xFF DUP2 AND DUP2 SUB PUSH2 0x1A5 JUMPI PUSH1 0x40 DUP4 ADD MSTORE PUSH1 0x84 CALLDATALOAD PUSH8 0xFFFFFFFFFFFFFFFF DUP2 AND DUP2 SUB PUSH2 0x1A5 JUMPI PUSH1 0x60 DUP4 ADD MSTORE PUSH1 0xA4 CALLDATALOAD DUP1 ISZERO ISZERO DUP2 SUB PUSH2 0x1A5 JUMPI PUSH1 0x80 DUP4 ADD MSTORE PUSH1 0xC4 CALLDATALOAD PUSH1 0xA0 DUP4 ADD MSTORE PUSH1 0xE4 CALLDATALOAD PUSH2 0xFFFF DUP2 AND DUP2 SUB PUSH2 0x1A5 JUMPI PUSH1 0xC0 DUP4 ADD MSTORE PUSH2 0x74F PUSH1 0x1 DUP1 PUSH1 0xA0 SHL SUB PUSH1 0x7 SLOAD AND CALLER EQ PUSH2 0x11DE JUMP JUMPDEST PUSH1 0x8 SLOAD SWAP2 PUSH1 0x0 NOT DUP4 EQ PUSH2 0xAD1 JUMPI PUSH1 0x1 DUP4 ADD PUSH1 0x8 SSTORE PUSH1 0x1 DUP4 ADD PUSH1 0x0 MSTORE PUSH1 0x9 PUSH1 0x20 MSTORE PUSH1 0x40 PUSH1 0x0 KECCAK256 DUP2 MLOAD DUP2 SSTORE PUSH2 0xFFFF PUSH1 0xC0 PUSH1 0x3 PUSH1 0x1 DUP5 ADD SWAP4 PUSH1 0xFF PUSH1 0x20 DUP8 ADD MLOAD AND SWAP5 DUP1 SLOAD SWAP6 PUSH2 0xFF00 PUSH1 0x40 DUP10 ADD MLOAD PUSH1 0x8 SHL AND SWAP1 DUP7 NOT DUP1 SWAP9 AND OR OR DUP2 SSTORE PUSH2 0x7DF PUSH8 0xFFFFFFFFFFFFFFFF PUSH1 0x60 DUP10 ADD MLOAD AND DUP3 SWAP1 PUSH10 0xFFFFFFFFFFFFFFFF0000 DUP3 SLOAD SWAP2 PUSH1 0x10 SHL AND SWAP1 PUSH10 0xFFFFFFFFFFFFFFFF0000 NOT AND OR SWAP1 SSTORE JUMP JUMPDEST PUSH1 0x80 DUP8 ADD MLOAD ISZERO ISZERO DUP2 SLOAD SWAP1 PUSH1 0xFF PUSH1 0x50 SHL SWAP1 PUSH1 0x50 SHL AND SWAP1 PUSH1 0xFF PUSH1 0x50 SHL NOT AND OR SWAP1 SSTORE PUSH1 0xA0 DUP7 ADD MLOAD PUSH1 0x2 DUP3 ADD SSTORE ADD SWAP4 ADD MLOAD AND SWAP1 DUP3 SLOAD AND OR SWAP1 SSTORE PUSH1 0x40 MLOAD PUSH2 0x820 DUP2 PUSH2 0xF97 JUMP JUMPDEST PUSH1 0x0 DUP2 MSTORE PUSH1 0x1 PUSH1 0x1 PUSH1 0xA0 SHL SUB DUP3 AND SWAP2 DUP3 ISZERO PUSH2 0xAB8 JUMPI PUSH1 0x1 DUP5 ADD PUSH1 0x0 SWAP1 DUP2 MSTORE PUSH1 0x2 PUSH1 0x20 MSTORE PUSH1 0x40 SWAP1 KECCAK256 SLOAD PUSH1 0x1 PUSH1 0x1 PUSH1 0xA0 SHL SUB AND DUP1 ISZERO ISZERO SWAP1 DUP2 PUSH2 0xA77 JUMPI JUMPDEST DUP5 PUSH1 0x0 MSTORE PUSH1 0x3 PUSH1 0x20 MSTORE PUSH1 0x40 PUSH1 0x0 KECCAK256 PUSH1 0x1 DUP2 SLOAD ADD SWAP1 SSTORE PUSH1 0x1 DUP7 ADD PUSH1 0x0 MSTORE PUSH1 0x2 PUSH1 0x20 MSTORE PUSH1 0x40 PUSH1 0x0 KECCAK256 DUP6 PUSH1 0x1 PUSH1 0x1 PUSH1 0x60 SHL SUB PUSH1 0xA0 SHL DUP3 SLOAD AND OR SWAP1 SSTORE PUSH1 0x40 MLOAD SWAP1 DUP6 PUSH1 0x1 DUP9 ADD SWAP2 PUSH32 0xDDF252AD1BE2C89B69C2B068FC378DAA952BA7F163C4A11628F55A4DF523B3EF PUSH1 0x0 DUP1 LOG4 DUP2 DUP1 PUSH2 0xA6F JUMPI JUMPDEST PUSH2 0xA22 JUMPI JUMPDEST POP PUSH2 0xA09 JUMPI EXTCODESIZE PUSH2 0x8E7 JUMPI JUMPDEST PUSH1 0x20 DUP4 PUSH1 0x1 PUSH1 0x40 MLOAD SWAP2 ADD DUP2 MSTORE RETURN JUMPDEST PUSH1 0x40 MLOAD PUSH1 0x20 DUP2 DUP1 PUSH2 0x924 PUSH4 0xA85BD01 PUSH1 0xE1 SHL SWAP6 DUP7 DUP4 MSTORE CALLER PUSH1 0x4 DUP5 ADD MSTORE PUSH1 0x0 PUSH1 0x24 DUP5 ADD MSTORE PUSH1 0x1 DUP10 ADD PUSH1 0x44 DUP5 ADD MSTORE PUSH1 0x80 PUSH1 0x64 DUP5 ADD MSTORE PUSH1 0x84 DUP4 ADD SWAP1 PUSH2 0xEC4 JUMP JUMPDEST SUB DUP2 PUSH1 0x0 DUP8 GAS CALL PUSH1 0x0 SWAP2 DUP2 PUSH2 0x9C4 JUMPI JUMPDEST POP PUSH2 0x994 JUMPI DUP3 RETURNDATASIZE ISZERO PUSH2 0x98C JUMPI RETURNDATASIZE SWAP1 PUSH2 0x94B DUP3 PUSH2 0xFD5 JUMP JUMPDEST SWAP2 PUSH2 0x959 PUSH1 0x40 MLOAD SWAP4 DUP5 PUSH2 0xFB3 JUMP JUMPDEST DUP3 MSTORE RETURNDATASIZE PUSH1 0x0 PUSH1 0x20 DUP5 ADD RETURNDATACOPY JUMPDEST DUP2 MLOAD SWAP2 DUP3 PUSH2 0x985 JUMPI PUSH1 0x40 MLOAD PUSH4 0x32505749 PUSH1 0xE1 SHL DUP2 MSTORE PUSH1 0x4 DUP2 ADD DUP4 SWAP1 MSTORE PUSH1 0x24 SWAP1 REVERT JUMPDEST PUSH1 0x20 SWAP2 POP ADD REVERT JUMPDEST PUSH1 0x60 SWAP1 PUSH2 0x964 JUMP JUMPDEST PUSH1 0x1 PUSH1 0x1 PUSH1 0xE0 SHL SUB NOT AND SUB PUSH2 0x9AC JUMPI POP PUSH1 0x20 DUP3 PUSH2 0x8D9 JUMP JUMPDEST PUSH1 0x24 SWAP1 PUSH1 0x40 MLOAD SWAP1 PUSH4 0x32505749 PUSH1 0xE1 SHL DUP3 MSTORE PUSH1 0x4 DUP3 ADD MSTORE REVERT JUMPDEST SWAP1 SWAP2 POP PUSH1 0x20 DUP2 RETURNDATASIZE PUSH1 0x20 GT PUSH2 0xA01 JUMPI JUMPDEST DUP2 PUSH2 0x9E0 PUSH1 0x20 SWAP4 DUP4 PUSH2 0xFB3 JUMP JUMPDEST DUP2 ADD SUB SLT PUSH2 0x1A5 JUMPI MLOAD PUSH1 0x1 PUSH1 0x1 PUSH1 0xE0 SHL SUB NOT DUP2 AND DUP2 SUB PUSH2 0x1A5 JUMPI SWAP1 DUP6 PUSH2 0x934 JUMP JUMPDEST RETURNDATASIZE SWAP2 POP PUSH2 0x9D3 JUMP JUMPDEST PUSH1 0x40 MLOAD PUSH4 0x39E35637 PUSH1 0xE1 SHL DUP2 MSTORE PUSH1 0x0 PUSH1 0x4 DUP3 ADD MSTORE PUSH1 0x24 SWAP1 REVERT JUMPDEST PUSH1 0x9 PUSH1 0x20 MSTORE PUSH1 0xFF PUSH1 0x1 PUSH1 0x40 PUSH1 0x0 KECCAK256 ADD SLOAD PUSH1 0x50 SHR AND PUSH2 0x8CE JUMPI PUSH3 0x461BCD PUSH1 0xE5 SHL DUP2 MSTORE PUSH1 0x20 PUSH1 0x4 DUP3 ADD MSTORE PUSH1 0x10 PUSH1 0x24 DUP3 ADD MSTORE PUSH16 0x6E6F74207472616E7366657261626C65 PUSH1 0x80 SHL PUSH1 0x44 DUP3 ADD MSTORE PUSH1 0x64 SWAP1 REVERT JUMPDEST POP PUSH1 0x1 PUSH2 0x8C9 JUMP JUMPDEST PUSH2 0xA9D PUSH1 0x1 DUP8 ADD PUSH1 0x0 MSTORE PUSH1 0x4 PUSH1 0x20 MSTORE PUSH1 0x40 PUSH1 0x0 KECCAK256 PUSH1 0x1 PUSH1 0x1 PUSH1 0x60 SHL SUB PUSH1 0xA0 SHL DUP2 SLOAD AND SWAP1 SSTORE JUMP JUMPDEST DUP1 PUSH1 0x0 MSTORE PUSH1 0x3 PUSH1 0x20 MSTORE PUSH1 0x40 PUSH1 0x0 KECCAK256 PUSH1 0x0 NOT DUP2 SLOAD ADD SWAP1 SSTORE PUSH2 0x85B JUMP JUMPDEST PUSH1 0x40 MLOAD PUSH4 0x32505749 PUSH1 0xE1 SHL DUP2 MSTORE PUSH1 0x0 PUSH1 0x4 DUP3 ADD MSTORE PUSH1 0x24 SWAP1 REVERT JUMPDEST PUSH4 0x4E487B71 PUSH1 0xE0 SHL PUSH1 0x0 MSTORE PUSH1 0x11 PUSH1 0x4 MSTORE PUSH1 0x24 PUSH1 0x0 REVERT JUMPDEST CALLVALUE PUSH2 0x1A5 JUMPI PUSH1 0x20 CALLDATASIZE PUSH1 0x3 NOT ADD SLT PUSH2 0x1A5 JUMPI PUSH2 0xB00 PUSH2 0xF04 JUMP JUMPDEST PUSH2 0xB08 PUSH2 0x1291 JUMP JUMPDEST PUSH1 0x7 DUP1 SLOAD PUSH1 0x1 PUSH1 0x1 PUSH1 0xA0 SHL SUB NOT AND PUSH1 0x1 PUSH1 0x1 PUSH1 0xA0 SHL SUB SWAP3 SWAP1 SWAP3 AND SWAP2 SWAP1 SWAP2 OR SWAP1 SSTORE STOP JUMPDEST CALLVALUE PUSH2 0x1A5 JUMPI PUSH1 0x0 CALLDATASIZE PUSH1 0x3 NOT ADD SLT PUSH2 0x1A5 JUMPI PUSH2 0xB43 PUSH2 0x1291 JUMP JUMPDEST PUSH1 0x6 DUP1 SLOAD PUSH1 0x1 PUSH1 0x1 PUSH1 0xA0 SHL SUB NOT DUP2 AND SWAP1 SWAP2 SSTORE PUSH1 0x0 SWAP1 PUSH1 0x1 PUSH1 0x1 PUSH1 0xA0 SHL SUB AND PUSH32 0x8BE0079C531659141344CD1FD0A4F28419497F9722A3DAAFE3B4186F6B6457E0 DUP3 DUP1 LOG3 STOP JUMPDEST CALLVALUE PUSH2 0x1A5 JUMPI PUSH1 0x20 CALLDATASIZE PUSH1 0x3 NOT ADD SLT PUSH2 0x1A5 JUMPI PUSH1 0x1 PUSH1 0x1 PUSH1 0xA0 SHL SUB PUSH2 0xBA8 PUSH2 0xF04 JUMP JUMPDEST AND DUP1 ISZERO PUSH2 0xBC7 JUMPI PUSH1 0x0 MSTORE PUSH1 0x3 PUSH1 0x20 MSTORE PUSH1 0x20 PUSH1 0x40 PUSH1 0x0 KECCAK256 SLOAD PUSH1 0x40 MLOAD SWAP1 DUP2 MSTORE RETURN JUMPDEST PUSH1 0x40 MLOAD PUSH4 0x22718AD9 PUSH1 0xE2 SHL DUP2 MSTORE PUSH1 0x0 PUSH1 0x4 DUP3 ADD MSTORE PUSH1 0x24 SWAP1 REVERT JUMPDEST CALLVALUE PUSH2 0x1A5 JUMPI PUSH1 0x20 CALLDATASIZE PUSH1 0x3 NOT ADD SLT PUSH2 0x1A5 JUMPI PUSH1 0x20 PUSH2 0xBFE PUSH1 0x4 CALLDATALOAD PUSH2 0x1256 JUMP JUMPDEST PUSH1 0x40 MLOAD PUSH1 0x1 PUSH1 0x1 PUSH1 0xA0 SHL SUB SWAP1 SWAP2 AND DUP2 MSTORE RETURN JUMPDEST CALLVALUE PUSH2 0x1A5 JUMPI PUSH2 0x1A3 PUSH2 0xC21 CALLDATASIZE PUSH2 0xF30 JUMP JUMPDEST SWAP1 PUSH1 0x40 MLOAD SWAP3 PUSH2 0xC2F DUP5 PUSH2 0xF97 JUMP JUMPDEST PUSH1 0x0 DUP5 MSTORE PUSH2 0x36F DUP4 DUP4 DUP4 PUSH2 0xFF1 JUMP JUMPDEST CALLVALUE PUSH2 0x1A5 JUMPI PUSH2 0x1A3 PUSH2 0xC4F CALLDATASIZE PUSH2 0xF30 JUMP JUMPDEST SWAP2 PUSH2 0xFF1 JUMP JUMPDEST CALLVALUE PUSH2 0x1A5 JUMPI PUSH1 0x0 CALLDATASIZE PUSH1 0x3 NOT ADD SLT PUSH2 0x1A5 JUMPI PUSH1 0x20 PUSH1 0x8 SLOAD PUSH1 0x40 MLOAD SWAP1 DUP2 MSTORE RETURN JUMPDEST CALLVALUE PUSH2 0x1A5 JUMPI PUSH1 0x40 CALLDATASIZE PUSH1 0x3 NOT ADD SLT PUSH2 0x1A5 JUMPI PUSH2 0xC8C PUSH2 0xF04 JUMP JUMPDEST PUSH1 0x24 CALLDATALOAD PUSH2 0xC98 DUP2 PUSH2 0x1256 JUMP JUMPDEST CALLER ISZERO ISZERO DUP1 PUSH2 0xD47 JUMPI JUMPDEST DUP1 PUSH2 0xD1A JUMPI JUMPDEST PUSH2 0xD02 JUMPI PUSH1 0x1 PUSH1 0x1 PUSH1 0xA0 SHL SUB SWAP3 DUP4 AND SWAP3 DUP3 SWAP2 DUP5 SWAP2 AND PUSH32 0x8C5BE1E5EBEC7D5BD14F71427D1E84F3DD0314C0F7B2291E5B200AC8C7C3B925 PUSH1 0x0 DUP1 LOG4 PUSH1 0x0 SWAP1 DUP2 MSTORE PUSH1 0x4 PUSH1 0x20 MSTORE PUSH1 0x40 SWAP1 KECCAK256 DUP1 SLOAD PUSH1 0x1 PUSH1 0x1 PUSH1 0xA0 SHL SUB NOT AND SWAP1 SWAP2 OR SWAP1 SSTORE STOP JUMPDEST PUSH1 0x40 MLOAD PUSH4 0xA9FBF51F PUSH1 0xE0 SHL DUP2 MSTORE CALLER PUSH1 0x4 DUP3 ADD MSTORE PUSH1 0x24 SWAP1 REVERT JUMPDEST POP PUSH1 0x1 DUP1 PUSH1 0xA0 SHL SUB DUP2 AND PUSH1 0x0 MSTORE PUSH1 0x5 PUSH1 0x20 MSTORE PUSH1 0x40 PUSH1 0x0 KECCAK256 CALLER PUSH1 0x0 MSTORE PUSH1 0x20 MSTORE PUSH1 0xFF PUSH1 0x40 PUSH1 0x0 KECCAK256 SLOAD AND ISZERO PUSH2 0xCA7 JUMP JUMPDEST POP PUSH1 0x1 PUSH1 0x1 PUSH1 0xA0 SHL SUB DUP2 AND CALLER EQ ISZERO PUSH2 0xCA1 JUMP JUMPDEST CALLVALUE PUSH2 0x1A5 JUMPI PUSH1 0x20 CALLDATASIZE PUSH1 0x3 NOT ADD SLT PUSH2 0x1A5 JUMPI PUSH1 0x4 CALLDATALOAD PUSH2 0xD77 DUP2 PUSH2 0x1256 JUMP JUMPDEST POP PUSH1 0x0 MSTORE PUSH1 0x4 PUSH1 0x20 MSTORE PUSH1 0x20 PUSH1 0x1 DUP1 PUSH1 0xA0 SHL SUB PUSH1 0x40 PUSH1 0x0 KECCAK256 SLOAD AND PUSH1 0x40 MLOAD SWAP1 DUP2 MSTORE RETURN JUMPDEST CALLVALUE PUSH2 0x1A5 JUMPI PUSH1 0x0 CALLDATASIZE PUSH1 0x3 NOT ADD SLT PUSH2 0x1A5 JUMPI PUSH1 0x40 MLOAD PUSH1 0x0 DUP1 SLOAD SWAP1 PUSH1 0x1 DUP3 PUSH1 0x1 SHR SWAP2 PUSH1 0x1 DUP5 AND SWAP2 DUP3 ISZERO PUSH2 0xE4F JUMPI JUMPDEST PUSH1 0x20 SWAP5 DUP6 DUP6 LT DUP5 EQ PUSH2 0x650 JUMPI DUP6 DUP8 SWAP5 DUP7 DUP7 MSTORE SWAP2 DUP3 PUSH1 0x0 EQ PUSH2 0x630 JUMPI POP POP PUSH1 0x1 EQ PUSH2 0xDF5 JUMPI POP PUSH2 0x5BF SWAP3 POP SUB DUP4 PUSH2 0xFB3 JUMP JUMPDEST PUSH1 0x0 DUP1 DUP1 MSTORE DUP6 SWAP3 POP SWAP1 PUSH32 0x290DECD9548B62A8D60345A988386FC84BA6BC95484008F6362F93160EF3E563 JUMPDEST DUP6 DUP4 LT PUSH2 0xE37 JUMPI POP POP PUSH2 0x5BF SWAP4 POP DUP3 ADD ADD DUP6 PUSH2 0x5B2 JUMP JUMPDEST DUP1 SLOAD DUP4 DUP10 ADD DUP6 ADD MSTORE DUP8 SWAP5 POP DUP7 SWAP4 SWAP1 SWAP3 ADD SWAP2 DUP2 ADD PUSH2 0xE20 JUMP JUMPDEST SWAP3 PUSH1 0x7F AND SWAP3 PUSH2 0xDC4 JUMP JUMPDEST CALLVALUE PUSH2 0x1A5 JUMPI PUSH1 0x20 CALLDATASIZE PUSH1 0x3 NOT ADD SLT PUSH2 0x1A5 JUMPI PUSH1 0x4 CALLDATALOAD SWAP1 PUSH4 0xFFFFFFFF PUSH1 0xE0 SHL DUP3 AND DUP1 SWAP3 SUB PUSH2 0x1A5 JUMPI PUSH1 0x20 SWAP2 PUSH4 0x80AC58CD PUSH1 0xE0 SHL DUP2 EQ SWAP1 DUP2 ISZERO PUSH2 0xEB3 JUMPI JUMPDEST DUP2 ISZERO PUSH2 0xEA2 JUMPI JUMPDEST POP ISZERO ISZERO DUP2 MSTORE RETURN JUMPDEST PUSH4 0x1FFC9A7 PUSH1 0xE0 SHL EQ SWAP1 POP DUP4 PUSH2 0xE9B JUMP JUMPDEST PUSH4 0x5B5E139F PUSH1 0xE0 SHL DUP2 EQ SWAP2 POP PUSH2 0xE94 JUMP JUMPDEST SWAP2 SWAP1 DUP3 MLOAD SWAP3 DUP4 DUP3 MSTORE PUSH1 0x0 JUMPDEST DUP5 DUP2 LT PUSH2 0xEF0 JUMPI POP POP DUP3 PUSH1 0x0 PUSH1 0x20 DUP1 SWAP5 SWAP6 DUP5 ADD ADD MSTORE PUSH1 0x1F DUP1 NOT SWAP2 ADD AND ADD ADD SWAP1 JUMP JUMPDEST PUSH1 0x20 DUP2 DUP4 ADD DUP2 ADD MLOAD DUP5 DUP4 ADD DUP3 ADD MSTORE ADD PUSH2 0xECF JUMP JUMPDEST PUSH1 0x4 CALLDATALOAD SWAP1 PUSH1 0x1 PUSH1 0x1 PUSH1 0xA0 SHL SUB DUP3 AND DUP3 SUB PUSH2 0x1A5 JUMPI JUMP JUMPDEST PUSH1 0x24 CALLDATALOAD SWAP1 PUSH1 0x1 PUSH1 0x1 PUSH1 0xA0 SHL SUB DUP3 AND DUP3 SUB PUSH2 0x1A5 JUMPI JUMP JUMPDEST PUSH1 0x60 SWAP1 PUSH1 0x3 NOT ADD SLT PUSH2 0x1A5 JUMPI PUSH1 0x1 PUSH1 0x1 PUSH1 0xA0 SHL SUB SWAP1 PUSH1 0x4 CALLDATALOAD DUP3 DUP2 AND DUP2 SUB PUSH2 0x1A5 JUMPI SWAP2 PUSH1 0x24 CALLDATALOAD SWAP1 DUP2 AND DUP2 SUB PUSH2 0x1A5 JUMPI SWAP1 PUSH1 0x44 CALLDATALOAD SWAP1 JUMP JUMPDEST PUSH1 0xE0 DUP2 ADD SWAP1 DUP2 LT PUSH8 0xFFFFFFFFFFFFFFFF DUP3 GT OR PUSH2 0xF81 JUMPI PUSH1 0x40 MSTORE JUMP JUMPDEST PUSH4 0x4E487B71 PUSH1 0xE0 SHL PUSH1 0x0 MSTORE PUSH1 0x41 PUSH1 0x4 MSTORE PUSH1 0x24 PUSH1 0x0 REVERT JUMPDEST PUSH1 0x20 DUP2 ADD SWAP1 DUP2 LT PUSH8 0xFFFFFFFFFFFFFFFF DUP3 GT OR PUSH2 0xF81 JUMPI PUSH1 0x40 MSTORE JUMP JUMPDEST SWAP1 PUSH1 0x1F DUP1 NOT SWAP2 ADD AND DUP2 ADD SWAP1 DUP2 LT PUSH8 0xFFFFFFFFFFFFFFFF DUP3 GT OR PUSH2 0xF81 JUMPI PUSH1 0x40 MSTORE JUMP JUMPDEST PUSH8 0xFFFFFFFFFFFFFFFF DUP2 GT PUSH2 0xF81 JUMPI PUSH1 0x1F ADD PUSH1 0x1F NOT AND PUSH1 0x20 ADD SWAP1 JUMP JUMPDEST PUSH1 0x1 PUSH1 0x1 PUSH1 0xA0 SHL SUB SWAP2 DUP3 AND SWAP3 SWAP1 SWAP2 DUP4 ISZERO PUSH2 0xAB8 JUMPI PUSH1 0x0 SWAP3 DUP3 DUP5 MSTORE PUSH1 0x20 SWAP5 PUSH1 0x2 DUP7 MSTORE PUSH1 0x40 SWAP6 DUP7 DUP5 DUP2 DUP9 KECCAK256 SLOAD AND SWAP7 CALLER ISZERO ISZERO DUP1 PUSH2 0x114E JUMPI JUMPDEST POP DUP8 ISZERO ISZERO DUP1 PUSH2 0x111B JUMPI JUMPDEST DUP5 DUP3 MSTORE PUSH1 0x3 DUP5 MSTORE DUP3 DUP3 KECCAK256 DUP1 SLOAD PUSH1 0x1 ADD SWAP1 SSTORE DUP8 DUP3 MSTORE PUSH1 0x2 DUP5 MSTORE DUP3 DUP3 KECCAK256 DUP1 SLOAD PUSH1 0x1 PUSH1 0x1 PUSH1 0xA0 SHL SUB NOT AND DUP7 OR SWAP1 SSTORE DUP3 MLOAD SWAP5 DUP9 SWAP1 DUP11 PUSH32 0xDDF252AD1BE2C89B69C2B068FC378DAA952BA7F163C4A11628F55A4DF523B3EF DUP6 DUP1 LOG4 DUP1 PUSH2 0x1113 JUMPI JUMPDEST PUSH2 0x10C4 JUMPI JUMPDEST POP POP POP POP AND SWAP3 DUP4 DUP4 SUB PUSH2 0x10A3 JUMPI POP POP POP POP JUMP JUMPDEST PUSH1 0x64 SWAP5 POP MLOAD SWAP3 PUSH4 0x64283D7B PUSH1 0xE0 SHL DUP5 MSTORE PUSH1 0x4 DUP5 ADD MSTORE PUSH1 0x24 DUP4 ADD MSTORE PUSH1 0x44 DUP3 ADD MSTORE REVERT JUMPDEST PUSH1 0x9 DUP4 MSTORE KECCAK256 PUSH1 0x1 ADD SLOAD PUSH1 0x50 SHR PUSH1 0xFF AND ISZERO PUSH2 0x10DF JUMPI DUP7 DUP2 PUSH2 0x1090 JUMP JUMPDEST PUSH3 0x461BCD PUSH1 0xE5 SHL DUP3 MSTORE PUSH1 0x4 DUP3 ADD MSTORE PUSH1 0x10 PUSH1 0x24 DUP3 ADD MSTORE PUSH16 0x6E6F74207472616E7366657261626C65 PUSH1 0x80 SHL PUSH1 0x44 DUP3 ADD MSTORE PUSH1 0x64 SWAP2 POP REVERT JUMPDEST POP PUSH1 0x1 PUSH2 0x108B JUMP JUMPDEST PUSH1 0x0 DUP9 DUP2 MSTORE PUSH1 0x4 PUSH1 0x20 MSTORE PUSH1 0x40 SWAP1 KECCAK256 DUP1 SLOAD PUSH1 0x1 PUSH1 0x1 PUSH1 0xA0 SHL SUB NOT AND SWAP1 SSTORE DUP9 DUP3 MSTORE PUSH1 0x3 DUP5 MSTORE DUP3 DUP3 KECCAK256 DUP1 SLOAD PUSH1 0x0 NOT ADD SWAP1 SSTORE PUSH2 0x1030 JUMP JUMPDEST SWAP1 SWAP2 POP DUP1 PUSH2 0x119D JUMPI JUMPDEST ISZERO PUSH2 0x1164 JUMPI DUP8 SWAP1 CODESIZE PUSH2 0x1026 JUMP JUMPDEST DUP8 DUP7 DUP9 PUSH2 0x1181 JUMPI PUSH1 0x24 SWAP2 MLOAD SWAP1 PUSH4 0x7E273289 PUSH1 0xE0 SHL DUP3 MSTORE PUSH1 0x4 DUP3 ADD MSTORE REVERT JUMPDEST PUSH1 0x44 SWAP2 MLOAD SWAP1 PUSH4 0x177E802F PUSH1 0xE0 SHL DUP3 MSTORE CALLER PUSH1 0x4 DUP4 ADD MSTORE PUSH1 0x24 DUP3 ADD MSTORE REVERT JUMPDEST POP CALLER DUP8 EQ DUP1 ISZERO PUSH2 0x11C2 JUMPI JUMPDEST DUP1 PUSH2 0x1157 JUMPI POP DUP6 DUP2 MSTORE PUSH1 0x4 DUP3 MSTORE CALLER DUP6 DUP10 DUP4 KECCAK256 SLOAD AND EQ PUSH2 0x1157 JUMP JUMPDEST POP DUP7 DUP2 MSTORE PUSH1 0x5 DUP3 MSTORE DUP8 DUP2 KECCAK256 CALLER DUP3 MSTORE DUP3 MSTORE PUSH1 0xFF DUP9 DUP3 KECCAK256 SLOAD AND PUSH2 0x11A8 JUMP JUMPDEST ISZERO PUSH2 0x11E5 JUMPI JUMP JUMPDEST PUSH1 0x40 MLOAD PUSH3 0x461BCD PUSH1 0xE5 SHL DUP2 MSTORE PUSH1 0x20 PUSH1 0x4 DUP3 ADD MSTORE PUSH1 0x10 PUSH1 0x24 DUP3 ADD MSTORE PUSH16 0x6F6E6C79206D61726B6574706C616365 PUSH1 0x80 SHL PUSH1 0x44 DUP3 ADD MSTORE PUSH1 0x64 SWAP1 REVERT JUMPDEST ISZERO PUSH2 0x1224 JUMPI JUMP JUMPDEST PUSH1 0x40 MLOAD PUSH3 0x461BCD PUSH1 0xE5 SHL DUP2 MSTORE PUSH1 0x20 PUSH1 0x4 DUP3 ADD MSTORE PUSH1 0xA PUSH1 0x24 DUP3 ADD MSTORE PUSH10 0x6E6F7420657869737473 PUSH1 0xB0 SHL PUSH1 0x44 DUP3 ADD MSTORE PUSH1 0x64 SWAP1 REVERT JUMPDEST PUSH1 0x0 DUP2 DUP2 MSTORE PUSH1 0x2 PUSH1 0x20 MSTORE PUSH1 0x40 SWAP1 KECCAK256 SLOAD PUSH1 0x1 PUSH1 0x1 PUSH1 0xA0 SHL SUB AND SWAP1 DUP2 ISZERO PUSH2 0x1279 JUMPI POP SWAP1 JUMP JUMPDEST PUSH1 0x24 SWAP1 PUSH1 0x40 MLOAD SWAP1 PUSH4 0x7E273289 PUSH1 0xE0 SHL DUP3 MSTORE PUSH1 0x4 DUP3 ADD MSTORE REVERT JUMPDEST PUSH1 0x6 SLOAD PUSH1 0x1 PUSH1 0x1 PUSH1 0xA0 SHL SUB AND CALLER SUB PUSH2 0x12A5 JUMPI JUMP JUMPDEST PUSH1 0x40 MLOAD PUSH4 0x118CDAA7 PUSH1 0xE0 SHL DUP2 MSTORE CALLER PUSH1 0x4 DUP3 ADD MSTORE PUSH1 0x24 SWAP1 REVERT JUMPDEST SWAP1 SWAP4 SWAP2 SWAP3 DUP4 EXTCODESIZE PUSH2 0x12CF JUMPI JUMPDEST POP POP POP POP POP JUMP JUMPDEST PUSH1 0x40 MLOAD PUSH4 0xA85BD01 PUSH1 0xE1 SHL DUP1 DUP3 MSTORE PUSH1 0x1 PUSH1 0x1 PUSH1 0xA0 SHL SUB SWAP4 DUP5 AND PUSH1 0x4 DUP4 ADD MSTORE SWAP6 DUP4 AND PUSH1 0x24 DUP3 ADD MSTORE PUSH1 0x44 DUP2 ADD SWAP2 SWAP1 SWAP2 MSTORE PUSH1 0x80 PUSH1 0x64 DUP3 ADD MSTORE SWAP5 SWAP3 AND SWAP3 PUSH1 0x20 SWAP3 SWAP2 DUP6 SWAP1 PUSH2 0x131C SWAP1 PUSH1 0x84 DUP4 ADD SWAP1 PUSH2 0xEC4 JUMP JUMPDEST SUB SWAP5 DUP4 DUP2 PUSH1 0x0 SWAP8 DUP2 DUP10 DUP10 GAS CALL DUP7 SWAP2 DUP2 PUSH2 0x13AF JUMPI JUMPDEST POP PUSH2 0x1391 JUMPI POP POP POP RETURNDATASIZE PUSH1 0x0 EQ PUSH2 0x1388 JUMPI RETURNDATASIZE PUSH2 0x134A DUP2 PUSH2 0xFD5 JUMP JUMPDEST SWAP1 PUSH2 0x1358 PUSH1 0x40 MLOAD SWAP3 DUP4 PUSH2 0xFB3 JUMP JUMPDEST DUP2 MSTORE DUP1 SWAP4 DUP3 RETURNDATASIZE SWAP3 ADD RETURNDATACOPY JUMPDEST DUP3 MLOAD SWAP3 DUP4 PUSH2 0x1383 JUMPI PUSH1 0x40 MLOAD PUSH4 0x32505749 PUSH1 0xE1 SHL DUP2 MSTORE PUSH1 0x4 DUP2 ADD DUP5 SWAP1 MSTORE PUSH1 0x24 SWAP1 REVERT JUMPDEST ADD SWAP1 POP REVERT JUMPDEST PUSH1 0x60 SWAP3 POP PUSH2 0x1362 JUMP JUMPDEST SWAP2 SWAP5 POP SWAP2 POP PUSH4 0xFFFFFFFF PUSH1 0xE0 SHL AND SUB PUSH2 0x9AC JUMPI POP CODESIZE DUP1 DUP1 DUP1 DUP1 PUSH2 0x12C8 JUMP JUMPDEST SWAP1 SWAP2 POP DUP5 DUP2 DUP2 RETURNDATASIZE DUP4 GT PUSH2 0x13EC JUMPI JUMPDEST PUSH2 0x13C7 DUP2 DUP4 PUSH2 0xFB3 JUMP JUMPDEST DUP2 ADD SUB SLT PUSH2 0x13E8 JUMPI MLOAD PUSH1 0x1 PUSH1 0x1 PUSH1 0xE0 SHL SUB NOT DUP2 AND DUP2 SUB PUSH2 0x13E8 JUMPI SWAP1 CODESIZE PUSH2 0x1330 JUMP JUMPDEST DUP7 DUP1 REVERT JUMPDEST POP RETURNDATASIZE PUSH2 0x13BD JUMP INVALID LOG2 PUSH5 0x6970667358 0x22 SLT KECCAK256 0xD0 CREATE2 MSTORE 0xB5 PC 0xC0 0x23 0xD3 0x2F 0xDD 0xB9 0xC9 MSTORE 0xAF ADDMOD 0x4D 0xEC CALLVALUE 0xDA DUP8 DUP3 0xA7 0xE8 PUSH21 0xBBCCC15AA85AAFEB64736F6C634300081800330000 "},"methodIdentifiers":{"approve(address,uint256)":"095ea7b3","balanceOf(address)":"70a08231","getApproved(uint256)":"081812fc","getLicense(uint256)":"b2dd1212","isApprovedForAll(address,address)":"e985e9c5","marketplace()":"abc8c7af","mint(address,(uint256,uint8,uint8,uint64,bool,bytes32,uint16))":"849b1b7e","name()":"06fdde03","owner()":"8da5cb5b","ownerOf(uint256)":"6352211e","renounceOwnership()":"715018a6","safeTransferFrom(address,address,uint256)":"42842e0e","safeTransferFrom(address,address,uint256,bytes)":"b88d4fde","setApprovalForAll(address,bool)":"a22cb465","setMarketplace(address)":"73ad6c2d","supportsInterface(bytes4)":"01ffc9a7","symbol()":"95d89b41","tokenURI(uint256)":"c87b56dd","totalSupply()":"18160ddd","transferFrom(address,address,uint256)":"23b872dd","transferOwnership(address)":"f2fde38b","updateExpires(uint256,uint64)":"fe5eb754"}}}}}