{"contracts/InferenceSplitter.sol":{"InferenceSplitter":{"abi":[{"inputs":[{"internalType":"address","name":"_usdc","type":"address"},{"internalType":"address","name":"_marketplaceWallet","type":"address"},{"internalType":"address","name":"_marketplace","type":"address"}],"stateMutability":"nonpayable","type":"constructor"},{"inputs":[],"name":"BelowMinimumWithdrawal","type":"error"},{"inputs":[],"name":"EnforcedPause","type":"error"},{"inputs":[],"name":"ExpectedPause","type":"error"},{"inputs":[],"name":"InsufficientBalance","type":"error"},{"inputs":[],"name":"InvalidAmount","type":"error"},{"inputs":[],"name":"InvalidBps","type":"error"},{"inputs":[],"name":"ModelNotRegistered","type":"error"},{"inputs":[],"name":"NoPendingChange","type":"error"},{"inputs":[],"name":"OnlyAuthorizedCaller","type":"error"},{"inputs":[{"internalType":"address","name":"owner","type":"address"}],"name":"OwnableInvalidOwner","type":"error"},{"inputs":[{"internalType":"address","name":"account","type":"address"}],"name":"OwnableUnauthorizedAccount","type":"error"},{"inputs":[],"name":"ReentrancyGuardReentrantCall","type":"error"},{"inputs":[{"internalType":"address","name":"token","type":"address"}],"name":"SafeERC20FailedOperation","type":"error"},{"inputs":[],"name":"SplitAlreadyConfigured","type":"error"},{"inputs":[],"name":"TimelockNotExpired","type":"error"},{"inputs":[],"name":"TransferFailed","type":"error"},{"inputs":[],"name":"ZeroAddress","type":"error"},{"anonymous":false,"inputs":[{"indexed":true,"internalType":"address","name":"caller","type":"address"},{"indexed":false,"internalType":"bool","name":"authorized","type":"bool"}],"name":"AuthorizedCallerUpdated","type":"event"},{"anonymous":false,"inputs":[{"indexed":true,"internalType":"address","name":"oldWallet","type":"address"},{"indexed":true,"internalType":"address","name":"newWallet","type":"address"},{"indexed":false,"internalType":"uint256","name":"effectiveAt","type":"uint256"}],"name":"MarketplaceWalletChangeRequested","type":"event"},{"anonymous":false,"inputs":[{"indexed":true,"internalType":"address","name":"oldWallet","type":"address"},{"indexed":true,"internalType":"address","name":"newWallet","type":"address"}],"name":"MarketplaceWalletChanged","type":"event"},{"anonymous":false,"inputs":[{"indexed":true,"internalType":"address","name":"previousOwner","type":"address"},{"indexed":true,"internalType":"address","name":"newOwner","type":"address"}],"name":"OwnershipTransferStarted","type":"event"},{"anonymous":false,"inputs":[{"indexed":true,"internalType":"address","name":"previousOwner","type":"address"},{"indexed":true,"internalType":"address","name":"newOwner","type":"address"}],"name":"OwnershipTransferred","type":"event"},{"anonymous":false,"inputs":[{"indexed":false,"internalType":"address","name":"account","type":"address"}],"name":"Paused","type":"event"},{"anonymous":false,"inputs":[{"indexed":true,"internalType":"uint256","name":"modelId","type":"uint256"},{"indexed":false,"internalType":"uint256","name":"amount","type":"uint256"},{"indexed":false,"internalType":"uint256","name":"sellerAmount","type":"uint256"},{"indexed":false,"internalType":"uint256","name":"creatorAmount","type":"uint256"},{"indexed":false,"internalType":"uint256","name":"marketplaceAmount","type":"uint256"}],"name":"PaymentReceived","type":"event"},{"anonymous":false,"inputs":[{"indexed":true,"internalType":"uint256","name":"paymentId","type":"uint256"},{"indexed":true,"internalType":"uint256","name":"modelId","type":"uint256"},{"indexed":true,"internalType":"address","name":"processedBy","type":"address"}],"name":"PendingPaymentProcessed","type":"event"},{"anonymous":false,"inputs":[{"indexed":true,"internalType":"uint256","name":"paymentId","type":"uint256"},{"indexed":true,"internalType":"uint256","name":"modelId","type":"uint256"},{"indexed":false,"internalType":"uint256","name":"amount","type":"uint256"},{"indexed":false,"internalType":"bytes32","name":"txHash","type":"bytes32"}],"name":"PendingPaymentRegistered","type":"event"},{"anonymous":false,"inputs":[{"indexed":true,"internalType":"uint256","name":"modelId","type":"uint256"},{"indexed":true,"internalType":"address","name":"seller","type":"address"},{"indexed":true,"internalType":"address","name":"creator","type":"address"},{"indexed":false,"internalType":"uint256","name":"royaltyBps","type":"uint256"},{"indexed":false,"internalType":"uint256","name":"marketplaceBps","type":"uint256"}],"name":"SplitConfigured","type":"event"},{"anonymous":false,"inputs":[{"indexed":false,"internalType":"address","name":"account","type":"address"}],"name":"Unpaused","type":"event"},{"anonymous":false,"inputs":[{"indexed":true,"internalType":"address","name":"recipient","type":"address"},{"indexed":false,"internalType":"uint256","name":"amount","type":"uint256"}],"name":"Withdrawal","type":"event"},{"anonymous":false,"inputs":[{"indexed":true,"internalType":"uint256","name":"modelId","type":"uint256"},{"indexed":false,"internalType":"uint256","name":"amount","type":"uint256"},{"indexed":false,"internalType":"bytes32","name":"txHash","type":"bytes32"}],"name":"X402PaymentProcessed","type":"event"},{"inputs":[],"name":"MAX_BPS","outputs":[{"internalType":"uint256","name":"","type":"uint256"}],"stateMutability":"view","type":"function"},{"inputs":[],"name":"MAX_MARKETPLACE_FEE_BPS","outputs":[{"internalType":"uint256","name":"","type":"uint256"}],"stateMutability":"view","type":"function"},{"inputs":[],"name":"MAX_ROYALTY_BPS","outputs":[{"internalType":"uint256","name":"","type":"uint256"}],"stateMutability":"view","type":"function"},{"inputs":[],"name":"MIN_WITHDRAWAL","outputs":[{"internalType":"uint256","name":"","type":"uint256"}],"stateMutability":"view","type":"function"},{"inputs":[],"name":"TIMELOCK_DELAY","outputs":[{"internalType":"uint256","name":"","type":"uint256"}],"stateMutability":"view","type":"function"},{"inputs":[],"name":"acceptOwnership","outputs":[],"stateMutability":"nonpayable","type":"function"},{"inputs":[{"internalType":"address","name":"","type":"address"}],"name":"authorizedCallers","outputs":[{"internalType":"bool","name":"","type":"bool"}],"stateMutability":"view","type":"function"},{"inputs":[{"internalType":"address","name":"","type":"address"}],"name":"balances","outputs":[{"internalType":"uint256","name":"","type":"uint256"}],"stateMutability":"view","type":"function"},{"inputs":[{"internalType":"uint256","name":"modelId","type":"uint256"},{"internalType":"uint256","name":"amount","type":"uint256"}],"name":"calculateSplit","outputs":[{"internalType":"uint256","name":"sellerAmount","type":"uint256"},{"internalType":"uint256","name":"creatorAmount","type":"uint256"},{"internalType":"uint256","name":"marketplaceAmount","type":"uint256"}],"stateMutability":"view","type":"function"},{"inputs":[],"name":"cancelMarketplaceWalletChange","outputs":[],"stateMutability":"nonpayable","type":"function"},{"inputs":[{"internalType":"uint256","name":"modelId","type":"uint256"},{"internalType":"address","name":"seller","type":"address"},{"internalType":"address","name":"creator","type":"address"},{"internalType":"uint256","name":"royaltyBps","type":"uint256"},{"internalType":"uint256","name":"marketplaceBps","type":"uint256"}],"name":"configureSplit","outputs":[],"stateMutability":"nonpayable","type":"function"},{"inputs":[{"internalType":"uint256","name":"modelId","type":"uint256"},{"internalType":"uint256","name":"amount","type":"uint256"}],"name":"distributePayment","outputs":[],"stateMutability":"nonpayable","type":"function"},{"inputs":[{"internalType":"address","name":"token","type":"address"},{"internalType":"address","name":"to","type":"address"},{"internalType":"uint256","name":"amount","type":"uint256"}],"name":"emergencyRescue","outputs":[],"stateMutability":"nonpayable","type":"function"},{"inputs":[],"name":"executeMarketplaceWalletChange","outputs":[],"stateMutability":"nonpayable","type":"function"},{"inputs":[{"internalType":"address","name":"account","type":"address"}],"name":"getBalance","outputs":[{"internalType":"uint256","name":"","type":"uint256"}],"stateMutability":"view","type":"function"},{"inputs":[{"internalType":"uint256","name":"paymentId","type":"uint256"}],"name":"getPendingPayment","outputs":[{"internalType":"uint256","name":"modelId","type":"uint256"},{"internalType":"uint256","name":"amount","type":"uint256"},{"internalType":"bytes32","name":"txHash","type":"bytes32"},{"internalType":"bool","name":"processed","type":"bool"}],"stateMutability":"view","type":"function"},{"inputs":[],"name":"getPendingPaymentsCount","outputs":[{"internalType":"uint256","name":"total","type":"uint256"},{"internalType":"uint256","name":"pending","type":"uint256"}],"stateMutability":"view","type":"function"},{"inputs":[{"internalType":"uint256","name":"modelId","type":"uint256"}],"name":"getSplit","outputs":[{"components":[{"internalType":"address","name":"seller","type":"address"},{"internalType":"address","name":"creator","type":"address"},{"internalType":"uint256","name":"royaltyBps","type":"uint256"},{"internalType":"uint256","name":"marketplaceBps","type":"uint256"},{"internalType":"bool","name":"configured","type":"bool"}],"internalType":"struct InferenceSplitter.SplitConfig","name":"","type":"tuple"}],"stateMutability":"view","type":"function"},{"inputs":[],"name":"getUnallocatedBalance","outputs":[{"internalType":"uint256","name":"","type":"uint256"}],"stateMutability":"view","type":"function"},{"inputs":[{"internalType":"uint256","name":"modelId","type":"uint256"}],"name":"isSplitConfigured","outputs":[{"internalType":"bool","name":"","type":"bool"}],"stateMutability":"view","type":"function"},{"inputs":[],"name":"marketplace","outputs":[{"internalType":"address","name":"","type":"address"}],"stateMutability":"view","type":"function"},{"inputs":[],"name":"marketplaceWallet","outputs":[{"internalType":"address","name":"","type":"address"}],"stateMutability":"view","type":"function"},{"inputs":[],"name":"nextPaymentToProcess","outputs":[{"internalType":"uint256","name":"","type":"uint256"}],"stateMutability":"view","type":"function"},{"inputs":[],"name":"owner","outputs":[{"internalType":"address","name":"","type":"address"}],"stateMutability":"view","type":"function"},{"inputs":[],"name":"pause","outputs":[],"stateMutability":"nonpayable","type":"function"},{"inputs":[],"name":"paused","outputs":[{"internalType":"bool","name":"","type":"bool"}],"stateMutability":"view","type":"function"},{"inputs":[],"name":"pendingMarketplaceWallet","outputs":[{"internalType":"address","name":"newValue","type":"address"},{"internalType":"uint256","name":"effectiveAt","type":"uint256"}],"stateMutability":"view","type":"function"},{"inputs":[],"name":"pendingOwner","outputs":[{"internalType":"address","name":"","type":"address"}],"stateMutability":"view","type":"function"},{"inputs":[{"internalType":"uint256","name":"","type":"uint256"}],"name":"pendingPayments","outputs":[{"internalType":"uint256","name":"modelId","type":"uint256"},{"internalType":"uint256","name":"amount","type":"uint256"},{"internalType":"bytes32","name":"txHash","type":"bytes32"},{"internalType":"bool","name":"processed","type":"bool"}],"stateMutability":"view","type":"function"},{"inputs":[{"internalType":"uint256","name":"maxPayments","type":"uint256"}],"name":"processPendingPayments","outputs":[{"internalType":"uint256","name":"processed","type":"uint256"}],"stateMutability":"nonpayable","type":"function"},{"inputs":[{"internalType":"uint256","name":"modelId","type":"uint256"},{"internalType":"uint256","name":"amount","type":"uint256"},{"internalType":"bytes32","name":"txHash","type":"bytes32"}],"name":"processX402Payment","outputs":[],"stateMutability":"nonpayable","type":"function"},{"inputs":[{"internalType":"uint256","name":"modelId","type":"uint256"},{"internalType":"uint256","name":"amount","type":"uint256"}],"name":"receivePayment","outputs":[],"stateMutability":"nonpayable","type":"function"},{"inputs":[{"internalType":"uint256","name":"modelId","type":"uint256"},{"internalType":"uint256","name":"amount","type":"uint256"},{"internalType":"bytes32","name":"txHash","type":"bytes32"}],"name":"registerPendingPayment","outputs":[],"stateMutability":"nonpayable","type":"function"},{"inputs":[],"name":"renounceOwnership","outputs":[],"stateMutability":"nonpayable","type":"function"},{"inputs":[{"internalType":"address","name":"newWallet","type":"address"}],"name":"requestMarketplaceWalletChange","outputs":[],"stateMutability":"nonpayable","type":"function"},{"inputs":[{"internalType":"address","name":"caller","type":"address"},{"internalType":"bool","name":"authorized","type":"bool"}],"name":"setAuthorizedCaller","outputs":[],"stateMutability":"nonpayable","type":"function"},{"inputs":[{"internalType":"address","name":"_marketplace","type":"address"}],"name":"setMarketplace","outputs":[],"stateMutability":"nonpayable","type":"function"},{"inputs":[{"internalType":"uint256","name":"","type":"uint256"}],"name":"splits","outputs":[{"internalType":"address","name":"seller","type":"address"},{"internalType":"address","name":"creator","type":"address"},{"internalType":"uint256","name":"royaltyBps","type":"uint256"},{"internalType":"uint256","name":"marketplaceBps","type":"uint256"},{"internalType":"bool","name":"configured","type":"bool"}],"stateMutability":"view","type":"function"},{"inputs":[],"name":"totalAccumulated","outputs":[{"internalType":"uint256","name":"","type":"uint256"}],"stateMutability":"view","type":"function"},{"inputs":[{"internalType":"address","name":"newOwner","type":"address"}],"name":"transferOwnership","outputs":[],"stateMutability":"nonpayable","type":"function"},{"inputs":[{"internalType":"bytes32","name":"","type":"bytes32"}],"name":"txHashUsed","outputs":[{"internalType":"bool","name":"","type":"bool"}],"stateMutability":"view","type":"function"},{"inputs":[],"name":"unpause","outputs":[],"stateMutability":"nonpayable","type":"function"},{"inputs":[],"name":"usdc","outputs":[{"internalType":"contract IERC20","name":"","type":"address"}],"stateMutability":"view","type":"function"},{"inputs":[],"name":"withdraw","outputs":[],"stateMutability":"nonpayable","type":"function"},{"inputs":[{"internalType":"uint256","name":"amount","type":"uint256"}],"name":"withdrawAmount","outputs":[],"stateMutability":"nonpayable","type":"function"}],"evm":{"bytecode":{"linkReferences":{},"object":"60a034620001c857601f620021df38819003918201601f1916830191906001600160401b03831184841017620001cd578160609285926040958652833981010312620001c8576200005082620001e3565b6200006b826200006360208601620001e3565b9401620001e3565b3315620001b05760018060a01b031993846001541660015560009283549260018060a01b03809233898716178755875195823391167f8be0079c531659141344cd1fd0a4f28419497f9722a3daafe3b4186f6b6457e08980a3600160025516938415620001a15750818316156200019057169182156200017f5760805260038054610100600160a81b03191660089290921b610100600160a81b0316919091179055600a80549094168117909355918252600960205290819020805460ff1916600117905551611fe69081620001f9823960805181818161025f015281816105ba01528181610bbc01528181610fd70152818161132d015281816113ca0152818161170a0152818161190c0152611c9d0152f35b845163d92e233d60e01b8152600490fd5b855163d92e233d60e01b8152600490fd5b63d92e233d60e01b8152600490fd5b8251631e4fbdf760e01b815260006004820152602490fd5b600080fd5b634e487b7160e01b600052604160045260246000fd5b51906001600160a01b0382168203620001c85756fe6040608081526004908136101561001557600080fd5b600091823560e01c9283630562b9f7146116a45783630f5c5556146116645783631143bf76146115dd57836327e235e31461044e5783632951bd991461143c5783633ccfd60b146113785783633dca40e61461135c5783633e413bee146113195783633f4ba83a146112af5783634107d9cb14611291578363454bbd291461120457836349e38ceb146111e6578363514a681014611131578363536fff6c146110f45783635793e02f14610efa5783635ba1c1a914610edd5783635c975abb14610eba5783636d0ffb1214610e8b578363715018a614610e27578363724f2cdc14610da857836372f729f014610d7757836373ad6c2d14610d0c57836379ba509714610c8b5783637cc3068d14610c5e5783637db804e914610b8e5783638456cb5914610b34578363884c300614610ad45783638bd65c1314610a0b5783638da5cb5b146109e457836391f7688c1461085d578363abc8c7af14610835578363afcc5027146107d3578363b4d8170c146107ae578363b74fb31614610792578363cc78629114610765578363d15ca16614610214578363d3bec4c914610699578363d687d0b314610578578363ded1e6eb14610549578363e30c397814610521578363ed9ed696146104f5578363f2fde38b14610489578363f8b2cb4f1461044e578363f9033d3f146102195750505063fd967f471461021457600080fd5b6117ed565b3461044b576020908160031936011261044b57823592610237611d97565b61023f611db8565b84516370a0823160e01b81523082820152602495929485939091858189817f00000000000000000000000000000000000000000000000000000000000000006001600160a01b03165afa908115610441578591610410575b5060085480821115610408576102ac9161180a565b95600b5496600d93600d5490801515806103f6575b6103e3575b509190915b888110806103da575b156103cb576102e28161179d565b50600381019360ff85541661039f57600194858301908154838111610384579161032c9391610315610326948754611e87565b805460ff191689179055549061180a565b93611d88565b9382018083116103725786555461036a91903390827f6a606350f89f63f198193679562351f2a5ef3679480845b368c0dec1d89eb3498b80a4611d88565b9190916102cb565b634e487b7160e01b8952601188528b89fd5b5050505050509650509395505050505b600160025551908152f35b92935050600181018082116103b957855561036a90611d88565b634e487b7160e01b8852601187528a88fd5b50965050939550505050610394565b508215156102d4565b816103ef929a506118b9565b978a6102c6565b508961040282846118b9565b106102c1565b5050836102ac565b90508581813d831161043a575b6104278183611897565b81010312610436575188610297565b8480fd5b503d61041d565b82513d87823e3d90fd5b80fd5b82346104855760203660031901126104855760209181906001600160a01b0361047561175b565b1681526007845220549051908152f35b5080fd5b3461044b57602036600319011261044b576104a261175b565b6104aa611e19565b600180546001600160a01b0319166001600160a01b0392831690811790915582549091167f38d16b8cac22d99fc7c124b9cd0de2d3fa1faef420bfe791d8c362d765e227008380a380f35b8234610485578160031936011261048557600354905160089190911c6001600160a01b03168152602090f35b823461048557816003193601126104855760015490516001600160a01b039091168152602090f35b3461044b5761057061055a36611787565b90610563611d97565b61056b611db8565b611c1c565b600160025580f35b82346104855760603660031901126104855761059261175b565b61059a611771565b90604435926105a7611e19565b6001600160a01b038381161561068957807f0000000000000000000000000000000000000000000000000000000000000000169216918083146105f5575b50506105f2939450611dd6565b80f35b60206024918351928380926370a0823160e01b8252308c8301525afa801561067f578690610647575b61062c91506008549061180a565b841161063857806105e5565b51631e9acf1760e31b81528590fd5b506020813d602011610677575b8161066160209383611897565b810103126106735761062c905161061e565b8580fd5b3d9150610654565b82513d88823e3d90fd5b815163d92e233d60e01b81528790fd5b9134610761576020366003190112610761576106b361175b565b916106bc611e19565b6001600160a01b03928316928315610752576201518042019182421161073f57916020917fd2f3c23537d11daa3caf9f2f59b748bfffd06edf731624aaf17c65ff134750ce938284875161070f8161187b565b8981520152866bffffffffffffffffffffffff60a01b8254161790558160055560035460081c169351908152a380f35b634e487b7160e01b865260119052602485fd5b50905163d92e233d60e01b8152fd5b8280fd5b925034610761576020366003190112610761578160209360ff92358152600c855220541690519015158152f35b8234610485578160031936011261048557602090516103e88152f35b8091346107d057816003193601126107d0576107c8611e19565b558060055580f35b50fd5b9034610485576020366003190112610485573590600b5482101561044b57506107fb9061179d565b5080546001820154600283015460039093015493519182526020820152604081019190915260ff90911615156060820152608090f35b0390f35b8234610485578160031936011261048557600a5490516001600160a01b039091168152602090f35b82346104855761086c3661173c565b919290338552600960205260ff828620541615806109cf575b806109bb575b6109ab57610897611db8565b801561099b57828552600c60205260ff828620541661099b57828552600c602052818520600160ff19825416179055600b549282516108d58161185f565b858152602081018381528482018381526060830191898352680100000000000000008810156109885760018801600b5561090e8861179d565b94909461097657927f10c84cdd57e9df6cdc682539163d03d0abd9d00c0b89b9f3ae925f79c066814497969594926003926109689551855551600185015551600284015551151591019060ff801983541691151516179055565b82519182526020820152a380f35b634e487b7160e01b8b528a8c5260248bfd5b634e487b7160e01b8a5260418b5260248afd5b815163162908e360e11b81528690fd5b815163c48b3a1b60e01b81528690fd5b5084546001600160a01b031633141561088b565b50600a546001600160a01b0316331415610885565b8234610485578160031936011261048557905490516001600160a01b039091168152602090f35b9134610761578260031936011261076157610a24611e19565b805191610a308361187b565b80546001600160a01b039081168452600554602085018181529193919015610ac657514210610ab95750600380549351610100600160a81b03198516600882811b610100600160a81b03169190911790925591859055600585905590821692901c167f6f79e27210b19a4c7601e0a512e1a79bc305548722d4b80c87588effce7a55118380a380f35b5163621e25c360e01b8152fd5b505163147fde5f60e31b8152fd5b9134610761576020366003190112610761578060a09383358152600660205220600180851b039283825416936001830154169260ff6002840154926003850154940154169381519586526020860152840152606083015215156080820152f35b823461048557816003193601126104855760207f62e78cea01bee320cd4e420270b5ea74000d11b0c9f74754ebdbfc544b05a25891610b71611e19565b610b79611db8565b600160ff19600354161760035551338152a180f35b82903461044b578060031936011261044b5781516370a0823160e01b815230938101939093526020836024817f00000000000000000000000000000000000000000000000000000000000000006001600160a01b03165afa8015610c52578190610c1d575b600854602094509081811115610c1557610c0d925061180a565b905b51908152f35b505090610c0f565b50916020813d602011610c4a575b81610c3860209383611897565b81010312610761579160209251610bf3565b3d9150610c2b565b509051903d90823e3d90fd5b823461048557606090610c79610c7336611787565b90611b81565b91929081519384526020840152820152f35b9134610761578260031936011261076157600154916001600160a01b03913383851603610cf55750506001600160a01b031991821660015582543392811683178455167f8be0079c531659141344cd1fd0a4f28419497f9722a3daafe3b4186f6b6457e08380a380f35b60249250519063118cdaa760e01b82523390820152fd5b92503461076157602036600319011261076157610d2761175b565b610d2f611e19565b6001600160a01b0316908115610d695750600a80546001600160a01b03191682179055825260096020528120805460ff1916600117905580f35b825163d92e233d60e01b8152fd5b3461044b578060031936011261044b57505460055491516001600160a01b0390911681526020810191909152604090f35b3461044b57602036600319011261044b5750610dc4903561179d565b50906108316060825193610dd78561185f565b80549384865260018201549586602082015260ff60036002850154948585850152015416151593849101525194859485926060929594919560808501968552602085015260408401521515910152565b3461044b578060031936011261044b57610e3f611e19565b600180546001600160a01b03199081169091558154908116825581906001600160a01b03167f8be0079c531659141344cd1fd0a4f28419497f9722a3daafe3b4186f6b6457e08280a380f35b92503461076157602036600319011261076157808260209460ff93358152600686522001541690519015158152f35b823461048557816003193601126104855760209060ff6003541690519015158152f35b823461048557816003193601126104855760209051620151808152f35b913461076157610f0936611787565b90923385526020926009845260ff818720541615806110df575b806110cb575b6110be57610f35611d97565b610f3d611db8565b82156110b1578486526006845280862093815194610f5a8661182d565b60018060a01b0390818154168752816001820154169083880191825260028101549585890196875260ff8160038401549360608c0194855201541615801560808b01526110a357506110139383808794611098988e8c9b98611021600080516020611f918339815191529f9e61101c61100860079b610ffb8430337f0000000000000000000000000000000000000000000000000000000000000000611e45565b61271091829151856118c6565b049e8f9e51846118c6565b049c8d9261180a565b61180a565b9d51168152868652206110358c82546118b9565b905551168c52828252838c2061104c8682546118b9565b905560035460081c168b52528089206110668482546118b9565b9055611074856008546118b9565b60085551948594859094939260609260808301968352602083015260408201520152565b0390a2600160025580f35b8551630b7bde6f60e31b8152fd5b5163162908e360e11b8152fd5b5163c48b3a1b60e01b8152fd5b5085546001600160a01b0316331415610f29565b50600a546001600160a01b0316331415610f23565b82346104855760203660031901126104855760209160ff9082906001600160a01b0361111e61175b565b1681526009855220541690519015158152f35b913461076157602036600319011261076157808360a094608083516111558161182d565b82815282602082015282858201528260608201520152833581526006602052208151916111818361182d565b600180861b039384835416948585528060018501541660208601908152608060ff60028701549486890195865260038801549760608a019889520154169601951515865283519687525116602086015251908401525160608301525115156080820152f35b8234610485578160031936011261048557602090600d549051908152f35b913461076157806003193601126107615761121d61175b565b906024358015159283820361067357611234611e19565b6001600160a01b0316938415610d695750916020916112897fad857fa38c9319cb80848f1ef2f924383b90297eb5d71755738ff037d100faa194868852600985528288209060ff801983541691151516179055565b51908152a280f35b82346104855781600319360112610485576020906008549051908152f35b9250346107615782600319360112610761576112c9611e19565b6003549060ff82161561130b575060ff1916600355513381527f5db9ee0a495bf2e6ff9c91a7834c1ba4fdd244a5e8aa4e537bd38aeae4b073aa90602090a180f35b8251638dfc202b60e01b8152fd5b8234610485578160031936011261048557517f00000000000000000000000000000000000000000000000000000000000000006001600160a01b03168152602090f35b8234610485578160031936011261048557602090516107d08152f35b9134610761578260031936011261076157611391611d97565b611399611db8565b33835260076020528083205491821561142e5761271083106114205750338352600760205282818120556113ee82337f0000000000000000000000000000000000000000000000000000000000000000611dd6565b519081527f7fcf532c15f0a6db0bd6d0e038bea71d30d808c7d98cb3bf7268a95bf5081b6560203392a2600160025580f35b9051630980da4560e11b8152fd5b9051631e9acf1760e31b8152fd5b9250346107615760a0366003190112610761578035611459611771565b6001600160a01b036044358181169592908690036115d9576064359160843591338952600960205260ff858a20541615806115cb575b806115be575b6115ae5781906114a3611db8565b169586156115a05787156115a0576107d08411611592576103e88311611592576127106114d084866118b9565b11611592578493929161158491878b7f90f4e9f35ba126dbef0a8d29a11967a4f4a06161e9b6b9dbabacc99a04c5952598519361150c8561182d565b8b8552602085018d815289860191898352808b60608901958b875260808a0197600189528152600660205220975116906bffffffffffffffffffffffff60a01b9182895416178855600188019251169082541617905551600285015551600384015551151591019060ff801983541691151516179055565b82519182526020820152a480f35b845163c6cc5d7f60e01b8152fd5b845163d92e233d60e01b8152fd5b845163c48b3a1b60e01b81528790fd5b5081895416331415611495565b5081600a541633141561148f565b8680fd5b8234610485576115ec3661173c565b92919091338552600960205260ff8186205416158061164f575b8061163b575b61162c575061057093945061161f611d97565b611627611db8565b6118d9565b5163c48b3a1b60e01b81528590fd5b5084546001600160a01b031633141561160c565b50600a546001600160a01b0316331415611606565b90503461044b578060031936011261044b57600b5490600d5480831160001461169e5761169291508261180a565b82519182526020820152f35b50611692565b9134610761576020366003190112610761578135916116c1611d97565b6116c9611db8565b821561172e57612710831061142057338452600760205282828520541061142e5750338352600760205280832061170183825461180a565b90556113ee82337f0000000000000000000000000000000000000000000000000000000000000000611dd6565b905163162908e360e11b8152fd5b606090600319011261175657600435906024359060443590565b600080fd5b600435906001600160a01b038216820361175657565b602435906001600160a01b038216820361175657565b6040906003190112611756576004359060243590565b600b548110156117d757600b60005260021b7f0175b7a638427703f0dbe7bb9bbf987a2551717b34e79f33b5b1008d1fa01db90190600090565b634e487b7160e01b600052603260045260246000fd5b346117565760003660031901126117565760206040516127108152f35b9190820391821161181757565b634e487b7160e01b600052601160045260246000fd5b60a0810190811067ffffffffffffffff82111761184957604052565b634e487b7160e01b600052604160045260246000fd5b6080810190811067ffffffffffffffff82111761184957604052565b6040810190811067ffffffffffffffff82111761184957604052565b90601f8019910116810190811067ffffffffffffffff82111761184957604052565b9190820180921161181757565b8181029291811591840414171561181757565b9092918315611b6f57604080516370a0823160e01b81523060048201526001600160a01b039591929060209081816024817f00000000000000000000000000000000000000000000000000000000000000008c165afa908115611b6457600091611b37575b50836008918254808211600014611b2e576119589161180a565b10611b1d57948096977f0eb6a6e76fd4ae35ed214d3e66e4c16f31bba87424bc53a71b6e0f59e1abae6c968260005260068452866000209087519261199c8461182d565b80835416845280600184015416868501908152886002850154948b870195865260ff600460038301549260608a019384520154161580156080890152611ab5579280611a1b969381611a24600080516020611f918339815191529a989561101c611a10611aa79a61271091829151856118c6565b049c8d9a51846118c6565b049b8c9261180a565b97511660005260078b528d600020611a3d8882546118b9565b90555116600052600789528b600020611a578782546118b9565b9055600354821c16600052600788528a600020611a758382546118b9565b9055611a828a82546118b9565b905589519384938a859094939260609260808301968352602083015260408201520152565b0390a28351928352820152a2565b5050509250925050600354821c166000526007825284600020611ad98582546118b9565b9055611ae68482546118b9565b905585600080516020611f9183398151915260808651868152600085820152600088820152866060820152a28351928352820152a2565b8451631e9acf1760e31b8152600490fd5b50506000611958565b90508181813d8311611b5d575b611b4e8183611897565b8101031261175657513861193e565b503d611b44565b85513d6000823e3d90fd5b60405163162908e360e11b8152600490fd5b6000526006602052604060002060405190611b9b8261182d565b60018060a01b0380825416835260018201541660208301526002810154916040810192835260ff6004600384015493846060850152015416159060808215910152611c1157611c059261101c611bfa611c0e93612710918291856118c6565b0495869551846118c6565b0494859261180a565b92565b505060009160009190565b908015611b6f57600080516020611f918339815191529060009083825260209060068252604080842090805193611c528561182d565b60018060a01b038084541686528060018501541682870190815260028501549484880195865260ff600460038301549260608b01938452015416608089019015158152611cc18830337f0000000000000000000000000000000000000000000000000000000000000000611e45565b5115611d3d5784938380899a9b94611013999896611cf2611d389c61101c61100860079961271091829151856118c6565b9d511686528484528c611d098888209182546118b9565b905551168452828252848420611d208882546118b9565b905560035460081c16835252206110668482546118b9565b0390a2565b5050909450608095925060035460081c16825260078452808220611d628482546118b9565b9055611d70836008546118b9565b600855818151948486528501528301526060820152a2565b60001981146118175760010190565b6002805414611da65760028055565b604051633ee5aeb560e01b8152600490fd5b60ff60035416611dc457565b60405163d93c066560e01b8152600490fd5b60405163a9059cbb60e01b60208201526001600160a01b03929092166024830152604480830193909352918152611e1791611e12606483611897565b611f28565b565b6000546001600160a01b03163303611e2d57565b60405163118cdaa760e01b8152336004820152602490fd5b6040516323b872dd60e01b60208201526001600160a01b039283166024820152929091166044830152606480830193909352918152611e1791611e128261182d565b90600080516020611f918339815191529060009083825260209060068252604080842090805193611eb78561182d565b60018060a01b038084541686528060018501541682870190815260028501549484880195865260ff600460038301549260608b0193845201541615801560808a0152611d3d5784938380899a9b94611013999896611cf2611d389c61101c61100860079961271091829151856118c6565b906000602091828151910182855af115611f84576000513d611f7b57506001600160a01b0381163b155b611f595750565b604051635274afe760e01b81526001600160a01b039091166004820152602490fd5b60011415611f52565b6040513d6000823e3d90fdfeb78fe7d19ecaa882ec5410343ed8ad1e7b556d212f0cd51e6ec2737724362b36a2646970667358221220ac8866a612e9d98726611bbd32caced449fec2593631dfb82cef38201d0d75d464736f6c63430008180033","opcodes":"PUSH1 0xA0 CALLVALUE PUSH3 0x1C8 JUMPI PUSH1 0x1F PUSH3 0x21DF CODESIZE DUP2 SWAP1 SUB SWAP2 DUP3 ADD PUSH1 0x1F NOT AND DUP4 ADD SWAP2 SWAP1 PUSH1 0x1 PUSH1 0x1 PUSH1 0x40 SHL SUB DUP4 GT DUP5 DUP5 LT OR PUSH3 0x1CD JUMPI DUP2 PUSH1 0x60 SWAP3 DUP6 SWAP3 PUSH1 0x40 SWAP6 DUP7 MSTORE DUP4 CODECOPY DUP2 ADD SUB SLT PUSH3 0x1C8 JUMPI PUSH3 0x50 DUP3 PUSH3 0x1E3 JUMP JUMPDEST PUSH3 0x6B DUP3 PUSH3 0x63 PUSH1 0x20 DUP7 ADD PUSH3 0x1E3 JUMP JUMPDEST SWAP5 ADD PUSH3 0x1E3 JUMP JUMPDEST CALLER ISZERO PUSH3 0x1B0 JUMPI PUSH1 0x1 DUP1 PUSH1 0xA0 SHL SUB NOT SWAP4 DUP5 PUSH1 0x1 SLOAD AND PUSH1 0x1 SSTORE PUSH1 0x0 SWAP3 DUP4 SLOAD SWAP3 PUSH1 0x1 DUP1 PUSH1 0xA0 SHL SUB DUP1 SWAP3 CALLER DUP10 DUP8 AND OR DUP8 SSTORE DUP8 MLOAD SWAP6 DUP3 CALLER SWAP2 AND PUSH32 0x8BE0079C531659141344CD1FD0A4F28419497F9722A3DAAFE3B4186F6B6457E0 DUP10 DUP1 LOG3 PUSH1 0x1 PUSH1 0x2 SSTORE AND SWAP4 DUP5 ISZERO PUSH3 0x1A1 JUMPI POP DUP2 DUP4 AND ISZERO PUSH3 0x190 JUMPI AND SWAP2 DUP3 ISZERO PUSH3 0x17F JUMPI PUSH1 0x80 MSTORE PUSH1 0x3 DUP1 SLOAD PUSH2 0x100 PUSH1 0x1 PUSH1 0xA8 SHL SUB NOT AND PUSH1 0x8 SWAP3 SWAP1 SWAP3 SHL PUSH2 0x100 PUSH1 0x1 PUSH1 0xA8 SHL SUB AND SWAP2 SWAP1 SWAP2 OR SWAP1 SSTORE PUSH1 0xA DUP1 SLOAD SWAP1 SWAP5 AND DUP2 OR SWAP1 SWAP4 SSTORE SWAP2 DUP3 MSTORE PUSH1 0x9 PUSH1 0x20 MSTORE SWAP1 DUP2 SWAP1 KECCAK256 DUP1 SLOAD PUSH1 0xFF NOT AND PUSH1 0x1 OR SWAP1 SSTORE MLOAD PUSH2 0x1FE6 SWAP1 DUP2 PUSH3 0x1F9 DUP3 CODECOPY PUSH1 0x80 MLOAD DUP2 DUP2 DUP2 PUSH2 0x25F ADD MSTORE DUP2 DUP2 PUSH2 0x5BA ADD MSTORE DUP2 DUP2 PUSH2 0xBBC ADD MSTORE DUP2 DUP2 PUSH2 0xFD7 ADD MSTORE DUP2 DUP2 PUSH2 0x132D ADD MSTORE DUP2 DUP2 PUSH2 0x13CA ADD MSTORE DUP2 DUP2 PUSH2 0x170A ADD MSTORE DUP2 DUP2 PUSH2 0x190C ADD MSTORE PUSH2 0x1C9D ADD MSTORE RETURN JUMPDEST DUP5 MLOAD PUSH4 0xD92E233D PUSH1 0xE0 SHL DUP2 MSTORE PUSH1 0x4 SWAP1 REVERT JUMPDEST DUP6 MLOAD PUSH4 0xD92E233D PUSH1 0xE0 SHL DUP2 MSTORE PUSH1 0x4 SWAP1 REVERT JUMPDEST PUSH4 0xD92E233D PUSH1 0xE0 SHL DUP2 MSTORE PUSH1 0x4 SWAP1 REVERT JUMPDEST DUP3 MLOAD PUSH4 0x1E4FBDF7 PUSH1 0xE0 SHL DUP2 MSTORE PUSH1 0x0 PUSH1 0x4 DUP3 ADD MSTORE PUSH1 0x24 SWAP1 REVERT JUMPDEST PUSH1 0x0 DUP1 REVERT JUMPDEST PUSH4 0x4E487B71 PUSH1 0xE0 SHL PUSH1 0x0 MSTORE PUSH1 0x41 PUSH1 0x4 MSTORE PUSH1 0x24 PUSH1 0x0 REVERT JUMPDEST MLOAD SWAP1 PUSH1 0x1 PUSH1 0x1 PUSH1 0xA0 SHL SUB DUP3 AND DUP3 SUB PUSH3 0x1C8 JUMPI JUMP INVALID PUSH1 0x40 PUSH1 0x80 DUP2 MSTORE PUSH1 0x4 SWAP1 DUP2 CALLDATASIZE LT ISZERO PUSH2 0x15 JUMPI PUSH1 0x0 DUP1 REVERT JUMPDEST PUSH1 0x0 SWAP2 DUP3 CALLDATALOAD PUSH1 0xE0 SHR SWAP3 DUP4 PUSH4 0x562B9F7 EQ PUSH2 0x16A4 JUMPI DUP4 PUSH4 0xF5C5556 EQ PUSH2 0x1664 JUMPI DUP4 PUSH4 0x1143BF76 EQ PUSH2 0x15DD JUMPI DUP4 PUSH4 0x27E235E3 EQ PUSH2 0x44E JUMPI DUP4 PUSH4 0x2951BD99 EQ PUSH2 0x143C JUMPI DUP4 PUSH4 0x3CCFD60B EQ PUSH2 0x1378 JUMPI DUP4 PUSH4 0x3DCA40E6 EQ PUSH2 0x135C JUMPI DUP4 PUSH4 0x3E413BEE EQ PUSH2 0x1319 JUMPI DUP4 PUSH4 0x3F4BA83A EQ PUSH2 0x12AF JUMPI DUP4 PUSH4 0x4107D9CB EQ PUSH2 0x1291 JUMPI DUP4 PUSH4 0x454BBD29 EQ PUSH2 0x1204 JUMPI DUP4 PUSH4 0x49E38CEB EQ PUSH2 0x11E6 JUMPI DUP4 PUSH4 0x514A6810 EQ PUSH2 0x1131 JUMPI DUP4 PUSH4 0x536FFF6C EQ PUSH2 0x10F4 JUMPI DUP4 PUSH4 0x5793E02F EQ PUSH2 0xEFA JUMPI DUP4 PUSH4 0x5BA1C1A9 EQ PUSH2 0xEDD JUMPI DUP4 PUSH4 0x5C975ABB EQ PUSH2 0xEBA JUMPI DUP4 PUSH4 0x6D0FFB12 EQ PUSH2 0xE8B JUMPI DUP4 PUSH4 0x715018A6 EQ PUSH2 0xE27 JUMPI DUP4 PUSH4 0x724F2CDC EQ PUSH2 0xDA8 JUMPI DUP4 PUSH4 0x72F729F0 EQ PUSH2 0xD77 JUMPI DUP4 PUSH4 0x73AD6C2D EQ PUSH2 0xD0C JUMPI DUP4 PUSH4 0x79BA5097 EQ PUSH2 0xC8B JUMPI DUP4 PUSH4 0x7CC3068D EQ PUSH2 0xC5E JUMPI DUP4 PUSH4 0x7DB804E9 EQ PUSH2 0xB8E JUMPI DUP4 PUSH4 0x8456CB59 EQ PUSH2 0xB34 JUMPI DUP4 PUSH4 0x884C3006 EQ PUSH2 0xAD4 JUMPI DUP4 PUSH4 0x8BD65C13 EQ PUSH2 0xA0B JUMPI DUP4 PUSH4 0x8DA5CB5B EQ PUSH2 0x9E4 JUMPI DUP4 PUSH4 0x91F7688C EQ PUSH2 0x85D JUMPI DUP4 PUSH4 0xABC8C7AF EQ PUSH2 0x835 JUMPI DUP4 PUSH4 0xAFCC5027 EQ PUSH2 0x7D3 JUMPI DUP4 PUSH4 0xB4D8170C EQ PUSH2 0x7AE JUMPI DUP4 PUSH4 0xB74FB316 EQ PUSH2 0x792 JUMPI DUP4 PUSH4 0xCC786291 EQ PUSH2 0x765 JUMPI DUP4 PUSH4 0xD15CA166 EQ PUSH2 0x214 JUMPI DUP4 PUSH4 0xD3BEC4C9 EQ PUSH2 0x699 JUMPI DUP4 PUSH4 0xD687D0B3 EQ PUSH2 0x578 JUMPI DUP4 PUSH4 0xDED1E6EB EQ PUSH2 0x549 JUMPI DUP4 PUSH4 0xE30C3978 EQ PUSH2 0x521 JUMPI DUP4 PUSH4 0xED9ED696 EQ PUSH2 0x4F5 JUMPI DUP4 PUSH4 0xF2FDE38B EQ PUSH2 0x489 JUMPI DUP4 PUSH4 0xF8B2CB4F EQ PUSH2 0x44E JUMPI DUP4 PUSH4 0xF9033D3F EQ PUSH2 0x219 JUMPI POP POP POP PUSH4 0xFD967F47 EQ PUSH2 0x214 JUMPI PUSH1 0x0 DUP1 REVERT JUMPDEST PUSH2 0x17ED JUMP JUMPDEST CALLVALUE PUSH2 0x44B JUMPI PUSH1 0x20 SWAP1 DUP2 PUSH1 0x3 NOT CALLDATASIZE ADD SLT PUSH2 0x44B JUMPI DUP3 CALLDATALOAD SWAP3 PUSH2 0x237 PUSH2 0x1D97 JUMP JUMPDEST PUSH2 0x23F PUSH2 0x1DB8 JUMP JUMPDEST DUP5 MLOAD PUSH4 0x70A08231 PUSH1 0xE0 SHL DUP2 MSTORE ADDRESS DUP3 DUP3 ADD MSTORE PUSH1 0x24 SWAP6 SWAP3 SWAP5 DUP6 SWAP4 SWAP1 SWAP2 DUP6 DUP2 DUP10 DUP2 PUSH32 0x0 PUSH1 0x1 PUSH1 0x1 PUSH1 0xA0 SHL SUB AND GAS STATICCALL SWAP1 DUP2 ISZERO PUSH2 0x441 JUMPI DUP6 SWAP2 PUSH2 0x410 JUMPI JUMPDEST POP PUSH1 0x8 SLOAD DUP1 DUP3 GT ISZERO PUSH2 0x408 JUMPI PUSH2 0x2AC SWAP2 PUSH2 0x180A JUMP JUMPDEST SWAP6 PUSH1 0xB SLOAD SWAP7 PUSH1 0xD SWAP4 PUSH1 0xD SLOAD SWAP1 DUP1 ISZERO ISZERO DUP1 PUSH2 0x3F6 JUMPI JUMPDEST PUSH2 0x3E3 JUMPI JUMPDEST POP SWAP2 SWAP1 SWAP2 JUMPDEST DUP9 DUP2 LT DUP1 PUSH2 0x3DA JUMPI JUMPDEST ISZERO PUSH2 0x3CB JUMPI PUSH2 0x2E2 DUP2 PUSH2 0x179D JUMP JUMPDEST POP PUSH1 0x3 DUP2 ADD SWAP4 PUSH1 0xFF DUP6 SLOAD AND PUSH2 0x39F JUMPI PUSH1 0x1 SWAP5 DUP6 DUP4 ADD SWAP1 DUP2 SLOAD DUP4 DUP2 GT PUSH2 0x384 JUMPI SWAP2 PUSH2 0x32C SWAP4 SWAP2 PUSH2 0x315 PUSH2 0x326 SWAP5 DUP8 SLOAD PUSH2 0x1E87 JUMP JUMPDEST DUP1 SLOAD PUSH1 0xFF NOT AND DUP10 OR SWAP1 SSTORE SLOAD SWAP1 PUSH2 0x180A JUMP JUMPDEST SWAP4 PUSH2 0x1D88 JUMP JUMPDEST SWAP4 DUP3 ADD DUP1 DUP4 GT PUSH2 0x372 JUMPI DUP7 SSTORE SLOAD PUSH2 0x36A SWAP2 SWAP1 CALLER SWAP1 DUP3 PUSH32 0x6A606350F89F63F198193679562351F2A5EF3679480845B368C0DEC1D89EB349 DUP12 DUP1 LOG4 PUSH2 0x1D88 JUMP JUMPDEST SWAP2 SWAP1 SWAP2 PUSH2 0x2CB JUMP JUMPDEST PUSH4 0x4E487B71 PUSH1 0xE0 SHL DUP10 MSTORE PUSH1 0x11 DUP9 MSTORE DUP12 DUP10 REVERT JUMPDEST POP POP POP POP POP POP SWAP7 POP POP SWAP4 SWAP6 POP POP POP POP JUMPDEST PUSH1 0x1 PUSH1 0x2 SSTORE MLOAD SWAP1 DUP2 MSTORE RETURN JUMPDEST SWAP3 SWAP4 POP POP PUSH1 0x1 DUP2 ADD DUP1 DUP3 GT PUSH2 0x3B9 JUMPI DUP6 SSTORE PUSH2 0x36A SWAP1 PUSH2 0x1D88 JUMP JUMPDEST PUSH4 0x4E487B71 PUSH1 0xE0 SHL DUP9 MSTORE PUSH1 0x11 DUP8 MSTORE DUP11 DUP9 REVERT JUMPDEST POP SWAP7 POP POP SWAP4 SWAP6 POP POP POP POP PUSH2 0x394 JUMP JUMPDEST POP DUP3 ISZERO ISZERO PUSH2 0x2D4 JUMP JUMPDEST DUP2 PUSH2 0x3EF SWAP3 SWAP11 POP PUSH2 0x18B9 JUMP JUMPDEST SWAP8 DUP11 PUSH2 0x2C6 JUMP JUMPDEST POP DUP10 PUSH2 0x402 DUP3 DUP5 PUSH2 0x18B9 JUMP JUMPDEST LT PUSH2 0x2C1 JUMP JUMPDEST POP POP DUP4 PUSH2 0x2AC JUMP JUMPDEST SWAP1 POP DUP6 DUP2 DUP2 RETURNDATASIZE DUP4 GT PUSH2 0x43A JUMPI JUMPDEST PUSH2 0x427 DUP2 DUP4 PUSH2 0x1897 JUMP JUMPDEST DUP2 ADD SUB SLT PUSH2 0x436 JUMPI MLOAD DUP9 PUSH2 0x297 JUMP JUMPDEST DUP5 DUP1 REVERT JUMPDEST POP RETURNDATASIZE PUSH2 0x41D JUMP JUMPDEST DUP3 MLOAD RETURNDATASIZE DUP8 DUP3 RETURNDATACOPY RETURNDATASIZE SWAP1 REVERT JUMPDEST DUP1 REVERT JUMPDEST DUP3 CALLVALUE PUSH2 0x485 JUMPI PUSH1 0x20 CALLDATASIZE PUSH1 0x3 NOT ADD SLT PUSH2 0x485 JUMPI PUSH1 0x20 SWAP2 DUP2 SWAP1 PUSH1 0x1 PUSH1 0x1 PUSH1 0xA0 SHL SUB PUSH2 0x475 PUSH2 0x175B JUMP JUMPDEST AND DUP2 MSTORE PUSH1 0x7 DUP5 MSTORE KECCAK256 SLOAD SWAP1 MLOAD SWAP1 DUP2 MSTORE RETURN JUMPDEST POP DUP1 REVERT JUMPDEST CALLVALUE PUSH2 0x44B JUMPI PUSH1 0x20 CALLDATASIZE PUSH1 0x3 NOT ADD SLT PUSH2 0x44B JUMPI PUSH2 0x4A2 PUSH2 0x175B JUMP JUMPDEST PUSH2 0x4AA PUSH2 0x1E19 JUMP JUMPDEST PUSH1 0x1 DUP1 SLOAD PUSH1 0x1 PUSH1 0x1 PUSH1 0xA0 SHL SUB NOT AND PUSH1 0x1 PUSH1 0x1 PUSH1 0xA0 SHL SUB SWAP3 DUP4 AND SWAP1 DUP2 OR SWAP1 SWAP2 SSTORE DUP3 SLOAD SWAP1 SWAP2 AND PUSH32 0x38D16B8CAC22D99FC7C124B9CD0DE2D3FA1FAEF420BFE791D8C362D765E22700 DUP4 DUP1 LOG3 DUP1 RETURN JUMPDEST DUP3 CALLVALUE PUSH2 0x485 JUMPI DUP2 PUSH1 0x3 NOT CALLDATASIZE ADD SLT PUSH2 0x485 JUMPI PUSH1 0x3 SLOAD SWAP1 MLOAD PUSH1 0x8 SWAP2 SWAP1 SWAP2 SHR PUSH1 0x1 PUSH1 0x1 PUSH1 0xA0 SHL SUB AND DUP2 MSTORE PUSH1 0x20 SWAP1 RETURN JUMPDEST DUP3 CALLVALUE PUSH2 0x485 JUMPI DUP2 PUSH1 0x3 NOT CALLDATASIZE ADD SLT PUSH2 0x485 JUMPI PUSH1 0x1 SLOAD SWAP1 MLOAD PUSH1 0x1 PUSH1 0x1 PUSH1 0xA0 SHL SUB SWAP1 SWAP2 AND DUP2 MSTORE PUSH1 0x20 SWAP1 RETURN JUMPDEST CALLVALUE PUSH2 0x44B JUMPI PUSH2 0x570 PUSH2 0x55A CALLDATASIZE PUSH2 0x1787 JUMP JUMPDEST SWAP1 PUSH2 0x563 PUSH2 0x1D97 JUMP JUMPDEST PUSH2 0x56B PUSH2 0x1DB8 JUMP JUMPDEST PUSH2 0x1C1C JUMP JUMPDEST PUSH1 0x1 PUSH1 0x2 SSTORE DUP1 RETURN JUMPDEST DUP3 CALLVALUE PUSH2 0x485 JUMPI PUSH1 0x60 CALLDATASIZE PUSH1 0x3 NOT ADD SLT PUSH2 0x485 JUMPI PUSH2 0x592 PUSH2 0x175B JUMP JUMPDEST PUSH2 0x59A PUSH2 0x1771 JUMP JUMPDEST SWAP1 PUSH1 0x44 CALLDATALOAD SWAP3 PUSH2 0x5A7 PUSH2 0x1E19 JUMP JUMPDEST PUSH1 0x1 PUSH1 0x1 PUSH1 0xA0 SHL SUB DUP4 DUP2 AND ISZERO PUSH2 0x689 JUMPI DUP1 PUSH32 0x0 AND SWAP3 AND SWAP2 DUP1 DUP4 EQ PUSH2 0x5F5 JUMPI JUMPDEST POP POP PUSH2 0x5F2 SWAP4 SWAP5 POP PUSH2 0x1DD6 JUMP JUMPDEST DUP1 RETURN JUMPDEST PUSH1 0x20 PUSH1 0x24 SWAP2 DUP4 MLOAD SWAP3 DUP4 DUP1 SWAP3 PUSH4 0x70A08231 PUSH1 0xE0 SHL DUP3 MSTORE ADDRESS DUP13 DUP4 ADD MSTORE GAS STATICCALL DUP1 ISZERO PUSH2 0x67F JUMPI DUP7 SWAP1 PUSH2 0x647 JUMPI JUMPDEST PUSH2 0x62C SWAP2 POP PUSH1 0x8 SLOAD SWAP1 PUSH2 0x180A JUMP JUMPDEST DUP5 GT PUSH2 0x638 JUMPI DUP1 PUSH2 0x5E5 JUMP JUMPDEST MLOAD PUSH4 0x1E9ACF17 PUSH1 0xE3 SHL DUP2 MSTORE DUP6 SWAP1 REVERT JUMPDEST POP PUSH1 0x20 DUP2 RETURNDATASIZE PUSH1 0x20 GT PUSH2 0x677 JUMPI JUMPDEST DUP2 PUSH2 0x661 PUSH1 0x20 SWAP4 DUP4 PUSH2 0x1897 JUMP JUMPDEST DUP2 ADD SUB SLT PUSH2 0x673 JUMPI PUSH2 0x62C SWAP1 MLOAD PUSH2 0x61E JUMP JUMPDEST DUP6 DUP1 REVERT JUMPDEST RETURNDATASIZE SWAP2 POP PUSH2 0x654 JUMP JUMPDEST DUP3 MLOAD RETURNDATASIZE DUP9 DUP3 RETURNDATACOPY RETURNDATASIZE SWAP1 REVERT JUMPDEST DUP2 MLOAD PUSH4 0xD92E233D PUSH1 0xE0 SHL DUP2 MSTORE DUP8 SWAP1 REVERT JUMPDEST SWAP2 CALLVALUE PUSH2 0x761 JUMPI PUSH1 0x20 CALLDATASIZE PUSH1 0x3 NOT ADD SLT PUSH2 0x761 JUMPI PUSH2 0x6B3 PUSH2 0x175B JUMP JUMPDEST SWAP2 PUSH2 0x6BC PUSH2 0x1E19 JUMP JUMPDEST PUSH1 0x1 PUSH1 0x1 PUSH1 0xA0 SHL SUB SWAP3 DUP4 AND SWAP3 DUP4 ISZERO PUSH2 0x752 JUMPI PUSH3 0x15180 TIMESTAMP ADD SWAP2 DUP3 TIMESTAMP GT PUSH2 0x73F JUMPI SWAP2 PUSH1 0x20 SWAP2 PUSH32 0xD2F3C23537D11DAA3CAF9F2F59B748BFFFD06EDF731624AAF17C65FF134750CE SWAP4 DUP3 DUP5 DUP8 MLOAD PUSH2 0x70F DUP2 PUSH2 0x187B JUMP JUMPDEST DUP10 DUP2 MSTORE ADD MSTORE DUP7 PUSH12 0xFFFFFFFFFFFFFFFFFFFFFFFF PUSH1 0xA0 SHL DUP3 SLOAD AND OR SWAP1 SSTORE DUP2 PUSH1 0x5 SSTORE PUSH1 0x3 SLOAD PUSH1 0x8 SHR AND SWAP4 MLOAD SWAP1 DUP2 MSTORE LOG3 DUP1 RETURN JUMPDEST PUSH4 0x4E487B71 PUSH1 0xE0 SHL DUP7 MSTORE PUSH1 0x11 SWAP1 MSTORE PUSH1 0x24 DUP6 REVERT JUMPDEST POP SWAP1 MLOAD PUSH4 0xD92E233D PUSH1 0xE0 SHL DUP2 MSTORE REVERT JUMPDEST DUP3 DUP1 REVERT JUMPDEST SWAP3 POP CALLVALUE PUSH2 0x761 JUMPI PUSH1 0x20 CALLDATASIZE PUSH1 0x3 NOT ADD SLT PUSH2 0x761 JUMPI DUP2 PUSH1 0x20 SWAP4 PUSH1 0xFF SWAP3 CALLDATALOAD DUP2 MSTORE PUSH1 0xC DUP6 MSTORE KECCAK256 SLOAD AND SWAP1 MLOAD SWAP1 ISZERO ISZERO DUP2 MSTORE RETURN JUMPDEST DUP3 CALLVALUE PUSH2 0x485 JUMPI DUP2 PUSH1 0x3 NOT CALLDATASIZE ADD SLT PUSH2 0x485 JUMPI PUSH1 0x20 SWAP1 MLOAD PUSH2 0x3E8 DUP2 MSTORE RETURN JUMPDEST DUP1 SWAP2 CALLVALUE PUSH2 0x7D0 JUMPI DUP2 PUSH1 0x3 NOT CALLDATASIZE ADD SLT PUSH2 0x7D0 JUMPI PUSH2 0x7C8 PUSH2 0x1E19 JUMP JUMPDEST SSTORE DUP1 PUSH1 0x5 SSTORE DUP1 RETURN JUMPDEST POP REVERT JUMPDEST SWAP1 CALLVALUE PUSH2 0x485 JUMPI PUSH1 0x20 CALLDATASIZE PUSH1 0x3 NOT ADD SLT PUSH2 0x485 JUMPI CALLDATALOAD SWAP1 PUSH1 0xB SLOAD DUP3 LT ISZERO PUSH2 0x44B JUMPI POP PUSH2 0x7FB SWAP1 PUSH2 0x179D JUMP JUMPDEST POP DUP1 SLOAD PUSH1 0x1 DUP3 ADD SLOAD PUSH1 0x2 DUP4 ADD SLOAD PUSH1 0x3 SWAP1 SWAP4 ADD SLOAD SWAP4 MLOAD SWAP2 DUP3 MSTORE PUSH1 0x20 DUP3 ADD MSTORE PUSH1 0x40 DUP2 ADD SWAP2 SWAP1 SWAP2 MSTORE PUSH1 0xFF SWAP1 SWAP2 AND ISZERO ISZERO PUSH1 0x60 DUP3 ADD MSTORE PUSH1 0x80 SWAP1 RETURN JUMPDEST SUB SWAP1 RETURN JUMPDEST DUP3 CALLVALUE PUSH2 0x485 JUMPI DUP2 PUSH1 0x3 NOT CALLDATASIZE ADD SLT PUSH2 0x485 JUMPI PUSH1 0xA SLOAD SWAP1 MLOAD PUSH1 0x1 PUSH1 0x1 PUSH1 0xA0 SHL SUB SWAP1 SWAP2 AND DUP2 MSTORE PUSH1 0x20 SWAP1 RETURN JUMPDEST DUP3 CALLVALUE PUSH2 0x485 JUMPI PUSH2 0x86C CALLDATASIZE PUSH2 0x173C JUMP JUMPDEST SWAP2 SWAP3 SWAP1 CALLER DUP6 MSTORE PUSH1 0x9 PUSH1 0x20 MSTORE PUSH1 0xFF DUP3 DUP7 KECCAK256 SLOAD AND ISZERO DUP1 PUSH2 0x9CF JUMPI JUMPDEST DUP1 PUSH2 0x9BB JUMPI JUMPDEST PUSH2 0x9AB JUMPI PUSH2 0x897 PUSH2 0x1DB8 JUMP JUMPDEST DUP1 ISZERO PUSH2 0x99B JUMPI DUP3 DUP6 MSTORE PUSH1 0xC PUSH1 0x20 MSTORE PUSH1 0xFF DUP3 DUP7 KECCAK256 SLOAD AND PUSH2 0x99B JUMPI DUP3 DUP6 MSTORE PUSH1 0xC PUSH1 0x20 MSTORE DUP2 DUP6 KECCAK256 PUSH1 0x1 PUSH1 0xFF NOT DUP3 SLOAD AND OR SWAP1 SSTORE PUSH1 0xB SLOAD SWAP3 DUP3 MLOAD PUSH2 0x8D5 DUP2 PUSH2 0x185F JUMP JUMPDEST DUP6 DUP2 MSTORE PUSH1 0x20 DUP2 ADD DUP4 DUP2 MSTORE DUP5 DUP3 ADD DUP4 DUP2 MSTORE PUSH1 0x60 DUP4 ADD SWAP2 DUP10 DUP4 MSTORE PUSH9 0x10000000000000000 DUP9 LT ISZERO PUSH2 0x988 JUMPI PUSH1 0x1 DUP9 ADD PUSH1 0xB SSTORE PUSH2 0x90E DUP9 PUSH2 0x179D JUMP JUMPDEST SWAP5 SWAP1 SWAP5 PUSH2 0x976 JUMPI SWAP3 PUSH32 0x10C84CDD57E9DF6CDC682539163D03D0ABD9D00C0B89B9F3AE925F79C0668144 SWAP8 SWAP7 SWAP6 SWAP5 SWAP3 PUSH1 0x3 SWAP3 PUSH2 0x968 SWAP6 MLOAD DUP6 SSTORE MLOAD PUSH1 0x1 DUP6 ADD SSTORE MLOAD PUSH1 0x2 DUP5 ADD SSTORE MLOAD ISZERO ISZERO SWAP2 ADD SWAP1 PUSH1 0xFF DUP1 NOT DUP4 SLOAD AND SWAP2 ISZERO ISZERO AND OR SWAP1 SSTORE JUMP JUMPDEST DUP3 MLOAD SWAP2 DUP3 MSTORE PUSH1 0x20 DUP3 ADD MSTORE LOG3 DUP1 RETURN JUMPDEST PUSH4 0x4E487B71 PUSH1 0xE0 SHL DUP12 MSTORE DUP11 DUP13 MSTORE PUSH1 0x24 DUP12 REVERT JUMPDEST PUSH4 0x4E487B71 PUSH1 0xE0 SHL DUP11 MSTORE PUSH1 0x41 DUP12 MSTORE PUSH1 0x24 DUP11 REVERT JUMPDEST DUP2 MLOAD PUSH4 0x162908E3 PUSH1 0xE1 SHL DUP2 MSTORE DUP7 SWAP1 REVERT JUMPDEST DUP2 MLOAD PUSH4 0xC48B3A1B PUSH1 0xE0 SHL DUP2 MSTORE DUP7 SWAP1 REVERT JUMPDEST POP DUP5 SLOAD PUSH1 0x1 PUSH1 0x1 PUSH1 0xA0 SHL SUB AND CALLER EQ ISZERO PUSH2 0x88B JUMP JUMPDEST POP PUSH1 0xA SLOAD PUSH1 0x1 PUSH1 0x1 PUSH1 0xA0 SHL SUB AND CALLER EQ ISZERO PUSH2 0x885 JUMP JUMPDEST DUP3 CALLVALUE PUSH2 0x485 JUMPI DUP2 PUSH1 0x3 NOT CALLDATASIZE ADD SLT PUSH2 0x485 JUMPI SWAP1 SLOAD SWAP1 MLOAD PUSH1 0x1 PUSH1 0x1 PUSH1 0xA0 SHL SUB SWAP1 SWAP2 AND DUP2 MSTORE PUSH1 0x20 SWAP1 RETURN JUMPDEST SWAP2 CALLVALUE PUSH2 0x761 JUMPI DUP3 PUSH1 0x3 NOT CALLDATASIZE ADD SLT PUSH2 0x761 JUMPI PUSH2 0xA24 PUSH2 0x1E19 JUMP JUMPDEST DUP1 MLOAD SWAP2 PUSH2 0xA30 DUP4 PUSH2 0x187B JUMP JUMPDEST DUP1 SLOAD PUSH1 0x1 PUSH1 0x1 PUSH1 0xA0 SHL SUB SWAP1 DUP2 AND DUP5 MSTORE PUSH1 0x5 SLOAD PUSH1 0x20 DUP6 ADD DUP2 DUP2 MSTORE SWAP2 SWAP4 SWAP2 SWAP1 ISZERO PUSH2 0xAC6 JUMPI MLOAD TIMESTAMP LT PUSH2 0xAB9 JUMPI POP PUSH1 0x3 DUP1 SLOAD SWAP4 MLOAD PUSH2 0x100 PUSH1 0x1 PUSH1 0xA8 SHL SUB NOT DUP6 AND PUSH1 0x8 DUP3 DUP2 SHL PUSH2 0x100 PUSH1 0x1 PUSH1 0xA8 SHL SUB AND SWAP2 SWAP1 SWAP2 OR SWAP1 SWAP3 SSTORE SWAP2 DUP6 SWAP1 SSTORE PUSH1 0x5 DUP6 SWAP1 SSTORE SWAP1 DUP3 AND SWAP3 SWAP1 SHR AND PUSH32 0x6F79E27210B19A4C7601E0A512E1A79BC305548722D4B80C87588EFFCE7A5511 DUP4 DUP1 LOG3 DUP1 RETURN JUMPDEST MLOAD PUSH4 0x621E25C3 PUSH1 0xE0 SHL DUP2 MSTORE REVERT JUMPDEST POP MLOAD PUSH4 0x147FDE5F PUSH1 0xE3 SHL DUP2 MSTORE REVERT JUMPDEST SWAP2 CALLVALUE PUSH2 0x761 JUMPI PUSH1 0x20 CALLDATASIZE PUSH1 0x3 NOT ADD SLT PUSH2 0x761 JUMPI DUP1 PUSH1 0xA0 SWAP4 DUP4 CALLDATALOAD DUP2 MSTORE PUSH1 0x6 PUSH1 0x20 MSTORE KECCAK256 PUSH1 0x1 DUP1 DUP6 SHL SUB SWAP3 DUP4 DUP3 SLOAD AND SWAP4 PUSH1 0x1 DUP4 ADD SLOAD AND SWAP3 PUSH1 0xFF PUSH1 0x2 DUP5 ADD SLOAD SWAP3 PUSH1 0x3 DUP6 ADD SLOAD SWAP5 ADD SLOAD AND SWAP4 DUP2 MLOAD SWAP6 DUP7 MSTORE PUSH1 0x20 DUP7 ADD MSTORE DUP5 ADD MSTORE PUSH1 0x60 DUP4 ADD MSTORE ISZERO ISZERO PUSH1 0x80 DUP3 ADD MSTORE RETURN JUMPDEST DUP3 CALLVALUE PUSH2 0x485 JUMPI DUP2 PUSH1 0x3 NOT CALLDATASIZE ADD SLT PUSH2 0x485 JUMPI PUSH1 0x20 PUSH32 0x62E78CEA01BEE320CD4E420270B5EA74000D11B0C9F74754EBDBFC544B05A258 SWAP2 PUSH2 0xB71 PUSH2 0x1E19 JUMP JUMPDEST PUSH2 0xB79 PUSH2 0x1DB8 JUMP JUMPDEST PUSH1 0x1 PUSH1 0xFF NOT PUSH1 0x3 SLOAD AND OR PUSH1 0x3 SSTORE MLOAD CALLER DUP2 MSTORE LOG1 DUP1 RETURN JUMPDEST DUP3 SWAP1 CALLVALUE PUSH2 0x44B JUMPI DUP1 PUSH1 0x3 NOT CALLDATASIZE ADD SLT PUSH2 0x44B JUMPI DUP2 MLOAD PUSH4 0x70A08231 PUSH1 0xE0 SHL DUP2 MSTORE ADDRESS SWAP4 DUP2 ADD SWAP4 SWAP1 SWAP4 MSTORE PUSH1 0x20 DUP4 PUSH1 0x24 DUP2 PUSH32 0x0 PUSH1 0x1 PUSH1 0x1 PUSH1 0xA0 SHL SUB AND GAS STATICCALL DUP1 ISZERO PUSH2 0xC52 JUMPI DUP2 SWAP1 PUSH2 0xC1D JUMPI JUMPDEST PUSH1 0x8 SLOAD PUSH1 0x20 SWAP5 POP SWAP1 DUP2 DUP2 GT ISZERO PUSH2 0xC15 JUMPI PUSH2 0xC0D SWAP3 POP PUSH2 0x180A JUMP JUMPDEST SWAP1 JUMPDEST MLOAD SWAP1 DUP2 MSTORE RETURN JUMPDEST POP POP SWAP1 PUSH2 0xC0F JUMP JUMPDEST POP SWAP2 PUSH1 0x20 DUP2 RETURNDATASIZE PUSH1 0x20 GT PUSH2 0xC4A JUMPI JUMPDEST DUP2 PUSH2 0xC38 PUSH1 0x20 SWAP4 DUP4 PUSH2 0x1897 JUMP JUMPDEST DUP2 ADD SUB SLT PUSH2 0x761 JUMPI SWAP2 PUSH1 0x20 SWAP3 MLOAD PUSH2 0xBF3 JUMP JUMPDEST RETURNDATASIZE SWAP2 POP PUSH2 0xC2B JUMP JUMPDEST POP SWAP1 MLOAD SWAP1 RETURNDATASIZE SWAP1 DUP3 RETURNDATACOPY RETURNDATASIZE SWAP1 REVERT JUMPDEST DUP3 CALLVALUE PUSH2 0x485 JUMPI PUSH1 0x60 SWAP1 PUSH2 0xC79 PUSH2 0xC73 CALLDATASIZE PUSH2 0x1787 JUMP JUMPDEST SWAP1 PUSH2 0x1B81 JUMP JUMPDEST SWAP2 SWAP3 SWAP1 DUP2 MLOAD SWAP4 DUP5 MSTORE PUSH1 0x20 DUP5 ADD MSTORE DUP3 ADD MSTORE RETURN JUMPDEST SWAP2 CALLVALUE PUSH2 0x761 JUMPI DUP3 PUSH1 0x3 NOT CALLDATASIZE ADD SLT PUSH2 0x761 JUMPI PUSH1 0x1 SLOAD SWAP2 PUSH1 0x1 PUSH1 0x1 PUSH1 0xA0 SHL SUB SWAP2 CALLER DUP4 DUP6 AND SUB PUSH2 0xCF5 JUMPI POP POP PUSH1 0x1 PUSH1 0x1 PUSH1 0xA0 SHL SUB NOT SWAP2 DUP3 AND PUSH1 0x1 SSTORE DUP3 SLOAD CALLER SWAP3 DUP2 AND DUP4 OR DUP5 SSTORE AND PUSH32 0x8BE0079C531659141344CD1FD0A4F28419497F9722A3DAAFE3B4186F6B6457E0 DUP4 DUP1 LOG3 DUP1 RETURN JUMPDEST PUSH1 0x24 SWAP3 POP MLOAD SWAP1 PUSH4 0x118CDAA7 PUSH1 0xE0 SHL DUP3 MSTORE CALLER SWAP1 DUP3 ADD MSTORE REVERT JUMPDEST SWAP3 POP CALLVALUE PUSH2 0x761 JUMPI PUSH1 0x20 CALLDATASIZE PUSH1 0x3 NOT ADD SLT PUSH2 0x761 JUMPI PUSH2 0xD27 PUSH2 0x175B JUMP JUMPDEST PUSH2 0xD2F PUSH2 0x1E19 JUMP JUMPDEST PUSH1 0x1 PUSH1 0x1 PUSH1 0xA0 SHL SUB AND SWAP1 DUP2 ISZERO PUSH2 0xD69 JUMPI POP PUSH1 0xA DUP1 SLOAD PUSH1 0x1 PUSH1 0x1 PUSH1 0xA0 SHL SUB NOT AND DUP3 OR SWAP1 SSTORE DUP3 MSTORE PUSH1 0x9 PUSH1 0x20 MSTORE DUP2 KECCAK256 DUP1 SLOAD PUSH1 0xFF NOT AND PUSH1 0x1 OR SWAP1 SSTORE DUP1 RETURN JUMPDEST DUP3 MLOAD PUSH4 0xD92E233D PUSH1 0xE0 SHL DUP2 MSTORE REVERT JUMPDEST CALLVALUE PUSH2 0x44B JUMPI DUP1 PUSH1 0x3 NOT CALLDATASIZE ADD SLT PUSH2 0x44B JUMPI POP SLOAD PUSH1 0x5 SLOAD SWAP2 MLOAD PUSH1 0x1 PUSH1 0x1 PUSH1 0xA0 SHL SUB SWAP1 SWAP2 AND DUP2 MSTORE PUSH1 0x20 DUP2 ADD SWAP2 SWAP1 SWAP2 MSTORE PUSH1 0x40 SWAP1 RETURN JUMPDEST CALLVALUE PUSH2 0x44B JUMPI PUSH1 0x20 CALLDATASIZE PUSH1 0x3 NOT ADD SLT PUSH2 0x44B JUMPI POP PUSH2 0xDC4 SWAP1 CALLDATALOAD PUSH2 0x179D JUMP JUMPDEST POP SWAP1 PUSH2 0x831 PUSH1 0x60 DUP3 MLOAD SWAP4 PUSH2 0xDD7 DUP6 PUSH2 0x185F JUMP JUMPDEST DUP1 SLOAD SWAP4 DUP5 DUP7 MSTORE PUSH1 0x1 DUP3 ADD SLOAD SWAP6 DUP7 PUSH1 0x20 DUP3 ADD MSTORE PUSH1 0xFF PUSH1 0x3 PUSH1 0x2 DUP6 ADD SLOAD SWAP5 DUP6 DUP6 DUP6 ADD MSTORE ADD SLOAD AND ISZERO ISZERO SWAP4 DUP5 SWAP2 ADD MSTORE MLOAD SWAP5 DUP6 SWAP5 DUP6 SWAP3 PUSH1 0x60 SWAP3 SWAP6 SWAP5 SWAP2 SWAP6 PUSH1 0x80 DUP6 ADD SWAP7 DUP6 MSTORE PUSH1 0x20 DUP6 ADD MSTORE PUSH1 0x40 DUP5 ADD MSTORE ISZERO ISZERO SWAP2 ADD MSTORE JUMP JUMPDEST CALLVALUE PUSH2 0x44B JUMPI DUP1 PUSH1 0x3 NOT CALLDATASIZE ADD SLT PUSH2 0x44B JUMPI PUSH2 0xE3F PUSH2 0x1E19 JUMP JUMPDEST PUSH1 0x1 DUP1 SLOAD PUSH1 0x1 PUSH1 0x1 PUSH1 0xA0 SHL SUB NOT SWAP1 DUP2 AND SWAP1 SWAP2 SSTORE DUP2 SLOAD SWAP1 DUP2 AND DUP3 SSTORE DUP2 SWAP1 PUSH1 0x1 PUSH1 0x1 PUSH1 0xA0 SHL SUB AND PUSH32 0x8BE0079C531659141344CD1FD0A4F28419497F9722A3DAAFE3B4186F6B6457E0 DUP3 DUP1 LOG3 DUP1 RETURN JUMPDEST SWAP3 POP CALLVALUE PUSH2 0x761 JUMPI PUSH1 0x20 CALLDATASIZE PUSH1 0x3 NOT ADD SLT PUSH2 0x761 JUMPI DUP1 DUP3 PUSH1 0x20 SWAP5 PUSH1 0xFF SWAP4 CALLDATALOAD DUP2 MSTORE PUSH1 0x6 DUP7 MSTORE KECCAK256 ADD SLOAD AND SWAP1 MLOAD SWAP1 ISZERO ISZERO DUP2 MSTORE RETURN JUMPDEST DUP3 CALLVALUE PUSH2 0x485 JUMPI DUP2 PUSH1 0x3 NOT CALLDATASIZE ADD SLT PUSH2 0x485 JUMPI PUSH1 0x20 SWAP1 PUSH1 0xFF PUSH1 0x3 SLOAD AND SWAP1 MLOAD SWAP1 ISZERO ISZERO DUP2 MSTORE RETURN JUMPDEST DUP3 CALLVALUE PUSH2 0x485 JUMPI DUP2 PUSH1 0x3 NOT CALLDATASIZE ADD SLT PUSH2 0x485 JUMPI PUSH1 0x20 SWAP1 MLOAD PUSH3 0x15180 DUP2 MSTORE RETURN JUMPDEST SWAP2 CALLVALUE PUSH2 0x761 JUMPI PUSH2 0xF09 CALLDATASIZE PUSH2 0x1787 JUMP JUMPDEST SWAP1 SWAP3 CALLER DUP6 MSTORE PUSH1 0x20 SWAP3 PUSH1 0x9 DUP5 MSTORE PUSH1 0xFF DUP2 DUP8 KECCAK256 SLOAD AND ISZERO DUP1 PUSH2 0x10DF JUMPI JUMPDEST DUP1 PUSH2 0x10CB JUMPI JUMPDEST PUSH2 0x10BE JUMPI PUSH2 0xF35 PUSH2 0x1D97 JUMP JUMPDEST PUSH2 0xF3D PUSH2 0x1DB8 JUMP JUMPDEST DUP3 ISZERO PUSH2 0x10B1 JUMPI DUP5 DUP7 MSTORE PUSH1 0x6 DUP5 MSTORE DUP1 DUP7 KECCAK256 SWAP4 DUP2 MLOAD SWAP5 PUSH2 0xF5A DUP7 PUSH2 0x182D JUMP JUMPDEST PUSH1 0x1 DUP1 PUSH1 0xA0 SHL SUB SWAP1 DUP2 DUP2 SLOAD AND DUP8 MSTORE DUP2 PUSH1 0x1 DUP3 ADD SLOAD AND SWAP1 DUP4 DUP9 ADD SWAP2 DUP3 MSTORE PUSH1 0x2 DUP2 ADD SLOAD SWAP6 DUP6 DUP10 ADD SWAP7 DUP8 MSTORE PUSH1 0xFF DUP2 PUSH1 0x3 DUP5 ADD SLOAD SWAP4 PUSH1 0x60 DUP13 ADD SWAP5 DUP6 MSTORE ADD SLOAD AND ISZERO DUP1 ISZERO PUSH1 0x80 DUP12 ADD MSTORE PUSH2 0x10A3 JUMPI POP PUSH2 0x1013 SWAP4 DUP4 DUP1 DUP8 SWAP5 PUSH2 0x1098 SWAP9 DUP15 DUP13 SWAP12 SWAP9 PUSH2 0x1021 PUSH1 0x0 DUP1 MLOAD PUSH1 0x20 PUSH2 0x1F91 DUP4 CODECOPY DUP2 MLOAD SWAP2 MSTORE SWAP16 SWAP15 PUSH2 0x101C PUSH2 0x1008 PUSH1 0x7 SWAP12 PUSH2 0xFFB DUP5 ADDRESS CALLER PUSH32 0x0 PUSH2 0x1E45 JUMP JUMPDEST PUSH2 0x2710 SWAP2 DUP3 SWAP2 MLOAD DUP6 PUSH2 0x18C6 JUMP JUMPDEST DIV SWAP15 DUP16 SWAP15 MLOAD DUP5 PUSH2 0x18C6 JUMP JUMPDEST DIV SWAP13 DUP14 SWAP3 PUSH2 0x180A JUMP JUMPDEST PUSH2 0x180A JUMP JUMPDEST SWAP14 MLOAD AND DUP2 MSTORE DUP7 DUP7 MSTORE KECCAK256 PUSH2 0x1035 DUP13 DUP3 SLOAD PUSH2 0x18B9 JUMP JUMPDEST SWAP1 SSTORE MLOAD AND DUP13 MSTORE DUP3 DUP3 MSTORE DUP4 DUP13 KECCAK256 PUSH2 0x104C DUP7 DUP3 SLOAD PUSH2 0x18B9 JUMP JUMPDEST SWAP1 SSTORE PUSH1 0x3 SLOAD PUSH1 0x8 SHR AND DUP12 MSTORE MSTORE DUP1 DUP10 KECCAK256 PUSH2 0x1066 DUP5 DUP3 SLOAD PUSH2 0x18B9 JUMP JUMPDEST SWAP1 SSTORE PUSH2 0x1074 DUP6 PUSH1 0x8 SLOAD PUSH2 0x18B9 JUMP JUMPDEST PUSH1 0x8 SSTORE MLOAD SWAP5 DUP6 SWAP5 DUP6 SWAP1 SWAP5 SWAP4 SWAP3 PUSH1 0x60 SWAP3 PUSH1 0x80 DUP4 ADD SWAP7 DUP4 MSTORE PUSH1 0x20 DUP4 ADD MSTORE PUSH1 0x40 DUP3 ADD MSTORE ADD MSTORE JUMP JUMPDEST SUB SWAP1 LOG2 PUSH1 0x1 PUSH1 0x2 SSTORE DUP1 RETURN JUMPDEST DUP6 MLOAD PUSH4 0xB7BDE6F PUSH1 0xE3 SHL DUP2 MSTORE REVERT JUMPDEST MLOAD PUSH4 0x162908E3 PUSH1 0xE1 SHL DUP2 MSTORE REVERT JUMPDEST MLOAD PUSH4 0xC48B3A1B PUSH1 0xE0 SHL DUP2 MSTORE REVERT JUMPDEST POP DUP6 SLOAD PUSH1 0x1 PUSH1 0x1 PUSH1 0xA0 SHL SUB AND CALLER EQ ISZERO PUSH2 0xF29 JUMP JUMPDEST POP PUSH1 0xA SLOAD PUSH1 0x1 PUSH1 0x1 PUSH1 0xA0 SHL SUB AND CALLER EQ ISZERO PUSH2 0xF23 JUMP JUMPDEST DUP3 CALLVALUE PUSH2 0x485 JUMPI PUSH1 0x20 CALLDATASIZE PUSH1 0x3 NOT ADD SLT PUSH2 0x485 JUMPI PUSH1 0x20 SWAP2 PUSH1 0xFF SWAP1 DUP3 SWAP1 PUSH1 0x1 PUSH1 0x1 PUSH1 0xA0 SHL SUB PUSH2 0x111E PUSH2 0x175B JUMP JUMPDEST AND DUP2 MSTORE PUSH1 0x9 DUP6 MSTORE KECCAK256 SLOAD AND SWAP1 MLOAD SWAP1 ISZERO ISZERO DUP2 MSTORE RETURN JUMPDEST SWAP2 CALLVALUE PUSH2 0x761 JUMPI PUSH1 0x20 CALLDATASIZE PUSH1 0x3 NOT ADD SLT PUSH2 0x761 JUMPI DUP1 DUP4 PUSH1 0xA0 SWAP5 PUSH1 0x80 DUP4 MLOAD PUSH2 0x1155 DUP2 PUSH2 0x182D JUMP JUMPDEST DUP3 DUP2 MSTORE DUP3 PUSH1 0x20 DUP3 ADD MSTORE DUP3 DUP6 DUP3 ADD MSTORE DUP3 PUSH1 0x60 DUP3 ADD MSTORE ADD MSTORE DUP4 CALLDATALOAD DUP2 MSTORE PUSH1 0x6 PUSH1 0x20 MSTORE KECCAK256 DUP2 MLOAD SWAP2 PUSH2 0x1181 DUP4 PUSH2 0x182D JUMP JUMPDEST PUSH1 0x1 DUP1 DUP7 SHL SUB SWAP4 DUP5 DUP4 SLOAD AND SWAP5 DUP6 DUP6 MSTORE DUP1 PUSH1 0x1 DUP6 ADD SLOAD AND PUSH1 0x20 DUP7 ADD SWAP1 DUP2 MSTORE PUSH1 0x80 PUSH1 0xFF PUSH1 0x2 DUP8 ADD SLOAD SWAP5 DUP7 DUP10 ADD SWAP6 DUP7 MSTORE PUSH1 0x3 DUP9 ADD SLOAD SWAP8 PUSH1 0x60 DUP11 ADD SWAP9 DUP10 MSTORE ADD SLOAD AND SWAP7 ADD SWAP6 ISZERO ISZERO DUP7 MSTORE DUP4 MLOAD SWAP7 DUP8 MSTORE MLOAD AND PUSH1 0x20 DUP7 ADD MSTORE MLOAD SWAP1 DUP5 ADD MSTORE MLOAD PUSH1 0x60 DUP4 ADD MSTORE MLOAD ISZERO ISZERO PUSH1 0x80 DUP3 ADD MSTORE RETURN JUMPDEST DUP3 CALLVALUE PUSH2 0x485 JUMPI DUP2 PUSH1 0x3 NOT CALLDATASIZE ADD SLT PUSH2 0x485 JUMPI PUSH1 0x20 SWAP1 PUSH1 0xD SLOAD SWAP1 MLOAD SWAP1 DUP2 MSTORE RETURN JUMPDEST SWAP2 CALLVALUE PUSH2 0x761 JUMPI DUP1 PUSH1 0x3 NOT CALLDATASIZE ADD SLT PUSH2 0x761 JUMPI PUSH2 0x121D PUSH2 0x175B JUMP JUMPDEST SWAP1 PUSH1 0x24 CALLDATALOAD DUP1 ISZERO ISZERO SWAP3 DUP4 DUP3 SUB PUSH2 0x673 JUMPI PUSH2 0x1234 PUSH2 0x1E19 JUMP JUMPDEST PUSH1 0x1 PUSH1 0x1 PUSH1 0xA0 SHL SUB AND SWAP4 DUP5 ISZERO PUSH2 0xD69 JUMPI POP SWAP2 PUSH1 0x20 SWAP2 PUSH2 0x1289 PUSH32 0xAD857FA38C9319CB80848F1EF2F924383B90297EB5D71755738FF037D100FAA1 SWAP5 DUP7 DUP9 MSTORE PUSH1 0x9 DUP6 MSTORE DUP3 DUP9 KECCAK256 SWAP1 PUSH1 0xFF DUP1 NOT DUP4 SLOAD AND SWAP2 ISZERO ISZERO AND OR SWAP1 SSTORE JUMP JUMPDEST MLOAD SWAP1 DUP2 MSTORE LOG2 DUP1 RETURN JUMPDEST DUP3 CALLVALUE PUSH2 0x485 JUMPI DUP2 PUSH1 0x3 NOT CALLDATASIZE ADD SLT PUSH2 0x485 JUMPI PUSH1 0x20 SWAP1 PUSH1 0x8 SLOAD SWAP1 MLOAD SWAP1 DUP2 MSTORE RETURN JUMPDEST SWAP3 POP CALLVALUE PUSH2 0x761 JUMPI DUP3 PUSH1 0x3 NOT CALLDATASIZE ADD SLT PUSH2 0x761 JUMPI PUSH2 0x12C9 PUSH2 0x1E19 JUMP JUMPDEST PUSH1 0x3 SLOAD SWAP1 PUSH1 0xFF DUP3 AND ISZERO PUSH2 0x130B JUMPI POP PUSH1 0xFF NOT AND PUSH1 0x3 SSTORE MLOAD CALLER DUP2 MSTORE PUSH32 0x5DB9EE0A495BF2E6FF9C91A7834C1BA4FDD244A5E8AA4E537BD38AEAE4B073AA SWAP1 PUSH1 0x20 SWAP1 LOG1 DUP1 RETURN JUMPDEST DUP3 MLOAD PUSH4 0x8DFC202B PUSH1 0xE0 SHL DUP2 MSTORE REVERT JUMPDEST DUP3 CALLVALUE PUSH2 0x485 JUMPI DUP2 PUSH1 0x3 NOT CALLDATASIZE ADD SLT PUSH2 0x485 JUMPI MLOAD PUSH32 0x0 PUSH1 0x1 PUSH1 0x1 PUSH1 0xA0 SHL SUB AND DUP2 MSTORE PUSH1 0x20 SWAP1 RETURN JUMPDEST DUP3 CALLVALUE PUSH2 0x485 JUMPI DUP2 PUSH1 0x3 NOT CALLDATASIZE ADD SLT PUSH2 0x485 JUMPI PUSH1 0x20 SWAP1 MLOAD PUSH2 0x7D0 DUP2 MSTORE RETURN JUMPDEST SWAP2 CALLVALUE PUSH2 0x761 JUMPI DUP3 PUSH1 0x3 NOT CALLDATASIZE ADD SLT PUSH2 0x761 JUMPI PUSH2 0x1391 PUSH2 0x1D97 JUMP JUMPDEST PUSH2 0x1399 PUSH2 0x1DB8 JUMP JUMPDEST CALLER DUP4 MSTORE PUSH1 0x7 PUSH1 0x20 MSTORE DUP1 DUP4 KECCAK256 SLOAD SWAP2 DUP3 ISZERO PUSH2 0x142E JUMPI PUSH2 0x2710 DUP4 LT PUSH2 0x1420 JUMPI POP CALLER DUP4 MSTORE PUSH1 0x7 PUSH1 0x20 MSTORE DUP3 DUP2 DUP2 KECCAK256 SSTORE PUSH2 0x13EE DUP3 CALLER PUSH32 0x0 PUSH2 0x1DD6 JUMP JUMPDEST MLOAD SWAP1 DUP2 MSTORE PUSH32 0x7FCF532C15F0A6DB0BD6D0E038BEA71D30D808C7D98CB3BF7268A95BF5081B65 PUSH1 0x20 CALLER SWAP3 LOG2 PUSH1 0x1 PUSH1 0x2 SSTORE DUP1 RETURN JUMPDEST SWAP1 MLOAD PUSH4 0x980DA45 PUSH1 0xE1 SHL DUP2 MSTORE REVERT JUMPDEST SWAP1 MLOAD PUSH4 0x1E9ACF17 PUSH1 0xE3 SHL DUP2 MSTORE REVERT JUMPDEST SWAP3 POP CALLVALUE PUSH2 0x761 JUMPI PUSH1 0xA0 CALLDATASIZE PUSH1 0x3 NOT ADD SLT PUSH2 0x761 JUMPI DUP1 CALLDATALOAD PUSH2 0x1459 PUSH2 0x1771 JUMP JUMPDEST PUSH1 0x1 PUSH1 0x1 PUSH1 0xA0 SHL SUB PUSH1 0x44 CALLDATALOAD DUP2 DUP2 AND SWAP6 SWAP3 SWAP1 DUP7 SWAP1 SUB PUSH2 0x15D9 JUMPI PUSH1 0x64 CALLDATALOAD SWAP2 PUSH1 0x84 CALLDATALOAD SWAP2 CALLER DUP10 MSTORE PUSH1 0x9 PUSH1 0x20 MSTORE PUSH1 0xFF DUP6 DUP11 KECCAK256 SLOAD AND ISZERO DUP1 PUSH2 0x15CB JUMPI JUMPDEST DUP1 PUSH2 0x15BE JUMPI JUMPDEST PUSH2 0x15AE JUMPI DUP2 SWAP1 PUSH2 0x14A3 PUSH2 0x1DB8 JUMP JUMPDEST AND SWAP6 DUP7 ISZERO PUSH2 0x15A0 JUMPI DUP8 ISZERO PUSH2 0x15A0 JUMPI PUSH2 0x7D0 DUP5 GT PUSH2 0x1592 JUMPI PUSH2 0x3E8 DUP4 GT PUSH2 0x1592 JUMPI PUSH2 0x2710 PUSH2 0x14D0 DUP5 DUP7 PUSH2 0x18B9 JUMP JUMPDEST GT PUSH2 0x1592 JUMPI DUP5 SWAP4 SWAP3 SWAP2 PUSH2 0x1584 SWAP2 DUP8 DUP12 PUSH32 0x90F4E9F35BA126DBEF0A8D29A11967A4F4A06161E9B6B9DBABACC99A04C59525 SWAP9 MLOAD SWAP4 PUSH2 0x150C DUP6 PUSH2 0x182D JUMP JUMPDEST DUP12 DUP6 MSTORE PUSH1 0x20 DUP6 ADD DUP14 DUP2 MSTORE DUP10 DUP7 ADD SWAP2 DUP10 DUP4 MSTORE DUP1 DUP12 PUSH1 0x60 DUP10 ADD SWAP6 DUP12 DUP8 MSTORE PUSH1 0x80 DUP11 ADD SWAP8 PUSH1 0x1 DUP10 MSTORE DUP2 MSTORE PUSH1 0x6 PUSH1 0x20 MSTORE KECCAK256 SWAP8 MLOAD AND SWAP1 PUSH12 0xFFFFFFFFFFFFFFFFFFFFFFFF PUSH1 0xA0 SHL SWAP2 DUP3 DUP10 SLOAD AND OR DUP9 SSTORE PUSH1 0x1 DUP9 ADD SWAP3 MLOAD AND SWAP1 DUP3 SLOAD AND OR SWAP1 SSTORE MLOAD PUSH1 0x2 DUP6 ADD SSTORE MLOAD PUSH1 0x3 DUP5 ADD SSTORE MLOAD ISZERO ISZERO SWAP2 ADD SWAP1 PUSH1 0xFF DUP1 NOT DUP4 SLOAD AND SWAP2 ISZERO ISZERO AND OR SWAP1 SSTORE JUMP JUMPDEST DUP3 MLOAD SWAP2 DUP3 MSTORE PUSH1 0x20 DUP3 ADD MSTORE LOG4 DUP1 RETURN JUMPDEST DUP5 MLOAD PUSH4 0xC6CC5D7F PUSH1 0xE0 SHL DUP2 MSTORE REVERT JUMPDEST DUP5 MLOAD PUSH4 0xD92E233D PUSH1 0xE0 SHL DUP2 MSTORE REVERT JUMPDEST DUP5 MLOAD PUSH4 0xC48B3A1B PUSH1 0xE0 SHL DUP2 MSTORE DUP8 SWAP1 REVERT JUMPDEST POP DUP2 DUP10 SLOAD AND CALLER EQ ISZERO PUSH2 0x1495 JUMP JUMPDEST POP DUP2 PUSH1 0xA SLOAD AND CALLER EQ ISZERO PUSH2 0x148F JUMP JUMPDEST DUP7 DUP1 REVERT JUMPDEST DUP3 CALLVALUE PUSH2 0x485 JUMPI PUSH2 0x15EC CALLDATASIZE PUSH2 0x173C JUMP JUMPDEST SWAP3 SWAP2 SWAP1 SWAP2 CALLER DUP6 MSTORE PUSH1 0x9 PUSH1 0x20 MSTORE PUSH1 0xFF DUP2 DUP7 KECCAK256 SLOAD AND ISZERO DUP1 PUSH2 0x164F JUMPI JUMPDEST DUP1 PUSH2 0x163B JUMPI JUMPDEST PUSH2 0x162C JUMPI POP PUSH2 0x570 SWAP4 SWAP5 POP PUSH2 0x161F PUSH2 0x1D97 JUMP JUMPDEST PUSH2 0x1627 PUSH2 0x1DB8 JUMP JUMPDEST PUSH2 0x18D9 JUMP JUMPDEST MLOAD PUSH4 0xC48B3A1B PUSH1 0xE0 SHL DUP2 MSTORE DUP6 SWAP1 REVERT JUMPDEST POP DUP5 SLOAD PUSH1 0x1 PUSH1 0x1 PUSH1 0xA0 SHL SUB AND CALLER EQ ISZERO PUSH2 0x160C JUMP JUMPDEST POP PUSH1 0xA SLOAD PUSH1 0x1 PUSH1 0x1 PUSH1 0xA0 SHL SUB AND CALLER EQ ISZERO PUSH2 0x1606 JUMP JUMPDEST SWAP1 POP CALLVALUE PUSH2 0x44B JUMPI DUP1 PUSH1 0x3 NOT CALLDATASIZE ADD SLT PUSH2 0x44B JUMPI PUSH1 0xB SLOAD SWAP1 PUSH1 0xD SLOAD DUP1 DUP4 GT PUSH1 0x0 EQ PUSH2 0x169E JUMPI PUSH2 0x1692 SWAP2 POP DUP3 PUSH2 0x180A JUMP JUMPDEST DUP3 MLOAD SWAP2 DUP3 MSTORE PUSH1 0x20 DUP3 ADD MSTORE RETURN JUMPDEST POP PUSH2 0x1692 JUMP JUMPDEST SWAP2 CALLVALUE PUSH2 0x761 JUMPI PUSH1 0x20 CALLDATASIZE PUSH1 0x3 NOT ADD SLT PUSH2 0x761 JUMPI DUP2 CALLDATALOAD SWAP2 PUSH2 0x16C1 PUSH2 0x1D97 JUMP JUMPDEST PUSH2 0x16C9 PUSH2 0x1DB8 JUMP JUMPDEST DUP3 ISZERO PUSH2 0x172E JUMPI PUSH2 0x2710 DUP4 LT PUSH2 0x1420 JUMPI CALLER DUP5 MSTORE PUSH1 0x7 PUSH1 0x20 MSTORE DUP3 DUP3 DUP6 KECCAK256 SLOAD LT PUSH2 0x142E JUMPI POP CALLER DUP4 MSTORE PUSH1 0x7 PUSH1 0x20 MSTORE DUP1 DUP4 KECCAK256 PUSH2 0x1701 DUP4 DUP3 SLOAD PUSH2 0x180A JUMP JUMPDEST SWAP1 SSTORE PUSH2 0x13EE DUP3 CALLER PUSH32 0x0 PUSH2 0x1DD6 JUMP JUMPDEST SWAP1 MLOAD PUSH4 0x162908E3 PUSH1 0xE1 SHL DUP2 MSTORE REVERT JUMPDEST PUSH1 0x60 SWAP1 PUSH1 0x3 NOT ADD SLT PUSH2 0x1756 JUMPI PUSH1 0x4 CALLDATALOAD SWAP1 PUSH1 0x24 CALLDATALOAD SWAP1 PUSH1 0x44 CALLDATALOAD SWAP1 JUMP JUMPDEST PUSH1 0x0 DUP1 REVERT JUMPDEST PUSH1 0x4 CALLDATALOAD SWAP1 PUSH1 0x1 PUSH1 0x1 PUSH1 0xA0 SHL SUB DUP3 AND DUP3 SUB PUSH2 0x1756 JUMPI JUMP JUMPDEST PUSH1 0x24 CALLDATALOAD SWAP1 PUSH1 0x1 PUSH1 0x1 PUSH1 0xA0 SHL SUB DUP3 AND DUP3 SUB PUSH2 0x1756 JUMPI JUMP JUMPDEST PUSH1 0x40 SWAP1 PUSH1 0x3 NOT ADD SLT PUSH2 0x1756 JUMPI PUSH1 0x4 CALLDATALOAD SWAP1 PUSH1 0x24 CALLDATALOAD SWAP1 JUMP JUMPDEST PUSH1 0xB SLOAD DUP2 LT ISZERO PUSH2 0x17D7 JUMPI PUSH1 0xB PUSH1 0x0 MSTORE PUSH1 0x2 SHL PUSH32 0x175B7A638427703F0DBE7BB9BBF987A2551717B34E79F33B5B1008D1FA01DB9 ADD SWAP1 PUSH1 0x0 SWAP1 JUMP JUMPDEST PUSH4 0x4E487B71 PUSH1 0xE0 SHL PUSH1 0x0 MSTORE PUSH1 0x32 PUSH1 0x4 MSTORE PUSH1 0x24 PUSH1 0x0 REVERT JUMPDEST CALLVALUE PUSH2 0x1756 JUMPI PUSH1 0x0 CALLDATASIZE PUSH1 0x3 NOT ADD SLT PUSH2 0x1756 JUMPI PUSH1 0x20 PUSH1 0x40 MLOAD PUSH2 0x2710 DUP2 MSTORE RETURN JUMPDEST SWAP2 SWAP1 DUP3 SUB SWAP2 DUP3 GT PUSH2 0x1817 JUMPI JUMP JUMPDEST PUSH4 0x4E487B71 PUSH1 0xE0 SHL PUSH1 0x0 MSTORE PUSH1 0x11 PUSH1 0x4 MSTORE PUSH1 0x24 PUSH1 0x0 REVERT JUMPDEST PUSH1 0xA0 DUP2 ADD SWAP1 DUP2 LT PUSH8 0xFFFFFFFFFFFFFFFF DUP3 GT OR PUSH2 0x1849 JUMPI PUSH1 0x40 MSTORE JUMP JUMPDEST PUSH4 0x4E487B71 PUSH1 0xE0 SHL PUSH1 0x0 MSTORE PUSH1 0x41 PUSH1 0x4 MSTORE PUSH1 0x24 PUSH1 0x0 REVERT JUMPDEST PUSH1 0x80 DUP2 ADD SWAP1 DUP2 LT PUSH8 0xFFFFFFFFFFFFFFFF DUP3 GT OR PUSH2 0x1849 JUMPI PUSH1 0x40 MSTORE JUMP JUMPDEST PUSH1 0x40 DUP2 ADD SWAP1 DUP2 LT PUSH8 0xFFFFFFFFFFFFFFFF DUP3 GT OR PUSH2 0x1849 JUMPI PUSH1 0x40 MSTORE JUMP JUMPDEST SWAP1 PUSH1 0x1F DUP1 NOT SWAP2 ADD AND DUP2 ADD SWAP1 DUP2 LT PUSH8 0xFFFFFFFFFFFFFFFF DUP3 GT OR PUSH2 0x1849 JUMPI PUSH1 0x40 MSTORE JUMP JUMPDEST SWAP2 SWAP1 DUP3 ADD DUP1 SWAP3 GT PUSH2 0x1817 JUMPI JUMP JUMPDEST DUP2 DUP2 MUL SWAP3 SWAP2 DUP2 ISZERO SWAP2 DUP5 DIV EQ OR ISZERO PUSH2 0x1817 JUMPI JUMP JUMPDEST SWAP1 SWAP3 SWAP2 DUP4 ISZERO PUSH2 0x1B6F JUMPI PUSH1 0x40 DUP1 MLOAD PUSH4 0x70A08231 PUSH1 0xE0 SHL DUP2 MSTORE ADDRESS PUSH1 0x4 DUP3 ADD MSTORE PUSH1 0x1 PUSH1 0x1 PUSH1 0xA0 SHL SUB SWAP6 SWAP2 SWAP3 SWAP1 PUSH1 0x20 SWAP1 DUP2 DUP2 PUSH1 0x24 DUP2 PUSH32 0x0 DUP13 AND GAS STATICCALL SWAP1 DUP2 ISZERO PUSH2 0x1B64 JUMPI PUSH1 0x0 SWAP2 PUSH2 0x1B37 JUMPI JUMPDEST POP DUP4 PUSH1 0x8 SWAP2 DUP3 SLOAD DUP1 DUP3 GT PUSH1 0x0 EQ PUSH2 0x1B2E JUMPI PUSH2 0x1958 SWAP2 PUSH2 0x180A JUMP JUMPDEST LT PUSH2 0x1B1D JUMPI SWAP5 DUP1 SWAP7 SWAP8 PUSH32 0xEB6A6E76FD4AE35ED214D3E66E4C16F31BBA87424BC53A71B6E0F59E1ABAE6C SWAP7 DUP3 PUSH1 0x0 MSTORE PUSH1 0x6 DUP5 MSTORE DUP7 PUSH1 0x0 KECCAK256 SWAP1 DUP8 MLOAD SWAP3 PUSH2 0x199C DUP5 PUSH2 0x182D JUMP JUMPDEST DUP1 DUP4 SLOAD AND DUP5 MSTORE DUP1 PUSH1 0x1 DUP5 ADD SLOAD AND DUP7 DUP6 ADD SWAP1 DUP2 MSTORE DUP9 PUSH1 0x2 DUP6 ADD SLOAD SWAP5 DUP12 DUP8 ADD SWAP6 DUP7 MSTORE PUSH1 0xFF PUSH1 0x4 PUSH1 0x3 DUP4 ADD SLOAD SWAP3 PUSH1 0x60 DUP11 ADD SWAP4 DUP5 MSTORE ADD SLOAD AND ISZERO DUP1 ISZERO PUSH1 0x80 DUP10 ADD MSTORE PUSH2 0x1AB5 JUMPI SWAP3 DUP1 PUSH2 0x1A1B SWAP7 SWAP4 DUP2 PUSH2 0x1A24 PUSH1 0x0 DUP1 MLOAD PUSH1 0x20 PUSH2 0x1F91 DUP4 CODECOPY DUP2 MLOAD SWAP2 MSTORE SWAP11 SWAP9 SWAP6 PUSH2 0x101C PUSH2 0x1A10 PUSH2 0x1AA7 SWAP11 PUSH2 0x2710 SWAP2 DUP3 SWAP2 MLOAD DUP6 PUSH2 0x18C6 JUMP JUMPDEST DIV SWAP13 DUP14 SWAP11 MLOAD DUP5 PUSH2 0x18C6 JUMP JUMPDEST DIV SWAP12 DUP13 SWAP3 PUSH2 0x180A JUMP JUMPDEST SWAP8 MLOAD AND PUSH1 0x0 MSTORE PUSH1 0x7 DUP12 MSTORE DUP14 PUSH1 0x0 KECCAK256 PUSH2 0x1A3D DUP9 DUP3 SLOAD PUSH2 0x18B9 JUMP JUMPDEST SWAP1 SSTORE MLOAD AND PUSH1 0x0 MSTORE PUSH1 0x7 DUP10 MSTORE DUP12 PUSH1 0x0 KECCAK256 PUSH2 0x1A57 DUP8 DUP3 SLOAD PUSH2 0x18B9 JUMP JUMPDEST SWAP1 SSTORE PUSH1 0x3 SLOAD DUP3 SHR AND PUSH1 0x0 MSTORE PUSH1 0x7 DUP9 MSTORE DUP11 PUSH1 0x0 KECCAK256 PUSH2 0x1A75 DUP4 DUP3 SLOAD PUSH2 0x18B9 JUMP JUMPDEST SWAP1 SSTORE PUSH2 0x1A82 DUP11 DUP3 SLOAD PUSH2 0x18B9 JUMP JUMPDEST SWAP1 SSTORE DUP10 MLOAD SWAP4 DUP5 SWAP4 DUP11 DUP6 SWAP1 SWAP5 SWAP4 SWAP3 PUSH1 0x60 SWAP3 PUSH1 0x80 DUP4 ADD SWAP7 DUP4 MSTORE PUSH1 0x20 DUP4 ADD MSTORE PUSH1 0x40 DUP3 ADD MSTORE ADD MSTORE JUMP JUMPDEST SUB SWAP1 LOG2 DUP4 MLOAD SWAP3 DUP4 MSTORE DUP3 ADD MSTORE LOG2 JUMP JUMPDEST POP POP POP SWAP3 POP SWAP3 POP POP PUSH1 0x3 SLOAD DUP3 SHR AND PUSH1 0x0 MSTORE PUSH1 0x7 DUP3 MSTORE DUP5 PUSH1 0x0 KECCAK256 PUSH2 0x1AD9 DUP6 DUP3 SLOAD PUSH2 0x18B9 JUMP JUMPDEST SWAP1 SSTORE PUSH2 0x1AE6 DUP5 DUP3 SLOAD PUSH2 0x18B9 JUMP JUMPDEST SWAP1 SSTORE DUP6 PUSH1 0x0 DUP1 MLOAD PUSH1 0x20 PUSH2 0x1F91 DUP4 CODECOPY DUP2 MLOAD SWAP2 MSTORE PUSH1 0x80 DUP7 MLOAD DUP7 DUP2 MSTORE PUSH1 0x0 DUP6 DUP3 ADD MSTORE PUSH1 0x0 DUP9 DUP3 ADD MSTORE DUP7 PUSH1 0x60 DUP3 ADD MSTORE LOG2 DUP4 MLOAD SWAP3 DUP4 MSTORE DUP3 ADD MSTORE LOG2 JUMP JUMPDEST DUP5 MLOAD PUSH4 0x1E9ACF17 PUSH1 0xE3 SHL DUP2 MSTORE PUSH1 0x4 SWAP1 REVERT JUMPDEST POP POP PUSH1 0x0 PUSH2 0x1958 JUMP JUMPDEST SWAP1 POP DUP2 DUP2 DUP2 RETURNDATASIZE DUP4 GT PUSH2 0x1B5D JUMPI JUMPDEST PUSH2 0x1B4E DUP2 DUP4 PUSH2 0x1897 JUMP JUMPDEST DUP2 ADD SUB SLT PUSH2 0x1756 JUMPI MLOAD CODESIZE PUSH2 0x193E JUMP JUMPDEST POP RETURNDATASIZE PUSH2 0x1B44 JUMP JUMPDEST DUP6 MLOAD RETURNDATASIZE PUSH1 0x0 DUP3 RETURNDATACOPY RETURNDATASIZE SWAP1 REVERT JUMPDEST PUSH1 0x40 MLOAD PUSH4 0x162908E3 PUSH1 0xE1 SHL DUP2 MSTORE PUSH1 0x4 SWAP1 REVERT JUMPDEST PUSH1 0x0 MSTORE PUSH1 0x6 PUSH1 0x20 MSTORE PUSH1 0x40 PUSH1 0x0 KECCAK256 PUSH1 0x40 MLOAD SWAP1 PUSH2 0x1B9B DUP3 PUSH2 0x182D JUMP JUMPDEST PUSH1 0x1 DUP1 PUSH1 0xA0 SHL SUB DUP1 DUP3 SLOAD AND DUP4 MSTORE PUSH1 0x1 DUP3 ADD SLOAD AND PUSH1 0x20 DUP4 ADD MSTORE PUSH1 0x2 DUP2 ADD SLOAD SWAP2 PUSH1 0x40 DUP2 ADD SWAP3 DUP4 MSTORE PUSH1 0xFF PUSH1 0x4 PUSH1 0x3 DUP5 ADD SLOAD SWAP4 DUP5 PUSH1 0x60 DUP6 ADD MSTORE ADD SLOAD AND ISZERO SWAP1 PUSH1 0x80 DUP3 ISZERO SWAP2 ADD MSTORE PUSH2 0x1C11 JUMPI PUSH2 0x1C05 SWAP3 PUSH2 0x101C PUSH2 0x1BFA PUSH2 0x1C0E SWAP4 PUSH2 0x2710 SWAP2 DUP3 SWAP2 DUP6 PUSH2 0x18C6 JUMP JUMPDEST DIV SWAP6 DUP7 SWAP6 MLOAD DUP5 PUSH2 0x18C6 JUMP JUMPDEST DIV SWAP5 DUP6 SWAP3 PUSH2 0x180A JUMP JUMPDEST SWAP3 JUMP JUMPDEST POP POP PUSH1 0x0 SWAP2 PUSH1 0x0 SWAP2 SWAP1 JUMP JUMPDEST SWAP1 DUP1 ISZERO PUSH2 0x1B6F JUMPI PUSH1 0x0 DUP1 MLOAD PUSH1 0x20 PUSH2 0x1F91 DUP4 CODECOPY DUP2 MLOAD SWAP2 MSTORE SWAP1 PUSH1 0x0 SWAP1 DUP4 DUP3 MSTORE PUSH1 0x20 SWAP1 PUSH1 0x6 DUP3 MSTORE PUSH1 0x40 DUP1 DUP5 KECCAK256 SWAP1 DUP1 MLOAD SWAP4 PUSH2 0x1C52 DUP6 PUSH2 0x182D JUMP JUMPDEST PUSH1 0x1 DUP1 PUSH1 0xA0 SHL SUB DUP1 DUP5 SLOAD AND DUP7 MSTORE DUP1 PUSH1 0x1 DUP6 ADD SLOAD AND DUP3 DUP8 ADD SWAP1 DUP2 MSTORE PUSH1 0x2 DUP6 ADD SLOAD SWAP5 DUP5 DUP9 ADD SWAP6 DUP7 MSTORE PUSH1 0xFF PUSH1 0x4 PUSH1 0x3 DUP4 ADD SLOAD SWAP3 PUSH1 0x60 DUP12 ADD SWAP4 DUP5 MSTORE ADD SLOAD AND PUSH1 0x80 DUP10 ADD SWAP1 ISZERO ISZERO DUP2 MSTORE PUSH2 0x1CC1 DUP9 ADDRESS CALLER PUSH32 0x0 PUSH2 0x1E45 JUMP JUMPDEST MLOAD ISZERO PUSH2 0x1D3D JUMPI DUP5 SWAP4 DUP4 DUP1 DUP10 SWAP11 SWAP12 SWAP5 PUSH2 0x1013 SWAP10 SWAP9 SWAP7 PUSH2 0x1CF2 PUSH2 0x1D38 SWAP13 PUSH2 0x101C PUSH2 0x1008 PUSH1 0x7 SWAP10 PUSH2 0x2710 SWAP2 DUP3 SWAP2 MLOAD DUP6 PUSH2 0x18C6 JUMP JUMPDEST SWAP14 MLOAD AND DUP7 MSTORE DUP5 DUP5 MSTORE DUP13 PUSH2 0x1D09 DUP9 DUP9 KECCAK256 SWAP2 DUP3 SLOAD PUSH2 0x18B9 JUMP JUMPDEST SWAP1 SSTORE MLOAD AND DUP5 MSTORE DUP3 DUP3 MSTORE DUP5 DUP5 KECCAK256 PUSH2 0x1D20 DUP9 DUP3 SLOAD PUSH2 0x18B9 JUMP JUMPDEST SWAP1 SSTORE PUSH1 0x3 SLOAD PUSH1 0x8 SHR AND DUP4 MSTORE MSTORE KECCAK256 PUSH2 0x1066 DUP5 DUP3 SLOAD PUSH2 0x18B9 JUMP JUMPDEST SUB SWAP1 LOG2 JUMP JUMPDEST POP POP SWAP1 SWAP5 POP PUSH1 0x80 SWAP6 SWAP3 POP PUSH1 0x3 SLOAD PUSH1 0x8 SHR AND DUP3 MSTORE PUSH1 0x7 DUP5 MSTORE DUP1 DUP3 KECCAK256 PUSH2 0x1D62 DUP5 DUP3 SLOAD PUSH2 0x18B9 JUMP JUMPDEST SWAP1 SSTORE PUSH2 0x1D70 DUP4 PUSH1 0x8 SLOAD PUSH2 0x18B9 JUMP JUMPDEST PUSH1 0x8 SSTORE DUP2 DUP2 MLOAD SWAP5 DUP5 DUP7 MSTORE DUP6 ADD MSTORE DUP4 ADD MSTORE PUSH1 0x60 DUP3 ADD MSTORE LOG2 JUMP JUMPDEST PUSH1 0x0 NOT DUP2 EQ PUSH2 0x1817 JUMPI PUSH1 0x1 ADD SWAP1 JUMP JUMPDEST PUSH1 0x2 DUP1 SLOAD EQ PUSH2 0x1DA6 JUMPI PUSH1 0x2 DUP1 SSTORE JUMP JUMPDEST PUSH1 0x40 MLOAD PUSH4 0x3EE5AEB5 PUSH1 0xE0 SHL DUP2 MSTORE PUSH1 0x4 SWAP1 REVERT JUMPDEST PUSH1 0xFF PUSH1 0x3 SLOAD AND PUSH2 0x1DC4 JUMPI JUMP JUMPDEST PUSH1 0x40 MLOAD PUSH4 0xD93C0665 PUSH1 0xE0 SHL DUP2 MSTORE PUSH1 0x4 SWAP1 REVERT JUMPDEST PUSH1 0x40 MLOAD PUSH4 0xA9059CBB PUSH1 0xE0 SHL PUSH1 0x20 DUP3 ADD MSTORE PUSH1 0x1 PUSH1 0x1 PUSH1 0xA0 SHL SUB SWAP3 SWAP1 SWAP3 AND PUSH1 0x24 DUP4 ADD MSTORE PUSH1 0x44 DUP1 DUP4 ADD SWAP4 SWAP1 SWAP4 MSTORE SWAP2 DUP2 MSTORE PUSH2 0x1E17 SWAP2 PUSH2 0x1E12 PUSH1 0x64 DUP4 PUSH2 0x1897 JUMP JUMPDEST PUSH2 0x1F28 JUMP JUMPDEST JUMP JUMPDEST PUSH1 0x0 SLOAD PUSH1 0x1 PUSH1 0x1 PUSH1 0xA0 SHL SUB AND CALLER SUB PUSH2 0x1E2D JUMPI JUMP JUMPDEST PUSH1 0x40 MLOAD PUSH4 0x118CDAA7 PUSH1 0xE0 SHL DUP2 MSTORE CALLER PUSH1 0x4 DUP3 ADD MSTORE PUSH1 0x24 SWAP1 REVERT JUMPDEST PUSH1 0x40 MLOAD PUSH4 0x23B872DD PUSH1 0xE0 SHL PUSH1 0x20 DUP3 ADD MSTORE PUSH1 0x1 PUSH1 0x1 PUSH1 0xA0 SHL SUB SWAP3 DUP4 AND PUSH1 0x24 DUP3 ADD MSTORE SWAP3 SWAP1 SWAP2 AND PUSH1 0x44 DUP4 ADD MSTORE PUSH1 0x64 DUP1 DUP4 ADD SWAP4 SWAP1 SWAP4 MSTORE SWAP2 DUP2 MSTORE PUSH2 0x1E17 SWAP2 PUSH2 0x1E12 DUP3 PUSH2 0x182D JUMP JUMPDEST SWAP1 PUSH1 0x0 DUP1 MLOAD PUSH1 0x20 PUSH2 0x1F91 DUP4 CODECOPY DUP2 MLOAD SWAP2 MSTORE SWAP1 PUSH1 0x0 SWAP1 DUP4 DUP3 MSTORE PUSH1 0x20 SWAP1 PUSH1 0x6 DUP3 MSTORE PUSH1 0x40 DUP1 DUP5 KECCAK256 SWAP1 DUP1 MLOAD SWAP4 PUSH2 0x1EB7 DUP6 PUSH2 0x182D JUMP JUMPDEST PUSH1 0x1 DUP1 PUSH1 0xA0 SHL SUB DUP1 DUP5 SLOAD AND DUP7 MSTORE DUP1 PUSH1 0x1 DUP6 ADD SLOAD AND DUP3 DUP8 ADD SWAP1 DUP2 MSTORE PUSH1 0x2 DUP6 ADD SLOAD SWAP5 DUP5 DUP9 ADD SWAP6 DUP7 MSTORE PUSH1 0xFF PUSH1 0x4 PUSH1 0x3 DUP4 ADD SLOAD SWAP3 PUSH1 0x60 DUP12 ADD SWAP4 DUP5 MSTORE ADD SLOAD AND ISZERO DUP1 ISZERO PUSH1 0x80 DUP11 ADD MSTORE PUSH2 0x1D3D JUMPI DUP5 SWAP4 DUP4 DUP1 DUP10 SWAP11 SWAP12 SWAP5 PUSH2 0x1013 SWAP10 SWAP9 SWAP7 PUSH2 0x1CF2 PUSH2 0x1D38 SWAP13 PUSH2 0x101C PUSH2 0x1008 PUSH1 0x7 SWAP10 PUSH2 0x2710 SWAP2 DUP3 SWAP2 MLOAD DUP6 PUSH2 0x18C6 JUMP JUMPDEST SWAP1 PUSH1 0x0 PUSH1 0x20 SWAP2 DUP3 DUP2 MLOAD SWAP2 ADD DUP3 DUP6 GAS CALL ISZERO PUSH2 0x1F84 JUMPI PUSH1 0x0 MLOAD RETURNDATASIZE PUSH2 0x1F7B JUMPI POP PUSH1 0x1 PUSH1 0x1 PUSH1 0xA0 SHL SUB DUP2 AND EXTCODESIZE ISZERO JUMPDEST PUSH2 0x1F59 JUMPI POP JUMP JUMPDEST PUSH1 0x40 MLOAD PUSH4 0x5274AFE7 PUSH1 0xE0 SHL DUP2 MSTORE PUSH1 0x1 PUSH1 0x1 PUSH1 0xA0 SHL SUB SWAP1 SWAP2 AND PUSH1 0x4 DUP3 ADD MSTORE PUSH1 0x24 SWAP1 REVERT JUMPDEST PUSH1 0x1 EQ ISZERO PUSH2 0x1F52 JUMP JUMPDEST PUSH1 0x40 MLOAD RETURNDATASIZE PUSH1 0x0 DUP3 RETURNDATACOPY RETURNDATASIZE SWAP1 REVERT INVALID 0xB7 DUP16 0xE7 0xD1 SWAP15 0xCA 0xA8 DUP3 0xEC SLOAD LT CALLVALUE RETURNDATACOPY 0xD8 0xAD 0x1E PUSH28 0x556D212F0CD51E6EC2737724362B36A2646970667358221220AC8866 0xA6 SLT 0xE9 0xD9 DUP8 0x26 PUSH2 0x1BBD ORIGIN 0xCA 0xCE 0xD4 BLOBHASH INVALID 0xC2 MSIZE CALLDATASIZE BALANCE 0xDF 0xB8 0x2C 0xEF CODESIZE KECCAK256 SAR 0xD PUSH22 0xD464736F6C6343000818003300000000000000000000 "},"methodIdentifiers":{"MAX_BPS()":"fd967f47","MAX_MARKETPLACE_FEE_BPS()":"b74fb316","MAX_ROYALTY_BPS()":"3dca40e6","MIN_WITHDRAWAL()":"d15ca166","TIMELOCK_DELAY()":"5ba1c1a9","acceptOwnership()":"79ba5097","authorizedCallers(address)":"536fff6c","balances(address)":"27e235e3","calculateSplit(uint256,uint256)":"7cc3068d","cancelMarketplaceWalletChange()":"b4d8170c","configureSplit(uint256,address,address,uint256,uint256)":"2951bd99","distributePayment(uint256,uint256)":"5793e02f","emergencyRescue(address,address,uint256)":"d687d0b3","executeMarketplaceWalletChange()":"8bd65c13","getBalance(address)":"f8b2cb4f","getPendingPayment(uint256)":"724f2cdc","getPendingPaymentsCount()":"0f5c5556","getSplit(uint256)":"514a6810","getUnallocatedBalance()":"7db804e9","isSplitConfigured(uint256)":"6d0ffb12","marketplace()":"abc8c7af","marketplaceWallet()":"ed9ed696","nextPaymentToProcess()":"49e38ceb","owner()":"8da5cb5b","pause()":"8456cb59","paused()":"5c975abb","pendingMarketplaceWallet()":"72f729f0","pendingOwner()":"e30c3978","pendingPayments(uint256)":"afcc5027","processPendingPayments(uint256)":"f9033d3f","processX402Payment(uint256,uint256,bytes32)":"1143bf76","receivePayment(uint256,uint256)":"ded1e6eb","registerPendingPayment(uint256,uint256,bytes32)":"91f7688c","renounceOwnership()":"715018a6","requestMarketplaceWalletChange(address)":"d3bec4c9","setAuthorizedCaller(address,bool)":"454bbd29","setMarketplace(address)":"73ad6c2d","splits(uint256)":"884c3006","totalAccumulated()":"4107d9cb","transferOwnership(address)":"f2fde38b","txHashUsed(bytes32)":"cc786291","unpause()":"3f4ba83a","usdc()":"3e413bee","withdraw()":"3ccfd60b","withdrawAmount(uint256)":"0562b9f7"}}}}}