{"contracts/LicenseNFTV2.sol":{"LicenseNFTV2":{"abi":[{"inputs":[{"internalType":"address","name":"marketplace_","type":"address"}],"stateMutability":"nonpayable","type":"constructor"},{"inputs":[{"internalType":"address","name":"sender","type":"address"},{"internalType":"uint256","name":"tokenId","type":"uint256"},{"internalType":"address","name":"owner","type":"address"}],"name":"ERC721IncorrectOwner","type":"error"},{"inputs":[{"internalType":"address","name":"operator","type":"address"},{"internalType":"uint256","name":"tokenId","type":"uint256"}],"name":"ERC721InsufficientApproval","type":"error"},{"inputs":[{"internalType":"address","name":"approver","type":"address"}],"name":"ERC721InvalidApprover","type":"error"},{"inputs":[{"internalType":"address","name":"operator","type":"address"}],"name":"ERC721InvalidOperator","type":"error"},{"inputs":[{"internalType":"address","name":"owner","type":"address"}],"name":"ERC721InvalidOwner","type":"error"},{"inputs":[{"internalType":"address","name":"receiver","type":"address"}],"name":"ERC721InvalidReceiver","type":"error"},{"inputs":[{"internalType":"address","name":"sender","type":"address"}],"name":"ERC721InvalidSender","type":"error"},{"inputs":[{"internalType":"uint256","name":"tokenId","type":"uint256"}],"name":"ERC721NonexistentToken","type":"error"},{"inputs":[],"name":"EnforcedPause","type":"error"},{"inputs":[],"name":"ExpectedPause","type":"error"},{"inputs":[],"name":"NoPendingChange","type":"error"},{"inputs":[],"name":"NotTransferable","type":"error"},{"inputs":[],"name":"OnlyMarketplace","type":"error"},{"inputs":[{"internalType":"address","name":"owner","type":"address"}],"name":"OwnableInvalidOwner","type":"error"},{"inputs":[{"internalType":"address","name":"account","type":"address"}],"name":"OwnableUnauthorizedAccount","type":"error"},{"inputs":[],"name":"ReentrancyGuardReentrantCall","type":"error"},{"inputs":[],"name":"TimelockNotExpired","type":"error"},{"inputs":[],"name":"TokenNotExists","type":"error"},{"inputs":[],"name":"URITooLong","type":"error"},{"inputs":[],"name":"ZeroAddress","type":"error"},{"anonymous":false,"inputs":[{"indexed":true,"internalType":"address","name":"owner","type":"address"},{"indexed":true,"internalType":"address","name":"approved","type":"address"},{"indexed":true,"internalType":"uint256","name":"tokenId","type":"uint256"}],"name":"Approval","type":"event"},{"anonymous":false,"inputs":[{"indexed":true,"internalType":"address","name":"owner","type":"address"},{"indexed":true,"internalType":"address","name":"operator","type":"address"},{"indexed":false,"internalType":"bool","name":"approved","type":"bool"}],"name":"ApprovalForAll","type":"event"},{"anonymous":false,"inputs":[{"indexed":false,"internalType":"string","name":"newBaseURI","type":"string"}],"name":"BaseURIUpdated","type":"event"},{"anonymous":false,"inputs":[{"indexed":true,"internalType":"uint256","name":"tokenId","type":"uint256"},{"indexed":false,"internalType":"uint64","name":"newExpiresAt","type":"uint64"}],"name":"LicenseExpirationUpdated","type":"event"},{"anonymous":false,"inputs":[{"indexed":true,"internalType":"address","name":"oldMarketplace","type":"address"},{"indexed":true,"internalType":"address","name":"newMarketplace","type":"address"},{"indexed":false,"internalType":"uint256","name":"effectiveAt","type":"uint256"}],"name":"MarketplaceChangeRequested","type":"event"},{"anonymous":false,"inputs":[{"indexed":true,"internalType":"address","name":"oldMarketplace","type":"address"},{"indexed":true,"internalType":"address","name":"newMarketplace","type":"address"}],"name":"MarketplaceChanged","type":"event"},{"anonymous":false,"inputs":[{"indexed":true,"internalType":"address","name":"previousOwner","type":"address"},{"indexed":true,"internalType":"address","name":"newOwner","type":"address"}],"name":"OwnershipTransferStarted","type":"event"},{"anonymous":false,"inputs":[{"indexed":true,"internalType":"address","name":"previousOwner","type":"address"},{"indexed":true,"internalType":"address","name":"newOwner","type":"address"}],"name":"OwnershipTransferred","type":"event"},{"anonymous":false,"inputs":[{"indexed":false,"internalType":"address","name":"account","type":"address"}],"name":"Paused","type":"event"},{"anonymous":false,"inputs":[{"indexed":true,"internalType":"uint256","name":"tokenId","type":"uint256"},{"indexed":false,"internalType":"string","name":"uri","type":"string"}],"name":"TokenURIUpdated","type":"event"},{"anonymous":false,"inputs":[{"indexed":true,"internalType":"address","name":"from","type":"address"},{"indexed":true,"internalType":"address","name":"to","type":"address"},{"indexed":true,"internalType":"uint256","name":"tokenId","type":"uint256"}],"name":"Transfer","type":"event"},{"anonymous":false,"inputs":[{"indexed":false,"internalType":"address","name":"account","type":"address"}],"name":"Unpaused","type":"event"},{"inputs":[],"name":"MAX_URI_LENGTH","outputs":[{"internalType":"uint256","name":"","type":"uint256"}],"stateMutability":"view","type":"function"},{"inputs":[],"name":"TIMELOCK_DELAY","outputs":[{"internalType":"uint256","name":"","type":"uint256"}],"stateMutability":"view","type":"function"},{"inputs":[],"name":"acceptOwnership","outputs":[],"stateMutability":"nonpayable","type":"function"},{"inputs":[{"internalType":"address","name":"to","type":"address"},{"internalType":"uint256","name":"tokenId","type":"uint256"}],"name":"approve","outputs":[],"stateMutability":"nonpayable","type":"function"},{"inputs":[{"internalType":"address","name":"owner","type":"address"}],"name":"balanceOf","outputs":[{"internalType":"uint256","name":"","type":"uint256"}],"stateMutability":"view","type":"function"},{"inputs":[],"name":"cancelMarketplaceChange","outputs":[],"stateMutability":"nonpayable","type":"function"},{"inputs":[],"name":"executeMarketplaceChange","outputs":[],"stateMutability":"nonpayable","type":"function"},{"inputs":[{"internalType":"uint256","name":"tokenId","type":"uint256"}],"name":"getApproved","outputs":[{"internalType":"address","name":"","type":"address"}],"stateMutability":"view","type":"function"},{"inputs":[{"internalType":"uint256","name":"tokenId","type":"uint256"}],"name":"getLicense","outputs":[{"components":[{"internalType":"uint256","name":"modelId","type":"uint256"},{"internalType":"uint8","name":"licenseKind","type":"uint8"},{"internalType":"uint8","name":"rights","type":"uint8"},{"internalType":"uint64","name":"expiresAt","type":"uint64"},{"internalType":"bool","name":"transferable","type":"bool"},{"internalType":"bytes32","name":"termsHash","type":"bytes32"},{"internalType":"uint16","name":"version","type":"uint16"}],"internalType":"struct LicenseNFTV2.LicenseData","name":"","type":"tuple"}],"stateMutability":"view","type":"function"},{"inputs":[{"internalType":"uint256","name":"tokenId","type":"uint256"}],"name":"hasApiRights","outputs":[{"internalType":"bool","name":"","type":"bool"}],"stateMutability":"view","type":"function"},{"inputs":[{"internalType":"uint256","name":"tokenId","type":"uint256"}],"name":"hasDownloadRights","outputs":[{"internalType":"bool","name":"","type":"bool"}],"stateMutability":"view","type":"function"},{"inputs":[{"internalType":"address","name":"owner","type":"address"},{"internalType":"address","name":"operator","type":"address"}],"name":"isApprovedForAll","outputs":[{"internalType":"bool","name":"","type":"bool"}],"stateMutability":"view","type":"function"},{"inputs":[{"internalType":"uint256","name":"tokenId","type":"uint256"}],"name":"isValid","outputs":[{"internalType":"bool","name":"","type":"bool"}],"stateMutability":"view","type":"function"},{"inputs":[],"name":"marketplace","outputs":[{"internalType":"address","name":"","type":"address"}],"stateMutability":"view","type":"function"},{"inputs":[{"internalType":"address","name":"to","type":"address"},{"components":[{"internalType":"uint256","name":"modelId","type":"uint256"},{"internalType":"uint8","name":"licenseKind","type":"uint8"},{"internalType":"uint8","name":"rights","type":"uint8"},{"internalType":"uint64","name":"expiresAt","type":"uint64"},{"internalType":"bool","name":"transferable","type":"bool"},{"internalType":"bytes32","name":"termsHash","type":"bytes32"},{"internalType":"uint16","name":"version","type":"uint16"}],"internalType":"struct LicenseNFTV2.LicenseData","name":"d","type":"tuple"}],"name":"mint","outputs":[{"internalType":"uint256","name":"tokenId","type":"uint256"}],"stateMutability":"nonpayable","type":"function"},{"inputs":[{"internalType":"address","name":"to","type":"address"},{"components":[{"internalType":"uint256","name":"modelId","type":"uint256"},{"internalType":"uint8","name":"licenseKind","type":"uint8"},{"internalType":"uint8","name":"rights","type":"uint8"},{"internalType":"uint64","name":"expiresAt","type":"uint64"},{"internalType":"bool","name":"transferable","type":"bool"},{"internalType":"bytes32","name":"termsHash","type":"bytes32"},{"internalType":"uint16","name":"version","type":"uint16"}],"internalType":"struct LicenseNFTV2.LicenseData","name":"d","type":"tuple"},{"internalType":"string","name":"uri","type":"string"}],"name":"mintWithURI","outputs":[{"internalType":"uint256","name":"tokenId","type":"uint256"}],"stateMutability":"nonpayable","type":"function"},{"inputs":[],"name":"name","outputs":[{"internalType":"string","name":"","type":"string"}],"stateMutability":"view","type":"function"},{"inputs":[],"name":"owner","outputs":[{"internalType":"address","name":"","type":"address"}],"stateMutability":"view","type":"function"},{"inputs":[{"internalType":"uint256","name":"tokenId","type":"uint256"}],"name":"ownerOf","outputs":[{"internalType":"address","name":"","type":"address"}],"stateMutability":"view","type":"function"},{"inputs":[],"name":"pause","outputs":[],"stateMutability":"nonpayable","type":"function"},{"inputs":[],"name":"paused","outputs":[{"internalType":"bool","name":"","type":"bool"}],"stateMutability":"view","type":"function"},{"inputs":[],"name":"pendingMarketplaceChange","outputs":[{"internalType":"address","name":"newMarketplace","type":"address"},{"internalType":"uint256","name":"effectiveAt","type":"uint256"}],"stateMutability":"view","type":"function"},{"inputs":[],"name":"pendingOwner","outputs":[{"internalType":"address","name":"","type":"address"}],"stateMutability":"view","type":"function"},{"inputs":[],"name":"renounceOwnership","outputs":[],"stateMutability":"nonpayable","type":"function"},{"inputs":[{"internalType":"address","name":"newMarketplace","type":"address"}],"name":"requestMarketplaceChange","outputs":[],"stateMutability":"nonpayable","type":"function"},{"inputs":[{"internalType":"address","name":"from","type":"address"},{"internalType":"address","name":"to","type":"address"},{"internalType":"uint256","name":"tokenId","type":"uint256"}],"name":"safeTransferFrom","outputs":[],"stateMutability":"nonpayable","type":"function"},{"inputs":[{"internalType":"address","name":"from","type":"address"},{"internalType":"address","name":"to","type":"address"},{"internalType":"uint256","name":"tokenId","type":"uint256"},{"internalType":"bytes","name":"data","type":"bytes"}],"name":"safeTransferFrom","outputs":[],"stateMutability":"nonpayable","type":"function"},{"inputs":[{"internalType":"address","name":"operator","type":"address"},{"internalType":"bool","name":"approved","type":"bool"}],"name":"setApprovalForAll","outputs":[],"stateMutability":"nonpayable","type":"function"},{"inputs":[{"internalType":"string","name":"newBaseURI","type":"string"}],"name":"setBaseURI","outputs":[],"stateMutability":"nonpayable","type":"function"},{"inputs":[{"internalType":"uint256","name":"tokenId","type":"uint256"},{"internalType":"string","name":"uri","type":"string"}],"name":"setTokenURI","outputs":[],"stateMutability":"nonpayable","type":"function"},{"inputs":[{"internalType":"bytes4","name":"interfaceId","type":"bytes4"}],"name":"supportsInterface","outputs":[{"internalType":"bool","name":"","type":"bool"}],"stateMutability":"view","type":"function"},{"inputs":[],"name":"symbol","outputs":[{"internalType":"string","name":"","type":"string"}],"stateMutability":"view","type":"function"},{"inputs":[{"internalType":"uint256","name":"tokenId","type":"uint256"}],"name":"tokenURI","outputs":[{"internalType":"string","name":"","type":"string"}],"stateMutability":"view","type":"function"},{"inputs":[],"name":"totalSupply","outputs":[{"internalType":"uint256","name":"","type":"uint256"}],"stateMutability":"view","type":"function"},{"inputs":[{"internalType":"address","name":"from","type":"address"},{"internalType":"address","name":"to","type":"address"},{"internalType":"uint256","name":"tokenId","type":"uint256"}],"name":"transferFrom","outputs":[],"stateMutability":"nonpayable","type":"function"},{"inputs":[{"internalType":"address","name":"newOwner","type":"address"}],"name":"transferOwnership","outputs":[],"stateMutability":"nonpayable","type":"function"},{"inputs":[],"name":"unpause","outputs":[],"stateMutability":"nonpayable","type":"function"},{"inputs":[{"internalType":"uint256","name":"tokenId","type":"uint256"},{"internalType":"uint64","name":"newExpiresAt","type":"uint64"}],"name":"updateExpires","outputs":[],"stateMutability":"nonpayable","type":"function"}],"evm":{"bytecode":{"linkReferences":{},"object":"6080346200041857601f19906001600160401b0390601f90620028c03881900383810186168301858111848210176200040257839282916040528339602092839181010312620004185751936001600160a01b03938486169384870362000418576200006a6200041d565b93601885527f4d61726b6574706c6163654149204c6963656e73652056320000000000000000818601526200009e6200041d565b90600882526726a820a4a624a19960c11b8183015285519484861162000402576000958654976001988981811c91168015620003f7575b85821014620003e35790818784931162000390575b5084908783116001146200032f57899262000323575b5050600019600383901b1c191690881b1786555b82519485116200030f5786548781811c9116801562000304575b83821014620002f05790818587969594931162000297575b508193851160011462000232575050849262000226575b5050600019600383901b1c191690831b1782555b33156200020e5760018060a01b03199081600754166007556006549133908316176006557f8be0079c531659141344cd1fd0a4f28419497f9722a3daafe3b4186f6b6457e0604051953393169180a360085515620001ff575060098054610100600160a81b03191660089290921b610100600160a81b031691909117905560405161248290816200043e8239f35b63d92e233d60e01b8152600490fd5b60249060405190631e4fbdf760e01b82526004820152fd5b0151905038806200015d565b879593929193168587528387209387905b8282106200027d575050841162000263575b505050811b01825562000171565b015160001960f88460031b161c1916905538808062000255565b848401518655899790950194938401939081019062000243565b9091929394508787528287208580880160051c820192858910620002e6575b9188978b9297969594930160051c01915b828110620002d757505062000146565b8981558897508a9101620002c7565b92508192620002b6565b634e487b7160e01b87526022600452602487fd5b90607f16906200012e565b634e487b7160e01b86526041600452602486fd5b01519050388062000100565b90848b9416918a8052868b20928b5b888282106200037957505084116200035f575b505050811b01865562000114565b015160001960f88460031b161c1916905538808062000351565b8385015186558e979095019493840193016200033e565b9091508880528489208780850160051c820192878610620003d9575b918c91869594930160051c01915b828110620003ca575050620000ea565b8b81558594508c9101620003ba565b92508192620003ac565b634e487b7160e01b89526022600452602489fd5b90607f1690620000d5565b634e487b7160e01b600052604160045260246000fd5b600080fd5b60408051919082016001600160401b03811183821017620004025760405256fe6080604081815260048036101561001557600080fd5b600092833560e01c90816301ffc9a71461173b5750806306fdde031461168a578063081812fc1461164f578063095ea7b314611573578063162094c41461138b57806318160ddd1461136c57806323b872dd1461135457806331f9abb91461128e5780633f4ba83a1461122557806342842e0e146111f657806355f804b3146110065780635ba1c1a914610fe85780635c975abb14610fc45780636352211e14610f9357806370a0823114610f3e578063715018a614610ed757806379ba509714610e4f5780638456cb5914610df4578063849b1b7e14610cb05780638da5cb5b14610c875780638f31ae0614610c2a57806395d89b4114610b3f578063a175734614610b0a578063a22cb46514610a69578063aab5a87714610a4c578063abc8c7af14610a1f578063b03fbfbb14610738578063b2dd12121461061c578063b88d4fde14610588578063c58636c01461051f578063c87b56dd146104cc578063e30c3978146104a3578063e985e9c514610451578063f2fde38b146103e3578063f577a50014610392578063f7ea85701461036b578063fc86e3ed1461029f5763fe5eb754146101c557600080fd5b3461029b578160031936011261029b578035916024356001600160401b03811692838203610297576009546001600160a01b039060081c8116330361028857858752600260205283872054161561027b5750916020916102737f054fa8435d3273ca8d4ef85d3750539bc2d0fde8fd9ad8e6b3c82a83fe8c255994868852600d85526001838920019069ffffffffffffffff000082549160101b169069ffffffffffffffff00001916179055565b51908152a280f35b8251626f708760e21b8152fd5b508251632b35006d60e21b8152fd5b8580fd5b8280fd5b50903461029b578260031936011261029b576102b9612005565b8051916102c583611882565b600a546001600160a01b039081168452600b5460208501818152919391901561035d57514210610350575050600980549251610100600160a81b03198416600882811b610100600160a81b031691909117909255600a859055600b859055821692901c167fc7afa5bbbb939feca6615e3a8c298615524ec5b0f27c48a211ee475fd2aca5878380a380f35b5163621e25c360e01b8152fd5b505163147fde5f60e31b8152fd5b833461038f578060031936011261038f57610384612005565b80600a5580600b5580f35b80fd5b503461029b57602036600319011261029b578035808452600260205292829020546001600160a01b0316156103d657506103cd602092611f47565b90519015158152f35b9051626f708760e21b8152fd5b833461038f57602036600319011261038f576103fd6117ef565b610405612005565b600780546001600160a01b0319166001600160a01b039283169081179091556006549091167f38d16b8cac22d99fc7c124b9cd0de2d3fa1faef420bfe791d8c362d765e227008380a380f35b50503461049f578060031936011261049f5760ff816020936104716117ef565b61047961180a565b6001600160a01b0391821683526005875283832091168252855220549151911615158152f35b5080fd5b50503461049f578160031936011261049f5760075490516001600160a01b039091168152602090f35b503461029b57602036600319011261029b578035808452600260205292829020546001600160a01b0316156103d6575061050861051b92611c15565b90519182916020835260208301906117ca565b0390f35b503461029b57602036600319011261029b5780358084526002602052828420549091906001600160a01b03161561027b57506001828460ff9360209652600d865220015460081c16906001821491821561057d575b50519015158152f35b600314915038610574565b50903461029b57608036600319011261029b576105a36117ef565b6105ab61180a565b6044359185606435956001600160401b03871161049f573660238801121561049f57860135956105e66105dd88611993565b965196876118e9565b868652366024888301011161049f5786610619976024602093018389013786010152610613838383611a10565b336122de565b80f35b50913461038f576020928360031936011261049f578035908260c08551610642816118b3565b828152828882015282878201528260608201528260808201528260a082015201528183526002855260018060a01b0384842054161561072b5760e0856003868087878152600d855220815191610697836118b3565b8154948584526001830154918185019060ff8416825260ff818701818660081c1681526001600160401b03948260608a0195878960101c1687528160808c019960501c161515895260c060028b01549a60a08d019b8c5261ffff9d8e910154169b019a8b5285519c8d525116908b01525116908801525116606086015251151560808501525160a0840152511660c0820152f35b8351626f708760e21b8152fd5b50903461029b5761012036600319011261029b576107546117ef565b9261075e3661190a565b906001600160401b036101043581811161029b5761077f9036908701611820565b6009549092906001600160a01b039060081c81163303610a0f576107a1612031565b6107a9612054565b8816156109ff5761020083116109ef57600c546107c590611bf0565b9687600c55878552602098600d8a52888887209780518955600198898101908d83015160ff16918054928d85015160081b61ff00169061ffff19809516171781558760608501511661083890829069ffffffffffffffff000082549160101b169069ffffffffffffffff00001916179055565b6080840151151581549060ff60501b9060501b169060ff60501b191617905560a083015160028201556003019160c0015161ffff169082541617905561087d91612072565b83610891575b505050505060085551908152f35b878552600f89528685209184116109dc575090816108b1889493546119ae565b601f8111610988575b5084601f84116001146109175760008051602061242d83398151915294958461090c575b50600019600385901b1c191683871b1790555b6108ff8651928392836119e8565b0390a23880808080610883565b9050820135386108de565b601f198416958282528a8220915b8b89898310610971575050508460008051602061242d833981519152969710610957575b50508583811b0190556108f1565b830135600019600386901b60f8161c191690553880610949565b8387013585558c9850909301929182019101610925565b9080929394508552888520601f850160051c8101918a86106109d2575b899594939291601f89920160051c01915b8281106109c45750506108ba565b8781558a96508891016109b6565b90915081906109a5565b634e487b7160e01b855260419052602484fd5b85516322e3481360e21b81528790fd5b855163d92e233d60e01b81528790fd5b8651632b35006d60e21b81528890fd5b50503461049f578160031936011261049f57600954905160089190911c6001600160a01b03168152602090f35b50503461049f578160031936011261049f57602090516102008152f35b50903461029b578060031936011261029b57610a836117ef565b9060243591821515809303610b06576001600160a01b0316928315610af15750338452600560205280842083855260205280842060ff1981541660ff8416179055519081527f17307eab39ab6107e8899845ad3d59bd9653f200f220920489ca2b5937696c3160203392a380f35b836024925191630b61174360e31b8352820152fd5b8480fd5b82843461038f578060031936011261038f5750600a54600b5491516001600160a01b0390911681526020810191909152604090f35b82843461038f578060031936011261038f57815191828260019360015494610b66866119ae565b9182855260209687600182169182600014610c03575050600114610ba7575b50505061051b9291610b989103856118e9565b519282849384528301906117ca565b9190869350600183527fb10e2d527612073b26eecdfd717e6a320cf44b4afac2b0732d9fcbe2b7fa0cf65b828410610beb5750505082010181610b9861051b610b85565b8054848a018601528895508794909301928101610bd2565b60ff19168782015293151560051b86019093019350849250610b98915061051b9050610b85565b503461029b57602036600319011261029b5780358084526002602052828420549091906001600160a01b03161561027b57506001828460ff9360209652600d865220015460081c16906002821491821561057d5750519015158152f35b50503461049f578160031936011261049f5760065490516001600160a01b039091168152602090f35b503461029b5761010036600319011261029b57610ccb6117ef565b90610cd53661190a565b6009549091906001600160a01b039060081c81163303610de557610cf7612031565b610cff612054565b831615610dd757506020938392610dcc92610d1b600c54611bf0565b95869384600c55848152600d8952208151815561ffff60c06003600184019360ff8c870151169480549561ff008c89015160081b1690861980981617178155610d926001600160401b03606089015116829069ffffffffffffffff000082549160101b169069ffffffffffffffff00001916179055565b6080870151151581549060ff60501b9060501b169060ff60501b191617905560a08601516002820155019301511690825416179055612072565b600160085551908152f35b835163d92e233d60e01b8152fd5b508351632b35006d60e21b8152fd5b50503461049f578160031936011261049f5760207f62e78cea01bee320cd4e420270b5ea74000d11b0c9f74754ebdbfc544b05a25891610e32612005565b610e3a612054565b600160ff19600954161760095551338152a180f35b50903461029b578260031936011261029b57600754916001600160a01b03913383851603610ec05750506001600160601b0360a01b8092166007556006549133908316176006553391167f8be0079c531659141344cd1fd0a4f28419497f9722a3daafe3b4186f6b6457e08380a380f35b60249250519063118cdaa760e01b82523390820152fd5b833461038f578060031936011261038f57610ef0612005565b600780546001600160a01b031990811690915560068054918216905581906001600160a01b03167f8be0079c531659141344cd1fd0a4f28419497f9722a3daafe3b4186f6b6457e08280a380f35b50913461038f57602036600319011261038f576001600160a01b03610f616117ef565b16928315610f7e5750806020938392526003845220549051908152f35b91516322718ad960e21b815291820152602490fd5b50913461038f57602036600319011261038f5750610fb360209235611fca565b90516001600160a01b039091168152f35b50503461049f578160031936011261049f5760209060ff6009541690519015158152f35b50503461049f578160031936011261049f5760209051620151808152f35b5082903461049f57602092602060031936011261029b576001600160401b03908235828111610b065761103c9036908501611820565b939092611047612005565b61020085116111e75784116109dc5750611062600e546119ae565b601f8111611184575b508394601f84116001146110d957506110c8908385967f6741b2fc379fad678116fe3d4d4b9a1a184ab53ba36b86ad0fa66340b1ab41ad96916110ce575b508460011b906000198660031b1c191617600e555b51928392836119e8565b0390a180f35b9050830135876110a9565b94601f198416600e86527fbb7b4a454dc3493923482f07822329ed19e8244eff582cc204f8554c3620c3fd9686905b82821061116b575050956110c89291857f6741b2fc379fad678116fe3d4d4b9a1a184ab53ba36b86ad0fa66340b1ab41ad979810611151575b5050600184811b01600e556110be565b840135600019600387901b60f8161c191690558680611141565b8386013589556001909801979283019290810190611108565b600e85527fbb7b4a454dc3493923482f07822329ed19e8244eff582cc204f8554c3620c3fd601f850160051c810191602086106111dd575b601f0160051c01905b8181106111d2575061106b565b8581556001016111c5565b90915081906111bc565b5090516322e3481360e21b8152fd5b50503461049f576106199061120a3661184d565b91925192611217846118ce565b858452610613838383611a10565b503461029b578260031936011261029b5761123e612005565b6009549060ff821615611280575060ff1916600955513381527f5db9ee0a495bf2e6ff9c91a7834c1ba4fdd244a5e8aa4e537bd38aeae4b073aa90602090a180f35b8251638dfc202b60e01b8152fd5b50903461029b57602036600319011261029b576112a96117ef565b916112b2612005565b6001600160a01b0392831692831561134557620151804201918242116113325750816020917f25a8bbb0546fb970f237a9d8faaebb8610077d196eef4ba1d6145ad23a6910419383865161130581611882565b8881520152856001600160601b0360a01b600a541617600a5581600b5560095460081c169351908152a380f35b634e487b7160e01b865260119052602485fd5b50905163d92e233d60e01b8152fd5b833461038f576106196113663661184d565b91611a10565b50503461049f578160031936011261049f57602090600c549051908152f35b5082903461049f578260031936011261049f578035906001600160401b0390602435828111610b06576113c19036908301611820565b600954909391926001600160a01b039160081c82163303611565578587526020916002835288882054161561155857610200851161154a57858752600f8252878720928511611537575061141582546119ae565b601f81116114f4575b508590601f851160011461147a5750956114699184879860008051602061242d83398151915297989161146f575b508560011b906000198760031b1c191617905551928392836119e8565b0390a280f35b90508401358961144c565b90601f1985168388528288209288905b8282106114dc5750509161146993918660008051602061242d83398151915298999a94106114c2575b5050600185811b0190556110be565b850135600019600388901b60f8161c1916905588806114b3565b80600185968294968a0135815501950193019061148a565b828752818720601f860160051c81019183871061152d575b601f0160051c01905b818110611522575061141e565b878155600101611515565b909150819061150c565b634e487b7160e01b875260419052602486fd5b87516322e3481360e21b8152fd5b8751626f708760e21b8152fd5b8751632b35006d60e21b8152fd5b50903461029b578060031936011261029b5761158d6117ef565b9160243561159a81611fca565b3315158061163c575b80611613575b6115fd576001600160a01b039485169482918691167f8c5be1e5ebec7d5bd14f71427d1e84f3dd0314c0f7b2291e5b200ac8c7c3b9258880a48452602052822080546001600160a01b031916909117905580f35b835163a9fbf51f60e01b81523381850152602490fd5b506001600160a01b03811686526005602090815284872033885290528386205460ff16156115a9565b506001600160a01b0381163314156115a3565b503461029b57602036600319011261029b5791826020933561167081611fca565b50825283528190205490516001600160a01b039091168152f35b82843461038f578060031936011261038f57815191828283546116ac816119ae565b9081845260209560019187600182169182600014610c035750506001146116e05750505061051b9291610b989103856118e9565b91908693508280527f290decd9548b62a8d60345a988386fc84ba6bc95484008f6362f93160ef3e5635b8284106117235750505082010181610b9861051b610b85565b8054848a01860152889550879490930192810161170a565b9250503461029b57602036600319011261029b573563ffffffff60e01b811680910361029b57602092506380ac58cd60e01b8114908115611796575b8115611785575b5015158152f35b6301ffc9a760e01b1490503861177e565b635b5e139f60e01b81149150611777565b60005b8381106117ba5750506000910152565b81810151838201526020016117aa565b906020916117e3815180928185528580860191016117a7565b601f01601f1916010190565b600435906001600160a01b038216820361180557565b600080fd5b602435906001600160a01b038216820361180557565b9181601f84011215611805578235916001600160401b038311611805576020838186019501011161180557565b6060906003190112611805576001600160a01b0390600435828116810361180557916024359081168103611805579060443590565b604081019081106001600160401b0382111761189d57604052565b634e487b7160e01b600052604160045260246000fd5b60e081019081106001600160401b0382111761189d57604052565b602081019081106001600160401b0382111761189d57604052565b90601f801991011681019081106001600160401b0382111761189d57604052565b60e09060231901126118055760405190611923826118b3565b81602435815260443560ff8116810361180557602082015260643560ff811681036118055760408201526084356001600160401b038116810361180557606082015260a435801515810361180557608082015260c43560a082015260e4359061ffff821682036118055760c00152565b6001600160401b03811161189d57601f01601f191660200190565b90600182811c921680156119de575b60208310146119c857565b634e487b7160e01b600052602260045260246000fd5b91607f16916119bd565b90918060409360208452816020850152848401376000828201840152601f01601f1916010190565b916001600160a01b03918216918215611bd757600093828552602093600285526040958387822054169533151580611b49575b508787151580611b16575b84845260038352818420805460010190558784526002835281842080546001600160a01b0319168617905581519488908a7fddf252ad1be2c89b69c2b068fc378daa952ba7f163c4a11628f55a4df523b3ef8780a480611b0e575b611ae2575b505050501692838303611ac15750505050565b6064945051926364283d7b60e01b8452600484015260248301526044820152fd5b60ff92600d6001935220015460501c1615611aff57808087611aae565b63dc8d8db760e01b8152600490fd5b506001611aa9565b600088815260046020526040902080546001600160a01b0319169055888452600383528184208054600019019055611a4e565b80611b96575b15611b5a5738611a43565b878688611b77576024915190637e27328960e01b82526004820152fd5b905163177e802f60e01b81523360048201526024810191909152604490fd5b503387148015611bbb575b80611b4f5750858252600481523385898420541614611b4f565b5086825260058152878220338352815260ff8883205416611ba1565b604051633250574960e11b815260006004820152602490fd5b6000198114611bff5760010190565b634e487b7160e01b600052601160045260246000fd5b600090808252602090600f8252604092838120918451829381815495611c3a876119ae565b92838352600197898982169182600014611f27575050600114611ee9575b50611c65925003826118e9565b8051611ee057508451600e5490938385611c7e846119ae565b9182825288820194898582169182600014611ec5575050600114611e6a575b611ca9925003866118e9565b845115611e535782839185947a184f03e93ff9f4daa797ed6e38ed64bf6a1f0100000000000000009081811015611e46575b5050876d04ee2d6d415b85acef810000000080851015611e38575b5050662386f26fc1000080841015611e29575b506305f5e10080841015611e1a575b5061271080841015611e0b575b506064831015611dfb575b600a80931015611df2575b9081602186611d64838d9901611d5c611d5382611993565b9a519a8b6118e9565b808a52611993565b888c019990601f1901368b3750870101905b611dbc575b5050505090611dad611db995949392611d9e9751978895518092888801906117a7565b840191518093868401906117a7565b010380845201826118e9565b90565b600019019083906f181899199a1a9b1b9c1cb0b131b232b360811b8282061a835304918215611ded57919082611d76565b611d7b565b80940193611d3b565b9391606460029104920193611d30565b60049195930492019338611d25565b60089195930492019338611d18565b60109195930492019338611d09565b950194909204918738611cf6565b8a96500492503880611cdb565b505050929150505190611e65826118ce565b815290565b5050600e8552858786847fbb7b4a454dc3493923482f07822329ed19e8244eff582cc204f8554c3620c3fd5b858310611eac575050611ca99350820101611c9d565b80919294505483858c0101520191018890848993611e96565b60ff19168752611ca994151560051b8401019150611c9d9050565b94505050505090565b915050845281868086208787915b858310611f0e575050611c65935082010138611c58565b8091929450548385880101520191018790878593611ef7565b60ff191685820152611c6595151560051b8501019250389150611c589050565b600052600d602052604060002060405190611f61826118b3565b8054825260018101549160c061ffff600360ff86169485602086015260ff8760081c16604086015260ff6001600160401b038860101c169788606088015260501c1615156080860152600281015460a086015201541691015215611fc457421090565b50600190565b6000818152600260205260409020546001600160a01b0316908115611fed575090565b60249060405190637e27328960e01b82526004820152fd5b6006546001600160a01b0316330361201957565b60405163118cdaa760e01b8152336004820152602490fd5b600260085414612042576002600855565b604051633ee5aeb560e01b8152600490fd5b60ff6009541661206057565b60405163d93c066560e01b8152600490fd5b6040805161207f816118ce565b6000808252936001600160a01b038481169490929085156122c6578287526020936002855285882054168015159081612293575b878952600386528689206001815401905584895260028652868920886001600160601b0360a01b82541617905584888851927fddf252ad1be2c89b69c2b068fc378daa952ba7f163c4a11628f55a4df523b3ef8c80a4818061228b575b612267575b5061224f573b612128575b505050505050565b82612166918596979894955180938192630a85bd0160e11b968784523360048501528c602485015260448401526080606484015260848301906117ca565b03818a8a5af187918161220b575b506121d4575050503d6000146121cb573d61218e81611993565b9061219b845192836118e9565b81528094823d92013e5b835193846121c5578251633250574960e11b815260048101859052602490fd5b84925001fd5b606093506121a5565b919550915063ffffffff60e01b16036121f4575050388080808080612120565b602492505190633250574960e11b82526004820152fd5b9091508481813d8311612248575b61222381836118e9565b8101031261224457516001600160e01b031981168103612244579038612174565b8780fd5b503d612219565b84516339e3563760e11b815260048101889052602490fd5b600d865260ff6001888b20015460501c166121155763dc8d8db760e01b8152600490fd5b506001612110565b600085815260046020526040902080546001600160a01b03191690558089526003865286892080546000190190556120b3565b8451633250574960e11b815260048101889052602490fd5b90939192833b6122f0575b5050505050565b604051630a85bd0160e11b8082526001600160a01b03938416600483015295831660248201526044810191909152608060648201529492169260209291859061233d9060848301906117ca565b039483816000978189895af18691816123e8575b506123b2575050503d6000146123a9573d61236b81611993565b9061237960405192836118e9565b81528093823d92013e5b825192836123a457604051633250574960e11b815260048101849052602490fd5b019050fd5b60609250612383565b919450915063ffffffff60e01b16036123d0575038808080806122e9565b60249060405190633250574960e11b82526004820152fd5b9091508481813d8311612425575b61240081836118e9565b8101031261242157516001600160e01b031981168103612421579038612351565b8680fd5b503d6123f656fe931f495b9a8e5d8e61946ea5d61e021f636cfe213a801f97589c18c152e408bda2646970667358221220085ce13a5785591d64e3a21b81256b23163123a7b219651605b99d62ef72820f64736f6c63430008180033","opcodes":"PUSH1 0x80 CALLVALUE PUSH3 0x418 JUMPI PUSH1 0x1F NOT SWAP1 PUSH1 0x1 PUSH1 0x1 PUSH1 0x40 SHL SUB SWAP1 PUSH1 0x1F SWAP1 PUSH3 0x28C0 CODESIZE DUP2 SWAP1 SUB DUP4 DUP2 ADD DUP7 AND DUP4 ADD DUP6 DUP2 GT DUP5 DUP3 LT OR PUSH3 0x402 JUMPI DUP4 SWAP3 DUP3 SWAP2 PUSH1 0x40 MSTORE DUP4 CODECOPY PUSH1 0x20 SWAP3 DUP4 SWAP2 DUP2 ADD SUB SLT PUSH3 0x418 JUMPI MLOAD SWAP4 PUSH1 0x1 PUSH1 0x1 PUSH1 0xA0 SHL SUB SWAP4 DUP5 DUP7 AND SWAP4 DUP5 DUP8 SUB PUSH3 0x418 JUMPI PUSH3 0x6A PUSH3 0x41D JUMP JUMPDEST SWAP4 PUSH1 0x18 DUP6 MSTORE PUSH32 0x4D61726B6574706C6163654149204C6963656E73652056320000000000000000 DUP2 DUP7 ADD MSTORE PUSH3 0x9E PUSH3 0x41D JUMP JUMPDEST SWAP1 PUSH1 0x8 DUP3 MSTORE PUSH8 0x26A820A4A624A199 PUSH1 0xC1 SHL DUP2 DUP4 ADD MSTORE DUP6 MLOAD SWAP5 DUP5 DUP7 GT PUSH3 0x402 JUMPI PUSH1 0x0 SWAP6 DUP7 SLOAD SWAP8 PUSH1 0x1 SWAP9 DUP10 DUP2 DUP2 SHR SWAP2 AND DUP1 ISZERO PUSH3 0x3F7 JUMPI JUMPDEST DUP6 DUP3 LT EQ PUSH3 0x3E3 JUMPI SWAP1 DUP2 DUP8 DUP5 SWAP4 GT PUSH3 0x390 JUMPI JUMPDEST POP DUP5 SWAP1 DUP8 DUP4 GT PUSH1 0x1 EQ PUSH3 0x32F JUMPI DUP10 SWAP3 PUSH3 0x323 JUMPI JUMPDEST POP POP PUSH1 0x0 NOT PUSH1 0x3 DUP4 SWAP1 SHL SHR NOT AND SWAP1 DUP9 SHL OR DUP7 SSTORE JUMPDEST DUP3 MLOAD SWAP5 DUP6 GT PUSH3 0x30F JUMPI DUP7 SLOAD DUP8 DUP2 DUP2 SHR SWAP2 AND DUP1 ISZERO PUSH3 0x304 JUMPI JUMPDEST DUP4 DUP3 LT EQ PUSH3 0x2F0 JUMPI SWAP1 DUP2 DUP6 DUP8 SWAP7 SWAP6 SWAP5 SWAP4 GT PUSH3 0x297 JUMPI JUMPDEST POP DUP2 SWAP4 DUP6 GT PUSH1 0x1 EQ PUSH3 0x232 JUMPI POP POP DUP5 SWAP3 PUSH3 0x226 JUMPI JUMPDEST POP POP PUSH1 0x0 NOT PUSH1 0x3 DUP4 SWAP1 SHL SHR NOT AND SWAP1 DUP4 SHL OR DUP3 SSTORE JUMPDEST CALLER ISZERO PUSH3 0x20E JUMPI PUSH1 0x1 DUP1 PUSH1 0xA0 SHL SUB NOT SWAP1 DUP2 PUSH1 0x7 SLOAD AND PUSH1 0x7 SSTORE PUSH1 0x6 SLOAD SWAP2 CALLER SWAP1 DUP4 AND OR PUSH1 0x6 SSTORE PUSH32 0x8BE0079C531659141344CD1FD0A4F28419497F9722A3DAAFE3B4186F6B6457E0 PUSH1 0x40 MLOAD SWAP6 CALLER SWAP4 AND SWAP2 DUP1 LOG3 PUSH1 0x8 SSTORE ISZERO PUSH3 0x1FF JUMPI POP PUSH1 0x9 DUP1 SLOAD PUSH2 0x100 PUSH1 0x1 PUSH1 0xA8 SHL SUB NOT AND PUSH1 0x8 SWAP3 SWAP1 SWAP3 SHL PUSH2 0x100 PUSH1 0x1 PUSH1 0xA8 SHL SUB AND SWAP2 SWAP1 SWAP2 OR SWAP1 SSTORE PUSH1 0x40 MLOAD PUSH2 0x2482 SWAP1 DUP2 PUSH3 0x43E DUP3 CODECOPY RETURN JUMPDEST PUSH4 0xD92E233D PUSH1 0xE0 SHL DUP2 MSTORE PUSH1 0x4 SWAP1 REVERT JUMPDEST PUSH1 0x24 SWAP1 PUSH1 0x40 MLOAD SWAP1 PUSH4 0x1E4FBDF7 PUSH1 0xE0 SHL DUP3 MSTORE PUSH1 0x4 DUP3 ADD MSTORE REVERT JUMPDEST ADD MLOAD SWAP1 POP CODESIZE DUP1 PUSH3 0x15D JUMP JUMPDEST DUP8 SWAP6 SWAP4 SWAP3 SWAP2 SWAP4 AND DUP6 DUP8 MSTORE DUP4 DUP8 KECCAK256 SWAP4 DUP8 SWAP1 JUMPDEST DUP3 DUP3 LT PUSH3 0x27D JUMPI POP POP DUP5 GT PUSH3 0x263 JUMPI JUMPDEST POP POP POP DUP2 SHL ADD DUP3 SSTORE PUSH3 0x171 JUMP JUMPDEST ADD MLOAD PUSH1 0x0 NOT PUSH1 0xF8 DUP5 PUSH1 0x3 SHL AND SHR NOT AND SWAP1 SSTORE CODESIZE DUP1 DUP1 PUSH3 0x255 JUMP JUMPDEST DUP5 DUP5 ADD MLOAD DUP7 SSTORE DUP10 SWAP8 SWAP1 SWAP6 ADD SWAP5 SWAP4 DUP5 ADD SWAP4 SWAP1 DUP2 ADD SWAP1 PUSH3 0x243 JUMP JUMPDEST SWAP1 SWAP2 SWAP3 SWAP4 SWAP5 POP DUP8 DUP8 MSTORE DUP3 DUP8 KECCAK256 DUP6 DUP1 DUP9 ADD PUSH1 0x5 SHR DUP3 ADD SWAP3 DUP6 DUP10 LT PUSH3 0x2E6 JUMPI JUMPDEST SWAP2 DUP9 SWAP8 DUP12 SWAP3 SWAP8 SWAP7 SWAP6 SWAP5 SWAP4 ADD PUSH1 0x5 SHR ADD SWAP2 JUMPDEST DUP3 DUP2 LT PUSH3 0x2D7 JUMPI POP POP PUSH3 0x146 JUMP JUMPDEST DUP10 DUP2 SSTORE DUP9 SWAP8 POP DUP11 SWAP2 ADD PUSH3 0x2C7 JUMP JUMPDEST SWAP3 POP DUP2 SWAP3 PUSH3 0x2B6 JUMP JUMPDEST PUSH4 0x4E487B71 PUSH1 0xE0 SHL DUP8 MSTORE PUSH1 0x22 PUSH1 0x4 MSTORE PUSH1 0x24 DUP8 REVERT JUMPDEST SWAP1 PUSH1 0x7F AND SWAP1 PUSH3 0x12E JUMP JUMPDEST PUSH4 0x4E487B71 PUSH1 0xE0 SHL DUP7 MSTORE PUSH1 0x41 PUSH1 0x4 MSTORE PUSH1 0x24 DUP7 REVERT JUMPDEST ADD MLOAD SWAP1 POP CODESIZE DUP1 PUSH3 0x100 JUMP JUMPDEST SWAP1 DUP5 DUP12 SWAP5 AND SWAP2 DUP11 DUP1 MSTORE DUP7 DUP12 KECCAK256 SWAP3 DUP12 JUMPDEST DUP9 DUP3 DUP3 LT PUSH3 0x379 JUMPI POP POP DUP5 GT PUSH3 0x35F JUMPI JUMPDEST POP POP POP DUP2 SHL ADD DUP7 SSTORE PUSH3 0x114 JUMP JUMPDEST ADD MLOAD PUSH1 0x0 NOT PUSH1 0xF8 DUP5 PUSH1 0x3 SHL AND SHR NOT AND SWAP1 SSTORE CODESIZE DUP1 DUP1 PUSH3 0x351 JUMP JUMPDEST DUP4 DUP6 ADD MLOAD DUP7 SSTORE DUP15 SWAP8 SWAP1 SWAP6 ADD SWAP5 SWAP4 DUP5 ADD SWAP4 ADD PUSH3 0x33E JUMP JUMPDEST SWAP1 SWAP2 POP DUP9 DUP1 MSTORE DUP5 DUP10 KECCAK256 DUP8 DUP1 DUP6 ADD PUSH1 0x5 SHR DUP3 ADD SWAP3 DUP8 DUP7 LT PUSH3 0x3D9 JUMPI JUMPDEST SWAP2 DUP13 SWAP2 DUP7 SWAP6 SWAP5 SWAP4 ADD PUSH1 0x5 SHR ADD SWAP2 JUMPDEST DUP3 DUP2 LT PUSH3 0x3CA JUMPI POP POP PUSH3 0xEA JUMP JUMPDEST DUP12 DUP2 SSTORE DUP6 SWAP5 POP DUP13 SWAP2 ADD PUSH3 0x3BA JUMP JUMPDEST SWAP3 POP DUP2 SWAP3 PUSH3 0x3AC JUMP JUMPDEST PUSH4 0x4E487B71 PUSH1 0xE0 SHL DUP10 MSTORE PUSH1 0x22 PUSH1 0x4 MSTORE PUSH1 0x24 DUP10 REVERT JUMPDEST SWAP1 PUSH1 0x7F AND SWAP1 PUSH3 0xD5 JUMP JUMPDEST PUSH4 0x4E487B71 PUSH1 0xE0 SHL PUSH1 0x0 MSTORE PUSH1 0x41 PUSH1 0x4 MSTORE PUSH1 0x24 PUSH1 0x0 REVERT JUMPDEST PUSH1 0x0 DUP1 REVERT JUMPDEST PUSH1 0x40 DUP1 MLOAD SWAP2 SWAP1 DUP3 ADD PUSH1 0x1 PUSH1 0x1 PUSH1 0x40 SHL SUB DUP2 GT DUP4 DUP3 LT OR PUSH3 0x402 JUMPI PUSH1 0x40 MSTORE JUMP INVALID PUSH1 0x80 PUSH1 0x40 DUP2 DUP2 MSTORE PUSH1 0x4 DUP1 CALLDATASIZE LT ISZERO PUSH2 0x15 JUMPI PUSH1 0x0 DUP1 REVERT JUMPDEST PUSH1 0x0 SWAP3 DUP4 CALLDATALOAD PUSH1 0xE0 SHR SWAP1 DUP2 PUSH4 0x1FFC9A7 EQ PUSH2 0x173B JUMPI POP DUP1 PUSH4 0x6FDDE03 EQ PUSH2 0x168A JUMPI DUP1 PUSH4 0x81812FC EQ PUSH2 0x164F JUMPI DUP1 PUSH4 0x95EA7B3 EQ PUSH2 0x1573 JUMPI DUP1 PUSH4 0x162094C4 EQ PUSH2 0x138B JUMPI DUP1 PUSH4 0x18160DDD EQ PUSH2 0x136C JUMPI DUP1 PUSH4 0x23B872DD EQ PUSH2 0x1354 JUMPI DUP1 PUSH4 0x31F9ABB9 EQ PUSH2 0x128E JUMPI DUP1 PUSH4 0x3F4BA83A EQ PUSH2 0x1225 JUMPI DUP1 PUSH4 0x42842E0E EQ PUSH2 0x11F6 JUMPI DUP1 PUSH4 0x55F804B3 EQ PUSH2 0x1006 JUMPI DUP1 PUSH4 0x5BA1C1A9 EQ PUSH2 0xFE8 JUMPI DUP1 PUSH4 0x5C975ABB EQ PUSH2 0xFC4 JUMPI DUP1 PUSH4 0x6352211E EQ PUSH2 0xF93 JUMPI DUP1 PUSH4 0x70A08231 EQ PUSH2 0xF3E JUMPI DUP1 PUSH4 0x715018A6 EQ PUSH2 0xED7 JUMPI DUP1 PUSH4 0x79BA5097 EQ PUSH2 0xE4F JUMPI DUP1 PUSH4 0x8456CB59 EQ PUSH2 0xDF4 JUMPI DUP1 PUSH4 0x849B1B7E EQ PUSH2 0xCB0 JUMPI DUP1 PUSH4 0x8DA5CB5B EQ PUSH2 0xC87 JUMPI DUP1 PUSH4 0x8F31AE06 EQ PUSH2 0xC2A JUMPI DUP1 PUSH4 0x95D89B41 EQ PUSH2 0xB3F JUMPI DUP1 PUSH4 0xA1757346 EQ PUSH2 0xB0A JUMPI DUP1 PUSH4 0xA22CB465 EQ PUSH2 0xA69 JUMPI DUP1 PUSH4 0xAAB5A877 EQ PUSH2 0xA4C JUMPI DUP1 PUSH4 0xABC8C7AF EQ PUSH2 0xA1F JUMPI DUP1 PUSH4 0xB03FBFBB EQ PUSH2 0x738 JUMPI DUP1 PUSH4 0xB2DD1212 EQ PUSH2 0x61C JUMPI DUP1 PUSH4 0xB88D4FDE EQ PUSH2 0x588 JUMPI DUP1 PUSH4 0xC58636C0 EQ PUSH2 0x51F JUMPI DUP1 PUSH4 0xC87B56DD EQ PUSH2 0x4CC JUMPI DUP1 PUSH4 0xE30C3978 EQ PUSH2 0x4A3 JUMPI DUP1 PUSH4 0xE985E9C5 EQ PUSH2 0x451 JUMPI DUP1 PUSH4 0xF2FDE38B EQ PUSH2 0x3E3 JUMPI DUP1 PUSH4 0xF577A500 EQ PUSH2 0x392 JUMPI DUP1 PUSH4 0xF7EA8570 EQ PUSH2 0x36B JUMPI DUP1 PUSH4 0xFC86E3ED EQ PUSH2 0x29F JUMPI PUSH4 0xFE5EB754 EQ PUSH2 0x1C5 JUMPI PUSH1 0x0 DUP1 REVERT JUMPDEST CALLVALUE PUSH2 0x29B JUMPI DUP2 PUSH1 0x3 NOT CALLDATASIZE ADD SLT PUSH2 0x29B JUMPI DUP1 CALLDATALOAD SWAP2 PUSH1 0x24 CALLDATALOAD PUSH1 0x1 PUSH1 0x1 PUSH1 0x40 SHL SUB DUP2 AND SWAP3 DUP4 DUP3 SUB PUSH2 0x297 JUMPI PUSH1 0x9 SLOAD PUSH1 0x1 PUSH1 0x1 PUSH1 0xA0 SHL SUB SWAP1 PUSH1 0x8 SHR DUP2 AND CALLER SUB PUSH2 0x288 JUMPI DUP6 DUP8 MSTORE PUSH1 0x2 PUSH1 0x20 MSTORE DUP4 DUP8 KECCAK256 SLOAD AND ISZERO PUSH2 0x27B JUMPI POP SWAP2 PUSH1 0x20 SWAP2 PUSH2 0x273 PUSH32 0x54FA8435D3273CA8D4EF85D3750539BC2D0FDE8FD9AD8E6B3C82A83FE8C2559 SWAP5 DUP7 DUP9 MSTORE PUSH1 0xD DUP6 MSTORE PUSH1 0x1 DUP4 DUP10 KECCAK256 ADD SWAP1 PUSH10 0xFFFFFFFFFFFFFFFF0000 DUP3 SLOAD SWAP2 PUSH1 0x10 SHL AND SWAP1 PUSH10 0xFFFFFFFFFFFFFFFF0000 NOT AND OR SWAP1 SSTORE JUMP JUMPDEST MLOAD SWAP1 DUP2 MSTORE LOG2 DUP1 RETURN JUMPDEST DUP3 MLOAD PUSH3 0x6F7087 PUSH1 0xE2 SHL DUP2 MSTORE REVERT JUMPDEST POP DUP3 MLOAD PUSH4 0x2B35006D PUSH1 0xE2 SHL DUP2 MSTORE REVERT JUMPDEST DUP6 DUP1 REVERT JUMPDEST DUP3 DUP1 REVERT JUMPDEST POP SWAP1 CALLVALUE PUSH2 0x29B JUMPI DUP3 PUSH1 0x3 NOT CALLDATASIZE ADD SLT PUSH2 0x29B JUMPI PUSH2 0x2B9 PUSH2 0x2005 JUMP JUMPDEST DUP1 MLOAD SWAP2 PUSH2 0x2C5 DUP4 PUSH2 0x1882 JUMP JUMPDEST PUSH1 0xA SLOAD PUSH1 0x1 PUSH1 0x1 PUSH1 0xA0 SHL SUB SWAP1 DUP2 AND DUP5 MSTORE PUSH1 0xB SLOAD PUSH1 0x20 DUP6 ADD DUP2 DUP2 MSTORE SWAP2 SWAP4 SWAP2 SWAP1 ISZERO PUSH2 0x35D JUMPI MLOAD TIMESTAMP LT PUSH2 0x350 JUMPI POP POP PUSH1 0x9 DUP1 SLOAD SWAP3 MLOAD PUSH2 0x100 PUSH1 0x1 PUSH1 0xA8 SHL SUB NOT DUP5 AND PUSH1 0x8 DUP3 DUP2 SHL PUSH2 0x100 PUSH1 0x1 PUSH1 0xA8 SHL SUB AND SWAP2 SWAP1 SWAP2 OR SWAP1 SWAP3 SSTORE PUSH1 0xA DUP6 SWAP1 SSTORE PUSH1 0xB DUP6 SWAP1 SSTORE DUP3 AND SWAP3 SWAP1 SHR AND PUSH32 0xC7AFA5BBBB939FECA6615E3A8C298615524EC5B0F27C48A211EE475FD2ACA587 DUP4 DUP1 LOG3 DUP1 RETURN JUMPDEST MLOAD PUSH4 0x621E25C3 PUSH1 0xE0 SHL DUP2 MSTORE REVERT JUMPDEST POP MLOAD PUSH4 0x147FDE5F PUSH1 0xE3 SHL DUP2 MSTORE REVERT JUMPDEST DUP4 CALLVALUE PUSH2 0x38F JUMPI DUP1 PUSH1 0x3 NOT CALLDATASIZE ADD SLT PUSH2 0x38F JUMPI PUSH2 0x384 PUSH2 0x2005 JUMP JUMPDEST DUP1 PUSH1 0xA SSTORE DUP1 PUSH1 0xB SSTORE DUP1 RETURN JUMPDEST DUP1 REVERT JUMPDEST POP CALLVALUE PUSH2 0x29B JUMPI PUSH1 0x20 CALLDATASIZE PUSH1 0x3 NOT ADD SLT PUSH2 0x29B JUMPI DUP1 CALLDATALOAD DUP1 DUP5 MSTORE PUSH1 0x2 PUSH1 0x20 MSTORE SWAP3 DUP3 SWAP1 KECCAK256 SLOAD PUSH1 0x1 PUSH1 0x1 PUSH1 0xA0 SHL SUB AND ISZERO PUSH2 0x3D6 JUMPI POP PUSH2 0x3CD PUSH1 0x20 SWAP3 PUSH2 0x1F47 JUMP JUMPDEST SWAP1 MLOAD SWAP1 ISZERO ISZERO DUP2 MSTORE RETURN JUMPDEST SWAP1 MLOAD PUSH3 0x6F7087 PUSH1 0xE2 SHL DUP2 MSTORE REVERT JUMPDEST DUP4 CALLVALUE PUSH2 0x38F JUMPI PUSH1 0x20 CALLDATASIZE PUSH1 0x3 NOT ADD SLT PUSH2 0x38F JUMPI PUSH2 0x3FD PUSH2 0x17EF JUMP JUMPDEST PUSH2 0x405 PUSH2 0x2005 JUMP JUMPDEST PUSH1 0x7 DUP1 SLOAD PUSH1 0x1 PUSH1 0x1 PUSH1 0xA0 SHL SUB NOT AND PUSH1 0x1 PUSH1 0x1 PUSH1 0xA0 SHL SUB SWAP3 DUP4 AND SWAP1 DUP2 OR SWAP1 SWAP2 SSTORE PUSH1 0x6 SLOAD SWAP1 SWAP2 AND PUSH32 0x38D16B8CAC22D99FC7C124B9CD0DE2D3FA1FAEF420BFE791D8C362D765E22700 DUP4 DUP1 LOG3 DUP1 RETURN JUMPDEST POP POP CALLVALUE PUSH2 0x49F JUMPI DUP1 PUSH1 0x3 NOT CALLDATASIZE ADD SLT PUSH2 0x49F JUMPI PUSH1 0xFF DUP2 PUSH1 0x20 SWAP4 PUSH2 0x471 PUSH2 0x17EF JUMP JUMPDEST PUSH2 0x479 PUSH2 0x180A JUMP JUMPDEST PUSH1 0x1 PUSH1 0x1 PUSH1 0xA0 SHL SUB SWAP2 DUP3 AND DUP4 MSTORE PUSH1 0x5 DUP8 MSTORE DUP4 DUP4 KECCAK256 SWAP2 AND DUP3 MSTORE DUP6 MSTORE KECCAK256 SLOAD SWAP2 MLOAD SWAP2 AND ISZERO ISZERO DUP2 MSTORE RETURN JUMPDEST POP DUP1 REVERT JUMPDEST POP POP CALLVALUE PUSH2 0x49F JUMPI DUP2 PUSH1 0x3 NOT CALLDATASIZE ADD SLT PUSH2 0x49F JUMPI PUSH1 0x7 SLOAD SWAP1 MLOAD PUSH1 0x1 PUSH1 0x1 PUSH1 0xA0 SHL SUB SWAP1 SWAP2 AND DUP2 MSTORE PUSH1 0x20 SWAP1 RETURN JUMPDEST POP CALLVALUE PUSH2 0x29B JUMPI PUSH1 0x20 CALLDATASIZE PUSH1 0x3 NOT ADD SLT PUSH2 0x29B JUMPI DUP1 CALLDATALOAD DUP1 DUP5 MSTORE PUSH1 0x2 PUSH1 0x20 MSTORE SWAP3 DUP3 SWAP1 KECCAK256 SLOAD PUSH1 0x1 PUSH1 0x1 PUSH1 0xA0 SHL SUB AND ISZERO PUSH2 0x3D6 JUMPI POP PUSH2 0x508 PUSH2 0x51B SWAP3 PUSH2 0x1C15 JUMP JUMPDEST SWAP1 MLOAD SWAP2 DUP3 SWAP2 PUSH1 0x20 DUP4 MSTORE PUSH1 0x20 DUP4 ADD SWAP1 PUSH2 0x17CA JUMP JUMPDEST SUB SWAP1 RETURN JUMPDEST POP CALLVALUE PUSH2 0x29B JUMPI PUSH1 0x20 CALLDATASIZE PUSH1 0x3 NOT ADD SLT PUSH2 0x29B JUMPI DUP1 CALLDATALOAD DUP1 DUP5 MSTORE PUSH1 0x2 PUSH1 0x20 MSTORE DUP3 DUP5 KECCAK256 SLOAD SWAP1 SWAP2 SWAP1 PUSH1 0x1 PUSH1 0x1 PUSH1 0xA0 SHL SUB AND ISZERO PUSH2 0x27B JUMPI POP PUSH1 0x1 DUP3 DUP5 PUSH1 0xFF SWAP4 PUSH1 0x20 SWAP7 MSTORE PUSH1 0xD DUP7 MSTORE KECCAK256 ADD SLOAD PUSH1 0x8 SHR AND SWAP1 PUSH1 0x1 DUP3 EQ SWAP2 DUP3 ISZERO PUSH2 0x57D JUMPI JUMPDEST POP MLOAD SWAP1 ISZERO ISZERO DUP2 MSTORE RETURN JUMPDEST PUSH1 0x3 EQ SWAP2 POP CODESIZE PUSH2 0x574 JUMP JUMPDEST POP SWAP1 CALLVALUE PUSH2 0x29B JUMPI PUSH1 0x80 CALLDATASIZE PUSH1 0x3 NOT ADD SLT PUSH2 0x29B JUMPI PUSH2 0x5A3 PUSH2 0x17EF JUMP JUMPDEST PUSH2 0x5AB PUSH2 0x180A JUMP JUMPDEST PUSH1 0x44 CALLDATALOAD SWAP2 DUP6 PUSH1 0x64 CALLDATALOAD SWAP6 PUSH1 0x1 PUSH1 0x1 PUSH1 0x40 SHL SUB DUP8 GT PUSH2 0x49F JUMPI CALLDATASIZE PUSH1 0x23 DUP9 ADD SLT ISZERO PUSH2 0x49F JUMPI DUP7 ADD CALLDATALOAD SWAP6 PUSH2 0x5E6 PUSH2 0x5DD DUP9 PUSH2 0x1993 JUMP JUMPDEST SWAP7 MLOAD SWAP7 DUP8 PUSH2 0x18E9 JUMP JUMPDEST DUP7 DUP7 MSTORE CALLDATASIZE PUSH1 0x24 DUP9 DUP4 ADD ADD GT PUSH2 0x49F JUMPI DUP7 PUSH2 0x619 SWAP8 PUSH1 0x24 PUSH1 0x20 SWAP4 ADD DUP4 DUP10 ADD CALLDATACOPY DUP7 ADD ADD MSTORE PUSH2 0x613 DUP4 DUP4 DUP4 PUSH2 0x1A10 JUMP JUMPDEST CALLER PUSH2 0x22DE JUMP JUMPDEST DUP1 RETURN JUMPDEST POP SWAP2 CALLVALUE PUSH2 0x38F JUMPI PUSH1 0x20 SWAP3 DUP4 PUSH1 0x3 NOT CALLDATASIZE ADD SLT PUSH2 0x49F JUMPI DUP1 CALLDATALOAD SWAP1 DUP3 PUSH1 0xC0 DUP6 MLOAD PUSH2 0x642 DUP2 PUSH2 0x18B3 JUMP JUMPDEST DUP3 DUP2 MSTORE DUP3 DUP9 DUP3 ADD MSTORE DUP3 DUP8 DUP3 ADD MSTORE DUP3 PUSH1 0x60 DUP3 ADD MSTORE DUP3 PUSH1 0x80 DUP3 ADD MSTORE DUP3 PUSH1 0xA0 DUP3 ADD MSTORE ADD MSTORE DUP2 DUP4 MSTORE PUSH1 0x2 DUP6 MSTORE PUSH1 0x1 DUP1 PUSH1 0xA0 SHL SUB DUP5 DUP5 KECCAK256 SLOAD AND ISZERO PUSH2 0x72B JUMPI PUSH1 0xE0 DUP6 PUSH1 0x3 DUP7 DUP1 DUP8 DUP8 DUP2 MSTORE PUSH1 0xD DUP6 MSTORE KECCAK256 DUP2 MLOAD SWAP2 PUSH2 0x697 DUP4 PUSH2 0x18B3 JUMP JUMPDEST DUP2 SLOAD SWAP5 DUP6 DUP5 MSTORE PUSH1 0x1 DUP4 ADD SLOAD SWAP2 DUP2 DUP6 ADD SWAP1 PUSH1 0xFF DUP5 AND DUP3 MSTORE PUSH1 0xFF DUP2 DUP8 ADD DUP2 DUP7 PUSH1 0x8 SHR AND DUP2 MSTORE PUSH1 0x1 PUSH1 0x1 PUSH1 0x40 SHL SUB SWAP5 DUP3 PUSH1 0x60 DUP11 ADD SWAP6 DUP8 DUP10 PUSH1 0x10 SHR AND DUP8 MSTORE DUP2 PUSH1 0x80 DUP13 ADD SWAP10 PUSH1 0x50 SHR AND ISZERO ISZERO DUP10 MSTORE PUSH1 0xC0 PUSH1 0x2 DUP12 ADD SLOAD SWAP11 PUSH1 0xA0 DUP14 ADD SWAP12 DUP13 MSTORE PUSH2 0xFFFF SWAP14 DUP15 SWAP2 ADD SLOAD AND SWAP12 ADD SWAP11 DUP12 MSTORE DUP6 MLOAD SWAP13 DUP14 MSTORE MLOAD AND SWAP1 DUP12 ADD MSTORE MLOAD AND SWAP1 DUP9 ADD MSTORE MLOAD AND PUSH1 0x60 DUP7 ADD MSTORE MLOAD ISZERO ISZERO PUSH1 0x80 DUP6 ADD MSTORE MLOAD PUSH1 0xA0 DUP5 ADD MSTORE MLOAD AND PUSH1 0xC0 DUP3 ADD MSTORE RETURN JUMPDEST DUP4 MLOAD PUSH3 0x6F7087 PUSH1 0xE2 SHL DUP2 MSTORE REVERT JUMPDEST POP SWAP1 CALLVALUE PUSH2 0x29B JUMPI PUSH2 0x120 CALLDATASIZE PUSH1 0x3 NOT ADD SLT PUSH2 0x29B JUMPI PUSH2 0x754 PUSH2 0x17EF JUMP JUMPDEST SWAP3 PUSH2 0x75E CALLDATASIZE PUSH2 0x190A JUMP JUMPDEST SWAP1 PUSH1 0x1 PUSH1 0x1 PUSH1 0x40 SHL SUB PUSH2 0x104 CALLDATALOAD DUP2 DUP2 GT PUSH2 0x29B JUMPI PUSH2 0x77F SWAP1 CALLDATASIZE SWAP1 DUP8 ADD PUSH2 0x1820 JUMP JUMPDEST PUSH1 0x9 SLOAD SWAP1 SWAP3 SWAP1 PUSH1 0x1 PUSH1 0x1 PUSH1 0xA0 SHL SUB SWAP1 PUSH1 0x8 SHR DUP2 AND CALLER SUB PUSH2 0xA0F JUMPI PUSH2 0x7A1 PUSH2 0x2031 JUMP JUMPDEST PUSH2 0x7A9 PUSH2 0x2054 JUMP JUMPDEST DUP9 AND ISZERO PUSH2 0x9FF JUMPI PUSH2 0x200 DUP4 GT PUSH2 0x9EF JUMPI PUSH1 0xC SLOAD PUSH2 0x7C5 SWAP1 PUSH2 0x1BF0 JUMP JUMPDEST SWAP7 DUP8 PUSH1 0xC SSTORE DUP8 DUP6 MSTORE PUSH1 0x20 SWAP9 PUSH1 0xD DUP11 MSTORE DUP9 DUP9 DUP8 KECCAK256 SWAP8 DUP1 MLOAD DUP10 SSTORE PUSH1 0x1 SWAP9 DUP10 DUP2 ADD SWAP1 DUP14 DUP4 ADD MLOAD PUSH1 0xFF AND SWAP2 DUP1 SLOAD SWAP3 DUP14 DUP6 ADD MLOAD PUSH1 0x8 SHL PUSH2 0xFF00 AND SWAP1 PUSH2 0xFFFF NOT DUP1 SWAP6 AND OR OR DUP2 SSTORE DUP8 PUSH1 0x60 DUP6 ADD MLOAD AND PUSH2 0x838 SWAP1 DUP3 SWAP1 PUSH10 0xFFFFFFFFFFFFFFFF0000 DUP3 SLOAD SWAP2 PUSH1 0x10 SHL AND SWAP1 PUSH10 0xFFFFFFFFFFFFFFFF0000 NOT AND OR SWAP1 SSTORE JUMP JUMPDEST PUSH1 0x80 DUP5 ADD MLOAD ISZERO ISZERO DUP2 SLOAD SWAP1 PUSH1 0xFF PUSH1 0x50 SHL SWAP1 PUSH1 0x50 SHL AND SWAP1 PUSH1 0xFF PUSH1 0x50 SHL NOT AND OR SWAP1 SSTORE PUSH1 0xA0 DUP4 ADD MLOAD PUSH1 0x2 DUP3 ADD SSTORE PUSH1 0x3 ADD SWAP2 PUSH1 0xC0 ADD MLOAD PUSH2 0xFFFF AND SWAP1 DUP3 SLOAD AND OR SWAP1 SSTORE PUSH2 0x87D SWAP2 PUSH2 0x2072 JUMP JUMPDEST DUP4 PUSH2 0x891 JUMPI JUMPDEST POP POP POP POP POP PUSH1 0x8 SSTORE MLOAD SWAP1 DUP2 MSTORE RETURN JUMPDEST DUP8 DUP6 MSTORE PUSH1 0xF DUP10 MSTORE DUP7 DUP6 KECCAK256 SWAP2 DUP5 GT PUSH2 0x9DC JUMPI POP SWAP1 DUP2 PUSH2 0x8B1 DUP9 SWAP5 SWAP4 SLOAD PUSH2 0x19AE JUMP JUMPDEST PUSH1 0x1F DUP2 GT PUSH2 0x988 JUMPI JUMPDEST POP DUP5 PUSH1 0x1F DUP5 GT PUSH1 0x1 EQ PUSH2 0x917 JUMPI PUSH1 0x0 DUP1 MLOAD PUSH1 0x20 PUSH2 0x242D DUP4 CODECOPY DUP2 MLOAD SWAP2 MSTORE SWAP5 SWAP6 DUP5 PUSH2 0x90C JUMPI JUMPDEST POP PUSH1 0x0 NOT PUSH1 0x3 DUP6 SWAP1 SHL SHR NOT AND DUP4 DUP8 SHL OR SWAP1 SSTORE JUMPDEST PUSH2 0x8FF DUP7 MLOAD SWAP3 DUP4 SWAP3 DUP4 PUSH2 0x19E8 JUMP JUMPDEST SUB SWAP1 LOG2 CODESIZE DUP1 DUP1 DUP1 DUP1 PUSH2 0x883 JUMP JUMPDEST SWAP1 POP DUP3 ADD CALLDATALOAD CODESIZE PUSH2 0x8DE JUMP JUMPDEST PUSH1 0x1F NOT DUP5 AND SWAP6 DUP3 DUP3 MSTORE DUP11 DUP3 KECCAK256 SWAP2 JUMPDEST DUP12 DUP10 DUP10 DUP4 LT PUSH2 0x971 JUMPI POP POP POP DUP5 PUSH1 0x0 DUP1 MLOAD PUSH1 0x20 PUSH2 0x242D DUP4 CODECOPY DUP2 MLOAD SWAP2 MSTORE SWAP7 SWAP8 LT PUSH2 0x957 JUMPI JUMPDEST POP POP DUP6 DUP4 DUP2 SHL ADD SWAP1 SSTORE PUSH2 0x8F1 JUMP JUMPDEST DUP4 ADD CALLDATALOAD PUSH1 0x0 NOT PUSH1 0x3 DUP7 SWAP1 SHL PUSH1 0xF8 AND SHR NOT AND SWAP1 SSTORE CODESIZE DUP1 PUSH2 0x949 JUMP JUMPDEST DUP4 DUP8 ADD CALLDATALOAD DUP6 SSTORE DUP13 SWAP9 POP SWAP1 SWAP4 ADD SWAP3 SWAP2 DUP3 ADD SWAP2 ADD PUSH2 0x925 JUMP JUMPDEST SWAP1 DUP1 SWAP3 SWAP4 SWAP5 POP DUP6 MSTORE DUP9 DUP6 KECCAK256 PUSH1 0x1F DUP6 ADD PUSH1 0x5 SHR DUP2 ADD SWAP2 DUP11 DUP7 LT PUSH2 0x9D2 JUMPI JUMPDEST DUP10 SWAP6 SWAP5 SWAP4 SWAP3 SWAP2 PUSH1 0x1F DUP10 SWAP3 ADD PUSH1 0x5 SHR ADD SWAP2 JUMPDEST DUP3 DUP2 LT PUSH2 0x9C4 JUMPI POP POP PUSH2 0x8BA JUMP JUMPDEST DUP8 DUP2 SSTORE DUP11 SWAP7 POP DUP9 SWAP2 ADD PUSH2 0x9B6 JUMP JUMPDEST SWAP1 SWAP2 POP DUP2 SWAP1 PUSH2 0x9A5 JUMP JUMPDEST PUSH4 0x4E487B71 PUSH1 0xE0 SHL DUP6 MSTORE PUSH1 0x41 SWAP1 MSTORE PUSH1 0x24 DUP5 REVERT JUMPDEST DUP6 MLOAD PUSH4 0x22E34813 PUSH1 0xE2 SHL DUP2 MSTORE DUP8 SWAP1 REVERT JUMPDEST DUP6 MLOAD PUSH4 0xD92E233D PUSH1 0xE0 SHL DUP2 MSTORE DUP8 SWAP1 REVERT JUMPDEST DUP7 MLOAD PUSH4 0x2B35006D PUSH1 0xE2 SHL DUP2 MSTORE DUP9 SWAP1 REVERT JUMPDEST POP POP CALLVALUE PUSH2 0x49F JUMPI DUP2 PUSH1 0x3 NOT CALLDATASIZE ADD SLT PUSH2 0x49F JUMPI PUSH1 0x9 SLOAD SWAP1 MLOAD PUSH1 0x8 SWAP2 SWAP1 SWAP2 SHR PUSH1 0x1 PUSH1 0x1 PUSH1 0xA0 SHL SUB AND DUP2 MSTORE PUSH1 0x20 SWAP1 RETURN JUMPDEST POP POP CALLVALUE PUSH2 0x49F JUMPI DUP2 PUSH1 0x3 NOT CALLDATASIZE ADD SLT PUSH2 0x49F JUMPI PUSH1 0x20 SWAP1 MLOAD PUSH2 0x200 DUP2 MSTORE RETURN JUMPDEST POP SWAP1 CALLVALUE PUSH2 0x29B JUMPI DUP1 PUSH1 0x3 NOT CALLDATASIZE ADD SLT PUSH2 0x29B JUMPI PUSH2 0xA83 PUSH2 0x17EF JUMP JUMPDEST SWAP1 PUSH1 0x24 CALLDATALOAD SWAP2 DUP3 ISZERO ISZERO DUP1 SWAP4 SUB PUSH2 0xB06 JUMPI PUSH1 0x1 PUSH1 0x1 PUSH1 0xA0 SHL SUB AND SWAP3 DUP4 ISZERO PUSH2 0xAF1 JUMPI POP CALLER DUP5 MSTORE PUSH1 0x5 PUSH1 0x20 MSTORE DUP1 DUP5 KECCAK256 DUP4 DUP6 MSTORE PUSH1 0x20 MSTORE DUP1 DUP5 KECCAK256 PUSH1 0xFF NOT DUP2 SLOAD AND PUSH1 0xFF DUP5 AND OR SWAP1 SSTORE MLOAD SWAP1 DUP2 MSTORE PUSH32 0x17307EAB39AB6107E8899845AD3D59BD9653F200F220920489CA2B5937696C31 PUSH1 0x20 CALLER SWAP3 LOG3 DUP1 RETURN JUMPDEST DUP4 PUSH1 0x24 SWAP3 MLOAD SWAP2 PUSH4 0xB611743 PUSH1 0xE3 SHL DUP4 MSTORE DUP3 ADD MSTORE REVERT JUMPDEST DUP5 DUP1 REVERT JUMPDEST DUP3 DUP5 CALLVALUE PUSH2 0x38F JUMPI DUP1 PUSH1 0x3 NOT CALLDATASIZE ADD SLT PUSH2 0x38F JUMPI POP PUSH1 0xA SLOAD PUSH1 0xB SLOAD SWAP2 MLOAD PUSH1 0x1 PUSH1 0x1 PUSH1 0xA0 SHL SUB SWAP1 SWAP2 AND DUP2 MSTORE PUSH1 0x20 DUP2 ADD SWAP2 SWAP1 SWAP2 MSTORE PUSH1 0x40 SWAP1 RETURN JUMPDEST DUP3 DUP5 CALLVALUE PUSH2 0x38F JUMPI DUP1 PUSH1 0x3 NOT CALLDATASIZE ADD SLT PUSH2 0x38F JUMPI DUP2 MLOAD SWAP2 DUP3 DUP3 PUSH1 0x1 SWAP4 PUSH1 0x1 SLOAD SWAP5 PUSH2 0xB66 DUP7 PUSH2 0x19AE JUMP JUMPDEST SWAP2 DUP3 DUP6 MSTORE PUSH1 0x20 SWAP7 DUP8 PUSH1 0x1 DUP3 AND SWAP2 DUP3 PUSH1 0x0 EQ PUSH2 0xC03 JUMPI POP POP PUSH1 0x1 EQ PUSH2 0xBA7 JUMPI JUMPDEST POP POP POP PUSH2 0x51B SWAP3 SWAP2 PUSH2 0xB98 SWAP2 SUB DUP6 PUSH2 0x18E9 JUMP JUMPDEST MLOAD SWAP3 DUP3 DUP5 SWAP4 DUP5 MSTORE DUP4 ADD SWAP1 PUSH2 0x17CA JUMP JUMPDEST SWAP2 SWAP1 DUP7 SWAP4 POP PUSH1 0x1 DUP4 MSTORE PUSH32 0xB10E2D527612073B26EECDFD717E6A320CF44B4AFAC2B0732D9FCBE2B7FA0CF6 JUMPDEST DUP3 DUP5 LT PUSH2 0xBEB JUMPI POP POP POP DUP3 ADD ADD DUP2 PUSH2 0xB98 PUSH2 0x51B PUSH2 0xB85 JUMP JUMPDEST DUP1 SLOAD DUP5 DUP11 ADD DUP7 ADD MSTORE DUP9 SWAP6 POP DUP8 SWAP5 SWAP1 SWAP4 ADD SWAP3 DUP2 ADD PUSH2 0xBD2 JUMP JUMPDEST PUSH1 0xFF NOT AND DUP8 DUP3 ADD MSTORE SWAP4 ISZERO ISZERO PUSH1 0x5 SHL DUP7 ADD SWAP1 SWAP4 ADD SWAP4 POP DUP5 SWAP3 POP PUSH2 0xB98 SWAP2 POP PUSH2 0x51B SWAP1 POP PUSH2 0xB85 JUMP JUMPDEST POP CALLVALUE PUSH2 0x29B JUMPI PUSH1 0x20 CALLDATASIZE PUSH1 0x3 NOT ADD SLT PUSH2 0x29B JUMPI DUP1 CALLDATALOAD DUP1 DUP5 MSTORE PUSH1 0x2 PUSH1 0x20 MSTORE DUP3 DUP5 KECCAK256 SLOAD SWAP1 SWAP2 SWAP1 PUSH1 0x1 PUSH1 0x1 PUSH1 0xA0 SHL SUB AND ISZERO PUSH2 0x27B JUMPI POP PUSH1 0x1 DUP3 DUP5 PUSH1 0xFF SWAP4 PUSH1 0x20 SWAP7 MSTORE PUSH1 0xD DUP7 MSTORE KECCAK256 ADD SLOAD PUSH1 0x8 SHR AND SWAP1 PUSH1 0x2 DUP3 EQ SWAP2 DUP3 ISZERO PUSH2 0x57D JUMPI POP MLOAD SWAP1 ISZERO ISZERO DUP2 MSTORE RETURN JUMPDEST POP POP CALLVALUE PUSH2 0x49F JUMPI DUP2 PUSH1 0x3 NOT CALLDATASIZE ADD SLT PUSH2 0x49F JUMPI PUSH1 0x6 SLOAD SWAP1 MLOAD PUSH1 0x1 PUSH1 0x1 PUSH1 0xA0 SHL SUB SWAP1 SWAP2 AND DUP2 MSTORE PUSH1 0x20 SWAP1 RETURN JUMPDEST POP CALLVALUE PUSH2 0x29B JUMPI PUSH2 0x100 CALLDATASIZE PUSH1 0x3 NOT ADD SLT PUSH2 0x29B JUMPI PUSH2 0xCCB PUSH2 0x17EF JUMP JUMPDEST SWAP1 PUSH2 0xCD5 CALLDATASIZE PUSH2 0x190A JUMP JUMPDEST PUSH1 0x9 SLOAD SWAP1 SWAP2 SWAP1 PUSH1 0x1 PUSH1 0x1 PUSH1 0xA0 SHL SUB SWAP1 PUSH1 0x8 SHR DUP2 AND CALLER SUB PUSH2 0xDE5 JUMPI PUSH2 0xCF7 PUSH2 0x2031 JUMP JUMPDEST PUSH2 0xCFF PUSH2 0x2054 JUMP JUMPDEST DUP4 AND ISZERO PUSH2 0xDD7 JUMPI POP PUSH1 0x20 SWAP4 DUP4 SWAP3 PUSH2 0xDCC SWAP3 PUSH2 0xD1B PUSH1 0xC SLOAD PUSH2 0x1BF0 JUMP JUMPDEST SWAP6 DUP7 SWAP4 DUP5 PUSH1 0xC SSTORE DUP5 DUP2 MSTORE PUSH1 0xD DUP10 MSTORE KECCAK256 DUP2 MLOAD DUP2 SSTORE PUSH2 0xFFFF PUSH1 0xC0 PUSH1 0x3 PUSH1 0x1 DUP5 ADD SWAP4 PUSH1 0xFF DUP13 DUP8 ADD MLOAD AND SWAP5 DUP1 SLOAD SWAP6 PUSH2 0xFF00 DUP13 DUP10 ADD MLOAD PUSH1 0x8 SHL AND SWAP1 DUP7 NOT DUP1 SWAP9 AND OR OR DUP2 SSTORE PUSH2 0xD92 PUSH1 0x1 PUSH1 0x1 PUSH1 0x40 SHL SUB PUSH1 0x60 DUP10 ADD MLOAD AND DUP3 SWAP1 PUSH10 0xFFFFFFFFFFFFFFFF0000 DUP3 SLOAD SWAP2 PUSH1 0x10 SHL AND SWAP1 PUSH10 0xFFFFFFFFFFFFFFFF0000 NOT AND OR SWAP1 SSTORE JUMP JUMPDEST PUSH1 0x80 DUP8 ADD MLOAD ISZERO ISZERO DUP2 SLOAD SWAP1 PUSH1 0xFF PUSH1 0x50 SHL SWAP1 PUSH1 0x50 SHL AND SWAP1 PUSH1 0xFF PUSH1 0x50 SHL NOT AND OR SWAP1 SSTORE PUSH1 0xA0 DUP7 ADD MLOAD PUSH1 0x2 DUP3 ADD SSTORE ADD SWAP4 ADD MLOAD AND SWAP1 DUP3 SLOAD AND OR SWAP1 SSTORE PUSH2 0x2072 JUMP JUMPDEST PUSH1 0x1 PUSH1 0x8 SSTORE MLOAD SWAP1 DUP2 MSTORE RETURN JUMPDEST DUP4 MLOAD PUSH4 0xD92E233D PUSH1 0xE0 SHL DUP2 MSTORE REVERT JUMPDEST POP DUP4 MLOAD PUSH4 0x2B35006D PUSH1 0xE2 SHL DUP2 MSTORE REVERT JUMPDEST POP POP CALLVALUE PUSH2 0x49F JUMPI DUP2 PUSH1 0x3 NOT CALLDATASIZE ADD SLT PUSH2 0x49F JUMPI PUSH1 0x20 PUSH32 0x62E78CEA01BEE320CD4E420270B5EA74000D11B0C9F74754EBDBFC544B05A258 SWAP2 PUSH2 0xE32 PUSH2 0x2005 JUMP JUMPDEST PUSH2 0xE3A PUSH2 0x2054 JUMP JUMPDEST PUSH1 0x1 PUSH1 0xFF NOT PUSH1 0x9 SLOAD AND OR PUSH1 0x9 SSTORE MLOAD CALLER DUP2 MSTORE LOG1 DUP1 RETURN JUMPDEST POP SWAP1 CALLVALUE PUSH2 0x29B JUMPI DUP3 PUSH1 0x3 NOT CALLDATASIZE ADD SLT PUSH2 0x29B JUMPI PUSH1 0x7 SLOAD SWAP2 PUSH1 0x1 PUSH1 0x1 PUSH1 0xA0 SHL SUB SWAP2 CALLER DUP4 DUP6 AND SUB PUSH2 0xEC0 JUMPI POP POP PUSH1 0x1 PUSH1 0x1 PUSH1 0x60 SHL SUB PUSH1 0xA0 SHL DUP1 SWAP3 AND PUSH1 0x7 SSTORE PUSH1 0x6 SLOAD SWAP2 CALLER SWAP1 DUP4 AND OR PUSH1 0x6 SSTORE CALLER SWAP2 AND PUSH32 0x8BE0079C531659141344CD1FD0A4F28419497F9722A3DAAFE3B4186F6B6457E0 DUP4 DUP1 LOG3 DUP1 RETURN JUMPDEST PUSH1 0x24 SWAP3 POP MLOAD SWAP1 PUSH4 0x118CDAA7 PUSH1 0xE0 SHL DUP3 MSTORE CALLER SWAP1 DUP3 ADD MSTORE REVERT JUMPDEST DUP4 CALLVALUE PUSH2 0x38F JUMPI DUP1 PUSH1 0x3 NOT CALLDATASIZE ADD SLT PUSH2 0x38F JUMPI PUSH2 0xEF0 PUSH2 0x2005 JUMP JUMPDEST PUSH1 0x7 DUP1 SLOAD PUSH1 0x1 PUSH1 0x1 PUSH1 0xA0 SHL SUB NOT SWAP1 DUP2 AND SWAP1 SWAP2 SSTORE PUSH1 0x6 DUP1 SLOAD SWAP2 DUP3 AND SWAP1 SSTORE DUP2 SWAP1 PUSH1 0x1 PUSH1 0x1 PUSH1 0xA0 SHL SUB AND PUSH32 0x8BE0079C531659141344CD1FD0A4F28419497F9722A3DAAFE3B4186F6B6457E0 DUP3 DUP1 LOG3 DUP1 RETURN JUMPDEST POP SWAP2 CALLVALUE PUSH2 0x38F JUMPI PUSH1 0x20 CALLDATASIZE PUSH1 0x3 NOT ADD SLT PUSH2 0x38F JUMPI PUSH1 0x1 PUSH1 0x1 PUSH1 0xA0 SHL SUB PUSH2 0xF61 PUSH2 0x17EF JUMP JUMPDEST AND SWAP3 DUP4 ISZERO PUSH2 0xF7E JUMPI POP DUP1 PUSH1 0x20 SWAP4 DUP4 SWAP3 MSTORE PUSH1 0x3 DUP5 MSTORE KECCAK256 SLOAD SWAP1 MLOAD SWAP1 DUP2 MSTORE RETURN JUMPDEST SWAP2 MLOAD PUSH4 0x22718AD9 PUSH1 0xE2 SHL DUP2 MSTORE SWAP2 DUP3 ADD MSTORE PUSH1 0x24 SWAP1 REVERT JUMPDEST POP SWAP2 CALLVALUE PUSH2 0x38F JUMPI PUSH1 0x20 CALLDATASIZE PUSH1 0x3 NOT ADD SLT PUSH2 0x38F JUMPI POP PUSH2 0xFB3 PUSH1 0x20 SWAP3 CALLDATALOAD PUSH2 0x1FCA JUMP JUMPDEST SWAP1 MLOAD PUSH1 0x1 PUSH1 0x1 PUSH1 0xA0 SHL SUB SWAP1 SWAP2 AND DUP2 MSTORE RETURN JUMPDEST POP POP CALLVALUE PUSH2 0x49F JUMPI DUP2 PUSH1 0x3 NOT CALLDATASIZE ADD SLT PUSH2 0x49F JUMPI PUSH1 0x20 SWAP1 PUSH1 0xFF PUSH1 0x9 SLOAD AND SWAP1 MLOAD SWAP1 ISZERO ISZERO DUP2 MSTORE RETURN JUMPDEST POP POP CALLVALUE PUSH2 0x49F JUMPI DUP2 PUSH1 0x3 NOT CALLDATASIZE ADD SLT PUSH2 0x49F JUMPI PUSH1 0x20 SWAP1 MLOAD PUSH3 0x15180 DUP2 MSTORE RETURN JUMPDEST POP DUP3 SWAP1 CALLVALUE PUSH2 0x49F JUMPI PUSH1 0x20 SWAP3 PUSH1 0x20 PUSH1 0x3 NOT CALLDATASIZE ADD SLT PUSH2 0x29B JUMPI PUSH1 0x1 PUSH1 0x1 PUSH1 0x40 SHL SUB SWAP1 DUP3 CALLDATALOAD DUP3 DUP2 GT PUSH2 0xB06 JUMPI PUSH2 0x103C SWAP1 CALLDATASIZE SWAP1 DUP6 ADD PUSH2 0x1820 JUMP JUMPDEST SWAP4 SWAP1 SWAP3 PUSH2 0x1047 PUSH2 0x2005 JUMP JUMPDEST PUSH2 0x200 DUP6 GT PUSH2 0x11E7 JUMPI DUP5 GT PUSH2 0x9DC JUMPI POP PUSH2 0x1062 PUSH1 0xE SLOAD PUSH2 0x19AE JUMP JUMPDEST PUSH1 0x1F DUP2 GT PUSH2 0x1184 JUMPI JUMPDEST POP DUP4 SWAP5 PUSH1 0x1F DUP5 GT PUSH1 0x1 EQ PUSH2 0x10D9 JUMPI POP PUSH2 0x10C8 SWAP1 DUP4 DUP6 SWAP7 PUSH32 0x6741B2FC379FAD678116FE3D4D4B9A1A184AB53BA36B86AD0FA66340B1AB41AD SWAP7 SWAP2 PUSH2 0x10CE JUMPI JUMPDEST POP DUP5 PUSH1 0x1 SHL SWAP1 PUSH1 0x0 NOT DUP7 PUSH1 0x3 SHL SHR NOT AND OR PUSH1 0xE SSTORE JUMPDEST MLOAD SWAP3 DUP4 SWAP3 DUP4 PUSH2 0x19E8 JUMP JUMPDEST SUB SWAP1 LOG1 DUP1 RETURN JUMPDEST SWAP1 POP DUP4 ADD CALLDATALOAD DUP8 PUSH2 0x10A9 JUMP JUMPDEST SWAP5 PUSH1 0x1F NOT DUP5 AND PUSH1 0xE DUP7 MSTORE PUSH32 0xBB7B4A454DC3493923482F07822329ED19E8244EFF582CC204F8554C3620C3FD SWAP7 DUP7 SWAP1 JUMPDEST DUP3 DUP3 LT PUSH2 0x116B JUMPI POP POP SWAP6 PUSH2 0x10C8 SWAP3 SWAP2 DUP6 PUSH32 0x6741B2FC379FAD678116FE3D4D4B9A1A184AB53BA36B86AD0FA66340B1AB41AD SWAP8 SWAP9 LT PUSH2 0x1151 JUMPI JUMPDEST POP POP PUSH1 0x1 DUP5 DUP2 SHL ADD PUSH1 0xE SSTORE PUSH2 0x10BE JUMP JUMPDEST DUP5 ADD CALLDATALOAD PUSH1 0x0 NOT PUSH1 0x3 DUP8 SWAP1 SHL PUSH1 0xF8 AND SHR NOT AND SWAP1 SSTORE DUP7 DUP1 PUSH2 0x1141 JUMP JUMPDEST DUP4 DUP7 ADD CALLDATALOAD DUP10 SSTORE PUSH1 0x1 SWAP1 SWAP9 ADD SWAP8 SWAP3 DUP4 ADD SWAP3 SWAP1 DUP2 ADD SWAP1 PUSH2 0x1108 JUMP JUMPDEST PUSH1 0xE DUP6 MSTORE PUSH32 0xBB7B4A454DC3493923482F07822329ED19E8244EFF582CC204F8554C3620C3FD PUSH1 0x1F DUP6 ADD PUSH1 0x5 SHR DUP2 ADD SWAP2 PUSH1 0x20 DUP7 LT PUSH2 0x11DD JUMPI JUMPDEST PUSH1 0x1F ADD PUSH1 0x5 SHR ADD SWAP1 JUMPDEST DUP2 DUP2 LT PUSH2 0x11D2 JUMPI POP PUSH2 0x106B JUMP JUMPDEST DUP6 DUP2 SSTORE PUSH1 0x1 ADD PUSH2 0x11C5 JUMP JUMPDEST SWAP1 SWAP2 POP DUP2 SWAP1 PUSH2 0x11BC JUMP JUMPDEST POP SWAP1 MLOAD PUSH4 0x22E34813 PUSH1 0xE2 SHL DUP2 MSTORE REVERT JUMPDEST POP POP CALLVALUE PUSH2 0x49F JUMPI PUSH2 0x619 SWAP1 PUSH2 0x120A CALLDATASIZE PUSH2 0x184D JUMP JUMPDEST SWAP2 SWAP3 MLOAD SWAP3 PUSH2 0x1217 DUP5 PUSH2 0x18CE JUMP JUMPDEST DUP6 DUP5 MSTORE PUSH2 0x613 DUP4 DUP4 DUP4 PUSH2 0x1A10 JUMP JUMPDEST POP CALLVALUE PUSH2 0x29B JUMPI DUP3 PUSH1 0x3 NOT CALLDATASIZE ADD SLT PUSH2 0x29B JUMPI PUSH2 0x123E PUSH2 0x2005 JUMP JUMPDEST PUSH1 0x9 SLOAD SWAP1 PUSH1 0xFF DUP3 AND ISZERO PUSH2 0x1280 JUMPI POP PUSH1 0xFF NOT AND PUSH1 0x9 SSTORE MLOAD CALLER DUP2 MSTORE PUSH32 0x5DB9EE0A495BF2E6FF9C91A7834C1BA4FDD244A5E8AA4E537BD38AEAE4B073AA SWAP1 PUSH1 0x20 SWAP1 LOG1 DUP1 RETURN JUMPDEST DUP3 MLOAD PUSH4 0x8DFC202B PUSH1 0xE0 SHL DUP2 MSTORE REVERT JUMPDEST POP SWAP1 CALLVALUE PUSH2 0x29B JUMPI PUSH1 0x20 CALLDATASIZE PUSH1 0x3 NOT ADD SLT PUSH2 0x29B JUMPI PUSH2 0x12A9 PUSH2 0x17EF JUMP JUMPDEST SWAP2 PUSH2 0x12B2 PUSH2 0x2005 JUMP JUMPDEST PUSH1 0x1 PUSH1 0x1 PUSH1 0xA0 SHL SUB SWAP3 DUP4 AND SWAP3 DUP4 ISZERO PUSH2 0x1345 JUMPI PUSH3 0x15180 TIMESTAMP ADD SWAP2 DUP3 TIMESTAMP GT PUSH2 0x1332 JUMPI POP DUP2 PUSH1 0x20 SWAP2 PUSH32 0x25A8BBB0546FB970F237A9D8FAAEBB8610077D196EEF4BA1D6145AD23A691041 SWAP4 DUP4 DUP7 MLOAD PUSH2 0x1305 DUP2 PUSH2 0x1882 JUMP JUMPDEST DUP9 DUP2 MSTORE ADD MSTORE DUP6 PUSH1 0x1 PUSH1 0x1 PUSH1 0x60 SHL SUB PUSH1 0xA0 SHL PUSH1 0xA SLOAD AND OR PUSH1 0xA SSTORE DUP2 PUSH1 0xB SSTORE PUSH1 0x9 SLOAD PUSH1 0x8 SHR AND SWAP4 MLOAD SWAP1 DUP2 MSTORE LOG3 DUP1 RETURN JUMPDEST PUSH4 0x4E487B71 PUSH1 0xE0 SHL DUP7 MSTORE PUSH1 0x11 SWAP1 MSTORE PUSH1 0x24 DUP6 REVERT JUMPDEST POP SWAP1 MLOAD PUSH4 0xD92E233D PUSH1 0xE0 SHL DUP2 MSTORE REVERT JUMPDEST DUP4 CALLVALUE PUSH2 0x38F JUMPI PUSH2 0x619 PUSH2 0x1366 CALLDATASIZE PUSH2 0x184D JUMP JUMPDEST SWAP2 PUSH2 0x1A10 JUMP JUMPDEST POP POP CALLVALUE PUSH2 0x49F JUMPI DUP2 PUSH1 0x3 NOT CALLDATASIZE ADD SLT PUSH2 0x49F JUMPI PUSH1 0x20 SWAP1 PUSH1 0xC SLOAD SWAP1 MLOAD SWAP1 DUP2 MSTORE RETURN JUMPDEST POP DUP3 SWAP1 CALLVALUE PUSH2 0x49F JUMPI DUP3 PUSH1 0x3 NOT CALLDATASIZE ADD SLT PUSH2 0x49F JUMPI DUP1 CALLDATALOAD SWAP1 PUSH1 0x1 PUSH1 0x1 PUSH1 0x40 SHL SUB SWAP1 PUSH1 0x24 CALLDATALOAD DUP3 DUP2 GT PUSH2 0xB06 JUMPI PUSH2 0x13C1 SWAP1 CALLDATASIZE SWAP1 DUP4 ADD PUSH2 0x1820 JUMP JUMPDEST PUSH1 0x9 SLOAD SWAP1 SWAP4 SWAP2 SWAP3 PUSH1 0x1 PUSH1 0x1 PUSH1 0xA0 SHL SUB SWAP2 PUSH1 0x8 SHR DUP3 AND CALLER SUB PUSH2 0x1565 JUMPI DUP6 DUP8 MSTORE PUSH1 0x20 SWAP2 PUSH1 0x2 DUP4 MSTORE DUP9 DUP9 KECCAK256 SLOAD AND ISZERO PUSH2 0x1558 JUMPI PUSH2 0x200 DUP6 GT PUSH2 0x154A JUMPI DUP6 DUP8 MSTORE PUSH1 0xF DUP3 MSTORE DUP8 DUP8 KECCAK256 SWAP3 DUP6 GT PUSH2 0x1537 JUMPI POP PUSH2 0x1415 DUP3 SLOAD PUSH2 0x19AE JUMP JUMPDEST PUSH1 0x1F DUP2 GT PUSH2 0x14F4 JUMPI JUMPDEST POP DUP6 SWAP1 PUSH1 0x1F DUP6 GT PUSH1 0x1 EQ PUSH2 0x147A JUMPI POP SWAP6 PUSH2 0x1469 SWAP2 DUP5 DUP8 SWAP9 PUSH1 0x0 DUP1 MLOAD PUSH1 0x20 PUSH2 0x242D DUP4 CODECOPY DUP2 MLOAD SWAP2 MSTORE SWAP8 SWAP9 SWAP2 PUSH2 0x146F JUMPI JUMPDEST POP DUP6 PUSH1 0x1 SHL SWAP1 PUSH1 0x0 NOT DUP8 PUSH1 0x3 SHL SHR NOT AND OR SWAP1 SSTORE MLOAD SWAP3 DUP4 SWAP3 DUP4 PUSH2 0x19E8 JUMP JUMPDEST SUB SWAP1 LOG2 DUP1 RETURN JUMPDEST SWAP1 POP DUP5 ADD CALLDATALOAD DUP10 PUSH2 0x144C JUMP JUMPDEST SWAP1 PUSH1 0x1F NOT DUP6 AND DUP4 DUP9 MSTORE DUP3 DUP9 KECCAK256 SWAP3 DUP9 SWAP1 JUMPDEST DUP3 DUP3 LT PUSH2 0x14DC JUMPI POP POP SWAP2 PUSH2 0x1469 SWAP4 SWAP2 DUP7 PUSH1 0x0 DUP1 MLOAD PUSH1 0x20 PUSH2 0x242D DUP4 CODECOPY DUP2 MLOAD SWAP2 MSTORE SWAP9 SWAP10 SWAP11 SWAP5 LT PUSH2 0x14C2 JUMPI JUMPDEST POP POP PUSH1 0x1 DUP6 DUP2 SHL ADD SWAP1 SSTORE PUSH2 0x10BE JUMP JUMPDEST DUP6 ADD CALLDATALOAD PUSH1 0x0 NOT PUSH1 0x3 DUP9 SWAP1 SHL PUSH1 0xF8 AND SHR NOT AND SWAP1 SSTORE DUP9 DUP1 PUSH2 0x14B3 JUMP JUMPDEST DUP1 PUSH1 0x1 DUP6 SWAP7 DUP3 SWAP5 SWAP7 DUP11 ADD CALLDATALOAD DUP2 SSTORE ADD SWAP6 ADD SWAP4 ADD SWAP1 PUSH2 0x148A JUMP JUMPDEST DUP3 DUP8 MSTORE DUP2 DUP8 KECCAK256 PUSH1 0x1F DUP7 ADD PUSH1 0x5 SHR DUP2 ADD SWAP2 DUP4 DUP8 LT PUSH2 0x152D JUMPI JUMPDEST PUSH1 0x1F ADD PUSH1 0x5 SHR ADD SWAP1 JUMPDEST DUP2 DUP2 LT PUSH2 0x1522 JUMPI POP PUSH2 0x141E JUMP JUMPDEST DUP8 DUP2 SSTORE PUSH1 0x1 ADD PUSH2 0x1515 JUMP JUMPDEST SWAP1 SWAP2 POP DUP2 SWAP1 PUSH2 0x150C JUMP JUMPDEST PUSH4 0x4E487B71 PUSH1 0xE0 SHL DUP8 MSTORE PUSH1 0x41 SWAP1 MSTORE PUSH1 0x24 DUP7 REVERT JUMPDEST DUP8 MLOAD PUSH4 0x22E34813 PUSH1 0xE2 SHL DUP2 MSTORE REVERT JUMPDEST DUP8 MLOAD PUSH3 0x6F7087 PUSH1 0xE2 SHL DUP2 MSTORE REVERT JUMPDEST DUP8 MLOAD PUSH4 0x2B35006D PUSH1 0xE2 SHL DUP2 MSTORE REVERT JUMPDEST POP SWAP1 CALLVALUE PUSH2 0x29B JUMPI DUP1 PUSH1 0x3 NOT CALLDATASIZE ADD SLT PUSH2 0x29B JUMPI PUSH2 0x158D PUSH2 0x17EF JUMP JUMPDEST SWAP2 PUSH1 0x24 CALLDATALOAD PUSH2 0x159A DUP2 PUSH2 0x1FCA JUMP JUMPDEST CALLER ISZERO ISZERO DUP1 PUSH2 0x163C JUMPI JUMPDEST DUP1 PUSH2 0x1613 JUMPI JUMPDEST PUSH2 0x15FD JUMPI PUSH1 0x1 PUSH1 0x1 PUSH1 0xA0 SHL SUB SWAP5 DUP6 AND SWAP5 DUP3 SWAP2 DUP7 SWAP2 AND PUSH32 0x8C5BE1E5EBEC7D5BD14F71427D1E84F3DD0314C0F7B2291E5B200AC8C7C3B925 DUP9 DUP1 LOG4 DUP5 MSTORE PUSH1 0x20 MSTORE DUP3 KECCAK256 DUP1 SLOAD PUSH1 0x1 PUSH1 0x1 PUSH1 0xA0 SHL SUB NOT AND SWAP1 SWAP2 OR SWAP1 SSTORE DUP1 RETURN JUMPDEST DUP4 MLOAD PUSH4 0xA9FBF51F PUSH1 0xE0 SHL DUP2 MSTORE CALLER DUP2 DUP6 ADD MSTORE PUSH1 0x24 SWAP1 REVERT JUMPDEST POP PUSH1 0x1 PUSH1 0x1 PUSH1 0xA0 SHL SUB DUP2 AND DUP7 MSTORE PUSH1 0x5 PUSH1 0x20 SWAP1 DUP2 MSTORE DUP5 DUP8 KECCAK256 CALLER DUP9 MSTORE SWAP1 MSTORE DUP4 DUP7 KECCAK256 SLOAD PUSH1 0xFF AND ISZERO PUSH2 0x15A9 JUMP JUMPDEST POP PUSH1 0x1 PUSH1 0x1 PUSH1 0xA0 SHL SUB DUP2 AND CALLER EQ ISZERO PUSH2 0x15A3 JUMP JUMPDEST POP CALLVALUE PUSH2 0x29B JUMPI PUSH1 0x20 CALLDATASIZE PUSH1 0x3 NOT ADD SLT PUSH2 0x29B JUMPI SWAP2 DUP3 PUSH1 0x20 SWAP4 CALLDATALOAD PUSH2 0x1670 DUP2 PUSH2 0x1FCA JUMP JUMPDEST POP DUP3 MSTORE DUP4 MSTORE DUP2 SWAP1 KECCAK256 SLOAD SWAP1 MLOAD PUSH1 0x1 PUSH1 0x1 PUSH1 0xA0 SHL SUB SWAP1 SWAP2 AND DUP2 MSTORE RETURN JUMPDEST DUP3 DUP5 CALLVALUE PUSH2 0x38F JUMPI DUP1 PUSH1 0x3 NOT CALLDATASIZE ADD SLT PUSH2 0x38F JUMPI DUP2 MLOAD SWAP2 DUP3 DUP3 DUP4 SLOAD PUSH2 0x16AC DUP2 PUSH2 0x19AE JUMP JUMPDEST SWAP1 DUP2 DUP5 MSTORE PUSH1 0x20 SWAP6 PUSH1 0x1 SWAP2 DUP8 PUSH1 0x1 DUP3 AND SWAP2 DUP3 PUSH1 0x0 EQ PUSH2 0xC03 JUMPI POP POP PUSH1 0x1 EQ PUSH2 0x16E0 JUMPI POP POP POP PUSH2 0x51B SWAP3 SWAP2 PUSH2 0xB98 SWAP2 SUB DUP6 PUSH2 0x18E9 JUMP JUMPDEST SWAP2 SWAP1 DUP7 SWAP4 POP DUP3 DUP1 MSTORE PUSH32 0x290DECD9548B62A8D60345A988386FC84BA6BC95484008F6362F93160EF3E563 JUMPDEST DUP3 DUP5 LT PUSH2 0x1723 JUMPI POP POP POP DUP3 ADD ADD DUP2 PUSH2 0xB98 PUSH2 0x51B PUSH2 0xB85 JUMP JUMPDEST DUP1 SLOAD DUP5 DUP11 ADD DUP7 ADD MSTORE DUP9 SWAP6 POP DUP8 SWAP5 SWAP1 SWAP4 ADD SWAP3 DUP2 ADD PUSH2 0x170A JUMP JUMPDEST SWAP3 POP POP CALLVALUE PUSH2 0x29B JUMPI PUSH1 0x20 CALLDATASIZE PUSH1 0x3 NOT ADD SLT PUSH2 0x29B JUMPI CALLDATALOAD PUSH4 0xFFFFFFFF PUSH1 0xE0 SHL DUP2 AND DUP1 SWAP2 SUB PUSH2 0x29B JUMPI PUSH1 0x20 SWAP3 POP PUSH4 0x80AC58CD PUSH1 0xE0 SHL DUP2 EQ SWAP1 DUP2 ISZERO PUSH2 0x1796 JUMPI JUMPDEST DUP2 ISZERO PUSH2 0x1785 JUMPI JUMPDEST POP ISZERO ISZERO DUP2 MSTORE RETURN JUMPDEST PUSH4 0x1FFC9A7 PUSH1 0xE0 SHL EQ SWAP1 POP CODESIZE PUSH2 0x177E JUMP JUMPDEST PUSH4 0x5B5E139F PUSH1 0xE0 SHL DUP2 EQ SWAP2 POP PUSH2 0x1777 JUMP JUMPDEST PUSH1 0x0 JUMPDEST DUP4 DUP2 LT PUSH2 0x17BA JUMPI POP POP PUSH1 0x0 SWAP2 ADD MSTORE JUMP JUMPDEST DUP2 DUP2 ADD MLOAD DUP4 DUP3 ADD MSTORE PUSH1 0x20 ADD PUSH2 0x17AA JUMP JUMPDEST SWAP1 PUSH1 0x20 SWAP2 PUSH2 0x17E3 DUP2 MLOAD DUP1 SWAP3 DUP2 DUP6 MSTORE DUP6 DUP1 DUP7 ADD SWAP2 ADD PUSH2 0x17A7 JUMP JUMPDEST PUSH1 0x1F ADD PUSH1 0x1F NOT AND ADD ADD SWAP1 JUMP JUMPDEST PUSH1 0x4 CALLDATALOAD SWAP1 PUSH1 0x1 PUSH1 0x1 PUSH1 0xA0 SHL SUB DUP3 AND DUP3 SUB PUSH2 0x1805 JUMPI JUMP JUMPDEST PUSH1 0x0 DUP1 REVERT JUMPDEST PUSH1 0x24 CALLDATALOAD SWAP1 PUSH1 0x1 PUSH1 0x1 PUSH1 0xA0 SHL SUB DUP3 AND DUP3 SUB PUSH2 0x1805 JUMPI JUMP JUMPDEST SWAP2 DUP2 PUSH1 0x1F DUP5 ADD SLT ISZERO PUSH2 0x1805 JUMPI DUP3 CALLDATALOAD SWAP2 PUSH1 0x1 PUSH1 0x1 PUSH1 0x40 SHL SUB DUP4 GT PUSH2 0x1805 JUMPI PUSH1 0x20 DUP4 DUP2 DUP7 ADD SWAP6 ADD ADD GT PUSH2 0x1805 JUMPI JUMP JUMPDEST PUSH1 0x60 SWAP1 PUSH1 0x3 NOT ADD SLT PUSH2 0x1805 JUMPI PUSH1 0x1 PUSH1 0x1 PUSH1 0xA0 SHL SUB SWAP1 PUSH1 0x4 CALLDATALOAD DUP3 DUP2 AND DUP2 SUB PUSH2 0x1805 JUMPI SWAP2 PUSH1 0x24 CALLDATALOAD SWAP1 DUP2 AND DUP2 SUB PUSH2 0x1805 JUMPI SWAP1 PUSH1 0x44 CALLDATALOAD SWAP1 JUMP JUMPDEST PUSH1 0x40 DUP2 ADD SWAP1 DUP2 LT PUSH1 0x1 PUSH1 0x1 PUSH1 0x40 SHL SUB DUP3 GT OR PUSH2 0x189D JUMPI PUSH1 0x40 MSTORE JUMP JUMPDEST PUSH4 0x4E487B71 PUSH1 0xE0 SHL PUSH1 0x0 MSTORE PUSH1 0x41 PUSH1 0x4 MSTORE PUSH1 0x24 PUSH1 0x0 REVERT JUMPDEST PUSH1 0xE0 DUP2 ADD SWAP1 DUP2 LT PUSH1 0x1 PUSH1 0x1 PUSH1 0x40 SHL SUB DUP3 GT OR PUSH2 0x189D JUMPI PUSH1 0x40 MSTORE JUMP JUMPDEST PUSH1 0x20 DUP2 ADD SWAP1 DUP2 LT PUSH1 0x1 PUSH1 0x1 PUSH1 0x40 SHL SUB DUP3 GT OR PUSH2 0x189D JUMPI PUSH1 0x40 MSTORE JUMP JUMPDEST SWAP1 PUSH1 0x1F DUP1 NOT SWAP2 ADD AND DUP2 ADD SWAP1 DUP2 LT PUSH1 0x1 PUSH1 0x1 PUSH1 0x40 SHL SUB DUP3 GT OR PUSH2 0x189D JUMPI PUSH1 0x40 MSTORE JUMP JUMPDEST PUSH1 0xE0 SWAP1 PUSH1 0x23 NOT ADD SLT PUSH2 0x1805 JUMPI PUSH1 0x40 MLOAD SWAP1 PUSH2 0x1923 DUP3 PUSH2 0x18B3 JUMP JUMPDEST DUP2 PUSH1 0x24 CALLDATALOAD DUP2 MSTORE PUSH1 0x44 CALLDATALOAD PUSH1 0xFF DUP2 AND DUP2 SUB PUSH2 0x1805 JUMPI PUSH1 0x20 DUP3 ADD MSTORE PUSH1 0x64 CALLDATALOAD PUSH1 0xFF DUP2 AND DUP2 SUB PUSH2 0x1805 JUMPI PUSH1 0x40 DUP3 ADD MSTORE PUSH1 0x84 CALLDATALOAD PUSH1 0x1 PUSH1 0x1 PUSH1 0x40 SHL SUB DUP2 AND DUP2 SUB PUSH2 0x1805 JUMPI PUSH1 0x60 DUP3 ADD MSTORE PUSH1 0xA4 CALLDATALOAD DUP1 ISZERO ISZERO DUP2 SUB PUSH2 0x1805 JUMPI PUSH1 0x80 DUP3 ADD MSTORE PUSH1 0xC4 CALLDATALOAD PUSH1 0xA0 DUP3 ADD MSTORE PUSH1 0xE4 CALLDATALOAD SWAP1 PUSH2 0xFFFF DUP3 AND DUP3 SUB PUSH2 0x1805 JUMPI PUSH1 0xC0 ADD MSTORE JUMP JUMPDEST PUSH1 0x1 PUSH1 0x1 PUSH1 0x40 SHL SUB DUP2 GT PUSH2 0x189D JUMPI PUSH1 0x1F ADD PUSH1 0x1F NOT AND PUSH1 0x20 ADD SWAP1 JUMP JUMPDEST SWAP1 PUSH1 0x1 DUP3 DUP2 SHR SWAP3 AND DUP1 ISZERO PUSH2 0x19DE JUMPI JUMPDEST PUSH1 0x20 DUP4 LT EQ PUSH2 0x19C8 JUMPI JUMP JUMPDEST PUSH4 0x4E487B71 PUSH1 0xE0 SHL PUSH1 0x0 MSTORE PUSH1 0x22 PUSH1 0x4 MSTORE PUSH1 0x24 PUSH1 0x0 REVERT JUMPDEST SWAP2 PUSH1 0x7F AND SWAP2 PUSH2 0x19BD JUMP JUMPDEST SWAP1 SWAP2 DUP1 PUSH1 0x40 SWAP4 PUSH1 0x20 DUP5 MSTORE DUP2 PUSH1 0x20 DUP6 ADD MSTORE DUP5 DUP5 ADD CALLDATACOPY PUSH1 0x0 DUP3 DUP3 ADD DUP5 ADD MSTORE PUSH1 0x1F ADD PUSH1 0x1F NOT AND ADD ADD SWAP1 JUMP JUMPDEST SWAP2 PUSH1 0x1 PUSH1 0x1 PUSH1 0xA0 SHL SUB SWAP2 DUP3 AND SWAP2 DUP3 ISZERO PUSH2 0x1BD7 JUMPI PUSH1 0x0 SWAP4 DUP3 DUP6 MSTORE PUSH1 0x20 SWAP4 PUSH1 0x2 DUP6 MSTORE PUSH1 0x40 SWAP6 DUP4 DUP8 DUP3 KECCAK256 SLOAD AND SWAP6 CALLER ISZERO ISZERO DUP1 PUSH2 0x1B49 JUMPI JUMPDEST POP DUP8 DUP8 ISZERO ISZERO DUP1 PUSH2 0x1B16 JUMPI JUMPDEST DUP5 DUP5 MSTORE PUSH1 0x3 DUP4 MSTORE DUP2 DUP5 KECCAK256 DUP1 SLOAD PUSH1 0x1 ADD SWAP1 SSTORE DUP8 DUP5 MSTORE PUSH1 0x2 DUP4 MSTORE DUP2 DUP5 KECCAK256 DUP1 SLOAD PUSH1 0x1 PUSH1 0x1 PUSH1 0xA0 SHL SUB NOT AND DUP7 OR SWAP1 SSTORE DUP2 MLOAD SWAP5 DUP9 SWAP1 DUP11 PUSH32 0xDDF252AD1BE2C89B69C2B068FC378DAA952BA7F163C4A11628F55A4DF523B3EF DUP8 DUP1 LOG4 DUP1 PUSH2 0x1B0E JUMPI JUMPDEST PUSH2 0x1AE2 JUMPI JUMPDEST POP POP POP POP AND SWAP3 DUP4 DUP4 SUB PUSH2 0x1AC1 JUMPI POP POP POP POP JUMP JUMPDEST PUSH1 0x64 SWAP5 POP MLOAD SWAP3 PUSH4 0x64283D7B PUSH1 0xE0 SHL DUP5 MSTORE PUSH1 0x4 DUP5 ADD MSTORE PUSH1 0x24 DUP4 ADD MSTORE PUSH1 0x44 DUP3 ADD MSTORE REVERT JUMPDEST PUSH1 0xFF SWAP3 PUSH1 0xD PUSH1 0x1 SWAP4 MSTORE KECCAK256 ADD SLOAD PUSH1 0x50 SHR AND ISZERO PUSH2 0x1AFF JUMPI DUP1 DUP1 DUP8 PUSH2 0x1AAE JUMP JUMPDEST PUSH4 0xDC8D8DB7 PUSH1 0xE0 SHL DUP2 MSTORE PUSH1 0x4 SWAP1 REVERT JUMPDEST POP PUSH1 0x1 PUSH2 0x1AA9 JUMP JUMPDEST PUSH1 0x0 DUP9 DUP2 MSTORE PUSH1 0x4 PUSH1 0x20 MSTORE PUSH1 0x40 SWAP1 KECCAK256 DUP1 SLOAD PUSH1 0x1 PUSH1 0x1 PUSH1 0xA0 SHL SUB NOT AND SWAP1 SSTORE DUP9 DUP5 MSTORE PUSH1 0x3 DUP4 MSTORE DUP2 DUP5 KECCAK256 DUP1 SLOAD PUSH1 0x0 NOT ADD SWAP1 SSTORE PUSH2 0x1A4E JUMP JUMPDEST DUP1 PUSH2 0x1B96 JUMPI JUMPDEST ISZERO PUSH2 0x1B5A JUMPI CODESIZE PUSH2 0x1A43 JUMP JUMPDEST DUP8 DUP7 DUP9 PUSH2 0x1B77 JUMPI PUSH1 0x24 SWAP2 MLOAD SWAP1 PUSH4 0x7E273289 PUSH1 0xE0 SHL DUP3 MSTORE PUSH1 0x4 DUP3 ADD MSTORE REVERT JUMPDEST SWAP1 MLOAD PUSH4 0x177E802F PUSH1 0xE0 SHL DUP2 MSTORE CALLER PUSH1 0x4 DUP3 ADD MSTORE PUSH1 0x24 DUP2 ADD SWAP2 SWAP1 SWAP2 MSTORE PUSH1 0x44 SWAP1 REVERT JUMPDEST POP CALLER DUP8 EQ DUP1 ISZERO PUSH2 0x1BBB JUMPI JUMPDEST DUP1 PUSH2 0x1B4F JUMPI POP DUP6 DUP3 MSTORE PUSH1 0x4 DUP2 MSTORE CALLER DUP6 DUP10 DUP5 KECCAK256 SLOAD AND EQ PUSH2 0x1B4F JUMP JUMPDEST POP DUP7 DUP3 MSTORE PUSH1 0x5 DUP2 MSTORE DUP8 DUP3 KECCAK256 CALLER DUP4 MSTORE DUP2 MSTORE PUSH1 0xFF DUP9 DUP4 KECCAK256 SLOAD AND PUSH2 0x1BA1 JUMP JUMPDEST PUSH1 0x40 MLOAD PUSH4 0x32505749 PUSH1 0xE1 SHL DUP2 MSTORE PUSH1 0x0 PUSH1 0x4 DUP3 ADD MSTORE PUSH1 0x24 SWAP1 REVERT JUMPDEST PUSH1 0x0 NOT DUP2 EQ PUSH2 0x1BFF JUMPI PUSH1 0x1 ADD SWAP1 JUMP JUMPDEST PUSH4 0x4E487B71 PUSH1 0xE0 SHL PUSH1 0x0 MSTORE PUSH1 0x11 PUSH1 0x4 MSTORE PUSH1 0x24 PUSH1 0x0 REVERT JUMPDEST PUSH1 0x0 SWAP1 DUP1 DUP3 MSTORE PUSH1 0x20 SWAP1 PUSH1 0xF DUP3 MSTORE PUSH1 0x40 SWAP3 DUP4 DUP2 KECCAK256 SWAP2 DUP5 MLOAD DUP3 SWAP4 DUP2 DUP2 SLOAD SWAP6 PUSH2 0x1C3A DUP8 PUSH2 0x19AE JUMP JUMPDEST SWAP3 DUP4 DUP4 MSTORE PUSH1 0x1 SWAP8 DUP10 DUP10 DUP3 AND SWAP2 DUP3 PUSH1 0x0 EQ PUSH2 0x1F27 JUMPI POP POP PUSH1 0x1 EQ PUSH2 0x1EE9 JUMPI JUMPDEST POP PUSH2 0x1C65 SWAP3 POP SUB DUP3 PUSH2 0x18E9 JUMP JUMPDEST DUP1 MLOAD PUSH2 0x1EE0 JUMPI POP DUP5 MLOAD PUSH1 0xE SLOAD SWAP1 SWAP4 DUP4 DUP6 PUSH2 0x1C7E DUP5 PUSH2 0x19AE JUMP JUMPDEST SWAP2 DUP3 DUP3 MSTORE DUP9 DUP3 ADD SWAP5 DUP10 DUP6 DUP3 AND SWAP2 DUP3 PUSH1 0x0 EQ PUSH2 0x1EC5 JUMPI POP POP PUSH1 0x1 EQ PUSH2 0x1E6A JUMPI JUMPDEST PUSH2 0x1CA9 SWAP3 POP SUB DUP7 PUSH2 0x18E9 JUMP JUMPDEST DUP5 MLOAD ISZERO PUSH2 0x1E53 JUMPI DUP3 DUP4 SWAP2 DUP6 SWAP5 PUSH27 0x184F03E93FF9F4DAA797ED6E38ED64BF6A1F010000000000000000 SWAP1 DUP2 DUP2 LT ISZERO PUSH2 0x1E46 JUMPI JUMPDEST POP POP DUP8 PUSH14 0x4EE2D6D415B85ACEF8100000000 DUP1 DUP6 LT ISZERO PUSH2 0x1E38 JUMPI JUMPDEST POP POP PUSH7 0x2386F26FC10000 DUP1 DUP5 LT ISZERO PUSH2 0x1E29 JUMPI JUMPDEST POP PUSH4 0x5F5E100 DUP1 DUP5 LT ISZERO PUSH2 0x1E1A JUMPI JUMPDEST POP PUSH2 0x2710 DUP1 DUP5 LT ISZERO PUSH2 0x1E0B JUMPI JUMPDEST POP PUSH1 0x64 DUP4 LT ISZERO PUSH2 0x1DFB JUMPI JUMPDEST PUSH1 0xA DUP1 SWAP4 LT ISZERO PUSH2 0x1DF2 JUMPI JUMPDEST SWAP1 DUP2 PUSH1 0x21 DUP7 PUSH2 0x1D64 DUP4 DUP14 SWAP10 ADD PUSH2 0x1D5C PUSH2 0x1D53 DUP3 PUSH2 0x1993 JUMP JUMPDEST SWAP11 MLOAD SWAP11 DUP12 PUSH2 0x18E9 JUMP JUMPDEST DUP1 DUP11 MSTORE PUSH2 0x1993 JUMP JUMPDEST DUP9 DUP13 ADD SWAP10 SWAP1 PUSH1 0x1F NOT ADD CALLDATASIZE DUP12 CALLDATACOPY POP DUP8 ADD ADD SWAP1 JUMPDEST PUSH2 0x1DBC JUMPI JUMPDEST POP POP POP POP SWAP1 PUSH2 0x1DAD PUSH2 0x1DB9 SWAP6 SWAP5 SWAP4 SWAP3 PUSH2 0x1D9E SWAP8 MLOAD SWAP8 DUP9 SWAP6 MLOAD DUP1 SWAP3 DUP9 DUP9 ADD SWAP1 PUSH2 0x17A7 JUMP JUMPDEST DUP5 ADD SWAP2 MLOAD DUP1 SWAP4 DUP7 DUP5 ADD SWAP1 PUSH2 0x17A7 JUMP JUMPDEST ADD SUB DUP1 DUP5 MSTORE ADD DUP3 PUSH2 0x18E9 JUMP JUMPDEST SWAP1 JUMP JUMPDEST PUSH1 0x0 NOT ADD SWAP1 DUP4 SWAP1 PUSH16 0x181899199A1A9B1B9C1CB0B131B232B3 PUSH1 0x81 SHL DUP3 DUP3 MOD BYTE DUP4 MSTORE8 DIV SWAP2 DUP3 ISZERO PUSH2 0x1DED JUMPI SWAP2 SWAP1 DUP3 PUSH2 0x1D76 JUMP JUMPDEST PUSH2 0x1D7B JUMP JUMPDEST DUP1 SWAP5 ADD SWAP4 PUSH2 0x1D3B JUMP JUMPDEST SWAP4 SWAP2 PUSH1 0x64 PUSH1 0x2 SWAP2 DIV SWAP3 ADD SWAP4 PUSH2 0x1D30 JUMP JUMPDEST PUSH1 0x4 SWAP2 SWAP6 SWAP4 DIV SWAP3 ADD SWAP4 CODESIZE PUSH2 0x1D25 JUMP JUMPDEST PUSH1 0x8 SWAP2 SWAP6 SWAP4 DIV SWAP3 ADD SWAP4 CODESIZE PUSH2 0x1D18 JUMP JUMPDEST PUSH1 0x10 SWAP2 SWAP6 SWAP4 DIV SWAP3 ADD SWAP4 CODESIZE PUSH2 0x1D09 JUMP JUMPDEST SWAP6 ADD SWAP5 SWAP1 SWAP3 DIV SWAP2 DUP8 CODESIZE PUSH2 0x1CF6 JUMP JUMPDEST DUP11 SWAP7 POP DIV SWAP3 POP CODESIZE DUP1 PUSH2 0x1CDB JUMP JUMPDEST POP POP POP SWAP3 SWAP2 POP POP MLOAD SWAP1 PUSH2 0x1E65 DUP3 PUSH2 0x18CE JUMP JUMPDEST DUP2 MSTORE SWAP1 JUMP JUMPDEST POP POP PUSH1 0xE DUP6 MSTORE DUP6 DUP8 DUP7 DUP5 PUSH32 0xBB7B4A454DC3493923482F07822329ED19E8244EFF582CC204F8554C3620C3FD JUMPDEST DUP6 DUP4 LT PUSH2 0x1EAC JUMPI POP POP PUSH2 0x1CA9 SWAP4 POP DUP3 ADD ADD PUSH2 0x1C9D JUMP JUMPDEST DUP1 SWAP2 SWAP3 SWAP5 POP SLOAD DUP4 DUP6 DUP13 ADD ADD MSTORE ADD SWAP2 ADD DUP9 SWAP1 DUP5 DUP10 SWAP4 PUSH2 0x1E96 JUMP JUMPDEST PUSH1 0xFF NOT AND DUP8 MSTORE PUSH2 0x1CA9 SWAP5 ISZERO ISZERO PUSH1 0x5 SHL DUP5 ADD ADD SWAP2 POP PUSH2 0x1C9D SWAP1 POP JUMP JUMPDEST SWAP5 POP POP POP POP POP SWAP1 JUMP JUMPDEST SWAP2 POP POP DUP5 MSTORE DUP2 DUP7 DUP1 DUP7 KECCAK256 DUP8 DUP8 SWAP2 JUMPDEST DUP6 DUP4 LT PUSH2 0x1F0E JUMPI POP POP PUSH2 0x1C65 SWAP4 POP DUP3 ADD ADD CODESIZE PUSH2 0x1C58 JUMP JUMPDEST DUP1 SWAP2 SWAP3 SWAP5 POP SLOAD DUP4 DUP6 DUP9 ADD ADD MSTORE ADD SWAP2 ADD DUP8 SWAP1 DUP8 DUP6 SWAP4 PUSH2 0x1EF7 JUMP JUMPDEST PUSH1 0xFF NOT AND DUP6 DUP3 ADD MSTORE PUSH2 0x1C65 SWAP6 ISZERO ISZERO PUSH1 0x5 SHL DUP6 ADD ADD SWAP3 POP CODESIZE SWAP2 POP PUSH2 0x1C58 SWAP1 POP JUMP JUMPDEST PUSH1 0x0 MSTORE PUSH1 0xD PUSH1 0x20 MSTORE PUSH1 0x40 PUSH1 0x0 KECCAK256 PUSH1 0x40 MLOAD SWAP1 PUSH2 0x1F61 DUP3 PUSH2 0x18B3 JUMP JUMPDEST DUP1 SLOAD DUP3 MSTORE PUSH1 0x1 DUP2 ADD SLOAD SWAP2 PUSH1 0xC0 PUSH2 0xFFFF PUSH1 0x3 PUSH1 0xFF DUP7 AND SWAP5 DUP6 PUSH1 0x20 DUP7 ADD MSTORE PUSH1 0xFF DUP8 PUSH1 0x8 SHR AND PUSH1 0x40 DUP7 ADD MSTORE PUSH1 0xFF PUSH1 0x1 PUSH1 0x1 PUSH1 0x40 SHL SUB DUP9 PUSH1 0x10 SHR AND SWAP8 DUP9 PUSH1 0x60 DUP9 ADD MSTORE PUSH1 0x50 SHR AND ISZERO ISZERO PUSH1 0x80 DUP7 ADD MSTORE PUSH1 0x2 DUP2 ADD SLOAD PUSH1 0xA0 DUP7 ADD MSTORE ADD SLOAD AND SWAP2 ADD MSTORE ISZERO PUSH2 0x1FC4 JUMPI TIMESTAMP LT SWAP1 JUMP JUMPDEST POP PUSH1 0x1 SWAP1 JUMP JUMPDEST PUSH1 0x0 DUP2 DUP2 MSTORE PUSH1 0x2 PUSH1 0x20 MSTORE PUSH1 0x40 SWAP1 KECCAK256 SLOAD PUSH1 0x1 PUSH1 0x1 PUSH1 0xA0 SHL SUB AND SWAP1 DUP2 ISZERO PUSH2 0x1FED JUMPI POP SWAP1 JUMP JUMPDEST PUSH1 0x24 SWAP1 PUSH1 0x40 MLOAD SWAP1 PUSH4 0x7E273289 PUSH1 0xE0 SHL DUP3 MSTORE PUSH1 0x4 DUP3 ADD MSTORE REVERT JUMPDEST PUSH1 0x6 SLOAD PUSH1 0x1 PUSH1 0x1 PUSH1 0xA0 SHL SUB AND CALLER SUB PUSH2 0x2019 JUMPI JUMP JUMPDEST PUSH1 0x40 MLOAD PUSH4 0x118CDAA7 PUSH1 0xE0 SHL DUP2 MSTORE CALLER PUSH1 0x4 DUP3 ADD MSTORE PUSH1 0x24 SWAP1 REVERT JUMPDEST PUSH1 0x2 PUSH1 0x8 SLOAD EQ PUSH2 0x2042 JUMPI PUSH1 0x2 PUSH1 0x8 SSTORE JUMP JUMPDEST PUSH1 0x40 MLOAD PUSH4 0x3EE5AEB5 PUSH1 0xE0 SHL DUP2 MSTORE PUSH1 0x4 SWAP1 REVERT JUMPDEST PUSH1 0xFF PUSH1 0x9 SLOAD AND PUSH2 0x2060 JUMPI JUMP JUMPDEST PUSH1 0x40 MLOAD PUSH4 0xD93C0665 PUSH1 0xE0 SHL DUP2 MSTORE PUSH1 0x4 SWAP1 REVERT JUMPDEST PUSH1 0x40 DUP1 MLOAD PUSH2 0x207F DUP2 PUSH2 0x18CE JUMP JUMPDEST PUSH1 0x0 DUP1 DUP3 MSTORE SWAP4 PUSH1 0x1 PUSH1 0x1 PUSH1 0xA0 SHL SUB DUP5 DUP2 AND SWAP5 SWAP1 SWAP3 SWAP1 DUP6 ISZERO PUSH2 0x22C6 JUMPI DUP3 DUP8 MSTORE PUSH1 0x20 SWAP4 PUSH1 0x2 DUP6 MSTORE DUP6 DUP9 KECCAK256 SLOAD AND DUP1 ISZERO ISZERO SWAP1 DUP2 PUSH2 0x2293 JUMPI JUMPDEST DUP8 DUP10 MSTORE PUSH1 0x3 DUP7 MSTORE DUP7 DUP10 KECCAK256 PUSH1 0x1 DUP2 SLOAD ADD SWAP1 SSTORE DUP5 DUP10 MSTORE PUSH1 0x2 DUP7 MSTORE DUP7 DUP10 KECCAK256 DUP9 PUSH1 0x1 PUSH1 0x1 PUSH1 0x60 SHL SUB PUSH1 0xA0 SHL DUP3 SLOAD AND OR SWAP1 SSTORE DUP5 DUP9 DUP9 MLOAD SWAP3 PUSH32 0xDDF252AD1BE2C89B69C2B068FC378DAA952BA7F163C4A11628F55A4DF523B3EF DUP13 DUP1 LOG4 DUP2 DUP1 PUSH2 0x228B JUMPI JUMPDEST PUSH2 0x2267 JUMPI JUMPDEST POP PUSH2 0x224F JUMPI EXTCODESIZE PUSH2 0x2128 JUMPI JUMPDEST POP POP POP POP POP POP JUMP JUMPDEST DUP3 PUSH2 0x2166 SWAP2 DUP6 SWAP7 SWAP8 SWAP9 SWAP5 SWAP6 MLOAD DUP1 SWAP4 DUP2 SWAP3 PUSH4 0xA85BD01 PUSH1 0xE1 SHL SWAP7 DUP8 DUP5 MSTORE CALLER PUSH1 0x4 DUP6 ADD MSTORE DUP13 PUSH1 0x24 DUP6 ADD MSTORE PUSH1 0x44 DUP5 ADD MSTORE PUSH1 0x80 PUSH1 0x64 DUP5 ADD MSTORE PUSH1 0x84 DUP4 ADD SWAP1 PUSH2 0x17CA JUMP JUMPDEST SUB DUP2 DUP11 DUP11 GAS CALL DUP8 SWAP2 DUP2 PUSH2 0x220B JUMPI JUMPDEST POP PUSH2 0x21D4 JUMPI POP POP POP RETURNDATASIZE PUSH1 0x0 EQ PUSH2 0x21CB JUMPI RETURNDATASIZE PUSH2 0x218E DUP2 PUSH2 0x1993 JUMP JUMPDEST SWAP1 PUSH2 0x219B DUP5 MLOAD SWAP3 DUP4 PUSH2 0x18E9 JUMP JUMPDEST DUP2 MSTORE DUP1 SWAP5 DUP3 RETURNDATASIZE SWAP3 ADD RETURNDATACOPY JUMPDEST DUP4 MLOAD SWAP4 DUP5 PUSH2 0x21C5 JUMPI DUP3 MLOAD PUSH4 0x32505749 PUSH1 0xE1 SHL DUP2 MSTORE PUSH1 0x4 DUP2 ADD DUP6 SWAP1 MSTORE PUSH1 0x24 SWAP1 REVERT JUMPDEST DUP5 SWAP3 POP ADD REVERT JUMPDEST PUSH1 0x60 SWAP4 POP PUSH2 0x21A5 JUMP JUMPDEST SWAP2 SWAP6 POP SWAP2 POP PUSH4 0xFFFFFFFF PUSH1 0xE0 SHL AND SUB PUSH2 0x21F4 JUMPI POP POP CODESIZE DUP1 DUP1 DUP1 DUP1 DUP1 PUSH2 0x2120 JUMP JUMPDEST PUSH1 0x24 SWAP3 POP MLOAD SWAP1 PUSH4 0x32505749 PUSH1 0xE1 SHL DUP3 MSTORE PUSH1 0x4 DUP3 ADD MSTORE REVERT JUMPDEST SWAP1 SWAP2 POP DUP5 DUP2 DUP2 RETURNDATASIZE DUP4 GT PUSH2 0x2248 JUMPI JUMPDEST PUSH2 0x2223 DUP2 DUP4 PUSH2 0x18E9 JUMP JUMPDEST DUP2 ADD SUB SLT PUSH2 0x2244 JUMPI MLOAD PUSH1 0x1 PUSH1 0x1 PUSH1 0xE0 SHL SUB NOT DUP2 AND DUP2 SUB PUSH2 0x2244 JUMPI SWAP1 CODESIZE PUSH2 0x2174 JUMP JUMPDEST DUP8 DUP1 REVERT JUMPDEST POP RETURNDATASIZE PUSH2 0x2219 JUMP JUMPDEST DUP5 MLOAD PUSH4 0x39E35637 PUSH1 0xE1 SHL DUP2 MSTORE PUSH1 0x4 DUP2 ADD DUP9 SWAP1 MSTORE PUSH1 0x24 SWAP1 REVERT JUMPDEST PUSH1 0xD DUP7 MSTORE PUSH1 0xFF PUSH1 0x1 DUP9 DUP12 KECCAK256 ADD SLOAD PUSH1 0x50 SHR AND PUSH2 0x2115 JUMPI PUSH4 0xDC8D8DB7 PUSH1 0xE0 SHL DUP2 MSTORE PUSH1 0x4 SWAP1 REVERT JUMPDEST POP PUSH1 0x1 PUSH2 0x2110 JUMP JUMPDEST PUSH1 0x0 DUP6 DUP2 MSTORE PUSH1 0x4 PUSH1 0x20 MSTORE PUSH1 0x40 SWAP1 KECCAK256 DUP1 SLOAD PUSH1 0x1 PUSH1 0x1 PUSH1 0xA0 SHL SUB NOT AND SWAP1 SSTORE DUP1 DUP10 MSTORE PUSH1 0x3 DUP7 MSTORE DUP7 DUP10 KECCAK256 DUP1 SLOAD PUSH1 0x0 NOT ADD SWAP1 SSTORE PUSH2 0x20B3 JUMP JUMPDEST DUP5 MLOAD PUSH4 0x32505749 PUSH1 0xE1 SHL DUP2 MSTORE PUSH1 0x4 DUP2 ADD DUP9 SWAP1 MSTORE PUSH1 0x24 SWAP1 REVERT JUMPDEST SWAP1 SWAP4 SWAP2 SWAP3 DUP4 EXTCODESIZE PUSH2 0x22F0 JUMPI JUMPDEST POP POP POP POP POP JUMP JUMPDEST PUSH1 0x40 MLOAD PUSH4 0xA85BD01 PUSH1 0xE1 SHL DUP1 DUP3 MSTORE PUSH1 0x1 PUSH1 0x1 PUSH1 0xA0 SHL SUB SWAP4 DUP5 AND PUSH1 0x4 DUP4 ADD MSTORE SWAP6 DUP4 AND PUSH1 0x24 DUP3 ADD MSTORE PUSH1 0x44 DUP2 ADD SWAP2 SWAP1 SWAP2 MSTORE PUSH1 0x80 PUSH1 0x64 DUP3 ADD MSTORE SWAP5 SWAP3 AND SWAP3 PUSH1 0x20 SWAP3 SWAP2 DUP6 SWAP1 PUSH2 0x233D SWAP1 PUSH1 0x84 DUP4 ADD SWAP1 PUSH2 0x17CA JUMP JUMPDEST SUB SWAP5 DUP4 DUP2 PUSH1 0x0 SWAP8 DUP2 DUP10 DUP10 GAS CALL DUP7 SWAP2 DUP2 PUSH2 0x23E8 JUMPI JUMPDEST POP PUSH2 0x23B2 JUMPI POP POP POP RETURNDATASIZE PUSH1 0x0 EQ PUSH2 0x23A9 JUMPI RETURNDATASIZE PUSH2 0x236B DUP2 PUSH2 0x1993 JUMP JUMPDEST SWAP1 PUSH2 0x2379 PUSH1 0x40 MLOAD SWAP3 DUP4 PUSH2 0x18E9 JUMP JUMPDEST DUP2 MSTORE DUP1 SWAP4 DUP3 RETURNDATASIZE SWAP3 ADD RETURNDATACOPY JUMPDEST DUP3 MLOAD SWAP3 DUP4 PUSH2 0x23A4 JUMPI PUSH1 0x40 MLOAD PUSH4 0x32505749 PUSH1 0xE1 SHL DUP2 MSTORE PUSH1 0x4 DUP2 ADD DUP5 SWAP1 MSTORE PUSH1 0x24 SWAP1 REVERT JUMPDEST ADD SWAP1 POP REVERT JUMPDEST PUSH1 0x60 SWAP3 POP PUSH2 0x2383 JUMP JUMPDEST SWAP2 SWAP5 POP SWAP2 POP PUSH4 0xFFFFFFFF PUSH1 0xE0 SHL AND SUB PUSH2 0x23D0 JUMPI POP CODESIZE DUP1 DUP1 DUP1 DUP1 PUSH2 0x22E9 JUMP JUMPDEST PUSH1 0x24 SWAP1 PUSH1 0x40 MLOAD SWAP1 PUSH4 0x32505749 PUSH1 0xE1 SHL DUP3 MSTORE PUSH1 0x4 DUP3 ADD MSTORE REVERT JUMPDEST SWAP1 SWAP2 POP DUP5 DUP2 DUP2 RETURNDATASIZE DUP4 GT PUSH2 0x2425 JUMPI JUMPDEST PUSH2 0x2400 DUP2 DUP4 PUSH2 0x18E9 JUMP JUMPDEST DUP2 ADD SUB SLT PUSH2 0x2421 JUMPI MLOAD PUSH1 0x1 PUSH1 0x1 PUSH1 0xE0 SHL SUB NOT DUP2 AND DUP2 SUB PUSH2 0x2421 JUMPI SWAP1 CODESIZE PUSH2 0x2351 JUMP JUMPDEST DUP7 DUP1 REVERT JUMPDEST POP RETURNDATASIZE PUSH2 0x23F6 JUMP INVALID SWAP4 0x1F BLOBHASH JUMPDEST SWAP11 DUP15 TSTORE DUP15 PUSH2 0x946E 0xA5 0xD6 0x1E MUL 0x1F PUSH4 0x6CFE213A DUP1 0x1F SWAP8 PC SWAP13 XOR 0xC1 MSTORE 0xE4 ADDMOD 0xBD LOG2 PUSH5 0x6970667358 0x22 SLT KECCAK256 ADDMOD TLOAD 0xE1 GASPRICE JUMPI DUP6 MSIZE SAR PUSH5 0xE3A21B8125 PUSH12 0x23163123A7B219651605B99D PUSH3 0xEF7282 0xF PUSH5 0x736F6C6343 STOP ADDMOD XOR STOP CALLER "},"methodIdentifiers":{"MAX_URI_LENGTH()":"aab5a877","TIMELOCK_DELAY()":"5ba1c1a9","acceptOwnership()":"79ba5097","approve(address,uint256)":"095ea7b3","balanceOf(address)":"70a08231","cancelMarketplaceChange()":"f7ea8570","executeMarketplaceChange()":"fc86e3ed","getApproved(uint256)":"081812fc","getLicense(uint256)":"b2dd1212","hasApiRights(uint256)":"c58636c0","hasDownloadRights(uint256)":"8f31ae06","isApprovedForAll(address,address)":"e985e9c5","isValid(uint256)":"f577a500","marketplace()":"abc8c7af","mint(address,(uint256,uint8,uint8,uint64,bool,bytes32,uint16))":"849b1b7e","mintWithURI(address,(uint256,uint8,uint8,uint64,bool,bytes32,uint16),string)":"b03fbfbb","name()":"06fdde03","owner()":"8da5cb5b","ownerOf(uint256)":"6352211e","pause()":"8456cb59","paused()":"5c975abb","pendingMarketplaceChange()":"a1757346","pendingOwner()":"e30c3978","renounceOwnership()":"715018a6","requestMarketplaceChange(address)":"31f9abb9","safeTransferFrom(address,address,uint256)":"42842e0e","safeTransferFrom(address,address,uint256,bytes)":"b88d4fde","setApprovalForAll(address,bool)":"a22cb465","setBaseURI(string)":"55f804b3","setTokenURI(uint256,string)":"162094c4","supportsInterface(bytes4)":"01ffc9a7","symbol()":"95d89b41","tokenURI(uint256)":"c87b56dd","totalSupply()":"18160ddd","transferFrom(address,address,uint256)":"23b872dd","transferOwnership(address)":"f2fde38b","unpause()":"3f4ba83a","updateExpires(uint256,uint64)":"fe5eb754"}}}}}