{"contracts/MarketplaceV3.sol":{"MarketplaceV3":{"abi":[{"inputs":[{"internalType":"uint256","name":"feeBps_","type":"uint256"},{"internalType":"address","name":"feeRecipient_","type":"address"},{"internalType":"uint256","name":"modelsLimit_","type":"uint256"},{"internalType":"address","name":"licenseNFTOwner","type":"address"}],"stateMutability":"nonpayable","type":"constructor"},{"inputs":[],"name":"AgentRegistrationFailed","type":"error"},{"inputs":[],"name":"AgentRegistryNotSet","type":"error"},{"inputs":[],"name":"ContractNotAllowed","type":"error"},{"inputs":[],"name":"EnforcedPause","type":"error"},{"inputs":[],"name":"ExpectedPause","type":"error"},{"inputs":[],"name":"FeeOverCap","type":"error"},{"inputs":[],"name":"FeePlusRoyaltyOver100","type":"error"},{"inputs":[],"name":"InsufficientFunds","type":"error"},{"inputs":[],"name":"InvalidBps","type":"error"},{"inputs":[],"name":"InvalidDelivery","type":"error"},{"inputs":[],"name":"InvalidDuration","type":"error"},{"inputs":[],"name":"InvalidInferencePrice","type":"error"},{"inputs":[],"name":"InvalidKind","type":"error"},{"inputs":[],"name":"InvalidRights","type":"error"},{"inputs":[],"name":"InvalidVersion","type":"error"},{"inputs":[],"name":"LicenseRevokedError","type":"error"},{"inputs":[],"name":"ModelsLimitReached","type":"error"},{"inputs":[],"name":"NoPendingChange","type":"error"},{"inputs":[],"name":"NotListed","type":"error"},{"inputs":[],"name":"NotOwner","type":"error"},{"inputs":[{"internalType":"address","name":"owner","type":"address"}],"name":"OwnableInvalidOwner","type":"error"},{"inputs":[{"internalType":"address","name":"account","type":"address"}],"name":"OwnableUnauthorizedAccount","type":"error"},{"inputs":[],"name":"PaymentTokenNotSet","type":"error"},{"inputs":[],"name":"PriceNotConfigured","type":"error"},{"inputs":[],"name":"PriceTooHigh","type":"error"},{"inputs":[],"name":"ReentrancyGuardReentrantCall","type":"error"},{"inputs":[{"internalType":"address","name":"token","type":"address"}],"name":"SafeERC20FailedOperation","type":"error"},{"inputs":[],"name":"TimelockNotExpired","type":"error"},{"inputs":[],"name":"TransferFailed","type":"error"},{"inputs":[],"name":"ZeroAddress","type":"error"},{"anonymous":false,"inputs":[{"indexed":true,"internalType":"uint256","name":"modelId","type":"uint256"},{"indexed":true,"internalType":"uint256","name":"agentId","type":"uint256"},{"indexed":true,"internalType":"address","name":"owner","type":"address"}],"name":"AgentLinked","type":"event"},{"anonymous":false,"inputs":[{"indexed":true,"internalType":"uint256","name":"modelId","type":"uint256"},{"indexed":true,"internalType":"uint256","name":"agentId","type":"uint256"},{"indexed":false,"internalType":"string","name":"metadataUri","type":"string"}],"name":"AgentMetadataUpdated","type":"event"},{"anonymous":false,"inputs":[{"indexed":true,"internalType":"address","name":"registry","type":"address"}],"name":"AgentRegistrySet","type":"event"},{"anonymous":false,"inputs":[{"indexed":true,"internalType":"address","name":"owner","type":"address"},{"indexed":true,"internalType":"bytes32","name":"slugHash","type":"bytes32"},{"indexed":true,"internalType":"uint256","name":"agentId","type":"uint256"}],"name":"FamilyAgentLinked","type":"event"},{"anonymous":false,"inputs":[{"indexed":true,"internalType":"address","name":"to","type":"address"},{"indexed":false,"internalType":"uint256","name":"amount","type":"uint256"}],"name":"FundsSwept","type":"event"},{"anonymous":false,"inputs":[{"indexed":true,"internalType":"uint256","name":"modelId","type":"uint256"},{"indexed":false,"internalType":"uint256","name":"oldPrice","type":"uint256"},{"indexed":false,"internalType":"uint256","name":"newPrice","type":"uint256"},{"indexed":true,"internalType":"address","name":"updatedBy","type":"address"}],"name":"InferencePriceUpdated","type":"event"},{"anonymous":false,"inputs":[{"indexed":true,"internalType":"uint256","name":"modelId","type":"uint256"},{"indexed":false,"internalType":"address","name":"oldWallet","type":"address"},{"indexed":false,"internalType":"address","name":"newWallet","type":"address"},{"indexed":false,"internalType":"uint256","name":"effectiveAt","type":"uint256"}],"name":"InferenceWalletChangeRequested","type":"event"},{"anonymous":false,"inputs":[{"indexed":true,"internalType":"uint256","name":"modelId","type":"uint256"},{"indexed":false,"internalType":"address","name":"oldWallet","type":"address"},{"indexed":false,"internalType":"address","name":"newWallet","type":"address"}],"name":"InferenceWalletChanged","type":"event"},{"anonymous":false,"inputs":[{"indexed":true,"internalType":"uint256","name":"licenseId","type":"uint256"},{"indexed":true,"internalType":"uint256","name":"modelId","type":"uint256"},{"indexed":true,"internalType":"address","name":"buyer","type":"address"},{"indexed":false,"internalType":"uint8","name":"kind","type":"uint8"},{"indexed":false,"internalType":"uint8","name":"rights","type":"uint8"},{"indexed":false,"internalType":"uint64","name":"expiresAt","type":"uint64"},{"indexed":false,"internalType":"uint16","name":"version","type":"uint16"},{"indexed":false,"internalType":"uint256","name":"pricePaid","type":"uint256"},{"indexed":false,"internalType":"uint256","name":"feePaid","type":"uint256"},{"indexed":false,"internalType":"uint256","name":"royaltyPaid","type":"uint256"}],"name":"LicenseMinted","type":"event"},{"anonymous":false,"inputs":[{"indexed":false,"internalType":"address","name":"license","type":"address"}],"name":"LicenseNFTCreated","type":"event"},{"anonymous":false,"inputs":[{"indexed":true,"internalType":"uint256","name":"licenseId","type":"uint256"},{"indexed":true,"internalType":"uint256","name":"modelId","type":"uint256"},{"indexed":false,"internalType":"uint64","name":"newExpiresAt","type":"uint64"},{"indexed":false,"internalType":"uint16","name":"months","type":"uint16"},{"indexed":false,"internalType":"uint256","name":"pricePaid","type":"uint256"},{"indexed":false,"internalType":"uint256","name":"feePaid","type":"uint256"},{"indexed":false,"internalType":"uint256","name":"royaltyPaid","type":"uint256"}],"name":"LicenseRenewed","type":"event"},{"anonymous":false,"inputs":[{"indexed":true,"internalType":"uint256","name":"tokenId","type":"uint256"},{"indexed":true,"internalType":"uint256","name":"modelId","type":"uint256"},{"indexed":true,"internalType":"address","name":"by","type":"address"}],"name":"LicenseRevoked","type":"event"},{"anonymous":false,"inputs":[{"indexed":false,"internalType":"uint256","name":"feeBps","type":"uint256"},{"indexed":false,"internalType":"address","name":"feeRecipient","type":"address"}],"name":"MarketFeesSet","type":"event"},{"anonymous":false,"inputs":[{"indexed":true,"internalType":"uint256","name":"id","type":"uint256"},{"indexed":true,"internalType":"address","name":"owner","type":"address"}],"name":"ModelListed","type":"event"},{"anonymous":false,"inputs":[{"indexed":true,"internalType":"uint256","name":"id","type":"uint256"},{"indexed":true,"internalType":"address","name":"owner","type":"address"}],"name":"ModelUnlisted","type":"event"},{"anonymous":false,"inputs":[{"indexed":true,"internalType":"uint256","name":"id","type":"uint256"},{"indexed":true,"internalType":"address","name":"owner","type":"address"},{"indexed":false,"internalType":"bool","name":"listed","type":"bool"}],"name":"ModelUpdated","type":"event"},{"anonymous":false,"inputs":[{"indexed":false,"internalType":"uint256","name":"active","type":"uint256"}],"name":"ModelsCountChanged","type":"event"},{"anonymous":false,"inputs":[{"indexed":false,"internalType":"uint256","name":"newLimit","type":"uint256"}],"name":"ModelsLimitSet","type":"event"},{"anonymous":false,"inputs":[{"indexed":true,"internalType":"address","name":"previousOwner","type":"address"},{"indexed":true,"internalType":"address","name":"newOwner","type":"address"}],"name":"OwnershipTransferStarted","type":"event"},{"anonymous":false,"inputs":[{"indexed":true,"internalType":"address","name":"previousOwner","type":"address"},{"indexed":true,"internalType":"address","name":"newOwner","type":"address"}],"name":"OwnershipTransferred","type":"event"},{"anonymous":false,"inputs":[{"indexed":false,"internalType":"address","name":"account","type":"address"}],"name":"Paused","type":"event"},{"anonymous":false,"inputs":[{"indexed":true,"internalType":"address","name":"token","type":"address"}],"name":"PaymentTokenSet","type":"event"},{"anonymous":false,"inputs":[{"indexed":true,"internalType":"uint256","name":"modelId","type":"uint256"},{"indexed":true,"internalType":"address","name":"splitter","type":"address"}],"name":"SplitterCreated","type":"event"},{"anonymous":false,"inputs":[{"indexed":true,"internalType":"address","name":"factory","type":"address"}],"name":"SplitterFactorySet","type":"event"},{"anonymous":false,"inputs":[{"indexed":false,"internalType":"address","name":"account","type":"address"}],"name":"Unpaused","type":"event"},{"inputs":[],"name":"KIND_PERPETUAL","outputs":[{"internalType":"uint8","name":"","type":"uint8"}],"stateMutability":"view","type":"function"},{"inputs":[],"name":"KIND_SUBSCRIPTION","outputs":[{"internalType":"uint8","name":"","type":"uint8"}],"stateMutability":"view","type":"function"},{"inputs":[],"name":"MAX_BPS","outputs":[{"internalType":"uint256","name":"","type":"uint256"}],"stateMutability":"view","type":"function"},{"inputs":[],"name":"MAX_FEE_BPS_CAP","outputs":[{"internalType":"uint256","name":"","type":"uint256"}],"stateMutability":"view","type":"function"},{"inputs":[],"name":"MAX_INFERENCE_PRICE","outputs":[{"internalType":"uint256","name":"","type":"uint256"}],"stateMutability":"view","type":"function"},{"inputs":[],"name":"MAX_PRICE_CAP","outputs":[{"internalType":"uint256","name":"","type":"uint256"}],"stateMutability":"view","type":"function"},{"inputs":[],"name":"MIN_INFERENCE_PRICE","outputs":[{"internalType":"uint256","name":"","type":"uint256"}],"stateMutability":"view","type":"function"},{"inputs":[],"name":"RIGHTS_API","outputs":[{"internalType":"uint8","name":"","type":"uint8"}],"stateMutability":"view","type":"function"},{"inputs":[],"name":"RIGHTS_DOWNLOAD","outputs":[{"internalType":"uint8","name":"","type":"uint8"}],"stateMutability":"view","type":"function"},{"inputs":[],"name":"TIMELOCK_DELAY","outputs":[{"internalType":"uint256","name":"","type":"uint256"}],"stateMutability":"view","type":"function"},{"inputs":[],"name":"acceptOwnership","outputs":[],"stateMutability":"nonpayable","type":"function"},{"inputs":[],"name":"activeModels","outputs":[{"internalType":"uint256","name":"","type":"uint256"}],"stateMutability":"view","type":"function"},{"inputs":[],"name":"agentRegistry","outputs":[{"internalType":"contract IAgentRegistry","name":"","type":"address"}],"stateMutability":"view","type":"function"},{"inputs":[{"internalType":"uint256","name":"modelId","type":"uint256"},{"internalType":"uint8","name":"licenseKind","type":"uint8"},{"internalType":"uint16","name":"months","type":"uint16"},{"internalType":"bool","name":"transferable","type":"bool"}],"name":"buyLicense","outputs":[],"stateMutability":"nonpayable","type":"function"},{"inputs":[{"internalType":"uint256","name":"modelId","type":"uint256"},{"internalType":"uint8","name":"licenseKind","type":"uint8"},{"internalType":"uint16","name":"months","type":"uint16"},{"internalType":"bool","name":"transferable","type":"bool"},{"internalType":"string","name":"tokenUri","type":"string"}],"name":"buyLicenseWithURI","outputs":[],"stateMutability":"nonpayable","type":"function"},{"inputs":[{"internalType":"uint256","name":"modelId","type":"uint256"}],"name":"cancelInferenceWalletChange","outputs":[],"stateMutability":"nonpayable","type":"function"},{"inputs":[{"internalType":"uint256","name":"modelId","type":"uint256"}],"name":"executeInferenceWalletChange","outputs":[],"stateMutability":"nonpayable","type":"function"},{"inputs":[{"internalType":"address","name":"","type":"address"},{"internalType":"bytes32","name":"","type":"bytes32"}],"name":"families","outputs":[{"internalType":"uint256","name":"latestId","type":"uint256"},{"internalType":"uint16","name":"latestVersion","type":"uint16"},{"internalType":"uint256","name":"agentId","type":"uint256"}],"stateMutability":"view","type":"function"},{"inputs":[],"name":"feeBps","outputs":[{"internalType":"uint256","name":"","type":"uint256"}],"stateMutability":"view","type":"function"},{"inputs":[],"name":"feeRecipient","outputs":[{"internalType":"address","name":"","type":"address"}],"stateMutability":"view","type":"function"},{"inputs":[{"internalType":"address","name":"owner","type":"address"},{"internalType":"string","name":"slug","type":"string"}],"name":"getFamilyAgent","outputs":[{"internalType":"uint256","name":"","type":"uint256"}],"stateMutability":"view","type":"function"},{"inputs":[{"internalType":"address","name":"owner","type":"address"},{"internalType":"string","name":"slug","type":"string"}],"name":"getFamilyMeta","outputs":[{"internalType":"uint256","name":"latestId","type":"uint256"},{"internalType":"uint16","name":"latestVersion","type":"uint16"},{"internalType":"uint256","name":"agentId","type":"uint256"}],"stateMutability":"view","type":"function"},{"inputs":[{"internalType":"uint256","name":"modelId","type":"uint256"}],"name":"getInferenceInfo","outputs":[{"internalType":"uint256","name":"priceInference","type":"uint256"},{"internalType":"address","name":"inferenceWallet","type":"address"},{"internalType":"uint256","name":"royaltyBps","type":"uint256"},{"internalType":"uint256","name":"marketplaceBps","type":"uint256"}],"stateMutability":"view","type":"function"},{"inputs":[{"internalType":"uint256","name":"modelId","type":"uint256"}],"name":"getModel","outputs":[{"components":[{"internalType":"address","name":"owner","type":"address"},{"internalType":"address","name":"creator","type":"address"},{"internalType":"string","name":"name","type":"string"},{"internalType":"string","name":"uri","type":"string"},{"internalType":"uint256","name":"royaltyBps","type":"uint256"},{"internalType":"bool","name":"listed","type":"bool"},{"internalType":"uint256","name":"pricePerpetual","type":"uint256"},{"internalType":"uint256","name":"priceSubscription","type":"uint256"},{"internalType":"uint256","name":"defaultDurationDays","type":"uint256"},{"internalType":"uint8","name":"deliveryRightsDefault","type":"uint8"},{"internalType":"uint8","name":"deliveryModeHint","type":"uint8"},{"internalType":"uint16","name":"version","type":"uint16"},{"internalType":"bytes32","name":"termsHash","type":"bytes32"},{"internalType":"uint256","name":"priceInference","type":"uint256"},{"internalType":"address","name":"inferenceWallet","type":"address"}],"internalType":"struct MarketplaceV3.Model","name":"","type":"tuple"}],"stateMutability":"view","type":"function"},{"inputs":[{"internalType":"uint256","name":"modelId","type":"uint256"},{"internalType":"string","name":"slug","type":"string"}],"name":"getModelFamilyAgent","outputs":[{"internalType":"uint256","name":"","type":"uint256"}],"stateMutability":"view","type":"function"},{"inputs":[{"internalType":"uint256","name":"modelId","type":"uint256"}],"name":"getModelPaymentInfo","outputs":[{"internalType":"address","name":"owner","type":"address"},{"internalType":"address","name":"splitter","type":"address"},{"internalType":"uint256","name":"priceInference","type":"uint256"},{"internalType":"uint256","name":"royaltyBps","type":"uint256"}],"stateMutability":"view","type":"function"},{"inputs":[{"internalType":"uint256","name":"modelId","type":"uint256"}],"name":"getModelSplitter","outputs":[{"internalType":"address","name":"splitter","type":"address"}],"stateMutability":"view","type":"function"},{"inputs":[],"name":"lastLicenseId","outputs":[{"internalType":"uint256","name":"","type":"uint256"}],"stateMutability":"view","type":"function"},{"inputs":[],"name":"licenseNFT","outputs":[{"internalType":"contract LicenseNFTV2","name":"","type":"address"}],"stateMutability":"view","type":"function"},{"inputs":[],"name":"licenseNFTAddress","outputs":[{"internalType":"address","name":"","type":"address"}],"stateMutability":"view","type":"function"},{"inputs":[{"internalType":"uint256","name":"tokenId","type":"uint256"}],"name":"licenseStatus","outputs":[{"internalType":"bool","name":"revoked_","type":"bool"},{"internalType":"bool","name":"validApi","type":"bool"},{"internalType":"bool","name":"validDownload","type":"bool"},{"internalType":"uint8","name":"kind","type":"uint8"},{"internalType":"uint64","name":"expiresAt","type":"uint64"},{"internalType":"address","name":"owner","type":"address"}],"stateMutability":"view","type":"function"},{"inputs":[{"internalType":"string","name":"slug","type":"string"},{"internalType":"uint256","name":"agentId","type":"uint256"}],"name":"linkExistingAgentToFamily","outputs":[],"stateMutability":"nonpayable","type":"function"},{"inputs":[{"internalType":"string","name":"slug","type":"string"},{"internalType":"string","name":"name","type":"string"},{"internalType":"string","name":"uri","type":"string"},{"internalType":"uint256","name":"royaltyBps_","type":"uint256"},{"internalType":"uint256","name":"pricePerpetual","type":"uint256"},{"internalType":"uint256","name":"priceSubscription","type":"uint256"},{"internalType":"uint256","name":"defaultDurationDays","type":"uint256"},{"internalType":"uint8","name":"deliveryRightsDefault","type":"uint8"},{"internalType":"uint8","name":"deliveryModeHint","type":"uint8"},{"internalType":"bytes32","name":"termsHash","type":"bytes32"}],"name":"listOrUpgrade","outputs":[],"stateMutability":"nonpayable","type":"function"},{"inputs":[{"internalType":"string","name":"slug","type":"string"},{"internalType":"string","name":"name","type":"string"},{"internalType":"string","name":"uri","type":"string"},{"internalType":"uint256","name":"royaltyBps_","type":"uint256"},{"internalType":"uint256","name":"pricePerpetual","type":"uint256"},{"internalType":"uint256","name":"priceSubscription","type":"uint256"},{"internalType":"uint256","name":"defaultDurationDays","type":"uint256"},{"internalType":"uint8","name":"deliveryRightsDefault","type":"uint8"},{"internalType":"uint8","name":"deliveryModeHint","type":"uint8"},{"internalType":"bytes32","name":"termsHash","type":"bytes32"},{"internalType":"uint256","name":"priceInference_","type":"uint256"},{"internalType":"address","name":"inferenceWallet_","type":"address"}],"name":"listOrUpgrade","outputs":[],"stateMutability":"nonpayable","type":"function"},{"inputs":[{"internalType":"string","name":"slug","type":"string"},{"internalType":"string","name":"name","type":"string"},{"internalType":"string","name":"uri","type":"string"},{"internalType":"uint256","name":"royaltyBps_","type":"uint256"},{"internalType":"uint256","name":"pricePerpetual","type":"uint256"},{"internalType":"uint256","name":"priceSubscription","type":"uint256"},{"internalType":"uint256","name":"defaultDurationDays","type":"uint256"},{"internalType":"uint8","name":"deliveryRightsDefault","type":"uint8"},{"internalType":"uint8","name":"deliveryModeHint","type":"uint8"},{"internalType":"bytes32","name":"termsHash","type":"bytes32"},{"internalType":"uint256","name":"priceInference_","type":"uint256"},{"internalType":"address","name":"inferenceWallet_","type":"address"},{"components":[{"internalType":"string","name":"endpoint","type":"string"},{"internalType":"address","name":"wallet","type":"address"},{"internalType":"string","name":"metadataUri","type":"string"}],"internalType":"struct MarketplaceV3.AgentParams","name":"agentParams","type":"tuple"}],"name":"listOrUpgradeWithAgent","outputs":[{"internalType":"uint256","name":"modelId","type":"uint256"},{"internalType":"uint256","name":"agentId","type":"uint256"}],"stateMutability":"nonpayable","type":"function"},{"inputs":[{"internalType":"uint256","name":"","type":"uint256"}],"name":"models","outputs":[{"internalType":"address","name":"owner","type":"address"},{"internalType":"address","name":"creator","type":"address"},{"internalType":"string","name":"name","type":"string"},{"internalType":"string","name":"uri","type":"string"},{"internalType":"uint256","name":"royaltyBps","type":"uint256"},{"internalType":"bool","name":"listed","type":"bool"},{"internalType":"uint256","name":"pricePerpetual","type":"uint256"},{"internalType":"uint256","name":"priceSubscription","type":"uint256"},{"internalType":"uint256","name":"defaultDurationDays","type":"uint256"},{"internalType":"uint8","name":"deliveryRightsDefault","type":"uint8"},{"internalType":"uint8","name":"deliveryModeHint","type":"uint8"},{"internalType":"uint16","name":"version","type":"uint16"},{"internalType":"bytes32","name":"termsHash","type":"bytes32"},{"internalType":"uint256","name":"priceInference","type":"uint256"},{"internalType":"address","name":"inferenceWallet","type":"address"}],"stateMutability":"view","type":"function"},{"inputs":[],"name":"modelsLimit","outputs":[{"internalType":"uint256","name":"","type":"uint256"}],"stateMutability":"view","type":"function"},{"inputs":[],"name":"nextId","outputs":[{"internalType":"uint256","name":"","type":"uint256"}],"stateMutability":"view","type":"function"},{"inputs":[],"name":"owner","outputs":[{"internalType":"address","name":"","type":"address"}],"stateMutability":"view","type":"function"},{"inputs":[],"name":"pause","outputs":[],"stateMutability":"nonpayable","type":"function"},{"inputs":[],"name":"paused","outputs":[{"internalType":"bool","name":"","type":"bool"}],"stateMutability":"view","type":"function"},{"inputs":[],"name":"paymentToken","outputs":[{"internalType":"contract IERC20","name":"","type":"address"}],"stateMutability":"view","type":"function"},{"inputs":[{"internalType":"uint256","name":"","type":"uint256"}],"name":"pendingInferenceWalletChanges","outputs":[{"internalType":"address","name":"newWallet","type":"address"},{"internalType":"uint256","name":"effectiveAt","type":"uint256"}],"stateMutability":"view","type":"function"},{"inputs":[],"name":"pendingOwner","outputs":[{"internalType":"address","name":"","type":"address"}],"stateMutability":"view","type":"function"},{"inputs":[{"internalType":"uint256","name":"tokenId","type":"uint256"},{"internalType":"uint16","name":"months","type":"uint16"}],"name":"renewLicense","outputs":[],"stateMutability":"nonpayable","type":"function"},{"inputs":[],"name":"renounceOwnership","outputs":[],"stateMutability":"nonpayable","type":"function"},{"inputs":[{"internalType":"uint256","name":"modelId","type":"uint256"},{"internalType":"address","name":"newWallet","type":"address"}],"name":"requestInferenceWalletChange","outputs":[],"stateMutability":"nonpayable","type":"function"},{"inputs":[{"internalType":"uint256","name":"tokenId","type":"uint256"}],"name":"revokeByAdmin","outputs":[],"stateMutability":"nonpayable","type":"function"},{"inputs":[{"internalType":"uint256","name":"tokenId","type":"uint256"}],"name":"revokeByModelOwner","outputs":[],"stateMutability":"nonpayable","type":"function"},{"inputs":[{"internalType":"uint256","name":"","type":"uint256"}],"name":"revoked","outputs":[{"internalType":"bool","name":"","type":"bool"}],"stateMutability":"view","type":"function"},{"inputs":[{"internalType":"address","name":"_registry","type":"address"}],"name":"setAgentRegistry","outputs":[],"stateMutability":"nonpayable","type":"function"},{"inputs":[{"internalType":"uint256","name":"newFeeBps","type":"uint256"},{"internalType":"address","name":"newRecipient","type":"address"}],"name":"setFees","outputs":[],"stateMutability":"nonpayable","type":"function"},{"inputs":[{"internalType":"uint256","name":"modelId","type":"uint256"},{"internalType":"uint256","name":"newPrice","type":"uint256"}],"name":"setInferencePrice","outputs":[],"stateMutability":"nonpayable","type":"function"},{"inputs":[{"internalType":"uint256","name":"modelId","type":"uint256"},{"internalType":"uint256","name":"pricePerpetual","type":"uint256"},{"internalType":"uint256","name":"priceSubscription","type":"uint256"},{"internalType":"uint256","name":"defaultDurationDays","type":"uint256"},{"internalType":"uint8","name":"deliveryRightsDefault","type":"uint8"},{"internalType":"uint8","name":"deliveryModeHint","type":"uint8"},{"internalType":"bytes32","name":"termsHash","type":"bytes32"}],"name":"setLicensingParams","outputs":[],"stateMutability":"nonpayable","type":"function"},{"inputs":[{"internalType":"uint256","name":"modelId","type":"uint256"},{"internalType":"bool","name":"listed","type":"bool"}],"name":"setListed","outputs":[],"stateMutability":"nonpayable","type":"function"},{"inputs":[{"internalType":"uint256","name":"lim","type":"uint256"}],"name":"setModelsLimit","outputs":[],"stateMutability":"nonpayable","type":"function"},{"inputs":[{"internalType":"address","name":"_token","type":"address"}],"name":"setPaymentToken","outputs":[],"stateMutability":"nonpayable","type":"function"},{"inputs":[{"internalType":"address","name":"_factory","type":"address"}],"name":"setSplitterFactory","outputs":[],"stateMutability":"nonpayable","type":"function"},{"inputs":[],"name":"splitterFactory","outputs":[{"internalType":"contract ISplitterFactory","name":"","type":"address"}],"stateMutability":"view","type":"function"},{"inputs":[{"internalType":"address","name":"to","type":"address"},{"internalType":"uint256","name":"amount","type":"uint256"}],"name":"sweep","outputs":[],"stateMutability":"nonpayable","type":"function"},{"inputs":[{"internalType":"address","name":"token","type":"address"},{"internalType":"address","name":"to","type":"address"},{"internalType":"uint256","name":"amount","type":"uint256"}],"name":"sweepToken","outputs":[],"stateMutability":"nonpayable","type":"function"},{"inputs":[{"internalType":"address","name":"newOwner","type":"address"}],"name":"transferOwnership","outputs":[],"stateMutability":"nonpayable","type":"function"},{"inputs":[],"name":"unpause","outputs":[],"stateMutability":"nonpayable","type":"function"},{"inputs":[{"internalType":"uint256","name":"modelId","type":"uint256"},{"internalType":"string","name":"agentEndpoint","type":"string"},{"internalType":"address","name":"agentWallet","type":"address"}],"name":"updateModelAgent","outputs":[],"stateMutability":"nonpayable","type":"function"},{"stateMutability":"payable","type":"receive"}],"evm":{"bytecode":{"linkReferences":{},"object":"60a0346200026457601f6200711338819003918201601f1916830192916001600160401b039182851184861017620002695781608092859260409788528339810103126200026457815162000057602084016200027f565b926200006a60608683015192016200027f565b9233156200024c5760018060a01b031991826001541660015560009384549360018060a01b039733828716178755895195893391167f8be0079c531659141344cd1fd0a4f28419497f9722a3daafe3b4186f6b6457e08980a360016002556004956001875561271084116200023e57506107d083116200022e5788169182156200021e57600655600754161760075560095585516128c080820190828210848311176200020b57602091839162004833833930815203019084f08015620001fd578086916080521693843b1562000207578560248592838a51988994859363f2fde38b60e01b855216888401525af18015620001fd57620001c5575b85600080516020620070f3833981519152602087608051168351908152a15161459e90816200029582396080518181816108dc015281816109fd01528181610e25015281816111220152818161192e01528181611bd901526125740152f35b8311620001ea57505082526020600080516020620070f3833981519152388062000166565b634e487b7160e01b825260419052602490fd5b86513d85823e3d90fd5b8380fd5b634e487b7160e01b865260418552602486fd5b895163d92e233d60e01b81528690fd5b895163c1bd884560e01b81528690fd5b63c6cc5d7f60e01b81528690fd5b8551631e4fbdf760e01b815260006004820152602490fd5b600080fd5b634e487b7160e01b600052604160045260246000fd5b51906001600160a01b0382168203620002645756fe6080604052600436101561001b575b361561001957600080fd5b005b6000803560e01c80630135adcd146138b057806308c059031461385b5780630d1cfcae146138325780631c65c86d146137705780631e141e8b1461367c578063227dc4c41461365e57806323da4f011461361757806323ea1f5f1461130357806324a9d853146135f957806328342ecf1461358f5780632d88c211146130005780633013ce2914612fd7578063345c0f77146126da57806337c738651461253e5780633d162cdc1461249b5780633f4ba83a1461243057806346453f28146123c3578063469048401461239a57806347e803611461233057806347eaa7a214611d4d5780634b746cd114611a5a5780635608d9e514611a315780635ba1c1a914611a135780635c975abb146119f057806361b8ce8c146119d2578063636d5870146118f557806364aff9ec146118ab5780636a030ca9146117985780636a326ab11461172e5780636d361694146114df5780636ea056a914611471578063715018a61461140c57806375bb91b2146113f05780637918413b1461138657806379ba5097146113085780637d53deff1461130357806381cd7439146112e65780638456cb591461128b57806388daf7f414610fde5780638da5cb5b14610fb75780639ccebcec14610f33578063a249668a14610f14578063acb27c6814610ef8578063c384373a14610eda578063c3c2265f14610dec578063c7d2497414610da4578063c8aa67b314610d86578063d078818814610d3f578063d2d5ec4d14610cf1578063d402e464146109a3578063d5b141e714610974578063d9a5aa9614610927578063da68d47d146108c6578063df99e5341461090b578063e0a3dd96146108c6578063e30c39781461089d578063f09449ba14610744578063f2fde38b146106d7578063f483708d1461060f578063f5b96972146105ef578063f60eb4bf1461046f578063f77bc7761461043e578063f932ecac146103065763fd967f47146102e7575061000e565b3461030357806003193601126103035760206040516127108152f35b80fd5b503461030357604036600319011261030357600435610323613a7b565b61032b613fdd565b818352600a6020526040832080546001600160a01b03908116330361042c5780831691821561041a5761035d84614189565b620151804201928342116104065791600c610400927fe0ab772b3b6cddb6293c9c400e007d0bd007f54e8a59244023fb3360b89172ff969594604051906103a382613b5b565b81526001602082018781528a8c52600d6020528560408d209351166001600160601b0360a01b84541617835551910155015416916040519384938460409194939294606082019560018060a01b0380921683521660208201520152565b0390a280f35b634e487b7160e01b87526011600452602487fd5b60405163d92e233d60e01b8152600490fd5b6040516330cd747160e01b8152600490fd5b503461030357602036600319011261030357602061045d600435613f6c565b6040516001600160a01b039091168152f35b5034610303576060366003190112610303576004356024356001600160401b0381116105eb576104a3903690600401613a91565b916044356001600160a01b0381811693918490036105c1576104c3613fdd565b828652600a60205280604087205416330361042c57600f541680156105d9576040519263173e79bb60e01b84526004840152602083602481845afa9283156105ce578693610595575b508215610583578594813b1561057f5785809461054d9660405197889687958694633bda90a360e01b86526004860152606060248601526064850191613dd1565b90604483015203925af18015610574576105645750f35b61056d90613b8c565b6103035780f35b6040513d84823e3d90fd5b8580fd5b60405163a9146eeb60e01b8152600490fd5b9092506020813d6020116105c6575b816105b160209383613bd6565b810103126105c15751913861050c565b600080fd5b3d91506105a4565b6040513d88823e3d90fd5b604051633c43607360e11b8152600490fd5b8280fd5b5034610303578060031936011261030357602060405164e8d4a510008152f35b5034610303576040366003190112610303576004356001600160401b0381116106d357610643610658913690600401613a91565b919060243592610651613fdd565b3691613d3f565b60208151910120338352600b60205260408320818452602052604083208054156105835760020180546106c157600f546001600160a01b0316156105d957829055337f6e992eb7068e17c8e71ba9dbe83c4b6e1f8dd75b188e22290b0d4721fb76bbca8480a480f35b6040516371a31c2760e01b8152600490fd5b5080fd5b5034610303576020366003190112610303576106f1613a4e565b6106f96140ce565b600180546001600160a01b0319166001600160a01b0392831690811790915582549091167f38d16b8cac22d99fc7c124b9cd0de2d3fa1faef420bfe791d8c362d765e227008380a380f35b503461030357604036600319011261030357600435602435801580158092036105c15761076f613fdd565b828452600a6020526040842080546001600160a01b039290831633810361042c57857fa417ee948a5c9d2786613a25b5c7344175c18ea547f629c63f7de4ceaacb90986020600586019788549860ff8a169960ff83169060ff1916179055604051908152a31561084f575416604051926000805160206145498339815191528580a380610844575b610801575b505b80f35b60085460001981019081116108305760008051602061452983398151915291816020926008558152a1386107fc565b634e487b7160e01b83526011600452602483fd5b5060085415156107f7565b505090501561085b5780f35b600854600181018091116108895760208160008051602061452983398151915292600855604051908152a180f35b634e487b7160e01b82526011600452602482fd5b50346103035780600319360112610303576001546040516001600160a01b039091168152602090f35b50346103035780600319360112610303576040517f00000000000000000000000000000000000000000000000000000000000000006001600160a01b03168152602090f35b5034610303578060031936011261030357602060405160648152f35b5034610303576002604060209261094a61094036613abe565b9291923691613d3f565b8051908601206001600160a01b039091168252600b85528282209082528452200154604051908152f35b50346103035760203660031901126103035760ff60406020926004358152600c84522054166040519015158152f35b5034610303576040366003190112610303576004356024359061ffff82168092036105eb576109d0613fdd565b6109d86140e2565b8115610cdf5760405163596e890960e11b8152600481018290526001600160a01b03927f00000000000000000000000000000000000000000000000000000000000000008416919060e082602481865afa9182156105ce578692610cae575b506040516331a9108f60e11b815260048101859052602095908681602481885afa908115610ca3578891610c76575b50813391160361042c57600160ff878501511603610c6457848752600c865260ff604088205416610c525782518752600a86526040872091600654610ab06004850154809261411f565b60078401548015610c405782610ac591613ead565b9264e8d4a510008411610c2e57610ae9918160018701541633928754169186614338565b509490936001600160401b03908160608401511684428211600014610c1e576008610b1792935b0154613ead565b906201518091828102928184041490151715610c0a5782918c93610b3b9216613d92565b1696803b156106d3578190604460405180948193633f97add560e21b83528d60048401528c60248401525af18015610bff57610bbf575b50917fffa941bdd74336abc13129ba18ac9721bf531ff9f07161484dfb56f1f28dd5be95939160a095935198604051958652850152604084015260608301526080820152a3600160025580f35b9160a095939199610bf27fffa941bdd74336abc13129ba18ac9721bf531ff9f07161484dfb56f1f28dd5be989694613b8c565b9991939550919395610b72565b6040513d8c823e3d90fd5b634e487b7160e01b8c52601160045260248cfd5b610b179150600884421693610b10565b60405163127f08c960e11b8152600490fd5b604051631140cf7f60e01b8152600490fd5b604051633806084560e11b8152600490fd5b6040516302b79ed360e41b8152600490fd5b610c969150873d8911610c9c575b610c8e8183613bd6565b810190613d05565b38610a66565b503d610c84565b6040513d8a823e3d90fd5b610cd191925060e03d60e011610cd8575b610cc98183613bd6565b810190613e21565b9038610a37565b503d610cbf565b604051637616640160e01b8152600490fd5b5034610303576020366003190112610303577f3a266fd63d408074525facb4c91054de12d4e7bf0cad93604b63ef604f96e7fc6020600435610d316140ce565b80600955604051908152a180f35b503461030357604036600319011261030357602435906001600160401b038211610303576020610d7e610d753660048601613a91565b90600435613f16565b604051908152f35b50346103035780600319360112610303576020600854604051908152f35b5034610303576020366003190112610303576004358152600d6020908152604091829020805460019091015483516001600160a01b03909216825291810191909152f35b0390f35b50346103035760203660031901126103035760405163596e890960e11b8152600480359082018190526001600160a01b0360e0836024817f000000000000000000000000000000000000000000000000000000000000000085165afa928315610ecf578493610eae575b5082518452600a602052604084205416330361042c57808352600c60205260408320805460ff19166001179055905133917fa0fdfae94a7f0d72d671fdddac883ffa712b07cfc84408bfb3ced264d1fc58f18480a480f35b610ec891935060e03d60e011610cd857610cc98183613bd6565b9138610e56565b6040513d86823e3d90fd5b50346103035780600319360112610303576020600554604051908152f35b5034610303578060031936011261030357602060405160028152f35b50346103035780600319360112610303576020604051633b9aca008152f35b503461030357604036600319011261030357602435600435610f53613fdd565b808352600a6020526040832080546001600160a01b0316330361042c57600b90610f7c84614144565b0191808354935560405192835260208301527f6f410fdce106b8b5c37fa32842357b3f2ecea680083897d5490141b384e1bb0160403393a380f35b5034610303578060031936011261030357546040516001600160a01b039091168152602090f35b503461030357608036600319011261030357610ff8613a22565b611000613b01565b90611009613b12565b611011613fdd565b6110196140e2565b6004358452600a602052604084209060ff60058301541615611279576006546110476004840154809261411f565b61106560ff600985015461105c828216613ffb565b60081c16614041565b6110926110738686866142eb565b60018501548554919333926001600160a01b0390811692169085614338565b508796600160ff881614611220575b5061ffff6009860154600a870154604051966110bc88613b9f565b600435885260ff8a16602089015260ff831660408901526001600160401b038b1660608901521515608088015260a087015260101c1660c08501526111186040519463424d8dbf60e11b86523360048701526024860190613ec0565b602084610104818b7f00000000000000000000000000000000000000000000000000000000000000006001600160a01b03165af1938415610ca35788946111e6575b506005849055600994909401546040805160ff978816815296821660208801526001600160401b039097169686019690965260109590951c61ffff166060850152608084015260a083019390935260c08201523391600435917f83a9edc2809eed4960fd3ccb7da06a85b3e878e6e1568e8ca281ae543adcc493908060e081015b0390a4600160025580f35b9093506020813d602011611218575b8161120260209383613bd6565b810103126112145751926111db61115a565b8780fd5b3d91506111f5565b61123691975061ffff6008870154911690613ead565b62015180908181029181830414901517156112655761125d6001600160401b039142613d92565b1695386110a1565b634e487b7160e01b88526011600452602488fd5b60405163665c1c5760e01b8152600490fd5b50346103035780600319360112610303576112a46140ce565b6112ac613fdd565b600160ff1960035416176003557f62e78cea01bee320cd4e420270b5ea74000d11b0c9f74754ebdbfc544b05a2586020604051338152a180f35b503461030357806003193601126103035760206040516107d08152f35b613a32565b50346103035780600319360112610303576001546001600160a01b03338183160361136e576001600160a01b031991821660015582543392811683178455167f8be0079c531659141344cd1fd0a4f28419497f9722a3daafe3b4186f6b6457e08380a380f35b60405163118cdaa760e01b8152336004820152602490fd5b5034610303576020366003190112610303576113a0613a4e565b6113a86140ce565b6001600160a01b0316801561041a57600e80546001600160a01b031916821790557f50a7789fc3a529664680ca40d3b269c318a2d1e034e09941fd478adc549ed42c8280a280f35b5034610303578060031936011261030357602090604051908152f35b50346103035780600319360112610303576114256140ce565b600180546001600160a01b03199081169091558154908116825581906001600160a01b03167f8be0079c531659141344cd1fd0a4f28419497f9722a3daafe3b4186f6b6457e08280a380f35b50346103035760403660031901126103035761148b613a4e565b6024356114966140ce565b6001600160a01b03821691821561041a57816114d57f6e20afaadac1247355fa762fa54c781b1749acd4853577725d30ff0acf2d8ed09360209361444a565b604051908152a280f35b503461030357602036600319011261030357806040916101c0835161150381613bba565b8281528260208201526060858201526060808201528260808201528260a08201528260c08201528260e08201528261010082015282610120820152826101408201528261016082015282610180820152826101a082015201526004358152600a602052206040519061157482613bba565b80546001600160a01b039081168352600182015416602083015261159a60028201613bf7565b60408301526115ab60038201613bf7565b60608301526004810154608083015260ff600582015416151560a0830152600681015460c0830152600781015460e0830152600881015461010083015261ffff600982015460ff811661012085015260ff8160081c1661014085015260101c16610160830152600a810154610180830152600b8101546101a0830152600c60018060a01b03910154166101c082015260405180916020825260018060a01b03815116602083015260018060a01b03602082015116604083015261169861168260408301516101e06060860152610200850190613c9c565b6060830151848203601f19016080860152613c9c565b90608081015160a084015260a0810151151560c084015260c081015160e084015260e081015161010084015261010081015161012084015260ff6101208201511661014084015260ff6101408201511661016084015261ffff610160820151166101808401526101808101516101a08401526101a08101516101c08401526101c060018060a01b03910151166101e08301520390f35b503461030357602036600319011261030357611748613a4e565b6117506140ce565b6001600160a01b0316801561041a57601080546001600160a01b031916821790557fcb0aeffe884eb88fb2a31a2f3e4bd1d2763bdee48ba93b28c6e87501228cf7438280a280f35b5034610303576020366003190112610303576004358152600a60205260409020805460018201546001600160a01b0390811692918116916117db60028201613bf7565b906117e860038201613bf7565b92600482015493600583015460ff166006840154600785015490600886015492600987015494600a88015496600b89015498600c015416986040519c8d9c8d6101e092839282526020820152604001528c0161184391613c9c565b8b810360608d015261185491613c9c565b9860808b0152151560a08a015260c089015260e088015261010087015260ff81166101208701528060081c60ff1661014087015260101c61ffff166101608601526101808501526101a08401526101c08301520390f35b5034610303576060366003190112610303576118c5613a4e565b6118cd613a7b565b906118d66140ce565b6001600160a01b03918083161561041a576107fe926044359216614409565b5034610303576020366003190112610303576004356119126140ce565b60405163596e890960e11b81526004810182905260e0816024817f00000000000000000000000000000000000000000000000000000000000000006001600160a01b03165afa9081156119c75783916119a8575b50818352600c60205260408320805460ff191660011790555133917fa0fdfae94a7f0d72d671fdddac883ffa712b07cfc84408bfb3ced264d1fc58f18480a480f35b6119c1915060e03d60e011610cd857610cc98183613bd6565b38611966565b6040513d85823e3d90fd5b50346103035780600319360112610303576020600454604051908152f35b5034610303578060031936011261030357602060ff600354166040519015158152f35b50346103035780600319360112610303576020604051620151808152f35b5034610303578060031936011261030357600e546040516001600160a01b039091168152602090f35b50346103035760a036600319011261030357611a74613a22565b611a7c613b01565b611a84613b12565b906084356001600160401b038111611d4957611aa4903690600401613a91565b9091611aae613fdd565b611ab66140e2565b6004358652600a602052604086209060ff6005830154161561127957859360065492611ae76004820154809561411f565b611afc60ff600983015461105c828216613ffb565b611b29611b0a8488846142eb565b60018301548354919633926001600160a01b0390811692169088614338565b509690928a94600160ff841614611ce2575b50602091611bd4611bc09260098601549b600a8701549c61ffff9d8e9260ff60405197611b6789613b9f565b6004358952168988015260ff831660408801526001600160401b038c1660608801521515608087015260a086015260101c1660c0840152604051998a94859463b03fbfbb60e01b86523360048701526024860190613ec0565b610120610104850152610124840191613dd1565b03818c7f00000000000000000000000000000000000000000000000000000000000000006001600160a01b03165af1948515611cd7578995611c97575b506005859055600901546040805160ff998a16815298821660208a01526001600160401b039093169288019290925261ffff60109290921c909516166060860152608085015260a084019290925260c0830152339160043591907f83a9edc2809eed4960fd3ccb7da06a85b3e878e6e1568e8ca281ae543adcc493908060e081016111db565b919450946020823d602011611ccf575b81611cb460209383613bd6565b81010312611ccb57905190949093906111db611c11565b8880fd5b3d9150611ca7565b6040513d8b823e3d90fd5b6008840154919550611cf9925061ffff1690613ead565b62015180908082810204821481151715611d355789611bd46001600160401b03611d2a602095611bc0950242613d92565b169692505091611b3b565b634e487b7160e01b8b52601160045260248bfd5b8480fd5b503461030357610180366003190112610303576004356001600160401b0381116106d357611d7f903690600401613a91565b906024356001600160401b03811161232c57611d9f903690600401613a91565b92906044356001600160401b03811161057f57611dc0903690600401613a91565b929093611dcb613a01565b93611e3a611dd7613a11565b92611de0613a64565b94611de9613fdd565b611df4606435614103565b611e0260643560065461411f565b611e0b88613ffb565b611e1485614041565b611e2560c43560a435608435614087565b611e3161014435614144565b61065186614189565b60208151910120338952600b60205260408920908952602052604088209561ffff80600189015416146105835786548061229f575b506009548015159081612292575b506122805760045497611e8f89613d83565b600455888a52600a60205260408a2095336001600160601b0360a01b88541617875560018701336001600160601b0360a01b8254161790556001600160401b03821161226c578190611ee46002890154613b21565b601f811161221a575b508b90601f83116001146121ae578c926121a3575b50508160011b916000199060031b1c19161760028601555b6001600160401b03821161218f57611f356003860154613b21565b601f811161214b575b508890601f83116001146120d25792826001979593611fcd9361ffff98968d926120c7575b505081891b916000199060031b1c19161760038501555b606435600485015560058401805460ff191688179055608435600685015560a435600785015560c43560088086019190915560098501805461ffff191660ff979097169690961791901b61ff0016178455565b61012435600a83015561014435600b83015560a085901b85900390808216156120bd57600c90925b0180546001600160a01b031916919092161790558354156120a05761203b612021838587015416613cdc565b825463ffff00001916601082901b63ffff00001617909255565b8484551661ffff19828401541617910155600854600181018091116108305760208160008051602061452983398151915292600855604051908152a133907f0da0a1595d5f9a5872904ca8eceb17d6befc55070d4fd387e4c2f1d4553dd01a8380a380f35b805463ffff00001916601084901b63ffff0000161790558161203b565b50600c3392611ff5565b013590503880611f63565b600386018a5260208a20918a5b601f1985168110612133575083611fcd9361ffff98969360019a9896938b94601f19811610612119575b505050811b016003850155611f7a565b0135600019600384901b60f8161c19169055388080612109565b909260206001819286860135815501940191016120df565b600386018a5260208a20601f840160051c810160208510612188575b601f830160051c8201811061217d575050611f3e565b8b8155600101612167565b5080612167565b634e487b7160e01b89526041600452602489fd5b013590503880611f02565b600289018d5260208d208d9450915b601f1984168510612202576001945083601f198116106121e8575b505050811b016002860155611f1a565b0135600019600384901b60f8161c191690553880806121d8565b818101358355602094850194600190930192016121bd565b909150600288018c5260208c20601f840160051c810160208510612265575b84939291908e5b601f840160051c8301821061225757505050611eed565b81558594506001018e612240565b5080612239565b634e487b7160e01b8b52604160045260248bfd5b604051635703766960e01b8152600490fd5b9050600854101538611e7d565b8952600a6020526040892060058101805460ff81166122c0575b5050611e6f565b60ff19169055600854806122f8575b50875490546001600160a01b0316906000805160206145498339815191528b80a33880806122b9565b80600019810111611d355760001901600881905560405190815260008051602061452983398151915290602090a1386122cf565b8380fd5b50346103035760409061234561094036613abe565b602081519101209060018060a01b03168252600b602052828220908252602052208054610de8600261ffff6001850154169301546040519384938461ffff604092959493606083019683521660208201520152565b50346103035780600319360112610303576007546040516001600160a01b039091168152602090f35b5034610303576040366003190112610303576040906001600160a01b036123e8613a4e565b168152600b6020528181206024358252602052208054610de8600261ffff6001850154169301546040519384938461ffff604092959493606083019683521660208201520152565b50346103035780600319360112610303576124496140ce565b60035460ff8116156124895760ff19166003557f5db9ee0a495bf2e6ff9c91a7834c1ba4fdd244a5e8aa4e537bd38aeae4b073aa6020604051338152a180f35b604051638dfc202b60e01b8152600490fd5b5034610303576040366003190112610303576004356124b8613a7b565b6124c06140ce565b6124c982614103565b6107d0821161252c576001600160a01b0316801561041a57816040917fc5732485634831b5e1b586e2011c5f2b392fe136310c230cf1f04d6caf30c15a93600655806001600160601b0360a01b600754161760075582519182526020820152a180f35b60405163c1bd884560e01b8152600490fd5b5034610303576020806003193601126106d35760405163596e890960e11b815260048035908201819052916001600160a01b03917f000000000000000000000000000000000000000000000000000000000000000083169160e082602481865afa9182156105ce5786926126b9575b50848652600c81528060ff604088205416956024604051809681936331a9108f60e11b835260048301525afa9283156105ce579560c096819461269a575b5060ff8284015116916001600160401b0360608501511693876000146126355750815b604051971515885215159087015215156040860152606085015260808401521660a0820152f35b831592508215612690575b6040015160ff1691808061267c575b928161265d575b509161260e565b6002811491508115612671575b5038612656565b60039150143861266a565b50600183148061264f57506003831461264f565b4285119250612640565b6126b2919450823d8411610c9c57610c8e8183613bd6565b92386125eb565b6126d391925060e03d60e011610cd857610cc98183613bd6565b90386125ad565b5034610303576101a0366003190112610303576004356001600160401b0381116106d35761270c903690600401613a91565b91906024356001600160401b0381116105eb5761272d903690600401613a91565b9290936044356001600160401b0381116105eb5761274f903690600401613a91565b9095612759613a01565b91612762613a11565b9061276b613a64565b966001600160401b036101843511612fd35760606101843536036003190112612fd3576127f59061279a613fdd565b6127a26140e2565b87966127af606435614103565b6127bd60643560065461411f565b6127c687613ffb565b6127cf85614041565b6127e060c43560a435608435614087565b6127ec61014435614144565b6106518a614189565b60208151910120338752600b60205260408720908752602052604086209861ffff8060018c0154161461058357895480612f32575b506009548015159081612f25575b50612280576004549861284a8a613d83565b600455898852600a6020526040882094336001600160601b0360a01b87541617865560018601336001600160601b0360a01b8254161790556001600160401b03821161218f57819061289f6002880154613b21565b601f8111612ed5575b508990601f8311600114612e69578a92612e5e575b50508160011b916000199060031b1c19161760028501555b6001600160401b038211612e4a576128f06003850154613b21565b601f8111612e06575b508690601f8311600114612d9057918061ffff96959492612987948a92612d85575b50508160011b916000199060031b1c19161760038401555b606435600484015560058301805460ff19166001179055608435600684015560a435600784015560c43560088085019190915560098401805461ffff191660ff969096169590951791901b61ff0016178355565b61012435600a82015561014435600b8201556001600160a01b03861615612d7c57600c86915b0180546001600160a01b0319166001600160a01b03909216919091179055865415612d65576129e46120218360018a015416613cdc565b8587551661ffff196001870154161760018601556008546001810181116108305760208160016000805160206145298339815191529301600855600160405191018152a160405133857f0da0a1595d5f9a5872904ca8eceb17d6befc55070d4fd387e4c2f1d4553dd01a8580a360028601549081158080612d4b575b15612bf4575050600f546001600160a01b03169391505082156105d95761018435602401906001600160a01b03612a9683613df2565b1615612bd05750612aa8602091613df2565b925b612aba6004610184350180613d9f565b9190948487612b2a612ad86044610184350161018435600401613d9f565b612b186040519b8c998a9889976337a1b71960e01b89523360048a0152602489015260018060a01b0316604488015260a0606488015260a4870191613dd1565b84810360031901608486015291613dd1565b03925af180928293612b9c575b50612b4e576040516371a31c2760e01b8152600490fd5b816002604095015581837f40cd9ad911657e73bc37df0291d3b65b0da93eebffd743e2e74b46536c3a30ec339380a45b612b8b60643533846141c0565b600160025582519182526020820152f35b9092506020813d602011612bc8575b81612bb860209383613bd6565b810103126106d357519138612b37565b3d9150612bab565b90506001600160a01b03811615612beb576020905b92612aaa565b50602033612be5565b9091939692945015612c0d575b50505060409250612b7e565b91925090823381867f40cd9ad911657e73bc37df0291d3b65b0da93eebffd743e2e74b46536c3a30ec8980a4612c4f6044610184350161018435600401613d9f565b9050151580612d37575b15612c0157600f546001600160a01b031690612c7f610184356044810190600401613d9f565b9091833b15611ccb578885612cb5819560409c9795839563b2d8593d60e01b855260048501528d60248501526044840191613dd1565b03925af19081612d28575b50612ccd575b8080612c01565b60020154827f3cb407773e5c351f31e21929ef7f1db8ddf609610f0f8e462599e9db21b71b93612d096044610184350161018435600401613d9f565b612d1f8851928392602084526020840191613dd1565b0390a338612cc6565b612d3190613b8c565b38612cc0565b50600f546001600160a01b03161515612c59565b50612d5c6004610184350180613d9f565b90501515612a60565b805463ffff000019166201000017905560016129e4565b600c33916129ad565b01359050388061291b565b6003850188526020882091885b601f1985168110612dee57509261ffff969594926001926129879583601f19811610612dd4575b505050811b016003840155612933565b0135600019600384901b60f8161c19169055388080612dc4565b90926020600181928686013581550194019101612d9d565b60038501885260208820601f840160051c810160208510612e43575b601f830160051c82018110612e385750506128f9565b898155600101612e22565b5080612e22565b634e487b7160e01b87526041600452602487fd5b0135905038806128bd565b600288018b5260208b208b9450915b601f1984168510612ebd576001945083601f19811610612ea3575b505050811b0160028501556128d5565b0135600019600384901b60f8161c19169055388080612e93565b81810135835560209485019460019093019201612e78565b909150600287018a5260208a20601f840160051c810160208510612f1e575b90849392915b601f830160051c82018110612f105750506128a8565b8c8155859450600101612efa565b5080612ef4565b9050600854101538612838565b8752600a6020526040872060058101805460ff8116612f53575b505061282a565b60ff1916905560085480612f8b575b508a5490546001600160a01b0316906000805160206145498339815191528980a3388080612f4c565b80600019810111612fbf5760001901600881905560405190815260008051602061452983398151915290602090a138612f62565b634e487b7160e01b89526011600452602489fd5b8680fd5b50346103035780600319360112610303576010546040516001600160a01b039091168152602090f35b503461030357610140366003190112610303576004356001600160401b0381116106d357613032903690600401613a91565b6024356001600160401b03811161232c57613051903690600401613a91565b92906044356001600160401b03811161057f57613072903690600401613a91565b6130ce613080959295613a01565b94613089613a11565b93613092613fdd565b61309d606435614103565b6130ab60643560065461411f565b6130b487613ffb565b6130bd85614041565b61065160c43560a435608435614087565b60208151910120338852600b60205260408820908852602052604087209461ffff8060018801541614610583578554806134ee575b5060095480151590816134e1575b50612280576004549661312388613d83565b600455878952600a6020526040892094336001600160601b0360a01b87541617865560018601336001600160601b0360a01b8254161790556001600160401b0382116134cd5781906131786002880154613b21565b601f811161347c575b508a90601f8311600114613410578b92613405575b50508160011b916000199060031b1c19161760028501555b6001600160401b0382116133f1576131c96003850154613b21565b601f81116133ad575b508790601f8311600114613334576001959383600c9461ffff9794613262948d92613329575b505081891b916000199060031b1c19161760038401555b606435600484015560058301805460ff191688179055608435600684015560a435600784015560c43560088085019190915560098401805461ffff191660ff979097169690961791901b61ff0016178455565b61012435600a820155600b81018890550180546001600160a01b0319163317905583541561330c5761329b612021838587015416613cdc565b8484551661ffff198284015416179101556008546001810180911161083057906000805160206145298339815191526020836107fe94600855604051908152a133817f0da0a1595d5f9a5872904ca8eceb17d6befc55070d4fd387e4c2f1d4553dd01a8580a36064359033906141c0565b805463ffff00001916601084901b63ffff0000161790558161329b565b0135905038806131f8565b6003850189526020892091895b601f198516811061339557509360018461ffff979461326294839a98600c98601f1981161061337b575b505050811b01600384015561320f565b0135600019600384901b60f8161c1916905538808061336b565b90926020600181928686013581550194019101613341565b60038501895260208920601f840160051c8101602085106133ea575b601f830160051c820181106133df5750506131d2565b8a81556001016133c9565b50806133c9565b634e487b7160e01b88526041600452602488fd5b013590503880613196565b600288018c5260208c208c9450915b601f1984168510613464576001945083601f1981161061344a575b505050811b0160028501556131ae565b0135600019600384901b60f8161c1916905538808061343a565b8181013583556020948501946001909301920161341f565b909150600287018b5260208b20601f840160051c8101602085106134c6575b90849392915b8d601f840160051c830182106134b957505050613181565b81558594506001016134a1565b508061349b565b634e487b7160e01b8a52604160045260248afd5b9050600854101538613111565b8852600a6020526040882060058101805460ff811661350f575b5050613103565b60ff1916905560085480613547575b50865490546001600160a01b0316906000805160206145498339815191528a80a3388080613508565b8060001981011161357b5760001901600881905560405190815260008051602061452983398151915290602090a13861351e565b634e487b7160e01b8a52601160045260248afd5b5034610303576020366003190112610303576135a9613a4e565b6135b16140ce565b6001600160a01b0316801561041a57600f80546001600160a01b031916821790557f1c3b6db6b438df64d69fe11676a03581a3860962063a836411d7cac590063f568280a280f35b50346103035780600319360112610303576020600654604051908152f35b503461030357602036600319011261030357600435808252600a60205260408220546001600160a01b0316330361042c578152600d60205280600160408220828155015580f35b50346103035780600319360112610303576020600954604051908152f35b5034610303576020806003193601126106d357600435808352600a82526040832080549192916001600160a01b03908116330361042c57838552600d835260408520906001604051926136ce84613b5b565b8281541684520154848301908082521561375e5751421061374c577fea983ef69798673fd095eaf6ce96e30087e2403d023c0b66930487e5216d53879381600c6040950193845494828251166001600160601b0360a01b8716179055878952600d83528860018782208281550155511691845193168352820152a280f35b60405163621e25c360e01b8152600490fd5b60405163147fde5f60e31b8152600490fd5b5034610303576020806003193601126106d3576004358291818452600a8152604084209060018060a01b0380835416946004600b8501549401549482600e541690816137d4575b505060809650604051958652169084015260408301526060820152f35b849192506024604051809481936344cc01b360e11b835260048301525afa908115613827576080979161380a575b5038806137b7565b6138219150833d8511610c9c57610c8e8183613bd6565b38613802565b6040513d89823e3d90fd5b5034610303578060031936011261030357600f546040516001600160a01b039091168152602090f35b50346103035760203660031901126103035760406080916004358152600a60205220600b81015490600460018060a01b03600c8301541691015460065491604051938452602084015260408301526060820152f35b50346103035760e03660031901126103035760443560043560843560ff81169060243590606435838203612fd35760a4359060ff82168203611214576138f4613fdd565b858852600a60205260408820805490976001600160a01b039590918616330361042c5761392361396b95613ffb565b61392c84614041565b613937838383614087565b600689015560078801556008870155600986019360ff19855416178455839061ff0082549160081b169061ff001916179055565b61ffff80835460101c16908114610583577fa417ee948a5c9d2786613a25b5c7344175c18ea547f629c63f7de4ceaacb90989260209260ff926005926139d39180156139ee576139ba90613cdc565b63ffff000082549160101b169063ffff00001916179055565b60c435600a880155865416950154166040519015158152a380f35b50805463ffff0000191662010000179055565b60e4359060ff821682036105c157565b610104359060ff821682036105c157565b6024359060ff821682036105c157565b346105c15760003660031901126105c157602060405160018152f35b600435906001600160a01b03821682036105c157565b61016435906001600160a01b03821682036105c157565b602435906001600160a01b03821682036105c157565b9181601f840112156105c1578235916001600160401b0383116105c157602083818601950101116105c157565b9060406003198301126105c1576004356001600160a01b03811681036105c15791602435906001600160401b0382116105c157613afd91600401613a91565b9091565b6044359061ffff821682036105c157565b6064359081151582036105c157565b90600182811c92168015613b51575b6020831014613b3b57565b634e487b7160e01b600052602260045260246000fd5b91607f1691613b30565b604081019081106001600160401b03821117613b7657604052565b634e487b7160e01b600052604160045260246000fd5b6001600160401b038111613b7657604052565b60e081019081106001600160401b03821117613b7657604052565b6101e081019081106001600160401b03821117613b7657604052565b90601f801991011681019081106001600160401b03821117613b7657604052565b90604051918260008254613c0a81613b21565b90818452602094600191600181169081600014613c7a5750600114613c3b575b505050613c3992500383613bd6565b565b600090815285812095935091905b818310613c62575050613c399350820101388080613c2a565b85548884018501529485019487945091830191613c49565b92505050613c3994925060ff191682840152151560051b820101388080613c2a565b919082519283825260005b848110613cc8575050826000602080949584010152601f8019910116010190565b602081830181015184830182015201613ca7565b90600161ffff80931601918211613cef57565b634e487b7160e01b600052601160045260246000fd5b908160209103126105c157516001600160a01b03811681036105c15790565b6001600160401b038111613b7657601f01601f191660200190565b929192613d4b82613d24565b91613d596040519384613bd6565b8294818452818301116105c1578281602093846000960137010152565b91908203918211613cef57565b6000198114613cef5760010190565b91908201809211613cef57565b903590601e19813603018212156105c157018035906001600160401b0382116105c1576020019181360383136105c157565b908060209392818452848401376000828201840152601f01601f1916010190565b356001600160a01b03811681036105c15790565b519060ff821682036105c157565b519081151582036105c157565b908160e09103126105c15760405190613e3982613b9f565b80518252613e4960208201613e06565b6020830152613e5a60408201613e06565b60408301526060810151906001600160401b03821682036105c15760c0916060840152613e8960808201613e14565b608084015260a081015160a0840152015161ffff811681036105c15760c082015290565b81810292918115918404141715613cef57565b61ffff60c080928051855260ff602082015116602086015260ff60408201511660408601526001600160401b03606082015116606086015260808101511515608086015260a081015160a0860152015116910152565b91906000928352600a60205260018060a01b03604084205416918215613f665791613f48600294926040943691613d3f565b60208151910120908252600b60205282822090825260205220015490565b50505090565b600e546001600160a01b0316908115613fd6576020906024604051809481936344cc01b360e11b835260048301525afa908115613fca57600091613fae575090565b613fc7915060203d602011610c9c57610c8e8183613bd6565b90565b6040513d6000823e3d90fd5b5050600090565b60ff60035416613fe957565b60405163d93c066560e01b8152600490fd5b60ff1660018114908115614036575b811561402b575b501561401957565b604051630eb911d560e01b8152600490fd5b600391501438614011565b60028114915061400a565b60ff166001811490811561407c575b8115614071575b501561405f57565b604051632abf7d0d60e21b8152600490fd5b600391501438614057565b600281149150614050565b8015806140c6575b610c405764e8d4a510008091119081156140bc575b50610c2e576140b357610cdf57565b600111610cdf57565b90508111386140a4565b50811561408f565b6000546001600160a01b0316330361136e57565b60028054146140f15760028055565b604051633ee5aeb560e01b8152600490fd5b6127101061410d57565b60405163c6cc5d7f60e01b8152600490fd5b6127109161412c91613d92565b1161413357565b60405162c9a16b60e31b8152600490fd5b8015159081614167575b5061415557565b604051632e0d2f7560e01b8152600490fd5b606481109150811561417b575b503861414e565b633b9aca0091501138614174565b6001600160a01b038116151590816141b5575b506141a357565b6040516311970e2d60e31b8152600490fd5b90503b15153861419c565b600e5490926001600160a01b039290918316806141df575b5050505050565b604051633816c5d160e11b815260048101869052602092908381602481865afa908115613fca576000916142b6575b501561421b575b506141d8565b60848591600085946040519788958694632972764d60e11b86528c600487015216806024860152604485015260648401525af1918291600093614297575b5050614268575b808080614215565b16907fd6d3a3b0133de6515b878d7d0c6151618cfc9fab7b3105554b711cea1ce3157c600080a3388080614260565b6142ae929350803d10610c9c57610c8e8183613bd6565b903880614259565b90508381813d83116142e4575b6142cd8183613bd6565b810103126105c1576142de90613e14565b3861420e565b503d6142c3565b9060ff168061430457506006915001548015610c405790565b600103610c645760070154908115610c405761ffff168015610cdf5761432991613ead565b64e8d4a510008111610c2e5790565b60105491956001600160a01b03959490939092861680156143f75761271097886006546143659086613ead565b04986143728a9286613ead565b04978892836143818488613d76565b9061438b91613d76565b6040516323b872dd60e01b60208201526001600160a01b039a909a1660248b01523060448b01526064808b019790975295895294978895906143ce608482613bd6565b6143d7916144cc565b60075416906143e5916144af565b6143ee916144af565b613c39916144af565b60405163a51ad60560e01b8152600490fd5b60405163a9059cbb60e01b60208201526001600160a01b03929092166024830152604480830193909352918152613c3991614445606483613bd6565b6144cc565b81156144ab576000918291829182916001600160a01b03165af13d156144a6573d61447481613d24565b906144826040519283613bd6565b8152600060203d92013e5b1561449457565b6040516312171d8360e31b8152600490fd5b61448d565b5050565b9080156144ab57601054613c3992906001600160a01b0316614409565b906000602091828151910182855af115613fca576000513d61451f57506001600160a01b0381163b155b6144fd5750565b604051635274afe760e01b81526001600160a01b039091166004820152602490fd5b600114156144f656fe00a17e39748f90dcc231579b95804358753dc835acd3f3972717efc03a8b5511c3090e5fbc3f92a65283d58dece4ae699cc0ca8e124dbc474240bb1aed0b77e7a2646970667358221220edee3d1aec9837b65e097ff771608f988632e0d796261f9316fc35f963b35f5264736f6c634300081800336080346200041857601f19906001600160401b0390601f90620028c03881900383810186168301858111848210176200040257839282916040528339602092839181010312620004185751936001600160a01b03938486169384870362000418576200006a6200041d565b93601885527f4d61726b6574706c6163654149204c6963656e73652056320000000000000000818601526200009e6200041d565b90600882526726a820a4a624a19960c11b8183015285519484861162000402576000958654976001988981811c91168015620003f7575b85821014620003e35790818784931162000390575b5084908783116001146200032f57899262000323575b5050600019600383901b1c191690881b1786555b82519485116200030f5786548781811c9116801562000304575b83821014620002f05790818587969594931162000297575b508193851160011462000232575050849262000226575b5050600019600383901b1c191690831b1782555b33156200020e5760018060a01b03199081600754166007556006549133908316176006557f8be0079c531659141344cd1fd0a4f28419497f9722a3daafe3b4186f6b6457e0604051953393169180a360085515620001ff575060098054610100600160a81b03191660089290921b610100600160a81b031691909117905560405161248290816200043e8239f35b63d92e233d60e01b8152600490fd5b60249060405190631e4fbdf760e01b82526004820152fd5b0151905038806200015d565b879593929193168587528387209387905b8282106200027d575050841162000263575b505050811b01825562000171565b015160001960f88460031b161c1916905538808062000255565b848401518655899790950194938401939081019062000243565b9091929394508787528287208580880160051c820192858910620002e6575b9188978b9297969594930160051c01915b828110620002d757505062000146565b8981558897508a9101620002c7565b92508192620002b6565b634e487b7160e01b87526022600452602487fd5b90607f16906200012e565b634e487b7160e01b86526041600452602486fd5b01519050388062000100565b90848b9416918a8052868b20928b5b888282106200037957505084116200035f575b505050811b01865562000114565b015160001960f88460031b161c1916905538808062000351565b8385015186558e979095019493840193016200033e565b9091508880528489208780850160051c820192878610620003d9575b918c91869594930160051c01915b828110620003ca575050620000ea565b8b81558594508c9101620003ba565b92508192620003ac565b634e487b7160e01b89526022600452602489fd5b90607f1690620000d5565b634e487b7160e01b600052604160045260246000fd5b600080fd5b60408051919082016001600160401b03811183821017620004025760405256fe6080604081815260048036101561001557600080fd5b600092833560e01c90816301ffc9a71461173b5750806306fdde031461168a578063081812fc1461164f578063095ea7b314611573578063162094c41461138b57806318160ddd1461136c57806323b872dd1461135457806331f9abb91461128e5780633f4ba83a1461122557806342842e0e146111f657806355f804b3146110065780635ba1c1a914610fe85780635c975abb14610fc45780636352211e14610f9357806370a0823114610f3e578063715018a614610ed757806379ba509714610e4f5780638456cb5914610df4578063849b1b7e14610cb05780638da5cb5b14610c875780638f31ae0614610c2a57806395d89b4114610b3f578063a175734614610b0a578063a22cb46514610a69578063aab5a87714610a4c578063abc8c7af14610a1f578063b03fbfbb14610738578063b2dd12121461061c578063b88d4fde14610588578063c58636c01461051f578063c87b56dd146104cc578063e30c3978146104a3578063e985e9c514610451578063f2fde38b146103e3578063f577a50014610392578063f7ea85701461036b578063fc86e3ed1461029f5763fe5eb754146101c557600080fd5b3461029b578160031936011261029b578035916024356001600160401b03811692838203610297576009546001600160a01b039060081c8116330361028857858752600260205283872054161561027b5750916020916102737f054fa8435d3273ca8d4ef85d3750539bc2d0fde8fd9ad8e6b3c82a83fe8c255994868852600d85526001838920019069ffffffffffffffff000082549160101b169069ffffffffffffffff00001916179055565b51908152a280f35b8251626f708760e21b8152fd5b508251632b35006d60e21b8152fd5b8580fd5b8280fd5b50903461029b578260031936011261029b576102b9612005565b8051916102c583611882565b600a546001600160a01b039081168452600b5460208501818152919391901561035d57514210610350575050600980549251610100600160a81b03198416600882811b610100600160a81b031691909117909255600a859055600b859055821692901c167fc7afa5bbbb939feca6615e3a8c298615524ec5b0f27c48a211ee475fd2aca5878380a380f35b5163621e25c360e01b8152fd5b505163147fde5f60e31b8152fd5b833461038f578060031936011261038f57610384612005565b80600a5580600b5580f35b80fd5b503461029b57602036600319011261029b578035808452600260205292829020546001600160a01b0316156103d657506103cd602092611f47565b90519015158152f35b9051626f708760e21b8152fd5b833461038f57602036600319011261038f576103fd6117ef565b610405612005565b600780546001600160a01b0319166001600160a01b039283169081179091556006549091167f38d16b8cac22d99fc7c124b9cd0de2d3fa1faef420bfe791d8c362d765e227008380a380f35b50503461049f578060031936011261049f5760ff816020936104716117ef565b61047961180a565b6001600160a01b0391821683526005875283832091168252855220549151911615158152f35b5080fd5b50503461049f578160031936011261049f5760075490516001600160a01b039091168152602090f35b503461029b57602036600319011261029b578035808452600260205292829020546001600160a01b0316156103d6575061050861051b92611c15565b90519182916020835260208301906117ca565b0390f35b503461029b57602036600319011261029b5780358084526002602052828420549091906001600160a01b03161561027b57506001828460ff9360209652600d865220015460081c16906001821491821561057d575b50519015158152f35b600314915038610574565b50903461029b57608036600319011261029b576105a36117ef565b6105ab61180a565b6044359185606435956001600160401b03871161049f573660238801121561049f57860135956105e66105dd88611993565b965196876118e9565b868652366024888301011161049f5786610619976024602093018389013786010152610613838383611a10565b336122de565b80f35b50913461038f576020928360031936011261049f578035908260c08551610642816118b3565b828152828882015282878201528260608201528260808201528260a082015201528183526002855260018060a01b0384842054161561072b5760e0856003868087878152600d855220815191610697836118b3565b8154948584526001830154918185019060ff8416825260ff818701818660081c1681526001600160401b03948260608a0195878960101c1687528160808c019960501c161515895260c060028b01549a60a08d019b8c5261ffff9d8e910154169b019a8b5285519c8d525116908b01525116908801525116606086015251151560808501525160a0840152511660c0820152f35b8351626f708760e21b8152fd5b50903461029b5761012036600319011261029b576107546117ef565b9261075e3661190a565b906001600160401b036101043581811161029b5761077f9036908701611820565b6009549092906001600160a01b039060081c81163303610a0f576107a1612031565b6107a9612054565b8816156109ff5761020083116109ef57600c546107c590611bf0565b9687600c55878552602098600d8a52888887209780518955600198898101908d83015160ff16918054928d85015160081b61ff00169061ffff19809516171781558760608501511661083890829069ffffffffffffffff000082549160101b169069ffffffffffffffff00001916179055565b6080840151151581549060ff60501b9060501b169060ff60501b191617905560a083015160028201556003019160c0015161ffff169082541617905561087d91612072565b83610891575b505050505060085551908152f35b878552600f89528685209184116109dc575090816108b1889493546119ae565b601f8111610988575b5084601f84116001146109175760008051602061242d83398151915294958461090c575b50600019600385901b1c191683871b1790555b6108ff8651928392836119e8565b0390a23880808080610883565b9050820135386108de565b601f198416958282528a8220915b8b89898310610971575050508460008051602061242d833981519152969710610957575b50508583811b0190556108f1565b830135600019600386901b60f8161c191690553880610949565b8387013585558c9850909301929182019101610925565b9080929394508552888520601f850160051c8101918a86106109d2575b899594939291601f89920160051c01915b8281106109c45750506108ba565b8781558a96508891016109b6565b90915081906109a5565b634e487b7160e01b855260419052602484fd5b85516322e3481360e21b81528790fd5b855163d92e233d60e01b81528790fd5b8651632b35006d60e21b81528890fd5b50503461049f578160031936011261049f57600954905160089190911c6001600160a01b03168152602090f35b50503461049f578160031936011261049f57602090516102008152f35b50903461029b578060031936011261029b57610a836117ef565b9060243591821515809303610b06576001600160a01b0316928315610af15750338452600560205280842083855260205280842060ff1981541660ff8416179055519081527f17307eab39ab6107e8899845ad3d59bd9653f200f220920489ca2b5937696c3160203392a380f35b836024925191630b61174360e31b8352820152fd5b8480fd5b82843461038f578060031936011261038f5750600a54600b5491516001600160a01b0390911681526020810191909152604090f35b82843461038f578060031936011261038f57815191828260019360015494610b66866119ae565b9182855260209687600182169182600014610c03575050600114610ba7575b50505061051b9291610b989103856118e9565b519282849384528301906117ca565b9190869350600183527fb10e2d527612073b26eecdfd717e6a320cf44b4afac2b0732d9fcbe2b7fa0cf65b828410610beb5750505082010181610b9861051b610b85565b8054848a018601528895508794909301928101610bd2565b60ff19168782015293151560051b86019093019350849250610b98915061051b9050610b85565b503461029b57602036600319011261029b5780358084526002602052828420549091906001600160a01b03161561027b57506001828460ff9360209652600d865220015460081c16906002821491821561057d5750519015158152f35b50503461049f578160031936011261049f5760065490516001600160a01b039091168152602090f35b503461029b5761010036600319011261029b57610ccb6117ef565b90610cd53661190a565b6009549091906001600160a01b039060081c81163303610de557610cf7612031565b610cff612054565b831615610dd757506020938392610dcc92610d1b600c54611bf0565b95869384600c55848152600d8952208151815561ffff60c06003600184019360ff8c870151169480549561ff008c89015160081b1690861980981617178155610d926001600160401b03606089015116829069ffffffffffffffff000082549160101b169069ffffffffffffffff00001916179055565b6080870151151581549060ff60501b9060501b169060ff60501b191617905560a08601516002820155019301511690825416179055612072565b600160085551908152f35b835163d92e233d60e01b8152fd5b508351632b35006d60e21b8152fd5b50503461049f578160031936011261049f5760207f62e78cea01bee320cd4e420270b5ea74000d11b0c9f74754ebdbfc544b05a25891610e32612005565b610e3a612054565b600160ff19600954161760095551338152a180f35b50903461029b578260031936011261029b57600754916001600160a01b03913383851603610ec05750506001600160601b0360a01b8092166007556006549133908316176006553391167f8be0079c531659141344cd1fd0a4f28419497f9722a3daafe3b4186f6b6457e08380a380f35b60249250519063118cdaa760e01b82523390820152fd5b833461038f578060031936011261038f57610ef0612005565b600780546001600160a01b031990811690915560068054918216905581906001600160a01b03167f8be0079c531659141344cd1fd0a4f28419497f9722a3daafe3b4186f6b6457e08280a380f35b50913461038f57602036600319011261038f576001600160a01b03610f616117ef565b16928315610f7e5750806020938392526003845220549051908152f35b91516322718ad960e21b815291820152602490fd5b50913461038f57602036600319011261038f5750610fb360209235611fca565b90516001600160a01b039091168152f35b50503461049f578160031936011261049f5760209060ff6009541690519015158152f35b50503461049f578160031936011261049f5760209051620151808152f35b5082903461049f57602092602060031936011261029b576001600160401b03908235828111610b065761103c9036908501611820565b939092611047612005565b61020085116111e75784116109dc5750611062600e546119ae565b601f8111611184575b508394601f84116001146110d957506110c8908385967f6741b2fc379fad678116fe3d4d4b9a1a184ab53ba36b86ad0fa66340b1ab41ad96916110ce575b508460011b906000198660031b1c191617600e555b51928392836119e8565b0390a180f35b9050830135876110a9565b94601f198416600e86527fbb7b4a454dc3493923482f07822329ed19e8244eff582cc204f8554c3620c3fd9686905b82821061116b575050956110c89291857f6741b2fc379fad678116fe3d4d4b9a1a184ab53ba36b86ad0fa66340b1ab41ad979810611151575b5050600184811b01600e556110be565b840135600019600387901b60f8161c191690558680611141565b8386013589556001909801979283019290810190611108565b600e85527fbb7b4a454dc3493923482f07822329ed19e8244eff582cc204f8554c3620c3fd601f850160051c810191602086106111dd575b601f0160051c01905b8181106111d2575061106b565b8581556001016111c5565b90915081906111bc565b5090516322e3481360e21b8152fd5b50503461049f576106199061120a3661184d565b91925192611217846118ce565b858452610613838383611a10565b503461029b578260031936011261029b5761123e612005565b6009549060ff821615611280575060ff1916600955513381527f5db9ee0a495bf2e6ff9c91a7834c1ba4fdd244a5e8aa4e537bd38aeae4b073aa90602090a180f35b8251638dfc202b60e01b8152fd5b50903461029b57602036600319011261029b576112a96117ef565b916112b2612005565b6001600160a01b0392831692831561134557620151804201918242116113325750816020917f25a8bbb0546fb970f237a9d8faaebb8610077d196eef4ba1d6145ad23a6910419383865161130581611882565b8881520152856001600160601b0360a01b600a541617600a5581600b5560095460081c169351908152a380f35b634e487b7160e01b865260119052602485fd5b50905163d92e233d60e01b8152fd5b833461038f576106196113663661184d565b91611a10565b50503461049f578160031936011261049f57602090600c549051908152f35b5082903461049f578260031936011261049f578035906001600160401b0390602435828111610b06576113c19036908301611820565b600954909391926001600160a01b039160081c82163303611565578587526020916002835288882054161561155857610200851161154a57858752600f8252878720928511611537575061141582546119ae565b601f81116114f4575b508590601f851160011461147a5750956114699184879860008051602061242d83398151915297989161146f575b508560011b906000198760031b1c191617905551928392836119e8565b0390a280f35b90508401358961144c565b90601f1985168388528288209288905b8282106114dc5750509161146993918660008051602061242d83398151915298999a94106114c2575b5050600185811b0190556110be565b850135600019600388901b60f8161c1916905588806114b3565b80600185968294968a0135815501950193019061148a565b828752818720601f860160051c81019183871061152d575b601f0160051c01905b818110611522575061141e565b878155600101611515565b909150819061150c565b634e487b7160e01b875260419052602486fd5b87516322e3481360e21b8152fd5b8751626f708760e21b8152fd5b8751632b35006d60e21b8152fd5b50903461029b578060031936011261029b5761158d6117ef565b9160243561159a81611fca565b3315158061163c575b80611613575b6115fd576001600160a01b039485169482918691167f8c5be1e5ebec7d5bd14f71427d1e84f3dd0314c0f7b2291e5b200ac8c7c3b9258880a48452602052822080546001600160a01b031916909117905580f35b835163a9fbf51f60e01b81523381850152602490fd5b506001600160a01b03811686526005602090815284872033885290528386205460ff16156115a9565b506001600160a01b0381163314156115a3565b503461029b57602036600319011261029b5791826020933561167081611fca565b50825283528190205490516001600160a01b039091168152f35b82843461038f578060031936011261038f57815191828283546116ac816119ae565b9081845260209560019187600182169182600014610c035750506001146116e05750505061051b9291610b989103856118e9565b91908693508280527f290decd9548b62a8d60345a988386fc84ba6bc95484008f6362f93160ef3e5635b8284106117235750505082010181610b9861051b610b85565b8054848a01860152889550879490930192810161170a565b9250503461029b57602036600319011261029b573563ffffffff60e01b811680910361029b57602092506380ac58cd60e01b8114908115611796575b8115611785575b5015158152f35b6301ffc9a760e01b1490503861177e565b635b5e139f60e01b81149150611777565b60005b8381106117ba5750506000910152565b81810151838201526020016117aa565b906020916117e3815180928185528580860191016117a7565b601f01601f1916010190565b600435906001600160a01b038216820361180557565b600080fd5b602435906001600160a01b038216820361180557565b9181601f84011215611805578235916001600160401b038311611805576020838186019501011161180557565b6060906003190112611805576001600160a01b0390600435828116810361180557916024359081168103611805579060443590565b604081019081106001600160401b0382111761189d57604052565b634e487b7160e01b600052604160045260246000fd5b60e081019081106001600160401b0382111761189d57604052565b602081019081106001600160401b0382111761189d57604052565b90601f801991011681019081106001600160401b0382111761189d57604052565b60e09060231901126118055760405190611923826118b3565b81602435815260443560ff8116810361180557602082015260643560ff811681036118055760408201526084356001600160401b038116810361180557606082015260a435801515810361180557608082015260c43560a082015260e4359061ffff821682036118055760c00152565b6001600160401b03811161189d57601f01601f191660200190565b90600182811c921680156119de575b60208310146119c857565b634e487b7160e01b600052602260045260246000fd5b91607f16916119bd565b90918060409360208452816020850152848401376000828201840152601f01601f1916010190565b916001600160a01b03918216918215611bd757600093828552602093600285526040958387822054169533151580611b49575b508787151580611b16575b84845260038352818420805460010190558784526002835281842080546001600160a01b0319168617905581519488908a7fddf252ad1be2c89b69c2b068fc378daa952ba7f163c4a11628f55a4df523b3ef8780a480611b0e575b611ae2575b505050501692838303611ac15750505050565b6064945051926364283d7b60e01b8452600484015260248301526044820152fd5b60ff92600d6001935220015460501c1615611aff57808087611aae565b63dc8d8db760e01b8152600490fd5b506001611aa9565b600088815260046020526040902080546001600160a01b0319169055888452600383528184208054600019019055611a4e565b80611b96575b15611b5a5738611a43565b878688611b77576024915190637e27328960e01b82526004820152fd5b905163177e802f60e01b81523360048201526024810191909152604490fd5b503387148015611bbb575b80611b4f5750858252600481523385898420541614611b4f565b5086825260058152878220338352815260ff8883205416611ba1565b604051633250574960e11b815260006004820152602490fd5b6000198114611bff5760010190565b634e487b7160e01b600052601160045260246000fd5b600090808252602090600f8252604092838120918451829381815495611c3a876119ae565b92838352600197898982169182600014611f27575050600114611ee9575b50611c65925003826118e9565b8051611ee057508451600e5490938385611c7e846119ae565b9182825288820194898582169182600014611ec5575050600114611e6a575b611ca9925003866118e9565b845115611e535782839185947a184f03e93ff9f4daa797ed6e38ed64bf6a1f0100000000000000009081811015611e46575b5050876d04ee2d6d415b85acef810000000080851015611e38575b5050662386f26fc1000080841015611e29575b506305f5e10080841015611e1a575b5061271080841015611e0b575b506064831015611dfb575b600a80931015611df2575b9081602186611d64838d9901611d5c611d5382611993565b9a519a8b6118e9565b808a52611993565b888c019990601f1901368b3750870101905b611dbc575b5050505090611dad611db995949392611d9e9751978895518092888801906117a7565b840191518093868401906117a7565b010380845201826118e9565b90565b600019019083906f181899199a1a9b1b9c1cb0b131b232b360811b8282061a835304918215611ded57919082611d76565b611d7b565b80940193611d3b565b9391606460029104920193611d30565b60049195930492019338611d25565b60089195930492019338611d18565b60109195930492019338611d09565b950194909204918738611cf6565b8a96500492503880611cdb565b505050929150505190611e65826118ce565b815290565b5050600e8552858786847fbb7b4a454dc3493923482f07822329ed19e8244eff582cc204f8554c3620c3fd5b858310611eac575050611ca99350820101611c9d565b80919294505483858c0101520191018890848993611e96565b60ff19168752611ca994151560051b8401019150611c9d9050565b94505050505090565b915050845281868086208787915b858310611f0e575050611c65935082010138611c58565b8091929450548385880101520191018790878593611ef7565b60ff191685820152611c6595151560051b8501019250389150611c589050565b600052600d602052604060002060405190611f61826118b3565b8054825260018101549160c061ffff600360ff86169485602086015260ff8760081c16604086015260ff6001600160401b038860101c169788606088015260501c1615156080860152600281015460a086015201541691015215611fc457421090565b50600190565b6000818152600260205260409020546001600160a01b0316908115611fed575090565b60249060405190637e27328960e01b82526004820152fd5b6006546001600160a01b0316330361201957565b60405163118cdaa760e01b8152336004820152602490fd5b600260085414612042576002600855565b604051633ee5aeb560e01b8152600490fd5b60ff6009541661206057565b60405163d93c066560e01b8152600490fd5b6040805161207f816118ce565b6000808252936001600160a01b038481169490929085156122c6578287526020936002855285882054168015159081612293575b878952600386528689206001815401905584895260028652868920886001600160601b0360a01b82541617905584888851927fddf252ad1be2c89b69c2b068fc378daa952ba7f163c4a11628f55a4df523b3ef8c80a4818061228b575b612267575b5061224f573b612128575b505050505050565b82612166918596979894955180938192630a85bd0160e11b968784523360048501528c602485015260448401526080606484015260848301906117ca565b03818a8a5af187918161220b575b506121d4575050503d6000146121cb573d61218e81611993565b9061219b845192836118e9565b81528094823d92013e5b835193846121c5578251633250574960e11b815260048101859052602490fd5b84925001fd5b606093506121a5565b919550915063ffffffff60e01b16036121f4575050388080808080612120565b602492505190633250574960e11b82526004820152fd5b9091508481813d8311612248575b61222381836118e9565b8101031261224457516001600160e01b031981168103612244579038612174565b8780fd5b503d612219565b84516339e3563760e11b815260048101889052602490fd5b600d865260ff6001888b20015460501c166121155763dc8d8db760e01b8152600490fd5b506001612110565b600085815260046020526040902080546001600160a01b03191690558089526003865286892080546000190190556120b3565b8451633250574960e11b815260048101889052602490fd5b90939192833b6122f0575b5050505050565b604051630a85bd0160e11b8082526001600160a01b03938416600483015295831660248201526044810191909152608060648201529492169260209291859061233d9060848301906117ca565b039483816000978189895af18691816123e8575b506123b2575050503d6000146123a9573d61236b81611993565b9061237960405192836118e9565b81528093823d92013e5b825192836123a457604051633250574960e11b815260048101849052602490fd5b019050fd5b60609250612383565b919450915063ffffffff60e01b16036123d0575038808080806122e9565b60249060405190633250574960e11b82526004820152fd5b9091508481813d8311612425575b61240081836118e9565b8101031261242157516001600160e01b031981168103612421579038612351565b8680fd5b503d6123f656fe931f495b9a8e5d8e61946ea5d61e021f636cfe213a801f97589c18c152e408bda2646970667358221220085ce13a5785591d64e3a21b81256b23163123a7b219651605b99d62ef72820f64736f6c63430008180033c3a99852514e5923cdffb2779c4b432ed502acf7b7ca78b2087a8c49d82bf6a7","opcodes":"PUSH1 0xA0 CALLVALUE PUSH3 0x264 JUMPI PUSH1 0x1F PUSH3 0x7113 CODESIZE DUP2 SWAP1 SUB SWAP2 DUP3 ADD PUSH1 0x1F NOT AND DUP4 ADD SWAP3 SWAP2 PUSH1 0x1 PUSH1 0x1 PUSH1 0x40 SHL SUB SWAP2 DUP3 DUP6 GT DUP5 DUP7 LT OR PUSH3 0x269 JUMPI DUP2 PUSH1 0x80 SWAP3 DUP6 SWAP3 PUSH1 0x40 SWAP8 DUP9 MSTORE DUP4 CODECOPY DUP2 ADD SUB SLT PUSH3 0x264 JUMPI DUP2 MLOAD PUSH3 0x57 PUSH1 0x20 DUP5 ADD PUSH3 0x27F JUMP JUMPDEST SWAP3 PUSH3 0x6A PUSH1 0x60 DUP7 DUP4 ADD MLOAD SWAP3 ADD PUSH3 0x27F JUMP JUMPDEST SWAP3 CALLER ISZERO PUSH3 0x24C JUMPI PUSH1 0x1 DUP1 PUSH1 0xA0 SHL SUB NOT SWAP2 DUP3 PUSH1 0x1 SLOAD AND PUSH1 0x1 SSTORE PUSH1 0x0 SWAP4 DUP5 SLOAD SWAP4 PUSH1 0x1 DUP1 PUSH1 0xA0 SHL SUB SWAP8 CALLER DUP3 DUP8 AND OR DUP8 SSTORE DUP10 MLOAD SWAP6 DUP10 CALLER SWAP2 AND PUSH32 0x8BE0079C531659141344CD1FD0A4F28419497F9722A3DAAFE3B4186F6B6457E0 DUP10 DUP1 LOG3 PUSH1 0x1 PUSH1 0x2 SSTORE PUSH1 0x4 SWAP6 PUSH1 0x1 DUP8 SSTORE PUSH2 0x2710 DUP5 GT PUSH3 0x23E JUMPI POP PUSH2 0x7D0 DUP4 GT PUSH3 0x22E JUMPI DUP9 AND SWAP2 DUP3 ISZERO PUSH3 0x21E JUMPI PUSH1 0x6 SSTORE PUSH1 0x7 SLOAD AND OR PUSH1 0x7 SSTORE PUSH1 0x9 SSTORE DUP6 MLOAD PUSH2 0x28C0 DUP1 DUP3 ADD SWAP1 DUP3 DUP3 LT DUP5 DUP4 GT OR PUSH3 0x20B JUMPI PUSH1 0x20 SWAP2 DUP4 SWAP2 PUSH3 0x4833 DUP4 CODECOPY ADDRESS DUP2 MSTORE SUB ADD SWAP1 DUP5 CREATE DUP1 ISZERO PUSH3 0x1FD JUMPI DUP1 DUP7 SWAP2 PUSH1 0x80 MSTORE AND SWAP4 DUP5 EXTCODESIZE ISZERO PUSH3 0x207 JUMPI DUP6 PUSH1 0x24 DUP6 SWAP3 DUP4 DUP11 MLOAD SWAP9 DUP10 SWAP5 DUP6 SWAP4 PUSH4 0xF2FDE38B PUSH1 0xE0 SHL DUP6 MSTORE AND DUP9 DUP5 ADD MSTORE GAS CALL DUP1 ISZERO PUSH3 0x1FD JUMPI PUSH3 0x1C5 JUMPI JUMPDEST DUP6 PUSH1 0x0 DUP1 MLOAD PUSH1 0x20 PUSH3 0x70F3 DUP4 CODECOPY DUP2 MLOAD SWAP2 MSTORE PUSH1 0x20 DUP8 PUSH1 0x80 MLOAD AND DUP4 MLOAD SWAP1 DUP2 MSTORE LOG1 MLOAD PUSH2 0x459E SWAP1 DUP2 PUSH3 0x295 DUP3 CODECOPY PUSH1 0x80 MLOAD DUP2 DUP2 DUP2 PUSH2 0x8DC ADD MSTORE DUP2 DUP2 PUSH2 0x9FD ADD MSTORE DUP2 DUP2 PUSH2 0xE25 ADD MSTORE DUP2 DUP2 PUSH2 0x1122 ADD MSTORE DUP2 DUP2 PUSH2 0x192E ADD MSTORE DUP2 DUP2 PUSH2 0x1BD9 ADD MSTORE PUSH2 0x2574 ADD MSTORE RETURN JUMPDEST DUP4 GT PUSH3 0x1EA JUMPI POP POP DUP3 MSTORE PUSH1 0x20 PUSH1 0x0 DUP1 MLOAD PUSH1 0x20 PUSH3 0x70F3 DUP4 CODECOPY DUP2 MLOAD SWAP2 MSTORE CODESIZE DUP1 PUSH3 0x166 JUMP JUMPDEST PUSH4 0x4E487B71 PUSH1 0xE0 SHL DUP3 MSTORE PUSH1 0x41 SWAP1 MSTORE PUSH1 0x24 SWAP1 REVERT JUMPDEST DUP7 MLOAD RETURNDATASIZE DUP6 DUP3 RETURNDATACOPY RETURNDATASIZE SWAP1 REVERT JUMPDEST DUP4 DUP1 REVERT JUMPDEST PUSH4 0x4E487B71 PUSH1 0xE0 SHL DUP7 MSTORE PUSH1 0x41 DUP6 MSTORE PUSH1 0x24 DUP7 REVERT JUMPDEST DUP10 MLOAD PUSH4 0xD92E233D PUSH1 0xE0 SHL DUP2 MSTORE DUP7 SWAP1 REVERT JUMPDEST DUP10 MLOAD PUSH4 0xC1BD8845 PUSH1 0xE0 SHL DUP2 MSTORE DUP7 SWAP1 REVERT JUMPDEST PUSH4 0xC6CC5D7F PUSH1 0xE0 SHL DUP2 MSTORE DUP7 SWAP1 REVERT JUMPDEST DUP6 MLOAD PUSH4 0x1E4FBDF7 PUSH1 0xE0 SHL DUP2 MSTORE PUSH1 0x0 PUSH1 0x4 DUP3 ADD MSTORE PUSH1 0x24 SWAP1 REVERT JUMPDEST PUSH1 0x0 DUP1 REVERT JUMPDEST PUSH4 0x4E487B71 PUSH1 0xE0 SHL PUSH1 0x0 MSTORE PUSH1 0x41 PUSH1 0x4 MSTORE PUSH1 0x24 PUSH1 0x0 REVERT JUMPDEST MLOAD SWAP1 PUSH1 0x1 PUSH1 0x1 PUSH1 0xA0 SHL SUB DUP3 AND DUP3 SUB PUSH3 0x264 JUMPI JUMP INVALID PUSH1 0x80 PUSH1 0x40 MSTORE PUSH1 0x4 CALLDATASIZE LT ISZERO PUSH2 0x1B JUMPI JUMPDEST CALLDATASIZE ISZERO PUSH2 0x19 JUMPI PUSH1 0x0 DUP1 REVERT JUMPDEST STOP JUMPDEST PUSH1 0x0 DUP1 CALLDATALOAD PUSH1 0xE0 SHR DUP1 PUSH4 0x135ADCD EQ PUSH2 0x38B0 JUMPI DUP1 PUSH4 0x8C05903 EQ PUSH2 0x385B JUMPI DUP1 PUSH4 0xD1CFCAE EQ PUSH2 0x3832 JUMPI DUP1 PUSH4 0x1C65C86D EQ PUSH2 0x3770 JUMPI DUP1 PUSH4 0x1E141E8B EQ PUSH2 0x367C JUMPI DUP1 PUSH4 0x227DC4C4 EQ PUSH2 0x365E JUMPI DUP1 PUSH4 0x23DA4F01 EQ PUSH2 0x3617 JUMPI DUP1 PUSH4 0x23EA1F5F EQ PUSH2 0x1303 JUMPI DUP1 PUSH4 0x24A9D853 EQ PUSH2 0x35F9 JUMPI DUP1 PUSH4 0x28342ECF EQ PUSH2 0x358F JUMPI DUP1 PUSH4 0x2D88C211 EQ PUSH2 0x3000 JUMPI DUP1 PUSH4 0x3013CE29 EQ PUSH2 0x2FD7 JUMPI DUP1 PUSH4 0x345C0F77 EQ PUSH2 0x26DA JUMPI DUP1 PUSH4 0x37C73865 EQ PUSH2 0x253E JUMPI DUP1 PUSH4 0x3D162CDC EQ PUSH2 0x249B JUMPI DUP1 PUSH4 0x3F4BA83A EQ PUSH2 0x2430 JUMPI DUP1 PUSH4 0x46453F28 EQ PUSH2 0x23C3 JUMPI DUP1 PUSH4 0x46904840 EQ PUSH2 0x239A JUMPI DUP1 PUSH4 0x47E80361 EQ PUSH2 0x2330 JUMPI DUP1 PUSH4 0x47EAA7A2 EQ PUSH2 0x1D4D JUMPI DUP1 PUSH4 0x4B746CD1 EQ PUSH2 0x1A5A JUMPI DUP1 PUSH4 0x5608D9E5 EQ PUSH2 0x1A31 JUMPI DUP1 PUSH4 0x5BA1C1A9 EQ PUSH2 0x1A13 JUMPI DUP1 PUSH4 0x5C975ABB EQ PUSH2 0x19F0 JUMPI DUP1 PUSH4 0x61B8CE8C EQ PUSH2 0x19D2 JUMPI DUP1 PUSH4 0x636D5870 EQ PUSH2 0x18F5 JUMPI DUP1 PUSH4 0x64AFF9EC EQ PUSH2 0x18AB JUMPI DUP1 PUSH4 0x6A030CA9 EQ PUSH2 0x1798 JUMPI DUP1 PUSH4 0x6A326AB1 EQ PUSH2 0x172E JUMPI DUP1 PUSH4 0x6D361694 EQ PUSH2 0x14DF JUMPI DUP1 PUSH4 0x6EA056A9 EQ PUSH2 0x1471 JUMPI DUP1 PUSH4 0x715018A6 EQ PUSH2 0x140C JUMPI DUP1 PUSH4 0x75BB91B2 EQ PUSH2 0x13F0 JUMPI DUP1 PUSH4 0x7918413B EQ PUSH2 0x1386 JUMPI DUP1 PUSH4 0x79BA5097 EQ PUSH2 0x1308 JUMPI DUP1 PUSH4 0x7D53DEFF EQ PUSH2 0x1303 JUMPI DUP1 PUSH4 0x81CD7439 EQ PUSH2 0x12E6 JUMPI DUP1 PUSH4 0x8456CB59 EQ PUSH2 0x128B JUMPI DUP1 PUSH4 0x88DAF7F4 EQ PUSH2 0xFDE JUMPI DUP1 PUSH4 0x8DA5CB5B EQ PUSH2 0xFB7 JUMPI DUP1 PUSH4 0x9CCEBCEC EQ PUSH2 0xF33 JUMPI DUP1 PUSH4 0xA249668A EQ PUSH2 0xF14 JUMPI DUP1 PUSH4 0xACB27C68 EQ PUSH2 0xEF8 JUMPI DUP1 PUSH4 0xC384373A EQ PUSH2 0xEDA JUMPI DUP1 PUSH4 0xC3C2265F EQ PUSH2 0xDEC JUMPI DUP1 PUSH4 0xC7D24974 EQ PUSH2 0xDA4 JUMPI DUP1 PUSH4 0xC8AA67B3 EQ PUSH2 0xD86 JUMPI DUP1 PUSH4 0xD0788188 EQ PUSH2 0xD3F JUMPI DUP1 PUSH4 0xD2D5EC4D EQ PUSH2 0xCF1 JUMPI DUP1 PUSH4 0xD402E464 EQ PUSH2 0x9A3 JUMPI DUP1 PUSH4 0xD5B141E7 EQ PUSH2 0x974 JUMPI DUP1 PUSH4 0xD9A5AA96 EQ PUSH2 0x927 JUMPI DUP1 PUSH4 0xDA68D47D EQ PUSH2 0x8C6 JUMPI DUP1 PUSH4 0xDF99E534 EQ PUSH2 0x90B JUMPI DUP1 PUSH4 0xE0A3DD96 EQ PUSH2 0x8C6 JUMPI DUP1 PUSH4 0xE30C3978 EQ PUSH2 0x89D JUMPI DUP1 PUSH4 0xF09449BA EQ PUSH2 0x744 JUMPI DUP1 PUSH4 0xF2FDE38B EQ PUSH2 0x6D7 JUMPI DUP1 PUSH4 0xF483708D EQ PUSH2 0x60F JUMPI DUP1 PUSH4 0xF5B96972 EQ PUSH2 0x5EF JUMPI DUP1 PUSH4 0xF60EB4BF EQ PUSH2 0x46F JUMPI DUP1 PUSH4 0xF77BC776 EQ PUSH2 0x43E JUMPI DUP1 PUSH4 0xF932ECAC EQ PUSH2 0x306 JUMPI PUSH4 0xFD967F47 EQ PUSH2 0x2E7 JUMPI POP PUSH2 0xE JUMP JUMPDEST CALLVALUE PUSH2 0x303 JUMPI DUP1 PUSH1 0x3 NOT CALLDATASIZE ADD SLT PUSH2 0x303 JUMPI PUSH1 0x20 PUSH1 0x40 MLOAD PUSH2 0x2710 DUP2 MSTORE RETURN JUMPDEST DUP1 REVERT JUMPDEST POP CALLVALUE PUSH2 0x303 JUMPI PUSH1 0x40 CALLDATASIZE PUSH1 0x3 NOT ADD SLT PUSH2 0x303 JUMPI PUSH1 0x4 CALLDATALOAD PUSH2 0x323 PUSH2 0x3A7B JUMP JUMPDEST PUSH2 0x32B PUSH2 0x3FDD JUMP JUMPDEST DUP2 DUP4 MSTORE PUSH1 0xA PUSH1 0x20 MSTORE PUSH1 0x40 DUP4 KECCAK256 DUP1 SLOAD PUSH1 0x1 PUSH1 0x1 PUSH1 0xA0 SHL SUB SWAP1 DUP2 AND CALLER SUB PUSH2 0x42C JUMPI DUP1 DUP4 AND SWAP2 DUP3 ISZERO PUSH2 0x41A JUMPI PUSH2 0x35D DUP5 PUSH2 0x4189 JUMP JUMPDEST PUSH3 0x15180 TIMESTAMP ADD SWAP3 DUP4 TIMESTAMP GT PUSH2 0x406 JUMPI SWAP2 PUSH1 0xC PUSH2 0x400 SWAP3 PUSH32 0xE0AB772B3B6CDDB6293C9C400E007D0BD007F54E8A59244023FB3360B89172FF SWAP7 SWAP6 SWAP5 PUSH1 0x40 MLOAD SWAP1 PUSH2 0x3A3 DUP3 PUSH2 0x3B5B JUMP JUMPDEST DUP2 MSTORE PUSH1 0x1 PUSH1 0x20 DUP3 ADD DUP8 DUP2 MSTORE DUP11 DUP13 MSTORE PUSH1 0xD PUSH1 0x20 MSTORE DUP6 PUSH1 0x40 DUP14 KECCAK256 SWAP4 MLOAD AND PUSH1 0x1 PUSH1 0x1 PUSH1 0x60 SHL SUB PUSH1 0xA0 SHL DUP5 SLOAD AND OR DUP4 SSTORE MLOAD SWAP2 ADD SSTORE ADD SLOAD AND SWAP2 PUSH1 0x40 MLOAD SWAP4 DUP5 SWAP4 DUP5 PUSH1 0x40 SWAP2 SWAP5 SWAP4 SWAP3 SWAP5 PUSH1 0x60 DUP3 ADD SWAP6 PUSH1 0x1 DUP1 PUSH1 0xA0 SHL SUB DUP1 SWAP3 AND DUP4 MSTORE AND PUSH1 0x20 DUP3 ADD MSTORE ADD MSTORE JUMP JUMPDEST SUB SWAP1 LOG2 DUP1 RETURN JUMPDEST PUSH4 0x4E487B71 PUSH1 0xE0 SHL DUP8 MSTORE PUSH1 0x11 PUSH1 0x4 MSTORE PUSH1 0x24 DUP8 REVERT JUMPDEST PUSH1 0x40 MLOAD PUSH4 0xD92E233D PUSH1 0xE0 SHL DUP2 MSTORE PUSH1 0x4 SWAP1 REVERT JUMPDEST PUSH1 0x40 MLOAD PUSH4 0x30CD7471 PUSH1 0xE0 SHL DUP2 MSTORE PUSH1 0x4 SWAP1 REVERT JUMPDEST POP CALLVALUE PUSH2 0x303 JUMPI PUSH1 0x20 CALLDATASIZE PUSH1 0x3 NOT ADD SLT PUSH2 0x303 JUMPI PUSH1 0x20 PUSH2 0x45D PUSH1 0x4 CALLDATALOAD PUSH2 0x3F6C JUMP JUMPDEST PUSH1 0x40 MLOAD PUSH1 0x1 PUSH1 0x1 PUSH1 0xA0 SHL SUB SWAP1 SWAP2 AND DUP2 MSTORE RETURN JUMPDEST POP CALLVALUE PUSH2 0x303 JUMPI PUSH1 0x60 CALLDATASIZE PUSH1 0x3 NOT ADD SLT PUSH2 0x303 JUMPI PUSH1 0x4 CALLDATALOAD PUSH1 0x24 CALLDATALOAD PUSH1 0x1 PUSH1 0x1 PUSH1 0x40 SHL SUB DUP2 GT PUSH2 0x5EB JUMPI PUSH2 0x4A3 SWAP1 CALLDATASIZE SWAP1 PUSH1 0x4 ADD PUSH2 0x3A91 JUMP JUMPDEST SWAP2 PUSH1 0x44 CALLDATALOAD PUSH1 0x1 PUSH1 0x1 PUSH1 0xA0 SHL SUB DUP2 DUP2 AND SWAP4 SWAP2 DUP5 SWAP1 SUB PUSH2 0x5C1 JUMPI PUSH2 0x4C3 PUSH2 0x3FDD JUMP JUMPDEST DUP3 DUP7 MSTORE PUSH1 0xA PUSH1 0x20 MSTORE DUP1 PUSH1 0x40 DUP8 KECCAK256 SLOAD AND CALLER SUB PUSH2 0x42C JUMPI PUSH1 0xF SLOAD AND DUP1 ISZERO PUSH2 0x5D9 JUMPI PUSH1 0x40 MLOAD SWAP3 PUSH4 0x173E79BB PUSH1 0xE0 SHL DUP5 MSTORE PUSH1 0x4 DUP5 ADD MSTORE PUSH1 0x20 DUP4 PUSH1 0x24 DUP2 DUP5 GAS STATICCALL SWAP3 DUP4 ISZERO PUSH2 0x5CE JUMPI DUP7 SWAP4 PUSH2 0x595 JUMPI JUMPDEST POP DUP3 ISZERO PUSH2 0x583 JUMPI DUP6 SWAP5 DUP2 EXTCODESIZE ISZERO PUSH2 0x57F JUMPI DUP6 DUP1 SWAP5 PUSH2 0x54D SWAP7 PUSH1 0x40 MLOAD SWAP8 DUP9 SWAP7 DUP8 SWAP6 DUP7 SWAP5 PUSH4 0x3BDA90A3 PUSH1 0xE0 SHL DUP7 MSTORE PUSH1 0x4 DUP7 ADD MSTORE PUSH1 0x60 PUSH1 0x24 DUP7 ADD MSTORE PUSH1 0x64 DUP6 ADD SWAP2 PUSH2 0x3DD1 JUMP JUMPDEST SWAP1 PUSH1 0x44 DUP4 ADD MSTORE SUB SWAP3 GAS CALL DUP1 ISZERO PUSH2 0x574 JUMPI PUSH2 0x564 JUMPI POP RETURN JUMPDEST PUSH2 0x56D SWAP1 PUSH2 0x3B8C JUMP JUMPDEST PUSH2 0x303 JUMPI DUP1 RETURN JUMPDEST PUSH1 0x40 MLOAD RETURNDATASIZE DUP5 DUP3 RETURNDATACOPY RETURNDATASIZE SWAP1 REVERT JUMPDEST DUP6 DUP1 REVERT JUMPDEST PUSH1 0x40 MLOAD PUSH4 0xA9146EEB PUSH1 0xE0 SHL DUP2 MSTORE PUSH1 0x4 SWAP1 REVERT JUMPDEST SWAP1 SWAP3 POP PUSH1 0x20 DUP2 RETURNDATASIZE PUSH1 0x20 GT PUSH2 0x5C6 JUMPI JUMPDEST DUP2 PUSH2 0x5B1 PUSH1 0x20 SWAP4 DUP4 PUSH2 0x3BD6 JUMP JUMPDEST DUP2 ADD SUB SLT PUSH2 0x5C1 JUMPI MLOAD SWAP2 CODESIZE PUSH2 0x50C JUMP JUMPDEST PUSH1 0x0 DUP1 REVERT JUMPDEST RETURNDATASIZE SWAP2 POP PUSH2 0x5A4 JUMP JUMPDEST PUSH1 0x40 MLOAD RETURNDATASIZE DUP9 DUP3 RETURNDATACOPY RETURNDATASIZE SWAP1 REVERT JUMPDEST PUSH1 0x40 MLOAD PUSH4 0x3C436073 PUSH1 0xE1 SHL DUP2 MSTORE PUSH1 0x4 SWAP1 REVERT JUMPDEST DUP3 DUP1 REVERT JUMPDEST POP CALLVALUE PUSH2 0x303 JUMPI DUP1 PUSH1 0x3 NOT CALLDATASIZE ADD SLT PUSH2 0x303 JUMPI PUSH1 0x20 PUSH1 0x40 MLOAD PUSH5 0xE8D4A51000 DUP2 MSTORE RETURN JUMPDEST POP CALLVALUE PUSH2 0x303 JUMPI PUSH1 0x40 CALLDATASIZE PUSH1 0x3 NOT ADD SLT PUSH2 0x303 JUMPI PUSH1 0x4 CALLDATALOAD PUSH1 0x1 PUSH1 0x1 PUSH1 0x40 SHL SUB DUP2 GT PUSH2 0x6D3 JUMPI PUSH2 0x643 PUSH2 0x658 SWAP2 CALLDATASIZE SWAP1 PUSH1 0x4 ADD PUSH2 0x3A91 JUMP JUMPDEST SWAP2 SWAP1 PUSH1 0x24 CALLDATALOAD SWAP3 PUSH2 0x651 PUSH2 0x3FDD JUMP JUMPDEST CALLDATASIZE SWAP2 PUSH2 0x3D3F JUMP JUMPDEST PUSH1 0x20 DUP2 MLOAD SWAP2 ADD KECCAK256 CALLER DUP4 MSTORE PUSH1 0xB PUSH1 0x20 MSTORE PUSH1 0x40 DUP4 KECCAK256 DUP2 DUP5 MSTORE PUSH1 0x20 MSTORE PUSH1 0x40 DUP4 KECCAK256 DUP1 SLOAD ISZERO PUSH2 0x583 JUMPI PUSH1 0x2 ADD DUP1 SLOAD PUSH2 0x6C1 JUMPI PUSH1 0xF SLOAD PUSH1 0x1 PUSH1 0x1 PUSH1 0xA0 SHL SUB AND ISZERO PUSH2 0x5D9 JUMPI DUP3 SWAP1 SSTORE CALLER PUSH32 0x6E992EB7068E17C8E71BA9DBE83C4B6E1F8DD75B188E22290B0D4721FB76BBCA DUP5 DUP1 LOG4 DUP1 RETURN JUMPDEST PUSH1 0x40 MLOAD PUSH4 0x71A31C27 PUSH1 0xE0 SHL DUP2 MSTORE PUSH1 0x4 SWAP1 REVERT JUMPDEST POP DUP1 REVERT JUMPDEST POP CALLVALUE PUSH2 0x303 JUMPI PUSH1 0x20 CALLDATASIZE PUSH1 0x3 NOT ADD SLT PUSH2 0x303 JUMPI PUSH2 0x6F1 PUSH2 0x3A4E JUMP JUMPDEST PUSH2 0x6F9 PUSH2 0x40CE JUMP JUMPDEST PUSH1 0x1 DUP1 SLOAD PUSH1 0x1 PUSH1 0x1 PUSH1 0xA0 SHL SUB NOT AND PUSH1 0x1 PUSH1 0x1 PUSH1 0xA0 SHL SUB SWAP3 DUP4 AND SWAP1 DUP2 OR SWAP1 SWAP2 SSTORE DUP3 SLOAD SWAP1 SWAP2 AND PUSH32 0x38D16B8CAC22D99FC7C124B9CD0DE2D3FA1FAEF420BFE791D8C362D765E22700 DUP4 DUP1 LOG3 DUP1 RETURN JUMPDEST POP CALLVALUE PUSH2 0x303 JUMPI PUSH1 0x40 CALLDATASIZE PUSH1 0x3 NOT ADD SLT PUSH2 0x303 JUMPI PUSH1 0x4 CALLDATALOAD PUSH1 0x24 CALLDATALOAD DUP1 ISZERO DUP1 ISZERO DUP1 SWAP3 SUB PUSH2 0x5C1 JUMPI PUSH2 0x76F PUSH2 0x3FDD JUMP JUMPDEST DUP3 DUP5 MSTORE PUSH1 0xA PUSH1 0x20 MSTORE PUSH1 0x40 DUP5 KECCAK256 DUP1 SLOAD PUSH1 0x1 PUSH1 0x1 PUSH1 0xA0 SHL SUB SWAP3 SWAP1 DUP4 AND CALLER DUP2 SUB PUSH2 0x42C JUMPI DUP6 PUSH32 0xA417EE948A5C9D2786613A25B5C7344175C18EA547F629C63F7DE4CEAACB9098 PUSH1 0x20 PUSH1 0x5 DUP7 ADD SWAP8 DUP9 SLOAD SWAP9 PUSH1 0xFF DUP11 AND SWAP10 PUSH1 0xFF DUP4 AND SWAP1 PUSH1 0xFF NOT AND OR SWAP1 SSTORE PUSH1 0x40 MLOAD SWAP1 DUP2 MSTORE LOG3 ISZERO PUSH2 0x84F JUMPI SLOAD AND PUSH1 0x40 MLOAD SWAP3 PUSH1 0x0 DUP1 MLOAD PUSH1 0x20 PUSH2 0x4549 DUP4 CODECOPY DUP2 MLOAD SWAP2 MSTORE DUP6 DUP1 LOG3 DUP1 PUSH2 0x844 JUMPI JUMPDEST PUSH2 0x801 JUMPI JUMPDEST POP JUMPDEST DUP1 RETURN JUMPDEST PUSH1 0x8 SLOAD PUSH1 0x0 NOT DUP2 ADD SWAP1 DUP2 GT PUSH2 0x830 JUMPI PUSH1 0x0 DUP1 MLOAD PUSH1 0x20 PUSH2 0x4529 DUP4 CODECOPY DUP2 MLOAD SWAP2 MSTORE SWAP2 DUP2 PUSH1 0x20 SWAP3 PUSH1 0x8 SSTORE DUP2 MSTORE LOG1 CODESIZE PUSH2 0x7FC JUMP JUMPDEST PUSH4 0x4E487B71 PUSH1 0xE0 SHL DUP4 MSTORE PUSH1 0x11 PUSH1 0x4 MSTORE PUSH1 0x24 DUP4 REVERT JUMPDEST POP PUSH1 0x8 SLOAD ISZERO ISZERO PUSH2 0x7F7 JUMP JUMPDEST POP POP SWAP1 POP ISZERO PUSH2 0x85B JUMPI DUP1 RETURN JUMPDEST PUSH1 0x8 SLOAD PUSH1 0x1 DUP2 ADD DUP1 SWAP2 GT PUSH2 0x889 JUMPI PUSH1 0x20 DUP2 PUSH1 0x0 DUP1 MLOAD PUSH1 0x20 PUSH2 0x4529 DUP4 CODECOPY DUP2 MLOAD SWAP2 MSTORE SWAP3 PUSH1 0x8 SSTORE PUSH1 0x40 MLOAD SWAP1 DUP2 MSTORE LOG1 DUP1 RETURN JUMPDEST PUSH4 0x4E487B71 PUSH1 0xE0 SHL DUP3 MSTORE PUSH1 0x11 PUSH1 0x4 MSTORE PUSH1 0x24 DUP3 REVERT JUMPDEST POP CALLVALUE PUSH2 0x303 JUMPI DUP1 PUSH1 0x3 NOT CALLDATASIZE ADD SLT PUSH2 0x303 JUMPI PUSH1 0x1 SLOAD PUSH1 0x40 MLOAD PUSH1 0x1 PUSH1 0x1 PUSH1 0xA0 SHL SUB SWAP1 SWAP2 AND DUP2 MSTORE PUSH1 0x20 SWAP1 RETURN JUMPDEST POP CALLVALUE PUSH2 0x303 JUMPI DUP1 PUSH1 0x3 NOT CALLDATASIZE ADD SLT PUSH2 0x303 JUMPI PUSH1 0x40 MLOAD PUSH32 0x0 PUSH1 0x1 PUSH1 0x1 PUSH1 0xA0 SHL SUB AND DUP2 MSTORE PUSH1 0x20 SWAP1 RETURN JUMPDEST POP CALLVALUE PUSH2 0x303 JUMPI DUP1 PUSH1 0x3 NOT CALLDATASIZE ADD SLT PUSH2 0x303 JUMPI PUSH1 0x20 PUSH1 0x40 MLOAD PUSH1 0x64 DUP2 MSTORE RETURN JUMPDEST POP CALLVALUE PUSH2 0x303 JUMPI PUSH1 0x2 PUSH1 0x40 PUSH1 0x20 SWAP3 PUSH2 0x94A PUSH2 0x940 CALLDATASIZE PUSH2 0x3ABE JUMP JUMPDEST SWAP3 SWAP2 SWAP3 CALLDATASIZE SWAP2 PUSH2 0x3D3F JUMP JUMPDEST DUP1 MLOAD SWAP1 DUP7 ADD KECCAK256 PUSH1 0x1 PUSH1 0x1 PUSH1 0xA0 SHL SUB SWAP1 SWAP2 AND DUP3 MSTORE PUSH1 0xB DUP6 MSTORE DUP3 DUP3 KECCAK256 SWAP1 DUP3 MSTORE DUP5 MSTORE KECCAK256 ADD SLOAD PUSH1 0x40 MLOAD SWAP1 DUP2 MSTORE RETURN JUMPDEST POP CALLVALUE PUSH2 0x303 JUMPI PUSH1 0x20 CALLDATASIZE PUSH1 0x3 NOT ADD SLT PUSH2 0x303 JUMPI PUSH1 0xFF PUSH1 0x40 PUSH1 0x20 SWAP3 PUSH1 0x4 CALLDATALOAD DUP2 MSTORE PUSH1 0xC DUP5 MSTORE KECCAK256 SLOAD AND PUSH1 0x40 MLOAD SWAP1 ISZERO ISZERO DUP2 MSTORE RETURN JUMPDEST POP CALLVALUE PUSH2 0x303 JUMPI PUSH1 0x40 CALLDATASIZE PUSH1 0x3 NOT ADD SLT PUSH2 0x303 JUMPI PUSH1 0x4 CALLDATALOAD PUSH1 0x24 CALLDATALOAD SWAP1 PUSH2 0xFFFF DUP3 AND DUP1 SWAP3 SUB PUSH2 0x5EB JUMPI PUSH2 0x9D0 PUSH2 0x3FDD JUMP JUMPDEST PUSH2 0x9D8 PUSH2 0x40E2 JUMP JUMPDEST DUP2 ISZERO PUSH2 0xCDF JUMPI PUSH1 0x40 MLOAD PUSH4 0x596E8909 PUSH1 0xE1 SHL DUP2 MSTORE PUSH1 0x4 DUP2 ADD DUP3 SWAP1 MSTORE PUSH1 0x1 PUSH1 0x1 PUSH1 0xA0 SHL SUB SWAP3 PUSH32 0x0 DUP5 AND SWAP2 SWAP1 PUSH1 0xE0 DUP3 PUSH1 0x24 DUP2 DUP7 GAS STATICCALL SWAP2 DUP3 ISZERO PUSH2 0x5CE JUMPI DUP7 SWAP3 PUSH2 0xCAE JUMPI JUMPDEST POP PUSH1 0x40 MLOAD PUSH4 0x31A9108F PUSH1 0xE1 SHL DUP2 MSTORE PUSH1 0x4 DUP2 ADD DUP6 SWAP1 MSTORE PUSH1 0x20 SWAP6 SWAP1 DUP7 DUP2 PUSH1 0x24 DUP2 DUP9 GAS STATICCALL SWAP1 DUP2 ISZERO PUSH2 0xCA3 JUMPI DUP9 SWAP2 PUSH2 0xC76 JUMPI JUMPDEST POP DUP2 CALLER SWAP2 AND SUB PUSH2 0x42C JUMPI PUSH1 0x1 PUSH1 0xFF DUP8 DUP6 ADD MLOAD AND SUB PUSH2 0xC64 JUMPI DUP5 DUP8 MSTORE PUSH1 0xC DUP7 MSTORE PUSH1 0xFF PUSH1 0x40 DUP9 KECCAK256 SLOAD AND PUSH2 0xC52 JUMPI DUP3 MLOAD DUP8 MSTORE PUSH1 0xA DUP7 MSTORE PUSH1 0x40 DUP8 KECCAK256 SWAP2 PUSH1 0x6 SLOAD PUSH2 0xAB0 PUSH1 0x4 DUP6 ADD SLOAD DUP1 SWAP3 PUSH2 0x411F JUMP JUMPDEST PUSH1 0x7 DUP5 ADD SLOAD DUP1 ISZERO PUSH2 0xC40 JUMPI DUP3 PUSH2 0xAC5 SWAP2 PUSH2 0x3EAD JUMP JUMPDEST SWAP3 PUSH5 0xE8D4A51000 DUP5 GT PUSH2 0xC2E JUMPI PUSH2 0xAE9 SWAP2 DUP2 PUSH1 0x1 DUP8 ADD SLOAD AND CALLER SWAP3 DUP8 SLOAD AND SWAP2 DUP7 PUSH2 0x4338 JUMP JUMPDEST POP SWAP5 SWAP1 SWAP4 PUSH1 0x1 PUSH1 0x1 PUSH1 0x40 SHL SUB SWAP1 DUP2 PUSH1 0x60 DUP5 ADD MLOAD AND DUP5 TIMESTAMP DUP3 GT PUSH1 0x0 EQ PUSH2 0xC1E JUMPI PUSH1 0x8 PUSH2 0xB17 SWAP3 SWAP4 JUMPDEST ADD SLOAD PUSH2 0x3EAD JUMP JUMPDEST SWAP1 PUSH3 0x15180 SWAP2 DUP3 DUP2 MUL SWAP3 DUP2 DUP5 DIV EQ SWAP1 ISZERO OR ISZERO PUSH2 0xC0A JUMPI DUP3 SWAP2 DUP13 SWAP4 PUSH2 0xB3B SWAP3 AND PUSH2 0x3D92 JUMP JUMPDEST AND SWAP7 DUP1 EXTCODESIZE ISZERO PUSH2 0x6D3 JUMPI DUP2 SWAP1 PUSH1 0x44 PUSH1 0x40 MLOAD DUP1 SWAP5 DUP2 SWAP4 PUSH4 0x3F97ADD5 PUSH1 0xE2 SHL DUP4 MSTORE DUP14 PUSH1 0x4 DUP5 ADD MSTORE DUP13 PUSH1 0x24 DUP5 ADD MSTORE GAS CALL DUP1 ISZERO PUSH2 0xBFF JUMPI PUSH2 0xBBF JUMPI JUMPDEST POP SWAP2 PUSH32 0xFFA941BDD74336ABC13129BA18AC9721BF531FF9F07161484DFB56F1F28DD5BE SWAP6 SWAP4 SWAP2 PUSH1 0xA0 SWAP6 SWAP4 MLOAD SWAP9 PUSH1 0x40 MLOAD SWAP6 DUP7 MSTORE DUP6 ADD MSTORE PUSH1 0x40 DUP5 ADD MSTORE PUSH1 0x60 DUP4 ADD MSTORE PUSH1 0x80 DUP3 ADD MSTORE LOG3 PUSH1 0x1 PUSH1 0x2 SSTORE DUP1 RETURN JUMPDEST SWAP2 PUSH1 0xA0 SWAP6 SWAP4 SWAP2 SWAP10 PUSH2 0xBF2 PUSH32 0xFFA941BDD74336ABC13129BA18AC9721BF531FF9F07161484DFB56F1F28DD5BE SWAP9 SWAP7 SWAP5 PUSH2 0x3B8C JUMP JUMPDEST SWAP10 SWAP2 SWAP4 SWAP6 POP SWAP2 SWAP4 SWAP6 PUSH2 0xB72 JUMP JUMPDEST PUSH1 0x40 MLOAD RETURNDATASIZE DUP13 DUP3 RETURNDATACOPY RETURNDATASIZE SWAP1 REVERT JUMPDEST PUSH4 0x4E487B71 PUSH1 0xE0 SHL DUP13 MSTORE PUSH1 0x11 PUSH1 0x4 MSTORE PUSH1 0x24 DUP13 REVERT JUMPDEST PUSH2 0xB17 SWAP2 POP PUSH1 0x8 DUP5 TIMESTAMP AND SWAP4 PUSH2 0xB10 JUMP JUMPDEST PUSH1 0x40 MLOAD PUSH4 0x127F08C9 PUSH1 0xE1 SHL DUP2 MSTORE PUSH1 0x4 SWAP1 REVERT JUMPDEST PUSH1 0x40 MLOAD PUSH4 0x1140CF7F PUSH1 0xE0 SHL DUP2 MSTORE PUSH1 0x4 SWAP1 REVERT JUMPDEST PUSH1 0x40 MLOAD PUSH4 0x38060845 PUSH1 0xE1 SHL DUP2 MSTORE PUSH1 0x4 SWAP1 REVERT JUMPDEST PUSH1 0x40 MLOAD PUSH4 0x2B79ED3 PUSH1 0xE4 SHL DUP2 MSTORE PUSH1 0x4 SWAP1 REVERT JUMPDEST PUSH2 0xC96 SWAP2 POP DUP8 RETURNDATASIZE DUP10 GT PUSH2 0xC9C JUMPI JUMPDEST PUSH2 0xC8E DUP2 DUP4 PUSH2 0x3BD6 JUMP JUMPDEST DUP2 ADD SWAP1 PUSH2 0x3D05 JUMP JUMPDEST CODESIZE PUSH2 0xA66 JUMP JUMPDEST POP RETURNDATASIZE PUSH2 0xC84 JUMP JUMPDEST PUSH1 0x40 MLOAD RETURNDATASIZE DUP11 DUP3 RETURNDATACOPY RETURNDATASIZE SWAP1 REVERT JUMPDEST PUSH2 0xCD1 SWAP2 SWAP3 POP PUSH1 0xE0 RETURNDATASIZE PUSH1 0xE0 GT PUSH2 0xCD8 JUMPI JUMPDEST PUSH2 0xCC9 DUP2 DUP4 PUSH2 0x3BD6 JUMP JUMPDEST DUP2 ADD SWAP1 PUSH2 0x3E21 JUMP JUMPDEST SWAP1 CODESIZE PUSH2 0xA37 JUMP JUMPDEST POP RETURNDATASIZE PUSH2 0xCBF JUMP JUMPDEST PUSH1 0x40 MLOAD PUSH4 0x76166401 PUSH1 0xE0 SHL DUP2 MSTORE PUSH1 0x4 SWAP1 REVERT JUMPDEST POP CALLVALUE PUSH2 0x303 JUMPI PUSH1 0x20 CALLDATASIZE PUSH1 0x3 NOT ADD SLT PUSH2 0x303 JUMPI PUSH32 0x3A266FD63D408074525FACB4C91054DE12D4E7BF0CAD93604B63EF604F96E7FC PUSH1 0x20 PUSH1 0x4 CALLDATALOAD PUSH2 0xD31 PUSH2 0x40CE JUMP JUMPDEST DUP1 PUSH1 0x9 SSTORE PUSH1 0x40 MLOAD SWAP1 DUP2 MSTORE LOG1 DUP1 RETURN JUMPDEST POP CALLVALUE PUSH2 0x303 JUMPI PUSH1 0x40 CALLDATASIZE PUSH1 0x3 NOT ADD SLT PUSH2 0x303 JUMPI PUSH1 0x24 CALLDATALOAD SWAP1 PUSH1 0x1 PUSH1 0x1 PUSH1 0x40 SHL SUB DUP3 GT PUSH2 0x303 JUMPI PUSH1 0x20 PUSH2 0xD7E PUSH2 0xD75 CALLDATASIZE PUSH1 0x4 DUP7 ADD PUSH2 0x3A91 JUMP JUMPDEST SWAP1 PUSH1 0x4 CALLDATALOAD PUSH2 0x3F16 JUMP JUMPDEST PUSH1 0x40 MLOAD SWAP1 DUP2 MSTORE RETURN JUMPDEST POP CALLVALUE PUSH2 0x303 JUMPI DUP1 PUSH1 0x3 NOT CALLDATASIZE ADD SLT PUSH2 0x303 JUMPI PUSH1 0x20 PUSH1 0x8 SLOAD PUSH1 0x40 MLOAD SWAP1 DUP2 MSTORE RETURN JUMPDEST POP CALLVALUE PUSH2 0x303 JUMPI PUSH1 0x20 CALLDATASIZE PUSH1 0x3 NOT ADD SLT PUSH2 0x303 JUMPI PUSH1 0x4 CALLDATALOAD DUP2 MSTORE PUSH1 0xD PUSH1 0x20 SWAP1 DUP2 MSTORE PUSH1 0x40 SWAP2 DUP3 SWAP1 KECCAK256 DUP1 SLOAD PUSH1 0x1 SWAP1 SWAP2 ADD SLOAD DUP4 MLOAD PUSH1 0x1 PUSH1 0x1 PUSH1 0xA0 SHL SUB SWAP1 SWAP3 AND DUP3 MSTORE SWAP2 DUP2 ADD SWAP2 SWAP1 SWAP2 MSTORE RETURN JUMPDEST SUB SWAP1 RETURN JUMPDEST POP CALLVALUE PUSH2 0x303 JUMPI PUSH1 0x20 CALLDATASIZE PUSH1 0x3 NOT ADD SLT PUSH2 0x303 JUMPI PUSH1 0x40 MLOAD PUSH4 0x596E8909 PUSH1 0xE1 SHL DUP2 MSTORE PUSH1 0x4 DUP1 CALLDATALOAD SWAP1 DUP3 ADD DUP2 SWAP1 MSTORE PUSH1 0x1 PUSH1 0x1 PUSH1 0xA0 SHL SUB PUSH1 0xE0 DUP4 PUSH1 0x24 DUP2 PUSH32 0x0 DUP6 AND GAS STATICCALL SWAP3 DUP4 ISZERO PUSH2 0xECF JUMPI DUP5 SWAP4 PUSH2 0xEAE JUMPI JUMPDEST POP DUP3 MLOAD DUP5 MSTORE PUSH1 0xA PUSH1 0x20 MSTORE PUSH1 0x40 DUP5 KECCAK256 SLOAD AND CALLER SUB PUSH2 0x42C JUMPI DUP1 DUP4 MSTORE PUSH1 0xC PUSH1 0x20 MSTORE PUSH1 0x40 DUP4 KECCAK256 DUP1 SLOAD PUSH1 0xFF NOT AND PUSH1 0x1 OR SWAP1 SSTORE SWAP1 MLOAD CALLER SWAP2 PUSH32 0xA0FDFAE94A7F0D72D671FDDDAC883FFA712B07CFC84408BFB3CED264D1FC58F1 DUP5 DUP1 LOG4 DUP1 RETURN JUMPDEST PUSH2 0xEC8 SWAP2 SWAP4 POP PUSH1 0xE0 RETURNDATASIZE PUSH1 0xE0 GT PUSH2 0xCD8 JUMPI PUSH2 0xCC9 DUP2 DUP4 PUSH2 0x3BD6 JUMP JUMPDEST SWAP2 CODESIZE PUSH2 0xE56 JUMP JUMPDEST PUSH1 0x40 MLOAD RETURNDATASIZE DUP7 DUP3 RETURNDATACOPY RETURNDATASIZE SWAP1 REVERT JUMPDEST POP CALLVALUE PUSH2 0x303 JUMPI DUP1 PUSH1 0x3 NOT CALLDATASIZE ADD SLT PUSH2 0x303 JUMPI PUSH1 0x20 PUSH1 0x5 SLOAD PUSH1 0x40 MLOAD SWAP1 DUP2 MSTORE RETURN JUMPDEST POP CALLVALUE PUSH2 0x303 JUMPI DUP1 PUSH1 0x3 NOT CALLDATASIZE ADD SLT PUSH2 0x303 JUMPI PUSH1 0x20 PUSH1 0x40 MLOAD PUSH1 0x2 DUP2 MSTORE RETURN JUMPDEST POP CALLVALUE PUSH2 0x303 JUMPI DUP1 PUSH1 0x3 NOT CALLDATASIZE ADD SLT PUSH2 0x303 JUMPI PUSH1 0x20 PUSH1 0x40 MLOAD PUSH4 0x3B9ACA00 DUP2 MSTORE RETURN JUMPDEST POP CALLVALUE PUSH2 0x303 JUMPI PUSH1 0x40 CALLDATASIZE PUSH1 0x3 NOT ADD SLT PUSH2 0x303 JUMPI PUSH1 0x24 CALLDATALOAD PUSH1 0x4 CALLDATALOAD PUSH2 0xF53 PUSH2 0x3FDD JUMP JUMPDEST DUP1 DUP4 MSTORE PUSH1 0xA PUSH1 0x20 MSTORE PUSH1 0x40 DUP4 KECCAK256 DUP1 SLOAD PUSH1 0x1 PUSH1 0x1 PUSH1 0xA0 SHL SUB AND CALLER SUB PUSH2 0x42C JUMPI PUSH1 0xB SWAP1 PUSH2 0xF7C DUP5 PUSH2 0x4144 JUMP JUMPDEST ADD SWAP2 DUP1 DUP4 SLOAD SWAP4 SSTORE PUSH1 0x40 MLOAD SWAP3 DUP4 MSTORE PUSH1 0x20 DUP4 ADD MSTORE PUSH32 0x6F410FDCE106B8B5C37FA32842357B3F2ECEA680083897D5490141B384E1BB01 PUSH1 0x40 CALLER SWAP4 LOG3 DUP1 RETURN JUMPDEST POP CALLVALUE PUSH2 0x303 JUMPI DUP1 PUSH1 0x3 NOT CALLDATASIZE ADD SLT PUSH2 0x303 JUMPI SLOAD PUSH1 0x40 MLOAD PUSH1 0x1 PUSH1 0x1 PUSH1 0xA0 SHL SUB SWAP1 SWAP2 AND DUP2 MSTORE PUSH1 0x20 SWAP1 RETURN JUMPDEST POP CALLVALUE PUSH2 0x303 JUMPI PUSH1 0x80 CALLDATASIZE PUSH1 0x3 NOT ADD SLT PUSH2 0x303 JUMPI PUSH2 0xFF8 PUSH2 0x3A22 JUMP JUMPDEST PUSH2 0x1000 PUSH2 0x3B01 JUMP JUMPDEST SWAP1 PUSH2 0x1009 PUSH2 0x3B12 JUMP JUMPDEST PUSH2 0x1011 PUSH2 0x3FDD JUMP JUMPDEST PUSH2 0x1019 PUSH2 0x40E2 JUMP JUMPDEST PUSH1 0x4 CALLDATALOAD DUP5 MSTORE PUSH1 0xA PUSH1 0x20 MSTORE PUSH1 0x40 DUP5 KECCAK256 SWAP1 PUSH1 0xFF PUSH1 0x5 DUP4 ADD SLOAD AND ISZERO PUSH2 0x1279 JUMPI PUSH1 0x6 SLOAD PUSH2 0x1047 PUSH1 0x4 DUP5 ADD SLOAD DUP1 SWAP3 PUSH2 0x411F JUMP JUMPDEST PUSH2 0x1065 PUSH1 0xFF PUSH1 0x9 DUP6 ADD SLOAD PUSH2 0x105C DUP3 DUP3 AND PUSH2 0x3FFB JUMP JUMPDEST PUSH1 0x8 SHR AND PUSH2 0x4041 JUMP JUMPDEST PUSH2 0x1092 PUSH2 0x1073 DUP7 DUP7 DUP7 PUSH2 0x42EB JUMP JUMPDEST PUSH1 0x1 DUP6 ADD SLOAD DUP6 SLOAD SWAP2 SWAP4 CALLER SWAP3 PUSH1 0x1 PUSH1 0x1 PUSH1 0xA0 SHL SUB SWAP1 DUP2 AND SWAP3 AND SWAP1 DUP6 PUSH2 0x4338 JUMP JUMPDEST POP DUP8 SWAP7 PUSH1 0x1 PUSH1 0xFF DUP9 AND EQ PUSH2 0x1220 JUMPI JUMPDEST POP PUSH2 0xFFFF PUSH1 0x9 DUP7 ADD SLOAD PUSH1 0xA DUP8 ADD SLOAD PUSH1 0x40 MLOAD SWAP7 PUSH2 0x10BC DUP9 PUSH2 0x3B9F JUMP JUMPDEST PUSH1 0x4 CALLDATALOAD DUP9 MSTORE PUSH1 0xFF DUP11 AND PUSH1 0x20 DUP10 ADD MSTORE PUSH1 0xFF DUP4 AND PUSH1 0x40 DUP10 ADD MSTORE PUSH1 0x1 PUSH1 0x1 PUSH1 0x40 SHL SUB DUP12 AND PUSH1 0x60 DUP10 ADD MSTORE ISZERO ISZERO PUSH1 0x80 DUP9 ADD MSTORE PUSH1 0xA0 DUP8 ADD MSTORE PUSH1 0x10 SHR AND PUSH1 0xC0 DUP6 ADD MSTORE PUSH2 0x1118 PUSH1 0x40 MLOAD SWAP5 PUSH4 0x424D8DBF PUSH1 0xE1 SHL DUP7 MSTORE CALLER PUSH1 0x4 DUP8 ADD MSTORE PUSH1 0x24 DUP7 ADD SWAP1 PUSH2 0x3EC0 JUMP JUMPDEST PUSH1 0x20 DUP5 PUSH2 0x104 DUP2 DUP12 PUSH32 0x0 PUSH1 0x1 PUSH1 0x1 PUSH1 0xA0 SHL SUB AND GAS CALL SWAP4 DUP5 ISZERO PUSH2 0xCA3 JUMPI DUP9 SWAP5 PUSH2 0x11E6 JUMPI JUMPDEST POP PUSH1 0x5 DUP5 SWAP1 SSTORE PUSH1 0x9 SWAP5 SWAP1 SWAP5 ADD SLOAD PUSH1 0x40 DUP1 MLOAD PUSH1 0xFF SWAP8 DUP9 AND DUP2 MSTORE SWAP7 DUP3 AND PUSH1 0x20 DUP9 ADD MSTORE PUSH1 0x1 PUSH1 0x1 PUSH1 0x40 SHL SUB SWAP1 SWAP8 AND SWAP7 DUP7 ADD SWAP7 SWAP1 SWAP7 MSTORE PUSH1 0x10 SWAP6 SWAP1 SWAP6 SHR PUSH2 0xFFFF AND PUSH1 0x60 DUP6 ADD MSTORE PUSH1 0x80 DUP5 ADD MSTORE PUSH1 0xA0 DUP4 ADD SWAP4 SWAP1 SWAP4 MSTORE PUSH1 0xC0 DUP3 ADD MSTORE CALLER SWAP2 PUSH1 0x4 CALLDATALOAD SWAP2 PUSH32 0x83A9EDC2809EED4960FD3CCB7DA06A85B3E878E6E1568E8CA281AE543ADCC493 SWAP1 DUP1 PUSH1 0xE0 DUP2 ADD JUMPDEST SUB SWAP1 LOG4 PUSH1 0x1 PUSH1 0x2 SSTORE DUP1 RETURN JUMPDEST SWAP1 SWAP4 POP PUSH1 0x20 DUP2 RETURNDATASIZE PUSH1 0x20 GT PUSH2 0x1218 JUMPI JUMPDEST DUP2 PUSH2 0x1202 PUSH1 0x20 SWAP4 DUP4 PUSH2 0x3BD6 JUMP JUMPDEST DUP2 ADD SUB SLT PUSH2 0x1214 JUMPI MLOAD SWAP3 PUSH2 0x11DB PUSH2 0x115A JUMP JUMPDEST DUP8 DUP1 REVERT JUMPDEST RETURNDATASIZE SWAP2 POP PUSH2 0x11F5 JUMP JUMPDEST PUSH2 0x1236 SWAP2 SWAP8 POP PUSH2 0xFFFF PUSH1 0x8 DUP8 ADD SLOAD SWAP2 AND SWAP1 PUSH2 0x3EAD JUMP JUMPDEST PUSH3 0x15180 SWAP1 DUP2 DUP2 MUL SWAP2 DUP2 DUP4 DIV EQ SWAP1 ISZERO OR ISZERO PUSH2 0x1265 JUMPI PUSH2 0x125D PUSH1 0x1 PUSH1 0x1 PUSH1 0x40 SHL SUB SWAP2 TIMESTAMP PUSH2 0x3D92 JUMP JUMPDEST AND SWAP6 CODESIZE PUSH2 0x10A1 JUMP JUMPDEST PUSH4 0x4E487B71 PUSH1 0xE0 SHL DUP9 MSTORE PUSH1 0x11 PUSH1 0x4 MSTORE PUSH1 0x24 DUP9 REVERT JUMPDEST PUSH1 0x40 MLOAD PUSH4 0x665C1C57 PUSH1 0xE0 SHL DUP2 MSTORE PUSH1 0x4 SWAP1 REVERT JUMPDEST POP CALLVALUE PUSH2 0x303 JUMPI DUP1 PUSH1 0x3 NOT CALLDATASIZE ADD SLT PUSH2 0x303 JUMPI PUSH2 0x12A4 PUSH2 0x40CE JUMP JUMPDEST PUSH2 0x12AC PUSH2 0x3FDD JUMP JUMPDEST PUSH1 0x1 PUSH1 0xFF NOT PUSH1 0x3 SLOAD AND OR PUSH1 0x3 SSTORE PUSH32 0x62E78CEA01BEE320CD4E420270B5EA74000D11B0C9F74754EBDBFC544B05A258 PUSH1 0x20 PUSH1 0x40 MLOAD CALLER DUP2 MSTORE LOG1 DUP1 RETURN JUMPDEST POP CALLVALUE PUSH2 0x303 JUMPI DUP1 PUSH1 0x3 NOT CALLDATASIZE ADD SLT PUSH2 0x303 JUMPI PUSH1 0x20 PUSH1 0x40 MLOAD PUSH2 0x7D0 DUP2 MSTORE RETURN JUMPDEST PUSH2 0x3A32 JUMP JUMPDEST POP CALLVALUE PUSH2 0x303 JUMPI DUP1 PUSH1 0x3 NOT CALLDATASIZE ADD SLT PUSH2 0x303 JUMPI PUSH1 0x1 SLOAD PUSH1 0x1 PUSH1 0x1 PUSH1 0xA0 SHL SUB CALLER DUP2 DUP4 AND SUB PUSH2 0x136E JUMPI PUSH1 0x1 PUSH1 0x1 PUSH1 0xA0 SHL SUB NOT SWAP2 DUP3 AND PUSH1 0x1 SSTORE DUP3 SLOAD CALLER SWAP3 DUP2 AND DUP4 OR DUP5 SSTORE AND PUSH32 0x8BE0079C531659141344CD1FD0A4F28419497F9722A3DAAFE3B4186F6B6457E0 DUP4 DUP1 LOG3 DUP1 RETURN JUMPDEST PUSH1 0x40 MLOAD PUSH4 0x118CDAA7 PUSH1 0xE0 SHL DUP2 MSTORE CALLER PUSH1 0x4 DUP3 ADD MSTORE PUSH1 0x24 SWAP1 REVERT JUMPDEST POP CALLVALUE PUSH2 0x303 JUMPI PUSH1 0x20 CALLDATASIZE PUSH1 0x3 NOT ADD SLT PUSH2 0x303 JUMPI PUSH2 0x13A0 PUSH2 0x3A4E JUMP JUMPDEST PUSH2 0x13A8 PUSH2 0x40CE JUMP JUMPDEST PUSH1 0x1 PUSH1 0x1 PUSH1 0xA0 SHL SUB AND DUP1 ISZERO PUSH2 0x41A JUMPI PUSH1 0xE DUP1 SLOAD PUSH1 0x1 PUSH1 0x1 PUSH1 0xA0 SHL SUB NOT AND DUP3 OR SWAP1 SSTORE PUSH32 0x50A7789FC3A529664680CA40D3B269C318A2D1E034E09941FD478ADC549ED42C DUP3 DUP1 LOG2 DUP1 RETURN JUMPDEST POP CALLVALUE PUSH2 0x303 JUMPI DUP1 PUSH1 0x3 NOT CALLDATASIZE ADD SLT PUSH2 0x303 JUMPI PUSH1 0x20 SWAP1 PUSH1 0x40 MLOAD SWAP1 DUP2 MSTORE RETURN JUMPDEST POP CALLVALUE PUSH2 0x303 JUMPI DUP1 PUSH1 0x3 NOT CALLDATASIZE ADD SLT PUSH2 0x303 JUMPI PUSH2 0x1425 PUSH2 0x40CE JUMP JUMPDEST PUSH1 0x1 DUP1 SLOAD PUSH1 0x1 PUSH1 0x1 PUSH1 0xA0 SHL SUB NOT SWAP1 DUP2 AND SWAP1 SWAP2 SSTORE DUP2 SLOAD SWAP1 DUP2 AND DUP3 SSTORE DUP2 SWAP1 PUSH1 0x1 PUSH1 0x1 PUSH1 0xA0 SHL SUB AND PUSH32 0x8BE0079C531659141344CD1FD0A4F28419497F9722A3DAAFE3B4186F6B6457E0 DUP3 DUP1 LOG3 DUP1 RETURN JUMPDEST POP CALLVALUE PUSH2 0x303 JUMPI PUSH1 0x40 CALLDATASIZE PUSH1 0x3 NOT ADD SLT PUSH2 0x303 JUMPI PUSH2 0x148B PUSH2 0x3A4E JUMP JUMPDEST PUSH1 0x24 CALLDATALOAD PUSH2 0x1496 PUSH2 0x40CE JUMP JUMPDEST PUSH1 0x1 PUSH1 0x1 PUSH1 0xA0 SHL SUB DUP3 AND SWAP2 DUP3 ISZERO PUSH2 0x41A JUMPI DUP2 PUSH2 0x14D5 PUSH32 0x6E20AFAADAC1247355FA762FA54C781B1749ACD4853577725D30FF0ACF2D8ED0 SWAP4 PUSH1 0x20 SWAP4 PUSH2 0x444A JUMP JUMPDEST PUSH1 0x40 MLOAD SWAP1 DUP2 MSTORE LOG2 DUP1 RETURN JUMPDEST POP CALLVALUE PUSH2 0x303 JUMPI PUSH1 0x20 CALLDATASIZE PUSH1 0x3 NOT ADD SLT PUSH2 0x303 JUMPI DUP1 PUSH1 0x40 SWAP2 PUSH2 0x1C0 DUP4 MLOAD PUSH2 0x1503 DUP2 PUSH2 0x3BBA JUMP JUMPDEST DUP3 DUP2 MSTORE DUP3 PUSH1 0x20 DUP3 ADD MSTORE PUSH1 0x60 DUP6 DUP3 ADD MSTORE PUSH1 0x60 DUP1 DUP3 ADD MSTORE DUP3 PUSH1 0x80 DUP3 ADD MSTORE DUP3 PUSH1 0xA0 DUP3 ADD MSTORE DUP3 PUSH1 0xC0 DUP3 ADD MSTORE DUP3 PUSH1 0xE0 DUP3 ADD MSTORE DUP3 PUSH2 0x100 DUP3 ADD MSTORE DUP3 PUSH2 0x120 DUP3 ADD MSTORE DUP3 PUSH2 0x140 DUP3 ADD MSTORE DUP3 PUSH2 0x160 DUP3 ADD MSTORE DUP3 PUSH2 0x180 DUP3 ADD MSTORE DUP3 PUSH2 0x1A0 DUP3 ADD MSTORE ADD MSTORE PUSH1 0x4 CALLDATALOAD DUP2 MSTORE PUSH1 0xA PUSH1 0x20 MSTORE KECCAK256 PUSH1 0x40 MLOAD SWAP1 PUSH2 0x1574 DUP3 PUSH2 0x3BBA JUMP JUMPDEST DUP1 SLOAD PUSH1 0x1 PUSH1 0x1 PUSH1 0xA0 SHL SUB SWAP1 DUP2 AND DUP4 MSTORE PUSH1 0x1 DUP3 ADD SLOAD AND PUSH1 0x20 DUP4 ADD MSTORE PUSH2 0x159A PUSH1 0x2 DUP3 ADD PUSH2 0x3BF7 JUMP JUMPDEST PUSH1 0x40 DUP4 ADD MSTORE PUSH2 0x15AB PUSH1 0x3 DUP3 ADD PUSH2 0x3BF7 JUMP JUMPDEST PUSH1 0x60 DUP4 ADD MSTORE PUSH1 0x4 DUP2 ADD SLOAD PUSH1 0x80 DUP4 ADD MSTORE PUSH1 0xFF PUSH1 0x5 DUP3 ADD SLOAD AND ISZERO ISZERO PUSH1 0xA0 DUP4 ADD MSTORE PUSH1 0x6 DUP2 ADD SLOAD PUSH1 0xC0 DUP4 ADD MSTORE PUSH1 0x7 DUP2 ADD SLOAD PUSH1 0xE0 DUP4 ADD MSTORE PUSH1 0x8 DUP2 ADD SLOAD PUSH2 0x100 DUP4 ADD MSTORE PUSH2 0xFFFF PUSH1 0x9 DUP3 ADD SLOAD PUSH1 0xFF DUP2 AND PUSH2 0x120 DUP6 ADD MSTORE PUSH1 0xFF DUP2 PUSH1 0x8 SHR AND PUSH2 0x140 DUP6 ADD MSTORE PUSH1 0x10 SHR AND PUSH2 0x160 DUP4 ADD MSTORE PUSH1 0xA DUP2 ADD SLOAD PUSH2 0x180 DUP4 ADD MSTORE PUSH1 0xB DUP2 ADD SLOAD PUSH2 0x1A0 DUP4 ADD MSTORE PUSH1 0xC PUSH1 0x1 DUP1 PUSH1 0xA0 SHL SUB SWAP2 ADD SLOAD AND PUSH2 0x1C0 DUP3 ADD MSTORE PUSH1 0x40 MLOAD DUP1 SWAP2 PUSH1 0x20 DUP3 MSTORE PUSH1 0x1 DUP1 PUSH1 0xA0 SHL SUB DUP2 MLOAD AND PUSH1 0x20 DUP4 ADD MSTORE PUSH1 0x1 DUP1 PUSH1 0xA0 SHL SUB PUSH1 0x20 DUP3 ADD MLOAD AND PUSH1 0x40 DUP4 ADD MSTORE PUSH2 0x1698 PUSH2 0x1682 PUSH1 0x40 DUP4 ADD MLOAD PUSH2 0x1E0 PUSH1 0x60 DUP7 ADD MSTORE PUSH2 0x200 DUP6 ADD SWAP1 PUSH2 0x3C9C JUMP JUMPDEST PUSH1 0x60 DUP4 ADD MLOAD DUP5 DUP3 SUB PUSH1 0x1F NOT ADD PUSH1 0x80 DUP7 ADD MSTORE PUSH2 0x3C9C JUMP JUMPDEST SWAP1 PUSH1 0x80 DUP2 ADD MLOAD PUSH1 0xA0 DUP5 ADD MSTORE PUSH1 0xA0 DUP2 ADD MLOAD ISZERO ISZERO PUSH1 0xC0 DUP5 ADD MSTORE PUSH1 0xC0 DUP2 ADD MLOAD PUSH1 0xE0 DUP5 ADD MSTORE PUSH1 0xE0 DUP2 ADD MLOAD PUSH2 0x100 DUP5 ADD MSTORE PUSH2 0x100 DUP2 ADD MLOAD PUSH2 0x120 DUP5 ADD MSTORE PUSH1 0xFF PUSH2 0x120 DUP3 ADD MLOAD AND PUSH2 0x140 DUP5 ADD MSTORE PUSH1 0xFF PUSH2 0x140 DUP3 ADD MLOAD AND PUSH2 0x160 DUP5 ADD MSTORE PUSH2 0xFFFF PUSH2 0x160 DUP3 ADD MLOAD AND PUSH2 0x180 DUP5 ADD MSTORE PUSH2 0x180 DUP2 ADD MLOAD PUSH2 0x1A0 DUP5 ADD MSTORE PUSH2 0x1A0 DUP2 ADD MLOAD PUSH2 0x1C0 DUP5 ADD MSTORE PUSH2 0x1C0 PUSH1 0x1 DUP1 PUSH1 0xA0 SHL SUB SWAP2 ADD MLOAD AND PUSH2 0x1E0 DUP4 ADD MSTORE SUB SWAP1 RETURN JUMPDEST POP CALLVALUE PUSH2 0x303 JUMPI PUSH1 0x20 CALLDATASIZE PUSH1 0x3 NOT ADD SLT PUSH2 0x303 JUMPI PUSH2 0x1748 PUSH2 0x3A4E JUMP JUMPDEST PUSH2 0x1750 PUSH2 0x40CE JUMP JUMPDEST PUSH1 0x1 PUSH1 0x1 PUSH1 0xA0 SHL SUB AND DUP1 ISZERO PUSH2 0x41A JUMPI PUSH1 0x10 DUP1 SLOAD PUSH1 0x1 PUSH1 0x1 PUSH1 0xA0 SHL SUB NOT AND DUP3 OR SWAP1 SSTORE PUSH32 0xCB0AEFFE884EB88FB2A31A2F3E4BD1D2763BDEE48BA93B28C6E87501228CF743 DUP3 DUP1 LOG2 DUP1 RETURN JUMPDEST POP CALLVALUE PUSH2 0x303 JUMPI PUSH1 0x20 CALLDATASIZE PUSH1 0x3 NOT ADD SLT PUSH2 0x303 JUMPI PUSH1 0x4 CALLDATALOAD DUP2 MSTORE PUSH1 0xA PUSH1 0x20 MSTORE PUSH1 0x40 SWAP1 KECCAK256 DUP1 SLOAD PUSH1 0x1 DUP3 ADD SLOAD PUSH1 0x1 PUSH1 0x1 PUSH1 0xA0 SHL SUB SWAP1 DUP2 AND SWAP3 SWAP2 DUP2 AND SWAP2 PUSH2 0x17DB PUSH1 0x2 DUP3 ADD PUSH2 0x3BF7 JUMP JUMPDEST SWAP1 PUSH2 0x17E8 PUSH1 0x3 DUP3 ADD PUSH2 0x3BF7 JUMP JUMPDEST SWAP3 PUSH1 0x4 DUP3 ADD SLOAD SWAP4 PUSH1 0x5 DUP4 ADD SLOAD PUSH1 0xFF AND PUSH1 0x6 DUP5 ADD SLOAD PUSH1 0x7 DUP6 ADD SLOAD SWAP1 PUSH1 0x8 DUP7 ADD SLOAD SWAP3 PUSH1 0x9 DUP8 ADD SLOAD SWAP5 PUSH1 0xA DUP9 ADD SLOAD SWAP7 PUSH1 0xB DUP10 ADD SLOAD SWAP9 PUSH1 0xC ADD SLOAD AND SWAP9 PUSH1 0x40 MLOAD SWAP13 DUP14 SWAP13 DUP14 PUSH2 0x1E0 SWAP3 DUP4 SWAP3 DUP3 MSTORE PUSH1 0x20 DUP3 ADD MSTORE PUSH1 0x40 ADD MSTORE DUP13 ADD PUSH2 0x1843 SWAP2 PUSH2 0x3C9C JUMP JUMPDEST DUP12 DUP2 SUB PUSH1 0x60 DUP14 ADD MSTORE PUSH2 0x1854 SWAP2 PUSH2 0x3C9C JUMP JUMPDEST SWAP9 PUSH1 0x80 DUP12 ADD MSTORE ISZERO ISZERO PUSH1 0xA0 DUP11 ADD MSTORE PUSH1 0xC0 DUP10 ADD MSTORE PUSH1 0xE0 DUP9 ADD MSTORE PUSH2 0x100 DUP8 ADD MSTORE PUSH1 0xFF DUP2 AND PUSH2 0x120 DUP8 ADD MSTORE DUP1 PUSH1 0x8 SHR PUSH1 0xFF AND PUSH2 0x140 DUP8 ADD MSTORE PUSH1 0x10 SHR PUSH2 0xFFFF AND PUSH2 0x160 DUP7 ADD MSTORE PUSH2 0x180 DUP6 ADD MSTORE PUSH2 0x1A0 DUP5 ADD MSTORE PUSH2 0x1C0 DUP4 ADD MSTORE SUB SWAP1 RETURN JUMPDEST POP CALLVALUE PUSH2 0x303 JUMPI PUSH1 0x60 CALLDATASIZE PUSH1 0x3 NOT ADD SLT PUSH2 0x303 JUMPI PUSH2 0x18C5 PUSH2 0x3A4E JUMP JUMPDEST PUSH2 0x18CD PUSH2 0x3A7B JUMP JUMPDEST SWAP1 PUSH2 0x18D6 PUSH2 0x40CE JUMP JUMPDEST PUSH1 0x1 PUSH1 0x1 PUSH1 0xA0 SHL SUB SWAP2 DUP1 DUP4 AND ISZERO PUSH2 0x41A JUMPI PUSH2 0x7FE SWAP3 PUSH1 0x44 CALLDATALOAD SWAP3 AND PUSH2 0x4409 JUMP JUMPDEST POP CALLVALUE PUSH2 0x303 JUMPI PUSH1 0x20 CALLDATASIZE PUSH1 0x3 NOT ADD SLT PUSH2 0x303 JUMPI PUSH1 0x4 CALLDATALOAD PUSH2 0x1912 PUSH2 0x40CE JUMP JUMPDEST PUSH1 0x40 MLOAD PUSH4 0x596E8909 PUSH1 0xE1 SHL DUP2 MSTORE PUSH1 0x4 DUP2 ADD DUP3 SWAP1 MSTORE PUSH1 0xE0 DUP2 PUSH1 0x24 DUP2 PUSH32 0x0 PUSH1 0x1 PUSH1 0x1 PUSH1 0xA0 SHL SUB AND GAS STATICCALL SWAP1 DUP2 ISZERO PUSH2 0x19C7 JUMPI DUP4 SWAP2 PUSH2 0x19A8 JUMPI JUMPDEST POP DUP2 DUP4 MSTORE PUSH1 0xC PUSH1 0x20 MSTORE PUSH1 0x40 DUP4 KECCAK256 DUP1 SLOAD PUSH1 0xFF NOT AND PUSH1 0x1 OR SWAP1 SSTORE MLOAD CALLER SWAP2 PUSH32 0xA0FDFAE94A7F0D72D671FDDDAC883FFA712B07CFC84408BFB3CED264D1FC58F1 DUP5 DUP1 LOG4 DUP1 RETURN JUMPDEST PUSH2 0x19C1 SWAP2 POP PUSH1 0xE0 RETURNDATASIZE PUSH1 0xE0 GT PUSH2 0xCD8 JUMPI PUSH2 0xCC9 DUP2 DUP4 PUSH2 0x3BD6 JUMP JUMPDEST CODESIZE PUSH2 0x1966 JUMP JUMPDEST PUSH1 0x40 MLOAD RETURNDATASIZE DUP6 DUP3 RETURNDATACOPY RETURNDATASIZE SWAP1 REVERT JUMPDEST POP CALLVALUE PUSH2 0x303 JUMPI DUP1 PUSH1 0x3 NOT CALLDATASIZE ADD SLT PUSH2 0x303 JUMPI PUSH1 0x20 PUSH1 0x4 SLOAD PUSH1 0x40 MLOAD SWAP1 DUP2 MSTORE RETURN JUMPDEST POP CALLVALUE PUSH2 0x303 JUMPI DUP1 PUSH1 0x3 NOT CALLDATASIZE ADD SLT PUSH2 0x303 JUMPI PUSH1 0x20 PUSH1 0xFF PUSH1 0x3 SLOAD AND PUSH1 0x40 MLOAD SWAP1 ISZERO ISZERO DUP2 MSTORE RETURN JUMPDEST POP CALLVALUE PUSH2 0x303 JUMPI DUP1 PUSH1 0x3 NOT CALLDATASIZE ADD SLT PUSH2 0x303 JUMPI PUSH1 0x20 PUSH1 0x40 MLOAD PUSH3 0x15180 DUP2 MSTORE RETURN JUMPDEST POP CALLVALUE PUSH2 0x303 JUMPI DUP1 PUSH1 0x3 NOT CALLDATASIZE ADD SLT PUSH2 0x303 JUMPI PUSH1 0xE SLOAD PUSH1 0x40 MLOAD PUSH1 0x1 PUSH1 0x1 PUSH1 0xA0 SHL SUB SWAP1 SWAP2 AND DUP2 MSTORE PUSH1 0x20 SWAP1 RETURN JUMPDEST POP CALLVALUE PUSH2 0x303 JUMPI PUSH1 0xA0 CALLDATASIZE PUSH1 0x3 NOT ADD SLT PUSH2 0x303 JUMPI PUSH2 0x1A74 PUSH2 0x3A22 JUMP JUMPDEST PUSH2 0x1A7C PUSH2 0x3B01 JUMP JUMPDEST PUSH2 0x1A84 PUSH2 0x3B12 JUMP JUMPDEST SWAP1 PUSH1 0x84 CALLDATALOAD PUSH1 0x1 PUSH1 0x1 PUSH1 0x40 SHL SUB DUP2 GT PUSH2 0x1D49 JUMPI PUSH2 0x1AA4 SWAP1 CALLDATASIZE SWAP1 PUSH1 0x4 ADD PUSH2 0x3A91 JUMP JUMPDEST SWAP1 SWAP2 PUSH2 0x1AAE PUSH2 0x3FDD JUMP JUMPDEST PUSH2 0x1AB6 PUSH2 0x40E2 JUMP JUMPDEST PUSH1 0x4 CALLDATALOAD DUP7 MSTORE PUSH1 0xA PUSH1 0x20 MSTORE PUSH1 0x40 DUP7 KECCAK256 SWAP1 PUSH1 0xFF PUSH1 0x5 DUP4 ADD SLOAD AND ISZERO PUSH2 0x1279 JUMPI DUP6 SWAP4 PUSH1 0x6 SLOAD SWAP3 PUSH2 0x1AE7 PUSH1 0x4 DUP3 ADD SLOAD DUP1 SWAP6 PUSH2 0x411F JUMP JUMPDEST PUSH2 0x1AFC PUSH1 0xFF PUSH1 0x9 DUP4 ADD SLOAD PUSH2 0x105C DUP3 DUP3 AND PUSH2 0x3FFB JUMP JUMPDEST PUSH2 0x1B29 PUSH2 0x1B0A DUP5 DUP9 DUP5 PUSH2 0x42EB JUMP JUMPDEST PUSH1 0x1 DUP4 ADD SLOAD DUP4 SLOAD SWAP2 SWAP7 CALLER SWAP3 PUSH1 0x1 PUSH1 0x1 PUSH1 0xA0 SHL SUB SWAP1 DUP2 AND SWAP3 AND SWAP1 DUP9 PUSH2 0x4338 JUMP JUMPDEST POP SWAP7 SWAP1 SWAP3 DUP11 SWAP5 PUSH1 0x1 PUSH1 0xFF DUP5 AND EQ PUSH2 0x1CE2 JUMPI JUMPDEST POP PUSH1 0x20 SWAP2 PUSH2 0x1BD4 PUSH2 0x1BC0 SWAP3 PUSH1 0x9 DUP7 ADD SLOAD SWAP12 PUSH1 0xA DUP8 ADD SLOAD SWAP13 PUSH2 0xFFFF SWAP14 DUP15 SWAP3 PUSH1 0xFF PUSH1 0x40 MLOAD SWAP8 PUSH2 0x1B67 DUP10 PUSH2 0x3B9F JUMP JUMPDEST PUSH1 0x4 CALLDATALOAD DUP10 MSTORE AND DUP10 DUP9 ADD MSTORE PUSH1 0xFF DUP4 AND PUSH1 0x40 DUP9 ADD MSTORE PUSH1 0x1 PUSH1 0x1 PUSH1 0x40 SHL SUB DUP13 AND PUSH1 0x60 DUP9 ADD MSTORE ISZERO ISZERO PUSH1 0x80 DUP8 ADD MSTORE PUSH1 0xA0 DUP7 ADD MSTORE PUSH1 0x10 SHR AND PUSH1 0xC0 DUP5 ADD MSTORE PUSH1 0x40 MLOAD SWAP10 DUP11 SWAP5 DUP6 SWAP5 PUSH4 0xB03FBFBB PUSH1 0xE0 SHL DUP7 MSTORE CALLER PUSH1 0x4 DUP8 ADD MSTORE PUSH1 0x24 DUP7 ADD SWAP1 PUSH2 0x3EC0 JUMP JUMPDEST PUSH2 0x120 PUSH2 0x104 DUP6 ADD MSTORE PUSH2 0x124 DUP5 ADD SWAP2 PUSH2 0x3DD1 JUMP JUMPDEST SUB DUP2 DUP13 PUSH32 0x0 PUSH1 0x1 PUSH1 0x1 PUSH1 0xA0 SHL SUB AND GAS CALL SWAP5 DUP6 ISZERO PUSH2 0x1CD7 JUMPI DUP10 SWAP6 PUSH2 0x1C97 JUMPI JUMPDEST POP PUSH1 0x5 DUP6 SWAP1 SSTORE PUSH1 0x9 ADD SLOAD PUSH1 0x40 DUP1 MLOAD PUSH1 0xFF SWAP10 DUP11 AND DUP2 MSTORE SWAP9 DUP3 AND PUSH1 0x20 DUP11 ADD MSTORE PUSH1 0x1 PUSH1 0x1 PUSH1 0x40 SHL SUB SWAP1 SWAP4 AND SWAP3 DUP9 ADD SWAP3 SWAP1 SWAP3 MSTORE PUSH2 0xFFFF PUSH1 0x10 SWAP3 SWAP1 SWAP3 SHR SWAP1 SWAP6 AND AND PUSH1 0x60 DUP7 ADD MSTORE PUSH1 0x80 DUP6 ADD MSTORE PUSH1 0xA0 DUP5 ADD SWAP3 SWAP1 SWAP3 MSTORE PUSH1 0xC0 DUP4 ADD MSTORE CALLER SWAP2 PUSH1 0x4 CALLDATALOAD SWAP2 SWAP1 PUSH32 0x83A9EDC2809EED4960FD3CCB7DA06A85B3E878E6E1568E8CA281AE543ADCC493 SWAP1 DUP1 PUSH1 0xE0 DUP2 ADD PUSH2 0x11DB JUMP JUMPDEST SWAP2 SWAP5 POP SWAP5 PUSH1 0x20 DUP3 RETURNDATASIZE PUSH1 0x20 GT PUSH2 0x1CCF JUMPI JUMPDEST DUP2 PUSH2 0x1CB4 PUSH1 0x20 SWAP4 DUP4 PUSH2 0x3BD6 JUMP JUMPDEST DUP2 ADD SUB SLT PUSH2 0x1CCB JUMPI SWAP1 MLOAD SWAP1 SWAP5 SWAP1 SWAP4 SWAP1 PUSH2 0x11DB PUSH2 0x1C11 JUMP JUMPDEST DUP9 DUP1 REVERT JUMPDEST RETURNDATASIZE SWAP2 POP PUSH2 0x1CA7 JUMP JUMPDEST PUSH1 0x40 MLOAD RETURNDATASIZE DUP12 DUP3 RETURNDATACOPY RETURNDATASIZE SWAP1 REVERT JUMPDEST PUSH1 0x8 DUP5 ADD SLOAD SWAP2 SWAP6 POP PUSH2 0x1CF9 SWAP3 POP PUSH2 0xFFFF AND SWAP1 PUSH2 0x3EAD JUMP JUMPDEST PUSH3 0x15180 SWAP1 DUP1 DUP3 DUP2 MUL DIV DUP3 EQ DUP2 ISZERO OR ISZERO PUSH2 0x1D35 JUMPI DUP10 PUSH2 0x1BD4 PUSH1 0x1 PUSH1 0x1 PUSH1 0x40 SHL SUB PUSH2 0x1D2A PUSH1 0x20 SWAP6 PUSH2 0x1BC0 SWAP6 MUL TIMESTAMP PUSH2 0x3D92 JUMP JUMPDEST AND SWAP7 SWAP3 POP POP SWAP2 PUSH2 0x1B3B JUMP JUMPDEST PUSH4 0x4E487B71 PUSH1 0xE0 SHL DUP12 MSTORE PUSH1 0x11 PUSH1 0x4 MSTORE PUSH1 0x24 DUP12 REVERT JUMPDEST DUP5 DUP1 REVERT JUMPDEST POP CALLVALUE PUSH2 0x303 JUMPI PUSH2 0x180 CALLDATASIZE PUSH1 0x3 NOT ADD SLT PUSH2 0x303 JUMPI PUSH1 0x4 CALLDATALOAD PUSH1 0x1 PUSH1 0x1 PUSH1 0x40 SHL SUB DUP2 GT PUSH2 0x6D3 JUMPI PUSH2 0x1D7F SWAP1 CALLDATASIZE SWAP1 PUSH1 0x4 ADD PUSH2 0x3A91 JUMP JUMPDEST SWAP1 PUSH1 0x24 CALLDATALOAD PUSH1 0x1 PUSH1 0x1 PUSH1 0x40 SHL SUB DUP2 GT PUSH2 0x232C JUMPI PUSH2 0x1D9F SWAP1 CALLDATASIZE SWAP1 PUSH1 0x4 ADD PUSH2 0x3A91 JUMP JUMPDEST SWAP3 SWAP1 PUSH1 0x44 CALLDATALOAD PUSH1 0x1 PUSH1 0x1 PUSH1 0x40 SHL SUB DUP2 GT PUSH2 0x57F JUMPI PUSH2 0x1DC0 SWAP1 CALLDATASIZE SWAP1 PUSH1 0x4 ADD PUSH2 0x3A91 JUMP JUMPDEST SWAP3 SWAP1 SWAP4 PUSH2 0x1DCB PUSH2 0x3A01 JUMP JUMPDEST SWAP4 PUSH2 0x1E3A PUSH2 0x1DD7 PUSH2 0x3A11 JUMP JUMPDEST SWAP3 PUSH2 0x1DE0 PUSH2 0x3A64 JUMP JUMPDEST SWAP5 PUSH2 0x1DE9 PUSH2 0x3FDD JUMP JUMPDEST PUSH2 0x1DF4 PUSH1 0x64 CALLDATALOAD PUSH2 0x4103 JUMP JUMPDEST PUSH2 0x1E02 PUSH1 0x64 CALLDATALOAD PUSH1 0x6 SLOAD PUSH2 0x411F JUMP JUMPDEST PUSH2 0x1E0B DUP9 PUSH2 0x3FFB JUMP JUMPDEST PUSH2 0x1E14 DUP6 PUSH2 0x4041 JUMP JUMPDEST PUSH2 0x1E25 PUSH1 0xC4 CALLDATALOAD PUSH1 0xA4 CALLDATALOAD PUSH1 0x84 CALLDATALOAD PUSH2 0x4087 JUMP JUMPDEST PUSH2 0x1E31 PUSH2 0x144 CALLDATALOAD PUSH2 0x4144 JUMP JUMPDEST PUSH2 0x651 DUP7 PUSH2 0x4189 JUMP JUMPDEST PUSH1 0x20 DUP2 MLOAD SWAP2 ADD KECCAK256 CALLER DUP10 MSTORE PUSH1 0xB PUSH1 0x20 MSTORE PUSH1 0x40 DUP10 KECCAK256 SWAP1 DUP10 MSTORE PUSH1 0x20 MSTORE PUSH1 0x40 DUP9 KECCAK256 SWAP6 PUSH2 0xFFFF DUP1 PUSH1 0x1 DUP10 ADD SLOAD AND EQ PUSH2 0x583 JUMPI DUP7 SLOAD DUP1 PUSH2 0x229F JUMPI JUMPDEST POP PUSH1 0x9 SLOAD DUP1 ISZERO ISZERO SWAP1 DUP2 PUSH2 0x2292 JUMPI JUMPDEST POP PUSH2 0x2280 JUMPI PUSH1 0x4 SLOAD SWAP8 PUSH2 0x1E8F DUP10 PUSH2 0x3D83 JUMP JUMPDEST PUSH1 0x4 SSTORE DUP9 DUP11 MSTORE PUSH1 0xA PUSH1 0x20 MSTORE PUSH1 0x40 DUP11 KECCAK256 SWAP6 CALLER PUSH1 0x1 PUSH1 0x1 PUSH1 0x60 SHL SUB PUSH1 0xA0 SHL DUP9 SLOAD AND OR DUP8 SSTORE PUSH1 0x1 DUP8 ADD CALLER PUSH1 0x1 PUSH1 0x1 PUSH1 0x60 SHL SUB PUSH1 0xA0 SHL DUP3 SLOAD AND OR SWAP1 SSTORE PUSH1 0x1 PUSH1 0x1 PUSH1 0x40 SHL SUB DUP3 GT PUSH2 0x226C JUMPI DUP2 SWAP1 PUSH2 0x1EE4 PUSH1 0x2 DUP10 ADD SLOAD PUSH2 0x3B21 JUMP JUMPDEST PUSH1 0x1F DUP2 GT PUSH2 0x221A JUMPI JUMPDEST POP DUP12 SWAP1 PUSH1 0x1F DUP4 GT PUSH1 0x1 EQ PUSH2 0x21AE JUMPI DUP13 SWAP3 PUSH2 0x21A3 JUMPI JUMPDEST POP POP DUP2 PUSH1 0x1 SHL SWAP2 PUSH1 0x0 NOT SWAP1 PUSH1 0x3 SHL SHR NOT AND OR PUSH1 0x2 DUP7 ADD SSTORE JUMPDEST PUSH1 0x1 PUSH1 0x1 PUSH1 0x40 SHL SUB DUP3 GT PUSH2 0x218F JUMPI PUSH2 0x1F35 PUSH1 0x3 DUP7 ADD SLOAD PUSH2 0x3B21 JUMP JUMPDEST PUSH1 0x1F DUP2 GT PUSH2 0x214B JUMPI JUMPDEST POP DUP9 SWAP1 PUSH1 0x1F DUP4 GT PUSH1 0x1 EQ PUSH2 0x20D2 JUMPI SWAP3 DUP3 PUSH1 0x1 SWAP8 SWAP6 SWAP4 PUSH2 0x1FCD SWAP4 PUSH2 0xFFFF SWAP9 SWAP7 DUP14 SWAP3 PUSH2 0x20C7 JUMPI JUMPDEST POP POP DUP2 DUP10 SHL SWAP2 PUSH1 0x0 NOT SWAP1 PUSH1 0x3 SHL SHR NOT AND OR PUSH1 0x3 DUP6 ADD SSTORE JUMPDEST PUSH1 0x64 CALLDATALOAD PUSH1 0x4 DUP6 ADD SSTORE PUSH1 0x5 DUP5 ADD DUP1 SLOAD PUSH1 0xFF NOT AND DUP9 OR SWAP1 SSTORE PUSH1 0x84 CALLDATALOAD PUSH1 0x6 DUP6 ADD SSTORE PUSH1 0xA4 CALLDATALOAD PUSH1 0x7 DUP6 ADD SSTORE PUSH1 0xC4 CALLDATALOAD PUSH1 0x8 DUP1 DUP7 ADD SWAP2 SWAP1 SWAP2 SSTORE PUSH1 0x9 DUP6 ADD DUP1 SLOAD PUSH2 0xFFFF NOT AND PUSH1 0xFF SWAP8 SWAP1 SWAP8 AND SWAP7 SWAP1 SWAP7 OR SWAP2 SWAP1 SHL PUSH2 0xFF00 AND OR DUP5 SSTORE JUMP JUMPDEST PUSH2 0x124 CALLDATALOAD PUSH1 0xA DUP4 ADD SSTORE PUSH2 0x144 CALLDATALOAD PUSH1 0xB DUP4 ADD SSTORE PUSH1 0xA0 DUP6 SWAP1 SHL DUP6 SWAP1 SUB SWAP1 DUP1 DUP3 AND ISZERO PUSH2 0x20BD JUMPI PUSH1 0xC SWAP1 SWAP3 JUMPDEST ADD DUP1 SLOAD PUSH1 0x1 PUSH1 0x1 PUSH1 0xA0 SHL SUB NOT AND SWAP2 SWAP1 SWAP3 AND OR SWAP1 SSTORE DUP4 SLOAD ISZERO PUSH2 0x20A0 JUMPI PUSH2 0x203B PUSH2 0x2021 DUP4 DUP6 DUP8 ADD SLOAD AND PUSH2 0x3CDC JUMP JUMPDEST DUP3 SLOAD PUSH4 0xFFFF0000 NOT AND PUSH1 0x10 DUP3 SWAP1 SHL PUSH4 0xFFFF0000 AND OR SWAP1 SWAP3 SSTORE JUMP JUMPDEST DUP5 DUP5 SSTORE AND PUSH2 0xFFFF NOT DUP3 DUP5 ADD SLOAD AND OR SWAP2 ADD SSTORE PUSH1 0x8 SLOAD PUSH1 0x1 DUP2 ADD DUP1 SWAP2 GT PUSH2 0x830 JUMPI PUSH1 0x20 DUP2 PUSH1 0x0 DUP1 MLOAD PUSH1 0x20 PUSH2 0x4529 DUP4 CODECOPY DUP2 MLOAD SWAP2 MSTORE SWAP3 PUSH1 0x8 SSTORE PUSH1 0x40 MLOAD SWAP1 DUP2 MSTORE LOG1 CALLER SWAP1 PUSH32 0xDA0A1595D5F9A5872904CA8ECEB17D6BEFC55070D4FD387E4C2F1D4553DD01A DUP4 DUP1 LOG3 DUP1 RETURN JUMPDEST DUP1 SLOAD PUSH4 0xFFFF0000 NOT AND PUSH1 0x10 DUP5 SWAP1 SHL PUSH4 0xFFFF0000 AND OR SWAP1 SSTORE DUP2 PUSH2 0x203B JUMP JUMPDEST POP PUSH1 0xC CALLER SWAP3 PUSH2 0x1FF5 JUMP JUMPDEST ADD CALLDATALOAD SWAP1 POP CODESIZE DUP1 PUSH2 0x1F63 JUMP JUMPDEST PUSH1 0x3 DUP7 ADD DUP11 MSTORE PUSH1 0x20 DUP11 KECCAK256 SWAP2 DUP11 JUMPDEST PUSH1 0x1F NOT DUP6 AND DUP2 LT PUSH2 0x2133 JUMPI POP DUP4 PUSH2 0x1FCD SWAP4 PUSH2 0xFFFF SWAP9 SWAP7 SWAP4 PUSH1 0x1 SWAP11 SWAP9 SWAP7 SWAP4 DUP12 SWAP5 PUSH1 0x1F NOT DUP2 AND LT PUSH2 0x2119 JUMPI JUMPDEST POP POP POP DUP2 SHL ADD PUSH1 0x3 DUP6 ADD SSTORE PUSH2 0x1F7A JUMP JUMPDEST ADD CALLDATALOAD PUSH1 0x0 NOT PUSH1 0x3 DUP5 SWAP1 SHL PUSH1 0xF8 AND SHR NOT AND SWAP1 SSTORE CODESIZE DUP1 DUP1 PUSH2 0x2109 JUMP JUMPDEST SWAP1 SWAP3 PUSH1 0x20 PUSH1 0x1 DUP2 SWAP3 DUP7 DUP7 ADD CALLDATALOAD DUP2 SSTORE ADD SWAP5 ADD SWAP2 ADD PUSH2 0x20DF JUMP JUMPDEST PUSH1 0x3 DUP7 ADD DUP11 MSTORE PUSH1 0x20 DUP11 KECCAK256 PUSH1 0x1F DUP5 ADD PUSH1 0x5 SHR DUP2 ADD PUSH1 0x20 DUP6 LT PUSH2 0x2188 JUMPI JUMPDEST PUSH1 0x1F DUP4 ADD PUSH1 0x5 SHR DUP3 ADD DUP2 LT PUSH2 0x217D JUMPI POP POP PUSH2 0x1F3E JUMP JUMPDEST DUP12 DUP2 SSTORE PUSH1 0x1 ADD PUSH2 0x2167 JUMP JUMPDEST POP DUP1 PUSH2 0x2167 JUMP JUMPDEST PUSH4 0x4E487B71 PUSH1 0xE0 SHL DUP10 MSTORE PUSH1 0x41 PUSH1 0x4 MSTORE PUSH1 0x24 DUP10 REVERT JUMPDEST ADD CALLDATALOAD SWAP1 POP CODESIZE DUP1 PUSH2 0x1F02 JUMP JUMPDEST PUSH1 0x2 DUP10 ADD DUP14 MSTORE PUSH1 0x20 DUP14 KECCAK256 DUP14 SWAP5 POP SWAP2 JUMPDEST PUSH1 0x1F NOT DUP5 AND DUP6 LT PUSH2 0x2202 JUMPI PUSH1 0x1 SWAP5 POP DUP4 PUSH1 0x1F NOT DUP2 AND LT PUSH2 0x21E8 JUMPI JUMPDEST POP POP POP DUP2 SHL ADD PUSH1 0x2 DUP7 ADD SSTORE PUSH2 0x1F1A JUMP JUMPDEST ADD CALLDATALOAD PUSH1 0x0 NOT PUSH1 0x3 DUP5 SWAP1 SHL PUSH1 0xF8 AND SHR NOT AND SWAP1 SSTORE CODESIZE DUP1 DUP1 PUSH2 0x21D8 JUMP JUMPDEST DUP2 DUP2 ADD CALLDATALOAD DUP4 SSTORE PUSH1 0x20 SWAP5 DUP6 ADD SWAP5 PUSH1 0x1 SWAP1 SWAP4 ADD SWAP3 ADD PUSH2 0x21BD JUMP JUMPDEST SWAP1 SWAP2 POP PUSH1 0x2 DUP9 ADD DUP13 MSTORE PUSH1 0x20 DUP13 KECCAK256 PUSH1 0x1F DUP5 ADD PUSH1 0x5 SHR DUP2 ADD PUSH1 0x20 DUP6 LT PUSH2 0x2265 JUMPI JUMPDEST DUP5 SWAP4 SWAP3 SWAP2 SWAP1 DUP15 JUMPDEST PUSH1 0x1F DUP5 ADD PUSH1 0x5 SHR DUP4 ADD DUP3 LT PUSH2 0x2257 JUMPI POP POP POP PUSH2 0x1EED JUMP JUMPDEST DUP2 SSTORE DUP6 SWAP5 POP PUSH1 0x1 ADD DUP15 PUSH2 0x2240 JUMP JUMPDEST POP DUP1 PUSH2 0x2239 JUMP JUMPDEST PUSH4 0x4E487B71 PUSH1 0xE0 SHL DUP12 MSTORE PUSH1 0x41 PUSH1 0x4 MSTORE PUSH1 0x24 DUP12 REVERT JUMPDEST PUSH1 0x40 MLOAD PUSH4 0x57037669 PUSH1 0xE0 SHL DUP2 MSTORE PUSH1 0x4 SWAP1 REVERT JUMPDEST SWAP1 POP PUSH1 0x8 SLOAD LT ISZERO CODESIZE PUSH2 0x1E7D JUMP JUMPDEST DUP10 MSTORE PUSH1 0xA PUSH1 0x20 MSTORE PUSH1 0x40 DUP10 KECCAK256 PUSH1 0x5 DUP2 ADD DUP1 SLOAD PUSH1 0xFF DUP2 AND PUSH2 0x22C0 JUMPI JUMPDEST POP POP PUSH2 0x1E6F JUMP JUMPDEST PUSH1 0xFF NOT AND SWAP1 SSTORE PUSH1 0x8 SLOAD DUP1 PUSH2 0x22F8 JUMPI JUMPDEST POP DUP8 SLOAD SWAP1 SLOAD PUSH1 0x1 PUSH1 0x1 PUSH1 0xA0 SHL SUB AND SWAP1 PUSH1 0x0 DUP1 MLOAD PUSH1 0x20 PUSH2 0x4549 DUP4 CODECOPY DUP2 MLOAD SWAP2 MSTORE DUP12 DUP1 LOG3 CODESIZE DUP1 DUP1 PUSH2 0x22B9 JUMP JUMPDEST DUP1 PUSH1 0x0 NOT DUP2 ADD GT PUSH2 0x1D35 JUMPI PUSH1 0x0 NOT ADD PUSH1 0x8 DUP2 SWAP1 SSTORE PUSH1 0x40 MLOAD SWAP1 DUP2 MSTORE PUSH1 0x0 DUP1 MLOAD PUSH1 0x20 PUSH2 0x4529 DUP4 CODECOPY DUP2 MLOAD SWAP2 MSTORE SWAP1 PUSH1 0x20 SWAP1 LOG1 CODESIZE PUSH2 0x22CF JUMP JUMPDEST DUP4 DUP1 REVERT JUMPDEST POP CALLVALUE PUSH2 0x303 JUMPI PUSH1 0x40 SWAP1 PUSH2 0x2345 PUSH2 0x940 CALLDATASIZE PUSH2 0x3ABE JUMP JUMPDEST PUSH1 0x20 DUP2 MLOAD SWAP2 ADD KECCAK256 SWAP1 PUSH1 0x1 DUP1 PUSH1 0xA0 SHL SUB AND DUP3 MSTORE PUSH1 0xB PUSH1 0x20 MSTORE DUP3 DUP3 KECCAK256 SWAP1 DUP3 MSTORE PUSH1 0x20 MSTORE KECCAK256 DUP1 SLOAD PUSH2 0xDE8 PUSH1 0x2 PUSH2 0xFFFF PUSH1 0x1 DUP6 ADD SLOAD AND SWAP4 ADD SLOAD PUSH1 0x40 MLOAD SWAP4 DUP5 SWAP4 DUP5 PUSH2 0xFFFF PUSH1 0x40 SWAP3 SWAP6 SWAP5 SWAP4 PUSH1 0x60 DUP4 ADD SWAP7 DUP4 MSTORE AND PUSH1 0x20 DUP3 ADD MSTORE ADD MSTORE JUMP JUMPDEST POP CALLVALUE PUSH2 0x303 JUMPI DUP1 PUSH1 0x3 NOT CALLDATASIZE ADD SLT PUSH2 0x303 JUMPI PUSH1 0x7 SLOAD PUSH1 0x40 MLOAD PUSH1 0x1 PUSH1 0x1 PUSH1 0xA0 SHL SUB SWAP1 SWAP2 AND DUP2 MSTORE PUSH1 0x20 SWAP1 RETURN JUMPDEST POP CALLVALUE PUSH2 0x303 JUMPI PUSH1 0x40 CALLDATASIZE PUSH1 0x3 NOT ADD SLT PUSH2 0x303 JUMPI PUSH1 0x40 SWAP1 PUSH1 0x1 PUSH1 0x1 PUSH1 0xA0 SHL SUB PUSH2 0x23E8 PUSH2 0x3A4E JUMP JUMPDEST AND DUP2 MSTORE PUSH1 0xB PUSH1 0x20 MSTORE DUP2 DUP2 KECCAK256 PUSH1 0x24 CALLDATALOAD DUP3 MSTORE PUSH1 0x20 MSTORE KECCAK256 DUP1 SLOAD PUSH2 0xDE8 PUSH1 0x2 PUSH2 0xFFFF PUSH1 0x1 DUP6 ADD SLOAD AND SWAP4 ADD SLOAD PUSH1 0x40 MLOAD SWAP4 DUP5 SWAP4 DUP5 PUSH2 0xFFFF PUSH1 0x40 SWAP3 SWAP6 SWAP5 SWAP4 PUSH1 0x60 DUP4 ADD SWAP7 DUP4 MSTORE AND PUSH1 0x20 DUP3 ADD MSTORE ADD MSTORE JUMP JUMPDEST POP CALLVALUE PUSH2 0x303 JUMPI DUP1 PUSH1 0x3 NOT CALLDATASIZE ADD SLT PUSH2 0x303 JUMPI PUSH2 0x2449 PUSH2 0x40CE JUMP JUMPDEST PUSH1 0x3 SLOAD PUSH1 0xFF DUP2 AND ISZERO PUSH2 0x2489 JUMPI PUSH1 0xFF NOT AND PUSH1 0x3 SSTORE PUSH32 0x5DB9EE0A495BF2E6FF9C91A7834C1BA4FDD244A5E8AA4E537BD38AEAE4B073AA PUSH1 0x20 PUSH1 0x40 MLOAD CALLER DUP2 MSTORE LOG1 DUP1 RETURN JUMPDEST PUSH1 0x40 MLOAD PUSH4 0x8DFC202B PUSH1 0xE0 SHL DUP2 MSTORE PUSH1 0x4 SWAP1 REVERT JUMPDEST POP CALLVALUE PUSH2 0x303 JUMPI PUSH1 0x40 CALLDATASIZE PUSH1 0x3 NOT ADD SLT PUSH2 0x303 JUMPI PUSH1 0x4 CALLDATALOAD PUSH2 0x24B8 PUSH2 0x3A7B JUMP JUMPDEST PUSH2 0x24C0 PUSH2 0x40CE JUMP JUMPDEST PUSH2 0x24C9 DUP3 PUSH2 0x4103 JUMP JUMPDEST PUSH2 0x7D0 DUP3 GT PUSH2 0x252C JUMPI PUSH1 0x1 PUSH1 0x1 PUSH1 0xA0 SHL SUB AND DUP1 ISZERO PUSH2 0x41A JUMPI DUP2 PUSH1 0x40 SWAP2 PUSH32 0xC5732485634831B5E1B586E2011C5F2B392FE136310C230CF1F04D6CAF30C15A SWAP4 PUSH1 0x6 SSTORE DUP1 PUSH1 0x1 PUSH1 0x1 PUSH1 0x60 SHL SUB PUSH1 0xA0 SHL PUSH1 0x7 SLOAD AND OR PUSH1 0x7 SSTORE DUP3 MLOAD SWAP2 DUP3 MSTORE PUSH1 0x20 DUP3 ADD MSTORE LOG1 DUP1 RETURN JUMPDEST PUSH1 0x40 MLOAD PUSH4 0xC1BD8845 PUSH1 0xE0 SHL DUP2 MSTORE PUSH1 0x4 SWAP1 REVERT JUMPDEST POP CALLVALUE PUSH2 0x303 JUMPI PUSH1 0x20 DUP1 PUSH1 0x3 NOT CALLDATASIZE ADD SLT PUSH2 0x6D3 JUMPI PUSH1 0x40 MLOAD PUSH4 0x596E8909 PUSH1 0xE1 SHL DUP2 MSTORE PUSH1 0x4 DUP1 CALLDATALOAD SWAP1 DUP3 ADD DUP2 SWAP1 MSTORE SWAP2 PUSH1 0x1 PUSH1 0x1 PUSH1 0xA0 SHL SUB SWAP2 PUSH32 0x0 DUP4 AND SWAP2 PUSH1 0xE0 DUP3 PUSH1 0x24 DUP2 DUP7 GAS STATICCALL SWAP2 DUP3 ISZERO PUSH2 0x5CE JUMPI DUP7 SWAP3 PUSH2 0x26B9 JUMPI JUMPDEST POP DUP5 DUP7 MSTORE PUSH1 0xC DUP2 MSTORE DUP1 PUSH1 0xFF PUSH1 0x40 DUP9 KECCAK256 SLOAD AND SWAP6 PUSH1 0x24 PUSH1 0x40 MLOAD DUP1 SWAP7 DUP2 SWAP4 PUSH4 0x31A9108F PUSH1 0xE1 SHL DUP4 MSTORE PUSH1 0x4 DUP4 ADD MSTORE GAS STATICCALL SWAP3 DUP4 ISZERO PUSH2 0x5CE JUMPI SWAP6 PUSH1 0xC0 SWAP7 DUP2 SWAP5 PUSH2 0x269A JUMPI JUMPDEST POP PUSH1 0xFF DUP3 DUP5 ADD MLOAD AND SWAP2 PUSH1 0x1 PUSH1 0x1 PUSH1 0x40 SHL SUB PUSH1 0x60 DUP6 ADD MLOAD AND SWAP4 DUP8 PUSH1 0x0 EQ PUSH2 0x2635 JUMPI POP DUP2 JUMPDEST PUSH1 0x40 MLOAD SWAP8 ISZERO ISZERO DUP9 MSTORE ISZERO ISZERO SWAP1 DUP8 ADD MSTORE ISZERO ISZERO PUSH1 0x40 DUP7 ADD MSTORE PUSH1 0x60 DUP6 ADD MSTORE PUSH1 0x80 DUP5 ADD MSTORE AND PUSH1 0xA0 DUP3 ADD MSTORE RETURN JUMPDEST DUP4 ISZERO SWAP3 POP DUP3 ISZERO PUSH2 0x2690 JUMPI JUMPDEST PUSH1 0x40 ADD MLOAD PUSH1 0xFF AND SWAP2 DUP1 DUP1 PUSH2 0x267C JUMPI JUMPDEST SWAP3 DUP2 PUSH2 0x265D JUMPI JUMPDEST POP SWAP2 PUSH2 0x260E JUMP JUMPDEST PUSH1 0x2 DUP2 EQ SWAP2 POP DUP2 ISZERO PUSH2 0x2671 JUMPI JUMPDEST POP CODESIZE PUSH2 0x2656 JUMP JUMPDEST PUSH1 0x3 SWAP2 POP EQ CODESIZE PUSH2 0x266A JUMP JUMPDEST POP PUSH1 0x1 DUP4 EQ DUP1 PUSH2 0x264F JUMPI POP PUSH1 0x3 DUP4 EQ PUSH2 0x264F JUMP JUMPDEST TIMESTAMP DUP6 GT SWAP3 POP PUSH2 0x2640 JUMP JUMPDEST PUSH2 0x26B2 SWAP2 SWAP5 POP DUP3 RETURNDATASIZE DUP5 GT PUSH2 0xC9C JUMPI PUSH2 0xC8E DUP2 DUP4 PUSH2 0x3BD6 JUMP JUMPDEST SWAP3 CODESIZE PUSH2 0x25EB JUMP JUMPDEST PUSH2 0x26D3 SWAP2 SWAP3 POP PUSH1 0xE0 RETURNDATASIZE PUSH1 0xE0 GT PUSH2 0xCD8 JUMPI PUSH2 0xCC9 DUP2 DUP4 PUSH2 0x3BD6 JUMP JUMPDEST SWAP1 CODESIZE PUSH2 0x25AD JUMP JUMPDEST POP CALLVALUE PUSH2 0x303 JUMPI PUSH2 0x1A0 CALLDATASIZE PUSH1 0x3 NOT ADD SLT PUSH2 0x303 JUMPI PUSH1 0x4 CALLDATALOAD PUSH1 0x1 PUSH1 0x1 PUSH1 0x40 SHL SUB DUP2 GT PUSH2 0x6D3 JUMPI PUSH2 0x270C SWAP1 CALLDATASIZE SWAP1 PUSH1 0x4 ADD PUSH2 0x3A91 JUMP JUMPDEST SWAP2 SWAP1 PUSH1 0x24 CALLDATALOAD PUSH1 0x1 PUSH1 0x1 PUSH1 0x40 SHL SUB DUP2 GT PUSH2 0x5EB JUMPI PUSH2 0x272D SWAP1 CALLDATASIZE SWAP1 PUSH1 0x4 ADD PUSH2 0x3A91 JUMP JUMPDEST SWAP3 SWAP1 SWAP4 PUSH1 0x44 CALLDATALOAD PUSH1 0x1 PUSH1 0x1 PUSH1 0x40 SHL SUB DUP2 GT PUSH2 0x5EB JUMPI PUSH2 0x274F SWAP1 CALLDATASIZE SWAP1 PUSH1 0x4 ADD PUSH2 0x3A91 JUMP JUMPDEST SWAP1 SWAP6 PUSH2 0x2759 PUSH2 0x3A01 JUMP JUMPDEST SWAP2 PUSH2 0x2762 PUSH2 0x3A11 JUMP JUMPDEST SWAP1 PUSH2 0x276B PUSH2 0x3A64 JUMP JUMPDEST SWAP7 PUSH1 0x1 PUSH1 0x1 PUSH1 0x40 SHL SUB PUSH2 0x184 CALLDATALOAD GT PUSH2 0x2FD3 JUMPI PUSH1 0x60 PUSH2 0x184 CALLDATALOAD CALLDATASIZE SUB PUSH1 0x3 NOT ADD SLT PUSH2 0x2FD3 JUMPI PUSH2 0x27F5 SWAP1 PUSH2 0x279A PUSH2 0x3FDD JUMP JUMPDEST PUSH2 0x27A2 PUSH2 0x40E2 JUMP JUMPDEST DUP8 SWAP7 PUSH2 0x27AF PUSH1 0x64 CALLDATALOAD PUSH2 0x4103 JUMP JUMPDEST PUSH2 0x27BD PUSH1 0x64 CALLDATALOAD PUSH1 0x6 SLOAD PUSH2 0x411F JUMP JUMPDEST PUSH2 0x27C6 DUP8 PUSH2 0x3FFB JUMP JUMPDEST PUSH2 0x27CF DUP6 PUSH2 0x4041 JUMP JUMPDEST PUSH2 0x27E0 PUSH1 0xC4 CALLDATALOAD PUSH1 0xA4 CALLDATALOAD PUSH1 0x84 CALLDATALOAD PUSH2 0x4087 JUMP JUMPDEST PUSH2 0x27EC PUSH2 0x144 CALLDATALOAD PUSH2 0x4144 JUMP JUMPDEST PUSH2 0x651 DUP11 PUSH2 0x4189 JUMP JUMPDEST PUSH1 0x20 DUP2 MLOAD SWAP2 ADD KECCAK256 CALLER DUP8 MSTORE PUSH1 0xB PUSH1 0x20 MSTORE PUSH1 0x40 DUP8 KECCAK256 SWAP1 DUP8 MSTORE PUSH1 0x20 MSTORE PUSH1 0x40 DUP7 KECCAK256 SWAP9 PUSH2 0xFFFF DUP1 PUSH1 0x1 DUP13 ADD SLOAD AND EQ PUSH2 0x583 JUMPI DUP10 SLOAD DUP1 PUSH2 0x2F32 JUMPI JUMPDEST POP PUSH1 0x9 SLOAD DUP1 ISZERO ISZERO SWAP1 DUP2 PUSH2 0x2F25 JUMPI JUMPDEST POP PUSH2 0x2280 JUMPI PUSH1 0x4 SLOAD SWAP9 PUSH2 0x284A DUP11 PUSH2 0x3D83 JUMP JUMPDEST PUSH1 0x4 SSTORE DUP10 DUP9 MSTORE PUSH1 0xA PUSH1 0x20 MSTORE PUSH1 0x40 DUP9 KECCAK256 SWAP5 CALLER PUSH1 0x1 PUSH1 0x1 PUSH1 0x60 SHL SUB PUSH1 0xA0 SHL DUP8 SLOAD AND OR DUP7 SSTORE PUSH1 0x1 DUP7 ADD CALLER PUSH1 0x1 PUSH1 0x1 PUSH1 0x60 SHL SUB PUSH1 0xA0 SHL DUP3 SLOAD AND OR SWAP1 SSTORE PUSH1 0x1 PUSH1 0x1 PUSH1 0x40 SHL SUB DUP3 GT PUSH2 0x218F JUMPI DUP2 SWAP1 PUSH2 0x289F PUSH1 0x2 DUP9 ADD SLOAD PUSH2 0x3B21 JUMP JUMPDEST PUSH1 0x1F DUP2 GT PUSH2 0x2ED5 JUMPI JUMPDEST POP DUP10 SWAP1 PUSH1 0x1F DUP4 GT PUSH1 0x1 EQ PUSH2 0x2E69 JUMPI DUP11 SWAP3 PUSH2 0x2E5E JUMPI JUMPDEST POP POP DUP2 PUSH1 0x1 SHL SWAP2 PUSH1 0x0 NOT SWAP1 PUSH1 0x3 SHL SHR NOT AND OR PUSH1 0x2 DUP6 ADD SSTORE JUMPDEST PUSH1 0x1 PUSH1 0x1 PUSH1 0x40 SHL SUB DUP3 GT PUSH2 0x2E4A JUMPI PUSH2 0x28F0 PUSH1 0x3 DUP6 ADD SLOAD PUSH2 0x3B21 JUMP JUMPDEST PUSH1 0x1F DUP2 GT PUSH2 0x2E06 JUMPI JUMPDEST POP DUP7 SWAP1 PUSH1 0x1F DUP4 GT PUSH1 0x1 EQ PUSH2 0x2D90 JUMPI SWAP2 DUP1 PUSH2 0xFFFF SWAP7 SWAP6 SWAP5 SWAP3 PUSH2 0x2987 SWAP5 DUP11 SWAP3 PUSH2 0x2D85 JUMPI JUMPDEST POP POP DUP2 PUSH1 0x1 SHL SWAP2 PUSH1 0x0 NOT SWAP1 PUSH1 0x3 SHL SHR NOT AND OR PUSH1 0x3 DUP5 ADD SSTORE JUMPDEST PUSH1 0x64 CALLDATALOAD PUSH1 0x4 DUP5 ADD SSTORE PUSH1 0x5 DUP4 ADD DUP1 SLOAD PUSH1 0xFF NOT AND PUSH1 0x1 OR SWAP1 SSTORE PUSH1 0x84 CALLDATALOAD PUSH1 0x6 DUP5 ADD SSTORE PUSH1 0xA4 CALLDATALOAD PUSH1 0x7 DUP5 ADD SSTORE PUSH1 0xC4 CALLDATALOAD PUSH1 0x8 DUP1 DUP6 ADD SWAP2 SWAP1 SWAP2 SSTORE PUSH1 0x9 DUP5 ADD DUP1 SLOAD PUSH2 0xFFFF NOT AND PUSH1 0xFF SWAP7 SWAP1 SWAP7 AND SWAP6 SWAP1 SWAP6 OR SWAP2 SWAP1 SHL PUSH2 0xFF00 AND OR DUP4 SSTORE JUMP JUMPDEST PUSH2 0x124 CALLDATALOAD PUSH1 0xA DUP3 ADD SSTORE PUSH2 0x144 CALLDATALOAD PUSH1 0xB DUP3 ADD SSTORE PUSH1 0x1 PUSH1 0x1 PUSH1 0xA0 SHL SUB DUP7 AND ISZERO PUSH2 0x2D7C JUMPI PUSH1 0xC DUP7 SWAP2 JUMPDEST ADD DUP1 SLOAD PUSH1 0x1 PUSH1 0x1 PUSH1 0xA0 SHL SUB NOT AND PUSH1 0x1 PUSH1 0x1 PUSH1 0xA0 SHL SUB SWAP1 SWAP3 AND SWAP2 SWAP1 SWAP2 OR SWAP1 SSTORE DUP7 SLOAD ISZERO PUSH2 0x2D65 JUMPI PUSH2 0x29E4 PUSH2 0x2021 DUP4 PUSH1 0x1 DUP11 ADD SLOAD AND PUSH2 0x3CDC JUMP JUMPDEST DUP6 DUP8 SSTORE AND PUSH2 0xFFFF NOT PUSH1 0x1 DUP8 ADD SLOAD AND OR PUSH1 0x1 DUP7 ADD SSTORE PUSH1 0x8 SLOAD PUSH1 0x1 DUP2 ADD DUP2 GT PUSH2 0x830 JUMPI PUSH1 0x20 DUP2 PUSH1 0x1 PUSH1 0x0 DUP1 MLOAD PUSH1 0x20 PUSH2 0x4529 DUP4 CODECOPY DUP2 MLOAD SWAP2 MSTORE SWAP4 ADD PUSH1 0x8 SSTORE PUSH1 0x1 PUSH1 0x40 MLOAD SWAP2 ADD DUP2 MSTORE LOG1 PUSH1 0x40 MLOAD CALLER DUP6 PUSH32 0xDA0A1595D5F9A5872904CA8ECEB17D6BEFC55070D4FD387E4C2F1D4553DD01A DUP6 DUP1 LOG3 PUSH1 0x2 DUP7 ADD SLOAD SWAP1 DUP2 ISZERO DUP1 DUP1 PUSH2 0x2D4B JUMPI JUMPDEST ISZERO PUSH2 0x2BF4 JUMPI POP POP PUSH1 0xF SLOAD PUSH1 0x1 PUSH1 0x1 PUSH1 0xA0 SHL SUB AND SWAP4 SWAP2 POP POP DUP3 ISZERO PUSH2 0x5D9 JUMPI PUSH2 0x184 CALLDATALOAD PUSH1 0x24 ADD SWAP1 PUSH1 0x1 PUSH1 0x1 PUSH1 0xA0 SHL SUB PUSH2 0x2A96 DUP4 PUSH2 0x3DF2 JUMP JUMPDEST AND ISZERO PUSH2 0x2BD0 JUMPI POP PUSH2 0x2AA8 PUSH1 0x20 SWAP2 PUSH2 0x3DF2 JUMP JUMPDEST SWAP3 JUMPDEST PUSH2 0x2ABA PUSH1 0x4 PUSH2 0x184 CALLDATALOAD ADD DUP1 PUSH2 0x3D9F JUMP JUMPDEST SWAP2 SWAP1 SWAP5 DUP5 DUP8 PUSH2 0x2B2A PUSH2 0x2AD8 PUSH1 0x44 PUSH2 0x184 CALLDATALOAD ADD PUSH2 0x184 CALLDATALOAD PUSH1 0x4 ADD PUSH2 0x3D9F JUMP JUMPDEST PUSH2 0x2B18 PUSH1 0x40 MLOAD SWAP12 DUP13 SWAP10 DUP11 SWAP9 DUP10 SWAP8 PUSH4 0x37A1B719 PUSH1 0xE0 SHL DUP10 MSTORE CALLER PUSH1 0x4 DUP11 ADD MSTORE PUSH1 0x24 DUP10 ADD MSTORE PUSH1 0x1 DUP1 PUSH1 0xA0 SHL SUB AND PUSH1 0x44 DUP9 ADD MSTORE PUSH1 0xA0 PUSH1 0x64 DUP9 ADD MSTORE PUSH1 0xA4 DUP8 ADD SWAP2 PUSH2 0x3DD1 JUMP JUMPDEST DUP5 DUP2 SUB PUSH1 0x3 NOT ADD PUSH1 0x84 DUP7 ADD MSTORE SWAP2 PUSH2 0x3DD1 JUMP JUMPDEST SUB SWAP3 GAS CALL DUP1 SWAP3 DUP3 SWAP4 PUSH2 0x2B9C JUMPI JUMPDEST POP PUSH2 0x2B4E JUMPI PUSH1 0x40 MLOAD PUSH4 0x71A31C27 PUSH1 0xE0 SHL DUP2 MSTORE PUSH1 0x4 SWAP1 REVERT JUMPDEST DUP2 PUSH1 0x2 PUSH1 0x40 SWAP6 ADD SSTORE DUP2 DUP4 PUSH32 0x40CD9AD911657E73BC37DF0291D3B65B0DA93EEBFFD743E2E74B46536C3A30EC CALLER SWAP4 DUP1 LOG4 JUMPDEST PUSH2 0x2B8B PUSH1 0x64 CALLDATALOAD CALLER DUP5 PUSH2 0x41C0 JUMP JUMPDEST PUSH1 0x1 PUSH1 0x2 SSTORE DUP3 MLOAD SWAP2 DUP3 MSTORE PUSH1 0x20 DUP3 ADD MSTORE RETURN JUMPDEST SWAP1 SWAP3 POP PUSH1 0x20 DUP2 RETURNDATASIZE PUSH1 0x20 GT PUSH2 0x2BC8 JUMPI JUMPDEST DUP2 PUSH2 0x2BB8 PUSH1 0x20 SWAP4 DUP4 PUSH2 0x3BD6 JUMP JUMPDEST DUP2 ADD SUB SLT PUSH2 0x6D3 JUMPI MLOAD SWAP2 CODESIZE PUSH2 0x2B37 JUMP JUMPDEST RETURNDATASIZE SWAP2 POP PUSH2 0x2BAB JUMP JUMPDEST SWAP1 POP PUSH1 0x1 PUSH1 0x1 PUSH1 0xA0 SHL SUB DUP2 AND ISZERO PUSH2 0x2BEB JUMPI PUSH1 0x20 SWAP1 JUMPDEST SWAP3 PUSH2 0x2AAA JUMP JUMPDEST POP PUSH1 0x20 CALLER PUSH2 0x2BE5 JUMP JUMPDEST SWAP1 SWAP2 SWAP4 SWAP7 SWAP3 SWAP5 POP ISZERO PUSH2 0x2C0D JUMPI JUMPDEST POP POP POP PUSH1 0x40 SWAP3 POP PUSH2 0x2B7E JUMP JUMPDEST SWAP2 SWAP3 POP SWAP1 DUP3 CALLER DUP2 DUP7 PUSH32 0x40CD9AD911657E73BC37DF0291D3B65B0DA93EEBFFD743E2E74B46536C3A30EC DUP10 DUP1 LOG4 PUSH2 0x2C4F PUSH1 0x44 PUSH2 0x184 CALLDATALOAD ADD PUSH2 0x184 CALLDATALOAD PUSH1 0x4 ADD PUSH2 0x3D9F JUMP JUMPDEST SWAP1 POP ISZERO ISZERO DUP1 PUSH2 0x2D37 JUMPI JUMPDEST ISZERO PUSH2 0x2C01 JUMPI PUSH1 0xF SLOAD PUSH1 0x1 PUSH1 0x1 PUSH1 0xA0 SHL SUB AND SWAP1 PUSH2 0x2C7F PUSH2 0x184 CALLDATALOAD PUSH1 0x44 DUP2 ADD SWAP1 PUSH1 0x4 ADD PUSH2 0x3D9F JUMP JUMPDEST SWAP1 SWAP2 DUP4 EXTCODESIZE ISZERO PUSH2 0x1CCB JUMPI DUP9 DUP6 PUSH2 0x2CB5 DUP2 SWAP6 PUSH1 0x40 SWAP13 SWAP8 SWAP6 DUP4 SWAP6 PUSH4 0xB2D8593D PUSH1 0xE0 SHL DUP6 MSTORE PUSH1 0x4 DUP6 ADD MSTORE DUP14 PUSH1 0x24 DUP6 ADD MSTORE PUSH1 0x44 DUP5 ADD SWAP2 PUSH2 0x3DD1 JUMP JUMPDEST SUB SWAP3 GAS CALL SWAP1 DUP2 PUSH2 0x2D28 JUMPI JUMPDEST POP PUSH2 0x2CCD JUMPI JUMPDEST DUP1 DUP1 PUSH2 0x2C01 JUMP JUMPDEST PUSH1 0x2 ADD SLOAD DUP3 PUSH32 0x3CB407773E5C351F31E21929EF7F1DB8DDF609610F0F8E462599E9DB21B71B93 PUSH2 0x2D09 PUSH1 0x44 PUSH2 0x184 CALLDATALOAD ADD PUSH2 0x184 CALLDATALOAD PUSH1 0x4 ADD PUSH2 0x3D9F JUMP JUMPDEST PUSH2 0x2D1F DUP9 MLOAD SWAP3 DUP4 SWAP3 PUSH1 0x20 DUP5 MSTORE PUSH1 0x20 DUP5 ADD SWAP2 PUSH2 0x3DD1 JUMP JUMPDEST SUB SWAP1 LOG3 CODESIZE PUSH2 0x2CC6 JUMP JUMPDEST PUSH2 0x2D31 SWAP1 PUSH2 0x3B8C JUMP JUMPDEST CODESIZE PUSH2 0x2CC0 JUMP JUMPDEST POP PUSH1 0xF SLOAD PUSH1 0x1 PUSH1 0x1 PUSH1 0xA0 SHL SUB AND ISZERO ISZERO PUSH2 0x2C59 JUMP JUMPDEST POP PUSH2 0x2D5C PUSH1 0x4 PUSH2 0x184 CALLDATALOAD ADD DUP1 PUSH2 0x3D9F JUMP JUMPDEST SWAP1 POP ISZERO ISZERO PUSH2 0x2A60 JUMP JUMPDEST DUP1 SLOAD PUSH4 0xFFFF0000 NOT AND PUSH3 0x10000 OR SWAP1 SSTORE PUSH1 0x1 PUSH2 0x29E4 JUMP JUMPDEST PUSH1 0xC CALLER SWAP2 PUSH2 0x29AD JUMP JUMPDEST ADD CALLDATALOAD SWAP1 POP CODESIZE DUP1 PUSH2 0x291B JUMP JUMPDEST PUSH1 0x3 DUP6 ADD DUP9 MSTORE PUSH1 0x20 DUP9 KECCAK256 SWAP2 DUP9 JUMPDEST PUSH1 0x1F NOT DUP6 AND DUP2 LT PUSH2 0x2DEE JUMPI POP SWAP3 PUSH2 0xFFFF SWAP7 SWAP6 SWAP5 SWAP3 PUSH1 0x1 SWAP3 PUSH2 0x2987 SWAP6 DUP4 PUSH1 0x1F NOT DUP2 AND LT PUSH2 0x2DD4 JUMPI JUMPDEST POP POP POP DUP2 SHL ADD PUSH1 0x3 DUP5 ADD SSTORE PUSH2 0x2933 JUMP JUMPDEST ADD CALLDATALOAD PUSH1 0x0 NOT PUSH1 0x3 DUP5 SWAP1 SHL PUSH1 0xF8 AND SHR NOT AND SWAP1 SSTORE CODESIZE DUP1 DUP1 PUSH2 0x2DC4 JUMP JUMPDEST SWAP1 SWAP3 PUSH1 0x20 PUSH1 0x1 DUP2 SWAP3 DUP7 DUP7 ADD CALLDATALOAD DUP2 SSTORE ADD SWAP5 ADD SWAP2 ADD PUSH2 0x2D9D JUMP JUMPDEST PUSH1 0x3 DUP6 ADD DUP9 MSTORE PUSH1 0x20 DUP9 KECCAK256 PUSH1 0x1F DUP5 ADD PUSH1 0x5 SHR DUP2 ADD PUSH1 0x20 DUP6 LT PUSH2 0x2E43 JUMPI JUMPDEST PUSH1 0x1F DUP4 ADD PUSH1 0x5 SHR DUP3 ADD DUP2 LT PUSH2 0x2E38 JUMPI POP POP PUSH2 0x28F9 JUMP JUMPDEST DUP10 DUP2 SSTORE PUSH1 0x1 ADD PUSH2 0x2E22 JUMP JUMPDEST POP DUP1 PUSH2 0x2E22 JUMP JUMPDEST PUSH4 0x4E487B71 PUSH1 0xE0 SHL DUP8 MSTORE PUSH1 0x41 PUSH1 0x4 MSTORE PUSH1 0x24 DUP8 REVERT JUMPDEST ADD CALLDATALOAD SWAP1 POP CODESIZE DUP1 PUSH2 0x28BD JUMP JUMPDEST PUSH1 0x2 DUP9 ADD DUP12 MSTORE PUSH1 0x20 DUP12 KECCAK256 DUP12 SWAP5 POP SWAP2 JUMPDEST PUSH1 0x1F NOT DUP5 AND DUP6 LT PUSH2 0x2EBD JUMPI PUSH1 0x1 SWAP5 POP DUP4 PUSH1 0x1F NOT DUP2 AND LT PUSH2 0x2EA3 JUMPI JUMPDEST POP POP POP DUP2 SHL ADD PUSH1 0x2 DUP6 ADD SSTORE PUSH2 0x28D5 JUMP JUMPDEST ADD CALLDATALOAD PUSH1 0x0 NOT PUSH1 0x3 DUP5 SWAP1 SHL PUSH1 0xF8 AND SHR NOT AND SWAP1 SSTORE CODESIZE DUP1 DUP1 PUSH2 0x2E93 JUMP JUMPDEST DUP2 DUP2 ADD CALLDATALOAD DUP4 SSTORE PUSH1 0x20 SWAP5 DUP6 ADD SWAP5 PUSH1 0x1 SWAP1 SWAP4 ADD SWAP3 ADD PUSH2 0x2E78 JUMP JUMPDEST SWAP1 SWAP2 POP PUSH1 0x2 DUP8 ADD DUP11 MSTORE PUSH1 0x20 DUP11 KECCAK256 PUSH1 0x1F DUP5 ADD PUSH1 0x5 SHR DUP2 ADD PUSH1 0x20 DUP6 LT PUSH2 0x2F1E JUMPI JUMPDEST SWAP1 DUP5 SWAP4 SWAP3 SWAP2 JUMPDEST PUSH1 0x1F DUP4 ADD PUSH1 0x5 SHR DUP3 ADD DUP2 LT PUSH2 0x2F10 JUMPI POP POP PUSH2 0x28A8 JUMP JUMPDEST DUP13 DUP2 SSTORE DUP6 SWAP5 POP PUSH1 0x1 ADD PUSH2 0x2EFA JUMP JUMPDEST POP DUP1 PUSH2 0x2EF4 JUMP JUMPDEST SWAP1 POP PUSH1 0x8 SLOAD LT ISZERO CODESIZE PUSH2 0x2838 JUMP JUMPDEST DUP8 MSTORE PUSH1 0xA PUSH1 0x20 MSTORE PUSH1 0x40 DUP8 KECCAK256 PUSH1 0x5 DUP2 ADD DUP1 SLOAD PUSH1 0xFF DUP2 AND PUSH2 0x2F53 JUMPI JUMPDEST POP POP PUSH2 0x282A JUMP JUMPDEST PUSH1 0xFF NOT AND SWAP1 SSTORE PUSH1 0x8 SLOAD DUP1 PUSH2 0x2F8B JUMPI JUMPDEST POP DUP11 SLOAD SWAP1 SLOAD PUSH1 0x1 PUSH1 0x1 PUSH1 0xA0 SHL SUB AND SWAP1 PUSH1 0x0 DUP1 MLOAD PUSH1 0x20 PUSH2 0x4549 DUP4 CODECOPY DUP2 MLOAD SWAP2 MSTORE DUP10 DUP1 LOG3 CODESIZE DUP1 DUP1 PUSH2 0x2F4C JUMP JUMPDEST DUP1 PUSH1 0x0 NOT DUP2 ADD GT PUSH2 0x2FBF JUMPI PUSH1 0x0 NOT ADD PUSH1 0x8 DUP2 SWAP1 SSTORE PUSH1 0x40 MLOAD SWAP1 DUP2 MSTORE PUSH1 0x0 DUP1 MLOAD PUSH1 0x20 PUSH2 0x4529 DUP4 CODECOPY DUP2 MLOAD SWAP2 MSTORE SWAP1 PUSH1 0x20 SWAP1 LOG1 CODESIZE PUSH2 0x2F62 JUMP JUMPDEST PUSH4 0x4E487B71 PUSH1 0xE0 SHL DUP10 MSTORE PUSH1 0x11 PUSH1 0x4 MSTORE PUSH1 0x24 DUP10 REVERT JUMPDEST DUP7 DUP1 REVERT JUMPDEST POP CALLVALUE PUSH2 0x303 JUMPI DUP1 PUSH1 0x3 NOT CALLDATASIZE ADD SLT PUSH2 0x303 JUMPI PUSH1 0x10 SLOAD PUSH1 0x40 MLOAD PUSH1 0x1 PUSH1 0x1 PUSH1 0xA0 SHL SUB SWAP1 SWAP2 AND DUP2 MSTORE PUSH1 0x20 SWAP1 RETURN JUMPDEST POP CALLVALUE PUSH2 0x303 JUMPI PUSH2 0x140 CALLDATASIZE PUSH1 0x3 NOT ADD SLT PUSH2 0x303 JUMPI PUSH1 0x4 CALLDATALOAD PUSH1 0x1 PUSH1 0x1 PUSH1 0x40 SHL SUB DUP2 GT PUSH2 0x6D3 JUMPI PUSH2 0x3032 SWAP1 CALLDATASIZE SWAP1 PUSH1 0x4 ADD PUSH2 0x3A91 JUMP JUMPDEST PUSH1 0x24 CALLDATALOAD PUSH1 0x1 PUSH1 0x1 PUSH1 0x40 SHL SUB DUP2 GT PUSH2 0x232C JUMPI PUSH2 0x3051 SWAP1 CALLDATASIZE SWAP1 PUSH1 0x4 ADD PUSH2 0x3A91 JUMP JUMPDEST SWAP3 SWAP1 PUSH1 0x44 CALLDATALOAD PUSH1 0x1 PUSH1 0x1 PUSH1 0x40 SHL SUB DUP2 GT PUSH2 0x57F JUMPI PUSH2 0x3072 SWAP1 CALLDATASIZE SWAP1 PUSH1 0x4 ADD PUSH2 0x3A91 JUMP JUMPDEST PUSH2 0x30CE PUSH2 0x3080 SWAP6 SWAP3 SWAP6 PUSH2 0x3A01 JUMP JUMPDEST SWAP5 PUSH2 0x3089 PUSH2 0x3A11 JUMP JUMPDEST SWAP4 PUSH2 0x3092 PUSH2 0x3FDD JUMP JUMPDEST PUSH2 0x309D PUSH1 0x64 CALLDATALOAD PUSH2 0x4103 JUMP JUMPDEST PUSH2 0x30AB PUSH1 0x64 CALLDATALOAD PUSH1 0x6 SLOAD PUSH2 0x411F JUMP JUMPDEST PUSH2 0x30B4 DUP8 PUSH2 0x3FFB JUMP JUMPDEST PUSH2 0x30BD DUP6 PUSH2 0x4041 JUMP JUMPDEST PUSH2 0x651 PUSH1 0xC4 CALLDATALOAD PUSH1 0xA4 CALLDATALOAD PUSH1 0x84 CALLDATALOAD PUSH2 0x4087 JUMP JUMPDEST PUSH1 0x20 DUP2 MLOAD SWAP2 ADD KECCAK256 CALLER DUP9 MSTORE PUSH1 0xB PUSH1 0x20 MSTORE PUSH1 0x40 DUP9 KECCAK256 SWAP1 DUP9 MSTORE PUSH1 0x20 MSTORE PUSH1 0x40 DUP8 KECCAK256 SWAP5 PUSH2 0xFFFF DUP1 PUSH1 0x1 DUP9 ADD SLOAD AND EQ PUSH2 0x583 JUMPI DUP6 SLOAD DUP1 PUSH2 0x34EE JUMPI JUMPDEST POP PUSH1 0x9 SLOAD DUP1 ISZERO ISZERO SWAP1 DUP2 PUSH2 0x34E1 JUMPI JUMPDEST POP PUSH2 0x2280 JUMPI PUSH1 0x4 SLOAD SWAP7 PUSH2 0x3123 DUP9 PUSH2 0x3D83 JUMP JUMPDEST PUSH1 0x4 SSTORE DUP8 DUP10 MSTORE PUSH1 0xA PUSH1 0x20 MSTORE PUSH1 0x40 DUP10 KECCAK256 SWAP5 CALLER PUSH1 0x1 PUSH1 0x1 PUSH1 0x60 SHL SUB PUSH1 0xA0 SHL DUP8 SLOAD AND OR DUP7 SSTORE PUSH1 0x1 DUP7 ADD CALLER PUSH1 0x1 PUSH1 0x1 PUSH1 0x60 SHL SUB PUSH1 0xA0 SHL DUP3 SLOAD AND OR SWAP1 SSTORE PUSH1 0x1 PUSH1 0x1 PUSH1 0x40 SHL SUB DUP3 GT PUSH2 0x34CD JUMPI DUP2 SWAP1 PUSH2 0x3178 PUSH1 0x2 DUP9 ADD SLOAD PUSH2 0x3B21 JUMP JUMPDEST PUSH1 0x1F DUP2 GT PUSH2 0x347C JUMPI JUMPDEST POP DUP11 SWAP1 PUSH1 0x1F DUP4 GT PUSH1 0x1 EQ PUSH2 0x3410 JUMPI DUP12 SWAP3 PUSH2 0x3405 JUMPI JUMPDEST POP POP DUP2 PUSH1 0x1 SHL SWAP2 PUSH1 0x0 NOT SWAP1 PUSH1 0x3 SHL SHR NOT AND OR PUSH1 0x2 DUP6 ADD SSTORE JUMPDEST PUSH1 0x1 PUSH1 0x1 PUSH1 0x40 SHL SUB DUP3 GT PUSH2 0x33F1 JUMPI PUSH2 0x31C9 PUSH1 0x3 DUP6 ADD SLOAD PUSH2 0x3B21 JUMP JUMPDEST PUSH1 0x1F DUP2 GT PUSH2 0x33AD JUMPI JUMPDEST POP DUP8 SWAP1 PUSH1 0x1F DUP4 GT PUSH1 0x1 EQ PUSH2 0x3334 JUMPI PUSH1 0x1 SWAP6 SWAP4 DUP4 PUSH1 0xC SWAP5 PUSH2 0xFFFF SWAP8 SWAP5 PUSH2 0x3262 SWAP5 DUP14 SWAP3 PUSH2 0x3329 JUMPI JUMPDEST POP POP DUP2 DUP10 SHL SWAP2 PUSH1 0x0 NOT SWAP1 PUSH1 0x3 SHL SHR NOT AND OR PUSH1 0x3 DUP5 ADD SSTORE JUMPDEST PUSH1 0x64 CALLDATALOAD PUSH1 0x4 DUP5 ADD SSTORE PUSH1 0x5 DUP4 ADD DUP1 SLOAD PUSH1 0xFF NOT AND DUP9 OR SWAP1 SSTORE PUSH1 0x84 CALLDATALOAD PUSH1 0x6 DUP5 ADD SSTORE PUSH1 0xA4 CALLDATALOAD PUSH1 0x7 DUP5 ADD SSTORE PUSH1 0xC4 CALLDATALOAD PUSH1 0x8 DUP1 DUP6 ADD SWAP2 SWAP1 SWAP2 SSTORE PUSH1 0x9 DUP5 ADD DUP1 SLOAD PUSH2 0xFFFF NOT AND PUSH1 0xFF SWAP8 SWAP1 SWAP8 AND SWAP7 SWAP1 SWAP7 OR SWAP2 SWAP1 SHL PUSH2 0xFF00 AND OR DUP5 SSTORE JUMP JUMPDEST PUSH2 0x124 CALLDATALOAD PUSH1 0xA DUP3 ADD SSTORE PUSH1 0xB DUP2 ADD DUP9 SWAP1 SSTORE ADD DUP1 SLOAD PUSH1 0x1 PUSH1 0x1 PUSH1 0xA0 SHL SUB NOT AND CALLER OR SWAP1 SSTORE DUP4 SLOAD ISZERO PUSH2 0x330C JUMPI PUSH2 0x329B PUSH2 0x2021 DUP4 DUP6 DUP8 ADD SLOAD AND PUSH2 0x3CDC JUMP JUMPDEST DUP5 DUP5 SSTORE AND PUSH2 0xFFFF NOT DUP3 DUP5 ADD SLOAD AND OR SWAP2 ADD SSTORE PUSH1 0x8 SLOAD PUSH1 0x1 DUP2 ADD DUP1 SWAP2 GT PUSH2 0x830 JUMPI SWAP1 PUSH1 0x0 DUP1 MLOAD PUSH1 0x20 PUSH2 0x4529 DUP4 CODECOPY DUP2 MLOAD SWAP2 MSTORE PUSH1 0x20 DUP4 PUSH2 0x7FE SWAP5 PUSH1 0x8 SSTORE PUSH1 0x40 MLOAD SWAP1 DUP2 MSTORE LOG1 CALLER DUP2 PUSH32 0xDA0A1595D5F9A5872904CA8ECEB17D6BEFC55070D4FD387E4C2F1D4553DD01A DUP6 DUP1 LOG3 PUSH1 0x64 CALLDATALOAD SWAP1 CALLER SWAP1 PUSH2 0x41C0 JUMP JUMPDEST DUP1 SLOAD PUSH4 0xFFFF0000 NOT AND PUSH1 0x10 DUP5 SWAP1 SHL PUSH4 0xFFFF0000 AND OR SWAP1 SSTORE DUP2 PUSH2 0x329B JUMP JUMPDEST ADD CALLDATALOAD SWAP1 POP CODESIZE DUP1 PUSH2 0x31F8 JUMP JUMPDEST PUSH1 0x3 DUP6 ADD DUP10 MSTORE PUSH1 0x20 DUP10 KECCAK256 SWAP2 DUP10 JUMPDEST PUSH1 0x1F NOT DUP6 AND DUP2 LT PUSH2 0x3395 JUMPI POP SWAP4 PUSH1 0x1 DUP5 PUSH2 0xFFFF SWAP8 SWAP5 PUSH2 0x3262 SWAP5 DUP4 SWAP11 SWAP9 PUSH1 0xC SWAP9 PUSH1 0x1F NOT DUP2 AND LT PUSH2 0x337B JUMPI JUMPDEST POP POP POP DUP2 SHL ADD PUSH1 0x3 DUP5 ADD SSTORE PUSH2 0x320F JUMP JUMPDEST ADD CALLDATALOAD PUSH1 0x0 NOT PUSH1 0x3 DUP5 SWAP1 SHL PUSH1 0xF8 AND SHR NOT AND SWAP1 SSTORE CODESIZE DUP1 DUP1 PUSH2 0x336B JUMP JUMPDEST SWAP1 SWAP3 PUSH1 0x20 PUSH1 0x1 DUP2 SWAP3 DUP7 DUP7 ADD CALLDATALOAD DUP2 SSTORE ADD SWAP5 ADD SWAP2 ADD PUSH2 0x3341 JUMP JUMPDEST PUSH1 0x3 DUP6 ADD DUP10 MSTORE PUSH1 0x20 DUP10 KECCAK256 PUSH1 0x1F DUP5 ADD PUSH1 0x5 SHR DUP2 ADD PUSH1 0x20 DUP6 LT PUSH2 0x33EA JUMPI JUMPDEST PUSH1 0x1F DUP4 ADD PUSH1 0x5 SHR DUP3 ADD DUP2 LT PUSH2 0x33DF JUMPI POP POP PUSH2 0x31D2 JUMP JUMPDEST DUP11 DUP2 SSTORE PUSH1 0x1 ADD PUSH2 0x33C9 JUMP JUMPDEST POP DUP1 PUSH2 0x33C9 JUMP JUMPDEST PUSH4 0x4E487B71 PUSH1 0xE0 SHL DUP9 MSTORE PUSH1 0x41 PUSH1 0x4 MSTORE PUSH1 0x24 DUP9 REVERT JUMPDEST ADD CALLDATALOAD SWAP1 POP CODESIZE DUP1 PUSH2 0x3196 JUMP JUMPDEST PUSH1 0x2 DUP9 ADD DUP13 MSTORE PUSH1 0x20 DUP13 KECCAK256 DUP13 SWAP5 POP SWAP2 JUMPDEST PUSH1 0x1F NOT DUP5 AND DUP6 LT PUSH2 0x3464 JUMPI PUSH1 0x1 SWAP5 POP DUP4 PUSH1 0x1F NOT DUP2 AND LT PUSH2 0x344A JUMPI JUMPDEST POP POP POP DUP2 SHL ADD PUSH1 0x2 DUP6 ADD SSTORE PUSH2 0x31AE JUMP JUMPDEST ADD CALLDATALOAD PUSH1 0x0 NOT PUSH1 0x3 DUP5 SWAP1 SHL PUSH1 0xF8 AND SHR NOT AND SWAP1 SSTORE CODESIZE DUP1 DUP1 PUSH2 0x343A JUMP JUMPDEST DUP2 DUP2 ADD CALLDATALOAD DUP4 SSTORE PUSH1 0x20 SWAP5 DUP6 ADD SWAP5 PUSH1 0x1 SWAP1 SWAP4 ADD SWAP3 ADD PUSH2 0x341F JUMP JUMPDEST SWAP1 SWAP2 POP PUSH1 0x2 DUP8 ADD DUP12 MSTORE PUSH1 0x20 DUP12 KECCAK256 PUSH1 0x1F DUP5 ADD PUSH1 0x5 SHR DUP2 ADD PUSH1 0x20 DUP6 LT PUSH2 0x34C6 JUMPI JUMPDEST SWAP1 DUP5 SWAP4 SWAP3 SWAP2 JUMPDEST DUP14 PUSH1 0x1F DUP5 ADD PUSH1 0x5 SHR DUP4 ADD DUP3 LT PUSH2 0x34B9 JUMPI POP POP POP PUSH2 0x3181 JUMP JUMPDEST DUP2 SSTORE DUP6 SWAP5 POP PUSH1 0x1 ADD PUSH2 0x34A1 JUMP JUMPDEST POP DUP1 PUSH2 0x349B JUMP JUMPDEST PUSH4 0x4E487B71 PUSH1 0xE0 SHL DUP11 MSTORE PUSH1 0x41 PUSH1 0x4 MSTORE PUSH1 0x24 DUP11 REVERT JUMPDEST SWAP1 POP PUSH1 0x8 SLOAD LT ISZERO CODESIZE PUSH2 0x3111 JUMP JUMPDEST DUP9 MSTORE PUSH1 0xA PUSH1 0x20 MSTORE PUSH1 0x40 DUP9 KECCAK256 PUSH1 0x5 DUP2 ADD DUP1 SLOAD PUSH1 0xFF DUP2 AND PUSH2 0x350F JUMPI JUMPDEST POP POP PUSH2 0x3103 JUMP JUMPDEST PUSH1 0xFF NOT AND SWAP1 SSTORE PUSH1 0x8 SLOAD DUP1 PUSH2 0x3547 JUMPI JUMPDEST POP DUP7 SLOAD SWAP1 SLOAD PUSH1 0x1 PUSH1 0x1 PUSH1 0xA0 SHL SUB AND SWAP1 PUSH1 0x0 DUP1 MLOAD PUSH1 0x20 PUSH2 0x4549 DUP4 CODECOPY DUP2 MLOAD SWAP2 MSTORE DUP11 DUP1 LOG3 CODESIZE DUP1 DUP1 PUSH2 0x3508 JUMP JUMPDEST DUP1 PUSH1 0x0 NOT DUP2 ADD GT PUSH2 0x357B JUMPI PUSH1 0x0 NOT ADD PUSH1 0x8 DUP2 SWAP1 SSTORE PUSH1 0x40 MLOAD SWAP1 DUP2 MSTORE PUSH1 0x0 DUP1 MLOAD PUSH1 0x20 PUSH2 0x4529 DUP4 CODECOPY DUP2 MLOAD SWAP2 MSTORE SWAP1 PUSH1 0x20 SWAP1 LOG1 CODESIZE PUSH2 0x351E JUMP JUMPDEST PUSH4 0x4E487B71 PUSH1 0xE0 SHL DUP11 MSTORE PUSH1 0x11 PUSH1 0x4 MSTORE PUSH1 0x24 DUP11 REVERT JUMPDEST POP CALLVALUE PUSH2 0x303 JUMPI PUSH1 0x20 CALLDATASIZE PUSH1 0x3 NOT ADD SLT PUSH2 0x303 JUMPI PUSH2 0x35A9 PUSH2 0x3A4E JUMP JUMPDEST PUSH2 0x35B1 PUSH2 0x40CE JUMP JUMPDEST PUSH1 0x1 PUSH1 0x1 PUSH1 0xA0 SHL SUB AND DUP1 ISZERO PUSH2 0x41A JUMPI PUSH1 0xF DUP1 SLOAD PUSH1 0x1 PUSH1 0x1 PUSH1 0xA0 SHL SUB NOT AND DUP3 OR SWAP1 SSTORE PUSH32 0x1C3B6DB6B438DF64D69FE11676A03581A3860962063A836411D7CAC590063F56 DUP3 DUP1 LOG2 DUP1 RETURN JUMPDEST POP CALLVALUE PUSH2 0x303 JUMPI DUP1 PUSH1 0x3 NOT CALLDATASIZE ADD SLT PUSH2 0x303 JUMPI PUSH1 0x20 PUSH1 0x6 SLOAD PUSH1 0x40 MLOAD SWAP1 DUP2 MSTORE RETURN JUMPDEST POP CALLVALUE PUSH2 0x303 JUMPI PUSH1 0x20 CALLDATASIZE PUSH1 0x3 NOT ADD SLT PUSH2 0x303 JUMPI PUSH1 0x4 CALLDATALOAD DUP1 DUP3 MSTORE PUSH1 0xA PUSH1 0x20 MSTORE PUSH1 0x40 DUP3 KECCAK256 SLOAD PUSH1 0x1 PUSH1 0x1 PUSH1 0xA0 SHL SUB AND CALLER SUB PUSH2 0x42C JUMPI DUP2 MSTORE PUSH1 0xD PUSH1 0x20 MSTORE DUP1 PUSH1 0x1 PUSH1 0x40 DUP3 KECCAK256 DUP3 DUP2 SSTORE ADD SSTORE DUP1 RETURN JUMPDEST POP CALLVALUE PUSH2 0x303 JUMPI DUP1 PUSH1 0x3 NOT CALLDATASIZE ADD SLT PUSH2 0x303 JUMPI PUSH1 0x20 PUSH1 0x9 SLOAD PUSH1 0x40 MLOAD SWAP1 DUP2 MSTORE RETURN JUMPDEST POP CALLVALUE PUSH2 0x303 JUMPI PUSH1 0x20 DUP1 PUSH1 0x3 NOT CALLDATASIZE ADD SLT PUSH2 0x6D3 JUMPI PUSH1 0x4 CALLDATALOAD DUP1 DUP4 MSTORE PUSH1 0xA DUP3 MSTORE PUSH1 0x40 DUP4 KECCAK256 DUP1 SLOAD SWAP2 SWAP3 SWAP2 PUSH1 0x1 PUSH1 0x1 PUSH1 0xA0 SHL SUB SWAP1 DUP2 AND CALLER SUB PUSH2 0x42C JUMPI DUP4 DUP6 MSTORE PUSH1 0xD DUP4 MSTORE PUSH1 0x40 DUP6 KECCAK256 SWAP1 PUSH1 0x1 PUSH1 0x40 MLOAD SWAP3 PUSH2 0x36CE DUP5 PUSH2 0x3B5B JUMP JUMPDEST DUP3 DUP2 SLOAD AND DUP5 MSTORE ADD SLOAD DUP5 DUP4 ADD SWAP1 DUP1 DUP3 MSTORE ISZERO PUSH2 0x375E JUMPI MLOAD TIMESTAMP LT PUSH2 0x374C JUMPI PUSH32 0xEA983EF69798673FD095EAF6CE96E30087E2403D023C0B66930487E5216D5387 SWAP4 DUP2 PUSH1 0xC PUSH1 0x40 SWAP6 ADD SWAP4 DUP5 SLOAD SWAP5 DUP3 DUP3 MLOAD AND PUSH1 0x1 PUSH1 0x1 PUSH1 0x60 SHL SUB PUSH1 0xA0 SHL DUP8 AND OR SWAP1 SSTORE DUP8 DUP10 MSTORE PUSH1 0xD DUP4 MSTORE DUP9 PUSH1 0x1 DUP8 DUP3 KECCAK256 DUP3 DUP2 SSTORE ADD SSTORE MLOAD AND SWAP2 DUP5 MLOAD SWAP4 AND DUP4 MSTORE DUP3 ADD MSTORE LOG2 DUP1 RETURN JUMPDEST PUSH1 0x40 MLOAD PUSH4 0x621E25C3 PUSH1 0xE0 SHL DUP2 MSTORE PUSH1 0x4 SWAP1 REVERT JUMPDEST PUSH1 0x40 MLOAD PUSH4 0x147FDE5F PUSH1 0xE3 SHL DUP2 MSTORE PUSH1 0x4 SWAP1 REVERT JUMPDEST POP CALLVALUE PUSH2 0x303 JUMPI PUSH1 0x20 DUP1 PUSH1 0x3 NOT CALLDATASIZE ADD SLT PUSH2 0x6D3 JUMPI PUSH1 0x4 CALLDATALOAD DUP3 SWAP2 DUP2 DUP5 MSTORE PUSH1 0xA DUP2 MSTORE PUSH1 0x40 DUP5 KECCAK256 SWAP1 PUSH1 0x1 DUP1 PUSH1 0xA0 SHL SUB DUP1 DUP4 SLOAD AND SWAP5 PUSH1 0x4 PUSH1 0xB DUP6 ADD SLOAD SWAP5 ADD SLOAD SWAP5 DUP3 PUSH1 0xE SLOAD AND SWAP1 DUP2 PUSH2 0x37D4 JUMPI JUMPDEST POP POP PUSH1 0x80 SWAP7 POP PUSH1 0x40 MLOAD SWAP6 DUP7 MSTORE AND SWAP1 DUP5 ADD MSTORE PUSH1 0x40 DUP4 ADD MSTORE PUSH1 0x60 DUP3 ADD MSTORE RETURN JUMPDEST DUP5 SWAP2 SWAP3 POP PUSH1 0x24 PUSH1 0x40 MLOAD DUP1 SWAP5 DUP2 SWAP4 PUSH4 0x44CC01B3 PUSH1 0xE1 SHL DUP4 MSTORE PUSH1 0x4 DUP4 ADD MSTORE GAS STATICCALL SWAP1 DUP2 ISZERO PUSH2 0x3827 JUMPI PUSH1 0x80 SWAP8 SWAP2 PUSH2 0x380A JUMPI JUMPDEST POP CODESIZE DUP1 PUSH2 0x37B7 JUMP JUMPDEST PUSH2 0x3821 SWAP2 POP DUP4 RETURNDATASIZE DUP6 GT PUSH2 0xC9C JUMPI PUSH2 0xC8E DUP2 DUP4 PUSH2 0x3BD6 JUMP JUMPDEST CODESIZE PUSH2 0x3802 JUMP JUMPDEST PUSH1 0x40 MLOAD RETURNDATASIZE DUP10 DUP3 RETURNDATACOPY RETURNDATASIZE SWAP1 REVERT JUMPDEST POP CALLVALUE PUSH2 0x303 JUMPI DUP1 PUSH1 0x3 NOT CALLDATASIZE ADD SLT PUSH2 0x303 JUMPI PUSH1 0xF SLOAD PUSH1 0x40 MLOAD PUSH1 0x1 PUSH1 0x1 PUSH1 0xA0 SHL SUB SWAP1 SWAP2 AND DUP2 MSTORE PUSH1 0x20 SWAP1 RETURN JUMPDEST POP CALLVALUE PUSH2 0x303 JUMPI PUSH1 0x20 CALLDATASIZE PUSH1 0x3 NOT ADD SLT PUSH2 0x303 JUMPI PUSH1 0x40 PUSH1 0x80 SWAP2 PUSH1 0x4 CALLDATALOAD DUP2 MSTORE PUSH1 0xA PUSH1 0x20 MSTORE KECCAK256 PUSH1 0xB DUP2 ADD SLOAD SWAP1 PUSH1 0x4 PUSH1 0x1 DUP1 PUSH1 0xA0 SHL SUB PUSH1 0xC DUP4 ADD SLOAD AND SWAP2 ADD SLOAD PUSH1 0x6 SLOAD SWAP2 PUSH1 0x40 MLOAD SWAP4 DUP5 MSTORE PUSH1 0x20 DUP5 ADD MSTORE PUSH1 0x40 DUP4 ADD MSTORE PUSH1 0x60 DUP3 ADD MSTORE RETURN JUMPDEST POP CALLVALUE PUSH2 0x303 JUMPI PUSH1 0xE0 CALLDATASIZE PUSH1 0x3 NOT ADD SLT PUSH2 0x303 JUMPI PUSH1 0x44 CALLDATALOAD PUSH1 0x4 CALLDATALOAD PUSH1 0x84 CALLDATALOAD PUSH1 0xFF DUP2 AND SWAP1 PUSH1 0x24 CALLDATALOAD SWAP1 PUSH1 0x64 CALLDATALOAD DUP4 DUP3 SUB PUSH2 0x2FD3 JUMPI PUSH1 0xA4 CALLDATALOAD SWAP1 PUSH1 0xFF DUP3 AND DUP3 SUB PUSH2 0x1214 JUMPI PUSH2 0x38F4 PUSH2 0x3FDD JUMP JUMPDEST DUP6 DUP9 MSTORE PUSH1 0xA PUSH1 0x20 MSTORE PUSH1 0x40 DUP9 KECCAK256 DUP1 SLOAD SWAP1 SWAP8 PUSH1 0x1 PUSH1 0x1 PUSH1 0xA0 SHL SUB SWAP6 SWAP1 SWAP2 DUP7 AND CALLER SUB PUSH2 0x42C JUMPI PUSH2 0x3923 PUSH2 0x396B SWAP6 PUSH2 0x3FFB JUMP JUMPDEST PUSH2 0x392C DUP5 PUSH2 0x4041 JUMP JUMPDEST PUSH2 0x3937 DUP4 DUP4 DUP4 PUSH2 0x4087 JUMP JUMPDEST PUSH1 0x6 DUP10 ADD SSTORE PUSH1 0x7 DUP9 ADD SSTORE PUSH1 0x8 DUP8 ADD SSTORE PUSH1 0x9 DUP7 ADD SWAP4 PUSH1 0xFF NOT DUP6 SLOAD AND OR DUP5 SSTORE DUP4 SWAP1 PUSH2 0xFF00 DUP3 SLOAD SWAP2 PUSH1 0x8 SHL AND SWAP1 PUSH2 0xFF00 NOT AND OR SWAP1 SSTORE JUMP JUMPDEST PUSH2 0xFFFF DUP1 DUP4 SLOAD PUSH1 0x10 SHR AND SWAP1 DUP2 EQ PUSH2 0x583 JUMPI PUSH32 0xA417EE948A5C9D2786613A25B5C7344175C18EA547F629C63F7DE4CEAACB9098 SWAP3 PUSH1 0x20 SWAP3 PUSH1 0xFF SWAP3 PUSH1 0x5 SWAP3 PUSH2 0x39D3 SWAP2 DUP1 ISZERO PUSH2 0x39EE JUMPI PUSH2 0x39BA SWAP1 PUSH2 0x3CDC JUMP JUMPDEST PUSH4 0xFFFF0000 DUP3 SLOAD SWAP2 PUSH1 0x10 SHL AND SWAP1 PUSH4 0xFFFF0000 NOT AND OR SWAP1 SSTORE JUMP JUMPDEST PUSH1 0xC4 CALLDATALOAD PUSH1 0xA DUP9 ADD SSTORE DUP7 SLOAD AND SWAP6 ADD SLOAD AND PUSH1 0x40 MLOAD SWAP1 ISZERO ISZERO DUP2 MSTORE LOG3 DUP1 RETURN JUMPDEST POP DUP1 SLOAD PUSH4 0xFFFF0000 NOT AND PUSH3 0x10000 OR SWAP1 SSTORE JUMP JUMPDEST PUSH1 0xE4 CALLDATALOAD SWAP1 PUSH1 0xFF DUP3 AND DUP3 SUB PUSH2 0x5C1 JUMPI JUMP JUMPDEST PUSH2 0x104 CALLDATALOAD SWAP1 PUSH1 0xFF DUP3 AND DUP3 SUB PUSH2 0x5C1 JUMPI JUMP JUMPDEST PUSH1 0x24 CALLDATALOAD SWAP1 PUSH1 0xFF DUP3 AND DUP3 SUB PUSH2 0x5C1 JUMPI JUMP JUMPDEST CALLVALUE PUSH2 0x5C1 JUMPI PUSH1 0x0 CALLDATASIZE PUSH1 0x3 NOT ADD SLT PUSH2 0x5C1 JUMPI PUSH1 0x20 PUSH1 0x40 MLOAD PUSH1 0x1 DUP2 MSTORE RETURN JUMPDEST PUSH1 0x4 CALLDATALOAD SWAP1 PUSH1 0x1 PUSH1 0x1 PUSH1 0xA0 SHL SUB DUP3 AND DUP3 SUB PUSH2 0x5C1 JUMPI JUMP JUMPDEST PUSH2 0x164 CALLDATALOAD SWAP1 PUSH1 0x1 PUSH1 0x1 PUSH1 0xA0 SHL SUB DUP3 AND DUP3 SUB PUSH2 0x5C1 JUMPI JUMP JUMPDEST PUSH1 0x24 CALLDATALOAD SWAP1 PUSH1 0x1 PUSH1 0x1 PUSH1 0xA0 SHL SUB DUP3 AND DUP3 SUB PUSH2 0x5C1 JUMPI JUMP JUMPDEST SWAP2 DUP2 PUSH1 0x1F DUP5 ADD SLT ISZERO PUSH2 0x5C1 JUMPI DUP3 CALLDATALOAD SWAP2 PUSH1 0x1 PUSH1 0x1 PUSH1 0x40 SHL SUB DUP4 GT PUSH2 0x5C1 JUMPI PUSH1 0x20 DUP4 DUP2 DUP7 ADD SWAP6 ADD ADD GT PUSH2 0x5C1 JUMPI JUMP JUMPDEST SWAP1 PUSH1 0x40 PUSH1 0x3 NOT DUP4 ADD SLT PUSH2 0x5C1 JUMPI PUSH1 0x4 CALLDATALOAD PUSH1 0x1 PUSH1 0x1 PUSH1 0xA0 SHL SUB DUP2 AND DUP2 SUB PUSH2 0x5C1 JUMPI SWAP2 PUSH1 0x24 CALLDATALOAD SWAP1 PUSH1 0x1 PUSH1 0x1 PUSH1 0x40 SHL SUB DUP3 GT PUSH2 0x5C1 JUMPI PUSH2 0x3AFD SWAP2 PUSH1 0x4 ADD PUSH2 0x3A91 JUMP JUMPDEST SWAP1 SWAP2 JUMP JUMPDEST PUSH1 0x44 CALLDATALOAD SWAP1 PUSH2 0xFFFF DUP3 AND DUP3 SUB PUSH2 0x5C1 JUMPI JUMP JUMPDEST PUSH1 0x64 CALLDATALOAD SWAP1 DUP2 ISZERO ISZERO DUP3 SUB PUSH2 0x5C1 JUMPI JUMP JUMPDEST SWAP1 PUSH1 0x1 DUP3 DUP2 SHR SWAP3 AND DUP1 ISZERO PUSH2 0x3B51 JUMPI JUMPDEST PUSH1 0x20 DUP4 LT EQ PUSH2 0x3B3B JUMPI JUMP JUMPDEST PUSH4 0x4E487B71 PUSH1 0xE0 SHL PUSH1 0x0 MSTORE PUSH1 0x22 PUSH1 0x4 MSTORE PUSH1 0x24 PUSH1 0x0 REVERT JUMPDEST SWAP2 PUSH1 0x7F AND SWAP2 PUSH2 0x3B30 JUMP JUMPDEST PUSH1 0x40 DUP2 ADD SWAP1 DUP2 LT PUSH1 0x1 PUSH1 0x1 PUSH1 0x40 SHL SUB DUP3 GT OR PUSH2 0x3B76 JUMPI PUSH1 0x40 MSTORE JUMP JUMPDEST PUSH4 0x4E487B71 PUSH1 0xE0 SHL PUSH1 0x0 MSTORE PUSH1 0x41 PUSH1 0x4 MSTORE PUSH1 0x24 PUSH1 0x0 REVERT JUMPDEST PUSH1 0x1 PUSH1 0x1 PUSH1 0x40 SHL SUB DUP2 GT PUSH2 0x3B76 JUMPI PUSH1 0x40 MSTORE JUMP JUMPDEST PUSH1 0xE0 DUP2 ADD SWAP1 DUP2 LT PUSH1 0x1 PUSH1 0x1 PUSH1 0x40 SHL SUB DUP3 GT OR PUSH2 0x3B76 JUMPI PUSH1 0x40 MSTORE JUMP JUMPDEST PUSH2 0x1E0 DUP2 ADD SWAP1 DUP2 LT PUSH1 0x1 PUSH1 0x1 PUSH1 0x40 SHL SUB DUP3 GT OR PUSH2 0x3B76 JUMPI PUSH1 0x40 MSTORE JUMP JUMPDEST SWAP1 PUSH1 0x1F DUP1 NOT SWAP2 ADD AND DUP2 ADD SWAP1 DUP2 LT PUSH1 0x1 PUSH1 0x1 PUSH1 0x40 SHL SUB DUP3 GT OR PUSH2 0x3B76 JUMPI PUSH1 0x40 MSTORE JUMP JUMPDEST SWAP1 PUSH1 0x40 MLOAD SWAP2 DUP3 PUSH1 0x0 DUP3 SLOAD PUSH2 0x3C0A DUP2 PUSH2 0x3B21 JUMP JUMPDEST SWAP1 DUP2 DUP5 MSTORE PUSH1 0x20 SWAP5 PUSH1 0x1 SWAP2 PUSH1 0x1 DUP2 AND SWAP1 DUP2 PUSH1 0x0 EQ PUSH2 0x3C7A JUMPI POP PUSH1 0x1 EQ PUSH2 0x3C3B JUMPI JUMPDEST POP POP POP PUSH2 0x3C39 SWAP3 POP SUB DUP4 PUSH2 0x3BD6 JUMP JUMPDEST JUMP JUMPDEST PUSH1 0x0 SWAP1 DUP2 MSTORE DUP6 DUP2 KECCAK256 SWAP6 SWAP4 POP SWAP2 SWAP1 JUMPDEST DUP2 DUP4 LT PUSH2 0x3C62 JUMPI POP POP PUSH2 0x3C39 SWAP4 POP DUP3 ADD ADD CODESIZE DUP1 DUP1 PUSH2 0x3C2A JUMP JUMPDEST DUP6 SLOAD DUP9 DUP5 ADD DUP6 ADD MSTORE SWAP5 DUP6 ADD SWAP5 DUP8 SWAP5 POP SWAP2 DUP4 ADD SWAP2 PUSH2 0x3C49 JUMP JUMPDEST SWAP3 POP POP POP PUSH2 0x3C39 SWAP5 SWAP3 POP PUSH1 0xFF NOT AND DUP3 DUP5 ADD MSTORE ISZERO ISZERO PUSH1 0x5 SHL DUP3 ADD ADD CODESIZE DUP1 DUP1 PUSH2 0x3C2A JUMP JUMPDEST SWAP2 SWAP1 DUP3 MLOAD SWAP3 DUP4 DUP3 MSTORE PUSH1 0x0 JUMPDEST DUP5 DUP2 LT PUSH2 0x3CC8 JUMPI POP POP DUP3 PUSH1 0x0 PUSH1 0x20 DUP1 SWAP5 SWAP6 DUP5 ADD ADD MSTORE PUSH1 0x1F DUP1 NOT SWAP2 ADD AND ADD ADD SWAP1 JUMP JUMPDEST PUSH1 0x20 DUP2 DUP4 ADD DUP2 ADD MLOAD DUP5 DUP4 ADD DUP3 ADD MSTORE ADD PUSH2 0x3CA7 JUMP JUMPDEST SWAP1 PUSH1 0x1 PUSH2 0xFFFF DUP1 SWAP4 AND ADD SWAP2 DUP3 GT PUSH2 0x3CEF JUMPI JUMP JUMPDEST PUSH4 0x4E487B71 PUSH1 0xE0 SHL PUSH1 0x0 MSTORE PUSH1 0x11 PUSH1 0x4 MSTORE PUSH1 0x24 PUSH1 0x0 REVERT JUMPDEST SWAP1 DUP2 PUSH1 0x20 SWAP2 SUB SLT PUSH2 0x5C1 JUMPI MLOAD PUSH1 0x1 PUSH1 0x1 PUSH1 0xA0 SHL SUB DUP2 AND DUP2 SUB PUSH2 0x5C1 JUMPI SWAP1 JUMP JUMPDEST PUSH1 0x1 PUSH1 0x1 PUSH1 0x40 SHL SUB DUP2 GT PUSH2 0x3B76 JUMPI PUSH1 0x1F ADD PUSH1 0x1F NOT AND PUSH1 0x20 ADD SWAP1 JUMP JUMPDEST SWAP3 SWAP2 SWAP3 PUSH2 0x3D4B DUP3 PUSH2 0x3D24 JUMP JUMPDEST SWAP2 PUSH2 0x3D59 PUSH1 0x40 MLOAD SWAP4 DUP5 PUSH2 0x3BD6 JUMP JUMPDEST DUP3 SWAP5 DUP2 DUP5 MSTORE DUP2 DUP4 ADD GT PUSH2 0x5C1 JUMPI DUP3 DUP2 PUSH1 0x20 SWAP4 DUP5 PUSH1 0x0 SWAP7 ADD CALLDATACOPY ADD ADD MSTORE JUMP JUMPDEST SWAP2 SWAP1 DUP3 SUB SWAP2 DUP3 GT PUSH2 0x3CEF JUMPI JUMP JUMPDEST PUSH1 0x0 NOT DUP2 EQ PUSH2 0x3CEF JUMPI PUSH1 0x1 ADD SWAP1 JUMP JUMPDEST SWAP2 SWAP1 DUP3 ADD DUP1 SWAP3 GT PUSH2 0x3CEF JUMPI JUMP JUMPDEST SWAP1 CALLDATALOAD SWAP1 PUSH1 0x1E NOT DUP2 CALLDATASIZE SUB ADD DUP3 SLT ISZERO PUSH2 0x5C1 JUMPI ADD DUP1 CALLDATALOAD SWAP1 PUSH1 0x1 PUSH1 0x1 PUSH1 0x40 SHL SUB DUP3 GT PUSH2 0x5C1 JUMPI PUSH1 0x20 ADD SWAP2 DUP2 CALLDATASIZE SUB DUP4 SGT PUSH2 0x5C1 JUMPI JUMP JUMPDEST SWAP1 DUP1 PUSH1 0x20 SWAP4 SWAP3 DUP2 DUP5 MSTORE DUP5 DUP5 ADD CALLDATACOPY PUSH1 0x0 DUP3 DUP3 ADD DUP5 ADD MSTORE PUSH1 0x1F ADD PUSH1 0x1F NOT AND ADD ADD SWAP1 JUMP JUMPDEST CALLDATALOAD PUSH1 0x1 PUSH1 0x1 PUSH1 0xA0 SHL SUB DUP2 AND DUP2 SUB PUSH2 0x5C1 JUMPI SWAP1 JUMP JUMPDEST MLOAD SWAP1 PUSH1 0xFF DUP3 AND DUP3 SUB PUSH2 0x5C1 JUMPI JUMP JUMPDEST MLOAD SWAP1 DUP2 ISZERO ISZERO DUP3 SUB PUSH2 0x5C1 JUMPI JUMP JUMPDEST SWAP1 DUP2 PUSH1 0xE0 SWAP2 SUB SLT PUSH2 0x5C1 JUMPI PUSH1 0x40 MLOAD SWAP1 PUSH2 0x3E39 DUP3 PUSH2 0x3B9F JUMP JUMPDEST DUP1 MLOAD DUP3 MSTORE PUSH2 0x3E49 PUSH1 0x20 DUP3 ADD PUSH2 0x3E06 JUMP JUMPDEST PUSH1 0x20 DUP4 ADD MSTORE PUSH2 0x3E5A PUSH1 0x40 DUP3 ADD PUSH2 0x3E06 JUMP JUMPDEST PUSH1 0x40 DUP4 ADD MSTORE PUSH1 0x60 DUP2 ADD MLOAD SWAP1 PUSH1 0x1 PUSH1 0x1 PUSH1 0x40 SHL SUB DUP3 AND DUP3 SUB PUSH2 0x5C1 JUMPI PUSH1 0xC0 SWAP2 PUSH1 0x60 DUP5 ADD MSTORE PUSH2 0x3E89 PUSH1 0x80 DUP3 ADD PUSH2 0x3E14 JUMP JUMPDEST PUSH1 0x80 DUP5 ADD MSTORE PUSH1 0xA0 DUP2 ADD MLOAD PUSH1 0xA0 DUP5 ADD MSTORE ADD MLOAD PUSH2 0xFFFF DUP2 AND DUP2 SUB PUSH2 0x5C1 JUMPI PUSH1 0xC0 DUP3 ADD MSTORE SWAP1 JUMP JUMPDEST DUP2 DUP2 MUL SWAP3 SWAP2 DUP2 ISZERO SWAP2 DUP5 DIV EQ OR ISZERO PUSH2 0x3CEF JUMPI JUMP JUMPDEST PUSH2 0xFFFF PUSH1 0xC0 DUP1 SWAP3 DUP1 MLOAD DUP6 MSTORE PUSH1 0xFF PUSH1 0x20 DUP3 ADD MLOAD AND PUSH1 0x20 DUP7 ADD MSTORE PUSH1 0xFF PUSH1 0x40 DUP3 ADD MLOAD AND PUSH1 0x40 DUP7 ADD MSTORE PUSH1 0x1 PUSH1 0x1 PUSH1 0x40 SHL SUB PUSH1 0x60 DUP3 ADD MLOAD AND PUSH1 0x60 DUP7 ADD MSTORE PUSH1 0x80 DUP2 ADD MLOAD ISZERO ISZERO PUSH1 0x80 DUP7 ADD MSTORE PUSH1 0xA0 DUP2 ADD MLOAD PUSH1 0xA0 DUP7 ADD MSTORE ADD MLOAD AND SWAP2 ADD MSTORE JUMP JUMPDEST SWAP2 SWAP1 PUSH1 0x0 SWAP3 DUP4 MSTORE PUSH1 0xA PUSH1 0x20 MSTORE PUSH1 0x1 DUP1 PUSH1 0xA0 SHL SUB PUSH1 0x40 DUP5 KECCAK256 SLOAD AND SWAP2 DUP3 ISZERO PUSH2 0x3F66 JUMPI SWAP2 PUSH2 0x3F48 PUSH1 0x2 SWAP5 SWAP3 PUSH1 0x40 SWAP5 CALLDATASIZE SWAP2 PUSH2 0x3D3F JUMP JUMPDEST PUSH1 0x20 DUP2 MLOAD SWAP2 ADD KECCAK256 SWAP1 DUP3 MSTORE PUSH1 0xB PUSH1 0x20 MSTORE DUP3 DUP3 KECCAK256 SWAP1 DUP3 MSTORE PUSH1 0x20 MSTORE KECCAK256 ADD SLOAD SWAP1 JUMP JUMPDEST POP POP POP SWAP1 JUMP JUMPDEST PUSH1 0xE SLOAD PUSH1 0x1 PUSH1 0x1 PUSH1 0xA0 SHL SUB AND SWAP1 DUP2 ISZERO PUSH2 0x3FD6 JUMPI PUSH1 0x20 SWAP1 PUSH1 0x24 PUSH1 0x40 MLOAD DUP1 SWAP5 DUP2 SWAP4 PUSH4 0x44CC01B3 PUSH1 0xE1 SHL DUP4 MSTORE PUSH1 0x4 DUP4 ADD MSTORE GAS STATICCALL SWAP1 DUP2 ISZERO PUSH2 0x3FCA JUMPI PUSH1 0x0 SWAP2 PUSH2 0x3FAE JUMPI POP SWAP1 JUMP JUMPDEST PUSH2 0x3FC7 SWAP2 POP PUSH1 0x20 RETURNDATASIZE PUSH1 0x20 GT PUSH2 0xC9C JUMPI PUSH2 0xC8E DUP2 DUP4 PUSH2 0x3BD6 JUMP JUMPDEST SWAP1 JUMP JUMPDEST PUSH1 0x40 MLOAD RETURNDATASIZE PUSH1 0x0 DUP3 RETURNDATACOPY RETURNDATASIZE SWAP1 REVERT JUMPDEST POP POP PUSH1 0x0 SWAP1 JUMP JUMPDEST PUSH1 0xFF PUSH1 0x3 SLOAD AND PUSH2 0x3FE9 JUMPI JUMP JUMPDEST PUSH1 0x40 MLOAD PUSH4 0xD93C0665 PUSH1 0xE0 SHL DUP2 MSTORE PUSH1 0x4 SWAP1 REVERT JUMPDEST PUSH1 0xFF AND PUSH1 0x1 DUP2 EQ SWAP1 DUP2 ISZERO PUSH2 0x4036 JUMPI JUMPDEST DUP2 ISZERO PUSH2 0x402B JUMPI JUMPDEST POP ISZERO PUSH2 0x4019 JUMPI JUMP JUMPDEST PUSH1 0x40 MLOAD PUSH4 0xEB911D5 PUSH1 0xE0 SHL DUP2 MSTORE PUSH1 0x4 SWAP1 REVERT JUMPDEST PUSH1 0x3 SWAP2 POP EQ CODESIZE PUSH2 0x4011 JUMP JUMPDEST PUSH1 0x2 DUP2 EQ SWAP2 POP PUSH2 0x400A JUMP JUMPDEST PUSH1 0xFF AND PUSH1 0x1 DUP2 EQ SWAP1 DUP2 ISZERO PUSH2 0x407C JUMPI JUMPDEST DUP2 ISZERO PUSH2 0x4071 JUMPI JUMPDEST POP ISZERO PUSH2 0x405F JUMPI JUMP JUMPDEST PUSH1 0x40 MLOAD PUSH4 0x2ABF7D0D PUSH1 0xE2 SHL DUP2 MSTORE PUSH1 0x4 SWAP1 REVERT JUMPDEST PUSH1 0x3 SWAP2 POP EQ CODESIZE PUSH2 0x4057 JUMP JUMPDEST PUSH1 0x2 DUP2 EQ SWAP2 POP PUSH2 0x4050 JUMP JUMPDEST DUP1 ISZERO DUP1 PUSH2 0x40C6 JUMPI JUMPDEST PUSH2 0xC40 JUMPI PUSH5 0xE8D4A51000 DUP1 SWAP2 GT SWAP1 DUP2 ISZERO PUSH2 0x40BC JUMPI JUMPDEST POP PUSH2 0xC2E JUMPI PUSH2 0x40B3 JUMPI PUSH2 0xCDF JUMPI JUMP JUMPDEST PUSH1 0x1 GT PUSH2 0xCDF JUMPI JUMP JUMPDEST SWAP1 POP DUP2 GT CODESIZE PUSH2 0x40A4 JUMP JUMPDEST POP DUP2 ISZERO PUSH2 0x408F JUMP JUMPDEST PUSH1 0x0 SLOAD PUSH1 0x1 PUSH1 0x1 PUSH1 0xA0 SHL SUB AND CALLER SUB PUSH2 0x136E JUMPI JUMP JUMPDEST PUSH1 0x2 DUP1 SLOAD EQ PUSH2 0x40F1 JUMPI PUSH1 0x2 DUP1 SSTORE JUMP JUMPDEST PUSH1 0x40 MLOAD PUSH4 0x3EE5AEB5 PUSH1 0xE0 SHL DUP2 MSTORE PUSH1 0x4 SWAP1 REVERT JUMPDEST PUSH2 0x2710 LT PUSH2 0x410D JUMPI JUMP JUMPDEST PUSH1 0x40 MLOAD PUSH4 0xC6CC5D7F PUSH1 0xE0 SHL DUP2 MSTORE PUSH1 0x4 SWAP1 REVERT JUMPDEST PUSH2 0x2710 SWAP2 PUSH2 0x412C SWAP2 PUSH2 0x3D92 JUMP JUMPDEST GT PUSH2 0x4133 JUMPI JUMP JUMPDEST PUSH1 0x40 MLOAD PUSH3 0xC9A16B PUSH1 0xE3 SHL DUP2 MSTORE PUSH1 0x4 SWAP1 REVERT JUMPDEST DUP1 ISZERO ISZERO SWAP1 DUP2 PUSH2 0x4167 JUMPI JUMPDEST POP PUSH2 0x4155 JUMPI JUMP JUMPDEST PUSH1 0x40 MLOAD PUSH4 0x2E0D2F75 PUSH1 0xE0 SHL DUP2 MSTORE PUSH1 0x4 SWAP1 REVERT JUMPDEST PUSH1 0x64 DUP2 LT SWAP2 POP DUP2 ISZERO PUSH2 0x417B JUMPI JUMPDEST POP CODESIZE PUSH2 0x414E JUMP JUMPDEST PUSH4 0x3B9ACA00 SWAP2 POP GT CODESIZE PUSH2 0x4174 JUMP JUMPDEST PUSH1 0x1 PUSH1 0x1 PUSH1 0xA0 SHL SUB DUP2 AND ISZERO ISZERO SWAP1 DUP2 PUSH2 0x41B5 JUMPI JUMPDEST POP PUSH2 0x41A3 JUMPI JUMP JUMPDEST PUSH1 0x40 MLOAD PUSH4 0x11970E2D PUSH1 0xE3 SHL DUP2 MSTORE PUSH1 0x4 SWAP1 REVERT JUMPDEST SWAP1 POP EXTCODESIZE ISZERO ISZERO CODESIZE PUSH2 0x419C JUMP JUMPDEST PUSH1 0xE SLOAD SWAP1 SWAP3 PUSH1 0x1 PUSH1 0x1 PUSH1 0xA0 SHL SUB SWAP3 SWAP1 SWAP2 DUP4 AND DUP1 PUSH2 0x41DF JUMPI JUMPDEST POP POP POP POP POP JUMP JUMPDEST PUSH1 0x40 MLOAD PUSH4 0x3816C5D1 PUSH1 0xE1 SHL DUP2 MSTORE PUSH1 0x4 DUP2 ADD DUP7 SWAP1 MSTORE PUSH1 0x20 SWAP3 SWAP1 DUP4 DUP2 PUSH1 0x24 DUP2 DUP7 GAS STATICCALL SWAP1 DUP2 ISZERO PUSH2 0x3FCA JUMPI PUSH1 0x0 SWAP2 PUSH2 0x42B6 JUMPI JUMPDEST POP ISZERO PUSH2 0x421B JUMPI JUMPDEST POP PUSH2 0x41D8 JUMP JUMPDEST PUSH1 0x84 DUP6 SWAP2 PUSH1 0x0 DUP6 SWAP5 PUSH1 0x40 MLOAD SWAP8 DUP9 SWAP6 DUP7 SWAP5 PUSH4 0x2972764D PUSH1 0xE1 SHL DUP7 MSTORE DUP13 PUSH1 0x4 DUP8 ADD MSTORE AND DUP1 PUSH1 0x24 DUP7 ADD MSTORE PUSH1 0x44 DUP6 ADD MSTORE PUSH1 0x64 DUP5 ADD MSTORE GAS CALL SWAP2 DUP3 SWAP2 PUSH1 0x0 SWAP4 PUSH2 0x4297 JUMPI JUMPDEST POP POP PUSH2 0x4268 JUMPI JUMPDEST DUP1 DUP1 DUP1 PUSH2 0x4215 JUMP JUMPDEST AND SWAP1 PUSH32 0xD6D3A3B0133DE6515B878D7D0C6151618CFC9FAB7B3105554B711CEA1CE3157C PUSH1 0x0 DUP1 LOG3 CODESIZE DUP1 DUP1 PUSH2 0x4260 JUMP JUMPDEST PUSH2 0x42AE SWAP3 SWAP4 POP DUP1 RETURNDATASIZE LT PUSH2 0xC9C JUMPI PUSH2 0xC8E DUP2 DUP4 PUSH2 0x3BD6 JUMP JUMPDEST SWAP1 CODESIZE DUP1 PUSH2 0x4259 JUMP JUMPDEST SWAP1 POP DUP4 DUP2 DUP2 RETURNDATASIZE DUP4 GT PUSH2 0x42E4 JUMPI JUMPDEST PUSH2 0x42CD DUP2 DUP4 PUSH2 0x3BD6 JUMP JUMPDEST DUP2 ADD SUB SLT PUSH2 0x5C1 JUMPI PUSH2 0x42DE SWAP1 PUSH2 0x3E14 JUMP JUMPDEST CODESIZE PUSH2 0x420E JUMP JUMPDEST POP RETURNDATASIZE PUSH2 0x42C3 JUMP JUMPDEST SWAP1 PUSH1 0xFF AND DUP1 PUSH2 0x4304 JUMPI POP PUSH1 0x6 SWAP2 POP ADD SLOAD DUP1 ISZERO PUSH2 0xC40 JUMPI SWAP1 JUMP JUMPDEST PUSH1 0x1 SUB PUSH2 0xC64 JUMPI PUSH1 0x7 ADD SLOAD SWAP1 DUP2 ISZERO PUSH2 0xC40 JUMPI PUSH2 0xFFFF AND DUP1 ISZERO PUSH2 0xCDF JUMPI PUSH2 0x4329 SWAP2 PUSH2 0x3EAD JUMP JUMPDEST PUSH5 0xE8D4A51000 DUP2 GT PUSH2 0xC2E JUMPI SWAP1 JUMP JUMPDEST PUSH1 0x10 SLOAD SWAP2 SWAP6 PUSH1 0x1 PUSH1 0x1 PUSH1 0xA0 SHL SUB SWAP6 SWAP5 SWAP1 SWAP4 SWAP1 SWAP3 DUP7 AND DUP1 ISZERO PUSH2 0x43F7 JUMPI PUSH2 0x2710 SWAP8 DUP9 PUSH1 0x6 SLOAD PUSH2 0x4365 SWAP1 DUP7 PUSH2 0x3EAD JUMP JUMPDEST DIV SWAP9 PUSH2 0x4372 DUP11 SWAP3 DUP7 PUSH2 0x3EAD JUMP JUMPDEST DIV SWAP8 DUP9 SWAP3 DUP4 PUSH2 0x4381 DUP5 DUP9 PUSH2 0x3D76 JUMP JUMPDEST SWAP1 PUSH2 0x438B SWAP2 PUSH2 0x3D76 JUMP JUMPDEST PUSH1 0x40 MLOAD PUSH4 0x23B872DD PUSH1 0xE0 SHL PUSH1 0x20 DUP3 ADD MSTORE PUSH1 0x1 PUSH1 0x1 PUSH1 0xA0 SHL SUB SWAP11 SWAP1 SWAP11 AND PUSH1 0x24 DUP12 ADD MSTORE ADDRESS PUSH1 0x44 DUP12 ADD MSTORE PUSH1 0x64 DUP1 DUP12 ADD SWAP8 SWAP1 SWAP8 MSTORE SWAP6 DUP10 MSTORE SWAP5 SWAP8 DUP9 SWAP6 SWAP1 PUSH2 0x43CE PUSH1 0x84 DUP3 PUSH2 0x3BD6 JUMP JUMPDEST PUSH2 0x43D7 SWAP2 PUSH2 0x44CC JUMP JUMPDEST PUSH1 0x7 SLOAD AND SWAP1 PUSH2 0x43E5 SWAP2 PUSH2 0x44AF JUMP JUMPDEST PUSH2 0x43EE SWAP2 PUSH2 0x44AF JUMP JUMPDEST PUSH2 0x3C39 SWAP2 PUSH2 0x44AF JUMP JUMPDEST PUSH1 0x40 MLOAD PUSH4 0xA51AD605 PUSH1 0xE0 SHL DUP2 MSTORE PUSH1 0x4 SWAP1 REVERT JUMPDEST PUSH1 0x40 MLOAD PUSH4 0xA9059CBB PUSH1 0xE0 SHL PUSH1 0x20 DUP3 ADD MSTORE PUSH1 0x1 PUSH1 0x1 PUSH1 0xA0 SHL SUB SWAP3 SWAP1 SWAP3 AND PUSH1 0x24 DUP4 ADD MSTORE PUSH1 0x44 DUP1 DUP4 ADD SWAP4 SWAP1 SWAP4 MSTORE SWAP2 DUP2 MSTORE PUSH2 0x3C39 SWAP2 PUSH2 0x4445 PUSH1 0x64 DUP4 PUSH2 0x3BD6 JUMP JUMPDEST PUSH2 0x44CC JUMP JUMPDEST DUP2 ISZERO PUSH2 0x44AB JUMPI PUSH1 0x0 SWAP2 DUP3 SWAP2 DUP3 SWAP2 DUP3 SWAP2 PUSH1 0x1 PUSH1 0x1 PUSH1 0xA0 SHL SUB AND GAS CALL RETURNDATASIZE ISZERO PUSH2 0x44A6 JUMPI RETURNDATASIZE PUSH2 0x4474 DUP2 PUSH2 0x3D24 JUMP JUMPDEST SWAP1 PUSH2 0x4482 PUSH1 0x40 MLOAD SWAP3 DUP4 PUSH2 0x3BD6 JUMP JUMPDEST DUP2 MSTORE PUSH1 0x0 PUSH1 0x20 RETURNDATASIZE SWAP3 ADD RETURNDATACOPY JUMPDEST ISZERO PUSH2 0x4494 JUMPI JUMP JUMPDEST PUSH1 0x40 MLOAD PUSH4 0x12171D83 PUSH1 0xE3 SHL DUP2 MSTORE PUSH1 0x4 SWAP1 REVERT JUMPDEST PUSH2 0x448D JUMP JUMPDEST POP POP JUMP JUMPDEST SWAP1 DUP1 ISZERO PUSH2 0x44AB JUMPI PUSH1 0x10 SLOAD PUSH2 0x3C39 SWAP3 SWAP1 PUSH1 0x1 PUSH1 0x1 PUSH1 0xA0 SHL SUB AND PUSH2 0x4409 JUMP JUMPDEST SWAP1 PUSH1 0x0 PUSH1 0x20 SWAP2 DUP3 DUP2 MLOAD SWAP2 ADD DUP3 DUP6 GAS CALL ISZERO PUSH2 0x3FCA JUMPI PUSH1 0x0 MLOAD RETURNDATASIZE PUSH2 0x451F JUMPI POP PUSH1 0x1 PUSH1 0x1 PUSH1 0xA0 SHL SUB DUP2 AND EXTCODESIZE ISZERO JUMPDEST PUSH2 0x44FD JUMPI POP JUMP JUMPDEST PUSH1 0x40 MLOAD PUSH4 0x5274AFE7 PUSH1 0xE0 SHL DUP2 MSTORE PUSH1 0x1 PUSH1 0x1 PUSH1 0xA0 SHL SUB SWAP1 SWAP2 AND PUSH1 0x4 DUP3 ADD MSTORE PUSH1 0x24 SWAP1 REVERT JUMPDEST PUSH1 0x1 EQ ISZERO PUSH2 0x44F6 JUMP INVALID STOP LOG1 PUSH31 0x39748F90DCC231579B95804358753DC835ACD3F3972717EFC03A8B5511C309 0xE PUSH0 0xBC EXTCODEHASH SWAP3 0xA6 MSTORE DUP4 0xD5 DUP14 0xEC 0xE4 0xAE PUSH10 0x9CC0CA8E124DBC474240 0xBB BYTE 0xED SIGNEXTEND PUSH24 0xE7A2646970667358221220EDEE3D1AEC9837B65E097FF771 PUSH1 0x8F SWAP9 DUP7 ORIGIN 0xE0 0xD7 SWAP7 0x26 0x1F SWAP4 AND 0xFC CALLDATALOAD 0xF9 PUSH4 0xB35F5264 PUSH20 0x6F6C634300081800336080346200041857601F19 SWAP1 PUSH1 0x1 PUSH1 0x1 PUSH1 0x40 SHL SUB SWAP1 PUSH1 0x1F SWAP1 PUSH3 0x28C0 CODESIZE DUP2 SWAP1 SUB DUP4 DUP2 ADD DUP7 AND DUP4 ADD DUP6 DUP2 GT DUP5 DUP3 LT OR PUSH3 0x402 JUMPI DUP4 SWAP3 DUP3 SWAP2 PUSH1 0x40 MSTORE DUP4 CODECOPY PUSH1 0x20 SWAP3 DUP4 SWAP2 DUP2 ADD SUB SLT PUSH3 0x418 JUMPI MLOAD SWAP4 PUSH1 0x1 PUSH1 0x1 PUSH1 0xA0 SHL SUB SWAP4 DUP5 DUP7 AND SWAP4 DUP5 DUP8 SUB PUSH3 0x418 JUMPI PUSH3 0x6A PUSH3 0x41D JUMP JUMPDEST SWAP4 PUSH1 0x18 DUP6 MSTORE PUSH32 0x4D61726B6574706C6163654149204C6963656E73652056320000000000000000 DUP2 DUP7 ADD MSTORE PUSH3 0x9E PUSH3 0x41D JUMP JUMPDEST SWAP1 PUSH1 0x8 DUP3 MSTORE PUSH8 0x26A820A4A624A199 PUSH1 0xC1 SHL DUP2 DUP4 ADD MSTORE DUP6 MLOAD SWAP5 DUP5 DUP7 GT PUSH3 0x402 JUMPI PUSH1 0x0 SWAP6 DUP7 SLOAD SWAP8 PUSH1 0x1 SWAP9 DUP10 DUP2 DUP2 SHR SWAP2 AND DUP1 ISZERO PUSH3 0x3F7 JUMPI JUMPDEST DUP6 DUP3 LT EQ PUSH3 0x3E3 JUMPI SWAP1 DUP2 DUP8 DUP5 SWAP4 GT PUSH3 0x390 JUMPI JUMPDEST POP DUP5 SWAP1 DUP8 DUP4 GT PUSH1 0x1 EQ PUSH3 0x32F JUMPI DUP10 SWAP3 PUSH3 0x323 JUMPI JUMPDEST POP POP PUSH1 0x0 NOT PUSH1 0x3 DUP4 SWAP1 SHL SHR NOT AND SWAP1 DUP9 SHL OR DUP7 SSTORE JUMPDEST DUP3 MLOAD SWAP5 DUP6 GT PUSH3 0x30F JUMPI DUP7 SLOAD DUP8 DUP2 DUP2 SHR SWAP2 AND DUP1 ISZERO PUSH3 0x304 JUMPI JUMPDEST DUP4 DUP3 LT EQ PUSH3 0x2F0 JUMPI SWAP1 DUP2 DUP6 DUP8 SWAP7 SWAP6 SWAP5 SWAP4 GT PUSH3 0x297 JUMPI JUMPDEST POP DUP2 SWAP4 DUP6 GT PUSH1 0x1 EQ PUSH3 0x232 JUMPI POP POP DUP5 SWAP3 PUSH3 0x226 JUMPI JUMPDEST POP POP PUSH1 0x0 NOT PUSH1 0x3 DUP4 SWAP1 SHL SHR NOT AND SWAP1 DUP4 SHL OR DUP3 SSTORE JUMPDEST CALLER ISZERO PUSH3 0x20E JUMPI PUSH1 0x1 DUP1 PUSH1 0xA0 SHL SUB NOT SWAP1 DUP2 PUSH1 0x7 SLOAD AND PUSH1 0x7 SSTORE PUSH1 0x6 SLOAD SWAP2 CALLER SWAP1 DUP4 AND OR PUSH1 0x6 SSTORE PUSH32 0x8BE0079C531659141344CD1FD0A4F28419497F9722A3DAAFE3B4186F6B6457E0 PUSH1 0x40 MLOAD SWAP6 CALLER SWAP4 AND SWAP2 DUP1 LOG3 PUSH1 0x8 SSTORE ISZERO PUSH3 0x1FF JUMPI POP PUSH1 0x9 DUP1 SLOAD PUSH2 0x100 PUSH1 0x1 PUSH1 0xA8 SHL SUB NOT AND PUSH1 0x8 SWAP3 SWAP1 SWAP3 SHL PUSH2 0x100 PUSH1 0x1 PUSH1 0xA8 SHL SUB AND SWAP2 SWAP1 SWAP2 OR SWAP1 SSTORE PUSH1 0x40 MLOAD PUSH2 0x2482 SWAP1 DUP2 PUSH3 0x43E DUP3 CODECOPY RETURN JUMPDEST PUSH4 0xD92E233D PUSH1 0xE0 SHL DUP2 MSTORE PUSH1 0x4 SWAP1 REVERT JUMPDEST PUSH1 0x24 SWAP1 PUSH1 0x40 MLOAD SWAP1 PUSH4 0x1E4FBDF7 PUSH1 0xE0 SHL DUP3 MSTORE PUSH1 0x4 DUP3 ADD MSTORE REVERT JUMPDEST ADD MLOAD SWAP1 POP CODESIZE DUP1 PUSH3 0x15D JUMP JUMPDEST DUP8 SWAP6 SWAP4 SWAP3 SWAP2 SWAP4 AND DUP6 DUP8 MSTORE DUP4 DUP8 KECCAK256 SWAP4 DUP8 SWAP1 JUMPDEST DUP3 DUP3 LT PUSH3 0x27D JUMPI POP POP DUP5 GT PUSH3 0x263 JUMPI JUMPDEST POP POP POP DUP2 SHL ADD DUP3 SSTORE PUSH3 0x171 JUMP JUMPDEST ADD MLOAD PUSH1 0x0 NOT PUSH1 0xF8 DUP5 PUSH1 0x3 SHL AND SHR NOT AND SWAP1 SSTORE CODESIZE DUP1 DUP1 PUSH3 0x255 JUMP JUMPDEST DUP5 DUP5 ADD MLOAD DUP7 SSTORE DUP10 SWAP8 SWAP1 SWAP6 ADD SWAP5 SWAP4 DUP5 ADD SWAP4 SWAP1 DUP2 ADD SWAP1 PUSH3 0x243 JUMP JUMPDEST SWAP1 SWAP2 SWAP3 SWAP4 SWAP5 POP DUP8 DUP8 MSTORE DUP3 DUP8 KECCAK256 DUP6 DUP1 DUP9 ADD PUSH1 0x5 SHR DUP3 ADD SWAP3 DUP6 DUP10 LT PUSH3 0x2E6 JUMPI JUMPDEST SWAP2 DUP9 SWAP8 DUP12 SWAP3 SWAP8 SWAP7 SWAP6 SWAP5 SWAP4 ADD PUSH1 0x5 SHR ADD SWAP2 JUMPDEST DUP3 DUP2 LT PUSH3 0x2D7 JUMPI POP POP PUSH3 0x146 JUMP JUMPDEST DUP10 DUP2 SSTORE DUP9 SWAP8 POP DUP11 SWAP2 ADD PUSH3 0x2C7 JUMP JUMPDEST SWAP3 POP DUP2 SWAP3 PUSH3 0x2B6 JUMP JUMPDEST PUSH4 0x4E487B71 PUSH1 0xE0 SHL DUP8 MSTORE PUSH1 0x22 PUSH1 0x4 MSTORE PUSH1 0x24 DUP8 REVERT JUMPDEST SWAP1 PUSH1 0x7F AND SWAP1 PUSH3 0x12E JUMP JUMPDEST PUSH4 0x4E487B71 PUSH1 0xE0 SHL DUP7 MSTORE PUSH1 0x41 PUSH1 0x4 MSTORE PUSH1 0x24 DUP7 REVERT JUMPDEST ADD MLOAD SWAP1 POP CODESIZE DUP1 PUSH3 0x100 JUMP JUMPDEST SWAP1 DUP5 DUP12 SWAP5 AND SWAP2 DUP11 DUP1 MSTORE DUP7 DUP12 KECCAK256 SWAP3 DUP12 JUMPDEST DUP9 DUP3 DUP3 LT PUSH3 0x379 JUMPI POP POP DUP5 GT PUSH3 0x35F JUMPI JUMPDEST POP POP POP DUP2 SHL ADD DUP7 SSTORE PUSH3 0x114 JUMP JUMPDEST ADD MLOAD PUSH1 0x0 NOT PUSH1 0xF8 DUP5 PUSH1 0x3 SHL AND SHR NOT AND SWAP1 SSTORE CODESIZE DUP1 DUP1 PUSH3 0x351 JUMP JUMPDEST DUP4 DUP6 ADD MLOAD DUP7 SSTORE DUP15 SWAP8 SWAP1 SWAP6 ADD SWAP5 SWAP4 DUP5 ADD SWAP4 ADD PUSH3 0x33E JUMP JUMPDEST SWAP1 SWAP2 POP DUP9 DUP1 MSTORE DUP5 DUP10 KECCAK256 DUP8 DUP1 DUP6 ADD PUSH1 0x5 SHR DUP3 ADD SWAP3 DUP8 DUP7 LT PUSH3 0x3D9 JUMPI JUMPDEST SWAP2 DUP13 SWAP2 DUP7 SWAP6 SWAP5 SWAP4 ADD PUSH1 0x5 SHR ADD SWAP2 JUMPDEST DUP3 DUP2 LT PUSH3 0x3CA JUMPI POP POP PUSH3 0xEA JUMP JUMPDEST DUP12 DUP2 SSTORE DUP6 SWAP5 POP DUP13 SWAP2 ADD PUSH3 0x3BA JUMP JUMPDEST SWAP3 POP DUP2 SWAP3 PUSH3 0x3AC JUMP JUMPDEST PUSH4 0x4E487B71 PUSH1 0xE0 SHL DUP10 MSTORE PUSH1 0x22 PUSH1 0x4 MSTORE PUSH1 0x24 DUP10 REVERT JUMPDEST SWAP1 PUSH1 0x7F AND SWAP1 PUSH3 0xD5 JUMP JUMPDEST PUSH4 0x4E487B71 PUSH1 0xE0 SHL PUSH1 0x0 MSTORE PUSH1 0x41 PUSH1 0x4 MSTORE PUSH1 0x24 PUSH1 0x0 REVERT JUMPDEST PUSH1 0x0 DUP1 REVERT JUMPDEST PUSH1 0x40 DUP1 MLOAD SWAP2 SWAP1 DUP3 ADD PUSH1 0x1 PUSH1 0x1 PUSH1 0x40 SHL SUB DUP2 GT DUP4 DUP3 LT OR PUSH3 0x402 JUMPI PUSH1 0x40 MSTORE JUMP INVALID PUSH1 0x80 PUSH1 0x40 DUP2 DUP2 MSTORE PUSH1 0x4 DUP1 CALLDATASIZE LT ISZERO PUSH2 0x15 JUMPI PUSH1 0x0 DUP1 REVERT JUMPDEST PUSH1 0x0 SWAP3 DUP4 CALLDATALOAD PUSH1 0xE0 SHR SWAP1 DUP2 PUSH4 0x1FFC9A7 EQ PUSH2 0x173B JUMPI POP DUP1 PUSH4 0x6FDDE03 EQ PUSH2 0x168A JUMPI DUP1 PUSH4 0x81812FC EQ PUSH2 0x164F JUMPI DUP1 PUSH4 0x95EA7B3 EQ PUSH2 0x1573 JUMPI DUP1 PUSH4 0x162094C4 EQ PUSH2 0x138B JUMPI DUP1 PUSH4 0x18160DDD EQ PUSH2 0x136C JUMPI DUP1 PUSH4 0x23B872DD EQ PUSH2 0x1354 JUMPI DUP1 PUSH4 0x31F9ABB9 EQ PUSH2 0x128E JUMPI DUP1 PUSH4 0x3F4BA83A EQ PUSH2 0x1225 JUMPI DUP1 PUSH4 0x42842E0E EQ PUSH2 0x11F6 JUMPI DUP1 PUSH4 0x55F804B3 EQ PUSH2 0x1006 JUMPI DUP1 PUSH4 0x5BA1C1A9 EQ PUSH2 0xFE8 JUMPI DUP1 PUSH4 0x5C975ABB EQ PUSH2 0xFC4 JUMPI DUP1 PUSH4 0x6352211E EQ PUSH2 0xF93 JUMPI DUP1 PUSH4 0x70A08231 EQ PUSH2 0xF3E JUMPI DUP1 PUSH4 0x715018A6 EQ PUSH2 0xED7 JUMPI DUP1 PUSH4 0x79BA5097 EQ PUSH2 0xE4F JUMPI DUP1 PUSH4 0x8456CB59 EQ PUSH2 0xDF4 JUMPI DUP1 PUSH4 0x849B1B7E EQ PUSH2 0xCB0 JUMPI DUP1 PUSH4 0x8DA5CB5B EQ PUSH2 0xC87 JUMPI DUP1 PUSH4 0x8F31AE06 EQ PUSH2 0xC2A JUMPI DUP1 PUSH4 0x95D89B41 EQ PUSH2 0xB3F JUMPI DUP1 PUSH4 0xA1757346 EQ PUSH2 0xB0A JUMPI DUP1 PUSH4 0xA22CB465 EQ PUSH2 0xA69 JUMPI DUP1 PUSH4 0xAAB5A877 EQ PUSH2 0xA4C JUMPI DUP1 PUSH4 0xABC8C7AF EQ PUSH2 0xA1F JUMPI DUP1 PUSH4 0xB03FBFBB EQ PUSH2 0x738 JUMPI DUP1 PUSH4 0xB2DD1212 EQ PUSH2 0x61C JUMPI DUP1 PUSH4 0xB88D4FDE EQ PUSH2 0x588 JUMPI DUP1 PUSH4 0xC58636C0 EQ PUSH2 0x51F JUMPI DUP1 PUSH4 0xC87B56DD EQ PUSH2 0x4CC JUMPI DUP1 PUSH4 0xE30C3978 EQ PUSH2 0x4A3 JUMPI DUP1 PUSH4 0xE985E9C5 EQ PUSH2 0x451 JUMPI DUP1 PUSH4 0xF2FDE38B EQ PUSH2 0x3E3 JUMPI DUP1 PUSH4 0xF577A500 EQ PUSH2 0x392 JUMPI DUP1 PUSH4 0xF7EA8570 EQ PUSH2 0x36B JUMPI DUP1 PUSH4 0xFC86E3ED EQ PUSH2 0x29F JUMPI PUSH4 0xFE5EB754 EQ PUSH2 0x1C5 JUMPI PUSH1 0x0 DUP1 REVERT JUMPDEST CALLVALUE PUSH2 0x29B JUMPI DUP2 PUSH1 0x3 NOT CALLDATASIZE ADD SLT PUSH2 0x29B JUMPI DUP1 CALLDATALOAD SWAP2 PUSH1 0x24 CALLDATALOAD PUSH1 0x1 PUSH1 0x1 PUSH1 0x40 SHL SUB DUP2 AND SWAP3 DUP4 DUP3 SUB PUSH2 0x297 JUMPI PUSH1 0x9 SLOAD PUSH1 0x1 PUSH1 0x1 PUSH1 0xA0 SHL SUB SWAP1 PUSH1 0x8 SHR DUP2 AND CALLER SUB PUSH2 0x288 JUMPI DUP6 DUP8 MSTORE PUSH1 0x2 PUSH1 0x20 MSTORE DUP4 DUP8 KECCAK256 SLOAD AND ISZERO PUSH2 0x27B JUMPI POP SWAP2 PUSH1 0x20 SWAP2 PUSH2 0x273 PUSH32 0x54FA8435D3273CA8D4EF85D3750539BC2D0FDE8FD9AD8E6B3C82A83FE8C2559 SWAP5 DUP7 DUP9 MSTORE PUSH1 0xD DUP6 MSTORE PUSH1 0x1 DUP4 DUP10 KECCAK256 ADD SWAP1 PUSH10 0xFFFFFFFFFFFFFFFF0000 DUP3 SLOAD SWAP2 PUSH1 0x10 SHL AND SWAP1 PUSH10 0xFFFFFFFFFFFFFFFF0000 NOT AND OR SWAP1 SSTORE JUMP JUMPDEST MLOAD SWAP1 DUP2 MSTORE LOG2 DUP1 RETURN JUMPDEST DUP3 MLOAD PUSH3 0x6F7087 PUSH1 0xE2 SHL DUP2 MSTORE REVERT JUMPDEST POP DUP3 MLOAD PUSH4 0x2B35006D PUSH1 0xE2 SHL DUP2 MSTORE REVERT JUMPDEST DUP6 DUP1 REVERT JUMPDEST DUP3 DUP1 REVERT JUMPDEST POP SWAP1 CALLVALUE PUSH2 0x29B JUMPI DUP3 PUSH1 0x3 NOT CALLDATASIZE ADD SLT PUSH2 0x29B JUMPI PUSH2 0x2B9 PUSH2 0x2005 JUMP JUMPDEST DUP1 MLOAD SWAP2 PUSH2 0x2C5 DUP4 PUSH2 0x1882 JUMP JUMPDEST PUSH1 0xA SLOAD PUSH1 0x1 PUSH1 0x1 PUSH1 0xA0 SHL SUB SWAP1 DUP2 AND DUP5 MSTORE PUSH1 0xB SLOAD PUSH1 0x20 DUP6 ADD DUP2 DUP2 MSTORE SWAP2 SWAP4 SWAP2 SWAP1 ISZERO PUSH2 0x35D JUMPI MLOAD TIMESTAMP LT PUSH2 0x350 JUMPI POP POP PUSH1 0x9 DUP1 SLOAD SWAP3 MLOAD PUSH2 0x100 PUSH1 0x1 PUSH1 0xA8 SHL SUB NOT DUP5 AND PUSH1 0x8 DUP3 DUP2 SHL PUSH2 0x100 PUSH1 0x1 PUSH1 0xA8 SHL SUB AND SWAP2 SWAP1 SWAP2 OR SWAP1 SWAP3 SSTORE PUSH1 0xA DUP6 SWAP1 SSTORE PUSH1 0xB DUP6 SWAP1 SSTORE DUP3 AND SWAP3 SWAP1 SHR AND PUSH32 0xC7AFA5BBBB939FECA6615E3A8C298615524EC5B0F27C48A211EE475FD2ACA587 DUP4 DUP1 LOG3 DUP1 RETURN JUMPDEST MLOAD PUSH4 0x621E25C3 PUSH1 0xE0 SHL DUP2 MSTORE REVERT JUMPDEST POP MLOAD PUSH4 0x147FDE5F PUSH1 0xE3 SHL DUP2 MSTORE REVERT JUMPDEST DUP4 CALLVALUE PUSH2 0x38F JUMPI DUP1 PUSH1 0x3 NOT CALLDATASIZE ADD SLT PUSH2 0x38F JUMPI PUSH2 0x384 PUSH2 0x2005 JUMP JUMPDEST DUP1 PUSH1 0xA SSTORE DUP1 PUSH1 0xB SSTORE DUP1 RETURN JUMPDEST DUP1 REVERT JUMPDEST POP CALLVALUE PUSH2 0x29B JUMPI PUSH1 0x20 CALLDATASIZE PUSH1 0x3 NOT ADD SLT PUSH2 0x29B JUMPI DUP1 CALLDATALOAD DUP1 DUP5 MSTORE PUSH1 0x2 PUSH1 0x20 MSTORE SWAP3 DUP3 SWAP1 KECCAK256 SLOAD PUSH1 0x1 PUSH1 0x1 PUSH1 0xA0 SHL SUB AND ISZERO PUSH2 0x3D6 JUMPI POP PUSH2 0x3CD PUSH1 0x20 SWAP3 PUSH2 0x1F47 JUMP JUMPDEST SWAP1 MLOAD SWAP1 ISZERO ISZERO DUP2 MSTORE RETURN JUMPDEST SWAP1 MLOAD PUSH3 0x6F7087 PUSH1 0xE2 SHL DUP2 MSTORE REVERT JUMPDEST DUP4 CALLVALUE PUSH2 0x38F JUMPI PUSH1 0x20 CALLDATASIZE PUSH1 0x3 NOT ADD SLT PUSH2 0x38F JUMPI PUSH2 0x3FD PUSH2 0x17EF JUMP JUMPDEST PUSH2 0x405 PUSH2 0x2005 JUMP JUMPDEST PUSH1 0x7 DUP1 SLOAD PUSH1 0x1 PUSH1 0x1 PUSH1 0xA0 SHL SUB NOT AND PUSH1 0x1 PUSH1 0x1 PUSH1 0xA0 SHL SUB SWAP3 DUP4 AND SWAP1 DUP2 OR SWAP1 SWAP2 SSTORE PUSH1 0x6 SLOAD SWAP1 SWAP2 AND PUSH32 0x38D16B8CAC22D99FC7C124B9CD0DE2D3FA1FAEF420BFE791D8C362D765E22700 DUP4 DUP1 LOG3 DUP1 RETURN JUMPDEST POP POP CALLVALUE PUSH2 0x49F JUMPI DUP1 PUSH1 0x3 NOT CALLDATASIZE ADD SLT PUSH2 0x49F JUMPI PUSH1 0xFF DUP2 PUSH1 0x20 SWAP4 PUSH2 0x471 PUSH2 0x17EF JUMP JUMPDEST PUSH2 0x479 PUSH2 0x180A JUMP JUMPDEST PUSH1 0x1 PUSH1 0x1 PUSH1 0xA0 SHL SUB SWAP2 DUP3 AND DUP4 MSTORE PUSH1 0x5 DUP8 MSTORE DUP4 DUP4 KECCAK256 SWAP2 AND DUP3 MSTORE DUP6 MSTORE KECCAK256 SLOAD SWAP2 MLOAD SWAP2 AND ISZERO ISZERO DUP2 MSTORE RETURN JUMPDEST POP DUP1 REVERT JUMPDEST POP POP CALLVALUE PUSH2 0x49F JUMPI DUP2 PUSH1 0x3 NOT CALLDATASIZE ADD SLT PUSH2 0x49F JUMPI PUSH1 0x7 SLOAD SWAP1 MLOAD PUSH1 0x1 PUSH1 0x1 PUSH1 0xA0 SHL SUB SWAP1 SWAP2 AND DUP2 MSTORE PUSH1 0x20 SWAP1 RETURN JUMPDEST POP CALLVALUE PUSH2 0x29B JUMPI PUSH1 0x20 CALLDATASIZE PUSH1 0x3 NOT ADD SLT PUSH2 0x29B JUMPI DUP1 CALLDATALOAD DUP1 DUP5 MSTORE PUSH1 0x2 PUSH1 0x20 MSTORE SWAP3 DUP3 SWAP1 KECCAK256 SLOAD PUSH1 0x1 PUSH1 0x1 PUSH1 0xA0 SHL SUB AND ISZERO PUSH2 0x3D6 JUMPI POP PUSH2 0x508 PUSH2 0x51B SWAP3 PUSH2 0x1C15 JUMP JUMPDEST SWAP1 MLOAD SWAP2 DUP3 SWAP2 PUSH1 0x20 DUP4 MSTORE PUSH1 0x20 DUP4 ADD SWAP1 PUSH2 0x17CA JUMP JUMPDEST SUB SWAP1 RETURN JUMPDEST POP CALLVALUE PUSH2 0x29B JUMPI PUSH1 0x20 CALLDATASIZE PUSH1 0x3 NOT ADD SLT PUSH2 0x29B JUMPI DUP1 CALLDATALOAD DUP1 DUP5 MSTORE PUSH1 0x2 PUSH1 0x20 MSTORE DUP3 DUP5 KECCAK256 SLOAD SWAP1 SWAP2 SWAP1 PUSH1 0x1 PUSH1 0x1 PUSH1 0xA0 SHL SUB AND ISZERO PUSH2 0x27B JUMPI POP PUSH1 0x1 DUP3 DUP5 PUSH1 0xFF SWAP4 PUSH1 0x20 SWAP7 MSTORE PUSH1 0xD DUP7 MSTORE KECCAK256 ADD SLOAD PUSH1 0x8 SHR AND SWAP1 PUSH1 0x1 DUP3 EQ SWAP2 DUP3 ISZERO PUSH2 0x57D JUMPI JUMPDEST POP MLOAD SWAP1 ISZERO ISZERO DUP2 MSTORE RETURN JUMPDEST PUSH1 0x3 EQ SWAP2 POP CODESIZE PUSH2 0x574 JUMP JUMPDEST POP SWAP1 CALLVALUE PUSH2 0x29B JUMPI PUSH1 0x80 CALLDATASIZE PUSH1 0x3 NOT ADD SLT PUSH2 0x29B JUMPI PUSH2 0x5A3 PUSH2 0x17EF JUMP JUMPDEST PUSH2 0x5AB PUSH2 0x180A JUMP JUMPDEST PUSH1 0x44 CALLDATALOAD SWAP2 DUP6 PUSH1 0x64 CALLDATALOAD SWAP6 PUSH1 0x1 PUSH1 0x1 PUSH1 0x40 SHL SUB DUP8 GT PUSH2 0x49F JUMPI CALLDATASIZE PUSH1 0x23 DUP9 ADD SLT ISZERO PUSH2 0x49F JUMPI DUP7 ADD CALLDATALOAD SWAP6 PUSH2 0x5E6 PUSH2 0x5DD DUP9 PUSH2 0x1993 JUMP JUMPDEST SWAP7 MLOAD SWAP7 DUP8 PUSH2 0x18E9 JUMP JUMPDEST DUP7 DUP7 MSTORE CALLDATASIZE PUSH1 0x24 DUP9 DUP4 ADD ADD GT PUSH2 0x49F JUMPI DUP7 PUSH2 0x619 SWAP8 PUSH1 0x24 PUSH1 0x20 SWAP4 ADD DUP4 DUP10 ADD CALLDATACOPY DUP7 ADD ADD MSTORE PUSH2 0x613 DUP4 DUP4 DUP4 PUSH2 0x1A10 JUMP JUMPDEST CALLER PUSH2 0x22DE JUMP JUMPDEST DUP1 RETURN JUMPDEST POP SWAP2 CALLVALUE PUSH2 0x38F JUMPI PUSH1 0x20 SWAP3 DUP4 PUSH1 0x3 NOT CALLDATASIZE ADD SLT PUSH2 0x49F JUMPI DUP1 CALLDATALOAD SWAP1 DUP3 PUSH1 0xC0 DUP6 MLOAD PUSH2 0x642 DUP2 PUSH2 0x18B3 JUMP JUMPDEST DUP3 DUP2 MSTORE DUP3 DUP9 DUP3 ADD MSTORE DUP3 DUP8 DUP3 ADD MSTORE DUP3 PUSH1 0x60 DUP3 ADD MSTORE DUP3 PUSH1 0x80 DUP3 ADD MSTORE DUP3 PUSH1 0xA0 DUP3 ADD MSTORE ADD MSTORE DUP2 DUP4 MSTORE PUSH1 0x2 DUP6 MSTORE PUSH1 0x1 DUP1 PUSH1 0xA0 SHL SUB DUP5 DUP5 KECCAK256 SLOAD AND ISZERO PUSH2 0x72B JUMPI PUSH1 0xE0 DUP6 PUSH1 0x3 DUP7 DUP1 DUP8 DUP8 DUP2 MSTORE PUSH1 0xD DUP6 MSTORE KECCAK256 DUP2 MLOAD SWAP2 PUSH2 0x697 DUP4 PUSH2 0x18B3 JUMP JUMPDEST DUP2 SLOAD SWAP5 DUP6 DUP5 MSTORE PUSH1 0x1 DUP4 ADD SLOAD SWAP2 DUP2 DUP6 ADD SWAP1 PUSH1 0xFF DUP5 AND DUP3 MSTORE PUSH1 0xFF DUP2 DUP8 ADD DUP2 DUP7 PUSH1 0x8 SHR AND DUP2 MSTORE PUSH1 0x1 PUSH1 0x1 PUSH1 0x40 SHL SUB SWAP5 DUP3 PUSH1 0x60 DUP11 ADD SWAP6 DUP8 DUP10 PUSH1 0x10 SHR AND DUP8 MSTORE DUP2 PUSH1 0x80 DUP13 ADD SWAP10 PUSH1 0x50 SHR AND ISZERO ISZERO DUP10 MSTORE PUSH1 0xC0 PUSH1 0x2 DUP12 ADD SLOAD SWAP11 PUSH1 0xA0 DUP14 ADD SWAP12 DUP13 MSTORE PUSH2 0xFFFF SWAP14 DUP15 SWAP2 ADD SLOAD AND SWAP12 ADD SWAP11 DUP12 MSTORE DUP6 MLOAD SWAP13 DUP14 MSTORE MLOAD AND SWAP1 DUP12 ADD MSTORE MLOAD AND SWAP1 DUP9 ADD MSTORE MLOAD AND PUSH1 0x60 DUP7 ADD MSTORE MLOAD ISZERO ISZERO PUSH1 0x80 DUP6 ADD MSTORE MLOAD PUSH1 0xA0 DUP5 ADD MSTORE MLOAD AND PUSH1 0xC0 DUP3 ADD MSTORE RETURN JUMPDEST DUP4 MLOAD PUSH3 0x6F7087 PUSH1 0xE2 SHL DUP2 MSTORE REVERT JUMPDEST POP SWAP1 CALLVALUE PUSH2 0x29B JUMPI PUSH2 0x120 CALLDATASIZE PUSH1 0x3 NOT ADD SLT PUSH2 0x29B JUMPI PUSH2 0x754 PUSH2 0x17EF JUMP JUMPDEST SWAP3 PUSH2 0x75E CALLDATASIZE PUSH2 0x190A JUMP JUMPDEST SWAP1 PUSH1 0x1 PUSH1 0x1 PUSH1 0x40 SHL SUB PUSH2 0x104 CALLDATALOAD DUP2 DUP2 GT PUSH2 0x29B JUMPI PUSH2 0x77F SWAP1 CALLDATASIZE SWAP1 DUP8 ADD PUSH2 0x1820 JUMP JUMPDEST PUSH1 0x9 SLOAD SWAP1 SWAP3 SWAP1 PUSH1 0x1 PUSH1 0x1 PUSH1 0xA0 SHL SUB SWAP1 PUSH1 0x8 SHR DUP2 AND CALLER SUB PUSH2 0xA0F JUMPI PUSH2 0x7A1 PUSH2 0x2031 JUMP JUMPDEST PUSH2 0x7A9 PUSH2 0x2054 JUMP JUMPDEST DUP9 AND ISZERO PUSH2 0x9FF JUMPI PUSH2 0x200 DUP4 GT PUSH2 0x9EF JUMPI PUSH1 0xC SLOAD PUSH2 0x7C5 SWAP1 PUSH2 0x1BF0 JUMP JUMPDEST SWAP7 DUP8 PUSH1 0xC SSTORE DUP8 DUP6 MSTORE PUSH1 0x20 SWAP9 PUSH1 0xD DUP11 MSTORE DUP9 DUP9 DUP8 KECCAK256 SWAP8 DUP1 MLOAD DUP10 SSTORE PUSH1 0x1 SWAP9 DUP10 DUP2 ADD SWAP1 DUP14 DUP4 ADD MLOAD PUSH1 0xFF AND SWAP2 DUP1 SLOAD SWAP3 DUP14 DUP6 ADD MLOAD PUSH1 0x8 SHL PUSH2 0xFF00 AND SWAP1 PUSH2 0xFFFF NOT DUP1 SWAP6 AND OR OR DUP2 SSTORE DUP8 PUSH1 0x60 DUP6 ADD MLOAD AND PUSH2 0x838 SWAP1 DUP3 SWAP1 PUSH10 0xFFFFFFFFFFFFFFFF0000 DUP3 SLOAD SWAP2 PUSH1 0x10 SHL AND SWAP1 PUSH10 0xFFFFFFFFFFFFFFFF0000 NOT AND OR SWAP1 SSTORE JUMP JUMPDEST PUSH1 0x80 DUP5 ADD MLOAD ISZERO ISZERO DUP2 SLOAD SWAP1 PUSH1 0xFF PUSH1 0x50 SHL SWAP1 PUSH1 0x50 SHL AND SWAP1 PUSH1 0xFF PUSH1 0x50 SHL NOT AND OR SWAP1 SSTORE PUSH1 0xA0 DUP4 ADD MLOAD PUSH1 0x2 DUP3 ADD SSTORE PUSH1 0x3 ADD SWAP2 PUSH1 0xC0 ADD MLOAD PUSH2 0xFFFF AND SWAP1 DUP3 SLOAD AND OR SWAP1 SSTORE PUSH2 0x87D SWAP2 PUSH2 0x2072 JUMP JUMPDEST DUP4 PUSH2 0x891 JUMPI JUMPDEST POP POP POP POP POP PUSH1 0x8 SSTORE MLOAD SWAP1 DUP2 MSTORE RETURN JUMPDEST DUP8 DUP6 MSTORE PUSH1 0xF DUP10 MSTORE DUP7 DUP6 KECCAK256 SWAP2 DUP5 GT PUSH2 0x9DC JUMPI POP SWAP1 DUP2 PUSH2 0x8B1 DUP9 SWAP5 SWAP4 SLOAD PUSH2 0x19AE JUMP JUMPDEST PUSH1 0x1F DUP2 GT PUSH2 0x988 JUMPI JUMPDEST POP DUP5 PUSH1 0x1F DUP5 GT PUSH1 0x1 EQ PUSH2 0x917 JUMPI PUSH1 0x0 DUP1 MLOAD PUSH1 0x20 PUSH2 0x242D DUP4 CODECOPY DUP2 MLOAD SWAP2 MSTORE SWAP5 SWAP6 DUP5 PUSH2 0x90C JUMPI JUMPDEST POP PUSH1 0x0 NOT PUSH1 0x3 DUP6 SWAP1 SHL SHR NOT AND DUP4 DUP8 SHL OR SWAP1 SSTORE JUMPDEST PUSH2 0x8FF DUP7 MLOAD SWAP3 DUP4 SWAP3 DUP4 PUSH2 0x19E8 JUMP JUMPDEST SUB SWAP1 LOG2 CODESIZE DUP1 DUP1 DUP1 DUP1 PUSH2 0x883 JUMP JUMPDEST SWAP1 POP DUP3 ADD CALLDATALOAD CODESIZE PUSH2 0x8DE JUMP JUMPDEST PUSH1 0x1F NOT DUP5 AND SWAP6 DUP3 DUP3 MSTORE DUP11 DUP3 KECCAK256 SWAP2 JUMPDEST DUP12 DUP10 DUP10 DUP4 LT PUSH2 0x971 JUMPI POP POP POP DUP5 PUSH1 0x0 DUP1 MLOAD PUSH1 0x20 PUSH2 0x242D DUP4 CODECOPY DUP2 MLOAD SWAP2 MSTORE SWAP7 SWAP8 LT PUSH2 0x957 JUMPI JUMPDEST POP POP DUP6 DUP4 DUP2 SHL ADD SWAP1 SSTORE PUSH2 0x8F1 JUMP JUMPDEST DUP4 ADD CALLDATALOAD PUSH1 0x0 NOT PUSH1 0x3 DUP7 SWAP1 SHL PUSH1 0xF8 AND SHR NOT AND SWAP1 SSTORE CODESIZE DUP1 PUSH2 0x949 JUMP JUMPDEST DUP4 DUP8 ADD CALLDATALOAD DUP6 SSTORE DUP13 SWAP9 POP SWAP1 SWAP4 ADD SWAP3 SWAP2 DUP3 ADD SWAP2 ADD PUSH2 0x925 JUMP JUMPDEST SWAP1 DUP1 SWAP3 SWAP4 SWAP5 POP DUP6 MSTORE DUP9 DUP6 KECCAK256 PUSH1 0x1F DUP6 ADD PUSH1 0x5 SHR DUP2 ADD SWAP2 DUP11 DUP7 LT PUSH2 0x9D2 JUMPI JUMPDEST DUP10 SWAP6 SWAP5 SWAP4 SWAP3 SWAP2 PUSH1 0x1F DUP10 SWAP3 ADD PUSH1 0x5 SHR ADD SWAP2 JUMPDEST DUP3 DUP2 LT PUSH2 0x9C4 JUMPI POP POP PUSH2 0x8BA JUMP JUMPDEST DUP8 DUP2 SSTORE DUP11 SWAP7 POP DUP9 SWAP2 ADD PUSH2 0x9B6 JUMP JUMPDEST SWAP1 SWAP2 POP DUP2 SWAP1 PUSH2 0x9A5 JUMP JUMPDEST PUSH4 0x4E487B71 PUSH1 0xE0 SHL DUP6 MSTORE PUSH1 0x41 SWAP1 MSTORE PUSH1 0x24 DUP5 REVERT JUMPDEST DUP6 MLOAD PUSH4 0x22E34813 PUSH1 0xE2 SHL DUP2 MSTORE DUP8 SWAP1 REVERT JUMPDEST DUP6 MLOAD PUSH4 0xD92E233D PUSH1 0xE0 SHL DUP2 MSTORE DUP8 SWAP1 REVERT JUMPDEST DUP7 MLOAD PUSH4 0x2B35006D PUSH1 0xE2 SHL DUP2 MSTORE DUP9 SWAP1 REVERT JUMPDEST POP POP CALLVALUE PUSH2 0x49F JUMPI DUP2 PUSH1 0x3 NOT CALLDATASIZE ADD SLT PUSH2 0x49F JUMPI PUSH1 0x9 SLOAD SWAP1 MLOAD PUSH1 0x8 SWAP2 SWAP1 SWAP2 SHR PUSH1 0x1 PUSH1 0x1 PUSH1 0xA0 SHL SUB AND DUP2 MSTORE PUSH1 0x20 SWAP1 RETURN JUMPDEST POP POP CALLVALUE PUSH2 0x49F JUMPI DUP2 PUSH1 0x3 NOT CALLDATASIZE ADD SLT PUSH2 0x49F JUMPI PUSH1 0x20 SWAP1 MLOAD PUSH2 0x200 DUP2 MSTORE RETURN JUMPDEST POP SWAP1 CALLVALUE PUSH2 0x29B JUMPI DUP1 PUSH1 0x3 NOT CALLDATASIZE ADD SLT PUSH2 0x29B JUMPI PUSH2 0xA83 PUSH2 0x17EF JUMP JUMPDEST SWAP1 PUSH1 0x24 CALLDATALOAD SWAP2 DUP3 ISZERO ISZERO DUP1 SWAP4 SUB PUSH2 0xB06 JUMPI PUSH1 0x1 PUSH1 0x1 PUSH1 0xA0 SHL SUB AND SWAP3 DUP4 ISZERO PUSH2 0xAF1 JUMPI POP CALLER DUP5 MSTORE PUSH1 0x5 PUSH1 0x20 MSTORE DUP1 DUP5 KECCAK256 DUP4 DUP6 MSTORE PUSH1 0x20 MSTORE DUP1 DUP5 KECCAK256 PUSH1 0xFF NOT DUP2 SLOAD AND PUSH1 0xFF DUP5 AND OR SWAP1 SSTORE MLOAD SWAP1 DUP2 MSTORE PUSH32 0x17307EAB39AB6107E8899845AD3D59BD9653F200F220920489CA2B5937696C31 PUSH1 0x20 CALLER SWAP3 LOG3 DUP1 RETURN JUMPDEST DUP4 PUSH1 0x24 SWAP3 MLOAD SWAP2 PUSH4 0xB611743 PUSH1 0xE3 SHL DUP4 MSTORE DUP3 ADD MSTORE REVERT JUMPDEST DUP5 DUP1 REVERT JUMPDEST DUP3 DUP5 CALLVALUE PUSH2 0x38F JUMPI DUP1 PUSH1 0x3 NOT CALLDATASIZE ADD SLT PUSH2 0x38F JUMPI POP PUSH1 0xA SLOAD PUSH1 0xB SLOAD SWAP2 MLOAD PUSH1 0x1 PUSH1 0x1 PUSH1 0xA0 SHL SUB SWAP1 SWAP2 AND DUP2 MSTORE PUSH1 0x20 DUP2 ADD SWAP2 SWAP1 SWAP2 MSTORE PUSH1 0x40 SWAP1 RETURN JUMPDEST DUP3 DUP5 CALLVALUE PUSH2 0x38F JUMPI DUP1 PUSH1 0x3 NOT CALLDATASIZE ADD SLT PUSH2 0x38F JUMPI DUP2 MLOAD SWAP2 DUP3 DUP3 PUSH1 0x1 SWAP4 PUSH1 0x1 SLOAD SWAP5 PUSH2 0xB66 DUP7 PUSH2 0x19AE JUMP JUMPDEST SWAP2 DUP3 DUP6 MSTORE PUSH1 0x20 SWAP7 DUP8 PUSH1 0x1 DUP3 AND SWAP2 DUP3 PUSH1 0x0 EQ PUSH2 0xC03 JUMPI POP POP PUSH1 0x1 EQ PUSH2 0xBA7 JUMPI JUMPDEST POP POP POP PUSH2 0x51B SWAP3 SWAP2 PUSH2 0xB98 SWAP2 SUB DUP6 PUSH2 0x18E9 JUMP JUMPDEST MLOAD SWAP3 DUP3 DUP5 SWAP4 DUP5 MSTORE DUP4 ADD SWAP1 PUSH2 0x17CA JUMP JUMPDEST SWAP2 SWAP1 DUP7 SWAP4 POP PUSH1 0x1 DUP4 MSTORE PUSH32 0xB10E2D527612073B26EECDFD717E6A320CF44B4AFAC2B0732D9FCBE2B7FA0CF6 JUMPDEST DUP3 DUP5 LT PUSH2 0xBEB JUMPI POP POP POP DUP3 ADD ADD DUP2 PUSH2 0xB98 PUSH2 0x51B PUSH2 0xB85 JUMP JUMPDEST DUP1 SLOAD DUP5 DUP11 ADD DUP7 ADD MSTORE DUP9 SWAP6 POP DUP8 SWAP5 SWAP1 SWAP4 ADD SWAP3 DUP2 ADD PUSH2 0xBD2 JUMP JUMPDEST PUSH1 0xFF NOT AND DUP8 DUP3 ADD MSTORE SWAP4 ISZERO ISZERO PUSH1 0x5 SHL DUP7 ADD SWAP1 SWAP4 ADD SWAP4 POP DUP5 SWAP3 POP PUSH2 0xB98 SWAP2 POP PUSH2 0x51B SWAP1 POP PUSH2 0xB85 JUMP JUMPDEST POP CALLVALUE PUSH2 0x29B JUMPI PUSH1 0x20 CALLDATASIZE PUSH1 0x3 NOT ADD SLT PUSH2 0x29B JUMPI DUP1 CALLDATALOAD DUP1 DUP5 MSTORE PUSH1 0x2 PUSH1 0x20 MSTORE DUP3 DUP5 KECCAK256 SLOAD SWAP1 SWAP2 SWAP1 PUSH1 0x1 PUSH1 0x1 PUSH1 0xA0 SHL SUB AND ISZERO PUSH2 0x27B JUMPI POP PUSH1 0x1 DUP3 DUP5 PUSH1 0xFF SWAP4 PUSH1 0x20 SWAP7 MSTORE PUSH1 0xD DUP7 MSTORE KECCAK256 ADD SLOAD PUSH1 0x8 SHR AND SWAP1 PUSH1 0x2 DUP3 EQ SWAP2 DUP3 ISZERO PUSH2 0x57D JUMPI POP MLOAD SWAP1 ISZERO ISZERO DUP2 MSTORE RETURN JUMPDEST POP POP CALLVALUE PUSH2 0x49F JUMPI DUP2 PUSH1 0x3 NOT CALLDATASIZE ADD SLT PUSH2 0x49F JUMPI PUSH1 0x6 SLOAD SWAP1 MLOAD PUSH1 0x1 PUSH1 0x1 PUSH1 0xA0 SHL SUB SWAP1 SWAP2 AND DUP2 MSTORE PUSH1 0x20 SWAP1 RETURN JUMPDEST POP CALLVALUE PUSH2 0x29B JUMPI PUSH2 0x100 CALLDATASIZE PUSH1 0x3 NOT ADD SLT PUSH2 0x29B JUMPI PUSH2 0xCCB PUSH2 0x17EF JUMP JUMPDEST SWAP1 PUSH2 0xCD5 CALLDATASIZE PUSH2 0x190A JUMP JUMPDEST PUSH1 0x9 SLOAD SWAP1 SWAP2 SWAP1 PUSH1 0x1 PUSH1 0x1 PUSH1 0xA0 SHL SUB SWAP1 PUSH1 0x8 SHR DUP2 AND CALLER SUB PUSH2 0xDE5 JUMPI PUSH2 0xCF7 PUSH2 0x2031 JUMP JUMPDEST PUSH2 0xCFF PUSH2 0x2054 JUMP JUMPDEST DUP4 AND ISZERO PUSH2 0xDD7 JUMPI POP PUSH1 0x20 SWAP4 DUP4 SWAP3 PUSH2 0xDCC SWAP3 PUSH2 0xD1B PUSH1 0xC SLOAD PUSH2 0x1BF0 JUMP JUMPDEST SWAP6 DUP7 SWAP4 DUP5 PUSH1 0xC SSTORE DUP5 DUP2 MSTORE PUSH1 0xD DUP10 MSTORE KECCAK256 DUP2 MLOAD DUP2 SSTORE PUSH2 0xFFFF PUSH1 0xC0 PUSH1 0x3 PUSH1 0x1 DUP5 ADD SWAP4 PUSH1 0xFF DUP13 DUP8 ADD MLOAD AND SWAP5 DUP1 SLOAD SWAP6 PUSH2 0xFF00 DUP13 DUP10 ADD MLOAD PUSH1 0x8 SHL AND SWAP1 DUP7 NOT DUP1 SWAP9 AND OR OR DUP2 SSTORE PUSH2 0xD92 PUSH1 0x1 PUSH1 0x1 PUSH1 0x40 SHL SUB PUSH1 0x60 DUP10 ADD MLOAD AND DUP3 SWAP1 PUSH10 0xFFFFFFFFFFFFFFFF0000 DUP3 SLOAD SWAP2 PUSH1 0x10 SHL AND SWAP1 PUSH10 0xFFFFFFFFFFFFFFFF0000 NOT AND OR SWAP1 SSTORE JUMP JUMPDEST PUSH1 0x80 DUP8 ADD MLOAD ISZERO ISZERO DUP2 SLOAD SWAP1 PUSH1 0xFF PUSH1 0x50 SHL SWAP1 PUSH1 0x50 SHL AND SWAP1 PUSH1 0xFF PUSH1 0x50 SHL NOT AND OR SWAP1 SSTORE PUSH1 0xA0 DUP7 ADD MLOAD PUSH1 0x2 DUP3 ADD SSTORE ADD SWAP4 ADD MLOAD AND SWAP1 DUP3 SLOAD AND OR SWAP1 SSTORE PUSH2 0x2072 JUMP JUMPDEST PUSH1 0x1 PUSH1 0x8 SSTORE MLOAD SWAP1 DUP2 MSTORE RETURN JUMPDEST DUP4 MLOAD PUSH4 0xD92E233D PUSH1 0xE0 SHL DUP2 MSTORE REVERT JUMPDEST POP DUP4 MLOAD PUSH4 0x2B35006D PUSH1 0xE2 SHL DUP2 MSTORE REVERT JUMPDEST POP POP CALLVALUE PUSH2 0x49F JUMPI DUP2 PUSH1 0x3 NOT CALLDATASIZE ADD SLT PUSH2 0x49F JUMPI PUSH1 0x20 PUSH32 0x62E78CEA01BEE320CD4E420270B5EA74000D11B0C9F74754EBDBFC544B05A258 SWAP2 PUSH2 0xE32 PUSH2 0x2005 JUMP JUMPDEST PUSH2 0xE3A PUSH2 0x2054 JUMP JUMPDEST PUSH1 0x1 PUSH1 0xFF NOT PUSH1 0x9 SLOAD AND OR PUSH1 0x9 SSTORE MLOAD CALLER DUP2 MSTORE LOG1 DUP1 RETURN JUMPDEST POP SWAP1 CALLVALUE PUSH2 0x29B JUMPI DUP3 PUSH1 0x3 NOT CALLDATASIZE ADD SLT PUSH2 0x29B JUMPI PUSH1 0x7 SLOAD SWAP2 PUSH1 0x1 PUSH1 0x1 PUSH1 0xA0 SHL SUB SWAP2 CALLER DUP4 DUP6 AND SUB PUSH2 0xEC0 JUMPI POP POP PUSH1 0x1 PUSH1 0x1 PUSH1 0x60 SHL SUB PUSH1 0xA0 SHL DUP1 SWAP3 AND PUSH1 0x7 SSTORE PUSH1 0x6 SLOAD SWAP2 CALLER SWAP1 DUP4 AND OR PUSH1 0x6 SSTORE CALLER SWAP2 AND PUSH32 0x8BE0079C531659141344CD1FD0A4F28419497F9722A3DAAFE3B4186F6B6457E0 DUP4 DUP1 LOG3 DUP1 RETURN JUMPDEST PUSH1 0x24 SWAP3 POP MLOAD SWAP1 PUSH4 0x118CDAA7 PUSH1 0xE0 SHL DUP3 MSTORE CALLER SWAP1 DUP3 ADD MSTORE REVERT JUMPDEST DUP4 CALLVALUE PUSH2 0x38F JUMPI DUP1 PUSH1 0x3 NOT CALLDATASIZE ADD SLT PUSH2 0x38F JUMPI PUSH2 0xEF0 PUSH2 0x2005 JUMP JUMPDEST PUSH1 0x7 DUP1 SLOAD PUSH1 0x1 PUSH1 0x1 PUSH1 0xA0 SHL SUB NOT SWAP1 DUP2 AND SWAP1 SWAP2 SSTORE PUSH1 0x6 DUP1 SLOAD SWAP2 DUP3 AND SWAP1 SSTORE DUP2 SWAP1 PUSH1 0x1 PUSH1 0x1 PUSH1 0xA0 SHL SUB AND PUSH32 0x8BE0079C531659141344CD1FD0A4F28419497F9722A3DAAFE3B4186F6B6457E0 DUP3 DUP1 LOG3 DUP1 RETURN JUMPDEST POP SWAP2 CALLVALUE PUSH2 0x38F JUMPI PUSH1 0x20 CALLDATASIZE PUSH1 0x3 NOT ADD SLT PUSH2 0x38F JUMPI PUSH1 0x1 PUSH1 0x1 PUSH1 0xA0 SHL SUB PUSH2 0xF61 PUSH2 0x17EF JUMP JUMPDEST AND SWAP3 DUP4 ISZERO PUSH2 0xF7E JUMPI POP DUP1 PUSH1 0x20 SWAP4 DUP4 SWAP3 MSTORE PUSH1 0x3 DUP5 MSTORE KECCAK256 SLOAD SWAP1 MLOAD SWAP1 DUP2 MSTORE RETURN JUMPDEST SWAP2 MLOAD PUSH4 0x22718AD9 PUSH1 0xE2 SHL DUP2 MSTORE SWAP2 DUP3 ADD MSTORE PUSH1 0x24 SWAP1 REVERT JUMPDEST POP SWAP2 CALLVALUE PUSH2 0x38F JUMPI PUSH1 0x20 CALLDATASIZE PUSH1 0x3 NOT ADD SLT PUSH2 0x38F JUMPI POP PUSH2 0xFB3 PUSH1 0x20 SWAP3 CALLDATALOAD PUSH2 0x1FCA JUMP JUMPDEST SWAP1 MLOAD PUSH1 0x1 PUSH1 0x1 PUSH1 0xA0 SHL SUB SWAP1 SWAP2 AND DUP2 MSTORE RETURN JUMPDEST POP POP CALLVALUE PUSH2 0x49F JUMPI DUP2 PUSH1 0x3 NOT CALLDATASIZE ADD SLT PUSH2 0x49F JUMPI PUSH1 0x20 SWAP1 PUSH1 0xFF PUSH1 0x9 SLOAD AND SWAP1 MLOAD SWAP1 ISZERO ISZERO DUP2 MSTORE RETURN JUMPDEST POP POP CALLVALUE PUSH2 0x49F JUMPI DUP2 PUSH1 0x3 NOT CALLDATASIZE ADD SLT PUSH2 0x49F JUMPI PUSH1 0x20 SWAP1 MLOAD PUSH3 0x15180 DUP2 MSTORE RETURN JUMPDEST POP DUP3 SWAP1 CALLVALUE PUSH2 0x49F JUMPI PUSH1 0x20 SWAP3 PUSH1 0x20 PUSH1 0x3 NOT CALLDATASIZE ADD SLT PUSH2 0x29B JUMPI PUSH1 0x1 PUSH1 0x1 PUSH1 0x40 SHL SUB SWAP1 DUP3 CALLDATALOAD DUP3 DUP2 GT PUSH2 0xB06 JUMPI PUSH2 0x103C SWAP1 CALLDATASIZE SWAP1 DUP6 ADD PUSH2 0x1820 JUMP JUMPDEST SWAP4 SWAP1 SWAP3 PUSH2 0x1047 PUSH2 0x2005 JUMP JUMPDEST PUSH2 0x200 DUP6 GT PUSH2 0x11E7 JUMPI DUP5 GT PUSH2 0x9DC JUMPI POP PUSH2 0x1062 PUSH1 0xE SLOAD PUSH2 0x19AE JUMP JUMPDEST PUSH1 0x1F DUP2 GT PUSH2 0x1184 JUMPI JUMPDEST POP DUP4 SWAP5 PUSH1 0x1F DUP5 GT PUSH1 0x1 EQ PUSH2 0x10D9 JUMPI POP PUSH2 0x10C8 SWAP1 DUP4 DUP6 SWAP7 PUSH32 0x6741B2FC379FAD678116FE3D4D4B9A1A184AB53BA36B86AD0FA66340B1AB41AD SWAP7 SWAP2 PUSH2 0x10CE JUMPI JUMPDEST POP DUP5 PUSH1 0x1 SHL SWAP1 PUSH1 0x0 NOT DUP7 PUSH1 0x3 SHL SHR NOT AND OR PUSH1 0xE SSTORE JUMPDEST MLOAD SWAP3 DUP4 SWAP3 DUP4 PUSH2 0x19E8 JUMP JUMPDEST SUB SWAP1 LOG1 DUP1 RETURN JUMPDEST SWAP1 POP DUP4 ADD CALLDATALOAD DUP8 PUSH2 0x10A9 JUMP JUMPDEST SWAP5 PUSH1 0x1F NOT DUP5 AND PUSH1 0xE DUP7 MSTORE PUSH32 0xBB7B4A454DC3493923482F07822329ED19E8244EFF582CC204F8554C3620C3FD SWAP7 DUP7 SWAP1 JUMPDEST DUP3 DUP3 LT PUSH2 0x116B JUMPI POP POP SWAP6 PUSH2 0x10C8 SWAP3 SWAP2 DUP6 PUSH32 0x6741B2FC379FAD678116FE3D4D4B9A1A184AB53BA36B86AD0FA66340B1AB41AD SWAP8 SWAP9 LT PUSH2 0x1151 JUMPI JUMPDEST POP POP PUSH1 0x1 DUP5 DUP2 SHL ADD PUSH1 0xE SSTORE PUSH2 0x10BE JUMP JUMPDEST DUP5 ADD CALLDATALOAD PUSH1 0x0 NOT PUSH1 0x3 DUP8 SWAP1 SHL PUSH1 0xF8 AND SHR NOT AND SWAP1 SSTORE DUP7 DUP1 PUSH2 0x1141 JUMP JUMPDEST DUP4 DUP7 ADD CALLDATALOAD DUP10 SSTORE PUSH1 0x1 SWAP1 SWAP9 ADD SWAP8 SWAP3 DUP4 ADD SWAP3 SWAP1 DUP2 ADD SWAP1 PUSH2 0x1108 JUMP JUMPDEST PUSH1 0xE DUP6 MSTORE PUSH32 0xBB7B4A454DC3493923482F07822329ED19E8244EFF582CC204F8554C3620C3FD PUSH1 0x1F DUP6 ADD PUSH1 0x5 SHR DUP2 ADD SWAP2 PUSH1 0x20 DUP7 LT PUSH2 0x11DD JUMPI JUMPDEST PUSH1 0x1F ADD PUSH1 0x5 SHR ADD SWAP1 JUMPDEST DUP2 DUP2 LT PUSH2 0x11D2 JUMPI POP PUSH2 0x106B JUMP JUMPDEST DUP6 DUP2 SSTORE PUSH1 0x1 ADD PUSH2 0x11C5 JUMP JUMPDEST SWAP1 SWAP2 POP DUP2 SWAP1 PUSH2 0x11BC JUMP JUMPDEST POP SWAP1 MLOAD PUSH4 0x22E34813 PUSH1 0xE2 SHL DUP2 MSTORE REVERT JUMPDEST POP POP CALLVALUE PUSH2 0x49F JUMPI PUSH2 0x619 SWAP1 PUSH2 0x120A CALLDATASIZE PUSH2 0x184D JUMP JUMPDEST SWAP2 SWAP3 MLOAD SWAP3 PUSH2 0x1217 DUP5 PUSH2 0x18CE JUMP JUMPDEST DUP6 DUP5 MSTORE PUSH2 0x613 DUP4 DUP4 DUP4 PUSH2 0x1A10 JUMP JUMPDEST POP CALLVALUE PUSH2 0x29B JUMPI DUP3 PUSH1 0x3 NOT CALLDATASIZE ADD SLT PUSH2 0x29B JUMPI PUSH2 0x123E PUSH2 0x2005 JUMP JUMPDEST PUSH1 0x9 SLOAD SWAP1 PUSH1 0xFF DUP3 AND ISZERO PUSH2 0x1280 JUMPI POP PUSH1 0xFF NOT AND PUSH1 0x9 SSTORE MLOAD CALLER DUP2 MSTORE PUSH32 0x5DB9EE0A495BF2E6FF9C91A7834C1BA4FDD244A5E8AA4E537BD38AEAE4B073AA SWAP1 PUSH1 0x20 SWAP1 LOG1 DUP1 RETURN JUMPDEST DUP3 MLOAD PUSH4 0x8DFC202B PUSH1 0xE0 SHL DUP2 MSTORE REVERT JUMPDEST POP SWAP1 CALLVALUE PUSH2 0x29B JUMPI PUSH1 0x20 CALLDATASIZE PUSH1 0x3 NOT ADD SLT PUSH2 0x29B JUMPI PUSH2 0x12A9 PUSH2 0x17EF JUMP JUMPDEST SWAP2 PUSH2 0x12B2 PUSH2 0x2005 JUMP JUMPDEST PUSH1 0x1 PUSH1 0x1 PUSH1 0xA0 SHL SUB SWAP3 DUP4 AND SWAP3 DUP4 ISZERO PUSH2 0x1345 JUMPI PUSH3 0x15180 TIMESTAMP ADD SWAP2 DUP3 TIMESTAMP GT PUSH2 0x1332 JUMPI POP DUP2 PUSH1 0x20 SWAP2 PUSH32 0x25A8BBB0546FB970F237A9D8FAAEBB8610077D196EEF4BA1D6145AD23A691041 SWAP4 DUP4 DUP7 MLOAD PUSH2 0x1305 DUP2 PUSH2 0x1882 JUMP JUMPDEST DUP9 DUP2 MSTORE ADD MSTORE DUP6 PUSH1 0x1 PUSH1 0x1 PUSH1 0x60 SHL SUB PUSH1 0xA0 SHL PUSH1 0xA SLOAD AND OR PUSH1 0xA SSTORE DUP2 PUSH1 0xB SSTORE PUSH1 0x9 SLOAD PUSH1 0x8 SHR AND SWAP4 MLOAD SWAP1 DUP2 MSTORE LOG3 DUP1 RETURN JUMPDEST PUSH4 0x4E487B71 PUSH1 0xE0 SHL DUP7 MSTORE PUSH1 0x11 SWAP1 MSTORE PUSH1 0x24 DUP6 REVERT JUMPDEST POP SWAP1 MLOAD PUSH4 0xD92E233D PUSH1 0xE0 SHL DUP2 MSTORE REVERT JUMPDEST DUP4 CALLVALUE PUSH2 0x38F JUMPI PUSH2 0x619 PUSH2 0x1366 CALLDATASIZE PUSH2 0x184D JUMP JUMPDEST SWAP2 PUSH2 0x1A10 JUMP JUMPDEST POP POP CALLVALUE PUSH2 0x49F JUMPI DUP2 PUSH1 0x3 NOT CALLDATASIZE ADD SLT PUSH2 0x49F JUMPI PUSH1 0x20 SWAP1 PUSH1 0xC SLOAD SWAP1 MLOAD SWAP1 DUP2 MSTORE RETURN JUMPDEST POP DUP3 SWAP1 CALLVALUE PUSH2 0x49F JUMPI DUP3 PUSH1 0x3 NOT CALLDATASIZE ADD SLT PUSH2 0x49F JUMPI DUP1 CALLDATALOAD SWAP1 PUSH1 0x1 PUSH1 0x1 PUSH1 0x40 SHL SUB SWAP1 PUSH1 0x24 CALLDATALOAD DUP3 DUP2 GT PUSH2 0xB06 JUMPI PUSH2 0x13C1 SWAP1 CALLDATASIZE SWAP1 DUP4 ADD PUSH2 0x1820 JUMP JUMPDEST PUSH1 0x9 SLOAD SWAP1 SWAP4 SWAP2 SWAP3 PUSH1 0x1 PUSH1 0x1 PUSH1 0xA0 SHL SUB SWAP2 PUSH1 0x8 SHR DUP3 AND CALLER SUB PUSH2 0x1565 JUMPI DUP6 DUP8 MSTORE PUSH1 0x20 SWAP2 PUSH1 0x2 DUP4 MSTORE DUP9 DUP9 KECCAK256 SLOAD AND ISZERO PUSH2 0x1558 JUMPI PUSH2 0x200 DUP6 GT PUSH2 0x154A JUMPI DUP6 DUP8 MSTORE PUSH1 0xF DUP3 MSTORE DUP8 DUP8 KECCAK256 SWAP3 DUP6 GT PUSH2 0x1537 JUMPI POP PUSH2 0x1415 DUP3 SLOAD PUSH2 0x19AE JUMP JUMPDEST PUSH1 0x1F DUP2 GT PUSH2 0x14F4 JUMPI JUMPDEST POP DUP6 SWAP1 PUSH1 0x1F DUP6 GT PUSH1 0x1 EQ PUSH2 0x147A JUMPI POP SWAP6 PUSH2 0x1469 SWAP2 DUP5 DUP8 SWAP9 PUSH1 0x0 DUP1 MLOAD PUSH1 0x20 PUSH2 0x242D DUP4 CODECOPY DUP2 MLOAD SWAP2 MSTORE SWAP8 SWAP9 SWAP2 PUSH2 0x146F JUMPI JUMPDEST POP DUP6 PUSH1 0x1 SHL SWAP1 PUSH1 0x0 NOT DUP8 PUSH1 0x3 SHL SHR NOT AND OR SWAP1 SSTORE MLOAD SWAP3 DUP4 SWAP3 DUP4 PUSH2 0x19E8 JUMP JUMPDEST SUB SWAP1 LOG2 DUP1 RETURN JUMPDEST SWAP1 POP DUP5 ADD CALLDATALOAD DUP10 PUSH2 0x144C JUMP JUMPDEST SWAP1 PUSH1 0x1F NOT DUP6 AND DUP4 DUP9 MSTORE DUP3 DUP9 KECCAK256 SWAP3 DUP9 SWAP1 JUMPDEST DUP3 DUP3 LT PUSH2 0x14DC JUMPI POP POP SWAP2 PUSH2 0x1469 SWAP4 SWAP2 DUP7 PUSH1 0x0 DUP1 MLOAD PUSH1 0x20 PUSH2 0x242D DUP4 CODECOPY DUP2 MLOAD SWAP2 MSTORE SWAP9 SWAP10 SWAP11 SWAP5 LT PUSH2 0x14C2 JUMPI JUMPDEST POP POP PUSH1 0x1 DUP6 DUP2 SHL ADD SWAP1 SSTORE PUSH2 0x10BE JUMP JUMPDEST DUP6 ADD CALLDATALOAD PUSH1 0x0 NOT PUSH1 0x3 DUP9 SWAP1 SHL PUSH1 0xF8 AND SHR NOT AND SWAP1 SSTORE DUP9 DUP1 PUSH2 0x14B3 JUMP JUMPDEST DUP1 PUSH1 0x1 DUP6 SWAP7 DUP3 SWAP5 SWAP7 DUP11 ADD CALLDATALOAD DUP2 SSTORE ADD SWAP6 ADD SWAP4 ADD SWAP1 PUSH2 0x148A JUMP JUMPDEST DUP3 DUP8 MSTORE DUP2 DUP8 KECCAK256 PUSH1 0x1F DUP7 ADD PUSH1 0x5 SHR DUP2 ADD SWAP2 DUP4 DUP8 LT PUSH2 0x152D JUMPI JUMPDEST PUSH1 0x1F ADD PUSH1 0x5 SHR ADD SWAP1 JUMPDEST DUP2 DUP2 LT PUSH2 0x1522 JUMPI POP PUSH2 0x141E JUMP JUMPDEST DUP8 DUP2 SSTORE PUSH1 0x1 ADD PUSH2 0x1515 JUMP JUMPDEST SWAP1 SWAP2 POP DUP2 SWAP1 PUSH2 0x150C JUMP JUMPDEST PUSH4 0x4E487B71 PUSH1 0xE0 SHL DUP8 MSTORE PUSH1 0x41 SWAP1 MSTORE PUSH1 0x24 DUP7 REVERT JUMPDEST DUP8 MLOAD PUSH4 0x22E34813 PUSH1 0xE2 SHL DUP2 MSTORE REVERT JUMPDEST DUP8 MLOAD PUSH3 0x6F7087 PUSH1 0xE2 SHL DUP2 MSTORE REVERT JUMPDEST DUP8 MLOAD PUSH4 0x2B35006D PUSH1 0xE2 SHL DUP2 MSTORE REVERT JUMPDEST POP SWAP1 CALLVALUE PUSH2 0x29B JUMPI DUP1 PUSH1 0x3 NOT CALLDATASIZE ADD SLT PUSH2 0x29B JUMPI PUSH2 0x158D PUSH2 0x17EF JUMP JUMPDEST SWAP2 PUSH1 0x24 CALLDATALOAD PUSH2 0x159A DUP2 PUSH2 0x1FCA JUMP JUMPDEST CALLER ISZERO ISZERO DUP1 PUSH2 0x163C JUMPI JUMPDEST DUP1 PUSH2 0x1613 JUMPI JUMPDEST PUSH2 0x15FD JUMPI PUSH1 0x1 PUSH1 0x1 PUSH1 0xA0 SHL SUB SWAP5 DUP6 AND SWAP5 DUP3 SWAP2 DUP7 SWAP2 AND PUSH32 0x8C5BE1E5EBEC7D5BD14F71427D1E84F3DD0314C0F7B2291E5B200AC8C7C3B925 DUP9 DUP1 LOG4 DUP5 MSTORE PUSH1 0x20 MSTORE DUP3 KECCAK256 DUP1 SLOAD PUSH1 0x1 PUSH1 0x1 PUSH1 0xA0 SHL SUB NOT AND SWAP1 SWAP2 OR SWAP1 SSTORE DUP1 RETURN JUMPDEST DUP4 MLOAD PUSH4 0xA9FBF51F PUSH1 0xE0 SHL DUP2 MSTORE CALLER DUP2 DUP6 ADD MSTORE PUSH1 0x24 SWAP1 REVERT JUMPDEST POP PUSH1 0x1 PUSH1 0x1 PUSH1 0xA0 SHL SUB DUP2 AND DUP7 MSTORE PUSH1 0x5 PUSH1 0x20 SWAP1 DUP2 MSTORE DUP5 DUP8 KECCAK256 CALLER DUP9 MSTORE SWAP1 MSTORE DUP4 DUP7 KECCAK256 SLOAD PUSH1 0xFF AND ISZERO PUSH2 0x15A9 JUMP JUMPDEST POP PUSH1 0x1 PUSH1 0x1 PUSH1 0xA0 SHL SUB DUP2 AND CALLER EQ ISZERO PUSH2 0x15A3 JUMP JUMPDEST POP CALLVALUE PUSH2 0x29B JUMPI PUSH1 0x20 CALLDATASIZE PUSH1 0x3 NOT ADD SLT PUSH2 0x29B JUMPI SWAP2 DUP3 PUSH1 0x20 SWAP4 CALLDATALOAD PUSH2 0x1670 DUP2 PUSH2 0x1FCA JUMP JUMPDEST POP DUP3 MSTORE DUP4 MSTORE DUP2 SWAP1 KECCAK256 SLOAD SWAP1 MLOAD PUSH1 0x1 PUSH1 0x1 PUSH1 0xA0 SHL SUB SWAP1 SWAP2 AND DUP2 MSTORE RETURN JUMPDEST DUP3 DUP5 CALLVALUE PUSH2 0x38F JUMPI DUP1 PUSH1 0x3 NOT CALLDATASIZE ADD SLT PUSH2 0x38F JUMPI DUP2 MLOAD SWAP2 DUP3 DUP3 DUP4 SLOAD PUSH2 0x16AC DUP2 PUSH2 0x19AE JUMP JUMPDEST SWAP1 DUP2 DUP5 MSTORE PUSH1 0x20 SWAP6 PUSH1 0x1 SWAP2 DUP8 PUSH1 0x1 DUP3 AND SWAP2 DUP3 PUSH1 0x0 EQ PUSH2 0xC03 JUMPI POP POP PUSH1 0x1 EQ PUSH2 0x16E0 JUMPI POP POP POP PUSH2 0x51B SWAP3 SWAP2 PUSH2 0xB98 SWAP2 SUB DUP6 PUSH2 0x18E9 JUMP JUMPDEST SWAP2 SWAP1 DUP7 SWAP4 POP DUP3 DUP1 MSTORE PUSH32 0x290DECD9548B62A8D60345A988386FC84BA6BC95484008F6362F93160EF3E563 JUMPDEST DUP3 DUP5 LT PUSH2 0x1723 JUMPI POP POP POP DUP3 ADD ADD DUP2 PUSH2 0xB98 PUSH2 0x51B PUSH2 0xB85 JUMP JUMPDEST DUP1 SLOAD DUP5 DUP11 ADD DUP7 ADD MSTORE DUP9 SWAP6 POP DUP8 SWAP5 SWAP1 SWAP4 ADD SWAP3 DUP2 ADD PUSH2 0x170A JUMP JUMPDEST SWAP3 POP POP CALLVALUE PUSH2 0x29B JUMPI PUSH1 0x20 CALLDATASIZE PUSH1 0x3 NOT ADD SLT PUSH2 0x29B JUMPI CALLDATALOAD PUSH4 0xFFFFFFFF PUSH1 0xE0 SHL DUP2 AND DUP1 SWAP2 SUB PUSH2 0x29B JUMPI PUSH1 0x20 SWAP3 POP PUSH4 0x80AC58CD PUSH1 0xE0 SHL DUP2 EQ SWAP1 DUP2 ISZERO PUSH2 0x1796 JUMPI JUMPDEST DUP2 ISZERO PUSH2 0x1785 JUMPI JUMPDEST POP ISZERO ISZERO DUP2 MSTORE RETURN JUMPDEST PUSH4 0x1FFC9A7 PUSH1 0xE0 SHL EQ SWAP1 POP CODESIZE PUSH2 0x177E JUMP JUMPDEST PUSH4 0x5B5E139F PUSH1 0xE0 SHL DUP2 EQ SWAP2 POP PUSH2 0x1777 JUMP JUMPDEST PUSH1 0x0 JUMPDEST DUP4 DUP2 LT PUSH2 0x17BA JUMPI POP POP PUSH1 0x0 SWAP2 ADD MSTORE JUMP JUMPDEST DUP2 DUP2 ADD MLOAD DUP4 DUP3 ADD MSTORE PUSH1 0x20 ADD PUSH2 0x17AA JUMP JUMPDEST SWAP1 PUSH1 0x20 SWAP2 PUSH2 0x17E3 DUP2 MLOAD DUP1 SWAP3 DUP2 DUP6 MSTORE DUP6 DUP1 DUP7 ADD SWAP2 ADD PUSH2 0x17A7 JUMP JUMPDEST PUSH1 0x1F ADD PUSH1 0x1F NOT AND ADD ADD SWAP1 JUMP JUMPDEST PUSH1 0x4 CALLDATALOAD SWAP1 PUSH1 0x1 PUSH1 0x1 PUSH1 0xA0 SHL SUB DUP3 AND DUP3 SUB PUSH2 0x1805 JUMPI JUMP JUMPDEST PUSH1 0x0 DUP1 REVERT JUMPDEST PUSH1 0x24 CALLDATALOAD SWAP1 PUSH1 0x1 PUSH1 0x1 PUSH1 0xA0 SHL SUB DUP3 AND DUP3 SUB PUSH2 0x1805 JUMPI JUMP JUMPDEST SWAP2 DUP2 PUSH1 0x1F DUP5 ADD SLT ISZERO PUSH2 0x1805 JUMPI DUP3 CALLDATALOAD SWAP2 PUSH1 0x1 PUSH1 0x1 PUSH1 0x40 SHL SUB DUP4 GT PUSH2 0x1805 JUMPI PUSH1 0x20 DUP4 DUP2 DUP7 ADD SWAP6 ADD ADD GT PUSH2 0x1805 JUMPI JUMP JUMPDEST PUSH1 0x60 SWAP1 PUSH1 0x3 NOT ADD SLT PUSH2 0x1805 JUMPI PUSH1 0x1 PUSH1 0x1 PUSH1 0xA0 SHL SUB SWAP1 PUSH1 0x4 CALLDATALOAD DUP3 DUP2 AND DUP2 SUB PUSH2 0x1805 JUMPI SWAP2 PUSH1 0x24 CALLDATALOAD SWAP1 DUP2 AND DUP2 SUB PUSH2 0x1805 JUMPI SWAP1 PUSH1 0x44 CALLDATALOAD SWAP1 JUMP JUMPDEST PUSH1 0x40 DUP2 ADD SWAP1 DUP2 LT PUSH1 0x1 PUSH1 0x1 PUSH1 0x40 SHL SUB DUP3 GT OR PUSH2 0x189D JUMPI PUSH1 0x40 MSTORE JUMP JUMPDEST PUSH4 0x4E487B71 PUSH1 0xE0 SHL PUSH1 0x0 MSTORE PUSH1 0x41 PUSH1 0x4 MSTORE PUSH1 0x24 PUSH1 0x0 REVERT JUMPDEST PUSH1 0xE0 DUP2 ADD SWAP1 DUP2 LT PUSH1 0x1 PUSH1 0x1 PUSH1 0x40 SHL SUB DUP3 GT OR PUSH2 0x189D JUMPI PUSH1 0x40 MSTORE JUMP JUMPDEST PUSH1 0x20 DUP2 ADD SWAP1 DUP2 LT PUSH1 0x1 PUSH1 0x1 PUSH1 0x40 SHL SUB DUP3 GT OR PUSH2 0x189D JUMPI PUSH1 0x40 MSTORE JUMP JUMPDEST SWAP1 PUSH1 0x1F DUP1 NOT SWAP2 ADD AND DUP2 ADD SWAP1 DUP2 LT PUSH1 0x1 PUSH1 0x1 PUSH1 0x40 SHL SUB DUP3 GT OR PUSH2 0x189D JUMPI PUSH1 0x40 MSTORE JUMP JUMPDEST PUSH1 0xE0 SWAP1 PUSH1 0x23 NOT ADD SLT PUSH2 0x1805 JUMPI PUSH1 0x40 MLOAD SWAP1 PUSH2 0x1923 DUP3 PUSH2 0x18B3 JUMP JUMPDEST DUP2 PUSH1 0x24 CALLDATALOAD DUP2 MSTORE PUSH1 0x44 CALLDATALOAD PUSH1 0xFF DUP2 AND DUP2 SUB PUSH2 0x1805 JUMPI PUSH1 0x20 DUP3 ADD MSTORE PUSH1 0x64 CALLDATALOAD PUSH1 0xFF DUP2 AND DUP2 SUB PUSH2 0x1805 JUMPI PUSH1 0x40 DUP3 ADD MSTORE PUSH1 0x84 CALLDATALOAD PUSH1 0x1 PUSH1 0x1 PUSH1 0x40 SHL SUB DUP2 AND DUP2 SUB PUSH2 0x1805 JUMPI PUSH1 0x60 DUP3 ADD MSTORE PUSH1 0xA4 CALLDATALOAD DUP1 ISZERO ISZERO DUP2 SUB PUSH2 0x1805 JUMPI PUSH1 0x80 DUP3 ADD MSTORE PUSH1 0xC4 CALLDATALOAD PUSH1 0xA0 DUP3 ADD MSTORE PUSH1 0xE4 CALLDATALOAD SWAP1 PUSH2 0xFFFF DUP3 AND DUP3 SUB PUSH2 0x1805 JUMPI PUSH1 0xC0 ADD MSTORE JUMP JUMPDEST PUSH1 0x1 PUSH1 0x1 PUSH1 0x40 SHL SUB DUP2 GT PUSH2 0x189D JUMPI PUSH1 0x1F ADD PUSH1 0x1F NOT AND PUSH1 0x20 ADD SWAP1 JUMP JUMPDEST SWAP1 PUSH1 0x1 DUP3 DUP2 SHR SWAP3 AND DUP1 ISZERO PUSH2 0x19DE JUMPI JUMPDEST PUSH1 0x20 DUP4 LT EQ PUSH2 0x19C8 JUMPI JUMP JUMPDEST PUSH4 0x4E487B71 PUSH1 0xE0 SHL PUSH1 0x0 MSTORE PUSH1 0x22 PUSH1 0x4 MSTORE PUSH1 0x24 PUSH1 0x0 REVERT JUMPDEST SWAP2 PUSH1 0x7F AND SWAP2 PUSH2 0x19BD JUMP JUMPDEST SWAP1 SWAP2 DUP1 PUSH1 0x40 SWAP4 PUSH1 0x20 DUP5 MSTORE DUP2 PUSH1 0x20 DUP6 ADD MSTORE DUP5 DUP5 ADD CALLDATACOPY PUSH1 0x0 DUP3 DUP3 ADD DUP5 ADD MSTORE PUSH1 0x1F ADD PUSH1 0x1F NOT AND ADD ADD SWAP1 JUMP JUMPDEST SWAP2 PUSH1 0x1 PUSH1 0x1 PUSH1 0xA0 SHL SUB SWAP2 DUP3 AND SWAP2 DUP3 ISZERO PUSH2 0x1BD7 JUMPI PUSH1 0x0 SWAP4 DUP3 DUP6 MSTORE PUSH1 0x20 SWAP4 PUSH1 0x2 DUP6 MSTORE PUSH1 0x40 SWAP6 DUP4 DUP8 DUP3 KECCAK256 SLOAD AND SWAP6 CALLER ISZERO ISZERO DUP1 PUSH2 0x1B49 JUMPI JUMPDEST POP DUP8 DUP8 ISZERO ISZERO DUP1 PUSH2 0x1B16 JUMPI JUMPDEST DUP5 DUP5 MSTORE PUSH1 0x3 DUP4 MSTORE DUP2 DUP5 KECCAK256 DUP1 SLOAD PUSH1 0x1 ADD SWAP1 SSTORE DUP8 DUP5 MSTORE PUSH1 0x2 DUP4 MSTORE DUP2 DUP5 KECCAK256 DUP1 SLOAD PUSH1 0x1 PUSH1 0x1 PUSH1 0xA0 SHL SUB NOT AND DUP7 OR SWAP1 SSTORE DUP2 MLOAD SWAP5 DUP9 SWAP1 DUP11 PUSH32 0xDDF252AD1BE2C89B69C2B068FC378DAA952BA7F163C4A11628F55A4DF523B3EF DUP8 DUP1 LOG4 DUP1 PUSH2 0x1B0E JUMPI JUMPDEST PUSH2 0x1AE2 JUMPI JUMPDEST POP POP POP POP AND SWAP3 DUP4 DUP4 SUB PUSH2 0x1AC1 JUMPI POP POP POP POP JUMP JUMPDEST PUSH1 0x64 SWAP5 POP MLOAD SWAP3 PUSH4 0x64283D7B PUSH1 0xE0 SHL DUP5 MSTORE PUSH1 0x4 DUP5 ADD MSTORE PUSH1 0x24 DUP4 ADD MSTORE PUSH1 0x44 DUP3 ADD MSTORE REVERT JUMPDEST PUSH1 0xFF SWAP3 PUSH1 0xD PUSH1 0x1 SWAP4 MSTORE KECCAK256 ADD SLOAD PUSH1 0x50 SHR AND ISZERO PUSH2 0x1AFF JUMPI DUP1 DUP1 DUP8 PUSH2 0x1AAE JUMP JUMPDEST PUSH4 0xDC8D8DB7 PUSH1 0xE0 SHL DUP2 MSTORE PUSH1 0x4 SWAP1 REVERT JUMPDEST POP PUSH1 0x1 PUSH2 0x1AA9 JUMP JUMPDEST PUSH1 0x0 DUP9 DUP2 MSTORE PUSH1 0x4 PUSH1 0x20 MSTORE PUSH1 0x40 SWAP1 KECCAK256 DUP1 SLOAD PUSH1 0x1 PUSH1 0x1 PUSH1 0xA0 SHL SUB NOT AND SWAP1 SSTORE DUP9 DUP5 MSTORE PUSH1 0x3 DUP4 MSTORE DUP2 DUP5 KECCAK256 DUP1 SLOAD PUSH1 0x0 NOT ADD SWAP1 SSTORE PUSH2 0x1A4E JUMP JUMPDEST DUP1 PUSH2 0x1B96 JUMPI JUMPDEST ISZERO PUSH2 0x1B5A JUMPI CODESIZE PUSH2 0x1A43 JUMP JUMPDEST DUP8 DUP7 DUP9 PUSH2 0x1B77 JUMPI PUSH1 0x24 SWAP2 MLOAD SWAP1 PUSH4 0x7E273289 PUSH1 0xE0 SHL DUP3 MSTORE PUSH1 0x4 DUP3 ADD MSTORE REVERT JUMPDEST SWAP1 MLOAD PUSH4 0x177E802F PUSH1 0xE0 SHL DUP2 MSTORE CALLER PUSH1 0x4 DUP3 ADD MSTORE PUSH1 0x24 DUP2 ADD SWAP2 SWAP1 SWAP2 MSTORE PUSH1 0x44 SWAP1 REVERT JUMPDEST POP CALLER DUP8 EQ DUP1 ISZERO PUSH2 0x1BBB JUMPI JUMPDEST DUP1 PUSH2 0x1B4F JUMPI POP DUP6 DUP3 MSTORE PUSH1 0x4 DUP2 MSTORE CALLER DUP6 DUP10 DUP5 KECCAK256 SLOAD AND EQ PUSH2 0x1B4F JUMP JUMPDEST POP DUP7 DUP3 MSTORE PUSH1 0x5 DUP2 MSTORE DUP8 DUP3 KECCAK256 CALLER DUP4 MSTORE DUP2 MSTORE PUSH1 0xFF DUP9 DUP4 KECCAK256 SLOAD AND PUSH2 0x1BA1 JUMP JUMPDEST PUSH1 0x40 MLOAD PUSH4 0x32505749 PUSH1 0xE1 SHL DUP2 MSTORE PUSH1 0x0 PUSH1 0x4 DUP3 ADD MSTORE PUSH1 0x24 SWAP1 REVERT JUMPDEST PUSH1 0x0 NOT DUP2 EQ PUSH2 0x1BFF JUMPI PUSH1 0x1 ADD SWAP1 JUMP JUMPDEST PUSH4 0x4E487B71 PUSH1 0xE0 SHL PUSH1 0x0 MSTORE PUSH1 0x11 PUSH1 0x4 MSTORE PUSH1 0x24 PUSH1 0x0 REVERT JUMPDEST PUSH1 0x0 SWAP1 DUP1 DUP3 MSTORE PUSH1 0x20 SWAP1 PUSH1 0xF DUP3 MSTORE PUSH1 0x40 SWAP3 DUP4 DUP2 KECCAK256 SWAP2 DUP5 MLOAD DUP3 SWAP4 DUP2 DUP2 SLOAD SWAP6 PUSH2 0x1C3A DUP8 PUSH2 0x19AE JUMP JUMPDEST SWAP3 DUP4 DUP4 MSTORE PUSH1 0x1 SWAP8 DUP10 DUP10 DUP3 AND SWAP2 DUP3 PUSH1 0x0 EQ PUSH2 0x1F27 JUMPI POP POP PUSH1 0x1 EQ PUSH2 0x1EE9 JUMPI JUMPDEST POP PUSH2 0x1C65 SWAP3 POP SUB DUP3 PUSH2 0x18E9 JUMP JUMPDEST DUP1 MLOAD PUSH2 0x1EE0 JUMPI POP DUP5 MLOAD PUSH1 0xE SLOAD SWAP1 SWAP4 DUP4 DUP6 PUSH2 0x1C7E DUP5 PUSH2 0x19AE JUMP JUMPDEST SWAP2 DUP3 DUP3 MSTORE DUP9 DUP3 ADD SWAP5 DUP10 DUP6 DUP3 AND SWAP2 DUP3 PUSH1 0x0 EQ PUSH2 0x1EC5 JUMPI POP POP PUSH1 0x1 EQ PUSH2 0x1E6A JUMPI JUMPDEST PUSH2 0x1CA9 SWAP3 POP SUB DUP7 PUSH2 0x18E9 JUMP JUMPDEST DUP5 MLOAD ISZERO PUSH2 0x1E53 JUMPI DUP3 DUP4 SWAP2 DUP6 SWAP5 PUSH27 0x184F03E93FF9F4DAA797ED6E38ED64BF6A1F010000000000000000 SWAP1 DUP2 DUP2 LT ISZERO PUSH2 0x1E46 JUMPI JUMPDEST POP POP DUP8 PUSH14 0x4EE2D6D415B85ACEF8100000000 DUP1 DUP6 LT ISZERO PUSH2 0x1E38 JUMPI JUMPDEST POP POP PUSH7 0x2386F26FC10000 DUP1 DUP5 LT ISZERO PUSH2 0x1E29 JUMPI JUMPDEST POP PUSH4 0x5F5E100 DUP1 DUP5 LT ISZERO PUSH2 0x1E1A JUMPI JUMPDEST POP PUSH2 0x2710 DUP1 DUP5 LT ISZERO PUSH2 0x1E0B JUMPI JUMPDEST POP PUSH1 0x64 DUP4 LT ISZERO PUSH2 0x1DFB JUMPI JUMPDEST PUSH1 0xA DUP1 SWAP4 LT ISZERO PUSH2 0x1DF2 JUMPI JUMPDEST SWAP1 DUP2 PUSH1 0x21 DUP7 PUSH2 0x1D64 DUP4 DUP14 SWAP10 ADD PUSH2 0x1D5C PUSH2 0x1D53 DUP3 PUSH2 0x1993 JUMP JUMPDEST SWAP11 MLOAD SWAP11 DUP12 PUSH2 0x18E9 JUMP JUMPDEST DUP1 DUP11 MSTORE PUSH2 0x1993 JUMP JUMPDEST DUP9 DUP13 ADD SWAP10 SWAP1 PUSH1 0x1F NOT ADD CALLDATASIZE DUP12 CALLDATACOPY POP DUP8 ADD ADD SWAP1 JUMPDEST PUSH2 0x1DBC JUMPI JUMPDEST POP POP POP POP SWAP1 PUSH2 0x1DAD PUSH2 0x1DB9 SWAP6 SWAP5 SWAP4 SWAP3 PUSH2 0x1D9E SWAP8 MLOAD SWAP8 DUP9 SWAP6 MLOAD DUP1 SWAP3 DUP9 DUP9 ADD SWAP1 PUSH2 0x17A7 JUMP JUMPDEST DUP5 ADD SWAP2 MLOAD DUP1 SWAP4 DUP7 DUP5 ADD SWAP1 PUSH2 0x17A7 JUMP JUMPDEST ADD SUB DUP1 DUP5 MSTORE ADD DUP3 PUSH2 0x18E9 JUMP JUMPDEST SWAP1 JUMP JUMPDEST PUSH1 0x0 NOT ADD SWAP1 DUP4 SWAP1 PUSH16 0x181899199A1A9B1B9C1CB0B131B232B3 PUSH1 0x81 SHL DUP3 DUP3 MOD BYTE DUP4 MSTORE8 DIV SWAP2 DUP3 ISZERO PUSH2 0x1DED JUMPI SWAP2 SWAP1 DUP3 PUSH2 0x1D76 JUMP JUMPDEST PUSH2 0x1D7B JUMP JUMPDEST DUP1 SWAP5 ADD SWAP4 PUSH2 0x1D3B JUMP JUMPDEST SWAP4 SWAP2 PUSH1 0x64 PUSH1 0x2 SWAP2 DIV SWAP3 ADD SWAP4 PUSH2 0x1D30 JUMP JUMPDEST PUSH1 0x4 SWAP2 SWAP6 SWAP4 DIV SWAP3 ADD SWAP4 CODESIZE PUSH2 0x1D25 JUMP JUMPDEST PUSH1 0x8 SWAP2 SWAP6 SWAP4 DIV SWAP3 ADD SWAP4 CODESIZE PUSH2 0x1D18 JUMP JUMPDEST PUSH1 0x10 SWAP2 SWAP6 SWAP4 DIV SWAP3 ADD SWAP4 CODESIZE PUSH2 0x1D09 JUMP JUMPDEST SWAP6 ADD SWAP5 SWAP1 SWAP3 DIV SWAP2 DUP8 CODESIZE PUSH2 0x1CF6 JUMP JUMPDEST DUP11 SWAP7 POP DIV SWAP3 POP CODESIZE DUP1 PUSH2 0x1CDB JUMP JUMPDEST POP POP POP SWAP3 SWAP2 POP POP MLOAD SWAP1 PUSH2 0x1E65 DUP3 PUSH2 0x18CE JUMP JUMPDEST DUP2 MSTORE SWAP1 JUMP JUMPDEST POP POP PUSH1 0xE DUP6 MSTORE DUP6 DUP8 DUP7 DUP5 PUSH32 0xBB7B4A454DC3493923482F07822329ED19E8244EFF582CC204F8554C3620C3FD JUMPDEST DUP6 DUP4 LT PUSH2 0x1EAC JUMPI POP POP PUSH2 0x1CA9 SWAP4 POP DUP3 ADD ADD PUSH2 0x1C9D JUMP JUMPDEST DUP1 SWAP2 SWAP3 SWAP5 POP SLOAD DUP4 DUP6 DUP13 ADD ADD MSTORE ADD SWAP2 ADD DUP9 SWAP1 DUP5 DUP10 SWAP4 PUSH2 0x1E96 JUMP JUMPDEST PUSH1 0xFF NOT AND DUP8 MSTORE PUSH2 0x1CA9 SWAP5 ISZERO ISZERO PUSH1 0x5 SHL DUP5 ADD ADD SWAP2 POP PUSH2 0x1C9D SWAP1 POP JUMP JUMPDEST SWAP5 POP POP POP POP POP SWAP1 JUMP JUMPDEST SWAP2 POP POP DUP5 MSTORE DUP2 DUP7 DUP1 DUP7 KECCAK256 DUP8 DUP8 SWAP2 JUMPDEST DUP6 DUP4 LT PUSH2 0x1F0E JUMPI POP POP PUSH2 0x1C65 SWAP4 POP DUP3 ADD ADD CODESIZE PUSH2 0x1C58 JUMP JUMPDEST DUP1 SWAP2 SWAP3 SWAP5 POP SLOAD DUP4 DUP6 DUP9 ADD ADD MSTORE ADD SWAP2 ADD DUP8 SWAP1 DUP8 DUP6 SWAP4 PUSH2 0x1EF7 JUMP JUMPDEST PUSH1 0xFF NOT AND DUP6 DUP3 ADD MSTORE PUSH2 0x1C65 SWAP6 ISZERO ISZERO PUSH1 0x5 SHL DUP6 ADD ADD SWAP3 POP CODESIZE SWAP2 POP PUSH2 0x1C58 SWAP1 POP JUMP JUMPDEST PUSH1 0x0 MSTORE PUSH1 0xD PUSH1 0x20 MSTORE PUSH1 0x40 PUSH1 0x0 KECCAK256 PUSH1 0x40 MLOAD SWAP1 PUSH2 0x1F61 DUP3 PUSH2 0x18B3 JUMP JUMPDEST DUP1 SLOAD DUP3 MSTORE PUSH1 0x1 DUP2 ADD SLOAD SWAP2 PUSH1 0xC0 PUSH2 0xFFFF PUSH1 0x3 PUSH1 0xFF DUP7 AND SWAP5 DUP6 PUSH1 0x20 DUP7 ADD MSTORE PUSH1 0xFF DUP8 PUSH1 0x8 SHR AND PUSH1 0x40 DUP7 ADD MSTORE PUSH1 0xFF PUSH1 0x1 PUSH1 0x1 PUSH1 0x40 SHL SUB DUP9 PUSH1 0x10 SHR AND SWAP8 DUP9 PUSH1 0x60 DUP9 ADD MSTORE PUSH1 0x50 SHR AND ISZERO ISZERO PUSH1 0x80 DUP7 ADD MSTORE PUSH1 0x2 DUP2 ADD SLOAD PUSH1 0xA0 DUP7 ADD MSTORE ADD SLOAD AND SWAP2 ADD MSTORE ISZERO PUSH2 0x1FC4 JUMPI TIMESTAMP LT SWAP1 JUMP JUMPDEST POP PUSH1 0x1 SWAP1 JUMP JUMPDEST PUSH1 0x0 DUP2 DUP2 MSTORE PUSH1 0x2 PUSH1 0x20 MSTORE PUSH1 0x40 SWAP1 KECCAK256 SLOAD PUSH1 0x1 PUSH1 0x1 PUSH1 0xA0 SHL SUB AND SWAP1 DUP2 ISZERO PUSH2 0x1FED JUMPI POP SWAP1 JUMP JUMPDEST PUSH1 0x24 SWAP1 PUSH1 0x40 MLOAD SWAP1 PUSH4 0x7E273289 PUSH1 0xE0 SHL DUP3 MSTORE PUSH1 0x4 DUP3 ADD MSTORE REVERT JUMPDEST PUSH1 0x6 SLOAD PUSH1 0x1 PUSH1 0x1 PUSH1 0xA0 SHL SUB AND CALLER SUB PUSH2 0x2019 JUMPI JUMP JUMPDEST PUSH1 0x40 MLOAD PUSH4 0x118CDAA7 PUSH1 0xE0 SHL DUP2 MSTORE CALLER PUSH1 0x4 DUP3 ADD MSTORE PUSH1 0x24 SWAP1 REVERT JUMPDEST PUSH1 0x2 PUSH1 0x8 SLOAD EQ PUSH2 0x2042 JUMPI PUSH1 0x2 PUSH1 0x8 SSTORE JUMP JUMPDEST PUSH1 0x40 MLOAD PUSH4 0x3EE5AEB5 PUSH1 0xE0 SHL DUP2 MSTORE PUSH1 0x4 SWAP1 REVERT JUMPDEST PUSH1 0xFF PUSH1 0x9 SLOAD AND PUSH2 0x2060 JUMPI JUMP JUMPDEST PUSH1 0x40 MLOAD PUSH4 0xD93C0665 PUSH1 0xE0 SHL DUP2 MSTORE PUSH1 0x4 SWAP1 REVERT JUMPDEST PUSH1 0x40 DUP1 MLOAD PUSH2 0x207F DUP2 PUSH2 0x18CE JUMP JUMPDEST PUSH1 0x0 DUP1 DUP3 MSTORE SWAP4 PUSH1 0x1 PUSH1 0x1 PUSH1 0xA0 SHL SUB DUP5 DUP2 AND SWAP5 SWAP1 SWAP3 SWAP1 DUP6 ISZERO PUSH2 0x22C6 JUMPI DUP3 DUP8 MSTORE PUSH1 0x20 SWAP4 PUSH1 0x2 DUP6 MSTORE DUP6 DUP9 KECCAK256 SLOAD AND DUP1 ISZERO ISZERO SWAP1 DUP2 PUSH2 0x2293 JUMPI JUMPDEST DUP8 DUP10 MSTORE PUSH1 0x3 DUP7 MSTORE DUP7 DUP10 KECCAK256 PUSH1 0x1 DUP2 SLOAD ADD SWAP1 SSTORE DUP5 DUP10 MSTORE PUSH1 0x2 DUP7 MSTORE DUP7 DUP10 KECCAK256 DUP9 PUSH1 0x1 PUSH1 0x1 PUSH1 0x60 SHL SUB PUSH1 0xA0 SHL DUP3 SLOAD AND OR SWAP1 SSTORE DUP5 DUP9 DUP9 MLOAD SWAP3 PUSH32 0xDDF252AD1BE2C89B69C2B068FC378DAA952BA7F163C4A11628F55A4DF523B3EF DUP13 DUP1 LOG4 DUP2 DUP1 PUSH2 0x228B JUMPI JUMPDEST PUSH2 0x2267 JUMPI JUMPDEST POP PUSH2 0x224F JUMPI EXTCODESIZE PUSH2 0x2128 JUMPI JUMPDEST POP POP POP POP POP POP JUMP JUMPDEST DUP3 PUSH2 0x2166 SWAP2 DUP6 SWAP7 SWAP8 SWAP9 SWAP5 SWAP6 MLOAD DUP1 SWAP4 DUP2 SWAP3 PUSH4 0xA85BD01 PUSH1 0xE1 SHL SWAP7 DUP8 DUP5 MSTORE CALLER PUSH1 0x4 DUP6 ADD MSTORE DUP13 PUSH1 0x24 DUP6 ADD MSTORE PUSH1 0x44 DUP5 ADD MSTORE PUSH1 0x80 PUSH1 0x64 DUP5 ADD MSTORE PUSH1 0x84 DUP4 ADD SWAP1 PUSH2 0x17CA JUMP JUMPDEST SUB DUP2 DUP11 DUP11 GAS CALL DUP8 SWAP2 DUP2 PUSH2 0x220B JUMPI JUMPDEST POP PUSH2 0x21D4 JUMPI POP POP POP RETURNDATASIZE PUSH1 0x0 EQ PUSH2 0x21CB JUMPI RETURNDATASIZE PUSH2 0x218E DUP2 PUSH2 0x1993 JUMP JUMPDEST SWAP1 PUSH2 0x219B DUP5 MLOAD SWAP3 DUP4 PUSH2 0x18E9 JUMP JUMPDEST DUP2 MSTORE DUP1 SWAP5 DUP3 RETURNDATASIZE SWAP3 ADD RETURNDATACOPY JUMPDEST DUP4 MLOAD SWAP4 DUP5 PUSH2 0x21C5 JUMPI DUP3 MLOAD PUSH4 0x32505749 PUSH1 0xE1 SHL DUP2 MSTORE PUSH1 0x4 DUP2 ADD DUP6 SWAP1 MSTORE PUSH1 0x24 SWAP1 REVERT JUMPDEST DUP5 SWAP3 POP ADD REVERT JUMPDEST PUSH1 0x60 SWAP4 POP PUSH2 0x21A5 JUMP JUMPDEST SWAP2 SWAP6 POP SWAP2 POP PUSH4 0xFFFFFFFF PUSH1 0xE0 SHL AND SUB PUSH2 0x21F4 JUMPI POP POP CODESIZE DUP1 DUP1 DUP1 DUP1 DUP1 PUSH2 0x2120 JUMP JUMPDEST PUSH1 0x24 SWAP3 POP MLOAD SWAP1 PUSH4 0x32505749 PUSH1 0xE1 SHL DUP3 MSTORE PUSH1 0x4 DUP3 ADD MSTORE REVERT JUMPDEST SWAP1 SWAP2 POP DUP5 DUP2 DUP2 RETURNDATASIZE DUP4 GT PUSH2 0x2248 JUMPI JUMPDEST PUSH2 0x2223 DUP2 DUP4 PUSH2 0x18E9 JUMP JUMPDEST DUP2 ADD SUB SLT PUSH2 0x2244 JUMPI MLOAD PUSH1 0x1 PUSH1 0x1 PUSH1 0xE0 SHL SUB NOT DUP2 AND DUP2 SUB PUSH2 0x2244 JUMPI SWAP1 CODESIZE PUSH2 0x2174 JUMP JUMPDEST DUP8 DUP1 REVERT JUMPDEST POP RETURNDATASIZE PUSH2 0x2219 JUMP JUMPDEST DUP5 MLOAD PUSH4 0x39E35637 PUSH1 0xE1 SHL DUP2 MSTORE PUSH1 0x4 DUP2 ADD DUP9 SWAP1 MSTORE PUSH1 0x24 SWAP1 REVERT JUMPDEST PUSH1 0xD DUP7 MSTORE PUSH1 0xFF PUSH1 0x1 DUP9 DUP12 KECCAK256 ADD SLOAD PUSH1 0x50 SHR AND PUSH2 0x2115 JUMPI PUSH4 0xDC8D8DB7 PUSH1 0xE0 SHL DUP2 MSTORE PUSH1 0x4 SWAP1 REVERT JUMPDEST POP PUSH1 0x1 PUSH2 0x2110 JUMP JUMPDEST PUSH1 0x0 DUP6 DUP2 MSTORE PUSH1 0x4 PUSH1 0x20 MSTORE PUSH1 0x40 SWAP1 KECCAK256 DUP1 SLOAD PUSH1 0x1 PUSH1 0x1 PUSH1 0xA0 SHL SUB NOT AND SWAP1 SSTORE DUP1 DUP10 MSTORE PUSH1 0x3 DUP7 MSTORE DUP7 DUP10 KECCAK256 DUP1 SLOAD PUSH1 0x0 NOT ADD SWAP1 SSTORE PUSH2 0x20B3 JUMP JUMPDEST DUP5 MLOAD PUSH4 0x32505749 PUSH1 0xE1 SHL DUP2 MSTORE PUSH1 0x4 DUP2 ADD DUP9 SWAP1 MSTORE PUSH1 0x24 SWAP1 REVERT JUMPDEST SWAP1 SWAP4 SWAP2 SWAP3 DUP4 EXTCODESIZE PUSH2 0x22F0 JUMPI JUMPDEST POP POP POP POP POP JUMP JUMPDEST PUSH1 0x40 MLOAD PUSH4 0xA85BD01 PUSH1 0xE1 SHL DUP1 DUP3 MSTORE PUSH1 0x1 PUSH1 0x1 PUSH1 0xA0 SHL SUB SWAP4 DUP5 AND PUSH1 0x4 DUP4 ADD MSTORE SWAP6 DUP4 AND PUSH1 0x24 DUP3 ADD MSTORE PUSH1 0x44 DUP2 ADD SWAP2 SWAP1 SWAP2 MSTORE PUSH1 0x80 PUSH1 0x64 DUP3 ADD MSTORE SWAP5 SWAP3 AND SWAP3 PUSH1 0x20 SWAP3 SWAP2 DUP6 SWAP1 PUSH2 0x233D SWAP1 PUSH1 0x84 DUP4 ADD SWAP1 PUSH2 0x17CA JUMP JUMPDEST SUB SWAP5 DUP4 DUP2 PUSH1 0x0 SWAP8 DUP2 DUP10 DUP10 GAS CALL DUP7 SWAP2 DUP2 PUSH2 0x23E8 JUMPI JUMPDEST POP PUSH2 0x23B2 JUMPI POP POP POP RETURNDATASIZE PUSH1 0x0 EQ PUSH2 0x23A9 JUMPI RETURNDATASIZE PUSH2 0x236B DUP2 PUSH2 0x1993 JUMP JUMPDEST SWAP1 PUSH2 0x2379 PUSH1 0x40 MLOAD SWAP3 DUP4 PUSH2 0x18E9 JUMP JUMPDEST DUP2 MSTORE DUP1 SWAP4 DUP3 RETURNDATASIZE SWAP3 ADD RETURNDATACOPY JUMPDEST DUP3 MLOAD SWAP3 DUP4 PUSH2 0x23A4 JUMPI PUSH1 0x40 MLOAD PUSH4 0x32505749 PUSH1 0xE1 SHL DUP2 MSTORE PUSH1 0x4 DUP2 ADD DUP5 SWAP1 MSTORE PUSH1 0x24 SWAP1 REVERT JUMPDEST ADD SWAP1 POP REVERT JUMPDEST PUSH1 0x60 SWAP3 POP PUSH2 0x2383 JUMP JUMPDEST SWAP2 SWAP5 POP SWAP2 POP PUSH4 0xFFFFFFFF PUSH1 0xE0 SHL AND SUB PUSH2 0x23D0 JUMPI POP CODESIZE DUP1 DUP1 DUP1 DUP1 PUSH2 0x22E9 JUMP JUMPDEST PUSH1 0x24 SWAP1 PUSH1 0x40 MLOAD SWAP1 PUSH4 0x32505749 PUSH1 0xE1 SHL DUP3 MSTORE PUSH1 0x4 DUP3 ADD MSTORE REVERT JUMPDEST SWAP1 SWAP2 POP DUP5 DUP2 DUP2 RETURNDATASIZE DUP4 GT PUSH2 0x2425 JUMPI JUMPDEST PUSH2 0x2400 DUP2 DUP4 PUSH2 0x18E9 JUMP JUMPDEST DUP2 ADD SUB SLT PUSH2 0x2421 JUMPI MLOAD PUSH1 0x1 PUSH1 0x1 PUSH1 0xE0 SHL SUB NOT DUP2 AND DUP2 SUB PUSH2 0x2421 JUMPI SWAP1 CODESIZE PUSH2 0x2351 JUMP JUMPDEST DUP7 DUP1 REVERT JUMPDEST POP RETURNDATASIZE PUSH2 0x23F6 JUMP INVALID SWAP4 0x1F BLOBHASH JUMPDEST SWAP11 DUP15 TSTORE DUP15 PUSH2 0x946E 0xA5 0xD6 0x1E MUL 0x1F PUSH4 0x6CFE213A DUP1 0x1F SWAP8 PC SWAP13 XOR 0xC1 MSTORE 0xE4 ADDMOD 0xBD LOG2 PUSH5 0x6970667358 0x22 SLT KECCAK256 ADDMOD TLOAD 0xE1 GASPRICE JUMPI DUP6 MSIZE SAR PUSH5 0xE3A21B8125 PUSH12 0x23163123A7B219651605B99D PUSH3 0xEF7282 0xF PUSH5 0x736F6C6343 STOP ADDMOD XOR STOP CALLER 0xC3 0xA9 SWAP9 MSTORE MLOAD 0x4E MSIZE 0x23 0xCD SELFDESTRUCT 0xB2 PUSH24 0x9C4B432ED502ACF7B7CA78B2087A8C49D82BF6A700000000 "},"methodIdentifiers":{"KIND_PERPETUAL()":"75bb91b2","KIND_SUBSCRIPTION()":"7d53deff","MAX_BPS()":"fd967f47","MAX_FEE_BPS_CAP()":"81cd7439","MAX_INFERENCE_PRICE()":"a249668a","MAX_PRICE_CAP()":"f5b96972","MIN_INFERENCE_PRICE()":"df99e534","RIGHTS_API()":"23ea1f5f","RIGHTS_DOWNLOAD()":"acb27c68","TIMELOCK_DELAY()":"5ba1c1a9","acceptOwnership()":"79ba5097","activeModels()":"c8aa67b3","agentRegistry()":"0d1cfcae","buyLicense(uint256,uint8,uint16,bool)":"88daf7f4","buyLicenseWithURI(uint256,uint8,uint16,bool,string)":"4b746cd1","cancelInferenceWalletChange(uint256)":"23da4f01","executeInferenceWalletChange(uint256)":"1e141e8b","families(address,bytes32)":"46453f28","feeBps()":"24a9d853","feeRecipient()":"46904840","getFamilyAgent(address,string)":"d9a5aa96","getFamilyMeta(address,string)":"47e80361","getInferenceInfo(uint256)":"08c05903","getModel(uint256)":"6d361694","getModelFamilyAgent(uint256,string)":"d0788188","getModelPaymentInfo(uint256)":"1c65c86d","getModelSplitter(uint256)":"f77bc776","lastLicenseId()":"c384373a","licenseNFT()":"da68d47d","licenseNFTAddress()":"e0a3dd96","licenseStatus(uint256)":"37c73865","linkExistingAgentToFamily(string,uint256)":"f483708d","listOrUpgrade(string,string,string,uint256,uint256,uint256,uint256,uint8,uint8,bytes32)":"2d88c211","listOrUpgrade(string,string,string,uint256,uint256,uint256,uint256,uint8,uint8,bytes32,uint256,address)":"47eaa7a2","listOrUpgradeWithAgent(string,string,string,uint256,uint256,uint256,uint256,uint8,uint8,bytes32,uint256,address,(string,address,string))":"345c0f77","models(uint256)":"6a030ca9","modelsLimit()":"227dc4c4","nextId()":"61b8ce8c","owner()":"8da5cb5b","pause()":"8456cb59","paused()":"5c975abb","paymentToken()":"3013ce29","pendingInferenceWalletChanges(uint256)":"c7d24974","pendingOwner()":"e30c3978","renewLicense(uint256,uint16)":"d402e464","renounceOwnership()":"715018a6","requestInferenceWalletChange(uint256,address)":"f932ecac","revokeByAdmin(uint256)":"636d5870","revokeByModelOwner(uint256)":"c3c2265f","revoked(uint256)":"d5b141e7","setAgentRegistry(address)":"28342ecf","setFees(uint256,address)":"3d162cdc","setInferencePrice(uint256,uint256)":"9ccebcec","setLicensingParams(uint256,uint256,uint256,uint256,uint8,uint8,bytes32)":"0135adcd","setListed(uint256,bool)":"f09449ba","setModelsLimit(uint256)":"d2d5ec4d","setPaymentToken(address)":"6a326ab1","setSplitterFactory(address)":"7918413b","splitterFactory()":"5608d9e5","sweep(address,uint256)":"6ea056a9","sweepToken(address,address,uint256)":"64aff9ec","transferOwnership(address)":"f2fde38b","unpause()":"3f4ba83a","updateModelAgent(uint256,string,address)":"f60eb4bf"}}}}}