{"contracts/MarketplaceV2.sol":{"MarketplaceV2":{"abi":[{"inputs":[{"internalType":"uint256","name":"feeBps_","type":"uint256"},{"internalType":"address","name":"feeRecipient_","type":"address"},{"internalType":"uint256","name":"modelsLimit_","type":"uint256"},{"internalType":"address","name":"licenseNFTOwner","type":"address"}],"stateMutability":"nonpayable","type":"constructor"},{"inputs":[],"name":"AgentRegistrationFailed","type":"error"},{"inputs":[],"name":"AgentRegistryNotSet","type":"error"},{"inputs":[],"name":"ContractNotAllowed","type":"error"},{"inputs":[],"name":"EnforcedPause","type":"error"},{"inputs":[],"name":"ExpectedPause","type":"error"},{"inputs":[],"name":"FeeOverCap","type":"error"},{"inputs":[],"name":"FeePlusRoyaltyOver100","type":"error"},{"inputs":[],"name":"InsufficientFunds","type":"error"},{"inputs":[],"name":"InvalidBps","type":"error"},{"inputs":[],"name":"InvalidDelivery","type":"error"},{"inputs":[],"name":"InvalidDuration","type":"error"},{"inputs":[],"name":"InvalidInferencePrice","type":"error"},{"inputs":[],"name":"InvalidKind","type":"error"},{"inputs":[],"name":"InvalidRights","type":"error"},{"inputs":[],"name":"InvalidVersion","type":"error"},{"inputs":[],"name":"LicenseRevokedError","type":"error"},{"inputs":[],"name":"ModelsLimitReached","type":"error"},{"inputs":[],"name":"NoPendingChange","type":"error"},{"inputs":[],"name":"NotListed","type":"error"},{"inputs":[],"name":"NotOwner","type":"error"},{"inputs":[{"internalType":"address","name":"owner","type":"address"}],"name":"OwnableInvalidOwner","type":"error"},{"inputs":[{"internalType":"address","name":"account","type":"address"}],"name":"OwnableUnauthorizedAccount","type":"error"},{"inputs":[],"name":"PaymentTokenNotSet","type":"error"},{"inputs":[],"name":"PriceNotConfigured","type":"error"},{"inputs":[],"name":"PriceTooHigh","type":"error"},{"inputs":[],"name":"ReentrancyGuardReentrantCall","type":"error"},{"inputs":[{"internalType":"address","name":"token","type":"address"}],"name":"SafeERC20FailedOperation","type":"error"},{"inputs":[],"name":"TimelockNotExpired","type":"error"},{"inputs":[],"name":"TransferFailed","type":"error"},{"inputs":[],"name":"ZeroAddress","type":"error"},{"anonymous":false,"inputs":[{"indexed":true,"internalType":"uint256","name":"modelId","type":"uint256"},{"indexed":true,"internalType":"uint256","name":"agentId","type":"uint256"},{"indexed":true,"internalType":"address","name":"owner","type":"address"}],"name":"AgentLinked","type":"event"},{"anonymous":false,"inputs":[{"indexed":true,"internalType":"address","name":"registry","type":"address"}],"name":"AgentRegistrySet","type":"event"},{"anonymous":false,"inputs":[{"indexed":true,"internalType":"address","name":"to","type":"address"},{"indexed":false,"internalType":"uint256","name":"amount","type":"uint256"}],"name":"FundsSwept","type":"event"},{"anonymous":false,"inputs":[{"indexed":true,"internalType":"uint256","name":"modelId","type":"uint256"},{"indexed":false,"internalType":"uint256","name":"oldPrice","type":"uint256"},{"indexed":false,"internalType":"uint256","name":"newPrice","type":"uint256"},{"indexed":true,"internalType":"address","name":"updatedBy","type":"address"}],"name":"InferencePriceUpdated","type":"event"},{"anonymous":false,"inputs":[{"indexed":true,"internalType":"address","name":"splitter","type":"address"}],"name":"InferenceSplitterSet","type":"event"},{"anonymous":false,"inputs":[{"indexed":true,"internalType":"uint256","name":"modelId","type":"uint256"},{"indexed":false,"internalType":"address","name":"oldWallet","type":"address"},{"indexed":false,"internalType":"address","name":"newWallet","type":"address"},{"indexed":false,"internalType":"uint256","name":"effectiveAt","type":"uint256"}],"name":"InferenceWalletChangeRequested","type":"event"},{"anonymous":false,"inputs":[{"indexed":true,"internalType":"uint256","name":"modelId","type":"uint256"},{"indexed":false,"internalType":"address","name":"oldWallet","type":"address"},{"indexed":false,"internalType":"address","name":"newWallet","type":"address"}],"name":"InferenceWalletChanged","type":"event"},{"anonymous":false,"inputs":[{"indexed":true,"internalType":"uint256","name":"licenseId","type":"uint256"},{"indexed":true,"internalType":"uint256","name":"modelId","type":"uint256"},{"indexed":true,"internalType":"address","name":"buyer","type":"address"},{"indexed":false,"internalType":"uint8","name":"kind","type":"uint8"},{"indexed":false,"internalType":"uint8","name":"rights","type":"uint8"},{"indexed":false,"internalType":"uint64","name":"expiresAt","type":"uint64"},{"indexed":false,"internalType":"uint16","name":"version","type":"uint16"},{"indexed":false,"internalType":"uint256","name":"pricePaid","type":"uint256"},{"indexed":false,"internalType":"uint256","name":"feePaid","type":"uint256"},{"indexed":false,"internalType":"uint256","name":"royaltyPaid","type":"uint256"}],"name":"LicenseMinted","type":"event"},{"anonymous":false,"inputs":[{"indexed":false,"internalType":"address","name":"license","type":"address"}],"name":"LicenseNFTCreated","type":"event"},{"anonymous":false,"inputs":[{"indexed":true,"internalType":"uint256","name":"licenseId","type":"uint256"},{"indexed":true,"internalType":"uint256","name":"modelId","type":"uint256"},{"indexed":false,"internalType":"uint64","name":"newExpiresAt","type":"uint64"},{"indexed":false,"internalType":"uint16","name":"months","type":"uint16"},{"indexed":false,"internalType":"uint256","name":"pricePaid","type":"uint256"},{"indexed":false,"internalType":"uint256","name":"feePaid","type":"uint256"},{"indexed":false,"internalType":"uint256","name":"royaltyPaid","type":"uint256"}],"name":"LicenseRenewed","type":"event"},{"anonymous":false,"inputs":[{"indexed":true,"internalType":"uint256","name":"tokenId","type":"uint256"},{"indexed":true,"internalType":"uint256","name":"modelId","type":"uint256"},{"indexed":true,"internalType":"address","name":"by","type":"address"}],"name":"LicenseRevoked","type":"event"},{"anonymous":false,"inputs":[{"indexed":false,"internalType":"uint256","name":"feeBps","type":"uint256"},{"indexed":false,"internalType":"address","name":"feeRecipient","type":"address"}],"name":"MarketFeesSet","type":"event"},{"anonymous":false,"inputs":[{"indexed":true,"internalType":"uint256","name":"id","type":"uint256"},{"indexed":true,"internalType":"address","name":"owner","type":"address"}],"name":"ModelListed","type":"event"},{"anonymous":false,"inputs":[{"indexed":true,"internalType":"uint256","name":"id","type":"uint256"},{"indexed":true,"internalType":"address","name":"owner","type":"address"}],"name":"ModelUnlisted","type":"event"},{"anonymous":false,"inputs":[{"indexed":true,"internalType":"uint256","name":"id","type":"uint256"},{"indexed":true,"internalType":"address","name":"owner","type":"address"},{"indexed":false,"internalType":"bool","name":"listed","type":"bool"}],"name":"ModelUpdated","type":"event"},{"anonymous":false,"inputs":[{"indexed":false,"internalType":"uint256","name":"active","type":"uint256"}],"name":"ModelsCountChanged","type":"event"},{"anonymous":false,"inputs":[{"indexed":false,"internalType":"uint256","name":"newLimit","type":"uint256"}],"name":"ModelsLimitSet","type":"event"},{"anonymous":false,"inputs":[{"indexed":true,"internalType":"address","name":"previousOwner","type":"address"},{"indexed":true,"internalType":"address","name":"newOwner","type":"address"}],"name":"OwnershipTransferStarted","type":"event"},{"anonymous":false,"inputs":[{"indexed":true,"internalType":"address","name":"previousOwner","type":"address"},{"indexed":true,"internalType":"address","name":"newOwner","type":"address"}],"name":"OwnershipTransferred","type":"event"},{"anonymous":false,"inputs":[{"indexed":false,"internalType":"address","name":"account","type":"address"}],"name":"Paused","type":"event"},{"anonymous":false,"inputs":[{"indexed":true,"internalType":"address","name":"token","type":"address"}],"name":"PaymentTokenSet","type":"event"},{"anonymous":false,"inputs":[{"indexed":false,"internalType":"address","name":"account","type":"address"}],"name":"Unpaused","type":"event"},{"inputs":[],"name":"KIND_PERPETUAL","outputs":[{"internalType":"uint8","name":"","type":"uint8"}],"stateMutability":"view","type":"function"},{"inputs":[],"name":"KIND_SUBSCRIPTION","outputs":[{"internalType":"uint8","name":"","type":"uint8"}],"stateMutability":"view","type":"function"},{"inputs":[],"name":"MAX_BPS","outputs":[{"internalType":"uint256","name":"","type":"uint256"}],"stateMutability":"view","type":"function"},{"inputs":[],"name":"MAX_FEE_BPS_CAP","outputs":[{"internalType":"uint256","name":"","type":"uint256"}],"stateMutability":"view","type":"function"},{"inputs":[],"name":"MAX_INFERENCE_PRICE","outputs":[{"internalType":"uint256","name":"","type":"uint256"}],"stateMutability":"view","type":"function"},{"inputs":[],"name":"MAX_PRICE_CAP","outputs":[{"internalType":"uint256","name":"","type":"uint256"}],"stateMutability":"view","type":"function"},{"inputs":[],"name":"MIN_INFERENCE_PRICE","outputs":[{"internalType":"uint256","name":"","type":"uint256"}],"stateMutability":"view","type":"function"},{"inputs":[],"name":"RIGHTS_API","outputs":[{"internalType":"uint8","name":"","type":"uint8"}],"stateMutability":"view","type":"function"},{"inputs":[],"name":"RIGHTS_DOWNLOAD","outputs":[{"internalType":"uint8","name":"","type":"uint8"}],"stateMutability":"view","type":"function"},{"inputs":[],"name":"TIMELOCK_DELAY","outputs":[{"internalType":"uint256","name":"","type":"uint256"}],"stateMutability":"view","type":"function"},{"inputs":[],"name":"acceptOwnership","outputs":[],"stateMutability":"nonpayable","type":"function"},{"inputs":[],"name":"activeModels","outputs":[{"internalType":"uint256","name":"","type":"uint256"}],"stateMutability":"view","type":"function"},{"inputs":[],"name":"agentRegistry","outputs":[{"internalType":"contract IAgentRegistry","name":"","type":"address"}],"stateMutability":"view","type":"function"},{"inputs":[{"internalType":"uint256","name":"modelId","type":"uint256"},{"internalType":"uint8","name":"licenseKind","type":"uint8"},{"internalType":"uint16","name":"months","type":"uint16"},{"internalType":"bool","name":"transferable","type":"bool"}],"name":"buyLicense","outputs":[],"stateMutability":"nonpayable","type":"function"},{"inputs":[{"internalType":"uint256","name":"modelId","type":"uint256"},{"internalType":"uint8","name":"licenseKind","type":"uint8"},{"internalType":"uint16","name":"months","type":"uint16"},{"internalType":"bool","name":"transferable","type":"bool"},{"internalType":"string","name":"tokenUri","type":"string"}],"name":"buyLicenseWithURI","outputs":[],"stateMutability":"nonpayable","type":"function"},{"inputs":[{"internalType":"uint256","name":"modelId","type":"uint256"}],"name":"cancelInferenceWalletChange","outputs":[],"stateMutability":"nonpayable","type":"function"},{"inputs":[{"internalType":"uint256","name":"modelId","type":"uint256"}],"name":"executeInferenceWalletChange","outputs":[],"stateMutability":"nonpayable","type":"function"},{"inputs":[{"internalType":"address","name":"","type":"address"},{"internalType":"bytes32","name":"","type":"bytes32"}],"name":"families","outputs":[{"internalType":"uint256","name":"latestId","type":"uint256"},{"internalType":"uint16","name":"latestVersion","type":"uint16"}],"stateMutability":"view","type":"function"},{"inputs":[],"name":"feeBps","outputs":[{"internalType":"uint256","name":"","type":"uint256"}],"stateMutability":"view","type":"function"},{"inputs":[],"name":"feeRecipient","outputs":[{"internalType":"address","name":"","type":"address"}],"stateMutability":"view","type":"function"},{"inputs":[{"internalType":"uint256","name":"modelId","type":"uint256"}],"name":"getInferenceInfo","outputs":[{"internalType":"uint256","name":"priceInference","type":"uint256"},{"internalType":"address","name":"inferenceWallet","type":"address"},{"internalType":"uint256","name":"royaltyBps","type":"uint256"},{"internalType":"uint256","name":"marketplaceBps","type":"uint256"}],"stateMutability":"view","type":"function"},{"inputs":[{"internalType":"uint256","name":"modelId","type":"uint256"}],"name":"getModel","outputs":[{"components":[{"internalType":"address","name":"owner","type":"address"},{"internalType":"address","name":"creator","type":"address"},{"internalType":"string","name":"name","type":"string"},{"internalType":"string","name":"uri","type":"string"},{"internalType":"uint256","name":"royaltyBps","type":"uint256"},{"internalType":"bool","name":"listed","type":"bool"},{"internalType":"uint256","name":"pricePerpetual","type":"uint256"},{"internalType":"uint256","name":"priceSubscription","type":"uint256"},{"internalType":"uint256","name":"defaultDurationDays","type":"uint256"},{"internalType":"uint8","name":"deliveryRightsDefault","type":"uint8"},{"internalType":"uint8","name":"deliveryModeHint","type":"uint8"},{"internalType":"uint16","name":"version","type":"uint16"},{"internalType":"bytes32","name":"termsHash","type":"bytes32"},{"internalType":"uint256","name":"priceInference","type":"uint256"},{"internalType":"address","name":"inferenceWallet","type":"address"}],"internalType":"struct MarketplaceV2.Model","name":"","type":"tuple"}],"stateMutability":"view","type":"function"},{"inputs":[],"name":"inferenceSplitter","outputs":[{"internalType":"address","name":"","type":"address"}],"stateMutability":"view","type":"function"},{"inputs":[],"name":"lastLicenseId","outputs":[{"internalType":"uint256","name":"","type":"uint256"}],"stateMutability":"view","type":"function"},{"inputs":[],"name":"licenseNFT","outputs":[{"internalType":"contract LicenseNFT","name":"","type":"address"}],"stateMutability":"view","type":"function"},{"inputs":[],"name":"licenseNFTAddress","outputs":[{"internalType":"address","name":"","type":"address"}],"stateMutability":"view","type":"function"},{"inputs":[{"internalType":"uint256","name":"tokenId","type":"uint256"}],"name":"licenseStatus","outputs":[{"internalType":"bool","name":"revoked_","type":"bool"},{"internalType":"bool","name":"validApi","type":"bool"},{"internalType":"bool","name":"validDownload","type":"bool"},{"internalType":"uint8","name":"kind","type":"uint8"},{"internalType":"uint64","name":"expiresAt","type":"uint64"},{"internalType":"address","name":"owner","type":"address"}],"stateMutability":"view","type":"function"},{"inputs":[{"internalType":"string","name":"slug","type":"string"},{"internalType":"string","name":"name","type":"string"},{"internalType":"string","name":"uri","type":"string"},{"internalType":"uint256","name":"royaltyBps_","type":"uint256"},{"internalType":"uint256","name":"pricePerpetual","type":"uint256"},{"internalType":"uint256","name":"priceSubscription","type":"uint256"},{"internalType":"uint256","name":"defaultDurationDays","type":"uint256"},{"internalType":"uint8","name":"deliveryRightsDefault","type":"uint8"},{"internalType":"uint8","name":"deliveryModeHint","type":"uint8"},{"internalType":"bytes32","name":"termsHash","type":"bytes32"}],"name":"listOrUpgrade","outputs":[],"stateMutability":"nonpayable","type":"function"},{"inputs":[{"internalType":"string","name":"slug","type":"string"},{"internalType":"string","name":"name","type":"string"},{"internalType":"string","name":"uri","type":"string"},{"internalType":"uint256","name":"royaltyBps_","type":"uint256"},{"internalType":"uint256","name":"pricePerpetual","type":"uint256"},{"internalType":"uint256","name":"priceSubscription","type":"uint256"},{"internalType":"uint256","name":"defaultDurationDays","type":"uint256"},{"internalType":"uint8","name":"deliveryRightsDefault","type":"uint8"},{"internalType":"uint8","name":"deliveryModeHint","type":"uint8"},{"internalType":"bytes32","name":"termsHash","type":"bytes32"},{"internalType":"uint256","name":"priceInference_","type":"uint256"},{"internalType":"address","name":"inferenceWallet_","type":"address"}],"name":"listOrUpgrade","outputs":[],"stateMutability":"nonpayable","type":"function"},{"inputs":[{"internalType":"string","name":"slug","type":"string"},{"internalType":"string","name":"name","type":"string"},{"internalType":"string","name":"uri","type":"string"},{"internalType":"uint256","name":"royaltyBps_","type":"uint256"},{"internalType":"uint256","name":"pricePerpetual","type":"uint256"},{"internalType":"uint256","name":"priceSubscription","type":"uint256"},{"internalType":"uint256","name":"defaultDurationDays","type":"uint256"},{"internalType":"uint8","name":"deliveryRightsDefault","type":"uint8"},{"internalType":"uint8","name":"deliveryModeHint","type":"uint8"},{"internalType":"bytes32","name":"termsHash","type":"bytes32"},{"internalType":"uint256","name":"priceInference_","type":"uint256"},{"internalType":"address","name":"inferenceWallet_","type":"address"},{"components":[{"internalType":"string","name":"endpoint","type":"string"},{"internalType":"address","name":"wallet","type":"address"},{"internalType":"string","name":"metadataUri","type":"string"}],"internalType":"struct MarketplaceV2.AgentParams","name":"agentParams","type":"tuple"}],"name":"listOrUpgradeWithAgent","outputs":[{"internalType":"uint256","name":"modelId","type":"uint256"},{"internalType":"uint256","name":"agentId","type":"uint256"}],"stateMutability":"nonpayable","type":"function"},{"inputs":[{"internalType":"uint256","name":"","type":"uint256"}],"name":"models","outputs":[{"internalType":"address","name":"owner","type":"address"},{"internalType":"address","name":"creator","type":"address"},{"internalType":"string","name":"name","type":"string"},{"internalType":"string","name":"uri","type":"string"},{"internalType":"uint256","name":"royaltyBps","type":"uint256"},{"internalType":"bool","name":"listed","type":"bool"},{"internalType":"uint256","name":"pricePerpetual","type":"uint256"},{"internalType":"uint256","name":"priceSubscription","type":"uint256"},{"internalType":"uint256","name":"defaultDurationDays","type":"uint256"},{"internalType":"uint8","name":"deliveryRightsDefault","type":"uint8"},{"internalType":"uint8","name":"deliveryModeHint","type":"uint8"},{"internalType":"uint16","name":"version","type":"uint16"},{"internalType":"bytes32","name":"termsHash","type":"bytes32"},{"internalType":"uint256","name":"priceInference","type":"uint256"},{"internalType":"address","name":"inferenceWallet","type":"address"}],"stateMutability":"view","type":"function"},{"inputs":[],"name":"modelsLimit","outputs":[{"internalType":"uint256","name":"","type":"uint256"}],"stateMutability":"view","type":"function"},{"inputs":[],"name":"nextId","outputs":[{"internalType":"uint256","name":"","type":"uint256"}],"stateMutability":"view","type":"function"},{"inputs":[],"name":"owner","outputs":[{"internalType":"address","name":"","type":"address"}],"stateMutability":"view","type":"function"},{"inputs":[],"name":"pause","outputs":[],"stateMutability":"nonpayable","type":"function"},{"inputs":[],"name":"paused","outputs":[{"internalType":"bool","name":"","type":"bool"}],"stateMutability":"view","type":"function"},{"inputs":[],"name":"paymentToken","outputs":[{"internalType":"contract IERC20","name":"","type":"address"}],"stateMutability":"view","type":"function"},{"inputs":[{"internalType":"uint256","name":"","type":"uint256"}],"name":"pendingInferenceWalletChanges","outputs":[{"internalType":"address","name":"newWallet","type":"address"},{"internalType":"uint256","name":"effectiveAt","type":"uint256"}],"stateMutability":"view","type":"function"},{"inputs":[],"name":"pendingOwner","outputs":[{"internalType":"address","name":"","type":"address"}],"stateMutability":"view","type":"function"},{"inputs":[{"internalType":"uint256","name":"tokenId","type":"uint256"},{"internalType":"uint16","name":"months","type":"uint16"}],"name":"renewLicense","outputs":[],"stateMutability":"nonpayable","type":"function"},{"inputs":[],"name":"renounceOwnership","outputs":[],"stateMutability":"nonpayable","type":"function"},{"inputs":[{"internalType":"uint256","name":"modelId","type":"uint256"},{"internalType":"address","name":"newWallet","type":"address"}],"name":"requestInferenceWalletChange","outputs":[],"stateMutability":"nonpayable","type":"function"},{"inputs":[{"internalType":"uint256","name":"tokenId","type":"uint256"}],"name":"revokeByAdmin","outputs":[],"stateMutability":"nonpayable","type":"function"},{"inputs":[{"internalType":"uint256","name":"tokenId","type":"uint256"}],"name":"revokeByModelOwner","outputs":[],"stateMutability":"nonpayable","type":"function"},{"inputs":[{"internalType":"uint256","name":"","type":"uint256"}],"name":"revoked","outputs":[{"internalType":"bool","name":"","type":"bool"}],"stateMutability":"view","type":"function"},{"inputs":[{"internalType":"address","name":"_registry","type":"address"}],"name":"setAgentRegistry","outputs":[],"stateMutability":"nonpayable","type":"function"},{"inputs":[{"internalType":"uint256","name":"newFeeBps","type":"uint256"},{"internalType":"address","name":"newRecipient","type":"address"}],"name":"setFees","outputs":[],"stateMutability":"nonpayable","type":"function"},{"inputs":[{"internalType":"uint256","name":"modelId","type":"uint256"},{"internalType":"uint256","name":"newPrice","type":"uint256"}],"name":"setInferencePrice","outputs":[],"stateMutability":"nonpayable","type":"function"},{"inputs":[{"internalType":"address","name":"_splitter","type":"address"}],"name":"setInferenceSplitter","outputs":[],"stateMutability":"nonpayable","type":"function"},{"inputs":[{"internalType":"uint256","name":"modelId","type":"uint256"},{"internalType":"uint256","name":"pricePerpetual","type":"uint256"},{"internalType":"uint256","name":"priceSubscription","type":"uint256"},{"internalType":"uint256","name":"defaultDurationDays","type":"uint256"},{"internalType":"uint8","name":"deliveryRightsDefault","type":"uint8"},{"internalType":"uint8","name":"deliveryModeHint","type":"uint8"},{"internalType":"bytes32","name":"termsHash","type":"bytes32"}],"name":"setLicensingParams","outputs":[],"stateMutability":"nonpayable","type":"function"},{"inputs":[{"internalType":"uint256","name":"modelId","type":"uint256"},{"internalType":"bool","name":"listed","type":"bool"}],"name":"setListed","outputs":[],"stateMutability":"nonpayable","type":"function"},{"inputs":[{"internalType":"uint256","name":"lim","type":"uint256"}],"name":"setModelsLimit","outputs":[],"stateMutability":"nonpayable","type":"function"},{"inputs":[{"internalType":"address","name":"_token","type":"address"}],"name":"setPaymentToken","outputs":[],"stateMutability":"nonpayable","type":"function"},{"inputs":[{"internalType":"address","name":"to","type":"address"},{"internalType":"uint256","name":"amount","type":"uint256"}],"name":"sweep","outputs":[],"stateMutability":"nonpayable","type":"function"},{"inputs":[{"internalType":"address","name":"token","type":"address"},{"internalType":"address","name":"to","type":"address"},{"internalType":"uint256","name":"amount","type":"uint256"}],"name":"sweepToken","outputs":[],"stateMutability":"nonpayable","type":"function"},{"inputs":[{"internalType":"address","name":"newOwner","type":"address"}],"name":"transferOwnership","outputs":[],"stateMutability":"nonpayable","type":"function"},{"inputs":[],"name":"unpause","outputs":[],"stateMutability":"nonpayable","type":"function"},{"inputs":[{"internalType":"uint256","name":"modelId","type":"uint256"},{"internalType":"string","name":"agentEndpoint","type":"string"},{"internalType":"address","name":"agentWallet","type":"address"}],"name":"updateModelAgent","outputs":[],"stateMutability":"nonpayable","type":"function"},{"stateMutability":"payable","type":"receive"}],"evm":{"bytecode":{"linkReferences":{},"object":"60a0346200026457601f6200627438819003918201601f1916830192916001600160401b039182851184861017620002695781608092859260409788528339810103126200026457815162000057602084016200027f565b926200006a60608683015192016200027f565b9233156200024c5760018060a01b031991826001541660015560009384549360018060a01b039733828716178755895195893391167f8be0079c531659141344cd1fd0a4f28419497f9722a3daafe3b4186f6b6457e08980a360016002556004956001875561271084116200023e57506107d083116200022e5788169182156200021e576006556007541617600755600955855161215c80820190828210848311176200020b576020918391620040f8833930815203019084f08015620001fd578086916080521693843b1562000207578560248592838a51988994859363f2fde38b60e01b855216888401525af18015620001fd57620001c5575b8560008051602062006254833981519152602087608051168351908152a151613e6390816200029582396080518181816107a10152818161087501528181610c5601528181610f53015281816116f50152818161197701526122940152f35b8311620001ea5750508252602060008051602062006254833981519152388062000166565b634e487b7160e01b825260419052602490fd5b86513d85823e3d90fd5b8380fd5b634e487b7160e01b865260418552602486fd5b895163d92e233d60e01b81528690fd5b895163c1bd884560e01b81528690fd5b63c6cc5d7f60e01b81528690fd5b8551631e4fbdf760e01b815260006004820152602490fd5b600080fd5b634e487b7160e01b600052604160045260246000fd5b51906001600160a01b0382168203620002645756fe6080604052600436101561001b575b361561001957600080fd5b005b6000803560e01c80630135adcd146133a557806308c05903146133505780630d1cfcae146133275780631ade29ca146132fe5780631e141e8b1461320a578063227dc4c4146131ec578063235b3b941461318257806323da4f011461313b57806323ea1f5f1461113457806324a9d8531461311d57806328342ecf146130b35780632d88c21114612bc65780633013ce2914612b9d578063345c0f77146123fa57806337c738651461225e5780633d162cdc146121bb5780633f4ba83a1461215057806346453f28146120fe57806346904840146120d557806347eaa7a214611aeb5780634b746cd1146117f85780635ba1c1a9146117da5780635c975abb146117b757806361b8ce8c14611799578063636d5870146116bc57806364aff9ec146116725780636a030ca91461155f5780636a326ab1146114f55780636d361694146112a65780636ea056a914611238578063715018a6146111d357806375bb91b2146111b757806379ba5097146111395780637d53deff1461113457806381cd7439146111175780638456cb59146110bc57806388daf7f414610e0f5780638da5cb5b14610de85780639ccebcec14610d64578063a249668a14610d45578063acb27c6814610d29578063c384373a14610d0b578063c3c2265f14610c1d578063c7d2497414610bd9578063c8aa67b314610bbb578063d2d5ec4d14610b6d578063d402e4641461081b578063d5b141e7146107ec578063da68d47d1461078b578063df99e534146107d0578063e0a3dd961461078b578063e30c397814610762578063f09449ba14610609578063f2fde38b1461059c578063f5b969721461057c578063f60eb4bf146103fc578063f932ecac146102c45763fd967f47146102a5575061000e565b346102c157806003193601126102c15760206040516127108152f35b80fd5b50346102c15760403660031901126102c1576004356102e1613558565b6102e96139c1565b818352600a6020526040832080546001600160a01b0390811633036103ea578083169182156103d85761031b84613b6d565b620151804201928342116103c45791600c6103be927fe0ab772b3b6cddb6293c9c400e007d0bd007f54e8a59244023fb3360b89172ff9695946040519061036182613611565b81526001602082018781528a8c52600d6020528560408d209351166001600160601b0360a01b84541617835551910155015416916040519384938460409194939294606082019560018060a01b0380921683521660208201520152565b0390a280f35b634e487b7160e01b87526011600452602487fd5b60405163d92e233d60e01b8152600490fd5b6040516330cd747160e01b8152600490fd5b50346102c15760603660031901126102c1576004356024356001600160401b0381116105785761043090369060040161358a565b916044356001600160a01b03818116939184900361054e576104506139c1565b828652600a6020528060408720541633036103ea57600f54168015610566576040519263173e79bb60e01b84526004840152602083602481845afa92831561055b578693610522575b508215610510578594813b1561050c578580946104da9660405197889687958694633bda90a360e01b8652600486015260606024860152606485019161387c565b90604483015203925af18015610501576104f15750f35b6104fa90613679565b6102c15780f35b6040513d84823e3d90fd5b8580fd5b60405163a9146eeb60e01b8152600490fd5b9092506020813d602011610553575b8161053e6020938361368c565b8101031261054e57519138610499565b600080fd5b3d9150610531565b6040513d88823e3d90fd5b604051633c43607360e11b8152600490fd5b8280fd5b50346102c157806003193601126102c157602060405164e8d4a510008152f35b50346102c15760203660031901126102c1576105b661352b565b6105be613ab2565b600180546001600160a01b0319166001600160a01b0392831690811790915582549091167f38d16b8cac22d99fc7c124b9cd0de2d3fa1faef420bfe791d8c362d765e227008380a380f35b50346102c15760403660031901126102c1576004356024358015801580920361054e576106346139c1565b828452600a6020526040842080546001600160a01b03929083163381036103ea57857fa417ee948a5c9d2786613a25b5c7344175c18ea547f629c63f7de4ceaacb90986020600586019788549860ff8a169960ff83169060ff1916179055604051908152a31561071457541660405192600080516020613e0e8339815191528580a380610709575b6106c6575b505b80f35b60085460001981019081116106f557600080516020613dee83398151915291816020926008558152a1386106c1565b634e487b7160e01b83526011600452602483fd5b5060085415156106bc565b50509050156107205780f35b6008546001810180911161074e57602081600080516020613dee83398151915292600855604051908152a180f35b634e487b7160e01b82526011600452602482fd5b50346102c157806003193601126102c1576001546040516001600160a01b039091168152602090f35b50346102c157806003193601126102c1576040517f00000000000000000000000000000000000000000000000000000000000000006001600160a01b03168152602090f35b50346102c157806003193601126102c157602060405160648152f35b50346102c15760203660031901126102c15760ff60406020926004358152600c84522054166040519015158152f35b50346102c15760403660031901126102c1576004356024359061ffff8216809203610578576108486139c1565b610850613ac6565b8115610b5b5760405163596e890960e11b8152600481018290526001600160a01b03927f00000000000000000000000000000000000000000000000000000000000000008416919060e082602481865afa91821561055b578692610b2a575b506040516331a9108f60e11b815260048101859052602095908681602481885afa908115610b1f578891610af2575b5081339116036103ea57600160ff878501511603610ae057848752600c865260ff604088205416610ace5782518752600a8652604087209160065461092860048501548092613b03565b60078401548015610abc578261093d91613958565b9264e8d4a510008411610aaa57610961918160018701541633928754169186613bf1565b509490936001600160401b03908160608401511684428211600014610a9a57600861098f92935b0154613958565b906201518091828102928184041490151715610a865782918c936109b39216613829565b1696803b15610a82578190604460405180948193633f97add560e21b83528d60048401528c60248401525af18015610a7757610a37575b50917fffa941bdd74336abc13129ba18ac9721bf531ff9f07161484dfb56f1f28dd5be95939160a095935198604051958652850152604084015260608301526080820152a3600160025580f35b9160a095939199610a6a7fffa941bdd74336abc13129ba18ac9721bf531ff9f07161484dfb56f1f28dd5be989694613679565b99919395509193956109ea565b6040513d8c823e3d90fd5b5080fd5b634e487b7160e01b8c52601160045260248cfd5b61098f9150600884421693610988565b60405163127f08c960e11b8152600490fd5b604051631140cf7f60e01b8152600490fd5b604051633806084560e11b8152600490fd5b6040516302b79ed360e41b8152600490fd5b610b129150873d8911610b18575b610b0a818361368c565b810190613939565b386108de565b503d610b00565b6040513d8a823e3d90fd5b610b4d91925060e03d60e011610b54575b610b45818361368c565b8101906138ab565b90386108af565b503d610b3b565b604051637616640160e01b8152600490fd5b50346102c15760203660031901126102c1577f3a266fd63d408074525facb4c91054de12d4e7bf0cad93604b63ef604f96e7fc6020600435610bad613ab2565b80600955604051908152a180f35b50346102c157806003193601126102c1576020600854604051908152f35b50346102c15760203660031901126102c1576004358152600d6020908152604091829020805460019091015483516001600160a01b03909216825291810191909152f35b50346102c15760203660031901126102c15760405163596e890960e11b8152600480359082018190526001600160a01b0360e0836024817f000000000000000000000000000000000000000000000000000000000000000085165afa928315610d00578493610cdf575b5082518452600a60205260408420541633036103ea57808352600c60205260408320805460ff19166001179055905133917fa0fdfae94a7f0d72d671fdddac883ffa712b07cfc84408bfb3ced264d1fc58f18480a480f35b610cf991935060e03d60e011610b5457610b45818361368c565b9138610c87565b6040513d86823e3d90fd5b50346102c157806003193601126102c1576020600554604051908152f35b50346102c157806003193601126102c157602060405160028152f35b50346102c157806003193601126102c1576020604051633b9aca008152f35b50346102c15760403660031901126102c157602435600435610d846139c1565b808352600a6020526040832080546001600160a01b031633036103ea57600b90610dad84613b28565b0191808354935560405192835260208301527f6f410fdce106b8b5c37fa32842357b3f2ecea680083897d5490141b384e1bb0160403393a380f35b50346102c157806003193601126102c157546040516001600160a01b039091168152602090f35b50346102c15760803660031901126102c157610e2961351b565b610e316135b7565b90610e3a6135c8565b610e426139c1565b610e4a613ac6565b6004358452600a602052604084209060ff600583015416156110aa57600654610e7860048401548092613b03565b610e9660ff6009850154610e8d8282166139df565b60081c16613a25565b610ec3610ea4868686613ba4565b60018501548554919333926001600160a01b0390811692169085613bf1565b508796600160ff881614611051575b5061ffff6009860154600a87015460405196610eed88613642565b600435885260ff8a16602089015260ff831660408901526001600160401b038b1660608901521515608088015260a087015260101c1660c0850152610f496040519463424d8dbf60e11b8652336004870152602486019061396b565b602084610104818b7f00000000000000000000000000000000000000000000000000000000000000006001600160a01b03165af1938415610b1f578894611017575b506005849055600994909401546040805160ff978816815296821660208801526001600160401b039097169686019690965260109590951c61ffff166060850152608084015260a083019390935260c08201523391600435917f83a9edc2809eed4960fd3ccb7da06a85b3e878e6e1568e8ca281ae543adcc493908060e081015b0390a4600160025580f35b9093506020813d602011611049575b816110336020938361368c565b8101031261104557519261100c610f8b565b8780fd5b3d9150611026565b61106791975061ffff6008870154911690613958565b62015180908181029181830414901517156110965761108e6001600160401b039142613829565b169538610ed2565b634e487b7160e01b88526011600452602488fd5b60405163665c1c5760e01b8152600490fd5b50346102c157806003193601126102c1576110d5613ab2565b6110dd6139c1565b600160ff1960035416176003557f62e78cea01bee320cd4e420270b5ea74000d11b0c9f74754ebdbfc544b05a2586020604051338152a180f35b50346102c157806003193601126102c15760206040516107d08152f35b61356e565b50346102c157806003193601126102c1576001546001600160a01b03338183160361119f576001600160a01b031991821660015582543392811683178455167f8be0079c531659141344cd1fd0a4f28419497f9722a3daafe3b4186f6b6457e08380a380f35b60405163118cdaa760e01b8152336004820152602490fd5b50346102c157806003193601126102c157602090604051908152f35b50346102c157806003193601126102c1576111ec613ab2565b600180546001600160a01b03199081169091558154908116825581906001600160a01b03167f8be0079c531659141344cd1fd0a4f28419497f9722a3daafe3b4186f6b6457e08280a380f35b50346102c15760403660031901126102c15761125261352b565b60243561125d613ab2565b6001600160a01b0382169182156103d8578161129c7f6e20afaadac1247355fa762fa54c781b1749acd4853577725d30ff0acf2d8ed093602093613d03565b604051908152a280f35b50346102c15760203660031901126102c157806040916101c083516112ca8161365d565b8281528260208201526060858201526060808201528260808201528260a08201528260c08201528260e08201528261010082015282610120820152826101408201528261016082015282610180820152826101a082015201526004358152600a602052206040519061133b8261365d565b80546001600160a01b0390811683526001820154166020830152611361600282016136ad565b6040830152611372600382016136ad565b60608301526004810154608083015260ff600582015416151560a0830152600681015460c0830152600781015460e0830152600881015461010083015261ffff600982015460ff811661012085015260ff8160081c1661014085015260101c16610160830152600a810154610180830152600b8101546101a0830152600c60018060a01b03910154166101c082015260405180916020825260018060a01b03815116602083015260018060a01b03602082015116604083015261145f61144960408301516101e06060860152610200850190613752565b6060830151848203601f19016080860152613752565b90608081015160a084015260a0810151151560c084015260c081015160e084015260e081015161010084015261010081015161012084015260ff6101208201511661014084015260ff6101408201511661016084015261ffff610160820151166101808401526101808101516101a08401526101a08101516101c08401526101c060018060a01b03910151166101e08301520390f35b50346102c15760203660031901126102c15761150f61352b565b611517613ab2565b6001600160a01b031680156103d857601080546001600160a01b031916821790557fcb0aeffe884eb88fb2a31a2f3e4bd1d2763bdee48ba93b28c6e87501228cf7438280a280f35b50346102c15760203660031901126102c1576004358152600a60205260409020805460018201546001600160a01b0390811692918116916115a2600282016136ad565b906115af600382016136ad565b92600482015493600583015460ff166006840154600785015490600886015492600987015494600a88015496600b89015498600c015416986040519c8d9c8d6101e092839282526020820152604001528c0161160a91613752565b8b810360608d015261161b91613752565b9860808b0152151560a08a015260c089015260e088015261010087015260ff81166101208701528060081c60ff1661014087015260101c61ffff166101608601526101808501526101a08401526101c08301520390f35b50346102c15760603660031901126102c15761168c61352b565b611694613558565b9061169d613ab2565b6001600160a01b0391808316156103d8576106c3926044359216613cc2565b50346102c15760203660031901126102c1576004356116d9613ab2565b60405163596e890960e11b81526004810182905260e0816024817f00000000000000000000000000000000000000000000000000000000000000006001600160a01b03165afa90811561178e57839161176f575b50818352600c60205260408320805460ff191660011790555133917fa0fdfae94a7f0d72d671fdddac883ffa712b07cfc84408bfb3ced264d1fc58f18480a480f35b611788915060e03d60e011610b5457610b45818361368c565b3861172d565b6040513d85823e3d90fd5b50346102c157806003193601126102c1576020600454604051908152f35b50346102c157806003193601126102c157602060ff600354166040519015158152f35b50346102c157806003193601126102c1576020604051620151808152f35b50346102c15760a03660031901126102c15761181261351b565b61181a6135b7565b6118226135c8565b906084356001600160401b038111611ae75761184290369060040161358a565b909161184c6139c1565b611854613ac6565b6004358652600a602052604086209060ff600583015416156110aa5785936006549261188560048201548095613b03565b61189a60ff6009830154610e8d8282166139df565b6118c76118a8848884613ba4565b60018301548354919633926001600160a01b0390811692169088613bf1565b509690928a94600160ff841614611a80575b5060209161197261195e9260098601549b600a8701549c61ffff9d8e9260ff6040519761190589613642565b6004358952168988015260ff831660408801526001600160401b038c1660608801521515608087015260a086015260101c1660c0840152604051998a94859463b03fbfbb60e01b8652336004870152602486019061396b565b61012061010485015261012484019161387c565b03818c7f00000000000000000000000000000000000000000000000000000000000000006001600160a01b03165af1948515611a75578995611a35575b506005859055600901546040805160ff998a16815298821660208a01526001600160401b039093169288019290925261ffff60109290921c909516166060860152608085015260a084019290925260c0830152339160043591907f83a9edc2809eed4960fd3ccb7da06a85b3e878e6e1568e8ca281ae543adcc493908060e0810161100c565b919450946020823d602011611a6d575b81611a526020938361368c565b81010312611a69579051909490939061100c6119af565b8880fd5b3d9150611a45565b6040513d8b823e3d90fd5b6008840154919550611a97925061ffff1690613958565b62015180908082810204821481151715611ad357896119726001600160401b03611ac860209561195e950242613829565b1696925050916118d9565b634e487b7160e01b8b52601160045260248bfd5b8480fd5b50346102c1576101803660031901126102c1576004356001600160401b038111610a8257611b1d90369060040161358a565b906024356001600160401b0381116120d157611b3d90369060040161358a565b92906044356001600160401b03811161050c57611b5e90369060040161358a565b929093611b696134fa565b93611bdf611b7561350a565b92611b7e613541565b94611b876139c1565b611b92606435613ae7565b611ba0606435600654613b03565b611ba9886139df565b611bb285613a25565b611bc360c43560a435608435613a6b565b611bcf61014435613b28565b611bd886613b6d565b36916137d6565b60208151910120338952600b60205260408920908952602052604088209561ffff806001890154161461051057865480612044575b506009548015159081612037575b506120255760045497611c348961381a565b600455888a52600a60205260408a2095336001600160601b0360a01b88541617875560018701336001600160601b0360a01b8254161790556001600160401b038211612011578190611c8960028901546135d7565b601f8111611fbf575b508b90601f8311600114611f53578c92611f48575b50508160011b916000199060031b1c19161760028601555b6001600160401b038211611f3457611cda60038601546135d7565b601f8111611ef0575b508890601f8311600114611e775792826001979593611d729361ffff98968d92611e6c575b505081891b916000199060031b1c19161760038501555b606435600485015560058401805460ff191688179055608435600685015560a435600785015560c43560088086019190915560098501805461ffff191660ff979097169690961791901b61ff0016178455565b61012435600a83015561014435600b83015560a085901b8590039080821615611e6257600c90925b0180546001600160a01b03191691909216179055835415611e4557611de0611dc6838587015416613792565b825463ffff00001916601082901b63ffff00001617909255565b8484551661ffff19828401541617910155600854600181018091116106f557602081600080516020613dee83398151915292600855604051908152a133907f0da0a1595d5f9a5872904ca8eceb17d6befc55070d4fd387e4c2f1d4553dd01a8380a380f35b805463ffff00001916601084901b63ffff00001617905581611de0565b50600c3392611d9a565b013590503880611d08565b600386018a5260208a20918a5b601f1985168110611ed8575083611d729361ffff98969360019a9896938b94601f19811610611ebe575b505050811b016003850155611d1f565b0135600019600384901b60f8161c19169055388080611eae565b90926020600181928686013581550194019101611e84565b600386018a5260208a20601f840160051c810160208510611f2d575b601f830160051c82018110611f22575050611ce3565b8b8155600101611f0c565b5080611f0c565b634e487b7160e01b89526041600452602489fd5b013590503880611ca7565b600289018d5260208d208d9450915b601f1984168510611fa7576001945083601f19811610611f8d575b505050811b016002860155611cbf565b0135600019600384901b60f8161c19169055388080611f7d565b81810135835560209485019460019093019201611f62565b909150600288018c5260208c20601f840160051c81016020851061200a575b84939291908e5b601f840160051c83018210611ffc57505050611c92565b81558594506001018e611fe5565b5080611fde565b634e487b7160e01b8b52604160045260248bfd5b604051635703766960e01b8152600490fd5b9050600854101538611c22565b8952600a6020526040892060058101805460ff8116612065575b5050611c14565b60ff191690556008548061209d575b50875490546001600160a01b031690600080516020613e0e8339815191528b80a338808061205e565b80600019810111611ad357600019016008819055604051908152600080516020613dee83398151915290602090a138612074565b8380fd5b50346102c157806003193601126102c1576007546040516001600160a01b039091168152602090f35b50346102c15760403660031901126102c15760409081906001600160a01b0361212561352b565b168152600b60205281812060243582526020522061ffff600182549201541682519182526020820152f35b50346102c157806003193601126102c157612169613ab2565b60035460ff8116156121a95760ff19166003557f5db9ee0a495bf2e6ff9c91a7834c1ba4fdd244a5e8aa4e537bd38aeae4b073aa6020604051338152a180f35b604051638dfc202b60e01b8152600490fd5b50346102c15760403660031901126102c1576004356121d8613558565b6121e0613ab2565b6121e982613ae7565b6107d0821161224c576001600160a01b031680156103d857816040917fc5732485634831b5e1b586e2011c5f2b392fe136310c230cf1f04d6caf30c15a93600655806001600160601b0360a01b600754161760075582519182526020820152a180f35b60405163c1bd884560e01b8152600490fd5b50346102c157602080600319360112610a825760405163596e890960e11b815260048035908201819052916001600160a01b03917f000000000000000000000000000000000000000000000000000000000000000083169160e082602481865afa91821561055b5786926123d9575b50848652600c81528060ff604088205416956024604051809681936331a9108f60e11b835260048301525afa92831561055b579560c09681946123ba575b5060ff8284015116916001600160401b0360608501511693876000146123555750815b604051971515885215159087015215156040860152606085015260808401521660a0820152f35b8315925082156123b0575b6040015160ff1691808061239c575b928161237d575b509161232e565b6002811491508115612391575b5038612376565b60039150143861238a565b50600183148061236f57506003831461236f565b4285119250612360565b6123d2919450823d8411610b1857610b0a818361368c565b923861230b565b6123f391925060e03d60e011610b5457610b45818361368c565b90386122cd565b50346102c1576101a03660031901126102c1576004356001600160401b038111610a825761242c90369060040161358a565b6024356001600160401b0381116120d15761244b90369060040161358a565b92906044356001600160401b03811161050c5761246c90369060040161358a565b6124746134fa565b9061247d61350a565b90612486613541565b956001600160401b036101843511612b995760606101843536036003190112612b9957612510906124b56139c1565b6124bd613ac6565b8a986124ca606435613ae7565b6124d8606435600654613b03565b6124e1866139df565b6124ea85613a25565b6124fb60c43560a435608435613a6b565b61250761014435613b28565b611bd889613b6d565b60208151910120338a52600b60205260408a20908a52602052604089209361ffff806001870154161461051057845480612b0c575b506009548015159081612aff575b5061202557600454986125658a61381a565b600455898b52600a60205260408b2096336001600160601b0360a01b89541617885560018801336001600160601b0360a01b8254161790556001600160401b038211612aeb5781906125ba60028a01546135d7565b601f8111612a99575b508c90601f8311600114612a2d578d92612a22575b50508160011b916000199060031b1c19161760028701555b6001600160401b038211612a0e5761260b60038701546135d7565b601f81116129c9575b5089908a601f84116001146129515792806126a29361ffff96936001989692612946575b505081871b916000199060031b1c19161760038801555b606435600488015560058701805460ff191686179055608435600688015560a435600788015560c43560088089019190915560098801805461ffff191660ff959095169490941791901b61ff0016178255565b61012435600a86015561014435600b860155828060a01b0386161515948560001461293d57600c87915b0190848060a01b03166001600160601b0360a01b8254161790558354151560001461292057612702611dc6838587015416613792565b8784551661ffff198284015416179101556008546001810180911161290c57602081600080516020613dee83398151915292600855604051908152a16040519133857f0da0a1595d5f9a5872904ca8eceb17d6befc55070d4fd387e4c2f1d4553dd01a8880a36127786004610184350180613836565b9050612794575b60408585600160025582519182526020820152f35b600f546001600160a01b03169350909183156128fd575061018435602401916001600160a01b036127c484613868565b16156128e25750506127d7602091613868565b915b6127e96004610184350180613836565b91909386866128596128076044610184350161018435600401613836565b6128476040519a8b998a9889976337a1b71960e01b89523360048a0152602489015260018060a01b0316604488015260a0606488015260a487019161387c565b8481036003190160848601529161387c565b03925af18391816128ae575b5061287c576040516371a31c2760e01b8152600490fd5b60409281837f40cd9ad911657e73bc37df0291d3b65b0da93eebffd743e2e74b46536c3a30ec339380a438808061277f565b9091506020813d6020116128da575b816128ca6020938361368c565b810103126120d157519038612865565b3d91506128bd565b909150156128f4576020905b916127d9565b506020336128ee565b633c43607360e11b8152600490fd5b634e487b7160e01b86526011600452602486fd5b805463ffff00001916601084901b63ffff00001617905581612702565b600c33916126cc565b013590503880612638565b50600387018b5260208b20918b5b601f19851681106129b15750836126a29361ffff969360019896938994601f19811610612997575b505050811b01600388015561264f565b0135600019600384901b60f8161c19169055388080612987565b9092602060018192868601358155019401910161295f565b600387018b5260208b20601f840160051c810160208510612a07575b8c601f840160051c830182106129fd57505050612614565b81556001016129e5565b50806129e5565b634e487b7160e01b8a52604160045260248afd5b0135905038806125d8565b60028a018e5260208e208e9450915b601f1984168510612a81576001945083601f19811610612a67575b505050811b0160028701556125f0565b0135600019600384901b60f8161c19169055388080612a57565b81810135835560209485019460019093019201612a3c565b909150600289018d5260208d20601f840160051c810160208510612ae4575b84939291908f5b601f840160051c83018210612ad6575050506125c3565b81558594506001018f612abf565b5080612ab8565b634e487b7160e01b8c52604160045260248cfd5b9050600854101538612553565b8a52600a60205260408a2060058101805460ff8116612b2d575b5050612545565b60ff1916905560085480612b65575b50855490546001600160a01b031690600080516020613e0e8339815191528c80a3388080612b26565b80600019810111610a8657600019016008819055604051908152600080516020613dee83398151915290602090a138612b3c565b8980fd5b50346102c157806003193601126102c1576010546040516001600160a01b039091168152602090f35b50346102c1576101403660031901126102c1576004356001600160401b038111610a8257612bf890369060040161358a565b6024356001600160401b0381116120d157612c1790369060040161358a565b92906044356001600160401b03811161050c57612c3890369060040161358a565b612c94612c469592956134fa565b94612c4f61350a565b93612c586139c1565b612c63606435613ae7565b612c71606435600654613b03565b612c7a876139df565b612c8385613a25565b611bd860c43560a435608435613a6b565b60208151910120338852600b60205260408820908852602052604087209461ffff806001880154161461051057855480613012575b506009548015159081613005575b506120255760045496612ce98861381a565b600455878952600a6020526040892094336001600160601b0360a01b87541617865560018601336001600160601b0360a01b8254161790556001600160401b038211612a0e578190612d3e60028801546135d7565b601f8111612fb4575b508a90601f8311600114612f48578b92612f3d575b50508160011b916000199060031b1c19161760028501555b6001600160401b038211612f2957612d8f60038501546135d7565b601f8111612ee5575b508790601f8311600114612e6c576001959383600c9461ffff9794612e28948d92612e61575b505081891b916000199060031b1c19161760038401555b606435600484015560058301805460ff191688179055608435600684015560a435600784015560c43560088085019190915560098401805461ffff191660ff979097169690961791901b61ff0016178455565b61012435600a820155600b81018890550180546001600160a01b03191633179055835415611e4557611de0611dc6838587015416613792565b013590503880612dbe565b6003850189526020892091895b601f1985168110612ecd57509360018461ffff9794612e2894839a98600c98601f19811610612eb3575b505050811b016003840155612dd5565b0135600019600384901b60f8161c19169055388080612ea3565b90926020600181928686013581550194019101612e79565b60038501895260208920601f840160051c810160208510612f22575b601f830160051c82018110612f17575050612d98565b8a8155600101612f01565b5080612f01565b634e487b7160e01b88526041600452602488fd5b013590503880612d5c565b600288018c5260208c208c9450915b601f1984168510612f9c576001945083601f19811610612f82575b505050811b016002850155612d74565b0135600019600384901b60f8161c19169055388080612f72565b81810135835560209485019460019093019201612f57565b909150600287018b5260208b20601f840160051c810160208510612ffe575b90849392915b8d601f840160051c83018210612ff157505050612d47565b8155859450600101612fd9565b5080612fd3565b9050600854101538612cd7565b8852600a6020526040882060058101805460ff8116613033575b5050612cc9565b60ff191690556008548061306b575b50865490546001600160a01b031690600080516020613e0e8339815191528a80a338808061302c565b8060001981011161309f57600019016008819055604051908152600080516020613dee83398151915290602090a138613042565b634e487b7160e01b8a52601160045260248afd5b50346102c15760203660031901126102c1576130cd61352b565b6130d5613ab2565b6001600160a01b031680156103d857600f80546001600160a01b031916821790557f1c3b6db6b438df64d69fe11676a03581a3860962063a836411d7cac590063f568280a280f35b50346102c157806003193601126102c1576020600654604051908152f35b50346102c15760203660031901126102c157600435808252600a60205260408220546001600160a01b031633036103ea578152600d60205280600160408220828155015580f35b50346102c15760203660031901126102c15761319c61352b565b6131a4613ab2565b6001600160a01b031680156103d857600e80546001600160a01b031916821790557f17842ab69b80ec00f544dd5b40889875faad4813ee423844f70217bd9a7d964f8280a280f35b50346102c157806003193601126102c1576020600954604051908152f35b50346102c157602080600319360112610a8257600435808352600a82526040832080549192916001600160a01b0390811633036103ea57838552600d8352604085209060016040519261325c84613611565b828154168452015484830190808252156132ec575142106132da577fea983ef69798673fd095eaf6ce96e30087e2403d023c0b66930487e5216d53879381600c6040950193845494828251166001600160601b0360a01b8716179055878952600d83528860018782208281550155511691845193168352820152a280f35b60405163621e25c360e01b8152600490fd5b60405163147fde5f60e31b8152600490fd5b50346102c157806003193601126102c157600e546040516001600160a01b039091168152602090f35b50346102c157806003193601126102c157600f546040516001600160a01b039091168152602090f35b50346102c15760203660031901126102c15760406080916004358152600a60205220600b81015490600460018060a01b03600c8301541691015460065491604051938452602084015260408301526060820152f35b50346102c15760e03660031901126102c15760443560043560843560ff811690602435906064358382036134f65760a4359060ff82168203611045576133e96139c1565b858852600a60205260408820805490976001600160a01b03959091861633036103ea57613418613460956139df565b61342184613a25565b61342c838383613a6b565b600689015560078801556008870155600986019360ff19855416178455839061ff0082549160081b169061ff001916179055565b61ffff80835460101c16908114610510577fa417ee948a5c9d2786613a25b5c7344175c18ea547f629c63f7de4ceaacb90989260209260ff926005926134c89180156134e3576134af90613792565b63ffff000082549160101b169063ffff00001916179055565b60c435600a880155865416950154166040519015158152a380f35b50805463ffff0000191662010000179055565b8680fd5b60e4359060ff8216820361054e57565b610104359060ff8216820361054e57565b6024359060ff8216820361054e57565b600435906001600160a01b038216820361054e57565b61016435906001600160a01b038216820361054e57565b602435906001600160a01b038216820361054e57565b3461054e57600036600319011261054e57602060405160018152f35b9181601f8401121561054e578235916001600160401b03831161054e576020838186019501011161054e57565b6044359061ffff8216820361054e57565b60643590811515820361054e57565b90600182811c92168015613607575b60208310146135f157565b634e487b7160e01b600052602260045260246000fd5b91607f16916135e6565b604081019081106001600160401b0382111761362c57604052565b634e487b7160e01b600052604160045260246000fd5b60e081019081106001600160401b0382111761362c57604052565b6101e081019081106001600160401b0382111761362c57604052565b6001600160401b03811161362c57604052565b90601f801991011681019081106001600160401b0382111761362c57604052565b906040519182600082546136c0816135d7565b9081845260209460019160018116908160001461373057506001146136f1575b5050506136ef9250038361368c565b565b600090815285812095935091905b8183106137185750506136ef93508201013880806136e0565b855488840185015294850194879450918301916136ff565b925050506136ef94925060ff191682840152151560051b8201013880806136e0565b919082519283825260005b84811061377e575050826000602080949584010152601f8019910116010190565b60208183018101518483018201520161375d565b90600161ffff809316019182116137a557565b634e487b7160e01b600052601160045260246000fd5b6001600160401b03811161362c57601f01601f191660200190565b9291926137e2826137bb565b916137f0604051938461368c565b82948184528183011161054e578281602093846000960137010152565b919082039182116137a557565b60001981146137a55760010190565b919082018092116137a557565b903590601e198136030182121561054e57018035906001600160401b03821161054e5760200191813603831361054e57565b356001600160a01b038116810361054e5790565b908060209392818452848401376000828201840152601f01601f1916010190565b519060ff8216820361054e57565b908160e091031261054e57604051906138c382613642565b805182526138d36020820161389d565b60208301526138e46040820161389d565b604083015260608101516001600160401b038116810361054e576060830152608081015190811515820361054e5760c091608084015260a081015160a0840152015161ffff8116810361054e5760c082015290565b9081602091031261054e57516001600160a01b038116810361054e5790565b818102929181159184041417156137a557565b61ffff60c080928051855260ff602082015116602086015260ff60408201511660408601526001600160401b03606082015116606086015260808101511515608086015260a081015160a0860152015116910152565b60ff600354166139cd57565b60405163d93c066560e01b8152600490fd5b60ff1660018114908115613a1a575b8115613a0f575b50156139fd57565b604051630eb911d560e01b8152600490fd5b6003915014386139f5565b6002811491506139ee565b60ff1660018114908115613a60575b8115613a55575b5015613a4357565b604051632abf7d0d60e21b8152600490fd5b600391501438613a3b565b600281149150613a34565b801580613aaa575b610abc5764e8d4a51000809111908115613aa0575b50610aaa57613a9757610b5b57565b600111610b5b57565b9050811138613a88565b508115613a73565b6000546001600160a01b0316330361119f57565b6002805414613ad55760028055565b604051633ee5aeb560e01b8152600490fd5b61271010613af157565b60405163c6cc5d7f60e01b8152600490fd5b61271091613b1091613829565b11613b1757565b60405162c9a16b60e31b8152600490fd5b8015159081613b4b575b50613b3957565b604051632e0d2f7560e01b8152600490fd5b6064811091508115613b5f575b5038613b32565b633b9aca0091501138613b58565b6001600160a01b03811615159081613b99575b50613b8757565b6040516311970e2d60e31b8152600490fd5b90503b151538613b80565b9060ff1680613bbd57506006915001548015610abc5790565b600103610ae05760070154908115610abc5761ffff168015610b5b57613be291613958565b64e8d4a510008111610aaa5790565b60105491956001600160a01b0395949093909286168015613cb0576127109788600654613c1e9086613958565b0498613c2b8a9286613958565b0497889283613c3a848861380d565b90613c449161380d565b6040516323b872dd60e01b60208201526001600160a01b039a909a1660248b01523060448b01526064808b01979097529589529497889590613c8760848261368c565b613c9091613d85565b6007541690613c9e91613d68565b613ca791613d68565b6136ef91613d68565b60405163a51ad60560e01b8152600490fd5b60405163a9059cbb60e01b60208201526001600160a01b039290921660248301526044808301939093529181526136ef91613cfe60648361368c565b613d85565b8115613d64576000918291829182916001600160a01b03165af13d15613d5f573d613d2d816137bb565b90613d3b604051928361368c565b8152600060203d92013e5b15613d4d57565b6040516312171d8360e31b8152600490fd5b613d46565b5050565b908015613d64576010546136ef92906001600160a01b0316613cc2565b906000602091828151910182855af115613de1576000513d613dd857506001600160a01b0381163b155b613db65750565b604051635274afe760e01b81526001600160a01b039091166004820152602490fd5b60011415613daf565b6040513d6000823e3d90fdfe00a17e39748f90dcc231579b95804358753dc835acd3f3972717efc03a8b5511c3090e5fbc3f92a65283d58dece4ae699cc0ca8e124dbc474240bb1aed0b77e7a2646970667358221220c703588b21050e7195cbcaae7180cf6c75b86284b28df42163568e7f17f7109564736f6c63430008180033608034620003d557601f906001600160401b0390601f19906200215c388190038581018416830185811184821017620003bf57839282916040528339602092839181010312620003d557516001600160a01b03948582169491859003620003d5576200006a620003da565b92601584527f4d61726b6574706c6163654149204c6963656e73650000000000000000000000818501526200009e620003da565b9060078252664d5041494c494360c81b81830152845195848711620003bf576000968754966001978881811c91168015620003b4575b85821014620003a0579081878493116200034d575b508490878311600114620002ec578a92620002e0575b5050600019600383901b1c191690871b1787555b8251948511620002cc5785548681811c91168015620002c1575b83821014620002ad5790818587969594931162000254575b5081938511600114620001ef5750508592620001e3575b5050600019600383901b1c191690821b1790555b3315620001cb5760065460018060a01b03199133838316176006557f8be0079c531659141344cd1fd0a4f28419497f9722a3daafe3b4186f6b6457e0604051953393169180a36007541617600755611d619081620003fb8239f35b60249060405190631e4fbdf760e01b82526004820152fd5b0151905038806200015c565b869593929193168588528388209388905b8282106200023a575050841162000220575b505050811b01905562000170565b015160001960f88460031b161c1916905538808062000212565b848401518655889790950194938401939081019062000200565b9091929394508688528288208580880160051c820192858910620002a3575b9188978a9297969594930160051c01915b8281106200029457505062000145565b8a815588975089910162000284565b9250819262000273565b634e487b7160e01b88526022600452602488fd5b90607f16906200012d565b634e487b7160e01b87526041600452602487fd5b015190503880620000ff565b90848a9416918b8052868c20928c5b888282106200033657505084116200031c575b505050811b01875562000113565b015160001960f88460031b161c191690553880806200030e565b8385015186558d97909501949384019301620002fb565b909150898052848a208780850160051c82019287861062000396575b918b91869594930160051c01915b82811062000387575050620000e9565b8c81558594508b910162000377565b9250819262000369565b634e487b7160e01b8a52602260045260248afd5b90607f1690620000d4565b634e487b7160e01b600052604160045260246000fd5b600080fd5b60408051919082016001600160401b03811183821017620003bf5760405256fe6080604081815260048036101561001557600080fd5b600092833560e01c90816301ffc9a71461100f5750806306fdde0314610f5e578063081812fc14610f23578063095ea7b314610e47578063162094c414610cc557806318160ddd14610ca657806323b872dd14610c8e57806342842e0e14610c5f57806355f804b314610ad85780636352211e14610aa757806370a0823114610a52578063715018a6146109f557806373ad6c2d146109b5578063849b1b7e146108b25780638da5cb5b1461088957806395d89b411461079e578063a22cb465146106fd578063abc8c7af146106d4578063b03fbfbb14610482578063b2dd121214610371578063b88d4fde146102e0578063c87b56dd146102a5578063e985e9c514610253578063f2fde38b146101c95763fe5eb7541461013657600080fd5b346101c557816003193601126101c55735602435906001600160401b03821682036101c1576101be9260019161018e838060a01b0361017a816007541633146112a1565b8288526002602052838820541615156112e0565b855260096020528420019069ffffffffffffffff000082549160101b169069ffffffffffffffff00001916179055565b80f35b8380fd5b8280fd5b50346101c55760203660031901126101c5576101e36110c3565b906101ec61191f565b6001600160a01b0391821692831561023d575050600654826001600160601b0360a01b821617600655167f8be0079c531659141344cd1fd0a4f28419497f9722a3daafe3b4186f6b6457e08380a380f35b51631e4fbdf760e01b8152908101849052602490fd5b5050346102a157806003193601126102a15760ff816020936102736110c3565b61027b6110de565b6001600160a01b0391821683526005875283832091168252855220549151911615158152f35b5080fd5b5091346102dd5760203660031901126102dd57506102c66102d99235611544565b905191829160208352602083019061109e565b0390f35b80fd5b5090346101c55760803660031901126101c5576102fb6110c3565b6103036110de565b6044359185606435956001600160401b0387116102a157366023880112156102a1578601359561033e6103358861124c565b965196876111a2565b86865236602488830101116102a157866101be97602460209301838901378601015261036b838383611319565b33611bdd565b5090346101c557602091826003193601126101c157908060e094600393358160c0845161039d81611156565b828152828982015282868201528260608201528260808201528260a08201520152808252600286526103db60018060a01b03848420541615156112e0565b815260098552208151916103ee83611156565b8154948584526001830154918185019060ff8416825260ff818701818660081c1681526001600160401b03948260608a0195878960101c1687528160808c019960501c161515895260c060028b01549a60a08d019b8c5261ffff9d8e910154169b019a8b5285519c8d525116908b01525116908801525116606086015251151560808501525160a0840152511660c0820152f35b5090346101c5576101203660031901126101c55761049e6110c3565b926104a8366111c3565b6001600160401b0391610104358381116102a1576104c990369087016110f4565b9190600160a01b600190036007541633146104e3906112a1565b6008546104ef9061151f565b968760085587835260209860098a52888885209680518855600197888101908d83015160ff16918054928d85015160081b61ff00169061ffff19809516171781558b60608501511661056290829069ffffffffffffffff000082549160101b169069ffffffffffffffff00001916179055565b6080840151151581549060ff60501b9060501b169060ff60501b191617905560a083015160028201556003019160c0015161ffff16908254161790556105a79161194b565b836105b6575b88888851908152f35b878352600b89528683209584116106c157506105d28554611267565b601f811161067b575b5081601f841160011461061c5791839491849394610611575b50501b916000199060031b1c19161790555b3880808080806105ad565b0135925038806105f4565b9183601f1981168785528a8520945b8b88838310610664575050501061064a575b505050811b019055610606565b0135600019600384901b60f8161c1916905538808061063d565b85870135885590960195938401938793500161062b565b858352888320601f850160051c8101918a86106106b7575b601f0160051c019085905b8281106106ac5750506105db565b84815501859061069e565b9091508190610693565b634e487b7160e01b835260419052602482fd5b5050346102a157816003193601126102a15760075490516001600160a01b039091168152602090f35b5090346101c557806003193601126101c5576107176110c3565b906024359182151580930361079a576001600160a01b03169283156107855750338452600560205280842083855260205280842060ff1981541660ff8416179055519081527f17307eab39ab6107e8899845ad3d59bd9653f200f220920489ca2b5937696c3160203392a380f35b836024925191630b61174360e31b8352820152fd5b8480fd5b8284346102dd57806003193601126102dd578151918282600193600154946107c586611267565b9182855260209687600182169182600014610862575050600114610806575b5050506102d992916107f79103856111a2565b5192828493845283019061109e565b9190869350600183527fb10e2d527612073b26eecdfd717e6a320cf44b4afac2b0732d9fcbe2b7fa0cf65b82841061084a57505050820101816107f76102d96107e4565b8054848a018601528895508794909301928101610831565b60ff19168782015293151560051b860190930193508492506107f791506102d990506107e4565b5050346102a157816003193601126102a15760065490516001600160a01b039091168152602090f35b5050346102a1576101003660031901126102a157806109af6020936108d56110c3565b6108de366111c3565b6108f360018060a01b036007541633146112a1565b6108fe60085461151f565b9586938460085584815260098952208151815561ffff60c06003600184019360ff8c870151169480549561ff008c89015160081b16908619809816171781556109756001600160401b03606089015116829069ffffffffffffffff000082549160101b169069ffffffffffffffff00001916179055565b6080870151151581549060ff60501b9060501b169060ff60501b191617905560a0860151600282015501930151169082541617905561194b565b51908152f35b83346102dd5760203660031901126102dd576109cf6110c3565b6109d761191f565b60018060a01b03166001600160601b0360a01b600754161760075580f35b83346102dd57806003193601126102dd57610a0e61191f565b600680546001600160a01b0319811690915581906001600160a01b03167f8be0079c531659141344cd1fd0a4f28419497f9722a3daafe3b4186f6b6457e08280a380f35b5091346102dd5760203660031901126102dd576001600160a01b03610a756110c3565b16928315610a925750806020938392526003845220549051908152f35b91516322718ad960e21b815291820152602490fd5b5091346102dd5760203660031901126102dd5750610ac7602092356118e4565b90516001600160a01b039091168152f35b5082346102dd5760209160206003193601126102a1576001600160401b0381358181116101c157610b0c90369084016110f4565b929091610b1761191f565b8311610c4c5750610b29600a54611267565b601f8111610bed575b508293601f8311600114610b6f5750928293829392610b64575b50508160011b916000199060031b1c191617600a5580f35b013590508380610b4c565b601f198316947fc65a7bb8d6351c1cf70c95a316cc6a92839c986682d98bc35f958f4883f9d2a8929185905b878210610bd5575050836001959610610bbb575b505050811b01600a5580f35b0135600019600384901b60f8161c19169055838080610baf565b80600184968294958701358155019501920190610b9b565b7fc65a7bb8d6351c1cf70c95a316cc6a92839c986682d98bc35f958f4883f9d2a8601f840160051c81019160208510610c42575b601f0160051c01905b818110610c375750610b32565b848155600101610c2a565b9091508190610c21565b634e487b7160e01b845260419052602483fd5b5050346102a1576101be90610c7336611121565b91925192610c8084611187565b85845261036b838383611319565b83346102dd576101be610ca036611121565b91611319565b5050346102a157816003193601126102a1576020906008549051908152f35b509190346102a157806003193601126102a1578235926001600160401b039160243583811161079a57610cfb90369084016110f4565b92909160018060a01b0396610d15886007541633146112a1565b808752610d2e60209860028a52838920541615156112e0565b8652600b87528520938311610e345750610d488354611267565b601f8111610df1575b508394601f8311600114610d8e575093839482939492610d83575b50508160011b916000199060031b1c191617905580f35b013590503880610d6c565b90601f198316958486528286209286905b888210610dd957505083600195969710610dbf575b505050811b01905580f35b0135600019600384901b60f8161c19169055388080610db4565b80600184968294958701358155019501920190610d9f565b838552858520601f840160051c810191878510610e2a575b601f0160051c01905b818110610e1f5750610d51565b858155600101610e12565b9091508190610e09565b634e487b7160e01b855260419052602484fd5b5090346101c557806003193601126101c557610e616110c3565b91602435610e6e816118e4565b33151580610f10575b80610ee7575b610ed1576001600160a01b039485169482918691167f8c5be1e5ebec7d5bd14f71427d1e84f3dd0314c0f7b2291e5b200ac8c7c3b9258880a48452602052822080546001600160a01b031916909117905580f35b835163a9fbf51f60e01b81523381850152602490fd5b506001600160a01b03811686526005602090815284872033885290528386205460ff1615610e7d565b506001600160a01b038116331415610e77565b50346101c55760203660031901126101c557918260209335610f44816118e4565b50825283528190205490516001600160a01b039091168152f35b8284346102dd57806003193601126102dd5781519182828354610f8081611267565b9081845260209560019187600182169182600014610862575050600114610fb4575050506102d992916107f79103856111a2565b91908693508280527f290decd9548b62a8d60345a988386fc84ba6bc95484008f6362f93160ef3e5635b828410610ff757505050820101816107f76102d96107e4565b8054848a018601528895508794909301928101610fde565b925050346101c55760203660031901126101c5573563ffffffff60e01b81168091036101c557602092506380ac58cd60e01b811490811561106a575b8115611059575b5015158152f35b6301ffc9a760e01b14905038611052565b635b5e139f60e01b8114915061104b565b60005b83811061108e5750506000910152565b818101518382015260200161107e565b906020916110b78151809281855285808601910161107b565b601f01601f1916010190565b600435906001600160a01b03821682036110d957565b600080fd5b602435906001600160a01b03821682036110d957565b9181601f840112156110d9578235916001600160401b0383116110d957602083818601950101116110d957565b60609060031901126110d9576001600160a01b039060043582811681036110d9579160243590811681036110d9579060443590565b60e081019081106001600160401b0382111761117157604052565b634e487b7160e01b600052604160045260246000fd5b602081019081106001600160401b0382111761117157604052565b90601f801991011681019081106001600160401b0382111761117157604052565b60e09060231901126110d957604051906111dc82611156565b81602435815260443560ff811681036110d957602082015260643560ff811681036110d95760408201526084356001600160401b03811681036110d957606082015260a43580151581036110d957608082015260c43560a082015260e4359061ffff821682036110d95760c00152565b6001600160401b03811161117157601f01601f191660200190565b90600182811c92168015611297575b602083101461128157565b634e487b7160e01b600052602260045260246000fd5b91607f1691611276565b156112a857565b60405162461bcd60e51b815260206004820152601060248201526f6f6e6c79206d61726b6574706c61636560801b6044820152606490fd5b156112e757565b60405162461bcd60e51b815260206004820152600a6024820152696e6f742065786973747360b01b6044820152606490fd5b6001600160a01b0391821692909183156115065760009282845260209460028652604095868481882054169633151580611476575b5087151580611443575b84825260038452828220805460010190558782526002845282822080546001600160a01b0319168617905582519488908a7fddf252ad1be2c89b69c2b068fc378daa952ba7f163c4a11628f55a4df523b3ef8580a48061143b575b6113ec575b5050505016928383036113cb5750505050565b6064945051926364283d7b60e01b8452600484015260248301526044820152fd5b60098352206001015460501c60ff16156114075786816113b8565b62461bcd60e51b82526004820152601060248201526f6e6f74207472616e7366657261626c6560801b604482015260649150fd5b5060016113b3565b600088815260046020526040902080546001600160a01b0319169055888252600384528282208054600019019055611358565b909150806114c5575b1561148c5787903861134e565b8786886114a9576024915190637e27328960e01b82526004820152fd5b604491519063177e802f60e01b82523360048301526024820152fd5b5033871480156114ea575b8061147f575085815260048252338589832054161461147f565b5086815260058252878120338252825260ff88822054166114d0565b604051633250574960e11b815260006004820152602490fd5b600019811461152e5760010190565b634e487b7160e01b600052601160045260246000fd5b60008181526002602090815260408083205490939192906001600160a01b03161561188857818152600b8352838120845181549391818461158487611267565b9283835260019789898216918260001461186857505060011461182a575b506115af925003826111a2565b805161182157508451600a8054919484866115c985611267565b91828252898201958a85821691826000146118065750506001146117ab575b6115f4925003876111a2565b85511561179357849390817a184f03e93ff9f4daa797ed6e38ed64bf6a1f0100000000000000008181811015611785575b5050600a90896d04ee2d6d415b85acef810000000080831015611779575b5050662386f26fc100008082101561176c575b506305f5e1008082101561175f575b5061271080821015611752575b506064811015611744575b101561173b575b90816021866116ad838d99016116a561169c8261124c565b9a519a8b6111a2565b808a5261124c565b888c019990601f1901368b3750870101905b611705575b50505050906116f6611702959493926116e797519788955180928888019061107b565b8401915180938684019061107b565b010380845201826111a2565b90565b600019019083906f181899199a1a9b1b9c1cb0b131b232b360811b8282061a835304918215611736579190826116bf565b6116c4565b80940193611684565b60646002910496019561167d565b6004910496019538611672565b6008910496019538611665565b6010910496019538611656565b97019690048938611643565b8b9750049050600a38611625565b505050509291505051906117a682611187565b815290565b5050600a8652868887847fc65a7bb8d6351c1cf70c95a316cc6a92839c986682d98bc35f958f4883f9d2a85b8583106117ed5750506115f493508201016115e8565b80919294505483858d0101520191018990848a936117d7565b60ff191688526115f494151560051b84010191506115e89050565b94505050505090565b915050845281868086208787915b85831061184f5750506115af9350820101386115a2565b8091929450548385880101520191018790878593611838565b60ff1916858201526115af95151560051b85010192503891506115a29050565b835162461bcd60e51b815260048101849052602f60248201527f4552433732314d657461646174613a2055524920717565727920666f72206e6f60448201526e3732bc34b9ba32b73a103a37b5b2b760891b6064820152608490fd5b6000818152600260205260409020546001600160a01b0316908115611907575090565b60249060405190637e27328960e01b82526004820152fd5b6006546001600160a01b0316330361193357565b60405163118cdaa760e01b8152336004820152602490fd5b6040805161195881611187565b6000808252936001600160a01b03848116949092908515611bc5578287526020936002855285882054168015159081611b92575b878952600386528689206001815401905584895260028652868920886001600160601b0360a01b82541617905584888851927fddf252ad1be2c89b69c2b068fc378daa952ba7f163c4a11628f55a4df523b3ef8c80a48180611b8a575b611b40575b50611b28573b611a01575b505050505050565b82611a3f918596979894955180938192630a85bd0160e11b968784523360048501528c6024850152604484015260806064840152608483019061109e565b03818a8a5af1879181611ae4575b50611aad575050503d600014611aa4573d611a678161124c565b90611a74845192836111a2565b81528094823d92013e5b83519384611a9e578251633250574960e11b815260048101859052602490fd5b84925001fd5b60609350611a7e565b919550915063ffffffff60e01b1603611acd5750503880808080806119f9565b602492505190633250574960e11b82526004820152fd5b9091508481813d8311611b21575b611afc81836111a2565b81010312611b1d57516001600160e01b031981168103611b1d579038611a4d565b8780fd5b503d611af2565b84516339e3563760e11b815260048101889052602490fd5b6009865260ff6001888b20015460501c166119ee5762461bcd60e51b815260048101869052601060248201526f6e6f74207472616e7366657261626c6560801b6044820152606490fd5b5060016119e9565b600085815260046020526040902080546001600160a01b031916905580895260038652868920805460001901905561198c565b8451633250574960e11b815260048101889052602490fd5b90939192833b611bef575b5050505050565b604051630a85bd0160e11b8082526001600160a01b039384166004830152958316602482015260448101919091526080606482015294921692602092918590611c3c90608483019061109e565b039483816000978189895af1869181611ce7575b50611cb1575050503d600014611ca8573d611c6a8161124c565b90611c7860405192836111a2565b81528093823d92013e5b82519283611ca357604051633250574960e11b815260048101849052602490fd5b019050fd5b60609250611c82565b919450915063ffffffff60e01b1603611ccf57503880808080611be8565b60249060405190633250574960e11b82526004820152fd5b9091508481813d8311611d24575b611cff81836111a2565b81010312611d2057516001600160e01b031981168103611d20579038611c50565b8680fd5b503d611cf556fea26469706673582212205eb1a53bd08cf94efcc5a226a6663d836443b21eca9b093e3c9a1d40a9a2b14364736f6c63430008180033c3a99852514e5923cdffb2779c4b432ed502acf7b7ca78b2087a8c49d82bf6a7","opcodes":"PUSH1 0xA0 CALLVALUE PUSH3 0x264 JUMPI PUSH1 0x1F PUSH3 0x6274 CODESIZE DUP2 SWAP1 SUB SWAP2 DUP3 ADD PUSH1 0x1F NOT AND DUP4 ADD SWAP3 SWAP2 PUSH1 0x1 PUSH1 0x1 PUSH1 0x40 SHL SUB SWAP2 DUP3 DUP6 GT DUP5 DUP7 LT OR PUSH3 0x269 JUMPI DUP2 PUSH1 0x80 SWAP3 DUP6 SWAP3 PUSH1 0x40 SWAP8 DUP9 MSTORE DUP4 CODECOPY DUP2 ADD SUB SLT PUSH3 0x264 JUMPI DUP2 MLOAD PUSH3 0x57 PUSH1 0x20 DUP5 ADD PUSH3 0x27F JUMP JUMPDEST SWAP3 PUSH3 0x6A PUSH1 0x60 DUP7 DUP4 ADD MLOAD SWAP3 ADD PUSH3 0x27F JUMP JUMPDEST SWAP3 CALLER ISZERO PUSH3 0x24C JUMPI PUSH1 0x1 DUP1 PUSH1 0xA0 SHL SUB NOT SWAP2 DUP3 PUSH1 0x1 SLOAD AND PUSH1 0x1 SSTORE PUSH1 0x0 SWAP4 DUP5 SLOAD SWAP4 PUSH1 0x1 DUP1 PUSH1 0xA0 SHL SUB SWAP8 CALLER DUP3 DUP8 AND OR DUP8 SSTORE DUP10 MLOAD SWAP6 DUP10 CALLER SWAP2 AND PUSH32 0x8BE0079C531659141344CD1FD0A4F28419497F9722A3DAAFE3B4186F6B6457E0 DUP10 DUP1 LOG3 PUSH1 0x1 PUSH1 0x2 SSTORE PUSH1 0x4 SWAP6 PUSH1 0x1 DUP8 SSTORE PUSH2 0x2710 DUP5 GT PUSH3 0x23E JUMPI POP PUSH2 0x7D0 DUP4 GT PUSH3 0x22E JUMPI DUP9 AND SWAP2 DUP3 ISZERO PUSH3 0x21E JUMPI PUSH1 0x6 SSTORE PUSH1 0x7 SLOAD AND OR PUSH1 0x7 SSTORE PUSH1 0x9 SSTORE DUP6 MLOAD PUSH2 0x215C DUP1 DUP3 ADD SWAP1 DUP3 DUP3 LT DUP5 DUP4 GT OR PUSH3 0x20B JUMPI PUSH1 0x20 SWAP2 DUP4 SWAP2 PUSH3 0x40F8 DUP4 CODECOPY ADDRESS DUP2 MSTORE SUB ADD SWAP1 DUP5 CREATE DUP1 ISZERO PUSH3 0x1FD JUMPI DUP1 DUP7 SWAP2 PUSH1 0x80 MSTORE AND SWAP4 DUP5 EXTCODESIZE ISZERO PUSH3 0x207 JUMPI DUP6 PUSH1 0x24 DUP6 SWAP3 DUP4 DUP11 MLOAD SWAP9 DUP10 SWAP5 DUP6 SWAP4 PUSH4 0xF2FDE38B PUSH1 0xE0 SHL DUP6 MSTORE AND DUP9 DUP5 ADD MSTORE GAS CALL DUP1 ISZERO PUSH3 0x1FD JUMPI PUSH3 0x1C5 JUMPI JUMPDEST DUP6 PUSH1 0x0 DUP1 MLOAD PUSH1 0x20 PUSH3 0x6254 DUP4 CODECOPY DUP2 MLOAD SWAP2 MSTORE PUSH1 0x20 DUP8 PUSH1 0x80 MLOAD AND DUP4 MLOAD SWAP1 DUP2 MSTORE LOG1 MLOAD PUSH2 0x3E63 SWAP1 DUP2 PUSH3 0x295 DUP3 CODECOPY PUSH1 0x80 MLOAD DUP2 DUP2 DUP2 PUSH2 0x7A1 ADD MSTORE DUP2 DUP2 PUSH2 0x875 ADD MSTORE DUP2 DUP2 PUSH2 0xC56 ADD MSTORE DUP2 DUP2 PUSH2 0xF53 ADD MSTORE DUP2 DUP2 PUSH2 0x16F5 ADD MSTORE DUP2 DUP2 PUSH2 0x1977 ADD MSTORE PUSH2 0x2294 ADD MSTORE RETURN JUMPDEST DUP4 GT PUSH3 0x1EA JUMPI POP POP DUP3 MSTORE PUSH1 0x20 PUSH1 0x0 DUP1 MLOAD PUSH1 0x20 PUSH3 0x6254 DUP4 CODECOPY DUP2 MLOAD SWAP2 MSTORE CODESIZE DUP1 PUSH3 0x166 JUMP JUMPDEST PUSH4 0x4E487B71 PUSH1 0xE0 SHL DUP3 MSTORE PUSH1 0x41 SWAP1 MSTORE PUSH1 0x24 SWAP1 REVERT JUMPDEST DUP7 MLOAD RETURNDATASIZE DUP6 DUP3 RETURNDATACOPY RETURNDATASIZE SWAP1 REVERT JUMPDEST DUP4 DUP1 REVERT JUMPDEST PUSH4 0x4E487B71 PUSH1 0xE0 SHL DUP7 MSTORE PUSH1 0x41 DUP6 MSTORE PUSH1 0x24 DUP7 REVERT JUMPDEST DUP10 MLOAD PUSH4 0xD92E233D PUSH1 0xE0 SHL DUP2 MSTORE DUP7 SWAP1 REVERT JUMPDEST DUP10 MLOAD PUSH4 0xC1BD8845 PUSH1 0xE0 SHL DUP2 MSTORE DUP7 SWAP1 REVERT JUMPDEST PUSH4 0xC6CC5D7F PUSH1 0xE0 SHL DUP2 MSTORE DUP7 SWAP1 REVERT JUMPDEST DUP6 MLOAD PUSH4 0x1E4FBDF7 PUSH1 0xE0 SHL DUP2 MSTORE PUSH1 0x0 PUSH1 0x4 DUP3 ADD MSTORE PUSH1 0x24 SWAP1 REVERT JUMPDEST PUSH1 0x0 DUP1 REVERT JUMPDEST PUSH4 0x4E487B71 PUSH1 0xE0 SHL PUSH1 0x0 MSTORE PUSH1 0x41 PUSH1 0x4 MSTORE PUSH1 0x24 PUSH1 0x0 REVERT JUMPDEST MLOAD SWAP1 PUSH1 0x1 PUSH1 0x1 PUSH1 0xA0 SHL SUB DUP3 AND DUP3 SUB PUSH3 0x264 JUMPI JUMP INVALID PUSH1 0x80 PUSH1 0x40 MSTORE PUSH1 0x4 CALLDATASIZE LT ISZERO PUSH2 0x1B JUMPI JUMPDEST CALLDATASIZE ISZERO PUSH2 0x19 JUMPI PUSH1 0x0 DUP1 REVERT JUMPDEST STOP JUMPDEST PUSH1 0x0 DUP1 CALLDATALOAD PUSH1 0xE0 SHR DUP1 PUSH4 0x135ADCD EQ PUSH2 0x33A5 JUMPI DUP1 PUSH4 0x8C05903 EQ PUSH2 0x3350 JUMPI DUP1 PUSH4 0xD1CFCAE EQ PUSH2 0x3327 JUMPI DUP1 PUSH4 0x1ADE29CA EQ PUSH2 0x32FE JUMPI DUP1 PUSH4 0x1E141E8B EQ PUSH2 0x320A JUMPI DUP1 PUSH4 0x227DC4C4 EQ PUSH2 0x31EC JUMPI DUP1 PUSH4 0x235B3B94 EQ PUSH2 0x3182 JUMPI DUP1 PUSH4 0x23DA4F01 EQ PUSH2 0x313B JUMPI DUP1 PUSH4 0x23EA1F5F EQ PUSH2 0x1134 JUMPI DUP1 PUSH4 0x24A9D853 EQ PUSH2 0x311D JUMPI DUP1 PUSH4 0x28342ECF EQ PUSH2 0x30B3 JUMPI DUP1 PUSH4 0x2D88C211 EQ PUSH2 0x2BC6 JUMPI DUP1 PUSH4 0x3013CE29 EQ PUSH2 0x2B9D JUMPI DUP1 PUSH4 0x345C0F77 EQ PUSH2 0x23FA JUMPI DUP1 PUSH4 0x37C73865 EQ PUSH2 0x225E JUMPI DUP1 PUSH4 0x3D162CDC EQ PUSH2 0x21BB JUMPI DUP1 PUSH4 0x3F4BA83A EQ PUSH2 0x2150 JUMPI DUP1 PUSH4 0x46453F28 EQ PUSH2 0x20FE JUMPI DUP1 PUSH4 0x46904840 EQ PUSH2 0x20D5 JUMPI DUP1 PUSH4 0x47EAA7A2 EQ PUSH2 0x1AEB JUMPI DUP1 PUSH4 0x4B746CD1 EQ PUSH2 0x17F8 JUMPI DUP1 PUSH4 0x5BA1C1A9 EQ PUSH2 0x17DA JUMPI DUP1 PUSH4 0x5C975ABB EQ PUSH2 0x17B7 JUMPI DUP1 PUSH4 0x61B8CE8C EQ PUSH2 0x1799 JUMPI DUP1 PUSH4 0x636D5870 EQ PUSH2 0x16BC JUMPI DUP1 PUSH4 0x64AFF9EC EQ PUSH2 0x1672 JUMPI DUP1 PUSH4 0x6A030CA9 EQ PUSH2 0x155F JUMPI DUP1 PUSH4 0x6A326AB1 EQ PUSH2 0x14F5 JUMPI DUP1 PUSH4 0x6D361694 EQ PUSH2 0x12A6 JUMPI DUP1 PUSH4 0x6EA056A9 EQ PUSH2 0x1238 JUMPI DUP1 PUSH4 0x715018A6 EQ PUSH2 0x11D3 JUMPI DUP1 PUSH4 0x75BB91B2 EQ PUSH2 0x11B7 JUMPI DUP1 PUSH4 0x79BA5097 EQ PUSH2 0x1139 JUMPI DUP1 PUSH4 0x7D53DEFF EQ PUSH2 0x1134 JUMPI DUP1 PUSH4 0x81CD7439 EQ PUSH2 0x1117 JUMPI DUP1 PUSH4 0x8456CB59 EQ PUSH2 0x10BC JUMPI DUP1 PUSH4 0x88DAF7F4 EQ PUSH2 0xE0F JUMPI DUP1 PUSH4 0x8DA5CB5B EQ PUSH2 0xDE8 JUMPI DUP1 PUSH4 0x9CCEBCEC EQ PUSH2 0xD64 JUMPI DUP1 PUSH4 0xA249668A EQ PUSH2 0xD45 JUMPI DUP1 PUSH4 0xACB27C68 EQ PUSH2 0xD29 JUMPI DUP1 PUSH4 0xC384373A EQ PUSH2 0xD0B JUMPI DUP1 PUSH4 0xC3C2265F EQ PUSH2 0xC1D JUMPI DUP1 PUSH4 0xC7D24974 EQ PUSH2 0xBD9 JUMPI DUP1 PUSH4 0xC8AA67B3 EQ PUSH2 0xBBB JUMPI DUP1 PUSH4 0xD2D5EC4D EQ PUSH2 0xB6D JUMPI DUP1 PUSH4 0xD402E464 EQ PUSH2 0x81B JUMPI DUP1 PUSH4 0xD5B141E7 EQ PUSH2 0x7EC JUMPI DUP1 PUSH4 0xDA68D47D EQ PUSH2 0x78B JUMPI DUP1 PUSH4 0xDF99E534 EQ PUSH2 0x7D0 JUMPI DUP1 PUSH4 0xE0A3DD96 EQ PUSH2 0x78B JUMPI DUP1 PUSH4 0xE30C3978 EQ PUSH2 0x762 JUMPI DUP1 PUSH4 0xF09449BA EQ PUSH2 0x609 JUMPI DUP1 PUSH4 0xF2FDE38B EQ PUSH2 0x59C JUMPI DUP1 PUSH4 0xF5B96972 EQ PUSH2 0x57C JUMPI DUP1 PUSH4 0xF60EB4BF EQ PUSH2 0x3FC JUMPI DUP1 PUSH4 0xF932ECAC EQ PUSH2 0x2C4 JUMPI PUSH4 0xFD967F47 EQ PUSH2 0x2A5 JUMPI POP PUSH2 0xE JUMP JUMPDEST CALLVALUE PUSH2 0x2C1 JUMPI DUP1 PUSH1 0x3 NOT CALLDATASIZE ADD SLT PUSH2 0x2C1 JUMPI PUSH1 0x20 PUSH1 0x40 MLOAD PUSH2 0x2710 DUP2 MSTORE RETURN JUMPDEST DUP1 REVERT JUMPDEST POP CALLVALUE PUSH2 0x2C1 JUMPI PUSH1 0x40 CALLDATASIZE PUSH1 0x3 NOT ADD SLT PUSH2 0x2C1 JUMPI PUSH1 0x4 CALLDATALOAD PUSH2 0x2E1 PUSH2 0x3558 JUMP JUMPDEST PUSH2 0x2E9 PUSH2 0x39C1 JUMP JUMPDEST DUP2 DUP4 MSTORE PUSH1 0xA PUSH1 0x20 MSTORE PUSH1 0x40 DUP4 KECCAK256 DUP1 SLOAD PUSH1 0x1 PUSH1 0x1 PUSH1 0xA0 SHL SUB SWAP1 DUP2 AND CALLER SUB PUSH2 0x3EA JUMPI DUP1 DUP4 AND SWAP2 DUP3 ISZERO PUSH2 0x3D8 JUMPI PUSH2 0x31B DUP5 PUSH2 0x3B6D JUMP JUMPDEST PUSH3 0x15180 TIMESTAMP ADD SWAP3 DUP4 TIMESTAMP GT PUSH2 0x3C4 JUMPI SWAP2 PUSH1 0xC PUSH2 0x3BE SWAP3 PUSH32 0xE0AB772B3B6CDDB6293C9C400E007D0BD007F54E8A59244023FB3360B89172FF SWAP7 SWAP6 SWAP5 PUSH1 0x40 MLOAD SWAP1 PUSH2 0x361 DUP3 PUSH2 0x3611 JUMP JUMPDEST DUP2 MSTORE PUSH1 0x1 PUSH1 0x20 DUP3 ADD DUP8 DUP2 MSTORE DUP11 DUP13 MSTORE PUSH1 0xD PUSH1 0x20 MSTORE DUP6 PUSH1 0x40 DUP14 KECCAK256 SWAP4 MLOAD AND PUSH1 0x1 PUSH1 0x1 PUSH1 0x60 SHL SUB PUSH1 0xA0 SHL DUP5 SLOAD AND OR DUP4 SSTORE MLOAD SWAP2 ADD SSTORE ADD SLOAD AND SWAP2 PUSH1 0x40 MLOAD SWAP4 DUP5 SWAP4 DUP5 PUSH1 0x40 SWAP2 SWAP5 SWAP4 SWAP3 SWAP5 PUSH1 0x60 DUP3 ADD SWAP6 PUSH1 0x1 DUP1 PUSH1 0xA0 SHL SUB DUP1 SWAP3 AND DUP4 MSTORE AND PUSH1 0x20 DUP3 ADD MSTORE ADD MSTORE JUMP JUMPDEST SUB SWAP1 LOG2 DUP1 RETURN JUMPDEST PUSH4 0x4E487B71 PUSH1 0xE0 SHL DUP8 MSTORE PUSH1 0x11 PUSH1 0x4 MSTORE PUSH1 0x24 DUP8 REVERT JUMPDEST PUSH1 0x40 MLOAD PUSH4 0xD92E233D PUSH1 0xE0 SHL DUP2 MSTORE PUSH1 0x4 SWAP1 REVERT JUMPDEST PUSH1 0x40 MLOAD PUSH4 0x30CD7471 PUSH1 0xE0 SHL DUP2 MSTORE PUSH1 0x4 SWAP1 REVERT JUMPDEST POP CALLVALUE PUSH2 0x2C1 JUMPI PUSH1 0x60 CALLDATASIZE PUSH1 0x3 NOT ADD SLT PUSH2 0x2C1 JUMPI PUSH1 0x4 CALLDATALOAD PUSH1 0x24 CALLDATALOAD PUSH1 0x1 PUSH1 0x1 PUSH1 0x40 SHL SUB DUP2 GT PUSH2 0x578 JUMPI PUSH2 0x430 SWAP1 CALLDATASIZE SWAP1 PUSH1 0x4 ADD PUSH2 0x358A JUMP JUMPDEST SWAP2 PUSH1 0x44 CALLDATALOAD PUSH1 0x1 PUSH1 0x1 PUSH1 0xA0 SHL SUB DUP2 DUP2 AND SWAP4 SWAP2 DUP5 SWAP1 SUB PUSH2 0x54E JUMPI PUSH2 0x450 PUSH2 0x39C1 JUMP JUMPDEST DUP3 DUP7 MSTORE PUSH1 0xA PUSH1 0x20 MSTORE DUP1 PUSH1 0x40 DUP8 KECCAK256 SLOAD AND CALLER SUB PUSH2 0x3EA JUMPI PUSH1 0xF SLOAD AND DUP1 ISZERO PUSH2 0x566 JUMPI PUSH1 0x40 MLOAD SWAP3 PUSH4 0x173E79BB PUSH1 0xE0 SHL DUP5 MSTORE PUSH1 0x4 DUP5 ADD MSTORE PUSH1 0x20 DUP4 PUSH1 0x24 DUP2 DUP5 GAS STATICCALL SWAP3 DUP4 ISZERO PUSH2 0x55B JUMPI DUP7 SWAP4 PUSH2 0x522 JUMPI JUMPDEST POP DUP3 ISZERO PUSH2 0x510 JUMPI DUP6 SWAP5 DUP2 EXTCODESIZE ISZERO PUSH2 0x50C JUMPI DUP6 DUP1 SWAP5 PUSH2 0x4DA SWAP7 PUSH1 0x40 MLOAD SWAP8 DUP9 SWAP7 DUP8 SWAP6 DUP7 SWAP5 PUSH4 0x3BDA90A3 PUSH1 0xE0 SHL DUP7 MSTORE PUSH1 0x4 DUP7 ADD MSTORE PUSH1 0x60 PUSH1 0x24 DUP7 ADD MSTORE PUSH1 0x64 DUP6 ADD SWAP2 PUSH2 0x387C JUMP JUMPDEST SWAP1 PUSH1 0x44 DUP4 ADD MSTORE SUB SWAP3 GAS CALL DUP1 ISZERO PUSH2 0x501 JUMPI PUSH2 0x4F1 JUMPI POP RETURN JUMPDEST PUSH2 0x4FA SWAP1 PUSH2 0x3679 JUMP JUMPDEST PUSH2 0x2C1 JUMPI DUP1 RETURN JUMPDEST PUSH1 0x40 MLOAD RETURNDATASIZE DUP5 DUP3 RETURNDATACOPY RETURNDATASIZE SWAP1 REVERT JUMPDEST DUP6 DUP1 REVERT JUMPDEST PUSH1 0x40 MLOAD PUSH4 0xA9146EEB PUSH1 0xE0 SHL DUP2 MSTORE PUSH1 0x4 SWAP1 REVERT JUMPDEST SWAP1 SWAP3 POP PUSH1 0x20 DUP2 RETURNDATASIZE PUSH1 0x20 GT PUSH2 0x553 JUMPI JUMPDEST DUP2 PUSH2 0x53E PUSH1 0x20 SWAP4 DUP4 PUSH2 0x368C JUMP JUMPDEST DUP2 ADD SUB SLT PUSH2 0x54E JUMPI MLOAD SWAP2 CODESIZE PUSH2 0x499 JUMP JUMPDEST PUSH1 0x0 DUP1 REVERT JUMPDEST RETURNDATASIZE SWAP2 POP PUSH2 0x531 JUMP JUMPDEST PUSH1 0x40 MLOAD RETURNDATASIZE DUP9 DUP3 RETURNDATACOPY RETURNDATASIZE SWAP1 REVERT JUMPDEST PUSH1 0x40 MLOAD PUSH4 0x3C436073 PUSH1 0xE1 SHL DUP2 MSTORE PUSH1 0x4 SWAP1 REVERT JUMPDEST DUP3 DUP1 REVERT JUMPDEST POP CALLVALUE PUSH2 0x2C1 JUMPI DUP1 PUSH1 0x3 NOT CALLDATASIZE ADD SLT PUSH2 0x2C1 JUMPI PUSH1 0x20 PUSH1 0x40 MLOAD PUSH5 0xE8D4A51000 DUP2 MSTORE RETURN JUMPDEST POP CALLVALUE PUSH2 0x2C1 JUMPI PUSH1 0x20 CALLDATASIZE PUSH1 0x3 NOT ADD SLT PUSH2 0x2C1 JUMPI PUSH2 0x5B6 PUSH2 0x352B JUMP JUMPDEST PUSH2 0x5BE PUSH2 0x3AB2 JUMP JUMPDEST PUSH1 0x1 DUP1 SLOAD PUSH1 0x1 PUSH1 0x1 PUSH1 0xA0 SHL SUB NOT AND PUSH1 0x1 PUSH1 0x1 PUSH1 0xA0 SHL SUB SWAP3 DUP4 AND SWAP1 DUP2 OR SWAP1 SWAP2 SSTORE DUP3 SLOAD SWAP1 SWAP2 AND PUSH32 0x38D16B8CAC22D99FC7C124B9CD0DE2D3FA1FAEF420BFE791D8C362D765E22700 DUP4 DUP1 LOG3 DUP1 RETURN JUMPDEST POP CALLVALUE PUSH2 0x2C1 JUMPI PUSH1 0x40 CALLDATASIZE PUSH1 0x3 NOT ADD SLT PUSH2 0x2C1 JUMPI PUSH1 0x4 CALLDATALOAD PUSH1 0x24 CALLDATALOAD DUP1 ISZERO DUP1 ISZERO DUP1 SWAP3 SUB PUSH2 0x54E JUMPI PUSH2 0x634 PUSH2 0x39C1 JUMP JUMPDEST DUP3 DUP5 MSTORE PUSH1 0xA PUSH1 0x20 MSTORE PUSH1 0x40 DUP5 KECCAK256 DUP1 SLOAD PUSH1 0x1 PUSH1 0x1 PUSH1 0xA0 SHL SUB SWAP3 SWAP1 DUP4 AND CALLER DUP2 SUB PUSH2 0x3EA JUMPI DUP6 PUSH32 0xA417EE948A5C9D2786613A25B5C7344175C18EA547F629C63F7DE4CEAACB9098 PUSH1 0x20 PUSH1 0x5 DUP7 ADD SWAP8 DUP9 SLOAD SWAP9 PUSH1 0xFF DUP11 AND SWAP10 PUSH1 0xFF DUP4 AND SWAP1 PUSH1 0xFF NOT AND OR SWAP1 SSTORE PUSH1 0x40 MLOAD SWAP1 DUP2 MSTORE LOG3 ISZERO PUSH2 0x714 JUMPI SLOAD AND PUSH1 0x40 MLOAD SWAP3 PUSH1 0x0 DUP1 MLOAD PUSH1 0x20 PUSH2 0x3E0E DUP4 CODECOPY DUP2 MLOAD SWAP2 MSTORE DUP6 DUP1 LOG3 DUP1 PUSH2 0x709 JUMPI JUMPDEST PUSH2 0x6C6 JUMPI JUMPDEST POP JUMPDEST DUP1 RETURN JUMPDEST PUSH1 0x8 SLOAD PUSH1 0x0 NOT DUP2 ADD SWAP1 DUP2 GT PUSH2 0x6F5 JUMPI PUSH1 0x0 DUP1 MLOAD PUSH1 0x20 PUSH2 0x3DEE DUP4 CODECOPY DUP2 MLOAD SWAP2 MSTORE SWAP2 DUP2 PUSH1 0x20 SWAP3 PUSH1 0x8 SSTORE DUP2 MSTORE LOG1 CODESIZE PUSH2 0x6C1 JUMP JUMPDEST PUSH4 0x4E487B71 PUSH1 0xE0 SHL DUP4 MSTORE PUSH1 0x11 PUSH1 0x4 MSTORE PUSH1 0x24 DUP4 REVERT JUMPDEST POP PUSH1 0x8 SLOAD ISZERO ISZERO PUSH2 0x6BC JUMP JUMPDEST POP POP SWAP1 POP ISZERO PUSH2 0x720 JUMPI DUP1 RETURN JUMPDEST PUSH1 0x8 SLOAD PUSH1 0x1 DUP2 ADD DUP1 SWAP2 GT PUSH2 0x74E JUMPI PUSH1 0x20 DUP2 PUSH1 0x0 DUP1 MLOAD PUSH1 0x20 PUSH2 0x3DEE DUP4 CODECOPY DUP2 MLOAD SWAP2 MSTORE SWAP3 PUSH1 0x8 SSTORE PUSH1 0x40 MLOAD SWAP1 DUP2 MSTORE LOG1 DUP1 RETURN JUMPDEST PUSH4 0x4E487B71 PUSH1 0xE0 SHL DUP3 MSTORE PUSH1 0x11 PUSH1 0x4 MSTORE PUSH1 0x24 DUP3 REVERT JUMPDEST POP CALLVALUE PUSH2 0x2C1 JUMPI DUP1 PUSH1 0x3 NOT CALLDATASIZE ADD SLT PUSH2 0x2C1 JUMPI PUSH1 0x1 SLOAD PUSH1 0x40 MLOAD PUSH1 0x1 PUSH1 0x1 PUSH1 0xA0 SHL SUB SWAP1 SWAP2 AND DUP2 MSTORE PUSH1 0x20 SWAP1 RETURN JUMPDEST POP CALLVALUE PUSH2 0x2C1 JUMPI DUP1 PUSH1 0x3 NOT CALLDATASIZE ADD SLT PUSH2 0x2C1 JUMPI PUSH1 0x40 MLOAD PUSH32 0x0 PUSH1 0x1 PUSH1 0x1 PUSH1 0xA0 SHL SUB AND DUP2 MSTORE PUSH1 0x20 SWAP1 RETURN JUMPDEST POP CALLVALUE PUSH2 0x2C1 JUMPI DUP1 PUSH1 0x3 NOT CALLDATASIZE ADD SLT PUSH2 0x2C1 JUMPI PUSH1 0x20 PUSH1 0x40 MLOAD PUSH1 0x64 DUP2 MSTORE RETURN JUMPDEST POP CALLVALUE PUSH2 0x2C1 JUMPI PUSH1 0x20 CALLDATASIZE PUSH1 0x3 NOT ADD SLT PUSH2 0x2C1 JUMPI PUSH1 0xFF PUSH1 0x40 PUSH1 0x20 SWAP3 PUSH1 0x4 CALLDATALOAD DUP2 MSTORE PUSH1 0xC DUP5 MSTORE KECCAK256 SLOAD AND PUSH1 0x40 MLOAD SWAP1 ISZERO ISZERO DUP2 MSTORE RETURN JUMPDEST POP CALLVALUE PUSH2 0x2C1 JUMPI PUSH1 0x40 CALLDATASIZE PUSH1 0x3 NOT ADD SLT PUSH2 0x2C1 JUMPI PUSH1 0x4 CALLDATALOAD PUSH1 0x24 CALLDATALOAD SWAP1 PUSH2 0xFFFF DUP3 AND DUP1 SWAP3 SUB PUSH2 0x578 JUMPI PUSH2 0x848 PUSH2 0x39C1 JUMP JUMPDEST PUSH2 0x850 PUSH2 0x3AC6 JUMP JUMPDEST DUP2 ISZERO PUSH2 0xB5B JUMPI PUSH1 0x40 MLOAD PUSH4 0x596E8909 PUSH1 0xE1 SHL DUP2 MSTORE PUSH1 0x4 DUP2 ADD DUP3 SWAP1 MSTORE PUSH1 0x1 PUSH1 0x1 PUSH1 0xA0 SHL SUB SWAP3 PUSH32 0x0 DUP5 AND SWAP2 SWAP1 PUSH1 0xE0 DUP3 PUSH1 0x24 DUP2 DUP7 GAS STATICCALL SWAP2 DUP3 ISZERO PUSH2 0x55B JUMPI DUP7 SWAP3 PUSH2 0xB2A JUMPI JUMPDEST POP PUSH1 0x40 MLOAD PUSH4 0x31A9108F PUSH1 0xE1 SHL DUP2 MSTORE PUSH1 0x4 DUP2 ADD DUP6 SWAP1 MSTORE PUSH1 0x20 SWAP6 SWAP1 DUP7 DUP2 PUSH1 0x24 DUP2 DUP9 GAS STATICCALL SWAP1 DUP2 ISZERO PUSH2 0xB1F JUMPI DUP9 SWAP2 PUSH2 0xAF2 JUMPI JUMPDEST POP DUP2 CALLER SWAP2 AND SUB PUSH2 0x3EA JUMPI PUSH1 0x1 PUSH1 0xFF DUP8 DUP6 ADD MLOAD AND SUB PUSH2 0xAE0 JUMPI DUP5 DUP8 MSTORE PUSH1 0xC DUP7 MSTORE PUSH1 0xFF PUSH1 0x40 DUP9 KECCAK256 SLOAD AND PUSH2 0xACE JUMPI DUP3 MLOAD DUP8 MSTORE PUSH1 0xA DUP7 MSTORE PUSH1 0x40 DUP8 KECCAK256 SWAP2 PUSH1 0x6 SLOAD PUSH2 0x928 PUSH1 0x4 DUP6 ADD SLOAD DUP1 SWAP3 PUSH2 0x3B03 JUMP JUMPDEST PUSH1 0x7 DUP5 ADD SLOAD DUP1 ISZERO PUSH2 0xABC JUMPI DUP3 PUSH2 0x93D SWAP2 PUSH2 0x3958 JUMP JUMPDEST SWAP3 PUSH5 0xE8D4A51000 DUP5 GT PUSH2 0xAAA JUMPI PUSH2 0x961 SWAP2 DUP2 PUSH1 0x1 DUP8 ADD SLOAD AND CALLER SWAP3 DUP8 SLOAD AND SWAP2 DUP7 PUSH2 0x3BF1 JUMP JUMPDEST POP SWAP5 SWAP1 SWAP4 PUSH1 0x1 PUSH1 0x1 PUSH1 0x40 SHL SUB SWAP1 DUP2 PUSH1 0x60 DUP5 ADD MLOAD AND DUP5 TIMESTAMP DUP3 GT PUSH1 0x0 EQ PUSH2 0xA9A JUMPI PUSH1 0x8 PUSH2 0x98F SWAP3 SWAP4 JUMPDEST ADD SLOAD PUSH2 0x3958 JUMP JUMPDEST SWAP1 PUSH3 0x15180 SWAP2 DUP3 DUP2 MUL SWAP3 DUP2 DUP5 DIV EQ SWAP1 ISZERO OR ISZERO PUSH2 0xA86 JUMPI DUP3 SWAP2 DUP13 SWAP4 PUSH2 0x9B3 SWAP3 AND PUSH2 0x3829 JUMP JUMPDEST AND SWAP7 DUP1 EXTCODESIZE ISZERO PUSH2 0xA82 JUMPI DUP2 SWAP1 PUSH1 0x44 PUSH1 0x40 MLOAD DUP1 SWAP5 DUP2 SWAP4 PUSH4 0x3F97ADD5 PUSH1 0xE2 SHL DUP4 MSTORE DUP14 PUSH1 0x4 DUP5 ADD MSTORE DUP13 PUSH1 0x24 DUP5 ADD MSTORE GAS CALL DUP1 ISZERO PUSH2 0xA77 JUMPI PUSH2 0xA37 JUMPI JUMPDEST POP SWAP2 PUSH32 0xFFA941BDD74336ABC13129BA18AC9721BF531FF9F07161484DFB56F1F28DD5BE SWAP6 SWAP4 SWAP2 PUSH1 0xA0 SWAP6 SWAP4 MLOAD SWAP9 PUSH1 0x40 MLOAD SWAP6 DUP7 MSTORE DUP6 ADD MSTORE PUSH1 0x40 DUP5 ADD MSTORE PUSH1 0x60 DUP4 ADD MSTORE PUSH1 0x80 DUP3 ADD MSTORE LOG3 PUSH1 0x1 PUSH1 0x2 SSTORE DUP1 RETURN JUMPDEST SWAP2 PUSH1 0xA0 SWAP6 SWAP4 SWAP2 SWAP10 PUSH2 0xA6A PUSH32 0xFFA941BDD74336ABC13129BA18AC9721BF531FF9F07161484DFB56F1F28DD5BE SWAP9 SWAP7 SWAP5 PUSH2 0x3679 JUMP JUMPDEST SWAP10 SWAP2 SWAP4 SWAP6 POP SWAP2 SWAP4 SWAP6 PUSH2 0x9EA JUMP JUMPDEST PUSH1 0x40 MLOAD RETURNDATASIZE DUP13 DUP3 RETURNDATACOPY RETURNDATASIZE SWAP1 REVERT JUMPDEST POP DUP1 REVERT JUMPDEST PUSH4 0x4E487B71 PUSH1 0xE0 SHL DUP13 MSTORE PUSH1 0x11 PUSH1 0x4 MSTORE PUSH1 0x24 DUP13 REVERT JUMPDEST PUSH2 0x98F SWAP2 POP PUSH1 0x8 DUP5 TIMESTAMP AND SWAP4 PUSH2 0x988 JUMP JUMPDEST PUSH1 0x40 MLOAD PUSH4 0x127F08C9 PUSH1 0xE1 SHL DUP2 MSTORE PUSH1 0x4 SWAP1 REVERT JUMPDEST PUSH1 0x40 MLOAD PUSH4 0x1140CF7F PUSH1 0xE0 SHL DUP2 MSTORE PUSH1 0x4 SWAP1 REVERT JUMPDEST PUSH1 0x40 MLOAD PUSH4 0x38060845 PUSH1 0xE1 SHL DUP2 MSTORE PUSH1 0x4 SWAP1 REVERT JUMPDEST PUSH1 0x40 MLOAD PUSH4 0x2B79ED3 PUSH1 0xE4 SHL DUP2 MSTORE PUSH1 0x4 SWAP1 REVERT JUMPDEST PUSH2 0xB12 SWAP2 POP DUP8 RETURNDATASIZE DUP10 GT PUSH2 0xB18 JUMPI JUMPDEST PUSH2 0xB0A DUP2 DUP4 PUSH2 0x368C JUMP JUMPDEST DUP2 ADD SWAP1 PUSH2 0x3939 JUMP JUMPDEST CODESIZE PUSH2 0x8DE JUMP JUMPDEST POP RETURNDATASIZE PUSH2 0xB00 JUMP JUMPDEST PUSH1 0x40 MLOAD RETURNDATASIZE DUP11 DUP3 RETURNDATACOPY RETURNDATASIZE SWAP1 REVERT JUMPDEST PUSH2 0xB4D SWAP2 SWAP3 POP PUSH1 0xE0 RETURNDATASIZE PUSH1 0xE0 GT PUSH2 0xB54 JUMPI JUMPDEST PUSH2 0xB45 DUP2 DUP4 PUSH2 0x368C JUMP JUMPDEST DUP2 ADD SWAP1 PUSH2 0x38AB JUMP JUMPDEST SWAP1 CODESIZE PUSH2 0x8AF JUMP JUMPDEST POP RETURNDATASIZE PUSH2 0xB3B JUMP JUMPDEST PUSH1 0x40 MLOAD PUSH4 0x76166401 PUSH1 0xE0 SHL DUP2 MSTORE PUSH1 0x4 SWAP1 REVERT JUMPDEST POP CALLVALUE PUSH2 0x2C1 JUMPI PUSH1 0x20 CALLDATASIZE PUSH1 0x3 NOT ADD SLT PUSH2 0x2C1 JUMPI PUSH32 0x3A266FD63D408074525FACB4C91054DE12D4E7BF0CAD93604B63EF604F96E7FC PUSH1 0x20 PUSH1 0x4 CALLDATALOAD PUSH2 0xBAD PUSH2 0x3AB2 JUMP JUMPDEST DUP1 PUSH1 0x9 SSTORE PUSH1 0x40 MLOAD SWAP1 DUP2 MSTORE LOG1 DUP1 RETURN JUMPDEST POP CALLVALUE PUSH2 0x2C1 JUMPI DUP1 PUSH1 0x3 NOT CALLDATASIZE ADD SLT PUSH2 0x2C1 JUMPI PUSH1 0x20 PUSH1 0x8 SLOAD PUSH1 0x40 MLOAD SWAP1 DUP2 MSTORE RETURN JUMPDEST POP CALLVALUE PUSH2 0x2C1 JUMPI PUSH1 0x20 CALLDATASIZE PUSH1 0x3 NOT ADD SLT PUSH2 0x2C1 JUMPI PUSH1 0x4 CALLDATALOAD DUP2 MSTORE PUSH1 0xD PUSH1 0x20 SWAP1 DUP2 MSTORE PUSH1 0x40 SWAP2 DUP3 SWAP1 KECCAK256 DUP1 SLOAD PUSH1 0x1 SWAP1 SWAP2 ADD SLOAD DUP4 MLOAD PUSH1 0x1 PUSH1 0x1 PUSH1 0xA0 SHL SUB SWAP1 SWAP3 AND DUP3 MSTORE SWAP2 DUP2 ADD SWAP2 SWAP1 SWAP2 MSTORE RETURN JUMPDEST POP CALLVALUE PUSH2 0x2C1 JUMPI PUSH1 0x20 CALLDATASIZE PUSH1 0x3 NOT ADD SLT PUSH2 0x2C1 JUMPI PUSH1 0x40 MLOAD PUSH4 0x596E8909 PUSH1 0xE1 SHL DUP2 MSTORE PUSH1 0x4 DUP1 CALLDATALOAD SWAP1 DUP3 ADD DUP2 SWAP1 MSTORE PUSH1 0x1 PUSH1 0x1 PUSH1 0xA0 SHL SUB PUSH1 0xE0 DUP4 PUSH1 0x24 DUP2 PUSH32 0x0 DUP6 AND GAS STATICCALL SWAP3 DUP4 ISZERO PUSH2 0xD00 JUMPI DUP5 SWAP4 PUSH2 0xCDF JUMPI JUMPDEST POP DUP3 MLOAD DUP5 MSTORE PUSH1 0xA PUSH1 0x20 MSTORE PUSH1 0x40 DUP5 KECCAK256 SLOAD AND CALLER SUB PUSH2 0x3EA JUMPI DUP1 DUP4 MSTORE PUSH1 0xC PUSH1 0x20 MSTORE PUSH1 0x40 DUP4 KECCAK256 DUP1 SLOAD PUSH1 0xFF NOT AND PUSH1 0x1 OR SWAP1 SSTORE SWAP1 MLOAD CALLER SWAP2 PUSH32 0xA0FDFAE94A7F0D72D671FDDDAC883FFA712B07CFC84408BFB3CED264D1FC58F1 DUP5 DUP1 LOG4 DUP1 RETURN JUMPDEST PUSH2 0xCF9 SWAP2 SWAP4 POP PUSH1 0xE0 RETURNDATASIZE PUSH1 0xE0 GT PUSH2 0xB54 JUMPI PUSH2 0xB45 DUP2 DUP4 PUSH2 0x368C JUMP JUMPDEST SWAP2 CODESIZE PUSH2 0xC87 JUMP JUMPDEST PUSH1 0x40 MLOAD RETURNDATASIZE DUP7 DUP3 RETURNDATACOPY RETURNDATASIZE SWAP1 REVERT JUMPDEST POP CALLVALUE PUSH2 0x2C1 JUMPI DUP1 PUSH1 0x3 NOT CALLDATASIZE ADD SLT PUSH2 0x2C1 JUMPI PUSH1 0x20 PUSH1 0x5 SLOAD PUSH1 0x40 MLOAD SWAP1 DUP2 MSTORE RETURN JUMPDEST POP CALLVALUE PUSH2 0x2C1 JUMPI DUP1 PUSH1 0x3 NOT CALLDATASIZE ADD SLT PUSH2 0x2C1 JUMPI PUSH1 0x20 PUSH1 0x40 MLOAD PUSH1 0x2 DUP2 MSTORE RETURN JUMPDEST POP CALLVALUE PUSH2 0x2C1 JUMPI DUP1 PUSH1 0x3 NOT CALLDATASIZE ADD SLT PUSH2 0x2C1 JUMPI PUSH1 0x20 PUSH1 0x40 MLOAD PUSH4 0x3B9ACA00 DUP2 MSTORE RETURN JUMPDEST POP CALLVALUE PUSH2 0x2C1 JUMPI PUSH1 0x40 CALLDATASIZE PUSH1 0x3 NOT ADD SLT PUSH2 0x2C1 JUMPI PUSH1 0x24 CALLDATALOAD PUSH1 0x4 CALLDATALOAD PUSH2 0xD84 PUSH2 0x39C1 JUMP JUMPDEST DUP1 DUP4 MSTORE PUSH1 0xA PUSH1 0x20 MSTORE PUSH1 0x40 DUP4 KECCAK256 DUP1 SLOAD PUSH1 0x1 PUSH1 0x1 PUSH1 0xA0 SHL SUB AND CALLER SUB PUSH2 0x3EA JUMPI PUSH1 0xB SWAP1 PUSH2 0xDAD DUP5 PUSH2 0x3B28 JUMP JUMPDEST ADD SWAP2 DUP1 DUP4 SLOAD SWAP4 SSTORE PUSH1 0x40 MLOAD SWAP3 DUP4 MSTORE PUSH1 0x20 DUP4 ADD MSTORE PUSH32 0x6F410FDCE106B8B5C37FA32842357B3F2ECEA680083897D5490141B384E1BB01 PUSH1 0x40 CALLER SWAP4 LOG3 DUP1 RETURN JUMPDEST POP CALLVALUE PUSH2 0x2C1 JUMPI DUP1 PUSH1 0x3 NOT CALLDATASIZE ADD SLT PUSH2 0x2C1 JUMPI SLOAD PUSH1 0x40 MLOAD PUSH1 0x1 PUSH1 0x1 PUSH1 0xA0 SHL SUB SWAP1 SWAP2 AND DUP2 MSTORE PUSH1 0x20 SWAP1 RETURN JUMPDEST POP CALLVALUE PUSH2 0x2C1 JUMPI PUSH1 0x80 CALLDATASIZE PUSH1 0x3 NOT ADD SLT PUSH2 0x2C1 JUMPI PUSH2 0xE29 PUSH2 0x351B JUMP JUMPDEST PUSH2 0xE31 PUSH2 0x35B7 JUMP JUMPDEST SWAP1 PUSH2 0xE3A PUSH2 0x35C8 JUMP JUMPDEST PUSH2 0xE42 PUSH2 0x39C1 JUMP JUMPDEST PUSH2 0xE4A PUSH2 0x3AC6 JUMP JUMPDEST PUSH1 0x4 CALLDATALOAD DUP5 MSTORE PUSH1 0xA PUSH1 0x20 MSTORE PUSH1 0x40 DUP5 KECCAK256 SWAP1 PUSH1 0xFF PUSH1 0x5 DUP4 ADD SLOAD AND ISZERO PUSH2 0x10AA JUMPI PUSH1 0x6 SLOAD PUSH2 0xE78 PUSH1 0x4 DUP5 ADD SLOAD DUP1 SWAP3 PUSH2 0x3B03 JUMP JUMPDEST PUSH2 0xE96 PUSH1 0xFF PUSH1 0x9 DUP6 ADD SLOAD PUSH2 0xE8D DUP3 DUP3 AND PUSH2 0x39DF JUMP JUMPDEST PUSH1 0x8 SHR AND PUSH2 0x3A25 JUMP JUMPDEST PUSH2 0xEC3 PUSH2 0xEA4 DUP7 DUP7 DUP7 PUSH2 0x3BA4 JUMP JUMPDEST PUSH1 0x1 DUP6 ADD SLOAD DUP6 SLOAD SWAP2 SWAP4 CALLER SWAP3 PUSH1 0x1 PUSH1 0x1 PUSH1 0xA0 SHL SUB SWAP1 DUP2 AND SWAP3 AND SWAP1 DUP6 PUSH2 0x3BF1 JUMP JUMPDEST POP DUP8 SWAP7 PUSH1 0x1 PUSH1 0xFF DUP9 AND EQ PUSH2 0x1051 JUMPI JUMPDEST POP PUSH2 0xFFFF PUSH1 0x9 DUP7 ADD SLOAD PUSH1 0xA DUP8 ADD SLOAD PUSH1 0x40 MLOAD SWAP7 PUSH2 0xEED DUP9 PUSH2 0x3642 JUMP JUMPDEST PUSH1 0x4 CALLDATALOAD DUP9 MSTORE PUSH1 0xFF DUP11 AND PUSH1 0x20 DUP10 ADD MSTORE PUSH1 0xFF DUP4 AND PUSH1 0x40 DUP10 ADD MSTORE PUSH1 0x1 PUSH1 0x1 PUSH1 0x40 SHL SUB DUP12 AND PUSH1 0x60 DUP10 ADD MSTORE ISZERO ISZERO PUSH1 0x80 DUP9 ADD MSTORE PUSH1 0xA0 DUP8 ADD MSTORE PUSH1 0x10 SHR AND PUSH1 0xC0 DUP6 ADD MSTORE PUSH2 0xF49 PUSH1 0x40 MLOAD SWAP5 PUSH4 0x424D8DBF PUSH1 0xE1 SHL DUP7 MSTORE CALLER PUSH1 0x4 DUP8 ADD MSTORE PUSH1 0x24 DUP7 ADD SWAP1 PUSH2 0x396B JUMP JUMPDEST PUSH1 0x20 DUP5 PUSH2 0x104 DUP2 DUP12 PUSH32 0x0 PUSH1 0x1 PUSH1 0x1 PUSH1 0xA0 SHL SUB AND GAS CALL SWAP4 DUP5 ISZERO PUSH2 0xB1F JUMPI DUP9 SWAP5 PUSH2 0x1017 JUMPI JUMPDEST POP PUSH1 0x5 DUP5 SWAP1 SSTORE PUSH1 0x9 SWAP5 SWAP1 SWAP5 ADD SLOAD PUSH1 0x40 DUP1 MLOAD PUSH1 0xFF SWAP8 DUP9 AND DUP2 MSTORE SWAP7 DUP3 AND PUSH1 0x20 DUP9 ADD MSTORE PUSH1 0x1 PUSH1 0x1 PUSH1 0x40 SHL SUB SWAP1 SWAP8 AND SWAP7 DUP7 ADD SWAP7 SWAP1 SWAP7 MSTORE PUSH1 0x10 SWAP6 SWAP1 SWAP6 SHR PUSH2 0xFFFF AND PUSH1 0x60 DUP6 ADD MSTORE PUSH1 0x80 DUP5 ADD MSTORE PUSH1 0xA0 DUP4 ADD SWAP4 SWAP1 SWAP4 MSTORE PUSH1 0xC0 DUP3 ADD MSTORE CALLER SWAP2 PUSH1 0x4 CALLDATALOAD SWAP2 PUSH32 0x83A9EDC2809EED4960FD3CCB7DA06A85B3E878E6E1568E8CA281AE543ADCC493 SWAP1 DUP1 PUSH1 0xE0 DUP2 ADD JUMPDEST SUB SWAP1 LOG4 PUSH1 0x1 PUSH1 0x2 SSTORE DUP1 RETURN JUMPDEST SWAP1 SWAP4 POP PUSH1 0x20 DUP2 RETURNDATASIZE PUSH1 0x20 GT PUSH2 0x1049 JUMPI JUMPDEST DUP2 PUSH2 0x1033 PUSH1 0x20 SWAP4 DUP4 PUSH2 0x368C JUMP JUMPDEST DUP2 ADD SUB SLT PUSH2 0x1045 JUMPI MLOAD SWAP3 PUSH2 0x100C PUSH2 0xF8B JUMP JUMPDEST DUP8 DUP1 REVERT JUMPDEST RETURNDATASIZE SWAP2 POP PUSH2 0x1026 JUMP JUMPDEST PUSH2 0x1067 SWAP2 SWAP8 POP PUSH2 0xFFFF PUSH1 0x8 DUP8 ADD SLOAD SWAP2 AND SWAP1 PUSH2 0x3958 JUMP JUMPDEST PUSH3 0x15180 SWAP1 DUP2 DUP2 MUL SWAP2 DUP2 DUP4 DIV EQ SWAP1 ISZERO OR ISZERO PUSH2 0x1096 JUMPI PUSH2 0x108E PUSH1 0x1 PUSH1 0x1 PUSH1 0x40 SHL SUB SWAP2 TIMESTAMP PUSH2 0x3829 JUMP JUMPDEST AND SWAP6 CODESIZE PUSH2 0xED2 JUMP JUMPDEST PUSH4 0x4E487B71 PUSH1 0xE0 SHL DUP9 MSTORE PUSH1 0x11 PUSH1 0x4 MSTORE PUSH1 0x24 DUP9 REVERT JUMPDEST PUSH1 0x40 MLOAD PUSH4 0x665C1C57 PUSH1 0xE0 SHL DUP2 MSTORE PUSH1 0x4 SWAP1 REVERT JUMPDEST POP CALLVALUE PUSH2 0x2C1 JUMPI DUP1 PUSH1 0x3 NOT CALLDATASIZE ADD SLT PUSH2 0x2C1 JUMPI PUSH2 0x10D5 PUSH2 0x3AB2 JUMP JUMPDEST PUSH2 0x10DD PUSH2 0x39C1 JUMP JUMPDEST PUSH1 0x1 PUSH1 0xFF NOT PUSH1 0x3 SLOAD AND OR PUSH1 0x3 SSTORE PUSH32 0x62E78CEA01BEE320CD4E420270B5EA74000D11B0C9F74754EBDBFC544B05A258 PUSH1 0x20 PUSH1 0x40 MLOAD CALLER DUP2 MSTORE LOG1 DUP1 RETURN JUMPDEST POP CALLVALUE PUSH2 0x2C1 JUMPI DUP1 PUSH1 0x3 NOT CALLDATASIZE ADD SLT PUSH2 0x2C1 JUMPI PUSH1 0x20 PUSH1 0x40 MLOAD PUSH2 0x7D0 DUP2 MSTORE RETURN JUMPDEST PUSH2 0x356E JUMP JUMPDEST POP CALLVALUE PUSH2 0x2C1 JUMPI DUP1 PUSH1 0x3 NOT CALLDATASIZE ADD SLT PUSH2 0x2C1 JUMPI PUSH1 0x1 SLOAD PUSH1 0x1 PUSH1 0x1 PUSH1 0xA0 SHL SUB CALLER DUP2 DUP4 AND SUB PUSH2 0x119F JUMPI PUSH1 0x1 PUSH1 0x1 PUSH1 0xA0 SHL SUB NOT SWAP2 DUP3 AND PUSH1 0x1 SSTORE DUP3 SLOAD CALLER SWAP3 DUP2 AND DUP4 OR DUP5 SSTORE AND PUSH32 0x8BE0079C531659141344CD1FD0A4F28419497F9722A3DAAFE3B4186F6B6457E0 DUP4 DUP1 LOG3 DUP1 RETURN JUMPDEST PUSH1 0x40 MLOAD PUSH4 0x118CDAA7 PUSH1 0xE0 SHL DUP2 MSTORE CALLER PUSH1 0x4 DUP3 ADD MSTORE PUSH1 0x24 SWAP1 REVERT JUMPDEST POP CALLVALUE PUSH2 0x2C1 JUMPI DUP1 PUSH1 0x3 NOT CALLDATASIZE ADD SLT PUSH2 0x2C1 JUMPI PUSH1 0x20 SWAP1 PUSH1 0x40 MLOAD SWAP1 DUP2 MSTORE RETURN JUMPDEST POP CALLVALUE PUSH2 0x2C1 JUMPI DUP1 PUSH1 0x3 NOT CALLDATASIZE ADD SLT PUSH2 0x2C1 JUMPI PUSH2 0x11EC PUSH2 0x3AB2 JUMP JUMPDEST PUSH1 0x1 DUP1 SLOAD PUSH1 0x1 PUSH1 0x1 PUSH1 0xA0 SHL SUB NOT SWAP1 DUP2 AND SWAP1 SWAP2 SSTORE DUP2 SLOAD SWAP1 DUP2 AND DUP3 SSTORE DUP2 SWAP1 PUSH1 0x1 PUSH1 0x1 PUSH1 0xA0 SHL SUB AND PUSH32 0x8BE0079C531659141344CD1FD0A4F28419497F9722A3DAAFE3B4186F6B6457E0 DUP3 DUP1 LOG3 DUP1 RETURN JUMPDEST POP CALLVALUE PUSH2 0x2C1 JUMPI PUSH1 0x40 CALLDATASIZE PUSH1 0x3 NOT ADD SLT PUSH2 0x2C1 JUMPI PUSH2 0x1252 PUSH2 0x352B JUMP JUMPDEST PUSH1 0x24 CALLDATALOAD PUSH2 0x125D PUSH2 0x3AB2 JUMP JUMPDEST PUSH1 0x1 PUSH1 0x1 PUSH1 0xA0 SHL SUB DUP3 AND SWAP2 DUP3 ISZERO PUSH2 0x3D8 JUMPI DUP2 PUSH2 0x129C PUSH32 0x6E20AFAADAC1247355FA762FA54C781B1749ACD4853577725D30FF0ACF2D8ED0 SWAP4 PUSH1 0x20 SWAP4 PUSH2 0x3D03 JUMP JUMPDEST PUSH1 0x40 MLOAD SWAP1 DUP2 MSTORE LOG2 DUP1 RETURN JUMPDEST POP CALLVALUE PUSH2 0x2C1 JUMPI PUSH1 0x20 CALLDATASIZE PUSH1 0x3 NOT ADD SLT PUSH2 0x2C1 JUMPI DUP1 PUSH1 0x40 SWAP2 PUSH2 0x1C0 DUP4 MLOAD PUSH2 0x12CA DUP2 PUSH2 0x365D JUMP JUMPDEST DUP3 DUP2 MSTORE DUP3 PUSH1 0x20 DUP3 ADD MSTORE PUSH1 0x60 DUP6 DUP3 ADD MSTORE PUSH1 0x60 DUP1 DUP3 ADD MSTORE DUP3 PUSH1 0x80 DUP3 ADD MSTORE DUP3 PUSH1 0xA0 DUP3 ADD MSTORE DUP3 PUSH1 0xC0 DUP3 ADD MSTORE DUP3 PUSH1 0xE0 DUP3 ADD MSTORE DUP3 PUSH2 0x100 DUP3 ADD MSTORE DUP3 PUSH2 0x120 DUP3 ADD MSTORE DUP3 PUSH2 0x140 DUP3 ADD MSTORE DUP3 PUSH2 0x160 DUP3 ADD MSTORE DUP3 PUSH2 0x180 DUP3 ADD MSTORE DUP3 PUSH2 0x1A0 DUP3 ADD MSTORE ADD MSTORE PUSH1 0x4 CALLDATALOAD DUP2 MSTORE PUSH1 0xA PUSH1 0x20 MSTORE KECCAK256 PUSH1 0x40 MLOAD SWAP1 PUSH2 0x133B DUP3 PUSH2 0x365D JUMP JUMPDEST DUP1 SLOAD PUSH1 0x1 PUSH1 0x1 PUSH1 0xA0 SHL SUB SWAP1 DUP2 AND DUP4 MSTORE PUSH1 0x1 DUP3 ADD SLOAD AND PUSH1 0x20 DUP4 ADD MSTORE PUSH2 0x1361 PUSH1 0x2 DUP3 ADD PUSH2 0x36AD JUMP JUMPDEST PUSH1 0x40 DUP4 ADD MSTORE PUSH2 0x1372 PUSH1 0x3 DUP3 ADD PUSH2 0x36AD JUMP JUMPDEST PUSH1 0x60 DUP4 ADD MSTORE PUSH1 0x4 DUP2 ADD SLOAD PUSH1 0x80 DUP4 ADD MSTORE PUSH1 0xFF PUSH1 0x5 DUP3 ADD SLOAD AND ISZERO ISZERO PUSH1 0xA0 DUP4 ADD MSTORE PUSH1 0x6 DUP2 ADD SLOAD PUSH1 0xC0 DUP4 ADD MSTORE PUSH1 0x7 DUP2 ADD SLOAD PUSH1 0xE0 DUP4 ADD MSTORE PUSH1 0x8 DUP2 ADD SLOAD PUSH2 0x100 DUP4 ADD MSTORE PUSH2 0xFFFF PUSH1 0x9 DUP3 ADD SLOAD PUSH1 0xFF DUP2 AND PUSH2 0x120 DUP6 ADD MSTORE PUSH1 0xFF DUP2 PUSH1 0x8 SHR AND PUSH2 0x140 DUP6 ADD MSTORE PUSH1 0x10 SHR AND PUSH2 0x160 DUP4 ADD MSTORE PUSH1 0xA DUP2 ADD SLOAD PUSH2 0x180 DUP4 ADD MSTORE PUSH1 0xB DUP2 ADD SLOAD PUSH2 0x1A0 DUP4 ADD MSTORE PUSH1 0xC PUSH1 0x1 DUP1 PUSH1 0xA0 SHL SUB SWAP2 ADD SLOAD AND PUSH2 0x1C0 DUP3 ADD MSTORE PUSH1 0x40 MLOAD DUP1 SWAP2 PUSH1 0x20 DUP3 MSTORE PUSH1 0x1 DUP1 PUSH1 0xA0 SHL SUB DUP2 MLOAD AND PUSH1 0x20 DUP4 ADD MSTORE PUSH1 0x1 DUP1 PUSH1 0xA0 SHL SUB PUSH1 0x20 DUP3 ADD MLOAD AND PUSH1 0x40 DUP4 ADD MSTORE PUSH2 0x145F PUSH2 0x1449 PUSH1 0x40 DUP4 ADD MLOAD PUSH2 0x1E0 PUSH1 0x60 DUP7 ADD MSTORE PUSH2 0x200 DUP6 ADD SWAP1 PUSH2 0x3752 JUMP JUMPDEST PUSH1 0x60 DUP4 ADD MLOAD DUP5 DUP3 SUB PUSH1 0x1F NOT ADD PUSH1 0x80 DUP7 ADD MSTORE PUSH2 0x3752 JUMP JUMPDEST SWAP1 PUSH1 0x80 DUP2 ADD MLOAD PUSH1 0xA0 DUP5 ADD MSTORE PUSH1 0xA0 DUP2 ADD MLOAD ISZERO ISZERO PUSH1 0xC0 DUP5 ADD MSTORE PUSH1 0xC0 DUP2 ADD MLOAD PUSH1 0xE0 DUP5 ADD MSTORE PUSH1 0xE0 DUP2 ADD MLOAD PUSH2 0x100 DUP5 ADD MSTORE PUSH2 0x100 DUP2 ADD MLOAD PUSH2 0x120 DUP5 ADD MSTORE PUSH1 0xFF PUSH2 0x120 DUP3 ADD MLOAD AND PUSH2 0x140 DUP5 ADD MSTORE PUSH1 0xFF PUSH2 0x140 DUP3 ADD MLOAD AND PUSH2 0x160 DUP5 ADD MSTORE PUSH2 0xFFFF PUSH2 0x160 DUP3 ADD MLOAD AND PUSH2 0x180 DUP5 ADD MSTORE PUSH2 0x180 DUP2 ADD MLOAD PUSH2 0x1A0 DUP5 ADD MSTORE PUSH2 0x1A0 DUP2 ADD MLOAD PUSH2 0x1C0 DUP5 ADD MSTORE PUSH2 0x1C0 PUSH1 0x1 DUP1 PUSH1 0xA0 SHL SUB SWAP2 ADD MLOAD AND PUSH2 0x1E0 DUP4 ADD MSTORE SUB SWAP1 RETURN JUMPDEST POP CALLVALUE PUSH2 0x2C1 JUMPI PUSH1 0x20 CALLDATASIZE PUSH1 0x3 NOT ADD SLT PUSH2 0x2C1 JUMPI PUSH2 0x150F PUSH2 0x352B JUMP JUMPDEST PUSH2 0x1517 PUSH2 0x3AB2 JUMP JUMPDEST PUSH1 0x1 PUSH1 0x1 PUSH1 0xA0 SHL SUB AND DUP1 ISZERO PUSH2 0x3D8 JUMPI PUSH1 0x10 DUP1 SLOAD PUSH1 0x1 PUSH1 0x1 PUSH1 0xA0 SHL SUB NOT AND DUP3 OR SWAP1 SSTORE PUSH32 0xCB0AEFFE884EB88FB2A31A2F3E4BD1D2763BDEE48BA93B28C6E87501228CF743 DUP3 DUP1 LOG2 DUP1 RETURN JUMPDEST POP CALLVALUE PUSH2 0x2C1 JUMPI PUSH1 0x20 CALLDATASIZE PUSH1 0x3 NOT ADD SLT PUSH2 0x2C1 JUMPI PUSH1 0x4 CALLDATALOAD DUP2 MSTORE PUSH1 0xA PUSH1 0x20 MSTORE PUSH1 0x40 SWAP1 KECCAK256 DUP1 SLOAD PUSH1 0x1 DUP3 ADD SLOAD PUSH1 0x1 PUSH1 0x1 PUSH1 0xA0 SHL SUB SWAP1 DUP2 AND SWAP3 SWAP2 DUP2 AND SWAP2 PUSH2 0x15A2 PUSH1 0x2 DUP3 ADD PUSH2 0x36AD JUMP JUMPDEST SWAP1 PUSH2 0x15AF PUSH1 0x3 DUP3 ADD PUSH2 0x36AD JUMP JUMPDEST SWAP3 PUSH1 0x4 DUP3 ADD SLOAD SWAP4 PUSH1 0x5 DUP4 ADD SLOAD PUSH1 0xFF AND PUSH1 0x6 DUP5 ADD SLOAD PUSH1 0x7 DUP6 ADD SLOAD SWAP1 PUSH1 0x8 DUP7 ADD SLOAD SWAP3 PUSH1 0x9 DUP8 ADD SLOAD SWAP5 PUSH1 0xA DUP9 ADD SLOAD SWAP7 PUSH1 0xB DUP10 ADD SLOAD SWAP9 PUSH1 0xC ADD SLOAD AND SWAP9 PUSH1 0x40 MLOAD SWAP13 DUP14 SWAP13 DUP14 PUSH2 0x1E0 SWAP3 DUP4 SWAP3 DUP3 MSTORE PUSH1 0x20 DUP3 ADD MSTORE PUSH1 0x40 ADD MSTORE DUP13 ADD PUSH2 0x160A SWAP2 PUSH2 0x3752 JUMP JUMPDEST DUP12 DUP2 SUB PUSH1 0x60 DUP14 ADD MSTORE PUSH2 0x161B SWAP2 PUSH2 0x3752 JUMP JUMPDEST SWAP9 PUSH1 0x80 DUP12 ADD MSTORE ISZERO ISZERO PUSH1 0xA0 DUP11 ADD MSTORE PUSH1 0xC0 DUP10 ADD MSTORE PUSH1 0xE0 DUP9 ADD MSTORE PUSH2 0x100 DUP8 ADD MSTORE PUSH1 0xFF DUP2 AND PUSH2 0x120 DUP8 ADD MSTORE DUP1 PUSH1 0x8 SHR PUSH1 0xFF AND PUSH2 0x140 DUP8 ADD MSTORE PUSH1 0x10 SHR PUSH2 0xFFFF AND PUSH2 0x160 DUP7 ADD MSTORE PUSH2 0x180 DUP6 ADD MSTORE PUSH2 0x1A0 DUP5 ADD MSTORE PUSH2 0x1C0 DUP4 ADD MSTORE SUB SWAP1 RETURN JUMPDEST POP CALLVALUE PUSH2 0x2C1 JUMPI PUSH1 0x60 CALLDATASIZE PUSH1 0x3 NOT ADD SLT PUSH2 0x2C1 JUMPI PUSH2 0x168C PUSH2 0x352B JUMP JUMPDEST PUSH2 0x1694 PUSH2 0x3558 JUMP JUMPDEST SWAP1 PUSH2 0x169D PUSH2 0x3AB2 JUMP JUMPDEST PUSH1 0x1 PUSH1 0x1 PUSH1 0xA0 SHL SUB SWAP2 DUP1 DUP4 AND ISZERO PUSH2 0x3D8 JUMPI PUSH2 0x6C3 SWAP3 PUSH1 0x44 CALLDATALOAD SWAP3 AND PUSH2 0x3CC2 JUMP JUMPDEST POP CALLVALUE PUSH2 0x2C1 JUMPI PUSH1 0x20 CALLDATASIZE PUSH1 0x3 NOT ADD SLT PUSH2 0x2C1 JUMPI PUSH1 0x4 CALLDATALOAD PUSH2 0x16D9 PUSH2 0x3AB2 JUMP JUMPDEST PUSH1 0x40 MLOAD PUSH4 0x596E8909 PUSH1 0xE1 SHL DUP2 MSTORE PUSH1 0x4 DUP2 ADD DUP3 SWAP1 MSTORE PUSH1 0xE0 DUP2 PUSH1 0x24 DUP2 PUSH32 0x0 PUSH1 0x1 PUSH1 0x1 PUSH1 0xA0 SHL SUB AND GAS STATICCALL SWAP1 DUP2 ISZERO PUSH2 0x178E JUMPI DUP4 SWAP2 PUSH2 0x176F JUMPI JUMPDEST POP DUP2 DUP4 MSTORE PUSH1 0xC PUSH1 0x20 MSTORE PUSH1 0x40 DUP4 KECCAK256 DUP1 SLOAD PUSH1 0xFF NOT AND PUSH1 0x1 OR SWAP1 SSTORE MLOAD CALLER SWAP2 PUSH32 0xA0FDFAE94A7F0D72D671FDDDAC883FFA712B07CFC84408BFB3CED264D1FC58F1 DUP5 DUP1 LOG4 DUP1 RETURN JUMPDEST PUSH2 0x1788 SWAP2 POP PUSH1 0xE0 RETURNDATASIZE PUSH1 0xE0 GT PUSH2 0xB54 JUMPI PUSH2 0xB45 DUP2 DUP4 PUSH2 0x368C JUMP JUMPDEST CODESIZE PUSH2 0x172D JUMP JUMPDEST PUSH1 0x40 MLOAD RETURNDATASIZE DUP6 DUP3 RETURNDATACOPY RETURNDATASIZE SWAP1 REVERT JUMPDEST POP CALLVALUE PUSH2 0x2C1 JUMPI DUP1 PUSH1 0x3 NOT CALLDATASIZE ADD SLT PUSH2 0x2C1 JUMPI PUSH1 0x20 PUSH1 0x4 SLOAD PUSH1 0x40 MLOAD SWAP1 DUP2 MSTORE RETURN JUMPDEST POP CALLVALUE PUSH2 0x2C1 JUMPI DUP1 PUSH1 0x3 NOT CALLDATASIZE ADD SLT PUSH2 0x2C1 JUMPI PUSH1 0x20 PUSH1 0xFF PUSH1 0x3 SLOAD AND PUSH1 0x40 MLOAD SWAP1 ISZERO ISZERO DUP2 MSTORE RETURN JUMPDEST POP CALLVALUE PUSH2 0x2C1 JUMPI DUP1 PUSH1 0x3 NOT CALLDATASIZE ADD SLT PUSH2 0x2C1 JUMPI PUSH1 0x20 PUSH1 0x40 MLOAD PUSH3 0x15180 DUP2 MSTORE RETURN JUMPDEST POP CALLVALUE PUSH2 0x2C1 JUMPI PUSH1 0xA0 CALLDATASIZE PUSH1 0x3 NOT ADD SLT PUSH2 0x2C1 JUMPI PUSH2 0x1812 PUSH2 0x351B JUMP JUMPDEST PUSH2 0x181A PUSH2 0x35B7 JUMP JUMPDEST PUSH2 0x1822 PUSH2 0x35C8 JUMP JUMPDEST SWAP1 PUSH1 0x84 CALLDATALOAD PUSH1 0x1 PUSH1 0x1 PUSH1 0x40 SHL SUB DUP2 GT PUSH2 0x1AE7 JUMPI PUSH2 0x1842 SWAP1 CALLDATASIZE SWAP1 PUSH1 0x4 ADD PUSH2 0x358A JUMP JUMPDEST SWAP1 SWAP2 PUSH2 0x184C PUSH2 0x39C1 JUMP JUMPDEST PUSH2 0x1854 PUSH2 0x3AC6 JUMP JUMPDEST PUSH1 0x4 CALLDATALOAD DUP7 MSTORE PUSH1 0xA PUSH1 0x20 MSTORE PUSH1 0x40 DUP7 KECCAK256 SWAP1 PUSH1 0xFF PUSH1 0x5 DUP4 ADD SLOAD AND ISZERO PUSH2 0x10AA JUMPI DUP6 SWAP4 PUSH1 0x6 SLOAD SWAP3 PUSH2 0x1885 PUSH1 0x4 DUP3 ADD SLOAD DUP1 SWAP6 PUSH2 0x3B03 JUMP JUMPDEST PUSH2 0x189A PUSH1 0xFF PUSH1 0x9 DUP4 ADD SLOAD PUSH2 0xE8D DUP3 DUP3 AND PUSH2 0x39DF JUMP JUMPDEST PUSH2 0x18C7 PUSH2 0x18A8 DUP5 DUP9 DUP5 PUSH2 0x3BA4 JUMP JUMPDEST PUSH1 0x1 DUP4 ADD SLOAD DUP4 SLOAD SWAP2 SWAP7 CALLER SWAP3 PUSH1 0x1 PUSH1 0x1 PUSH1 0xA0 SHL SUB SWAP1 DUP2 AND SWAP3 AND SWAP1 DUP9 PUSH2 0x3BF1 JUMP JUMPDEST POP SWAP7 SWAP1 SWAP3 DUP11 SWAP5 PUSH1 0x1 PUSH1 0xFF DUP5 AND EQ PUSH2 0x1A80 JUMPI JUMPDEST POP PUSH1 0x20 SWAP2 PUSH2 0x1972 PUSH2 0x195E SWAP3 PUSH1 0x9 DUP7 ADD SLOAD SWAP12 PUSH1 0xA DUP8 ADD SLOAD SWAP13 PUSH2 0xFFFF SWAP14 DUP15 SWAP3 PUSH1 0xFF PUSH1 0x40 MLOAD SWAP8 PUSH2 0x1905 DUP10 PUSH2 0x3642 JUMP JUMPDEST PUSH1 0x4 CALLDATALOAD DUP10 MSTORE AND DUP10 DUP9 ADD MSTORE PUSH1 0xFF DUP4 AND PUSH1 0x40 DUP9 ADD MSTORE PUSH1 0x1 PUSH1 0x1 PUSH1 0x40 SHL SUB DUP13 AND PUSH1 0x60 DUP9 ADD MSTORE ISZERO ISZERO PUSH1 0x80 DUP8 ADD MSTORE PUSH1 0xA0 DUP7 ADD MSTORE PUSH1 0x10 SHR AND PUSH1 0xC0 DUP5 ADD MSTORE PUSH1 0x40 MLOAD SWAP10 DUP11 SWAP5 DUP6 SWAP5 PUSH4 0xB03FBFBB PUSH1 0xE0 SHL DUP7 MSTORE CALLER PUSH1 0x4 DUP8 ADD MSTORE PUSH1 0x24 DUP7 ADD SWAP1 PUSH2 0x396B JUMP JUMPDEST PUSH2 0x120 PUSH2 0x104 DUP6 ADD MSTORE PUSH2 0x124 DUP5 ADD SWAP2 PUSH2 0x387C JUMP JUMPDEST SUB DUP2 DUP13 PUSH32 0x0 PUSH1 0x1 PUSH1 0x1 PUSH1 0xA0 SHL SUB AND GAS CALL SWAP5 DUP6 ISZERO PUSH2 0x1A75 JUMPI DUP10 SWAP6 PUSH2 0x1A35 JUMPI JUMPDEST POP PUSH1 0x5 DUP6 SWAP1 SSTORE PUSH1 0x9 ADD SLOAD PUSH1 0x40 DUP1 MLOAD PUSH1 0xFF SWAP10 DUP11 AND DUP2 MSTORE SWAP9 DUP3 AND PUSH1 0x20 DUP11 ADD MSTORE PUSH1 0x1 PUSH1 0x1 PUSH1 0x40 SHL SUB SWAP1 SWAP4 AND SWAP3 DUP9 ADD SWAP3 SWAP1 SWAP3 MSTORE PUSH2 0xFFFF PUSH1 0x10 SWAP3 SWAP1 SWAP3 SHR SWAP1 SWAP6 AND AND PUSH1 0x60 DUP7 ADD MSTORE PUSH1 0x80 DUP6 ADD MSTORE PUSH1 0xA0 DUP5 ADD SWAP3 SWAP1 SWAP3 MSTORE PUSH1 0xC0 DUP4 ADD MSTORE CALLER SWAP2 PUSH1 0x4 CALLDATALOAD SWAP2 SWAP1 PUSH32 0x83A9EDC2809EED4960FD3CCB7DA06A85B3E878E6E1568E8CA281AE543ADCC493 SWAP1 DUP1 PUSH1 0xE0 DUP2 ADD PUSH2 0x100C JUMP JUMPDEST SWAP2 SWAP5 POP SWAP5 PUSH1 0x20 DUP3 RETURNDATASIZE PUSH1 0x20 GT PUSH2 0x1A6D JUMPI JUMPDEST DUP2 PUSH2 0x1A52 PUSH1 0x20 SWAP4 DUP4 PUSH2 0x368C JUMP JUMPDEST DUP2 ADD SUB SLT PUSH2 0x1A69 JUMPI SWAP1 MLOAD SWAP1 SWAP5 SWAP1 SWAP4 SWAP1 PUSH2 0x100C PUSH2 0x19AF JUMP JUMPDEST DUP9 DUP1 REVERT JUMPDEST RETURNDATASIZE SWAP2 POP PUSH2 0x1A45 JUMP JUMPDEST PUSH1 0x40 MLOAD RETURNDATASIZE DUP12 DUP3 RETURNDATACOPY RETURNDATASIZE SWAP1 REVERT JUMPDEST PUSH1 0x8 DUP5 ADD SLOAD SWAP2 SWAP6 POP PUSH2 0x1A97 SWAP3 POP PUSH2 0xFFFF AND SWAP1 PUSH2 0x3958 JUMP JUMPDEST PUSH3 0x15180 SWAP1 DUP1 DUP3 DUP2 MUL DIV DUP3 EQ DUP2 ISZERO OR ISZERO PUSH2 0x1AD3 JUMPI DUP10 PUSH2 0x1972 PUSH1 0x1 PUSH1 0x1 PUSH1 0x40 SHL SUB PUSH2 0x1AC8 PUSH1 0x20 SWAP6 PUSH2 0x195E SWAP6 MUL TIMESTAMP PUSH2 0x3829 JUMP JUMPDEST AND SWAP7 SWAP3 POP POP SWAP2 PUSH2 0x18D9 JUMP JUMPDEST PUSH4 0x4E487B71 PUSH1 0xE0 SHL DUP12 MSTORE PUSH1 0x11 PUSH1 0x4 MSTORE PUSH1 0x24 DUP12 REVERT JUMPDEST DUP5 DUP1 REVERT JUMPDEST POP CALLVALUE PUSH2 0x2C1 JUMPI PUSH2 0x180 CALLDATASIZE PUSH1 0x3 NOT ADD SLT PUSH2 0x2C1 JUMPI PUSH1 0x4 CALLDATALOAD PUSH1 0x1 PUSH1 0x1 PUSH1 0x40 SHL SUB DUP2 GT PUSH2 0xA82 JUMPI PUSH2 0x1B1D SWAP1 CALLDATASIZE SWAP1 PUSH1 0x4 ADD PUSH2 0x358A JUMP JUMPDEST SWAP1 PUSH1 0x24 CALLDATALOAD PUSH1 0x1 PUSH1 0x1 PUSH1 0x40 SHL SUB DUP2 GT PUSH2 0x20D1 JUMPI PUSH2 0x1B3D SWAP1 CALLDATASIZE SWAP1 PUSH1 0x4 ADD PUSH2 0x358A JUMP JUMPDEST SWAP3 SWAP1 PUSH1 0x44 CALLDATALOAD PUSH1 0x1 PUSH1 0x1 PUSH1 0x40 SHL SUB DUP2 GT PUSH2 0x50C JUMPI PUSH2 0x1B5E SWAP1 CALLDATASIZE SWAP1 PUSH1 0x4 ADD PUSH2 0x358A JUMP JUMPDEST SWAP3 SWAP1 SWAP4 PUSH2 0x1B69 PUSH2 0x34FA JUMP JUMPDEST SWAP4 PUSH2 0x1BDF PUSH2 0x1B75 PUSH2 0x350A JUMP JUMPDEST SWAP3 PUSH2 0x1B7E PUSH2 0x3541 JUMP JUMPDEST SWAP5 PUSH2 0x1B87 PUSH2 0x39C1 JUMP JUMPDEST PUSH2 0x1B92 PUSH1 0x64 CALLDATALOAD PUSH2 0x3AE7 JUMP JUMPDEST PUSH2 0x1BA0 PUSH1 0x64 CALLDATALOAD PUSH1 0x6 SLOAD PUSH2 0x3B03 JUMP JUMPDEST PUSH2 0x1BA9 DUP9 PUSH2 0x39DF JUMP JUMPDEST PUSH2 0x1BB2 DUP6 PUSH2 0x3A25 JUMP JUMPDEST PUSH2 0x1BC3 PUSH1 0xC4 CALLDATALOAD PUSH1 0xA4 CALLDATALOAD PUSH1 0x84 CALLDATALOAD PUSH2 0x3A6B JUMP JUMPDEST PUSH2 0x1BCF PUSH2 0x144 CALLDATALOAD PUSH2 0x3B28 JUMP JUMPDEST PUSH2 0x1BD8 DUP7 PUSH2 0x3B6D JUMP JUMPDEST CALLDATASIZE SWAP2 PUSH2 0x37D6 JUMP JUMPDEST PUSH1 0x20 DUP2 MLOAD SWAP2 ADD KECCAK256 CALLER DUP10 MSTORE PUSH1 0xB PUSH1 0x20 MSTORE PUSH1 0x40 DUP10 KECCAK256 SWAP1 DUP10 MSTORE PUSH1 0x20 MSTORE PUSH1 0x40 DUP9 KECCAK256 SWAP6 PUSH2 0xFFFF DUP1 PUSH1 0x1 DUP10 ADD SLOAD AND EQ PUSH2 0x510 JUMPI DUP7 SLOAD DUP1 PUSH2 0x2044 JUMPI JUMPDEST POP PUSH1 0x9 SLOAD DUP1 ISZERO ISZERO SWAP1 DUP2 PUSH2 0x2037 JUMPI JUMPDEST POP PUSH2 0x2025 JUMPI PUSH1 0x4 SLOAD SWAP8 PUSH2 0x1C34 DUP10 PUSH2 0x381A JUMP JUMPDEST PUSH1 0x4 SSTORE DUP9 DUP11 MSTORE PUSH1 0xA PUSH1 0x20 MSTORE PUSH1 0x40 DUP11 KECCAK256 SWAP6 CALLER PUSH1 0x1 PUSH1 0x1 PUSH1 0x60 SHL SUB PUSH1 0xA0 SHL DUP9 SLOAD AND OR DUP8 SSTORE PUSH1 0x1 DUP8 ADD CALLER PUSH1 0x1 PUSH1 0x1 PUSH1 0x60 SHL SUB PUSH1 0xA0 SHL DUP3 SLOAD AND OR SWAP1 SSTORE PUSH1 0x1 PUSH1 0x1 PUSH1 0x40 SHL SUB DUP3 GT PUSH2 0x2011 JUMPI DUP2 SWAP1 PUSH2 0x1C89 PUSH1 0x2 DUP10 ADD SLOAD PUSH2 0x35D7 JUMP JUMPDEST PUSH1 0x1F DUP2 GT PUSH2 0x1FBF JUMPI JUMPDEST POP DUP12 SWAP1 PUSH1 0x1F DUP4 GT PUSH1 0x1 EQ PUSH2 0x1F53 JUMPI DUP13 SWAP3 PUSH2 0x1F48 JUMPI JUMPDEST POP POP DUP2 PUSH1 0x1 SHL SWAP2 PUSH1 0x0 NOT SWAP1 PUSH1 0x3 SHL SHR NOT AND OR PUSH1 0x2 DUP7 ADD SSTORE JUMPDEST PUSH1 0x1 PUSH1 0x1 PUSH1 0x40 SHL SUB DUP3 GT PUSH2 0x1F34 JUMPI PUSH2 0x1CDA PUSH1 0x3 DUP7 ADD SLOAD PUSH2 0x35D7 JUMP JUMPDEST PUSH1 0x1F DUP2 GT PUSH2 0x1EF0 JUMPI JUMPDEST POP DUP9 SWAP1 PUSH1 0x1F DUP4 GT PUSH1 0x1 EQ PUSH2 0x1E77 JUMPI SWAP3 DUP3 PUSH1 0x1 SWAP8 SWAP6 SWAP4 PUSH2 0x1D72 SWAP4 PUSH2 0xFFFF SWAP9 SWAP7 DUP14 SWAP3 PUSH2 0x1E6C JUMPI JUMPDEST POP POP DUP2 DUP10 SHL SWAP2 PUSH1 0x0 NOT SWAP1 PUSH1 0x3 SHL SHR NOT AND OR PUSH1 0x3 DUP6 ADD SSTORE JUMPDEST PUSH1 0x64 CALLDATALOAD PUSH1 0x4 DUP6 ADD SSTORE PUSH1 0x5 DUP5 ADD DUP1 SLOAD PUSH1 0xFF NOT AND DUP9 OR SWAP1 SSTORE PUSH1 0x84 CALLDATALOAD PUSH1 0x6 DUP6 ADD SSTORE PUSH1 0xA4 CALLDATALOAD PUSH1 0x7 DUP6 ADD SSTORE PUSH1 0xC4 CALLDATALOAD PUSH1 0x8 DUP1 DUP7 ADD SWAP2 SWAP1 SWAP2 SSTORE PUSH1 0x9 DUP6 ADD DUP1 SLOAD PUSH2 0xFFFF NOT AND PUSH1 0xFF SWAP8 SWAP1 SWAP8 AND SWAP7 SWAP1 SWAP7 OR SWAP2 SWAP1 SHL PUSH2 0xFF00 AND OR DUP5 SSTORE JUMP JUMPDEST PUSH2 0x124 CALLDATALOAD PUSH1 0xA DUP4 ADD SSTORE PUSH2 0x144 CALLDATALOAD PUSH1 0xB DUP4 ADD SSTORE PUSH1 0xA0 DUP6 SWAP1 SHL DUP6 SWAP1 SUB SWAP1 DUP1 DUP3 AND ISZERO PUSH2 0x1E62 JUMPI PUSH1 0xC SWAP1 SWAP3 JUMPDEST ADD DUP1 SLOAD PUSH1 0x1 PUSH1 0x1 PUSH1 0xA0 SHL SUB NOT AND SWAP2 SWAP1 SWAP3 AND OR SWAP1 SSTORE DUP4 SLOAD ISZERO PUSH2 0x1E45 JUMPI PUSH2 0x1DE0 PUSH2 0x1DC6 DUP4 DUP6 DUP8 ADD SLOAD AND PUSH2 0x3792 JUMP JUMPDEST DUP3 SLOAD PUSH4 0xFFFF0000 NOT AND PUSH1 0x10 DUP3 SWAP1 SHL PUSH4 0xFFFF0000 AND OR SWAP1 SWAP3 SSTORE JUMP JUMPDEST DUP5 DUP5 SSTORE AND PUSH2 0xFFFF NOT DUP3 DUP5 ADD SLOAD AND OR SWAP2 ADD SSTORE PUSH1 0x8 SLOAD PUSH1 0x1 DUP2 ADD DUP1 SWAP2 GT PUSH2 0x6F5 JUMPI PUSH1 0x20 DUP2 PUSH1 0x0 DUP1 MLOAD PUSH1 0x20 PUSH2 0x3DEE DUP4 CODECOPY DUP2 MLOAD SWAP2 MSTORE SWAP3 PUSH1 0x8 SSTORE PUSH1 0x40 MLOAD SWAP1 DUP2 MSTORE LOG1 CALLER SWAP1 PUSH32 0xDA0A1595D5F9A5872904CA8ECEB17D6BEFC55070D4FD387E4C2F1D4553DD01A DUP4 DUP1 LOG3 DUP1 RETURN JUMPDEST DUP1 SLOAD PUSH4 0xFFFF0000 NOT AND PUSH1 0x10 DUP5 SWAP1 SHL PUSH4 0xFFFF0000 AND OR SWAP1 SSTORE DUP2 PUSH2 0x1DE0 JUMP JUMPDEST POP PUSH1 0xC CALLER SWAP3 PUSH2 0x1D9A JUMP JUMPDEST ADD CALLDATALOAD SWAP1 POP CODESIZE DUP1 PUSH2 0x1D08 JUMP JUMPDEST PUSH1 0x3 DUP7 ADD DUP11 MSTORE PUSH1 0x20 DUP11 KECCAK256 SWAP2 DUP11 JUMPDEST PUSH1 0x1F NOT DUP6 AND DUP2 LT PUSH2 0x1ED8 JUMPI POP DUP4 PUSH2 0x1D72 SWAP4 PUSH2 0xFFFF SWAP9 SWAP7 SWAP4 PUSH1 0x1 SWAP11 SWAP9 SWAP7 SWAP4 DUP12 SWAP5 PUSH1 0x1F NOT DUP2 AND LT PUSH2 0x1EBE JUMPI JUMPDEST POP POP POP DUP2 SHL ADD PUSH1 0x3 DUP6 ADD SSTORE PUSH2 0x1D1F JUMP JUMPDEST ADD CALLDATALOAD PUSH1 0x0 NOT PUSH1 0x3 DUP5 SWAP1 SHL PUSH1 0xF8 AND SHR NOT AND SWAP1 SSTORE CODESIZE DUP1 DUP1 PUSH2 0x1EAE JUMP JUMPDEST SWAP1 SWAP3 PUSH1 0x20 PUSH1 0x1 DUP2 SWAP3 DUP7 DUP7 ADD CALLDATALOAD DUP2 SSTORE ADD SWAP5 ADD SWAP2 ADD PUSH2 0x1E84 JUMP JUMPDEST PUSH1 0x3 DUP7 ADD DUP11 MSTORE PUSH1 0x20 DUP11 KECCAK256 PUSH1 0x1F DUP5 ADD PUSH1 0x5 SHR DUP2 ADD PUSH1 0x20 DUP6 LT PUSH2 0x1F2D JUMPI JUMPDEST PUSH1 0x1F DUP4 ADD PUSH1 0x5 SHR DUP3 ADD DUP2 LT PUSH2 0x1F22 JUMPI POP POP PUSH2 0x1CE3 JUMP JUMPDEST DUP12 DUP2 SSTORE PUSH1 0x1 ADD PUSH2 0x1F0C JUMP JUMPDEST POP DUP1 PUSH2 0x1F0C JUMP JUMPDEST PUSH4 0x4E487B71 PUSH1 0xE0 SHL DUP10 MSTORE PUSH1 0x41 PUSH1 0x4 MSTORE PUSH1 0x24 DUP10 REVERT JUMPDEST ADD CALLDATALOAD SWAP1 POP CODESIZE DUP1 PUSH2 0x1CA7 JUMP JUMPDEST PUSH1 0x2 DUP10 ADD DUP14 MSTORE PUSH1 0x20 DUP14 KECCAK256 DUP14 SWAP5 POP SWAP2 JUMPDEST PUSH1 0x1F NOT DUP5 AND DUP6 LT PUSH2 0x1FA7 JUMPI PUSH1 0x1 SWAP5 POP DUP4 PUSH1 0x1F NOT DUP2 AND LT PUSH2 0x1F8D JUMPI JUMPDEST POP POP POP DUP2 SHL ADD PUSH1 0x2 DUP7 ADD SSTORE PUSH2 0x1CBF JUMP JUMPDEST ADD CALLDATALOAD PUSH1 0x0 NOT PUSH1 0x3 DUP5 SWAP1 SHL PUSH1 0xF8 AND SHR NOT AND SWAP1 SSTORE CODESIZE DUP1 DUP1 PUSH2 0x1F7D JUMP JUMPDEST DUP2 DUP2 ADD CALLDATALOAD DUP4 SSTORE PUSH1 0x20 SWAP5 DUP6 ADD SWAP5 PUSH1 0x1 SWAP1 SWAP4 ADD SWAP3 ADD PUSH2 0x1F62 JUMP JUMPDEST SWAP1 SWAP2 POP PUSH1 0x2 DUP9 ADD DUP13 MSTORE PUSH1 0x20 DUP13 KECCAK256 PUSH1 0x1F DUP5 ADD PUSH1 0x5 SHR DUP2 ADD PUSH1 0x20 DUP6 LT PUSH2 0x200A JUMPI JUMPDEST DUP5 SWAP4 SWAP3 SWAP2 SWAP1 DUP15 JUMPDEST PUSH1 0x1F DUP5 ADD PUSH1 0x5 SHR DUP4 ADD DUP3 LT PUSH2 0x1FFC JUMPI POP POP POP PUSH2 0x1C92 JUMP JUMPDEST DUP2 SSTORE DUP6 SWAP5 POP PUSH1 0x1 ADD DUP15 PUSH2 0x1FE5 JUMP JUMPDEST POP DUP1 PUSH2 0x1FDE JUMP JUMPDEST PUSH4 0x4E487B71 PUSH1 0xE0 SHL DUP12 MSTORE PUSH1 0x41 PUSH1 0x4 MSTORE PUSH1 0x24 DUP12 REVERT JUMPDEST PUSH1 0x40 MLOAD PUSH4 0x57037669 PUSH1 0xE0 SHL DUP2 MSTORE PUSH1 0x4 SWAP1 REVERT JUMPDEST SWAP1 POP PUSH1 0x8 SLOAD LT ISZERO CODESIZE PUSH2 0x1C22 JUMP JUMPDEST DUP10 MSTORE PUSH1 0xA PUSH1 0x20 MSTORE PUSH1 0x40 DUP10 KECCAK256 PUSH1 0x5 DUP2 ADD DUP1 SLOAD PUSH1 0xFF DUP2 AND PUSH2 0x2065 JUMPI JUMPDEST POP POP PUSH2 0x1C14 JUMP JUMPDEST PUSH1 0xFF NOT AND SWAP1 SSTORE PUSH1 0x8 SLOAD DUP1 PUSH2 0x209D JUMPI JUMPDEST POP DUP8 SLOAD SWAP1 SLOAD PUSH1 0x1 PUSH1 0x1 PUSH1 0xA0 SHL SUB AND SWAP1 PUSH1 0x0 DUP1 MLOAD PUSH1 0x20 PUSH2 0x3E0E DUP4 CODECOPY DUP2 MLOAD SWAP2 MSTORE DUP12 DUP1 LOG3 CODESIZE DUP1 DUP1 PUSH2 0x205E JUMP JUMPDEST DUP1 PUSH1 0x0 NOT DUP2 ADD GT PUSH2 0x1AD3 JUMPI PUSH1 0x0 NOT ADD PUSH1 0x8 DUP2 SWAP1 SSTORE PUSH1 0x40 MLOAD SWAP1 DUP2 MSTORE PUSH1 0x0 DUP1 MLOAD PUSH1 0x20 PUSH2 0x3DEE DUP4 CODECOPY DUP2 MLOAD SWAP2 MSTORE SWAP1 PUSH1 0x20 SWAP1 LOG1 CODESIZE PUSH2 0x2074 JUMP JUMPDEST DUP4 DUP1 REVERT JUMPDEST POP CALLVALUE PUSH2 0x2C1 JUMPI DUP1 PUSH1 0x3 NOT CALLDATASIZE ADD SLT PUSH2 0x2C1 JUMPI PUSH1 0x7 SLOAD PUSH1 0x40 MLOAD PUSH1 0x1 PUSH1 0x1 PUSH1 0xA0 SHL SUB SWAP1 SWAP2 AND DUP2 MSTORE PUSH1 0x20 SWAP1 RETURN JUMPDEST POP CALLVALUE PUSH2 0x2C1 JUMPI PUSH1 0x40 CALLDATASIZE PUSH1 0x3 NOT ADD SLT PUSH2 0x2C1 JUMPI PUSH1 0x40 SWAP1 DUP2 SWAP1 PUSH1 0x1 PUSH1 0x1 PUSH1 0xA0 SHL SUB PUSH2 0x2125 PUSH2 0x352B JUMP JUMPDEST AND DUP2 MSTORE PUSH1 0xB PUSH1 0x20 MSTORE DUP2 DUP2 KECCAK256 PUSH1 0x24 CALLDATALOAD DUP3 MSTORE PUSH1 0x20 MSTORE KECCAK256 PUSH2 0xFFFF PUSH1 0x1 DUP3 SLOAD SWAP3 ADD SLOAD AND DUP3 MLOAD SWAP2 DUP3 MSTORE PUSH1 0x20 DUP3 ADD MSTORE RETURN JUMPDEST POP CALLVALUE PUSH2 0x2C1 JUMPI DUP1 PUSH1 0x3 NOT CALLDATASIZE ADD SLT PUSH2 0x2C1 JUMPI PUSH2 0x2169 PUSH2 0x3AB2 JUMP JUMPDEST PUSH1 0x3 SLOAD PUSH1 0xFF DUP2 AND ISZERO PUSH2 0x21A9 JUMPI PUSH1 0xFF NOT AND PUSH1 0x3 SSTORE PUSH32 0x5DB9EE0A495BF2E6FF9C91A7834C1BA4FDD244A5E8AA4E537BD38AEAE4B073AA PUSH1 0x20 PUSH1 0x40 MLOAD CALLER DUP2 MSTORE LOG1 DUP1 RETURN JUMPDEST PUSH1 0x40 MLOAD PUSH4 0x8DFC202B PUSH1 0xE0 SHL DUP2 MSTORE PUSH1 0x4 SWAP1 REVERT JUMPDEST POP CALLVALUE PUSH2 0x2C1 JUMPI PUSH1 0x40 CALLDATASIZE PUSH1 0x3 NOT ADD SLT PUSH2 0x2C1 JUMPI PUSH1 0x4 CALLDATALOAD PUSH2 0x21D8 PUSH2 0x3558 JUMP JUMPDEST PUSH2 0x21E0 PUSH2 0x3AB2 JUMP JUMPDEST PUSH2 0x21E9 DUP3 PUSH2 0x3AE7 JUMP JUMPDEST PUSH2 0x7D0 DUP3 GT PUSH2 0x224C JUMPI PUSH1 0x1 PUSH1 0x1 PUSH1 0xA0 SHL SUB AND DUP1 ISZERO PUSH2 0x3D8 JUMPI DUP2 PUSH1 0x40 SWAP2 PUSH32 0xC5732485634831B5E1B586E2011C5F2B392FE136310C230CF1F04D6CAF30C15A SWAP4 PUSH1 0x6 SSTORE DUP1 PUSH1 0x1 PUSH1 0x1 PUSH1 0x60 SHL SUB PUSH1 0xA0 SHL PUSH1 0x7 SLOAD AND OR PUSH1 0x7 SSTORE DUP3 MLOAD SWAP2 DUP3 MSTORE PUSH1 0x20 DUP3 ADD MSTORE LOG1 DUP1 RETURN JUMPDEST PUSH1 0x40 MLOAD PUSH4 0xC1BD8845 PUSH1 0xE0 SHL DUP2 MSTORE PUSH1 0x4 SWAP1 REVERT JUMPDEST POP CALLVALUE PUSH2 0x2C1 JUMPI PUSH1 0x20 DUP1 PUSH1 0x3 NOT CALLDATASIZE ADD SLT PUSH2 0xA82 JUMPI PUSH1 0x40 MLOAD PUSH4 0x596E8909 PUSH1 0xE1 SHL DUP2 MSTORE PUSH1 0x4 DUP1 CALLDATALOAD SWAP1 DUP3 ADD DUP2 SWAP1 MSTORE SWAP2 PUSH1 0x1 PUSH1 0x1 PUSH1 0xA0 SHL SUB SWAP2 PUSH32 0x0 DUP4 AND SWAP2 PUSH1 0xE0 DUP3 PUSH1 0x24 DUP2 DUP7 GAS STATICCALL SWAP2 DUP3 ISZERO PUSH2 0x55B JUMPI DUP7 SWAP3 PUSH2 0x23D9 JUMPI JUMPDEST POP DUP5 DUP7 MSTORE PUSH1 0xC DUP2 MSTORE DUP1 PUSH1 0xFF PUSH1 0x40 DUP9 KECCAK256 SLOAD AND SWAP6 PUSH1 0x24 PUSH1 0x40 MLOAD DUP1 SWAP7 DUP2 SWAP4 PUSH4 0x31A9108F PUSH1 0xE1 SHL DUP4 MSTORE PUSH1 0x4 DUP4 ADD MSTORE GAS STATICCALL SWAP3 DUP4 ISZERO PUSH2 0x55B JUMPI SWAP6 PUSH1 0xC0 SWAP7 DUP2 SWAP5 PUSH2 0x23BA JUMPI JUMPDEST POP PUSH1 0xFF DUP3 DUP5 ADD MLOAD AND SWAP2 PUSH1 0x1 PUSH1 0x1 PUSH1 0x40 SHL SUB PUSH1 0x60 DUP6 ADD MLOAD AND SWAP4 DUP8 PUSH1 0x0 EQ PUSH2 0x2355 JUMPI POP DUP2 JUMPDEST PUSH1 0x40 MLOAD SWAP8 ISZERO ISZERO DUP9 MSTORE ISZERO ISZERO SWAP1 DUP8 ADD MSTORE ISZERO ISZERO PUSH1 0x40 DUP7 ADD MSTORE PUSH1 0x60 DUP6 ADD MSTORE PUSH1 0x80 DUP5 ADD MSTORE AND PUSH1 0xA0 DUP3 ADD MSTORE RETURN JUMPDEST DUP4 ISZERO SWAP3 POP DUP3 ISZERO PUSH2 0x23B0 JUMPI JUMPDEST PUSH1 0x40 ADD MLOAD PUSH1 0xFF AND SWAP2 DUP1 DUP1 PUSH2 0x239C JUMPI JUMPDEST SWAP3 DUP2 PUSH2 0x237D JUMPI JUMPDEST POP SWAP2 PUSH2 0x232E JUMP JUMPDEST PUSH1 0x2 DUP2 EQ SWAP2 POP DUP2 ISZERO PUSH2 0x2391 JUMPI JUMPDEST POP CODESIZE PUSH2 0x2376 JUMP JUMPDEST PUSH1 0x3 SWAP2 POP EQ CODESIZE PUSH2 0x238A JUMP JUMPDEST POP PUSH1 0x1 DUP4 EQ DUP1 PUSH2 0x236F JUMPI POP PUSH1 0x3 DUP4 EQ PUSH2 0x236F JUMP JUMPDEST TIMESTAMP DUP6 GT SWAP3 POP PUSH2 0x2360 JUMP JUMPDEST PUSH2 0x23D2 SWAP2 SWAP5 POP DUP3 RETURNDATASIZE DUP5 GT PUSH2 0xB18 JUMPI PUSH2 0xB0A DUP2 DUP4 PUSH2 0x368C JUMP JUMPDEST SWAP3 CODESIZE PUSH2 0x230B JUMP JUMPDEST PUSH2 0x23F3 SWAP2 SWAP3 POP PUSH1 0xE0 RETURNDATASIZE PUSH1 0xE0 GT PUSH2 0xB54 JUMPI PUSH2 0xB45 DUP2 DUP4 PUSH2 0x368C JUMP JUMPDEST SWAP1 CODESIZE PUSH2 0x22CD JUMP JUMPDEST POP CALLVALUE PUSH2 0x2C1 JUMPI PUSH2 0x1A0 CALLDATASIZE PUSH1 0x3 NOT ADD SLT PUSH2 0x2C1 JUMPI PUSH1 0x4 CALLDATALOAD PUSH1 0x1 PUSH1 0x1 PUSH1 0x40 SHL SUB DUP2 GT PUSH2 0xA82 JUMPI PUSH2 0x242C SWAP1 CALLDATASIZE SWAP1 PUSH1 0x4 ADD PUSH2 0x358A JUMP JUMPDEST PUSH1 0x24 CALLDATALOAD PUSH1 0x1 PUSH1 0x1 PUSH1 0x40 SHL SUB DUP2 GT PUSH2 0x20D1 JUMPI PUSH2 0x244B SWAP1 CALLDATASIZE SWAP1 PUSH1 0x4 ADD PUSH2 0x358A JUMP JUMPDEST SWAP3 SWAP1 PUSH1 0x44 CALLDATALOAD PUSH1 0x1 PUSH1 0x1 PUSH1 0x40 SHL SUB DUP2 GT PUSH2 0x50C JUMPI PUSH2 0x246C SWAP1 CALLDATASIZE SWAP1 PUSH1 0x4 ADD PUSH2 0x358A JUMP JUMPDEST PUSH2 0x2474 PUSH2 0x34FA JUMP JUMPDEST SWAP1 PUSH2 0x247D PUSH2 0x350A JUMP JUMPDEST SWAP1 PUSH2 0x2486 PUSH2 0x3541 JUMP JUMPDEST SWAP6 PUSH1 0x1 PUSH1 0x1 PUSH1 0x40 SHL SUB PUSH2 0x184 CALLDATALOAD GT PUSH2 0x2B99 JUMPI PUSH1 0x60 PUSH2 0x184 CALLDATALOAD CALLDATASIZE SUB PUSH1 0x3 NOT ADD SLT PUSH2 0x2B99 JUMPI PUSH2 0x2510 SWAP1 PUSH2 0x24B5 PUSH2 0x39C1 JUMP JUMPDEST PUSH2 0x24BD PUSH2 0x3AC6 JUMP JUMPDEST DUP11 SWAP9 PUSH2 0x24CA PUSH1 0x64 CALLDATALOAD PUSH2 0x3AE7 JUMP JUMPDEST PUSH2 0x24D8 PUSH1 0x64 CALLDATALOAD PUSH1 0x6 SLOAD PUSH2 0x3B03 JUMP JUMPDEST PUSH2 0x24E1 DUP7 PUSH2 0x39DF JUMP JUMPDEST PUSH2 0x24EA DUP6 PUSH2 0x3A25 JUMP JUMPDEST PUSH2 0x24FB PUSH1 0xC4 CALLDATALOAD PUSH1 0xA4 CALLDATALOAD PUSH1 0x84 CALLDATALOAD PUSH2 0x3A6B JUMP JUMPDEST PUSH2 0x2507 PUSH2 0x144 CALLDATALOAD PUSH2 0x3B28 JUMP JUMPDEST PUSH2 0x1BD8 DUP10 PUSH2 0x3B6D JUMP JUMPDEST PUSH1 0x20 DUP2 MLOAD SWAP2 ADD KECCAK256 CALLER DUP11 MSTORE PUSH1 0xB PUSH1 0x20 MSTORE PUSH1 0x40 DUP11 KECCAK256 SWAP1 DUP11 MSTORE PUSH1 0x20 MSTORE PUSH1 0x40 DUP10 KECCAK256 SWAP4 PUSH2 0xFFFF DUP1 PUSH1 0x1 DUP8 ADD SLOAD AND EQ PUSH2 0x510 JUMPI DUP5 SLOAD DUP1 PUSH2 0x2B0C JUMPI JUMPDEST POP PUSH1 0x9 SLOAD DUP1 ISZERO ISZERO SWAP1 DUP2 PUSH2 0x2AFF JUMPI JUMPDEST POP PUSH2 0x2025 JUMPI PUSH1 0x4 SLOAD SWAP9 PUSH2 0x2565 DUP11 PUSH2 0x381A JUMP JUMPDEST PUSH1 0x4 SSTORE DUP10 DUP12 MSTORE PUSH1 0xA PUSH1 0x20 MSTORE PUSH1 0x40 DUP12 KECCAK256 SWAP7 CALLER PUSH1 0x1 PUSH1 0x1 PUSH1 0x60 SHL SUB PUSH1 0xA0 SHL DUP10 SLOAD AND OR DUP9 SSTORE PUSH1 0x1 DUP9 ADD CALLER PUSH1 0x1 PUSH1 0x1 PUSH1 0x60 SHL SUB PUSH1 0xA0 SHL DUP3 SLOAD AND OR SWAP1 SSTORE PUSH1 0x1 PUSH1 0x1 PUSH1 0x40 SHL SUB DUP3 GT PUSH2 0x2AEB JUMPI DUP2 SWAP1 PUSH2 0x25BA PUSH1 0x2 DUP11 ADD SLOAD PUSH2 0x35D7 JUMP JUMPDEST PUSH1 0x1F DUP2 GT PUSH2 0x2A99 JUMPI JUMPDEST POP DUP13 SWAP1 PUSH1 0x1F DUP4 GT PUSH1 0x1 EQ PUSH2 0x2A2D JUMPI DUP14 SWAP3 PUSH2 0x2A22 JUMPI JUMPDEST POP POP DUP2 PUSH1 0x1 SHL SWAP2 PUSH1 0x0 NOT SWAP1 PUSH1 0x3 SHL SHR NOT AND OR PUSH1 0x2 DUP8 ADD SSTORE JUMPDEST PUSH1 0x1 PUSH1 0x1 PUSH1 0x40 SHL SUB DUP3 GT PUSH2 0x2A0E JUMPI PUSH2 0x260B PUSH1 0x3 DUP8 ADD SLOAD PUSH2 0x35D7 JUMP JUMPDEST PUSH1 0x1F DUP2 GT PUSH2 0x29C9 JUMPI JUMPDEST POP DUP10 SWAP1 DUP11 PUSH1 0x1F DUP5 GT PUSH1 0x1 EQ PUSH2 0x2951 JUMPI SWAP3 DUP1 PUSH2 0x26A2 SWAP4 PUSH2 0xFFFF SWAP7 SWAP4 PUSH1 0x1 SWAP9 SWAP7 SWAP3 PUSH2 0x2946 JUMPI JUMPDEST POP POP DUP2 DUP8 SHL SWAP2 PUSH1 0x0 NOT SWAP1 PUSH1 0x3 SHL SHR NOT AND OR PUSH1 0x3 DUP9 ADD SSTORE JUMPDEST PUSH1 0x64 CALLDATALOAD PUSH1 0x4 DUP9 ADD SSTORE PUSH1 0x5 DUP8 ADD DUP1 SLOAD PUSH1 0xFF NOT AND DUP7 OR SWAP1 SSTORE PUSH1 0x84 CALLDATALOAD PUSH1 0x6 DUP9 ADD SSTORE PUSH1 0xA4 CALLDATALOAD PUSH1 0x7 DUP9 ADD SSTORE PUSH1 0xC4 CALLDATALOAD PUSH1 0x8 DUP1 DUP10 ADD SWAP2 SWAP1 SWAP2 SSTORE PUSH1 0x9 DUP9 ADD DUP1 SLOAD PUSH2 0xFFFF NOT AND PUSH1 0xFF SWAP6 SWAP1 SWAP6 AND SWAP5 SWAP1 SWAP5 OR SWAP2 SWAP1 SHL PUSH2 0xFF00 AND OR DUP3 SSTORE JUMP JUMPDEST PUSH2 0x124 CALLDATALOAD PUSH1 0xA DUP7 ADD SSTORE PUSH2 0x144 CALLDATALOAD PUSH1 0xB DUP7 ADD SSTORE DUP3 DUP1 PUSH1 0xA0 SHL SUB DUP7 AND ISZERO ISZERO SWAP5 DUP6 PUSH1 0x0 EQ PUSH2 0x293D JUMPI PUSH1 0xC DUP8 SWAP2 JUMPDEST ADD SWAP1 DUP5 DUP1 PUSH1 0xA0 SHL SUB AND PUSH1 0x1 PUSH1 0x1 PUSH1 0x60 SHL SUB PUSH1 0xA0 SHL DUP3 SLOAD AND OR SWAP1 SSTORE DUP4 SLOAD ISZERO ISZERO PUSH1 0x0 EQ PUSH2 0x2920 JUMPI PUSH2 0x2702 PUSH2 0x1DC6 DUP4 DUP6 DUP8 ADD SLOAD AND PUSH2 0x3792 JUMP JUMPDEST DUP8 DUP5 SSTORE AND PUSH2 0xFFFF NOT DUP3 DUP5 ADD SLOAD AND OR SWAP2 ADD SSTORE PUSH1 0x8 SLOAD PUSH1 0x1 DUP2 ADD DUP1 SWAP2 GT PUSH2 0x290C JUMPI PUSH1 0x20 DUP2 PUSH1 0x0 DUP1 MLOAD PUSH1 0x20 PUSH2 0x3DEE DUP4 CODECOPY DUP2 MLOAD SWAP2 MSTORE SWAP3 PUSH1 0x8 SSTORE PUSH1 0x40 MLOAD SWAP1 DUP2 MSTORE LOG1 PUSH1 0x40 MLOAD SWAP2 CALLER DUP6 PUSH32 0xDA0A1595D5F9A5872904CA8ECEB17D6BEFC55070D4FD387E4C2F1D4553DD01A DUP9 DUP1 LOG3 PUSH2 0x2778 PUSH1 0x4 PUSH2 0x184 CALLDATALOAD ADD DUP1 PUSH2 0x3836 JUMP JUMPDEST SWAP1 POP PUSH2 0x2794 JUMPI JUMPDEST PUSH1 0x40 DUP6 DUP6 PUSH1 0x1 PUSH1 0x2 SSTORE DUP3 MLOAD SWAP2 DUP3 MSTORE PUSH1 0x20 DUP3 ADD MSTORE RETURN JUMPDEST PUSH1 0xF SLOAD PUSH1 0x1 PUSH1 0x1 PUSH1 0xA0 SHL SUB AND SWAP4 POP SWAP1 SWAP2 DUP4 ISZERO PUSH2 0x28FD JUMPI POP PUSH2 0x184 CALLDATALOAD PUSH1 0x24 ADD SWAP2 PUSH1 0x1 PUSH1 0x1 PUSH1 0xA0 SHL SUB PUSH2 0x27C4 DUP5 PUSH2 0x3868 JUMP JUMPDEST AND ISZERO PUSH2 0x28E2 JUMPI POP POP PUSH2 0x27D7 PUSH1 0x20 SWAP2 PUSH2 0x3868 JUMP JUMPDEST SWAP2 JUMPDEST PUSH2 0x27E9 PUSH1 0x4 PUSH2 0x184 CALLDATALOAD ADD DUP1 PUSH2 0x3836 JUMP JUMPDEST SWAP2 SWAP1 SWAP4 DUP7 DUP7 PUSH2 0x2859 PUSH2 0x2807 PUSH1 0x44 PUSH2 0x184 CALLDATALOAD ADD PUSH2 0x184 CALLDATALOAD PUSH1 0x4 ADD PUSH2 0x3836 JUMP JUMPDEST PUSH2 0x2847 PUSH1 0x40 MLOAD SWAP11 DUP12 SWAP10 DUP11 SWAP9 DUP10 SWAP8 PUSH4 0x37A1B719 PUSH1 0xE0 SHL DUP10 MSTORE CALLER PUSH1 0x4 DUP11 ADD MSTORE PUSH1 0x24 DUP10 ADD MSTORE PUSH1 0x1 DUP1 PUSH1 0xA0 SHL SUB AND PUSH1 0x44 DUP9 ADD MSTORE PUSH1 0xA0 PUSH1 0x64 DUP9 ADD MSTORE PUSH1 0xA4 DUP8 ADD SWAP2 PUSH2 0x387C JUMP JUMPDEST DUP5 DUP2 SUB PUSH1 0x3 NOT ADD PUSH1 0x84 DUP7 ADD MSTORE SWAP2 PUSH2 0x387C JUMP JUMPDEST SUB SWAP3 GAS CALL DUP4 SWAP2 DUP2 PUSH2 0x28AE JUMPI JUMPDEST POP PUSH2 0x287C JUMPI PUSH1 0x40 MLOAD PUSH4 0x71A31C27 PUSH1 0xE0 SHL DUP2 MSTORE PUSH1 0x4 SWAP1 REVERT JUMPDEST PUSH1 0x40 SWAP3 DUP2 DUP4 PUSH32 0x40CD9AD911657E73BC37DF0291D3B65B0DA93EEBFFD743E2E74B46536C3A30EC CALLER SWAP4 DUP1 LOG4 CODESIZE DUP1 DUP1 PUSH2 0x277F JUMP JUMPDEST SWAP1 SWAP2 POP PUSH1 0x20 DUP2 RETURNDATASIZE PUSH1 0x20 GT PUSH2 0x28DA JUMPI JUMPDEST DUP2 PUSH2 0x28CA PUSH1 0x20 SWAP4 DUP4 PUSH2 0x368C JUMP JUMPDEST DUP2 ADD SUB SLT PUSH2 0x20D1 JUMPI MLOAD SWAP1 CODESIZE PUSH2 0x2865 JUMP JUMPDEST RETURNDATASIZE SWAP2 POP PUSH2 0x28BD JUMP JUMPDEST SWAP1 SWAP2 POP ISZERO PUSH2 0x28F4 JUMPI PUSH1 0x20 SWAP1 JUMPDEST SWAP2 PUSH2 0x27D9 JUMP JUMPDEST POP PUSH1 0x20 CALLER PUSH2 0x28EE JUMP JUMPDEST PUSH4 0x3C436073 PUSH1 0xE1 SHL DUP2 MSTORE PUSH1 0x4 SWAP1 REVERT JUMPDEST PUSH4 0x4E487B71 PUSH1 0xE0 SHL DUP7 MSTORE PUSH1 0x11 PUSH1 0x4 MSTORE PUSH1 0x24 DUP7 REVERT JUMPDEST DUP1 SLOAD PUSH4 0xFFFF0000 NOT AND PUSH1 0x10 DUP5 SWAP1 SHL PUSH4 0xFFFF0000 AND OR SWAP1 SSTORE DUP2 PUSH2 0x2702 JUMP JUMPDEST PUSH1 0xC CALLER SWAP2 PUSH2 0x26CC JUMP JUMPDEST ADD CALLDATALOAD SWAP1 POP CODESIZE DUP1 PUSH2 0x2638 JUMP JUMPDEST POP PUSH1 0x3 DUP8 ADD DUP12 MSTORE PUSH1 0x20 DUP12 KECCAK256 SWAP2 DUP12 JUMPDEST PUSH1 0x1F NOT DUP6 AND DUP2 LT PUSH2 0x29B1 JUMPI POP DUP4 PUSH2 0x26A2 SWAP4 PUSH2 0xFFFF SWAP7 SWAP4 PUSH1 0x1 SWAP9 SWAP7 SWAP4 DUP10 SWAP5 PUSH1 0x1F NOT DUP2 AND LT PUSH2 0x2997 JUMPI JUMPDEST POP POP POP DUP2 SHL ADD PUSH1 0x3 DUP9 ADD SSTORE PUSH2 0x264F JUMP JUMPDEST ADD CALLDATALOAD PUSH1 0x0 NOT PUSH1 0x3 DUP5 SWAP1 SHL PUSH1 0xF8 AND SHR NOT AND SWAP1 SSTORE CODESIZE DUP1 DUP1 PUSH2 0x2987 JUMP JUMPDEST SWAP1 SWAP3 PUSH1 0x20 PUSH1 0x1 DUP2 SWAP3 DUP7 DUP7 ADD CALLDATALOAD DUP2 SSTORE ADD SWAP5 ADD SWAP2 ADD PUSH2 0x295F JUMP JUMPDEST PUSH1 0x3 DUP8 ADD DUP12 MSTORE PUSH1 0x20 DUP12 KECCAK256 PUSH1 0x1F DUP5 ADD PUSH1 0x5 SHR DUP2 ADD PUSH1 0x20 DUP6 LT PUSH2 0x2A07 JUMPI JUMPDEST DUP13 PUSH1 0x1F DUP5 ADD PUSH1 0x5 SHR DUP4 ADD DUP3 LT PUSH2 0x29FD JUMPI POP POP POP PUSH2 0x2614 JUMP JUMPDEST DUP2 SSTORE PUSH1 0x1 ADD PUSH2 0x29E5 JUMP JUMPDEST POP DUP1 PUSH2 0x29E5 JUMP JUMPDEST PUSH4 0x4E487B71 PUSH1 0xE0 SHL DUP11 MSTORE PUSH1 0x41 PUSH1 0x4 MSTORE PUSH1 0x24 DUP11 REVERT JUMPDEST ADD CALLDATALOAD SWAP1 POP CODESIZE DUP1 PUSH2 0x25D8 JUMP JUMPDEST PUSH1 0x2 DUP11 ADD DUP15 MSTORE PUSH1 0x20 DUP15 KECCAK256 DUP15 SWAP5 POP SWAP2 JUMPDEST PUSH1 0x1F NOT DUP5 AND DUP6 LT PUSH2 0x2A81 JUMPI PUSH1 0x1 SWAP5 POP DUP4 PUSH1 0x1F NOT DUP2 AND LT PUSH2 0x2A67 JUMPI JUMPDEST POP POP POP DUP2 SHL ADD PUSH1 0x2 DUP8 ADD SSTORE PUSH2 0x25F0 JUMP JUMPDEST ADD CALLDATALOAD PUSH1 0x0 NOT PUSH1 0x3 DUP5 SWAP1 SHL PUSH1 0xF8 AND SHR NOT AND SWAP1 SSTORE CODESIZE DUP1 DUP1 PUSH2 0x2A57 JUMP JUMPDEST DUP2 DUP2 ADD CALLDATALOAD DUP4 SSTORE PUSH1 0x20 SWAP5 DUP6 ADD SWAP5 PUSH1 0x1 SWAP1 SWAP4 ADD SWAP3 ADD PUSH2 0x2A3C JUMP JUMPDEST SWAP1 SWAP2 POP PUSH1 0x2 DUP10 ADD DUP14 MSTORE PUSH1 0x20 DUP14 KECCAK256 PUSH1 0x1F DUP5 ADD PUSH1 0x5 SHR DUP2 ADD PUSH1 0x20 DUP6 LT PUSH2 0x2AE4 JUMPI JUMPDEST DUP5 SWAP4 SWAP3 SWAP2 SWAP1 DUP16 JUMPDEST PUSH1 0x1F DUP5 ADD PUSH1 0x5 SHR DUP4 ADD DUP3 LT PUSH2 0x2AD6 JUMPI POP POP POP PUSH2 0x25C3 JUMP JUMPDEST DUP2 SSTORE DUP6 SWAP5 POP PUSH1 0x1 ADD DUP16 PUSH2 0x2ABF JUMP JUMPDEST POP DUP1 PUSH2 0x2AB8 JUMP JUMPDEST PUSH4 0x4E487B71 PUSH1 0xE0 SHL DUP13 MSTORE PUSH1 0x41 PUSH1 0x4 MSTORE PUSH1 0x24 DUP13 REVERT JUMPDEST SWAP1 POP PUSH1 0x8 SLOAD LT ISZERO CODESIZE PUSH2 0x2553 JUMP JUMPDEST DUP11 MSTORE PUSH1 0xA PUSH1 0x20 MSTORE PUSH1 0x40 DUP11 KECCAK256 PUSH1 0x5 DUP2 ADD DUP1 SLOAD PUSH1 0xFF DUP2 AND PUSH2 0x2B2D JUMPI JUMPDEST POP POP PUSH2 0x2545 JUMP JUMPDEST PUSH1 0xFF NOT AND SWAP1 SSTORE PUSH1 0x8 SLOAD DUP1 PUSH2 0x2B65 JUMPI JUMPDEST POP DUP6 SLOAD SWAP1 SLOAD PUSH1 0x1 PUSH1 0x1 PUSH1 0xA0 SHL SUB AND SWAP1 PUSH1 0x0 DUP1 MLOAD PUSH1 0x20 PUSH2 0x3E0E DUP4 CODECOPY DUP2 MLOAD SWAP2 MSTORE DUP13 DUP1 LOG3 CODESIZE DUP1 DUP1 PUSH2 0x2B26 JUMP JUMPDEST DUP1 PUSH1 0x0 NOT DUP2 ADD GT PUSH2 0xA86 JUMPI PUSH1 0x0 NOT ADD PUSH1 0x8 DUP2 SWAP1 SSTORE PUSH1 0x40 MLOAD SWAP1 DUP2 MSTORE PUSH1 0x0 DUP1 MLOAD PUSH1 0x20 PUSH2 0x3DEE DUP4 CODECOPY DUP2 MLOAD SWAP2 MSTORE SWAP1 PUSH1 0x20 SWAP1 LOG1 CODESIZE PUSH2 0x2B3C JUMP JUMPDEST DUP10 DUP1 REVERT JUMPDEST POP CALLVALUE PUSH2 0x2C1 JUMPI DUP1 PUSH1 0x3 NOT CALLDATASIZE ADD SLT PUSH2 0x2C1 JUMPI PUSH1 0x10 SLOAD PUSH1 0x40 MLOAD PUSH1 0x1 PUSH1 0x1 PUSH1 0xA0 SHL SUB SWAP1 SWAP2 AND DUP2 MSTORE PUSH1 0x20 SWAP1 RETURN JUMPDEST POP CALLVALUE PUSH2 0x2C1 JUMPI PUSH2 0x140 CALLDATASIZE PUSH1 0x3 NOT ADD SLT PUSH2 0x2C1 JUMPI PUSH1 0x4 CALLDATALOAD PUSH1 0x1 PUSH1 0x1 PUSH1 0x40 SHL SUB DUP2 GT PUSH2 0xA82 JUMPI PUSH2 0x2BF8 SWAP1 CALLDATASIZE SWAP1 PUSH1 0x4 ADD PUSH2 0x358A JUMP JUMPDEST PUSH1 0x24 CALLDATALOAD PUSH1 0x1 PUSH1 0x1 PUSH1 0x40 SHL SUB DUP2 GT PUSH2 0x20D1 JUMPI PUSH2 0x2C17 SWAP1 CALLDATASIZE SWAP1 PUSH1 0x4 ADD PUSH2 0x358A JUMP JUMPDEST SWAP3 SWAP1 PUSH1 0x44 CALLDATALOAD PUSH1 0x1 PUSH1 0x1 PUSH1 0x40 SHL SUB DUP2 GT PUSH2 0x50C JUMPI PUSH2 0x2C38 SWAP1 CALLDATASIZE SWAP1 PUSH1 0x4 ADD PUSH2 0x358A JUMP JUMPDEST PUSH2 0x2C94 PUSH2 0x2C46 SWAP6 SWAP3 SWAP6 PUSH2 0x34FA JUMP JUMPDEST SWAP5 PUSH2 0x2C4F PUSH2 0x350A JUMP JUMPDEST SWAP4 PUSH2 0x2C58 PUSH2 0x39C1 JUMP JUMPDEST PUSH2 0x2C63 PUSH1 0x64 CALLDATALOAD PUSH2 0x3AE7 JUMP JUMPDEST PUSH2 0x2C71 PUSH1 0x64 CALLDATALOAD PUSH1 0x6 SLOAD PUSH2 0x3B03 JUMP JUMPDEST PUSH2 0x2C7A DUP8 PUSH2 0x39DF JUMP JUMPDEST PUSH2 0x2C83 DUP6 PUSH2 0x3A25 JUMP JUMPDEST PUSH2 0x1BD8 PUSH1 0xC4 CALLDATALOAD PUSH1 0xA4 CALLDATALOAD PUSH1 0x84 CALLDATALOAD PUSH2 0x3A6B JUMP JUMPDEST PUSH1 0x20 DUP2 MLOAD SWAP2 ADD KECCAK256 CALLER DUP9 MSTORE PUSH1 0xB PUSH1 0x20 MSTORE PUSH1 0x40 DUP9 KECCAK256 SWAP1 DUP9 MSTORE PUSH1 0x20 MSTORE PUSH1 0x40 DUP8 KECCAK256 SWAP5 PUSH2 0xFFFF DUP1 PUSH1 0x1 DUP9 ADD SLOAD AND EQ PUSH2 0x510 JUMPI DUP6 SLOAD DUP1 PUSH2 0x3012 JUMPI JUMPDEST POP PUSH1 0x9 SLOAD DUP1 ISZERO ISZERO SWAP1 DUP2 PUSH2 0x3005 JUMPI JUMPDEST POP PUSH2 0x2025 JUMPI PUSH1 0x4 SLOAD SWAP7 PUSH2 0x2CE9 DUP9 PUSH2 0x381A JUMP JUMPDEST PUSH1 0x4 SSTORE DUP8 DUP10 MSTORE PUSH1 0xA PUSH1 0x20 MSTORE PUSH1 0x40 DUP10 KECCAK256 SWAP5 CALLER PUSH1 0x1 PUSH1 0x1 PUSH1 0x60 SHL SUB PUSH1 0xA0 SHL DUP8 SLOAD AND OR DUP7 SSTORE PUSH1 0x1 DUP7 ADD CALLER PUSH1 0x1 PUSH1 0x1 PUSH1 0x60 SHL SUB PUSH1 0xA0 SHL DUP3 SLOAD AND OR SWAP1 SSTORE PUSH1 0x1 PUSH1 0x1 PUSH1 0x40 SHL SUB DUP3 GT PUSH2 0x2A0E JUMPI DUP2 SWAP1 PUSH2 0x2D3E PUSH1 0x2 DUP9 ADD SLOAD PUSH2 0x35D7 JUMP JUMPDEST PUSH1 0x1F DUP2 GT PUSH2 0x2FB4 JUMPI JUMPDEST POP DUP11 SWAP1 PUSH1 0x1F DUP4 GT PUSH1 0x1 EQ PUSH2 0x2F48 JUMPI DUP12 SWAP3 PUSH2 0x2F3D JUMPI JUMPDEST POP POP DUP2 PUSH1 0x1 SHL SWAP2 PUSH1 0x0 NOT SWAP1 PUSH1 0x3 SHL SHR NOT AND OR PUSH1 0x2 DUP6 ADD SSTORE JUMPDEST PUSH1 0x1 PUSH1 0x1 PUSH1 0x40 SHL SUB DUP3 GT PUSH2 0x2F29 JUMPI PUSH2 0x2D8F PUSH1 0x3 DUP6 ADD SLOAD PUSH2 0x35D7 JUMP JUMPDEST PUSH1 0x1F DUP2 GT PUSH2 0x2EE5 JUMPI JUMPDEST POP DUP8 SWAP1 PUSH1 0x1F DUP4 GT PUSH1 0x1 EQ PUSH2 0x2E6C JUMPI PUSH1 0x1 SWAP6 SWAP4 DUP4 PUSH1 0xC SWAP5 PUSH2 0xFFFF SWAP8 SWAP5 PUSH2 0x2E28 SWAP5 DUP14 SWAP3 PUSH2 0x2E61 JUMPI JUMPDEST POP POP DUP2 DUP10 SHL SWAP2 PUSH1 0x0 NOT SWAP1 PUSH1 0x3 SHL SHR NOT AND OR PUSH1 0x3 DUP5 ADD SSTORE JUMPDEST PUSH1 0x64 CALLDATALOAD PUSH1 0x4 DUP5 ADD SSTORE PUSH1 0x5 DUP4 ADD DUP1 SLOAD PUSH1 0xFF NOT AND DUP9 OR SWAP1 SSTORE PUSH1 0x84 CALLDATALOAD PUSH1 0x6 DUP5 ADD SSTORE PUSH1 0xA4 CALLDATALOAD PUSH1 0x7 DUP5 ADD SSTORE PUSH1 0xC4 CALLDATALOAD PUSH1 0x8 DUP1 DUP6 ADD SWAP2 SWAP1 SWAP2 SSTORE PUSH1 0x9 DUP5 ADD DUP1 SLOAD PUSH2 0xFFFF NOT AND PUSH1 0xFF SWAP8 SWAP1 SWAP8 AND SWAP7 SWAP1 SWAP7 OR SWAP2 SWAP1 SHL PUSH2 0xFF00 AND OR DUP5 SSTORE JUMP JUMPDEST PUSH2 0x124 CALLDATALOAD PUSH1 0xA DUP3 ADD SSTORE PUSH1 0xB DUP2 ADD DUP9 SWAP1 SSTORE ADD DUP1 SLOAD PUSH1 0x1 PUSH1 0x1 PUSH1 0xA0 SHL SUB NOT AND CALLER OR SWAP1 SSTORE DUP4 SLOAD ISZERO PUSH2 0x1E45 JUMPI PUSH2 0x1DE0 PUSH2 0x1DC6 DUP4 DUP6 DUP8 ADD SLOAD AND PUSH2 0x3792 JUMP JUMPDEST ADD CALLDATALOAD SWAP1 POP CODESIZE DUP1 PUSH2 0x2DBE JUMP JUMPDEST PUSH1 0x3 DUP6 ADD DUP10 MSTORE PUSH1 0x20 DUP10 KECCAK256 SWAP2 DUP10 JUMPDEST PUSH1 0x1F NOT DUP6 AND DUP2 LT PUSH2 0x2ECD JUMPI POP SWAP4 PUSH1 0x1 DUP5 PUSH2 0xFFFF SWAP8 SWAP5 PUSH2 0x2E28 SWAP5 DUP4 SWAP11 SWAP9 PUSH1 0xC SWAP9 PUSH1 0x1F NOT DUP2 AND LT PUSH2 0x2EB3 JUMPI JUMPDEST POP POP POP DUP2 SHL ADD PUSH1 0x3 DUP5 ADD SSTORE PUSH2 0x2DD5 JUMP JUMPDEST ADD CALLDATALOAD PUSH1 0x0 NOT PUSH1 0x3 DUP5 SWAP1 SHL PUSH1 0xF8 AND SHR NOT AND SWAP1 SSTORE CODESIZE DUP1 DUP1 PUSH2 0x2EA3 JUMP JUMPDEST SWAP1 SWAP3 PUSH1 0x20 PUSH1 0x1 DUP2 SWAP3 DUP7 DUP7 ADD CALLDATALOAD DUP2 SSTORE ADD SWAP5 ADD SWAP2 ADD PUSH2 0x2E79 JUMP JUMPDEST PUSH1 0x3 DUP6 ADD DUP10 MSTORE PUSH1 0x20 DUP10 KECCAK256 PUSH1 0x1F DUP5 ADD PUSH1 0x5 SHR DUP2 ADD PUSH1 0x20 DUP6 LT PUSH2 0x2F22 JUMPI JUMPDEST PUSH1 0x1F DUP4 ADD PUSH1 0x5 SHR DUP3 ADD DUP2 LT PUSH2 0x2F17 JUMPI POP POP PUSH2 0x2D98 JUMP JUMPDEST DUP11 DUP2 SSTORE PUSH1 0x1 ADD PUSH2 0x2F01 JUMP JUMPDEST POP DUP1 PUSH2 0x2F01 JUMP JUMPDEST PUSH4 0x4E487B71 PUSH1 0xE0 SHL DUP9 MSTORE PUSH1 0x41 PUSH1 0x4 MSTORE PUSH1 0x24 DUP9 REVERT JUMPDEST ADD CALLDATALOAD SWAP1 POP CODESIZE DUP1 PUSH2 0x2D5C JUMP JUMPDEST PUSH1 0x2 DUP9 ADD DUP13 MSTORE PUSH1 0x20 DUP13 KECCAK256 DUP13 SWAP5 POP SWAP2 JUMPDEST PUSH1 0x1F NOT DUP5 AND DUP6 LT PUSH2 0x2F9C JUMPI PUSH1 0x1 SWAP5 POP DUP4 PUSH1 0x1F NOT DUP2 AND LT PUSH2 0x2F82 JUMPI JUMPDEST POP POP POP DUP2 SHL ADD PUSH1 0x2 DUP6 ADD SSTORE PUSH2 0x2D74 JUMP JUMPDEST ADD CALLDATALOAD PUSH1 0x0 NOT PUSH1 0x3 DUP5 SWAP1 SHL PUSH1 0xF8 AND SHR NOT AND SWAP1 SSTORE CODESIZE DUP1 DUP1 PUSH2 0x2F72 JUMP JUMPDEST DUP2 DUP2 ADD CALLDATALOAD DUP4 SSTORE PUSH1 0x20 SWAP5 DUP6 ADD SWAP5 PUSH1 0x1 SWAP1 SWAP4 ADD SWAP3 ADD PUSH2 0x2F57 JUMP JUMPDEST SWAP1 SWAP2 POP PUSH1 0x2 DUP8 ADD DUP12 MSTORE PUSH1 0x20 DUP12 KECCAK256 PUSH1 0x1F DUP5 ADD PUSH1 0x5 SHR DUP2 ADD PUSH1 0x20 DUP6 LT PUSH2 0x2FFE JUMPI JUMPDEST SWAP1 DUP5 SWAP4 SWAP3 SWAP2 JUMPDEST DUP14 PUSH1 0x1F DUP5 ADD PUSH1 0x5 SHR DUP4 ADD DUP3 LT PUSH2 0x2FF1 JUMPI POP POP POP PUSH2 0x2D47 JUMP JUMPDEST DUP2 SSTORE DUP6 SWAP5 POP PUSH1 0x1 ADD PUSH2 0x2FD9 JUMP JUMPDEST POP DUP1 PUSH2 0x2FD3 JUMP JUMPDEST SWAP1 POP PUSH1 0x8 SLOAD LT ISZERO CODESIZE PUSH2 0x2CD7 JUMP JUMPDEST DUP9 MSTORE PUSH1 0xA PUSH1 0x20 MSTORE PUSH1 0x40 DUP9 KECCAK256 PUSH1 0x5 DUP2 ADD DUP1 SLOAD PUSH1 0xFF DUP2 AND PUSH2 0x3033 JUMPI JUMPDEST POP POP PUSH2 0x2CC9 JUMP JUMPDEST PUSH1 0xFF NOT AND SWAP1 SSTORE PUSH1 0x8 SLOAD DUP1 PUSH2 0x306B JUMPI JUMPDEST POP DUP7 SLOAD SWAP1 SLOAD PUSH1 0x1 PUSH1 0x1 PUSH1 0xA0 SHL SUB AND SWAP1 PUSH1 0x0 DUP1 MLOAD PUSH1 0x20 PUSH2 0x3E0E DUP4 CODECOPY DUP2 MLOAD SWAP2 MSTORE DUP11 DUP1 LOG3 CODESIZE DUP1 DUP1 PUSH2 0x302C JUMP JUMPDEST DUP1 PUSH1 0x0 NOT DUP2 ADD GT PUSH2 0x309F JUMPI PUSH1 0x0 NOT ADD PUSH1 0x8 DUP2 SWAP1 SSTORE PUSH1 0x40 MLOAD SWAP1 DUP2 MSTORE PUSH1 0x0 DUP1 MLOAD PUSH1 0x20 PUSH2 0x3DEE DUP4 CODECOPY DUP2 MLOAD SWAP2 MSTORE SWAP1 PUSH1 0x20 SWAP1 LOG1 CODESIZE PUSH2 0x3042 JUMP JUMPDEST PUSH4 0x4E487B71 PUSH1 0xE0 SHL DUP11 MSTORE PUSH1 0x11 PUSH1 0x4 MSTORE PUSH1 0x24 DUP11 REVERT JUMPDEST POP CALLVALUE PUSH2 0x2C1 JUMPI PUSH1 0x20 CALLDATASIZE PUSH1 0x3 NOT ADD SLT PUSH2 0x2C1 JUMPI PUSH2 0x30CD PUSH2 0x352B JUMP JUMPDEST PUSH2 0x30D5 PUSH2 0x3AB2 JUMP JUMPDEST PUSH1 0x1 PUSH1 0x1 PUSH1 0xA0 SHL SUB AND DUP1 ISZERO PUSH2 0x3D8 JUMPI PUSH1 0xF DUP1 SLOAD PUSH1 0x1 PUSH1 0x1 PUSH1 0xA0 SHL SUB NOT AND DUP3 OR SWAP1 SSTORE PUSH32 0x1C3B6DB6B438DF64D69FE11676A03581A3860962063A836411D7CAC590063F56 DUP3 DUP1 LOG2 DUP1 RETURN JUMPDEST POP CALLVALUE PUSH2 0x2C1 JUMPI DUP1 PUSH1 0x3 NOT CALLDATASIZE ADD SLT PUSH2 0x2C1 JUMPI PUSH1 0x20 PUSH1 0x6 SLOAD PUSH1 0x40 MLOAD SWAP1 DUP2 MSTORE RETURN JUMPDEST POP CALLVALUE PUSH2 0x2C1 JUMPI PUSH1 0x20 CALLDATASIZE PUSH1 0x3 NOT ADD SLT PUSH2 0x2C1 JUMPI PUSH1 0x4 CALLDATALOAD DUP1 DUP3 MSTORE PUSH1 0xA PUSH1 0x20 MSTORE PUSH1 0x40 DUP3 KECCAK256 SLOAD PUSH1 0x1 PUSH1 0x1 PUSH1 0xA0 SHL SUB AND CALLER SUB PUSH2 0x3EA JUMPI DUP2 MSTORE PUSH1 0xD PUSH1 0x20 MSTORE DUP1 PUSH1 0x1 PUSH1 0x40 DUP3 KECCAK256 DUP3 DUP2 SSTORE ADD SSTORE DUP1 RETURN JUMPDEST POP CALLVALUE PUSH2 0x2C1 JUMPI PUSH1 0x20 CALLDATASIZE PUSH1 0x3 NOT ADD SLT PUSH2 0x2C1 JUMPI PUSH2 0x319C PUSH2 0x352B JUMP JUMPDEST PUSH2 0x31A4 PUSH2 0x3AB2 JUMP JUMPDEST PUSH1 0x1 PUSH1 0x1 PUSH1 0xA0 SHL SUB AND DUP1 ISZERO PUSH2 0x3D8 JUMPI PUSH1 0xE DUP1 SLOAD PUSH1 0x1 PUSH1 0x1 PUSH1 0xA0 SHL SUB NOT AND DUP3 OR SWAP1 SSTORE PUSH32 0x17842AB69B80EC00F544DD5B40889875FAAD4813EE423844F70217BD9A7D964F DUP3 DUP1 LOG2 DUP1 RETURN JUMPDEST POP CALLVALUE PUSH2 0x2C1 JUMPI DUP1 PUSH1 0x3 NOT CALLDATASIZE ADD SLT PUSH2 0x2C1 JUMPI PUSH1 0x20 PUSH1 0x9 SLOAD PUSH1 0x40 MLOAD SWAP1 DUP2 MSTORE RETURN JUMPDEST POP CALLVALUE PUSH2 0x2C1 JUMPI PUSH1 0x20 DUP1 PUSH1 0x3 NOT CALLDATASIZE ADD SLT PUSH2 0xA82 JUMPI PUSH1 0x4 CALLDATALOAD DUP1 DUP4 MSTORE PUSH1 0xA DUP3 MSTORE PUSH1 0x40 DUP4 KECCAK256 DUP1 SLOAD SWAP2 SWAP3 SWAP2 PUSH1 0x1 PUSH1 0x1 PUSH1 0xA0 SHL SUB SWAP1 DUP2 AND CALLER SUB PUSH2 0x3EA JUMPI DUP4 DUP6 MSTORE PUSH1 0xD DUP4 MSTORE PUSH1 0x40 DUP6 KECCAK256 SWAP1 PUSH1 0x1 PUSH1 0x40 MLOAD SWAP3 PUSH2 0x325C DUP5 PUSH2 0x3611 JUMP JUMPDEST DUP3 DUP2 SLOAD AND DUP5 MSTORE ADD SLOAD DUP5 DUP4 ADD SWAP1 DUP1 DUP3 MSTORE ISZERO PUSH2 0x32EC JUMPI MLOAD TIMESTAMP LT PUSH2 0x32DA JUMPI PUSH32 0xEA983EF69798673FD095EAF6CE96E30087E2403D023C0B66930487E5216D5387 SWAP4 DUP2 PUSH1 0xC PUSH1 0x40 SWAP6 ADD SWAP4 DUP5 SLOAD SWAP5 DUP3 DUP3 MLOAD AND PUSH1 0x1 PUSH1 0x1 PUSH1 0x60 SHL SUB PUSH1 0xA0 SHL DUP8 AND OR SWAP1 SSTORE DUP8 DUP10 MSTORE PUSH1 0xD DUP4 MSTORE DUP9 PUSH1 0x1 DUP8 DUP3 KECCAK256 DUP3 DUP2 SSTORE ADD SSTORE MLOAD AND SWAP2 DUP5 MLOAD SWAP4 AND DUP4 MSTORE DUP3 ADD MSTORE LOG2 DUP1 RETURN JUMPDEST PUSH1 0x40 MLOAD PUSH4 0x621E25C3 PUSH1 0xE0 SHL DUP2 MSTORE PUSH1 0x4 SWAP1 REVERT JUMPDEST PUSH1 0x40 MLOAD PUSH4 0x147FDE5F PUSH1 0xE3 SHL DUP2 MSTORE PUSH1 0x4 SWAP1 REVERT JUMPDEST POP CALLVALUE PUSH2 0x2C1 JUMPI DUP1 PUSH1 0x3 NOT CALLDATASIZE ADD SLT PUSH2 0x2C1 JUMPI PUSH1 0xE SLOAD PUSH1 0x40 MLOAD PUSH1 0x1 PUSH1 0x1 PUSH1 0xA0 SHL SUB SWAP1 SWAP2 AND DUP2 MSTORE PUSH1 0x20 SWAP1 RETURN JUMPDEST POP CALLVALUE PUSH2 0x2C1 JUMPI DUP1 PUSH1 0x3 NOT CALLDATASIZE ADD SLT PUSH2 0x2C1 JUMPI PUSH1 0xF SLOAD PUSH1 0x40 MLOAD PUSH1 0x1 PUSH1 0x1 PUSH1 0xA0 SHL SUB SWAP1 SWAP2 AND DUP2 MSTORE PUSH1 0x20 SWAP1 RETURN JUMPDEST POP CALLVALUE PUSH2 0x2C1 JUMPI PUSH1 0x20 CALLDATASIZE PUSH1 0x3 NOT ADD SLT PUSH2 0x2C1 JUMPI PUSH1 0x40 PUSH1 0x80 SWAP2 PUSH1 0x4 CALLDATALOAD DUP2 MSTORE PUSH1 0xA PUSH1 0x20 MSTORE KECCAK256 PUSH1 0xB DUP2 ADD SLOAD SWAP1 PUSH1 0x4 PUSH1 0x1 DUP1 PUSH1 0xA0 SHL SUB PUSH1 0xC DUP4 ADD SLOAD AND SWAP2 ADD SLOAD PUSH1 0x6 SLOAD SWAP2 PUSH1 0x40 MLOAD SWAP4 DUP5 MSTORE PUSH1 0x20 DUP5 ADD MSTORE PUSH1 0x40 DUP4 ADD MSTORE PUSH1 0x60 DUP3 ADD MSTORE RETURN JUMPDEST POP CALLVALUE PUSH2 0x2C1 JUMPI PUSH1 0xE0 CALLDATASIZE PUSH1 0x3 NOT ADD SLT PUSH2 0x2C1 JUMPI PUSH1 0x44 CALLDATALOAD PUSH1 0x4 CALLDATALOAD PUSH1 0x84 CALLDATALOAD PUSH1 0xFF DUP2 AND SWAP1 PUSH1 0x24 CALLDATALOAD SWAP1 PUSH1 0x64 CALLDATALOAD DUP4 DUP3 SUB PUSH2 0x34F6 JUMPI PUSH1 0xA4 CALLDATALOAD SWAP1 PUSH1 0xFF DUP3 AND DUP3 SUB PUSH2 0x1045 JUMPI PUSH2 0x33E9 PUSH2 0x39C1 JUMP JUMPDEST DUP6 DUP9 MSTORE PUSH1 0xA PUSH1 0x20 MSTORE PUSH1 0x40 DUP9 KECCAK256 DUP1 SLOAD SWAP1 SWAP8 PUSH1 0x1 PUSH1 0x1 PUSH1 0xA0 SHL SUB SWAP6 SWAP1 SWAP2 DUP7 AND CALLER SUB PUSH2 0x3EA JUMPI PUSH2 0x3418 PUSH2 0x3460 SWAP6 PUSH2 0x39DF JUMP JUMPDEST PUSH2 0x3421 DUP5 PUSH2 0x3A25 JUMP JUMPDEST PUSH2 0x342C DUP4 DUP4 DUP4 PUSH2 0x3A6B JUMP JUMPDEST PUSH1 0x6 DUP10 ADD SSTORE PUSH1 0x7 DUP9 ADD SSTORE PUSH1 0x8 DUP8 ADD SSTORE PUSH1 0x9 DUP7 ADD SWAP4 PUSH1 0xFF NOT DUP6 SLOAD AND OR DUP5 SSTORE DUP4 SWAP1 PUSH2 0xFF00 DUP3 SLOAD SWAP2 PUSH1 0x8 SHL AND SWAP1 PUSH2 0xFF00 NOT AND OR SWAP1 SSTORE JUMP JUMPDEST PUSH2 0xFFFF DUP1 DUP4 SLOAD PUSH1 0x10 SHR AND SWAP1 DUP2 EQ PUSH2 0x510 JUMPI PUSH32 0xA417EE948A5C9D2786613A25B5C7344175C18EA547F629C63F7DE4CEAACB9098 SWAP3 PUSH1 0x20 SWAP3 PUSH1 0xFF SWAP3 PUSH1 0x5 SWAP3 PUSH2 0x34C8 SWAP2 DUP1 ISZERO PUSH2 0x34E3 JUMPI PUSH2 0x34AF SWAP1 PUSH2 0x3792 JUMP JUMPDEST PUSH4 0xFFFF0000 DUP3 SLOAD SWAP2 PUSH1 0x10 SHL AND SWAP1 PUSH4 0xFFFF0000 NOT AND OR SWAP1 SSTORE JUMP JUMPDEST PUSH1 0xC4 CALLDATALOAD PUSH1 0xA DUP9 ADD SSTORE DUP7 SLOAD AND SWAP6 ADD SLOAD AND PUSH1 0x40 MLOAD SWAP1 ISZERO ISZERO DUP2 MSTORE LOG3 DUP1 RETURN JUMPDEST POP DUP1 SLOAD PUSH4 0xFFFF0000 NOT AND PUSH3 0x10000 OR SWAP1 SSTORE JUMP JUMPDEST DUP7 DUP1 REVERT JUMPDEST PUSH1 0xE4 CALLDATALOAD SWAP1 PUSH1 0xFF DUP3 AND DUP3 SUB PUSH2 0x54E JUMPI JUMP JUMPDEST PUSH2 0x104 CALLDATALOAD SWAP1 PUSH1 0xFF DUP3 AND DUP3 SUB PUSH2 0x54E JUMPI JUMP JUMPDEST PUSH1 0x24 CALLDATALOAD SWAP1 PUSH1 0xFF DUP3 AND DUP3 SUB PUSH2 0x54E JUMPI JUMP JUMPDEST PUSH1 0x4 CALLDATALOAD SWAP1 PUSH1 0x1 PUSH1 0x1 PUSH1 0xA0 SHL SUB DUP3 AND DUP3 SUB PUSH2 0x54E JUMPI JUMP JUMPDEST PUSH2 0x164 CALLDATALOAD SWAP1 PUSH1 0x1 PUSH1 0x1 PUSH1 0xA0 SHL SUB DUP3 AND DUP3 SUB PUSH2 0x54E JUMPI JUMP JUMPDEST PUSH1 0x24 CALLDATALOAD SWAP1 PUSH1 0x1 PUSH1 0x1 PUSH1 0xA0 SHL SUB DUP3 AND DUP3 SUB PUSH2 0x54E JUMPI JUMP JUMPDEST CALLVALUE PUSH2 0x54E JUMPI PUSH1 0x0 CALLDATASIZE PUSH1 0x3 NOT ADD SLT PUSH2 0x54E JUMPI PUSH1 0x20 PUSH1 0x40 MLOAD PUSH1 0x1 DUP2 MSTORE RETURN JUMPDEST SWAP2 DUP2 PUSH1 0x1F DUP5 ADD SLT ISZERO PUSH2 0x54E JUMPI DUP3 CALLDATALOAD SWAP2 PUSH1 0x1 PUSH1 0x1 PUSH1 0x40 SHL SUB DUP4 GT PUSH2 0x54E JUMPI PUSH1 0x20 DUP4 DUP2 DUP7 ADD SWAP6 ADD ADD GT PUSH2 0x54E JUMPI JUMP JUMPDEST PUSH1 0x44 CALLDATALOAD SWAP1 PUSH2 0xFFFF DUP3 AND DUP3 SUB PUSH2 0x54E JUMPI JUMP JUMPDEST PUSH1 0x64 CALLDATALOAD SWAP1 DUP2 ISZERO ISZERO DUP3 SUB PUSH2 0x54E JUMPI JUMP JUMPDEST SWAP1 PUSH1 0x1 DUP3 DUP2 SHR SWAP3 AND DUP1 ISZERO PUSH2 0x3607 JUMPI JUMPDEST PUSH1 0x20 DUP4 LT EQ PUSH2 0x35F1 JUMPI JUMP JUMPDEST PUSH4 0x4E487B71 PUSH1 0xE0 SHL PUSH1 0x0 MSTORE PUSH1 0x22 PUSH1 0x4 MSTORE PUSH1 0x24 PUSH1 0x0 REVERT JUMPDEST SWAP2 PUSH1 0x7F AND SWAP2 PUSH2 0x35E6 JUMP JUMPDEST PUSH1 0x40 DUP2 ADD SWAP1 DUP2 LT PUSH1 0x1 PUSH1 0x1 PUSH1 0x40 SHL SUB DUP3 GT OR PUSH2 0x362C JUMPI PUSH1 0x40 MSTORE JUMP JUMPDEST PUSH4 0x4E487B71 PUSH1 0xE0 SHL PUSH1 0x0 MSTORE PUSH1 0x41 PUSH1 0x4 MSTORE PUSH1 0x24 PUSH1 0x0 REVERT JUMPDEST PUSH1 0xE0 DUP2 ADD SWAP1 DUP2 LT PUSH1 0x1 PUSH1 0x1 PUSH1 0x40 SHL SUB DUP3 GT OR PUSH2 0x362C JUMPI PUSH1 0x40 MSTORE JUMP JUMPDEST PUSH2 0x1E0 DUP2 ADD SWAP1 DUP2 LT PUSH1 0x1 PUSH1 0x1 PUSH1 0x40 SHL SUB DUP3 GT OR PUSH2 0x362C JUMPI PUSH1 0x40 MSTORE JUMP JUMPDEST PUSH1 0x1 PUSH1 0x1 PUSH1 0x40 SHL SUB DUP2 GT PUSH2 0x362C JUMPI PUSH1 0x40 MSTORE JUMP JUMPDEST SWAP1 PUSH1 0x1F DUP1 NOT SWAP2 ADD AND DUP2 ADD SWAP1 DUP2 LT PUSH1 0x1 PUSH1 0x1 PUSH1 0x40 SHL SUB DUP3 GT OR PUSH2 0x362C JUMPI PUSH1 0x40 MSTORE JUMP JUMPDEST SWAP1 PUSH1 0x40 MLOAD SWAP2 DUP3 PUSH1 0x0 DUP3 SLOAD PUSH2 0x36C0 DUP2 PUSH2 0x35D7 JUMP JUMPDEST SWAP1 DUP2 DUP5 MSTORE PUSH1 0x20 SWAP5 PUSH1 0x1 SWAP2 PUSH1 0x1 DUP2 AND SWAP1 DUP2 PUSH1 0x0 EQ PUSH2 0x3730 JUMPI POP PUSH1 0x1 EQ PUSH2 0x36F1 JUMPI JUMPDEST POP POP POP PUSH2 0x36EF SWAP3 POP SUB DUP4 PUSH2 0x368C JUMP JUMPDEST JUMP JUMPDEST PUSH1 0x0 SWAP1 DUP2 MSTORE DUP6 DUP2 KECCAK256 SWAP6 SWAP4 POP SWAP2 SWAP1 JUMPDEST DUP2 DUP4 LT PUSH2 0x3718 JUMPI POP POP PUSH2 0x36EF SWAP4 POP DUP3 ADD ADD CODESIZE DUP1 DUP1 PUSH2 0x36E0 JUMP JUMPDEST DUP6 SLOAD DUP9 DUP5 ADD DUP6 ADD MSTORE SWAP5 DUP6 ADD SWAP5 DUP8 SWAP5 POP SWAP2 DUP4 ADD SWAP2 PUSH2 0x36FF JUMP JUMPDEST SWAP3 POP POP POP PUSH2 0x36EF SWAP5 SWAP3 POP PUSH1 0xFF NOT AND DUP3 DUP5 ADD MSTORE ISZERO ISZERO PUSH1 0x5 SHL DUP3 ADD ADD CODESIZE DUP1 DUP1 PUSH2 0x36E0 JUMP JUMPDEST SWAP2 SWAP1 DUP3 MLOAD SWAP3 DUP4 DUP3 MSTORE PUSH1 0x0 JUMPDEST DUP5 DUP2 LT PUSH2 0x377E JUMPI POP POP DUP3 PUSH1 0x0 PUSH1 0x20 DUP1 SWAP5 SWAP6 DUP5 ADD ADD MSTORE PUSH1 0x1F DUP1 NOT SWAP2 ADD AND ADD ADD SWAP1 JUMP JUMPDEST PUSH1 0x20 DUP2 DUP4 ADD DUP2 ADD MLOAD DUP5 DUP4 ADD DUP3 ADD MSTORE ADD PUSH2 0x375D JUMP JUMPDEST SWAP1 PUSH1 0x1 PUSH2 0xFFFF DUP1 SWAP4 AND ADD SWAP2 DUP3 GT PUSH2 0x37A5 JUMPI JUMP JUMPDEST PUSH4 0x4E487B71 PUSH1 0xE0 SHL PUSH1 0x0 MSTORE PUSH1 0x11 PUSH1 0x4 MSTORE PUSH1 0x24 PUSH1 0x0 REVERT JUMPDEST PUSH1 0x1 PUSH1 0x1 PUSH1 0x40 SHL SUB DUP2 GT PUSH2 0x362C JUMPI PUSH1 0x1F ADD PUSH1 0x1F NOT AND PUSH1 0x20 ADD SWAP1 JUMP JUMPDEST SWAP3 SWAP2 SWAP3 PUSH2 0x37E2 DUP3 PUSH2 0x37BB JUMP JUMPDEST SWAP2 PUSH2 0x37F0 PUSH1 0x40 MLOAD SWAP4 DUP5 PUSH2 0x368C JUMP JUMPDEST DUP3 SWAP5 DUP2 DUP5 MSTORE DUP2 DUP4 ADD GT PUSH2 0x54E JUMPI DUP3 DUP2 PUSH1 0x20 SWAP4 DUP5 PUSH1 0x0 SWAP7 ADD CALLDATACOPY ADD ADD MSTORE JUMP JUMPDEST SWAP2 SWAP1 DUP3 SUB SWAP2 DUP3 GT PUSH2 0x37A5 JUMPI JUMP JUMPDEST PUSH1 0x0 NOT DUP2 EQ PUSH2 0x37A5 JUMPI PUSH1 0x1 ADD SWAP1 JUMP JUMPDEST SWAP2 SWAP1 DUP3 ADD DUP1 SWAP3 GT PUSH2 0x37A5 JUMPI JUMP JUMPDEST SWAP1 CALLDATALOAD SWAP1 PUSH1 0x1E NOT DUP2 CALLDATASIZE SUB ADD DUP3 SLT ISZERO PUSH2 0x54E JUMPI ADD DUP1 CALLDATALOAD SWAP1 PUSH1 0x1 PUSH1 0x1 PUSH1 0x40 SHL SUB DUP3 GT PUSH2 0x54E JUMPI PUSH1 0x20 ADD SWAP2 DUP2 CALLDATASIZE SUB DUP4 SGT PUSH2 0x54E JUMPI JUMP JUMPDEST CALLDATALOAD PUSH1 0x1 PUSH1 0x1 PUSH1 0xA0 SHL SUB DUP2 AND DUP2 SUB PUSH2 0x54E JUMPI SWAP1 JUMP JUMPDEST SWAP1 DUP1 PUSH1 0x20 SWAP4 SWAP3 DUP2 DUP5 MSTORE DUP5 DUP5 ADD CALLDATACOPY PUSH1 0x0 DUP3 DUP3 ADD DUP5 ADD MSTORE PUSH1 0x1F ADD PUSH1 0x1F NOT AND ADD ADD SWAP1 JUMP JUMPDEST MLOAD SWAP1 PUSH1 0xFF DUP3 AND DUP3 SUB PUSH2 0x54E JUMPI JUMP JUMPDEST SWAP1 DUP2 PUSH1 0xE0 SWAP2 SUB SLT PUSH2 0x54E JUMPI PUSH1 0x40 MLOAD SWAP1 PUSH2 0x38C3 DUP3 PUSH2 0x3642 JUMP JUMPDEST DUP1 MLOAD DUP3 MSTORE PUSH2 0x38D3 PUSH1 0x20 DUP3 ADD PUSH2 0x389D JUMP JUMPDEST PUSH1 0x20 DUP4 ADD MSTORE PUSH2 0x38E4 PUSH1 0x40 DUP3 ADD PUSH2 0x389D JUMP JUMPDEST PUSH1 0x40 DUP4 ADD MSTORE PUSH1 0x60 DUP2 ADD MLOAD PUSH1 0x1 PUSH1 0x1 PUSH1 0x40 SHL SUB DUP2 AND DUP2 SUB PUSH2 0x54E JUMPI PUSH1 0x60 DUP4 ADD MSTORE PUSH1 0x80 DUP2 ADD MLOAD SWAP1 DUP2 ISZERO ISZERO DUP3 SUB PUSH2 0x54E JUMPI PUSH1 0xC0 SWAP2 PUSH1 0x80 DUP5 ADD MSTORE PUSH1 0xA0 DUP2 ADD MLOAD PUSH1 0xA0 DUP5 ADD MSTORE ADD MLOAD PUSH2 0xFFFF DUP2 AND DUP2 SUB PUSH2 0x54E JUMPI PUSH1 0xC0 DUP3 ADD MSTORE SWAP1 JUMP JUMPDEST SWAP1 DUP2 PUSH1 0x20 SWAP2 SUB SLT PUSH2 0x54E JUMPI MLOAD PUSH1 0x1 PUSH1 0x1 PUSH1 0xA0 SHL SUB DUP2 AND DUP2 SUB PUSH2 0x54E JUMPI SWAP1 JUMP JUMPDEST DUP2 DUP2 MUL SWAP3 SWAP2 DUP2 ISZERO SWAP2 DUP5 DIV EQ OR ISZERO PUSH2 0x37A5 JUMPI JUMP JUMPDEST PUSH2 0xFFFF PUSH1 0xC0 DUP1 SWAP3 DUP1 MLOAD DUP6 MSTORE PUSH1 0xFF PUSH1 0x20 DUP3 ADD MLOAD AND PUSH1 0x20 DUP7 ADD MSTORE PUSH1 0xFF PUSH1 0x40 DUP3 ADD MLOAD AND PUSH1 0x40 DUP7 ADD MSTORE PUSH1 0x1 PUSH1 0x1 PUSH1 0x40 SHL SUB PUSH1 0x60 DUP3 ADD MLOAD AND PUSH1 0x60 DUP7 ADD MSTORE PUSH1 0x80 DUP2 ADD MLOAD ISZERO ISZERO PUSH1 0x80 DUP7 ADD MSTORE PUSH1 0xA0 DUP2 ADD MLOAD PUSH1 0xA0 DUP7 ADD MSTORE ADD MLOAD AND SWAP2 ADD MSTORE JUMP JUMPDEST PUSH1 0xFF PUSH1 0x3 SLOAD AND PUSH2 0x39CD JUMPI JUMP JUMPDEST PUSH1 0x40 MLOAD PUSH4 0xD93C0665 PUSH1 0xE0 SHL DUP2 MSTORE PUSH1 0x4 SWAP1 REVERT JUMPDEST PUSH1 0xFF AND PUSH1 0x1 DUP2 EQ SWAP1 DUP2 ISZERO PUSH2 0x3A1A JUMPI JUMPDEST DUP2 ISZERO PUSH2 0x3A0F JUMPI JUMPDEST POP ISZERO PUSH2 0x39FD JUMPI JUMP JUMPDEST PUSH1 0x40 MLOAD PUSH4 0xEB911D5 PUSH1 0xE0 SHL DUP2 MSTORE PUSH1 0x4 SWAP1 REVERT JUMPDEST PUSH1 0x3 SWAP2 POP EQ CODESIZE PUSH2 0x39F5 JUMP JUMPDEST PUSH1 0x2 DUP2 EQ SWAP2 POP PUSH2 0x39EE JUMP JUMPDEST PUSH1 0xFF AND PUSH1 0x1 DUP2 EQ SWAP1 DUP2 ISZERO PUSH2 0x3A60 JUMPI JUMPDEST DUP2 ISZERO PUSH2 0x3A55 JUMPI JUMPDEST POP ISZERO PUSH2 0x3A43 JUMPI JUMP JUMPDEST PUSH1 0x40 MLOAD PUSH4 0x2ABF7D0D PUSH1 0xE2 SHL DUP2 MSTORE PUSH1 0x4 SWAP1 REVERT JUMPDEST PUSH1 0x3 SWAP2 POP EQ CODESIZE PUSH2 0x3A3B JUMP JUMPDEST PUSH1 0x2 DUP2 EQ SWAP2 POP PUSH2 0x3A34 JUMP JUMPDEST DUP1 ISZERO DUP1 PUSH2 0x3AAA JUMPI JUMPDEST PUSH2 0xABC JUMPI PUSH5 0xE8D4A51000 DUP1 SWAP2 GT SWAP1 DUP2 ISZERO PUSH2 0x3AA0 JUMPI JUMPDEST POP PUSH2 0xAAA JUMPI PUSH2 0x3A97 JUMPI PUSH2 0xB5B JUMPI JUMP JUMPDEST PUSH1 0x1 GT PUSH2 0xB5B JUMPI JUMP JUMPDEST SWAP1 POP DUP2 GT CODESIZE PUSH2 0x3A88 JUMP JUMPDEST POP DUP2 ISZERO PUSH2 0x3A73 JUMP JUMPDEST PUSH1 0x0 SLOAD PUSH1 0x1 PUSH1 0x1 PUSH1 0xA0 SHL SUB AND CALLER SUB PUSH2 0x119F JUMPI JUMP JUMPDEST PUSH1 0x2 DUP1 SLOAD EQ PUSH2 0x3AD5 JUMPI PUSH1 0x2 DUP1 SSTORE JUMP JUMPDEST PUSH1 0x40 MLOAD PUSH4 0x3EE5AEB5 PUSH1 0xE0 SHL DUP2 MSTORE PUSH1 0x4 SWAP1 REVERT JUMPDEST PUSH2 0x2710 LT PUSH2 0x3AF1 JUMPI JUMP JUMPDEST PUSH1 0x40 MLOAD PUSH4 0xC6CC5D7F PUSH1 0xE0 SHL DUP2 MSTORE PUSH1 0x4 SWAP1 REVERT JUMPDEST PUSH2 0x2710 SWAP2 PUSH2 0x3B10 SWAP2 PUSH2 0x3829 JUMP JUMPDEST GT PUSH2 0x3B17 JUMPI JUMP JUMPDEST PUSH1 0x40 MLOAD PUSH3 0xC9A16B PUSH1 0xE3 SHL DUP2 MSTORE PUSH1 0x4 SWAP1 REVERT JUMPDEST DUP1 ISZERO ISZERO SWAP1 DUP2 PUSH2 0x3B4B JUMPI JUMPDEST POP PUSH2 0x3B39 JUMPI JUMP JUMPDEST PUSH1 0x40 MLOAD PUSH4 0x2E0D2F75 PUSH1 0xE0 SHL DUP2 MSTORE PUSH1 0x4 SWAP1 REVERT JUMPDEST PUSH1 0x64 DUP2 LT SWAP2 POP DUP2 ISZERO PUSH2 0x3B5F JUMPI JUMPDEST POP CODESIZE PUSH2 0x3B32 JUMP JUMPDEST PUSH4 0x3B9ACA00 SWAP2 POP GT CODESIZE PUSH2 0x3B58 JUMP JUMPDEST PUSH1 0x1 PUSH1 0x1 PUSH1 0xA0 SHL SUB DUP2 AND ISZERO ISZERO SWAP1 DUP2 PUSH2 0x3B99 JUMPI JUMPDEST POP PUSH2 0x3B87 JUMPI JUMP JUMPDEST PUSH1 0x40 MLOAD PUSH4 0x11970E2D PUSH1 0xE3 SHL DUP2 MSTORE PUSH1 0x4 SWAP1 REVERT JUMPDEST SWAP1 POP EXTCODESIZE ISZERO ISZERO CODESIZE PUSH2 0x3B80 JUMP JUMPDEST SWAP1 PUSH1 0xFF AND DUP1 PUSH2 0x3BBD JUMPI POP PUSH1 0x6 SWAP2 POP ADD SLOAD DUP1 ISZERO PUSH2 0xABC JUMPI SWAP1 JUMP JUMPDEST PUSH1 0x1 SUB PUSH2 0xAE0 JUMPI PUSH1 0x7 ADD SLOAD SWAP1 DUP2 ISZERO PUSH2 0xABC JUMPI PUSH2 0xFFFF AND DUP1 ISZERO PUSH2 0xB5B JUMPI PUSH2 0x3BE2 SWAP2 PUSH2 0x3958 JUMP JUMPDEST PUSH5 0xE8D4A51000 DUP2 GT PUSH2 0xAAA JUMPI SWAP1 JUMP JUMPDEST PUSH1 0x10 SLOAD SWAP2 SWAP6 PUSH1 0x1 PUSH1 0x1 PUSH1 0xA0 SHL SUB SWAP6 SWAP5 SWAP1 SWAP4 SWAP1 SWAP3 DUP7 AND DUP1 ISZERO PUSH2 0x3CB0 JUMPI PUSH2 0x2710 SWAP8 DUP9 PUSH1 0x6 SLOAD PUSH2 0x3C1E SWAP1 DUP7 PUSH2 0x3958 JUMP JUMPDEST DIV SWAP9 PUSH2 0x3C2B DUP11 SWAP3 DUP7 PUSH2 0x3958 JUMP JUMPDEST DIV SWAP8 DUP9 SWAP3 DUP4 PUSH2 0x3C3A DUP5 DUP9 PUSH2 0x380D JUMP JUMPDEST SWAP1 PUSH2 0x3C44 SWAP2 PUSH2 0x380D JUMP JUMPDEST PUSH1 0x40 MLOAD PUSH4 0x23B872DD PUSH1 0xE0 SHL PUSH1 0x20 DUP3 ADD MSTORE PUSH1 0x1 PUSH1 0x1 PUSH1 0xA0 SHL SUB SWAP11 SWAP1 SWAP11 AND PUSH1 0x24 DUP12 ADD MSTORE ADDRESS PUSH1 0x44 DUP12 ADD MSTORE PUSH1 0x64 DUP1 DUP12 ADD SWAP8 SWAP1 SWAP8 MSTORE SWAP6 DUP10 MSTORE SWAP5 SWAP8 DUP9 SWAP6 SWAP1 PUSH2 0x3C87 PUSH1 0x84 DUP3 PUSH2 0x368C JUMP JUMPDEST PUSH2 0x3C90 SWAP2 PUSH2 0x3D85 JUMP JUMPDEST PUSH1 0x7 SLOAD AND SWAP1 PUSH2 0x3C9E SWAP2 PUSH2 0x3D68 JUMP JUMPDEST PUSH2 0x3CA7 SWAP2 PUSH2 0x3D68 JUMP JUMPDEST PUSH2 0x36EF SWAP2 PUSH2 0x3D68 JUMP JUMPDEST PUSH1 0x40 MLOAD PUSH4 0xA51AD605 PUSH1 0xE0 SHL DUP2 MSTORE PUSH1 0x4 SWAP1 REVERT JUMPDEST PUSH1 0x40 MLOAD PUSH4 0xA9059CBB PUSH1 0xE0 SHL PUSH1 0x20 DUP3 ADD MSTORE PUSH1 0x1 PUSH1 0x1 PUSH1 0xA0 SHL SUB SWAP3 SWAP1 SWAP3 AND PUSH1 0x24 DUP4 ADD MSTORE PUSH1 0x44 DUP1 DUP4 ADD SWAP4 SWAP1 SWAP4 MSTORE SWAP2 DUP2 MSTORE PUSH2 0x36EF SWAP2 PUSH2 0x3CFE PUSH1 0x64 DUP4 PUSH2 0x368C JUMP JUMPDEST PUSH2 0x3D85 JUMP JUMPDEST DUP2 ISZERO PUSH2 0x3D64 JUMPI PUSH1 0x0 SWAP2 DUP3 SWAP2 DUP3 SWAP2 DUP3 SWAP2 PUSH1 0x1 PUSH1 0x1 PUSH1 0xA0 SHL SUB AND GAS CALL RETURNDATASIZE ISZERO PUSH2 0x3D5F JUMPI RETURNDATASIZE PUSH2 0x3D2D DUP2 PUSH2 0x37BB JUMP JUMPDEST SWAP1 PUSH2 0x3D3B PUSH1 0x40 MLOAD SWAP3 DUP4 PUSH2 0x368C JUMP JUMPDEST DUP2 MSTORE PUSH1 0x0 PUSH1 0x20 RETURNDATASIZE SWAP3 ADD RETURNDATACOPY JUMPDEST ISZERO PUSH2 0x3D4D JUMPI JUMP JUMPDEST PUSH1 0x40 MLOAD PUSH4 0x12171D83 PUSH1 0xE3 SHL DUP2 MSTORE PUSH1 0x4 SWAP1 REVERT JUMPDEST PUSH2 0x3D46 JUMP JUMPDEST POP POP JUMP JUMPDEST SWAP1 DUP1 ISZERO PUSH2 0x3D64 JUMPI PUSH1 0x10 SLOAD PUSH2 0x36EF SWAP3 SWAP1 PUSH1 0x1 PUSH1 0x1 PUSH1 0xA0 SHL SUB AND PUSH2 0x3CC2 JUMP JUMPDEST SWAP1 PUSH1 0x0 PUSH1 0x20 SWAP2 DUP3 DUP2 MLOAD SWAP2 ADD DUP3 DUP6 GAS CALL ISZERO PUSH2 0x3DE1 JUMPI PUSH1 0x0 MLOAD RETURNDATASIZE PUSH2 0x3DD8 JUMPI POP PUSH1 0x1 PUSH1 0x1 PUSH1 0xA0 SHL SUB DUP2 AND EXTCODESIZE ISZERO JUMPDEST PUSH2 0x3DB6 JUMPI POP JUMP JUMPDEST PUSH1 0x40 MLOAD PUSH4 0x5274AFE7 PUSH1 0xE0 SHL DUP2 MSTORE PUSH1 0x1 PUSH1 0x1 PUSH1 0xA0 SHL SUB SWAP1 SWAP2 AND PUSH1 0x4 DUP3 ADD MSTORE PUSH1 0x24 SWAP1 REVERT JUMPDEST PUSH1 0x1 EQ ISZERO PUSH2 0x3DAF JUMP JUMPDEST PUSH1 0x40 MLOAD RETURNDATASIZE PUSH1 0x0 DUP3 RETURNDATACOPY RETURNDATASIZE SWAP1 REVERT INVALID STOP LOG1 PUSH31 0x39748F90DCC231579B95804358753DC835ACD3F3972717EFC03A8B5511C309 0xE PUSH0 0xBC EXTCODEHASH SWAP3 0xA6 MSTORE DUP4 0xD5 DUP14 0xEC 0xE4 0xAE PUSH10 0x9CC0CA8E124DBC474240 0xBB BYTE 0xED SIGNEXTEND PUSH24 0xE7A2646970667358221220C703588B21050E7195CBCAAE71 DUP1 0xCF PUSH13 0x75B86284B28DF42163568E7F17 0xF7 LT SWAP6 PUSH5 0x736F6C6343 STOP ADDMOD XOR STOP CALLER PUSH1 0x80 CALLVALUE PUSH3 0x3D5 JUMPI PUSH1 0x1F SWAP1 PUSH1 0x1 PUSH1 0x1 PUSH1 0x40 SHL SUB SWAP1 PUSH1 0x1F NOT SWAP1 PUSH3 0x215C CODESIZE DUP2 SWAP1 SUB DUP6 DUP2 ADD DUP5 AND DUP4 ADD DUP6 DUP2 GT DUP5 DUP3 LT OR PUSH3 0x3BF JUMPI DUP4 SWAP3 DUP3 SWAP2 PUSH1 0x40 MSTORE DUP4 CODECOPY PUSH1 0x20 SWAP3 DUP4 SWAP2 DUP2 ADD SUB SLT PUSH3 0x3D5 JUMPI MLOAD PUSH1 0x1 PUSH1 0x1 PUSH1 0xA0 SHL SUB SWAP5 DUP6 DUP3 AND SWAP5 SWAP2 DUP6 SWAP1 SUB PUSH3 0x3D5 JUMPI PUSH3 0x6A PUSH3 0x3DA JUMP JUMPDEST SWAP3 PUSH1 0x15 DUP5 MSTORE PUSH32 0x4D61726B6574706C6163654149204C6963656E73650000000000000000000000 DUP2 DUP6 ADD MSTORE PUSH3 0x9E PUSH3 0x3DA JUMP JUMPDEST SWAP1 PUSH1 0x7 DUP3 MSTORE PUSH7 0x4D5041494C4943 PUSH1 0xC8 SHL DUP2 DUP4 ADD MSTORE DUP5 MLOAD SWAP6 DUP5 DUP8 GT PUSH3 0x3BF JUMPI PUSH1 0x0 SWAP7 DUP8 SLOAD SWAP7 PUSH1 0x1 SWAP8 DUP9 DUP2 DUP2 SHR SWAP2 AND DUP1 ISZERO PUSH3 0x3B4 JUMPI JUMPDEST DUP6 DUP3 LT EQ PUSH3 0x3A0 JUMPI SWAP1 DUP2 DUP8 DUP5 SWAP4 GT PUSH3 0x34D JUMPI JUMPDEST POP DUP5 SWAP1 DUP8 DUP4 GT PUSH1 0x1 EQ PUSH3 0x2EC JUMPI DUP11 SWAP3 PUSH3 0x2E0 JUMPI JUMPDEST POP POP PUSH1 0x0 NOT PUSH1 0x3 DUP4 SWAP1 SHL SHR NOT AND SWAP1 DUP8 SHL OR DUP8 SSTORE JUMPDEST DUP3 MLOAD SWAP5 DUP6 GT PUSH3 0x2CC JUMPI DUP6 SLOAD DUP7 DUP2 DUP2 SHR SWAP2 AND DUP1 ISZERO PUSH3 0x2C1 JUMPI JUMPDEST DUP4 DUP3 LT EQ PUSH3 0x2AD JUMPI SWAP1 DUP2 DUP6 DUP8 SWAP7 SWAP6 SWAP5 SWAP4 GT PUSH3 0x254 JUMPI JUMPDEST POP DUP2 SWAP4 DUP6 GT PUSH1 0x1 EQ PUSH3 0x1EF JUMPI POP POP DUP6 SWAP3 PUSH3 0x1E3 JUMPI JUMPDEST POP POP PUSH1 0x0 NOT PUSH1 0x3 DUP4 SWAP1 SHL SHR NOT AND SWAP1 DUP3 SHL OR SWAP1 SSTORE JUMPDEST CALLER ISZERO PUSH3 0x1CB JUMPI PUSH1 0x6 SLOAD PUSH1 0x1 DUP1 PUSH1 0xA0 SHL SUB NOT SWAP2 CALLER DUP4 DUP4 AND OR PUSH1 0x6 SSTORE PUSH32 0x8BE0079C531659141344CD1FD0A4F28419497F9722A3DAAFE3B4186F6B6457E0 PUSH1 0x40 MLOAD SWAP6 CALLER SWAP4 AND SWAP2 DUP1 LOG3 PUSH1 0x7 SLOAD AND OR PUSH1 0x7 SSTORE PUSH2 0x1D61 SWAP1 DUP2 PUSH3 0x3FB DUP3 CODECOPY RETURN JUMPDEST PUSH1 0x24 SWAP1 PUSH1 0x40 MLOAD SWAP1 PUSH4 0x1E4FBDF7 PUSH1 0xE0 SHL DUP3 MSTORE PUSH1 0x4 DUP3 ADD MSTORE REVERT JUMPDEST ADD MLOAD SWAP1 POP CODESIZE DUP1 PUSH3 0x15C JUMP JUMPDEST DUP7 SWAP6 SWAP4 SWAP3 SWAP2 SWAP4 AND DUP6 DUP9 MSTORE DUP4 DUP9 KECCAK256 SWAP4 DUP9 SWAP1 JUMPDEST DUP3 DUP3 LT PUSH3 0x23A JUMPI POP POP DUP5 GT PUSH3 0x220 JUMPI JUMPDEST POP POP POP DUP2 SHL ADD SWAP1 SSTORE PUSH3 0x170 JUMP JUMPDEST ADD MLOAD PUSH1 0x0 NOT PUSH1 0xF8 DUP5 PUSH1 0x3 SHL AND SHR NOT AND SWAP1 SSTORE CODESIZE DUP1 DUP1 PUSH3 0x212 JUMP JUMPDEST DUP5 DUP5 ADD MLOAD DUP7 SSTORE DUP9 SWAP8 SWAP1 SWAP6 ADD SWAP5 SWAP4 DUP5 ADD SWAP4 SWAP1 DUP2 ADD SWAP1 PUSH3 0x200 JUMP JUMPDEST SWAP1 SWAP2 SWAP3 SWAP4 SWAP5 POP DUP7 DUP9 MSTORE DUP3 DUP9 KECCAK256 DUP6 DUP1 DUP9 ADD PUSH1 0x5 SHR DUP3 ADD SWAP3 DUP6 DUP10 LT PUSH3 0x2A3 JUMPI JUMPDEST SWAP2 DUP9 SWAP8 DUP11 SWAP3 SWAP8 SWAP7 SWAP6 SWAP5 SWAP4 ADD PUSH1 0x5 SHR ADD SWAP2 JUMPDEST DUP3 DUP2 LT PUSH3 0x294 JUMPI POP POP PUSH3 0x145 JUMP JUMPDEST DUP11 DUP2 SSTORE DUP9 SWAP8 POP DUP10 SWAP2 ADD PUSH3 0x284 JUMP JUMPDEST SWAP3 POP DUP2 SWAP3 PUSH3 0x273 JUMP JUMPDEST PUSH4 0x4E487B71 PUSH1 0xE0 SHL DUP9 MSTORE PUSH1 0x22 PUSH1 0x4 MSTORE PUSH1 0x24 DUP9 REVERT JUMPDEST SWAP1 PUSH1 0x7F AND SWAP1 PUSH3 0x12D JUMP JUMPDEST PUSH4 0x4E487B71 PUSH1 0xE0 SHL DUP8 MSTORE PUSH1 0x41 PUSH1 0x4 MSTORE PUSH1 0x24 DUP8 REVERT JUMPDEST ADD MLOAD SWAP1 POP CODESIZE DUP1 PUSH3 0xFF JUMP JUMPDEST SWAP1 DUP5 DUP11 SWAP5 AND SWAP2 DUP12 DUP1 MSTORE DUP7 DUP13 KECCAK256 SWAP3 DUP13 JUMPDEST DUP9 DUP3 DUP3 LT PUSH3 0x336 JUMPI POP POP DUP5 GT PUSH3 0x31C JUMPI JUMPDEST POP POP POP DUP2 SHL ADD DUP8 SSTORE PUSH3 0x113 JUMP JUMPDEST ADD MLOAD PUSH1 0x0 NOT PUSH1 0xF8 DUP5 PUSH1 0x3 SHL AND SHR NOT AND SWAP1 SSTORE CODESIZE DUP1 DUP1 PUSH3 0x30E JUMP JUMPDEST DUP4 DUP6 ADD MLOAD DUP7 SSTORE DUP14 SWAP8 SWAP1 SWAP6 ADD SWAP5 SWAP4 DUP5 ADD SWAP4 ADD PUSH3 0x2FB JUMP JUMPDEST SWAP1 SWAP2 POP DUP10 DUP1 MSTORE DUP5 DUP11 KECCAK256 DUP8 DUP1 DUP6 ADD PUSH1 0x5 SHR DUP3 ADD SWAP3 DUP8 DUP7 LT PUSH3 0x396 JUMPI JUMPDEST SWAP2 DUP12 SWAP2 DUP7 SWAP6 SWAP5 SWAP4 ADD PUSH1 0x5 SHR ADD SWAP2 JUMPDEST DUP3 DUP2 LT PUSH3 0x387 JUMPI POP POP PUSH3 0xE9 JUMP JUMPDEST DUP13 DUP2 SSTORE DUP6 SWAP5 POP DUP12 SWAP2 ADD PUSH3 0x377 JUMP JUMPDEST SWAP3 POP DUP2 SWAP3 PUSH3 0x369 JUMP JUMPDEST PUSH4 0x4E487B71 PUSH1 0xE0 SHL DUP11 MSTORE PUSH1 0x22 PUSH1 0x4 MSTORE PUSH1 0x24 DUP11 REVERT JUMPDEST SWAP1 PUSH1 0x7F AND SWAP1 PUSH3 0xD4 JUMP JUMPDEST PUSH4 0x4E487B71 PUSH1 0xE0 SHL PUSH1 0x0 MSTORE PUSH1 0x41 PUSH1 0x4 MSTORE PUSH1 0x24 PUSH1 0x0 REVERT JUMPDEST PUSH1 0x0 DUP1 REVERT JUMPDEST PUSH1 0x40 DUP1 MLOAD SWAP2 SWAP1 DUP3 ADD PUSH1 0x1 PUSH1 0x1 PUSH1 0x40 SHL SUB DUP2 GT DUP4 DUP3 LT OR PUSH3 0x3BF JUMPI PUSH1 0x40 MSTORE JUMP INVALID PUSH1 0x80 PUSH1 0x40 DUP2 DUP2 MSTORE PUSH1 0x4 DUP1 CALLDATASIZE LT ISZERO PUSH2 0x15 JUMPI PUSH1 0x0 DUP1 REVERT JUMPDEST PUSH1 0x0 SWAP3 DUP4 CALLDATALOAD PUSH1 0xE0 SHR SWAP1 DUP2 PUSH4 0x1FFC9A7 EQ PUSH2 0x100F JUMPI POP DUP1 PUSH4 0x6FDDE03 EQ PUSH2 0xF5E JUMPI DUP1 PUSH4 0x81812FC EQ PUSH2 0xF23 JUMPI DUP1 PUSH4 0x95EA7B3 EQ PUSH2 0xE47 JUMPI DUP1 PUSH4 0x162094C4 EQ PUSH2 0xCC5 JUMPI DUP1 PUSH4 0x18160DDD EQ PUSH2 0xCA6 JUMPI DUP1 PUSH4 0x23B872DD EQ PUSH2 0xC8E JUMPI DUP1 PUSH4 0x42842E0E EQ PUSH2 0xC5F JUMPI DUP1 PUSH4 0x55F804B3 EQ PUSH2 0xAD8 JUMPI DUP1 PUSH4 0x6352211E EQ PUSH2 0xAA7 JUMPI DUP1 PUSH4 0x70A08231 EQ PUSH2 0xA52 JUMPI DUP1 PUSH4 0x715018A6 EQ PUSH2 0x9F5 JUMPI DUP1 PUSH4 0x73AD6C2D EQ PUSH2 0x9B5 JUMPI DUP1 PUSH4 0x849B1B7E EQ PUSH2 0x8B2 JUMPI DUP1 PUSH4 0x8DA5CB5B EQ PUSH2 0x889 JUMPI DUP1 PUSH4 0x95D89B41 EQ PUSH2 0x79E JUMPI DUP1 PUSH4 0xA22CB465 EQ PUSH2 0x6FD JUMPI DUP1 PUSH4 0xABC8C7AF EQ PUSH2 0x6D4 JUMPI DUP1 PUSH4 0xB03FBFBB EQ PUSH2 0x482 JUMPI DUP1 PUSH4 0xB2DD1212 EQ PUSH2 0x371 JUMPI DUP1 PUSH4 0xB88D4FDE EQ PUSH2 0x2E0 JUMPI DUP1 PUSH4 0xC87B56DD EQ PUSH2 0x2A5 JUMPI DUP1 PUSH4 0xE985E9C5 EQ PUSH2 0x253 JUMPI DUP1 PUSH4 0xF2FDE38B EQ PUSH2 0x1C9 JUMPI PUSH4 0xFE5EB754 EQ PUSH2 0x136 JUMPI PUSH1 0x0 DUP1 REVERT JUMPDEST CALLVALUE PUSH2 0x1C5 JUMPI DUP2 PUSH1 0x3 NOT CALLDATASIZE ADD SLT PUSH2 0x1C5 JUMPI CALLDATALOAD PUSH1 0x24 CALLDATALOAD SWAP1 PUSH1 0x1 PUSH1 0x1 PUSH1 0x40 SHL SUB DUP3 AND DUP3 SUB PUSH2 0x1C1 JUMPI PUSH2 0x1BE SWAP3 PUSH1 0x1 SWAP2 PUSH2 0x18E DUP4 DUP1 PUSH1 0xA0 SHL SUB PUSH2 0x17A DUP2 PUSH1 0x7 SLOAD AND CALLER EQ PUSH2 0x12A1 JUMP JUMPDEST DUP3 DUP9 MSTORE PUSH1 0x2 PUSH1 0x20 MSTORE DUP4 DUP9 KECCAK256 SLOAD AND ISZERO ISZERO PUSH2 0x12E0 JUMP JUMPDEST DUP6 MSTORE PUSH1 0x9 PUSH1 0x20 MSTORE DUP5 KECCAK256 ADD SWAP1 PUSH10 0xFFFFFFFFFFFFFFFF0000 DUP3 SLOAD SWAP2 PUSH1 0x10 SHL AND SWAP1 PUSH10 0xFFFFFFFFFFFFFFFF0000 NOT AND OR SWAP1 SSTORE JUMP JUMPDEST DUP1 RETURN JUMPDEST DUP4 DUP1 REVERT JUMPDEST DUP3 DUP1 REVERT JUMPDEST POP CALLVALUE PUSH2 0x1C5 JUMPI PUSH1 0x20 CALLDATASIZE PUSH1 0x3 NOT ADD SLT PUSH2 0x1C5 JUMPI PUSH2 0x1E3 PUSH2 0x10C3 JUMP JUMPDEST SWAP1 PUSH2 0x1EC PUSH2 0x191F JUMP JUMPDEST PUSH1 0x1 PUSH1 0x1 PUSH1 0xA0 SHL SUB SWAP2 DUP3 AND SWAP3 DUP4 ISZERO PUSH2 0x23D JUMPI POP POP PUSH1 0x6 SLOAD DUP3 PUSH1 0x1 PUSH1 0x1 PUSH1 0x60 SHL SUB PUSH1 0xA0 SHL DUP3 AND OR PUSH1 0x6 SSTORE AND PUSH32 0x8BE0079C531659141344CD1FD0A4F28419497F9722A3DAAFE3B4186F6B6457E0 DUP4 DUP1 LOG3 DUP1 RETURN JUMPDEST MLOAD PUSH4 0x1E4FBDF7 PUSH1 0xE0 SHL DUP2 MSTORE SWAP1 DUP2 ADD DUP5 SWAP1 MSTORE PUSH1 0x24 SWAP1 REVERT JUMPDEST POP POP CALLVALUE PUSH2 0x2A1 JUMPI DUP1 PUSH1 0x3 NOT CALLDATASIZE ADD SLT PUSH2 0x2A1 JUMPI PUSH1 0xFF DUP2 PUSH1 0x20 SWAP4 PUSH2 0x273 PUSH2 0x10C3 JUMP JUMPDEST PUSH2 0x27B PUSH2 0x10DE JUMP JUMPDEST PUSH1 0x1 PUSH1 0x1 PUSH1 0xA0 SHL SUB SWAP2 DUP3 AND DUP4 MSTORE PUSH1 0x5 DUP8 MSTORE DUP4 DUP4 KECCAK256 SWAP2 AND DUP3 MSTORE DUP6 MSTORE KECCAK256 SLOAD SWAP2 MLOAD SWAP2 AND ISZERO ISZERO DUP2 MSTORE RETURN JUMPDEST POP DUP1 REVERT JUMPDEST POP SWAP2 CALLVALUE PUSH2 0x2DD JUMPI PUSH1 0x20 CALLDATASIZE PUSH1 0x3 NOT ADD SLT PUSH2 0x2DD JUMPI POP PUSH2 0x2C6 PUSH2 0x2D9 SWAP3 CALLDATALOAD PUSH2 0x1544 JUMP JUMPDEST SWAP1 MLOAD SWAP2 DUP3 SWAP2 PUSH1 0x20 DUP4 MSTORE PUSH1 0x20 DUP4 ADD SWAP1 PUSH2 0x109E JUMP JUMPDEST SUB SWAP1 RETURN JUMPDEST DUP1 REVERT JUMPDEST POP SWAP1 CALLVALUE PUSH2 0x1C5 JUMPI PUSH1 0x80 CALLDATASIZE PUSH1 0x3 NOT ADD SLT PUSH2 0x1C5 JUMPI PUSH2 0x2FB PUSH2 0x10C3 JUMP JUMPDEST PUSH2 0x303 PUSH2 0x10DE JUMP JUMPDEST PUSH1 0x44 CALLDATALOAD SWAP2 DUP6 PUSH1 0x64 CALLDATALOAD SWAP6 PUSH1 0x1 PUSH1 0x1 PUSH1 0x40 SHL SUB DUP8 GT PUSH2 0x2A1 JUMPI CALLDATASIZE PUSH1 0x23 DUP9 ADD SLT ISZERO PUSH2 0x2A1 JUMPI DUP7 ADD CALLDATALOAD SWAP6 PUSH2 0x33E PUSH2 0x335 DUP9 PUSH2 0x124C JUMP JUMPDEST SWAP7 MLOAD SWAP7 DUP8 PUSH2 0x11A2 JUMP JUMPDEST DUP7 DUP7 MSTORE CALLDATASIZE PUSH1 0x24 DUP9 DUP4 ADD ADD GT PUSH2 0x2A1 JUMPI DUP7 PUSH2 0x1BE SWAP8 PUSH1 0x24 PUSH1 0x20 SWAP4 ADD DUP4 DUP10 ADD CALLDATACOPY DUP7 ADD ADD MSTORE PUSH2 0x36B DUP4 DUP4 DUP4 PUSH2 0x1319 JUMP JUMPDEST CALLER PUSH2 0x1BDD JUMP JUMPDEST POP SWAP1 CALLVALUE PUSH2 0x1C5 JUMPI PUSH1 0x20 SWAP2 DUP3 PUSH1 0x3 NOT CALLDATASIZE ADD SLT PUSH2 0x1C1 JUMPI SWAP1 DUP1 PUSH1 0xE0 SWAP5 PUSH1 0x3 SWAP4 CALLDATALOAD DUP2 PUSH1 0xC0 DUP5 MLOAD PUSH2 0x39D DUP2 PUSH2 0x1156 JUMP JUMPDEST DUP3 DUP2 MSTORE DUP3 DUP10 DUP3 ADD MSTORE DUP3 DUP7 DUP3 ADD MSTORE DUP3 PUSH1 0x60 DUP3 ADD MSTORE DUP3 PUSH1 0x80 DUP3 ADD MSTORE DUP3 PUSH1 0xA0 DUP3 ADD MSTORE ADD MSTORE DUP1 DUP3 MSTORE PUSH1 0x2 DUP7 MSTORE PUSH2 0x3DB PUSH1 0x1 DUP1 PUSH1 0xA0 SHL SUB DUP5 DUP5 KECCAK256 SLOAD AND ISZERO ISZERO PUSH2 0x12E0 JUMP JUMPDEST DUP2 MSTORE PUSH1 0x9 DUP6 MSTORE KECCAK256 DUP2 MLOAD SWAP2 PUSH2 0x3EE DUP4 PUSH2 0x1156 JUMP JUMPDEST DUP2 SLOAD SWAP5 DUP6 DUP5 MSTORE PUSH1 0x1 DUP4 ADD SLOAD SWAP2 DUP2 DUP6 ADD SWAP1 PUSH1 0xFF DUP5 AND DUP3 MSTORE PUSH1 0xFF DUP2 DUP8 ADD DUP2 DUP7 PUSH1 0x8 SHR AND DUP2 MSTORE PUSH1 0x1 PUSH1 0x1 PUSH1 0x40 SHL SUB SWAP5 DUP3 PUSH1 0x60 DUP11 ADD SWAP6 DUP8 DUP10 PUSH1 0x10 SHR AND DUP8 MSTORE DUP2 PUSH1 0x80 DUP13 ADD SWAP10 PUSH1 0x50 SHR AND ISZERO ISZERO DUP10 MSTORE PUSH1 0xC0 PUSH1 0x2 DUP12 ADD SLOAD SWAP11 PUSH1 0xA0 DUP14 ADD SWAP12 DUP13 MSTORE PUSH2 0xFFFF SWAP14 DUP15 SWAP2 ADD SLOAD AND SWAP12 ADD SWAP11 DUP12 MSTORE DUP6 MLOAD SWAP13 DUP14 MSTORE MLOAD AND SWAP1 DUP12 ADD MSTORE MLOAD AND SWAP1 DUP9 ADD MSTORE MLOAD AND PUSH1 0x60 DUP7 ADD MSTORE MLOAD ISZERO ISZERO PUSH1 0x80 DUP6 ADD MSTORE MLOAD PUSH1 0xA0 DUP5 ADD MSTORE MLOAD AND PUSH1 0xC0 DUP3 ADD MSTORE RETURN JUMPDEST POP SWAP1 CALLVALUE PUSH2 0x1C5 JUMPI PUSH2 0x120 CALLDATASIZE PUSH1 0x3 NOT ADD SLT PUSH2 0x1C5 JUMPI PUSH2 0x49E PUSH2 0x10C3 JUMP JUMPDEST SWAP3 PUSH2 0x4A8 CALLDATASIZE PUSH2 0x11C3 JUMP JUMPDEST PUSH1 0x1 PUSH1 0x1 PUSH1 0x40 SHL SUB SWAP2 PUSH2 0x104 CALLDATALOAD DUP4 DUP2 GT PUSH2 0x2A1 JUMPI PUSH2 0x4C9 SWAP1 CALLDATASIZE SWAP1 DUP8 ADD PUSH2 0x10F4 JUMP JUMPDEST SWAP2 SWAP1 PUSH1 0x1 PUSH1 0xA0 SHL PUSH1 0x1 SWAP1 SUB PUSH1 0x7 SLOAD AND CALLER EQ PUSH2 0x4E3 SWAP1 PUSH2 0x12A1 JUMP JUMPDEST PUSH1 0x8 SLOAD PUSH2 0x4EF SWAP1 PUSH2 0x151F JUMP JUMPDEST SWAP7 DUP8 PUSH1 0x8 SSTORE DUP8 DUP4 MSTORE PUSH1 0x20 SWAP9 PUSH1 0x9 DUP11 MSTORE DUP9 DUP9 DUP6 KECCAK256 SWAP7 DUP1 MLOAD DUP9 SSTORE PUSH1 0x1 SWAP8 DUP9 DUP2 ADD SWAP1 DUP14 DUP4 ADD MLOAD PUSH1 0xFF AND SWAP2 DUP1 SLOAD SWAP3 DUP14 DUP6 ADD MLOAD PUSH1 0x8 SHL PUSH2 0xFF00 AND SWAP1 PUSH2 0xFFFF NOT DUP1 SWAP6 AND OR OR DUP2 SSTORE DUP12 PUSH1 0x60 DUP6 ADD MLOAD AND PUSH2 0x562 SWAP1 DUP3 SWAP1 PUSH10 0xFFFFFFFFFFFFFFFF0000 DUP3 SLOAD SWAP2 PUSH1 0x10 SHL AND SWAP1 PUSH10 0xFFFFFFFFFFFFFFFF0000 NOT AND OR SWAP1 SSTORE JUMP JUMPDEST PUSH1 0x80 DUP5 ADD MLOAD ISZERO ISZERO DUP2 SLOAD SWAP1 PUSH1 0xFF PUSH1 0x50 SHL SWAP1 PUSH1 0x50 SHL AND SWAP1 PUSH1 0xFF PUSH1 0x50 SHL NOT AND OR SWAP1 SSTORE PUSH1 0xA0 DUP4 ADD MLOAD PUSH1 0x2 DUP3 ADD SSTORE PUSH1 0x3 ADD SWAP2 PUSH1 0xC0 ADD MLOAD PUSH2 0xFFFF AND SWAP1 DUP3 SLOAD AND OR SWAP1 SSTORE PUSH2 0x5A7 SWAP2 PUSH2 0x194B JUMP JUMPDEST DUP4 PUSH2 0x5B6 JUMPI JUMPDEST DUP9 DUP9 DUP9 MLOAD SWAP1 DUP2 MSTORE RETURN JUMPDEST DUP8 DUP4 MSTORE PUSH1 0xB DUP10 MSTORE DUP7 DUP4 KECCAK256 SWAP6 DUP5 GT PUSH2 0x6C1 JUMPI POP PUSH2 0x5D2 DUP6 SLOAD PUSH2 0x1267 JUMP JUMPDEST PUSH1 0x1F DUP2 GT PUSH2 0x67B JUMPI JUMPDEST POP DUP2 PUSH1 0x1F DUP5 GT PUSH1 0x1 EQ PUSH2 0x61C JUMPI SWAP2 DUP4 SWAP5 SWAP2 DUP5 SWAP4 SWAP5 PUSH2 0x611 JUMPI JUMPDEST POP POP SHL SWAP2 PUSH1 0x0 NOT SWAP1 PUSH1 0x3 SHL SHR NOT AND OR SWAP1 SSTORE JUMPDEST CODESIZE DUP1 DUP1 DUP1 DUP1 DUP1 PUSH2 0x5AD JUMP JUMPDEST ADD CALLDATALOAD SWAP3 POP CODESIZE DUP1 PUSH2 0x5F4 JUMP JUMPDEST SWAP2 DUP4 PUSH1 0x1F NOT DUP2 AND DUP8 DUP6 MSTORE DUP11 DUP6 KECCAK256 SWAP5 JUMPDEST DUP12 DUP9 DUP4 DUP4 LT PUSH2 0x664 JUMPI POP POP POP LT PUSH2 0x64A JUMPI JUMPDEST POP POP POP DUP2 SHL ADD SWAP1 SSTORE PUSH2 0x606 JUMP JUMPDEST ADD CALLDATALOAD PUSH1 0x0 NOT PUSH1 0x3 DUP5 SWAP1 SHL PUSH1 0xF8 AND SHR NOT AND SWAP1 SSTORE CODESIZE DUP1 DUP1 PUSH2 0x63D JUMP JUMPDEST DUP6 DUP8 ADD CALLDATALOAD DUP9 SSTORE SWAP1 SWAP7 ADD SWAP6 SWAP4 DUP5 ADD SWAP4 DUP8 SWAP4 POP ADD PUSH2 0x62B JUMP JUMPDEST DUP6 DUP4 MSTORE DUP9 DUP4 KECCAK256 PUSH1 0x1F DUP6 ADD PUSH1 0x5 SHR DUP2 ADD SWAP2 DUP11 DUP7 LT PUSH2 0x6B7 JUMPI JUMPDEST PUSH1 0x1F ADD PUSH1 0x5 SHR ADD SWAP1 DUP6 SWAP1 JUMPDEST DUP3 DUP2 LT PUSH2 0x6AC JUMPI POP POP PUSH2 0x5DB JUMP JUMPDEST DUP5 DUP2 SSTORE ADD DUP6 SWAP1 PUSH2 0x69E JUMP JUMPDEST SWAP1 SWAP2 POP DUP2 SWAP1 PUSH2 0x693 JUMP JUMPDEST PUSH4 0x4E487B71 PUSH1 0xE0 SHL DUP4 MSTORE PUSH1 0x41 SWAP1 MSTORE PUSH1 0x24 DUP3 REVERT JUMPDEST POP POP CALLVALUE PUSH2 0x2A1 JUMPI DUP2 PUSH1 0x3 NOT CALLDATASIZE ADD SLT PUSH2 0x2A1 JUMPI PUSH1 0x7 SLOAD SWAP1 MLOAD PUSH1 0x1 PUSH1 0x1 PUSH1 0xA0 SHL SUB SWAP1 SWAP2 AND DUP2 MSTORE PUSH1 0x20 SWAP1 RETURN JUMPDEST POP SWAP1 CALLVALUE PUSH2 0x1C5 JUMPI DUP1 PUSH1 0x3 NOT CALLDATASIZE ADD SLT PUSH2 0x1C5 JUMPI PUSH2 0x717 PUSH2 0x10C3 JUMP JUMPDEST SWAP1 PUSH1 0x24 CALLDATALOAD SWAP2 DUP3 ISZERO ISZERO DUP1 SWAP4 SUB PUSH2 0x79A JUMPI PUSH1 0x1 PUSH1 0x1 PUSH1 0xA0 SHL SUB AND SWAP3 DUP4 ISZERO PUSH2 0x785 JUMPI POP CALLER DUP5 MSTORE PUSH1 0x5 PUSH1 0x20 MSTORE DUP1 DUP5 KECCAK256 DUP4 DUP6 MSTORE PUSH1 0x20 MSTORE DUP1 DUP5 KECCAK256 PUSH1 0xFF NOT DUP2 SLOAD AND PUSH1 0xFF DUP5 AND OR SWAP1 SSTORE MLOAD SWAP1 DUP2 MSTORE PUSH32 0x17307EAB39AB6107E8899845AD3D59BD9653F200F220920489CA2B5937696C31 PUSH1 0x20 CALLER SWAP3 LOG3 DUP1 RETURN JUMPDEST DUP4 PUSH1 0x24 SWAP3 MLOAD SWAP2 PUSH4 0xB611743 PUSH1 0xE3 SHL DUP4 MSTORE DUP3 ADD MSTORE REVERT JUMPDEST DUP5 DUP1 REVERT JUMPDEST DUP3 DUP5 CALLVALUE PUSH2 0x2DD JUMPI DUP1 PUSH1 0x3 NOT CALLDATASIZE ADD SLT PUSH2 0x2DD JUMPI DUP2 MLOAD SWAP2 DUP3 DUP3 PUSH1 0x1 SWAP4 PUSH1 0x1 SLOAD SWAP5 PUSH2 0x7C5 DUP7 PUSH2 0x1267 JUMP JUMPDEST SWAP2 DUP3 DUP6 MSTORE PUSH1 0x20 SWAP7 DUP8 PUSH1 0x1 DUP3 AND SWAP2 DUP3 PUSH1 0x0 EQ PUSH2 0x862 JUMPI POP POP PUSH1 0x1 EQ PUSH2 0x806 JUMPI JUMPDEST POP POP POP PUSH2 0x2D9 SWAP3 SWAP2 PUSH2 0x7F7 SWAP2 SUB DUP6 PUSH2 0x11A2 JUMP JUMPDEST MLOAD SWAP3 DUP3 DUP5 SWAP4 DUP5 MSTORE DUP4 ADD SWAP1 PUSH2 0x109E JUMP JUMPDEST SWAP2 SWAP1 DUP7 SWAP4 POP PUSH1 0x1 DUP4 MSTORE PUSH32 0xB10E2D527612073B26EECDFD717E6A320CF44B4AFAC2B0732D9FCBE2B7FA0CF6 JUMPDEST DUP3 DUP5 LT PUSH2 0x84A JUMPI POP POP POP DUP3 ADD ADD DUP2 PUSH2 0x7F7 PUSH2 0x2D9 PUSH2 0x7E4 JUMP JUMPDEST DUP1 SLOAD DUP5 DUP11 ADD DUP7 ADD MSTORE DUP9 SWAP6 POP DUP8 SWAP5 SWAP1 SWAP4 ADD SWAP3 DUP2 ADD PUSH2 0x831 JUMP JUMPDEST PUSH1 0xFF NOT AND DUP8 DUP3 ADD MSTORE SWAP4 ISZERO ISZERO PUSH1 0x5 SHL DUP7 ADD SWAP1 SWAP4 ADD SWAP4 POP DUP5 SWAP3 POP PUSH2 0x7F7 SWAP2 POP PUSH2 0x2D9 SWAP1 POP PUSH2 0x7E4 JUMP JUMPDEST POP POP CALLVALUE PUSH2 0x2A1 JUMPI DUP2 PUSH1 0x3 NOT CALLDATASIZE ADD SLT PUSH2 0x2A1 JUMPI PUSH1 0x6 SLOAD SWAP1 MLOAD PUSH1 0x1 PUSH1 0x1 PUSH1 0xA0 SHL SUB SWAP1 SWAP2 AND DUP2 MSTORE PUSH1 0x20 SWAP1 RETURN JUMPDEST POP POP CALLVALUE PUSH2 0x2A1 JUMPI PUSH2 0x100 CALLDATASIZE PUSH1 0x3 NOT ADD SLT PUSH2 0x2A1 JUMPI DUP1 PUSH2 0x9AF PUSH1 0x20 SWAP4 PUSH2 0x8D5 PUSH2 0x10C3 JUMP JUMPDEST PUSH2 0x8DE CALLDATASIZE PUSH2 0x11C3 JUMP JUMPDEST PUSH2 0x8F3 PUSH1 0x1 DUP1 PUSH1 0xA0 SHL SUB PUSH1 0x7 SLOAD AND CALLER EQ PUSH2 0x12A1 JUMP JUMPDEST PUSH2 0x8FE PUSH1 0x8 SLOAD PUSH2 0x151F JUMP JUMPDEST SWAP6 DUP7 SWAP4 DUP5 PUSH1 0x8 SSTORE DUP5 DUP2 MSTORE PUSH1 0x9 DUP10 MSTORE KECCAK256 DUP2 MLOAD DUP2 SSTORE PUSH2 0xFFFF PUSH1 0xC0 PUSH1 0x3 PUSH1 0x1 DUP5 ADD SWAP4 PUSH1 0xFF DUP13 DUP8 ADD MLOAD AND SWAP5 DUP1 SLOAD SWAP6 PUSH2 0xFF00 DUP13 DUP10 ADD MLOAD PUSH1 0x8 SHL AND SWAP1 DUP7 NOT DUP1 SWAP9 AND OR OR DUP2 SSTORE PUSH2 0x975 PUSH1 0x1 PUSH1 0x1 PUSH1 0x40 SHL SUB PUSH1 0x60 DUP10 ADD MLOAD AND DUP3 SWAP1 PUSH10 0xFFFFFFFFFFFFFFFF0000 DUP3 SLOAD SWAP2 PUSH1 0x10 SHL AND SWAP1 PUSH10 0xFFFFFFFFFFFFFFFF0000 NOT AND OR SWAP1 SSTORE JUMP JUMPDEST PUSH1 0x80 DUP8 ADD MLOAD ISZERO ISZERO DUP2 SLOAD SWAP1 PUSH1 0xFF PUSH1 0x50 SHL SWAP1 PUSH1 0x50 SHL AND SWAP1 PUSH1 0xFF PUSH1 0x50 SHL NOT AND OR SWAP1 SSTORE PUSH1 0xA0 DUP7 ADD MLOAD PUSH1 0x2 DUP3 ADD SSTORE ADD SWAP4 ADD MLOAD AND SWAP1 DUP3 SLOAD AND OR SWAP1 SSTORE PUSH2 0x194B JUMP JUMPDEST MLOAD SWAP1 DUP2 MSTORE RETURN JUMPDEST DUP4 CALLVALUE PUSH2 0x2DD JUMPI PUSH1 0x20 CALLDATASIZE PUSH1 0x3 NOT ADD SLT PUSH2 0x2DD JUMPI PUSH2 0x9CF PUSH2 0x10C3 JUMP JUMPDEST PUSH2 0x9D7 PUSH2 0x191F JUMP JUMPDEST PUSH1 0x1 DUP1 PUSH1 0xA0 SHL SUB AND PUSH1 0x1 PUSH1 0x1 PUSH1 0x60 SHL SUB PUSH1 0xA0 SHL PUSH1 0x7 SLOAD AND OR PUSH1 0x7 SSTORE DUP1 RETURN JUMPDEST DUP4 CALLVALUE PUSH2 0x2DD JUMPI DUP1 PUSH1 0x3 NOT CALLDATASIZE ADD SLT PUSH2 0x2DD JUMPI PUSH2 0xA0E PUSH2 0x191F JUMP JUMPDEST PUSH1 0x6 DUP1 SLOAD PUSH1 0x1 PUSH1 0x1 PUSH1 0xA0 SHL SUB NOT DUP2 AND SWAP1 SWAP2 SSTORE DUP2 SWAP1 PUSH1 0x1 PUSH1 0x1 PUSH1 0xA0 SHL SUB AND PUSH32 0x8BE0079C531659141344CD1FD0A4F28419497F9722A3DAAFE3B4186F6B6457E0 DUP3 DUP1 LOG3 DUP1 RETURN JUMPDEST POP SWAP2 CALLVALUE PUSH2 0x2DD JUMPI PUSH1 0x20 CALLDATASIZE PUSH1 0x3 NOT ADD SLT PUSH2 0x2DD JUMPI PUSH1 0x1 PUSH1 0x1 PUSH1 0xA0 SHL SUB PUSH2 0xA75 PUSH2 0x10C3 JUMP JUMPDEST AND SWAP3 DUP4 ISZERO PUSH2 0xA92 JUMPI POP DUP1 PUSH1 0x20 SWAP4 DUP4 SWAP3 MSTORE PUSH1 0x3 DUP5 MSTORE KECCAK256 SLOAD SWAP1 MLOAD SWAP1 DUP2 MSTORE RETURN JUMPDEST SWAP2 MLOAD PUSH4 0x22718AD9 PUSH1 0xE2 SHL DUP2 MSTORE SWAP2 DUP3 ADD MSTORE PUSH1 0x24 SWAP1 REVERT JUMPDEST POP SWAP2 CALLVALUE PUSH2 0x2DD JUMPI PUSH1 0x20 CALLDATASIZE PUSH1 0x3 NOT ADD SLT PUSH2 0x2DD JUMPI POP PUSH2 0xAC7 PUSH1 0x20 SWAP3 CALLDATALOAD PUSH2 0x18E4 JUMP JUMPDEST SWAP1 MLOAD PUSH1 0x1 PUSH1 0x1 PUSH1 0xA0 SHL SUB SWAP1 SWAP2 AND DUP2 MSTORE RETURN JUMPDEST POP DUP3 CALLVALUE PUSH2 0x2DD JUMPI PUSH1 0x20 SWAP2 PUSH1 0x20 PUSH1 0x3 NOT CALLDATASIZE ADD SLT PUSH2 0x2A1 JUMPI PUSH1 0x1 PUSH1 0x1 PUSH1 0x40 SHL SUB DUP2 CALLDATALOAD DUP2 DUP2 GT PUSH2 0x1C1 JUMPI PUSH2 0xB0C SWAP1 CALLDATASIZE SWAP1 DUP5 ADD PUSH2 0x10F4 JUMP JUMPDEST SWAP3 SWAP1 SWAP2 PUSH2 0xB17 PUSH2 0x191F JUMP JUMPDEST DUP4 GT PUSH2 0xC4C JUMPI POP PUSH2 0xB29 PUSH1 0xA SLOAD PUSH2 0x1267 JUMP JUMPDEST PUSH1 0x1F DUP2 GT PUSH2 0xBED JUMPI JUMPDEST POP DUP3 SWAP4 PUSH1 0x1F DUP4 GT PUSH1 0x1 EQ PUSH2 0xB6F JUMPI POP SWAP3 DUP3 SWAP4 DUP3 SWAP4 SWAP3 PUSH2 0xB64 JUMPI JUMPDEST POP POP DUP2 PUSH1 0x1 SHL SWAP2 PUSH1 0x0 NOT SWAP1 PUSH1 0x3 SHL SHR NOT AND OR PUSH1 0xA SSTORE DUP1 RETURN JUMPDEST ADD CALLDATALOAD SWAP1 POP DUP4 DUP1 PUSH2 0xB4C JUMP JUMPDEST PUSH1 0x1F NOT DUP4 AND SWAP5 PUSH32 0xC65A7BB8D6351C1CF70C95A316CC6A92839C986682D98BC35F958F4883F9D2A8 SWAP3 SWAP2 DUP6 SWAP1 JUMPDEST DUP8 DUP3 LT PUSH2 0xBD5 JUMPI POP POP DUP4 PUSH1 0x1 SWAP6 SWAP7 LT PUSH2 0xBBB JUMPI JUMPDEST POP POP POP DUP2 SHL ADD PUSH1 0xA SSTORE DUP1 RETURN JUMPDEST ADD CALLDATALOAD PUSH1 0x0 NOT PUSH1 0x3 DUP5 SWAP1 SHL PUSH1 0xF8 AND SHR NOT AND SWAP1 SSTORE DUP4 DUP1 DUP1 PUSH2 0xBAF JUMP JUMPDEST DUP1 PUSH1 0x1 DUP5 SWAP7 DUP3 SWAP5 SWAP6 DUP8 ADD CALLDATALOAD DUP2 SSTORE ADD SWAP6 ADD SWAP3 ADD SWAP1 PUSH2 0xB9B JUMP JUMPDEST PUSH32 0xC65A7BB8D6351C1CF70C95A316CC6A92839C986682D98BC35F958F4883F9D2A8 PUSH1 0x1F DUP5 ADD PUSH1 0x5 SHR DUP2 ADD SWAP2 PUSH1 0x20 DUP6 LT PUSH2 0xC42 JUMPI JUMPDEST PUSH1 0x1F ADD PUSH1 0x5 SHR ADD SWAP1 JUMPDEST DUP2 DUP2 LT PUSH2 0xC37 JUMPI POP PUSH2 0xB32 JUMP JUMPDEST DUP5 DUP2 SSTORE PUSH1 0x1 ADD PUSH2 0xC2A JUMP JUMPDEST SWAP1 SWAP2 POP DUP2 SWAP1 PUSH2 0xC21 JUMP JUMPDEST PUSH4 0x4E487B71 PUSH1 0xE0 SHL DUP5 MSTORE PUSH1 0x41 SWAP1 MSTORE PUSH1 0x24 DUP4 REVERT JUMPDEST POP POP CALLVALUE PUSH2 0x2A1 JUMPI PUSH2 0x1BE SWAP1 PUSH2 0xC73 CALLDATASIZE PUSH2 0x1121 JUMP JUMPDEST SWAP2 SWAP3 MLOAD SWAP3 PUSH2 0xC80 DUP5 PUSH2 0x1187 JUMP JUMPDEST DUP6 DUP5 MSTORE PUSH2 0x36B DUP4 DUP4 DUP4 PUSH2 0x1319 JUMP JUMPDEST DUP4 CALLVALUE PUSH2 0x2DD JUMPI PUSH2 0x1BE PUSH2 0xCA0 CALLDATASIZE PUSH2 0x1121 JUMP JUMPDEST SWAP2 PUSH2 0x1319 JUMP JUMPDEST POP POP CALLVALUE PUSH2 0x2A1 JUMPI DUP2 PUSH1 0x3 NOT CALLDATASIZE ADD SLT PUSH2 0x2A1 JUMPI PUSH1 0x20 SWAP1 PUSH1 0x8 SLOAD SWAP1 MLOAD SWAP1 DUP2 MSTORE RETURN JUMPDEST POP SWAP2 SWAP1 CALLVALUE PUSH2 0x2A1 JUMPI DUP1 PUSH1 0x3 NOT CALLDATASIZE ADD SLT PUSH2 0x2A1 JUMPI DUP3 CALLDATALOAD SWAP3 PUSH1 0x1 PUSH1 0x1 PUSH1 0x40 SHL SUB SWAP2 PUSH1 0x24 CALLDATALOAD DUP4 DUP2 GT PUSH2 0x79A JUMPI PUSH2 0xCFB SWAP1 CALLDATASIZE SWAP1 DUP5 ADD PUSH2 0x10F4 JUMP JUMPDEST SWAP3 SWAP1 SWAP2 PUSH1 0x1 DUP1 PUSH1 0xA0 SHL SUB SWAP7 PUSH2 0xD15 DUP9 PUSH1 0x7 SLOAD AND CALLER EQ PUSH2 0x12A1 JUMP JUMPDEST DUP1 DUP8 MSTORE PUSH2 0xD2E PUSH1 0x20 SWAP9 PUSH1 0x2 DUP11 MSTORE DUP4 DUP10 KECCAK256 SLOAD AND ISZERO ISZERO PUSH2 0x12E0 JUMP JUMPDEST DUP7 MSTORE PUSH1 0xB DUP8 MSTORE DUP6 KECCAK256 SWAP4 DUP4 GT PUSH2 0xE34 JUMPI POP PUSH2 0xD48 DUP4 SLOAD PUSH2 0x1267 JUMP JUMPDEST PUSH1 0x1F DUP2 GT PUSH2 0xDF1 JUMPI JUMPDEST POP DUP4 SWAP5 PUSH1 0x1F DUP4 GT PUSH1 0x1 EQ PUSH2 0xD8E JUMPI POP SWAP4 DUP4 SWAP5 DUP3 SWAP4 SWAP5 SWAP3 PUSH2 0xD83 JUMPI JUMPDEST POP POP DUP2 PUSH1 0x1 SHL SWAP2 PUSH1 0x0 NOT SWAP1 PUSH1 0x3 SHL SHR NOT AND OR SWAP1 SSTORE DUP1 RETURN JUMPDEST ADD CALLDATALOAD SWAP1 POP CODESIZE DUP1 PUSH2 0xD6C JUMP JUMPDEST SWAP1 PUSH1 0x1F NOT DUP4 AND SWAP6 DUP5 DUP7 MSTORE DUP3 DUP7 KECCAK256 SWAP3 DUP7 SWAP1 JUMPDEST DUP9 DUP3 LT PUSH2 0xDD9 JUMPI POP POP DUP4 PUSH1 0x1 SWAP6 SWAP7 SWAP8 LT PUSH2 0xDBF JUMPI JUMPDEST POP POP POP DUP2 SHL ADD SWAP1 SSTORE DUP1 RETURN JUMPDEST ADD CALLDATALOAD PUSH1 0x0 NOT PUSH1 0x3 DUP5 SWAP1 SHL PUSH1 0xF8 AND SHR NOT AND SWAP1 SSTORE CODESIZE DUP1 DUP1 PUSH2 0xDB4 JUMP JUMPDEST DUP1 PUSH1 0x1 DUP5 SWAP7 DUP3 SWAP5 SWAP6 DUP8 ADD CALLDATALOAD DUP2 SSTORE ADD SWAP6 ADD SWAP3 ADD SWAP1 PUSH2 0xD9F JUMP JUMPDEST DUP4 DUP6 MSTORE DUP6 DUP6 KECCAK256 PUSH1 0x1F DUP5 ADD PUSH1 0x5 SHR DUP2 ADD SWAP2 DUP8 DUP6 LT PUSH2 0xE2A JUMPI JUMPDEST PUSH1 0x1F ADD PUSH1 0x5 SHR ADD SWAP1 JUMPDEST DUP2 DUP2 LT PUSH2 0xE1F JUMPI POP PUSH2 0xD51 JUMP JUMPDEST DUP6 DUP2 SSTORE PUSH1 0x1 ADD PUSH2 0xE12 JUMP JUMPDEST SWAP1 SWAP2 POP DUP2 SWAP1 PUSH2 0xE09 JUMP JUMPDEST PUSH4 0x4E487B71 PUSH1 0xE0 SHL DUP6 MSTORE PUSH1 0x41 SWAP1 MSTORE PUSH1 0x24 DUP5 REVERT JUMPDEST POP SWAP1 CALLVALUE PUSH2 0x1C5 JUMPI DUP1 PUSH1 0x3 NOT CALLDATASIZE ADD SLT PUSH2 0x1C5 JUMPI PUSH2 0xE61 PUSH2 0x10C3 JUMP JUMPDEST SWAP2 PUSH1 0x24 CALLDATALOAD PUSH2 0xE6E DUP2 PUSH2 0x18E4 JUMP JUMPDEST CALLER ISZERO ISZERO DUP1 PUSH2 0xF10 JUMPI JUMPDEST DUP1 PUSH2 0xEE7 JUMPI JUMPDEST PUSH2 0xED1 JUMPI PUSH1 0x1 PUSH1 0x1 PUSH1 0xA0 SHL SUB SWAP5 DUP6 AND SWAP5 DUP3 SWAP2 DUP7 SWAP2 AND PUSH32 0x8C5BE1E5EBEC7D5BD14F71427D1E84F3DD0314C0F7B2291E5B200AC8C7C3B925 DUP9 DUP1 LOG4 DUP5 MSTORE PUSH1 0x20 MSTORE DUP3 KECCAK256 DUP1 SLOAD PUSH1 0x1 PUSH1 0x1 PUSH1 0xA0 SHL SUB NOT AND SWAP1 SWAP2 OR SWAP1 SSTORE DUP1 RETURN JUMPDEST DUP4 MLOAD PUSH4 0xA9FBF51F PUSH1 0xE0 SHL DUP2 MSTORE CALLER DUP2 DUP6 ADD MSTORE PUSH1 0x24 SWAP1 REVERT JUMPDEST POP PUSH1 0x1 PUSH1 0x1 PUSH1 0xA0 SHL SUB DUP2 AND DUP7 MSTORE PUSH1 0x5 PUSH1 0x20 SWAP1 DUP2 MSTORE DUP5 DUP8 KECCAK256 CALLER DUP9 MSTORE SWAP1 MSTORE DUP4 DUP7 KECCAK256 SLOAD PUSH1 0xFF AND ISZERO PUSH2 0xE7D JUMP JUMPDEST POP PUSH1 0x1 PUSH1 0x1 PUSH1 0xA0 SHL SUB DUP2 AND CALLER EQ ISZERO PUSH2 0xE77 JUMP JUMPDEST POP CALLVALUE PUSH2 0x1C5 JUMPI PUSH1 0x20 CALLDATASIZE PUSH1 0x3 NOT ADD SLT PUSH2 0x1C5 JUMPI SWAP2 DUP3 PUSH1 0x20 SWAP4 CALLDATALOAD PUSH2 0xF44 DUP2 PUSH2 0x18E4 JUMP JUMPDEST POP DUP3 MSTORE DUP4 MSTORE DUP2 SWAP1 KECCAK256 SLOAD SWAP1 MLOAD PUSH1 0x1 PUSH1 0x1 PUSH1 0xA0 SHL SUB SWAP1 SWAP2 AND DUP2 MSTORE RETURN JUMPDEST DUP3 DUP5 CALLVALUE PUSH2 0x2DD JUMPI DUP1 PUSH1 0x3 NOT CALLDATASIZE ADD SLT PUSH2 0x2DD JUMPI DUP2 MLOAD SWAP2 DUP3 DUP3 DUP4 SLOAD PUSH2 0xF80 DUP2 PUSH2 0x1267 JUMP JUMPDEST SWAP1 DUP2 DUP5 MSTORE PUSH1 0x20 SWAP6 PUSH1 0x1 SWAP2 DUP8 PUSH1 0x1 DUP3 AND SWAP2 DUP3 PUSH1 0x0 EQ PUSH2 0x862 JUMPI POP POP PUSH1 0x1 EQ PUSH2 0xFB4 JUMPI POP POP POP PUSH2 0x2D9 SWAP3 SWAP2 PUSH2 0x7F7 SWAP2 SUB DUP6 PUSH2 0x11A2 JUMP JUMPDEST SWAP2 SWAP1 DUP7 SWAP4 POP DUP3 DUP1 MSTORE PUSH32 0x290DECD9548B62A8D60345A988386FC84BA6BC95484008F6362F93160EF3E563 JUMPDEST DUP3 DUP5 LT PUSH2 0xFF7 JUMPI POP POP POP DUP3 ADD ADD DUP2 PUSH2 0x7F7 PUSH2 0x2D9 PUSH2 0x7E4 JUMP JUMPDEST DUP1 SLOAD DUP5 DUP11 ADD DUP7 ADD MSTORE DUP9 SWAP6 POP DUP8 SWAP5 SWAP1 SWAP4 ADD SWAP3 DUP2 ADD PUSH2 0xFDE JUMP JUMPDEST SWAP3 POP POP CALLVALUE PUSH2 0x1C5 JUMPI PUSH1 0x20 CALLDATASIZE PUSH1 0x3 NOT ADD SLT PUSH2 0x1C5 JUMPI CALLDATALOAD PUSH4 0xFFFFFFFF PUSH1 0xE0 SHL DUP2 AND DUP1 SWAP2 SUB PUSH2 0x1C5 JUMPI PUSH1 0x20 SWAP3 POP PUSH4 0x80AC58CD PUSH1 0xE0 SHL DUP2 EQ SWAP1 DUP2 ISZERO PUSH2 0x106A JUMPI JUMPDEST DUP2 ISZERO PUSH2 0x1059 JUMPI JUMPDEST POP ISZERO ISZERO DUP2 MSTORE RETURN JUMPDEST PUSH4 0x1FFC9A7 PUSH1 0xE0 SHL EQ SWAP1 POP CODESIZE PUSH2 0x1052 JUMP JUMPDEST PUSH4 0x5B5E139F PUSH1 0xE0 SHL DUP2 EQ SWAP2 POP PUSH2 0x104B JUMP JUMPDEST PUSH1 0x0 JUMPDEST DUP4 DUP2 LT PUSH2 0x108E JUMPI POP POP PUSH1 0x0 SWAP2 ADD MSTORE JUMP JUMPDEST DUP2 DUP2 ADD MLOAD DUP4 DUP3 ADD MSTORE PUSH1 0x20 ADD PUSH2 0x107E JUMP JUMPDEST SWAP1 PUSH1 0x20 SWAP2 PUSH2 0x10B7 DUP2 MLOAD DUP1 SWAP3 DUP2 DUP6 MSTORE DUP6 DUP1 DUP7 ADD SWAP2 ADD PUSH2 0x107B JUMP JUMPDEST PUSH1 0x1F ADD PUSH1 0x1F NOT AND ADD ADD SWAP1 JUMP JUMPDEST PUSH1 0x4 CALLDATALOAD SWAP1 PUSH1 0x1 PUSH1 0x1 PUSH1 0xA0 SHL SUB DUP3 AND DUP3 SUB PUSH2 0x10D9 JUMPI JUMP JUMPDEST PUSH1 0x0 DUP1 REVERT JUMPDEST PUSH1 0x24 CALLDATALOAD SWAP1 PUSH1 0x1 PUSH1 0x1 PUSH1 0xA0 SHL SUB DUP3 AND DUP3 SUB PUSH2 0x10D9 JUMPI JUMP JUMPDEST SWAP2 DUP2 PUSH1 0x1F DUP5 ADD SLT ISZERO PUSH2 0x10D9 JUMPI DUP3 CALLDATALOAD SWAP2 PUSH1 0x1 PUSH1 0x1 PUSH1 0x40 SHL SUB DUP4 GT PUSH2 0x10D9 JUMPI PUSH1 0x20 DUP4 DUP2 DUP7 ADD SWAP6 ADD ADD GT PUSH2 0x10D9 JUMPI JUMP JUMPDEST PUSH1 0x60 SWAP1 PUSH1 0x3 NOT ADD SLT PUSH2 0x10D9 JUMPI PUSH1 0x1 PUSH1 0x1 PUSH1 0xA0 SHL SUB SWAP1 PUSH1 0x4 CALLDATALOAD DUP3 DUP2 AND DUP2 SUB PUSH2 0x10D9 JUMPI SWAP2 PUSH1 0x24 CALLDATALOAD SWAP1 DUP2 AND DUP2 SUB PUSH2 0x10D9 JUMPI SWAP1 PUSH1 0x44 CALLDATALOAD SWAP1 JUMP JUMPDEST PUSH1 0xE0 DUP2 ADD SWAP1 DUP2 LT PUSH1 0x1 PUSH1 0x1 PUSH1 0x40 SHL SUB DUP3 GT OR PUSH2 0x1171 JUMPI PUSH1 0x40 MSTORE JUMP JUMPDEST PUSH4 0x4E487B71 PUSH1 0xE0 SHL PUSH1 0x0 MSTORE PUSH1 0x41 PUSH1 0x4 MSTORE PUSH1 0x24 PUSH1 0x0 REVERT JUMPDEST PUSH1 0x20 DUP2 ADD SWAP1 DUP2 LT PUSH1 0x1 PUSH1 0x1 PUSH1 0x40 SHL SUB DUP3 GT OR PUSH2 0x1171 JUMPI PUSH1 0x40 MSTORE JUMP JUMPDEST SWAP1 PUSH1 0x1F DUP1 NOT SWAP2 ADD AND DUP2 ADD SWAP1 DUP2 LT PUSH1 0x1 PUSH1 0x1 PUSH1 0x40 SHL SUB DUP3 GT OR PUSH2 0x1171 JUMPI PUSH1 0x40 MSTORE JUMP JUMPDEST PUSH1 0xE0 SWAP1 PUSH1 0x23 NOT ADD SLT PUSH2 0x10D9 JUMPI PUSH1 0x40 MLOAD SWAP1 PUSH2 0x11DC DUP3 PUSH2 0x1156 JUMP JUMPDEST DUP2 PUSH1 0x24 CALLDATALOAD DUP2 MSTORE PUSH1 0x44 CALLDATALOAD PUSH1 0xFF DUP2 AND DUP2 SUB PUSH2 0x10D9 JUMPI PUSH1 0x20 DUP3 ADD MSTORE PUSH1 0x64 CALLDATALOAD PUSH1 0xFF DUP2 AND DUP2 SUB PUSH2 0x10D9 JUMPI PUSH1 0x40 DUP3 ADD MSTORE PUSH1 0x84 CALLDATALOAD PUSH1 0x1 PUSH1 0x1 PUSH1 0x40 SHL SUB DUP2 AND DUP2 SUB PUSH2 0x10D9 JUMPI PUSH1 0x60 DUP3 ADD MSTORE PUSH1 0xA4 CALLDATALOAD DUP1 ISZERO ISZERO DUP2 SUB PUSH2 0x10D9 JUMPI PUSH1 0x80 DUP3 ADD MSTORE PUSH1 0xC4 CALLDATALOAD PUSH1 0xA0 DUP3 ADD MSTORE PUSH1 0xE4 CALLDATALOAD SWAP1 PUSH2 0xFFFF DUP3 AND DUP3 SUB PUSH2 0x10D9 JUMPI PUSH1 0xC0 ADD MSTORE JUMP JUMPDEST PUSH1 0x1 PUSH1 0x1 PUSH1 0x40 SHL SUB DUP2 GT PUSH2 0x1171 JUMPI PUSH1 0x1F ADD PUSH1 0x1F NOT AND PUSH1 0x20 ADD SWAP1 JUMP JUMPDEST SWAP1 PUSH1 0x1 DUP3 DUP2 SHR SWAP3 AND DUP1 ISZERO PUSH2 0x1297 JUMPI JUMPDEST PUSH1 0x20 DUP4 LT EQ PUSH2 0x1281 JUMPI JUMP JUMPDEST PUSH4 0x4E487B71 PUSH1 0xE0 SHL PUSH1 0x0 MSTORE PUSH1 0x22 PUSH1 0x4 MSTORE PUSH1 0x24 PUSH1 0x0 REVERT JUMPDEST SWAP2 PUSH1 0x7F AND SWAP2 PUSH2 0x1276 JUMP JUMPDEST ISZERO PUSH2 0x12A8 JUMPI JUMP JUMPDEST PUSH1 0x40 MLOAD PUSH3 0x461BCD PUSH1 0xE5 SHL DUP2 MSTORE PUSH1 0x20 PUSH1 0x4 DUP3 ADD MSTORE PUSH1 0x10 PUSH1 0x24 DUP3 ADD MSTORE PUSH16 0x6F6E6C79206D61726B6574706C616365 PUSH1 0x80 SHL PUSH1 0x44 DUP3 ADD MSTORE PUSH1 0x64 SWAP1 REVERT JUMPDEST ISZERO PUSH2 0x12E7 JUMPI JUMP JUMPDEST PUSH1 0x40 MLOAD PUSH3 0x461BCD PUSH1 0xE5 SHL DUP2 MSTORE PUSH1 0x20 PUSH1 0x4 DUP3 ADD MSTORE PUSH1 0xA PUSH1 0x24 DUP3 ADD MSTORE PUSH10 0x6E6F7420657869737473 PUSH1 0xB0 SHL PUSH1 0x44 DUP3 ADD MSTORE PUSH1 0x64 SWAP1 REVERT JUMPDEST PUSH1 0x1 PUSH1 0x1 PUSH1 0xA0 SHL SUB SWAP2 DUP3 AND SWAP3 SWAP1 SWAP2 DUP4 ISZERO PUSH2 0x1506 JUMPI PUSH1 0x0 SWAP3 DUP3 DUP5 MSTORE PUSH1 0x20 SWAP5 PUSH1 0x2 DUP7 MSTORE PUSH1 0x40 SWAP6 DUP7 DUP5 DUP2 DUP9 KECCAK256 SLOAD AND SWAP7 CALLER ISZERO ISZERO DUP1 PUSH2 0x1476 JUMPI JUMPDEST POP DUP8 ISZERO ISZERO DUP1 PUSH2 0x1443 JUMPI JUMPDEST DUP5 DUP3 MSTORE PUSH1 0x3 DUP5 MSTORE DUP3 DUP3 KECCAK256 DUP1 SLOAD PUSH1 0x1 ADD SWAP1 SSTORE DUP8 DUP3 MSTORE PUSH1 0x2 DUP5 MSTORE DUP3 DUP3 KECCAK256 DUP1 SLOAD PUSH1 0x1 PUSH1 0x1 PUSH1 0xA0 SHL SUB NOT AND DUP7 OR SWAP1 SSTORE DUP3 MLOAD SWAP5 DUP9 SWAP1 DUP11 PUSH32 0xDDF252AD1BE2C89B69C2B068FC378DAA952BA7F163C4A11628F55A4DF523B3EF DUP6 DUP1 LOG4 DUP1 PUSH2 0x143B JUMPI JUMPDEST PUSH2 0x13EC JUMPI JUMPDEST POP POP POP POP AND SWAP3 DUP4 DUP4 SUB PUSH2 0x13CB JUMPI POP POP POP POP JUMP JUMPDEST PUSH1 0x64 SWAP5 POP MLOAD SWAP3 PUSH4 0x64283D7B PUSH1 0xE0 SHL DUP5 MSTORE PUSH1 0x4 DUP5 ADD MSTORE PUSH1 0x24 DUP4 ADD MSTORE PUSH1 0x44 DUP3 ADD MSTORE REVERT JUMPDEST PUSH1 0x9 DUP4 MSTORE KECCAK256 PUSH1 0x1 ADD SLOAD PUSH1 0x50 SHR PUSH1 0xFF AND ISZERO PUSH2 0x1407 JUMPI DUP7 DUP2 PUSH2 0x13B8 JUMP JUMPDEST PUSH3 0x461BCD PUSH1 0xE5 SHL DUP3 MSTORE PUSH1 0x4 DUP3 ADD MSTORE PUSH1 0x10 PUSH1 0x24 DUP3 ADD MSTORE PUSH16 0x6E6F74207472616E7366657261626C65 PUSH1 0x80 SHL PUSH1 0x44 DUP3 ADD MSTORE PUSH1 0x64 SWAP2 POP REVERT JUMPDEST POP PUSH1 0x1 PUSH2 0x13B3 JUMP JUMPDEST PUSH1 0x0 DUP9 DUP2 MSTORE PUSH1 0x4 PUSH1 0x20 MSTORE PUSH1 0x40 SWAP1 KECCAK256 DUP1 SLOAD PUSH1 0x1 PUSH1 0x1 PUSH1 0xA0 SHL SUB NOT AND SWAP1 SSTORE DUP9 DUP3 MSTORE PUSH1 0x3 DUP5 MSTORE DUP3 DUP3 KECCAK256 DUP1 SLOAD PUSH1 0x0 NOT ADD SWAP1 SSTORE PUSH2 0x1358 JUMP JUMPDEST SWAP1 SWAP2 POP DUP1 PUSH2 0x14C5 JUMPI JUMPDEST ISZERO PUSH2 0x148C JUMPI DUP8 SWAP1 CODESIZE PUSH2 0x134E JUMP JUMPDEST DUP8 DUP7 DUP9 PUSH2 0x14A9 JUMPI PUSH1 0x24 SWAP2 MLOAD SWAP1 PUSH4 0x7E273289 PUSH1 0xE0 SHL DUP3 MSTORE PUSH1 0x4 DUP3 ADD MSTORE REVERT JUMPDEST PUSH1 0x44 SWAP2 MLOAD SWAP1 PUSH4 0x177E802F PUSH1 0xE0 SHL DUP3 MSTORE CALLER PUSH1 0x4 DUP4 ADD MSTORE PUSH1 0x24 DUP3 ADD MSTORE REVERT JUMPDEST POP CALLER DUP8 EQ DUP1 ISZERO PUSH2 0x14EA JUMPI JUMPDEST DUP1 PUSH2 0x147F JUMPI POP DUP6 DUP2 MSTORE PUSH1 0x4 DUP3 MSTORE CALLER DUP6 DUP10 DUP4 KECCAK256 SLOAD AND EQ PUSH2 0x147F JUMP JUMPDEST POP DUP7 DUP2 MSTORE PUSH1 0x5 DUP3 MSTORE DUP8 DUP2 KECCAK256 CALLER DUP3 MSTORE DUP3 MSTORE PUSH1 0xFF DUP9 DUP3 KECCAK256 SLOAD AND PUSH2 0x14D0 JUMP JUMPDEST PUSH1 0x40 MLOAD PUSH4 0x32505749 PUSH1 0xE1 SHL DUP2 MSTORE PUSH1 0x0 PUSH1 0x4 DUP3 ADD MSTORE PUSH1 0x24 SWAP1 REVERT JUMPDEST PUSH1 0x0 NOT DUP2 EQ PUSH2 0x152E JUMPI PUSH1 0x1 ADD SWAP1 JUMP JUMPDEST PUSH4 0x4E487B71 PUSH1 0xE0 SHL PUSH1 0x0 MSTORE PUSH1 0x11 PUSH1 0x4 MSTORE PUSH1 0x24 PUSH1 0x0 REVERT JUMPDEST PUSH1 0x0 DUP2 DUP2 MSTORE PUSH1 0x2 PUSH1 0x20 SWAP1 DUP2 MSTORE PUSH1 0x40 DUP1 DUP4 KECCAK256 SLOAD SWAP1 SWAP4 SWAP2 SWAP3 SWAP1 PUSH1 0x1 PUSH1 0x1 PUSH1 0xA0 SHL SUB AND ISZERO PUSH2 0x1888 JUMPI DUP2 DUP2 MSTORE PUSH1 0xB DUP4 MSTORE DUP4 DUP2 KECCAK256 DUP5 MLOAD DUP2 SLOAD SWAP4 SWAP2 DUP2 DUP5 PUSH2 0x1584 DUP8 PUSH2 0x1267 JUMP JUMPDEST SWAP3 DUP4 DUP4 MSTORE PUSH1 0x1 SWAP8 DUP10 DUP10 DUP3 AND SWAP2 DUP3 PUSH1 0x0 EQ PUSH2 0x1868 JUMPI POP POP PUSH1 0x1 EQ PUSH2 0x182A JUMPI JUMPDEST POP PUSH2 0x15AF SWAP3 POP SUB DUP3 PUSH2 0x11A2 JUMP JUMPDEST DUP1 MLOAD PUSH2 0x1821 JUMPI POP DUP5 MLOAD PUSH1 0xA DUP1 SLOAD SWAP2 SWAP5 DUP5 DUP7 PUSH2 0x15C9 DUP6 PUSH2 0x1267 JUMP JUMPDEST SWAP2 DUP3 DUP3 MSTORE DUP10 DUP3 ADD SWAP6 DUP11 DUP6 DUP3 AND SWAP2 DUP3 PUSH1 0x0 EQ PUSH2 0x1806 JUMPI POP POP PUSH1 0x1 EQ PUSH2 0x17AB JUMPI JUMPDEST PUSH2 0x15F4 SWAP3 POP SUB DUP8 PUSH2 0x11A2 JUMP JUMPDEST DUP6 MLOAD ISZERO PUSH2 0x1793 JUMPI DUP5 SWAP4 SWAP1 DUP2 PUSH27 0x184F03E93FF9F4DAA797ED6E38ED64BF6A1F010000000000000000 DUP2 DUP2 DUP2 LT ISZERO PUSH2 0x1785 JUMPI JUMPDEST POP POP PUSH1 0xA SWAP1 DUP10 PUSH14 0x4EE2D6D415B85ACEF8100000000 DUP1 DUP4 LT ISZERO PUSH2 0x1779 JUMPI JUMPDEST POP POP PUSH7 0x2386F26FC10000 DUP1 DUP3 LT ISZERO PUSH2 0x176C JUMPI JUMPDEST POP PUSH4 0x5F5E100 DUP1 DUP3 LT ISZERO PUSH2 0x175F JUMPI JUMPDEST POP PUSH2 0x2710 DUP1 DUP3 LT ISZERO PUSH2 0x1752 JUMPI JUMPDEST POP PUSH1 0x64 DUP2 LT ISZERO PUSH2 0x1744 JUMPI JUMPDEST LT ISZERO PUSH2 0x173B JUMPI JUMPDEST SWAP1 DUP2 PUSH1 0x21 DUP7 PUSH2 0x16AD DUP4 DUP14 SWAP10 ADD PUSH2 0x16A5 PUSH2 0x169C DUP3 PUSH2 0x124C JUMP JUMPDEST SWAP11 MLOAD SWAP11 DUP12 PUSH2 0x11A2 JUMP JUMPDEST DUP1 DUP11 MSTORE PUSH2 0x124C JUMP JUMPDEST DUP9 DUP13 ADD SWAP10 SWAP1 PUSH1 0x1F NOT ADD CALLDATASIZE DUP12 CALLDATACOPY POP DUP8 ADD ADD SWAP1 JUMPDEST PUSH2 0x1705 JUMPI JUMPDEST POP POP POP POP SWAP1 PUSH2 0x16F6 PUSH2 0x1702 SWAP6 SWAP5 SWAP4 SWAP3 PUSH2 0x16E7 SWAP8 MLOAD SWAP8 DUP9 SWAP6 MLOAD DUP1 SWAP3 DUP9 DUP9 ADD SWAP1 PUSH2 0x107B JUMP JUMPDEST DUP5 ADD SWAP2 MLOAD DUP1 SWAP4 DUP7 DUP5 ADD SWAP1 PUSH2 0x107B JUMP JUMPDEST ADD SUB DUP1 DUP5 MSTORE ADD DUP3 PUSH2 0x11A2 JUMP JUMPDEST SWAP1 JUMP JUMPDEST PUSH1 0x0 NOT ADD SWAP1 DUP4 SWAP1 PUSH16 0x181899199A1A9B1B9C1CB0B131B232B3 PUSH1 0x81 SHL DUP3 DUP3 MOD BYTE DUP4 MSTORE8 DIV SWAP2 DUP3 ISZERO PUSH2 0x1736 JUMPI SWAP2 SWAP1 DUP3 PUSH2 0x16BF JUMP JUMPDEST PUSH2 0x16C4 JUMP JUMPDEST DUP1 SWAP5 ADD SWAP4 PUSH2 0x1684 JUMP JUMPDEST PUSH1 0x64 PUSH1 0x2 SWAP2 DIV SWAP7 ADD SWAP6 PUSH2 0x167D JUMP JUMPDEST PUSH1 0x4 SWAP2 DIV SWAP7 ADD SWAP6 CODESIZE PUSH2 0x1672 JUMP JUMPDEST PUSH1 0x8 SWAP2 DIV SWAP7 ADD SWAP6 CODESIZE PUSH2 0x1665 JUMP JUMPDEST PUSH1 0x10 SWAP2 DIV SWAP7 ADD SWAP6 CODESIZE PUSH2 0x1656 JUMP JUMPDEST SWAP8 ADD SWAP7 SWAP1 DIV DUP10 CODESIZE PUSH2 0x1643 JUMP JUMPDEST DUP12 SWAP8 POP DIV SWAP1 POP PUSH1 0xA CODESIZE PUSH2 0x1625 JUMP JUMPDEST POP POP POP POP SWAP3 SWAP2 POP POP MLOAD SWAP1 PUSH2 0x17A6 DUP3 PUSH2 0x1187 JUMP JUMPDEST DUP2 MSTORE SWAP1 JUMP JUMPDEST POP POP PUSH1 0xA DUP7 MSTORE DUP7 DUP9 DUP8 DUP5 PUSH32 0xC65A7BB8D6351C1CF70C95A316CC6A92839C986682D98BC35F958F4883F9D2A8 JUMPDEST DUP6 DUP4 LT PUSH2 0x17ED JUMPI POP POP PUSH2 0x15F4 SWAP4 POP DUP3 ADD ADD PUSH2 0x15E8 JUMP JUMPDEST DUP1 SWAP2 SWAP3 SWAP5 POP SLOAD DUP4 DUP6 DUP14 ADD ADD MSTORE ADD SWAP2 ADD DUP10 SWAP1 DUP5 DUP11 SWAP4 PUSH2 0x17D7 JUMP JUMPDEST PUSH1 0xFF NOT AND DUP9 MSTORE PUSH2 0x15F4 SWAP5 ISZERO ISZERO PUSH1 0x5 SHL DUP5 ADD ADD SWAP2 POP PUSH2 0x15E8 SWAP1 POP JUMP JUMPDEST SWAP5 POP POP POP POP POP SWAP1 JUMP JUMPDEST SWAP2 POP POP DUP5 MSTORE DUP2 DUP7 DUP1 DUP7 KECCAK256 DUP8 DUP8 SWAP2 JUMPDEST DUP6 DUP4 LT PUSH2 0x184F JUMPI POP POP PUSH2 0x15AF SWAP4 POP DUP3 ADD ADD CODESIZE PUSH2 0x15A2 JUMP JUMPDEST DUP1 SWAP2 SWAP3 SWAP5 POP SLOAD DUP4 DUP6 DUP9 ADD ADD MSTORE ADD SWAP2 ADD DUP8 SWAP1 DUP8 DUP6 SWAP4 PUSH2 0x1838 JUMP JUMPDEST PUSH1 0xFF NOT AND DUP6 DUP3 ADD MSTORE PUSH2 0x15AF SWAP6 ISZERO ISZERO PUSH1 0x5 SHL DUP6 ADD ADD SWAP3 POP CODESIZE SWAP2 POP PUSH2 0x15A2 SWAP1 POP JUMP JUMPDEST DUP4 MLOAD PUSH3 0x461BCD PUSH1 0xE5 SHL DUP2 MSTORE PUSH1 0x4 DUP2 ADD DUP5 SWAP1 MSTORE PUSH1 0x2F PUSH1 0x24 DUP3 ADD MSTORE PUSH32 0x4552433732314D657461646174613A2055524920717565727920666F72206E6F PUSH1 0x44 DUP3 ADD MSTORE PUSH15 0x3732BC34B9BA32B73A103A37B5B2B7 PUSH1 0x89 SHL PUSH1 0x64 DUP3 ADD MSTORE PUSH1 0x84 SWAP1 REVERT JUMPDEST PUSH1 0x0 DUP2 DUP2 MSTORE PUSH1 0x2 PUSH1 0x20 MSTORE PUSH1 0x40 SWAP1 KECCAK256 SLOAD PUSH1 0x1 PUSH1 0x1 PUSH1 0xA0 SHL SUB AND SWAP1 DUP2 ISZERO PUSH2 0x1907 JUMPI POP SWAP1 JUMP JUMPDEST PUSH1 0x24 SWAP1 PUSH1 0x40 MLOAD SWAP1 PUSH4 0x7E273289 PUSH1 0xE0 SHL DUP3 MSTORE PUSH1 0x4 DUP3 ADD MSTORE REVERT JUMPDEST PUSH1 0x6 SLOAD PUSH1 0x1 PUSH1 0x1 PUSH1 0xA0 SHL SUB AND CALLER SUB PUSH2 0x1933 JUMPI JUMP JUMPDEST PUSH1 0x40 MLOAD PUSH4 0x118CDAA7 PUSH1 0xE0 SHL DUP2 MSTORE CALLER PUSH1 0x4 DUP3 ADD MSTORE PUSH1 0x24 SWAP1 REVERT JUMPDEST PUSH1 0x40 DUP1 MLOAD PUSH2 0x1958 DUP2 PUSH2 0x1187 JUMP JUMPDEST PUSH1 0x0 DUP1 DUP3 MSTORE SWAP4 PUSH1 0x1 PUSH1 0x1 PUSH1 0xA0 SHL SUB DUP5 DUP2 AND SWAP5 SWAP1 SWAP3 SWAP1 DUP6 ISZERO PUSH2 0x1BC5 JUMPI DUP3 DUP8 MSTORE PUSH1 0x20 SWAP4 PUSH1 0x2 DUP6 MSTORE DUP6 DUP9 KECCAK256 SLOAD AND DUP1 ISZERO ISZERO SWAP1 DUP2 PUSH2 0x1B92 JUMPI JUMPDEST DUP8 DUP10 MSTORE PUSH1 0x3 DUP7 MSTORE DUP7 DUP10 KECCAK256 PUSH1 0x1 DUP2 SLOAD ADD SWAP1 SSTORE DUP5 DUP10 MSTORE PUSH1 0x2 DUP7 MSTORE DUP7 DUP10 KECCAK256 DUP9 PUSH1 0x1 PUSH1 0x1 PUSH1 0x60 SHL SUB PUSH1 0xA0 SHL DUP3 SLOAD AND OR SWAP1 SSTORE DUP5 DUP9 DUP9 MLOAD SWAP3 PUSH32 0xDDF252AD1BE2C89B69C2B068FC378DAA952BA7F163C4A11628F55A4DF523B3EF DUP13 DUP1 LOG4 DUP2 DUP1 PUSH2 0x1B8A JUMPI JUMPDEST PUSH2 0x1B40 JUMPI JUMPDEST POP PUSH2 0x1B28 JUMPI EXTCODESIZE PUSH2 0x1A01 JUMPI JUMPDEST POP POP POP POP POP POP JUMP JUMPDEST DUP3 PUSH2 0x1A3F SWAP2 DUP6 SWAP7 SWAP8 SWAP9 SWAP5 SWAP6 MLOAD DUP1 SWAP4 DUP2 SWAP3 PUSH4 0xA85BD01 PUSH1 0xE1 SHL SWAP7 DUP8 DUP5 MSTORE CALLER PUSH1 0x4 DUP6 ADD MSTORE DUP13 PUSH1 0x24 DUP6 ADD MSTORE PUSH1 0x44 DUP5 ADD MSTORE PUSH1 0x80 PUSH1 0x64 DUP5 ADD MSTORE PUSH1 0x84 DUP4 ADD SWAP1 PUSH2 0x109E JUMP JUMPDEST SUB DUP2 DUP11 DUP11 GAS CALL DUP8 SWAP2 DUP2 PUSH2 0x1AE4 JUMPI JUMPDEST POP PUSH2 0x1AAD JUMPI POP POP POP RETURNDATASIZE PUSH1 0x0 EQ PUSH2 0x1AA4 JUMPI RETURNDATASIZE PUSH2 0x1A67 DUP2 PUSH2 0x124C JUMP JUMPDEST SWAP1 PUSH2 0x1A74 DUP5 MLOAD SWAP3 DUP4 PUSH2 0x11A2 JUMP JUMPDEST DUP2 MSTORE DUP1 SWAP5 DUP3 RETURNDATASIZE SWAP3 ADD RETURNDATACOPY JUMPDEST DUP4 MLOAD SWAP4 DUP5 PUSH2 0x1A9E JUMPI DUP3 MLOAD PUSH4 0x32505749 PUSH1 0xE1 SHL DUP2 MSTORE PUSH1 0x4 DUP2 ADD DUP6 SWAP1 MSTORE PUSH1 0x24 SWAP1 REVERT JUMPDEST DUP5 SWAP3 POP ADD REVERT JUMPDEST PUSH1 0x60 SWAP4 POP PUSH2 0x1A7E JUMP JUMPDEST SWAP2 SWAP6 POP SWAP2 POP PUSH4 0xFFFFFFFF PUSH1 0xE0 SHL AND SUB PUSH2 0x1ACD JUMPI POP POP CODESIZE DUP1 DUP1 DUP1 DUP1 DUP1 PUSH2 0x19F9 JUMP JUMPDEST PUSH1 0x24 SWAP3 POP MLOAD SWAP1 PUSH4 0x32505749 PUSH1 0xE1 SHL DUP3 MSTORE PUSH1 0x4 DUP3 ADD MSTORE REVERT JUMPDEST SWAP1 SWAP2 POP DUP5 DUP2 DUP2 RETURNDATASIZE DUP4 GT PUSH2 0x1B21 JUMPI JUMPDEST PUSH2 0x1AFC DUP2 DUP4 PUSH2 0x11A2 JUMP JUMPDEST DUP2 ADD SUB SLT PUSH2 0x1B1D JUMPI MLOAD PUSH1 0x1 PUSH1 0x1 PUSH1 0xE0 SHL SUB NOT DUP2 AND DUP2 SUB PUSH2 0x1B1D JUMPI SWAP1 CODESIZE PUSH2 0x1A4D JUMP JUMPDEST DUP8 DUP1 REVERT JUMPDEST POP RETURNDATASIZE PUSH2 0x1AF2 JUMP JUMPDEST DUP5 MLOAD PUSH4 0x39E35637 PUSH1 0xE1 SHL DUP2 MSTORE PUSH1 0x4 DUP2 ADD DUP9 SWAP1 MSTORE PUSH1 0x24 SWAP1 REVERT JUMPDEST PUSH1 0x9 DUP7 MSTORE PUSH1 0xFF PUSH1 0x1 DUP9 DUP12 KECCAK256 ADD SLOAD PUSH1 0x50 SHR AND PUSH2 0x19EE JUMPI PUSH3 0x461BCD PUSH1 0xE5 SHL DUP2 MSTORE PUSH1 0x4 DUP2 ADD DUP7 SWAP1 MSTORE PUSH1 0x10 PUSH1 0x24 DUP3 ADD MSTORE PUSH16 0x6E6F74207472616E7366657261626C65 PUSH1 0x80 SHL PUSH1 0x44 DUP3 ADD MSTORE PUSH1 0x64 SWAP1 REVERT JUMPDEST POP PUSH1 0x1 PUSH2 0x19E9 JUMP JUMPDEST PUSH1 0x0 DUP6 DUP2 MSTORE PUSH1 0x4 PUSH1 0x20 MSTORE PUSH1 0x40 SWAP1 KECCAK256 DUP1 SLOAD PUSH1 0x1 PUSH1 0x1 PUSH1 0xA0 SHL SUB NOT AND SWAP1 SSTORE DUP1 DUP10 MSTORE PUSH1 0x3 DUP7 MSTORE DUP7 DUP10 KECCAK256 DUP1 SLOAD PUSH1 0x0 NOT ADD SWAP1 SSTORE PUSH2 0x198C JUMP JUMPDEST DUP5 MLOAD PUSH4 0x32505749 PUSH1 0xE1 SHL DUP2 MSTORE PUSH1 0x4 DUP2 ADD DUP9 SWAP1 MSTORE PUSH1 0x24 SWAP1 REVERT JUMPDEST SWAP1 SWAP4 SWAP2 SWAP3 DUP4 EXTCODESIZE PUSH2 0x1BEF JUMPI JUMPDEST POP POP POP POP POP JUMP JUMPDEST PUSH1 0x40 MLOAD PUSH4 0xA85BD01 PUSH1 0xE1 SHL DUP1 DUP3 MSTORE PUSH1 0x1 PUSH1 0x1 PUSH1 0xA0 SHL SUB SWAP4 DUP5 AND PUSH1 0x4 DUP4 ADD MSTORE SWAP6 DUP4 AND PUSH1 0x24 DUP3 ADD MSTORE PUSH1 0x44 DUP2 ADD SWAP2 SWAP1 SWAP2 MSTORE PUSH1 0x80 PUSH1 0x64 DUP3 ADD MSTORE SWAP5 SWAP3 AND SWAP3 PUSH1 0x20 SWAP3 SWAP2 DUP6 SWAP1 PUSH2 0x1C3C SWAP1 PUSH1 0x84 DUP4 ADD SWAP1 PUSH2 0x109E JUMP JUMPDEST SUB SWAP5 DUP4 DUP2 PUSH1 0x0 SWAP8 DUP2 DUP10 DUP10 GAS CALL DUP7 SWAP2 DUP2 PUSH2 0x1CE7 JUMPI JUMPDEST POP PUSH2 0x1CB1 JUMPI POP POP POP RETURNDATASIZE PUSH1 0x0 EQ PUSH2 0x1CA8 JUMPI RETURNDATASIZE PUSH2 0x1C6A DUP2 PUSH2 0x124C JUMP JUMPDEST SWAP1 PUSH2 0x1C78 PUSH1 0x40 MLOAD SWAP3 DUP4 PUSH2 0x11A2 JUMP JUMPDEST DUP2 MSTORE DUP1 SWAP4 DUP3 RETURNDATASIZE SWAP3 ADD RETURNDATACOPY JUMPDEST DUP3 MLOAD SWAP3 DUP4 PUSH2 0x1CA3 JUMPI PUSH1 0x40 MLOAD PUSH4 0x32505749 PUSH1 0xE1 SHL DUP2 MSTORE PUSH1 0x4 DUP2 ADD DUP5 SWAP1 MSTORE PUSH1 0x24 SWAP1 REVERT JUMPDEST ADD SWAP1 POP REVERT JUMPDEST PUSH1 0x60 SWAP3 POP PUSH2 0x1C82 JUMP JUMPDEST SWAP2 SWAP5 POP SWAP2 POP PUSH4 0xFFFFFFFF PUSH1 0xE0 SHL AND SUB PUSH2 0x1CCF JUMPI POP CODESIZE DUP1 DUP1 DUP1 DUP1 PUSH2 0x1BE8 JUMP JUMPDEST PUSH1 0x24 SWAP1 PUSH1 0x40 MLOAD SWAP1 PUSH4 0x32505749 PUSH1 0xE1 SHL DUP3 MSTORE PUSH1 0x4 DUP3 ADD MSTORE REVERT JUMPDEST SWAP1 SWAP2 POP DUP5 DUP2 DUP2 RETURNDATASIZE DUP4 GT PUSH2 0x1D24 JUMPI JUMPDEST PUSH2 0x1CFF DUP2 DUP4 PUSH2 0x11A2 JUMP JUMPDEST DUP2 ADD SUB SLT PUSH2 0x1D20 JUMPI MLOAD PUSH1 0x1 PUSH1 0x1 PUSH1 0xE0 SHL SUB NOT DUP2 AND DUP2 SUB PUSH2 0x1D20 JUMPI SWAP1 CODESIZE PUSH2 0x1C50 JUMP JUMPDEST DUP7 DUP1 REVERT JUMPDEST POP RETURNDATASIZE PUSH2 0x1CF5 JUMP INVALID LOG2 PUSH5 0x6970667358 0x22 SLT KECCAK256 MCOPY 0xB1 0xA5 EXTCODESIZE 0xD0 DUP13 0xF9 0x4E 0xFC 0xC5 LOG2 0x26 0xA6 PUSH7 0x3D836443B21ECA SWAP12 MULMOD RETURNDATACOPY EXTCODECOPY SWAP11 SAR BLOCKHASH 0xA9 LOG2 0xB1 NUMBER PUSH5 0x736F6C6343 STOP ADDMOD XOR STOP CALLER 0xC3 0xA9 SWAP9 MSTORE MLOAD 0x4E MSIZE 0x23 0xCD SELFDESTRUCT 0xB2 PUSH24 0x9C4B432ED502ACF7B7CA78B2087A8C49D82BF6A700000000 "},"methodIdentifiers":{"KIND_PERPETUAL()":"75bb91b2","KIND_SUBSCRIPTION()":"7d53deff","MAX_BPS()":"fd967f47","MAX_FEE_BPS_CAP()":"81cd7439","MAX_INFERENCE_PRICE()":"a249668a","MAX_PRICE_CAP()":"f5b96972","MIN_INFERENCE_PRICE()":"df99e534","RIGHTS_API()":"23ea1f5f","RIGHTS_DOWNLOAD()":"acb27c68","TIMELOCK_DELAY()":"5ba1c1a9","acceptOwnership()":"79ba5097","activeModels()":"c8aa67b3","agentRegistry()":"0d1cfcae","buyLicense(uint256,uint8,uint16,bool)":"88daf7f4","buyLicenseWithURI(uint256,uint8,uint16,bool,string)":"4b746cd1","cancelInferenceWalletChange(uint256)":"23da4f01","executeInferenceWalletChange(uint256)":"1e141e8b","families(address,bytes32)":"46453f28","feeBps()":"24a9d853","feeRecipient()":"46904840","getInferenceInfo(uint256)":"08c05903","getModel(uint256)":"6d361694","inferenceSplitter()":"1ade29ca","lastLicenseId()":"c384373a","licenseNFT()":"da68d47d","licenseNFTAddress()":"e0a3dd96","licenseStatus(uint256)":"37c73865","listOrUpgrade(string,string,string,uint256,uint256,uint256,uint256,uint8,uint8,bytes32)":"2d88c211","listOrUpgrade(string,string,string,uint256,uint256,uint256,uint256,uint8,uint8,bytes32,uint256,address)":"47eaa7a2","listOrUpgradeWithAgent(string,string,string,uint256,uint256,uint256,uint256,uint8,uint8,bytes32,uint256,address,(string,address,string))":"345c0f77","models(uint256)":"6a030ca9","modelsLimit()":"227dc4c4","nextId()":"61b8ce8c","owner()":"8da5cb5b","pause()":"8456cb59","paused()":"5c975abb","paymentToken()":"3013ce29","pendingInferenceWalletChanges(uint256)":"c7d24974","pendingOwner()":"e30c3978","renewLicense(uint256,uint16)":"d402e464","renounceOwnership()":"715018a6","requestInferenceWalletChange(uint256,address)":"f932ecac","revokeByAdmin(uint256)":"636d5870","revokeByModelOwner(uint256)":"c3c2265f","revoked(uint256)":"d5b141e7","setAgentRegistry(address)":"28342ecf","setFees(uint256,address)":"3d162cdc","setInferencePrice(uint256,uint256)":"9ccebcec","setInferenceSplitter(address)":"235b3b94","setLicensingParams(uint256,uint256,uint256,uint256,uint8,uint8,bytes32)":"0135adcd","setListed(uint256,bool)":"f09449ba","setModelsLimit(uint256)":"d2d5ec4d","setPaymentToken(address)":"6a326ab1","sweep(address,uint256)":"6ea056a9","sweepToken(address,address,uint256)":"64aff9ec","transferOwnership(address)":"f2fde38b","unpause()":"3f4ba83a","updateModelAgent(uint256,string,address)":"f60eb4bf"}}}}}