{"contracts/ReputationRegistry.sol":{"ReputationRegistry":{"abi":[{"inputs":[{"internalType":"address","name":"_agentRegistry","type":"address"}],"stateMutability":"nonpayable","type":"constructor"},{"inputs":[],"name":"AlreadySubmittedFeedback","type":"error"},{"inputs":[],"name":"FeedbackWindowExpired","type":"error"},{"inputs":[],"name":"InvalidAgentId","type":"error"},{"inputs":[],"name":"InvalidInferenceHash","type":"error"},{"inputs":[{"internalType":"address","name":"owner","type":"address"}],"name":"OwnableInvalidOwner","type":"error"},{"inputs":[{"internalType":"address","name":"account","type":"address"}],"name":"OwnableUnauthorizedAccount","type":"error"},{"anonymous":false,"inputs":[{"indexed":true,"internalType":"uint256","name":"agentId","type":"uint256"},{"indexed":true,"internalType":"address","name":"user","type":"address"},{"indexed":false,"internalType":"bool","name":"positive","type":"bool"},{"indexed":true,"internalType":"bytes32","name":"inferenceHash","type":"bytes32"},{"indexed":false,"internalType":"uint256","name":"timestamp","type":"uint256"}],"name":"FeedbackSubmitted","type":"event"},{"anonymous":false,"inputs":[{"indexed":true,"internalType":"address","name":"previousOwner","type":"address"},{"indexed":true,"internalType":"address","name":"newOwner","type":"address"}],"name":"OwnershipTransferred","type":"event"},{"anonymous":false,"inputs":[{"indexed":true,"internalType":"uint256","name":"agentId","type":"uint256"},{"indexed":false,"internalType":"uint256","name":"positiveCount","type":"uint256"},{"indexed":false,"internalType":"uint256","name":"negativeCount","type":"uint256"},{"indexed":false,"internalType":"uint256","name":"score","type":"uint256"}],"name":"ReputationUpdated","type":"event"},{"inputs":[],"name":"FEEDBACK_WINDOW","outputs":[{"internalType":"uint256","name":"","type":"uint256"}],"stateMutability":"view","type":"function"},{"inputs":[],"name":"SCORE_PRECISION","outputs":[{"internalType":"uint256","name":"","type":"uint256"}],"stateMutability":"view","type":"function"},{"inputs":[],"name":"agentRegistry","outputs":[{"internalType":"address","name":"","type":"address"}],"stateMutability":"view","type":"function"},{"inputs":[{"internalType":"uint256","name":"agentId","type":"uint256"}],"name":"calculateScore","outputs":[{"internalType":"uint256","name":"","type":"uint256"}],"stateMutability":"view","type":"function"},{"inputs":[{"internalType":"uint256","name":"agentId","type":"uint256"},{"internalType":"address","name":"user","type":"address"},{"internalType":"bytes32","name":"inferenceHash","type":"bytes32"}],"name":"canSubmitFeedback","outputs":[{"internalType":"bool","name":"canSubmit","type":"bool"},{"internalType":"string","name":"reason","type":"string"}],"stateMutability":"view","type":"function"},{"inputs":[{"internalType":"uint256","name":"","type":"uint256"},{"internalType":"uint256","name":"","type":"uint256"}],"name":"feedbackHistory","outputs":[{"internalType":"address","name":"user","type":"address"},{"internalType":"bool","name":"positive","type":"bool"},{"internalType":"uint256","name":"timestamp","type":"uint256"},{"internalType":"bytes32","name":"inferenceHash","type":"bytes32"}],"stateMutability":"view","type":"function"},{"inputs":[{"internalType":"uint256","name":"agentId","type":"uint256"}],"name":"getFeedbackCounts","outputs":[{"internalType":"uint256","name":"positive","type":"uint256"},{"internalType":"uint256","name":"negative","type":"uint256"},{"internalType":"uint256","name":"total","type":"uint256"}],"stateMutability":"view","type":"function"},{"inputs":[{"internalType":"uint256","name":"agentId","type":"uint256"},{"internalType":"uint256","name":"count","type":"uint256"}],"name":"getRecentFeedback","outputs":[{"components":[{"internalType":"address","name":"user","type":"address"},{"internalType":"bool","name":"positive","type":"bool"},{"internalType":"uint256","name":"timestamp","type":"uint256"},{"internalType":"bytes32","name":"inferenceHash","type":"bytes32"}],"internalType":"struct ReputationRegistry.Feedback[]","name":"","type":"tuple[]"}],"stateMutability":"view","type":"function"},{"inputs":[{"internalType":"uint256","name":"agentId","type":"uint256"}],"name":"getReputation","outputs":[{"components":[{"internalType":"uint256","name":"positiveCount","type":"uint256"},{"internalType":"uint256","name":"negativeCount","type":"uint256"},{"internalType":"uint256","name":"totalFeedback","type":"uint256"},{"internalType":"uint256","name":"lastFeedbackAt","type":"uint256"}],"internalType":"struct ReputationRegistry.Reputation","name":"","type":"tuple"}],"stateMutability":"view","type":"function"},{"inputs":[{"internalType":"bytes32","name":"","type":"bytes32"}],"name":"hasSubmittedFeedback","outputs":[{"internalType":"bool","name":"","type":"bool"}],"stateMutability":"view","type":"function"},{"inputs":[{"internalType":"bytes32","name":"","type":"bytes32"}],"name":"inferenceTimestamps","outputs":[{"internalType":"uint256","name":"","type":"uint256"}],"stateMutability":"view","type":"function"},{"inputs":[],"name":"owner","outputs":[{"internalType":"address","name":"","type":"address"}],"stateMutability":"view","type":"function"},{"inputs":[{"internalType":"bytes32","name":"inferenceHash","type":"bytes32"}],"name":"recordInference","outputs":[],"stateMutability":"nonpayable","type":"function"},{"inputs":[],"name":"renounceOwnership","outputs":[],"stateMutability":"nonpayable","type":"function"},{"inputs":[{"internalType":"uint256","name":"","type":"uint256"}],"name":"reputations","outputs":[{"internalType":"uint256","name":"positiveCount","type":"uint256"},{"internalType":"uint256","name":"negativeCount","type":"uint256"},{"internalType":"uint256","name":"totalFeedback","type":"uint256"},{"internalType":"uint256","name":"lastFeedbackAt","type":"uint256"}],"stateMutability":"view","type":"function"},{"inputs":[{"internalType":"address","name":"_agentRegistry","type":"address"}],"name":"setAgentRegistry","outputs":[],"stateMutability":"nonpayable","type":"function"},{"inputs":[{"internalType":"uint256","name":"agentId","type":"uint256"},{"internalType":"bool","name":"positive","type":"bool"},{"internalType":"bytes32","name":"inferenceHash","type":"bytes32"}],"name":"submitFeedback","outputs":[],"stateMutability":"nonpayable","type":"function"},{"inputs":[{"internalType":"address","name":"newOwner","type":"address"}],"name":"transferOwnership","outputs":[],"stateMutability":"nonpayable","type":"function"}],"evm":{"bytecode":{"linkReferences":{},"object":"6080346100c657601f610e6438819003918201601f19168301916001600160401b038311848410176100cb578084926020946040528339810103126100c657516001600160a01b0390818116908190036100c65733156100ad5760005460018060a01b0319903382821617600055604051933391167f8be0079c531659141344cd1fd0a4f28419497f9722a3daafe3b4186f6b6457e0600080a36001541617600155610d8290816100e28239f35b604051631e4fbdf760e01b815260006004820152602490fd5b600080fd5b634e487b7160e01b600052604160045260246000fdfe60806040908082526004918236101561001757600080fd5b600091823560e01c9081630d1cfcae1461089957508063136018bc1461087257806328342ecf1461082d57806337bf64bd146107b95780633a59fc1f1461073d57806359bc719d14610711578063715018a6146106b757806372fa9b851461066d5780637da147b51461065057806389370d8b146105d85780638a34aeb4146105935780638da5cb5b1461056c578063b426429f14610544578063c3445ca314610529578063cfe9ea2d146104c2578063d69b23ba1461042f578063f2fde38b146103a45763fb1eb7ec146100eb57600080fd5b346103a05760603660031901126103a05782359060243580151580820361039c5760443590841561038c57811561037c57835160208082018781523360601b6bffffffffffffffffffffffff1916604084015260548301859052909161015e81607481015b03601f19810183528261098b565b51902080885288825260ff868920541661036c5783885260058252858820548015159081610342575b50610332578752878152848720805460ff1916600117905585875260028152848720931561031d576101b98454610cfb565b84555b600284016101ca8154610cfb565b9055426003850155858752600381528487208551906101e882610921565b338252828201848152878301904282526060840192878452805490680100000000000000008210156103095790610224916001820181556108ef565b9490946102f75751845491516001600160a81b03199092166001600160a01b03919091161790151560a01b60ff60a01b1617835551600183015551600291909101558451918252429082015294955092937faf5692cc9b8ad144229fa0e32a83390bd644dbc02cc27ee00a357da85b2d47599390339086907f37abcfdc727ed95477ee6f5c95abdaef2ee61cfd45098fc31db6ffb73d942e84908690a46102f160018254920154926102d5866109ad565b9051938493846040919493926060820195825260208201520152565b0390a280f35b634e487b7160e01b8c528b8d5260248cfd5b50634e487b7160e01b8c5260418d5260248cfd5b6001840161032b8154610cfb565b90556101bc565b8551630af243e760e21b81528990fd5b905062015180810180911161035957421138610187565b634e487b7160e01b895260118a52602489fd5b8551633f872c1360e11b81528990fd5b83516365796b7760e11b81528790fd5b835163e6394a7760e01b81528790fd5b8480fd5b5080fd5b50823461042b57602036600319011261042b576103bf6108be565b906103c8610d20565b6001600160a01b0391821692831561041557505082546001600160a01b0319811683178455167f8be0079c531659141344cd1fd0a4f28419497f9722a3daafe3b4186f6b6457e08380a380f35b51631e4fbdf760e01b8152908101849052602490fd5b8280fd5b5090346104bf5760609260606003193601126103a0576024356001600160a01b038116810361042b57849291610469916044359135610be3565b93909181519485931515845260209483602086015281518094860152825b8481106104a95750505060608094508284010152601f80199101168101030190f35b8083018701518882018301528795508601610487565b80fd5b50346103a0576104d1366108d9565b9290815260036020528181209081548410156104bf57506080926104f4916108ef565b5090815491600260018201549101549160ff81519460018060a01b038116865260a01c16151560208501528301526060820152f35b50346103a057816003193601126103a0576020905160648152f35b50823461042b57602036600319011261042b5760209282913581526005845220549051908152f35b50346103a057816003193601126103a057905490516001600160a01b039091168152602090f35b50823461042b57602036600319011261042b5780359081156105ca57508252600560205281208054156105c4575080f35b42905580f35b82516365796b7760e11b8152fd5b50823461042b57602036600319011261042b5760809282916105f8610a5c565b503581526002602052209080519061060f82610921565b825492838352600181015460208401908152606060036002840154938587019485520154940193845282519485525160208501525190830152516060820152f35b50346103a057816003193601126103a05760209051620151808152f35b50823461042b57602036600319011261042b576080928291358152600260205220908154916001810154916003600283015492015492815194855260208501528301526060820152f35b82346104bf57806003193601126104bf576106d0610d20565b80546001600160a01b03198116825581906001600160a01b03167f8be0079c531659141344cd1fd0a4f28419497f9722a3daafe3b4186f6b6457e08280a380f35b50823461042b57602036600319011261042b57816020938260ff93358252855220541690519015158152f35b5090346104bf57610756610750366108d9565b90610a95565b8251916020808401908085528351809252808686019401925b82811061077c5785850386f35b835180516001600160a01b03168652808301511515868401528781015188870152606090810151908601526080909401939281019260010161076f565b50823461042b57602036600319011261042b57918192358152600260205220906108298151926107e884610921565b805492838552600182015494856020820152606060036002850154948585850152015491015251938493846040919493926060820195825260208201520152565b0390f35b82346104bf5760203660031901126104bf576108476108be565b61084f610d20565b60018060a01b03166bffffffffffffffffffffffff60a01b600154161760015580f35b5090346104bf5760203660031901126104bf5750610892602092356109ad565b9051908152f35b8390346103a057816003193601126103a0576001546001600160a01b03168152602090f35b600435906001600160a01b03821682036108d457565b600080fd5b60409060031901126108d4576004359060243590565b805482101561090b576000526003602060002091020190600090565b634e487b7160e01b600052603260045260246000fd5b6080810190811067ffffffffffffffff82111761093d57604052565b634e487b7160e01b600052604160045260246000fd5b6020810190811067ffffffffffffffff82111761093d57604052565b6040810190811067ffffffffffffffff82111761093d57604052565b90601f8019910116810190811067ffffffffffffffff82111761093d57604052565b6000908152600260205260408120604051906109c882610921565b80549182815260018201546020820152600282015490606060036040830194848652015491015215610a3c57606482029180830460641490151715610a285751918215610a1457500490565b634e487b7160e01b81526012600452602490fd5b634e487b7160e01b83526011600452602483fd5b505050603290565b67ffffffffffffffff811161093d5760051b60200190565b60405190610a6982610921565b60006060838281528260208201528260408201520152565b805182101561090b5760209160051b010190565b9060009182526020600360205260408084208054938415610bcc5784811115610bc5575083905b610ac585610a44565b95610ad3604051978861098b565b858752601f19610ae287610a44565b01815b818110610ba957505060001980840193808511835b898110610b0e575050505050505050505090565b81610b95578381840301878111610b81579089610b6f828e60028d610b356001988e6108ef565b5090805196610b4388610921565b60ff83548b8060a01b0381168a5260a01c16151590880152888201549087015201546060850152610a81565b52610b7a818d610a81565b5001610afa565b634e487b7160e01b86526011600452602486fd5b634e487b7160e01b85526011600452602485fd5b8690610bb6989598610a5c565b82828c01015201969396610ae5565b9390610abc565b505050505060405190610bde82610953565b815290565b604080516020810192835260609390931b6bffffffffffffffffffffffff19168382015260548301849052939291610c1e8160748101610150565b519020906000918252600460205260ff8483205416610cc25781526005602052828120548015159081610c97575b50610c5f576001925190610bde82610953565b9151610c6a8161096f565b601781527f466565646261636b2077696e646f772065787069726564000000000000000000602082015290565b9050620151808101809111610cae57421138610c4c565b634e487b7160e01b82526011600452602482fd5b509151610cce8161096f565b601a81527f416c7265616479207375626d697474656420666565646261636b000000000000602082015290565b6000198114610d0a5760010190565b634e487b7160e01b600052601160045260246000fd5b6000546001600160a01b03163303610d3457565b60405163118cdaa760e01b8152336004820152602490fdfea2646970667358221220c56ff2aca36db58a585f63527850779360b2edf668df615f2c961d21b7af461264736f6c63430008180033","opcodes":"PUSH1 0x80 CALLVALUE PUSH2 0xC6 JUMPI PUSH1 0x1F PUSH2 0xE64 CODESIZE DUP2 SWAP1 SUB SWAP2 DUP3 ADD PUSH1 0x1F NOT AND DUP4 ADD SWAP2 PUSH1 0x1 PUSH1 0x1 PUSH1 0x40 SHL SUB DUP4 GT DUP5 DUP5 LT OR PUSH2 0xCB JUMPI DUP1 DUP5 SWAP3 PUSH1 0x20 SWAP5 PUSH1 0x40 MSTORE DUP4 CODECOPY DUP2 ADD SUB SLT PUSH2 0xC6 JUMPI MLOAD PUSH1 0x1 PUSH1 0x1 PUSH1 0xA0 SHL SUB SWAP1 DUP2 DUP2 AND SWAP1 DUP2 SWAP1 SUB PUSH2 0xC6 JUMPI CALLER ISZERO PUSH2 0xAD JUMPI PUSH1 0x0 SLOAD PUSH1 0x1 DUP1 PUSH1 0xA0 SHL SUB NOT SWAP1 CALLER DUP3 DUP3 AND OR PUSH1 0x0 SSTORE PUSH1 0x40 MLOAD SWAP4 CALLER SWAP2 AND PUSH32 0x8BE0079C531659141344CD1FD0A4F28419497F9722A3DAAFE3B4186F6B6457E0 PUSH1 0x0 DUP1 LOG3 PUSH1 0x1 SLOAD AND OR PUSH1 0x1 SSTORE PUSH2 0xD82 SWAP1 DUP2 PUSH2 0xE2 DUP3 CODECOPY RETURN JUMPDEST PUSH1 0x40 MLOAD PUSH4 0x1E4FBDF7 PUSH1 0xE0 SHL DUP2 MSTORE PUSH1 0x0 PUSH1 0x4 DUP3 ADD MSTORE PUSH1 0x24 SWAP1 REVERT JUMPDEST PUSH1 0x0 DUP1 REVERT JUMPDEST PUSH4 0x4E487B71 PUSH1 0xE0 SHL PUSH1 0x0 MSTORE PUSH1 0x41 PUSH1 0x4 MSTORE PUSH1 0x24 PUSH1 0x0 REVERT INVALID PUSH1 0x80 PUSH1 0x40 SWAP1 DUP1 DUP3 MSTORE PUSH1 0x4 SWAP2 DUP3 CALLDATASIZE LT ISZERO PUSH2 0x17 JUMPI PUSH1 0x0 DUP1 REVERT JUMPDEST PUSH1 0x0 SWAP2 DUP3 CALLDATALOAD PUSH1 0xE0 SHR SWAP1 DUP2 PUSH4 0xD1CFCAE EQ PUSH2 0x899 JUMPI POP DUP1 PUSH4 0x136018BC EQ PUSH2 0x872 JUMPI DUP1 PUSH4 0x28342ECF EQ PUSH2 0x82D JUMPI DUP1 PUSH4 0x37BF64BD EQ PUSH2 0x7B9 JUMPI DUP1 PUSH4 0x3A59FC1F EQ PUSH2 0x73D JUMPI DUP1 PUSH4 0x59BC719D EQ PUSH2 0x711 JUMPI DUP1 PUSH4 0x715018A6 EQ PUSH2 0x6B7 JUMPI DUP1 PUSH4 0x72FA9B85 EQ PUSH2 0x66D JUMPI DUP1 PUSH4 0x7DA147B5 EQ PUSH2 0x650 JUMPI DUP1 PUSH4 0x89370D8B EQ PUSH2 0x5D8 JUMPI DUP1 PUSH4 0x8A34AEB4 EQ PUSH2 0x593 JUMPI DUP1 PUSH4 0x8DA5CB5B EQ PUSH2 0x56C JUMPI DUP1 PUSH4 0xB426429F EQ PUSH2 0x544 JUMPI DUP1 PUSH4 0xC3445CA3 EQ PUSH2 0x529 JUMPI DUP1 PUSH4 0xCFE9EA2D EQ PUSH2 0x4C2 JUMPI DUP1 PUSH4 0xD69B23BA EQ PUSH2 0x42F JUMPI DUP1 PUSH4 0xF2FDE38B EQ PUSH2 0x3A4 JUMPI PUSH4 0xFB1EB7EC EQ PUSH2 0xEB JUMPI PUSH1 0x0 DUP1 REVERT JUMPDEST CALLVALUE PUSH2 0x3A0 JUMPI PUSH1 0x60 CALLDATASIZE PUSH1 0x3 NOT ADD SLT PUSH2 0x3A0 JUMPI DUP3 CALLDATALOAD SWAP1 PUSH1 0x24 CALLDATALOAD DUP1 ISZERO ISZERO DUP1 DUP3 SUB PUSH2 0x39C JUMPI PUSH1 0x44 CALLDATALOAD SWAP1 DUP5 ISZERO PUSH2 0x38C JUMPI DUP2 ISZERO PUSH2 0x37C JUMPI DUP4 MLOAD PUSH1 0x20 DUP1 DUP3 ADD DUP8 DUP2 MSTORE CALLER PUSH1 0x60 SHL PUSH12 0xFFFFFFFFFFFFFFFFFFFFFFFF NOT AND PUSH1 0x40 DUP5 ADD MSTORE PUSH1 0x54 DUP4 ADD DUP6 SWAP1 MSTORE SWAP1 SWAP2 PUSH2 0x15E DUP2 PUSH1 0x74 DUP2 ADD JUMPDEST SUB PUSH1 0x1F NOT DUP2 ADD DUP4 MSTORE DUP3 PUSH2 0x98B JUMP JUMPDEST MLOAD SWAP1 KECCAK256 DUP1 DUP9 MSTORE DUP9 DUP3 MSTORE PUSH1 0xFF DUP7 DUP10 KECCAK256 SLOAD AND PUSH2 0x36C JUMPI DUP4 DUP9 MSTORE PUSH1 0x5 DUP3 MSTORE DUP6 DUP9 KECCAK256 SLOAD DUP1 ISZERO ISZERO SWAP1 DUP2 PUSH2 0x342 JUMPI JUMPDEST POP PUSH2 0x332 JUMPI DUP8 MSTORE DUP8 DUP2 MSTORE DUP5 DUP8 KECCAK256 DUP1 SLOAD PUSH1 0xFF NOT AND PUSH1 0x1 OR SWAP1 SSTORE DUP6 DUP8 MSTORE PUSH1 0x2 DUP2 MSTORE DUP5 DUP8 KECCAK256 SWAP4 ISZERO PUSH2 0x31D JUMPI PUSH2 0x1B9 DUP5 SLOAD PUSH2 0xCFB JUMP JUMPDEST DUP5 SSTORE JUMPDEST PUSH1 0x2 DUP5 ADD PUSH2 0x1CA DUP2 SLOAD PUSH2 0xCFB JUMP JUMPDEST SWAP1 SSTORE TIMESTAMP PUSH1 0x3 DUP6 ADD SSTORE DUP6 DUP8 MSTORE PUSH1 0x3 DUP2 MSTORE DUP5 DUP8 KECCAK256 DUP6 MLOAD SWAP1 PUSH2 0x1E8 DUP3 PUSH2 0x921 JUMP JUMPDEST CALLER DUP3 MSTORE DUP3 DUP3 ADD DUP5 DUP2 MSTORE DUP8 DUP4 ADD SWAP1 TIMESTAMP DUP3 MSTORE PUSH1 0x60 DUP5 ADD SWAP3 DUP8 DUP5 MSTORE DUP1 SLOAD SWAP1 PUSH9 0x10000000000000000 DUP3 LT ISZERO PUSH2 0x309 JUMPI SWAP1 PUSH2 0x224 SWAP2 PUSH1 0x1 DUP3 ADD DUP2 SSTORE PUSH2 0x8EF JUMP JUMPDEST SWAP5 SWAP1 SWAP5 PUSH2 0x2F7 JUMPI MLOAD DUP5 SLOAD SWAP2 MLOAD PUSH1 0x1 PUSH1 0x1 PUSH1 0xA8 SHL SUB NOT SWAP1 SWAP3 AND PUSH1 0x1 PUSH1 0x1 PUSH1 0xA0 SHL SUB SWAP2 SWAP1 SWAP2 AND OR SWAP1 ISZERO ISZERO PUSH1 0xA0 SHL PUSH1 0xFF PUSH1 0xA0 SHL AND OR DUP4 SSTORE MLOAD PUSH1 0x1 DUP4 ADD SSTORE MLOAD PUSH1 0x2 SWAP2 SWAP1 SWAP2 ADD SSTORE DUP5 MLOAD SWAP2 DUP3 MSTORE TIMESTAMP SWAP1 DUP3 ADD MSTORE SWAP5 SWAP6 POP SWAP3 SWAP4 PUSH32 0xAF5692CC9B8AD144229FA0E32A83390BD644DBC02CC27EE00A357DA85B2D4759 SWAP4 SWAP1 CALLER SWAP1 DUP7 SWAP1 PUSH32 0x37ABCFDC727ED95477EE6F5C95ABDAEF2EE61CFD45098FC31DB6FFB73D942E84 SWAP1 DUP7 SWAP1 LOG4 PUSH2 0x2F1 PUSH1 0x1 DUP3 SLOAD SWAP3 ADD SLOAD SWAP3 PUSH2 0x2D5 DUP7 PUSH2 0x9AD JUMP JUMPDEST SWAP1 MLOAD SWAP4 DUP5 SWAP4 DUP5 PUSH1 0x40 SWAP2 SWAP5 SWAP4 SWAP3 PUSH1 0x60 DUP3 ADD SWAP6 DUP3 MSTORE PUSH1 0x20 DUP3 ADD MSTORE ADD MSTORE JUMP JUMPDEST SUB SWAP1 LOG2 DUP1 RETURN JUMPDEST PUSH4 0x4E487B71 PUSH1 0xE0 SHL DUP13 MSTORE DUP12 DUP14 MSTORE PUSH1 0x24 DUP13 REVERT JUMPDEST POP PUSH4 0x4E487B71 PUSH1 0xE0 SHL DUP13 MSTORE PUSH1 0x41 DUP14 MSTORE PUSH1 0x24 DUP13 REVERT JUMPDEST PUSH1 0x1 DUP5 ADD PUSH2 0x32B DUP2 SLOAD PUSH2 0xCFB JUMP JUMPDEST SWAP1 SSTORE PUSH2 0x1BC JUMP JUMPDEST DUP6 MLOAD PUSH4 0xAF243E7 PUSH1 0xE2 SHL DUP2 MSTORE DUP10 SWAP1 REVERT JUMPDEST SWAP1 POP PUSH3 0x15180 DUP2 ADD DUP1 SWAP2 GT PUSH2 0x359 JUMPI TIMESTAMP GT CODESIZE PUSH2 0x187 JUMP JUMPDEST PUSH4 0x4E487B71 PUSH1 0xE0 SHL DUP10 MSTORE PUSH1 0x11 DUP11 MSTORE PUSH1 0x24 DUP10 REVERT JUMPDEST DUP6 MLOAD PUSH4 0x3F872C13 PUSH1 0xE1 SHL DUP2 MSTORE DUP10 SWAP1 REVERT JUMPDEST DUP4 MLOAD PUSH4 0x65796B77 PUSH1 0xE1 SHL DUP2 MSTORE DUP8 SWAP1 REVERT JUMPDEST DUP4 MLOAD PUSH4 0xE6394A77 PUSH1 0xE0 SHL DUP2 MSTORE DUP8 SWAP1 REVERT JUMPDEST DUP5 DUP1 REVERT JUMPDEST POP DUP1 REVERT JUMPDEST POP DUP3 CALLVALUE PUSH2 0x42B JUMPI PUSH1 0x20 CALLDATASIZE PUSH1 0x3 NOT ADD SLT PUSH2 0x42B JUMPI PUSH2 0x3BF PUSH2 0x8BE JUMP JUMPDEST SWAP1 PUSH2 0x3C8 PUSH2 0xD20 JUMP JUMPDEST PUSH1 0x1 PUSH1 0x1 PUSH1 0xA0 SHL SUB SWAP2 DUP3 AND SWAP3 DUP4 ISZERO PUSH2 0x415 JUMPI POP POP DUP3 SLOAD PUSH1 0x1 PUSH1 0x1 PUSH1 0xA0 SHL SUB NOT DUP2 AND DUP4 OR DUP5 SSTORE AND PUSH32 0x8BE0079C531659141344CD1FD0A4F28419497F9722A3DAAFE3B4186F6B6457E0 DUP4 DUP1 LOG3 DUP1 RETURN JUMPDEST MLOAD PUSH4 0x1E4FBDF7 PUSH1 0xE0 SHL DUP2 MSTORE SWAP1 DUP2 ADD DUP5 SWAP1 MSTORE PUSH1 0x24 SWAP1 REVERT JUMPDEST DUP3 DUP1 REVERT JUMPDEST POP SWAP1 CALLVALUE PUSH2 0x4BF JUMPI PUSH1 0x60 SWAP3 PUSH1 0x60 PUSH1 0x3 NOT CALLDATASIZE ADD SLT PUSH2 0x3A0 JUMPI PUSH1 0x24 CALLDATALOAD PUSH1 0x1 PUSH1 0x1 PUSH1 0xA0 SHL SUB DUP2 AND DUP2 SUB PUSH2 0x42B JUMPI DUP5 SWAP3 SWAP2 PUSH2 0x469 SWAP2 PUSH1 0x44 CALLDATALOAD SWAP2 CALLDATALOAD PUSH2 0xBE3 JUMP JUMPDEST SWAP4 SWAP1 SWAP2 DUP2 MLOAD SWAP5 DUP6 SWAP4 ISZERO ISZERO DUP5 MSTORE PUSH1 0x20 SWAP5 DUP4 PUSH1 0x20 DUP7 ADD MSTORE DUP2 MLOAD DUP1 SWAP5 DUP7 ADD MSTORE DUP3 JUMPDEST DUP5 DUP2 LT PUSH2 0x4A9 JUMPI POP POP POP PUSH1 0x60 DUP1 SWAP5 POP DUP3 DUP5 ADD ADD MSTORE PUSH1 0x1F DUP1 NOT SWAP2 ADD AND DUP2 ADD SUB ADD SWAP1 RETURN JUMPDEST DUP1 DUP4 ADD DUP8 ADD MLOAD DUP9 DUP3 ADD DUP4 ADD MSTORE DUP8 SWAP6 POP DUP7 ADD PUSH2 0x487 JUMP JUMPDEST DUP1 REVERT JUMPDEST POP CALLVALUE PUSH2 0x3A0 JUMPI PUSH2 0x4D1 CALLDATASIZE PUSH2 0x8D9 JUMP JUMPDEST SWAP3 SWAP1 DUP2 MSTORE PUSH1 0x3 PUSH1 0x20 MSTORE DUP2 DUP2 KECCAK256 SWAP1 DUP2 SLOAD DUP5 LT ISZERO PUSH2 0x4BF JUMPI POP PUSH1 0x80 SWAP3 PUSH2 0x4F4 SWAP2 PUSH2 0x8EF JUMP JUMPDEST POP SWAP1 DUP2 SLOAD SWAP2 PUSH1 0x2 PUSH1 0x1 DUP3 ADD SLOAD SWAP2 ADD SLOAD SWAP2 PUSH1 0xFF DUP2 MLOAD SWAP5 PUSH1 0x1 DUP1 PUSH1 0xA0 SHL SUB DUP2 AND DUP7 MSTORE PUSH1 0xA0 SHR AND ISZERO ISZERO PUSH1 0x20 DUP6 ADD MSTORE DUP4 ADD MSTORE PUSH1 0x60 DUP3 ADD MSTORE RETURN JUMPDEST POP CALLVALUE PUSH2 0x3A0 JUMPI DUP2 PUSH1 0x3 NOT CALLDATASIZE ADD SLT PUSH2 0x3A0 JUMPI PUSH1 0x20 SWAP1 MLOAD PUSH1 0x64 DUP2 MSTORE RETURN JUMPDEST POP DUP3 CALLVALUE PUSH2 0x42B JUMPI PUSH1 0x20 CALLDATASIZE PUSH1 0x3 NOT ADD SLT PUSH2 0x42B JUMPI PUSH1 0x20 SWAP3 DUP3 SWAP2 CALLDATALOAD DUP2 MSTORE PUSH1 0x5 DUP5 MSTORE KECCAK256 SLOAD SWAP1 MLOAD SWAP1 DUP2 MSTORE RETURN JUMPDEST POP CALLVALUE PUSH2 0x3A0 JUMPI DUP2 PUSH1 0x3 NOT CALLDATASIZE ADD SLT PUSH2 0x3A0 JUMPI SWAP1 SLOAD SWAP1 MLOAD PUSH1 0x1 PUSH1 0x1 PUSH1 0xA0 SHL SUB SWAP1 SWAP2 AND DUP2 MSTORE PUSH1 0x20 SWAP1 RETURN JUMPDEST POP DUP3 CALLVALUE PUSH2 0x42B JUMPI PUSH1 0x20 CALLDATASIZE PUSH1 0x3 NOT ADD SLT PUSH2 0x42B JUMPI DUP1 CALLDATALOAD SWAP1 DUP2 ISZERO PUSH2 0x5CA JUMPI POP DUP3 MSTORE PUSH1 0x5 PUSH1 0x20 MSTORE DUP2 KECCAK256 DUP1 SLOAD ISZERO PUSH2 0x5C4 JUMPI POP DUP1 RETURN JUMPDEST TIMESTAMP SWAP1 SSTORE DUP1 RETURN JUMPDEST DUP3 MLOAD PUSH4 0x65796B77 PUSH1 0xE1 SHL DUP2 MSTORE REVERT JUMPDEST POP DUP3 CALLVALUE PUSH2 0x42B JUMPI PUSH1 0x20 CALLDATASIZE PUSH1 0x3 NOT ADD SLT PUSH2 0x42B JUMPI PUSH1 0x80 SWAP3 DUP3 SWAP2 PUSH2 0x5F8 PUSH2 0xA5C JUMP JUMPDEST POP CALLDATALOAD DUP2 MSTORE PUSH1 0x2 PUSH1 0x20 MSTORE KECCAK256 SWAP1 DUP1 MLOAD SWAP1 PUSH2 0x60F DUP3 PUSH2 0x921 JUMP JUMPDEST DUP3 SLOAD SWAP3 DUP4 DUP4 MSTORE PUSH1 0x1 DUP2 ADD SLOAD PUSH1 0x20 DUP5 ADD SWAP1 DUP2 MSTORE PUSH1 0x60 PUSH1 0x3 PUSH1 0x2 DUP5 ADD SLOAD SWAP4 DUP6 DUP8 ADD SWAP5 DUP6 MSTORE ADD SLOAD SWAP5 ADD SWAP4 DUP5 MSTORE DUP3 MLOAD SWAP5 DUP6 MSTORE MLOAD PUSH1 0x20 DUP6 ADD MSTORE MLOAD SWAP1 DUP4 ADD MSTORE MLOAD PUSH1 0x60 DUP3 ADD MSTORE RETURN JUMPDEST POP CALLVALUE PUSH2 0x3A0 JUMPI DUP2 PUSH1 0x3 NOT CALLDATASIZE ADD SLT PUSH2 0x3A0 JUMPI PUSH1 0x20 SWAP1 MLOAD PUSH3 0x15180 DUP2 MSTORE RETURN JUMPDEST POP DUP3 CALLVALUE PUSH2 0x42B JUMPI PUSH1 0x20 CALLDATASIZE PUSH1 0x3 NOT ADD SLT PUSH2 0x42B JUMPI PUSH1 0x80 SWAP3 DUP3 SWAP2 CALLDATALOAD DUP2 MSTORE PUSH1 0x2 PUSH1 0x20 MSTORE KECCAK256 SWAP1 DUP2 SLOAD SWAP2 PUSH1 0x1 DUP2 ADD SLOAD SWAP2 PUSH1 0x3 PUSH1 0x2 DUP4 ADD SLOAD SWAP3 ADD SLOAD SWAP3 DUP2 MLOAD SWAP5 DUP6 MSTORE PUSH1 0x20 DUP6 ADD MSTORE DUP4 ADD MSTORE PUSH1 0x60 DUP3 ADD MSTORE RETURN JUMPDEST DUP3 CALLVALUE PUSH2 0x4BF JUMPI DUP1 PUSH1 0x3 NOT CALLDATASIZE ADD SLT PUSH2 0x4BF JUMPI PUSH2 0x6D0 PUSH2 0xD20 JUMP JUMPDEST DUP1 SLOAD PUSH1 0x1 PUSH1 0x1 PUSH1 0xA0 SHL SUB NOT DUP2 AND DUP3 SSTORE DUP2 SWAP1 PUSH1 0x1 PUSH1 0x1 PUSH1 0xA0 SHL SUB AND PUSH32 0x8BE0079C531659141344CD1FD0A4F28419497F9722A3DAAFE3B4186F6B6457E0 DUP3 DUP1 LOG3 DUP1 RETURN JUMPDEST POP DUP3 CALLVALUE PUSH2 0x42B JUMPI PUSH1 0x20 CALLDATASIZE PUSH1 0x3 NOT ADD SLT PUSH2 0x42B JUMPI DUP2 PUSH1 0x20 SWAP4 DUP3 PUSH1 0xFF SWAP4 CALLDATALOAD DUP3 MSTORE DUP6 MSTORE KECCAK256 SLOAD AND SWAP1 MLOAD SWAP1 ISZERO ISZERO DUP2 MSTORE RETURN JUMPDEST POP SWAP1 CALLVALUE PUSH2 0x4BF JUMPI PUSH2 0x756 PUSH2 0x750 CALLDATASIZE PUSH2 0x8D9 JUMP JUMPDEST SWAP1 PUSH2 0xA95 JUMP JUMPDEST DUP3 MLOAD SWAP2 PUSH1 0x20 DUP1 DUP5 ADD SWAP1 DUP1 DUP6 MSTORE DUP4 MLOAD DUP1 SWAP3 MSTORE DUP1 DUP7 DUP7 ADD SWAP5 ADD SWAP3 JUMPDEST DUP3 DUP2 LT PUSH2 0x77C JUMPI DUP6 DUP6 SUB DUP7 RETURN JUMPDEST DUP4 MLOAD DUP1 MLOAD PUSH1 0x1 PUSH1 0x1 PUSH1 0xA0 SHL SUB AND DUP7 MSTORE DUP1 DUP4 ADD MLOAD ISZERO ISZERO DUP7 DUP5 ADD MSTORE DUP8 DUP2 ADD MLOAD DUP9 DUP8 ADD MSTORE PUSH1 0x60 SWAP1 DUP2 ADD MLOAD SWAP1 DUP7 ADD MSTORE PUSH1 0x80 SWAP1 SWAP5 ADD SWAP4 SWAP3 DUP2 ADD SWAP3 PUSH1 0x1 ADD PUSH2 0x76F JUMP JUMPDEST POP DUP3 CALLVALUE PUSH2 0x42B JUMPI PUSH1 0x20 CALLDATASIZE PUSH1 0x3 NOT ADD SLT PUSH2 0x42B JUMPI SWAP2 DUP2 SWAP3 CALLDATALOAD DUP2 MSTORE PUSH1 0x2 PUSH1 0x20 MSTORE KECCAK256 SWAP1 PUSH2 0x829 DUP2 MLOAD SWAP3 PUSH2 0x7E8 DUP5 PUSH2 0x921 JUMP JUMPDEST DUP1 SLOAD SWAP3 DUP4 DUP6 MSTORE PUSH1 0x1 DUP3 ADD SLOAD SWAP5 DUP6 PUSH1 0x20 DUP3 ADD MSTORE PUSH1 0x60 PUSH1 0x3 PUSH1 0x2 DUP6 ADD SLOAD SWAP5 DUP6 DUP6 DUP6 ADD MSTORE ADD SLOAD SWAP2 ADD MSTORE MLOAD SWAP4 DUP5 SWAP4 DUP5 PUSH1 0x40 SWAP2 SWAP5 SWAP4 SWAP3 PUSH1 0x60 DUP3 ADD SWAP6 DUP3 MSTORE PUSH1 0x20 DUP3 ADD MSTORE ADD MSTORE JUMP JUMPDEST SUB SWAP1 RETURN JUMPDEST DUP3 CALLVALUE PUSH2 0x4BF JUMPI PUSH1 0x20 CALLDATASIZE PUSH1 0x3 NOT ADD SLT PUSH2 0x4BF JUMPI PUSH2 0x847 PUSH2 0x8BE JUMP JUMPDEST PUSH2 0x84F PUSH2 0xD20 JUMP JUMPDEST PUSH1 0x1 DUP1 PUSH1 0xA0 SHL SUB AND PUSH12 0xFFFFFFFFFFFFFFFFFFFFFFFF PUSH1 0xA0 SHL PUSH1 0x1 SLOAD AND OR PUSH1 0x1 SSTORE DUP1 RETURN JUMPDEST POP SWAP1 CALLVALUE PUSH2 0x4BF JUMPI PUSH1 0x20 CALLDATASIZE PUSH1 0x3 NOT ADD SLT PUSH2 0x4BF JUMPI POP PUSH2 0x892 PUSH1 0x20 SWAP3 CALLDATALOAD PUSH2 0x9AD JUMP JUMPDEST SWAP1 MLOAD SWAP1 DUP2 MSTORE RETURN JUMPDEST DUP4 SWAP1 CALLVALUE PUSH2 0x3A0 JUMPI DUP2 PUSH1 0x3 NOT CALLDATASIZE ADD SLT PUSH2 0x3A0 JUMPI PUSH1 0x1 SLOAD PUSH1 0x1 PUSH1 0x1 PUSH1 0xA0 SHL SUB AND DUP2 MSTORE PUSH1 0x20 SWAP1 RETURN JUMPDEST PUSH1 0x4 CALLDATALOAD SWAP1 PUSH1 0x1 PUSH1 0x1 PUSH1 0xA0 SHL SUB DUP3 AND DUP3 SUB PUSH2 0x8D4 JUMPI JUMP JUMPDEST PUSH1 0x0 DUP1 REVERT JUMPDEST PUSH1 0x40 SWAP1 PUSH1 0x3 NOT ADD SLT PUSH2 0x8D4 JUMPI PUSH1 0x4 CALLDATALOAD SWAP1 PUSH1 0x24 CALLDATALOAD SWAP1 JUMP JUMPDEST DUP1 SLOAD DUP3 LT ISZERO PUSH2 0x90B JUMPI PUSH1 0x0 MSTORE PUSH1 0x3 PUSH1 0x20 PUSH1 0x0 KECCAK256 SWAP2 MUL ADD SWAP1 PUSH1 0x0 SWAP1 JUMP JUMPDEST PUSH4 0x4E487B71 PUSH1 0xE0 SHL PUSH1 0x0 MSTORE PUSH1 0x32 PUSH1 0x4 MSTORE PUSH1 0x24 PUSH1 0x0 REVERT JUMPDEST PUSH1 0x80 DUP2 ADD SWAP1 DUP2 LT PUSH8 0xFFFFFFFFFFFFFFFF DUP3 GT OR PUSH2 0x93D JUMPI PUSH1 0x40 MSTORE JUMP JUMPDEST PUSH4 0x4E487B71 PUSH1 0xE0 SHL PUSH1 0x0 MSTORE PUSH1 0x41 PUSH1 0x4 MSTORE PUSH1 0x24 PUSH1 0x0 REVERT JUMPDEST PUSH1 0x20 DUP2 ADD SWAP1 DUP2 LT PUSH8 0xFFFFFFFFFFFFFFFF DUP3 GT OR PUSH2 0x93D JUMPI PUSH1 0x40 MSTORE JUMP JUMPDEST PUSH1 0x40 DUP2 ADD SWAP1 DUP2 LT PUSH8 0xFFFFFFFFFFFFFFFF DUP3 GT OR PUSH2 0x93D JUMPI PUSH1 0x40 MSTORE JUMP JUMPDEST SWAP1 PUSH1 0x1F DUP1 NOT SWAP2 ADD AND DUP2 ADD SWAP1 DUP2 LT PUSH8 0xFFFFFFFFFFFFFFFF DUP3 GT OR PUSH2 0x93D JUMPI PUSH1 0x40 MSTORE JUMP JUMPDEST PUSH1 0x0 SWAP1 DUP2 MSTORE PUSH1 0x2 PUSH1 0x20 MSTORE PUSH1 0x40 DUP2 KECCAK256 PUSH1 0x40 MLOAD SWAP1 PUSH2 0x9C8 DUP3 PUSH2 0x921 JUMP JUMPDEST DUP1 SLOAD SWAP2 DUP3 DUP2 MSTORE PUSH1 0x1 DUP3 ADD SLOAD PUSH1 0x20 DUP3 ADD MSTORE PUSH1 0x2 DUP3 ADD SLOAD SWAP1 PUSH1 0x60 PUSH1 0x3 PUSH1 0x40 DUP4 ADD SWAP5 DUP5 DUP7 MSTORE ADD SLOAD SWAP2 ADD MSTORE ISZERO PUSH2 0xA3C JUMPI PUSH1 0x64 DUP3 MUL SWAP2 DUP1 DUP4 DIV PUSH1 0x64 EQ SWAP1 ISZERO OR ISZERO PUSH2 0xA28 JUMPI MLOAD SWAP2 DUP3 ISZERO PUSH2 0xA14 JUMPI POP DIV SWAP1 JUMP JUMPDEST PUSH4 0x4E487B71 PUSH1 0xE0 SHL DUP2 MSTORE PUSH1 0x12 PUSH1 0x4 MSTORE PUSH1 0x24 SWAP1 REVERT JUMPDEST PUSH4 0x4E487B71 PUSH1 0xE0 SHL DUP4 MSTORE PUSH1 0x11 PUSH1 0x4 MSTORE PUSH1 0x24 DUP4 REVERT JUMPDEST POP POP POP PUSH1 0x32 SWAP1 JUMP JUMPDEST PUSH8 0xFFFFFFFFFFFFFFFF DUP2 GT PUSH2 0x93D JUMPI PUSH1 0x5 SHL PUSH1 0x20 ADD SWAP1 JUMP JUMPDEST PUSH1 0x40 MLOAD SWAP1 PUSH2 0xA69 DUP3 PUSH2 0x921 JUMP JUMPDEST PUSH1 0x0 PUSH1 0x60 DUP4 DUP3 DUP2 MSTORE DUP3 PUSH1 0x20 DUP3 ADD MSTORE DUP3 PUSH1 0x40 DUP3 ADD MSTORE ADD MSTORE JUMP JUMPDEST DUP1 MLOAD DUP3 LT ISZERO PUSH2 0x90B JUMPI PUSH1 0x20 SWAP2 PUSH1 0x5 SHL ADD ADD SWAP1 JUMP JUMPDEST SWAP1 PUSH1 0x0 SWAP2 DUP3 MSTORE PUSH1 0x20 PUSH1 0x3 PUSH1 0x20 MSTORE PUSH1 0x40 DUP1 DUP5 KECCAK256 DUP1 SLOAD SWAP4 DUP5 ISZERO PUSH2 0xBCC JUMPI DUP5 DUP2 GT ISZERO PUSH2 0xBC5 JUMPI POP DUP4 SWAP1 JUMPDEST PUSH2 0xAC5 DUP6 PUSH2 0xA44 JUMP JUMPDEST SWAP6 PUSH2 0xAD3 PUSH1 0x40 MLOAD SWAP8 DUP9 PUSH2 0x98B JUMP JUMPDEST DUP6 DUP8 MSTORE PUSH1 0x1F NOT PUSH2 0xAE2 DUP8 PUSH2 0xA44 JUMP JUMPDEST ADD DUP2 JUMPDEST DUP2 DUP2 LT PUSH2 0xBA9 JUMPI POP POP PUSH1 0x0 NOT DUP1 DUP5 ADD SWAP4 DUP1 DUP6 GT DUP4 JUMPDEST DUP10 DUP2 LT PUSH2 0xB0E JUMPI POP POP POP POP POP POP POP POP POP POP SWAP1 JUMP JUMPDEST DUP2 PUSH2 0xB95 JUMPI DUP4 DUP2 DUP5 SUB ADD DUP8 DUP2 GT PUSH2 0xB81 JUMPI SWAP1 DUP10 PUSH2 0xB6F DUP3 DUP15 PUSH1 0x2 DUP14 PUSH2 0xB35 PUSH1 0x1 SWAP9 DUP15 PUSH2 0x8EF JUMP JUMPDEST POP SWAP1 DUP1 MLOAD SWAP7 PUSH2 0xB43 DUP9 PUSH2 0x921 JUMP JUMPDEST PUSH1 0xFF DUP4 SLOAD DUP12 DUP1 PUSH1 0xA0 SHL SUB DUP2 AND DUP11 MSTORE PUSH1 0xA0 SHR AND ISZERO ISZERO SWAP1 DUP9 ADD MSTORE DUP9 DUP3 ADD SLOAD SWAP1 DUP8 ADD MSTORE ADD SLOAD PUSH1 0x60 DUP6 ADD MSTORE PUSH2 0xA81 JUMP JUMPDEST MSTORE PUSH2 0xB7A DUP2 DUP14 PUSH2 0xA81 JUMP JUMPDEST POP ADD PUSH2 0xAFA JUMP JUMPDEST PUSH4 0x4E487B71 PUSH1 0xE0 SHL DUP7 MSTORE PUSH1 0x11 PUSH1 0x4 MSTORE PUSH1 0x24 DUP7 REVERT JUMPDEST PUSH4 0x4E487B71 PUSH1 0xE0 SHL DUP6 MSTORE PUSH1 0x11 PUSH1 0x4 MSTORE PUSH1 0x24 DUP6 REVERT JUMPDEST DUP7 SWAP1 PUSH2 0xBB6 SWAP9 SWAP6 SWAP9 PUSH2 0xA5C JUMP JUMPDEST DUP3 DUP3 DUP13 ADD ADD MSTORE ADD SWAP7 SWAP4 SWAP7 PUSH2 0xAE5 JUMP JUMPDEST SWAP4 SWAP1 PUSH2 0xABC JUMP JUMPDEST POP POP POP POP POP PUSH1 0x40 MLOAD SWAP1 PUSH2 0xBDE DUP3 PUSH2 0x953 JUMP JUMPDEST DUP2 MSTORE SWAP1 JUMP JUMPDEST PUSH1 0x40 DUP1 MLOAD PUSH1 0x20 DUP2 ADD SWAP3 DUP4 MSTORE PUSH1 0x60 SWAP4 SWAP1 SWAP4 SHL PUSH12 0xFFFFFFFFFFFFFFFFFFFFFFFF NOT AND DUP4 DUP3 ADD MSTORE PUSH1 0x54 DUP4 ADD DUP5 SWAP1 MSTORE SWAP4 SWAP3 SWAP2 PUSH2 0xC1E DUP2 PUSH1 0x74 DUP2 ADD PUSH2 0x150 JUMP JUMPDEST MLOAD SWAP1 KECCAK256 SWAP1 PUSH1 0x0 SWAP2 DUP3 MSTORE PUSH1 0x4 PUSH1 0x20 MSTORE PUSH1 0xFF DUP5 DUP4 KECCAK256 SLOAD AND PUSH2 0xCC2 JUMPI DUP2 MSTORE PUSH1 0x5 PUSH1 0x20 MSTORE DUP3 DUP2 KECCAK256 SLOAD DUP1 ISZERO ISZERO SWAP1 DUP2 PUSH2 0xC97 JUMPI JUMPDEST POP PUSH2 0xC5F JUMPI PUSH1 0x1 SWAP3 MLOAD SWAP1 PUSH2 0xBDE DUP3 PUSH2 0x953 JUMP JUMPDEST SWAP2 MLOAD PUSH2 0xC6A DUP2 PUSH2 0x96F JUMP JUMPDEST PUSH1 0x17 DUP2 MSTORE PUSH32 0x466565646261636B2077696E646F772065787069726564000000000000000000 PUSH1 0x20 DUP3 ADD MSTORE SWAP1 JUMP JUMPDEST SWAP1 POP PUSH3 0x15180 DUP2 ADD DUP1 SWAP2 GT PUSH2 0xCAE JUMPI TIMESTAMP GT CODESIZE PUSH2 0xC4C JUMP JUMPDEST PUSH4 0x4E487B71 PUSH1 0xE0 SHL DUP3 MSTORE PUSH1 0x11 PUSH1 0x4 MSTORE PUSH1 0x24 DUP3 REVERT JUMPDEST POP SWAP2 MLOAD PUSH2 0xCCE DUP2 PUSH2 0x96F JUMP JUMPDEST PUSH1 0x1A DUP2 MSTORE PUSH32 0x416C7265616479207375626D697474656420666565646261636B000000000000 PUSH1 0x20 DUP3 ADD MSTORE SWAP1 JUMP JUMPDEST PUSH1 0x0 NOT DUP2 EQ PUSH2 0xD0A JUMPI PUSH1 0x1 ADD SWAP1 JUMP JUMPDEST PUSH4 0x4E487B71 PUSH1 0xE0 SHL PUSH1 0x0 MSTORE PUSH1 0x11 PUSH1 0x4 MSTORE PUSH1 0x24 PUSH1 0x0 REVERT JUMPDEST PUSH1 0x0 SLOAD PUSH1 0x1 PUSH1 0x1 PUSH1 0xA0 SHL SUB AND CALLER SUB PUSH2 0xD34 JUMPI JUMP JUMPDEST PUSH1 0x40 MLOAD PUSH4 0x118CDAA7 PUSH1 0xE0 SHL DUP2 MSTORE CALLER PUSH1 0x4 DUP3 ADD MSTORE PUSH1 0x24 SWAP1 REVERT INVALID LOG2 PUSH5 0x6970667358 0x22 SLT KECCAK256 0xC5 PUSH16 0xF2ACA36DB58A585F63527850779360B2 0xED 0xF6 PUSH9 0xDF615F2C961D21B7AF CHAINID SLT PUSH5 0x736F6C6343 STOP ADDMOD XOR STOP CALLER "},"methodIdentifiers":{"FEEDBACK_WINDOW()":"7da147b5","SCORE_PRECISION()":"c3445ca3","agentRegistry()":"0d1cfcae","calculateScore(uint256)":"136018bc","canSubmitFeedback(uint256,address,bytes32)":"d69b23ba","feedbackHistory(uint256,uint256)":"cfe9ea2d","getFeedbackCounts(uint256)":"37bf64bd","getRecentFeedback(uint256,uint256)":"3a59fc1f","getReputation(uint256)":"89370d8b","hasSubmittedFeedback(bytes32)":"59bc719d","inferenceTimestamps(bytes32)":"b426429f","owner()":"8da5cb5b","recordInference(bytes32)":"8a34aeb4","renounceOwnership()":"715018a6","reputations(uint256)":"72fa9b85","setAgentRegistry(address)":"28342ecf","submitFeedback(uint256,bool,bytes32)":"fb1eb7ec","transferOwnership(address)":"f2fde38b"}}}}}