{"contracts/AgentRegistryV2.sol":{"AgentRegistryV2":{"abi":[{"inputs":[{"internalType":"address","name":"_marketplace","type":"address"}],"stateMutability":"nonpayable","type":"constructor"},{"inputs":[],"name":"AgentAlreadyExists","type":"error"},{"inputs":[],"name":"AgentNotActive","type":"error"},{"inputs":[],"name":"ContractNotAllowed","type":"error"},{"inputs":[{"internalType":"address","name":"sender","type":"address"},{"internalType":"uint256","name":"tokenId","type":"uint256"},{"internalType":"address","name":"owner","type":"address"}],"name":"ERC721IncorrectOwner","type":"error"},{"inputs":[{"internalType":"address","name":"operator","type":"address"},{"internalType":"uint256","name":"tokenId","type":"uint256"}],"name":"ERC721InsufficientApproval","type":"error"},{"inputs":[{"internalType":"address","name":"approver","type":"address"}],"name":"ERC721InvalidApprover","type":"error"},{"inputs":[{"internalType":"address","name":"operator","type":"address"}],"name":"ERC721InvalidOperator","type":"error"},{"inputs":[{"internalType":"address","name":"owner","type":"address"}],"name":"ERC721InvalidOwner","type":"error"},{"inputs":[{"internalType":"address","name":"receiver","type":"address"}],"name":"ERC721InvalidReceiver","type":"error"},{"inputs":[{"internalType":"address","name":"sender","type":"address"}],"name":"ERC721InvalidSender","type":"error"},{"inputs":[{"internalType":"uint256","name":"tokenId","type":"uint256"}],"name":"ERC721NonexistentToken","type":"error"},{"inputs":[],"name":"EndpointTooLong","type":"error"},{"inputs":[],"name":"EnforcedPause","type":"error"},{"inputs":[],"name":"ExpectedPause","type":"error"},{"inputs":[],"name":"InvalidModelId","type":"error"},{"inputs":[],"name":"NoPendingChange","type":"error"},{"inputs":[],"name":"NotAgentOwner","type":"error"},{"inputs":[],"name":"OnlyMarketplace","type":"error"},{"inputs":[{"internalType":"address","name":"owner","type":"address"}],"name":"OwnableInvalidOwner","type":"error"},{"inputs":[{"internalType":"address","name":"account","type":"address"}],"name":"OwnableUnauthorizedAccount","type":"error"},{"inputs":[],"name":"ReentrancyGuardReentrantCall","type":"error"},{"inputs":[],"name":"TimelockNotExpired","type":"error"},{"inputs":[],"name":"URITooLong","type":"error"},{"inputs":[],"name":"ZeroAddress","type":"error"},{"anonymous":false,"inputs":[{"indexed":true,"internalType":"uint256","name":"agentId","type":"uint256"}],"name":"AgentDeactivated","type":"event"},{"anonymous":false,"inputs":[{"indexed":true,"internalType":"uint256","name":"agentId","type":"uint256"},{"indexed":false,"internalType":"string","name":"endpoint","type":"string"}],"name":"AgentEndpointUpdated","type":"event"},{"anonymous":false,"inputs":[{"indexed":true,"internalType":"uint256","name":"agentId","type":"uint256"},{"indexed":false,"internalType":"string","name":"newUri","type":"string"}],"name":"AgentMetadataUpdated","type":"event"},{"anonymous":false,"inputs":[{"indexed":true,"internalType":"uint256","name":"agentId","type":"uint256"}],"name":"AgentReactivated","type":"event"},{"anonymous":false,"inputs":[{"indexed":true,"internalType":"uint256","name":"agentId","type":"uint256"},{"indexed":true,"internalType":"address","name":"owner","type":"address"},{"indexed":true,"internalType":"uint256","name":"modelId","type":"uint256"},{"indexed":false,"internalType":"string","name":"metadataUri","type":"string"}],"name":"AgentRegistered","type":"event"},{"anonymous":false,"inputs":[{"indexed":true,"internalType":"uint256","name":"agentId","type":"uint256"},{"indexed":true,"internalType":"address","name":"owner","type":"address"},{"indexed":true,"internalType":"uint256","name":"modelId","type":"uint256"},{"indexed":false,"internalType":"address","name":"registeredBy","type":"address"}],"name":"AgentRegisteredFor","type":"event"},{"anonymous":false,"inputs":[{"indexed":true,"internalType":"uint256","name":"agentId","type":"uint256"},{"indexed":false,"internalType":"address","name":"oldWallet","type":"address"},{"indexed":false,"internalType":"address","name":"newWallet","type":"address"},{"indexed":false,"internalType":"uint256","name":"effectiveAt","type":"uint256"}],"name":"AgentWalletChangeRequested","type":"event"},{"anonymous":false,"inputs":[{"indexed":true,"internalType":"uint256","name":"agentId","type":"uint256"},{"indexed":false,"internalType":"address","name":"oldWallet","type":"address"},{"indexed":false,"internalType":"address","name":"newWallet","type":"address"}],"name":"AgentWalletChanged","type":"event"},{"anonymous":false,"inputs":[{"indexed":true,"internalType":"address","name":"owner","type":"address"},{"indexed":true,"internalType":"address","name":"approved","type":"address"},{"indexed":true,"internalType":"uint256","name":"tokenId","type":"uint256"}],"name":"Approval","type":"event"},{"anonymous":false,"inputs":[{"indexed":true,"internalType":"address","name":"owner","type":"address"},{"indexed":true,"internalType":"address","name":"operator","type":"address"},{"indexed":false,"internalType":"bool","name":"approved","type":"bool"}],"name":"ApprovalForAll","type":"event"},{"anonymous":false,"inputs":[{"indexed":false,"internalType":"uint256","name":"_fromTokenId","type":"uint256"},{"indexed":false,"internalType":"uint256","name":"_toTokenId","type":"uint256"}],"name":"BatchMetadataUpdate","type":"event"},{"anonymous":false,"inputs":[{"indexed":true,"internalType":"address","name":"newMarketplace","type":"address"}],"name":"MarketplaceUpdated","type":"event"},{"anonymous":false,"inputs":[{"indexed":false,"internalType":"uint256","name":"_tokenId","type":"uint256"}],"name":"MetadataUpdate","type":"event"},{"anonymous":false,"inputs":[{"indexed":true,"internalType":"address","name":"previousOwner","type":"address"},{"indexed":true,"internalType":"address","name":"newOwner","type":"address"}],"name":"OwnershipTransferStarted","type":"event"},{"anonymous":false,"inputs":[{"indexed":true,"internalType":"address","name":"previousOwner","type":"address"},{"indexed":true,"internalType":"address","name":"newOwner","type":"address"}],"name":"OwnershipTransferred","type":"event"},{"anonymous":false,"inputs":[{"indexed":false,"internalType":"address","name":"account","type":"address"}],"name":"Paused","type":"event"},{"anonymous":false,"inputs":[{"indexed":true,"internalType":"address","name":"from","type":"address"},{"indexed":true,"internalType":"address","name":"to","type":"address"},{"indexed":true,"internalType":"uint256","name":"tokenId","type":"uint256"}],"name":"Transfer","type":"event"},{"anonymous":false,"inputs":[{"indexed":false,"internalType":"address","name":"account","type":"address"}],"name":"Unpaused","type":"event"},{"inputs":[],"name":"MAX_ENDPOINT_LENGTH","outputs":[{"internalType":"uint256","name":"","type":"uint256"}],"stateMutability":"view","type":"function"},{"inputs":[],"name":"MAX_URI_LENGTH","outputs":[{"internalType":"uint256","name":"","type":"uint256"}],"stateMutability":"view","type":"function"},{"inputs":[],"name":"TIMELOCK_DELAY","outputs":[{"internalType":"uint256","name":"","type":"uint256"}],"stateMutability":"view","type":"function"},{"inputs":[],"name":"acceptOwnership","outputs":[],"stateMutability":"nonpayable","type":"function"},{"inputs":[{"internalType":"uint256","name":"","type":"uint256"}],"name":"agents","outputs":[{"internalType":"uint256","name":"modelId","type":"uint256"},{"internalType":"address","name":"wallet","type":"address"},{"internalType":"string","name":"endpoint","type":"string"},{"internalType":"uint256","name":"registeredAt","type":"uint256"},{"internalType":"bool","name":"active","type":"bool"}],"stateMutability":"view","type":"function"},{"inputs":[{"internalType":"address","name":"to","type":"address"},{"internalType":"uint256","name":"tokenId","type":"uint256"}],"name":"approve","outputs":[],"stateMutability":"nonpayable","type":"function"},{"inputs":[{"internalType":"address","name":"owner","type":"address"}],"name":"balanceOf","outputs":[{"internalType":"uint256","name":"","type":"uint256"}],"stateMutability":"view","type":"function"},{"inputs":[{"internalType":"uint256","name":"agentId","type":"uint256"}],"name":"cancelWalletChange","outputs":[],"stateMutability":"nonpayable","type":"function"},{"inputs":[{"internalType":"uint256","name":"agentId","type":"uint256"}],"name":"deactivate","outputs":[],"stateMutability":"nonpayable","type":"function"},{"inputs":[{"internalType":"uint256","name":"agentId","type":"uint256"}],"name":"executeWalletChange","outputs":[],"stateMutability":"nonpayable","type":"function"},{"inputs":[{"internalType":"uint256","name":"agentId","type":"uint256"}],"name":"getAgent","outputs":[{"components":[{"internalType":"uint256","name":"modelId","type":"uint256"},{"internalType":"address","name":"wallet","type":"address"},{"internalType":"string","name":"endpoint","type":"string"},{"internalType":"uint256","name":"registeredAt","type":"uint256"},{"internalType":"bool","name":"active","type":"bool"}],"internalType":"struct AgentRegistryV2.Agent","name":"","type":"tuple"}],"stateMutability":"view","type":"function"},{"inputs":[{"internalType":"uint256","name":"modelId","type":"uint256"}],"name":"getAgentByModel","outputs":[{"internalType":"uint256","name":"","type":"uint256"}],"stateMutability":"view","type":"function"},{"inputs":[{"internalType":"uint256","name":"tokenId","type":"uint256"}],"name":"getApproved","outputs":[{"internalType":"address","name":"","type":"address"}],"stateMutability":"view","type":"function"},{"inputs":[{"internalType":"uint256","name":"agentId","type":"uint256"}],"name":"getEndpoint","outputs":[{"internalType":"string","name":"","type":"string"}],"stateMutability":"view","type":"function"},{"inputs":[{"internalType":"uint256","name":"agentId","type":"uint256"}],"name":"getPaymentWallet","outputs":[{"internalType":"address","name":"","type":"address"}],"stateMutability":"view","type":"function"},{"inputs":[{"internalType":"address","name":"owner","type":"address"},{"internalType":"address","name":"operator","type":"address"}],"name":"isApprovedForAll","outputs":[{"internalType":"bool","name":"","type":"bool"}],"stateMutability":"view","type":"function"},{"inputs":[{"internalType":"uint256","name":"agentId","type":"uint256"}],"name":"isValidAgent","outputs":[{"internalType":"bool","name":"","type":"bool"}],"stateMutability":"view","type":"function"},{"inputs":[],"name":"marketplace","outputs":[{"internalType":"address","name":"","type":"address"}],"stateMutability":"view","type":"function"},{"inputs":[{"internalType":"uint256","name":"","type":"uint256"}],"name":"modelToAgent","outputs":[{"internalType":"uint256","name":"","type":"uint256"}],"stateMutability":"view","type":"function"},{"inputs":[],"name":"name","outputs":[{"internalType":"string","name":"","type":"string"}],"stateMutability":"view","type":"function"},{"inputs":[],"name":"nextAgentId","outputs":[{"internalType":"uint256","name":"","type":"uint256"}],"stateMutability":"view","type":"function"},{"inputs":[],"name":"owner","outputs":[{"internalType":"address","name":"","type":"address"}],"stateMutability":"view","type":"function"},{"inputs":[{"internalType":"uint256","name":"tokenId","type":"uint256"}],"name":"ownerOf","outputs":[{"internalType":"address","name":"","type":"address"}],"stateMutability":"view","type":"function"},{"inputs":[],"name":"pause","outputs":[],"stateMutability":"nonpayable","type":"function"},{"inputs":[],"name":"paused","outputs":[{"internalType":"bool","name":"","type":"bool"}],"stateMutability":"view","type":"function"},{"inputs":[],"name":"pendingOwner","outputs":[{"internalType":"address","name":"","type":"address"}],"stateMutability":"view","type":"function"},{"inputs":[{"internalType":"uint256","name":"","type":"uint256"}],"name":"pendingWalletChanges","outputs":[{"internalType":"address","name":"newWallet","type":"address"},{"internalType":"uint256","name":"effectiveAt","type":"uint256"}],"stateMutability":"view","type":"function"},{"inputs":[{"internalType":"uint256","name":"agentId","type":"uint256"}],"name":"reactivate","outputs":[],"stateMutability":"nonpayable","type":"function"},{"inputs":[{"internalType":"uint256","name":"modelId","type":"uint256"},{"internalType":"address","name":"wallet","type":"address"},{"internalType":"string","name":"endpoint","type":"string"},{"internalType":"string","name":"metadataUri","type":"string"}],"name":"registerAgent","outputs":[{"internalType":"uint256","name":"agentId","type":"uint256"}],"stateMutability":"nonpayable","type":"function"},{"inputs":[{"internalType":"address","name":"owner","type":"address"},{"internalType":"uint256","name":"modelId","type":"uint256"},{"internalType":"address","name":"wallet","type":"address"},{"internalType":"string","name":"endpoint","type":"string"},{"internalType":"string","name":"metadataUri","type":"string"}],"name":"registerAgentFor","outputs":[{"internalType":"uint256","name":"agentId","type":"uint256"}],"stateMutability":"nonpayable","type":"function"},{"inputs":[],"name":"renounceOwnership","outputs":[],"stateMutability":"nonpayable","type":"function"},{"inputs":[{"internalType":"uint256","name":"agentId","type":"uint256"},{"internalType":"address","name":"newWallet","type":"address"}],"name":"requestWalletChange","outputs":[],"stateMutability":"nonpayable","type":"function"},{"inputs":[{"internalType":"address","name":"from","type":"address"},{"internalType":"address","name":"to","type":"address"},{"internalType":"uint256","name":"tokenId","type":"uint256"}],"name":"safeTransferFrom","outputs":[],"stateMutability":"nonpayable","type":"function"},{"inputs":[{"internalType":"address","name":"from","type":"address"},{"internalType":"address","name":"to","type":"address"},{"internalType":"uint256","name":"tokenId","type":"uint256"},{"internalType":"bytes","name":"data","type":"bytes"}],"name":"safeTransferFrom","outputs":[],"stateMutability":"nonpayable","type":"function"},{"inputs":[{"internalType":"address","name":"operator","type":"address"},{"internalType":"bool","name":"approved","type":"bool"}],"name":"setApprovalForAll","outputs":[],"stateMutability":"nonpayable","type":"function"},{"inputs":[{"internalType":"address","name":"_marketplace","type":"address"}],"name":"setMarketplace","outputs":[],"stateMutability":"nonpayable","type":"function"},{"inputs":[{"internalType":"bytes4","name":"interfaceId","type":"bytes4"}],"name":"supportsInterface","outputs":[{"internalType":"bool","name":"","type":"bool"}],"stateMutability":"view","type":"function"},{"inputs":[],"name":"symbol","outputs":[{"internalType":"string","name":"","type":"string"}],"stateMutability":"view","type":"function"},{"inputs":[{"internalType":"uint256","name":"tokenId","type":"uint256"}],"name":"tokenURI","outputs":[{"internalType":"string","name":"","type":"string"}],"stateMutability":"view","type":"function"},{"inputs":[{"internalType":"address","name":"from","type":"address"},{"internalType":"address","name":"to","type":"address"},{"internalType":"uint256","name":"tokenId","type":"uint256"}],"name":"transferFrom","outputs":[],"stateMutability":"nonpayable","type":"function"},{"inputs":[{"internalType":"address","name":"newOwner","type":"address"}],"name":"transferOwnership","outputs":[],"stateMutability":"nonpayable","type":"function"},{"inputs":[],"name":"unpause","outputs":[],"stateMutability":"nonpayable","type":"function"},{"inputs":[{"internalType":"uint256","name":"agentId","type":"uint256"},{"internalType":"string","name":"newEndpoint","type":"string"},{"internalType":"address","name":"newWallet","type":"address"}],"name":"updateAgentFor","outputs":[],"stateMutability":"nonpayable","type":"function"},{"inputs":[{"internalType":"uint256","name":"agentId","type":"uint256"},{"internalType":"string","name":"newEndpoint","type":"string"}],"name":"updateEndpoint","outputs":[],"stateMutability":"nonpayable","type":"function"},{"inputs":[{"internalType":"uint256","name":"agentId","type":"uint256"},{"internalType":"string","name":"newUri","type":"string"}],"name":"updateMetadata","outputs":[],"stateMutability":"nonpayable","type":"function"}],"evm":{"bytecode":{"linkReferences":{},"object":"608034620003f8576001600160401b0390601f1990601f90620029fe388190038381018516830186811184821017620003e257839282916040528339602092839181010312620003f857516001600160a01b038082169590939091869003620003f8576200006c620003fd565b92600f84526e2bb0b9b4a0a49020b3b2b73a102b1960891b8185015262000092620003fd565b90600b82526a2ba0a9a496a0a3a2a72a1960a91b81830152845196848811620003e2576000978854966001978881811c91168015620003d7575b85821014620003c35790818784931162000370575b5084908783116001146200030f578b9262000303575b5050600019600383901b1c191690871b1788555b8251948511620002ef5785548681811c91168015620002e4575b83821014620002d05790818587969594931162000277575b508193851160011462000212575050869262000206575b5050600019600383901b1c191690821b1781555b3315620001ed5760018060a01b03199283600854166008556007549033858316176007557f8be0079c531659141344cd1fd0a4f28419497f9722a3daafe3b4186f6b6457e0604051943393169180a380600955600b558215620001de5750600e541617600e556040516125e090816200041e8239f35b63d92e233d60e01b8152600490fd5b604051631e4fbdf760e01b815260048101849052602490fd5b01519050388062000154565b869593929193168589528389209389905b8282106200025d575050841162000243575b505050811b01815562000168565b015160001960f88460031b161c1916905538808062000235565b848401518655889790950194938401939081019062000223565b9091929394508689528289208580880160051c820192858910620002c6575b9188978a9297969594930160051c01915b828110620002b75750506200013d565b8b8155889750899101620002a7565b9250819262000296565b634e487b7160e01b89526022600452602489fd5b90607f169062000125565b634e487b7160e01b88526041600452602488fd5b015190503880620000f7565b90848a9416918c8052868d20928d5b888282106200035957505084116200033f575b505050811b0188556200010b565b015160001960f88460031b161c1916905538808062000331565b8385015186558d979095019493840193016200031e565b9091508a8052848b208780850160051c820192878610620003b9575b918b91869594930160051c01915b828110620003aa575050620000e1565b8d81558594508b91016200039a565b925081926200038c565b634e487b7160e01b8b52602260045260248bfd5b90607f1690620000cc565b634e487b7160e01b600052604160045260246000fd5b600080fd5b60408051919082016001600160401b03811183821017620003e25760405256fe608080604052600436101561001357600080fd5b60003560e01c90816301ffc9a714611aa05750806306fdde03146119f5578063081812fc146119b7578063095ea7b3146118d057806309df30ec14611857578063173e79bb1461038d57806323b872dd14611840578063251f3b7e146115d15780632de5aaf7146114f157806330efc498146114d357806337a1b719146111cf5780633bda90a314610f885780633f4ba83a14610f1e57806342842e0e14610ef05780634afc374c14610ec8578063513856c814610e4957806353c8388e14610dc057806354fec77214610c405780635ba1c1a914610c225780635c975abb14610bff5780636352211e14610bcf5780636bb2440114610ac45780636ca7c098146109b857806370a082311461095f578063715018a6146108f857806373ad6c2d1461087d57806379ba5097146107f95780638456cb591461079f5780638da5cb5b14610776578063916b9bef14610700578063937bbc4a146106bd57806395d89b41146105da578063a22cb4651461052c578063aab5a8771461050f578063abc8c7af146104e6578063b88d4fde14610479578063c85d3eb01461045c578063c87b56dd14610403578063c890c380146103b9578063d58e0c9e1461038d578063dbd7e94914610356578063e30c39781461032d578063e985e9c5146102d7578063f2fde38b1461026a5763f96560b41461020e57600080fd5b346102655760203660031901126102655760043561022b81612044565b336001600160a01b0390911603610253576000908152600f6020526040812081815560010155005b604051630e41dcbf60e21b8152600490fd5b600080fd5b3461026557602036600319011261026557610283611b65565b61028b612428565b600880546001600160a01b0319166001600160a01b039283169081179091556007549091167f38d16b8cac22d99fc7c124b9cd0de2d3fa1faef420bfe791d8c362d765e22700600080a3005b34610265576040366003190112610265576102f0611b65565b6102f8611b7b565b9060018060a01b03809116600052600560205260406000209116600052602052602060ff604060002054166040519015158152f35b34610265576000366003190112610265576008546040516001600160a01b039091168152602090f35b3461026557602036600319011261026557600435600052600c602052602060018060a01b0360016040600020015416604051908152f35b3461026557602036600319011261026557600435600052600d6020526020604060002054604051908152f35b34610265576020366003190112610265576004356000908152600f6020908152604091829020805460019091015483516001600160a01b03909216825291810191909152f35b0390f35b346102655760203660031901126102655760043561042081612044565b5060005260066020526103ff6104396040600020611cb5565b600060405161044781611c79565b52604051918291602083526020830190611b25565b346102655760003660031901126102655760206040516101008152f35b3461026557608036600319011261026557610492611b65565b61049a611b7b565b90604435606435926001600160401b0384116102655736602385011215610265576104d26104e4943690602481600401359101611da8565b926104de838383611ddf565b3361243c565b005b3461026557600036600319011261026557600e546040516001600160a01b039091168152602090f35b346102655760003660031901126102655760206040516102008152f35b3461026557604036600319011261026557610545611b65565b6024359081151590818303610265576001600160a01b03169182156105c1576105939033600052600560205260406000208460005260205260406000209060ff801983541691151516179055565b6040519081527f17307eab39ab6107e8899845ad3d59bd9653f200f220920489ca2b5937696c3160203392a3005b604051630b61174360e31b815260048101849052602490fd5b346102655760003660031901126102655760405160006001826001549261060084611c09565b928383526020948560018216918260001461069d575050600114610640575b5061062c92500383611c94565b6103ff604051928284938452830190611b25565b84915060016000527fb10e2d527612073b26eecdfd717e6a320cf44b4afac2b0732d9fcbe2b7fa0cf6906000915b85831061068557505061062c93508201018561061f565b8054838901850152879450869390920191810161066e565b60ff19168582015261062c95151560051b850101925087915061061f9050565b3461026557602036600319011261026557600435600052600c6020526103ff6106ec6002604060002001611cb5565b604051918291602083526020830190611b25565b346102655760203660031901126102655760043561071c61207f565b61072581612044565b336001600160a01b03909116036102535780600052600c602052600460406000200160ff1981541690557fc2fb7f8575ac3990e70361684edfc4d283931ea9a03dfa28766bf376a3934aa2600080a2005b34610265576000366003190112610265576007546040516001600160a01b039091168152602090f35b34610265576000366003190112610265576107b8612428565b6107c061207f565b600160ff19600a541617600a557f62e78cea01bee320cd4e420270b5ea74000d11b0c9f74754ebdbfc544b05a2586020604051338152a1005b34610265576000366003190112610265576008546001600160a01b033381831603610865576001600160601b0360a01b8092166008556007549133908316176007553391167f8be0079c531659141344cd1fd0a4f28419497f9722a3daafe3b4186f6b6457e0600080a3005b60405163118cdaa760e01b8152336004820152602490fd5b3461026557602036600319011261026557610896611b65565b61089e612428565b6001600160a01b031680156108e657600e80546001600160a01b031916821790557f210690abd7fd6cdbb8f2beb202b2a253d58d7a0813b2175c4172c14c0c1af6dc600080a2005b60405163d92e233d60e01b8152600490fd5b3461026557600036600319011261026557610911612428565b600880546001600160a01b03199081169091556007805491821690556000906001600160a01b03167f8be0079c531659141344cd1fd0a4f28419497f9722a3daafe3b4186f6b6457e08280a3005b34610265576020366003190112610265576001600160a01b03610980611b65565b16801561099f5760005260036020526020604060002054604051908152f35b6040516322718ad960e21b815260006004820152602490fd5b34610265576020366003190112610265576004356109d581612044565b6001600160a01b039033908216036102535781600052600f602052604060002090600160405192610a0584611c5e565b8281541684520154602083019080825215610ab257514210610aa0576000838152600c602090815260408083206001908101805487516001600160a01b0319821690881617909155600f845282852085815590910193909355935184516001600160a01b03938516841681529316909116908201527f0d116ddfe3ce0d19970e3748d0e65b606d6a7996e8ace22f241e3ba27cd1e3279190a2005b60405163621e25c360e01b8152600490fd5b60405163147fde5f60e31b8152600490fd5b3461026557604036600319011261026557600435610ae0611b7b565b610ae861207f565b610af182612044565b6001600160a01b03903390821603610253578082169182156108e6573b610bbd5762015180420191824211610ba7577fe75af70c5199319759c92568fb0cc8dc1f926d4c9910be0bfbfbb73607a38db392606092604051610b5181611c5e565b83815260016020820184815288600052600f6020528360406000209351166001600160601b0360a01b84541617835551910155600c602052600160406000200154169160405192835260208301526040820152a2005b634e487b7160e01b600052601160045260246000fd5b6040516311970e2d60e31b8152600490fd5b34610265576020366003190112610265576020610bed600435612044565b6040516001600160a01b039091168152f35b3461026557600036600319011261026557602060ff600a54166040519015158152f35b34610265576000366003190112610265576020604051620151808152f35b3461026557610c4e36611d5a565b610c5992919261209d565b610c6161207f565b610c6a82612044565b336001600160a01b0390911603610253576101008111610dae5781600052602092600c60205260026040600020016001600160401b038311610d9857610cba83610cb48354611c09565b83611f90565b600094601f8411600114610d225750610cfb838060008051602061258b8339815191529697600091610d17575b508160011b916000199060031b1c19161790565b90555b610d0d60405192839283611fe6565b0390a26001600955005b905084013588610ce7565b601f19841695826000526020600020916000905b888210610d805750508460008051602061258b833981519152969710610d66575b5050600183811b019055610cfe565b830135600019600386901b60f8161c191690558580610d57565b80600184958294958901358155019401920190610d36565b634e487b7160e01b600052604160045260246000fd5b604051639049092560e01b8152600490fd5b3461026557610dce36611d5a565b610dd661209d565b610dde61207f565b610de783612044565b336001600160a01b0390911603610253576102008111610e37577f859fac2fc059a2fa38efe7236e1c16278c1519298d62dd05582ff7fa392a104591610cfe610e31368484611da8565b856122ee565b6040516322e3481360e21b8152600490fd5b34610265576020366003190112610265576004356000908152600c60205260409020805460018201546001600160a01b031691610e8860028201611cb5565b610eb760ff6004600385015494015416916040519586958652602086015260a0604086015260a0850190611b25565b916060840152151560808301520390f35b34610265576020366003190112610265576020610ee660043561200e565b6040519015158152f35b34610265576104e4610f0136611ba7565b9060405192610f0f84611c79565b600084526104de838383611ddf565b3461026557600036600319011261026557610f37612428565b600a5460ff811615610f765760ff1916600a557f5db9ee0a495bf2e6ff9c91a7834c1ba4fdd244a5e8aa4e537bd38aeae4b073aa6020604051338152a1005b604051638dfc202b60e01b8152600490fd5b34610265576060366003190112610265576004356001600160401b0360243581811161026557610fbc903690600401611bdc565b90610fc5611b91565b600e5490936001600160a01b03939091841633036111bd57610fe561209d565b610fed61207f565b851580156111b1575b61119f5780611089575b50505080821680611013575b6001600955005b823b610bbd576000848152600c602090815260409182902060010180546001600160a01b031981169490941790558151939092166001600160a01b03908116845293909316908201527f0d116ddfe3ce0d19970e3748d0e65b606d6a7996e8ace22f241e3ba27cd1e3279190a28080808061100c565b6101008111610dae5785600052602092600c6020526002604060002001928211610d9857826110bd83610cb48a9654611c09565b600094601f841160011461112557506110fd838060008051602061258b833981519152969760009161111a57508160011b916000199060031b1c19161790565b90555b61110f60405192839283611fe6565b0390a2838080611000565b90508401358b610ce7565b601f19841695826000526020600020916000905b8882106111835750508460008051602061258b833981519152969710611169575b5050600183811b019055611100565b830135600019600386901b60f8161c19169055888061115a565b8583013584558b97506001909301929182019190810190611139565b604051636979d35160e11b8152600490fd5b50600b54861015610ff6565b604051632b35006d60e21b8152600490fd5b346102655760a0366003190112610265576111e8611b65565b6111f0611b91565b906064356001600160401b03811161026557611210903690600401611bdc565b91906084356001600160401b03811161026557611231903690600401611bdc565b600e54919290916001600160a01b031633036111bd5761124f61209d565b61125761207f565b6001600160a01b038416156108e6576024351561119f576001600160a01b038616156108e657602435600052600d6020526040600020546114c1576101008511610dae576102008211610e3757853b610bbd576112e590600b54956112bb87611f81565b600b55604051976112cb89611c43565b60243589526001600160a01b031660208901523691611da8565b60408601524260608601526001608086015283600052600c6020526040600020855181556001810160018060a01b036020880151166001600160601b0360a01b82541617905560408601519586516001600160401b038111610d985760209761135e826113556002870154611c09565b60028701611f90565b8890601f83116001146114425760806113e996946113a0856113c7966113ef9b9996600496600092611437575b50508160011b916000199060031b1c19161790565b60028501555b606081015160038501550151151591019060ff801983541691151516179055565b602435600052600d8752856040600020556113e286866120c0565b3691611da8565b836122ee565b604051338152602435916001600160a01b03169083907f3b3bd2ae0813649f0a35df972f28cac6ca8d704d1d66122c8a336c58fcdb4530908690a46001600955604051908152f35b015190508f8061138b565b9060028501600052896000209160005b601f19851681106114aa57506113e996946001856113ef9a98956004956080956113c799601f19811610611491575b505050811b0160028501556113a6565b015160001960f88460031b161c191690558e8080611481565b91928b600181928685015181550194019201611452565b604051630d82532d60e21b8152600490fd5b34610265576000366003190112610265576020600b54604051908152f35b3461026557602080600319360112610265576000608060405161151381611c43565b8281528284820152606060408201528260608201520152600435600052600c815260406000206040519061154682611c43565b8054825260018101546001600160a01b03908116848401908152906115be9061157160028501611cb5565b906040860191825260ff600460038701549660608901978852015416936080870194151585526040519788978189525190880152511660408601525160a0606086015260c0850190611b25565b9151608084015251151560a08301520390f35b34610265576080366003190112610265576115ea611b7b565b6001600160401b03906044358281116102655761160b903690600401611bdc565b60649291923584811161026557611626903690600401611bdc565b92909161163161209d565b61163961207f565b6004351561119f576001600160a01b03918083169081156108e657600435600052600d6020526040600020546114c1576101008311610dae576102008611610e37573b610bbd576116b3600b549661169088611f81565b600b55604051936116a085611c43565b6004358552602085019384523691611da8565b90604083019182524260608401526001608084015286600052600c60205260406000209383518555600185019151166001600160601b0360a01b82541617905551958651908111610d9857602096611712826113556002870154611c09565b8790601f83116001146117ca57926113a08360049460809461174b98976000926117bf5750508160011b916000199060031b1c19161790565b600435600052600d84528260406000205561176683336120c0565b61177a611774368484611da8565b846122ee565b827fcbb96f51f0d44aad38bd37e9959154a2f979b86301a6efbcb08d83f10ac9c820604051806117af60043596339683611fe6565b0390a46001600955604051908152f35b015190508c8061138b565b9060028501600052886000209160005b601f198516811061182957508360809361174b979693600193600497601f1981161061181057505050811b0160028501556113a6565b015160001960f88460031b161c191690558b8080611481565b91928a6001819286850151815501940192016117da565b34610265576104e461185136611ba7565b91611ddf565b346102655760203660031901126102655760043561187361207f565b61187c81612044565b336001600160a01b03909116036102535780600052600c6020526004604060002001600160ff198254161790557f7cce21c1f4552995dccace889e9ad45febf59c654d3fd1d7ab0457fa1439aa2c600080a2005b34610265576040366003190112610265576118e9611b65565b6024356118f581612044565b331515806119a4575b80611977575b61195f576001600160a01b039283169282918491167f8c5be1e5ebec7d5bd14f71427d1e84f3dd0314c0f7b2291e5b200ac8c7c3b925600080a4600090815260046020526040902080546001600160a01b0319169091179055005b60405163a9fbf51f60e01b8152336004820152602490fd5b5060018060a01b038116600052600560205260406000203360005260205260ff6040600020541615611904565b506001600160a01b0381163314156118fe565b34610265576020366003190112610265576004356119d481612044565b506000526004602052602060018060a01b0360406000205416604051908152f35b3461026557600036600319011261026557604051600080549082611a1883611c09565b918282526020936001908560018216918260001461069d575050600114611a46575061062c92500383611c94565b6000808052859250907f290decd9548b62a8d60345a988386fc84ba6bc95484008f6362f93160ef3e5635b858310611a8857505061062c93508201018561061f565b80548389018501528794508693909201918101611a71565b34610265576020366003190112610265576004359063ffffffff60e01b821680920361026557602091632483248360e11b8114908115611ae2575b5015158152f35b6380ac58cd60e01b811491508115611b14575b8115611b03575b5083611adb565b6301ffc9a760e01b14905083611afc565b635b5e139f60e01b81149150611af5565b919082519283825260005b848110611b51575050826000602080949584010152601f8019910116010190565b602081830181015184830182015201611b30565b600435906001600160a01b038216820361026557565b602435906001600160a01b038216820361026557565b604435906001600160a01b038216820361026557565b6060906003190112610265576001600160a01b0390600435828116810361026557916024359081168103610265579060443590565b9181601f84011215610265578235916001600160401b038311610265576020838186019501011161026557565b90600182811c92168015611c39575b6020831014611c2357565b634e487b7160e01b600052602260045260246000fd5b91607f1691611c18565b60a081019081106001600160401b03821117610d9857604052565b604081019081106001600160401b03821117610d9857604052565b602081019081106001600160401b03821117610d9857604052565b90601f801991011681019081106001600160401b03821117610d9857604052565b90604051918260008254611cc881611c09565b90818452602094600191600181169081600014611d385750600114611cf9575b505050611cf792500383611c94565b565b600090815285812095935091905b818310611d20575050611cf79350820101388080611ce8565b85548884018501529485019487945091830191611d07565b92505050611cf794925060ff191682840152151560051b820101388080611ce8565b9060406003198301126102655760043591602435906001600160401b03821161026557611d8991600401611bdc565b9091565b6001600160401b038111610d9857601f01601f191660200190565b929192611db482611d8d565b91611dc26040519384611c94565b829481845281830111610265578281602093846000960137010152565b6001600160a01b039182169290918315611f6857600092828452826020956002875260409684888820541696879133151580611ecf575b509060027fddf252ad1be2c89b69c2b068fc378daa952ba7f163c4a11628f55a4df523b3ef9284611e9c575b858352600381528b8320805460010190558683525289812080546001600160a01b0319168517905580a41692838303611e7b5750505050565b6064945051926364283d7b60e01b8452600484015260248301526044820152fd5b600087815260046020526040902080546001600160a01b0319169055848352600381528b83208054600019019055611e42565b91939450915080611f27575b15611eeb57859291879138611e16565b878688611f08576024915190637e27328960e01b82526004820152fd5b905163177e802f60e01b81523360048201526024810191909152604490fd5b503387148015611f4c575b80611edb5750858252600481523385898420541614611edb565b5086825260058152878220338352815260ff8883205416611f32565b604051633250574960e11b815260006004820152602490fd5b6000198114610ba75760010190565b90601f8111611f9e57505050565b6000916000526020600020906020601f850160051c83019410611fdc575b601f0160051c01915b828110611fd157505050565b818155600101611fc5565b9092508290611fbc565b90918060409360208452816020850152848401376000828201840152601f01601f1916010190565b80158015612038575b61203257600052600c60205260ff6004604060002001541690565b50600090565b50600b54811015612017565b6000818152600260205260409020546001600160a01b0316908115612067575090565b60249060405190637e27328960e01b82526004820152fd5b60ff600a541661208b57565b60405163d93c066560e01b8152600490fd5b6002600954146120ae576002600955565b604051633ee5aeb560e01b8152600490fd5b604080516120cd81611c79565b6000808252936001600160a01b038481169490929085156122d657828752602093600285528588205416838782151592836122a3575b818b5260038852888b2080546001019055828b5260028852888b2080546001600160a01b031916831790557fddf252ad1be2c89b69c2b068fc378daa952ba7f163c4a11628f55a4df523b3ef8b80a461228b573b612164575b505050505050565b826121a2918596979894955180938192630a85bd0160e11b968784523360048501528c60248501526044840152608060648401526084830190611b25565b03818a8a5af1879181612247575b50612210575050503d600014612207573d6121ca81611d8d565b906121d784519283611c94565b81528094823d92013e5b83519384612201578251633250574960e11b815260048101859052602490fd5b84925001fd5b606093506121e1565b919550915063ffffffff60e01b160361223057505038808080808061215c565b602492505190633250574960e11b82526004820152fd5b9091508481813d8311612284575b61225f8183611c94565b8101031261228057516001600160e01b0319811681036122805790386121b0565b8780fd5b503d612255565b84516339e3563760e11b815260048101889052602490fd5b600083815260046020526040902080546001600160a01b0319169055808b5260038852888b208054600019019055612103565b8451633250574960e11b815260048101889052602490fd5b9190916000908082526020916006835260408120908551956001600160401b03871161241457612328876123228554611c09565b85611f90565b8491601f881160011461239057966123799281927ff8e1a15aba9398e019f0b49df1a4fde98ee17ae345cb5f6b5e2c27f5033e8ce79899926123855750508160011b916000199060031b1c19161790565b90555b604051908152a1565b01519050388061138b565b9190601f198816848452868420935b8181106123fd57509160019391897ff8e1a15aba9398e019f0b49df1a4fde98ee17ae345cb5f6b5e2c27f5033e8ce7999a94106123e4575b505050811b01905561237c565b015160001960f88460031b161c191690553880806123d7565b92938760018192878601518155019501930161239f565b634e487b7160e01b82526041600452602482fd5b6007546001600160a01b0316330361086557565b90939192833b61244e575b5050505050565b604051630a85bd0160e11b8082526001600160a01b03938416600483015295831660248201526044810191909152608060648201529492169260209291859061249b906084830190611b25565b039483816000978189895af1869181612546575b50612510575050503d600014612507573d6124c981611d8d565b906124d76040519283611c94565b81528093823d92013e5b8251928361250257604051633250574960e11b815260048101849052602490fd5b019050fd5b606092506124e1565b919450915063ffffffff60e01b160361252e57503880808080612447565b60249060405190633250574960e11b82526004820152fd5b9091508481813d8311612583575b61255e8183611c94565b8101031261257f57516001600160e01b03198116810361257f5790386124af565b8680fd5b503d61255456fe6a3a0beb54691369cfa3d9ccbfee7ad49dcfeb928219b0c2eab1e9261488a762a2646970667358221220d3b8773a1ba319a67ce5c4f46d145458a85769d77f9906c40a972bdf7cceebba64736f6c63430008180033","opcodes":"PUSH1 0x80 CALLVALUE PUSH3 0x3F8 JUMPI PUSH1 0x1 PUSH1 0x1 PUSH1 0x40 SHL SUB SWAP1 PUSH1 0x1F NOT SWAP1 PUSH1 0x1F SWAP1 PUSH3 0x29FE CODESIZE DUP2 SWAP1 SUB DUP4 DUP2 ADD DUP6 AND DUP4 ADD DUP7 DUP2 GT DUP5 DUP3 LT OR PUSH3 0x3E2 JUMPI DUP4 SWAP3 DUP3 SWAP2 PUSH1 0x40 MSTORE DUP4 CODECOPY PUSH1 0x20 SWAP3 DUP4 SWAP2 DUP2 ADD SUB SLT PUSH3 0x3F8 JUMPI MLOAD PUSH1 0x1 PUSH1 0x1 PUSH1 0xA0 SHL SUB DUP1 DUP3 AND SWAP6 SWAP1 SWAP4 SWAP1 SWAP2 DUP7 SWAP1 SUB PUSH3 0x3F8 JUMPI PUSH3 0x6C PUSH3 0x3FD JUMP JUMPDEST SWAP3 PUSH1 0xF DUP5 MSTORE PUSH15 0x2BB0B9B4A0A49020B3B2B73A102B19 PUSH1 0x89 SHL DUP2 DUP6 ADD MSTORE PUSH3 0x92 PUSH3 0x3FD JUMP JUMPDEST SWAP1 PUSH1 0xB DUP3 MSTORE PUSH11 0x2BA0A9A496A0A3A2A72A19 PUSH1 0xA9 SHL DUP2 DUP4 ADD MSTORE DUP5 MLOAD SWAP7 DUP5 DUP9 GT PUSH3 0x3E2 JUMPI PUSH1 0x0 SWAP8 DUP9 SLOAD SWAP7 PUSH1 0x1 SWAP8 DUP9 DUP2 DUP2 SHR SWAP2 AND DUP1 ISZERO PUSH3 0x3D7 JUMPI JUMPDEST DUP6 DUP3 LT EQ PUSH3 0x3C3 JUMPI SWAP1 DUP2 DUP8 DUP5 SWAP4 GT PUSH3 0x370 JUMPI JUMPDEST POP DUP5 SWAP1 DUP8 DUP4 GT PUSH1 0x1 EQ PUSH3 0x30F JUMPI DUP12 SWAP3 PUSH3 0x303 JUMPI JUMPDEST POP POP PUSH1 0x0 NOT PUSH1 0x3 DUP4 SWAP1 SHL SHR NOT AND SWAP1 DUP8 SHL OR DUP9 SSTORE JUMPDEST DUP3 MLOAD SWAP5 DUP6 GT PUSH3 0x2EF JUMPI DUP6 SLOAD DUP7 DUP2 DUP2 SHR SWAP2 AND DUP1 ISZERO PUSH3 0x2E4 JUMPI JUMPDEST DUP4 DUP3 LT EQ PUSH3 0x2D0 JUMPI SWAP1 DUP2 DUP6 DUP8 SWAP7 SWAP6 SWAP5 SWAP4 GT PUSH3 0x277 JUMPI JUMPDEST POP DUP2 SWAP4 DUP6 GT PUSH1 0x1 EQ PUSH3 0x212 JUMPI POP POP DUP7 SWAP3 PUSH3 0x206 JUMPI JUMPDEST POP POP PUSH1 0x0 NOT PUSH1 0x3 DUP4 SWAP1 SHL SHR NOT AND SWAP1 DUP3 SHL OR DUP2 SSTORE JUMPDEST CALLER ISZERO PUSH3 0x1ED JUMPI PUSH1 0x1 DUP1 PUSH1 0xA0 SHL SUB NOT SWAP3 DUP4 PUSH1 0x8 SLOAD AND PUSH1 0x8 SSTORE PUSH1 0x7 SLOAD SWAP1 CALLER DUP6 DUP4 AND OR PUSH1 0x7 SSTORE PUSH32 0x8BE0079C531659141344CD1FD0A4F28419497F9722A3DAAFE3B4186F6B6457E0 PUSH1 0x40 MLOAD SWAP5 CALLER SWAP4 AND SWAP2 DUP1 LOG3 DUP1 PUSH1 0x9 SSTORE PUSH1 0xB SSTORE DUP3 ISZERO PUSH3 0x1DE JUMPI POP PUSH1 0xE SLOAD AND OR PUSH1 0xE SSTORE PUSH1 0x40 MLOAD PUSH2 0x25E0 SWAP1 DUP2 PUSH3 0x41E DUP3 CODECOPY RETURN JUMPDEST PUSH4 0xD92E233D PUSH1 0xE0 SHL DUP2 MSTORE PUSH1 0x4 SWAP1 REVERT JUMPDEST PUSH1 0x40 MLOAD PUSH4 0x1E4FBDF7 PUSH1 0xE0 SHL DUP2 MSTORE PUSH1 0x4 DUP2 ADD DUP5 SWAP1 MSTORE PUSH1 0x24 SWAP1 REVERT JUMPDEST ADD MLOAD SWAP1 POP CODESIZE DUP1 PUSH3 0x154 JUMP JUMPDEST DUP7 SWAP6 SWAP4 SWAP3 SWAP2 SWAP4 AND DUP6 DUP10 MSTORE DUP4 DUP10 KECCAK256 SWAP4 DUP10 SWAP1 JUMPDEST DUP3 DUP3 LT PUSH3 0x25D JUMPI POP POP DUP5 GT PUSH3 0x243 JUMPI JUMPDEST POP POP POP DUP2 SHL ADD DUP2 SSTORE PUSH3 0x168 JUMP JUMPDEST ADD MLOAD PUSH1 0x0 NOT PUSH1 0xF8 DUP5 PUSH1 0x3 SHL AND SHR NOT AND SWAP1 SSTORE CODESIZE DUP1 DUP1 PUSH3 0x235 JUMP JUMPDEST DUP5 DUP5 ADD MLOAD DUP7 SSTORE DUP9 SWAP8 SWAP1 SWAP6 ADD SWAP5 SWAP4 DUP5 ADD SWAP4 SWAP1 DUP2 ADD SWAP1 PUSH3 0x223 JUMP JUMPDEST SWAP1 SWAP2 SWAP3 SWAP4 SWAP5 POP DUP7 DUP10 MSTORE DUP3 DUP10 KECCAK256 DUP6 DUP1 DUP9 ADD PUSH1 0x5 SHR DUP3 ADD SWAP3 DUP6 DUP10 LT PUSH3 0x2C6 JUMPI JUMPDEST SWAP2 DUP9 SWAP8 DUP11 SWAP3 SWAP8 SWAP7 SWAP6 SWAP5 SWAP4 ADD PUSH1 0x5 SHR ADD SWAP2 JUMPDEST DUP3 DUP2 LT PUSH3 0x2B7 JUMPI POP POP PUSH3 0x13D JUMP JUMPDEST DUP12 DUP2 SSTORE DUP9 SWAP8 POP DUP10 SWAP2 ADD PUSH3 0x2A7 JUMP JUMPDEST SWAP3 POP DUP2 SWAP3 PUSH3 0x296 JUMP JUMPDEST PUSH4 0x4E487B71 PUSH1 0xE0 SHL DUP10 MSTORE PUSH1 0x22 PUSH1 0x4 MSTORE PUSH1 0x24 DUP10 REVERT JUMPDEST SWAP1 PUSH1 0x7F AND SWAP1 PUSH3 0x125 JUMP JUMPDEST PUSH4 0x4E487B71 PUSH1 0xE0 SHL DUP9 MSTORE PUSH1 0x41 PUSH1 0x4 MSTORE PUSH1 0x24 DUP9 REVERT JUMPDEST ADD MLOAD SWAP1 POP CODESIZE DUP1 PUSH3 0xF7 JUMP JUMPDEST SWAP1 DUP5 DUP11 SWAP5 AND SWAP2 DUP13 DUP1 MSTORE DUP7 DUP14 KECCAK256 SWAP3 DUP14 JUMPDEST DUP9 DUP3 DUP3 LT PUSH3 0x359 JUMPI POP POP DUP5 GT PUSH3 0x33F JUMPI JUMPDEST POP POP POP DUP2 SHL ADD DUP9 SSTORE PUSH3 0x10B JUMP JUMPDEST ADD MLOAD PUSH1 0x0 NOT PUSH1 0xF8 DUP5 PUSH1 0x3 SHL AND SHR NOT AND SWAP1 SSTORE CODESIZE DUP1 DUP1 PUSH3 0x331 JUMP JUMPDEST DUP4 DUP6 ADD MLOAD DUP7 SSTORE DUP14 SWAP8 SWAP1 SWAP6 ADD SWAP5 SWAP4 DUP5 ADD SWAP4 ADD PUSH3 0x31E JUMP JUMPDEST SWAP1 SWAP2 POP DUP11 DUP1 MSTORE DUP5 DUP12 KECCAK256 DUP8 DUP1 DUP6 ADD PUSH1 0x5 SHR DUP3 ADD SWAP3 DUP8 DUP7 LT PUSH3 0x3B9 JUMPI JUMPDEST SWAP2 DUP12 SWAP2 DUP7 SWAP6 SWAP5 SWAP4 ADD PUSH1 0x5 SHR ADD SWAP2 JUMPDEST DUP3 DUP2 LT PUSH3 0x3AA JUMPI POP POP PUSH3 0xE1 JUMP JUMPDEST DUP14 DUP2 SSTORE DUP6 SWAP5 POP DUP12 SWAP2 ADD PUSH3 0x39A JUMP JUMPDEST SWAP3 POP DUP2 SWAP3 PUSH3 0x38C JUMP JUMPDEST PUSH4 0x4E487B71 PUSH1 0xE0 SHL DUP12 MSTORE PUSH1 0x22 PUSH1 0x4 MSTORE PUSH1 0x24 DUP12 REVERT JUMPDEST SWAP1 PUSH1 0x7F AND SWAP1 PUSH3 0xCC JUMP JUMPDEST PUSH4 0x4E487B71 PUSH1 0xE0 SHL PUSH1 0x0 MSTORE PUSH1 0x41 PUSH1 0x4 MSTORE PUSH1 0x24 PUSH1 0x0 REVERT JUMPDEST PUSH1 0x0 DUP1 REVERT JUMPDEST PUSH1 0x40 DUP1 MLOAD SWAP2 SWAP1 DUP3 ADD PUSH1 0x1 PUSH1 0x1 PUSH1 0x40 SHL SUB DUP2 GT DUP4 DUP3 LT OR PUSH3 0x3E2 JUMPI PUSH1 0x40 MSTORE JUMP INVALID PUSH1 0x80 DUP1 PUSH1 0x40 MSTORE PUSH1 0x4 CALLDATASIZE LT ISZERO PUSH2 0x13 JUMPI PUSH1 0x0 DUP1 REVERT JUMPDEST PUSH1 0x0 CALLDATALOAD PUSH1 0xE0 SHR SWAP1 DUP2 PUSH4 0x1FFC9A7 EQ PUSH2 0x1AA0 JUMPI POP DUP1 PUSH4 0x6FDDE03 EQ PUSH2 0x19F5 JUMPI DUP1 PUSH4 0x81812FC EQ PUSH2 0x19B7 JUMPI DUP1 PUSH4 0x95EA7B3 EQ PUSH2 0x18D0 JUMPI DUP1 PUSH4 0x9DF30EC EQ PUSH2 0x1857 JUMPI DUP1 PUSH4 0x173E79BB EQ PUSH2 0x38D JUMPI DUP1 PUSH4 0x23B872DD EQ PUSH2 0x1840 JUMPI DUP1 PUSH4 0x251F3B7E EQ PUSH2 0x15D1 JUMPI DUP1 PUSH4 0x2DE5AAF7 EQ PUSH2 0x14F1 JUMPI DUP1 PUSH4 0x30EFC498 EQ PUSH2 0x14D3 JUMPI DUP1 PUSH4 0x37A1B719 EQ PUSH2 0x11CF JUMPI DUP1 PUSH4 0x3BDA90A3 EQ PUSH2 0xF88 JUMPI DUP1 PUSH4 0x3F4BA83A EQ PUSH2 0xF1E JUMPI DUP1 PUSH4 0x42842E0E EQ PUSH2 0xEF0 JUMPI DUP1 PUSH4 0x4AFC374C EQ PUSH2 0xEC8 JUMPI DUP1 PUSH4 0x513856C8 EQ PUSH2 0xE49 JUMPI DUP1 PUSH4 0x53C8388E EQ PUSH2 0xDC0 JUMPI DUP1 PUSH4 0x54FEC772 EQ PUSH2 0xC40 JUMPI DUP1 PUSH4 0x5BA1C1A9 EQ PUSH2 0xC22 JUMPI DUP1 PUSH4 0x5C975ABB EQ PUSH2 0xBFF JUMPI DUP1 PUSH4 0x6352211E EQ PUSH2 0xBCF JUMPI DUP1 PUSH4 0x6BB24401 EQ PUSH2 0xAC4 JUMPI DUP1 PUSH4 0x6CA7C098 EQ PUSH2 0x9B8 JUMPI DUP1 PUSH4 0x70A08231 EQ PUSH2 0x95F JUMPI DUP1 PUSH4 0x715018A6 EQ PUSH2 0x8F8 JUMPI DUP1 PUSH4 0x73AD6C2D EQ PUSH2 0x87D JUMPI DUP1 PUSH4 0x79BA5097 EQ PUSH2 0x7F9 JUMPI DUP1 PUSH4 0x8456CB59 EQ PUSH2 0x79F JUMPI DUP1 PUSH4 0x8DA5CB5B EQ PUSH2 0x776 JUMPI DUP1 PUSH4 0x916B9BEF EQ PUSH2 0x700 JUMPI DUP1 PUSH4 0x937BBC4A EQ PUSH2 0x6BD JUMPI DUP1 PUSH4 0x95D89B41 EQ PUSH2 0x5DA JUMPI DUP1 PUSH4 0xA22CB465 EQ PUSH2 0x52C JUMPI DUP1 PUSH4 0xAAB5A877 EQ PUSH2 0x50F JUMPI DUP1 PUSH4 0xABC8C7AF EQ PUSH2 0x4E6 JUMPI DUP1 PUSH4 0xB88D4FDE EQ PUSH2 0x479 JUMPI DUP1 PUSH4 0xC85D3EB0 EQ PUSH2 0x45C JUMPI DUP1 PUSH4 0xC87B56DD EQ PUSH2 0x403 JUMPI DUP1 PUSH4 0xC890C380 EQ PUSH2 0x3B9 JUMPI DUP1 PUSH4 0xD58E0C9E EQ PUSH2 0x38D JUMPI DUP1 PUSH4 0xDBD7E949 EQ PUSH2 0x356 JUMPI DUP1 PUSH4 0xE30C3978 EQ PUSH2 0x32D JUMPI DUP1 PUSH4 0xE985E9C5 EQ PUSH2 0x2D7 JUMPI DUP1 PUSH4 0xF2FDE38B EQ PUSH2 0x26A JUMPI PUSH4 0xF96560B4 EQ PUSH2 0x20E JUMPI PUSH1 0x0 DUP1 REVERT JUMPDEST CALLVALUE PUSH2 0x265 JUMPI PUSH1 0x20 CALLDATASIZE PUSH1 0x3 NOT ADD SLT PUSH2 0x265 JUMPI PUSH1 0x4 CALLDATALOAD PUSH2 0x22B DUP2 PUSH2 0x2044 JUMP JUMPDEST CALLER PUSH1 0x1 PUSH1 0x1 PUSH1 0xA0 SHL SUB SWAP1 SWAP2 AND SUB PUSH2 0x253 JUMPI PUSH1 0x0 SWAP1 DUP2 MSTORE PUSH1 0xF PUSH1 0x20 MSTORE PUSH1 0x40 DUP2 KECCAK256 DUP2 DUP2 SSTORE PUSH1 0x1 ADD SSTORE STOP JUMPDEST PUSH1 0x40 MLOAD PUSH4 0xE41DCBF PUSH1 0xE2 SHL DUP2 MSTORE PUSH1 0x4 SWAP1 REVERT JUMPDEST PUSH1 0x0 DUP1 REVERT JUMPDEST CALLVALUE PUSH2 0x265 JUMPI PUSH1 0x20 CALLDATASIZE PUSH1 0x3 NOT ADD SLT PUSH2 0x265 JUMPI PUSH2 0x283 PUSH2 0x1B65 JUMP JUMPDEST PUSH2 0x28B PUSH2 0x2428 JUMP JUMPDEST PUSH1 0x8 DUP1 SLOAD PUSH1 0x1 PUSH1 0x1 PUSH1 0xA0 SHL SUB NOT AND PUSH1 0x1 PUSH1 0x1 PUSH1 0xA0 SHL SUB SWAP3 DUP4 AND SWAP1 DUP2 OR SWAP1 SWAP2 SSTORE PUSH1 0x7 SLOAD SWAP1 SWAP2 AND PUSH32 0x38D16B8CAC22D99FC7C124B9CD0DE2D3FA1FAEF420BFE791D8C362D765E22700 PUSH1 0x0 DUP1 LOG3 STOP JUMPDEST CALLVALUE PUSH2 0x265 JUMPI PUSH1 0x40 CALLDATASIZE PUSH1 0x3 NOT ADD SLT PUSH2 0x265 JUMPI PUSH2 0x2F0 PUSH2 0x1B65 JUMP JUMPDEST PUSH2 0x2F8 PUSH2 0x1B7B JUMP JUMPDEST SWAP1 PUSH1 0x1 DUP1 PUSH1 0xA0 SHL SUB DUP1 SWAP2 AND PUSH1 0x0 MSTORE PUSH1 0x5 PUSH1 0x20 MSTORE PUSH1 0x40 PUSH1 0x0 KECCAK256 SWAP2 AND PUSH1 0x0 MSTORE PUSH1 0x20 MSTORE PUSH1 0x20 PUSH1 0xFF PUSH1 0x40 PUSH1 0x0 KECCAK256 SLOAD AND PUSH1 0x40 MLOAD SWAP1 ISZERO ISZERO DUP2 MSTORE RETURN JUMPDEST CALLVALUE PUSH2 0x265 JUMPI PUSH1 0x0 CALLDATASIZE PUSH1 0x3 NOT ADD SLT PUSH2 0x265 JUMPI PUSH1 0x8 SLOAD PUSH1 0x40 MLOAD PUSH1 0x1 PUSH1 0x1 PUSH1 0xA0 SHL SUB SWAP1 SWAP2 AND DUP2 MSTORE PUSH1 0x20 SWAP1 RETURN JUMPDEST CALLVALUE PUSH2 0x265 JUMPI PUSH1 0x20 CALLDATASIZE PUSH1 0x3 NOT ADD SLT PUSH2 0x265 JUMPI PUSH1 0x4 CALLDATALOAD PUSH1 0x0 MSTORE PUSH1 0xC PUSH1 0x20 MSTORE PUSH1 0x20 PUSH1 0x1 DUP1 PUSH1 0xA0 SHL SUB PUSH1 0x1 PUSH1 0x40 PUSH1 0x0 KECCAK256 ADD SLOAD AND PUSH1 0x40 MLOAD SWAP1 DUP2 MSTORE RETURN JUMPDEST CALLVALUE PUSH2 0x265 JUMPI PUSH1 0x20 CALLDATASIZE PUSH1 0x3 NOT ADD SLT PUSH2 0x265 JUMPI PUSH1 0x4 CALLDATALOAD PUSH1 0x0 MSTORE PUSH1 0xD PUSH1 0x20 MSTORE PUSH1 0x20 PUSH1 0x40 PUSH1 0x0 KECCAK256 SLOAD PUSH1 0x40 MLOAD SWAP1 DUP2 MSTORE RETURN JUMPDEST CALLVALUE PUSH2 0x265 JUMPI PUSH1 0x20 CALLDATASIZE PUSH1 0x3 NOT ADD SLT PUSH2 0x265 JUMPI PUSH1 0x4 CALLDATALOAD PUSH1 0x0 SWAP1 DUP2 MSTORE PUSH1 0xF PUSH1 0x20 SWAP1 DUP2 MSTORE PUSH1 0x40 SWAP2 DUP3 SWAP1 KECCAK256 DUP1 SLOAD PUSH1 0x1 SWAP1 SWAP2 ADD SLOAD DUP4 MLOAD PUSH1 0x1 PUSH1 0x1 PUSH1 0xA0 SHL SUB SWAP1 SWAP3 AND DUP3 MSTORE SWAP2 DUP2 ADD SWAP2 SWAP1 SWAP2 MSTORE RETURN JUMPDEST SUB SWAP1 RETURN JUMPDEST CALLVALUE PUSH2 0x265 JUMPI PUSH1 0x20 CALLDATASIZE PUSH1 0x3 NOT ADD SLT PUSH2 0x265 JUMPI PUSH1 0x4 CALLDATALOAD PUSH2 0x420 DUP2 PUSH2 0x2044 JUMP JUMPDEST POP PUSH1 0x0 MSTORE PUSH1 0x6 PUSH1 0x20 MSTORE PUSH2 0x3FF PUSH2 0x439 PUSH1 0x40 PUSH1 0x0 KECCAK256 PUSH2 0x1CB5 JUMP JUMPDEST PUSH1 0x0 PUSH1 0x40 MLOAD PUSH2 0x447 DUP2 PUSH2 0x1C79 JUMP JUMPDEST MSTORE PUSH1 0x40 MLOAD SWAP2 DUP3 SWAP2 PUSH1 0x20 DUP4 MSTORE PUSH1 0x20 DUP4 ADD SWAP1 PUSH2 0x1B25 JUMP JUMPDEST CALLVALUE PUSH2 0x265 JUMPI PUSH1 0x0 CALLDATASIZE PUSH1 0x3 NOT ADD SLT PUSH2 0x265 JUMPI PUSH1 0x20 PUSH1 0x40 MLOAD PUSH2 0x100 DUP2 MSTORE RETURN JUMPDEST CALLVALUE PUSH2 0x265 JUMPI PUSH1 0x80 CALLDATASIZE PUSH1 0x3 NOT ADD SLT PUSH2 0x265 JUMPI PUSH2 0x492 PUSH2 0x1B65 JUMP JUMPDEST PUSH2 0x49A PUSH2 0x1B7B JUMP JUMPDEST SWAP1 PUSH1 0x44 CALLDATALOAD PUSH1 0x64 CALLDATALOAD SWAP3 PUSH1 0x1 PUSH1 0x1 PUSH1 0x40 SHL SUB DUP5 GT PUSH2 0x265 JUMPI CALLDATASIZE PUSH1 0x23 DUP6 ADD SLT ISZERO PUSH2 0x265 JUMPI PUSH2 0x4D2 PUSH2 0x4E4 SWAP5 CALLDATASIZE SWAP1 PUSH1 0x24 DUP2 PUSH1 0x4 ADD CALLDATALOAD SWAP2 ADD PUSH2 0x1DA8 JUMP JUMPDEST SWAP3 PUSH2 0x4DE DUP4 DUP4 DUP4 PUSH2 0x1DDF JUMP JUMPDEST CALLER PUSH2 0x243C JUMP JUMPDEST STOP JUMPDEST CALLVALUE PUSH2 0x265 JUMPI PUSH1 0x0 CALLDATASIZE PUSH1 0x3 NOT ADD SLT PUSH2 0x265 JUMPI PUSH1 0xE SLOAD PUSH1 0x40 MLOAD PUSH1 0x1 PUSH1 0x1 PUSH1 0xA0 SHL SUB SWAP1 SWAP2 AND DUP2 MSTORE PUSH1 0x20 SWAP1 RETURN JUMPDEST CALLVALUE PUSH2 0x265 JUMPI PUSH1 0x0 CALLDATASIZE PUSH1 0x3 NOT ADD SLT PUSH2 0x265 JUMPI PUSH1 0x20 PUSH1 0x40 MLOAD PUSH2 0x200 DUP2 MSTORE RETURN JUMPDEST CALLVALUE PUSH2 0x265 JUMPI PUSH1 0x40 CALLDATASIZE PUSH1 0x3 NOT ADD SLT PUSH2 0x265 JUMPI PUSH2 0x545 PUSH2 0x1B65 JUMP JUMPDEST PUSH1 0x24 CALLDATALOAD SWAP1 DUP2 ISZERO ISZERO SWAP1 DUP2 DUP4 SUB PUSH2 0x265 JUMPI PUSH1 0x1 PUSH1 0x1 PUSH1 0xA0 SHL SUB AND SWAP2 DUP3 ISZERO PUSH2 0x5C1 JUMPI PUSH2 0x593 SWAP1 CALLER PUSH1 0x0 MSTORE PUSH1 0x5 PUSH1 0x20 MSTORE PUSH1 0x40 PUSH1 0x0 KECCAK256 DUP5 PUSH1 0x0 MSTORE PUSH1 0x20 MSTORE PUSH1 0x40 PUSH1 0x0 KECCAK256 SWAP1 PUSH1 0xFF DUP1 NOT DUP4 SLOAD AND SWAP2 ISZERO ISZERO AND OR SWAP1 SSTORE JUMP JUMPDEST PUSH1 0x40 MLOAD SWAP1 DUP2 MSTORE PUSH32 0x17307EAB39AB6107E8899845AD3D59BD9653F200F220920489CA2B5937696C31 PUSH1 0x20 CALLER SWAP3 LOG3 STOP JUMPDEST PUSH1 0x40 MLOAD PUSH4 0xB611743 PUSH1 0xE3 SHL DUP2 MSTORE PUSH1 0x4 DUP2 ADD DUP5 SWAP1 MSTORE PUSH1 0x24 SWAP1 REVERT JUMPDEST CALLVALUE PUSH2 0x265 JUMPI PUSH1 0x0 CALLDATASIZE PUSH1 0x3 NOT ADD SLT PUSH2 0x265 JUMPI PUSH1 0x40 MLOAD PUSH1 0x0 PUSH1 0x1 DUP3 PUSH1 0x1 SLOAD SWAP3 PUSH2 0x600 DUP5 PUSH2 0x1C09 JUMP JUMPDEST SWAP3 DUP4 DUP4 MSTORE PUSH1 0x20 SWAP5 DUP6 PUSH1 0x1 DUP3 AND SWAP2 DUP3 PUSH1 0x0 EQ PUSH2 0x69D JUMPI POP POP PUSH1 0x1 EQ PUSH2 0x640 JUMPI JUMPDEST POP PUSH2 0x62C SWAP3 POP SUB DUP4 PUSH2 0x1C94 JUMP JUMPDEST PUSH2 0x3FF PUSH1 0x40 MLOAD SWAP3 DUP3 DUP5 SWAP4 DUP5 MSTORE DUP4 ADD SWAP1 PUSH2 0x1B25 JUMP JUMPDEST DUP5 SWAP2 POP PUSH1 0x1 PUSH1 0x0 MSTORE PUSH32 0xB10E2D527612073B26EECDFD717E6A320CF44B4AFAC2B0732D9FCBE2B7FA0CF6 SWAP1 PUSH1 0x0 SWAP2 JUMPDEST DUP6 DUP4 LT PUSH2 0x685 JUMPI POP POP PUSH2 0x62C SWAP4 POP DUP3 ADD ADD DUP6 PUSH2 0x61F JUMP JUMPDEST DUP1 SLOAD DUP4 DUP10 ADD DUP6 ADD MSTORE DUP8 SWAP5 POP DUP7 SWAP4 SWAP1 SWAP3 ADD SWAP2 DUP2 ADD PUSH2 0x66E JUMP JUMPDEST PUSH1 0xFF NOT AND DUP6 DUP3 ADD MSTORE PUSH2 0x62C SWAP6 ISZERO ISZERO PUSH1 0x5 SHL DUP6 ADD ADD SWAP3 POP DUP8 SWAP2 POP PUSH2 0x61F SWAP1 POP JUMP JUMPDEST CALLVALUE PUSH2 0x265 JUMPI PUSH1 0x20 CALLDATASIZE PUSH1 0x3 NOT ADD SLT PUSH2 0x265 JUMPI PUSH1 0x4 CALLDATALOAD PUSH1 0x0 MSTORE PUSH1 0xC PUSH1 0x20 MSTORE PUSH2 0x3FF PUSH2 0x6EC PUSH1 0x2 PUSH1 0x40 PUSH1 0x0 KECCAK256 ADD PUSH2 0x1CB5 JUMP JUMPDEST PUSH1 0x40 MLOAD SWAP2 DUP3 SWAP2 PUSH1 0x20 DUP4 MSTORE PUSH1 0x20 DUP4 ADD SWAP1 PUSH2 0x1B25 JUMP JUMPDEST CALLVALUE PUSH2 0x265 JUMPI PUSH1 0x20 CALLDATASIZE PUSH1 0x3 NOT ADD SLT PUSH2 0x265 JUMPI PUSH1 0x4 CALLDATALOAD PUSH2 0x71C PUSH2 0x207F JUMP JUMPDEST PUSH2 0x725 DUP2 PUSH2 0x2044 JUMP JUMPDEST CALLER PUSH1 0x1 PUSH1 0x1 PUSH1 0xA0 SHL SUB SWAP1 SWAP2 AND SUB PUSH2 0x253 JUMPI DUP1 PUSH1 0x0 MSTORE PUSH1 0xC PUSH1 0x20 MSTORE PUSH1 0x4 PUSH1 0x40 PUSH1 0x0 KECCAK256 ADD PUSH1 0xFF NOT DUP2 SLOAD AND SWAP1 SSTORE PUSH32 0xC2FB7F8575AC3990E70361684EDFC4D283931EA9A03DFA28766BF376A3934AA2 PUSH1 0x0 DUP1 LOG2 STOP JUMPDEST CALLVALUE PUSH2 0x265 JUMPI PUSH1 0x0 CALLDATASIZE PUSH1 0x3 NOT ADD SLT PUSH2 0x265 JUMPI PUSH1 0x7 SLOAD PUSH1 0x40 MLOAD PUSH1 0x1 PUSH1 0x1 PUSH1 0xA0 SHL SUB SWAP1 SWAP2 AND DUP2 MSTORE PUSH1 0x20 SWAP1 RETURN JUMPDEST CALLVALUE PUSH2 0x265 JUMPI PUSH1 0x0 CALLDATASIZE PUSH1 0x3 NOT ADD SLT PUSH2 0x265 JUMPI PUSH2 0x7B8 PUSH2 0x2428 JUMP JUMPDEST PUSH2 0x7C0 PUSH2 0x207F JUMP JUMPDEST PUSH1 0x1 PUSH1 0xFF NOT PUSH1 0xA SLOAD AND OR PUSH1 0xA SSTORE PUSH32 0x62E78CEA01BEE320CD4E420270B5EA74000D11B0C9F74754EBDBFC544B05A258 PUSH1 0x20 PUSH1 0x40 MLOAD CALLER DUP2 MSTORE LOG1 STOP JUMPDEST CALLVALUE PUSH2 0x265 JUMPI PUSH1 0x0 CALLDATASIZE PUSH1 0x3 NOT ADD SLT PUSH2 0x265 JUMPI PUSH1 0x8 SLOAD PUSH1 0x1 PUSH1 0x1 PUSH1 0xA0 SHL SUB CALLER DUP2 DUP4 AND SUB PUSH2 0x865 JUMPI PUSH1 0x1 PUSH1 0x1 PUSH1 0x60 SHL SUB PUSH1 0xA0 SHL DUP1 SWAP3 AND PUSH1 0x8 SSTORE PUSH1 0x7 SLOAD SWAP2 CALLER SWAP1 DUP4 AND OR PUSH1 0x7 SSTORE CALLER SWAP2 AND PUSH32 0x8BE0079C531659141344CD1FD0A4F28419497F9722A3DAAFE3B4186F6B6457E0 PUSH1 0x0 DUP1 LOG3 STOP JUMPDEST PUSH1 0x40 MLOAD PUSH4 0x118CDAA7 PUSH1 0xE0 SHL DUP2 MSTORE CALLER PUSH1 0x4 DUP3 ADD MSTORE PUSH1 0x24 SWAP1 REVERT JUMPDEST CALLVALUE PUSH2 0x265 JUMPI PUSH1 0x20 CALLDATASIZE PUSH1 0x3 NOT ADD SLT PUSH2 0x265 JUMPI PUSH2 0x896 PUSH2 0x1B65 JUMP JUMPDEST PUSH2 0x89E PUSH2 0x2428 JUMP JUMPDEST PUSH1 0x1 PUSH1 0x1 PUSH1 0xA0 SHL SUB AND DUP1 ISZERO PUSH2 0x8E6 JUMPI PUSH1 0xE DUP1 SLOAD PUSH1 0x1 PUSH1 0x1 PUSH1 0xA0 SHL SUB NOT AND DUP3 OR SWAP1 SSTORE PUSH32 0x210690ABD7FD6CDBB8F2BEB202B2A253D58D7A0813B2175C4172C14C0C1AF6DC PUSH1 0x0 DUP1 LOG2 STOP JUMPDEST PUSH1 0x40 MLOAD PUSH4 0xD92E233D PUSH1 0xE0 SHL DUP2 MSTORE PUSH1 0x4 SWAP1 REVERT JUMPDEST CALLVALUE PUSH2 0x265 JUMPI PUSH1 0x0 CALLDATASIZE PUSH1 0x3 NOT ADD SLT PUSH2 0x265 JUMPI PUSH2 0x911 PUSH2 0x2428 JUMP JUMPDEST PUSH1 0x8 DUP1 SLOAD PUSH1 0x1 PUSH1 0x1 PUSH1 0xA0 SHL SUB NOT SWAP1 DUP2 AND SWAP1 SWAP2 SSTORE PUSH1 0x7 DUP1 SLOAD SWAP2 DUP3 AND SWAP1 SSTORE PUSH1 0x0 SWAP1 PUSH1 0x1 PUSH1 0x1 PUSH1 0xA0 SHL SUB AND PUSH32 0x8BE0079C531659141344CD1FD0A4F28419497F9722A3DAAFE3B4186F6B6457E0 DUP3 DUP1 LOG3 STOP JUMPDEST CALLVALUE PUSH2 0x265 JUMPI PUSH1 0x20 CALLDATASIZE PUSH1 0x3 NOT ADD SLT PUSH2 0x265 JUMPI PUSH1 0x1 PUSH1 0x1 PUSH1 0xA0 SHL SUB PUSH2 0x980 PUSH2 0x1B65 JUMP JUMPDEST AND DUP1 ISZERO PUSH2 0x99F JUMPI PUSH1 0x0 MSTORE PUSH1 0x3 PUSH1 0x20 MSTORE PUSH1 0x20 PUSH1 0x40 PUSH1 0x0 KECCAK256 SLOAD PUSH1 0x40 MLOAD SWAP1 DUP2 MSTORE RETURN JUMPDEST PUSH1 0x40 MLOAD PUSH4 0x22718AD9 PUSH1 0xE2 SHL DUP2 MSTORE PUSH1 0x0 PUSH1 0x4 DUP3 ADD MSTORE PUSH1 0x24 SWAP1 REVERT JUMPDEST CALLVALUE PUSH2 0x265 JUMPI PUSH1 0x20 CALLDATASIZE PUSH1 0x3 NOT ADD SLT PUSH2 0x265 JUMPI PUSH1 0x4 CALLDATALOAD PUSH2 0x9D5 DUP2 PUSH2 0x2044 JUMP JUMPDEST PUSH1 0x1 PUSH1 0x1 PUSH1 0xA0 SHL SUB SWAP1 CALLER SWAP1 DUP3 AND SUB PUSH2 0x253 JUMPI DUP2 PUSH1 0x0 MSTORE PUSH1 0xF PUSH1 0x20 MSTORE PUSH1 0x40 PUSH1 0x0 KECCAK256 SWAP1 PUSH1 0x1 PUSH1 0x40 MLOAD SWAP3 PUSH2 0xA05 DUP5 PUSH2 0x1C5E JUMP JUMPDEST DUP3 DUP2 SLOAD AND DUP5 MSTORE ADD SLOAD PUSH1 0x20 DUP4 ADD SWAP1 DUP1 DUP3 MSTORE ISZERO PUSH2 0xAB2 JUMPI MLOAD TIMESTAMP LT PUSH2 0xAA0 JUMPI PUSH1 0x0 DUP4 DUP2 MSTORE PUSH1 0xC PUSH1 0x20 SWAP1 DUP2 MSTORE PUSH1 0x40 DUP1 DUP4 KECCAK256 PUSH1 0x1 SWAP1 DUP2 ADD DUP1 SLOAD DUP8 MLOAD PUSH1 0x1 PUSH1 0x1 PUSH1 0xA0 SHL SUB NOT DUP3 AND SWAP1 DUP9 AND OR SWAP1 SWAP2 SSTORE PUSH1 0xF DUP5 MSTORE DUP3 DUP6 KECCAK256 DUP6 DUP2 SSTORE SWAP1 SWAP2 ADD SWAP4 SWAP1 SWAP4 SSTORE SWAP4 MLOAD DUP5 MLOAD PUSH1 0x1 PUSH1 0x1 PUSH1 0xA0 SHL SUB SWAP4 DUP6 AND DUP5 AND DUP2 MSTORE SWAP4 AND SWAP1 SWAP2 AND SWAP1 DUP3 ADD MSTORE PUSH32 0xD116DDFE3CE0D19970E3748D0E65B606D6A7996E8ACE22F241E3BA27CD1E327 SWAP2 SWAP1 LOG2 STOP JUMPDEST PUSH1 0x40 MLOAD PUSH4 0x621E25C3 PUSH1 0xE0 SHL DUP2 MSTORE PUSH1 0x4 SWAP1 REVERT JUMPDEST PUSH1 0x40 MLOAD PUSH4 0x147FDE5F PUSH1 0xE3 SHL DUP2 MSTORE PUSH1 0x4 SWAP1 REVERT JUMPDEST CALLVALUE PUSH2 0x265 JUMPI PUSH1 0x40 CALLDATASIZE PUSH1 0x3 NOT ADD SLT PUSH2 0x265 JUMPI PUSH1 0x4 CALLDATALOAD PUSH2 0xAE0 PUSH2 0x1B7B JUMP JUMPDEST PUSH2 0xAE8 PUSH2 0x207F JUMP JUMPDEST PUSH2 0xAF1 DUP3 PUSH2 0x2044 JUMP JUMPDEST PUSH1 0x1 PUSH1 0x1 PUSH1 0xA0 SHL SUB SWAP1 CALLER SWAP1 DUP3 AND SUB PUSH2 0x253 JUMPI DUP1 DUP3 AND SWAP2 DUP3 ISZERO PUSH2 0x8E6 JUMPI EXTCODESIZE PUSH2 0xBBD JUMPI PUSH3 0x15180 TIMESTAMP ADD SWAP2 DUP3 TIMESTAMP GT PUSH2 0xBA7 JUMPI PUSH32 0xE75AF70C5199319759C92568FB0CC8DC1F926D4C9910BE0BFBFBB73607A38DB3 SWAP3 PUSH1 0x60 SWAP3 PUSH1 0x40 MLOAD PUSH2 0xB51 DUP2 PUSH2 0x1C5E JUMP JUMPDEST DUP4 DUP2 MSTORE PUSH1 0x1 PUSH1 0x20 DUP3 ADD DUP5 DUP2 MSTORE DUP9 PUSH1 0x0 MSTORE PUSH1 0xF PUSH1 0x20 MSTORE DUP4 PUSH1 0x40 PUSH1 0x0 KECCAK256 SWAP4 MLOAD AND PUSH1 0x1 PUSH1 0x1 PUSH1 0x60 SHL SUB PUSH1 0xA0 SHL DUP5 SLOAD AND OR DUP4 SSTORE MLOAD SWAP2 ADD SSTORE PUSH1 0xC PUSH1 0x20 MSTORE PUSH1 0x1 PUSH1 0x40 PUSH1 0x0 KECCAK256 ADD SLOAD AND SWAP2 PUSH1 0x40 MLOAD SWAP3 DUP4 MSTORE PUSH1 0x20 DUP4 ADD MSTORE PUSH1 0x40 DUP3 ADD MSTORE LOG2 STOP JUMPDEST PUSH4 0x4E487B71 PUSH1 0xE0 SHL PUSH1 0x0 MSTORE PUSH1 0x11 PUSH1 0x4 MSTORE PUSH1 0x24 PUSH1 0x0 REVERT JUMPDEST PUSH1 0x40 MLOAD PUSH4 0x11970E2D PUSH1 0xE3 SHL DUP2 MSTORE PUSH1 0x4 SWAP1 REVERT JUMPDEST CALLVALUE PUSH2 0x265 JUMPI PUSH1 0x20 CALLDATASIZE PUSH1 0x3 NOT ADD SLT PUSH2 0x265 JUMPI PUSH1 0x20 PUSH2 0xBED PUSH1 0x4 CALLDATALOAD PUSH2 0x2044 JUMP JUMPDEST PUSH1 0x40 MLOAD PUSH1 0x1 PUSH1 0x1 PUSH1 0xA0 SHL SUB SWAP1 SWAP2 AND DUP2 MSTORE RETURN JUMPDEST CALLVALUE PUSH2 0x265 JUMPI PUSH1 0x0 CALLDATASIZE PUSH1 0x3 NOT ADD SLT PUSH2 0x265 JUMPI PUSH1 0x20 PUSH1 0xFF PUSH1 0xA SLOAD AND PUSH1 0x40 MLOAD SWAP1 ISZERO ISZERO DUP2 MSTORE RETURN JUMPDEST CALLVALUE PUSH2 0x265 JUMPI PUSH1 0x0 CALLDATASIZE PUSH1 0x3 NOT ADD SLT PUSH2 0x265 JUMPI PUSH1 0x20 PUSH1 0x40 MLOAD PUSH3 0x15180 DUP2 MSTORE RETURN JUMPDEST CALLVALUE PUSH2 0x265 JUMPI PUSH2 0xC4E CALLDATASIZE PUSH2 0x1D5A JUMP JUMPDEST PUSH2 0xC59 SWAP3 SWAP2 SWAP3 PUSH2 0x209D JUMP JUMPDEST PUSH2 0xC61 PUSH2 0x207F JUMP JUMPDEST PUSH2 0xC6A DUP3 PUSH2 0x2044 JUMP JUMPDEST CALLER PUSH1 0x1 PUSH1 0x1 PUSH1 0xA0 SHL SUB SWAP1 SWAP2 AND SUB PUSH2 0x253 JUMPI PUSH2 0x100 DUP2 GT PUSH2 0xDAE JUMPI DUP2 PUSH1 0x0 MSTORE PUSH1 0x20 SWAP3 PUSH1 0xC PUSH1 0x20 MSTORE PUSH1 0x2 PUSH1 0x40 PUSH1 0x0 KECCAK256 ADD PUSH1 0x1 PUSH1 0x1 PUSH1 0x40 SHL SUB DUP4 GT PUSH2 0xD98 JUMPI PUSH2 0xCBA DUP4 PUSH2 0xCB4 DUP4 SLOAD PUSH2 0x1C09 JUMP JUMPDEST DUP4 PUSH2 0x1F90 JUMP JUMPDEST PUSH1 0x0 SWAP5 PUSH1 0x1F DUP5 GT PUSH1 0x1 EQ PUSH2 0xD22 JUMPI POP PUSH2 0xCFB DUP4 DUP1 PUSH1 0x0 DUP1 MLOAD PUSH1 0x20 PUSH2 0x258B DUP4 CODECOPY DUP2 MLOAD SWAP2 MSTORE SWAP7 SWAP8 PUSH1 0x0 SWAP2 PUSH2 0xD17 JUMPI JUMPDEST POP DUP2 PUSH1 0x1 SHL SWAP2 PUSH1 0x0 NOT SWAP1 PUSH1 0x3 SHL SHR NOT AND OR SWAP1 JUMP JUMPDEST SWAP1 SSTORE JUMPDEST PUSH2 0xD0D PUSH1 0x40 MLOAD SWAP3 DUP4 SWAP3 DUP4 PUSH2 0x1FE6 JUMP JUMPDEST SUB SWAP1 LOG2 PUSH1 0x1 PUSH1 0x9 SSTORE STOP JUMPDEST SWAP1 POP DUP5 ADD CALLDATALOAD DUP9 PUSH2 0xCE7 JUMP JUMPDEST PUSH1 0x1F NOT DUP5 AND SWAP6 DUP3 PUSH1 0x0 MSTORE PUSH1 0x20 PUSH1 0x0 KECCAK256 SWAP2 PUSH1 0x0 SWAP1 JUMPDEST DUP9 DUP3 LT PUSH2 0xD80 JUMPI POP POP DUP5 PUSH1 0x0 DUP1 MLOAD PUSH1 0x20 PUSH2 0x258B DUP4 CODECOPY DUP2 MLOAD SWAP2 MSTORE SWAP7 SWAP8 LT PUSH2 0xD66 JUMPI JUMPDEST POP POP PUSH1 0x1 DUP4 DUP2 SHL ADD SWAP1 SSTORE PUSH2 0xCFE JUMP JUMPDEST DUP4 ADD CALLDATALOAD PUSH1 0x0 NOT PUSH1 0x3 DUP7 SWAP1 SHL PUSH1 0xF8 AND SHR NOT AND SWAP1 SSTORE DUP6 DUP1 PUSH2 0xD57 JUMP JUMPDEST DUP1 PUSH1 0x1 DUP5 SWAP6 DUP3 SWAP5 SWAP6 DUP10 ADD CALLDATALOAD DUP2 SSTORE ADD SWAP5 ADD SWAP3 ADD SWAP1 PUSH2 0xD36 JUMP JUMPDEST PUSH4 0x4E487B71 PUSH1 0xE0 SHL PUSH1 0x0 MSTORE PUSH1 0x41 PUSH1 0x4 MSTORE PUSH1 0x24 PUSH1 0x0 REVERT JUMPDEST PUSH1 0x40 MLOAD PUSH4 0x90490925 PUSH1 0xE0 SHL DUP2 MSTORE PUSH1 0x4 SWAP1 REVERT JUMPDEST CALLVALUE PUSH2 0x265 JUMPI PUSH2 0xDCE CALLDATASIZE PUSH2 0x1D5A JUMP JUMPDEST PUSH2 0xDD6 PUSH2 0x209D JUMP JUMPDEST PUSH2 0xDDE PUSH2 0x207F JUMP JUMPDEST PUSH2 0xDE7 DUP4 PUSH2 0x2044 JUMP JUMPDEST CALLER PUSH1 0x1 PUSH1 0x1 PUSH1 0xA0 SHL SUB SWAP1 SWAP2 AND SUB PUSH2 0x253 JUMPI PUSH2 0x200 DUP2 GT PUSH2 0xE37 JUMPI PUSH32 0x859FAC2FC059A2FA38EFE7236E1C16278C1519298D62DD05582FF7FA392A1045 SWAP2 PUSH2 0xCFE PUSH2 0xE31 CALLDATASIZE DUP5 DUP5 PUSH2 0x1DA8 JUMP JUMPDEST DUP6 PUSH2 0x22EE JUMP JUMPDEST PUSH1 0x40 MLOAD PUSH4 0x22E34813 PUSH1 0xE2 SHL DUP2 MSTORE PUSH1 0x4 SWAP1 REVERT JUMPDEST CALLVALUE PUSH2 0x265 JUMPI PUSH1 0x20 CALLDATASIZE PUSH1 0x3 NOT ADD SLT PUSH2 0x265 JUMPI PUSH1 0x4 CALLDATALOAD PUSH1 0x0 SWAP1 DUP2 MSTORE PUSH1 0xC PUSH1 0x20 MSTORE PUSH1 0x40 SWAP1 KECCAK256 DUP1 SLOAD PUSH1 0x1 DUP3 ADD SLOAD PUSH1 0x1 PUSH1 0x1 PUSH1 0xA0 SHL SUB AND SWAP2 PUSH2 0xE88 PUSH1 0x2 DUP3 ADD PUSH2 0x1CB5 JUMP JUMPDEST PUSH2 0xEB7 PUSH1 0xFF PUSH1 0x4 PUSH1 0x3 DUP6 ADD SLOAD SWAP5 ADD SLOAD AND SWAP2 PUSH1 0x40 MLOAD SWAP6 DUP7 SWAP6 DUP7 MSTORE PUSH1 0x20 DUP7 ADD MSTORE PUSH1 0xA0 PUSH1 0x40 DUP7 ADD MSTORE PUSH1 0xA0 DUP6 ADD SWAP1 PUSH2 0x1B25 JUMP JUMPDEST SWAP2 PUSH1 0x60 DUP5 ADD MSTORE ISZERO ISZERO PUSH1 0x80 DUP4 ADD MSTORE SUB SWAP1 RETURN JUMPDEST CALLVALUE PUSH2 0x265 JUMPI PUSH1 0x20 CALLDATASIZE PUSH1 0x3 NOT ADD SLT PUSH2 0x265 JUMPI PUSH1 0x20 PUSH2 0xEE6 PUSH1 0x4 CALLDATALOAD PUSH2 0x200E JUMP JUMPDEST PUSH1 0x40 MLOAD SWAP1 ISZERO ISZERO DUP2 MSTORE RETURN JUMPDEST CALLVALUE PUSH2 0x265 JUMPI PUSH2 0x4E4 PUSH2 0xF01 CALLDATASIZE PUSH2 0x1BA7 JUMP JUMPDEST SWAP1 PUSH1 0x40 MLOAD SWAP3 PUSH2 0xF0F DUP5 PUSH2 0x1C79 JUMP JUMPDEST PUSH1 0x0 DUP5 MSTORE PUSH2 0x4DE DUP4 DUP4 DUP4 PUSH2 0x1DDF JUMP JUMPDEST CALLVALUE PUSH2 0x265 JUMPI PUSH1 0x0 CALLDATASIZE PUSH1 0x3 NOT ADD SLT PUSH2 0x265 JUMPI PUSH2 0xF37 PUSH2 0x2428 JUMP JUMPDEST PUSH1 0xA SLOAD PUSH1 0xFF DUP2 AND ISZERO PUSH2 0xF76 JUMPI PUSH1 0xFF NOT AND PUSH1 0xA SSTORE PUSH32 0x5DB9EE0A495BF2E6FF9C91A7834C1BA4FDD244A5E8AA4E537BD38AEAE4B073AA PUSH1 0x20 PUSH1 0x40 MLOAD CALLER DUP2 MSTORE LOG1 STOP JUMPDEST PUSH1 0x40 MLOAD PUSH4 0x8DFC202B PUSH1 0xE0 SHL DUP2 MSTORE PUSH1 0x4 SWAP1 REVERT JUMPDEST CALLVALUE PUSH2 0x265 JUMPI PUSH1 0x60 CALLDATASIZE PUSH1 0x3 NOT ADD SLT PUSH2 0x265 JUMPI PUSH1 0x4 CALLDATALOAD PUSH1 0x1 PUSH1 0x1 PUSH1 0x40 SHL SUB PUSH1 0x24 CALLDATALOAD DUP2 DUP2 GT PUSH2 0x265 JUMPI PUSH2 0xFBC SWAP1 CALLDATASIZE SWAP1 PUSH1 0x4 ADD PUSH2 0x1BDC JUMP JUMPDEST SWAP1 PUSH2 0xFC5 PUSH2 0x1B91 JUMP JUMPDEST PUSH1 0xE SLOAD SWAP1 SWAP4 PUSH1 0x1 PUSH1 0x1 PUSH1 0xA0 SHL SUB SWAP4 SWAP1 SWAP2 DUP5 AND CALLER SUB PUSH2 0x11BD JUMPI PUSH2 0xFE5 PUSH2 0x209D JUMP JUMPDEST PUSH2 0xFED PUSH2 0x207F JUMP JUMPDEST DUP6 ISZERO DUP1 ISZERO PUSH2 0x11B1 JUMPI JUMPDEST PUSH2 0x119F JUMPI DUP1 PUSH2 0x1089 JUMPI JUMPDEST POP POP POP DUP1 DUP3 AND DUP1 PUSH2 0x1013 JUMPI JUMPDEST PUSH1 0x1 PUSH1 0x9 SSTORE STOP JUMPDEST DUP3 EXTCODESIZE PUSH2 0xBBD JUMPI PUSH1 0x0 DUP5 DUP2 MSTORE PUSH1 0xC PUSH1 0x20 SWAP1 DUP2 MSTORE PUSH1 0x40 SWAP2 DUP3 SWAP1 KECCAK256 PUSH1 0x1 ADD DUP1 SLOAD PUSH1 0x1 PUSH1 0x1 PUSH1 0xA0 SHL SUB NOT DUP2 AND SWAP5 SWAP1 SWAP5 OR SWAP1 SSTORE DUP2 MLOAD SWAP4 SWAP1 SWAP3 AND PUSH1 0x1 PUSH1 0x1 PUSH1 0xA0 SHL SUB SWAP1 DUP2 AND DUP5 MSTORE SWAP4 SWAP1 SWAP4 AND SWAP1 DUP3 ADD MSTORE PUSH32 0xD116DDFE3CE0D19970E3748D0E65B606D6A7996E8ACE22F241E3BA27CD1E327 SWAP2 SWAP1 LOG2 DUP1 DUP1 DUP1 DUP1 PUSH2 0x100C JUMP JUMPDEST PUSH2 0x100 DUP2 GT PUSH2 0xDAE JUMPI DUP6 PUSH1 0x0 MSTORE PUSH1 0x20 SWAP3 PUSH1 0xC PUSH1 0x20 MSTORE PUSH1 0x2 PUSH1 0x40 PUSH1 0x0 KECCAK256 ADD SWAP3 DUP3 GT PUSH2 0xD98 JUMPI DUP3 PUSH2 0x10BD DUP4 PUSH2 0xCB4 DUP11 SWAP7 SLOAD PUSH2 0x1C09 JUMP JUMPDEST PUSH1 0x0 SWAP5 PUSH1 0x1F DUP5 GT PUSH1 0x1 EQ PUSH2 0x1125 JUMPI POP PUSH2 0x10FD DUP4 DUP1 PUSH1 0x0 DUP1 MLOAD PUSH1 0x20 PUSH2 0x258B DUP4 CODECOPY DUP2 MLOAD SWAP2 MSTORE SWAP7 SWAP8 PUSH1 0x0 SWAP2 PUSH2 0x111A JUMPI POP DUP2 PUSH1 0x1 SHL SWAP2 PUSH1 0x0 NOT SWAP1 PUSH1 0x3 SHL SHR NOT AND OR SWAP1 JUMP JUMPDEST SWAP1 SSTORE JUMPDEST PUSH2 0x110F PUSH1 0x40 MLOAD SWAP3 DUP4 SWAP3 DUP4 PUSH2 0x1FE6 JUMP JUMPDEST SUB SWAP1 LOG2 DUP4 DUP1 DUP1 PUSH2 0x1000 JUMP JUMPDEST SWAP1 POP DUP5 ADD CALLDATALOAD DUP12 PUSH2 0xCE7 JUMP JUMPDEST PUSH1 0x1F NOT DUP5 AND SWAP6 DUP3 PUSH1 0x0 MSTORE PUSH1 0x20 PUSH1 0x0 KECCAK256 SWAP2 PUSH1 0x0 SWAP1 JUMPDEST DUP9 DUP3 LT PUSH2 0x1183 JUMPI POP POP DUP5 PUSH1 0x0 DUP1 MLOAD PUSH1 0x20 PUSH2 0x258B DUP4 CODECOPY DUP2 MLOAD SWAP2 MSTORE SWAP7 SWAP8 LT PUSH2 0x1169 JUMPI JUMPDEST POP POP PUSH1 0x1 DUP4 DUP2 SHL ADD SWAP1 SSTORE PUSH2 0x1100 JUMP JUMPDEST DUP4 ADD CALLDATALOAD PUSH1 0x0 NOT PUSH1 0x3 DUP7 SWAP1 SHL PUSH1 0xF8 AND SHR NOT AND SWAP1 SSTORE DUP9 DUP1 PUSH2 0x115A JUMP JUMPDEST DUP6 DUP4 ADD CALLDATALOAD DUP5 SSTORE DUP12 SWAP8 POP PUSH1 0x1 SWAP1 SWAP4 ADD SWAP3 SWAP2 DUP3 ADD SWAP2 SWAP1 DUP2 ADD SWAP1 PUSH2 0x1139 JUMP JUMPDEST PUSH1 0x40 MLOAD PUSH4 0x6979D351 PUSH1 0xE1 SHL DUP2 MSTORE PUSH1 0x4 SWAP1 REVERT JUMPDEST POP PUSH1 0xB SLOAD DUP7 LT ISZERO PUSH2 0xFF6 JUMP JUMPDEST PUSH1 0x40 MLOAD PUSH4 0x2B35006D PUSH1 0xE2 SHL DUP2 MSTORE PUSH1 0x4 SWAP1 REVERT JUMPDEST CALLVALUE PUSH2 0x265 JUMPI PUSH1 0xA0 CALLDATASIZE PUSH1 0x3 NOT ADD SLT PUSH2 0x265 JUMPI PUSH2 0x11E8 PUSH2 0x1B65 JUMP JUMPDEST PUSH2 0x11F0 PUSH2 0x1B91 JUMP JUMPDEST SWAP1 PUSH1 0x64 CALLDATALOAD PUSH1 0x1 PUSH1 0x1 PUSH1 0x40 SHL SUB DUP2 GT PUSH2 0x265 JUMPI PUSH2 0x1210 SWAP1 CALLDATASIZE SWAP1 PUSH1 0x4 ADD PUSH2 0x1BDC JUMP JUMPDEST SWAP2 SWAP1 PUSH1 0x84 CALLDATALOAD PUSH1 0x1 PUSH1 0x1 PUSH1 0x40 SHL SUB DUP2 GT PUSH2 0x265 JUMPI PUSH2 0x1231 SWAP1 CALLDATASIZE SWAP1 PUSH1 0x4 ADD PUSH2 0x1BDC JUMP JUMPDEST PUSH1 0xE SLOAD SWAP2 SWAP3 SWAP1 SWAP2 PUSH1 0x1 PUSH1 0x1 PUSH1 0xA0 SHL SUB AND CALLER SUB PUSH2 0x11BD JUMPI PUSH2 0x124F PUSH2 0x209D JUMP JUMPDEST PUSH2 0x1257 PUSH2 0x207F JUMP JUMPDEST PUSH1 0x1 PUSH1 0x1 PUSH1 0xA0 SHL SUB DUP5 AND ISZERO PUSH2 0x8E6 JUMPI PUSH1 0x24 CALLDATALOAD ISZERO PUSH2 0x119F JUMPI PUSH1 0x1 PUSH1 0x1 PUSH1 0xA0 SHL SUB DUP7 AND ISZERO PUSH2 0x8E6 JUMPI PUSH1 0x24 CALLDATALOAD PUSH1 0x0 MSTORE PUSH1 0xD PUSH1 0x20 MSTORE PUSH1 0x40 PUSH1 0x0 KECCAK256 SLOAD PUSH2 0x14C1 JUMPI PUSH2 0x100 DUP6 GT PUSH2 0xDAE JUMPI PUSH2 0x200 DUP3 GT PUSH2 0xE37 JUMPI DUP6 EXTCODESIZE PUSH2 0xBBD JUMPI PUSH2 0x12E5 SWAP1 PUSH1 0xB SLOAD SWAP6 PUSH2 0x12BB DUP8 PUSH2 0x1F81 JUMP JUMPDEST PUSH1 0xB SSTORE PUSH1 0x40 MLOAD SWAP8 PUSH2 0x12CB DUP10 PUSH2 0x1C43 JUMP JUMPDEST PUSH1 0x24 CALLDATALOAD DUP10 MSTORE PUSH1 0x1 PUSH1 0x1 PUSH1 0xA0 SHL SUB AND PUSH1 0x20 DUP10 ADD MSTORE CALLDATASIZE SWAP2 PUSH2 0x1DA8 JUMP JUMPDEST PUSH1 0x40 DUP7 ADD MSTORE TIMESTAMP PUSH1 0x60 DUP7 ADD MSTORE PUSH1 0x1 PUSH1 0x80 DUP7 ADD MSTORE DUP4 PUSH1 0x0 MSTORE PUSH1 0xC PUSH1 0x20 MSTORE PUSH1 0x40 PUSH1 0x0 KECCAK256 DUP6 MLOAD DUP2 SSTORE PUSH1 0x1 DUP2 ADD PUSH1 0x1 DUP1 PUSH1 0xA0 SHL SUB PUSH1 0x20 DUP9 ADD MLOAD AND PUSH1 0x1 PUSH1 0x1 PUSH1 0x60 SHL SUB PUSH1 0xA0 SHL DUP3 SLOAD AND OR SWAP1 SSTORE PUSH1 0x40 DUP7 ADD MLOAD SWAP6 DUP7 MLOAD PUSH1 0x1 PUSH1 0x1 PUSH1 0x40 SHL SUB DUP2 GT PUSH2 0xD98 JUMPI PUSH1 0x20 SWAP8 PUSH2 0x135E DUP3 PUSH2 0x1355 PUSH1 0x2 DUP8 ADD SLOAD PUSH2 0x1C09 JUMP JUMPDEST PUSH1 0x2 DUP8 ADD PUSH2 0x1F90 JUMP JUMPDEST DUP9 SWAP1 PUSH1 0x1F DUP4 GT PUSH1 0x1 EQ PUSH2 0x1442 JUMPI PUSH1 0x80 PUSH2 0x13E9 SWAP7 SWAP5 PUSH2 0x13A0 DUP6 PUSH2 0x13C7 SWAP7 PUSH2 0x13EF SWAP12 SWAP10 SWAP7 PUSH1 0x4 SWAP7 PUSH1 0x0 SWAP3 PUSH2 0x1437 JUMPI JUMPDEST POP POP DUP2 PUSH1 0x1 SHL SWAP2 PUSH1 0x0 NOT SWAP1 PUSH1 0x3 SHL SHR NOT AND OR SWAP1 JUMP JUMPDEST PUSH1 0x2 DUP6 ADD SSTORE JUMPDEST PUSH1 0x60 DUP2 ADD MLOAD PUSH1 0x3 DUP6 ADD SSTORE ADD MLOAD ISZERO ISZERO SWAP2 ADD SWAP1 PUSH1 0xFF DUP1 NOT DUP4 SLOAD AND SWAP2 ISZERO ISZERO AND OR SWAP1 SSTORE JUMP JUMPDEST PUSH1 0x24 CALLDATALOAD PUSH1 0x0 MSTORE PUSH1 0xD DUP8 MSTORE DUP6 PUSH1 0x40 PUSH1 0x0 KECCAK256 SSTORE PUSH2 0x13E2 DUP7 DUP7 PUSH2 0x20C0 JUMP JUMPDEST CALLDATASIZE SWAP2 PUSH2 0x1DA8 JUMP JUMPDEST DUP4 PUSH2 0x22EE JUMP JUMPDEST PUSH1 0x40 MLOAD CALLER DUP2 MSTORE PUSH1 0x24 CALLDATALOAD SWAP2 PUSH1 0x1 PUSH1 0x1 PUSH1 0xA0 SHL SUB AND SWAP1 DUP4 SWAP1 PUSH32 0x3B3BD2AE0813649F0A35DF972F28CAC6CA8D704D1D66122C8A336C58FCDB4530 SWAP1 DUP7 SWAP1 LOG4 PUSH1 0x1 PUSH1 0x9 SSTORE PUSH1 0x40 MLOAD SWAP1 DUP2 MSTORE RETURN JUMPDEST ADD MLOAD SWAP1 POP DUP16 DUP1 PUSH2 0x138B JUMP JUMPDEST SWAP1 PUSH1 0x2 DUP6 ADD PUSH1 0x0 MSTORE DUP10 PUSH1 0x0 KECCAK256 SWAP2 PUSH1 0x0 JUMPDEST PUSH1 0x1F NOT DUP6 AND DUP2 LT PUSH2 0x14AA JUMPI POP PUSH2 0x13E9 SWAP7 SWAP5 PUSH1 0x1 DUP6 PUSH2 0x13EF SWAP11 SWAP9 SWAP6 PUSH1 0x4 SWAP6 PUSH1 0x80 SWAP6 PUSH2 0x13C7 SWAP10 PUSH1 0x1F NOT DUP2 AND LT PUSH2 0x1491 JUMPI JUMPDEST POP POP POP DUP2 SHL ADD PUSH1 0x2 DUP6 ADD SSTORE PUSH2 0x13A6 JUMP JUMPDEST ADD MLOAD PUSH1 0x0 NOT PUSH1 0xF8 DUP5 PUSH1 0x3 SHL AND SHR NOT AND SWAP1 SSTORE DUP15 DUP1 DUP1 PUSH2 0x1481 JUMP JUMPDEST SWAP2 SWAP3 DUP12 PUSH1 0x1 DUP2 SWAP3 DUP7 DUP6 ADD MLOAD DUP2 SSTORE ADD SWAP5 ADD SWAP3 ADD PUSH2 0x1452 JUMP JUMPDEST PUSH1 0x40 MLOAD PUSH4 0xD82532D PUSH1 0xE2 SHL DUP2 MSTORE PUSH1 0x4 SWAP1 REVERT JUMPDEST CALLVALUE PUSH2 0x265 JUMPI PUSH1 0x0 CALLDATASIZE PUSH1 0x3 NOT ADD SLT PUSH2 0x265 JUMPI PUSH1 0x20 PUSH1 0xB SLOAD PUSH1 0x40 MLOAD SWAP1 DUP2 MSTORE RETURN JUMPDEST CALLVALUE PUSH2 0x265 JUMPI PUSH1 0x20 DUP1 PUSH1 0x3 NOT CALLDATASIZE ADD SLT PUSH2 0x265 JUMPI PUSH1 0x0 PUSH1 0x80 PUSH1 0x40 MLOAD PUSH2 0x1513 DUP2 PUSH2 0x1C43 JUMP JUMPDEST DUP3 DUP2 MSTORE DUP3 DUP5 DUP3 ADD MSTORE PUSH1 0x60 PUSH1 0x40 DUP3 ADD MSTORE DUP3 PUSH1 0x60 DUP3 ADD MSTORE ADD MSTORE PUSH1 0x4 CALLDATALOAD PUSH1 0x0 MSTORE PUSH1 0xC DUP2 MSTORE PUSH1 0x40 PUSH1 0x0 KECCAK256 PUSH1 0x40 MLOAD SWAP1 PUSH2 0x1546 DUP3 PUSH2 0x1C43 JUMP JUMPDEST DUP1 SLOAD DUP3 MSTORE PUSH1 0x1 DUP2 ADD SLOAD PUSH1 0x1 PUSH1 0x1 PUSH1 0xA0 SHL SUB SWAP1 DUP2 AND DUP5 DUP5 ADD SWAP1 DUP2 MSTORE SWAP1 PUSH2 0x15BE SWAP1 PUSH2 0x1571 PUSH1 0x2 DUP6 ADD PUSH2 0x1CB5 JUMP JUMPDEST SWAP1 PUSH1 0x40 DUP7 ADD SWAP2 DUP3 MSTORE PUSH1 0xFF PUSH1 0x4 PUSH1 0x3 DUP8 ADD SLOAD SWAP7 PUSH1 0x60 DUP10 ADD SWAP8 DUP9 MSTORE ADD SLOAD AND SWAP4 PUSH1 0x80 DUP8 ADD SWAP5 ISZERO ISZERO DUP6 MSTORE PUSH1 0x40 MLOAD SWAP8 DUP9 SWAP8 DUP2 DUP10 MSTORE MLOAD SWAP1 DUP9 ADD MSTORE MLOAD AND PUSH1 0x40 DUP7 ADD MSTORE MLOAD PUSH1 0xA0 PUSH1 0x60 DUP7 ADD MSTORE PUSH1 0xC0 DUP6 ADD SWAP1 PUSH2 0x1B25 JUMP JUMPDEST SWAP2 MLOAD PUSH1 0x80 DUP5 ADD MSTORE MLOAD ISZERO ISZERO PUSH1 0xA0 DUP4 ADD MSTORE SUB SWAP1 RETURN JUMPDEST CALLVALUE PUSH2 0x265 JUMPI PUSH1 0x80 CALLDATASIZE PUSH1 0x3 NOT ADD SLT PUSH2 0x265 JUMPI PUSH2 0x15EA PUSH2 0x1B7B JUMP JUMPDEST PUSH1 0x1 PUSH1 0x1 PUSH1 0x40 SHL SUB SWAP1 PUSH1 0x44 CALLDATALOAD DUP3 DUP2 GT PUSH2 0x265 JUMPI PUSH2 0x160B SWAP1 CALLDATASIZE SWAP1 PUSH1 0x4 ADD PUSH2 0x1BDC JUMP JUMPDEST PUSH1 0x64 SWAP3 SWAP2 SWAP3 CALLDATALOAD DUP5 DUP2 GT PUSH2 0x265 JUMPI PUSH2 0x1626 SWAP1 CALLDATASIZE SWAP1 PUSH1 0x4 ADD PUSH2 0x1BDC JUMP JUMPDEST SWAP3 SWAP1 SWAP2 PUSH2 0x1631 PUSH2 0x209D JUMP JUMPDEST PUSH2 0x1639 PUSH2 0x207F JUMP JUMPDEST PUSH1 0x4 CALLDATALOAD ISZERO PUSH2 0x119F JUMPI PUSH1 0x1 PUSH1 0x1 PUSH1 0xA0 SHL SUB SWAP2 DUP1 DUP4 AND SWAP1 DUP2 ISZERO PUSH2 0x8E6 JUMPI PUSH1 0x4 CALLDATALOAD PUSH1 0x0 MSTORE PUSH1 0xD PUSH1 0x20 MSTORE PUSH1 0x40 PUSH1 0x0 KECCAK256 SLOAD PUSH2 0x14C1 JUMPI PUSH2 0x100 DUP4 GT PUSH2 0xDAE JUMPI PUSH2 0x200 DUP7 GT PUSH2 0xE37 JUMPI EXTCODESIZE PUSH2 0xBBD JUMPI PUSH2 0x16B3 PUSH1 0xB SLOAD SWAP7 PUSH2 0x1690 DUP9 PUSH2 0x1F81 JUMP JUMPDEST PUSH1 0xB SSTORE PUSH1 0x40 MLOAD SWAP4 PUSH2 0x16A0 DUP6 PUSH2 0x1C43 JUMP JUMPDEST PUSH1 0x4 CALLDATALOAD DUP6 MSTORE PUSH1 0x20 DUP6 ADD SWAP4 DUP5 MSTORE CALLDATASIZE SWAP2 PUSH2 0x1DA8 JUMP JUMPDEST SWAP1 PUSH1 0x40 DUP4 ADD SWAP2 DUP3 MSTORE TIMESTAMP PUSH1 0x60 DUP5 ADD MSTORE PUSH1 0x1 PUSH1 0x80 DUP5 ADD MSTORE DUP7 PUSH1 0x0 MSTORE PUSH1 0xC PUSH1 0x20 MSTORE PUSH1 0x40 PUSH1 0x0 KECCAK256 SWAP4 DUP4 MLOAD DUP6 SSTORE PUSH1 0x1 DUP6 ADD SWAP2 MLOAD AND PUSH1 0x1 PUSH1 0x1 PUSH1 0x60 SHL SUB PUSH1 0xA0 SHL DUP3 SLOAD AND OR SWAP1 SSTORE MLOAD SWAP6 DUP7 MLOAD SWAP1 DUP2 GT PUSH2 0xD98 JUMPI PUSH1 0x20 SWAP7 PUSH2 0x1712 DUP3 PUSH2 0x1355 PUSH1 0x2 DUP8 ADD SLOAD PUSH2 0x1C09 JUMP JUMPDEST DUP8 SWAP1 PUSH1 0x1F DUP4 GT PUSH1 0x1 EQ PUSH2 0x17CA JUMPI SWAP3 PUSH2 0x13A0 DUP4 PUSH1 0x4 SWAP5 PUSH1 0x80 SWAP5 PUSH2 0x174B SWAP9 SWAP8 PUSH1 0x0 SWAP3 PUSH2 0x17BF JUMPI POP POP DUP2 PUSH1 0x1 SHL SWAP2 PUSH1 0x0 NOT SWAP1 PUSH1 0x3 SHL SHR NOT AND OR SWAP1 JUMP JUMPDEST PUSH1 0x4 CALLDATALOAD PUSH1 0x0 MSTORE PUSH1 0xD DUP5 MSTORE DUP3 PUSH1 0x40 PUSH1 0x0 KECCAK256 SSTORE PUSH2 0x1766 DUP4 CALLER PUSH2 0x20C0 JUMP JUMPDEST PUSH2 0x177A PUSH2 0x1774 CALLDATASIZE DUP5 DUP5 PUSH2 0x1DA8 JUMP JUMPDEST DUP5 PUSH2 0x22EE JUMP JUMPDEST DUP3 PUSH32 0xCBB96F51F0D44AAD38BD37E9959154A2F979B86301A6EFBCB08D83F10AC9C820 PUSH1 0x40 MLOAD DUP1 PUSH2 0x17AF PUSH1 0x4 CALLDATALOAD SWAP7 CALLER SWAP7 DUP4 PUSH2 0x1FE6 JUMP JUMPDEST SUB SWAP1 LOG4 PUSH1 0x1 PUSH1 0x9 SSTORE PUSH1 0x40 MLOAD SWAP1 DUP2 MSTORE RETURN JUMPDEST ADD MLOAD SWAP1 POP DUP13 DUP1 PUSH2 0x138B JUMP JUMPDEST SWAP1 PUSH1 0x2 DUP6 ADD PUSH1 0x0 MSTORE DUP9 PUSH1 0x0 KECCAK256 SWAP2 PUSH1 0x0 JUMPDEST PUSH1 0x1F NOT DUP6 AND DUP2 LT PUSH2 0x1829 JUMPI POP DUP4 PUSH1 0x80 SWAP4 PUSH2 0x174B SWAP8 SWAP7 SWAP4 PUSH1 0x1 SWAP4 PUSH1 0x4 SWAP8 PUSH1 0x1F NOT DUP2 AND LT PUSH2 0x1810 JUMPI POP POP POP DUP2 SHL ADD PUSH1 0x2 DUP6 ADD SSTORE PUSH2 0x13A6 JUMP JUMPDEST ADD MLOAD PUSH1 0x0 NOT PUSH1 0xF8 DUP5 PUSH1 0x3 SHL AND SHR NOT AND SWAP1 SSTORE DUP12 DUP1 DUP1 PUSH2 0x1481 JUMP JUMPDEST SWAP2 SWAP3 DUP11 PUSH1 0x1 DUP2 SWAP3 DUP7 DUP6 ADD MLOAD DUP2 SSTORE ADD SWAP5 ADD SWAP3 ADD PUSH2 0x17DA JUMP JUMPDEST CALLVALUE PUSH2 0x265 JUMPI PUSH2 0x4E4 PUSH2 0x1851 CALLDATASIZE PUSH2 0x1BA7 JUMP JUMPDEST SWAP2 PUSH2 0x1DDF JUMP JUMPDEST CALLVALUE PUSH2 0x265 JUMPI PUSH1 0x20 CALLDATASIZE PUSH1 0x3 NOT ADD SLT PUSH2 0x265 JUMPI PUSH1 0x4 CALLDATALOAD PUSH2 0x1873 PUSH2 0x207F JUMP JUMPDEST PUSH2 0x187C DUP2 PUSH2 0x2044 JUMP JUMPDEST CALLER PUSH1 0x1 PUSH1 0x1 PUSH1 0xA0 SHL SUB SWAP1 SWAP2 AND SUB PUSH2 0x253 JUMPI DUP1 PUSH1 0x0 MSTORE PUSH1 0xC PUSH1 0x20 MSTORE PUSH1 0x4 PUSH1 0x40 PUSH1 0x0 KECCAK256 ADD PUSH1 0x1 PUSH1 0xFF NOT DUP3 SLOAD AND OR SWAP1 SSTORE PUSH32 0x7CCE21C1F4552995DCCACE889E9AD45FEBF59C654D3FD1D7AB0457FA1439AA2C PUSH1 0x0 DUP1 LOG2 STOP JUMPDEST CALLVALUE PUSH2 0x265 JUMPI PUSH1 0x40 CALLDATASIZE PUSH1 0x3 NOT ADD SLT PUSH2 0x265 JUMPI PUSH2 0x18E9 PUSH2 0x1B65 JUMP JUMPDEST PUSH1 0x24 CALLDATALOAD PUSH2 0x18F5 DUP2 PUSH2 0x2044 JUMP JUMPDEST CALLER ISZERO ISZERO DUP1 PUSH2 0x19A4 JUMPI JUMPDEST DUP1 PUSH2 0x1977 JUMPI JUMPDEST PUSH2 0x195F JUMPI PUSH1 0x1 PUSH1 0x1 PUSH1 0xA0 SHL SUB SWAP3 DUP4 AND SWAP3 DUP3 SWAP2 DUP5 SWAP2 AND PUSH32 0x8C5BE1E5EBEC7D5BD14F71427D1E84F3DD0314C0F7B2291E5B200AC8C7C3B925 PUSH1 0x0 DUP1 LOG4 PUSH1 0x0 SWAP1 DUP2 MSTORE PUSH1 0x4 PUSH1 0x20 MSTORE PUSH1 0x40 SWAP1 KECCAK256 DUP1 SLOAD PUSH1 0x1 PUSH1 0x1 PUSH1 0xA0 SHL SUB NOT AND SWAP1 SWAP2 OR SWAP1 SSTORE STOP JUMPDEST PUSH1 0x40 MLOAD PUSH4 0xA9FBF51F PUSH1 0xE0 SHL DUP2 MSTORE CALLER PUSH1 0x4 DUP3 ADD MSTORE PUSH1 0x24 SWAP1 REVERT JUMPDEST POP PUSH1 0x1 DUP1 PUSH1 0xA0 SHL SUB DUP2 AND PUSH1 0x0 MSTORE PUSH1 0x5 PUSH1 0x20 MSTORE PUSH1 0x40 PUSH1 0x0 KECCAK256 CALLER PUSH1 0x0 MSTORE PUSH1 0x20 MSTORE PUSH1 0xFF PUSH1 0x40 PUSH1 0x0 KECCAK256 SLOAD AND ISZERO PUSH2 0x1904 JUMP JUMPDEST POP PUSH1 0x1 PUSH1 0x1 PUSH1 0xA0 SHL SUB DUP2 AND CALLER EQ ISZERO PUSH2 0x18FE JUMP JUMPDEST CALLVALUE PUSH2 0x265 JUMPI PUSH1 0x20 CALLDATASIZE PUSH1 0x3 NOT ADD SLT PUSH2 0x265 JUMPI PUSH1 0x4 CALLDATALOAD PUSH2 0x19D4 DUP2 PUSH2 0x2044 JUMP JUMPDEST POP PUSH1 0x0 MSTORE PUSH1 0x4 PUSH1 0x20 MSTORE PUSH1 0x20 PUSH1 0x1 DUP1 PUSH1 0xA0 SHL SUB PUSH1 0x40 PUSH1 0x0 KECCAK256 SLOAD AND PUSH1 0x40 MLOAD SWAP1 DUP2 MSTORE RETURN JUMPDEST CALLVALUE PUSH2 0x265 JUMPI PUSH1 0x0 CALLDATASIZE PUSH1 0x3 NOT ADD SLT PUSH2 0x265 JUMPI PUSH1 0x40 MLOAD PUSH1 0x0 DUP1 SLOAD SWAP1 DUP3 PUSH2 0x1A18 DUP4 PUSH2 0x1C09 JUMP JUMPDEST SWAP2 DUP3 DUP3 MSTORE PUSH1 0x20 SWAP4 PUSH1 0x1 SWAP1 DUP6 PUSH1 0x1 DUP3 AND SWAP2 DUP3 PUSH1 0x0 EQ PUSH2 0x69D JUMPI POP POP PUSH1 0x1 EQ PUSH2 0x1A46 JUMPI POP PUSH2 0x62C SWAP3 POP SUB DUP4 PUSH2 0x1C94 JUMP JUMPDEST PUSH1 0x0 DUP1 DUP1 MSTORE DUP6 SWAP3 POP SWAP1 PUSH32 0x290DECD9548B62A8D60345A988386FC84BA6BC95484008F6362F93160EF3E563 JUMPDEST DUP6 DUP4 LT PUSH2 0x1A88 JUMPI POP POP PUSH2 0x62C SWAP4 POP DUP3 ADD ADD DUP6 PUSH2 0x61F JUMP JUMPDEST DUP1 SLOAD DUP4 DUP10 ADD DUP6 ADD MSTORE DUP8 SWAP5 POP DUP7 SWAP4 SWAP1 SWAP3 ADD SWAP2 DUP2 ADD PUSH2 0x1A71 JUMP JUMPDEST CALLVALUE PUSH2 0x265 JUMPI PUSH1 0x20 CALLDATASIZE PUSH1 0x3 NOT ADD SLT PUSH2 0x265 JUMPI PUSH1 0x4 CALLDATALOAD SWAP1 PUSH4 0xFFFFFFFF PUSH1 0xE0 SHL DUP3 AND DUP1 SWAP3 SUB PUSH2 0x265 JUMPI PUSH1 0x20 SWAP2 PUSH4 0x24832483 PUSH1 0xE1 SHL DUP2 EQ SWAP1 DUP2 ISZERO PUSH2 0x1AE2 JUMPI JUMPDEST POP ISZERO ISZERO DUP2 MSTORE RETURN JUMPDEST PUSH4 0x80AC58CD PUSH1 0xE0 SHL DUP2 EQ SWAP2 POP DUP2 ISZERO PUSH2 0x1B14 JUMPI JUMPDEST DUP2 ISZERO PUSH2 0x1B03 JUMPI JUMPDEST POP DUP4 PUSH2 0x1ADB JUMP JUMPDEST PUSH4 0x1FFC9A7 PUSH1 0xE0 SHL EQ SWAP1 POP DUP4 PUSH2 0x1AFC JUMP JUMPDEST PUSH4 0x5B5E139F PUSH1 0xE0 SHL DUP2 EQ SWAP2 POP PUSH2 0x1AF5 JUMP JUMPDEST SWAP2 SWAP1 DUP3 MLOAD SWAP3 DUP4 DUP3 MSTORE PUSH1 0x0 JUMPDEST DUP5 DUP2 LT PUSH2 0x1B51 JUMPI POP POP DUP3 PUSH1 0x0 PUSH1 0x20 DUP1 SWAP5 SWAP6 DUP5 ADD ADD MSTORE PUSH1 0x1F DUP1 NOT SWAP2 ADD AND ADD ADD SWAP1 JUMP JUMPDEST PUSH1 0x20 DUP2 DUP4 ADD DUP2 ADD MLOAD DUP5 DUP4 ADD DUP3 ADD MSTORE ADD PUSH2 0x1B30 JUMP JUMPDEST PUSH1 0x4 CALLDATALOAD SWAP1 PUSH1 0x1 PUSH1 0x1 PUSH1 0xA0 SHL SUB DUP3 AND DUP3 SUB PUSH2 0x265 JUMPI JUMP JUMPDEST PUSH1 0x24 CALLDATALOAD SWAP1 PUSH1 0x1 PUSH1 0x1 PUSH1 0xA0 SHL SUB DUP3 AND DUP3 SUB PUSH2 0x265 JUMPI JUMP JUMPDEST PUSH1 0x44 CALLDATALOAD SWAP1 PUSH1 0x1 PUSH1 0x1 PUSH1 0xA0 SHL SUB DUP3 AND DUP3 SUB PUSH2 0x265 JUMPI JUMP JUMPDEST PUSH1 0x60 SWAP1 PUSH1 0x3 NOT ADD SLT PUSH2 0x265 JUMPI PUSH1 0x1 PUSH1 0x1 PUSH1 0xA0 SHL SUB SWAP1 PUSH1 0x4 CALLDATALOAD DUP3 DUP2 AND DUP2 SUB PUSH2 0x265 JUMPI SWAP2 PUSH1 0x24 CALLDATALOAD SWAP1 DUP2 AND DUP2 SUB PUSH2 0x265 JUMPI SWAP1 PUSH1 0x44 CALLDATALOAD SWAP1 JUMP JUMPDEST SWAP2 DUP2 PUSH1 0x1F DUP5 ADD SLT ISZERO PUSH2 0x265 JUMPI DUP3 CALLDATALOAD SWAP2 PUSH1 0x1 PUSH1 0x1 PUSH1 0x40 SHL SUB DUP4 GT PUSH2 0x265 JUMPI PUSH1 0x20 DUP4 DUP2 DUP7 ADD SWAP6 ADD ADD GT PUSH2 0x265 JUMPI JUMP JUMPDEST SWAP1 PUSH1 0x1 DUP3 DUP2 SHR SWAP3 AND DUP1 ISZERO PUSH2 0x1C39 JUMPI JUMPDEST PUSH1 0x20 DUP4 LT EQ PUSH2 0x1C23 JUMPI JUMP JUMPDEST PUSH4 0x4E487B71 PUSH1 0xE0 SHL PUSH1 0x0 MSTORE PUSH1 0x22 PUSH1 0x4 MSTORE PUSH1 0x24 PUSH1 0x0 REVERT JUMPDEST SWAP2 PUSH1 0x7F AND SWAP2 PUSH2 0x1C18 JUMP JUMPDEST PUSH1 0xA0 DUP2 ADD SWAP1 DUP2 LT PUSH1 0x1 PUSH1 0x1 PUSH1 0x40 SHL SUB DUP3 GT OR PUSH2 0xD98 JUMPI PUSH1 0x40 MSTORE JUMP JUMPDEST PUSH1 0x40 DUP2 ADD SWAP1 DUP2 LT PUSH1 0x1 PUSH1 0x1 PUSH1 0x40 SHL SUB DUP3 GT OR PUSH2 0xD98 JUMPI PUSH1 0x40 MSTORE JUMP JUMPDEST PUSH1 0x20 DUP2 ADD SWAP1 DUP2 LT PUSH1 0x1 PUSH1 0x1 PUSH1 0x40 SHL SUB DUP3 GT OR PUSH2 0xD98 JUMPI PUSH1 0x40 MSTORE JUMP JUMPDEST SWAP1 PUSH1 0x1F DUP1 NOT SWAP2 ADD AND DUP2 ADD SWAP1 DUP2 LT PUSH1 0x1 PUSH1 0x1 PUSH1 0x40 SHL SUB DUP3 GT OR PUSH2 0xD98 JUMPI PUSH1 0x40 MSTORE JUMP JUMPDEST SWAP1 PUSH1 0x40 MLOAD SWAP2 DUP3 PUSH1 0x0 DUP3 SLOAD PUSH2 0x1CC8 DUP2 PUSH2 0x1C09 JUMP JUMPDEST SWAP1 DUP2 DUP5 MSTORE PUSH1 0x20 SWAP5 PUSH1 0x1 SWAP2 PUSH1 0x1 DUP2 AND SWAP1 DUP2 PUSH1 0x0 EQ PUSH2 0x1D38 JUMPI POP PUSH1 0x1 EQ PUSH2 0x1CF9 JUMPI JUMPDEST POP POP POP PUSH2 0x1CF7 SWAP3 POP SUB DUP4 PUSH2 0x1C94 JUMP JUMPDEST JUMP JUMPDEST PUSH1 0x0 SWAP1 DUP2 MSTORE DUP6 DUP2 KECCAK256 SWAP6 SWAP4 POP SWAP2 SWAP1 JUMPDEST DUP2 DUP4 LT PUSH2 0x1D20 JUMPI POP POP PUSH2 0x1CF7 SWAP4 POP DUP3 ADD ADD CODESIZE DUP1 DUP1 PUSH2 0x1CE8 JUMP JUMPDEST DUP6 SLOAD DUP9 DUP5 ADD DUP6 ADD MSTORE SWAP5 DUP6 ADD SWAP5 DUP8 SWAP5 POP SWAP2 DUP4 ADD SWAP2 PUSH2 0x1D07 JUMP JUMPDEST SWAP3 POP POP POP PUSH2 0x1CF7 SWAP5 SWAP3 POP PUSH1 0xFF NOT AND DUP3 DUP5 ADD MSTORE ISZERO ISZERO PUSH1 0x5 SHL DUP3 ADD ADD CODESIZE DUP1 DUP1 PUSH2 0x1CE8 JUMP JUMPDEST SWAP1 PUSH1 0x40 PUSH1 0x3 NOT DUP4 ADD SLT PUSH2 0x265 JUMPI PUSH1 0x4 CALLDATALOAD SWAP2 PUSH1 0x24 CALLDATALOAD SWAP1 PUSH1 0x1 PUSH1 0x1 PUSH1 0x40 SHL SUB DUP3 GT PUSH2 0x265 JUMPI PUSH2 0x1D89 SWAP2 PUSH1 0x4 ADD PUSH2 0x1BDC JUMP JUMPDEST SWAP1 SWAP2 JUMP JUMPDEST PUSH1 0x1 PUSH1 0x1 PUSH1 0x40 SHL SUB DUP2 GT PUSH2 0xD98 JUMPI PUSH1 0x1F ADD PUSH1 0x1F NOT AND PUSH1 0x20 ADD SWAP1 JUMP JUMPDEST SWAP3 SWAP2 SWAP3 PUSH2 0x1DB4 DUP3 PUSH2 0x1D8D JUMP JUMPDEST SWAP2 PUSH2 0x1DC2 PUSH1 0x40 MLOAD SWAP4 DUP5 PUSH2 0x1C94 JUMP JUMPDEST DUP3 SWAP5 DUP2 DUP5 MSTORE DUP2 DUP4 ADD GT PUSH2 0x265 JUMPI DUP3 DUP2 PUSH1 0x20 SWAP4 DUP5 PUSH1 0x0 SWAP7 ADD CALLDATACOPY ADD ADD MSTORE JUMP JUMPDEST PUSH1 0x1 PUSH1 0x1 PUSH1 0xA0 SHL SUB SWAP2 DUP3 AND SWAP3 SWAP1 SWAP2 DUP4 ISZERO PUSH2 0x1F68 JUMPI PUSH1 0x0 SWAP3 DUP3 DUP5 MSTORE DUP3 PUSH1 0x20 SWAP6 PUSH1 0x2 DUP8 MSTORE PUSH1 0x40 SWAP7 DUP5 DUP9 DUP9 KECCAK256 SLOAD AND SWAP7 DUP8 SWAP2 CALLER ISZERO ISZERO DUP1 PUSH2 0x1ECF JUMPI JUMPDEST POP SWAP1 PUSH1 0x2 PUSH32 0xDDF252AD1BE2C89B69C2B068FC378DAA952BA7F163C4A11628F55A4DF523B3EF SWAP3 DUP5 PUSH2 0x1E9C JUMPI JUMPDEST DUP6 DUP4 MSTORE PUSH1 0x3 DUP2 MSTORE DUP12 DUP4 KECCAK256 DUP1 SLOAD PUSH1 0x1 ADD SWAP1 SSTORE DUP7 DUP4 MSTORE MSTORE DUP10 DUP2 KECCAK256 DUP1 SLOAD PUSH1 0x1 PUSH1 0x1 PUSH1 0xA0 SHL SUB NOT AND DUP6 OR SWAP1 SSTORE DUP1 LOG4 AND SWAP3 DUP4 DUP4 SUB PUSH2 0x1E7B JUMPI POP POP POP POP JUMP JUMPDEST PUSH1 0x64 SWAP5 POP MLOAD SWAP3 PUSH4 0x64283D7B PUSH1 0xE0 SHL DUP5 MSTORE PUSH1 0x4 DUP5 ADD MSTORE PUSH1 0x24 DUP4 ADD MSTORE PUSH1 0x44 DUP3 ADD MSTORE REVERT JUMPDEST PUSH1 0x0 DUP8 DUP2 MSTORE PUSH1 0x4 PUSH1 0x20 MSTORE PUSH1 0x40 SWAP1 KECCAK256 DUP1 SLOAD PUSH1 0x1 PUSH1 0x1 PUSH1 0xA0 SHL SUB NOT AND SWAP1 SSTORE DUP5 DUP4 MSTORE PUSH1 0x3 DUP2 MSTORE DUP12 DUP4 KECCAK256 DUP1 SLOAD PUSH1 0x0 NOT ADD SWAP1 SSTORE PUSH2 0x1E42 JUMP JUMPDEST SWAP2 SWAP4 SWAP5 POP SWAP2 POP DUP1 PUSH2 0x1F27 JUMPI JUMPDEST ISZERO PUSH2 0x1EEB JUMPI DUP6 SWAP3 SWAP2 DUP8 SWAP2 CODESIZE PUSH2 0x1E16 JUMP JUMPDEST DUP8 DUP7 DUP9 PUSH2 0x1F08 JUMPI PUSH1 0x24 SWAP2 MLOAD SWAP1 PUSH4 0x7E273289 PUSH1 0xE0 SHL DUP3 MSTORE PUSH1 0x4 DUP3 ADD MSTORE REVERT JUMPDEST SWAP1 MLOAD PUSH4 0x177E802F PUSH1 0xE0 SHL DUP2 MSTORE CALLER PUSH1 0x4 DUP3 ADD MSTORE PUSH1 0x24 DUP2 ADD SWAP2 SWAP1 SWAP2 MSTORE PUSH1 0x44 SWAP1 REVERT JUMPDEST POP CALLER DUP8 EQ DUP1 ISZERO PUSH2 0x1F4C JUMPI JUMPDEST DUP1 PUSH2 0x1EDB JUMPI POP DUP6 DUP3 MSTORE PUSH1 0x4 DUP2 MSTORE CALLER DUP6 DUP10 DUP5 KECCAK256 SLOAD AND EQ PUSH2 0x1EDB JUMP JUMPDEST POP DUP7 DUP3 MSTORE PUSH1 0x5 DUP2 MSTORE DUP8 DUP3 KECCAK256 CALLER DUP4 MSTORE DUP2 MSTORE PUSH1 0xFF DUP9 DUP4 KECCAK256 SLOAD AND PUSH2 0x1F32 JUMP JUMPDEST PUSH1 0x40 MLOAD PUSH4 0x32505749 PUSH1 0xE1 SHL DUP2 MSTORE PUSH1 0x0 PUSH1 0x4 DUP3 ADD MSTORE PUSH1 0x24 SWAP1 REVERT JUMPDEST PUSH1 0x0 NOT DUP2 EQ PUSH2 0xBA7 JUMPI PUSH1 0x1 ADD SWAP1 JUMP JUMPDEST SWAP1 PUSH1 0x1F DUP2 GT PUSH2 0x1F9E JUMPI POP POP POP JUMP JUMPDEST PUSH1 0x0 SWAP2 PUSH1 0x0 MSTORE PUSH1 0x20 PUSH1 0x0 KECCAK256 SWAP1 PUSH1 0x20 PUSH1 0x1F DUP6 ADD PUSH1 0x5 SHR DUP4 ADD SWAP5 LT PUSH2 0x1FDC JUMPI JUMPDEST PUSH1 0x1F ADD PUSH1 0x5 SHR ADD SWAP2 JUMPDEST DUP3 DUP2 LT PUSH2 0x1FD1 JUMPI POP POP POP JUMP JUMPDEST DUP2 DUP2 SSTORE PUSH1 0x1 ADD PUSH2 0x1FC5 JUMP JUMPDEST SWAP1 SWAP3 POP DUP3 SWAP1 PUSH2 0x1FBC JUMP JUMPDEST SWAP1 SWAP2 DUP1 PUSH1 0x40 SWAP4 PUSH1 0x20 DUP5 MSTORE DUP2 PUSH1 0x20 DUP6 ADD MSTORE DUP5 DUP5 ADD CALLDATACOPY PUSH1 0x0 DUP3 DUP3 ADD DUP5 ADD MSTORE PUSH1 0x1F ADD PUSH1 0x1F NOT AND ADD ADD SWAP1 JUMP JUMPDEST DUP1 ISZERO DUP1 ISZERO PUSH2 0x2038 JUMPI JUMPDEST PUSH2 0x2032 JUMPI PUSH1 0x0 MSTORE PUSH1 0xC PUSH1 0x20 MSTORE PUSH1 0xFF PUSH1 0x4 PUSH1 0x40 PUSH1 0x0 KECCAK256 ADD SLOAD AND SWAP1 JUMP JUMPDEST POP PUSH1 0x0 SWAP1 JUMP JUMPDEST POP PUSH1 0xB SLOAD DUP2 LT ISZERO PUSH2 0x2017 JUMP JUMPDEST PUSH1 0x0 DUP2 DUP2 MSTORE PUSH1 0x2 PUSH1 0x20 MSTORE PUSH1 0x40 SWAP1 KECCAK256 SLOAD PUSH1 0x1 PUSH1 0x1 PUSH1 0xA0 SHL SUB AND SWAP1 DUP2 ISZERO PUSH2 0x2067 JUMPI POP SWAP1 JUMP JUMPDEST PUSH1 0x24 SWAP1 PUSH1 0x40 MLOAD SWAP1 PUSH4 0x7E273289 PUSH1 0xE0 SHL DUP3 MSTORE PUSH1 0x4 DUP3 ADD MSTORE REVERT JUMPDEST PUSH1 0xFF PUSH1 0xA SLOAD AND PUSH2 0x208B JUMPI JUMP JUMPDEST PUSH1 0x40 MLOAD PUSH4 0xD93C0665 PUSH1 0xE0 SHL DUP2 MSTORE PUSH1 0x4 SWAP1 REVERT JUMPDEST PUSH1 0x2 PUSH1 0x9 SLOAD EQ PUSH2 0x20AE JUMPI PUSH1 0x2 PUSH1 0x9 SSTORE JUMP JUMPDEST PUSH1 0x40 MLOAD PUSH4 0x3EE5AEB5 PUSH1 0xE0 SHL DUP2 MSTORE PUSH1 0x4 SWAP1 REVERT JUMPDEST PUSH1 0x40 DUP1 MLOAD PUSH2 0x20CD DUP2 PUSH2 0x1C79 JUMP JUMPDEST PUSH1 0x0 DUP1 DUP3 MSTORE SWAP4 PUSH1 0x1 PUSH1 0x1 PUSH1 0xA0 SHL SUB DUP5 DUP2 AND SWAP5 SWAP1 SWAP3 SWAP1 DUP6 ISZERO PUSH2 0x22D6 JUMPI DUP3 DUP8 MSTORE PUSH1 0x20 SWAP4 PUSH1 0x2 DUP6 MSTORE DUP6 DUP9 KECCAK256 SLOAD AND DUP4 DUP8 DUP3 ISZERO ISZERO SWAP3 DUP4 PUSH2 0x22A3 JUMPI JUMPDEST DUP2 DUP12 MSTORE PUSH1 0x3 DUP9 MSTORE DUP9 DUP12 KECCAK256 DUP1 SLOAD PUSH1 0x1 ADD SWAP1 SSTORE DUP3 DUP12 MSTORE PUSH1 0x2 DUP9 MSTORE DUP9 DUP12 KECCAK256 DUP1 SLOAD PUSH1 0x1 PUSH1 0x1 PUSH1 0xA0 SHL SUB NOT AND DUP4 OR SWAP1 SSTORE PUSH32 0xDDF252AD1BE2C89B69C2B068FC378DAA952BA7F163C4A11628F55A4DF523B3EF DUP12 DUP1 LOG4 PUSH2 0x228B JUMPI EXTCODESIZE PUSH2 0x2164 JUMPI JUMPDEST POP POP POP POP POP POP JUMP JUMPDEST DUP3 PUSH2 0x21A2 SWAP2 DUP6 SWAP7 SWAP8 SWAP9 SWAP5 SWAP6 MLOAD DUP1 SWAP4 DUP2 SWAP3 PUSH4 0xA85BD01 PUSH1 0xE1 SHL SWAP7 DUP8 DUP5 MSTORE CALLER PUSH1 0x4 DUP6 ADD MSTORE DUP13 PUSH1 0x24 DUP6 ADD MSTORE PUSH1 0x44 DUP5 ADD MSTORE PUSH1 0x80 PUSH1 0x64 DUP5 ADD MSTORE PUSH1 0x84 DUP4 ADD SWAP1 PUSH2 0x1B25 JUMP JUMPDEST SUB DUP2 DUP11 DUP11 GAS CALL DUP8 SWAP2 DUP2 PUSH2 0x2247 JUMPI JUMPDEST POP PUSH2 0x2210 JUMPI POP POP POP RETURNDATASIZE PUSH1 0x0 EQ PUSH2 0x2207 JUMPI RETURNDATASIZE PUSH2 0x21CA DUP2 PUSH2 0x1D8D JUMP JUMPDEST SWAP1 PUSH2 0x21D7 DUP5 MLOAD SWAP3 DUP4 PUSH2 0x1C94 JUMP JUMPDEST DUP2 MSTORE DUP1 SWAP5 DUP3 RETURNDATASIZE SWAP3 ADD RETURNDATACOPY JUMPDEST DUP4 MLOAD SWAP4 DUP5 PUSH2 0x2201 JUMPI DUP3 MLOAD PUSH4 0x32505749 PUSH1 0xE1 SHL DUP2 MSTORE PUSH1 0x4 DUP2 ADD DUP6 SWAP1 MSTORE PUSH1 0x24 SWAP1 REVERT JUMPDEST DUP5 SWAP3 POP ADD REVERT JUMPDEST PUSH1 0x60 SWAP4 POP PUSH2 0x21E1 JUMP JUMPDEST SWAP2 SWAP6 POP SWAP2 POP PUSH4 0xFFFFFFFF PUSH1 0xE0 SHL AND SUB PUSH2 0x2230 JUMPI POP POP CODESIZE DUP1 DUP1 DUP1 DUP1 DUP1 PUSH2 0x215C JUMP JUMPDEST PUSH1 0x24 SWAP3 POP MLOAD SWAP1 PUSH4 0x32505749 PUSH1 0xE1 SHL DUP3 MSTORE PUSH1 0x4 DUP3 ADD MSTORE REVERT JUMPDEST SWAP1 SWAP2 POP DUP5 DUP2 DUP2 RETURNDATASIZE DUP4 GT PUSH2 0x2284 JUMPI JUMPDEST PUSH2 0x225F DUP2 DUP4 PUSH2 0x1C94 JUMP JUMPDEST DUP2 ADD SUB SLT PUSH2 0x2280 JUMPI MLOAD PUSH1 0x1 PUSH1 0x1 PUSH1 0xE0 SHL SUB NOT DUP2 AND DUP2 SUB PUSH2 0x2280 JUMPI SWAP1 CODESIZE PUSH2 0x21B0 JUMP JUMPDEST DUP8 DUP1 REVERT JUMPDEST POP RETURNDATASIZE PUSH2 0x2255 JUMP JUMPDEST DUP5 MLOAD PUSH4 0x39E35637 PUSH1 0xE1 SHL DUP2 MSTORE PUSH1 0x4 DUP2 ADD DUP9 SWAP1 MSTORE PUSH1 0x24 SWAP1 REVERT JUMPDEST PUSH1 0x0 DUP4 DUP2 MSTORE PUSH1 0x4 PUSH1 0x20 MSTORE PUSH1 0x40 SWAP1 KECCAK256 DUP1 SLOAD PUSH1 0x1 PUSH1 0x1 PUSH1 0xA0 SHL SUB NOT AND SWAP1 SSTORE DUP1 DUP12 MSTORE PUSH1 0x3 DUP9 MSTORE DUP9 DUP12 KECCAK256 DUP1 SLOAD PUSH1 0x0 NOT ADD SWAP1 SSTORE PUSH2 0x2103 JUMP JUMPDEST DUP5 MLOAD PUSH4 0x32505749 PUSH1 0xE1 SHL DUP2 MSTORE PUSH1 0x4 DUP2 ADD DUP9 SWAP1 MSTORE PUSH1 0x24 SWAP1 REVERT JUMPDEST SWAP2 SWAP1 SWAP2 PUSH1 0x0 SWAP1 DUP1 DUP3 MSTORE PUSH1 0x20 SWAP2 PUSH1 0x6 DUP4 MSTORE PUSH1 0x40 DUP2 KECCAK256 SWAP1 DUP6 MLOAD SWAP6 PUSH1 0x1 PUSH1 0x1 PUSH1 0x40 SHL SUB DUP8 GT PUSH2 0x2414 JUMPI PUSH2 0x2328 DUP8 PUSH2 0x2322 DUP6 SLOAD PUSH2 0x1C09 JUMP JUMPDEST DUP6 PUSH2 0x1F90 JUMP JUMPDEST DUP5 SWAP2 PUSH1 0x1F DUP9 GT PUSH1 0x1 EQ PUSH2 0x2390 JUMPI SWAP7 PUSH2 0x2379 SWAP3 DUP2 SWAP3 PUSH32 0xF8E1A15ABA9398E019F0B49DF1A4FDE98EE17AE345CB5F6B5E2C27F5033E8CE7 SWAP9 SWAP10 SWAP3 PUSH2 0x2385 JUMPI POP POP DUP2 PUSH1 0x1 SHL SWAP2 PUSH1 0x0 NOT SWAP1 PUSH1 0x3 SHL SHR NOT AND OR SWAP1 JUMP JUMPDEST SWAP1 SSTORE JUMPDEST PUSH1 0x40 MLOAD SWAP1 DUP2 MSTORE LOG1 JUMP JUMPDEST ADD MLOAD SWAP1 POP CODESIZE DUP1 PUSH2 0x138B JUMP JUMPDEST SWAP2 SWAP1 PUSH1 0x1F NOT DUP9 AND DUP5 DUP5 MSTORE DUP7 DUP5 KECCAK256 SWAP4 JUMPDEST DUP2 DUP2 LT PUSH2 0x23FD JUMPI POP SWAP2 PUSH1 0x1 SWAP4 SWAP2 DUP10 PUSH32 0xF8E1A15ABA9398E019F0B49DF1A4FDE98EE17AE345CB5F6B5E2C27F5033E8CE7 SWAP10 SWAP11 SWAP5 LT PUSH2 0x23E4 JUMPI JUMPDEST POP POP POP DUP2 SHL ADD SWAP1 SSTORE PUSH2 0x237C JUMP JUMPDEST ADD MLOAD PUSH1 0x0 NOT PUSH1 0xF8 DUP5 PUSH1 0x3 SHL AND SHR NOT AND SWAP1 SSTORE CODESIZE DUP1 DUP1 PUSH2 0x23D7 JUMP JUMPDEST SWAP3 SWAP4 DUP8 PUSH1 0x1 DUP2 SWAP3 DUP8 DUP7 ADD MLOAD DUP2 SSTORE ADD SWAP6 ADD SWAP4 ADD PUSH2 0x239F JUMP JUMPDEST PUSH4 0x4E487B71 PUSH1 0xE0 SHL DUP3 MSTORE PUSH1 0x41 PUSH1 0x4 MSTORE PUSH1 0x24 DUP3 REVERT JUMPDEST PUSH1 0x7 SLOAD PUSH1 0x1 PUSH1 0x1 PUSH1 0xA0 SHL SUB AND CALLER SUB PUSH2 0x865 JUMPI JUMP JUMPDEST SWAP1 SWAP4 SWAP2 SWAP3 DUP4 EXTCODESIZE PUSH2 0x244E JUMPI JUMPDEST POP POP POP POP POP JUMP JUMPDEST PUSH1 0x40 MLOAD PUSH4 0xA85BD01 PUSH1 0xE1 SHL DUP1 DUP3 MSTORE PUSH1 0x1 PUSH1 0x1 PUSH1 0xA0 SHL SUB SWAP4 DUP5 AND PUSH1 0x4 DUP4 ADD MSTORE SWAP6 DUP4 AND PUSH1 0x24 DUP3 ADD MSTORE PUSH1 0x44 DUP2 ADD SWAP2 SWAP1 SWAP2 MSTORE PUSH1 0x80 PUSH1 0x64 DUP3 ADD MSTORE SWAP5 SWAP3 AND SWAP3 PUSH1 0x20 SWAP3 SWAP2 DUP6 SWAP1 PUSH2 0x249B SWAP1 PUSH1 0x84 DUP4 ADD SWAP1 PUSH2 0x1B25 JUMP JUMPDEST SUB SWAP5 DUP4 DUP2 PUSH1 0x0 SWAP8 DUP2 DUP10 DUP10 GAS CALL DUP7 SWAP2 DUP2 PUSH2 0x2546 JUMPI JUMPDEST POP PUSH2 0x2510 JUMPI POP POP POP RETURNDATASIZE PUSH1 0x0 EQ PUSH2 0x2507 JUMPI RETURNDATASIZE PUSH2 0x24C9 DUP2 PUSH2 0x1D8D JUMP JUMPDEST SWAP1 PUSH2 0x24D7 PUSH1 0x40 MLOAD SWAP3 DUP4 PUSH2 0x1C94 JUMP JUMPDEST DUP2 MSTORE DUP1 SWAP4 DUP3 RETURNDATASIZE SWAP3 ADD RETURNDATACOPY JUMPDEST DUP3 MLOAD SWAP3 DUP4 PUSH2 0x2502 JUMPI PUSH1 0x40 MLOAD PUSH4 0x32505749 PUSH1 0xE1 SHL DUP2 MSTORE PUSH1 0x4 DUP2 ADD DUP5 SWAP1 MSTORE PUSH1 0x24 SWAP1 REVERT JUMPDEST ADD SWAP1 POP REVERT JUMPDEST PUSH1 0x60 SWAP3 POP PUSH2 0x24E1 JUMP JUMPDEST SWAP2 SWAP5 POP SWAP2 POP PUSH4 0xFFFFFFFF PUSH1 0xE0 SHL AND SUB PUSH2 0x252E JUMPI POP CODESIZE DUP1 DUP1 DUP1 DUP1 PUSH2 0x2447 JUMP JUMPDEST PUSH1 0x24 SWAP1 PUSH1 0x40 MLOAD SWAP1 PUSH4 0x32505749 PUSH1 0xE1 SHL DUP3 MSTORE PUSH1 0x4 DUP3 ADD MSTORE REVERT JUMPDEST SWAP1 SWAP2 POP DUP5 DUP2 DUP2 RETURNDATASIZE DUP4 GT PUSH2 0x2583 JUMPI JUMPDEST PUSH2 0x255E DUP2 DUP4 PUSH2 0x1C94 JUMP JUMPDEST DUP2 ADD SUB SLT PUSH2 0x257F JUMPI MLOAD PUSH1 0x1 PUSH1 0x1 PUSH1 0xE0 SHL SUB NOT DUP2 AND DUP2 SUB PUSH2 0x257F JUMPI SWAP1 CODESIZE PUSH2 0x24AF JUMP JUMPDEST DUP7 DUP1 REVERT JUMPDEST POP RETURNDATASIZE PUSH2 0x2554 JUMP INVALID PUSH11 0x3A0BEB54691369CFA3D9CC 0xBF 0xEE PUSH27 0xD49DCFEB928219B0C2EAB1E9261488A762A2646970667358221220 0xD3 0xB8 PUSH24 0x3A1BA319A67CE5C4F46D145458A85769D77F9906C40A972B 0xDF PUSH29 0xCEEBBA64736F6C63430008180033000000000000000000000000000000 "},"methodIdentifiers":{"MAX_ENDPOINT_LENGTH()":"c85d3eb0","MAX_URI_LENGTH()":"aab5a877","TIMELOCK_DELAY()":"5ba1c1a9","acceptOwnership()":"79ba5097","agents(uint256)":"513856c8","approve(address,uint256)":"095ea7b3","balanceOf(address)":"70a08231","cancelWalletChange(uint256)":"f96560b4","deactivate(uint256)":"916b9bef","executeWalletChange(uint256)":"6ca7c098","getAgent(uint256)":"2de5aaf7","getAgentByModel(uint256)":"d58e0c9e","getApproved(uint256)":"081812fc","getEndpoint(uint256)":"937bbc4a","getPaymentWallet(uint256)":"dbd7e949","isApprovedForAll(address,address)":"e985e9c5","isValidAgent(uint256)":"4afc374c","marketplace()":"abc8c7af","modelToAgent(uint256)":"173e79bb","name()":"06fdde03","nextAgentId()":"30efc498","owner()":"8da5cb5b","ownerOf(uint256)":"6352211e","pause()":"8456cb59","paused()":"5c975abb","pendingOwner()":"e30c3978","pendingWalletChanges(uint256)":"c890c380","reactivate(uint256)":"09df30ec","registerAgent(uint256,address,string,string)":"251f3b7e","registerAgentFor(address,uint256,address,string,string)":"37a1b719","renounceOwnership()":"715018a6","requestWalletChange(uint256,address)":"6bb24401","safeTransferFrom(address,address,uint256)":"42842e0e","safeTransferFrom(address,address,uint256,bytes)":"b88d4fde","setApprovalForAll(address,bool)":"a22cb465","setMarketplace(address)":"73ad6c2d","supportsInterface(bytes4)":"01ffc9a7","symbol()":"95d89b41","tokenURI(uint256)":"c87b56dd","transferFrom(address,address,uint256)":"23b872dd","transferOwnership(address)":"f2fde38b","unpause()":"3f4ba83a","updateAgentFor(uint256,string,address)":"3bda90a3","updateEndpoint(uint256,string)":"54fec772","updateMetadata(uint256,string)":"53c8388e"}}}}}