{"contracts/LicenseNFT.sol":{"LicenseNFT":{"abi":[{"inputs":[{"internalType":"address","name":"marketplace_","type":"address"}],"stateMutability":"nonpayable","type":"constructor"},{"inputs":[{"internalType":"address","name":"sender","type":"address"},{"internalType":"uint256","name":"tokenId","type":"uint256"},{"internalType":"address","name":"owner","type":"address"}],"name":"ERC721IncorrectOwner","type":"error"},{"inputs":[{"internalType":"address","name":"operator","type":"address"},{"internalType":"uint256","name":"tokenId","type":"uint256"}],"name":"ERC721InsufficientApproval","type":"error"},{"inputs":[{"internalType":"address","name":"approver","type":"address"}],"name":"ERC721InvalidApprover","type":"error"},{"inputs":[{"internalType":"address","name":"operator","type":"address"}],"name":"ERC721InvalidOperator","type":"error"},{"inputs":[{"internalType":"address","name":"owner","type":"address"}],"name":"ERC721InvalidOwner","type":"error"},{"inputs":[{"internalType":"address","name":"receiver","type":"address"}],"name":"ERC721InvalidReceiver","type":"error"},{"inputs":[{"internalType":"address","name":"sender","type":"address"}],"name":"ERC721InvalidSender","type":"error"},{"inputs":[{"internalType":"uint256","name":"tokenId","type":"uint256"}],"name":"ERC721NonexistentToken","type":"error"},{"inputs":[{"internalType":"address","name":"owner","type":"address"}],"name":"OwnableInvalidOwner","type":"error"},{"inputs":[{"internalType":"address","name":"account","type":"address"}],"name":"OwnableUnauthorizedAccount","type":"error"},{"anonymous":false,"inputs":[{"indexed":true,"internalType":"address","name":"owner","type":"address"},{"indexed":true,"internalType":"address","name":"approved","type":"address"},{"indexed":true,"internalType":"uint256","name":"tokenId","type":"uint256"}],"name":"Approval","type":"event"},{"anonymous":false,"inputs":[{"indexed":true,"internalType":"address","name":"owner","type":"address"},{"indexed":true,"internalType":"address","name":"operator","type":"address"},{"indexed":false,"internalType":"bool","name":"approved","type":"bool"}],"name":"ApprovalForAll","type":"event"},{"anonymous":false,"inputs":[{"indexed":true,"internalType":"address","name":"previousOwner","type":"address"},{"indexed":true,"internalType":"address","name":"newOwner","type":"address"}],"name":"OwnershipTransferred","type":"event"},{"anonymous":false,"inputs":[{"indexed":true,"internalType":"address","name":"from","type":"address"},{"indexed":true,"internalType":"address","name":"to","type":"address"},{"indexed":true,"internalType":"uint256","name":"tokenId","type":"uint256"}],"name":"Transfer","type":"event"},{"inputs":[{"internalType":"address","name":"to","type":"address"},{"internalType":"uint256","name":"tokenId","type":"uint256"}],"name":"approve","outputs":[],"stateMutability":"nonpayable","type":"function"},{"inputs":[{"internalType":"address","name":"owner","type":"address"}],"name":"balanceOf","outputs":[{"internalType":"uint256","name":"","type":"uint256"}],"stateMutability":"view","type":"function"},{"inputs":[{"internalType":"uint256","name":"tokenId","type":"uint256"}],"name":"getApproved","outputs":[{"internalType":"address","name":"","type":"address"}],"stateMutability":"view","type":"function"},{"inputs":[{"internalType":"uint256","name":"tokenId","type":"uint256"}],"name":"getLicense","outputs":[{"components":[{"internalType":"uint256","name":"modelId","type":"uint256"},{"internalType":"uint8","name":"licenseKind","type":"uint8"},{"internalType":"uint8","name":"rights","type":"uint8"},{"internalType":"uint64","name":"expiresAt","type":"uint64"},{"internalType":"bool","name":"transferable","type":"bool"},{"internalType":"bytes32","name":"termsHash","type":"bytes32"},{"internalType":"uint16","name":"version","type":"uint16"}],"internalType":"struct LicenseNFT.LicenseData","name":"","type":"tuple"}],"stateMutability":"view","type":"function"},{"inputs":[{"internalType":"address","name":"owner","type":"address"},{"internalType":"address","name":"operator","type":"address"}],"name":"isApprovedForAll","outputs":[{"internalType":"bool","name":"","type":"bool"}],"stateMutability":"view","type":"function"},{"inputs":[],"name":"marketplace","outputs":[{"internalType":"address","name":"","type":"address"}],"stateMutability":"view","type":"function"},{"inputs":[{"internalType":"address","name":"to","type":"address"},{"components":[{"internalType":"uint256","name":"modelId","type":"uint256"},{"internalType":"uint8","name":"licenseKind","type":"uint8"},{"internalType":"uint8","name":"rights","type":"uint8"},{"internalType":"uint64","name":"expiresAt","type":"uint64"},{"internalType":"bool","name":"transferable","type":"bool"},{"internalType":"bytes32","name":"termsHash","type":"bytes32"},{"internalType":"uint16","name":"version","type":"uint16"}],"internalType":"struct LicenseNFT.LicenseData","name":"d","type":"tuple"}],"name":"mint","outputs":[{"internalType":"uint256","name":"tokenId","type":"uint256"}],"stateMutability":"nonpayable","type":"function"},{"inputs":[{"internalType":"address","name":"to","type":"address"},{"components":[{"internalType":"uint256","name":"modelId","type":"uint256"},{"internalType":"uint8","name":"licenseKind","type":"uint8"},{"internalType":"uint8","name":"rights","type":"uint8"},{"internalType":"uint64","name":"expiresAt","type":"uint64"},{"internalType":"bool","name":"transferable","type":"bool"},{"internalType":"bytes32","name":"termsHash","type":"bytes32"},{"internalType":"uint16","name":"version","type":"uint16"}],"internalType":"struct LicenseNFT.LicenseData","name":"d","type":"tuple"},{"internalType":"string","name":"uri","type":"string"}],"name":"mintWithURI","outputs":[{"internalType":"uint256","name":"tokenId","type":"uint256"}],"stateMutability":"nonpayable","type":"function"},{"inputs":[],"name":"name","outputs":[{"internalType":"string","name":"","type":"string"}],"stateMutability":"view","type":"function"},{"inputs":[],"name":"owner","outputs":[{"internalType":"address","name":"","type":"address"}],"stateMutability":"view","type":"function"},{"inputs":[{"internalType":"uint256","name":"tokenId","type":"uint256"}],"name":"ownerOf","outputs":[{"internalType":"address","name":"","type":"address"}],"stateMutability":"view","type":"function"},{"inputs":[],"name":"renounceOwnership","outputs":[],"stateMutability":"nonpayable","type":"function"},{"inputs":[{"internalType":"address","name":"from","type":"address"},{"internalType":"address","name":"to","type":"address"},{"internalType":"uint256","name":"tokenId","type":"uint256"}],"name":"safeTransferFrom","outputs":[],"stateMutability":"nonpayable","type":"function"},{"inputs":[{"internalType":"address","name":"from","type":"address"},{"internalType":"address","name":"to","type":"address"},{"internalType":"uint256","name":"tokenId","type":"uint256"},{"internalType":"bytes","name":"data","type":"bytes"}],"name":"safeTransferFrom","outputs":[],"stateMutability":"nonpayable","type":"function"},{"inputs":[{"internalType":"address","name":"operator","type":"address"},{"internalType":"bool","name":"approved","type":"bool"}],"name":"setApprovalForAll","outputs":[],"stateMutability":"nonpayable","type":"function"},{"inputs":[{"internalType":"string","name":"newBaseURI","type":"string"}],"name":"setBaseURI","outputs":[],"stateMutability":"nonpayable","type":"function"},{"inputs":[{"internalType":"address","name":"m","type":"address"}],"name":"setMarketplace","outputs":[],"stateMutability":"nonpayable","type":"function"},{"inputs":[{"internalType":"uint256","name":"tokenId","type":"uint256"},{"internalType":"string","name":"uri","type":"string"}],"name":"setTokenURI","outputs":[],"stateMutability":"nonpayable","type":"function"},{"inputs":[{"internalType":"bytes4","name":"interfaceId","type":"bytes4"}],"name":"supportsInterface","outputs":[{"internalType":"bool","name":"","type":"bool"}],"stateMutability":"view","type":"function"},{"inputs":[],"name":"symbol","outputs":[{"internalType":"string","name":"","type":"string"}],"stateMutability":"view","type":"function"},{"inputs":[{"internalType":"uint256","name":"tokenId","type":"uint256"}],"name":"tokenURI","outputs":[{"internalType":"string","name":"","type":"string"}],"stateMutability":"view","type":"function"},{"inputs":[],"name":"totalSupply","outputs":[{"internalType":"uint256","name":"","type":"uint256"}],"stateMutability":"view","type":"function"},{"inputs":[{"internalType":"address","name":"from","type":"address"},{"internalType":"address","name":"to","type":"address"},{"internalType":"uint256","name":"tokenId","type":"uint256"}],"name":"transferFrom","outputs":[],"stateMutability":"nonpayable","type":"function"},{"inputs":[{"internalType":"address","name":"newOwner","type":"address"}],"name":"transferOwnership","outputs":[],"stateMutability":"nonpayable","type":"function"},{"inputs":[{"internalType":"uint256","name":"tokenId","type":"uint256"},{"internalType":"uint64","name":"newExpiresAt","type":"uint64"}],"name":"updateExpires","outputs":[],"stateMutability":"nonpayable","type":"function"}],"evm":{"bytecode":{"linkReferences":{},"object":"608034620003d557601f906001600160401b0390601f19906200215c388190038581018416830185811184821017620003bf57839282916040528339602092839181010312620003d557516001600160a01b03948582169491859003620003d5576200006a620003da565b92601584527f4d61726b6574706c6163654149204c6963656e73650000000000000000000000818501526200009e620003da565b9060078252664d5041494c494360c81b81830152845195848711620003bf576000968754966001978881811c91168015620003b4575b85821014620003a0579081878493116200034d575b508490878311600114620002ec578a92620002e0575b5050600019600383901b1c191690871b1787555b8251948511620002cc5785548681811c91168015620002c1575b83821014620002ad5790818587969594931162000254575b5081938511600114620001ef5750508592620001e3575b5050600019600383901b1c191690821b1790555b3315620001cb5760065460018060a01b03199133838316176006557f8be0079c531659141344cd1fd0a4f28419497f9722a3daafe3b4186f6b6457e0604051953393169180a36007541617600755611d619081620003fb8239f35b60249060405190631e4fbdf760e01b82526004820152fd5b0151905038806200015c565b869593929193168588528388209388905b8282106200023a575050841162000220575b505050811b01905562000170565b015160001960f88460031b161c1916905538808062000212565b848401518655889790950194938401939081019062000200565b9091929394508688528288208580880160051c820192858910620002a3575b9188978a9297969594930160051c01915b8281106200029457505062000145565b8a815588975089910162000284565b9250819262000273565b634e487b7160e01b88526022600452602488fd5b90607f16906200012d565b634e487b7160e01b87526041600452602487fd5b015190503880620000ff565b90848a9416918b8052868c20928c5b888282106200033657505084116200031c575b505050811b01875562000113565b015160001960f88460031b161c191690553880806200030e565b8385015186558d97909501949384019301620002fb565b909150898052848a208780850160051c82019287861062000396575b918b91869594930160051c01915b82811062000387575050620000e9565b8c81558594508b910162000377565b9250819262000369565b634e487b7160e01b8a52602260045260248afd5b90607f1690620000d4565b634e487b7160e01b600052604160045260246000fd5b600080fd5b60408051919082016001600160401b03811183821017620003bf5760405256fe6080604081815260048036101561001557600080fd5b600092833560e01c90816301ffc9a71461100f5750806306fdde0314610f5e578063081812fc14610f23578063095ea7b314610e47578063162094c414610cc557806318160ddd14610ca657806323b872dd14610c8e57806342842e0e14610c5f57806355f804b314610ad85780636352211e14610aa757806370a0823114610a52578063715018a6146109f557806373ad6c2d146109b5578063849b1b7e146108b25780638da5cb5b1461088957806395d89b411461079e578063a22cb465146106fd578063abc8c7af146106d4578063b03fbfbb14610482578063b2dd121214610371578063b88d4fde146102e0578063c87b56dd146102a5578063e985e9c514610253578063f2fde38b146101c95763fe5eb7541461013657600080fd5b346101c557816003193601126101c55735602435906001600160401b03821682036101c1576101be9260019161018e838060a01b0361017a816007541633146112a1565b8288526002602052838820541615156112e0565b855260096020528420019069ffffffffffffffff000082549160101b169069ffffffffffffffff00001916179055565b80f35b8380fd5b8280fd5b50346101c55760203660031901126101c5576101e36110c3565b906101ec61191f565b6001600160a01b0391821692831561023d575050600654826001600160601b0360a01b821617600655167f8be0079c531659141344cd1fd0a4f28419497f9722a3daafe3b4186f6b6457e08380a380f35b51631e4fbdf760e01b8152908101849052602490fd5b5050346102a157806003193601126102a15760ff816020936102736110c3565b61027b6110de565b6001600160a01b0391821683526005875283832091168252855220549151911615158152f35b5080fd5b5091346102dd5760203660031901126102dd57506102c66102d99235611544565b905191829160208352602083019061109e565b0390f35b80fd5b5090346101c55760803660031901126101c5576102fb6110c3565b6103036110de565b6044359185606435956001600160401b0387116102a157366023880112156102a1578601359561033e6103358861124c565b965196876111a2565b86865236602488830101116102a157866101be97602460209301838901378601015261036b838383611319565b33611bdd565b5090346101c557602091826003193601126101c157908060e094600393358160c0845161039d81611156565b828152828982015282868201528260608201528260808201528260a08201520152808252600286526103db60018060a01b03848420541615156112e0565b815260098552208151916103ee83611156565b8154948584526001830154918185019060ff8416825260ff818701818660081c1681526001600160401b03948260608a0195878960101c1687528160808c019960501c161515895260c060028b01549a60a08d019b8c5261ffff9d8e910154169b019a8b5285519c8d525116908b01525116908801525116606086015251151560808501525160a0840152511660c0820152f35b5090346101c5576101203660031901126101c55761049e6110c3565b926104a8366111c3565b6001600160401b0391610104358381116102a1576104c990369087016110f4565b9190600160a01b600190036007541633146104e3906112a1565b6008546104ef9061151f565b968760085587835260209860098a52888885209680518855600197888101908d83015160ff16918054928d85015160081b61ff00169061ffff19809516171781558b60608501511661056290829069ffffffffffffffff000082549160101b169069ffffffffffffffff00001916179055565b6080840151151581549060ff60501b9060501b169060ff60501b191617905560a083015160028201556003019160c0015161ffff16908254161790556105a79161194b565b836105b6575b88888851908152f35b878352600b89528683209584116106c157506105d28554611267565b601f811161067b575b5081601f841160011461061c5791839491849394610611575b50501b916000199060031b1c19161790555b3880808080806105ad565b0135925038806105f4565b9183601f1981168785528a8520945b8b88838310610664575050501061064a575b505050811b019055610606565b0135600019600384901b60f8161c1916905538808061063d565b85870135885590960195938401938793500161062b565b858352888320601f850160051c8101918a86106106b7575b601f0160051c019085905b8281106106ac5750506105db565b84815501859061069e565b9091508190610693565b634e487b7160e01b835260419052602482fd5b5050346102a157816003193601126102a15760075490516001600160a01b039091168152602090f35b5090346101c557806003193601126101c5576107176110c3565b906024359182151580930361079a576001600160a01b03169283156107855750338452600560205280842083855260205280842060ff1981541660ff8416179055519081527f17307eab39ab6107e8899845ad3d59bd9653f200f220920489ca2b5937696c3160203392a380f35b836024925191630b61174360e31b8352820152fd5b8480fd5b8284346102dd57806003193601126102dd578151918282600193600154946107c586611267565b9182855260209687600182169182600014610862575050600114610806575b5050506102d992916107f79103856111a2565b5192828493845283019061109e565b9190869350600183527fb10e2d527612073b26eecdfd717e6a320cf44b4afac2b0732d9fcbe2b7fa0cf65b82841061084a57505050820101816107f76102d96107e4565b8054848a018601528895508794909301928101610831565b60ff19168782015293151560051b860190930193508492506107f791506102d990506107e4565b5050346102a157816003193601126102a15760065490516001600160a01b039091168152602090f35b5050346102a1576101003660031901126102a157806109af6020936108d56110c3565b6108de366111c3565b6108f360018060a01b036007541633146112a1565b6108fe60085461151f565b9586938460085584815260098952208151815561ffff60c06003600184019360ff8c870151169480549561ff008c89015160081b16908619809816171781556109756001600160401b03606089015116829069ffffffffffffffff000082549160101b169069ffffffffffffffff00001916179055565b6080870151151581549060ff60501b9060501b169060ff60501b191617905560a0860151600282015501930151169082541617905561194b565b51908152f35b83346102dd5760203660031901126102dd576109cf6110c3565b6109d761191f565b60018060a01b03166001600160601b0360a01b600754161760075580f35b83346102dd57806003193601126102dd57610a0e61191f565b600680546001600160a01b0319811690915581906001600160a01b03167f8be0079c531659141344cd1fd0a4f28419497f9722a3daafe3b4186f6b6457e08280a380f35b5091346102dd5760203660031901126102dd576001600160a01b03610a756110c3565b16928315610a925750806020938392526003845220549051908152f35b91516322718ad960e21b815291820152602490fd5b5091346102dd5760203660031901126102dd5750610ac7602092356118e4565b90516001600160a01b039091168152f35b5082346102dd5760209160206003193601126102a1576001600160401b0381358181116101c157610b0c90369084016110f4565b929091610b1761191f565b8311610c4c5750610b29600a54611267565b601f8111610bed575b508293601f8311600114610b6f5750928293829392610b64575b50508160011b916000199060031b1c191617600a5580f35b013590508380610b4c565b601f198316947fc65a7bb8d6351c1cf70c95a316cc6a92839c986682d98bc35f958f4883f9d2a8929185905b878210610bd5575050836001959610610bbb575b505050811b01600a5580f35b0135600019600384901b60f8161c19169055838080610baf565b80600184968294958701358155019501920190610b9b565b7fc65a7bb8d6351c1cf70c95a316cc6a92839c986682d98bc35f958f4883f9d2a8601f840160051c81019160208510610c42575b601f0160051c01905b818110610c375750610b32565b848155600101610c2a565b9091508190610c21565b634e487b7160e01b845260419052602483fd5b5050346102a1576101be90610c7336611121565b91925192610c8084611187565b85845261036b838383611319565b83346102dd576101be610ca036611121565b91611319565b5050346102a157816003193601126102a1576020906008549051908152f35b509190346102a157806003193601126102a1578235926001600160401b039160243583811161079a57610cfb90369084016110f4565b92909160018060a01b0396610d15886007541633146112a1565b808752610d2e60209860028a52838920541615156112e0565b8652600b87528520938311610e345750610d488354611267565b601f8111610df1575b508394601f8311600114610d8e575093839482939492610d83575b50508160011b916000199060031b1c191617905580f35b013590503880610d6c565b90601f198316958486528286209286905b888210610dd957505083600195969710610dbf575b505050811b01905580f35b0135600019600384901b60f8161c19169055388080610db4565b80600184968294958701358155019501920190610d9f565b838552858520601f840160051c810191878510610e2a575b601f0160051c01905b818110610e1f5750610d51565b858155600101610e12565b9091508190610e09565b634e487b7160e01b855260419052602484fd5b5090346101c557806003193601126101c557610e616110c3565b91602435610e6e816118e4565b33151580610f10575b80610ee7575b610ed1576001600160a01b039485169482918691167f8c5be1e5ebec7d5bd14f71427d1e84f3dd0314c0f7b2291e5b200ac8c7c3b9258880a48452602052822080546001600160a01b031916909117905580f35b835163a9fbf51f60e01b81523381850152602490fd5b506001600160a01b03811686526005602090815284872033885290528386205460ff1615610e7d565b506001600160a01b038116331415610e77565b50346101c55760203660031901126101c557918260209335610f44816118e4565b50825283528190205490516001600160a01b039091168152f35b8284346102dd57806003193601126102dd5781519182828354610f8081611267565b9081845260209560019187600182169182600014610862575050600114610fb4575050506102d992916107f79103856111a2565b91908693508280527f290decd9548b62a8d60345a988386fc84ba6bc95484008f6362f93160ef3e5635b828410610ff757505050820101816107f76102d96107e4565b8054848a018601528895508794909301928101610fde565b925050346101c55760203660031901126101c5573563ffffffff60e01b81168091036101c557602092506380ac58cd60e01b811490811561106a575b8115611059575b5015158152f35b6301ffc9a760e01b14905038611052565b635b5e139f60e01b8114915061104b565b60005b83811061108e5750506000910152565b818101518382015260200161107e565b906020916110b78151809281855285808601910161107b565b601f01601f1916010190565b600435906001600160a01b03821682036110d957565b600080fd5b602435906001600160a01b03821682036110d957565b9181601f840112156110d9578235916001600160401b0383116110d957602083818601950101116110d957565b60609060031901126110d9576001600160a01b039060043582811681036110d9579160243590811681036110d9579060443590565b60e081019081106001600160401b0382111761117157604052565b634e487b7160e01b600052604160045260246000fd5b602081019081106001600160401b0382111761117157604052565b90601f801991011681019081106001600160401b0382111761117157604052565b60e09060231901126110d957604051906111dc82611156565b81602435815260443560ff811681036110d957602082015260643560ff811681036110d95760408201526084356001600160401b03811681036110d957606082015260a43580151581036110d957608082015260c43560a082015260e4359061ffff821682036110d95760c00152565b6001600160401b03811161117157601f01601f191660200190565b90600182811c92168015611297575b602083101461128157565b634e487b7160e01b600052602260045260246000fd5b91607f1691611276565b156112a857565b60405162461bcd60e51b815260206004820152601060248201526f6f6e6c79206d61726b6574706c61636560801b6044820152606490fd5b156112e757565b60405162461bcd60e51b815260206004820152600a6024820152696e6f742065786973747360b01b6044820152606490fd5b6001600160a01b0391821692909183156115065760009282845260209460028652604095868481882054169633151580611476575b5087151580611443575b84825260038452828220805460010190558782526002845282822080546001600160a01b0319168617905582519488908a7fddf252ad1be2c89b69c2b068fc378daa952ba7f163c4a11628f55a4df523b3ef8580a48061143b575b6113ec575b5050505016928383036113cb5750505050565b6064945051926364283d7b60e01b8452600484015260248301526044820152fd5b60098352206001015460501c60ff16156114075786816113b8565b62461bcd60e51b82526004820152601060248201526f6e6f74207472616e7366657261626c6560801b604482015260649150fd5b5060016113b3565b600088815260046020526040902080546001600160a01b0319169055888252600384528282208054600019019055611358565b909150806114c5575b1561148c5787903861134e565b8786886114a9576024915190637e27328960e01b82526004820152fd5b604491519063177e802f60e01b82523360048301526024820152fd5b5033871480156114ea575b8061147f575085815260048252338589832054161461147f565b5086815260058252878120338252825260ff88822054166114d0565b604051633250574960e11b815260006004820152602490fd5b600019811461152e5760010190565b634e487b7160e01b600052601160045260246000fd5b60008181526002602090815260408083205490939192906001600160a01b03161561188857818152600b8352838120845181549391818461158487611267565b9283835260019789898216918260001461186857505060011461182a575b506115af925003826111a2565b805161182157508451600a8054919484866115c985611267565b91828252898201958a85821691826000146118065750506001146117ab575b6115f4925003876111a2565b85511561179357849390817a184f03e93ff9f4daa797ed6e38ed64bf6a1f0100000000000000008181811015611785575b5050600a90896d04ee2d6d415b85acef810000000080831015611779575b5050662386f26fc100008082101561176c575b506305f5e1008082101561175f575b5061271080821015611752575b506064811015611744575b101561173b575b90816021866116ad838d99016116a561169c8261124c565b9a519a8b6111a2565b808a5261124c565b888c019990601f1901368b3750870101905b611705575b50505050906116f6611702959493926116e797519788955180928888019061107b565b8401915180938684019061107b565b010380845201826111a2565b90565b600019019083906f181899199a1a9b1b9c1cb0b131b232b360811b8282061a835304918215611736579190826116bf565b6116c4565b80940193611684565b60646002910496019561167d565b6004910496019538611672565b6008910496019538611665565b6010910496019538611656565b97019690048938611643565b8b9750049050600a38611625565b505050509291505051906117a682611187565b815290565b5050600a8652868887847fc65a7bb8d6351c1cf70c95a316cc6a92839c986682d98bc35f958f4883f9d2a85b8583106117ed5750506115f493508201016115e8565b80919294505483858d0101520191018990848a936117d7565b60ff191688526115f494151560051b84010191506115e89050565b94505050505090565b915050845281868086208787915b85831061184f5750506115af9350820101386115a2565b8091929450548385880101520191018790878593611838565b60ff1916858201526115af95151560051b85010192503891506115a29050565b835162461bcd60e51b815260048101849052602f60248201527f4552433732314d657461646174613a2055524920717565727920666f72206e6f60448201526e3732bc34b9ba32b73a103a37b5b2b760891b6064820152608490fd5b6000818152600260205260409020546001600160a01b0316908115611907575090565b60249060405190637e27328960e01b82526004820152fd5b6006546001600160a01b0316330361193357565b60405163118cdaa760e01b8152336004820152602490fd5b6040805161195881611187565b6000808252936001600160a01b03848116949092908515611bc5578287526020936002855285882054168015159081611b92575b878952600386528689206001815401905584895260028652868920886001600160601b0360a01b82541617905584888851927fddf252ad1be2c89b69c2b068fc378daa952ba7f163c4a11628f55a4df523b3ef8c80a48180611b8a575b611b40575b50611b28573b611a01575b505050505050565b82611a3f918596979894955180938192630a85bd0160e11b968784523360048501528c6024850152604484015260806064840152608483019061109e565b03818a8a5af1879181611ae4575b50611aad575050503d600014611aa4573d611a678161124c565b90611a74845192836111a2565b81528094823d92013e5b83519384611a9e578251633250574960e11b815260048101859052602490fd5b84925001fd5b60609350611a7e565b919550915063ffffffff60e01b1603611acd5750503880808080806119f9565b602492505190633250574960e11b82526004820152fd5b9091508481813d8311611b21575b611afc81836111a2565b81010312611b1d57516001600160e01b031981168103611b1d579038611a4d565b8780fd5b503d611af2565b84516339e3563760e11b815260048101889052602490fd5b6009865260ff6001888b20015460501c166119ee5762461bcd60e51b815260048101869052601060248201526f6e6f74207472616e7366657261626c6560801b6044820152606490fd5b5060016119e9565b600085815260046020526040902080546001600160a01b031916905580895260038652868920805460001901905561198c565b8451633250574960e11b815260048101889052602490fd5b90939192833b611bef575b5050505050565b604051630a85bd0160e11b8082526001600160a01b039384166004830152958316602482015260448101919091526080606482015294921692602092918590611c3c90608483019061109e565b039483816000978189895af1869181611ce7575b50611cb1575050503d600014611ca8573d611c6a8161124c565b90611c7860405192836111a2565b81528093823d92013e5b82519283611ca357604051633250574960e11b815260048101849052602490fd5b019050fd5b60609250611c82565b919450915063ffffffff60e01b1603611ccf57503880808080611be8565b60249060405190633250574960e11b82526004820152fd5b9091508481813d8311611d24575b611cff81836111a2565b81010312611d2057516001600160e01b031981168103611d20579038611c50565b8680fd5b503d611cf556fea26469706673582212205eb1a53bd08cf94efcc5a226a6663d836443b21eca9b093e3c9a1d40a9a2b14364736f6c63430008180033","opcodes":"PUSH1 0x80 CALLVALUE PUSH3 0x3D5 JUMPI PUSH1 0x1F SWAP1 PUSH1 0x1 PUSH1 0x1 PUSH1 0x40 SHL SUB SWAP1 PUSH1 0x1F NOT SWAP1 PUSH3 0x215C CODESIZE DUP2 SWAP1 SUB DUP6 DUP2 ADD DUP5 AND DUP4 ADD DUP6 DUP2 GT DUP5 DUP3 LT OR PUSH3 0x3BF JUMPI DUP4 SWAP3 DUP3 SWAP2 PUSH1 0x40 MSTORE DUP4 CODECOPY PUSH1 0x20 SWAP3 DUP4 SWAP2 DUP2 ADD SUB SLT PUSH3 0x3D5 JUMPI MLOAD PUSH1 0x1 PUSH1 0x1 PUSH1 0xA0 SHL SUB SWAP5 DUP6 DUP3 AND SWAP5 SWAP2 DUP6 SWAP1 SUB PUSH3 0x3D5 JUMPI PUSH3 0x6A PUSH3 0x3DA JUMP JUMPDEST SWAP3 PUSH1 0x15 DUP5 MSTORE PUSH32 0x4D61726B6574706C6163654149204C6963656E73650000000000000000000000 DUP2 DUP6 ADD MSTORE PUSH3 0x9E PUSH3 0x3DA JUMP JUMPDEST SWAP1 PUSH1 0x7 DUP3 MSTORE PUSH7 0x4D5041494C4943 PUSH1 0xC8 SHL DUP2 DUP4 ADD MSTORE DUP5 MLOAD SWAP6 DUP5 DUP8 GT PUSH3 0x3BF JUMPI PUSH1 0x0 SWAP7 DUP8 SLOAD SWAP7 PUSH1 0x1 SWAP8 DUP9 DUP2 DUP2 SHR SWAP2 AND DUP1 ISZERO PUSH3 0x3B4 JUMPI JUMPDEST DUP6 DUP3 LT EQ PUSH3 0x3A0 JUMPI SWAP1 DUP2 DUP8 DUP5 SWAP4 GT PUSH3 0x34D JUMPI JUMPDEST POP DUP5 SWAP1 DUP8 DUP4 GT PUSH1 0x1 EQ PUSH3 0x2EC JUMPI DUP11 SWAP3 PUSH3 0x2E0 JUMPI JUMPDEST POP POP PUSH1 0x0 NOT PUSH1 0x3 DUP4 SWAP1 SHL SHR NOT AND SWAP1 DUP8 SHL OR DUP8 SSTORE JUMPDEST DUP3 MLOAD SWAP5 DUP6 GT PUSH3 0x2CC JUMPI DUP6 SLOAD DUP7 DUP2 DUP2 SHR SWAP2 AND DUP1 ISZERO PUSH3 0x2C1 JUMPI JUMPDEST DUP4 DUP3 LT EQ PUSH3 0x2AD JUMPI SWAP1 DUP2 DUP6 DUP8 SWAP7 SWAP6 SWAP5 SWAP4 GT PUSH3 0x254 JUMPI JUMPDEST POP DUP2 SWAP4 DUP6 GT PUSH1 0x1 EQ PUSH3 0x1EF JUMPI POP POP DUP6 SWAP3 PUSH3 0x1E3 JUMPI JUMPDEST POP POP PUSH1 0x0 NOT PUSH1 0x3 DUP4 SWAP1 SHL SHR NOT AND SWAP1 DUP3 SHL OR SWAP1 SSTORE JUMPDEST CALLER ISZERO PUSH3 0x1CB JUMPI PUSH1 0x6 SLOAD PUSH1 0x1 DUP1 PUSH1 0xA0 SHL SUB NOT SWAP2 CALLER DUP4 DUP4 AND OR PUSH1 0x6 SSTORE PUSH32 0x8BE0079C531659141344CD1FD0A4F28419497F9722A3DAAFE3B4186F6B6457E0 PUSH1 0x40 MLOAD SWAP6 CALLER SWAP4 AND SWAP2 DUP1 LOG3 PUSH1 0x7 SLOAD AND OR PUSH1 0x7 SSTORE PUSH2 0x1D61 SWAP1 DUP2 PUSH3 0x3FB DUP3 CODECOPY RETURN JUMPDEST PUSH1 0x24 SWAP1 PUSH1 0x40 MLOAD SWAP1 PUSH4 0x1E4FBDF7 PUSH1 0xE0 SHL DUP3 MSTORE PUSH1 0x4 DUP3 ADD MSTORE REVERT JUMPDEST ADD MLOAD SWAP1 POP CODESIZE DUP1 PUSH3 0x15C JUMP JUMPDEST DUP7 SWAP6 SWAP4 SWAP3 SWAP2 SWAP4 AND DUP6 DUP9 MSTORE DUP4 DUP9 KECCAK256 SWAP4 DUP9 SWAP1 JUMPDEST DUP3 DUP3 LT PUSH3 0x23A JUMPI POP POP DUP5 GT PUSH3 0x220 JUMPI JUMPDEST POP POP POP DUP2 SHL ADD SWAP1 SSTORE PUSH3 0x170 JUMP JUMPDEST ADD MLOAD PUSH1 0x0 NOT PUSH1 0xF8 DUP5 PUSH1 0x3 SHL AND SHR NOT AND SWAP1 SSTORE CODESIZE DUP1 DUP1 PUSH3 0x212 JUMP JUMPDEST DUP5 DUP5 ADD MLOAD DUP7 SSTORE DUP9 SWAP8 SWAP1 SWAP6 ADD SWAP5 SWAP4 DUP5 ADD SWAP4 SWAP1 DUP2 ADD SWAP1 PUSH3 0x200 JUMP JUMPDEST SWAP1 SWAP2 SWAP3 SWAP4 SWAP5 POP DUP7 DUP9 MSTORE DUP3 DUP9 KECCAK256 DUP6 DUP1 DUP9 ADD PUSH1 0x5 SHR DUP3 ADD SWAP3 DUP6 DUP10 LT PUSH3 0x2A3 JUMPI JUMPDEST SWAP2 DUP9 SWAP8 DUP11 SWAP3 SWAP8 SWAP7 SWAP6 SWAP5 SWAP4 ADD PUSH1 0x5 SHR ADD SWAP2 JUMPDEST DUP3 DUP2 LT PUSH3 0x294 JUMPI POP POP PUSH3 0x145 JUMP JUMPDEST DUP11 DUP2 SSTORE DUP9 SWAP8 POP DUP10 SWAP2 ADD PUSH3 0x284 JUMP JUMPDEST SWAP3 POP DUP2 SWAP3 PUSH3 0x273 JUMP JUMPDEST PUSH4 0x4E487B71 PUSH1 0xE0 SHL DUP9 MSTORE PUSH1 0x22 PUSH1 0x4 MSTORE PUSH1 0x24 DUP9 REVERT JUMPDEST SWAP1 PUSH1 0x7F AND SWAP1 PUSH3 0x12D JUMP JUMPDEST PUSH4 0x4E487B71 PUSH1 0xE0 SHL DUP8 MSTORE PUSH1 0x41 PUSH1 0x4 MSTORE PUSH1 0x24 DUP8 REVERT JUMPDEST ADD MLOAD SWAP1 POP CODESIZE DUP1 PUSH3 0xFF JUMP JUMPDEST SWAP1 DUP5 DUP11 SWAP5 AND SWAP2 DUP12 DUP1 MSTORE DUP7 DUP13 KECCAK256 SWAP3 DUP13 JUMPDEST DUP9 DUP3 DUP3 LT PUSH3 0x336 JUMPI POP POP DUP5 GT PUSH3 0x31C JUMPI JUMPDEST POP POP POP DUP2 SHL ADD DUP8 SSTORE PUSH3 0x113 JUMP JUMPDEST ADD MLOAD PUSH1 0x0 NOT PUSH1 0xF8 DUP5 PUSH1 0x3 SHL AND SHR NOT AND SWAP1 SSTORE CODESIZE DUP1 DUP1 PUSH3 0x30E JUMP JUMPDEST DUP4 DUP6 ADD MLOAD DUP7 SSTORE DUP14 SWAP8 SWAP1 SWAP6 ADD SWAP5 SWAP4 DUP5 ADD SWAP4 ADD PUSH3 0x2FB JUMP JUMPDEST SWAP1 SWAP2 POP DUP10 DUP1 MSTORE DUP5 DUP11 KECCAK256 DUP8 DUP1 DUP6 ADD PUSH1 0x5 SHR DUP3 ADD SWAP3 DUP8 DUP7 LT PUSH3 0x396 JUMPI JUMPDEST SWAP2 DUP12 SWAP2 DUP7 SWAP6 SWAP5 SWAP4 ADD PUSH1 0x5 SHR ADD SWAP2 JUMPDEST DUP3 DUP2 LT PUSH3 0x387 JUMPI POP POP PUSH3 0xE9 JUMP JUMPDEST DUP13 DUP2 SSTORE DUP6 SWAP5 POP DUP12 SWAP2 ADD PUSH3 0x377 JUMP JUMPDEST SWAP3 POP DUP2 SWAP3 PUSH3 0x369 JUMP JUMPDEST PUSH4 0x4E487B71 PUSH1 0xE0 SHL DUP11 MSTORE PUSH1 0x22 PUSH1 0x4 MSTORE PUSH1 0x24 DUP11 REVERT JUMPDEST SWAP1 PUSH1 0x7F AND SWAP1 PUSH3 0xD4 JUMP JUMPDEST PUSH4 0x4E487B71 PUSH1 0xE0 SHL PUSH1 0x0 MSTORE PUSH1 0x41 PUSH1 0x4 MSTORE PUSH1 0x24 PUSH1 0x0 REVERT JUMPDEST PUSH1 0x0 DUP1 REVERT JUMPDEST PUSH1 0x40 DUP1 MLOAD SWAP2 SWAP1 DUP3 ADD PUSH1 0x1 PUSH1 0x1 PUSH1 0x40 SHL SUB DUP2 GT DUP4 DUP3 LT OR PUSH3 0x3BF JUMPI PUSH1 0x40 MSTORE JUMP INVALID PUSH1 0x80 PUSH1 0x40 DUP2 DUP2 MSTORE PUSH1 0x4 DUP1 CALLDATASIZE LT ISZERO PUSH2 0x15 JUMPI PUSH1 0x0 DUP1 REVERT JUMPDEST PUSH1 0x0 SWAP3 DUP4 CALLDATALOAD PUSH1 0xE0 SHR SWAP1 DUP2 PUSH4 0x1FFC9A7 EQ PUSH2 0x100F JUMPI POP DUP1 PUSH4 0x6FDDE03 EQ PUSH2 0xF5E JUMPI DUP1 PUSH4 0x81812FC EQ PUSH2 0xF23 JUMPI DUP1 PUSH4 0x95EA7B3 EQ PUSH2 0xE47 JUMPI DUP1 PUSH4 0x162094C4 EQ PUSH2 0xCC5 JUMPI DUP1 PUSH4 0x18160DDD EQ PUSH2 0xCA6 JUMPI DUP1 PUSH4 0x23B872DD EQ PUSH2 0xC8E JUMPI DUP1 PUSH4 0x42842E0E EQ PUSH2 0xC5F JUMPI DUP1 PUSH4 0x55F804B3 EQ PUSH2 0xAD8 JUMPI DUP1 PUSH4 0x6352211E EQ PUSH2 0xAA7 JUMPI DUP1 PUSH4 0x70A08231 EQ PUSH2 0xA52 JUMPI DUP1 PUSH4 0x715018A6 EQ PUSH2 0x9F5 JUMPI DUP1 PUSH4 0x73AD6C2D EQ PUSH2 0x9B5 JUMPI DUP1 PUSH4 0x849B1B7E EQ PUSH2 0x8B2 JUMPI DUP1 PUSH4 0x8DA5CB5B EQ PUSH2 0x889 JUMPI DUP1 PUSH4 0x95D89B41 EQ PUSH2 0x79E JUMPI DUP1 PUSH4 0xA22CB465 EQ PUSH2 0x6FD JUMPI DUP1 PUSH4 0xABC8C7AF EQ PUSH2 0x6D4 JUMPI DUP1 PUSH4 0xB03FBFBB EQ PUSH2 0x482 JUMPI DUP1 PUSH4 0xB2DD1212 EQ PUSH2 0x371 JUMPI DUP1 PUSH4 0xB88D4FDE EQ PUSH2 0x2E0 JUMPI DUP1 PUSH4 0xC87B56DD EQ PUSH2 0x2A5 JUMPI DUP1 PUSH4 0xE985E9C5 EQ PUSH2 0x253 JUMPI DUP1 PUSH4 0xF2FDE38B EQ PUSH2 0x1C9 JUMPI PUSH4 0xFE5EB754 EQ PUSH2 0x136 JUMPI PUSH1 0x0 DUP1 REVERT JUMPDEST CALLVALUE PUSH2 0x1C5 JUMPI DUP2 PUSH1 0x3 NOT CALLDATASIZE ADD SLT PUSH2 0x1C5 JUMPI CALLDATALOAD PUSH1 0x24 CALLDATALOAD SWAP1 PUSH1 0x1 PUSH1 0x1 PUSH1 0x40 SHL SUB DUP3 AND DUP3 SUB PUSH2 0x1C1 JUMPI PUSH2 0x1BE SWAP3 PUSH1 0x1 SWAP2 PUSH2 0x18E DUP4 DUP1 PUSH1 0xA0 SHL SUB PUSH2 0x17A DUP2 PUSH1 0x7 SLOAD AND CALLER EQ PUSH2 0x12A1 JUMP JUMPDEST DUP3 DUP9 MSTORE PUSH1 0x2 PUSH1 0x20 MSTORE DUP4 DUP9 KECCAK256 SLOAD AND ISZERO ISZERO PUSH2 0x12E0 JUMP JUMPDEST DUP6 MSTORE PUSH1 0x9 PUSH1 0x20 MSTORE DUP5 KECCAK256 ADD SWAP1 PUSH10 0xFFFFFFFFFFFFFFFF0000 DUP3 SLOAD SWAP2 PUSH1 0x10 SHL AND SWAP1 PUSH10 0xFFFFFFFFFFFFFFFF0000 NOT AND OR SWAP1 SSTORE JUMP JUMPDEST DUP1 RETURN JUMPDEST DUP4 DUP1 REVERT JUMPDEST DUP3 DUP1 REVERT JUMPDEST POP CALLVALUE PUSH2 0x1C5 JUMPI PUSH1 0x20 CALLDATASIZE PUSH1 0x3 NOT ADD SLT PUSH2 0x1C5 JUMPI PUSH2 0x1E3 PUSH2 0x10C3 JUMP JUMPDEST SWAP1 PUSH2 0x1EC PUSH2 0x191F JUMP JUMPDEST PUSH1 0x1 PUSH1 0x1 PUSH1 0xA0 SHL SUB SWAP2 DUP3 AND SWAP3 DUP4 ISZERO PUSH2 0x23D JUMPI POP POP PUSH1 0x6 SLOAD DUP3 PUSH1 0x1 PUSH1 0x1 PUSH1 0x60 SHL SUB PUSH1 0xA0 SHL DUP3 AND OR PUSH1 0x6 SSTORE AND PUSH32 0x8BE0079C531659141344CD1FD0A4F28419497F9722A3DAAFE3B4186F6B6457E0 DUP4 DUP1 LOG3 DUP1 RETURN JUMPDEST MLOAD PUSH4 0x1E4FBDF7 PUSH1 0xE0 SHL DUP2 MSTORE SWAP1 DUP2 ADD DUP5 SWAP1 MSTORE PUSH1 0x24 SWAP1 REVERT JUMPDEST POP POP CALLVALUE PUSH2 0x2A1 JUMPI DUP1 PUSH1 0x3 NOT CALLDATASIZE ADD SLT PUSH2 0x2A1 JUMPI PUSH1 0xFF DUP2 PUSH1 0x20 SWAP4 PUSH2 0x273 PUSH2 0x10C3 JUMP JUMPDEST PUSH2 0x27B PUSH2 0x10DE JUMP JUMPDEST PUSH1 0x1 PUSH1 0x1 PUSH1 0xA0 SHL SUB SWAP2 DUP3 AND DUP4 MSTORE PUSH1 0x5 DUP8 MSTORE DUP4 DUP4 KECCAK256 SWAP2 AND DUP3 MSTORE DUP6 MSTORE KECCAK256 SLOAD SWAP2 MLOAD SWAP2 AND ISZERO ISZERO DUP2 MSTORE RETURN JUMPDEST POP DUP1 REVERT JUMPDEST POP SWAP2 CALLVALUE PUSH2 0x2DD JUMPI PUSH1 0x20 CALLDATASIZE PUSH1 0x3 NOT ADD SLT PUSH2 0x2DD JUMPI POP PUSH2 0x2C6 PUSH2 0x2D9 SWAP3 CALLDATALOAD PUSH2 0x1544 JUMP JUMPDEST SWAP1 MLOAD SWAP2 DUP3 SWAP2 PUSH1 0x20 DUP4 MSTORE PUSH1 0x20 DUP4 ADD SWAP1 PUSH2 0x109E JUMP JUMPDEST SUB SWAP1 RETURN JUMPDEST DUP1 REVERT JUMPDEST POP SWAP1 CALLVALUE PUSH2 0x1C5 JUMPI PUSH1 0x80 CALLDATASIZE PUSH1 0x3 NOT ADD SLT PUSH2 0x1C5 JUMPI PUSH2 0x2FB PUSH2 0x10C3 JUMP JUMPDEST PUSH2 0x303 PUSH2 0x10DE JUMP JUMPDEST PUSH1 0x44 CALLDATALOAD SWAP2 DUP6 PUSH1 0x64 CALLDATALOAD SWAP6 PUSH1 0x1 PUSH1 0x1 PUSH1 0x40 SHL SUB DUP8 GT PUSH2 0x2A1 JUMPI CALLDATASIZE PUSH1 0x23 DUP9 ADD SLT ISZERO PUSH2 0x2A1 JUMPI DUP7 ADD CALLDATALOAD SWAP6 PUSH2 0x33E PUSH2 0x335 DUP9 PUSH2 0x124C JUMP JUMPDEST SWAP7 MLOAD SWAP7 DUP8 PUSH2 0x11A2 JUMP JUMPDEST DUP7 DUP7 MSTORE CALLDATASIZE PUSH1 0x24 DUP9 DUP4 ADD ADD GT PUSH2 0x2A1 JUMPI DUP7 PUSH2 0x1BE SWAP8 PUSH1 0x24 PUSH1 0x20 SWAP4 ADD DUP4 DUP10 ADD CALLDATACOPY DUP7 ADD ADD MSTORE PUSH2 0x36B DUP4 DUP4 DUP4 PUSH2 0x1319 JUMP JUMPDEST CALLER PUSH2 0x1BDD JUMP JUMPDEST POP SWAP1 CALLVALUE PUSH2 0x1C5 JUMPI PUSH1 0x20 SWAP2 DUP3 PUSH1 0x3 NOT CALLDATASIZE ADD SLT PUSH2 0x1C1 JUMPI SWAP1 DUP1 PUSH1 0xE0 SWAP5 PUSH1 0x3 SWAP4 CALLDATALOAD DUP2 PUSH1 0xC0 DUP5 MLOAD PUSH2 0x39D DUP2 PUSH2 0x1156 JUMP JUMPDEST DUP3 DUP2 MSTORE DUP3 DUP10 DUP3 ADD MSTORE DUP3 DUP7 DUP3 ADD MSTORE DUP3 PUSH1 0x60 DUP3 ADD MSTORE DUP3 PUSH1 0x80 DUP3 ADD MSTORE DUP3 PUSH1 0xA0 DUP3 ADD MSTORE ADD MSTORE DUP1 DUP3 MSTORE PUSH1 0x2 DUP7 MSTORE PUSH2 0x3DB PUSH1 0x1 DUP1 PUSH1 0xA0 SHL SUB DUP5 DUP5 KECCAK256 SLOAD AND ISZERO ISZERO PUSH2 0x12E0 JUMP JUMPDEST DUP2 MSTORE PUSH1 0x9 DUP6 MSTORE KECCAK256 DUP2 MLOAD SWAP2 PUSH2 0x3EE DUP4 PUSH2 0x1156 JUMP JUMPDEST DUP2 SLOAD SWAP5 DUP6 DUP5 MSTORE PUSH1 0x1 DUP4 ADD SLOAD SWAP2 DUP2 DUP6 ADD SWAP1 PUSH1 0xFF DUP5 AND DUP3 MSTORE PUSH1 0xFF DUP2 DUP8 ADD DUP2 DUP7 PUSH1 0x8 SHR AND DUP2 MSTORE PUSH1 0x1 PUSH1 0x1 PUSH1 0x40 SHL SUB SWAP5 DUP3 PUSH1 0x60 DUP11 ADD SWAP6 DUP8 DUP10 PUSH1 0x10 SHR AND DUP8 MSTORE DUP2 PUSH1 0x80 DUP13 ADD SWAP10 PUSH1 0x50 SHR AND ISZERO ISZERO DUP10 MSTORE PUSH1 0xC0 PUSH1 0x2 DUP12 ADD SLOAD SWAP11 PUSH1 0xA0 DUP14 ADD SWAP12 DUP13 MSTORE PUSH2 0xFFFF SWAP14 DUP15 SWAP2 ADD SLOAD AND SWAP12 ADD SWAP11 DUP12 MSTORE DUP6 MLOAD SWAP13 DUP14 MSTORE MLOAD AND SWAP1 DUP12 ADD MSTORE MLOAD AND SWAP1 DUP9 ADD MSTORE MLOAD AND PUSH1 0x60 DUP7 ADD MSTORE MLOAD ISZERO ISZERO PUSH1 0x80 DUP6 ADD MSTORE MLOAD PUSH1 0xA0 DUP5 ADD MSTORE MLOAD AND PUSH1 0xC0 DUP3 ADD MSTORE RETURN JUMPDEST POP SWAP1 CALLVALUE PUSH2 0x1C5 JUMPI PUSH2 0x120 CALLDATASIZE PUSH1 0x3 NOT ADD SLT PUSH2 0x1C5 JUMPI PUSH2 0x49E PUSH2 0x10C3 JUMP JUMPDEST SWAP3 PUSH2 0x4A8 CALLDATASIZE PUSH2 0x11C3 JUMP JUMPDEST PUSH1 0x1 PUSH1 0x1 PUSH1 0x40 SHL SUB SWAP2 PUSH2 0x104 CALLDATALOAD DUP4 DUP2 GT PUSH2 0x2A1 JUMPI PUSH2 0x4C9 SWAP1 CALLDATASIZE SWAP1 DUP8 ADD PUSH2 0x10F4 JUMP JUMPDEST SWAP2 SWAP1 PUSH1 0x1 PUSH1 0xA0 SHL PUSH1 0x1 SWAP1 SUB PUSH1 0x7 SLOAD AND CALLER EQ PUSH2 0x4E3 SWAP1 PUSH2 0x12A1 JUMP JUMPDEST PUSH1 0x8 SLOAD PUSH2 0x4EF SWAP1 PUSH2 0x151F JUMP JUMPDEST SWAP7 DUP8 PUSH1 0x8 SSTORE DUP8 DUP4 MSTORE PUSH1 0x20 SWAP9 PUSH1 0x9 DUP11 MSTORE DUP9 DUP9 DUP6 KECCAK256 SWAP7 DUP1 MLOAD DUP9 SSTORE PUSH1 0x1 SWAP8 DUP9 DUP2 ADD SWAP1 DUP14 DUP4 ADD MLOAD PUSH1 0xFF AND SWAP2 DUP1 SLOAD SWAP3 DUP14 DUP6 ADD MLOAD PUSH1 0x8 SHL PUSH2 0xFF00 AND SWAP1 PUSH2 0xFFFF NOT DUP1 SWAP6 AND OR OR DUP2 SSTORE DUP12 PUSH1 0x60 DUP6 ADD MLOAD AND PUSH2 0x562 SWAP1 DUP3 SWAP1 PUSH10 0xFFFFFFFFFFFFFFFF0000 DUP3 SLOAD SWAP2 PUSH1 0x10 SHL AND SWAP1 PUSH10 0xFFFFFFFFFFFFFFFF0000 NOT AND OR SWAP1 SSTORE JUMP JUMPDEST PUSH1 0x80 DUP5 ADD MLOAD ISZERO ISZERO DUP2 SLOAD SWAP1 PUSH1 0xFF PUSH1 0x50 SHL SWAP1 PUSH1 0x50 SHL AND SWAP1 PUSH1 0xFF PUSH1 0x50 SHL NOT AND OR SWAP1 SSTORE PUSH1 0xA0 DUP4 ADD MLOAD PUSH1 0x2 DUP3 ADD SSTORE PUSH1 0x3 ADD SWAP2 PUSH1 0xC0 ADD MLOAD PUSH2 0xFFFF AND SWAP1 DUP3 SLOAD AND OR SWAP1 SSTORE PUSH2 0x5A7 SWAP2 PUSH2 0x194B JUMP JUMPDEST DUP4 PUSH2 0x5B6 JUMPI JUMPDEST DUP9 DUP9 DUP9 MLOAD SWAP1 DUP2 MSTORE RETURN JUMPDEST DUP8 DUP4 MSTORE PUSH1 0xB DUP10 MSTORE DUP7 DUP4 KECCAK256 SWAP6 DUP5 GT PUSH2 0x6C1 JUMPI POP PUSH2 0x5D2 DUP6 SLOAD PUSH2 0x1267 JUMP JUMPDEST PUSH1 0x1F DUP2 GT PUSH2 0x67B JUMPI JUMPDEST POP DUP2 PUSH1 0x1F DUP5 GT PUSH1 0x1 EQ PUSH2 0x61C JUMPI SWAP2 DUP4 SWAP5 SWAP2 DUP5 SWAP4 SWAP5 PUSH2 0x611 JUMPI JUMPDEST POP POP SHL SWAP2 PUSH1 0x0 NOT SWAP1 PUSH1 0x3 SHL SHR NOT AND OR SWAP1 SSTORE JUMPDEST CODESIZE DUP1 DUP1 DUP1 DUP1 DUP1 PUSH2 0x5AD JUMP JUMPDEST ADD CALLDATALOAD SWAP3 POP CODESIZE DUP1 PUSH2 0x5F4 JUMP JUMPDEST SWAP2 DUP4 PUSH1 0x1F NOT DUP2 AND DUP8 DUP6 MSTORE DUP11 DUP6 KECCAK256 SWAP5 JUMPDEST DUP12 DUP9 DUP4 DUP4 LT PUSH2 0x664 JUMPI POP POP POP LT PUSH2 0x64A JUMPI JUMPDEST POP POP POP DUP2 SHL ADD SWAP1 SSTORE PUSH2 0x606 JUMP JUMPDEST ADD CALLDATALOAD PUSH1 0x0 NOT PUSH1 0x3 DUP5 SWAP1 SHL PUSH1 0xF8 AND SHR NOT AND SWAP1 SSTORE CODESIZE DUP1 DUP1 PUSH2 0x63D JUMP JUMPDEST DUP6 DUP8 ADD CALLDATALOAD DUP9 SSTORE SWAP1 SWAP7 ADD SWAP6 SWAP4 DUP5 ADD SWAP4 DUP8 SWAP4 POP ADD PUSH2 0x62B JUMP JUMPDEST DUP6 DUP4 MSTORE DUP9 DUP4 KECCAK256 PUSH1 0x1F DUP6 ADD PUSH1 0x5 SHR DUP2 ADD SWAP2 DUP11 DUP7 LT PUSH2 0x6B7 JUMPI JUMPDEST PUSH1 0x1F ADD PUSH1 0x5 SHR ADD SWAP1 DUP6 SWAP1 JUMPDEST DUP3 DUP2 LT PUSH2 0x6AC JUMPI POP POP PUSH2 0x5DB JUMP JUMPDEST DUP5 DUP2 SSTORE ADD DUP6 SWAP1 PUSH2 0x69E JUMP JUMPDEST SWAP1 SWAP2 POP DUP2 SWAP1 PUSH2 0x693 JUMP JUMPDEST PUSH4 0x4E487B71 PUSH1 0xE0 SHL DUP4 MSTORE PUSH1 0x41 SWAP1 MSTORE PUSH1 0x24 DUP3 REVERT JUMPDEST POP POP CALLVALUE PUSH2 0x2A1 JUMPI DUP2 PUSH1 0x3 NOT CALLDATASIZE ADD SLT PUSH2 0x2A1 JUMPI PUSH1 0x7 SLOAD SWAP1 MLOAD PUSH1 0x1 PUSH1 0x1 PUSH1 0xA0 SHL SUB SWAP1 SWAP2 AND DUP2 MSTORE PUSH1 0x20 SWAP1 RETURN JUMPDEST POP SWAP1 CALLVALUE PUSH2 0x1C5 JUMPI DUP1 PUSH1 0x3 NOT CALLDATASIZE ADD SLT PUSH2 0x1C5 JUMPI PUSH2 0x717 PUSH2 0x10C3 JUMP JUMPDEST SWAP1 PUSH1 0x24 CALLDATALOAD SWAP2 DUP3 ISZERO ISZERO DUP1 SWAP4 SUB PUSH2 0x79A JUMPI PUSH1 0x1 PUSH1 0x1 PUSH1 0xA0 SHL SUB AND SWAP3 DUP4 ISZERO PUSH2 0x785 JUMPI POP CALLER DUP5 MSTORE PUSH1 0x5 PUSH1 0x20 MSTORE DUP1 DUP5 KECCAK256 DUP4 DUP6 MSTORE PUSH1 0x20 MSTORE DUP1 DUP5 KECCAK256 PUSH1 0xFF NOT DUP2 SLOAD AND PUSH1 0xFF DUP5 AND OR SWAP1 SSTORE MLOAD SWAP1 DUP2 MSTORE PUSH32 0x17307EAB39AB6107E8899845AD3D59BD9653F200F220920489CA2B5937696C31 PUSH1 0x20 CALLER SWAP3 LOG3 DUP1 RETURN JUMPDEST DUP4 PUSH1 0x24 SWAP3 MLOAD SWAP2 PUSH4 0xB611743 PUSH1 0xE3 SHL DUP4 MSTORE DUP3 ADD MSTORE REVERT JUMPDEST DUP5 DUP1 REVERT JUMPDEST DUP3 DUP5 CALLVALUE PUSH2 0x2DD JUMPI DUP1 PUSH1 0x3 NOT CALLDATASIZE ADD SLT PUSH2 0x2DD JUMPI DUP2 MLOAD SWAP2 DUP3 DUP3 PUSH1 0x1 SWAP4 PUSH1 0x1 SLOAD SWAP5 PUSH2 0x7C5 DUP7 PUSH2 0x1267 JUMP JUMPDEST SWAP2 DUP3 DUP6 MSTORE PUSH1 0x20 SWAP7 DUP8 PUSH1 0x1 DUP3 AND SWAP2 DUP3 PUSH1 0x0 EQ PUSH2 0x862 JUMPI POP POP PUSH1 0x1 EQ PUSH2 0x806 JUMPI JUMPDEST POP POP POP PUSH2 0x2D9 SWAP3 SWAP2 PUSH2 0x7F7 SWAP2 SUB DUP6 PUSH2 0x11A2 JUMP JUMPDEST MLOAD SWAP3 DUP3 DUP5 SWAP4 DUP5 MSTORE DUP4 ADD SWAP1 PUSH2 0x109E JUMP JUMPDEST SWAP2 SWAP1 DUP7 SWAP4 POP PUSH1 0x1 DUP4 MSTORE PUSH32 0xB10E2D527612073B26EECDFD717E6A320CF44B4AFAC2B0732D9FCBE2B7FA0CF6 JUMPDEST DUP3 DUP5 LT PUSH2 0x84A JUMPI POP POP POP DUP3 ADD ADD DUP2 PUSH2 0x7F7 PUSH2 0x2D9 PUSH2 0x7E4 JUMP JUMPDEST DUP1 SLOAD DUP5 DUP11 ADD DUP7 ADD MSTORE DUP9 SWAP6 POP DUP8 SWAP5 SWAP1 SWAP4 ADD SWAP3 DUP2 ADD PUSH2 0x831 JUMP JUMPDEST PUSH1 0xFF NOT AND DUP8 DUP3 ADD MSTORE SWAP4 ISZERO ISZERO PUSH1 0x5 SHL DUP7 ADD SWAP1 SWAP4 ADD SWAP4 POP DUP5 SWAP3 POP PUSH2 0x7F7 SWAP2 POP PUSH2 0x2D9 SWAP1 POP PUSH2 0x7E4 JUMP JUMPDEST POP POP CALLVALUE PUSH2 0x2A1 JUMPI DUP2 PUSH1 0x3 NOT CALLDATASIZE ADD SLT PUSH2 0x2A1 JUMPI PUSH1 0x6 SLOAD SWAP1 MLOAD PUSH1 0x1 PUSH1 0x1 PUSH1 0xA0 SHL SUB SWAP1 SWAP2 AND DUP2 MSTORE PUSH1 0x20 SWAP1 RETURN JUMPDEST POP POP CALLVALUE PUSH2 0x2A1 JUMPI PUSH2 0x100 CALLDATASIZE PUSH1 0x3 NOT ADD SLT PUSH2 0x2A1 JUMPI DUP1 PUSH2 0x9AF PUSH1 0x20 SWAP4 PUSH2 0x8D5 PUSH2 0x10C3 JUMP JUMPDEST PUSH2 0x8DE CALLDATASIZE PUSH2 0x11C3 JUMP JUMPDEST PUSH2 0x8F3 PUSH1 0x1 DUP1 PUSH1 0xA0 SHL SUB PUSH1 0x7 SLOAD AND CALLER EQ PUSH2 0x12A1 JUMP JUMPDEST PUSH2 0x8FE PUSH1 0x8 SLOAD PUSH2 0x151F JUMP JUMPDEST SWAP6 DUP7 SWAP4 DUP5 PUSH1 0x8 SSTORE DUP5 DUP2 MSTORE PUSH1 0x9 DUP10 MSTORE KECCAK256 DUP2 MLOAD DUP2 SSTORE PUSH2 0xFFFF PUSH1 0xC0 PUSH1 0x3 PUSH1 0x1 DUP5 ADD SWAP4 PUSH1 0xFF DUP13 DUP8 ADD MLOAD AND SWAP5 DUP1 SLOAD SWAP6 PUSH2 0xFF00 DUP13 DUP10 ADD MLOAD PUSH1 0x8 SHL AND SWAP1 DUP7 NOT DUP1 SWAP9 AND OR OR DUP2 SSTORE PUSH2 0x975 PUSH1 0x1 PUSH1 0x1 PUSH1 0x40 SHL SUB PUSH1 0x60 DUP10 ADD MLOAD AND DUP3 SWAP1 PUSH10 0xFFFFFFFFFFFFFFFF0000 DUP3 SLOAD SWAP2 PUSH1 0x10 SHL AND SWAP1 PUSH10 0xFFFFFFFFFFFFFFFF0000 NOT AND OR SWAP1 SSTORE JUMP JUMPDEST PUSH1 0x80 DUP8 ADD MLOAD ISZERO ISZERO DUP2 SLOAD SWAP1 PUSH1 0xFF PUSH1 0x50 SHL SWAP1 PUSH1 0x50 SHL AND SWAP1 PUSH1 0xFF PUSH1 0x50 SHL NOT AND OR SWAP1 SSTORE PUSH1 0xA0 DUP7 ADD MLOAD PUSH1 0x2 DUP3 ADD SSTORE ADD SWAP4 ADD MLOAD AND SWAP1 DUP3 SLOAD AND OR SWAP1 SSTORE PUSH2 0x194B JUMP JUMPDEST MLOAD SWAP1 DUP2 MSTORE RETURN JUMPDEST DUP4 CALLVALUE PUSH2 0x2DD JUMPI PUSH1 0x20 CALLDATASIZE PUSH1 0x3 NOT ADD SLT PUSH2 0x2DD JUMPI PUSH2 0x9CF PUSH2 0x10C3 JUMP JUMPDEST PUSH2 0x9D7 PUSH2 0x191F JUMP JUMPDEST PUSH1 0x1 DUP1 PUSH1 0xA0 SHL SUB AND PUSH1 0x1 PUSH1 0x1 PUSH1 0x60 SHL SUB PUSH1 0xA0 SHL PUSH1 0x7 SLOAD AND OR PUSH1 0x7 SSTORE DUP1 RETURN JUMPDEST DUP4 CALLVALUE PUSH2 0x2DD JUMPI DUP1 PUSH1 0x3 NOT CALLDATASIZE ADD SLT PUSH2 0x2DD JUMPI PUSH2 0xA0E PUSH2 0x191F JUMP JUMPDEST PUSH1 0x6 DUP1 SLOAD PUSH1 0x1 PUSH1 0x1 PUSH1 0xA0 SHL SUB NOT DUP2 AND SWAP1 SWAP2 SSTORE DUP2 SWAP1 PUSH1 0x1 PUSH1 0x1 PUSH1 0xA0 SHL SUB AND PUSH32 0x8BE0079C531659141344CD1FD0A4F28419497F9722A3DAAFE3B4186F6B6457E0 DUP3 DUP1 LOG3 DUP1 RETURN JUMPDEST POP SWAP2 CALLVALUE PUSH2 0x2DD JUMPI PUSH1 0x20 CALLDATASIZE PUSH1 0x3 NOT ADD SLT PUSH2 0x2DD JUMPI PUSH1 0x1 PUSH1 0x1 PUSH1 0xA0 SHL SUB PUSH2 0xA75 PUSH2 0x10C3 JUMP JUMPDEST AND SWAP3 DUP4 ISZERO PUSH2 0xA92 JUMPI POP DUP1 PUSH1 0x20 SWAP4 DUP4 SWAP3 MSTORE PUSH1 0x3 DUP5 MSTORE KECCAK256 SLOAD SWAP1 MLOAD SWAP1 DUP2 MSTORE RETURN JUMPDEST SWAP2 MLOAD PUSH4 0x22718AD9 PUSH1 0xE2 SHL DUP2 MSTORE SWAP2 DUP3 ADD MSTORE PUSH1 0x24 SWAP1 REVERT JUMPDEST POP SWAP2 CALLVALUE PUSH2 0x2DD JUMPI PUSH1 0x20 CALLDATASIZE PUSH1 0x3 NOT ADD SLT PUSH2 0x2DD JUMPI POP PUSH2 0xAC7 PUSH1 0x20 SWAP3 CALLDATALOAD PUSH2 0x18E4 JUMP JUMPDEST SWAP1 MLOAD PUSH1 0x1 PUSH1 0x1 PUSH1 0xA0 SHL SUB SWAP1 SWAP2 AND DUP2 MSTORE RETURN JUMPDEST POP DUP3 CALLVALUE PUSH2 0x2DD JUMPI PUSH1 0x20 SWAP2 PUSH1 0x20 PUSH1 0x3 NOT CALLDATASIZE ADD SLT PUSH2 0x2A1 JUMPI PUSH1 0x1 PUSH1 0x1 PUSH1 0x40 SHL SUB DUP2 CALLDATALOAD DUP2 DUP2 GT PUSH2 0x1C1 JUMPI PUSH2 0xB0C SWAP1 CALLDATASIZE SWAP1 DUP5 ADD PUSH2 0x10F4 JUMP JUMPDEST SWAP3 SWAP1 SWAP2 PUSH2 0xB17 PUSH2 0x191F JUMP JUMPDEST DUP4 GT PUSH2 0xC4C JUMPI POP PUSH2 0xB29 PUSH1 0xA SLOAD PUSH2 0x1267 JUMP JUMPDEST PUSH1 0x1F DUP2 GT PUSH2 0xBED JUMPI JUMPDEST POP DUP3 SWAP4 PUSH1 0x1F DUP4 GT PUSH1 0x1 EQ PUSH2 0xB6F JUMPI POP SWAP3 DUP3 SWAP4 DUP3 SWAP4 SWAP3 PUSH2 0xB64 JUMPI JUMPDEST POP POP DUP2 PUSH1 0x1 SHL SWAP2 PUSH1 0x0 NOT SWAP1 PUSH1 0x3 SHL SHR NOT AND OR PUSH1 0xA SSTORE DUP1 RETURN JUMPDEST ADD CALLDATALOAD SWAP1 POP DUP4 DUP1 PUSH2 0xB4C JUMP JUMPDEST PUSH1 0x1F NOT DUP4 AND SWAP5 PUSH32 0xC65A7BB8D6351C1CF70C95A316CC6A92839C986682D98BC35F958F4883F9D2A8 SWAP3 SWAP2 DUP6 SWAP1 JUMPDEST DUP8 DUP3 LT PUSH2 0xBD5 JUMPI POP POP DUP4 PUSH1 0x1 SWAP6 SWAP7 LT PUSH2 0xBBB JUMPI JUMPDEST POP POP POP DUP2 SHL ADD PUSH1 0xA SSTORE DUP1 RETURN JUMPDEST ADD CALLDATALOAD PUSH1 0x0 NOT PUSH1 0x3 DUP5 SWAP1 SHL PUSH1 0xF8 AND SHR NOT AND SWAP1 SSTORE DUP4 DUP1 DUP1 PUSH2 0xBAF JUMP JUMPDEST DUP1 PUSH1 0x1 DUP5 SWAP7 DUP3 SWAP5 SWAP6 DUP8 ADD CALLDATALOAD DUP2 SSTORE ADD SWAP6 ADD SWAP3 ADD SWAP1 PUSH2 0xB9B JUMP JUMPDEST PUSH32 0xC65A7BB8D6351C1CF70C95A316CC6A92839C986682D98BC35F958F4883F9D2A8 PUSH1 0x1F DUP5 ADD PUSH1 0x5 SHR DUP2 ADD SWAP2 PUSH1 0x20 DUP6 LT PUSH2 0xC42 JUMPI JUMPDEST PUSH1 0x1F ADD PUSH1 0x5 SHR ADD SWAP1 JUMPDEST DUP2 DUP2 LT PUSH2 0xC37 JUMPI POP PUSH2 0xB32 JUMP JUMPDEST DUP5 DUP2 SSTORE PUSH1 0x1 ADD PUSH2 0xC2A JUMP JUMPDEST SWAP1 SWAP2 POP DUP2 SWAP1 PUSH2 0xC21 JUMP JUMPDEST PUSH4 0x4E487B71 PUSH1 0xE0 SHL DUP5 MSTORE PUSH1 0x41 SWAP1 MSTORE PUSH1 0x24 DUP4 REVERT JUMPDEST POP POP CALLVALUE PUSH2 0x2A1 JUMPI PUSH2 0x1BE SWAP1 PUSH2 0xC73 CALLDATASIZE PUSH2 0x1121 JUMP JUMPDEST SWAP2 SWAP3 MLOAD SWAP3 PUSH2 0xC80 DUP5 PUSH2 0x1187 JUMP JUMPDEST DUP6 DUP5 MSTORE PUSH2 0x36B DUP4 DUP4 DUP4 PUSH2 0x1319 JUMP JUMPDEST DUP4 CALLVALUE PUSH2 0x2DD JUMPI PUSH2 0x1BE PUSH2 0xCA0 CALLDATASIZE PUSH2 0x1121 JUMP JUMPDEST SWAP2 PUSH2 0x1319 JUMP JUMPDEST POP POP CALLVALUE PUSH2 0x2A1 JUMPI DUP2 PUSH1 0x3 NOT CALLDATASIZE ADD SLT PUSH2 0x2A1 JUMPI PUSH1 0x20 SWAP1 PUSH1 0x8 SLOAD SWAP1 MLOAD SWAP1 DUP2 MSTORE RETURN JUMPDEST POP SWAP2 SWAP1 CALLVALUE PUSH2 0x2A1 JUMPI DUP1 PUSH1 0x3 NOT CALLDATASIZE ADD SLT PUSH2 0x2A1 JUMPI DUP3 CALLDATALOAD SWAP3 PUSH1 0x1 PUSH1 0x1 PUSH1 0x40 SHL SUB SWAP2 PUSH1 0x24 CALLDATALOAD DUP4 DUP2 GT PUSH2 0x79A JUMPI PUSH2 0xCFB SWAP1 CALLDATASIZE SWAP1 DUP5 ADD PUSH2 0x10F4 JUMP JUMPDEST SWAP3 SWAP1 SWAP2 PUSH1 0x1 DUP1 PUSH1 0xA0 SHL SUB SWAP7 PUSH2 0xD15 DUP9 PUSH1 0x7 SLOAD AND CALLER EQ PUSH2 0x12A1 JUMP JUMPDEST DUP1 DUP8 MSTORE PUSH2 0xD2E PUSH1 0x20 SWAP9 PUSH1 0x2 DUP11 MSTORE DUP4 DUP10 KECCAK256 SLOAD AND ISZERO ISZERO PUSH2 0x12E0 JUMP JUMPDEST DUP7 MSTORE PUSH1 0xB DUP8 MSTORE DUP6 KECCAK256 SWAP4 DUP4 GT PUSH2 0xE34 JUMPI POP PUSH2 0xD48 DUP4 SLOAD PUSH2 0x1267 JUMP JUMPDEST PUSH1 0x1F DUP2 GT PUSH2 0xDF1 JUMPI JUMPDEST POP DUP4 SWAP5 PUSH1 0x1F DUP4 GT PUSH1 0x1 EQ PUSH2 0xD8E JUMPI POP SWAP4 DUP4 SWAP5 DUP3 SWAP4 SWAP5 SWAP3 PUSH2 0xD83 JUMPI JUMPDEST POP POP DUP2 PUSH1 0x1 SHL SWAP2 PUSH1 0x0 NOT SWAP1 PUSH1 0x3 SHL SHR NOT AND OR SWAP1 SSTORE DUP1 RETURN JUMPDEST ADD CALLDATALOAD SWAP1 POP CODESIZE DUP1 PUSH2 0xD6C JUMP JUMPDEST SWAP1 PUSH1 0x1F NOT DUP4 AND SWAP6 DUP5 DUP7 MSTORE DUP3 DUP7 KECCAK256 SWAP3 DUP7 SWAP1 JUMPDEST DUP9 DUP3 LT PUSH2 0xDD9 JUMPI POP POP DUP4 PUSH1 0x1 SWAP6 SWAP7 SWAP8 LT PUSH2 0xDBF JUMPI JUMPDEST POP POP POP DUP2 SHL ADD SWAP1 SSTORE DUP1 RETURN JUMPDEST ADD CALLDATALOAD PUSH1 0x0 NOT PUSH1 0x3 DUP5 SWAP1 SHL PUSH1 0xF8 AND SHR NOT AND SWAP1 SSTORE CODESIZE DUP1 DUP1 PUSH2 0xDB4 JUMP JUMPDEST DUP1 PUSH1 0x1 DUP5 SWAP7 DUP3 SWAP5 SWAP6 DUP8 ADD CALLDATALOAD DUP2 SSTORE ADD SWAP6 ADD SWAP3 ADD SWAP1 PUSH2 0xD9F JUMP JUMPDEST DUP4 DUP6 MSTORE DUP6 DUP6 KECCAK256 PUSH1 0x1F DUP5 ADD PUSH1 0x5 SHR DUP2 ADD SWAP2 DUP8 DUP6 LT PUSH2 0xE2A JUMPI JUMPDEST PUSH1 0x1F ADD PUSH1 0x5 SHR ADD SWAP1 JUMPDEST DUP2 DUP2 LT PUSH2 0xE1F JUMPI POP PUSH2 0xD51 JUMP JUMPDEST DUP6 DUP2 SSTORE PUSH1 0x1 ADD PUSH2 0xE12 JUMP JUMPDEST SWAP1 SWAP2 POP DUP2 SWAP1 PUSH2 0xE09 JUMP JUMPDEST PUSH4 0x4E487B71 PUSH1 0xE0 SHL DUP6 MSTORE PUSH1 0x41 SWAP1 MSTORE PUSH1 0x24 DUP5 REVERT JUMPDEST POP SWAP1 CALLVALUE PUSH2 0x1C5 JUMPI DUP1 PUSH1 0x3 NOT CALLDATASIZE ADD SLT PUSH2 0x1C5 JUMPI PUSH2 0xE61 PUSH2 0x10C3 JUMP JUMPDEST SWAP2 PUSH1 0x24 CALLDATALOAD PUSH2 0xE6E DUP2 PUSH2 0x18E4 JUMP JUMPDEST CALLER ISZERO ISZERO DUP1 PUSH2 0xF10 JUMPI JUMPDEST DUP1 PUSH2 0xEE7 JUMPI JUMPDEST PUSH2 0xED1 JUMPI PUSH1 0x1 PUSH1 0x1 PUSH1 0xA0 SHL SUB SWAP5 DUP6 AND SWAP5 DUP3 SWAP2 DUP7 SWAP2 AND PUSH32 0x8C5BE1E5EBEC7D5BD14F71427D1E84F3DD0314C0F7B2291E5B200AC8C7C3B925 DUP9 DUP1 LOG4 DUP5 MSTORE PUSH1 0x20 MSTORE DUP3 KECCAK256 DUP1 SLOAD PUSH1 0x1 PUSH1 0x1 PUSH1 0xA0 SHL SUB NOT AND SWAP1 SWAP2 OR SWAP1 SSTORE DUP1 RETURN JUMPDEST DUP4 MLOAD PUSH4 0xA9FBF51F PUSH1 0xE0 SHL DUP2 MSTORE CALLER DUP2 DUP6 ADD MSTORE PUSH1 0x24 SWAP1 REVERT JUMPDEST POP PUSH1 0x1 PUSH1 0x1 PUSH1 0xA0 SHL SUB DUP2 AND DUP7 MSTORE PUSH1 0x5 PUSH1 0x20 SWAP1 DUP2 MSTORE DUP5 DUP8 KECCAK256 CALLER DUP9 MSTORE SWAP1 MSTORE DUP4 DUP7 KECCAK256 SLOAD PUSH1 0xFF AND ISZERO PUSH2 0xE7D JUMP JUMPDEST POP PUSH1 0x1 PUSH1 0x1 PUSH1 0xA0 SHL SUB DUP2 AND CALLER EQ ISZERO PUSH2 0xE77 JUMP JUMPDEST POP CALLVALUE PUSH2 0x1C5 JUMPI PUSH1 0x20 CALLDATASIZE PUSH1 0x3 NOT ADD SLT PUSH2 0x1C5 JUMPI SWAP2 DUP3 PUSH1 0x20 SWAP4 CALLDATALOAD PUSH2 0xF44 DUP2 PUSH2 0x18E4 JUMP JUMPDEST POP DUP3 MSTORE DUP4 MSTORE DUP2 SWAP1 KECCAK256 SLOAD SWAP1 MLOAD PUSH1 0x1 PUSH1 0x1 PUSH1 0xA0 SHL SUB SWAP1 SWAP2 AND DUP2 MSTORE RETURN JUMPDEST DUP3 DUP5 CALLVALUE PUSH2 0x2DD JUMPI DUP1 PUSH1 0x3 NOT CALLDATASIZE ADD SLT PUSH2 0x2DD JUMPI DUP2 MLOAD SWAP2 DUP3 DUP3 DUP4 SLOAD PUSH2 0xF80 DUP2 PUSH2 0x1267 JUMP JUMPDEST SWAP1 DUP2 DUP5 MSTORE PUSH1 0x20 SWAP6 PUSH1 0x1 SWAP2 DUP8 PUSH1 0x1 DUP3 AND SWAP2 DUP3 PUSH1 0x0 EQ PUSH2 0x862 JUMPI POP POP PUSH1 0x1 EQ PUSH2 0xFB4 JUMPI POP POP POP PUSH2 0x2D9 SWAP3 SWAP2 PUSH2 0x7F7 SWAP2 SUB DUP6 PUSH2 0x11A2 JUMP JUMPDEST SWAP2 SWAP1 DUP7 SWAP4 POP DUP3 DUP1 MSTORE PUSH32 0x290DECD9548B62A8D60345A988386FC84BA6BC95484008F6362F93160EF3E563 JUMPDEST DUP3 DUP5 LT PUSH2 0xFF7 JUMPI POP POP POP DUP3 ADD ADD DUP2 PUSH2 0x7F7 PUSH2 0x2D9 PUSH2 0x7E4 JUMP JUMPDEST DUP1 SLOAD DUP5 DUP11 ADD DUP7 ADD MSTORE DUP9 SWAP6 POP DUP8 SWAP5 SWAP1 SWAP4 ADD SWAP3 DUP2 ADD PUSH2 0xFDE JUMP JUMPDEST SWAP3 POP POP CALLVALUE PUSH2 0x1C5 JUMPI PUSH1 0x20 CALLDATASIZE PUSH1 0x3 NOT ADD SLT PUSH2 0x1C5 JUMPI CALLDATALOAD PUSH4 0xFFFFFFFF PUSH1 0xE0 SHL DUP2 AND DUP1 SWAP2 SUB PUSH2 0x1C5 JUMPI PUSH1 0x20 SWAP3 POP PUSH4 0x80AC58CD PUSH1 0xE0 SHL DUP2 EQ SWAP1 DUP2 ISZERO PUSH2 0x106A JUMPI JUMPDEST DUP2 ISZERO PUSH2 0x1059 JUMPI JUMPDEST POP ISZERO ISZERO DUP2 MSTORE RETURN JUMPDEST PUSH4 0x1FFC9A7 PUSH1 0xE0 SHL EQ SWAP1 POP CODESIZE PUSH2 0x1052 JUMP JUMPDEST PUSH4 0x5B5E139F PUSH1 0xE0 SHL DUP2 EQ SWAP2 POP PUSH2 0x104B JUMP JUMPDEST PUSH1 0x0 JUMPDEST DUP4 DUP2 LT PUSH2 0x108E JUMPI POP POP PUSH1 0x0 SWAP2 ADD MSTORE JUMP JUMPDEST DUP2 DUP2 ADD MLOAD DUP4 DUP3 ADD MSTORE PUSH1 0x20 ADD PUSH2 0x107E JUMP JUMPDEST SWAP1 PUSH1 0x20 SWAP2 PUSH2 0x10B7 DUP2 MLOAD DUP1 SWAP3 DUP2 DUP6 MSTORE DUP6 DUP1 DUP7 ADD SWAP2 ADD PUSH2 0x107B JUMP JUMPDEST PUSH1 0x1F ADD PUSH1 0x1F NOT AND ADD ADD SWAP1 JUMP JUMPDEST PUSH1 0x4 CALLDATALOAD SWAP1 PUSH1 0x1 PUSH1 0x1 PUSH1 0xA0 SHL SUB DUP3 AND DUP3 SUB PUSH2 0x10D9 JUMPI JUMP JUMPDEST PUSH1 0x0 DUP1 REVERT JUMPDEST PUSH1 0x24 CALLDATALOAD SWAP1 PUSH1 0x1 PUSH1 0x1 PUSH1 0xA0 SHL SUB DUP3 AND DUP3 SUB PUSH2 0x10D9 JUMPI JUMP JUMPDEST SWAP2 DUP2 PUSH1 0x1F DUP5 ADD SLT ISZERO PUSH2 0x10D9 JUMPI DUP3 CALLDATALOAD SWAP2 PUSH1 0x1 PUSH1 0x1 PUSH1 0x40 SHL SUB DUP4 GT PUSH2 0x10D9 JUMPI PUSH1 0x20 DUP4 DUP2 DUP7 ADD SWAP6 ADD ADD GT PUSH2 0x10D9 JUMPI JUMP JUMPDEST PUSH1 0x60 SWAP1 PUSH1 0x3 NOT ADD SLT PUSH2 0x10D9 JUMPI PUSH1 0x1 PUSH1 0x1 PUSH1 0xA0 SHL SUB SWAP1 PUSH1 0x4 CALLDATALOAD DUP3 DUP2 AND DUP2 SUB PUSH2 0x10D9 JUMPI SWAP2 PUSH1 0x24 CALLDATALOAD SWAP1 DUP2 AND DUP2 SUB PUSH2 0x10D9 JUMPI SWAP1 PUSH1 0x44 CALLDATALOAD SWAP1 JUMP JUMPDEST PUSH1 0xE0 DUP2 ADD SWAP1 DUP2 LT PUSH1 0x1 PUSH1 0x1 PUSH1 0x40 SHL SUB DUP3 GT OR PUSH2 0x1171 JUMPI PUSH1 0x40 MSTORE JUMP JUMPDEST PUSH4 0x4E487B71 PUSH1 0xE0 SHL PUSH1 0x0 MSTORE PUSH1 0x41 PUSH1 0x4 MSTORE PUSH1 0x24 PUSH1 0x0 REVERT JUMPDEST PUSH1 0x20 DUP2 ADD SWAP1 DUP2 LT PUSH1 0x1 PUSH1 0x1 PUSH1 0x40 SHL SUB DUP3 GT OR PUSH2 0x1171 JUMPI PUSH1 0x40 MSTORE JUMP JUMPDEST SWAP1 PUSH1 0x1F DUP1 NOT SWAP2 ADD AND DUP2 ADD SWAP1 DUP2 LT PUSH1 0x1 PUSH1 0x1 PUSH1 0x40 SHL SUB DUP3 GT OR PUSH2 0x1171 JUMPI PUSH1 0x40 MSTORE JUMP JUMPDEST PUSH1 0xE0 SWAP1 PUSH1 0x23 NOT ADD SLT PUSH2 0x10D9 JUMPI PUSH1 0x40 MLOAD SWAP1 PUSH2 0x11DC DUP3 PUSH2 0x1156 JUMP JUMPDEST DUP2 PUSH1 0x24 CALLDATALOAD DUP2 MSTORE PUSH1 0x44 CALLDATALOAD PUSH1 0xFF DUP2 AND DUP2 SUB PUSH2 0x10D9 JUMPI PUSH1 0x20 DUP3 ADD MSTORE PUSH1 0x64 CALLDATALOAD PUSH1 0xFF DUP2 AND DUP2 SUB PUSH2 0x10D9 JUMPI PUSH1 0x40 DUP3 ADD MSTORE PUSH1 0x84 CALLDATALOAD PUSH1 0x1 PUSH1 0x1 PUSH1 0x40 SHL SUB DUP2 AND DUP2 SUB PUSH2 0x10D9 JUMPI PUSH1 0x60 DUP3 ADD MSTORE PUSH1 0xA4 CALLDATALOAD DUP1 ISZERO ISZERO DUP2 SUB PUSH2 0x10D9 JUMPI PUSH1 0x80 DUP3 ADD MSTORE PUSH1 0xC4 CALLDATALOAD PUSH1 0xA0 DUP3 ADD MSTORE PUSH1 0xE4 CALLDATALOAD SWAP1 PUSH2 0xFFFF DUP3 AND DUP3 SUB PUSH2 0x10D9 JUMPI PUSH1 0xC0 ADD MSTORE JUMP JUMPDEST PUSH1 0x1 PUSH1 0x1 PUSH1 0x40 SHL SUB DUP2 GT PUSH2 0x1171 JUMPI PUSH1 0x1F ADD PUSH1 0x1F NOT AND PUSH1 0x20 ADD SWAP1 JUMP JUMPDEST SWAP1 PUSH1 0x1 DUP3 DUP2 SHR SWAP3 AND DUP1 ISZERO PUSH2 0x1297 JUMPI JUMPDEST PUSH1 0x20 DUP4 LT EQ PUSH2 0x1281 JUMPI JUMP JUMPDEST PUSH4 0x4E487B71 PUSH1 0xE0 SHL PUSH1 0x0 MSTORE PUSH1 0x22 PUSH1 0x4 MSTORE PUSH1 0x24 PUSH1 0x0 REVERT JUMPDEST SWAP2 PUSH1 0x7F AND SWAP2 PUSH2 0x1276 JUMP JUMPDEST ISZERO PUSH2 0x12A8 JUMPI JUMP JUMPDEST PUSH1 0x40 MLOAD PUSH3 0x461BCD PUSH1 0xE5 SHL DUP2 MSTORE PUSH1 0x20 PUSH1 0x4 DUP3 ADD MSTORE PUSH1 0x10 PUSH1 0x24 DUP3 ADD MSTORE PUSH16 0x6F6E6C79206D61726B6574706C616365 PUSH1 0x80 SHL PUSH1 0x44 DUP3 ADD MSTORE PUSH1 0x64 SWAP1 REVERT JUMPDEST ISZERO PUSH2 0x12E7 JUMPI JUMP JUMPDEST PUSH1 0x40 MLOAD PUSH3 0x461BCD PUSH1 0xE5 SHL DUP2 MSTORE PUSH1 0x20 PUSH1 0x4 DUP3 ADD MSTORE PUSH1 0xA PUSH1 0x24 DUP3 ADD MSTORE PUSH10 0x6E6F7420657869737473 PUSH1 0xB0 SHL PUSH1 0x44 DUP3 ADD MSTORE PUSH1 0x64 SWAP1 REVERT JUMPDEST PUSH1 0x1 PUSH1 0x1 PUSH1 0xA0 SHL SUB SWAP2 DUP3 AND SWAP3 SWAP1 SWAP2 DUP4 ISZERO PUSH2 0x1506 JUMPI PUSH1 0x0 SWAP3 DUP3 DUP5 MSTORE PUSH1 0x20 SWAP5 PUSH1 0x2 DUP7 MSTORE PUSH1 0x40 SWAP6 DUP7 DUP5 DUP2 DUP9 KECCAK256 SLOAD AND SWAP7 CALLER ISZERO ISZERO DUP1 PUSH2 0x1476 JUMPI JUMPDEST POP DUP8 ISZERO ISZERO DUP1 PUSH2 0x1443 JUMPI JUMPDEST DUP5 DUP3 MSTORE PUSH1 0x3 DUP5 MSTORE DUP3 DUP3 KECCAK256 DUP1 SLOAD PUSH1 0x1 ADD SWAP1 SSTORE DUP8 DUP3 MSTORE PUSH1 0x2 DUP5 MSTORE DUP3 DUP3 KECCAK256 DUP1 SLOAD PUSH1 0x1 PUSH1 0x1 PUSH1 0xA0 SHL SUB NOT AND DUP7 OR SWAP1 SSTORE DUP3 MLOAD SWAP5 DUP9 SWAP1 DUP11 PUSH32 0xDDF252AD1BE2C89B69C2B068FC378DAA952BA7F163C4A11628F55A4DF523B3EF DUP6 DUP1 LOG4 DUP1 PUSH2 0x143B JUMPI JUMPDEST PUSH2 0x13EC JUMPI JUMPDEST POP POP POP POP AND SWAP3 DUP4 DUP4 SUB PUSH2 0x13CB JUMPI POP POP POP POP JUMP JUMPDEST PUSH1 0x64 SWAP5 POP MLOAD SWAP3 PUSH4 0x64283D7B PUSH1 0xE0 SHL DUP5 MSTORE PUSH1 0x4 DUP5 ADD MSTORE PUSH1 0x24 DUP4 ADD MSTORE PUSH1 0x44 DUP3 ADD MSTORE REVERT JUMPDEST PUSH1 0x9 DUP4 MSTORE KECCAK256 PUSH1 0x1 ADD SLOAD PUSH1 0x50 SHR PUSH1 0xFF AND ISZERO PUSH2 0x1407 JUMPI DUP7 DUP2 PUSH2 0x13B8 JUMP JUMPDEST PUSH3 0x461BCD PUSH1 0xE5 SHL DUP3 MSTORE PUSH1 0x4 DUP3 ADD MSTORE PUSH1 0x10 PUSH1 0x24 DUP3 ADD MSTORE PUSH16 0x6E6F74207472616E7366657261626C65 PUSH1 0x80 SHL PUSH1 0x44 DUP3 ADD MSTORE PUSH1 0x64 SWAP2 POP REVERT JUMPDEST POP PUSH1 0x1 PUSH2 0x13B3 JUMP JUMPDEST PUSH1 0x0 DUP9 DUP2 MSTORE PUSH1 0x4 PUSH1 0x20 MSTORE PUSH1 0x40 SWAP1 KECCAK256 DUP1 SLOAD PUSH1 0x1 PUSH1 0x1 PUSH1 0xA0 SHL SUB NOT AND SWAP1 SSTORE DUP9 DUP3 MSTORE PUSH1 0x3 DUP5 MSTORE DUP3 DUP3 KECCAK256 DUP1 SLOAD PUSH1 0x0 NOT ADD SWAP1 SSTORE PUSH2 0x1358 JUMP JUMPDEST SWAP1 SWAP2 POP DUP1 PUSH2 0x14C5 JUMPI JUMPDEST ISZERO PUSH2 0x148C JUMPI DUP8 SWAP1 CODESIZE PUSH2 0x134E JUMP JUMPDEST DUP8 DUP7 DUP9 PUSH2 0x14A9 JUMPI PUSH1 0x24 SWAP2 MLOAD SWAP1 PUSH4 0x7E273289 PUSH1 0xE0 SHL DUP3 MSTORE PUSH1 0x4 DUP3 ADD MSTORE REVERT JUMPDEST PUSH1 0x44 SWAP2 MLOAD SWAP1 PUSH4 0x177E802F PUSH1 0xE0 SHL DUP3 MSTORE CALLER PUSH1 0x4 DUP4 ADD MSTORE PUSH1 0x24 DUP3 ADD MSTORE REVERT JUMPDEST POP CALLER DUP8 EQ DUP1 ISZERO PUSH2 0x14EA JUMPI JUMPDEST DUP1 PUSH2 0x147F JUMPI POP DUP6 DUP2 MSTORE PUSH1 0x4 DUP3 MSTORE CALLER DUP6 DUP10 DUP4 KECCAK256 SLOAD AND EQ PUSH2 0x147F JUMP JUMPDEST POP DUP7 DUP2 MSTORE PUSH1 0x5 DUP3 MSTORE DUP8 DUP2 KECCAK256 CALLER DUP3 MSTORE DUP3 MSTORE PUSH1 0xFF DUP9 DUP3 KECCAK256 SLOAD AND PUSH2 0x14D0 JUMP JUMPDEST PUSH1 0x40 MLOAD PUSH4 0x32505749 PUSH1 0xE1 SHL DUP2 MSTORE PUSH1 0x0 PUSH1 0x4 DUP3 ADD MSTORE PUSH1 0x24 SWAP1 REVERT JUMPDEST PUSH1 0x0 NOT DUP2 EQ PUSH2 0x152E JUMPI PUSH1 0x1 ADD SWAP1 JUMP JUMPDEST PUSH4 0x4E487B71 PUSH1 0xE0 SHL PUSH1 0x0 MSTORE PUSH1 0x11 PUSH1 0x4 MSTORE PUSH1 0x24 PUSH1 0x0 REVERT JUMPDEST PUSH1 0x0 DUP2 DUP2 MSTORE PUSH1 0x2 PUSH1 0x20 SWAP1 DUP2 MSTORE PUSH1 0x40 DUP1 DUP4 KECCAK256 SLOAD SWAP1 SWAP4 SWAP2 SWAP3 SWAP1 PUSH1 0x1 PUSH1 0x1 PUSH1 0xA0 SHL SUB AND ISZERO PUSH2 0x1888 JUMPI DUP2 DUP2 MSTORE PUSH1 0xB DUP4 MSTORE DUP4 DUP2 KECCAK256 DUP5 MLOAD DUP2 SLOAD SWAP4 SWAP2 DUP2 DUP5 PUSH2 0x1584 DUP8 PUSH2 0x1267 JUMP JUMPDEST SWAP3 DUP4 DUP4 MSTORE PUSH1 0x1 SWAP8 DUP10 DUP10 DUP3 AND SWAP2 DUP3 PUSH1 0x0 EQ PUSH2 0x1868 JUMPI POP POP PUSH1 0x1 EQ PUSH2 0x182A JUMPI JUMPDEST POP PUSH2 0x15AF SWAP3 POP SUB DUP3 PUSH2 0x11A2 JUMP JUMPDEST DUP1 MLOAD PUSH2 0x1821 JUMPI POP DUP5 MLOAD PUSH1 0xA DUP1 SLOAD SWAP2 SWAP5 DUP5 DUP7 PUSH2 0x15C9 DUP6 PUSH2 0x1267 JUMP JUMPDEST SWAP2 DUP3 DUP3 MSTORE DUP10 DUP3 ADD SWAP6 DUP11 DUP6 DUP3 AND SWAP2 DUP3 PUSH1 0x0 EQ PUSH2 0x1806 JUMPI POP POP PUSH1 0x1 EQ PUSH2 0x17AB JUMPI JUMPDEST PUSH2 0x15F4 SWAP3 POP SUB DUP8 PUSH2 0x11A2 JUMP JUMPDEST DUP6 MLOAD ISZERO PUSH2 0x1793 JUMPI DUP5 SWAP4 SWAP1 DUP2 PUSH27 0x184F03E93FF9F4DAA797ED6E38ED64BF6A1F010000000000000000 DUP2 DUP2 DUP2 LT ISZERO PUSH2 0x1785 JUMPI JUMPDEST POP POP PUSH1 0xA SWAP1 DUP10 PUSH14 0x4EE2D6D415B85ACEF8100000000 DUP1 DUP4 LT ISZERO PUSH2 0x1779 JUMPI JUMPDEST POP POP PUSH7 0x2386F26FC10000 DUP1 DUP3 LT ISZERO PUSH2 0x176C JUMPI JUMPDEST POP PUSH4 0x5F5E100 DUP1 DUP3 LT ISZERO PUSH2 0x175F JUMPI JUMPDEST POP PUSH2 0x2710 DUP1 DUP3 LT ISZERO PUSH2 0x1752 JUMPI JUMPDEST POP PUSH1 0x64 DUP2 LT ISZERO PUSH2 0x1744 JUMPI JUMPDEST LT ISZERO PUSH2 0x173B JUMPI JUMPDEST SWAP1 DUP2 PUSH1 0x21 DUP7 PUSH2 0x16AD DUP4 DUP14 SWAP10 ADD PUSH2 0x16A5 PUSH2 0x169C DUP3 PUSH2 0x124C JUMP JUMPDEST SWAP11 MLOAD SWAP11 DUP12 PUSH2 0x11A2 JUMP JUMPDEST DUP1 DUP11 MSTORE PUSH2 0x124C JUMP JUMPDEST DUP9 DUP13 ADD SWAP10 SWAP1 PUSH1 0x1F NOT ADD CALLDATASIZE DUP12 CALLDATACOPY POP DUP8 ADD ADD SWAP1 JUMPDEST PUSH2 0x1705 JUMPI JUMPDEST POP POP POP POP SWAP1 PUSH2 0x16F6 PUSH2 0x1702 SWAP6 SWAP5 SWAP4 SWAP3 PUSH2 0x16E7 SWAP8 MLOAD SWAP8 DUP9 SWAP6 MLOAD DUP1 SWAP3 DUP9 DUP9 ADD SWAP1 PUSH2 0x107B JUMP JUMPDEST DUP5 ADD SWAP2 MLOAD DUP1 SWAP4 DUP7 DUP5 ADD SWAP1 PUSH2 0x107B JUMP JUMPDEST ADD SUB DUP1 DUP5 MSTORE ADD DUP3 PUSH2 0x11A2 JUMP JUMPDEST SWAP1 JUMP JUMPDEST PUSH1 0x0 NOT ADD SWAP1 DUP4 SWAP1 PUSH16 0x181899199A1A9B1B9C1CB0B131B232B3 PUSH1 0x81 SHL DUP3 DUP3 MOD BYTE DUP4 MSTORE8 DIV SWAP2 DUP3 ISZERO PUSH2 0x1736 JUMPI SWAP2 SWAP1 DUP3 PUSH2 0x16BF JUMP JUMPDEST PUSH2 0x16C4 JUMP JUMPDEST DUP1 SWAP5 ADD SWAP4 PUSH2 0x1684 JUMP JUMPDEST PUSH1 0x64 PUSH1 0x2 SWAP2 DIV SWAP7 ADD SWAP6 PUSH2 0x167D JUMP JUMPDEST PUSH1 0x4 SWAP2 DIV SWAP7 ADD SWAP6 CODESIZE PUSH2 0x1672 JUMP JUMPDEST PUSH1 0x8 SWAP2 DIV SWAP7 ADD SWAP6 CODESIZE PUSH2 0x1665 JUMP JUMPDEST PUSH1 0x10 SWAP2 DIV SWAP7 ADD SWAP6 CODESIZE PUSH2 0x1656 JUMP JUMPDEST SWAP8 ADD SWAP7 SWAP1 DIV DUP10 CODESIZE PUSH2 0x1643 JUMP JUMPDEST DUP12 SWAP8 POP DIV SWAP1 POP PUSH1 0xA CODESIZE PUSH2 0x1625 JUMP JUMPDEST POP POP POP POP SWAP3 SWAP2 POP POP MLOAD SWAP1 PUSH2 0x17A6 DUP3 PUSH2 0x1187 JUMP JUMPDEST DUP2 MSTORE SWAP1 JUMP JUMPDEST POP POP PUSH1 0xA DUP7 MSTORE DUP7 DUP9 DUP8 DUP5 PUSH32 0xC65A7BB8D6351C1CF70C95A316CC6A92839C986682D98BC35F958F4883F9D2A8 JUMPDEST DUP6 DUP4 LT PUSH2 0x17ED JUMPI POP POP PUSH2 0x15F4 SWAP4 POP DUP3 ADD ADD PUSH2 0x15E8 JUMP JUMPDEST DUP1 SWAP2 SWAP3 SWAP5 POP SLOAD DUP4 DUP6 DUP14 ADD ADD MSTORE ADD SWAP2 ADD DUP10 SWAP1 DUP5 DUP11 SWAP4 PUSH2 0x17D7 JUMP JUMPDEST PUSH1 0xFF NOT AND DUP9 MSTORE PUSH2 0x15F4 SWAP5 ISZERO ISZERO PUSH1 0x5 SHL DUP5 ADD ADD SWAP2 POP PUSH2 0x15E8 SWAP1 POP JUMP JUMPDEST SWAP5 POP POP POP POP POP SWAP1 JUMP JUMPDEST SWAP2 POP POP DUP5 MSTORE DUP2 DUP7 DUP1 DUP7 KECCAK256 DUP8 DUP8 SWAP2 JUMPDEST DUP6 DUP4 LT PUSH2 0x184F JUMPI POP POP PUSH2 0x15AF SWAP4 POP DUP3 ADD ADD CODESIZE PUSH2 0x15A2 JUMP JUMPDEST DUP1 SWAP2 SWAP3 SWAP5 POP SLOAD DUP4 DUP6 DUP9 ADD ADD MSTORE ADD SWAP2 ADD DUP8 SWAP1 DUP8 DUP6 SWAP4 PUSH2 0x1838 JUMP JUMPDEST PUSH1 0xFF NOT AND DUP6 DUP3 ADD MSTORE PUSH2 0x15AF SWAP6 ISZERO ISZERO PUSH1 0x5 SHL DUP6 ADD ADD SWAP3 POP CODESIZE SWAP2 POP PUSH2 0x15A2 SWAP1 POP JUMP JUMPDEST DUP4 MLOAD PUSH3 0x461BCD PUSH1 0xE5 SHL DUP2 MSTORE PUSH1 0x4 DUP2 ADD DUP5 SWAP1 MSTORE PUSH1 0x2F PUSH1 0x24 DUP3 ADD MSTORE PUSH32 0x4552433732314D657461646174613A2055524920717565727920666F72206E6F PUSH1 0x44 DUP3 ADD MSTORE PUSH15 0x3732BC34B9BA32B73A103A37B5B2B7 PUSH1 0x89 SHL PUSH1 0x64 DUP3 ADD MSTORE PUSH1 0x84 SWAP1 REVERT JUMPDEST PUSH1 0x0 DUP2 DUP2 MSTORE PUSH1 0x2 PUSH1 0x20 MSTORE PUSH1 0x40 SWAP1 KECCAK256 SLOAD PUSH1 0x1 PUSH1 0x1 PUSH1 0xA0 SHL SUB AND SWAP1 DUP2 ISZERO PUSH2 0x1907 JUMPI POP SWAP1 JUMP JUMPDEST PUSH1 0x24 SWAP1 PUSH1 0x40 MLOAD SWAP1 PUSH4 0x7E273289 PUSH1 0xE0 SHL DUP3 MSTORE PUSH1 0x4 DUP3 ADD MSTORE REVERT JUMPDEST PUSH1 0x6 SLOAD PUSH1 0x1 PUSH1 0x1 PUSH1 0xA0 SHL SUB AND CALLER SUB PUSH2 0x1933 JUMPI JUMP JUMPDEST PUSH1 0x40 MLOAD PUSH4 0x118CDAA7 PUSH1 0xE0 SHL DUP2 MSTORE CALLER PUSH1 0x4 DUP3 ADD MSTORE PUSH1 0x24 SWAP1 REVERT JUMPDEST PUSH1 0x40 DUP1 MLOAD PUSH2 0x1958 DUP2 PUSH2 0x1187 JUMP JUMPDEST PUSH1 0x0 DUP1 DUP3 MSTORE SWAP4 PUSH1 0x1 PUSH1 0x1 PUSH1 0xA0 SHL SUB DUP5 DUP2 AND SWAP5 SWAP1 SWAP3 SWAP1 DUP6 ISZERO PUSH2 0x1BC5 JUMPI DUP3 DUP8 MSTORE PUSH1 0x20 SWAP4 PUSH1 0x2 DUP6 MSTORE DUP6 DUP9 KECCAK256 SLOAD AND DUP1 ISZERO ISZERO SWAP1 DUP2 PUSH2 0x1B92 JUMPI JUMPDEST DUP8 DUP10 MSTORE PUSH1 0x3 DUP7 MSTORE DUP7 DUP10 KECCAK256 PUSH1 0x1 DUP2 SLOAD ADD SWAP1 SSTORE DUP5 DUP10 MSTORE PUSH1 0x2 DUP7 MSTORE DUP7 DUP10 KECCAK256 DUP9 PUSH1 0x1 PUSH1 0x1 PUSH1 0x60 SHL SUB PUSH1 0xA0 SHL DUP3 SLOAD AND OR SWAP1 SSTORE DUP5 DUP9 DUP9 MLOAD SWAP3 PUSH32 0xDDF252AD1BE2C89B69C2B068FC378DAA952BA7F163C4A11628F55A4DF523B3EF DUP13 DUP1 LOG4 DUP2 DUP1 PUSH2 0x1B8A JUMPI JUMPDEST PUSH2 0x1B40 JUMPI JUMPDEST POP PUSH2 0x1B28 JUMPI EXTCODESIZE PUSH2 0x1A01 JUMPI JUMPDEST POP POP POP POP POP POP JUMP JUMPDEST DUP3 PUSH2 0x1A3F SWAP2 DUP6 SWAP7 SWAP8 SWAP9 SWAP5 SWAP6 MLOAD DUP1 SWAP4 DUP2 SWAP3 PUSH4 0xA85BD01 PUSH1 0xE1 SHL SWAP7 DUP8 DUP5 MSTORE CALLER PUSH1 0x4 DUP6 ADD MSTORE DUP13 PUSH1 0x24 DUP6 ADD MSTORE PUSH1 0x44 DUP5 ADD MSTORE PUSH1 0x80 PUSH1 0x64 DUP5 ADD MSTORE PUSH1 0x84 DUP4 ADD SWAP1 PUSH2 0x109E JUMP JUMPDEST SUB DUP2 DUP11 DUP11 GAS CALL DUP8 SWAP2 DUP2 PUSH2 0x1AE4 JUMPI JUMPDEST POP PUSH2 0x1AAD JUMPI POP POP POP RETURNDATASIZE PUSH1 0x0 EQ PUSH2 0x1AA4 JUMPI RETURNDATASIZE PUSH2 0x1A67 DUP2 PUSH2 0x124C JUMP JUMPDEST SWAP1 PUSH2 0x1A74 DUP5 MLOAD SWAP3 DUP4 PUSH2 0x11A2 JUMP JUMPDEST DUP2 MSTORE DUP1 SWAP5 DUP3 RETURNDATASIZE SWAP3 ADD RETURNDATACOPY JUMPDEST DUP4 MLOAD SWAP4 DUP5 PUSH2 0x1A9E JUMPI DUP3 MLOAD PUSH4 0x32505749 PUSH1 0xE1 SHL DUP2 MSTORE PUSH1 0x4 DUP2 ADD DUP6 SWAP1 MSTORE PUSH1 0x24 SWAP1 REVERT JUMPDEST DUP5 SWAP3 POP ADD REVERT JUMPDEST PUSH1 0x60 SWAP4 POP PUSH2 0x1A7E JUMP JUMPDEST SWAP2 SWAP6 POP SWAP2 POP PUSH4 0xFFFFFFFF PUSH1 0xE0 SHL AND SUB PUSH2 0x1ACD JUMPI POP POP CODESIZE DUP1 DUP1 DUP1 DUP1 DUP1 PUSH2 0x19F9 JUMP JUMPDEST PUSH1 0x24 SWAP3 POP MLOAD SWAP1 PUSH4 0x32505749 PUSH1 0xE1 SHL DUP3 MSTORE PUSH1 0x4 DUP3 ADD MSTORE REVERT JUMPDEST SWAP1 SWAP2 POP DUP5 DUP2 DUP2 RETURNDATASIZE DUP4 GT PUSH2 0x1B21 JUMPI JUMPDEST PUSH2 0x1AFC DUP2 DUP4 PUSH2 0x11A2 JUMP JUMPDEST DUP2 ADD SUB SLT PUSH2 0x1B1D JUMPI MLOAD PUSH1 0x1 PUSH1 0x1 PUSH1 0xE0 SHL SUB NOT DUP2 AND DUP2 SUB PUSH2 0x1B1D JUMPI SWAP1 CODESIZE PUSH2 0x1A4D JUMP JUMPDEST DUP8 DUP1 REVERT JUMPDEST POP RETURNDATASIZE PUSH2 0x1AF2 JUMP JUMPDEST DUP5 MLOAD PUSH4 0x39E35637 PUSH1 0xE1 SHL DUP2 MSTORE PUSH1 0x4 DUP2 ADD DUP9 SWAP1 MSTORE PUSH1 0x24 SWAP1 REVERT JUMPDEST PUSH1 0x9 DUP7 MSTORE PUSH1 0xFF PUSH1 0x1 DUP9 DUP12 KECCAK256 ADD SLOAD PUSH1 0x50 SHR AND PUSH2 0x19EE JUMPI PUSH3 0x461BCD PUSH1 0xE5 SHL DUP2 MSTORE PUSH1 0x4 DUP2 ADD DUP7 SWAP1 MSTORE PUSH1 0x10 PUSH1 0x24 DUP3 ADD MSTORE PUSH16 0x6E6F74207472616E7366657261626C65 PUSH1 0x80 SHL PUSH1 0x44 DUP3 ADD MSTORE PUSH1 0x64 SWAP1 REVERT JUMPDEST POP PUSH1 0x1 PUSH2 0x19E9 JUMP JUMPDEST PUSH1 0x0 DUP6 DUP2 MSTORE PUSH1 0x4 PUSH1 0x20 MSTORE PUSH1 0x40 SWAP1 KECCAK256 DUP1 SLOAD PUSH1 0x1 PUSH1 0x1 PUSH1 0xA0 SHL SUB NOT AND SWAP1 SSTORE DUP1 DUP10 MSTORE PUSH1 0x3 DUP7 MSTORE DUP7 DUP10 KECCAK256 DUP1 SLOAD PUSH1 0x0 NOT ADD SWAP1 SSTORE PUSH2 0x198C JUMP JUMPDEST DUP5 MLOAD PUSH4 0x32505749 PUSH1 0xE1 SHL DUP2 MSTORE PUSH1 0x4 DUP2 ADD DUP9 SWAP1 MSTORE PUSH1 0x24 SWAP1 REVERT JUMPDEST SWAP1 SWAP4 SWAP2 SWAP3 DUP4 EXTCODESIZE PUSH2 0x1BEF JUMPI JUMPDEST POP POP POP POP POP JUMP JUMPDEST PUSH1 0x40 MLOAD PUSH4 0xA85BD01 PUSH1 0xE1 SHL DUP1 DUP3 MSTORE PUSH1 0x1 PUSH1 0x1 PUSH1 0xA0 SHL SUB SWAP4 DUP5 AND PUSH1 0x4 DUP4 ADD MSTORE SWAP6 DUP4 AND PUSH1 0x24 DUP3 ADD MSTORE PUSH1 0x44 DUP2 ADD SWAP2 SWAP1 SWAP2 MSTORE PUSH1 0x80 PUSH1 0x64 DUP3 ADD MSTORE SWAP5 SWAP3 AND SWAP3 PUSH1 0x20 SWAP3 SWAP2 DUP6 SWAP1 PUSH2 0x1C3C SWAP1 PUSH1 0x84 DUP4 ADD SWAP1 PUSH2 0x109E JUMP JUMPDEST SUB SWAP5 DUP4 DUP2 PUSH1 0x0 SWAP8 DUP2 DUP10 DUP10 GAS CALL DUP7 SWAP2 DUP2 PUSH2 0x1CE7 JUMPI JUMPDEST POP PUSH2 0x1CB1 JUMPI POP POP POP RETURNDATASIZE PUSH1 0x0 EQ PUSH2 0x1CA8 JUMPI RETURNDATASIZE PUSH2 0x1C6A DUP2 PUSH2 0x124C JUMP JUMPDEST SWAP1 PUSH2 0x1C78 PUSH1 0x40 MLOAD SWAP3 DUP4 PUSH2 0x11A2 JUMP JUMPDEST DUP2 MSTORE DUP1 SWAP4 DUP3 RETURNDATASIZE SWAP3 ADD RETURNDATACOPY JUMPDEST DUP3 MLOAD SWAP3 DUP4 PUSH2 0x1CA3 JUMPI PUSH1 0x40 MLOAD PUSH4 0x32505749 PUSH1 0xE1 SHL DUP2 MSTORE PUSH1 0x4 DUP2 ADD DUP5 SWAP1 MSTORE PUSH1 0x24 SWAP1 REVERT JUMPDEST ADD SWAP1 POP REVERT JUMPDEST PUSH1 0x60 SWAP3 POP PUSH2 0x1C82 JUMP JUMPDEST SWAP2 SWAP5 POP SWAP2 POP PUSH4 0xFFFFFFFF PUSH1 0xE0 SHL AND SUB PUSH2 0x1CCF JUMPI POP CODESIZE DUP1 DUP1 DUP1 DUP1 PUSH2 0x1BE8 JUMP JUMPDEST PUSH1 0x24 SWAP1 PUSH1 0x40 MLOAD SWAP1 PUSH4 0x32505749 PUSH1 0xE1 SHL DUP3 MSTORE PUSH1 0x4 DUP3 ADD MSTORE REVERT JUMPDEST SWAP1 SWAP2 POP DUP5 DUP2 DUP2 RETURNDATASIZE DUP4 GT PUSH2 0x1D24 JUMPI JUMPDEST PUSH2 0x1CFF DUP2 DUP4 PUSH2 0x11A2 JUMP JUMPDEST DUP2 ADD SUB SLT PUSH2 0x1D20 JUMPI MLOAD PUSH1 0x1 PUSH1 0x1 PUSH1 0xE0 SHL SUB NOT DUP2 AND DUP2 SUB PUSH2 0x1D20 JUMPI SWAP1 CODESIZE PUSH2 0x1C50 JUMP JUMPDEST DUP7 DUP1 REVERT JUMPDEST POP RETURNDATASIZE PUSH2 0x1CF5 JUMP INVALID LOG2 PUSH5 0x6970667358 0x22 SLT KECCAK256 MCOPY 0xB1 0xA5 EXTCODESIZE 0xD0 DUP13 0xF9 0x4E 0xFC 0xC5 LOG2 0x26 0xA6 PUSH7 0x3D836443B21ECA SWAP12 MULMOD RETURNDATACOPY EXTCODECOPY SWAP11 SAR BLOCKHASH 0xA9 LOG2 0xB1 NUMBER PUSH5 0x736F6C6343 STOP ADDMOD XOR STOP CALLER "},"methodIdentifiers":{"approve(address,uint256)":"095ea7b3","balanceOf(address)":"70a08231","getApproved(uint256)":"081812fc","getLicense(uint256)":"b2dd1212","isApprovedForAll(address,address)":"e985e9c5","marketplace()":"abc8c7af","mint(address,(uint256,uint8,uint8,uint64,bool,bytes32,uint16))":"849b1b7e","mintWithURI(address,(uint256,uint8,uint8,uint64,bool,bytes32,uint16),string)":"b03fbfbb","name()":"06fdde03","owner()":"8da5cb5b","ownerOf(uint256)":"6352211e","renounceOwnership()":"715018a6","safeTransferFrom(address,address,uint256)":"42842e0e","safeTransferFrom(address,address,uint256,bytes)":"b88d4fde","setApprovalForAll(address,bool)":"a22cb465","setBaseURI(string)":"55f804b3","setMarketplace(address)":"73ad6c2d","setTokenURI(uint256,string)":"162094c4","supportsInterface(bytes4)":"01ffc9a7","symbol()":"95d89b41","tokenURI(uint256)":"c87b56dd","totalSupply()":"18160ddd","transferFrom(address,address,uint256)":"23b872dd","transferOwnership(address)":"f2fde38b","updateExpires(uint256,uint64)":"fe5eb754"}}}}}