{"contracts/AgentRegistryV2.sol":{"AgentRegistryV2":{"abi":[{"inputs":[{"internalType":"address","name":"_marketplace","type":"address"}],"stateMutability":"nonpayable","type":"constructor"},{"inputs":[],"name":"AgentAlreadyExists","type":"error"},{"inputs":[],"name":"AgentNotActive","type":"error"},{"inputs":[],"name":"ContractNotAllowed","type":"error"},{"inputs":[{"internalType":"address","name":"sender","type":"address"},{"internalType":"uint256","name":"tokenId","type":"uint256"},{"internalType":"address","name":"owner","type":"address"}],"name":"ERC721IncorrectOwner","type":"error"},{"inputs":[{"internalType":"address","name":"operator","type":"address"},{"internalType":"uint256","name":"tokenId","type":"uint256"}],"name":"ERC721InsufficientApproval","type":"error"},{"inputs":[{"internalType":"address","name":"approver","type":"address"}],"name":"ERC721InvalidApprover","type":"error"},{"inputs":[{"internalType":"address","name":"operator","type":"address"}],"name":"ERC721InvalidOperator","type":"error"},{"inputs":[{"internalType":"address","name":"owner","type":"address"}],"name":"ERC721InvalidOwner","type":"error"},{"inputs":[{"internalType":"address","name":"receiver","type":"address"}],"name":"ERC721InvalidReceiver","type":"error"},{"inputs":[{"internalType":"address","name":"sender","type":"address"}],"name":"ERC721InvalidSender","type":"error"},{"inputs":[{"internalType":"uint256","name":"tokenId","type":"uint256"}],"name":"ERC721NonexistentToken","type":"error"},{"inputs":[],"name":"EndpointTooLong","type":"error"},{"inputs":[],"name":"EnforcedPause","type":"error"},{"inputs":[],"name":"ExpectedPause","type":"error"},{"inputs":[],"name":"InvalidModelId","type":"error"},{"inputs":[],"name":"NoPendingChange","type":"error"},{"inputs":[],"name":"NotAgentOwner","type":"error"},{"inputs":[],"name":"OnlyMarketplace","type":"error"},{"inputs":[{"internalType":"address","name":"owner","type":"address"}],"name":"OwnableInvalidOwner","type":"error"},{"inputs":[{"internalType":"address","name":"account","type":"address"}],"name":"OwnableUnauthorizedAccount","type":"error"},{"inputs":[],"name":"ReentrancyGuardReentrantCall","type":"error"},{"inputs":[],"name":"TimelockNotExpired","type":"error"},{"inputs":[],"name":"URITooLong","type":"error"},{"inputs":[],"name":"ZeroAddress","type":"error"},{"anonymous":false,"inputs":[{"indexed":true,"internalType":"uint256","name":"agentId","type":"uint256"}],"name":"AgentDeactivated","type":"event"},{"anonymous":false,"inputs":[{"indexed":true,"internalType":"uint256","name":"agentId","type":"uint256"},{"indexed":false,"internalType":"string","name":"endpoint","type":"string"}],"name":"AgentEndpointUpdated","type":"event"},{"anonymous":false,"inputs":[{"indexed":true,"internalType":"uint256","name":"agentId","type":"uint256"},{"indexed":false,"internalType":"string","name":"newUri","type":"string"}],"name":"AgentMetadataUpdated","type":"event"},{"anonymous":false,"inputs":[{"indexed":true,"internalType":"uint256","name":"agentId","type":"uint256"}],"name":"AgentReactivated","type":"event"},{"anonymous":false,"inputs":[{"indexed":true,"internalType":"uint256","name":"agentId","type":"uint256"},{"indexed":true,"internalType":"address","name":"owner","type":"address"},{"indexed":true,"internalType":"uint256","name":"modelId","type":"uint256"},{"indexed":false,"internalType":"string","name":"metadataUri","type":"string"}],"name":"AgentRegistered","type":"event"},{"anonymous":false,"inputs":[{"indexed":true,"internalType":"uint256","name":"agentId","type":"uint256"},{"indexed":true,"internalType":"address","name":"owner","type":"address"},{"indexed":true,"internalType":"uint256","name":"modelId","type":"uint256"},{"indexed":false,"internalType":"address","name":"registeredBy","type":"address"}],"name":"AgentRegisteredFor","type":"event"},{"anonymous":false,"inputs":[{"indexed":true,"internalType":"uint256","name":"agentId","type":"uint256"},{"indexed":false,"internalType":"address","name":"oldWallet","type":"address"},{"indexed":false,"internalType":"address","name":"newWallet","type":"address"},{"indexed":false,"internalType":"uint256","name":"effectiveAt","type":"uint256"}],"name":"AgentWalletChangeRequested","type":"event"},{"anonymous":false,"inputs":[{"indexed":true,"internalType":"uint256","name":"agentId","type":"uint256"},{"indexed":false,"internalType":"address","name":"oldWallet","type":"address"},{"indexed":false,"internalType":"address","name":"newWallet","type":"address"}],"name":"AgentWalletChanged","type":"event"},{"anonymous":false,"inputs":[{"indexed":true,"internalType":"address","name":"owner","type":"address"},{"indexed":true,"internalType":"address","name":"approved","type":"address"},{"indexed":true,"internalType":"uint256","name":"tokenId","type":"uint256"}],"name":"Approval","type":"event"},{"anonymous":false,"inputs":[{"indexed":true,"internalType":"address","name":"owner","type":"address"},{"indexed":true,"internalType":"address","name":"operator","type":"address"},{"indexed":false,"internalType":"bool","name":"approved","type":"bool"}],"name":"ApprovalForAll","type":"event"},{"anonymous":false,"inputs":[{"indexed":false,"internalType":"uint256","name":"_fromTokenId","type":"uint256"},{"indexed":false,"internalType":"uint256","name":"_toTokenId","type":"uint256"}],"name":"BatchMetadataUpdate","type":"event"},{"anonymous":false,"inputs":[{"indexed":true,"internalType":"address","name":"newMarketplace","type":"address"}],"name":"MarketplaceUpdated","type":"event"},{"anonymous":false,"inputs":[{"indexed":false,"internalType":"uint256","name":"_tokenId","type":"uint256"}],"name":"MetadataUpdate","type":"event"},{"anonymous":false,"inputs":[{"indexed":true,"internalType":"address","name":"previousOwner","type":"address"},{"indexed":true,"internalType":"address","name":"newOwner","type":"address"}],"name":"OwnershipTransferStarted","type":"event"},{"anonymous":false,"inputs":[{"indexed":true,"internalType":"address","name":"previousOwner","type":"address"},{"indexed":true,"internalType":"address","name":"newOwner","type":"address"}],"name":"OwnershipTransferred","type":"event"},{"anonymous":false,"inputs":[{"indexed":false,"internalType":"address","name":"account","type":"address"}],"name":"Paused","type":"event"},{"anonymous":false,"inputs":[{"indexed":true,"internalType":"address","name":"from","type":"address"},{"indexed":true,"internalType":"address","name":"to","type":"address"},{"indexed":true,"internalType":"uint256","name":"tokenId","type":"uint256"}],"name":"Transfer","type":"event"},{"anonymous":false,"inputs":[{"indexed":false,"internalType":"address","name":"account","type":"address"}],"name":"Unpaused","type":"event"},{"inputs":[],"name":"MAX_ENDPOINT_LENGTH","outputs":[{"internalType":"uint256","name":"","type":"uint256"}],"stateMutability":"view","type":"function"},{"inputs":[],"name":"MAX_URI_LENGTH","outputs":[{"internalType":"uint256","name":"","type":"uint256"}],"stateMutability":"view","type":"function"},{"inputs":[],"name":"TIMELOCK_DELAY","outputs":[{"internalType":"uint256","name":"","type":"uint256"}],"stateMutability":"view","type":"function"},{"inputs":[],"name":"acceptOwnership","outputs":[],"stateMutability":"nonpayable","type":"function"},{"inputs":[{"internalType":"uint256","name":"","type":"uint256"}],"name":"agents","outputs":[{"internalType":"uint256","name":"modelId","type":"uint256"},{"internalType":"address","name":"wallet","type":"address"},{"internalType":"string","name":"endpoint","type":"string"},{"internalType":"uint256","name":"registeredAt","type":"uint256"},{"internalType":"bool","name":"active","type":"bool"}],"stateMutability":"view","type":"function"},{"inputs":[{"internalType":"address","name":"to","type":"address"},{"internalType":"uint256","name":"tokenId","type":"uint256"}],"name":"approve","outputs":[],"stateMutability":"nonpayable","type":"function"},{"inputs":[{"internalType":"address","name":"owner","type":"address"}],"name":"balanceOf","outputs":[{"internalType":"uint256","name":"","type":"uint256"}],"stateMutability":"view","type":"function"},{"inputs":[{"internalType":"uint256","name":"agentId","type":"uint256"}],"name":"cancelWalletChange","outputs":[],"stateMutability":"nonpayable","type":"function"},{"inputs":[{"internalType":"uint256","name":"agentId","type":"uint256"}],"name":"deactivate","outputs":[],"stateMutability":"nonpayable","type":"function"},{"inputs":[{"internalType":"uint256","name":"agentId","type":"uint256"}],"name":"executeWalletChange","outputs":[],"stateMutability":"nonpayable","type":"function"},{"inputs":[{"internalType":"uint256","name":"agentId","type":"uint256"}],"name":"getAgent","outputs":[{"components":[{"internalType":"uint256","name":"modelId","type":"uint256"},{"internalType":"address","name":"wallet","type":"address"},{"internalType":"string","name":"endpoint","type":"string"},{"internalType":"uint256","name":"registeredAt","type":"uint256"},{"internalType":"bool","name":"active","type":"bool"}],"internalType":"struct AgentRegistryV2.Agent","name":"","type":"tuple"}],"stateMutability":"view","type":"function"},{"inputs":[{"internalType":"uint256","name":"modelId","type":"uint256"}],"name":"getAgentByModel","outputs":[{"internalType":"uint256","name":"","type":"uint256"}],"stateMutability":"view","type":"function"},{"inputs":[{"internalType":"uint256","name":"tokenId","type":"uint256"}],"name":"getApproved","outputs":[{"internalType":"address","name":"","type":"address"}],"stateMutability":"view","type":"function"},{"inputs":[{"internalType":"uint256","name":"agentId","type":"uint256"}],"name":"getEndpoint","outputs":[{"internalType":"string","name":"","type":"string"}],"stateMutability":"view","type":"function"},{"inputs":[{"internalType":"uint256","name":"agentId","type":"uint256"}],"name":"getPaymentWallet","outputs":[{"internalType":"address","name":"","type":"address"}],"stateMutability":"view","type":"function"},{"inputs":[{"internalType":"address","name":"owner","type":"address"},{"internalType":"address","name":"operator","type":"address"}],"name":"isApprovedForAll","outputs":[{"internalType":"bool","name":"","type":"bool"}],"stateMutability":"view","type":"function"},{"inputs":[{"internalType":"uint256","name":"agentId","type":"uint256"}],"name":"isValidAgent","outputs":[{"internalType":"bool","name":"","type":"bool"}],"stateMutability":"view","type":"function"},{"inputs":[],"name":"marketplace","outputs":[{"internalType":"address","name":"","type":"address"}],"stateMutability":"view","type":"function"},{"inputs":[{"internalType":"uint256","name":"","type":"uint256"}],"name":"modelToAgent","outputs":[{"internalType":"uint256","name":"","type":"uint256"}],"stateMutability":"view","type":"function"},{"inputs":[],"name":"name","outputs":[{"internalType":"string","name":"","type":"string"}],"stateMutability":"view","type":"function"},{"inputs":[],"name":"nextAgentId","outputs":[{"internalType":"uint256","name":"","type":"uint256"}],"stateMutability":"view","type":"function"},{"inputs":[],"name":"owner","outputs":[{"internalType":"address","name":"","type":"address"}],"stateMutability":"view","type":"function"},{"inputs":[{"internalType":"uint256","name":"tokenId","type":"uint256"}],"name":"ownerOf","outputs":[{"internalType":"address","name":"","type":"address"}],"stateMutability":"view","type":"function"},{"inputs":[],"name":"pause","outputs":[],"stateMutability":"nonpayable","type":"function"},{"inputs":[],"name":"paused","outputs":[{"internalType":"bool","name":"","type":"bool"}],"stateMutability":"view","type":"function"},{"inputs":[],"name":"pendingOwner","outputs":[{"internalType":"address","name":"","type":"address"}],"stateMutability":"view","type":"function"},{"inputs":[{"internalType":"uint256","name":"","type":"uint256"}],"name":"pendingWalletChanges","outputs":[{"internalType":"address","name":"newWallet","type":"address"},{"internalType":"uint256","name":"effectiveAt","type":"uint256"}],"stateMutability":"view","type":"function"},{"inputs":[{"internalType":"uint256","name":"agentId","type":"uint256"}],"name":"reactivate","outputs":[],"stateMutability":"nonpayable","type":"function"},{"inputs":[{"internalType":"uint256","name":"modelId","type":"uint256"},{"internalType":"address","name":"wallet","type":"address"},{"internalType":"string","name":"endpoint","type":"string"},{"internalType":"string","name":"metadataUri","type":"string"}],"name":"registerAgent","outputs":[{"internalType":"uint256","name":"agentId","type":"uint256"}],"stateMutability":"nonpayable","type":"function"},{"inputs":[{"internalType":"address","name":"owner","type":"address"},{"internalType":"uint256","name":"modelId","type":"uint256"},{"internalType":"address","name":"wallet","type":"address"},{"internalType":"string","name":"endpoint","type":"string"},{"internalType":"string","name":"metadataUri","type":"string"}],"name":"registerAgentFor","outputs":[{"internalType":"uint256","name":"agentId","type":"uint256"}],"stateMutability":"nonpayable","type":"function"},{"inputs":[],"name":"renounceOwnership","outputs":[],"stateMutability":"nonpayable","type":"function"},{"inputs":[{"internalType":"uint256","name":"agentId","type":"uint256"},{"internalType":"address","name":"newWallet","type":"address"}],"name":"requestWalletChange","outputs":[],"stateMutability":"nonpayable","type":"function"},{"inputs":[{"internalType":"address","name":"from","type":"address"},{"internalType":"address","name":"to","type":"address"},{"internalType":"uint256","name":"tokenId","type":"uint256"}],"name":"safeTransferFrom","outputs":[],"stateMutability":"nonpayable","type":"function"},{"inputs":[{"internalType":"address","name":"from","type":"address"},{"internalType":"address","name":"to","type":"address"},{"internalType":"uint256","name":"tokenId","type":"uint256"},{"internalType":"bytes","name":"data","type":"bytes"}],"name":"safeTransferFrom","outputs":[],"stateMutability":"nonpayable","type":"function"},{"inputs":[{"internalType":"address","name":"operator","type":"address"},{"internalType":"bool","name":"approved","type":"bool"}],"name":"setApprovalForAll","outputs":[],"stateMutability":"nonpayable","type":"function"},{"inputs":[{"internalType":"address","name":"_marketplace","type":"address"}],"name":"setMarketplace","outputs":[],"stateMutability":"nonpayable","type":"function"},{"inputs":[{"internalType":"bytes4","name":"interfaceId","type":"bytes4"}],"name":"supportsInterface","outputs":[{"internalType":"bool","name":"","type":"bool"}],"stateMutability":"view","type":"function"},{"inputs":[],"name":"symbol","outputs":[{"internalType":"string","name":"","type":"string"}],"stateMutability":"view","type":"function"},{"inputs":[{"internalType":"uint256","name":"tokenId","type":"uint256"}],"name":"tokenURI","outputs":[{"internalType":"string","name":"","type":"string"}],"stateMutability":"view","type":"function"},{"inputs":[{"internalType":"address","name":"from","type":"address"},{"internalType":"address","name":"to","type":"address"},{"internalType":"uint256","name":"tokenId","type":"uint256"}],"name":"transferFrom","outputs":[],"stateMutability":"nonpayable","type":"function"},{"inputs":[{"internalType":"address","name":"newOwner","type":"address"}],"name":"transferOwnership","outputs":[],"stateMutability":"nonpayable","type":"function"},{"inputs":[],"name":"unpause","outputs":[],"stateMutability":"nonpayable","type":"function"},{"inputs":[{"internalType":"uint256","name":"agentId","type":"uint256"},{"internalType":"string","name":"newEndpoint","type":"string"},{"internalType":"address","name":"newWallet","type":"address"}],"name":"updateAgentFor","outputs":[],"stateMutability":"nonpayable","type":"function"},{"inputs":[{"internalType":"uint256","name":"agentId","type":"uint256"},{"internalType":"string","name":"newEndpoint","type":"string"}],"name":"updateEndpoint","outputs":[],"stateMutability":"nonpayable","type":"function"},{"inputs":[{"internalType":"uint256","name":"agentId","type":"uint256"},{"internalType":"string","name":"newUri","type":"string"}],"name":"updateMetadata","outputs":[],"stateMutability":"nonpayable","type":"function"},{"inputs":[{"internalType":"uint256","name":"agentId","type":"uint256"},{"internalType":"string","name":"newMetadataUri","type":"string"}],"name":"updateMetadataFor","outputs":[],"stateMutability":"nonpayable","type":"function"}],"evm":{"bytecode":{"linkReferences":{},"object":"608034620003f8576001600160401b0390601f1990601f9062002a99388190038381018516830186811184821017620003e257839282916040528339602092839181010312620003f857516001600160a01b038082169590939091869003620003f8576200006c620003fd565b92600f84526e2bb0b9b4a0a49020b3b2b73a102b1960891b8185015262000092620003fd565b90600b82526a2ba0a9a496a0a3a2a72a1960a91b81830152845196848811620003e2576000978854966001978881811c91168015620003d7575b85821014620003c35790818784931162000370575b5084908783116001146200030f578b9262000303575b5050600019600383901b1c191690871b1788555b8251948511620002ef5785548681811c91168015620002e4575b83821014620002d05790818587969594931162000277575b508193851160011462000212575050869262000206575b5050600019600383901b1c191690821b1781555b3315620001ed5760018060a01b03199283600854166008556007549033858316176007557f8be0079c531659141344cd1fd0a4f28419497f9722a3daafe3b4186f6b6457e0604051943393169180a380600955600b558215620001de5750600e541617600e5560405161267b90816200041e8239f35b63d92e233d60e01b8152600490fd5b604051631e4fbdf760e01b815260048101849052602490fd5b01519050388062000154565b869593929193168589528389209389905b8282106200025d575050841162000243575b505050811b01815562000168565b015160001960f88460031b161c1916905538808062000235565b848401518655889790950194938401939081019062000223565b9091929394508689528289208580880160051c820192858910620002c6575b9188978a9297969594930160051c01915b828110620002b75750506200013d565b8b8155889750899101620002a7565b9250819262000296565b634e487b7160e01b89526022600452602489fd5b90607f169062000125565b634e487b7160e01b88526041600452602488fd5b015190503880620000f7565b90848a9416918c8052868d20928d5b888282106200035957505084116200033f575b505050811b0188556200010b565b015160001960f88460031b161c1916905538808062000331565b8385015186558d979095019493840193016200031e565b9091508a8052848b208780850160051c820192878610620003b9575b918b91869594930160051c01915b828110620003aa575050620000e1565b8d81558594508b91016200039a565b925081926200038c565b634e487b7160e01b8b52602260045260248bfd5b90607f1690620000cc565b634e487b7160e01b600052604160045260246000fd5b600080fd5b60408051919082016001600160401b03811183821017620003e25760405256fe608080604052600436101561001357600080fd5b60003560e01c90816301ffc9a714611b3b5750806306fdde0314611a90578063081812fc14611a52578063095ea7b31461196b57806309df30ec146118f2578063173e79bb1461039857806323b872dd146118db578063251f3b7e1461166c5780632de5aaf71461158c57806330efc4981461156e57806337a1b7191461126a5780633bda90a3146110475780633f4ba83a14610fdd57806342842e0e14610faf5780634afc374c14610f87578063513856c814610f0857806353c8388e14610e9757806354fec77214610d225780635ba1c1a914610d045780635c975abb14610ce15780636352211e14610cb15780636bb2440114610ba65780636ca7c09814610a9a57806370a0823114610a41578063715018a6146109da57806373ad6c2d1461095f57806379ba5097146108db5780638456cb59146108815780638da5cb5b14610858578063916b9bef146107e2578063937bbc4a1461079f57806395d89b41146106bc578063a22cb4651461060e578063aab5a877146105f1578063abc8c7af146105c8578063b2d8593d146104f1578063b88d4fde14610484578063c85d3eb014610467578063c87b56dd1461040e578063c890c380146103c4578063d58e0c9e14610398578063dbd7e94914610361578063e30c397814610338578063e985e9c5146102e2578063f2fde38b146102755763f96560b41461021957600080fd5b3461027057602036600319011261027057600435610236816120df565b336001600160a01b039091160361025e576000908152600f6020526040812081815560010155005b604051630e41dcbf60e21b8152600490fd5b600080fd5b346102705760203660031901126102705761028e611c00565b6102966124c3565b600880546001600160a01b0319166001600160a01b039283169081179091556007549091167f38d16b8cac22d99fc7c124b9cd0de2d3fa1faef420bfe791d8c362d765e22700600080a3005b34610270576040366003190112610270576102fb611c00565b610303611c16565b9060018060a01b03809116600052600560205260406000209116600052602052602060ff604060002054166040519015158152f35b34610270576000366003190112610270576008546040516001600160a01b039091168152602090f35b3461027057602036600319011261027057600435600052600c602052602060018060a01b0360016040600020015416604051908152f35b3461027057602036600319011261027057600435600052600d6020526020604060002054604051908152f35b34610270576020366003190112610270576004356000908152600f6020908152604091829020805460019091015483516001600160a01b03909216825291810191909152f35b0390f35b346102705760203660031901126102705760043561042b816120df565b50600052600660205261040a6104446040600020611d50565b600060405161045281611d14565b52604051918291602083526020830190611bc0565b346102705760003660031901126102705760206040516101008152f35b346102705760803660031901126102705761049d611c00565b6104a5611c16565b90604435606435926001600160401b0384116102705736602385011215610270576104dd6104ef943690602481600401359101611e43565b926104e9838383611e7a565b336124d7565b005b34610270576104ff36611df5565b600e546001600160a01b031633036105b657610519612138565b61052161211a565b821580156105aa575b610598576102008111610586577f859fac2fc059a2fa38efe7236e1c16278c1519298d62dd05582ff7fa392a10459161056d610567368484611e43565b85612389565b61057c60405192839283612081565b0390a26001600955005b6040516322e3481360e21b8152600490fd5b604051636979d35160e11b8152600490fd5b50600b5483101561052a565b604051632b35006d60e21b8152600490fd5b3461027057600036600319011261027057600e546040516001600160a01b039091168152602090f35b346102705760003660031901126102705760206040516102008152f35b3461027057604036600319011261027057610627611c00565b6024359081151590818303610270576001600160a01b03169182156106a3576106759033600052600560205260406000208460005260205260406000209060ff801983541691151516179055565b6040519081527f17307eab39ab6107e8899845ad3d59bd9653f200f220920489ca2b5937696c3160203392a3005b604051630b61174360e31b815260048101849052602490fd5b34610270576000366003190112610270576040516000600182600154926106e284611ca4565b928383526020948560018216918260001461077f575050600114610722575b5061070e92500383611d2f565b61040a604051928284938452830190611bc0565b84915060016000527fb10e2d527612073b26eecdfd717e6a320cf44b4afac2b0732d9fcbe2b7fa0cf6906000915b85831061076757505061070e935082010185610701565b80548389018501528794508693909201918101610750565b60ff19168582015261070e95151560051b85010192508791506107019050565b3461027057602036600319011261027057600435600052600c60205261040a6107ce6002604060002001611d50565b604051918291602083526020830190611bc0565b34610270576020366003190112610270576004356107fe61211a565b610807816120df565b336001600160a01b039091160361025e5780600052600c602052600460406000200160ff1981541690557fc2fb7f8575ac3990e70361684edfc4d283931ea9a03dfa28766bf376a3934aa2600080a2005b34610270576000366003190112610270576007546040516001600160a01b039091168152602090f35b346102705760003660031901126102705761089a6124c3565b6108a261211a565b600160ff19600a541617600a557f62e78cea01bee320cd4e420270b5ea74000d11b0c9f74754ebdbfc544b05a2586020604051338152a1005b34610270576000366003190112610270576008546001600160a01b033381831603610947576001600160601b0360a01b8092166008556007549133908316176007553391167f8be0079c531659141344cd1fd0a4f28419497f9722a3daafe3b4186f6b6457e0600080a3005b60405163118cdaa760e01b8152336004820152602490fd5b3461027057602036600319011261027057610978611c00565b6109806124c3565b6001600160a01b031680156109c857600e80546001600160a01b031916821790557f210690abd7fd6cdbb8f2beb202b2a253d58d7a0813b2175c4172c14c0c1af6dc600080a2005b60405163d92e233d60e01b8152600490fd5b34610270576000366003190112610270576109f36124c3565b600880546001600160a01b03199081169091556007805491821690556000906001600160a01b03167f8be0079c531659141344cd1fd0a4f28419497f9722a3daafe3b4186f6b6457e08280a3005b34610270576020366003190112610270576001600160a01b03610a62611c00565b168015610a815760005260036020526020604060002054604051908152f35b6040516322718ad960e21b815260006004820152602490fd5b3461027057602036600319011261027057600435610ab7816120df565b6001600160a01b0390339082160361025e5781600052600f602052604060002090600160405192610ae784611cf9565b8281541684520154602083019080825215610b9457514210610b82576000838152600c602090815260408083206001908101805487516001600160a01b0319821690881617909155600f845282852085815590910193909355935184516001600160a01b03938516841681529316909116908201527f0d116ddfe3ce0d19970e3748d0e65b606d6a7996e8ace22f241e3ba27cd1e3279190a2005b60405163621e25c360e01b8152600490fd5b60405163147fde5f60e31b8152600490fd5b3461027057604036600319011261027057600435610bc2611c16565b610bca61211a565b610bd3826120df565b6001600160a01b0390339082160361025e578082169182156109c8573b610c9f5762015180420191824211610c89577fe75af70c5199319759c92568fb0cc8dc1f926d4c9910be0bfbfbb73607a38db392606092604051610c3381611cf9565b83815260016020820184815288600052600f6020528360406000209351166001600160601b0360a01b84541617835551910155600c602052600160406000200154169160405192835260208301526040820152a2005b634e487b7160e01b600052601160045260246000fd5b6040516311970e2d60e31b8152600490fd5b34610270576020366003190112610270576020610ccf6004356120df565b6040516001600160a01b039091168152f35b3461027057600036600319011261027057602060ff600a54166040519015158152f35b34610270576000366003190112610270576020604051620151808152f35b3461027057610d3036611df5565b610d3b929192612138565b610d4361211a565b610d4c826120df565b336001600160a01b039091160361025e576101008111610e855781600052602092600c60205260026040600020016001600160401b038311610e6f57610d9c83610d968354611ca4565b8361202b565b600094601f8411600114610df95750610ddd83806000805160206126268339815191529697600091610dee575b508160011b916000199060031b1c19161790565b905561057c60405192839283612081565b905084013588610dc9565b601f19841695826000526020600020916000905b888210610e5757505084600080516020612626833981519152969710610e3d575b5050600183811b01905561056d565b830135600019600386901b60f8161c191690558580610e2e565b80600184958294958901358155019401920190610e0d565b634e487b7160e01b600052604160045260246000fd5b604051639049092560e01b8152600490fd5b3461027057610ea536611df5565b610ead612138565b610eb561211a565b610ebe836120df565b336001600160a01b039091160361025e576102008111610586577f859fac2fc059a2fa38efe7236e1c16278c1519298d62dd05582ff7fa392a10459161056d610567368484611e43565b34610270576020366003190112610270576004356000908152600c60205260409020805460018201546001600160a01b031691610f4760028201611d50565b610f7660ff6004600385015494015416916040519586958652602086015260a0604086015260a0850190611bc0565b916060840152151560808301520390f35b34610270576020366003190112610270576020610fa56004356120a9565b6040519015158152f35b34610270576104ef610fc036611c42565b9060405192610fce84611d14565b600084526104e9838383611e7a565b3461027057600036600319011261027057610ff66124c3565b600a5460ff8116156110355760ff1916600a557f5db9ee0a495bf2e6ff9c91a7834c1ba4fdd244a5e8aa4e537bd38aeae4b073aa6020604051338152a1005b604051638dfc202b60e01b8152600490fd5b34610270576060366003190112610270576004356001600160401b036024358181116102705761107b903690600401611c77565b90611084611c2c565b600e5490936001600160a01b03939091841633036105b6576110a4612138565b6110ac61211a565b8515801561125e575b6105985780611148575b505050808216806110d2575b6001600955005b823b610c9f576000848152600c602090815260409182902060010180546001600160a01b031981169490941790558151939092166001600160a01b03908116845293909316908201527f0d116ddfe3ce0d19970e3748d0e65b606d6a7996e8ace22f241e3ba27cd1e3279190a2808080806110cb565b6101008111610e855785600052602092600c6020526002604060002001928211610e6f578261117c83610d968a9654611ca4565b600094601f84116001146111e457506111bc838060008051602061262683398151915296976000916111d957508160011b916000199060031b1c19161790565b90555b6111ce60405192839283612081565b0390a28380806110bf565b90508401358b610dc9565b601f19841695826000526020600020916000905b88821061124257505084600080516020612626833981519152969710611228575b5050600183811b0190556111bf565b830135600019600386901b60f8161c191690558880611219565b8583013584558b975060019093019291820191908101906111f8565b50600b548610156110b5565b346102705760a036600319011261027057611283611c00565b61128b611c2c565b906064356001600160401b038111610270576112ab903690600401611c77565b91906084356001600160401b038111610270576112cc903690600401611c77565b600e54919290916001600160a01b031633036105b6576112ea612138565b6112f261211a565b6001600160a01b038416156109c85760243515610598576001600160a01b038616156109c857602435600052600d60205260406000205461155c576101008511610e8557610200821161058657853b610c9f5761138090600b54956113568761201c565b600b556040519761136689611cde565b60243589526001600160a01b031660208901523691611e43565b60408601524260608601526001608086015283600052600c6020526040600020855181556001810160018060a01b036020880151166001600160601b0360a01b82541617905560408601519586516001600160401b038111610e6f576020976113f9826113f06002870154611ca4565b6002870161202b565b8890601f83116001146114dd576080611484969461143b856114629661148a9b99966004966000926114d2575b50508160011b916000199060031b1c19161790565b60028501555b606081015160038501550151151591019060ff801983541691151516179055565b602435600052600d87528560406000205561147d868661215b565b3691611e43565b83612389565b604051338152602435916001600160a01b03169083907f3b3bd2ae0813649f0a35df972f28cac6ca8d704d1d66122c8a336c58fcdb4530908690a46001600955604051908152f35b015190508f80611426565b9060028501600052896000209160005b601f19851681106115455750611484969460018561148a9a989560049560809561146299601f1981161061152c575b505050811b016002850155611441565b015160001960f88460031b161c191690558e808061151c565b91928b6001819286850151815501940192016114ed565b604051630d82532d60e21b8152600490fd5b34610270576000366003190112610270576020600b54604051908152f35b346102705760208060031936011261027057600060806040516115ae81611cde565b8281528284820152606060408201528260608201520152600435600052600c81526040600020604051906115e182611cde565b8054825260018101546001600160a01b03908116848401908152906116599061160c60028501611d50565b906040860191825260ff600460038701549660608901978852015416936080870194151585526040519788978189525190880152511660408601525160a0606086015260c0850190611bc0565b9151608084015251151560a08301520390f35b3461027057608036600319011261027057611685611c16565b6001600160401b0390604435828111610270576116a6903690600401611c77565b606492919235848111610270576116c1903690600401611c77565b9290916116cc612138565b6116d461211a565b60043515610598576001600160a01b03918083169081156109c857600435600052600d60205260406000205461155c576101008311610e85576102008611610586573b610c9f5761174e600b549661172b8861201c565b600b556040519361173b85611cde565b6004358552602085019384523691611e43565b90604083019182524260608401526001608084015286600052600c60205260406000209383518555600185019151166001600160601b0360a01b82541617905551958651908111610e6f576020966117ad826113f06002870154611ca4565b8790601f8311600114611865579261143b836004946080946117e6989760009261185a5750508160011b916000199060031b1c19161790565b600435600052600d845282604060002055611801833361215b565b61181561180f368484611e43565b84612389565b827fcbb96f51f0d44aad38bd37e9959154a2f979b86301a6efbcb08d83f10ac9c8206040518061184a60043596339683612081565b0390a46001600955604051908152f35b015190508c80611426565b9060028501600052886000209160005b601f19851681106118c45750836080936117e6979693600193600497601f198116106118ab57505050811b016002850155611441565b015160001960f88460031b161c191690558b808061151c565b91928a600181928685015181550194019201611875565b34610270576104ef6118ec36611c42565b91611e7a565b346102705760203660031901126102705760043561190e61211a565b611917816120df565b336001600160a01b039091160361025e5780600052600c6020526004604060002001600160ff198254161790557f7cce21c1f4552995dccace889e9ad45febf59c654d3fd1d7ab0457fa1439aa2c600080a2005b3461027057604036600319011261027057611984611c00565b602435611990816120df565b33151580611a3f575b80611a12575b6119fa576001600160a01b039283169282918491167f8c5be1e5ebec7d5bd14f71427d1e84f3dd0314c0f7b2291e5b200ac8c7c3b925600080a4600090815260046020526040902080546001600160a01b0319169091179055005b60405163a9fbf51f60e01b8152336004820152602490fd5b5060018060a01b038116600052600560205260406000203360005260205260ff604060002054161561199f565b506001600160a01b038116331415611999565b3461027057602036600319011261027057600435611a6f816120df565b506000526004602052602060018060a01b0360406000205416604051908152f35b3461027057600036600319011261027057604051600080549082611ab383611ca4565b918282526020936001908560018216918260001461077f575050600114611ae1575061070e92500383611d2f565b6000808052859250907f290decd9548b62a8d60345a988386fc84ba6bc95484008f6362f93160ef3e5635b858310611b2357505061070e935082010185610701565b80548389018501528794508693909201918101611b0c565b34610270576020366003190112610270576004359063ffffffff60e01b821680920361027057602091632483248360e11b8114908115611b7d575b5015158152f35b6380ac58cd60e01b811491508115611baf575b8115611b9e575b5083611b76565b6301ffc9a760e01b14905083611b97565b635b5e139f60e01b81149150611b90565b919082519283825260005b848110611bec575050826000602080949584010152601f8019910116010190565b602081830181015184830182015201611bcb565b600435906001600160a01b038216820361027057565b602435906001600160a01b038216820361027057565b604435906001600160a01b038216820361027057565b6060906003190112610270576001600160a01b0390600435828116810361027057916024359081168103610270579060443590565b9181601f84011215610270578235916001600160401b038311610270576020838186019501011161027057565b90600182811c92168015611cd4575b6020831014611cbe57565b634e487b7160e01b600052602260045260246000fd5b91607f1691611cb3565b60a081019081106001600160401b03821117610e6f57604052565b604081019081106001600160401b03821117610e6f57604052565b602081019081106001600160401b03821117610e6f57604052565b90601f801991011681019081106001600160401b03821117610e6f57604052565b90604051918260008254611d6381611ca4565b90818452602094600191600181169081600014611dd35750600114611d94575b505050611d9292500383611d2f565b565b600090815285812095935091905b818310611dbb575050611d929350820101388080611d83565b85548884018501529485019487945091830191611da2565b92505050611d9294925060ff191682840152151560051b820101388080611d83565b9060406003198301126102705760043591602435906001600160401b03821161027057611e2491600401611c77565b9091565b6001600160401b038111610e6f57601f01601f191660200190565b929192611e4f82611e28565b91611e5d6040519384611d2f565b829481845281830111610270578281602093846000960137010152565b6001600160a01b03918216929091831561200357600092828452826020956002875260409684888820541696879133151580611f6a575b509060027fddf252ad1be2c89b69c2b068fc378daa952ba7f163c4a11628f55a4df523b3ef9284611f37575b858352600381528b8320805460010190558683525289812080546001600160a01b0319168517905580a41692838303611f165750505050565b6064945051926364283d7b60e01b8452600484015260248301526044820152fd5b600087815260046020526040902080546001600160a01b0319169055848352600381528b83208054600019019055611edd565b91939450915080611fc2575b15611f8657859291879138611eb1565b878688611fa3576024915190637e27328960e01b82526004820152fd5b905163177e802f60e01b81523360048201526024810191909152604490fd5b503387148015611fe7575b80611f765750858252600481523385898420541614611f76565b5086825260058152878220338352815260ff8883205416611fcd565b604051633250574960e11b815260006004820152602490fd5b6000198114610c895760010190565b90601f811161203957505050565b6000916000526020600020906020601f850160051c83019410612077575b601f0160051c01915b82811061206c57505050565b818155600101612060565b9092508290612057565b90918060409360208452816020850152848401376000828201840152601f01601f1916010190565b801580156120d3575b6120cd57600052600c60205260ff6004604060002001541690565b50600090565b50600b548110156120b2565b6000818152600260205260409020546001600160a01b0316908115612102575090565b60249060405190637e27328960e01b82526004820152fd5b60ff600a541661212657565b60405163d93c066560e01b8152600490fd5b600260095414612149576002600955565b604051633ee5aeb560e01b8152600490fd5b6040805161216881611d14565b6000808252936001600160a01b03848116949092908515612371578287526020936002855285882054168387821515928361233e575b818b5260038852888b2080546001019055828b5260028852888b2080546001600160a01b031916831790557fddf252ad1be2c89b69c2b068fc378daa952ba7f163c4a11628f55a4df523b3ef8b80a4612326573b6121ff575b505050505050565b8261223d918596979894955180938192630a85bd0160e11b968784523360048501528c60248501526044840152608060648401526084830190611bc0565b03818a8a5af18791816122e2575b506122ab575050503d6000146122a2573d61226581611e28565b9061227284519283611d2f565b81528094823d92013e5b8351938461229c578251633250574960e11b815260048101859052602490fd5b84925001fd5b6060935061227c565b919550915063ffffffff60e01b16036122cb5750503880808080806121f7565b602492505190633250574960e11b82526004820152fd5b9091508481813d831161231f575b6122fa8183611d2f565b8101031261231b57516001600160e01b03198116810361231b57903861224b565b8780fd5b503d6122f0565b84516339e3563760e11b815260048101889052602490fd5b600083815260046020526040902080546001600160a01b0319169055808b5260038852888b20805460001901905561219e565b8451633250574960e11b815260048101889052602490fd5b9190916000908082526020916006835260408120908551956001600160401b0387116124af576123c3876123bd8554611ca4565b8561202b565b8491601f881160011461242b57966124149281927ff8e1a15aba9398e019f0b49df1a4fde98ee17ae345cb5f6b5e2c27f5033e8ce79899926124205750508160011b916000199060031b1c19161790565b90555b604051908152a1565b015190503880611426565b9190601f198816848452868420935b81811061249857509160019391897ff8e1a15aba9398e019f0b49df1a4fde98ee17ae345cb5f6b5e2c27f5033e8ce7999a941061247f575b505050811b019055612417565b015160001960f88460031b161c19169055388080612472565b92938760018192878601518155019501930161243a565b634e487b7160e01b82526041600452602482fd5b6007546001600160a01b0316330361094757565b90939192833b6124e9575b5050505050565b604051630a85bd0160e11b8082526001600160a01b039384166004830152958316602482015260448101919091526080606482015294921692602092918590612536906084830190611bc0565b039483816000978189895af18691816125e1575b506125ab575050503d6000146125a2573d61256481611e28565b906125726040519283611d2f565b81528093823d92013e5b8251928361259d57604051633250574960e11b815260048101849052602490fd5b019050fd5b6060925061257c565b919450915063ffffffff60e01b16036125c9575038808080806124e2565b60249060405190633250574960e11b82526004820152fd5b9091508481813d831161261e575b6125f98183611d2f565b8101031261261a57516001600160e01b03198116810361261a57903861254a565b8680fd5b503d6125ef56fe6a3a0beb54691369cfa3d9ccbfee7ad49dcfeb928219b0c2eab1e9261488a762a2646970667358221220b3fa5039071046e956734bc3303d0593db100f4a2f761fa1568341cc2c1ebc5764736f6c63430008180033","opcodes":"PUSH1 0x80 CALLVALUE PUSH3 0x3F8 JUMPI PUSH1 0x1 PUSH1 0x1 PUSH1 0x40 SHL SUB SWAP1 PUSH1 0x1F NOT SWAP1 PUSH1 0x1F SWAP1 PUSH3 0x2A99 CODESIZE DUP2 SWAP1 SUB DUP4 DUP2 ADD DUP6 AND DUP4 ADD DUP7 DUP2 GT DUP5 DUP3 LT OR PUSH3 0x3E2 JUMPI DUP4 SWAP3 DUP3 SWAP2 PUSH1 0x40 MSTORE DUP4 CODECOPY PUSH1 0x20 SWAP3 DUP4 SWAP2 DUP2 ADD SUB SLT PUSH3 0x3F8 JUMPI MLOAD PUSH1 0x1 PUSH1 0x1 PUSH1 0xA0 SHL SUB DUP1 DUP3 AND SWAP6 SWAP1 SWAP4 SWAP1 SWAP2 DUP7 SWAP1 SUB PUSH3 0x3F8 JUMPI PUSH3 0x6C PUSH3 0x3FD JUMP JUMPDEST SWAP3 PUSH1 0xF DUP5 MSTORE PUSH15 0x2BB0B9B4A0A49020B3B2B73A102B19 PUSH1 0x89 SHL DUP2 DUP6 ADD MSTORE PUSH3 0x92 PUSH3 0x3FD JUMP JUMPDEST SWAP1 PUSH1 0xB DUP3 MSTORE PUSH11 0x2BA0A9A496A0A3A2A72A19 PUSH1 0xA9 SHL DUP2 DUP4 ADD MSTORE DUP5 MLOAD SWAP7 DUP5 DUP9 GT PUSH3 0x3E2 JUMPI PUSH1 0x0 SWAP8 DUP9 SLOAD SWAP7 PUSH1 0x1 SWAP8 DUP9 DUP2 DUP2 SHR SWAP2 AND DUP1 ISZERO PUSH3 0x3D7 JUMPI JUMPDEST DUP6 DUP3 LT EQ PUSH3 0x3C3 JUMPI SWAP1 DUP2 DUP8 DUP5 SWAP4 GT PUSH3 0x370 JUMPI JUMPDEST POP DUP5 SWAP1 DUP8 DUP4 GT PUSH1 0x1 EQ PUSH3 0x30F JUMPI DUP12 SWAP3 PUSH3 0x303 JUMPI JUMPDEST POP POP PUSH1 0x0 NOT PUSH1 0x3 DUP4 SWAP1 SHL SHR NOT AND SWAP1 DUP8 SHL OR DUP9 SSTORE JUMPDEST DUP3 MLOAD SWAP5 DUP6 GT PUSH3 0x2EF JUMPI DUP6 SLOAD DUP7 DUP2 DUP2 SHR SWAP2 AND DUP1 ISZERO PUSH3 0x2E4 JUMPI JUMPDEST DUP4 DUP3 LT EQ PUSH3 0x2D0 JUMPI SWAP1 DUP2 DUP6 DUP8 SWAP7 SWAP6 SWAP5 SWAP4 GT PUSH3 0x277 JUMPI JUMPDEST POP DUP2 SWAP4 DUP6 GT PUSH1 0x1 EQ PUSH3 0x212 JUMPI POP POP DUP7 SWAP3 PUSH3 0x206 JUMPI JUMPDEST POP POP PUSH1 0x0 NOT PUSH1 0x3 DUP4 SWAP1 SHL SHR NOT AND SWAP1 DUP3 SHL OR DUP2 SSTORE JUMPDEST CALLER ISZERO PUSH3 0x1ED JUMPI PUSH1 0x1 DUP1 PUSH1 0xA0 SHL SUB NOT SWAP3 DUP4 PUSH1 0x8 SLOAD AND PUSH1 0x8 SSTORE PUSH1 0x7 SLOAD SWAP1 CALLER DUP6 DUP4 AND OR PUSH1 0x7 SSTORE PUSH32 0x8BE0079C531659141344CD1FD0A4F28419497F9722A3DAAFE3B4186F6B6457E0 PUSH1 0x40 MLOAD SWAP5 CALLER SWAP4 AND SWAP2 DUP1 LOG3 DUP1 PUSH1 0x9 SSTORE PUSH1 0xB SSTORE DUP3 ISZERO PUSH3 0x1DE JUMPI POP PUSH1 0xE SLOAD AND OR PUSH1 0xE SSTORE PUSH1 0x40 MLOAD PUSH2 0x267B SWAP1 DUP2 PUSH3 0x41E DUP3 CODECOPY RETURN JUMPDEST PUSH4 0xD92E233D PUSH1 0xE0 SHL DUP2 MSTORE PUSH1 0x4 SWAP1 REVERT JUMPDEST PUSH1 0x40 MLOAD PUSH4 0x1E4FBDF7 PUSH1 0xE0 SHL DUP2 MSTORE PUSH1 0x4 DUP2 ADD DUP5 SWAP1 MSTORE PUSH1 0x24 SWAP1 REVERT JUMPDEST ADD MLOAD SWAP1 POP CODESIZE DUP1 PUSH3 0x154 JUMP JUMPDEST DUP7 SWAP6 SWAP4 SWAP3 SWAP2 SWAP4 AND DUP6 DUP10 MSTORE DUP4 DUP10 KECCAK256 SWAP4 DUP10 SWAP1 JUMPDEST DUP3 DUP3 LT PUSH3 0x25D JUMPI POP POP DUP5 GT PUSH3 0x243 JUMPI JUMPDEST POP POP POP DUP2 SHL ADD DUP2 SSTORE PUSH3 0x168 JUMP JUMPDEST ADD MLOAD PUSH1 0x0 NOT PUSH1 0xF8 DUP5 PUSH1 0x3 SHL AND SHR NOT AND SWAP1 SSTORE CODESIZE DUP1 DUP1 PUSH3 0x235 JUMP JUMPDEST DUP5 DUP5 ADD MLOAD DUP7 SSTORE DUP9 SWAP8 SWAP1 SWAP6 ADD SWAP5 SWAP4 DUP5 ADD SWAP4 SWAP1 DUP2 ADD SWAP1 PUSH3 0x223 JUMP JUMPDEST SWAP1 SWAP2 SWAP3 SWAP4 SWAP5 POP DUP7 DUP10 MSTORE DUP3 DUP10 KECCAK256 DUP6 DUP1 DUP9 ADD PUSH1 0x5 SHR DUP3 ADD SWAP3 DUP6 DUP10 LT PUSH3 0x2C6 JUMPI JUMPDEST SWAP2 DUP9 SWAP8 DUP11 SWAP3 SWAP8 SWAP7 SWAP6 SWAP5 SWAP4 ADD PUSH1 0x5 SHR ADD SWAP2 JUMPDEST DUP3 DUP2 LT PUSH3 0x2B7 JUMPI POP POP PUSH3 0x13D JUMP JUMPDEST DUP12 DUP2 SSTORE DUP9 SWAP8 POP DUP10 SWAP2 ADD PUSH3 0x2A7 JUMP JUMPDEST SWAP3 POP DUP2 SWAP3 PUSH3 0x296 JUMP JUMPDEST PUSH4 0x4E487B71 PUSH1 0xE0 SHL DUP10 MSTORE PUSH1 0x22 PUSH1 0x4 MSTORE PUSH1 0x24 DUP10 REVERT JUMPDEST SWAP1 PUSH1 0x7F AND SWAP1 PUSH3 0x125 JUMP JUMPDEST PUSH4 0x4E487B71 PUSH1 0xE0 SHL DUP9 MSTORE PUSH1 0x41 PUSH1 0x4 MSTORE PUSH1 0x24 DUP9 REVERT JUMPDEST ADD MLOAD SWAP1 POP CODESIZE DUP1 PUSH3 0xF7 JUMP JUMPDEST SWAP1 DUP5 DUP11 SWAP5 AND SWAP2 DUP13 DUP1 MSTORE DUP7 DUP14 KECCAK256 SWAP3 DUP14 JUMPDEST DUP9 DUP3 DUP3 LT PUSH3 0x359 JUMPI POP POP DUP5 GT PUSH3 0x33F JUMPI JUMPDEST POP POP POP DUP2 SHL ADD DUP9 SSTORE PUSH3 0x10B JUMP JUMPDEST ADD MLOAD PUSH1 0x0 NOT PUSH1 0xF8 DUP5 PUSH1 0x3 SHL AND SHR NOT AND SWAP1 SSTORE CODESIZE DUP1 DUP1 PUSH3 0x331 JUMP JUMPDEST DUP4 DUP6 ADD MLOAD DUP7 SSTORE DUP14 SWAP8 SWAP1 SWAP6 ADD SWAP5 SWAP4 DUP5 ADD SWAP4 ADD PUSH3 0x31E JUMP JUMPDEST SWAP1 SWAP2 POP DUP11 DUP1 MSTORE DUP5 DUP12 KECCAK256 DUP8 DUP1 DUP6 ADD PUSH1 0x5 SHR DUP3 ADD SWAP3 DUP8 DUP7 LT PUSH3 0x3B9 JUMPI JUMPDEST SWAP2 DUP12 SWAP2 DUP7 SWAP6 SWAP5 SWAP4 ADD PUSH1 0x5 SHR ADD SWAP2 JUMPDEST DUP3 DUP2 LT PUSH3 0x3AA JUMPI POP POP PUSH3 0xE1 JUMP JUMPDEST DUP14 DUP2 SSTORE DUP6 SWAP5 POP DUP12 SWAP2 ADD PUSH3 0x39A JUMP JUMPDEST SWAP3 POP DUP2 SWAP3 PUSH3 0x38C JUMP JUMPDEST PUSH4 0x4E487B71 PUSH1 0xE0 SHL DUP12 MSTORE PUSH1 0x22 PUSH1 0x4 MSTORE PUSH1 0x24 DUP12 REVERT JUMPDEST SWAP1 PUSH1 0x7F AND SWAP1 PUSH3 0xCC JUMP JUMPDEST PUSH4 0x4E487B71 PUSH1 0xE0 SHL PUSH1 0x0 MSTORE PUSH1 0x41 PUSH1 0x4 MSTORE PUSH1 0x24 PUSH1 0x0 REVERT JUMPDEST PUSH1 0x0 DUP1 REVERT JUMPDEST PUSH1 0x40 DUP1 MLOAD SWAP2 SWAP1 DUP3 ADD PUSH1 0x1 PUSH1 0x1 PUSH1 0x40 SHL SUB DUP2 GT DUP4 DUP3 LT OR PUSH3 0x3E2 JUMPI PUSH1 0x40 MSTORE JUMP INVALID PUSH1 0x80 DUP1 PUSH1 0x40 MSTORE PUSH1 0x4 CALLDATASIZE LT ISZERO PUSH2 0x13 JUMPI PUSH1 0x0 DUP1 REVERT JUMPDEST PUSH1 0x0 CALLDATALOAD PUSH1 0xE0 SHR SWAP1 DUP2 PUSH4 0x1FFC9A7 EQ PUSH2 0x1B3B JUMPI POP DUP1 PUSH4 0x6FDDE03 EQ PUSH2 0x1A90 JUMPI DUP1 PUSH4 0x81812FC EQ PUSH2 0x1A52 JUMPI DUP1 PUSH4 0x95EA7B3 EQ PUSH2 0x196B JUMPI DUP1 PUSH4 0x9DF30EC EQ PUSH2 0x18F2 JUMPI DUP1 PUSH4 0x173E79BB EQ PUSH2 0x398 JUMPI DUP1 PUSH4 0x23B872DD EQ PUSH2 0x18DB JUMPI DUP1 PUSH4 0x251F3B7E EQ PUSH2 0x166C JUMPI DUP1 PUSH4 0x2DE5AAF7 EQ PUSH2 0x158C JUMPI DUP1 PUSH4 0x30EFC498 EQ PUSH2 0x156E JUMPI DUP1 PUSH4 0x37A1B719 EQ PUSH2 0x126A JUMPI DUP1 PUSH4 0x3BDA90A3 EQ PUSH2 0x1047 JUMPI DUP1 PUSH4 0x3F4BA83A EQ PUSH2 0xFDD JUMPI DUP1 PUSH4 0x42842E0E EQ PUSH2 0xFAF JUMPI DUP1 PUSH4 0x4AFC374C EQ PUSH2 0xF87 JUMPI DUP1 PUSH4 0x513856C8 EQ PUSH2 0xF08 JUMPI DUP1 PUSH4 0x53C8388E EQ PUSH2 0xE97 JUMPI DUP1 PUSH4 0x54FEC772 EQ PUSH2 0xD22 JUMPI DUP1 PUSH4 0x5BA1C1A9 EQ PUSH2 0xD04 JUMPI DUP1 PUSH4 0x5C975ABB EQ PUSH2 0xCE1 JUMPI DUP1 PUSH4 0x6352211E EQ PUSH2 0xCB1 JUMPI DUP1 PUSH4 0x6BB24401 EQ PUSH2 0xBA6 JUMPI DUP1 PUSH4 0x6CA7C098 EQ PUSH2 0xA9A JUMPI DUP1 PUSH4 0x70A08231 EQ PUSH2 0xA41 JUMPI DUP1 PUSH4 0x715018A6 EQ PUSH2 0x9DA JUMPI DUP1 PUSH4 0x73AD6C2D EQ PUSH2 0x95F JUMPI DUP1 PUSH4 0x79BA5097 EQ PUSH2 0x8DB JUMPI DUP1 PUSH4 0x8456CB59 EQ PUSH2 0x881 JUMPI DUP1 PUSH4 0x8DA5CB5B EQ PUSH2 0x858 JUMPI DUP1 PUSH4 0x916B9BEF EQ PUSH2 0x7E2 JUMPI DUP1 PUSH4 0x937BBC4A EQ PUSH2 0x79F JUMPI DUP1 PUSH4 0x95D89B41 EQ PUSH2 0x6BC JUMPI DUP1 PUSH4 0xA22CB465 EQ PUSH2 0x60E JUMPI DUP1 PUSH4 0xAAB5A877 EQ PUSH2 0x5F1 JUMPI DUP1 PUSH4 0xABC8C7AF EQ PUSH2 0x5C8 JUMPI DUP1 PUSH4 0xB2D8593D EQ PUSH2 0x4F1 JUMPI DUP1 PUSH4 0xB88D4FDE EQ PUSH2 0x484 JUMPI DUP1 PUSH4 0xC85D3EB0 EQ PUSH2 0x467 JUMPI DUP1 PUSH4 0xC87B56DD EQ PUSH2 0x40E JUMPI DUP1 PUSH4 0xC890C380 EQ PUSH2 0x3C4 JUMPI DUP1 PUSH4 0xD58E0C9E EQ PUSH2 0x398 JUMPI DUP1 PUSH4 0xDBD7E949 EQ PUSH2 0x361 JUMPI DUP1 PUSH4 0xE30C3978 EQ PUSH2 0x338 JUMPI DUP1 PUSH4 0xE985E9C5 EQ PUSH2 0x2E2 JUMPI DUP1 PUSH4 0xF2FDE38B EQ PUSH2 0x275 JUMPI PUSH4 0xF96560B4 EQ PUSH2 0x219 JUMPI PUSH1 0x0 DUP1 REVERT JUMPDEST CALLVALUE PUSH2 0x270 JUMPI PUSH1 0x20 CALLDATASIZE PUSH1 0x3 NOT ADD SLT PUSH2 0x270 JUMPI PUSH1 0x4 CALLDATALOAD PUSH2 0x236 DUP2 PUSH2 0x20DF JUMP JUMPDEST CALLER PUSH1 0x1 PUSH1 0x1 PUSH1 0xA0 SHL SUB SWAP1 SWAP2 AND SUB PUSH2 0x25E JUMPI PUSH1 0x0 SWAP1 DUP2 MSTORE PUSH1 0xF PUSH1 0x20 MSTORE PUSH1 0x40 DUP2 KECCAK256 DUP2 DUP2 SSTORE PUSH1 0x1 ADD SSTORE STOP JUMPDEST PUSH1 0x40 MLOAD PUSH4 0xE41DCBF PUSH1 0xE2 SHL DUP2 MSTORE PUSH1 0x4 SWAP1 REVERT JUMPDEST PUSH1 0x0 DUP1 REVERT JUMPDEST CALLVALUE PUSH2 0x270 JUMPI PUSH1 0x20 CALLDATASIZE PUSH1 0x3 NOT ADD SLT PUSH2 0x270 JUMPI PUSH2 0x28E PUSH2 0x1C00 JUMP JUMPDEST PUSH2 0x296 PUSH2 0x24C3 JUMP JUMPDEST PUSH1 0x8 DUP1 SLOAD PUSH1 0x1 PUSH1 0x1 PUSH1 0xA0 SHL SUB NOT AND PUSH1 0x1 PUSH1 0x1 PUSH1 0xA0 SHL SUB SWAP3 DUP4 AND SWAP1 DUP2 OR SWAP1 SWAP2 SSTORE PUSH1 0x7 SLOAD SWAP1 SWAP2 AND PUSH32 0x38D16B8CAC22D99FC7C124B9CD0DE2D3FA1FAEF420BFE791D8C362D765E22700 PUSH1 0x0 DUP1 LOG3 STOP JUMPDEST CALLVALUE PUSH2 0x270 JUMPI PUSH1 0x40 CALLDATASIZE PUSH1 0x3 NOT ADD SLT PUSH2 0x270 JUMPI PUSH2 0x2FB PUSH2 0x1C00 JUMP JUMPDEST PUSH2 0x303 PUSH2 0x1C16 JUMP JUMPDEST SWAP1 PUSH1 0x1 DUP1 PUSH1 0xA0 SHL SUB DUP1 SWAP2 AND PUSH1 0x0 MSTORE PUSH1 0x5 PUSH1 0x20 MSTORE PUSH1 0x40 PUSH1 0x0 KECCAK256 SWAP2 AND PUSH1 0x0 MSTORE PUSH1 0x20 MSTORE PUSH1 0x20 PUSH1 0xFF PUSH1 0x40 PUSH1 0x0 KECCAK256 SLOAD AND PUSH1 0x40 MLOAD SWAP1 ISZERO ISZERO DUP2 MSTORE RETURN JUMPDEST CALLVALUE PUSH2 0x270 JUMPI PUSH1 0x0 CALLDATASIZE PUSH1 0x3 NOT ADD SLT PUSH2 0x270 JUMPI PUSH1 0x8 SLOAD PUSH1 0x40 MLOAD PUSH1 0x1 PUSH1 0x1 PUSH1 0xA0 SHL SUB SWAP1 SWAP2 AND DUP2 MSTORE PUSH1 0x20 SWAP1 RETURN JUMPDEST CALLVALUE PUSH2 0x270 JUMPI PUSH1 0x20 CALLDATASIZE PUSH1 0x3 NOT ADD SLT PUSH2 0x270 JUMPI PUSH1 0x4 CALLDATALOAD PUSH1 0x0 MSTORE PUSH1 0xC PUSH1 0x20 MSTORE PUSH1 0x20 PUSH1 0x1 DUP1 PUSH1 0xA0 SHL SUB PUSH1 0x1 PUSH1 0x40 PUSH1 0x0 KECCAK256 ADD SLOAD AND PUSH1 0x40 MLOAD SWAP1 DUP2 MSTORE RETURN JUMPDEST CALLVALUE PUSH2 0x270 JUMPI PUSH1 0x20 CALLDATASIZE PUSH1 0x3 NOT ADD SLT PUSH2 0x270 JUMPI PUSH1 0x4 CALLDATALOAD PUSH1 0x0 MSTORE PUSH1 0xD PUSH1 0x20 MSTORE PUSH1 0x20 PUSH1 0x40 PUSH1 0x0 KECCAK256 SLOAD PUSH1 0x40 MLOAD SWAP1 DUP2 MSTORE RETURN JUMPDEST CALLVALUE PUSH2 0x270 JUMPI PUSH1 0x20 CALLDATASIZE PUSH1 0x3 NOT ADD SLT PUSH2 0x270 JUMPI PUSH1 0x4 CALLDATALOAD PUSH1 0x0 SWAP1 DUP2 MSTORE PUSH1 0xF PUSH1 0x20 SWAP1 DUP2 MSTORE PUSH1 0x40 SWAP2 DUP3 SWAP1 KECCAK256 DUP1 SLOAD PUSH1 0x1 SWAP1 SWAP2 ADD SLOAD DUP4 MLOAD PUSH1 0x1 PUSH1 0x1 PUSH1 0xA0 SHL SUB SWAP1 SWAP3 AND DUP3 MSTORE SWAP2 DUP2 ADD SWAP2 SWAP1 SWAP2 MSTORE RETURN JUMPDEST SUB SWAP1 RETURN JUMPDEST CALLVALUE PUSH2 0x270 JUMPI PUSH1 0x20 CALLDATASIZE PUSH1 0x3 NOT ADD SLT PUSH2 0x270 JUMPI PUSH1 0x4 CALLDATALOAD PUSH2 0x42B DUP2 PUSH2 0x20DF JUMP JUMPDEST POP PUSH1 0x0 MSTORE PUSH1 0x6 PUSH1 0x20 MSTORE PUSH2 0x40A PUSH2 0x444 PUSH1 0x40 PUSH1 0x0 KECCAK256 PUSH2 0x1D50 JUMP JUMPDEST PUSH1 0x0 PUSH1 0x40 MLOAD PUSH2 0x452 DUP2 PUSH2 0x1D14 JUMP JUMPDEST MSTORE PUSH1 0x40 MLOAD SWAP2 DUP3 SWAP2 PUSH1 0x20 DUP4 MSTORE PUSH1 0x20 DUP4 ADD SWAP1 PUSH2 0x1BC0 JUMP JUMPDEST CALLVALUE PUSH2 0x270 JUMPI PUSH1 0x0 CALLDATASIZE PUSH1 0x3 NOT ADD SLT PUSH2 0x270 JUMPI PUSH1 0x20 PUSH1 0x40 MLOAD PUSH2 0x100 DUP2 MSTORE RETURN JUMPDEST CALLVALUE PUSH2 0x270 JUMPI PUSH1 0x80 CALLDATASIZE PUSH1 0x3 NOT ADD SLT PUSH2 0x270 JUMPI PUSH2 0x49D PUSH2 0x1C00 JUMP JUMPDEST PUSH2 0x4A5 PUSH2 0x1C16 JUMP JUMPDEST SWAP1 PUSH1 0x44 CALLDATALOAD PUSH1 0x64 CALLDATALOAD SWAP3 PUSH1 0x1 PUSH1 0x1 PUSH1 0x40 SHL SUB DUP5 GT PUSH2 0x270 JUMPI CALLDATASIZE PUSH1 0x23 DUP6 ADD SLT ISZERO PUSH2 0x270 JUMPI PUSH2 0x4DD PUSH2 0x4EF SWAP5 CALLDATASIZE SWAP1 PUSH1 0x24 DUP2 PUSH1 0x4 ADD CALLDATALOAD SWAP2 ADD PUSH2 0x1E43 JUMP JUMPDEST SWAP3 PUSH2 0x4E9 DUP4 DUP4 DUP4 PUSH2 0x1E7A JUMP JUMPDEST CALLER PUSH2 0x24D7 JUMP JUMPDEST STOP JUMPDEST CALLVALUE PUSH2 0x270 JUMPI PUSH2 0x4FF CALLDATASIZE PUSH2 0x1DF5 JUMP JUMPDEST PUSH1 0xE SLOAD PUSH1 0x1 PUSH1 0x1 PUSH1 0xA0 SHL SUB AND CALLER SUB PUSH2 0x5B6 JUMPI PUSH2 0x519 PUSH2 0x2138 JUMP JUMPDEST PUSH2 0x521 PUSH2 0x211A JUMP JUMPDEST DUP3 ISZERO DUP1 ISZERO PUSH2 0x5AA JUMPI JUMPDEST PUSH2 0x598 JUMPI PUSH2 0x200 DUP2 GT PUSH2 0x586 JUMPI PUSH32 0x859FAC2FC059A2FA38EFE7236E1C16278C1519298D62DD05582FF7FA392A1045 SWAP2 PUSH2 0x56D PUSH2 0x567 CALLDATASIZE DUP5 DUP5 PUSH2 0x1E43 JUMP JUMPDEST DUP6 PUSH2 0x2389 JUMP JUMPDEST PUSH2 0x57C PUSH1 0x40 MLOAD SWAP3 DUP4 SWAP3 DUP4 PUSH2 0x2081 JUMP JUMPDEST SUB SWAP1 LOG2 PUSH1 0x1 PUSH1 0x9 SSTORE STOP JUMPDEST PUSH1 0x40 MLOAD PUSH4 0x22E34813 PUSH1 0xE2 SHL DUP2 MSTORE PUSH1 0x4 SWAP1 REVERT JUMPDEST PUSH1 0x40 MLOAD PUSH4 0x6979D351 PUSH1 0xE1 SHL DUP2 MSTORE PUSH1 0x4 SWAP1 REVERT JUMPDEST POP PUSH1 0xB SLOAD DUP4 LT ISZERO PUSH2 0x52A JUMP JUMPDEST PUSH1 0x40 MLOAD PUSH4 0x2B35006D PUSH1 0xE2 SHL DUP2 MSTORE PUSH1 0x4 SWAP1 REVERT JUMPDEST CALLVALUE PUSH2 0x270 JUMPI PUSH1 0x0 CALLDATASIZE PUSH1 0x3 NOT ADD SLT PUSH2 0x270 JUMPI PUSH1 0xE SLOAD PUSH1 0x40 MLOAD PUSH1 0x1 PUSH1 0x1 PUSH1 0xA0 SHL SUB SWAP1 SWAP2 AND DUP2 MSTORE PUSH1 0x20 SWAP1 RETURN JUMPDEST CALLVALUE PUSH2 0x270 JUMPI PUSH1 0x0 CALLDATASIZE PUSH1 0x3 NOT ADD SLT PUSH2 0x270 JUMPI PUSH1 0x20 PUSH1 0x40 MLOAD PUSH2 0x200 DUP2 MSTORE RETURN JUMPDEST CALLVALUE PUSH2 0x270 JUMPI PUSH1 0x40 CALLDATASIZE PUSH1 0x3 NOT ADD SLT PUSH2 0x270 JUMPI PUSH2 0x627 PUSH2 0x1C00 JUMP JUMPDEST PUSH1 0x24 CALLDATALOAD SWAP1 DUP2 ISZERO ISZERO SWAP1 DUP2 DUP4 SUB PUSH2 0x270 JUMPI PUSH1 0x1 PUSH1 0x1 PUSH1 0xA0 SHL SUB AND SWAP2 DUP3 ISZERO PUSH2 0x6A3 JUMPI PUSH2 0x675 SWAP1 CALLER PUSH1 0x0 MSTORE PUSH1 0x5 PUSH1 0x20 MSTORE PUSH1 0x40 PUSH1 0x0 KECCAK256 DUP5 PUSH1 0x0 MSTORE PUSH1 0x20 MSTORE PUSH1 0x40 PUSH1 0x0 KECCAK256 SWAP1 PUSH1 0xFF DUP1 NOT DUP4 SLOAD AND SWAP2 ISZERO ISZERO AND OR SWAP1 SSTORE JUMP JUMPDEST PUSH1 0x40 MLOAD SWAP1 DUP2 MSTORE PUSH32 0x17307EAB39AB6107E8899845AD3D59BD9653F200F220920489CA2B5937696C31 PUSH1 0x20 CALLER SWAP3 LOG3 STOP JUMPDEST PUSH1 0x40 MLOAD PUSH4 0xB611743 PUSH1 0xE3 SHL DUP2 MSTORE PUSH1 0x4 DUP2 ADD DUP5 SWAP1 MSTORE PUSH1 0x24 SWAP1 REVERT JUMPDEST CALLVALUE PUSH2 0x270 JUMPI PUSH1 0x0 CALLDATASIZE PUSH1 0x3 NOT ADD SLT PUSH2 0x270 JUMPI PUSH1 0x40 MLOAD PUSH1 0x0 PUSH1 0x1 DUP3 PUSH1 0x1 SLOAD SWAP3 PUSH2 0x6E2 DUP5 PUSH2 0x1CA4 JUMP JUMPDEST SWAP3 DUP4 DUP4 MSTORE PUSH1 0x20 SWAP5 DUP6 PUSH1 0x1 DUP3 AND SWAP2 DUP3 PUSH1 0x0 EQ PUSH2 0x77F JUMPI POP POP PUSH1 0x1 EQ PUSH2 0x722 JUMPI JUMPDEST POP PUSH2 0x70E SWAP3 POP SUB DUP4 PUSH2 0x1D2F JUMP JUMPDEST PUSH2 0x40A PUSH1 0x40 MLOAD SWAP3 DUP3 DUP5 SWAP4 DUP5 MSTORE DUP4 ADD SWAP1 PUSH2 0x1BC0 JUMP JUMPDEST DUP5 SWAP2 POP PUSH1 0x1 PUSH1 0x0 MSTORE PUSH32 0xB10E2D527612073B26EECDFD717E6A320CF44B4AFAC2B0732D9FCBE2B7FA0CF6 SWAP1 PUSH1 0x0 SWAP2 JUMPDEST DUP6 DUP4 LT PUSH2 0x767 JUMPI POP POP PUSH2 0x70E SWAP4 POP DUP3 ADD ADD DUP6 PUSH2 0x701 JUMP JUMPDEST DUP1 SLOAD DUP4 DUP10 ADD DUP6 ADD MSTORE DUP8 SWAP5 POP DUP7 SWAP4 SWAP1 SWAP3 ADD SWAP2 DUP2 ADD PUSH2 0x750 JUMP JUMPDEST PUSH1 0xFF NOT AND DUP6 DUP3 ADD MSTORE PUSH2 0x70E SWAP6 ISZERO ISZERO PUSH1 0x5 SHL DUP6 ADD ADD SWAP3 POP DUP8 SWAP2 POP PUSH2 0x701 SWAP1 POP JUMP JUMPDEST CALLVALUE PUSH2 0x270 JUMPI PUSH1 0x20 CALLDATASIZE PUSH1 0x3 NOT ADD SLT PUSH2 0x270 JUMPI PUSH1 0x4 CALLDATALOAD PUSH1 0x0 MSTORE PUSH1 0xC PUSH1 0x20 MSTORE PUSH2 0x40A PUSH2 0x7CE PUSH1 0x2 PUSH1 0x40 PUSH1 0x0 KECCAK256 ADD PUSH2 0x1D50 JUMP JUMPDEST PUSH1 0x40 MLOAD SWAP2 DUP3 SWAP2 PUSH1 0x20 DUP4 MSTORE PUSH1 0x20 DUP4 ADD SWAP1 PUSH2 0x1BC0 JUMP JUMPDEST CALLVALUE PUSH2 0x270 JUMPI PUSH1 0x20 CALLDATASIZE PUSH1 0x3 NOT ADD SLT PUSH2 0x270 JUMPI PUSH1 0x4 CALLDATALOAD PUSH2 0x7FE PUSH2 0x211A JUMP JUMPDEST PUSH2 0x807 DUP2 PUSH2 0x20DF JUMP JUMPDEST CALLER PUSH1 0x1 PUSH1 0x1 PUSH1 0xA0 SHL SUB SWAP1 SWAP2 AND SUB PUSH2 0x25E JUMPI DUP1 PUSH1 0x0 MSTORE PUSH1 0xC PUSH1 0x20 MSTORE PUSH1 0x4 PUSH1 0x40 PUSH1 0x0 KECCAK256 ADD PUSH1 0xFF NOT DUP2 SLOAD AND SWAP1 SSTORE PUSH32 0xC2FB7F8575AC3990E70361684EDFC4D283931EA9A03DFA28766BF376A3934AA2 PUSH1 0x0 DUP1 LOG2 STOP JUMPDEST CALLVALUE PUSH2 0x270 JUMPI PUSH1 0x0 CALLDATASIZE PUSH1 0x3 NOT ADD SLT PUSH2 0x270 JUMPI PUSH1 0x7 SLOAD PUSH1 0x40 MLOAD PUSH1 0x1 PUSH1 0x1 PUSH1 0xA0 SHL SUB SWAP1 SWAP2 AND DUP2 MSTORE PUSH1 0x20 SWAP1 RETURN JUMPDEST CALLVALUE PUSH2 0x270 JUMPI PUSH1 0x0 CALLDATASIZE PUSH1 0x3 NOT ADD SLT PUSH2 0x270 JUMPI PUSH2 0x89A PUSH2 0x24C3 JUMP JUMPDEST PUSH2 0x8A2 PUSH2 0x211A JUMP JUMPDEST PUSH1 0x1 PUSH1 0xFF NOT PUSH1 0xA SLOAD AND OR PUSH1 0xA SSTORE PUSH32 0x62E78CEA01BEE320CD4E420270B5EA74000D11B0C9F74754EBDBFC544B05A258 PUSH1 0x20 PUSH1 0x40 MLOAD CALLER DUP2 MSTORE LOG1 STOP JUMPDEST CALLVALUE PUSH2 0x270 JUMPI PUSH1 0x0 CALLDATASIZE PUSH1 0x3 NOT ADD SLT PUSH2 0x270 JUMPI PUSH1 0x8 SLOAD PUSH1 0x1 PUSH1 0x1 PUSH1 0xA0 SHL SUB CALLER DUP2 DUP4 AND SUB PUSH2 0x947 JUMPI PUSH1 0x1 PUSH1 0x1 PUSH1 0x60 SHL SUB PUSH1 0xA0 SHL DUP1 SWAP3 AND PUSH1 0x8 SSTORE PUSH1 0x7 SLOAD SWAP2 CALLER SWAP1 DUP4 AND OR PUSH1 0x7 SSTORE CALLER SWAP2 AND PUSH32 0x8BE0079C531659141344CD1FD0A4F28419497F9722A3DAAFE3B4186F6B6457E0 PUSH1 0x0 DUP1 LOG3 STOP JUMPDEST PUSH1 0x40 MLOAD PUSH4 0x118CDAA7 PUSH1 0xE0 SHL DUP2 MSTORE CALLER PUSH1 0x4 DUP3 ADD MSTORE PUSH1 0x24 SWAP1 REVERT JUMPDEST CALLVALUE PUSH2 0x270 JUMPI PUSH1 0x20 CALLDATASIZE PUSH1 0x3 NOT ADD SLT PUSH2 0x270 JUMPI PUSH2 0x978 PUSH2 0x1C00 JUMP JUMPDEST PUSH2 0x980 PUSH2 0x24C3 JUMP JUMPDEST PUSH1 0x1 PUSH1 0x1 PUSH1 0xA0 SHL SUB AND DUP1 ISZERO PUSH2 0x9C8 JUMPI PUSH1 0xE DUP1 SLOAD PUSH1 0x1 PUSH1 0x1 PUSH1 0xA0 SHL SUB NOT AND DUP3 OR SWAP1 SSTORE PUSH32 0x210690ABD7FD6CDBB8F2BEB202B2A253D58D7A0813B2175C4172C14C0C1AF6DC PUSH1 0x0 DUP1 LOG2 STOP JUMPDEST PUSH1 0x40 MLOAD PUSH4 0xD92E233D PUSH1 0xE0 SHL DUP2 MSTORE PUSH1 0x4 SWAP1 REVERT JUMPDEST CALLVALUE PUSH2 0x270 JUMPI PUSH1 0x0 CALLDATASIZE PUSH1 0x3 NOT ADD SLT PUSH2 0x270 JUMPI PUSH2 0x9F3 PUSH2 0x24C3 JUMP JUMPDEST PUSH1 0x8 DUP1 SLOAD PUSH1 0x1 PUSH1 0x1 PUSH1 0xA0 SHL SUB NOT SWAP1 DUP2 AND SWAP1 SWAP2 SSTORE PUSH1 0x7 DUP1 SLOAD SWAP2 DUP3 AND SWAP1 SSTORE PUSH1 0x0 SWAP1 PUSH1 0x1 PUSH1 0x1 PUSH1 0xA0 SHL SUB AND PUSH32 0x8BE0079C531659141344CD1FD0A4F28419497F9722A3DAAFE3B4186F6B6457E0 DUP3 DUP1 LOG3 STOP JUMPDEST CALLVALUE PUSH2 0x270 JUMPI PUSH1 0x20 CALLDATASIZE PUSH1 0x3 NOT ADD SLT PUSH2 0x270 JUMPI PUSH1 0x1 PUSH1 0x1 PUSH1 0xA0 SHL SUB PUSH2 0xA62 PUSH2 0x1C00 JUMP JUMPDEST AND DUP1 ISZERO PUSH2 0xA81 JUMPI PUSH1 0x0 MSTORE PUSH1 0x3 PUSH1 0x20 MSTORE PUSH1 0x20 PUSH1 0x40 PUSH1 0x0 KECCAK256 SLOAD PUSH1 0x40 MLOAD SWAP1 DUP2 MSTORE RETURN JUMPDEST PUSH1 0x40 MLOAD PUSH4 0x22718AD9 PUSH1 0xE2 SHL DUP2 MSTORE PUSH1 0x0 PUSH1 0x4 DUP3 ADD MSTORE PUSH1 0x24 SWAP1 REVERT JUMPDEST CALLVALUE PUSH2 0x270 JUMPI PUSH1 0x20 CALLDATASIZE PUSH1 0x3 NOT ADD SLT PUSH2 0x270 JUMPI PUSH1 0x4 CALLDATALOAD PUSH2 0xAB7 DUP2 PUSH2 0x20DF JUMP JUMPDEST PUSH1 0x1 PUSH1 0x1 PUSH1 0xA0 SHL SUB SWAP1 CALLER SWAP1 DUP3 AND SUB PUSH2 0x25E JUMPI DUP2 PUSH1 0x0 MSTORE PUSH1 0xF PUSH1 0x20 MSTORE PUSH1 0x40 PUSH1 0x0 KECCAK256 SWAP1 PUSH1 0x1 PUSH1 0x40 MLOAD SWAP3 PUSH2 0xAE7 DUP5 PUSH2 0x1CF9 JUMP JUMPDEST DUP3 DUP2 SLOAD AND DUP5 MSTORE ADD SLOAD PUSH1 0x20 DUP4 ADD SWAP1 DUP1 DUP3 MSTORE ISZERO PUSH2 0xB94 JUMPI MLOAD TIMESTAMP LT PUSH2 0xB82 JUMPI PUSH1 0x0 DUP4 DUP2 MSTORE PUSH1 0xC PUSH1 0x20 SWAP1 DUP2 MSTORE PUSH1 0x40 DUP1 DUP4 KECCAK256 PUSH1 0x1 SWAP1 DUP2 ADD DUP1 SLOAD DUP8 MLOAD PUSH1 0x1 PUSH1 0x1 PUSH1 0xA0 SHL SUB NOT DUP3 AND SWAP1 DUP9 AND OR SWAP1 SWAP2 SSTORE PUSH1 0xF DUP5 MSTORE DUP3 DUP6 KECCAK256 DUP6 DUP2 SSTORE SWAP1 SWAP2 ADD SWAP4 SWAP1 SWAP4 SSTORE SWAP4 MLOAD DUP5 MLOAD PUSH1 0x1 PUSH1 0x1 PUSH1 0xA0 SHL SUB SWAP4 DUP6 AND DUP5 AND DUP2 MSTORE SWAP4 AND SWAP1 SWAP2 AND SWAP1 DUP3 ADD MSTORE PUSH32 0xD116DDFE3CE0D19970E3748D0E65B606D6A7996E8ACE22F241E3BA27CD1E327 SWAP2 SWAP1 LOG2 STOP JUMPDEST PUSH1 0x40 MLOAD PUSH4 0x621E25C3 PUSH1 0xE0 SHL DUP2 MSTORE PUSH1 0x4 SWAP1 REVERT JUMPDEST PUSH1 0x40 MLOAD PUSH4 0x147FDE5F PUSH1 0xE3 SHL DUP2 MSTORE PUSH1 0x4 SWAP1 REVERT JUMPDEST CALLVALUE PUSH2 0x270 JUMPI PUSH1 0x40 CALLDATASIZE PUSH1 0x3 NOT ADD SLT PUSH2 0x270 JUMPI PUSH1 0x4 CALLDATALOAD PUSH2 0xBC2 PUSH2 0x1C16 JUMP JUMPDEST PUSH2 0xBCA PUSH2 0x211A JUMP JUMPDEST PUSH2 0xBD3 DUP3 PUSH2 0x20DF JUMP JUMPDEST PUSH1 0x1 PUSH1 0x1 PUSH1 0xA0 SHL SUB SWAP1 CALLER SWAP1 DUP3 AND SUB PUSH2 0x25E JUMPI DUP1 DUP3 AND SWAP2 DUP3 ISZERO PUSH2 0x9C8 JUMPI EXTCODESIZE PUSH2 0xC9F JUMPI PUSH3 0x15180 TIMESTAMP ADD SWAP2 DUP3 TIMESTAMP GT PUSH2 0xC89 JUMPI PUSH32 0xE75AF70C5199319759C92568FB0CC8DC1F926D4C9910BE0BFBFBB73607A38DB3 SWAP3 PUSH1 0x60 SWAP3 PUSH1 0x40 MLOAD PUSH2 0xC33 DUP2 PUSH2 0x1CF9 JUMP JUMPDEST DUP4 DUP2 MSTORE PUSH1 0x1 PUSH1 0x20 DUP3 ADD DUP5 DUP2 MSTORE DUP9 PUSH1 0x0 MSTORE PUSH1 0xF PUSH1 0x20 MSTORE DUP4 PUSH1 0x40 PUSH1 0x0 KECCAK256 SWAP4 MLOAD AND PUSH1 0x1 PUSH1 0x1 PUSH1 0x60 SHL SUB PUSH1 0xA0 SHL DUP5 SLOAD AND OR DUP4 SSTORE MLOAD SWAP2 ADD SSTORE PUSH1 0xC PUSH1 0x20 MSTORE PUSH1 0x1 PUSH1 0x40 PUSH1 0x0 KECCAK256 ADD SLOAD AND SWAP2 PUSH1 0x40 MLOAD SWAP3 DUP4 MSTORE PUSH1 0x20 DUP4 ADD MSTORE PUSH1 0x40 DUP3 ADD MSTORE LOG2 STOP JUMPDEST PUSH4 0x4E487B71 PUSH1 0xE0 SHL PUSH1 0x0 MSTORE PUSH1 0x11 PUSH1 0x4 MSTORE PUSH1 0x24 PUSH1 0x0 REVERT JUMPDEST PUSH1 0x40 MLOAD PUSH4 0x11970E2D PUSH1 0xE3 SHL DUP2 MSTORE PUSH1 0x4 SWAP1 REVERT JUMPDEST CALLVALUE PUSH2 0x270 JUMPI PUSH1 0x20 CALLDATASIZE PUSH1 0x3 NOT ADD SLT PUSH2 0x270 JUMPI PUSH1 0x20 PUSH2 0xCCF PUSH1 0x4 CALLDATALOAD PUSH2 0x20DF JUMP JUMPDEST PUSH1 0x40 MLOAD PUSH1 0x1 PUSH1 0x1 PUSH1 0xA0 SHL SUB SWAP1 SWAP2 AND DUP2 MSTORE RETURN JUMPDEST CALLVALUE PUSH2 0x270 JUMPI PUSH1 0x0 CALLDATASIZE PUSH1 0x3 NOT ADD SLT PUSH2 0x270 JUMPI PUSH1 0x20 PUSH1 0xFF PUSH1 0xA SLOAD AND PUSH1 0x40 MLOAD SWAP1 ISZERO ISZERO DUP2 MSTORE RETURN JUMPDEST CALLVALUE PUSH2 0x270 JUMPI PUSH1 0x0 CALLDATASIZE PUSH1 0x3 NOT ADD SLT PUSH2 0x270 JUMPI PUSH1 0x20 PUSH1 0x40 MLOAD PUSH3 0x15180 DUP2 MSTORE RETURN JUMPDEST CALLVALUE PUSH2 0x270 JUMPI PUSH2 0xD30 CALLDATASIZE PUSH2 0x1DF5 JUMP JUMPDEST PUSH2 0xD3B SWAP3 SWAP2 SWAP3 PUSH2 0x2138 JUMP JUMPDEST PUSH2 0xD43 PUSH2 0x211A JUMP JUMPDEST PUSH2 0xD4C DUP3 PUSH2 0x20DF JUMP JUMPDEST CALLER PUSH1 0x1 PUSH1 0x1 PUSH1 0xA0 SHL SUB SWAP1 SWAP2 AND SUB PUSH2 0x25E JUMPI PUSH2 0x100 DUP2 GT PUSH2 0xE85 JUMPI DUP2 PUSH1 0x0 MSTORE PUSH1 0x20 SWAP3 PUSH1 0xC PUSH1 0x20 MSTORE PUSH1 0x2 PUSH1 0x40 PUSH1 0x0 KECCAK256 ADD PUSH1 0x1 PUSH1 0x1 PUSH1 0x40 SHL SUB DUP4 GT PUSH2 0xE6F JUMPI PUSH2 0xD9C DUP4 PUSH2 0xD96 DUP4 SLOAD PUSH2 0x1CA4 JUMP JUMPDEST DUP4 PUSH2 0x202B JUMP JUMPDEST PUSH1 0x0 SWAP5 PUSH1 0x1F DUP5 GT PUSH1 0x1 EQ PUSH2 0xDF9 JUMPI POP PUSH2 0xDDD DUP4 DUP1 PUSH1 0x0 DUP1 MLOAD PUSH1 0x20 PUSH2 0x2626 DUP4 CODECOPY DUP2 MLOAD SWAP2 MSTORE SWAP7 SWAP8 PUSH1 0x0 SWAP2 PUSH2 0xDEE JUMPI JUMPDEST POP DUP2 PUSH1 0x1 SHL SWAP2 PUSH1 0x0 NOT SWAP1 PUSH1 0x3 SHL SHR NOT AND OR SWAP1 JUMP JUMPDEST SWAP1 SSTORE PUSH2 0x57C PUSH1 0x40 MLOAD SWAP3 DUP4 SWAP3 DUP4 PUSH2 0x2081 JUMP JUMPDEST SWAP1 POP DUP5 ADD CALLDATALOAD DUP9 PUSH2 0xDC9 JUMP JUMPDEST PUSH1 0x1F NOT DUP5 AND SWAP6 DUP3 PUSH1 0x0 MSTORE PUSH1 0x20 PUSH1 0x0 KECCAK256 SWAP2 PUSH1 0x0 SWAP1 JUMPDEST DUP9 DUP3 LT PUSH2 0xE57 JUMPI POP POP DUP5 PUSH1 0x0 DUP1 MLOAD PUSH1 0x20 PUSH2 0x2626 DUP4 CODECOPY DUP2 MLOAD SWAP2 MSTORE SWAP7 SWAP8 LT PUSH2 0xE3D JUMPI JUMPDEST POP POP PUSH1 0x1 DUP4 DUP2 SHL ADD SWAP1 SSTORE PUSH2 0x56D JUMP JUMPDEST DUP4 ADD CALLDATALOAD PUSH1 0x0 NOT PUSH1 0x3 DUP7 SWAP1 SHL PUSH1 0xF8 AND SHR NOT AND SWAP1 SSTORE DUP6 DUP1 PUSH2 0xE2E JUMP JUMPDEST DUP1 PUSH1 0x1 DUP5 SWAP6 DUP3 SWAP5 SWAP6 DUP10 ADD CALLDATALOAD DUP2 SSTORE ADD SWAP5 ADD SWAP3 ADD SWAP1 PUSH2 0xE0D JUMP JUMPDEST PUSH4 0x4E487B71 PUSH1 0xE0 SHL PUSH1 0x0 MSTORE PUSH1 0x41 PUSH1 0x4 MSTORE PUSH1 0x24 PUSH1 0x0 REVERT JUMPDEST PUSH1 0x40 MLOAD PUSH4 0x90490925 PUSH1 0xE0 SHL DUP2 MSTORE PUSH1 0x4 SWAP1 REVERT JUMPDEST CALLVALUE PUSH2 0x270 JUMPI PUSH2 0xEA5 CALLDATASIZE PUSH2 0x1DF5 JUMP JUMPDEST PUSH2 0xEAD PUSH2 0x2138 JUMP JUMPDEST PUSH2 0xEB5 PUSH2 0x211A JUMP JUMPDEST PUSH2 0xEBE DUP4 PUSH2 0x20DF JUMP JUMPDEST CALLER PUSH1 0x1 PUSH1 0x1 PUSH1 0xA0 SHL SUB SWAP1 SWAP2 AND SUB PUSH2 0x25E JUMPI PUSH2 0x200 DUP2 GT PUSH2 0x586 JUMPI PUSH32 0x859FAC2FC059A2FA38EFE7236E1C16278C1519298D62DD05582FF7FA392A1045 SWAP2 PUSH2 0x56D PUSH2 0x567 CALLDATASIZE DUP5 DUP5 PUSH2 0x1E43 JUMP JUMPDEST CALLVALUE PUSH2 0x270 JUMPI PUSH1 0x20 CALLDATASIZE PUSH1 0x3 NOT ADD SLT PUSH2 0x270 JUMPI PUSH1 0x4 CALLDATALOAD PUSH1 0x0 SWAP1 DUP2 MSTORE PUSH1 0xC PUSH1 0x20 MSTORE PUSH1 0x40 SWAP1 KECCAK256 DUP1 SLOAD PUSH1 0x1 DUP3 ADD SLOAD PUSH1 0x1 PUSH1 0x1 PUSH1 0xA0 SHL SUB AND SWAP2 PUSH2 0xF47 PUSH1 0x2 DUP3 ADD PUSH2 0x1D50 JUMP JUMPDEST PUSH2 0xF76 PUSH1 0xFF PUSH1 0x4 PUSH1 0x3 DUP6 ADD SLOAD SWAP5 ADD SLOAD AND SWAP2 PUSH1 0x40 MLOAD SWAP6 DUP7 SWAP6 DUP7 MSTORE PUSH1 0x20 DUP7 ADD MSTORE PUSH1 0xA0 PUSH1 0x40 DUP7 ADD MSTORE PUSH1 0xA0 DUP6 ADD SWAP1 PUSH2 0x1BC0 JUMP JUMPDEST SWAP2 PUSH1 0x60 DUP5 ADD MSTORE ISZERO ISZERO PUSH1 0x80 DUP4 ADD MSTORE SUB SWAP1 RETURN JUMPDEST CALLVALUE PUSH2 0x270 JUMPI PUSH1 0x20 CALLDATASIZE PUSH1 0x3 NOT ADD SLT PUSH2 0x270 JUMPI PUSH1 0x20 PUSH2 0xFA5 PUSH1 0x4 CALLDATALOAD PUSH2 0x20A9 JUMP JUMPDEST PUSH1 0x40 MLOAD SWAP1 ISZERO ISZERO DUP2 MSTORE RETURN JUMPDEST CALLVALUE PUSH2 0x270 JUMPI PUSH2 0x4EF PUSH2 0xFC0 CALLDATASIZE PUSH2 0x1C42 JUMP JUMPDEST SWAP1 PUSH1 0x40 MLOAD SWAP3 PUSH2 0xFCE DUP5 PUSH2 0x1D14 JUMP JUMPDEST PUSH1 0x0 DUP5 MSTORE PUSH2 0x4E9 DUP4 DUP4 DUP4 PUSH2 0x1E7A JUMP JUMPDEST CALLVALUE PUSH2 0x270 JUMPI PUSH1 0x0 CALLDATASIZE PUSH1 0x3 NOT ADD SLT PUSH2 0x270 JUMPI PUSH2 0xFF6 PUSH2 0x24C3 JUMP JUMPDEST PUSH1 0xA SLOAD PUSH1 0xFF DUP2 AND ISZERO PUSH2 0x1035 JUMPI PUSH1 0xFF NOT AND PUSH1 0xA SSTORE PUSH32 0x5DB9EE0A495BF2E6FF9C91A7834C1BA4FDD244A5E8AA4E537BD38AEAE4B073AA PUSH1 0x20 PUSH1 0x40 MLOAD CALLER DUP2 MSTORE LOG1 STOP JUMPDEST PUSH1 0x40 MLOAD PUSH4 0x8DFC202B PUSH1 0xE0 SHL DUP2 MSTORE PUSH1 0x4 SWAP1 REVERT JUMPDEST CALLVALUE PUSH2 0x270 JUMPI PUSH1 0x60 CALLDATASIZE PUSH1 0x3 NOT ADD SLT PUSH2 0x270 JUMPI PUSH1 0x4 CALLDATALOAD PUSH1 0x1 PUSH1 0x1 PUSH1 0x40 SHL SUB PUSH1 0x24 CALLDATALOAD DUP2 DUP2 GT PUSH2 0x270 JUMPI PUSH2 0x107B SWAP1 CALLDATASIZE SWAP1 PUSH1 0x4 ADD PUSH2 0x1C77 JUMP JUMPDEST SWAP1 PUSH2 0x1084 PUSH2 0x1C2C JUMP JUMPDEST PUSH1 0xE SLOAD SWAP1 SWAP4 PUSH1 0x1 PUSH1 0x1 PUSH1 0xA0 SHL SUB SWAP4 SWAP1 SWAP2 DUP5 AND CALLER SUB PUSH2 0x5B6 JUMPI PUSH2 0x10A4 PUSH2 0x2138 JUMP JUMPDEST PUSH2 0x10AC PUSH2 0x211A JUMP JUMPDEST DUP6 ISZERO DUP1 ISZERO PUSH2 0x125E JUMPI JUMPDEST PUSH2 0x598 JUMPI DUP1 PUSH2 0x1148 JUMPI JUMPDEST POP POP POP DUP1 DUP3 AND DUP1 PUSH2 0x10D2 JUMPI JUMPDEST PUSH1 0x1 PUSH1 0x9 SSTORE STOP JUMPDEST DUP3 EXTCODESIZE PUSH2 0xC9F JUMPI PUSH1 0x0 DUP5 DUP2 MSTORE PUSH1 0xC PUSH1 0x20 SWAP1 DUP2 MSTORE PUSH1 0x40 SWAP2 DUP3 SWAP1 KECCAK256 PUSH1 0x1 ADD DUP1 SLOAD PUSH1 0x1 PUSH1 0x1 PUSH1 0xA0 SHL SUB NOT DUP2 AND SWAP5 SWAP1 SWAP5 OR SWAP1 SSTORE DUP2 MLOAD SWAP4 SWAP1 SWAP3 AND PUSH1 0x1 PUSH1 0x1 PUSH1 0xA0 SHL SUB SWAP1 DUP2 AND DUP5 MSTORE SWAP4 SWAP1 SWAP4 AND SWAP1 DUP3 ADD MSTORE PUSH32 0xD116DDFE3CE0D19970E3748D0E65B606D6A7996E8ACE22F241E3BA27CD1E327 SWAP2 SWAP1 LOG2 DUP1 DUP1 DUP1 DUP1 PUSH2 0x10CB JUMP JUMPDEST PUSH2 0x100 DUP2 GT PUSH2 0xE85 JUMPI DUP6 PUSH1 0x0 MSTORE PUSH1 0x20 SWAP3 PUSH1 0xC PUSH1 0x20 MSTORE PUSH1 0x2 PUSH1 0x40 PUSH1 0x0 KECCAK256 ADD SWAP3 DUP3 GT PUSH2 0xE6F JUMPI DUP3 PUSH2 0x117C DUP4 PUSH2 0xD96 DUP11 SWAP7 SLOAD PUSH2 0x1CA4 JUMP JUMPDEST PUSH1 0x0 SWAP5 PUSH1 0x1F DUP5 GT PUSH1 0x1 EQ PUSH2 0x11E4 JUMPI POP PUSH2 0x11BC DUP4 DUP1 PUSH1 0x0 DUP1 MLOAD PUSH1 0x20 PUSH2 0x2626 DUP4 CODECOPY DUP2 MLOAD SWAP2 MSTORE SWAP7 SWAP8 PUSH1 0x0 SWAP2 PUSH2 0x11D9 JUMPI POP DUP2 PUSH1 0x1 SHL SWAP2 PUSH1 0x0 NOT SWAP1 PUSH1 0x3 SHL SHR NOT AND OR SWAP1 JUMP JUMPDEST SWAP1 SSTORE JUMPDEST PUSH2 0x11CE PUSH1 0x40 MLOAD SWAP3 DUP4 SWAP3 DUP4 PUSH2 0x2081 JUMP JUMPDEST SUB SWAP1 LOG2 DUP4 DUP1 DUP1 PUSH2 0x10BF JUMP JUMPDEST SWAP1 POP DUP5 ADD CALLDATALOAD DUP12 PUSH2 0xDC9 JUMP JUMPDEST PUSH1 0x1F NOT DUP5 AND SWAP6 DUP3 PUSH1 0x0 MSTORE PUSH1 0x20 PUSH1 0x0 KECCAK256 SWAP2 PUSH1 0x0 SWAP1 JUMPDEST DUP9 DUP3 LT PUSH2 0x1242 JUMPI POP POP DUP5 PUSH1 0x0 DUP1 MLOAD PUSH1 0x20 PUSH2 0x2626 DUP4 CODECOPY DUP2 MLOAD SWAP2 MSTORE SWAP7 SWAP8 LT PUSH2 0x1228 JUMPI JUMPDEST POP POP PUSH1 0x1 DUP4 DUP2 SHL ADD SWAP1 SSTORE PUSH2 0x11BF JUMP JUMPDEST DUP4 ADD CALLDATALOAD PUSH1 0x0 NOT PUSH1 0x3 DUP7 SWAP1 SHL PUSH1 0xF8 AND SHR NOT AND SWAP1 SSTORE DUP9 DUP1 PUSH2 0x1219 JUMP JUMPDEST DUP6 DUP4 ADD CALLDATALOAD DUP5 SSTORE DUP12 SWAP8 POP PUSH1 0x1 SWAP1 SWAP4 ADD SWAP3 SWAP2 DUP3 ADD SWAP2 SWAP1 DUP2 ADD SWAP1 PUSH2 0x11F8 JUMP JUMPDEST POP PUSH1 0xB SLOAD DUP7 LT ISZERO PUSH2 0x10B5 JUMP JUMPDEST CALLVALUE PUSH2 0x270 JUMPI PUSH1 0xA0 CALLDATASIZE PUSH1 0x3 NOT ADD SLT PUSH2 0x270 JUMPI PUSH2 0x1283 PUSH2 0x1C00 JUMP JUMPDEST PUSH2 0x128B PUSH2 0x1C2C JUMP JUMPDEST SWAP1 PUSH1 0x64 CALLDATALOAD PUSH1 0x1 PUSH1 0x1 PUSH1 0x40 SHL SUB DUP2 GT PUSH2 0x270 JUMPI PUSH2 0x12AB SWAP1 CALLDATASIZE SWAP1 PUSH1 0x4 ADD PUSH2 0x1C77 JUMP JUMPDEST SWAP2 SWAP1 PUSH1 0x84 CALLDATALOAD PUSH1 0x1 PUSH1 0x1 PUSH1 0x40 SHL SUB DUP2 GT PUSH2 0x270 JUMPI PUSH2 0x12CC SWAP1 CALLDATASIZE SWAP1 PUSH1 0x4 ADD PUSH2 0x1C77 JUMP JUMPDEST PUSH1 0xE SLOAD SWAP2 SWAP3 SWAP1 SWAP2 PUSH1 0x1 PUSH1 0x1 PUSH1 0xA0 SHL SUB AND CALLER SUB PUSH2 0x5B6 JUMPI PUSH2 0x12EA PUSH2 0x2138 JUMP JUMPDEST PUSH2 0x12F2 PUSH2 0x211A JUMP JUMPDEST PUSH1 0x1 PUSH1 0x1 PUSH1 0xA0 SHL SUB DUP5 AND ISZERO PUSH2 0x9C8 JUMPI PUSH1 0x24 CALLDATALOAD ISZERO PUSH2 0x598 JUMPI PUSH1 0x1 PUSH1 0x1 PUSH1 0xA0 SHL SUB DUP7 AND ISZERO PUSH2 0x9C8 JUMPI PUSH1 0x24 CALLDATALOAD PUSH1 0x0 MSTORE PUSH1 0xD PUSH1 0x20 MSTORE PUSH1 0x40 PUSH1 0x0 KECCAK256 SLOAD PUSH2 0x155C JUMPI PUSH2 0x100 DUP6 GT PUSH2 0xE85 JUMPI PUSH2 0x200 DUP3 GT PUSH2 0x586 JUMPI DUP6 EXTCODESIZE PUSH2 0xC9F JUMPI PUSH2 0x1380 SWAP1 PUSH1 0xB SLOAD SWAP6 PUSH2 0x1356 DUP8 PUSH2 0x201C JUMP JUMPDEST PUSH1 0xB SSTORE PUSH1 0x40 MLOAD SWAP8 PUSH2 0x1366 DUP10 PUSH2 0x1CDE JUMP JUMPDEST PUSH1 0x24 CALLDATALOAD DUP10 MSTORE PUSH1 0x1 PUSH1 0x1 PUSH1 0xA0 SHL SUB AND PUSH1 0x20 DUP10 ADD MSTORE CALLDATASIZE SWAP2 PUSH2 0x1E43 JUMP JUMPDEST PUSH1 0x40 DUP7 ADD MSTORE TIMESTAMP PUSH1 0x60 DUP7 ADD MSTORE PUSH1 0x1 PUSH1 0x80 DUP7 ADD MSTORE DUP4 PUSH1 0x0 MSTORE PUSH1 0xC PUSH1 0x20 MSTORE PUSH1 0x40 PUSH1 0x0 KECCAK256 DUP6 MLOAD DUP2 SSTORE PUSH1 0x1 DUP2 ADD PUSH1 0x1 DUP1 PUSH1 0xA0 SHL SUB PUSH1 0x20 DUP9 ADD MLOAD AND PUSH1 0x1 PUSH1 0x1 PUSH1 0x60 SHL SUB PUSH1 0xA0 SHL DUP3 SLOAD AND OR SWAP1 SSTORE PUSH1 0x40 DUP7 ADD MLOAD SWAP6 DUP7 MLOAD PUSH1 0x1 PUSH1 0x1 PUSH1 0x40 SHL SUB DUP2 GT PUSH2 0xE6F JUMPI PUSH1 0x20 SWAP8 PUSH2 0x13F9 DUP3 PUSH2 0x13F0 PUSH1 0x2 DUP8 ADD SLOAD PUSH2 0x1CA4 JUMP JUMPDEST PUSH1 0x2 DUP8 ADD PUSH2 0x202B JUMP JUMPDEST DUP9 SWAP1 PUSH1 0x1F DUP4 GT PUSH1 0x1 EQ PUSH2 0x14DD JUMPI PUSH1 0x80 PUSH2 0x1484 SWAP7 SWAP5 PUSH2 0x143B DUP6 PUSH2 0x1462 SWAP7 PUSH2 0x148A SWAP12 SWAP10 SWAP7 PUSH1 0x4 SWAP7 PUSH1 0x0 SWAP3 PUSH2 0x14D2 JUMPI JUMPDEST POP POP DUP2 PUSH1 0x1 SHL SWAP2 PUSH1 0x0 NOT SWAP1 PUSH1 0x3 SHL SHR NOT AND OR SWAP1 JUMP JUMPDEST PUSH1 0x2 DUP6 ADD SSTORE JUMPDEST PUSH1 0x60 DUP2 ADD MLOAD PUSH1 0x3 DUP6 ADD SSTORE ADD MLOAD ISZERO ISZERO SWAP2 ADD SWAP1 PUSH1 0xFF DUP1 NOT DUP4 SLOAD AND SWAP2 ISZERO ISZERO AND OR SWAP1 SSTORE JUMP JUMPDEST PUSH1 0x24 CALLDATALOAD PUSH1 0x0 MSTORE PUSH1 0xD DUP8 MSTORE DUP6 PUSH1 0x40 PUSH1 0x0 KECCAK256 SSTORE PUSH2 0x147D DUP7 DUP7 PUSH2 0x215B JUMP JUMPDEST CALLDATASIZE SWAP2 PUSH2 0x1E43 JUMP JUMPDEST DUP4 PUSH2 0x2389 JUMP JUMPDEST PUSH1 0x40 MLOAD CALLER DUP2 MSTORE PUSH1 0x24 CALLDATALOAD SWAP2 PUSH1 0x1 PUSH1 0x1 PUSH1 0xA0 SHL SUB AND SWAP1 DUP4 SWAP1 PUSH32 0x3B3BD2AE0813649F0A35DF972F28CAC6CA8D704D1D66122C8A336C58FCDB4530 SWAP1 DUP7 SWAP1 LOG4 PUSH1 0x1 PUSH1 0x9 SSTORE PUSH1 0x40 MLOAD SWAP1 DUP2 MSTORE RETURN JUMPDEST ADD MLOAD SWAP1 POP DUP16 DUP1 PUSH2 0x1426 JUMP JUMPDEST SWAP1 PUSH1 0x2 DUP6 ADD PUSH1 0x0 MSTORE DUP10 PUSH1 0x0 KECCAK256 SWAP2 PUSH1 0x0 JUMPDEST PUSH1 0x1F NOT DUP6 AND DUP2 LT PUSH2 0x1545 JUMPI POP PUSH2 0x1484 SWAP7 SWAP5 PUSH1 0x1 DUP6 PUSH2 0x148A SWAP11 SWAP9 SWAP6 PUSH1 0x4 SWAP6 PUSH1 0x80 SWAP6 PUSH2 0x1462 SWAP10 PUSH1 0x1F NOT DUP2 AND LT PUSH2 0x152C JUMPI JUMPDEST POP POP POP DUP2 SHL ADD PUSH1 0x2 DUP6 ADD SSTORE PUSH2 0x1441 JUMP JUMPDEST ADD MLOAD PUSH1 0x0 NOT PUSH1 0xF8 DUP5 PUSH1 0x3 SHL AND SHR NOT AND SWAP1 SSTORE DUP15 DUP1 DUP1 PUSH2 0x151C JUMP JUMPDEST SWAP2 SWAP3 DUP12 PUSH1 0x1 DUP2 SWAP3 DUP7 DUP6 ADD MLOAD DUP2 SSTORE ADD SWAP5 ADD SWAP3 ADD PUSH2 0x14ED JUMP JUMPDEST PUSH1 0x40 MLOAD PUSH4 0xD82532D PUSH1 0xE2 SHL DUP2 MSTORE PUSH1 0x4 SWAP1 REVERT JUMPDEST CALLVALUE PUSH2 0x270 JUMPI PUSH1 0x0 CALLDATASIZE PUSH1 0x3 NOT ADD SLT PUSH2 0x270 JUMPI PUSH1 0x20 PUSH1 0xB SLOAD PUSH1 0x40 MLOAD SWAP1 DUP2 MSTORE RETURN JUMPDEST CALLVALUE PUSH2 0x270 JUMPI PUSH1 0x20 DUP1 PUSH1 0x3 NOT CALLDATASIZE ADD SLT PUSH2 0x270 JUMPI PUSH1 0x0 PUSH1 0x80 PUSH1 0x40 MLOAD PUSH2 0x15AE DUP2 PUSH2 0x1CDE JUMP JUMPDEST DUP3 DUP2 MSTORE DUP3 DUP5 DUP3 ADD MSTORE PUSH1 0x60 PUSH1 0x40 DUP3 ADD MSTORE DUP3 PUSH1 0x60 DUP3 ADD MSTORE ADD MSTORE PUSH1 0x4 CALLDATALOAD PUSH1 0x0 MSTORE PUSH1 0xC DUP2 MSTORE PUSH1 0x40 PUSH1 0x0 KECCAK256 PUSH1 0x40 MLOAD SWAP1 PUSH2 0x15E1 DUP3 PUSH2 0x1CDE JUMP JUMPDEST DUP1 SLOAD DUP3 MSTORE PUSH1 0x1 DUP2 ADD SLOAD PUSH1 0x1 PUSH1 0x1 PUSH1 0xA0 SHL SUB SWAP1 DUP2 AND DUP5 DUP5 ADD SWAP1 DUP2 MSTORE SWAP1 PUSH2 0x1659 SWAP1 PUSH2 0x160C PUSH1 0x2 DUP6 ADD PUSH2 0x1D50 JUMP JUMPDEST SWAP1 PUSH1 0x40 DUP7 ADD SWAP2 DUP3 MSTORE PUSH1 0xFF PUSH1 0x4 PUSH1 0x3 DUP8 ADD SLOAD SWAP7 PUSH1 0x60 DUP10 ADD SWAP8 DUP9 MSTORE ADD SLOAD AND SWAP4 PUSH1 0x80 DUP8 ADD SWAP5 ISZERO ISZERO DUP6 MSTORE PUSH1 0x40 MLOAD SWAP8 DUP9 SWAP8 DUP2 DUP10 MSTORE MLOAD SWAP1 DUP9 ADD MSTORE MLOAD AND PUSH1 0x40 DUP7 ADD MSTORE MLOAD PUSH1 0xA0 PUSH1 0x60 DUP7 ADD MSTORE PUSH1 0xC0 DUP6 ADD SWAP1 PUSH2 0x1BC0 JUMP JUMPDEST SWAP2 MLOAD PUSH1 0x80 DUP5 ADD MSTORE MLOAD ISZERO ISZERO PUSH1 0xA0 DUP4 ADD MSTORE SUB SWAP1 RETURN JUMPDEST CALLVALUE PUSH2 0x270 JUMPI PUSH1 0x80 CALLDATASIZE PUSH1 0x3 NOT ADD SLT PUSH2 0x270 JUMPI PUSH2 0x1685 PUSH2 0x1C16 JUMP JUMPDEST PUSH1 0x1 PUSH1 0x1 PUSH1 0x40 SHL SUB SWAP1 PUSH1 0x44 CALLDATALOAD DUP3 DUP2 GT PUSH2 0x270 JUMPI PUSH2 0x16A6 SWAP1 CALLDATASIZE SWAP1 PUSH1 0x4 ADD PUSH2 0x1C77 JUMP JUMPDEST PUSH1 0x64 SWAP3 SWAP2 SWAP3 CALLDATALOAD DUP5 DUP2 GT PUSH2 0x270 JUMPI PUSH2 0x16C1 SWAP1 CALLDATASIZE SWAP1 PUSH1 0x4 ADD PUSH2 0x1C77 JUMP JUMPDEST SWAP3 SWAP1 SWAP2 PUSH2 0x16CC PUSH2 0x2138 JUMP JUMPDEST PUSH2 0x16D4 PUSH2 0x211A JUMP JUMPDEST PUSH1 0x4 CALLDATALOAD ISZERO PUSH2 0x598 JUMPI PUSH1 0x1 PUSH1 0x1 PUSH1 0xA0 SHL SUB SWAP2 DUP1 DUP4 AND SWAP1 DUP2 ISZERO PUSH2 0x9C8 JUMPI PUSH1 0x4 CALLDATALOAD PUSH1 0x0 MSTORE PUSH1 0xD PUSH1 0x20 MSTORE PUSH1 0x40 PUSH1 0x0 KECCAK256 SLOAD PUSH2 0x155C JUMPI PUSH2 0x100 DUP4 GT PUSH2 0xE85 JUMPI PUSH2 0x200 DUP7 GT PUSH2 0x586 JUMPI EXTCODESIZE PUSH2 0xC9F JUMPI PUSH2 0x174E PUSH1 0xB SLOAD SWAP7 PUSH2 0x172B DUP9 PUSH2 0x201C JUMP JUMPDEST PUSH1 0xB SSTORE PUSH1 0x40 MLOAD SWAP4 PUSH2 0x173B DUP6 PUSH2 0x1CDE JUMP JUMPDEST PUSH1 0x4 CALLDATALOAD DUP6 MSTORE PUSH1 0x20 DUP6 ADD SWAP4 DUP5 MSTORE CALLDATASIZE SWAP2 PUSH2 0x1E43 JUMP JUMPDEST SWAP1 PUSH1 0x40 DUP4 ADD SWAP2 DUP3 MSTORE TIMESTAMP PUSH1 0x60 DUP5 ADD MSTORE PUSH1 0x1 PUSH1 0x80 DUP5 ADD MSTORE DUP7 PUSH1 0x0 MSTORE PUSH1 0xC PUSH1 0x20 MSTORE PUSH1 0x40 PUSH1 0x0 KECCAK256 SWAP4 DUP4 MLOAD DUP6 SSTORE PUSH1 0x1 DUP6 ADD SWAP2 MLOAD AND PUSH1 0x1 PUSH1 0x1 PUSH1 0x60 SHL SUB PUSH1 0xA0 SHL DUP3 SLOAD AND OR SWAP1 SSTORE MLOAD SWAP6 DUP7 MLOAD SWAP1 DUP2 GT PUSH2 0xE6F JUMPI PUSH1 0x20 SWAP7 PUSH2 0x17AD DUP3 PUSH2 0x13F0 PUSH1 0x2 DUP8 ADD SLOAD PUSH2 0x1CA4 JUMP JUMPDEST DUP8 SWAP1 PUSH1 0x1F DUP4 GT PUSH1 0x1 EQ PUSH2 0x1865 JUMPI SWAP3 PUSH2 0x143B DUP4 PUSH1 0x4 SWAP5 PUSH1 0x80 SWAP5 PUSH2 0x17E6 SWAP9 SWAP8 PUSH1 0x0 SWAP3 PUSH2 0x185A JUMPI POP POP DUP2 PUSH1 0x1 SHL SWAP2 PUSH1 0x0 NOT SWAP1 PUSH1 0x3 SHL SHR NOT AND OR SWAP1 JUMP JUMPDEST PUSH1 0x4 CALLDATALOAD PUSH1 0x0 MSTORE PUSH1 0xD DUP5 MSTORE DUP3 PUSH1 0x40 PUSH1 0x0 KECCAK256 SSTORE PUSH2 0x1801 DUP4 CALLER PUSH2 0x215B JUMP JUMPDEST PUSH2 0x1815 PUSH2 0x180F CALLDATASIZE DUP5 DUP5 PUSH2 0x1E43 JUMP JUMPDEST DUP5 PUSH2 0x2389 JUMP JUMPDEST DUP3 PUSH32 0xCBB96F51F0D44AAD38BD37E9959154A2F979B86301A6EFBCB08D83F10AC9C820 PUSH1 0x40 MLOAD DUP1 PUSH2 0x184A PUSH1 0x4 CALLDATALOAD SWAP7 CALLER SWAP7 DUP4 PUSH2 0x2081 JUMP JUMPDEST SUB SWAP1 LOG4 PUSH1 0x1 PUSH1 0x9 SSTORE PUSH1 0x40 MLOAD SWAP1 DUP2 MSTORE RETURN JUMPDEST ADD MLOAD SWAP1 POP DUP13 DUP1 PUSH2 0x1426 JUMP JUMPDEST SWAP1 PUSH1 0x2 DUP6 ADD PUSH1 0x0 MSTORE DUP9 PUSH1 0x0 KECCAK256 SWAP2 PUSH1 0x0 JUMPDEST PUSH1 0x1F NOT DUP6 AND DUP2 LT PUSH2 0x18C4 JUMPI POP DUP4 PUSH1 0x80 SWAP4 PUSH2 0x17E6 SWAP8 SWAP7 SWAP4 PUSH1 0x1 SWAP4 PUSH1 0x4 SWAP8 PUSH1 0x1F NOT DUP2 AND LT PUSH2 0x18AB JUMPI POP POP POP DUP2 SHL ADD PUSH1 0x2 DUP6 ADD SSTORE PUSH2 0x1441 JUMP JUMPDEST ADD MLOAD PUSH1 0x0 NOT PUSH1 0xF8 DUP5 PUSH1 0x3 SHL AND SHR NOT AND SWAP1 SSTORE DUP12 DUP1 DUP1 PUSH2 0x151C JUMP JUMPDEST SWAP2 SWAP3 DUP11 PUSH1 0x1 DUP2 SWAP3 DUP7 DUP6 ADD MLOAD DUP2 SSTORE ADD SWAP5 ADD SWAP3 ADD PUSH2 0x1875 JUMP JUMPDEST CALLVALUE PUSH2 0x270 JUMPI PUSH2 0x4EF PUSH2 0x18EC CALLDATASIZE PUSH2 0x1C42 JUMP JUMPDEST SWAP2 PUSH2 0x1E7A JUMP JUMPDEST CALLVALUE PUSH2 0x270 JUMPI PUSH1 0x20 CALLDATASIZE PUSH1 0x3 NOT ADD SLT PUSH2 0x270 JUMPI PUSH1 0x4 CALLDATALOAD PUSH2 0x190E PUSH2 0x211A JUMP JUMPDEST PUSH2 0x1917 DUP2 PUSH2 0x20DF JUMP JUMPDEST CALLER PUSH1 0x1 PUSH1 0x1 PUSH1 0xA0 SHL SUB SWAP1 SWAP2 AND SUB PUSH2 0x25E JUMPI DUP1 PUSH1 0x0 MSTORE PUSH1 0xC PUSH1 0x20 MSTORE PUSH1 0x4 PUSH1 0x40 PUSH1 0x0 KECCAK256 ADD PUSH1 0x1 PUSH1 0xFF NOT DUP3 SLOAD AND OR SWAP1 SSTORE PUSH32 0x7CCE21C1F4552995DCCACE889E9AD45FEBF59C654D3FD1D7AB0457FA1439AA2C PUSH1 0x0 DUP1 LOG2 STOP JUMPDEST CALLVALUE PUSH2 0x270 JUMPI PUSH1 0x40 CALLDATASIZE PUSH1 0x3 NOT ADD SLT PUSH2 0x270 JUMPI PUSH2 0x1984 PUSH2 0x1C00 JUMP JUMPDEST PUSH1 0x24 CALLDATALOAD PUSH2 0x1990 DUP2 PUSH2 0x20DF JUMP JUMPDEST CALLER ISZERO ISZERO DUP1 PUSH2 0x1A3F JUMPI JUMPDEST DUP1 PUSH2 0x1A12 JUMPI JUMPDEST PUSH2 0x19FA JUMPI PUSH1 0x1 PUSH1 0x1 PUSH1 0xA0 SHL SUB SWAP3 DUP4 AND SWAP3 DUP3 SWAP2 DUP5 SWAP2 AND PUSH32 0x8C5BE1E5EBEC7D5BD14F71427D1E84F3DD0314C0F7B2291E5B200AC8C7C3B925 PUSH1 0x0 DUP1 LOG4 PUSH1 0x0 SWAP1 DUP2 MSTORE PUSH1 0x4 PUSH1 0x20 MSTORE PUSH1 0x40 SWAP1 KECCAK256 DUP1 SLOAD PUSH1 0x1 PUSH1 0x1 PUSH1 0xA0 SHL SUB NOT AND SWAP1 SWAP2 OR SWAP1 SSTORE STOP JUMPDEST PUSH1 0x40 MLOAD PUSH4 0xA9FBF51F PUSH1 0xE0 SHL DUP2 MSTORE CALLER PUSH1 0x4 DUP3 ADD MSTORE PUSH1 0x24 SWAP1 REVERT JUMPDEST POP PUSH1 0x1 DUP1 PUSH1 0xA0 SHL SUB DUP2 AND PUSH1 0x0 MSTORE PUSH1 0x5 PUSH1 0x20 MSTORE PUSH1 0x40 PUSH1 0x0 KECCAK256 CALLER PUSH1 0x0 MSTORE PUSH1 0x20 MSTORE PUSH1 0xFF PUSH1 0x40 PUSH1 0x0 KECCAK256 SLOAD AND ISZERO PUSH2 0x199F JUMP JUMPDEST POP PUSH1 0x1 PUSH1 0x1 PUSH1 0xA0 SHL SUB DUP2 AND CALLER EQ ISZERO PUSH2 0x1999 JUMP JUMPDEST CALLVALUE PUSH2 0x270 JUMPI PUSH1 0x20 CALLDATASIZE PUSH1 0x3 NOT ADD SLT PUSH2 0x270 JUMPI PUSH1 0x4 CALLDATALOAD PUSH2 0x1A6F DUP2 PUSH2 0x20DF JUMP JUMPDEST POP PUSH1 0x0 MSTORE PUSH1 0x4 PUSH1 0x20 MSTORE PUSH1 0x20 PUSH1 0x1 DUP1 PUSH1 0xA0 SHL SUB PUSH1 0x40 PUSH1 0x0 KECCAK256 SLOAD AND PUSH1 0x40 MLOAD SWAP1 DUP2 MSTORE RETURN JUMPDEST CALLVALUE PUSH2 0x270 JUMPI PUSH1 0x0 CALLDATASIZE PUSH1 0x3 NOT ADD SLT PUSH2 0x270 JUMPI PUSH1 0x40 MLOAD PUSH1 0x0 DUP1 SLOAD SWAP1 DUP3 PUSH2 0x1AB3 DUP4 PUSH2 0x1CA4 JUMP JUMPDEST SWAP2 DUP3 DUP3 MSTORE PUSH1 0x20 SWAP4 PUSH1 0x1 SWAP1 DUP6 PUSH1 0x1 DUP3 AND SWAP2 DUP3 PUSH1 0x0 EQ PUSH2 0x77F JUMPI POP POP PUSH1 0x1 EQ PUSH2 0x1AE1 JUMPI POP PUSH2 0x70E SWAP3 POP SUB DUP4 PUSH2 0x1D2F JUMP JUMPDEST PUSH1 0x0 DUP1 DUP1 MSTORE DUP6 SWAP3 POP SWAP1 PUSH32 0x290DECD9548B62A8D60345A988386FC84BA6BC95484008F6362F93160EF3E563 JUMPDEST DUP6 DUP4 LT PUSH2 0x1B23 JUMPI POP POP PUSH2 0x70E SWAP4 POP DUP3 ADD ADD DUP6 PUSH2 0x701 JUMP JUMPDEST DUP1 SLOAD DUP4 DUP10 ADD DUP6 ADD MSTORE DUP8 SWAP5 POP DUP7 SWAP4 SWAP1 SWAP3 ADD SWAP2 DUP2 ADD PUSH2 0x1B0C JUMP JUMPDEST CALLVALUE PUSH2 0x270 JUMPI PUSH1 0x20 CALLDATASIZE PUSH1 0x3 NOT ADD SLT PUSH2 0x270 JUMPI PUSH1 0x4 CALLDATALOAD SWAP1 PUSH4 0xFFFFFFFF PUSH1 0xE0 SHL DUP3 AND DUP1 SWAP3 SUB PUSH2 0x270 JUMPI PUSH1 0x20 SWAP2 PUSH4 0x24832483 PUSH1 0xE1 SHL DUP2 EQ SWAP1 DUP2 ISZERO PUSH2 0x1B7D JUMPI JUMPDEST POP ISZERO ISZERO DUP2 MSTORE RETURN JUMPDEST PUSH4 0x80AC58CD PUSH1 0xE0 SHL DUP2 EQ SWAP2 POP DUP2 ISZERO PUSH2 0x1BAF JUMPI JUMPDEST DUP2 ISZERO PUSH2 0x1B9E JUMPI JUMPDEST POP DUP4 PUSH2 0x1B76 JUMP JUMPDEST PUSH4 0x1FFC9A7 PUSH1 0xE0 SHL EQ SWAP1 POP DUP4 PUSH2 0x1B97 JUMP JUMPDEST PUSH4 0x5B5E139F PUSH1 0xE0 SHL DUP2 EQ SWAP2 POP PUSH2 0x1B90 JUMP JUMPDEST SWAP2 SWAP1 DUP3 MLOAD SWAP3 DUP4 DUP3 MSTORE PUSH1 0x0 JUMPDEST DUP5 DUP2 LT PUSH2 0x1BEC JUMPI POP POP DUP3 PUSH1 0x0 PUSH1 0x20 DUP1 SWAP5 SWAP6 DUP5 ADD ADD MSTORE PUSH1 0x1F DUP1 NOT SWAP2 ADD AND ADD ADD SWAP1 JUMP JUMPDEST PUSH1 0x20 DUP2 DUP4 ADD DUP2 ADD MLOAD DUP5 DUP4 ADD DUP3 ADD MSTORE ADD PUSH2 0x1BCB JUMP JUMPDEST PUSH1 0x4 CALLDATALOAD SWAP1 PUSH1 0x1 PUSH1 0x1 PUSH1 0xA0 SHL SUB DUP3 AND DUP3 SUB PUSH2 0x270 JUMPI JUMP JUMPDEST PUSH1 0x24 CALLDATALOAD SWAP1 PUSH1 0x1 PUSH1 0x1 PUSH1 0xA0 SHL SUB DUP3 AND DUP3 SUB PUSH2 0x270 JUMPI JUMP JUMPDEST PUSH1 0x44 CALLDATALOAD SWAP1 PUSH1 0x1 PUSH1 0x1 PUSH1 0xA0 SHL SUB DUP3 AND DUP3 SUB PUSH2 0x270 JUMPI JUMP JUMPDEST PUSH1 0x60 SWAP1 PUSH1 0x3 NOT ADD SLT PUSH2 0x270 JUMPI PUSH1 0x1 PUSH1 0x1 PUSH1 0xA0 SHL SUB SWAP1 PUSH1 0x4 CALLDATALOAD DUP3 DUP2 AND DUP2 SUB PUSH2 0x270 JUMPI SWAP2 PUSH1 0x24 CALLDATALOAD SWAP1 DUP2 AND DUP2 SUB PUSH2 0x270 JUMPI SWAP1 PUSH1 0x44 CALLDATALOAD SWAP1 JUMP JUMPDEST SWAP2 DUP2 PUSH1 0x1F DUP5 ADD SLT ISZERO PUSH2 0x270 JUMPI DUP3 CALLDATALOAD SWAP2 PUSH1 0x1 PUSH1 0x1 PUSH1 0x40 SHL SUB DUP4 GT PUSH2 0x270 JUMPI PUSH1 0x20 DUP4 DUP2 DUP7 ADD SWAP6 ADD ADD GT PUSH2 0x270 JUMPI JUMP JUMPDEST SWAP1 PUSH1 0x1 DUP3 DUP2 SHR SWAP3 AND DUP1 ISZERO PUSH2 0x1CD4 JUMPI JUMPDEST PUSH1 0x20 DUP4 LT EQ PUSH2 0x1CBE JUMPI JUMP JUMPDEST PUSH4 0x4E487B71 PUSH1 0xE0 SHL PUSH1 0x0 MSTORE PUSH1 0x22 PUSH1 0x4 MSTORE PUSH1 0x24 PUSH1 0x0 REVERT JUMPDEST SWAP2 PUSH1 0x7F AND SWAP2 PUSH2 0x1CB3 JUMP JUMPDEST PUSH1 0xA0 DUP2 ADD SWAP1 DUP2 LT PUSH1 0x1 PUSH1 0x1 PUSH1 0x40 SHL SUB DUP3 GT OR PUSH2 0xE6F JUMPI PUSH1 0x40 MSTORE JUMP JUMPDEST PUSH1 0x40 DUP2 ADD SWAP1 DUP2 LT PUSH1 0x1 PUSH1 0x1 PUSH1 0x40 SHL SUB DUP3 GT OR PUSH2 0xE6F JUMPI PUSH1 0x40 MSTORE JUMP JUMPDEST PUSH1 0x20 DUP2 ADD SWAP1 DUP2 LT PUSH1 0x1 PUSH1 0x1 PUSH1 0x40 SHL SUB DUP3 GT OR PUSH2 0xE6F JUMPI PUSH1 0x40 MSTORE JUMP JUMPDEST SWAP1 PUSH1 0x1F DUP1 NOT SWAP2 ADD AND DUP2 ADD SWAP1 DUP2 LT PUSH1 0x1 PUSH1 0x1 PUSH1 0x40 SHL SUB DUP3 GT OR PUSH2 0xE6F JUMPI PUSH1 0x40 MSTORE JUMP JUMPDEST SWAP1 PUSH1 0x40 MLOAD SWAP2 DUP3 PUSH1 0x0 DUP3 SLOAD PUSH2 0x1D63 DUP2 PUSH2 0x1CA4 JUMP JUMPDEST SWAP1 DUP2 DUP5 MSTORE PUSH1 0x20 SWAP5 PUSH1 0x1 SWAP2 PUSH1 0x1 DUP2 AND SWAP1 DUP2 PUSH1 0x0 EQ PUSH2 0x1DD3 JUMPI POP PUSH1 0x1 EQ PUSH2 0x1D94 JUMPI JUMPDEST POP POP POP PUSH2 0x1D92 SWAP3 POP SUB DUP4 PUSH2 0x1D2F JUMP JUMPDEST JUMP JUMPDEST PUSH1 0x0 SWAP1 DUP2 MSTORE DUP6 DUP2 KECCAK256 SWAP6 SWAP4 POP SWAP2 SWAP1 JUMPDEST DUP2 DUP4 LT PUSH2 0x1DBB JUMPI POP POP PUSH2 0x1D92 SWAP4 POP DUP3 ADD ADD CODESIZE DUP1 DUP1 PUSH2 0x1D83 JUMP JUMPDEST DUP6 SLOAD DUP9 DUP5 ADD DUP6 ADD MSTORE SWAP5 DUP6 ADD SWAP5 DUP8 SWAP5 POP SWAP2 DUP4 ADD SWAP2 PUSH2 0x1DA2 JUMP JUMPDEST SWAP3 POP POP POP PUSH2 0x1D92 SWAP5 SWAP3 POP PUSH1 0xFF NOT AND DUP3 DUP5 ADD MSTORE ISZERO ISZERO PUSH1 0x5 SHL DUP3 ADD ADD CODESIZE DUP1 DUP1 PUSH2 0x1D83 JUMP JUMPDEST SWAP1 PUSH1 0x40 PUSH1 0x3 NOT DUP4 ADD SLT PUSH2 0x270 JUMPI PUSH1 0x4 CALLDATALOAD SWAP2 PUSH1 0x24 CALLDATALOAD SWAP1 PUSH1 0x1 PUSH1 0x1 PUSH1 0x40 SHL SUB DUP3 GT PUSH2 0x270 JUMPI PUSH2 0x1E24 SWAP2 PUSH1 0x4 ADD PUSH2 0x1C77 JUMP JUMPDEST SWAP1 SWAP2 JUMP JUMPDEST PUSH1 0x1 PUSH1 0x1 PUSH1 0x40 SHL SUB DUP2 GT PUSH2 0xE6F JUMPI PUSH1 0x1F ADD PUSH1 0x1F NOT AND PUSH1 0x20 ADD SWAP1 JUMP JUMPDEST SWAP3 SWAP2 SWAP3 PUSH2 0x1E4F DUP3 PUSH2 0x1E28 JUMP JUMPDEST SWAP2 PUSH2 0x1E5D PUSH1 0x40 MLOAD SWAP4 DUP5 PUSH2 0x1D2F JUMP JUMPDEST DUP3 SWAP5 DUP2 DUP5 MSTORE DUP2 DUP4 ADD GT PUSH2 0x270 JUMPI DUP3 DUP2 PUSH1 0x20 SWAP4 DUP5 PUSH1 0x0 SWAP7 ADD CALLDATACOPY ADD ADD MSTORE JUMP JUMPDEST PUSH1 0x1 PUSH1 0x1 PUSH1 0xA0 SHL SUB SWAP2 DUP3 AND SWAP3 SWAP1 SWAP2 DUP4 ISZERO PUSH2 0x2003 JUMPI PUSH1 0x0 SWAP3 DUP3 DUP5 MSTORE DUP3 PUSH1 0x20 SWAP6 PUSH1 0x2 DUP8 MSTORE PUSH1 0x40 SWAP7 DUP5 DUP9 DUP9 KECCAK256 SLOAD AND SWAP7 DUP8 SWAP2 CALLER ISZERO ISZERO DUP1 PUSH2 0x1F6A JUMPI JUMPDEST POP SWAP1 PUSH1 0x2 PUSH32 0xDDF252AD1BE2C89B69C2B068FC378DAA952BA7F163C4A11628F55A4DF523B3EF SWAP3 DUP5 PUSH2 0x1F37 JUMPI JUMPDEST DUP6 DUP4 MSTORE PUSH1 0x3 DUP2 MSTORE DUP12 DUP4 KECCAK256 DUP1 SLOAD PUSH1 0x1 ADD SWAP1 SSTORE DUP7 DUP4 MSTORE MSTORE DUP10 DUP2 KECCAK256 DUP1 SLOAD PUSH1 0x1 PUSH1 0x1 PUSH1 0xA0 SHL SUB NOT AND DUP6 OR SWAP1 SSTORE DUP1 LOG4 AND SWAP3 DUP4 DUP4 SUB PUSH2 0x1F16 JUMPI POP POP POP POP JUMP JUMPDEST PUSH1 0x64 SWAP5 POP MLOAD SWAP3 PUSH4 0x64283D7B PUSH1 0xE0 SHL DUP5 MSTORE PUSH1 0x4 DUP5 ADD MSTORE PUSH1 0x24 DUP4 ADD MSTORE PUSH1 0x44 DUP3 ADD MSTORE REVERT JUMPDEST PUSH1 0x0 DUP8 DUP2 MSTORE PUSH1 0x4 PUSH1 0x20 MSTORE PUSH1 0x40 SWAP1 KECCAK256 DUP1 SLOAD PUSH1 0x1 PUSH1 0x1 PUSH1 0xA0 SHL SUB NOT AND SWAP1 SSTORE DUP5 DUP4 MSTORE PUSH1 0x3 DUP2 MSTORE DUP12 DUP4 KECCAK256 DUP1 SLOAD PUSH1 0x0 NOT ADD SWAP1 SSTORE PUSH2 0x1EDD JUMP JUMPDEST SWAP2 SWAP4 SWAP5 POP SWAP2 POP DUP1 PUSH2 0x1FC2 JUMPI JUMPDEST ISZERO PUSH2 0x1F86 JUMPI DUP6 SWAP3 SWAP2 DUP8 SWAP2 CODESIZE PUSH2 0x1EB1 JUMP JUMPDEST DUP8 DUP7 DUP9 PUSH2 0x1FA3 JUMPI PUSH1 0x24 SWAP2 MLOAD SWAP1 PUSH4 0x7E273289 PUSH1 0xE0 SHL DUP3 MSTORE PUSH1 0x4 DUP3 ADD MSTORE REVERT JUMPDEST SWAP1 MLOAD PUSH4 0x177E802F PUSH1 0xE0 SHL DUP2 MSTORE CALLER PUSH1 0x4 DUP3 ADD MSTORE PUSH1 0x24 DUP2 ADD SWAP2 SWAP1 SWAP2 MSTORE PUSH1 0x44 SWAP1 REVERT JUMPDEST POP CALLER DUP8 EQ DUP1 ISZERO PUSH2 0x1FE7 JUMPI JUMPDEST DUP1 PUSH2 0x1F76 JUMPI POP DUP6 DUP3 MSTORE PUSH1 0x4 DUP2 MSTORE CALLER DUP6 DUP10 DUP5 KECCAK256 SLOAD AND EQ PUSH2 0x1F76 JUMP JUMPDEST POP DUP7 DUP3 MSTORE PUSH1 0x5 DUP2 MSTORE DUP8 DUP3 KECCAK256 CALLER DUP4 MSTORE DUP2 MSTORE PUSH1 0xFF DUP9 DUP4 KECCAK256 SLOAD AND PUSH2 0x1FCD JUMP JUMPDEST PUSH1 0x40 MLOAD PUSH4 0x32505749 PUSH1 0xE1 SHL DUP2 MSTORE PUSH1 0x0 PUSH1 0x4 DUP3 ADD MSTORE PUSH1 0x24 SWAP1 REVERT JUMPDEST PUSH1 0x0 NOT DUP2 EQ PUSH2 0xC89 JUMPI PUSH1 0x1 ADD SWAP1 JUMP JUMPDEST SWAP1 PUSH1 0x1F DUP2 GT PUSH2 0x2039 JUMPI POP POP POP JUMP JUMPDEST PUSH1 0x0 SWAP2 PUSH1 0x0 MSTORE PUSH1 0x20 PUSH1 0x0 KECCAK256 SWAP1 PUSH1 0x20 PUSH1 0x1F DUP6 ADD PUSH1 0x5 SHR DUP4 ADD SWAP5 LT PUSH2 0x2077 JUMPI JUMPDEST PUSH1 0x1F ADD PUSH1 0x5 SHR ADD SWAP2 JUMPDEST DUP3 DUP2 LT PUSH2 0x206C JUMPI POP POP POP JUMP JUMPDEST DUP2 DUP2 SSTORE PUSH1 0x1 ADD PUSH2 0x2060 JUMP JUMPDEST SWAP1 SWAP3 POP DUP3 SWAP1 PUSH2 0x2057 JUMP JUMPDEST SWAP1 SWAP2 DUP1 PUSH1 0x40 SWAP4 PUSH1 0x20 DUP5 MSTORE DUP2 PUSH1 0x20 DUP6 ADD MSTORE DUP5 DUP5 ADD CALLDATACOPY PUSH1 0x0 DUP3 DUP3 ADD DUP5 ADD MSTORE PUSH1 0x1F ADD PUSH1 0x1F NOT AND ADD ADD SWAP1 JUMP JUMPDEST DUP1 ISZERO DUP1 ISZERO PUSH2 0x20D3 JUMPI JUMPDEST PUSH2 0x20CD JUMPI PUSH1 0x0 MSTORE PUSH1 0xC PUSH1 0x20 MSTORE PUSH1 0xFF PUSH1 0x4 PUSH1 0x40 PUSH1 0x0 KECCAK256 ADD SLOAD AND SWAP1 JUMP JUMPDEST POP PUSH1 0x0 SWAP1 JUMP JUMPDEST POP PUSH1 0xB SLOAD DUP2 LT ISZERO PUSH2 0x20B2 JUMP JUMPDEST PUSH1 0x0 DUP2 DUP2 MSTORE PUSH1 0x2 PUSH1 0x20 MSTORE PUSH1 0x40 SWAP1 KECCAK256 SLOAD PUSH1 0x1 PUSH1 0x1 PUSH1 0xA0 SHL SUB AND SWAP1 DUP2 ISZERO PUSH2 0x2102 JUMPI POP SWAP1 JUMP JUMPDEST PUSH1 0x24 SWAP1 PUSH1 0x40 MLOAD SWAP1 PUSH4 0x7E273289 PUSH1 0xE0 SHL DUP3 MSTORE PUSH1 0x4 DUP3 ADD MSTORE REVERT JUMPDEST PUSH1 0xFF PUSH1 0xA SLOAD AND PUSH2 0x2126 JUMPI JUMP JUMPDEST PUSH1 0x40 MLOAD PUSH4 0xD93C0665 PUSH1 0xE0 SHL DUP2 MSTORE PUSH1 0x4 SWAP1 REVERT JUMPDEST PUSH1 0x2 PUSH1 0x9 SLOAD EQ PUSH2 0x2149 JUMPI PUSH1 0x2 PUSH1 0x9 SSTORE JUMP JUMPDEST PUSH1 0x40 MLOAD PUSH4 0x3EE5AEB5 PUSH1 0xE0 SHL DUP2 MSTORE PUSH1 0x4 SWAP1 REVERT JUMPDEST PUSH1 0x40 DUP1 MLOAD PUSH2 0x2168 DUP2 PUSH2 0x1D14 JUMP JUMPDEST PUSH1 0x0 DUP1 DUP3 MSTORE SWAP4 PUSH1 0x1 PUSH1 0x1 PUSH1 0xA0 SHL SUB DUP5 DUP2 AND SWAP5 SWAP1 SWAP3 SWAP1 DUP6 ISZERO PUSH2 0x2371 JUMPI DUP3 DUP8 MSTORE PUSH1 0x20 SWAP4 PUSH1 0x2 DUP6 MSTORE DUP6 DUP9 KECCAK256 SLOAD AND DUP4 DUP8 DUP3 ISZERO ISZERO SWAP3 DUP4 PUSH2 0x233E JUMPI JUMPDEST DUP2 DUP12 MSTORE PUSH1 0x3 DUP9 MSTORE DUP9 DUP12 KECCAK256 DUP1 SLOAD PUSH1 0x1 ADD SWAP1 SSTORE DUP3 DUP12 MSTORE PUSH1 0x2 DUP9 MSTORE DUP9 DUP12 KECCAK256 DUP1 SLOAD PUSH1 0x1 PUSH1 0x1 PUSH1 0xA0 SHL SUB NOT AND DUP4 OR SWAP1 SSTORE PUSH32 0xDDF252AD1BE2C89B69C2B068FC378DAA952BA7F163C4A11628F55A4DF523B3EF DUP12 DUP1 LOG4 PUSH2 0x2326 JUMPI EXTCODESIZE PUSH2 0x21FF JUMPI JUMPDEST POP POP POP POP POP POP JUMP JUMPDEST DUP3 PUSH2 0x223D SWAP2 DUP6 SWAP7 SWAP8 SWAP9 SWAP5 SWAP6 MLOAD DUP1 SWAP4 DUP2 SWAP3 PUSH4 0xA85BD01 PUSH1 0xE1 SHL SWAP7 DUP8 DUP5 MSTORE CALLER PUSH1 0x4 DUP6 ADD MSTORE DUP13 PUSH1 0x24 DUP6 ADD MSTORE PUSH1 0x44 DUP5 ADD MSTORE PUSH1 0x80 PUSH1 0x64 DUP5 ADD MSTORE PUSH1 0x84 DUP4 ADD SWAP1 PUSH2 0x1BC0 JUMP JUMPDEST SUB DUP2 DUP11 DUP11 GAS CALL DUP8 SWAP2 DUP2 PUSH2 0x22E2 JUMPI JUMPDEST POP PUSH2 0x22AB JUMPI POP POP POP RETURNDATASIZE PUSH1 0x0 EQ PUSH2 0x22A2 JUMPI RETURNDATASIZE PUSH2 0x2265 DUP2 PUSH2 0x1E28 JUMP JUMPDEST SWAP1 PUSH2 0x2272 DUP5 MLOAD SWAP3 DUP4 PUSH2 0x1D2F JUMP JUMPDEST DUP2 MSTORE DUP1 SWAP5 DUP3 RETURNDATASIZE SWAP3 ADD RETURNDATACOPY JUMPDEST DUP4 MLOAD SWAP4 DUP5 PUSH2 0x229C JUMPI DUP3 MLOAD PUSH4 0x32505749 PUSH1 0xE1 SHL DUP2 MSTORE PUSH1 0x4 DUP2 ADD DUP6 SWAP1 MSTORE PUSH1 0x24 SWAP1 REVERT JUMPDEST DUP5 SWAP3 POP ADD REVERT JUMPDEST PUSH1 0x60 SWAP4 POP PUSH2 0x227C JUMP JUMPDEST SWAP2 SWAP6 POP SWAP2 POP PUSH4 0xFFFFFFFF PUSH1 0xE0 SHL AND SUB PUSH2 0x22CB JUMPI POP POP CODESIZE DUP1 DUP1 DUP1 DUP1 DUP1 PUSH2 0x21F7 JUMP JUMPDEST PUSH1 0x24 SWAP3 POP MLOAD SWAP1 PUSH4 0x32505749 PUSH1 0xE1 SHL DUP3 MSTORE PUSH1 0x4 DUP3 ADD MSTORE REVERT JUMPDEST SWAP1 SWAP2 POP DUP5 DUP2 DUP2 RETURNDATASIZE DUP4 GT PUSH2 0x231F JUMPI JUMPDEST PUSH2 0x22FA DUP2 DUP4 PUSH2 0x1D2F JUMP JUMPDEST DUP2 ADD SUB SLT PUSH2 0x231B JUMPI MLOAD PUSH1 0x1 PUSH1 0x1 PUSH1 0xE0 SHL SUB NOT DUP2 AND DUP2 SUB PUSH2 0x231B JUMPI SWAP1 CODESIZE PUSH2 0x224B JUMP JUMPDEST DUP8 DUP1 REVERT JUMPDEST POP RETURNDATASIZE PUSH2 0x22F0 JUMP JUMPDEST DUP5 MLOAD PUSH4 0x39E35637 PUSH1 0xE1 SHL DUP2 MSTORE PUSH1 0x4 DUP2 ADD DUP9 SWAP1 MSTORE PUSH1 0x24 SWAP1 REVERT JUMPDEST PUSH1 0x0 DUP4 DUP2 MSTORE PUSH1 0x4 PUSH1 0x20 MSTORE PUSH1 0x40 SWAP1 KECCAK256 DUP1 SLOAD PUSH1 0x1 PUSH1 0x1 PUSH1 0xA0 SHL SUB NOT AND SWAP1 SSTORE DUP1 DUP12 MSTORE PUSH1 0x3 DUP9 MSTORE DUP9 DUP12 KECCAK256 DUP1 SLOAD PUSH1 0x0 NOT ADD SWAP1 SSTORE PUSH2 0x219E JUMP JUMPDEST DUP5 MLOAD PUSH4 0x32505749 PUSH1 0xE1 SHL DUP2 MSTORE PUSH1 0x4 DUP2 ADD DUP9 SWAP1 MSTORE PUSH1 0x24 SWAP1 REVERT JUMPDEST SWAP2 SWAP1 SWAP2 PUSH1 0x0 SWAP1 DUP1 DUP3 MSTORE PUSH1 0x20 SWAP2 PUSH1 0x6 DUP4 MSTORE PUSH1 0x40 DUP2 KECCAK256 SWAP1 DUP6 MLOAD SWAP6 PUSH1 0x1 PUSH1 0x1 PUSH1 0x40 SHL SUB DUP8 GT PUSH2 0x24AF JUMPI PUSH2 0x23C3 DUP8 PUSH2 0x23BD DUP6 SLOAD PUSH2 0x1CA4 JUMP JUMPDEST DUP6 PUSH2 0x202B JUMP JUMPDEST DUP5 SWAP2 PUSH1 0x1F DUP9 GT PUSH1 0x1 EQ PUSH2 0x242B JUMPI SWAP7 PUSH2 0x2414 SWAP3 DUP2 SWAP3 PUSH32 0xF8E1A15ABA9398E019F0B49DF1A4FDE98EE17AE345CB5F6B5E2C27F5033E8CE7 SWAP9 SWAP10 SWAP3 PUSH2 0x2420 JUMPI POP POP DUP2 PUSH1 0x1 SHL SWAP2 PUSH1 0x0 NOT SWAP1 PUSH1 0x3 SHL SHR NOT AND OR SWAP1 JUMP JUMPDEST SWAP1 SSTORE JUMPDEST PUSH1 0x40 MLOAD SWAP1 DUP2 MSTORE LOG1 JUMP JUMPDEST ADD MLOAD SWAP1 POP CODESIZE DUP1 PUSH2 0x1426 JUMP JUMPDEST SWAP2 SWAP1 PUSH1 0x1F NOT DUP9 AND DUP5 DUP5 MSTORE DUP7 DUP5 KECCAK256 SWAP4 JUMPDEST DUP2 DUP2 LT PUSH2 0x2498 JUMPI POP SWAP2 PUSH1 0x1 SWAP4 SWAP2 DUP10 PUSH32 0xF8E1A15ABA9398E019F0B49DF1A4FDE98EE17AE345CB5F6B5E2C27F5033E8CE7 SWAP10 SWAP11 SWAP5 LT PUSH2 0x247F JUMPI JUMPDEST POP POP POP DUP2 SHL ADD SWAP1 SSTORE PUSH2 0x2417 JUMP JUMPDEST ADD MLOAD PUSH1 0x0 NOT PUSH1 0xF8 DUP5 PUSH1 0x3 SHL AND SHR NOT AND SWAP1 SSTORE CODESIZE DUP1 DUP1 PUSH2 0x2472 JUMP JUMPDEST SWAP3 SWAP4 DUP8 PUSH1 0x1 DUP2 SWAP3 DUP8 DUP7 ADD MLOAD DUP2 SSTORE ADD SWAP6 ADD SWAP4 ADD PUSH2 0x243A JUMP JUMPDEST PUSH4 0x4E487B71 PUSH1 0xE0 SHL DUP3 MSTORE PUSH1 0x41 PUSH1 0x4 MSTORE PUSH1 0x24 DUP3 REVERT JUMPDEST PUSH1 0x7 SLOAD PUSH1 0x1 PUSH1 0x1 PUSH1 0xA0 SHL SUB AND CALLER SUB PUSH2 0x947 JUMPI JUMP JUMPDEST SWAP1 SWAP4 SWAP2 SWAP3 DUP4 EXTCODESIZE PUSH2 0x24E9 JUMPI JUMPDEST POP POP POP POP POP JUMP JUMPDEST PUSH1 0x40 MLOAD PUSH4 0xA85BD01 PUSH1 0xE1 SHL DUP1 DUP3 MSTORE PUSH1 0x1 PUSH1 0x1 PUSH1 0xA0 SHL SUB SWAP4 DUP5 AND PUSH1 0x4 DUP4 ADD MSTORE SWAP6 DUP4 AND PUSH1 0x24 DUP3 ADD MSTORE PUSH1 0x44 DUP2 ADD SWAP2 SWAP1 SWAP2 MSTORE PUSH1 0x80 PUSH1 0x64 DUP3 ADD MSTORE SWAP5 SWAP3 AND SWAP3 PUSH1 0x20 SWAP3 SWAP2 DUP6 SWAP1 PUSH2 0x2536 SWAP1 PUSH1 0x84 DUP4 ADD SWAP1 PUSH2 0x1BC0 JUMP JUMPDEST SUB SWAP5 DUP4 DUP2 PUSH1 0x0 SWAP8 DUP2 DUP10 DUP10 GAS CALL DUP7 SWAP2 DUP2 PUSH2 0x25E1 JUMPI JUMPDEST POP PUSH2 0x25AB JUMPI POP POP POP RETURNDATASIZE PUSH1 0x0 EQ PUSH2 0x25A2 JUMPI RETURNDATASIZE PUSH2 0x2564 DUP2 PUSH2 0x1E28 JUMP JUMPDEST SWAP1 PUSH2 0x2572 PUSH1 0x40 MLOAD SWAP3 DUP4 PUSH2 0x1D2F JUMP JUMPDEST DUP2 MSTORE DUP1 SWAP4 DUP3 RETURNDATASIZE SWAP3 ADD RETURNDATACOPY JUMPDEST DUP3 MLOAD SWAP3 DUP4 PUSH2 0x259D JUMPI PUSH1 0x40 MLOAD PUSH4 0x32505749 PUSH1 0xE1 SHL DUP2 MSTORE PUSH1 0x4 DUP2 ADD DUP5 SWAP1 MSTORE PUSH1 0x24 SWAP1 REVERT JUMPDEST ADD SWAP1 POP REVERT JUMPDEST PUSH1 0x60 SWAP3 POP PUSH2 0x257C JUMP JUMPDEST SWAP2 SWAP5 POP SWAP2 POP PUSH4 0xFFFFFFFF PUSH1 0xE0 SHL AND SUB PUSH2 0x25C9 JUMPI POP CODESIZE DUP1 DUP1 DUP1 DUP1 PUSH2 0x24E2 JUMP JUMPDEST PUSH1 0x24 SWAP1 PUSH1 0x40 MLOAD SWAP1 PUSH4 0x32505749 PUSH1 0xE1 SHL DUP3 MSTORE PUSH1 0x4 DUP3 ADD MSTORE REVERT JUMPDEST SWAP1 SWAP2 POP DUP5 DUP2 DUP2 RETURNDATASIZE DUP4 GT PUSH2 0x261E JUMPI JUMPDEST PUSH2 0x25F9 DUP2 DUP4 PUSH2 0x1D2F JUMP JUMPDEST DUP2 ADD SUB SLT PUSH2 0x261A JUMPI MLOAD PUSH1 0x1 PUSH1 0x1 PUSH1 0xE0 SHL SUB NOT DUP2 AND DUP2 SUB PUSH2 0x261A JUMPI SWAP1 CODESIZE PUSH2 0x254A JUMP JUMPDEST DUP7 DUP1 REVERT JUMPDEST POP RETURNDATASIZE PUSH2 0x25EF JUMP INVALID PUSH11 0x3A0BEB54691369CFA3D9CC 0xBF 0xEE PUSH27 0xD49DCFEB928219B0C2EAB1E9261488A762A2646970667358221220 0xB3 STATICCALL POP CODECOPY SMOD LT CHAINID 0xE9 JUMP PUSH20 0x4BC3303D0593DB100F4A2F761FA1568341CC2C1E 0xBC JUMPI PUSH5 0x736F6C6343 STOP ADDMOD XOR STOP CALLER "},"methodIdentifiers":{"MAX_ENDPOINT_LENGTH()":"c85d3eb0","MAX_URI_LENGTH()":"aab5a877","TIMELOCK_DELAY()":"5ba1c1a9","acceptOwnership()":"79ba5097","agents(uint256)":"513856c8","approve(address,uint256)":"095ea7b3","balanceOf(address)":"70a08231","cancelWalletChange(uint256)":"f96560b4","deactivate(uint256)":"916b9bef","executeWalletChange(uint256)":"6ca7c098","getAgent(uint256)":"2de5aaf7","getAgentByModel(uint256)":"d58e0c9e","getApproved(uint256)":"081812fc","getEndpoint(uint256)":"937bbc4a","getPaymentWallet(uint256)":"dbd7e949","isApprovedForAll(address,address)":"e985e9c5","isValidAgent(uint256)":"4afc374c","marketplace()":"abc8c7af","modelToAgent(uint256)":"173e79bb","name()":"06fdde03","nextAgentId()":"30efc498","owner()":"8da5cb5b","ownerOf(uint256)":"6352211e","pause()":"8456cb59","paused()":"5c975abb","pendingOwner()":"e30c3978","pendingWalletChanges(uint256)":"c890c380","reactivate(uint256)":"09df30ec","registerAgent(uint256,address,string,string)":"251f3b7e","registerAgentFor(address,uint256,address,string,string)":"37a1b719","renounceOwnership()":"715018a6","requestWalletChange(uint256,address)":"6bb24401","safeTransferFrom(address,address,uint256)":"42842e0e","safeTransferFrom(address,address,uint256,bytes)":"b88d4fde","setApprovalForAll(address,bool)":"a22cb465","setMarketplace(address)":"73ad6c2d","supportsInterface(bytes4)":"01ffc9a7","symbol()":"95d89b41","tokenURI(uint256)":"c87b56dd","transferFrom(address,address,uint256)":"23b872dd","transferOwnership(address)":"f2fde38b","unpause()":"3f4ba83a","updateAgentFor(uint256,string,address)":"3bda90a3","updateEndpoint(uint256,string)":"54fec772","updateMetadata(uint256,string)":"53c8388e","updateMetadataFor(uint256,string)":"b2d8593d"}}}}}