{
  "_format": "hh-sol-artifact-1",
  "contractName": "InferenceSplitter",
  "sourceName": "contracts/InferenceSplitter.sol",
  "abi": [
    {
      "inputs": [
        {
          "internalType": "address",
          "name": "_usdc",
          "type": "address"
        },
        {
          "internalType": "address",
          "name": "_marketplaceWallet",
          "type": "address"
        },
        {
          "internalType": "address",
          "name": "_marketplace",
          "type": "address"
        }
      ],
      "stateMutability": "nonpayable",
      "type": "constructor"
    },
    {
      "inputs": [],
      "name": "BelowMinimumWithdrawal",
      "type": "error"
    },
    {
      "inputs": [],
      "name": "EnforcedPause",
      "type": "error"
    },
    {
      "inputs": [],
      "name": "ExpectedPause",
      "type": "error"
    },
    {
      "inputs": [],
      "name": "InsufficientBalance",
      "type": "error"
    },
    {
      "inputs": [],
      "name": "InvalidAmount",
      "type": "error"
    },
    {
      "inputs": [],
      "name": "InvalidBps",
      "type": "error"
    },
    {
      "inputs": [],
      "name": "ModelNotRegistered",
      "type": "error"
    },
    {
      "inputs": [],
      "name": "NoPendingChange",
      "type": "error"
    },
    {
      "inputs": [],
      "name": "OnlyAuthorizedCaller",
      "type": "error"
    },
    {
      "inputs": [
        {
          "internalType": "address",
          "name": "owner",
          "type": "address"
        }
      ],
      "name": "OwnableInvalidOwner",
      "type": "error"
    },
    {
      "inputs": [
        {
          "internalType": "address",
          "name": "account",
          "type": "address"
        }
      ],
      "name": "OwnableUnauthorizedAccount",
      "type": "error"
    },
    {
      "inputs": [],
      "name": "ReentrancyGuardReentrantCall",
      "type": "error"
    },
    {
      "inputs": [
        {
          "internalType": "address",
          "name": "token",
          "type": "address"
        }
      ],
      "name": "SafeERC20FailedOperation",
      "type": "error"
    },
    {
      "inputs": [],
      "name": "SplitAlreadyConfigured",
      "type": "error"
    },
    {
      "inputs": [],
      "name": "TimelockNotExpired",
      "type": "error"
    },
    {
      "inputs": [],
      "name": "TransferFailed",
      "type": "error"
    },
    {
      "inputs": [],
      "name": "ZeroAddress",
      "type": "error"
    },
    {
      "anonymous": false,
      "inputs": [
        {
          "indexed": true,
          "internalType": "address",
          "name": "caller",
          "type": "address"
        },
        {
          "indexed": false,
          "internalType": "bool",
          "name": "authorized",
          "type": "bool"
        }
      ],
      "name": "AuthorizedCallerUpdated",
      "type": "event"
    },
    {
      "anonymous": false,
      "inputs": [
        {
          "indexed": true,
          "internalType": "address",
          "name": "oldWallet",
          "type": "address"
        },
        {
          "indexed": true,
          "internalType": "address",
          "name": "newWallet",
          "type": "address"
        },
        {
          "indexed": false,
          "internalType": "uint256",
          "name": "effectiveAt",
          "type": "uint256"
        }
      ],
      "name": "MarketplaceWalletChangeRequested",
      "type": "event"
    },
    {
      "anonymous": false,
      "inputs": [
        {
          "indexed": true,
          "internalType": "address",
          "name": "oldWallet",
          "type": "address"
        },
        {
          "indexed": true,
          "internalType": "address",
          "name": "newWallet",
          "type": "address"
        }
      ],
      "name": "MarketplaceWalletChanged",
      "type": "event"
    },
    {
      "anonymous": false,
      "inputs": [
        {
          "indexed": true,
          "internalType": "address",
          "name": "previousOwner",
          "type": "address"
        },
        {
          "indexed": true,
          "internalType": "address",
          "name": "newOwner",
          "type": "address"
        }
      ],
      "name": "OwnershipTransferStarted",
      "type": "event"
    },
    {
      "anonymous": false,
      "inputs": [
        {
          "indexed": true,
          "internalType": "address",
          "name": "previousOwner",
          "type": "address"
        },
        {
          "indexed": true,
          "internalType": "address",
          "name": "newOwner",
          "type": "address"
        }
      ],
      "name": "OwnershipTransferred",
      "type": "event"
    },
    {
      "anonymous": false,
      "inputs": [
        {
          "indexed": false,
          "internalType": "address",
          "name": "account",
          "type": "address"
        }
      ],
      "name": "Paused",
      "type": "event"
    },
    {
      "anonymous": false,
      "inputs": [
        {
          "indexed": true,
          "internalType": "uint256",
          "name": "modelId",
          "type": "uint256"
        },
        {
          "indexed": false,
          "internalType": "uint256",
          "name": "amount",
          "type": "uint256"
        },
        {
          "indexed": false,
          "internalType": "uint256",
          "name": "sellerAmount",
          "type": "uint256"
        },
        {
          "indexed": false,
          "internalType": "uint256",
          "name": "creatorAmount",
          "type": "uint256"
        },
        {
          "indexed": false,
          "internalType": "uint256",
          "name": "marketplaceAmount",
          "type": "uint256"
        }
      ],
      "name": "PaymentReceived",
      "type": "event"
    },
    {
      "anonymous": false,
      "inputs": [
        {
          "indexed": true,
          "internalType": "uint256",
          "name": "paymentId",
          "type": "uint256"
        },
        {
          "indexed": true,
          "internalType": "uint256",
          "name": "modelId",
          "type": "uint256"
        },
        {
          "indexed": true,
          "internalType": "address",
          "name": "processedBy",
          "type": "address"
        }
      ],
      "name": "PendingPaymentProcessed",
      "type": "event"
    },
    {
      "anonymous": false,
      "inputs": [
        {
          "indexed": true,
          "internalType": "uint256",
          "name": "paymentId",
          "type": "uint256"
        },
        {
          "indexed": true,
          "internalType": "uint256",
          "name": "modelId",
          "type": "uint256"
        },
        {
          "indexed": false,
          "internalType": "uint256",
          "name": "amount",
          "type": "uint256"
        },
        {
          "indexed": false,
          "internalType": "bytes32",
          "name": "txHash",
          "type": "bytes32"
        }
      ],
      "name": "PendingPaymentRegistered",
      "type": "event"
    },
    {
      "anonymous": false,
      "inputs": [
        {
          "indexed": true,
          "internalType": "uint256",
          "name": "modelId",
          "type": "uint256"
        },
        {
          "indexed": true,
          "internalType": "address",
          "name": "seller",
          "type": "address"
        },
        {
          "indexed": true,
          "internalType": "address",
          "name": "creator",
          "type": "address"
        },
        {
          "indexed": false,
          "internalType": "uint256",
          "name": "royaltyBps",
          "type": "uint256"
        },
        {
          "indexed": false,
          "internalType": "uint256",
          "name": "marketplaceBps",
          "type": "uint256"
        }
      ],
      "name": "SplitConfigured",
      "type": "event"
    },
    {
      "anonymous": false,
      "inputs": [
        {
          "indexed": false,
          "internalType": "address",
          "name": "account",
          "type": "address"
        }
      ],
      "name": "Unpaused",
      "type": "event"
    },
    {
      "anonymous": false,
      "inputs": [
        {
          "indexed": true,
          "internalType": "address",
          "name": "recipient",
          "type": "address"
        },
        {
          "indexed": false,
          "internalType": "uint256",
          "name": "amount",
          "type": "uint256"
        }
      ],
      "name": "Withdrawal",
      "type": "event"
    },
    {
      "anonymous": false,
      "inputs": [
        {
          "indexed": true,
          "internalType": "uint256",
          "name": "modelId",
          "type": "uint256"
        },
        {
          "indexed": false,
          "internalType": "uint256",
          "name": "amount",
          "type": "uint256"
        },
        {
          "indexed": false,
          "internalType": "bytes32",
          "name": "txHash",
          "type": "bytes32"
        }
      ],
      "name": "X402PaymentProcessed",
      "type": "event"
    },
    {
      "inputs": [],
      "name": "MAX_BPS",
      "outputs": [
        {
          "internalType": "uint256",
          "name": "",
          "type": "uint256"
        }
      ],
      "stateMutability": "view",
      "type": "function"
    },
    {
      "inputs": [],
      "name": "MAX_MARKETPLACE_FEE_BPS",
      "outputs": [
        {
          "internalType": "uint256",
          "name": "",
          "type": "uint256"
        }
      ],
      "stateMutability": "view",
      "type": "function"
    },
    {
      "inputs": [],
      "name": "MAX_ROYALTY_BPS",
      "outputs": [
        {
          "internalType": "uint256",
          "name": "",
          "type": "uint256"
        }
      ],
      "stateMutability": "view",
      "type": "function"
    },
    {
      "inputs": [],
      "name": "MIN_WITHDRAWAL",
      "outputs": [
        {
          "internalType": "uint256",
          "name": "",
          "type": "uint256"
        }
      ],
      "stateMutability": "view",
      "type": "function"
    },
    {
      "inputs": [],
      "name": "TIMELOCK_DELAY",
      "outputs": [
        {
          "internalType": "uint256",
          "name": "",
          "type": "uint256"
        }
      ],
      "stateMutability": "view",
      "type": "function"
    },
    {
      "inputs": [],
      "name": "acceptOwnership",
      "outputs": [],
      "stateMutability": "nonpayable",
      "type": "function"
    },
    {
      "inputs": [
        {
          "internalType": "address",
          "name": "",
          "type": "address"
        }
      ],
      "name": "authorizedCallers",
      "outputs": [
        {
          "internalType": "bool",
          "name": "",
          "type": "bool"
        }
      ],
      "stateMutability": "view",
      "type": "function"
    },
    {
      "inputs": [
        {
          "internalType": "address",
          "name": "",
          "type": "address"
        }
      ],
      "name": "balances",
      "outputs": [
        {
          "internalType": "uint256",
          "name": "",
          "type": "uint256"
        }
      ],
      "stateMutability": "view",
      "type": "function"
    },
    {
      "inputs": [
        {
          "internalType": "uint256",
          "name": "modelId",
          "type": "uint256"
        },
        {
          "internalType": "uint256",
          "name": "amount",
          "type": "uint256"
        }
      ],
      "name": "calculateSplit",
      "outputs": [
        {
          "internalType": "uint256",
          "name": "sellerAmount",
          "type": "uint256"
        },
        {
          "internalType": "uint256",
          "name": "creatorAmount",
          "type": "uint256"
        },
        {
          "internalType": "uint256",
          "name": "marketplaceAmount",
          "type": "uint256"
        }
      ],
      "stateMutability": "view",
      "type": "function"
    },
    {
      "inputs": [],
      "name": "cancelMarketplaceWalletChange",
      "outputs": [],
      "stateMutability": "nonpayable",
      "type": "function"
    },
    {
      "inputs": [
        {
          "internalType": "uint256",
          "name": "modelId",
          "type": "uint256"
        },
        {
          "internalType": "address",
          "name": "seller",
          "type": "address"
        },
        {
          "internalType": "address",
          "name": "creator",
          "type": "address"
        },
        {
          "internalType": "uint256",
          "name": "royaltyBps",
          "type": "uint256"
        },
        {
          "internalType": "uint256",
          "name": "marketplaceBps",
          "type": "uint256"
        }
      ],
      "name": "configureSplit",
      "outputs": [],
      "stateMutability": "nonpayable",
      "type": "function"
    },
    {
      "inputs": [
        {
          "internalType": "uint256",
          "name": "modelId",
          "type": "uint256"
        },
        {
          "internalType": "uint256",
          "name": "amount",
          "type": "uint256"
        }
      ],
      "name": "distributePayment",
      "outputs": [],
      "stateMutability": "nonpayable",
      "type": "function"
    },
    {
      "inputs": [
        {
          "internalType": "address",
          "name": "token",
          "type": "address"
        },
        {
          "internalType": "address",
          "name": "to",
          "type": "address"
        },
        {
          "internalType": "uint256",
          "name": "amount",
          "type": "uint256"
        }
      ],
      "name": "emergencyRescue",
      "outputs": [],
      "stateMutability": "nonpayable",
      "type": "function"
    },
    {
      "inputs": [],
      "name": "executeMarketplaceWalletChange",
      "outputs": [],
      "stateMutability": "nonpayable",
      "type": "function"
    },
    {
      "inputs": [
        {
          "internalType": "address",
          "name": "account",
          "type": "address"
        }
      ],
      "name": "getBalance",
      "outputs": [
        {
          "internalType": "uint256",
          "name": "",
          "type": "uint256"
        }
      ],
      "stateMutability": "view",
      "type": "function"
    },
    {
      "inputs": [
        {
          "internalType": "uint256",
          "name": "paymentId",
          "type": "uint256"
        }
      ],
      "name": "getPendingPayment",
      "outputs": [
        {
          "internalType": "uint256",
          "name": "modelId",
          "type": "uint256"
        },
        {
          "internalType": "uint256",
          "name": "amount",
          "type": "uint256"
        },
        {
          "internalType": "bytes32",
          "name": "txHash",
          "type": "bytes32"
        },
        {
          "internalType": "bool",
          "name": "processed",
          "type": "bool"
        }
      ],
      "stateMutability": "view",
      "type": "function"
    },
    {
      "inputs": [],
      "name": "getPendingPaymentsCount",
      "outputs": [
        {
          "internalType": "uint256",
          "name": "total",
          "type": "uint256"
        },
        {
          "internalType": "uint256",
          "name": "pending",
          "type": "uint256"
        }
      ],
      "stateMutability": "view",
      "type": "function"
    },
    {
      "inputs": [
        {
          "internalType": "uint256",
          "name": "modelId",
          "type": "uint256"
        }
      ],
      "name": "getSplit",
      "outputs": [
        {
          "components": [
            {
              "internalType": "address",
              "name": "seller",
              "type": "address"
            },
            {
              "internalType": "address",
              "name": "creator",
              "type": "address"
            },
            {
              "internalType": "uint256",
              "name": "royaltyBps",
              "type": "uint256"
            },
            {
              "internalType": "uint256",
              "name": "marketplaceBps",
              "type": "uint256"
            },
            {
              "internalType": "bool",
              "name": "configured",
              "type": "bool"
            }
          ],
          "internalType": "struct InferenceSplitter.SplitConfig",
          "name": "",
          "type": "tuple"
        }
      ],
      "stateMutability": "view",
      "type": "function"
    },
    {
      "inputs": [],
      "name": "getUnallocatedBalance",
      "outputs": [
        {
          "internalType": "uint256",
          "name": "",
          "type": "uint256"
        }
      ],
      "stateMutability": "view",
      "type": "function"
    },
    {
      "inputs": [
        {
          "internalType": "uint256",
          "name": "modelId",
          "type": "uint256"
        }
      ],
      "name": "isSplitConfigured",
      "outputs": [
        {
          "internalType": "bool",
          "name": "",
          "type": "bool"
        }
      ],
      "stateMutability": "view",
      "type": "function"
    },
    {
      "inputs": [],
      "name": "marketplace",
      "outputs": [
        {
          "internalType": "address",
          "name": "",
          "type": "address"
        }
      ],
      "stateMutability": "view",
      "type": "function"
    },
    {
      "inputs": [],
      "name": "marketplaceWallet",
      "outputs": [
        {
          "internalType": "address",
          "name": "",
          "type": "address"
        }
      ],
      "stateMutability": "view",
      "type": "function"
    },
    {
      "inputs": [],
      "name": "nextPaymentToProcess",
      "outputs": [
        {
          "internalType": "uint256",
          "name": "",
          "type": "uint256"
        }
      ],
      "stateMutability": "view",
      "type": "function"
    },
    {
      "inputs": [],
      "name": "owner",
      "outputs": [
        {
          "internalType": "address",
          "name": "",
          "type": "address"
        }
      ],
      "stateMutability": "view",
      "type": "function"
    },
    {
      "inputs": [],
      "name": "pause",
      "outputs": [],
      "stateMutability": "nonpayable",
      "type": "function"
    },
    {
      "inputs": [],
      "name": "paused",
      "outputs": [
        {
          "internalType": "bool",
          "name": "",
          "type": "bool"
        }
      ],
      "stateMutability": "view",
      "type": "function"
    },
    {
      "inputs": [],
      "name": "pendingMarketplaceWallet",
      "outputs": [
        {
          "internalType": "address",
          "name": "newValue",
          "type": "address"
        },
        {
          "internalType": "uint256",
          "name": "effectiveAt",
          "type": "uint256"
        }
      ],
      "stateMutability": "view",
      "type": "function"
    },
    {
      "inputs": [],
      "name": "pendingOwner",
      "outputs": [
        {
          "internalType": "address",
          "name": "",
          "type": "address"
        }
      ],
      "stateMutability": "view",
      "type": "function"
    },
    {
      "inputs": [
        {
          "internalType": "uint256",
          "name": "",
          "type": "uint256"
        }
      ],
      "name": "pendingPayments",
      "outputs": [
        {
          "internalType": "uint256",
          "name": "modelId",
          "type": "uint256"
        },
        {
          "internalType": "uint256",
          "name": "amount",
          "type": "uint256"
        },
        {
          "internalType": "bytes32",
          "name": "txHash",
          "type": "bytes32"
        },
        {
          "internalType": "bool",
          "name": "processed",
          "type": "bool"
        }
      ],
      "stateMutability": "view",
      "type": "function"
    },
    {
      "inputs": [
        {
          "internalType": "uint256",
          "name": "maxPayments",
          "type": "uint256"
        }
      ],
      "name": "processPendingPayments",
      "outputs": [
        {
          "internalType": "uint256",
          "name": "processed",
          "type": "uint256"
        }
      ],
      "stateMutability": "nonpayable",
      "type": "function"
    },
    {
      "inputs": [
        {
          "internalType": "uint256",
          "name": "modelId",
          "type": "uint256"
        },
        {
          "internalType": "uint256",
          "name": "amount",
          "type": "uint256"
        },
        {
          "internalType": "bytes32",
          "name": "txHash",
          "type": "bytes32"
        }
      ],
      "name": "processX402Payment",
      "outputs": [],
      "stateMutability": "nonpayable",
      "type": "function"
    },
    {
      "inputs": [
        {
          "internalType": "uint256",
          "name": "modelId",
          "type": "uint256"
        },
        {
          "internalType": "uint256",
          "name": "amount",
          "type": "uint256"
        }
      ],
      "name": "receivePayment",
      "outputs": [],
      "stateMutability": "nonpayable",
      "type": "function"
    },
    {
      "inputs": [
        {
          "internalType": "uint256",
          "name": "modelId",
          "type": "uint256"
        },
        {
          "internalType": "uint256",
          "name": "amount",
          "type": "uint256"
        },
        {
          "internalType": "bytes32",
          "name": "txHash",
          "type": "bytes32"
        }
      ],
      "name": "registerPendingPayment",
      "outputs": [],
      "stateMutability": "nonpayable",
      "type": "function"
    },
    {
      "inputs": [],
      "name": "renounceOwnership",
      "outputs": [],
      "stateMutability": "nonpayable",
      "type": "function"
    },
    {
      "inputs": [
        {
          "internalType": "address",
          "name": "newWallet",
          "type": "address"
        }
      ],
      "name": "requestMarketplaceWalletChange",
      "outputs": [],
      "stateMutability": "nonpayable",
      "type": "function"
    },
    {
      "inputs": [
        {
          "internalType": "address",
          "name": "caller",
          "type": "address"
        },
        {
          "internalType": "bool",
          "name": "authorized",
          "type": "bool"
        }
      ],
      "name": "setAuthorizedCaller",
      "outputs": [],
      "stateMutability": "nonpayable",
      "type": "function"
    },
    {
      "inputs": [
        {
          "internalType": "address",
          "name": "_marketplace",
          "type": "address"
        }
      ],
      "name": "setMarketplace",
      "outputs": [],
      "stateMutability": "nonpayable",
      "type": "function"
    },
    {
      "inputs": [
        {
          "internalType": "uint256",
          "name": "",
          "type": "uint256"
        }
      ],
      "name": "splits",
      "outputs": [
        {
          "internalType": "address",
          "name": "seller",
          "type": "address"
        },
        {
          "internalType": "address",
          "name": "creator",
          "type": "address"
        },
        {
          "internalType": "uint256",
          "name": "royaltyBps",
          "type": "uint256"
        },
        {
          "internalType": "uint256",
          "name": "marketplaceBps",
          "type": "uint256"
        },
        {
          "internalType": "bool",
          "name": "configured",
          "type": "bool"
        }
      ],
      "stateMutability": "view",
      "type": "function"
    },
    {
      "inputs": [],
      "name": "totalAccumulated",
      "outputs": [
        {
          "internalType": "uint256",
          "name": "",
          "type": "uint256"
        }
      ],
      "stateMutability": "view",
      "type": "function"
    },
    {
      "inputs": [
        {
          "internalType": "address",
          "name": "newOwner",
          "type": "address"
        }
      ],
      "name": "transferOwnership",
      "outputs": [],
      "stateMutability": "nonpayable",
      "type": "function"
    },
    {
      "inputs": [
        {
          "internalType": "bytes32",
          "name": "",
          "type": "bytes32"
        }
      ],
      "name": "txHashUsed",
      "outputs": [
        {
          "internalType": "bool",
          "name": "",
          "type": "bool"
        }
      ],
      "stateMutability": "view",
      "type": "function"
    },
    {
      "inputs": [],
      "name": "unpause",
      "outputs": [],
      "stateMutability": "nonpayable",
      "type": "function"
    },
    {
      "inputs": [],
      "name": "usdc",
      "outputs": [
        {
          "internalType": "contract IERC20",
          "name": "",
          "type": "address"
        }
      ],
      "stateMutability": "view",
      "type": "function"
    },
    {
      "inputs": [],
      "name": "withdraw",
      "outputs": [],
      "stateMutability": "nonpayable",
      "type": "function"
    },
    {
      "inputs": [
        {
          "internalType": "uint256",
          "name": "amount",
          "type": "uint256"
        }
      ],
      "name": "withdrawAmount",
      "outputs": [],
      "stateMutability": "nonpayable",
      "type": "function"
    }
  ],
  "bytecode": "0x60a034620001c857601f620021df38819003918201601f1916830191906001600160401b03831184841017620001cd578160609285926040958652833981010312620001c8576200005082620001e3565b6200006b826200006360208601620001e3565b9401620001e3565b3315620001b05760018060a01b031993846001541660015560009283549260018060a01b03809233898716178755875195823391167f8be0079c531659141344cd1fd0a4f28419497f9722a3daafe3b4186f6b6457e08980a3600160025516938415620001a15750818316156200019057169182156200017f5760805260038054610100600160a81b03191660089290921b610100600160a81b0316919091179055600a80549094168117909355918252600960205290819020805460ff1916600117905551611fe69081620001f9823960805181818161025f015281816105ba01528181610bbc01528181610fd70152818161132d015281816113ca0152818161170a0152818161190c0152611c9d0152f35b845163d92e233d60e01b8152600490fd5b855163d92e233d60e01b8152600490fd5b63d92e233d60e01b8152600490fd5b8251631e4fbdf760e01b815260006004820152602490fd5b600080fd5b634e487b7160e01b600052604160045260246000fd5b51906001600160a01b0382168203620001c85756fe6040608081526004908136101561001557600080fd5b600091823560e01c9283630562b9f7146116a45783630f5c5556146116645783631143bf76146115dd57836327e235e31461044e5783632951bd991461143c5783633ccfd60b146113785783633dca40e61461135c5783633e413bee146113195783633f4ba83a146112af5783634107d9cb14611291578363454bbd291461120457836349e38ceb146111e6578363514a681014611131578363536fff6c146110f45783635793e02f14610efa5783635ba1c1a914610edd5783635c975abb14610eba5783636d0ffb1214610e8b578363715018a614610e27578363724f2cdc14610da857836372f729f014610d7757836373ad6c2d14610d0c57836379ba509714610c8b5783637cc3068d14610c5e5783637db804e914610b8e5783638456cb5914610b34578363884c300614610ad45783638bd65c1314610a0b5783638da5cb5b146109e457836391f7688c1461085d578363abc8c7af14610835578363afcc5027146107d3578363b4d8170c146107ae578363b74fb31614610792578363cc78629114610765578363d15ca16614610214578363d3bec4c914610699578363d687d0b314610578578363ded1e6eb14610549578363e30c397814610521578363ed9ed696146104f5578363f2fde38b14610489578363f8b2cb4f1461044e578363f9033d3f146102195750505063fd967f471461021457600080fd5b6117ed565b3461044b576020908160031936011261044b57823592610237611d97565b61023f611db8565b84516370a0823160e01b81523082820152602495929485939091858189817f00000000000000000000000000000000000000000000000000000000000000006001600160a01b03165afa908115610441578591610410575b5060085480821115610408576102ac9161180a565b95600b5496600d93600d5490801515806103f6575b6103e3575b509190915b888110806103da575b156103cb576102e28161179d565b50600381019360ff85541661039f57600194858301908154838111610384579161032c9391610315610326948754611e87565b805460ff191689179055549061180a565b93611d88565b9382018083116103725786555461036a91903390827f6a606350f89f63f198193679562351f2a5ef3679480845b368c0dec1d89eb3498b80a4611d88565b9190916102cb565b634e487b7160e01b8952601188528b89fd5b5050505050509650509395505050505b600160025551908152f35b92935050600181018082116103b957855561036a90611d88565b634e487b7160e01b8852601187528a88fd5b50965050939550505050610394565b508215156102d4565b816103ef929a506118b9565b978a6102c6565b508961040282846118b9565b106102c1565b5050836102ac565b90508581813d831161043a575b6104278183611897565b81010312610436575188610297565b8480fd5b503d61041d565b82513d87823e3d90fd5b80fd5b82346104855760203660031901126104855760209181906001600160a01b0361047561175b565b1681526007845220549051908152f35b5080fd5b3461044b57602036600319011261044b576104a261175b565b6104aa611e19565b600180546001600160a01b0319166001600160a01b0392831690811790915582549091167f38d16b8cac22d99fc7c124b9cd0de2d3fa1faef420bfe791d8c362d765e227008380a380f35b8234610485578160031936011261048557600354905160089190911c6001600160a01b03168152602090f35b823461048557816003193601126104855760015490516001600160a01b039091168152602090f35b3461044b5761057061055a36611787565b90610563611d97565b61056b611db8565b611c1c565b600160025580f35b82346104855760603660031901126104855761059261175b565b61059a611771565b90604435926105a7611e19565b6001600160a01b038381161561068957807f0000000000000000000000000000000000000000000000000000000000000000169216918083146105f5575b50506105f2939450611dd6565b80f35b60206024918351928380926370a0823160e01b8252308c8301525afa801561067f578690610647575b61062c91506008549061180a565b841161063857806105e5565b51631e9acf1760e31b81528590fd5b506020813d602011610677575b8161066160209383611897565b810103126106735761062c905161061e565b8580fd5b3d9150610654565b82513d88823e3d90fd5b815163d92e233d60e01b81528790fd5b9134610761576020366003190112610761576106b361175b565b916106bc611e19565b6001600160a01b03928316928315610752576201518042019182421161073f57916020917fd2f3c23537d11daa3caf9f2f59b748bfffd06edf731624aaf17c65ff134750ce938284875161070f8161187b565b8981520152866bffffffffffffffffffffffff60a01b8254161790558160055560035460081c169351908152a380f35b634e487b7160e01b865260119052602485fd5b50905163d92e233d60e01b8152fd5b8280fd5b925034610761576020366003190112610761578160209360ff92358152600c855220541690519015158152f35b8234610485578160031936011261048557602090516103e88152f35b8091346107d057816003193601126107d0576107c8611e19565b558060055580f35b50fd5b9034610485576020366003190112610485573590600b5482101561044b57506107fb9061179d565b5080546001820154600283015460039093015493519182526020820152604081019190915260ff90911615156060820152608090f35b0390f35b8234610485578160031936011261048557600a5490516001600160a01b039091168152602090f35b82346104855761086c3661173c565b919290338552600960205260ff828620541615806109cf575b806109bb575b6109ab57610897611db8565b801561099b57828552600c60205260ff828620541661099b57828552600c602052818520600160ff19825416179055600b549282516108d58161185f565b858152602081018381528482018381526060830191898352680100000000000000008810156109885760018801600b5561090e8861179d565b94909461097657927f10c84cdd57e9df6cdc682539163d03d0abd9d00c0b89b9f3ae925f79c066814497969594926003926109689551855551600185015551600284015551151591019060ff801983541691151516179055565b82519182526020820152a380f35b634e487b7160e01b8b528a8c5260248bfd5b634e487b7160e01b8a5260418b5260248afd5b815163162908e360e11b81528690fd5b815163c48b3a1b60e01b81528690fd5b5084546001600160a01b031633141561088b565b50600a546001600160a01b0316331415610885565b8234610485578160031936011261048557905490516001600160a01b039091168152602090f35b9134610761578260031936011261076157610a24611e19565b805191610a308361187b565b80546001600160a01b039081168452600554602085018181529193919015610ac657514210610ab95750600380549351610100600160a81b03198516600882811b610100600160a81b03169190911790925591859055600585905590821692901c167f6f79e27210b19a4c7601e0a512e1a79bc305548722d4b80c87588effce7a55118380a380f35b5163621e25c360e01b8152fd5b505163147fde5f60e31b8152fd5b9134610761576020366003190112610761578060a09383358152600660205220600180851b039283825416936001830154169260ff6002840154926003850154940154169381519586526020860152840152606083015215156080820152f35b823461048557816003193601126104855760207f62e78cea01bee320cd4e420270b5ea74000d11b0c9f74754ebdbfc544b05a25891610b71611e19565b610b79611db8565b600160ff19600354161760035551338152a180f35b82903461044b578060031936011261044b5781516370a0823160e01b815230938101939093526020836024817f00000000000000000000000000000000000000000000000000000000000000006001600160a01b03165afa8015610c52578190610c1d575b600854602094509081811115610c1557610c0d925061180a565b905b51908152f35b505090610c0f565b50916020813d602011610c4a575b81610c3860209383611897565b81010312610761579160209251610bf3565b3d9150610c2b565b509051903d90823e3d90fd5b823461048557606090610c79610c7336611787565b90611b81565b91929081519384526020840152820152f35b9134610761578260031936011261076157600154916001600160a01b03913383851603610cf55750506001600160a01b031991821660015582543392811683178455167f8be0079c531659141344cd1fd0a4f28419497f9722a3daafe3b4186f6b6457e08380a380f35b60249250519063118cdaa760e01b82523390820152fd5b92503461076157602036600319011261076157610d2761175b565b610d2f611e19565b6001600160a01b0316908115610d695750600a80546001600160a01b03191682179055825260096020528120805460ff1916600117905580f35b825163d92e233d60e01b8152fd5b3461044b578060031936011261044b57505460055491516001600160a01b0390911681526020810191909152604090f35b3461044b57602036600319011261044b5750610dc4903561179d565b50906108316060825193610dd78561185f565b80549384865260018201549586602082015260ff60036002850154948585850152015416151593849101525194859485926060929594919560808501968552602085015260408401521515910152565b3461044b578060031936011261044b57610e3f611e19565b600180546001600160a01b03199081169091558154908116825581906001600160a01b03167f8be0079c531659141344cd1fd0a4f28419497f9722a3daafe3b4186f6b6457e08280a380f35b92503461076157602036600319011261076157808260209460ff93358152600686522001541690519015158152f35b823461048557816003193601126104855760209060ff6003541690519015158152f35b823461048557816003193601126104855760209051620151808152f35b913461076157610f0936611787565b90923385526020926009845260ff818720541615806110df575b806110cb575b6110be57610f35611d97565b610f3d611db8565b82156110b1578486526006845280862093815194610f5a8661182d565b60018060a01b0390818154168752816001820154169083880191825260028101549585890196875260ff8160038401549360608c0194855201541615801560808b01526110a357506110139383808794611098988e8c9b98611021600080516020611f918339815191529f9e61101c61100860079b610ffb8430337f0000000000000000000000000000000000000000000000000000000000000000611e45565b61271091829151856118c6565b049e8f9e51846118c6565b049c8d9261180a565b61180a565b9d51168152868652206110358c82546118b9565b905551168c52828252838c2061104c8682546118b9565b905560035460081c168b52528089206110668482546118b9565b9055611074856008546118b9565b60085551948594859094939260609260808301968352602083015260408201520152565b0390a2600160025580f35b8551630b7bde6f60e31b8152fd5b5163162908e360e11b8152fd5b5163c48b3a1b60e01b8152fd5b5085546001600160a01b0316331415610f29565b50600a546001600160a01b0316331415610f23565b82346104855760203660031901126104855760209160ff9082906001600160a01b0361111e61175b565b1681526009855220541690519015158152f35b913461076157602036600319011261076157808360a094608083516111558161182d565b82815282602082015282858201528260608201520152833581526006602052208151916111818361182d565b600180861b039384835416948585528060018501541660208601908152608060ff60028701549486890195865260038801549760608a019889520154169601951515865283519687525116602086015251908401525160608301525115156080820152f35b8234610485578160031936011261048557602090600d549051908152f35b913461076157806003193601126107615761121d61175b565b906024358015159283820361067357611234611e19565b6001600160a01b0316938415610d695750916020916112897fad857fa38c9319cb80848f1ef2f924383b90297eb5d71755738ff037d100faa194868852600985528288209060ff801983541691151516179055565b51908152a280f35b82346104855781600319360112610485576020906008549051908152f35b9250346107615782600319360112610761576112c9611e19565b6003549060ff82161561130b575060ff1916600355513381527f5db9ee0a495bf2e6ff9c91a7834c1ba4fdd244a5e8aa4e537bd38aeae4b073aa90602090a180f35b8251638dfc202b60e01b8152fd5b8234610485578160031936011261048557517f00000000000000000000000000000000000000000000000000000000000000006001600160a01b03168152602090f35b8234610485578160031936011261048557602090516107d08152f35b9134610761578260031936011261076157611391611d97565b611399611db8565b33835260076020528083205491821561142e5761271083106114205750338352600760205282818120556113ee82337f0000000000000000000000000000000000000000000000000000000000000000611dd6565b519081527f7fcf532c15f0a6db0bd6d0e038bea71d30d808c7d98cb3bf7268a95bf5081b6560203392a2600160025580f35b9051630980da4560e11b8152fd5b9051631e9acf1760e31b8152fd5b9250346107615760a0366003190112610761578035611459611771565b6001600160a01b036044358181169592908690036115d9576064359160843591338952600960205260ff858a20541615806115cb575b806115be575b6115ae5781906114a3611db8565b169586156115a05787156115a0576107d08411611592576103e88311611592576127106114d084866118b9565b11611592578493929161158491878b7f90f4e9f35ba126dbef0a8d29a11967a4f4a06161e9b6b9dbabacc99a04c5952598519361150c8561182d565b8b8552602085018d815289860191898352808b60608901958b875260808a0197600189528152600660205220975116906bffffffffffffffffffffffff60a01b9182895416178855600188019251169082541617905551600285015551600384015551151591019060ff801983541691151516179055565b82519182526020820152a480f35b845163c6cc5d7f60e01b8152fd5b845163d92e233d60e01b8152fd5b845163c48b3a1b60e01b81528790fd5b5081895416331415611495565b5081600a541633141561148f565b8680fd5b8234610485576115ec3661173c565b92919091338552600960205260ff8186205416158061164f575b8061163b575b61162c575061057093945061161f611d97565b611627611db8565b6118d9565b5163c48b3a1b60e01b81528590fd5b5084546001600160a01b031633141561160c565b50600a546001600160a01b0316331415611606565b90503461044b578060031936011261044b57600b5490600d5480831160001461169e5761169291508261180a565b82519182526020820152f35b50611692565b9134610761576020366003190112610761578135916116c1611d97565b6116c9611db8565b821561172e57612710831061142057338452600760205282828520541061142e5750338352600760205280832061170183825461180a565b90556113ee82337f0000000000000000000000000000000000000000000000000000000000000000611dd6565b905163162908e360e11b8152fd5b606090600319011261175657600435906024359060443590565b600080fd5b600435906001600160a01b038216820361175657565b602435906001600160a01b038216820361175657565b6040906003190112611756576004359060243590565b600b548110156117d757600b60005260021b7f0175b7a638427703f0dbe7bb9bbf987a2551717b34e79f33b5b1008d1fa01db90190600090565b634e487b7160e01b600052603260045260246000fd5b346117565760003660031901126117565760206040516127108152f35b9190820391821161181757565b634e487b7160e01b600052601160045260246000fd5b60a0810190811067ffffffffffffffff82111761184957604052565b634e487b7160e01b600052604160045260246000fd5b6080810190811067ffffffffffffffff82111761184957604052565b6040810190811067ffffffffffffffff82111761184957604052565b90601f8019910116810190811067ffffffffffffffff82111761184957604052565b9190820180921161181757565b8181029291811591840414171561181757565b9092918315611b6f57604080516370a0823160e01b81523060048201526001600160a01b039591929060209081816024817f00000000000000000000000000000000000000000000000000000000000000008c165afa908115611b6457600091611b37575b50836008918254808211600014611b2e576119589161180a565b10611b1d57948096977f0eb6a6e76fd4ae35ed214d3e66e4c16f31bba87424bc53a71b6e0f59e1abae6c968260005260068452866000209087519261199c8461182d565b80835416845280600184015416868501908152886002850154948b870195865260ff600460038301549260608a019384520154161580156080890152611ab5579280611a1b969381611a24600080516020611f918339815191529a989561101c611a10611aa79a61271091829151856118c6565b049c8d9a51846118c6565b049b8c9261180a565b97511660005260078b528d600020611a3d8882546118b9565b90555116600052600789528b600020611a578782546118b9565b9055600354821c16600052600788528a600020611a758382546118b9565b9055611a828a82546118b9565b905589519384938a859094939260609260808301968352602083015260408201520152565b0390a28351928352820152a2565b5050509250925050600354821c166000526007825284600020611ad98582546118b9565b9055611ae68482546118b9565b905585600080516020611f9183398151915260808651868152600085820152600088820152866060820152a28351928352820152a2565b8451631e9acf1760e31b8152600490fd5b50506000611958565b90508181813d8311611b5d575b611b4e8183611897565b8101031261175657513861193e565b503d611b44565b85513d6000823e3d90fd5b60405163162908e360e11b8152600490fd5b6000526006602052604060002060405190611b9b8261182d565b60018060a01b0380825416835260018201541660208301526002810154916040810192835260ff6004600384015493846060850152015416159060808215910152611c1157611c059261101c611bfa611c0e93612710918291856118c6565b0495869551846118c6565b0494859261180a565b92565b505060009160009190565b908015611b6f57600080516020611f918339815191529060009083825260209060068252604080842090805193611c528561182d565b60018060a01b038084541686528060018501541682870190815260028501549484880195865260ff600460038301549260608b01938452015416608089019015158152611cc18830337f0000000000000000000000000000000000000000000000000000000000000000611e45565b5115611d3d5784938380899a9b94611013999896611cf2611d389c61101c61100860079961271091829151856118c6565b9d511686528484528c611d098888209182546118b9565b905551168452828252848420611d208882546118b9565b905560035460081c16835252206110668482546118b9565b0390a2565b5050909450608095925060035460081c16825260078452808220611d628482546118b9565b9055611d70836008546118b9565b600855818151948486528501528301526060820152a2565b60001981146118175760010190565b6002805414611da65760028055565b604051633ee5aeb560e01b8152600490fd5b60ff60035416611dc457565b60405163d93c066560e01b8152600490fd5b60405163a9059cbb60e01b60208201526001600160a01b03929092166024830152604480830193909352918152611e1791611e12606483611897565b611f28565b565b6000546001600160a01b03163303611e2d57565b60405163118cdaa760e01b8152336004820152602490fd5b6040516323b872dd60e01b60208201526001600160a01b039283166024820152929091166044830152606480830193909352918152611e1791611e128261182d565b90600080516020611f918339815191529060009083825260209060068252604080842090805193611eb78561182d565b60018060a01b038084541686528060018501541682870190815260028501549484880195865260ff600460038301549260608b0193845201541615801560808a0152611d3d5784938380899a9b94611013999896611cf2611d389c61101c61100860079961271091829151856118c6565b906000602091828151910182855af115611f84576000513d611f7b57506001600160a01b0381163b155b611f595750565b604051635274afe760e01b81526001600160a01b039091166004820152602490fd5b60011415611f52565b6040513d6000823e3d90fdfeb78fe7d19ecaa882ec5410343ed8ad1e7b556d212f0cd51e6ec2737724362b36a2646970667358221220ac8866a612e9d98726611bbd32caced449fec2593631dfb82cef38201d0d75d464736f6c63430008180033",
  "linkReferences": {},
  "deployedLinkReferences": {}
}