{
  "_format": "hh-sol-artifact-1",
  "contractName": "InferenceSplitter",
  "sourceName": "contracts/InferenceSplitter.sol",
  "abi": [
    {
      "inputs": [
        {
          "internalType": "address",
          "name": "_usdc",
          "type": "address"
        },
        {
          "internalType": "address",
          "name": "_marketplaceWallet",
          "type": "address"
        },
        {
          "internalType": "address",
          "name": "_marketplace",
          "type": "address"
        }
      ],
      "stateMutability": "nonpayable",
      "type": "constructor"
    },
    {
      "inputs": [],
      "name": "BelowMinimumWithdrawal",
      "type": "error"
    },
    {
      "inputs": [],
      "name": "EnforcedPause",
      "type": "error"
    },
    {
      "inputs": [],
      "name": "ExpectedPause",
      "type": "error"
    },
    {
      "inputs": [],
      "name": "InsufficientBalance",
      "type": "error"
    },
    {
      "inputs": [],
      "name": "InvalidAmount",
      "type": "error"
    },
    {
      "inputs": [],
      "name": "InvalidBps",
      "type": "error"
    },
    {
      "inputs": [],
      "name": "ModelNotRegistered",
      "type": "error"
    },
    {
      "inputs": [],
      "name": "NoPendingChange",
      "type": "error"
    },
    {
      "inputs": [],
      "name": "OnlyAuthorizedCaller",
      "type": "error"
    },
    {
      "inputs": [
        {
          "internalType": "address",
          "name": "owner",
          "type": "address"
        }
      ],
      "name": "OwnableInvalidOwner",
      "type": "error"
    },
    {
      "inputs": [
        {
          "internalType": "address",
          "name": "account",
          "type": "address"
        }
      ],
      "name": "OwnableUnauthorizedAccount",
      "type": "error"
    },
    {
      "inputs": [],
      "name": "ReentrancyGuardReentrantCall",
      "type": "error"
    },
    {
      "inputs": [
        {
          "internalType": "address",
          "name": "token",
          "type": "address"
        }
      ],
      "name": "SafeERC20FailedOperation",
      "type": "error"
    },
    {
      "inputs": [],
      "name": "SplitAlreadyConfigured",
      "type": "error"
    },
    {
      "inputs": [],
      "name": "TimelockNotExpired",
      "type": "error"
    },
    {
      "inputs": [],
      "name": "TransferFailed",
      "type": "error"
    },
    {
      "inputs": [],
      "name": "ZeroAddress",
      "type": "error"
    },
    {
      "anonymous": false,
      "inputs": [
        {
          "indexed": true,
          "internalType": "address",
          "name": "caller",
          "type": "address"
        },
        {
          "indexed": false,
          "internalType": "bool",
          "name": "authorized",
          "type": "bool"
        }
      ],
      "name": "AuthorizedCallerUpdated",
      "type": "event"
    },
    {
      "anonymous": false,
      "inputs": [
        {
          "indexed": true,
          "internalType": "address",
          "name": "oldWallet",
          "type": "address"
        },
        {
          "indexed": true,
          "internalType": "address",
          "name": "newWallet",
          "type": "address"
        },
        {
          "indexed": false,
          "internalType": "uint256",
          "name": "effectiveAt",
          "type": "uint256"
        }
      ],
      "name": "MarketplaceWalletChangeRequested",
      "type": "event"
    },
    {
      "anonymous": false,
      "inputs": [
        {
          "indexed": true,
          "internalType": "address",
          "name": "oldWallet",
          "type": "address"
        },
        {
          "indexed": true,
          "internalType": "address",
          "name": "newWallet",
          "type": "address"
        }
      ],
      "name": "MarketplaceWalletChanged",
      "type": "event"
    },
    {
      "anonymous": false,
      "inputs": [
        {
          "indexed": true,
          "internalType": "address",
          "name": "previousOwner",
          "type": "address"
        },
        {
          "indexed": true,
          "internalType": "address",
          "name": "newOwner",
          "type": "address"
        }
      ],
      "name": "OwnershipTransferStarted",
      "type": "event"
    },
    {
      "anonymous": false,
      "inputs": [
        {
          "indexed": true,
          "internalType": "address",
          "name": "previousOwner",
          "type": "address"
        },
        {
          "indexed": true,
          "internalType": "address",
          "name": "newOwner",
          "type": "address"
        }
      ],
      "name": "OwnershipTransferred",
      "type": "event"
    },
    {
      "anonymous": false,
      "inputs": [
        {
          "indexed": false,
          "internalType": "address",
          "name": "account",
          "type": "address"
        }
      ],
      "name": "Paused",
      "type": "event"
    },
    {
      "anonymous": false,
      "inputs": [
        {
          "indexed": true,
          "internalType": "uint256",
          "name": "modelId",
          "type": "uint256"
        },
        {
          "indexed": false,
          "internalType": "uint256",
          "name": "amount",
          "type": "uint256"
        },
        {
          "indexed": false,
          "internalType": "uint256",
          "name": "sellerAmount",
          "type": "uint256"
        },
        {
          "indexed": false,
          "internalType": "uint256",
          "name": "creatorAmount",
          "type": "uint256"
        },
        {
          "indexed": false,
          "internalType": "uint256",
          "name": "marketplaceAmount",
          "type": "uint256"
        }
      ],
      "name": "PaymentReceived",
      "type": "event"
    },
    {
      "anonymous": false,
      "inputs": [
        {
          "indexed": true,
          "internalType": "uint256",
          "name": "modelId",
          "type": "uint256"
        },
        {
          "indexed": true,
          "internalType": "address",
          "name": "seller",
          "type": "address"
        },
        {
          "indexed": true,
          "internalType": "address",
          "name": "creator",
          "type": "address"
        },
        {
          "indexed": false,
          "internalType": "uint256",
          "name": "royaltyBps",
          "type": "uint256"
        },
        {
          "indexed": false,
          "internalType": "uint256",
          "name": "marketplaceBps",
          "type": "uint256"
        }
      ],
      "name": "SplitConfigured",
      "type": "event"
    },
    {
      "anonymous": false,
      "inputs": [
        {
          "indexed": false,
          "internalType": "address",
          "name": "account",
          "type": "address"
        }
      ],
      "name": "Unpaused",
      "type": "event"
    },
    {
      "anonymous": false,
      "inputs": [
        {
          "indexed": true,
          "internalType": "address",
          "name": "recipient",
          "type": "address"
        },
        {
          "indexed": false,
          "internalType": "uint256",
          "name": "amount",
          "type": "uint256"
        }
      ],
      "name": "Withdrawal",
      "type": "event"
    },
    {
      "inputs": [],
      "name": "MAX_BPS",
      "outputs": [
        {
          "internalType": "uint256",
          "name": "",
          "type": "uint256"
        }
      ],
      "stateMutability": "view",
      "type": "function"
    },
    {
      "inputs": [],
      "name": "MAX_MARKETPLACE_FEE_BPS",
      "outputs": [
        {
          "internalType": "uint256",
          "name": "",
          "type": "uint256"
        }
      ],
      "stateMutability": "view",
      "type": "function"
    },
    {
      "inputs": [],
      "name": "MAX_ROYALTY_BPS",
      "outputs": [
        {
          "internalType": "uint256",
          "name": "",
          "type": "uint256"
        }
      ],
      "stateMutability": "view",
      "type": "function"
    },
    {
      "inputs": [],
      "name": "MIN_WITHDRAWAL",
      "outputs": [
        {
          "internalType": "uint256",
          "name": "",
          "type": "uint256"
        }
      ],
      "stateMutability": "view",
      "type": "function"
    },
    {
      "inputs": [],
      "name": "TIMELOCK_DELAY",
      "outputs": [
        {
          "internalType": "uint256",
          "name": "",
          "type": "uint256"
        }
      ],
      "stateMutability": "view",
      "type": "function"
    },
    {
      "inputs": [],
      "name": "acceptOwnership",
      "outputs": [],
      "stateMutability": "nonpayable",
      "type": "function"
    },
    {
      "inputs": [
        {
          "internalType": "address",
          "name": "",
          "type": "address"
        }
      ],
      "name": "authorizedCallers",
      "outputs": [
        {
          "internalType": "bool",
          "name": "",
          "type": "bool"
        }
      ],
      "stateMutability": "view",
      "type": "function"
    },
    {
      "inputs": [
        {
          "internalType": "address",
          "name": "",
          "type": "address"
        }
      ],
      "name": "balances",
      "outputs": [
        {
          "internalType": "uint256",
          "name": "",
          "type": "uint256"
        }
      ],
      "stateMutability": "view",
      "type": "function"
    },
    {
      "inputs": [
        {
          "internalType": "uint256",
          "name": "modelId",
          "type": "uint256"
        },
        {
          "internalType": "uint256",
          "name": "amount",
          "type": "uint256"
        }
      ],
      "name": "calculateSplit",
      "outputs": [
        {
          "internalType": "uint256",
          "name": "sellerAmount",
          "type": "uint256"
        },
        {
          "internalType": "uint256",
          "name": "creatorAmount",
          "type": "uint256"
        },
        {
          "internalType": "uint256",
          "name": "marketplaceAmount",
          "type": "uint256"
        }
      ],
      "stateMutability": "view",
      "type": "function"
    },
    {
      "inputs": [],
      "name": "cancelMarketplaceWalletChange",
      "outputs": [],
      "stateMutability": "nonpayable",
      "type": "function"
    },
    {
      "inputs": [
        {
          "internalType": "uint256",
          "name": "modelId",
          "type": "uint256"
        },
        {
          "internalType": "address",
          "name": "seller",
          "type": "address"
        },
        {
          "internalType": "address",
          "name": "creator",
          "type": "address"
        },
        {
          "internalType": "uint256",
          "name": "royaltyBps",
          "type": "uint256"
        },
        {
          "internalType": "uint256",
          "name": "marketplaceBps",
          "type": "uint256"
        }
      ],
      "name": "configureSplit",
      "outputs": [],
      "stateMutability": "nonpayable",
      "type": "function"
    },
    {
      "inputs": [
        {
          "internalType": "uint256",
          "name": "modelId",
          "type": "uint256"
        },
        {
          "internalType": "uint256",
          "name": "amount",
          "type": "uint256"
        }
      ],
      "name": "distributePayment",
      "outputs": [],
      "stateMutability": "nonpayable",
      "type": "function"
    },
    {
      "inputs": [
        {
          "internalType": "address",
          "name": "token",
          "type": "address"
        },
        {
          "internalType": "address",
          "name": "to",
          "type": "address"
        },
        {
          "internalType": "uint256",
          "name": "amount",
          "type": "uint256"
        }
      ],
      "name": "emergencyRescue",
      "outputs": [],
      "stateMutability": "nonpayable",
      "type": "function"
    },
    {
      "inputs": [],
      "name": "executeMarketplaceWalletChange",
      "outputs": [],
      "stateMutability": "nonpayable",
      "type": "function"
    },
    {
      "inputs": [
        {
          "internalType": "address",
          "name": "account",
          "type": "address"
        }
      ],
      "name": "getBalance",
      "outputs": [
        {
          "internalType": "uint256",
          "name": "",
          "type": "uint256"
        }
      ],
      "stateMutability": "view",
      "type": "function"
    },
    {
      "inputs": [
        {
          "internalType": "uint256",
          "name": "modelId",
          "type": "uint256"
        }
      ],
      "name": "getSplit",
      "outputs": [
        {
          "components": [
            {
              "internalType": "address",
              "name": "seller",
              "type": "address"
            },
            {
              "internalType": "address",
              "name": "creator",
              "type": "address"
            },
            {
              "internalType": "uint256",
              "name": "royaltyBps",
              "type": "uint256"
            },
            {
              "internalType": "uint256",
              "name": "marketplaceBps",
              "type": "uint256"
            },
            {
              "internalType": "bool",
              "name": "configured",
              "type": "bool"
            }
          ],
          "internalType": "struct InferenceSplitter.SplitConfig",
          "name": "",
          "type": "tuple"
        }
      ],
      "stateMutability": "view",
      "type": "function"
    },
    {
      "inputs": [
        {
          "internalType": "uint256",
          "name": "modelId",
          "type": "uint256"
        }
      ],
      "name": "isSplitConfigured",
      "outputs": [
        {
          "internalType": "bool",
          "name": "",
          "type": "bool"
        }
      ],
      "stateMutability": "view",
      "type": "function"
    },
    {
      "inputs": [],
      "name": "marketplace",
      "outputs": [
        {
          "internalType": "address",
          "name": "",
          "type": "address"
        }
      ],
      "stateMutability": "view",
      "type": "function"
    },
    {
      "inputs": [],
      "name": "marketplaceWallet",
      "outputs": [
        {
          "internalType": "address",
          "name": "",
          "type": "address"
        }
      ],
      "stateMutability": "view",
      "type": "function"
    },
    {
      "inputs": [],
      "name": "owner",
      "outputs": [
        {
          "internalType": "address",
          "name": "",
          "type": "address"
        }
      ],
      "stateMutability": "view",
      "type": "function"
    },
    {
      "inputs": [],
      "name": "pause",
      "outputs": [],
      "stateMutability": "nonpayable",
      "type": "function"
    },
    {
      "inputs": [],
      "name": "paused",
      "outputs": [
        {
          "internalType": "bool",
          "name": "",
          "type": "bool"
        }
      ],
      "stateMutability": "view",
      "type": "function"
    },
    {
      "inputs": [],
      "name": "pendingMarketplaceWallet",
      "outputs": [
        {
          "internalType": "address",
          "name": "newValue",
          "type": "address"
        },
        {
          "internalType": "uint256",
          "name": "effectiveAt",
          "type": "uint256"
        }
      ],
      "stateMutability": "view",
      "type": "function"
    },
    {
      "inputs": [],
      "name": "pendingOwner",
      "outputs": [
        {
          "internalType": "address",
          "name": "",
          "type": "address"
        }
      ],
      "stateMutability": "view",
      "type": "function"
    },
    {
      "inputs": [
        {
          "internalType": "uint256",
          "name": "modelId",
          "type": "uint256"
        },
        {
          "internalType": "uint256",
          "name": "amount",
          "type": "uint256"
        }
      ],
      "name": "receivePayment",
      "outputs": [],
      "stateMutability": "nonpayable",
      "type": "function"
    },
    {
      "inputs": [],
      "name": "renounceOwnership",
      "outputs": [],
      "stateMutability": "nonpayable",
      "type": "function"
    },
    {
      "inputs": [
        {
          "internalType": "address",
          "name": "newWallet",
          "type": "address"
        }
      ],
      "name": "requestMarketplaceWalletChange",
      "outputs": [],
      "stateMutability": "nonpayable",
      "type": "function"
    },
    {
      "inputs": [
        {
          "internalType": "address",
          "name": "caller",
          "type": "address"
        },
        {
          "internalType": "bool",
          "name": "authorized",
          "type": "bool"
        }
      ],
      "name": "setAuthorizedCaller",
      "outputs": [],
      "stateMutability": "nonpayable",
      "type": "function"
    },
    {
      "inputs": [
        {
          "internalType": "address",
          "name": "_marketplace",
          "type": "address"
        }
      ],
      "name": "setMarketplace",
      "outputs": [],
      "stateMutability": "nonpayable",
      "type": "function"
    },
    {
      "inputs": [
        {
          "internalType": "uint256",
          "name": "",
          "type": "uint256"
        }
      ],
      "name": "splits",
      "outputs": [
        {
          "internalType": "address",
          "name": "seller",
          "type": "address"
        },
        {
          "internalType": "address",
          "name": "creator",
          "type": "address"
        },
        {
          "internalType": "uint256",
          "name": "royaltyBps",
          "type": "uint256"
        },
        {
          "internalType": "uint256",
          "name": "marketplaceBps",
          "type": "uint256"
        },
        {
          "internalType": "bool",
          "name": "configured",
          "type": "bool"
        }
      ],
      "stateMutability": "view",
      "type": "function"
    },
    {
      "inputs": [],
      "name": "totalAccumulated",
      "outputs": [
        {
          "internalType": "uint256",
          "name": "",
          "type": "uint256"
        }
      ],
      "stateMutability": "view",
      "type": "function"
    },
    {
      "inputs": [
        {
          "internalType": "address",
          "name": "newOwner",
          "type": "address"
        }
      ],
      "name": "transferOwnership",
      "outputs": [],
      "stateMutability": "nonpayable",
      "type": "function"
    },
    {
      "inputs": [],
      "name": "unpause",
      "outputs": [],
      "stateMutability": "nonpayable",
      "type": "function"
    },
    {
      "inputs": [],
      "name": "usdc",
      "outputs": [
        {
          "internalType": "contract IERC20",
          "name": "",
          "type": "address"
        }
      ],
      "stateMutability": "view",
      "type": "function"
    },
    {
      "inputs": [],
      "name": "withdraw",
      "outputs": [],
      "stateMutability": "nonpayable",
      "type": "function"
    },
    {
      "inputs": [
        {
          "internalType": "uint256",
          "name": "amount",
          "type": "uint256"
        }
      ],
      "name": "withdrawAmount",
      "outputs": [],
      "stateMutability": "nonpayable",
      "type": "function"
    }
  ],
  "bytecode": "0x60a034620001b357601f6200174538819003918201601f1916830191906001600160401b03831184841017620001b8578160609285926040958652833981010312620001b3576200005082620001ce565b6200006b826200006360208601620001ce565b9401620001ce565b33156200019b5760018060a01b031993846001541660015560009283549260018060a01b03809233898716178755875195823391167f8be0079c531659141344cd1fd0a4f28419497f9722a3daafe3b4186f6b6457e08980a36001600255169384156200018c5750818316156200017b57169182156200016a5760805260038054610100600160a81b03191660089290921b610100600160a81b0316919091179055600a80549094168117909355918252600960205290819020805460ff19166001179055516115619081620001e48239608051818181610325015281816109ee01528181610d2401528181610dc10152818161105f01526112d60152f35b845163d92e233d60e01b8152600490fd5b855163d92e233d60e01b8152600490fd5b63d92e233d60e01b8152600490fd5b8251631e4fbdf760e01b815260006004820152602490fd5b600080fd5b634e487b7160e01b600052604160045260246000fd5b51906001600160a01b0382168203620001b35756fe6040608081526004908136101561001557600080fd5b600090813560e01c9283630562b9f714610ff957836327e235e314610fd25783632951bd9914610e335783633ccfd60b14610d6f5783633dca40e614610d535783633e413bee14610d105783633f4ba83a14610ca85783634107d9cb14610c8a578363454bbd2914610bfd578363514a681014610b48578363536fff6c14610b0b5783635793e02f146108ff5783635ba1c1a9146108e25783635c975abb146108bf5783636d0ffb1214610892578363715018a61461082d57836372f729f0146107fb57836373ad6c2d1461079257836379ba5097146107115783637cc3068d146106e45783638456cb591461068a578363884c30061461062a5783638bd65c13146105615783638da5cb5b1461053a578363abc8c7af14610512578363b4d8170c146104ec578363b74fb316146104d0578363d15ca166146101b1578363d3bec4c914610404578363d687d0b3146102e257508263ded1e6eb146102b2578263e30c39781461028b578263ed9ed69614610260578263f2fde38b146101f0578263f8b2cb4f146101b657505063fd967f47146101b157600080fd5b6110d8565b346101ec5760203660031901126101ec5760209181906001600160a01b036101dc611091565b1681526007845220549051908152f35b5080fd5b503461025d57602036600319011261025d5761020a611091565b610212611455565b600180546001600160a01b0319166001600160a01b0392831690811790915582549091167f38d16b8cac22d99fc7c124b9cd0de2d3fa1faef420bfe791d8c362d765e227008380a380f35b80fd5b346101ec57816003193601126101ec57600354905160089190911c6001600160a01b03168152602090f35b346101ec57816003193601126101ec5760015490516001600160a01b039091168152602090f35b503461025d576102da6102c4366110c2565b906102cd6113d3565b6102d56113f4565b611243565b600160025580f35b9250346101ec5760603660031901126101ec576102fd611091565b6103056110ac565b9060443592610312611455565b6001600160a01b03838116156103f457807f000000000000000000000000000000000000000000000000000000000000000016921691808314610360575b505061035d939450611412565b80f35b60206024918351928380926370a0823160e01b8252308c8301525afa80156103ea5786906103b2575b6103979150600854906110f5565b84116103a35780610350565b51631e9acf1760e31b81528590fd5b506020813d6020116103e2575b816103cc60209383611173565b810103126103de576103979051610389565b8580fd5b3d91506103bf565b82513d88823e3d90fd5b815163d92e233d60e01b81528790fd5b90346104cc5760203660031901126104cc5761041e611091565b91610427611455565b6001600160a01b039283169283156104bd57620151804201918242116104aa57916020917fd2f3c23537d11daa3caf9f2f59b748bfffd06edf731624aaf17c65ff134750ce938284875161047a81611157565b8981520152866bffffffffffffffffffffffff60a01b8254161790558160055560035460081c169351908152a380f35b634e487b7160e01b865260119052602485fd5b50905163d92e233d60e01b8152fd5b8280fd5b50346101ec57816003193601126101ec57602090516103e88152f35b8291503461050f578160031936011261050f57610507611455565b558060055580f35b50fd5b50346101ec57816003193601126101ec57600a5490516001600160a01b039091168152602090f35b50346101ec57816003193601126101ec57905490516001600160a01b039091168152602090f35b90346104cc57826003193601126104cc5761057a611455565b80519161058683611157565b80546001600160a01b03908116845260055460208501818152919391901561061c5751421061060f5750600380549351610100600160a81b03198516600882811b610100600160a81b03169190911790925591859055600585905590821692901c167f6f79e27210b19a4c7601e0a512e1a79bc305548722d4b80c87588effce7a55118380a380f35b5163621e25c360e01b8152fd5b505163147fde5f60e31b8152fd5b90346104cc5760203660031901126104cc578060a09383358152600660205220600180851b039283825416936001830154169260ff6002840154926003850154940154169381519586526020860152840152606083015215156080820152f35b50346101ec57816003193601126101ec5760207f62e78cea01bee320cd4e420270b5ea74000d11b0c9f74754ebdbfc544b05a258916106c7611455565b6106cf6113f4565b600160ff19600354161760035551338152a180f35b50346101ec576060906106ff6106f9366110c2565b906111a8565b91929081519384526020840152820152f35b90346104cc57826003193601126104cc57600154916001600160a01b0391338385160361077b5750506001600160a01b031991821660015582543392811683178455167f8be0079c531659141344cd1fd0a4f28419497f9722a3daafe3b4186f6b6457e08380a380f35b60249250519063118cdaa760e01b82523390820152fd5b346104cc5760203660031901126104cc576107ab611091565b6107b3611455565b6001600160a01b03169081156107ed5750600a80546001600160a01b03191682179055825260096020528120805460ff1916600117905580f35b825163d92e233d60e01b8152fd5b823461025d578060031936011261025d57505460055491516001600160a01b0390911681526020810191909152604090f35b823461025d578060031936011261025d57610846611455565b600180546001600160a01b03199081169091558154908116825581906001600160a01b03167f8be0079c531659141344cd1fd0a4f28419497f9722a3daafe3b4186f6b6457e08280a380f35b346104cc5760203660031901126104cc57808260209460ff93358152600686522001541690519015158152f35b50346101ec57816003193601126101ec5760209060ff6003541690519015158152f35b50346101ec57816003193601126101ec5760209051620151808152f35b90346104cc5761090e366110c2565b90923385526020926009845260ff81872054161580610af6575b80610ae2575b610ad55761093a6113d3565b6109426113f4565b8215610ac857848652600684528086209381519461095f86611125565b60018060a01b0390818154168752816001820154169083880191825260028101549585890196875260ff8160038401549360608c0194855201541615801560808b0152610aba5750610a2a9383808794610aaf988e8c9b98610a387fb78fe7d19ecaa882ec5410343ed8ad1e7b556d212f0cd51e6ec2737724362b369f9e610a33610a1f60079b610a128430337f0000000000000000000000000000000000000000000000000000000000000000611481565b6127109182915185611195565b049e8f9e5184611195565b049c8d926110f5565b6110f5565b9d5116815286865220610a4c8c8254611118565b905551168c52828252838c20610a63868254611118565b905560035460081c168b5252808920610a7d848254611118565b9055610a8b85600854611118565b60085551948594859094939260609260808301968352602083015260408201520152565b0390a2600160025580f35b8551630b7bde6f60e31b8152fd5b5163162908e360e11b8152fd5b5163c48b3a1b60e01b8152fd5b5085546001600160a01b031633141561092e565b50600a546001600160a01b0316331415610928565b50346101ec5760203660031901126101ec5760209160ff9082906001600160a01b03610b35611091565b1681526009855220541690519015158152f35b90346104cc5760203660031901126104cc57808360a09460808351610b6c81611125565b8281528260208201528285820152826060820152015283358152600660205220815191610b9883611125565b600180861b039384835416948585528060018501541660208601908152608060ff60028701549486890195865260038801549760608a019889520154169601951515865283519687525116602086015251908401525160608301525115156080820152f35b90346104cc57806003193601126104cc57610c16611091565b90602435801515928382036103de57610c2d611455565b6001600160a01b03169384156107ed575091602091610c827fad857fa38c9319cb80848f1ef2f924383b90297eb5d71755738ff037d100faa194868852600985528288209060ff801983541691151516179055565b51908152a280f35b50346101ec57816003193601126101ec576020906008549051908152f35b346104cc57826003193601126104cc57610cc0611455565b6003549060ff821615610d02575060ff1916600355513381527f5db9ee0a495bf2e6ff9c91a7834c1ba4fdd244a5e8aa4e537bd38aeae4b073aa90602090a180f35b8251638dfc202b60e01b8152fd5b50346101ec57816003193601126101ec57517f00000000000000000000000000000000000000000000000000000000000000006001600160a01b03168152602090f35b50346101ec57816003193601126101ec57602090516107d08152f35b90346104cc57826003193601126104cc57610d886113d3565b610d906113f4565b338352600760205280832054918215610e25576127108310610e17575033835260076020528281812055610de582337f0000000000000000000000000000000000000000000000000000000000000000611412565b519081527f7fcf532c15f0a6db0bd6d0e038bea71d30d808c7d98cb3bf7268a95bf5081b6560203392a2600160025580f35b9051630980da4560e11b8152fd5b9051631e9acf1760e31b8152fd5b346104cc5760a03660031901126104cc578035610e4e6110ac565b6001600160a01b03604435818116959290869003610fce576064359160843591338952600960205260ff858a2054161580610fc0575b80610fb3575b610fa3578190610e986113f4565b16958615610f95578715610f95576107d08411610f87576103e88311610f8757612710610ec58486611118565b11610f875784939291610f7991878b7f90f4e9f35ba126dbef0a8d29a11967a4f4a06161e9b6b9dbabacc99a04c59525985193610f0185611125565b8b8552602085018d815289860191898352808b60608901958b875260808a0197600189528152600660205220975116906bffffffffffffffffffffffff60a01b9182895416178855600188019251169082541617905551600285015551600384015551151591019060ff801983541691151516179055565b82519182526020820152a480f35b845163c6cc5d7f60e01b8152fd5b845163d92e233d60e01b8152fd5b845163c48b3a1b60e01b81528790fd5b5081895416331415610e8a565b5081600a5416331415610e84565b8680fd5b50346101ec5760203660031901126101ec5760209181906001600160a01b036101dc611091565b90346104cc5760203660031901126104cc578135916110166113d3565b61101e6113f4565b8215611083576127108310610e17573384526007602052828285205410610e25575033835260076020528083206110568382546110f5565b9055610de582337f0000000000000000000000000000000000000000000000000000000000000000611412565b905163162908e360e11b8152fd5b600435906001600160a01b03821682036110a757565b600080fd5b602435906001600160a01b03821682036110a757565b60409060031901126110a7576004359060243590565b346110a75760003660031901126110a75760206040516127108152f35b9190820391821161110257565b634e487b7160e01b600052601160045260246000fd5b9190820180921161110257565b60a0810190811067ffffffffffffffff82111761114157604052565b634e487b7160e01b600052604160045260246000fd5b6040810190811067ffffffffffffffff82111761114157604052565b90601f8019910116810190811067ffffffffffffffff82111761114157604052565b8181029291811591840414171561110257565b60005260066020526040600020604051906111c282611125565b60018060a01b0380825416835260018201541660208301526002810154916040810192835260ff60046003840154938460608501520154161590608082159101526112385761122c92610a336112216112359361271091829185611195565b049586955184611195565b049485926110f5565b92565b505060009160009190565b9080156113c1577fb78fe7d19ecaa882ec5410343ed8ad1e7b556d212f0cd51e6ec2737724362b36906000908382526020906006825260408084209080519361128b85611125565b60018060a01b038084541686528060018501541682870190815260028501549484880195865260ff600460038301549260608b019384520154166080890190151581526112fa8830337f0000000000000000000000000000000000000000000000000000000000000000611481565b51156113765784938380899a9b94610a2a99989661132b6113719c610a33610a1f6007996127109182915185611195565b9d511686528484528c611342888820918254611118565b905551168452828252848420611359888254611118565b905560035460081c1683525220610a7d848254611118565b0390a2565b5050909450608095925060035460081c1682526007845280822061139b848254611118565b90556113a983600854611118565b600855818151948486528501528301526060820152a2565b60405163162908e360e11b8152600490fd5b60028054146113e25760028055565b604051633ee5aeb560e01b8152600490fd5b60ff6003541661140057565b60405163d93c066560e01b8152600490fd5b60405163a9059cbb60e01b60208201526001600160a01b039290921660248301526044808301939093529181526114539161144e606483611173565b6114c3565b565b6000546001600160a01b0316330361146957565b60405163118cdaa760e01b8152336004820152602490fd5b6040516323b872dd60e01b60208201526001600160a01b0392831660248201529290911660448301526064808301939093529181526114539161144e82611125565b906000602091828151910182855af11561151f576000513d61151657506001600160a01b0381163b155b6114f45750565b604051635274afe760e01b81526001600160a01b039091166004820152602490fd5b600114156114ed565b6040513d6000823e3d90fdfea2646970667358221220a761ce99b2cc0c22c1d7b78dc3ad83225e53da3fe5998b280e7eff4851e8685e64736f6c63430008180033",
  "linkReferences": {},
  "deployedLinkReferences": {}
}