{
  "_format": "hh-sol-artifact-1",
  "contractName": "ModelSplitter",
  "sourceName": "contracts/ModelSplitter.sol",
  "abi": [
    {
      "inputs": [],
      "name": "BelowMinimumWithdrawal",
      "type": "error"
    },
    {
      "inputs": [],
      "name": "InsufficientBalance",
      "type": "error"
    },
    {
      "inputs": [],
      "name": "InvalidInitialization",
      "type": "error"
    },
    {
      "inputs": [],
      "name": "InvalidRecipient",
      "type": "error"
    },
    {
      "inputs": [],
      "name": "NotInitializing",
      "type": "error"
    },
    {
      "inputs": [],
      "name": "NothingToDistribute",
      "type": "error"
    },
    {
      "inputs": [],
      "name": "ReentrancyGuardReentrantCall",
      "type": "error"
    },
    {
      "inputs": [
        {
          "internalType": "address",
          "name": "token",
          "type": "address"
        }
      ],
      "name": "SafeERC20FailedOperation",
      "type": "error"
    },
    {
      "anonymous": false,
      "inputs": [
        {
          "indexed": false,
          "internalType": "uint256",
          "name": "amount",
          "type": "uint256"
        },
        {
          "indexed": false,
          "internalType": "uint256",
          "name": "sellerAmount",
          "type": "uint256"
        },
        {
          "indexed": false,
          "internalType": "uint256",
          "name": "creatorAmount",
          "type": "uint256"
        },
        {
          "indexed": false,
          "internalType": "uint256",
          "name": "marketplaceAmount",
          "type": "uint256"
        }
      ],
      "name": "Distributed",
      "type": "event"
    },
    {
      "anonymous": false,
      "inputs": [
        {
          "indexed": false,
          "internalType": "uint64",
          "name": "version",
          "type": "uint64"
        }
      ],
      "name": "Initialized",
      "type": "event"
    },
    {
      "anonymous": false,
      "inputs": [
        {
          "indexed": true,
          "internalType": "address",
          "name": "recipient",
          "type": "address"
        },
        {
          "indexed": false,
          "internalType": "uint256",
          "name": "amount",
          "type": "uint256"
        }
      ],
      "name": "Withdrawal",
      "type": "event"
    },
    {
      "inputs": [],
      "name": "MAX_BPS",
      "outputs": [
        {
          "internalType": "uint256",
          "name": "",
          "type": "uint256"
        }
      ],
      "stateMutability": "view",
      "type": "function"
    },
    {
      "inputs": [],
      "name": "MIN_WITHDRAWAL",
      "outputs": [
        {
          "internalType": "uint256",
          "name": "",
          "type": "uint256"
        }
      ],
      "stateMutability": "view",
      "type": "function"
    },
    {
      "inputs": [
        {
          "internalType": "address",
          "name": "",
          "type": "address"
        }
      ],
      "name": "balances",
      "outputs": [
        {
          "internalType": "uint256",
          "name": "",
          "type": "uint256"
        }
      ],
      "stateMutability": "view",
      "type": "function"
    },
    {
      "inputs": [],
      "name": "creator",
      "outputs": [
        {
          "internalType": "address",
          "name": "",
          "type": "address"
        }
      ],
      "stateMutability": "view",
      "type": "function"
    },
    {
      "inputs": [],
      "name": "distribute",
      "outputs": [
        {
          "internalType": "uint256",
          "name": "distributed",
          "type": "uint256"
        }
      ],
      "stateMutability": "nonpayable",
      "type": "function"
    },
    {
      "inputs": [],
      "name": "distributeAndWithdraw",
      "outputs": [],
      "stateMutability": "nonpayable",
      "type": "function"
    },
    {
      "inputs": [],
      "name": "getAllBalances",
      "outputs": [
        {
          "internalType": "uint256",
          "name": "sellerBalance",
          "type": "uint256"
        },
        {
          "internalType": "uint256",
          "name": "creatorBalance",
          "type": "uint256"
        },
        {
          "internalType": "uint256",
          "name": "marketplaceBalance",
          "type": "uint256"
        },
        {
          "internalType": "uint256",
          "name": "pendingToDistribute",
          "type": "uint256"
        }
      ],
      "stateMutability": "view",
      "type": "function"
    },
    {
      "inputs": [],
      "name": "getSplitConfig",
      "outputs": [
        {
          "internalType": "uint256",
          "name": "_modelId",
          "type": "uint256"
        },
        {
          "internalType": "address",
          "name": "_seller",
          "type": "address"
        },
        {
          "internalType": "address",
          "name": "_creator",
          "type": "address"
        },
        {
          "internalType": "address",
          "name": "_marketplaceWallet",
          "type": "address"
        },
        {
          "internalType": "uint256",
          "name": "_royaltyBps",
          "type": "uint256"
        },
        {
          "internalType": "uint256",
          "name": "_marketplaceBps",
          "type": "uint256"
        }
      ],
      "stateMutability": "view",
      "type": "function"
    },
    {
      "inputs": [
        {
          "internalType": "address",
          "name": "_usdc",
          "type": "address"
        },
        {
          "internalType": "uint256",
          "name": "_modelId",
          "type": "uint256"
        },
        {
          "internalType": "address",
          "name": "_seller",
          "type": "address"
        },
        {
          "internalType": "address",
          "name": "_creator",
          "type": "address"
        },
        {
          "internalType": "address",
          "name": "_marketplaceWallet",
          "type": "address"
        },
        {
          "internalType": "uint256",
          "name": "_royaltyBps",
          "type": "uint256"
        },
        {
          "internalType": "uint256",
          "name": "_marketplaceBps",
          "type": "uint256"
        }
      ],
      "name": "initialize",
      "outputs": [],
      "stateMutability": "nonpayable",
      "type": "function"
    },
    {
      "inputs": [],
      "name": "marketplaceBps",
      "outputs": [
        {
          "internalType": "uint256",
          "name": "",
          "type": "uint256"
        }
      ],
      "stateMutability": "view",
      "type": "function"
    },
    {
      "inputs": [],
      "name": "marketplaceWallet",
      "outputs": [
        {
          "internalType": "address",
          "name": "",
          "type": "address"
        }
      ],
      "stateMutability": "view",
      "type": "function"
    },
    {
      "inputs": [],
      "name": "modelId",
      "outputs": [
        {
          "internalType": "uint256",
          "name": "",
          "type": "uint256"
        }
      ],
      "stateMutability": "view",
      "type": "function"
    },
    {
      "inputs": [],
      "name": "pendingDistribution",
      "outputs": [
        {
          "internalType": "uint256",
          "name": "pending",
          "type": "uint256"
        }
      ],
      "stateMutability": "view",
      "type": "function"
    },
    {
      "inputs": [],
      "name": "royaltyBps",
      "outputs": [
        {
          "internalType": "uint256",
          "name": "",
          "type": "uint256"
        }
      ],
      "stateMutability": "view",
      "type": "function"
    },
    {
      "inputs": [],
      "name": "seller",
      "outputs": [
        {
          "internalType": "address",
          "name": "",
          "type": "address"
        }
      ],
      "stateMutability": "view",
      "type": "function"
    },
    {
      "inputs": [],
      "name": "totalDistributed",
      "outputs": [
        {
          "internalType": "uint256",
          "name": "",
          "type": "uint256"
        }
      ],
      "stateMutability": "view",
      "type": "function"
    },
    {
      "inputs": [],
      "name": "usdc",
      "outputs": [
        {
          "internalType": "contract IERC20",
          "name": "",
          "type": "address"
        }
      ],
      "stateMutability": "view",
      "type": "function"
    },
    {
      "inputs": [],
      "name": "withdraw",
      "outputs": [],
      "stateMutability": "nonpayable",
      "type": "function"
    },
    {
      "inputs": [
        {
          "internalType": "uint256",
          "name": "amount",
          "type": "uint256"
        }
      ],
      "name": "withdrawAmount",
      "outputs": [],
      "stateMutability": "nonpayable",
      "type": "function"
    }
  ],
  "bytecode": "0x6080806040523461001657610dc6908161001c8239f35b600080fdfe608060408181526004908136101561001657600080fd5b600091823560e01c93846302d05d3f14610b85575083630562b9f714610b0d57836308551a5314610ae557836327e235e314610aae5783633ccfd60b146109f85783633e413bee146109d157836343cdaad2146109b35783634f9e3e01146107785783636de49e441461071f578363867e7c27146106145783639c22b9a614610526578363a432944514610364578363c63adb2b14610346578363d15ca166146100f8578363d32627a114610328578363e4fc6b6d14610148578363ed9ed6961461011e57508263efca2eed146100fd57505063fd967f47146100f857600080fd5b610bc5565b3461011a578160031936011261011a576020906008549051908152f35b5080fd5b346101445782600319360112610144575490516001600160a01b03909116815260209150f35b8280fd5b9034610144578260031936011261014457610161610c5d565b825481516370a0823160e01b815230818501526020946001600160a01b0394919286908490602490829089165afa92831561031c5781936102ed575b506101e3856002541693848352600788526101dd6101c987852054896003541686528886205490610c3d565b88865416855260078a528785205490610c3d565b90610be2565b9485156102de5761024492857ff7576d8c2653e9d07af5ef229acf59b339e327d4e0eaddb4a96615534cf148f895936102c393612710936102498b8661022b60065483610c4a565b04998a9761023b60055484610c4a565b049a8b92610be2565b610be2565b96835260078c5283832061025e888254610c3d565b90558160035416835260078c52838320610279898254610c3d565b90555416815260078a522061028f828254610c3d565b905561029d87600854610c3d565b600855855193849388859094939260609260808301968352602083015260408201520152565b0390a16001600080516020610d718339815191525551908152f35b845162598fc960e21b81528390fd5b9092508581813d8311610315575b6103058183610c05565b810103126101445751918661019d565b503d6102fb565b508351903d90823e3d90fd5b503461011a578160031936011261011a576020906006549051908152f35b503461011a578160031936011261011a576020906005549051908152f35b346101445760e03660031901126101445761037d610baa565b6001600160a01b0360443581811693919290849003610522576064359083821680920361051e576084359184831680930361051a577ff0c57e16840df040f15088dc2f81fe391c3923bec73e23a9662efc9c229c6a009586549560ff878a1c16159667ffffffffffffffff811680159081610512575b6001149081610508575b1590816104ff575b506104ef5767ffffffffffffffff1981166001178955876104d0575b5061042a610d2f565b610432610d2f565b6001600080516020610d71833981519152556bffffffffffffffffffffffff60a01b9316838a541617895560243560015582600254161760025581600354161760035582541617905560a43560055560c43560065561048f578280f35b805468ff00000000000000001916905551600181527fc7f505b2f371ae2175ee4913f4499e1f2633a7b5936321eed1cdaeb6115181d290602090a181808280f35b68ffffffffffffffffff1916680100000000000000011788558a610421565b895163f92ee8a960e01b81528790fd5b9050158c610405565b303b1591506103fd565b8991506103f3565b8780fd5b8680fd5b8580fd5b9134610611578060031936011261061157805482516370a0823160e01b8152308186015260209490916001600160a01b039086908490602490829085165afa9283156106075784936105d2575b5090816105af926002541685526007875261059c86862054826003541687528787205490610c3d565b9154168452600786528484205490610c3d565b90818111156105ca576105c29250610be2565b905b51908152f35b5050906105c4565b9092508581813d8311610600575b6105ea8183610c05565b810103126105fc5751916105af610573565b8380fd5b503d6105e0565b85513d86823e3d90fd5b80fd5b92503461011a578160031936011261011a5760018060a01b03908160025416835260076020528083205491806003541684528184205493818654168152602083822054928254169660248551809981936370a0823160e01b835230908301525afa80156107135781906106de575b85965061069c8361069787986106d298610c3d565b610c3d565b90818111156106d6576106af9250610be2565b915b51948594859094939260609260808301968352602083015260408201520152565b0390f35b5050916106b1565b50946020813d60201161070b575b816106f960209383610c05565b81010312610522575193948594610682565b3d91506106ec565b508251903d90823e3d90fd5b34610144578260031936011261014457600154600254600354925460055460065486519485526001600160a01b03938416602086015294831695840195909552166060820152608081019290925260a082015260c09150f35b9034610144578260031936011261014457610791610c5d565b825481516370a0823160e01b81523084820152602092916001600160a01b03919084908290602490829086165afa9081156109a957869161097c575b50816002541680875261080d6007928387526101dd6107fa878b205487600354168c52888c205490610c3d565b868a54168b52858952878b205490610c3d565b90816108a6575b50503386528084528286205494851561089857612710861061088a5750847f7fcf532c15f0a6db0bd6d0e038bea71d30d808c7d98cb3bf7268a95bf5081b6594939261086e92338952855287848120553390885416610c8d565b519283523392a26001600080516020610d718339815191525580f35b8351630980da4560e11b8152fd5b8351631e9acf1760e31b8152fd5b7ff7576d8c2653e9d07af5ef229acf59b339e327d4e0eaddb4a96615534cf148f891610972612710806108db60065485610c4a565b04906108e960055485610c4a565b046108f8816102448487610be2565b948c52868a52888c2061090c868254610c3d565b905587600354168c52868a52888c20610926828254610c3d565b9055878b54168c52868a52888c2061093f838254610c3d565b905561094d84600854610c3d565b6008558851948594859094939260609260808301968352602083015260408201520152565b0390a18680610814565b90508381813d83116109a2575b6109938183610c05565b810103126105225751866107cd565b503d610989565b83513d88823e3d90fd5b503461011a578160031936011261011a576020906001549051908152f35b503461011a578160031936011261011a57905490516001600160a01b039091168152602090f35b9034610144578260031936011261014457610a11610c5d565b338352600760205280832054918215610aa0576127108310610a9257503380845260076020528184208490558354610a539184916001600160a01b0316610c8d565b519081527f7fcf532c15f0a6db0bd6d0e038bea71d30d808c7d98cb3bf7268a95bf5081b6560203392a26001600080516020610d718339815191525580f35b9051630980da4560e11b8152fd5b9051631e9acf1760e31b8152fd5b503461011a57602036600319011261011a5760209181906001600160a01b03610ad5610baa565b1681526007845220549051908152f35b503461011a578160031936011261011a5760025490516001600160a01b039091168152602090f35b903461014457602036600319011261014457813591610b2a610c5d565b82158015610b7a575b610a92573384526007602052828285205410610aa057503383526007602052808320610b60838254610be2565b90558254610a5390839033906001600160a01b0316610c8d565b506127108310610b33565b83903461011a578160031936011261011a576003546001600160a01b03168152602090f35b600435906001600160a01b0382168203610bc057565b600080fd5b34610bc0576000366003190112610bc05760206040516127108152f35b91908203918211610bef57565b634e487b7160e01b600052601160045260246000fd5b90601f8019910116810190811067ffffffffffffffff821117610c2757604052565b634e487b7160e01b600052604160045260246000fd5b91908201809211610bef57565b81810292918115918404141715610bef57565b600080516020610d718339815191526002815414610c7b5760029055565b604051633ee5aeb560e01b8152600490fd5b60405163a9059cbb60e01b602082019081526001600160a01b0393841660248301526044808301959095529381529092608082019067ffffffffffffffff821183831017610c2757602092600092604052519082865af115610d23576000513d610d1a57508082163b155b610d00575050565b604051635274afe760e01b81529116600482015260249150fd5b60011415610cf8565b6040513d6000823e3d90fd5b60ff7ff0c57e16840df040f15088dc2f81fe391c3923bec73e23a9662efc9c229c6a005460401c1615610d5e57565b604051631afcd79f60e31b8152600490fdfe9b779b17422d0df92223018b32b4d1fa46e071723d6817e2486d003becc55f00a2646970667358221220195d913d330af8f3666323e964b2b3f6f9bf2d8a3ea2c933965cca32d7b9ec0964736f6c63430008180033",
  "linkReferences": {},
  "deployedLinkReferences": {}
}