{
  "_format": "hh-sol-artifact-1",
  "contractName": "LicenseNFT",
  "sourceName": "contracts/LicenseNFT.sol",
  "abi": [
    {
      "inputs": [
        {
          "internalType": "address",
          "name": "marketplace_",
          "type": "address"
        }
      ],
      "stateMutability": "nonpayable",
      "type": "constructor"
    },
    {
      "inputs": [
        {
          "internalType": "address",
          "name": "sender",
          "type": "address"
        },
        {
          "internalType": "uint256",
          "name": "tokenId",
          "type": "uint256"
        },
        {
          "internalType": "address",
          "name": "owner",
          "type": "address"
        }
      ],
      "name": "ERC721IncorrectOwner",
      "type": "error"
    },
    {
      "inputs": [
        {
          "internalType": "address",
          "name": "operator",
          "type": "address"
        },
        {
          "internalType": "uint256",
          "name": "tokenId",
          "type": "uint256"
        }
      ],
      "name": "ERC721InsufficientApproval",
      "type": "error"
    },
    {
      "inputs": [
        {
          "internalType": "address",
          "name": "approver",
          "type": "address"
        }
      ],
      "name": "ERC721InvalidApprover",
      "type": "error"
    },
    {
      "inputs": [
        {
          "internalType": "address",
          "name": "operator",
          "type": "address"
        }
      ],
      "name": "ERC721InvalidOperator",
      "type": "error"
    },
    {
      "inputs": [
        {
          "internalType": "address",
          "name": "owner",
          "type": "address"
        }
      ],
      "name": "ERC721InvalidOwner",
      "type": "error"
    },
    {
      "inputs": [
        {
          "internalType": "address",
          "name": "receiver",
          "type": "address"
        }
      ],
      "name": "ERC721InvalidReceiver",
      "type": "error"
    },
    {
      "inputs": [
        {
          "internalType": "address",
          "name": "sender",
          "type": "address"
        }
      ],
      "name": "ERC721InvalidSender",
      "type": "error"
    },
    {
      "inputs": [
        {
          "internalType": "uint256",
          "name": "tokenId",
          "type": "uint256"
        }
      ],
      "name": "ERC721NonexistentToken",
      "type": "error"
    },
    {
      "inputs": [
        {
          "internalType": "address",
          "name": "owner",
          "type": "address"
        }
      ],
      "name": "OwnableInvalidOwner",
      "type": "error"
    },
    {
      "inputs": [
        {
          "internalType": "address",
          "name": "account",
          "type": "address"
        }
      ],
      "name": "OwnableUnauthorizedAccount",
      "type": "error"
    },
    {
      "anonymous": false,
      "inputs": [
        {
          "indexed": true,
          "internalType": "address",
          "name": "owner",
          "type": "address"
        },
        {
          "indexed": true,
          "internalType": "address",
          "name": "approved",
          "type": "address"
        },
        {
          "indexed": true,
          "internalType": "uint256",
          "name": "tokenId",
          "type": "uint256"
        }
      ],
      "name": "Approval",
      "type": "event"
    },
    {
      "anonymous": false,
      "inputs": [
        {
          "indexed": true,
          "internalType": "address",
          "name": "owner",
          "type": "address"
        },
        {
          "indexed": true,
          "internalType": "address",
          "name": "operator",
          "type": "address"
        },
        {
          "indexed": false,
          "internalType": "bool",
          "name": "approved",
          "type": "bool"
        }
      ],
      "name": "ApprovalForAll",
      "type": "event"
    },
    {
      "anonymous": false,
      "inputs": [
        {
          "indexed": true,
          "internalType": "address",
          "name": "previousOwner",
          "type": "address"
        },
        {
          "indexed": true,
          "internalType": "address",
          "name": "newOwner",
          "type": "address"
        }
      ],
      "name": "OwnershipTransferred",
      "type": "event"
    },
    {
      "anonymous": false,
      "inputs": [
        {
          "indexed": true,
          "internalType": "address",
          "name": "from",
          "type": "address"
        },
        {
          "indexed": true,
          "internalType": "address",
          "name": "to",
          "type": "address"
        },
        {
          "indexed": true,
          "internalType": "uint256",
          "name": "tokenId",
          "type": "uint256"
        }
      ],
      "name": "Transfer",
      "type": "event"
    },
    {
      "inputs": [
        {
          "internalType": "address",
          "name": "to",
          "type": "address"
        },
        {
          "internalType": "uint256",
          "name": "tokenId",
          "type": "uint256"
        }
      ],
      "name": "approve",
      "outputs": [],
      "stateMutability": "nonpayable",
      "type": "function"
    },
    {
      "inputs": [
        {
          "internalType": "address",
          "name": "owner",
          "type": "address"
        }
      ],
      "name": "balanceOf",
      "outputs": [
        {
          "internalType": "uint256",
          "name": "",
          "type": "uint256"
        }
      ],
      "stateMutability": "view",
      "type": "function"
    },
    {
      "inputs": [
        {
          "internalType": "uint256",
          "name": "tokenId",
          "type": "uint256"
        }
      ],
      "name": "getApproved",
      "outputs": [
        {
          "internalType": "address",
          "name": "",
          "type": "address"
        }
      ],
      "stateMutability": "view",
      "type": "function"
    },
    {
      "inputs": [
        {
          "internalType": "uint256",
          "name": "tokenId",
          "type": "uint256"
        }
      ],
      "name": "getLicense",
      "outputs": [
        {
          "components": [
            {
              "internalType": "uint256",
              "name": "modelId",
              "type": "uint256"
            },
            {
              "internalType": "uint8",
              "name": "licenseKind",
              "type": "uint8"
            },
            {
              "internalType": "uint8",
              "name": "rights",
              "type": "uint8"
            },
            {
              "internalType": "uint64",
              "name": "expiresAt",
              "type": "uint64"
            },
            {
              "internalType": "bool",
              "name": "transferable",
              "type": "bool"
            },
            {
              "internalType": "bytes32",
              "name": "termsHash",
              "type": "bytes32"
            },
            {
              "internalType": "uint16",
              "name": "version",
              "type": "uint16"
            }
          ],
          "internalType": "struct LicenseNFT.LicenseData",
          "name": "",
          "type": "tuple"
        }
      ],
      "stateMutability": "view",
      "type": "function"
    },
    {
      "inputs": [
        {
          "internalType": "address",
          "name": "owner",
          "type": "address"
        },
        {
          "internalType": "address",
          "name": "operator",
          "type": "address"
        }
      ],
      "name": "isApprovedForAll",
      "outputs": [
        {
          "internalType": "bool",
          "name": "",
          "type": "bool"
        }
      ],
      "stateMutability": "view",
      "type": "function"
    },
    {
      "inputs": [],
      "name": "marketplace",
      "outputs": [
        {
          "internalType": "address",
          "name": "",
          "type": "address"
        }
      ],
      "stateMutability": "view",
      "type": "function"
    },
    {
      "inputs": [
        {
          "internalType": "address",
          "name": "to",
          "type": "address"
        },
        {
          "components": [
            {
              "internalType": "uint256",
              "name": "modelId",
              "type": "uint256"
            },
            {
              "internalType": "uint8",
              "name": "licenseKind",
              "type": "uint8"
            },
            {
              "internalType": "uint8",
              "name": "rights",
              "type": "uint8"
            },
            {
              "internalType": "uint64",
              "name": "expiresAt",
              "type": "uint64"
            },
            {
              "internalType": "bool",
              "name": "transferable",
              "type": "bool"
            },
            {
              "internalType": "bytes32",
              "name": "termsHash",
              "type": "bytes32"
            },
            {
              "internalType": "uint16",
              "name": "version",
              "type": "uint16"
            }
          ],
          "internalType": "struct LicenseNFT.LicenseData",
          "name": "d",
          "type": "tuple"
        }
      ],
      "name": "mint",
      "outputs": [
        {
          "internalType": "uint256",
          "name": "tokenId",
          "type": "uint256"
        }
      ],
      "stateMutability": "nonpayable",
      "type": "function"
    },
    {
      "inputs": [],
      "name": "name",
      "outputs": [
        {
          "internalType": "string",
          "name": "",
          "type": "string"
        }
      ],
      "stateMutability": "view",
      "type": "function"
    },
    {
      "inputs": [],
      "name": "owner",
      "outputs": [
        {
          "internalType": "address",
          "name": "",
          "type": "address"
        }
      ],
      "stateMutability": "view",
      "type": "function"
    },
    {
      "inputs": [
        {
          "internalType": "uint256",
          "name": "tokenId",
          "type": "uint256"
        }
      ],
      "name": "ownerOf",
      "outputs": [
        {
          "internalType": "address",
          "name": "",
          "type": "address"
        }
      ],
      "stateMutability": "view",
      "type": "function"
    },
    {
      "inputs": [],
      "name": "renounceOwnership",
      "outputs": [],
      "stateMutability": "nonpayable",
      "type": "function"
    },
    {
      "inputs": [
        {
          "internalType": "address",
          "name": "from",
          "type": "address"
        },
        {
          "internalType": "address",
          "name": "to",
          "type": "address"
        },
        {
          "internalType": "uint256",
          "name": "tokenId",
          "type": "uint256"
        }
      ],
      "name": "safeTransferFrom",
      "outputs": [],
      "stateMutability": "nonpayable",
      "type": "function"
    },
    {
      "inputs": [
        {
          "internalType": "address",
          "name": "from",
          "type": "address"
        },
        {
          "internalType": "address",
          "name": "to",
          "type": "address"
        },
        {
          "internalType": "uint256",
          "name": "tokenId",
          "type": "uint256"
        },
        {
          "internalType": "bytes",
          "name": "data",
          "type": "bytes"
        }
      ],
      "name": "safeTransferFrom",
      "outputs": [],
      "stateMutability": "nonpayable",
      "type": "function"
    },
    {
      "inputs": [
        {
          "internalType": "address",
          "name": "operator",
          "type": "address"
        },
        {
          "internalType": "bool",
          "name": "approved",
          "type": "bool"
        }
      ],
      "name": "setApprovalForAll",
      "outputs": [],
      "stateMutability": "nonpayable",
      "type": "function"
    },
    {
      "inputs": [
        {
          "internalType": "address",
          "name": "m",
          "type": "address"
        }
      ],
      "name": "setMarketplace",
      "outputs": [],
      "stateMutability": "nonpayable",
      "type": "function"
    },
    {
      "inputs": [
        {
          "internalType": "bytes4",
          "name": "interfaceId",
          "type": "bytes4"
        }
      ],
      "name": "supportsInterface",
      "outputs": [
        {
          "internalType": "bool",
          "name": "",
          "type": "bool"
        }
      ],
      "stateMutability": "view",
      "type": "function"
    },
    {
      "inputs": [],
      "name": "symbol",
      "outputs": [
        {
          "internalType": "string",
          "name": "",
          "type": "string"
        }
      ],
      "stateMutability": "view",
      "type": "function"
    },
    {
      "inputs": [
        {
          "internalType": "uint256",
          "name": "tokenId",
          "type": "uint256"
        }
      ],
      "name": "tokenURI",
      "outputs": [
        {
          "internalType": "string",
          "name": "",
          "type": "string"
        }
      ],
      "stateMutability": "view",
      "type": "function"
    },
    {
      "inputs": [],
      "name": "totalSupply",
      "outputs": [
        {
          "internalType": "uint256",
          "name": "",
          "type": "uint256"
        }
      ],
      "stateMutability": "view",
      "type": "function"
    },
    {
      "inputs": [
        {
          "internalType": "address",
          "name": "from",
          "type": "address"
        },
        {
          "internalType": "address",
          "name": "to",
          "type": "address"
        },
        {
          "internalType": "uint256",
          "name": "tokenId",
          "type": "uint256"
        }
      ],
      "name": "transferFrom",
      "outputs": [],
      "stateMutability": "nonpayable",
      "type": "function"
    },
    {
      "inputs": [
        {
          "internalType": "address",
          "name": "newOwner",
          "type": "address"
        }
      ],
      "name": "transferOwnership",
      "outputs": [],
      "stateMutability": "nonpayable",
      "type": "function"
    },
    {
      "inputs": [
        {
          "internalType": "uint256",
          "name": "tokenId",
          "type": "uint256"
        },
        {
          "internalType": "uint64",
          "name": "newExpiresAt",
          "type": "uint64"
        }
      ],
      "name": "updateExpires",
      "outputs": [],
      "stateMutability": "nonpayable",
      "type": "function"
    }
  ],
  "bytecode": "0x608034620003d557601f906001600160401b0390601f199062001824388190038581018416830185811184821017620003bf57839282916040528339602092839181010312620003d557516001600160a01b03948582169491859003620003d5576200006a620003da565b92601584527f4d61726b6574706c6163654149204c6963656e73650000000000000000000000818501526200009e620003da565b9060078252664d5041494c494360c81b81830152845195848711620003bf576000968754966001978881811c91168015620003b4575b85821014620003a0579081878493116200034d575b508490878311600114620002ec578a92620002e0575b5050600019600383901b1c191690871b1787555b8251948511620002cc5785548681811c91168015620002c1575b83821014620002ad5790818587969594931162000254575b5081938511600114620001ef5750508592620001e3575b5050600019600383901b1c191690821b1790555b3315620001cb5760065460018060a01b03199133838316176006557f8be0079c531659141344cd1fd0a4f28419497f9722a3daafe3b4186f6b6457e0604051953393169180a360075416176007556114299081620003fb8239f35b60249060405190631e4fbdf760e01b82526004820152fd5b0151905038806200015c565b869593929193168588528388209388905b8282106200023a575050841162000220575b505050811b01905562000170565b015160001960f88460031b161c1916905538808062000212565b848401518655889790950194938401939081019062000200565b9091929394508688528288208580880160051c820192858910620002a3575b9188978a9297969594930160051c01915b8281106200029457505062000145565b8a815588975089910162000284565b9250819262000273565b634e487b7160e01b88526022600452602488fd5b90607f16906200012d565b634e487b7160e01b87526041600452602487fd5b015190503880620000ff565b90848a9416918b8052868c20928c5b888282106200033657505084116200031c575b505050811b01875562000113565b015160001960f88460031b161c191690553880806200030e565b8385015186558d97909501949384019301620002fb565b909150898052848a208780850160051c82019287861062000396575b918b91869594930160051c01915b82811062000387575050620000e9565b8c81558594508b910162000377565b9250819262000369565b634e487b7160e01b8a52602260045260248afd5b90607f1690620000d4565b634e487b7160e01b600052604160045260246000fd5b600080fd5b60408051919082016001600160401b03811183821017620003bf5760405256fe608080604052600436101561001357600080fd5b60003560e01c90816301ffc9a714610e595750806306fdde0314610d98578063081812fc14610d5a578063095ea7b314610c7357806318160ddd14610c5557806323b872dd14610c3e57806342842e0e14610c105780636352211e14610be057806370a0823114610b87578063715018a614610b2a57806373ad6c2d14610ae7578063849b1b7e146106995780638da5cb5b1461067057806395d89b411461055f578063a22cb465146104ba578063abc8c7af14610491578063b2dd121214610375578063b88d4fde146102e0578063c87b56dd14610289578063e985e9c514610233578063f2fde38b146101aa5763fe5eb7541461011157600080fd5b346101a55760403660031901126101a55760043560243567ffffffffffffffff811681036101a5576101a39161016d60018060a01b03610156816007541633146111de565b82600052600260205260406000205416151561121d565b600052600960205260016040600020019069ffffffffffffffff000082549160101b169069ffffffffffffffff00001916179055565b005b600080fd5b346101a55760203660031901126101a5576101c3610f04565b6101cb611291565b6001600160a01b0390811690811561021a57600654826001600160601b0360a01b821617600655167f8be0079c531659141344cd1fd0a4f28419497f9722a3daafe3b4186f6b6457e0600080a3005b604051631e4fbdf760e01b815260006004820152602490fd5b346101a55760403660031901126101a55761024c610f04565b610254610f1a565b9060018060a01b03809116600052600560205260406000209116600052602052602060ff604060002054166040519015158152f35b346101a55760203660031901126101a5576102a5600435611256565b5060006040516102b481610f97565b526102dc6040516102c481610f97565b60008152604051918291602083526020830190610ec4565b0390f35b346101a55760803660031901126101a5576102f9610f04565b610301610f1a565b906044356064359267ffffffffffffffff84116101a557366023850112156101a55783600401359261033284610fd5565b936103406040519586610fb3565b80855236602482880101116101a55760208160009260246101a39901838901378601015261036f838383610ff1565b336112bd565b346101a5576020806003193601126101a55760e090600435600060c060405161039d81610f65565b82815282858201528260408201528260608201528260808201528260a0820152015280600052600282526103df60018060a01b0360406000205416151561121d565b6000526009815260036040600020604051906103fa82610f65565b80549384835260018201549080840160ff8316815260ff60408601818560081c16815267ffffffffffffffff93826060890194868860101c1686528160808b019860501c161515885260c060028a01549960a08c019a8b5261ffff9c8d910154169a01998a526040519b8c525116908a0152511660408801525116606086015251151560808501525160a0840152511660c0820152f35b346101a55760003660031901126101a5576007546040516001600160a01b039091168152602090f35b346101a55760403660031901126101a5576104d3610f04565b602435908115158092036101a5576001600160a01b031690811561054657336000526005602052604060002082600052602052604060002060ff1981541660ff83161790556040519081527f17307eab39ab6107e8899845ad3d59bd9653f200f220920489ca2b5937696c3160203392a3005b604051630b61174360e31b815260048101839052602490fd5b346101a55760003660031901126101a5576040516000600190600154918260011c9160018416918215610666575b60209485851084146106505785879486865291826000146106305750506001146105d3575b506105bf92500383610fb3565b6102dc604051928284938452830190610ec4565b84915060016000527fb10e2d527612073b26eecdfd717e6a320cf44b4afac2b0732d9fcbe2b7fa0cf6906000915b8583106106185750506105bf9350820101856105b2565b80548389018501528794508693909201918101610601565b60ff1916858201526105bf95151560051b85010192508791506105b29050565b634e487b7160e01b600052602260045260246000fd5b92607f169261058d565b346101a55760003660031901126101a5576006546040516001600160a01b039091168152602090f35b346101a5576101003660031901126101a5576106b3610f04565b60e03660231901126101a557604051906106cc82610f65565b602435825260443560ff811681036101a557602083015260643560ff811681036101a557604083015260843567ffffffffffffffff811681036101a557606083015260a43580151581036101a557608083015260c43560a083015260e43561ffff811681036101a55760c083015261074f60018060a01b036007541633146111de565b600854916000198314610ad1576001830160085560018301600052600960205260406000208151815561ffff60c06003600184019360ff6020870151169480549561ff00604089015160081b16908619809816171781556107df67ffffffffffffffff606089015116829069ffffffffffffffff000082549160101b169069ffffffffffffffff00001916179055565b6080870151151581549060ff60501b9060501b169060ff60501b191617905560a0860151600282015501930151169082541617905560405161082081610f97565b600081526001600160a01b038216918215610ab857600184016000908152600260205260409020546001600160a01b03168015159081610a77575b8460005260036020526040600020600181540190556001860160005260026020526040600020856001600160601b0360a01b825416179055604051908560018801917fddf252ad1be2c89b69c2b068fc378daa952ba7f163c4a11628f55a4df523b3ef600080a48180610a6f575b610a22575b50610a09573b6108e7575b602083600160405191018152f35b60405160208180610924630a85bd0160e11b9586835233600484015260006024840152600189016044840152608060648401526084830190610ec4565b03816000875af1600091816109c4575b5061099457823d1561098c573d9061094b82610fd5565b916109596040519384610fb3565b82523d6000602084013e5b8151918261098557604051633250574960e11b815260048101839052602490fd5b6020915001fd5b606090610964565b6001600160e01b031916036109ac57506020826108d9565b60249060405190633250574960e11b82526004820152fd5b9091506020813d602011610a01575b816109e060209383610fb3565b810103126101a557516001600160e01b0319811681036101a5579085610934565b3d91506109d3565b6040516339e3563760e11b815260006004820152602490fd5b600960205260ff60016040600020015460501c166108ce5762461bcd60e51b815260206004820152601060248201526f6e6f74207472616e7366657261626c6560801b6044820152606490fd5b5060016108c9565b610a9d60018701600052600460205260406000206001600160601b0360a01b8154169055565b8060005260036020526040600020600019815401905561085b565b604051633250574960e11b815260006004820152602490fd5b634e487b7160e01b600052601160045260246000fd5b346101a55760203660031901126101a557610b00610f04565b610b08611291565b600780546001600160a01b0319166001600160a01b0392909216919091179055005b346101a55760003660031901126101a557610b43611291565b600680546001600160a01b031981169091556000906001600160a01b03167f8be0079c531659141344cd1fd0a4f28419497f9722a3daafe3b4186f6b6457e08280a3005b346101a55760203660031901126101a5576001600160a01b03610ba8610f04565b168015610bc75760005260036020526020604060002054604051908152f35b6040516322718ad960e21b815260006004820152602490fd5b346101a55760203660031901126101a5576020610bfe600435611256565b6040516001600160a01b039091168152f35b346101a5576101a3610c2136610f30565b9060405192610c2f84610f97565b6000845261036f838383610ff1565b346101a5576101a3610c4f36610f30565b91610ff1565b346101a55760003660031901126101a5576020600854604051908152f35b346101a55760403660031901126101a557610c8c610f04565b602435610c9881611256565b33151580610d47575b80610d1a575b610d02576001600160a01b039283169282918491167f8c5be1e5ebec7d5bd14f71427d1e84f3dd0314c0f7b2291e5b200ac8c7c3b925600080a4600090815260046020526040902080546001600160a01b0319169091179055005b60405163a9fbf51f60e01b8152336004820152602490fd5b5060018060a01b038116600052600560205260406000203360005260205260ff6040600020541615610ca7565b506001600160a01b038116331415610ca1565b346101a55760203660031901126101a557600435610d7781611256565b506000526004602052602060018060a01b0360406000205416604051908152f35b346101a55760003660031901126101a557604051600080549060018260011c9160018416918215610e4f575b6020948585108414610650578587948686529182600014610630575050600114610df557506105bf92500383610fb3565b6000808052859250907f290decd9548b62a8d60345a988386fc84ba6bc95484008f6362f93160ef3e5635b858310610e375750506105bf9350820101856105b2565b80548389018501528794508693909201918101610e20565b92607f1692610dc4565b346101a55760203660031901126101a5576004359063ffffffff60e01b82168092036101a5576020916380ac58cd60e01b8114908115610eb3575b8115610ea2575b5015158152f35b6301ffc9a760e01b14905083610e9b565b635b5e139f60e01b81149150610e94565b919082519283825260005b848110610ef0575050826000602080949584010152601f8019910116010190565b602081830181015184830182015201610ecf565b600435906001600160a01b03821682036101a557565b602435906001600160a01b03821682036101a557565b60609060031901126101a5576001600160a01b039060043582811681036101a5579160243590811681036101a5579060443590565b60e0810190811067ffffffffffffffff821117610f8157604052565b634e487b7160e01b600052604160045260246000fd5b6020810190811067ffffffffffffffff821117610f8157604052565b90601f8019910116810190811067ffffffffffffffff821117610f8157604052565b67ffffffffffffffff8111610f8157601f01601f191660200190565b6001600160a01b039182169290918315610ab8576000928284526020946002865260409586848188205416963315158061114e575b508715158061111b575b84825260038452828220805460010190558782526002845282822080546001600160a01b0319168617905582519488908a7fddf252ad1be2c89b69c2b068fc378daa952ba7f163c4a11628f55a4df523b3ef8580a480611113575b6110c4575b5050505016928383036110a35750505050565b6064945051926364283d7b60e01b8452600484015260248301526044820152fd5b60098352206001015460501c60ff16156110df578681611090565b62461bcd60e51b82526004820152601060248201526f6e6f74207472616e7366657261626c6560801b604482015260649150fd5b50600161108b565b600088815260046020526040902080546001600160a01b0319169055888252600384528282208054600019019055611030565b9091508061119d575b1561116457879038611026565b878688611181576024915190637e27328960e01b82526004820152fd5b604491519063177e802f60e01b82523360048301526024820152fd5b5033871480156111c2575b806111575750858152600482523385898320541614611157565b5086815260058252878120338252825260ff88822054166111a8565b156111e557565b60405162461bcd60e51b815260206004820152601060248201526f6f6e6c79206d61726b6574706c61636560801b6044820152606490fd5b1561122457565b60405162461bcd60e51b815260206004820152600a6024820152696e6f742065786973747360b01b6044820152606490fd5b6000818152600260205260409020546001600160a01b0316908115611279575090565b60249060405190637e27328960e01b82526004820152fd5b6006546001600160a01b031633036112a557565b60405163118cdaa760e01b8152336004820152602490fd5b90939192833b6112cf575b5050505050565b604051630a85bd0160e11b8082526001600160a01b03938416600483015295831660248201526044810191909152608060648201529492169260209291859061131c906084830190610ec4565b039483816000978189895af18691816113af575b50611391575050503d600014611388573d61134a81610fd5565b906113586040519283610fb3565b81528093823d92013e5b8251928361138357604051633250574960e11b815260048101849052602490fd5b019050fd5b60609250611362565b919450915063ffffffff60e01b16036109ac575038808080806112c8565b9091508481813d83116113ec575b6113c78183610fb3565b810103126113e857516001600160e01b0319811681036113e8579038611330565b8680fd5b503d6113bd56fea2646970667358221220d0f552b558c023d32fddb9c952af084dec34da8782a7e874bbccc15aa85aafeb64736f6c63430008180033",
  "linkReferences": {},
  "deployedLinkReferences": {}
}