{
  "_format": "hh-sol-artifact-1",
  "contractName": "AgentRegistryV2",
  "sourceName": "contracts/AgentRegistryV2.sol",
  "abi": [
    {
      "inputs": [
        {
          "internalType": "address",
          "name": "_marketplace",
          "type": "address"
        }
      ],
      "stateMutability": "nonpayable",
      "type": "constructor"
    },
    {
      "inputs": [],
      "name": "AgentAlreadyExists",
      "type": "error"
    },
    {
      "inputs": [],
      "name": "AgentNotActive",
      "type": "error"
    },
    {
      "inputs": [],
      "name": "ContractNotAllowed",
      "type": "error"
    },
    {
      "inputs": [
        {
          "internalType": "address",
          "name": "sender",
          "type": "address"
        },
        {
          "internalType": "uint256",
          "name": "tokenId",
          "type": "uint256"
        },
        {
          "internalType": "address",
          "name": "owner",
          "type": "address"
        }
      ],
      "name": "ERC721IncorrectOwner",
      "type": "error"
    },
    {
      "inputs": [
        {
          "internalType": "address",
          "name": "operator",
          "type": "address"
        },
        {
          "internalType": "uint256",
          "name": "tokenId",
          "type": "uint256"
        }
      ],
      "name": "ERC721InsufficientApproval",
      "type": "error"
    },
    {
      "inputs": [
        {
          "internalType": "address",
          "name": "approver",
          "type": "address"
        }
      ],
      "name": "ERC721InvalidApprover",
      "type": "error"
    },
    {
      "inputs": [
        {
          "internalType": "address",
          "name": "operator",
          "type": "address"
        }
      ],
      "name": "ERC721InvalidOperator",
      "type": "error"
    },
    {
      "inputs": [
        {
          "internalType": "address",
          "name": "owner",
          "type": "address"
        }
      ],
      "name": "ERC721InvalidOwner",
      "type": "error"
    },
    {
      "inputs": [
        {
          "internalType": "address",
          "name": "receiver",
          "type": "address"
        }
      ],
      "name": "ERC721InvalidReceiver",
      "type": "error"
    },
    {
      "inputs": [
        {
          "internalType": "address",
          "name": "sender",
          "type": "address"
        }
      ],
      "name": "ERC721InvalidSender",
      "type": "error"
    },
    {
      "inputs": [
        {
          "internalType": "uint256",
          "name": "tokenId",
          "type": "uint256"
        }
      ],
      "name": "ERC721NonexistentToken",
      "type": "error"
    },
    {
      "inputs": [],
      "name": "EndpointTooLong",
      "type": "error"
    },
    {
      "inputs": [],
      "name": "EnforcedPause",
      "type": "error"
    },
    {
      "inputs": [],
      "name": "ExpectedPause",
      "type": "error"
    },
    {
      "inputs": [],
      "name": "InvalidModelId",
      "type": "error"
    },
    {
      "inputs": [],
      "name": "NoPendingChange",
      "type": "error"
    },
    {
      "inputs": [],
      "name": "NotAgentOwner",
      "type": "error"
    },
    {
      "inputs": [],
      "name": "OnlyMarketplace",
      "type": "error"
    },
    {
      "inputs": [
        {
          "internalType": "address",
          "name": "owner",
          "type": "address"
        }
      ],
      "name": "OwnableInvalidOwner",
      "type": "error"
    },
    {
      "inputs": [
        {
          "internalType": "address",
          "name": "account",
          "type": "address"
        }
      ],
      "name": "OwnableUnauthorizedAccount",
      "type": "error"
    },
    {
      "inputs": [],
      "name": "ReentrancyGuardReentrantCall",
      "type": "error"
    },
    {
      "inputs": [],
      "name": "TimelockNotExpired",
      "type": "error"
    },
    {
      "inputs": [],
      "name": "URITooLong",
      "type": "error"
    },
    {
      "inputs": [],
      "name": "ZeroAddress",
      "type": "error"
    },
    {
      "anonymous": false,
      "inputs": [
        {
          "indexed": true,
          "internalType": "uint256",
          "name": "agentId",
          "type": "uint256"
        }
      ],
      "name": "AgentDeactivated",
      "type": "event"
    },
    {
      "anonymous": false,
      "inputs": [
        {
          "indexed": true,
          "internalType": "uint256",
          "name": "agentId",
          "type": "uint256"
        },
        {
          "indexed": false,
          "internalType": "string",
          "name": "endpoint",
          "type": "string"
        }
      ],
      "name": "AgentEndpointUpdated",
      "type": "event"
    },
    {
      "anonymous": false,
      "inputs": [
        {
          "indexed": true,
          "internalType": "uint256",
          "name": "modelId",
          "type": "uint256"
        },
        {
          "indexed": true,
          "internalType": "uint256",
          "name": "agentId",
          "type": "uint256"
        }
      ],
      "name": "AgentLinkedToModel",
      "type": "event"
    },
    {
      "anonymous": false,
      "inputs": [
        {
          "indexed": true,
          "internalType": "uint256",
          "name": "agentId",
          "type": "uint256"
        },
        {
          "indexed": false,
          "internalType": "string",
          "name": "newUri",
          "type": "string"
        }
      ],
      "name": "AgentMetadataUpdated",
      "type": "event"
    },
    {
      "anonymous": false,
      "inputs": [
        {
          "indexed": true,
          "internalType": "uint256",
          "name": "agentId",
          "type": "uint256"
        }
      ],
      "name": "AgentReactivated",
      "type": "event"
    },
    {
      "anonymous": false,
      "inputs": [
        {
          "indexed": true,
          "internalType": "uint256",
          "name": "agentId",
          "type": "uint256"
        },
        {
          "indexed": true,
          "internalType": "address",
          "name": "owner",
          "type": "address"
        },
        {
          "indexed": true,
          "internalType": "uint256",
          "name": "modelId",
          "type": "uint256"
        },
        {
          "indexed": false,
          "internalType": "string",
          "name": "metadataUri",
          "type": "string"
        }
      ],
      "name": "AgentRegistered",
      "type": "event"
    },
    {
      "anonymous": false,
      "inputs": [
        {
          "indexed": true,
          "internalType": "uint256",
          "name": "agentId",
          "type": "uint256"
        },
        {
          "indexed": true,
          "internalType": "address",
          "name": "owner",
          "type": "address"
        },
        {
          "indexed": true,
          "internalType": "uint256",
          "name": "modelId",
          "type": "uint256"
        },
        {
          "indexed": false,
          "internalType": "address",
          "name": "registeredBy",
          "type": "address"
        }
      ],
      "name": "AgentRegisteredFor",
      "type": "event"
    },
    {
      "anonymous": false,
      "inputs": [
        {
          "indexed": true,
          "internalType": "uint256",
          "name": "agentId",
          "type": "uint256"
        },
        {
          "indexed": false,
          "internalType": "address",
          "name": "oldWallet",
          "type": "address"
        },
        {
          "indexed": false,
          "internalType": "address",
          "name": "newWallet",
          "type": "address"
        },
        {
          "indexed": false,
          "internalType": "uint256",
          "name": "effectiveAt",
          "type": "uint256"
        }
      ],
      "name": "AgentWalletChangeRequested",
      "type": "event"
    },
    {
      "anonymous": false,
      "inputs": [
        {
          "indexed": true,
          "internalType": "uint256",
          "name": "agentId",
          "type": "uint256"
        },
        {
          "indexed": false,
          "internalType": "address",
          "name": "oldWallet",
          "type": "address"
        },
        {
          "indexed": false,
          "internalType": "address",
          "name": "newWallet",
          "type": "address"
        }
      ],
      "name": "AgentWalletChanged",
      "type": "event"
    },
    {
      "anonymous": false,
      "inputs": [
        {
          "indexed": true,
          "internalType": "address",
          "name": "owner",
          "type": "address"
        },
        {
          "indexed": true,
          "internalType": "address",
          "name": "approved",
          "type": "address"
        },
        {
          "indexed": true,
          "internalType": "uint256",
          "name": "tokenId",
          "type": "uint256"
        }
      ],
      "name": "Approval",
      "type": "event"
    },
    {
      "anonymous": false,
      "inputs": [
        {
          "indexed": true,
          "internalType": "address",
          "name": "owner",
          "type": "address"
        },
        {
          "indexed": true,
          "internalType": "address",
          "name": "operator",
          "type": "address"
        },
        {
          "indexed": false,
          "internalType": "bool",
          "name": "approved",
          "type": "bool"
        }
      ],
      "name": "ApprovalForAll",
      "type": "event"
    },
    {
      "anonymous": false,
      "inputs": [
        {
          "indexed": false,
          "internalType": "uint256",
          "name": "_fromTokenId",
          "type": "uint256"
        },
        {
          "indexed": false,
          "internalType": "uint256",
          "name": "_toTokenId",
          "type": "uint256"
        }
      ],
      "name": "BatchMetadataUpdate",
      "type": "event"
    },
    {
      "anonymous": false,
      "inputs": [
        {
          "indexed": true,
          "internalType": "address",
          "name": "newMarketplace",
          "type": "address"
        }
      ],
      "name": "MarketplaceUpdated",
      "type": "event"
    },
    {
      "anonymous": false,
      "inputs": [
        {
          "indexed": false,
          "internalType": "uint256",
          "name": "_tokenId",
          "type": "uint256"
        }
      ],
      "name": "MetadataUpdate",
      "type": "event"
    },
    {
      "anonymous": false,
      "inputs": [
        {
          "indexed": true,
          "internalType": "address",
          "name": "previousOwner",
          "type": "address"
        },
        {
          "indexed": true,
          "internalType": "address",
          "name": "newOwner",
          "type": "address"
        }
      ],
      "name": "OwnershipTransferStarted",
      "type": "event"
    },
    {
      "anonymous": false,
      "inputs": [
        {
          "indexed": true,
          "internalType": "address",
          "name": "previousOwner",
          "type": "address"
        },
        {
          "indexed": true,
          "internalType": "address",
          "name": "newOwner",
          "type": "address"
        }
      ],
      "name": "OwnershipTransferred",
      "type": "event"
    },
    {
      "anonymous": false,
      "inputs": [
        {
          "indexed": false,
          "internalType": "address",
          "name": "account",
          "type": "address"
        }
      ],
      "name": "Paused",
      "type": "event"
    },
    {
      "anonymous": false,
      "inputs": [
        {
          "indexed": true,
          "internalType": "address",
          "name": "from",
          "type": "address"
        },
        {
          "indexed": true,
          "internalType": "address",
          "name": "to",
          "type": "address"
        },
        {
          "indexed": true,
          "internalType": "uint256",
          "name": "tokenId",
          "type": "uint256"
        }
      ],
      "name": "Transfer",
      "type": "event"
    },
    {
      "anonymous": false,
      "inputs": [
        {
          "indexed": false,
          "internalType": "address",
          "name": "account",
          "type": "address"
        }
      ],
      "name": "Unpaused",
      "type": "event"
    },
    {
      "inputs": [],
      "name": "MAX_ENDPOINT_LENGTH",
      "outputs": [
        {
          "internalType": "uint256",
          "name": "",
          "type": "uint256"
        }
      ],
      "stateMutability": "view",
      "type": "function"
    },
    {
      "inputs": [],
      "name": "MAX_URI_LENGTH",
      "outputs": [
        {
          "internalType": "uint256",
          "name": "",
          "type": "uint256"
        }
      ],
      "stateMutability": "view",
      "type": "function"
    },
    {
      "inputs": [],
      "name": "TIMELOCK_DELAY",
      "outputs": [
        {
          "internalType": "uint256",
          "name": "",
          "type": "uint256"
        }
      ],
      "stateMutability": "view",
      "type": "function"
    },
    {
      "inputs": [],
      "name": "acceptOwnership",
      "outputs": [],
      "stateMutability": "nonpayable",
      "type": "function"
    },
    {
      "inputs": [
        {
          "internalType": "uint256",
          "name": "",
          "type": "uint256"
        }
      ],
      "name": "agents",
      "outputs": [
        {
          "internalType": "uint256",
          "name": "modelId",
          "type": "uint256"
        },
        {
          "internalType": "address",
          "name": "wallet",
          "type": "address"
        },
        {
          "internalType": "string",
          "name": "endpoint",
          "type": "string"
        },
        {
          "internalType": "uint256",
          "name": "registeredAt",
          "type": "uint256"
        },
        {
          "internalType": "bool",
          "name": "active",
          "type": "bool"
        }
      ],
      "stateMutability": "view",
      "type": "function"
    },
    {
      "inputs": [
        {
          "internalType": "address",
          "name": "to",
          "type": "address"
        },
        {
          "internalType": "uint256",
          "name": "tokenId",
          "type": "uint256"
        }
      ],
      "name": "approve",
      "outputs": [],
      "stateMutability": "nonpayable",
      "type": "function"
    },
    {
      "inputs": [
        {
          "internalType": "address",
          "name": "owner",
          "type": "address"
        }
      ],
      "name": "balanceOf",
      "outputs": [
        {
          "internalType": "uint256",
          "name": "",
          "type": "uint256"
        }
      ],
      "stateMutability": "view",
      "type": "function"
    },
    {
      "inputs": [
        {
          "internalType": "uint256",
          "name": "agentId",
          "type": "uint256"
        }
      ],
      "name": "cancelWalletChange",
      "outputs": [],
      "stateMutability": "nonpayable",
      "type": "function"
    },
    {
      "inputs": [
        {
          "internalType": "uint256",
          "name": "agentId",
          "type": "uint256"
        }
      ],
      "name": "deactivate",
      "outputs": [],
      "stateMutability": "nonpayable",
      "type": "function"
    },
    {
      "inputs": [
        {
          "internalType": "uint256",
          "name": "agentId",
          "type": "uint256"
        }
      ],
      "name": "executeWalletChange",
      "outputs": [],
      "stateMutability": "nonpayable",
      "type": "function"
    },
    {
      "inputs": [
        {
          "internalType": "uint256",
          "name": "agentId",
          "type": "uint256"
        }
      ],
      "name": "getAgent",
      "outputs": [
        {
          "components": [
            {
              "internalType": "uint256",
              "name": "modelId",
              "type": "uint256"
            },
            {
              "internalType": "address",
              "name": "wallet",
              "type": "address"
            },
            {
              "internalType": "string",
              "name": "endpoint",
              "type": "string"
            },
            {
              "internalType": "uint256",
              "name": "registeredAt",
              "type": "uint256"
            },
            {
              "internalType": "bool",
              "name": "active",
              "type": "bool"
            }
          ],
          "internalType": "struct AgentRegistryV2.Agent",
          "name": "",
          "type": "tuple"
        }
      ],
      "stateMutability": "view",
      "type": "function"
    },
    {
      "inputs": [
        {
          "internalType": "uint256",
          "name": "modelId",
          "type": "uint256"
        }
      ],
      "name": "getAgentByModel",
      "outputs": [
        {
          "internalType": "uint256",
          "name": "",
          "type": "uint256"
        }
      ],
      "stateMutability": "view",
      "type": "function"
    },
    {
      "inputs": [
        {
          "internalType": "uint256",
          "name": "tokenId",
          "type": "uint256"
        }
      ],
      "name": "getApproved",
      "outputs": [
        {
          "internalType": "address",
          "name": "",
          "type": "address"
        }
      ],
      "stateMutability": "view",
      "type": "function"
    },
    {
      "inputs": [
        {
          "internalType": "uint256",
          "name": "agentId",
          "type": "uint256"
        }
      ],
      "name": "getEndpoint",
      "outputs": [
        {
          "internalType": "string",
          "name": "",
          "type": "string"
        }
      ],
      "stateMutability": "view",
      "type": "function"
    },
    {
      "inputs": [
        {
          "internalType": "uint256",
          "name": "agentId",
          "type": "uint256"
        }
      ],
      "name": "getPaymentWallet",
      "outputs": [
        {
          "internalType": "address",
          "name": "",
          "type": "address"
        }
      ],
      "stateMutability": "view",
      "type": "function"
    },
    {
      "inputs": [
        {
          "internalType": "address",
          "name": "owner",
          "type": "address"
        },
        {
          "internalType": "address",
          "name": "operator",
          "type": "address"
        }
      ],
      "name": "isApprovedForAll",
      "outputs": [
        {
          "internalType": "bool",
          "name": "",
          "type": "bool"
        }
      ],
      "stateMutability": "view",
      "type": "function"
    },
    {
      "inputs": [
        {
          "internalType": "uint256",
          "name": "agentId",
          "type": "uint256"
        }
      ],
      "name": "isValidAgent",
      "outputs": [
        {
          "internalType": "bool",
          "name": "",
          "type": "bool"
        }
      ],
      "stateMutability": "view",
      "type": "function"
    },
    {
      "inputs": [
        {
          "internalType": "uint256",
          "name": "modelId",
          "type": "uint256"
        },
        {
          "internalType": "uint256",
          "name": "agentId",
          "type": "uint256"
        }
      ],
      "name": "linkModelToAgent",
      "outputs": [],
      "stateMutability": "nonpayable",
      "type": "function"
    },
    {
      "inputs": [],
      "name": "marketplace",
      "outputs": [
        {
          "internalType": "address",
          "name": "",
          "type": "address"
        }
      ],
      "stateMutability": "view",
      "type": "function"
    },
    {
      "inputs": [
        {
          "internalType": "uint256",
          "name": "",
          "type": "uint256"
        }
      ],
      "name": "modelToAgent",
      "outputs": [
        {
          "internalType": "uint256",
          "name": "",
          "type": "uint256"
        }
      ],
      "stateMutability": "view",
      "type": "function"
    },
    {
      "inputs": [],
      "name": "name",
      "outputs": [
        {
          "internalType": "string",
          "name": "",
          "type": "string"
        }
      ],
      "stateMutability": "view",
      "type": "function"
    },
    {
      "inputs": [],
      "name": "nextAgentId",
      "outputs": [
        {
          "internalType": "uint256",
          "name": "",
          "type": "uint256"
        }
      ],
      "stateMutability": "view",
      "type": "function"
    },
    {
      "inputs": [],
      "name": "owner",
      "outputs": [
        {
          "internalType": "address",
          "name": "",
          "type": "address"
        }
      ],
      "stateMutability": "view",
      "type": "function"
    },
    {
      "inputs": [
        {
          "internalType": "uint256",
          "name": "tokenId",
          "type": "uint256"
        }
      ],
      "name": "ownerOf",
      "outputs": [
        {
          "internalType": "address",
          "name": "",
          "type": "address"
        }
      ],
      "stateMutability": "view",
      "type": "function"
    },
    {
      "inputs": [],
      "name": "pause",
      "outputs": [],
      "stateMutability": "nonpayable",
      "type": "function"
    },
    {
      "inputs": [],
      "name": "paused",
      "outputs": [
        {
          "internalType": "bool",
          "name": "",
          "type": "bool"
        }
      ],
      "stateMutability": "view",
      "type": "function"
    },
    {
      "inputs": [],
      "name": "pendingOwner",
      "outputs": [
        {
          "internalType": "address",
          "name": "",
          "type": "address"
        }
      ],
      "stateMutability": "view",
      "type": "function"
    },
    {
      "inputs": [
        {
          "internalType": "uint256",
          "name": "",
          "type": "uint256"
        }
      ],
      "name": "pendingWalletChanges",
      "outputs": [
        {
          "internalType": "address",
          "name": "newWallet",
          "type": "address"
        },
        {
          "internalType": "uint256",
          "name": "effectiveAt",
          "type": "uint256"
        }
      ],
      "stateMutability": "view",
      "type": "function"
    },
    {
      "inputs": [
        {
          "internalType": "uint256",
          "name": "agentId",
          "type": "uint256"
        }
      ],
      "name": "reactivate",
      "outputs": [],
      "stateMutability": "nonpayable",
      "type": "function"
    },
    {
      "inputs": [
        {
          "internalType": "uint256",
          "name": "modelId",
          "type": "uint256"
        },
        {
          "internalType": "address",
          "name": "wallet",
          "type": "address"
        },
        {
          "internalType": "string",
          "name": "endpoint",
          "type": "string"
        },
        {
          "internalType": "string",
          "name": "metadataUri",
          "type": "string"
        }
      ],
      "name": "registerAgent",
      "outputs": [
        {
          "internalType": "uint256",
          "name": "agentId",
          "type": "uint256"
        }
      ],
      "stateMutability": "nonpayable",
      "type": "function"
    },
    {
      "inputs": [
        {
          "internalType": "address",
          "name": "owner",
          "type": "address"
        },
        {
          "internalType": "uint256",
          "name": "modelId",
          "type": "uint256"
        },
        {
          "internalType": "address",
          "name": "wallet",
          "type": "address"
        },
        {
          "internalType": "string",
          "name": "endpoint",
          "type": "string"
        },
        {
          "internalType": "string",
          "name": "metadataUri",
          "type": "string"
        }
      ],
      "name": "registerAgentFor",
      "outputs": [
        {
          "internalType": "uint256",
          "name": "agentId",
          "type": "uint256"
        }
      ],
      "stateMutability": "nonpayable",
      "type": "function"
    },
    {
      "inputs": [],
      "name": "renounceOwnership",
      "outputs": [],
      "stateMutability": "nonpayable",
      "type": "function"
    },
    {
      "inputs": [
        {
          "internalType": "uint256",
          "name": "agentId",
          "type": "uint256"
        },
        {
          "internalType": "address",
          "name": "newWallet",
          "type": "address"
        }
      ],
      "name": "requestWalletChange",
      "outputs": [],
      "stateMutability": "nonpayable",
      "type": "function"
    },
    {
      "inputs": [
        {
          "internalType": "address",
          "name": "from",
          "type": "address"
        },
        {
          "internalType": "address",
          "name": "to",
          "type": "address"
        },
        {
          "internalType": "uint256",
          "name": "tokenId",
          "type": "uint256"
        }
      ],
      "name": "safeTransferFrom",
      "outputs": [],
      "stateMutability": "nonpayable",
      "type": "function"
    },
    {
      "inputs": [
        {
          "internalType": "address",
          "name": "from",
          "type": "address"
        },
        {
          "internalType": "address",
          "name": "to",
          "type": "address"
        },
        {
          "internalType": "uint256",
          "name": "tokenId",
          "type": "uint256"
        },
        {
          "internalType": "bytes",
          "name": "data",
          "type": "bytes"
        }
      ],
      "name": "safeTransferFrom",
      "outputs": [],
      "stateMutability": "nonpayable",
      "type": "function"
    },
    {
      "inputs": [
        {
          "internalType": "address",
          "name": "operator",
          "type": "address"
        },
        {
          "internalType": "bool",
          "name": "approved",
          "type": "bool"
        }
      ],
      "name": "setApprovalForAll",
      "outputs": [],
      "stateMutability": "nonpayable",
      "type": "function"
    },
    {
      "inputs": [
        {
          "internalType": "address",
          "name": "_marketplace",
          "type": "address"
        }
      ],
      "name": "setMarketplace",
      "outputs": [],
      "stateMutability": "nonpayable",
      "type": "function"
    },
    {
      "inputs": [
        {
          "internalType": "bytes4",
          "name": "interfaceId",
          "type": "bytes4"
        }
      ],
      "name": "supportsInterface",
      "outputs": [
        {
          "internalType": "bool",
          "name": "",
          "type": "bool"
        }
      ],
      "stateMutability": "view",
      "type": "function"
    },
    {
      "inputs": [],
      "name": "symbol",
      "outputs": [
        {
          "internalType": "string",
          "name": "",
          "type": "string"
        }
      ],
      "stateMutability": "view",
      "type": "function"
    },
    {
      "inputs": [
        {
          "internalType": "uint256",
          "name": "tokenId",
          "type": "uint256"
        }
      ],
      "name": "tokenURI",
      "outputs": [
        {
          "internalType": "string",
          "name": "",
          "type": "string"
        }
      ],
      "stateMutability": "view",
      "type": "function"
    },
    {
      "inputs": [
        {
          "internalType": "address",
          "name": "from",
          "type": "address"
        },
        {
          "internalType": "address",
          "name": "to",
          "type": "address"
        },
        {
          "internalType": "uint256",
          "name": "tokenId",
          "type": "uint256"
        }
      ],
      "name": "transferFrom",
      "outputs": [],
      "stateMutability": "nonpayable",
      "type": "function"
    },
    {
      "inputs": [
        {
          "internalType": "address",
          "name": "newOwner",
          "type": "address"
        }
      ],
      "name": "transferOwnership",
      "outputs": [],
      "stateMutability": "nonpayable",
      "type": "function"
    },
    {
      "inputs": [],
      "name": "unpause",
      "outputs": [],
      "stateMutability": "nonpayable",
      "type": "function"
    },
    {
      "inputs": [
        {
          "internalType": "uint256",
          "name": "agentId",
          "type": "uint256"
        },
        {
          "internalType": "string",
          "name": "newEndpoint",
          "type": "string"
        },
        {
          "internalType": "address",
          "name": "newWallet",
          "type": "address"
        }
      ],
      "name": "updateAgentFor",
      "outputs": [],
      "stateMutability": "nonpayable",
      "type": "function"
    },
    {
      "inputs": [
        {
          "internalType": "uint256",
          "name": "agentId",
          "type": "uint256"
        },
        {
          "internalType": "string",
          "name": "newEndpoint",
          "type": "string"
        }
      ],
      "name": "updateEndpoint",
      "outputs": [],
      "stateMutability": "nonpayable",
      "type": "function"
    },
    {
      "inputs": [
        {
          "internalType": "uint256",
          "name": "agentId",
          "type": "uint256"
        },
        {
          "internalType": "string",
          "name": "newUri",
          "type": "string"
        }
      ],
      "name": "updateMetadata",
      "outputs": [],
      "stateMutability": "nonpayable",
      "type": "function"
    },
    {
      "inputs": [
        {
          "internalType": "uint256",
          "name": "agentId",
          "type": "uint256"
        },
        {
          "internalType": "string",
          "name": "newMetadataUri",
          "type": "string"
        }
      ],
      "name": "updateMetadataFor",
      "outputs": [],
      "stateMutability": "nonpayable",
      "type": "function"
    }
  ],
  "bytecode": "0x608034620003f8576001600160401b0390601f1990601f9062002b4d388190038381018516830186811184821017620003e257839282916040528339602092839181010312620003f857516001600160a01b038082169590939091869003620003f8576200006c620003fd565b92600f84526e2bb0b9b4a0a49020b3b2b73a102b1960891b8185015262000092620003fd565b90600b82526a2ba0a9a496a0a3a2a72a1960a91b81830152845196848811620003e2576000978854966001978881811c91168015620003d7575b85821014620003c35790818784931162000370575b5084908783116001146200030f578b9262000303575b5050600019600383901b1c191690871b1788555b8251948511620002ef5785548681811c91168015620002e4575b83821014620002d05790818587969594931162000277575b508193851160011462000212575050869262000206575b5050600019600383901b1c191690821b1781555b3315620001ed5760018060a01b03199283600854166008556007549033858316176007557f8be0079c531659141344cd1fd0a4f28419497f9722a3daafe3b4186f6b6457e0604051943393169180a380600955600b558215620001de5750600e541617600e5560405161272f90816200041e8239f35b63d92e233d60e01b8152600490fd5b604051631e4fbdf760e01b815260048101849052602490fd5b01519050388062000154565b869593929193168589528389209389905b8282106200025d575050841162000243575b505050811b01815562000168565b015160001960f88460031b161c1916905538808062000235565b848401518655889790950194938401939081019062000223565b9091929394508689528289208580880160051c820192858910620002c6575b9188978a9297969594930160051c01915b828110620002b75750506200013d565b8b8155889750899101620002a7565b9250819262000296565b634e487b7160e01b89526022600452602489fd5b90607f169062000125565b634e487b7160e01b88526041600452602488fd5b015190503880620000f7565b90848a9416918c8052868d20928d5b888282106200035957505084116200033f575b505050811b0188556200010b565b015160001960f88460031b161c1916905538808062000331565b8385015186558d979095019493840193016200031e565b9091508a8052848b208780850160051c820192878610620003b9575b918b91869594930160051c01915b828110620003aa575050620000e1565b8d81558594508b91016200039a565b925081926200038c565b634e487b7160e01b8b52602260045260248bfd5b90607f1690620000cc565b634e487b7160e01b600052604160045260246000fd5b600080fd5b60408051919082016001600160401b03811183821017620003e25760405256fe608080604052600436101561001357600080fd5b60003560e01c90816301ffc9a714611bef5750806306fdde0314611b44578063081812fc14611b06578063095ea7b314611a1f57806309df30ec146119a6578063173e79bb146103a357806323b872dd1461198f578063251f3b7e146117205780632de5aaf71461164057806330efc4981461162257806337a1b719146113305780633bda90a31461110d5780633f4ba83a146110a357806342842e0e146110755780634afc374c1461104d578063513856c814610fce57806353c8388e14610f5d57806354fec77214610de85780635ba1c1a914610dca5780635c975abb14610da75780636352211e14610d775780636bb2440114610c6c5780636ca7c09814610b6057806370a0823114610b07578063715018a614610aa057806373ad6c2d14610a2557806379ba5097146109a15780638456cb59146109475780638da5cb5b1461091e578063916b9bef146108a8578063937bbc4a1461086557806395d89b41146107825780639b9b7ab2146106c7578063a22cb46514610619578063aab5a877146105fc578063abc8c7af146105d3578063b2d8593d146104fc578063b88d4fde1461048f578063c85d3eb014610472578063c87b56dd14610419578063c890c380146103cf578063d58e0c9e146103a3578063dbd7e9491461036c578063e30c397814610343578063e985e9c5146102ed578063f2fde38b146102805763f96560b41461022457600080fd5b3461027b57602036600319011261027b5760043561024181612193565b336001600160a01b0390911603610269576000908152600f6020526040812081815560010155005b604051630e41dcbf60e21b8152600490fd5b600080fd5b3461027b57602036600319011261027b57610299611cb4565b6102a1612577565b600880546001600160a01b0319166001600160a01b039283169081179091556007549091167f38d16b8cac22d99fc7c124b9cd0de2d3fa1faef420bfe791d8c362d765e22700600080a3005b3461027b57604036600319011261027b57610306611cb4565b61030e611cca565b9060018060a01b03809116600052600560205260406000209116600052602052602060ff604060002054166040519015158152f35b3461027b57600036600319011261027b576008546040516001600160a01b039091168152602090f35b3461027b57602036600319011261027b57600435600052600c602052602060018060a01b0360016040600020015416604051908152f35b3461027b57602036600319011261027b57600435600052600d6020526020604060002054604051908152f35b3461027b57602036600319011261027b576004356000908152600f6020908152604091829020805460019091015483516001600160a01b03909216825291810191909152f35b0390f35b3461027b57602036600319011261027b5760043561043681612193565b50600052600660205261041561044f6040600020611e04565b600060405161045d81611dc8565b52604051918291602083526020830190611c74565b3461027b57600036600319011261027b5760206040516101008152f35b3461027b57608036600319011261027b576104a8611cb4565b6104b0611cca565b90604435606435926001600160401b03841161027b573660238501121561027b576104e86104fa943690602481600401359101611ef7565b926104f4838383611f2e565b3361258b565b005b3461027b5761050a36611ea9565b600e546001600160a01b031633036105c1576105246121ec565b61052c6121ce565b821580156105b5575b6105a3576102008111610591577f859fac2fc059a2fa38efe7236e1c16278c1519298d62dd05582ff7fa392a104591610578610572368484611ef7565b8561243d565b61058760405192839283612135565b0390a26001600955005b6040516322e3481360e21b8152600490fd5b604051636979d35160e11b8152600490fd5b50600b54831015610535565b604051632b35006d60e21b8152600490fd5b3461027b57600036600319011261027b57600e546040516001600160a01b039091168152602090f35b3461027b57600036600319011261027b5760206040516102008152f35b3461027b57604036600319011261027b57610632611cb4565b602435908115159081830361027b576001600160a01b03169182156106ae576106809033600052600560205260406000208460005260205260406000209060ff801983541691151516179055565b6040519081527f17307eab39ab6107e8899845ad3d59bd9653f200f220920489ca2b5937696c3160203392a3005b604051630b61174360e31b815260048101849052602490fd5b3461027b57604036600319011261027b57600e5460243590600435906001600160a01b031633036105c1576106fa6121ec565b6107026121ce565b80156105a35781158015610776575b6105a35780600052600d6020526040600020546107645780600052600d602052816040600020557ff46e12e99d96fb1d3b984c4666ce502c4ba5e61dd8aea7b7fbaeb2af06037e7c600080a36001600955005b604051630d82532d60e21b8152600490fd5b50600b54821015610711565b3461027b57600036600319011261027b576040516000600182600154926107a884611d58565b92838352602094856001821691826000146108455750506001146107e8575b506107d492500383611de3565b610415604051928284938452830190611c74565b84915060016000527fb10e2d527612073b26eecdfd717e6a320cf44b4afac2b0732d9fcbe2b7fa0cf6906000915b85831061082d5750506107d49350820101856107c7565b80548389018501528794508693909201918101610816565b60ff1916858201526107d495151560051b85010192508791506107c79050565b3461027b57602036600319011261027b57600435600052600c6020526104156108946002604060002001611e04565b604051918291602083526020830190611c74565b3461027b57602036600319011261027b576004356108c46121ce565b6108cd81612193565b336001600160a01b03909116036102695780600052600c602052600460406000200160ff1981541690557fc2fb7f8575ac3990e70361684edfc4d283931ea9a03dfa28766bf376a3934aa2600080a2005b3461027b57600036600319011261027b576007546040516001600160a01b039091168152602090f35b3461027b57600036600319011261027b57610960612577565b6109686121ce565b600160ff19600a541617600a557f62e78cea01bee320cd4e420270b5ea74000d11b0c9f74754ebdbfc544b05a2586020604051338152a1005b3461027b57600036600319011261027b576008546001600160a01b033381831603610a0d576001600160601b0360a01b8092166008556007549133908316176007553391167f8be0079c531659141344cd1fd0a4f28419497f9722a3daafe3b4186f6b6457e0600080a3005b60405163118cdaa760e01b8152336004820152602490fd5b3461027b57602036600319011261027b57610a3e611cb4565b610a46612577565b6001600160a01b03168015610a8e57600e80546001600160a01b031916821790557f210690abd7fd6cdbb8f2beb202b2a253d58d7a0813b2175c4172c14c0c1af6dc600080a2005b60405163d92e233d60e01b8152600490fd5b3461027b57600036600319011261027b57610ab9612577565b600880546001600160a01b03199081169091556007805491821690556000906001600160a01b03167f8be0079c531659141344cd1fd0a4f28419497f9722a3daafe3b4186f6b6457e08280a3005b3461027b57602036600319011261027b576001600160a01b03610b28611cb4565b168015610b475760005260036020526020604060002054604051908152f35b6040516322718ad960e21b815260006004820152602490fd5b3461027b57602036600319011261027b57600435610b7d81612193565b6001600160a01b039033908216036102695781600052600f602052604060002090600160405192610bad84611dad565b8281541684520154602083019080825215610c5a57514210610c48576000838152600c602090815260408083206001908101805487516001600160a01b0319821690881617909155600f845282852085815590910193909355935184516001600160a01b03938516841681529316909116908201527f0d116ddfe3ce0d19970e3748d0e65b606d6a7996e8ace22f241e3ba27cd1e3279190a2005b60405163621e25c360e01b8152600490fd5b60405163147fde5f60e31b8152600490fd5b3461027b57604036600319011261027b57600435610c88611cca565b610c906121ce565b610c9982612193565b6001600160a01b0390339082160361026957808216918215610a8e573b610d655762015180420191824211610d4f577fe75af70c5199319759c92568fb0cc8dc1f926d4c9910be0bfbfbb73607a38db392606092604051610cf981611dad565b83815260016020820184815288600052600f6020528360406000209351166001600160601b0360a01b84541617835551910155600c602052600160406000200154169160405192835260208301526040820152a2005b634e487b7160e01b600052601160045260246000fd5b6040516311970e2d60e31b8152600490fd5b3461027b57602036600319011261027b576020610d95600435612193565b6040516001600160a01b039091168152f35b3461027b57600036600319011261027b57602060ff600a54166040519015158152f35b3461027b57600036600319011261027b576020604051620151808152f35b3461027b57610df636611ea9565b610e019291926121ec565b610e096121ce565b610e1282612193565b336001600160a01b0390911603610269576101008111610f4b5781600052602092600c60205260026040600020016001600160401b038311610f3557610e6283610e5c8354611d58565b836120df565b600094601f8411600114610ebf5750610ea383806000805160206126da8339815191529697600091610eb4575b508160011b916000199060031b1c19161790565b905561058760405192839283612135565b905084013588610e8f565b601f19841695826000526020600020916000905b888210610f1d575050846000805160206126da833981519152969710610f03575b5050600183811b019055610578565b830135600019600386901b60f8161c191690558580610ef4565b80600184958294958901358155019401920190610ed3565b634e487b7160e01b600052604160045260246000fd5b604051639049092560e01b8152600490fd5b3461027b57610f6b36611ea9565b610f736121ec565b610f7b6121ce565b610f8483612193565b336001600160a01b0390911603610269576102008111610591577f859fac2fc059a2fa38efe7236e1c16278c1519298d62dd05582ff7fa392a104591610578610572368484611ef7565b3461027b57602036600319011261027b576004356000908152600c60205260409020805460018201546001600160a01b03169161100d60028201611e04565b61103c60ff6004600385015494015416916040519586958652602086015260a0604086015260a0850190611c74565b916060840152151560808301520390f35b3461027b57602036600319011261027b57602061106b60043561215d565b6040519015158152f35b3461027b576104fa61108636611cf6565b906040519261109484611dc8565b600084526104f4838383611f2e565b3461027b57600036600319011261027b576110bc612577565b600a5460ff8116156110fb5760ff1916600a557f5db9ee0a495bf2e6ff9c91a7834c1ba4fdd244a5e8aa4e537bd38aeae4b073aa6020604051338152a1005b604051638dfc202b60e01b8152600490fd5b3461027b57606036600319011261027b576004356001600160401b0360243581811161027b57611141903690600401611d2b565b9061114a611ce0565b600e5490936001600160a01b03939091841633036105c15761116a6121ec565b6111726121ce565b85158015611324575b6105a3578061120e575b50505080821680611198575b6001600955005b823b610d65576000848152600c602090815260409182902060010180546001600160a01b031981169490941790558151939092166001600160a01b03908116845293909316908201527f0d116ddfe3ce0d19970e3748d0e65b606d6a7996e8ace22f241e3ba27cd1e3279190a280808080611191565b6101008111610f4b5785600052602092600c6020526002604060002001928211610f35578261124283610e5c8a9654611d58565b600094601f84116001146112aa575061128283806000805160206126da833981519152969760009161129f57508160011b916000199060031b1c19161790565b90555b61129460405192839283612135565b0390a2838080611185565b90508401358b610e8f565b601f19841695826000526020600020916000905b888210611308575050846000805160206126da8339815191529697106112ee575b5050600183811b019055611285565b830135600019600386901b60f8161c1916905588806112df565b8583013584558b975060019093019291820191908101906112be565b50600b5486101561117b565b3461027b5760a036600319011261027b57611349611cb4565b611351611ce0565b906064356001600160401b03811161027b57611371903690600401611d2b565b91906084356001600160401b03811161027b57611392903690600401611d2b565b600e54919290916001600160a01b031633036105c1576113b06121ec565b6113b86121ce565b6001600160a01b03841615610a8e57602435156105a3576001600160a01b03861615610a8e57602435600052600d602052604060002054610764576101008511610f4b57610200821161059157853b610d655761144690600b549561141c876120d0565b600b556040519761142c89611d92565b60243589526001600160a01b031660208901523691611ef7565b60408601524260608601526001608086015283600052600c6020526040600020855181556001810160018060a01b036020880151166001600160601b0360a01b82541617905560408601519586516001600160401b038111610f35576020976114bf826114b66002870154611d58565b600287016120df565b8890601f83116001146115a357608061154a969461150185611528966115509b9996600496600092611598575b50508160011b916000199060031b1c19161790565b60028501555b606081015160038501550151151591019060ff801983541691151516179055565b602435600052600d875285604060002055611543868661220f565b3691611ef7565b8361243d565b604051338152602435916001600160a01b03169083907f3b3bd2ae0813649f0a35df972f28cac6ca8d704d1d66122c8a336c58fcdb4530908690a46001600955604051908152f35b015190508f806114ec565b9060028501600052896000209160005b601f198516811061160b575061154a96946001856115509a989560049560809561152899601f198116106115f2575b505050811b016002850155611507565b015160001960f88460031b161c191690558e80806115e2565b91928b6001819286850151815501940192016115b3565b3461027b57600036600319011261027b576020600b54604051908152f35b3461027b5760208060031936011261027b576000608060405161166281611d92565b8281528284820152606060408201528260608201520152600435600052600c815260406000206040519061169582611d92565b8054825260018101546001600160a01b039081168484019081529061170d906116c060028501611e04565b906040860191825260ff600460038701549660608901978852015416936080870194151585526040519788978189525190880152511660408601525160a0606086015260c0850190611c74565b9151608084015251151560a08301520390f35b3461027b57608036600319011261027b57611739611cca565b6001600160401b039060443582811161027b5761175a903690600401611d2b565b60649291923584811161027b57611775903690600401611d2b565b9290916117806121ec565b6117886121ce565b600435156105a3576001600160a01b0391808316908115610a8e57600435600052600d602052604060002054610764576101008311610f4b576102008611610591573b610d6557611802600b54966117df886120d0565b600b55604051936117ef85611d92565b6004358552602085019384523691611ef7565b90604083019182524260608401526001608084015286600052600c60205260406000209383518555600185019151166001600160601b0360a01b82541617905551958651908111610f3557602096611861826114b66002870154611d58565b8790601f831160011461191957926115018360049460809461189a989760009261190e5750508160011b916000199060031b1c19161790565b600435600052600d8452826040600020556118b5833361220f565b6118c96118c3368484611ef7565b8461243d565b827fcbb96f51f0d44aad38bd37e9959154a2f979b86301a6efbcb08d83f10ac9c820604051806118fe60043596339683612135565b0390a46001600955604051908152f35b015190508c806114ec565b9060028501600052886000209160005b601f198516811061197857508360809361189a979693600193600497601f1981161061195f57505050811b016002850155611507565b015160001960f88460031b161c191690558b80806115e2565b91928a600181928685015181550194019201611929565b3461027b576104fa6119a036611cf6565b91611f2e565b3461027b57602036600319011261027b576004356119c26121ce565b6119cb81612193565b336001600160a01b03909116036102695780600052600c6020526004604060002001600160ff198254161790557f7cce21c1f4552995dccace889e9ad45febf59c654d3fd1d7ab0457fa1439aa2c600080a2005b3461027b57604036600319011261027b57611a38611cb4565b602435611a4481612193565b33151580611af3575b80611ac6575b611aae576001600160a01b039283169282918491167f8c5be1e5ebec7d5bd14f71427d1e84f3dd0314c0f7b2291e5b200ac8c7c3b925600080a4600090815260046020526040902080546001600160a01b0319169091179055005b60405163a9fbf51f60e01b8152336004820152602490fd5b5060018060a01b038116600052600560205260406000203360005260205260ff6040600020541615611a53565b506001600160a01b038116331415611a4d565b3461027b57602036600319011261027b57600435611b2381612193565b506000526004602052602060018060a01b0360406000205416604051908152f35b3461027b57600036600319011261027b57604051600080549082611b6783611d58565b9182825260209360019085600182169182600014610845575050600114611b9557506107d492500383611de3565b6000808052859250907f290decd9548b62a8d60345a988386fc84ba6bc95484008f6362f93160ef3e5635b858310611bd75750506107d49350820101856107c7565b80548389018501528794508693909201918101611bc0565b3461027b57602036600319011261027b576004359063ffffffff60e01b821680920361027b57602091632483248360e11b8114908115611c31575b5015158152f35b6380ac58cd60e01b811491508115611c63575b8115611c52575b5083611c2a565b6301ffc9a760e01b14905083611c4b565b635b5e139f60e01b81149150611c44565b919082519283825260005b848110611ca0575050826000602080949584010152601f8019910116010190565b602081830181015184830182015201611c7f565b600435906001600160a01b038216820361027b57565b602435906001600160a01b038216820361027b57565b604435906001600160a01b038216820361027b57565b606090600319011261027b576001600160a01b0390600435828116810361027b5791602435908116810361027b579060443590565b9181601f8401121561027b578235916001600160401b03831161027b576020838186019501011161027b57565b90600182811c92168015611d88575b6020831014611d7257565b634e487b7160e01b600052602260045260246000fd5b91607f1691611d67565b60a081019081106001600160401b03821117610f3557604052565b604081019081106001600160401b03821117610f3557604052565b602081019081106001600160401b03821117610f3557604052565b90601f801991011681019081106001600160401b03821117610f3557604052565b90604051918260008254611e1781611d58565b90818452602094600191600181169081600014611e875750600114611e48575b505050611e4692500383611de3565b565b600090815285812095935091905b818310611e6f575050611e469350820101388080611e37565b85548884018501529485019487945091830191611e56565b92505050611e4694925060ff191682840152151560051b820101388080611e37565b90604060031983011261027b5760043591602435906001600160401b03821161027b57611ed891600401611d2b565b9091565b6001600160401b038111610f3557601f01601f191660200190565b929192611f0382611edc565b91611f116040519384611de3565b82948184528183011161027b578281602093846000960137010152565b6001600160a01b0391821692909183156120b75760009282845282602095600287526040968488882054169687913315158061201e575b509060027fddf252ad1be2c89b69c2b068fc378daa952ba7f163c4a11628f55a4df523b3ef9284611feb575b858352600381528b8320805460010190558683525289812080546001600160a01b0319168517905580a41692838303611fca5750505050565b6064945051926364283d7b60e01b8452600484015260248301526044820152fd5b600087815260046020526040902080546001600160a01b0319169055848352600381528b83208054600019019055611f91565b91939450915080612076575b1561203a57859291879138611f65565b878688612057576024915190637e27328960e01b82526004820152fd5b905163177e802f60e01b81523360048201526024810191909152604490fd5b50338714801561209b575b8061202a575085825260048152338589842054161461202a565b5086825260058152878220338352815260ff8883205416612081565b604051633250574960e11b815260006004820152602490fd5b6000198114610d4f5760010190565b90601f81116120ed57505050565b6000916000526020600020906020601f850160051c8301941061212b575b601f0160051c01915b82811061212057505050565b818155600101612114565b909250829061210b565b90918060409360208452816020850152848401376000828201840152601f01601f1916010190565b80158015612187575b61218157600052600c60205260ff6004604060002001541690565b50600090565b50600b54811015612166565b6000818152600260205260409020546001600160a01b03169081156121b6575090565b60249060405190637e27328960e01b82526004820152fd5b60ff600a54166121da57565b60405163d93c066560e01b8152600490fd5b6002600954146121fd576002600955565b604051633ee5aeb560e01b8152600490fd5b6040805161221c81611dc8565b6000808252936001600160a01b0384811694909290851561242557828752602093600285528588205416838782151592836123f2575b818b5260038852888b2080546001019055828b5260028852888b2080546001600160a01b031916831790557fddf252ad1be2c89b69c2b068fc378daa952ba7f163c4a11628f55a4df523b3ef8b80a46123da573b6122b3575b505050505050565b826122f1918596979894955180938192630a85bd0160e11b968784523360048501528c60248501526044840152608060648401526084830190611c74565b03818a8a5af1879181612396575b5061235f575050503d600014612356573d61231981611edc565b9061232684519283611de3565b81528094823d92013e5b83519384612350578251633250574960e11b815260048101859052602490fd5b84925001fd5b60609350612330565b919550915063ffffffff60e01b160361237f5750503880808080806122ab565b602492505190633250574960e11b82526004820152fd5b9091508481813d83116123d3575b6123ae8183611de3565b810103126123cf57516001600160e01b0319811681036123cf5790386122ff565b8780fd5b503d6123a4565b84516339e3563760e11b815260048101889052602490fd5b600083815260046020526040902080546001600160a01b0319169055808b5260038852888b208054600019019055612252565b8451633250574960e11b815260048101889052602490fd5b9190916000908082526020916006835260408120908551956001600160401b03871161256357612477876124718554611d58565b856120df565b8491601f88116001146124df57966124c89281927ff8e1a15aba9398e019f0b49df1a4fde98ee17ae345cb5f6b5e2c27f5033e8ce79899926124d45750508160011b916000199060031b1c19161790565b90555b604051908152a1565b0151905038806114ec565b9190601f198816848452868420935b81811061254c57509160019391897ff8e1a15aba9398e019f0b49df1a4fde98ee17ae345cb5f6b5e2c27f5033e8ce7999a9410612533575b505050811b0190556124cb565b015160001960f88460031b161c19169055388080612526565b9293876001819287860151815501950193016124ee565b634e487b7160e01b82526041600452602482fd5b6007546001600160a01b03163303610a0d57565b90939192833b61259d575b5050505050565b604051630a85bd0160e11b8082526001600160a01b0393841660048301529583166024820152604481019190915260806064820152949216926020929185906125ea906084830190611c74565b039483816000978189895af1869181612695575b5061265f575050503d600014612656573d61261881611edc565b906126266040519283611de3565b81528093823d92013e5b8251928361265157604051633250574960e11b815260048101849052602490fd5b019050fd5b60609250612630565b919450915063ffffffff60e01b160361267d57503880808080612596565b60249060405190633250574960e11b82526004820152fd5b9091508481813d83116126d2575b6126ad8183611de3565b810103126126ce57516001600160e01b0319811681036126ce5790386125fe565b8680fd5b503d6126a356fe6a3a0beb54691369cfa3d9ccbfee7ad49dcfeb928219b0c2eab1e9261488a762a2646970667358221220db8c175ddf40c2c9f35abbb43a0e815f6a2dee0b87d683f0c9fa1903e4e04af764736f6c63430008180033",
  "linkReferences": {},
  "deployedLinkReferences": {}
}