{
  "_format": "hh-sol-artifact-1",
  "contractName": "ReputationRegistry",
  "sourceName": "contracts/ReputationRegistry.sol",
  "abi": [
    {
      "inputs": [
        {
          "internalType": "address",
          "name": "_agentRegistry",
          "type": "address"
        }
      ],
      "stateMutability": "nonpayable",
      "type": "constructor"
    },
    {
      "inputs": [],
      "name": "AlreadySubmittedFeedback",
      "type": "error"
    },
    {
      "inputs": [],
      "name": "FeedbackWindowExpired",
      "type": "error"
    },
    {
      "inputs": [],
      "name": "InvalidAgentId",
      "type": "error"
    },
    {
      "inputs": [],
      "name": "InvalidInferenceHash",
      "type": "error"
    },
    {
      "inputs": [
        {
          "internalType": "address",
          "name": "owner",
          "type": "address"
        }
      ],
      "name": "OwnableInvalidOwner",
      "type": "error"
    },
    {
      "inputs": [
        {
          "internalType": "address",
          "name": "account",
          "type": "address"
        }
      ],
      "name": "OwnableUnauthorizedAccount",
      "type": "error"
    },
    {
      "anonymous": false,
      "inputs": [
        {
          "indexed": true,
          "internalType": "uint256",
          "name": "agentId",
          "type": "uint256"
        },
        {
          "indexed": true,
          "internalType": "address",
          "name": "user",
          "type": "address"
        },
        {
          "indexed": false,
          "internalType": "bool",
          "name": "positive",
          "type": "bool"
        },
        {
          "indexed": true,
          "internalType": "bytes32",
          "name": "inferenceHash",
          "type": "bytes32"
        },
        {
          "indexed": false,
          "internalType": "uint256",
          "name": "timestamp",
          "type": "uint256"
        }
      ],
      "name": "FeedbackSubmitted",
      "type": "event"
    },
    {
      "anonymous": false,
      "inputs": [
        {
          "indexed": true,
          "internalType": "address",
          "name": "previousOwner",
          "type": "address"
        },
        {
          "indexed": true,
          "internalType": "address",
          "name": "newOwner",
          "type": "address"
        }
      ],
      "name": "OwnershipTransferred",
      "type": "event"
    },
    {
      "anonymous": false,
      "inputs": [
        {
          "indexed": true,
          "internalType": "uint256",
          "name": "agentId",
          "type": "uint256"
        },
        {
          "indexed": false,
          "internalType": "uint256",
          "name": "positiveCount",
          "type": "uint256"
        },
        {
          "indexed": false,
          "internalType": "uint256",
          "name": "negativeCount",
          "type": "uint256"
        },
        {
          "indexed": false,
          "internalType": "uint256",
          "name": "score",
          "type": "uint256"
        }
      ],
      "name": "ReputationUpdated",
      "type": "event"
    },
    {
      "inputs": [],
      "name": "FEEDBACK_WINDOW",
      "outputs": [
        {
          "internalType": "uint256",
          "name": "",
          "type": "uint256"
        }
      ],
      "stateMutability": "view",
      "type": "function"
    },
    {
      "inputs": [],
      "name": "SCORE_PRECISION",
      "outputs": [
        {
          "internalType": "uint256",
          "name": "",
          "type": "uint256"
        }
      ],
      "stateMutability": "view",
      "type": "function"
    },
    {
      "inputs": [],
      "name": "agentRegistry",
      "outputs": [
        {
          "internalType": "address",
          "name": "",
          "type": "address"
        }
      ],
      "stateMutability": "view",
      "type": "function"
    },
    {
      "inputs": [
        {
          "internalType": "uint256",
          "name": "agentId",
          "type": "uint256"
        }
      ],
      "name": "calculateScore",
      "outputs": [
        {
          "internalType": "uint256",
          "name": "",
          "type": "uint256"
        }
      ],
      "stateMutability": "view",
      "type": "function"
    },
    {
      "inputs": [
        {
          "internalType": "uint256",
          "name": "agentId",
          "type": "uint256"
        },
        {
          "internalType": "address",
          "name": "user",
          "type": "address"
        },
        {
          "internalType": "bytes32",
          "name": "inferenceHash",
          "type": "bytes32"
        }
      ],
      "name": "canSubmitFeedback",
      "outputs": [
        {
          "internalType": "bool",
          "name": "canSubmit",
          "type": "bool"
        },
        {
          "internalType": "string",
          "name": "reason",
          "type": "string"
        }
      ],
      "stateMutability": "view",
      "type": "function"
    },
    {
      "inputs": [
        {
          "internalType": "uint256",
          "name": "",
          "type": "uint256"
        },
        {
          "internalType": "uint256",
          "name": "",
          "type": "uint256"
        }
      ],
      "name": "feedbackHistory",
      "outputs": [
        {
          "internalType": "address",
          "name": "user",
          "type": "address"
        },
        {
          "internalType": "bool",
          "name": "positive",
          "type": "bool"
        },
        {
          "internalType": "uint256",
          "name": "timestamp",
          "type": "uint256"
        },
        {
          "internalType": "bytes32",
          "name": "inferenceHash",
          "type": "bytes32"
        }
      ],
      "stateMutability": "view",
      "type": "function"
    },
    {
      "inputs": [
        {
          "internalType": "uint256",
          "name": "agentId",
          "type": "uint256"
        }
      ],
      "name": "getFeedbackCounts",
      "outputs": [
        {
          "internalType": "uint256",
          "name": "positive",
          "type": "uint256"
        },
        {
          "internalType": "uint256",
          "name": "negative",
          "type": "uint256"
        },
        {
          "internalType": "uint256",
          "name": "total",
          "type": "uint256"
        }
      ],
      "stateMutability": "view",
      "type": "function"
    },
    {
      "inputs": [
        {
          "internalType": "uint256",
          "name": "agentId",
          "type": "uint256"
        },
        {
          "internalType": "uint256",
          "name": "count",
          "type": "uint256"
        }
      ],
      "name": "getRecentFeedback",
      "outputs": [
        {
          "components": [
            {
              "internalType": "address",
              "name": "user",
              "type": "address"
            },
            {
              "internalType": "bool",
              "name": "positive",
              "type": "bool"
            },
            {
              "internalType": "uint256",
              "name": "timestamp",
              "type": "uint256"
            },
            {
              "internalType": "bytes32",
              "name": "inferenceHash",
              "type": "bytes32"
            }
          ],
          "internalType": "struct ReputationRegistry.Feedback[]",
          "name": "",
          "type": "tuple[]"
        }
      ],
      "stateMutability": "view",
      "type": "function"
    },
    {
      "inputs": [
        {
          "internalType": "uint256",
          "name": "agentId",
          "type": "uint256"
        }
      ],
      "name": "getReputation",
      "outputs": [
        {
          "components": [
            {
              "internalType": "uint256",
              "name": "positiveCount",
              "type": "uint256"
            },
            {
              "internalType": "uint256",
              "name": "negativeCount",
              "type": "uint256"
            },
            {
              "internalType": "uint256",
              "name": "totalFeedback",
              "type": "uint256"
            },
            {
              "internalType": "uint256",
              "name": "lastFeedbackAt",
              "type": "uint256"
            }
          ],
          "internalType": "struct ReputationRegistry.Reputation",
          "name": "",
          "type": "tuple"
        }
      ],
      "stateMutability": "view",
      "type": "function"
    },
    {
      "inputs": [
        {
          "internalType": "bytes32",
          "name": "",
          "type": "bytes32"
        }
      ],
      "name": "hasSubmittedFeedback",
      "outputs": [
        {
          "internalType": "bool",
          "name": "",
          "type": "bool"
        }
      ],
      "stateMutability": "view",
      "type": "function"
    },
    {
      "inputs": [
        {
          "internalType": "bytes32",
          "name": "",
          "type": "bytes32"
        }
      ],
      "name": "inferenceTimestamps",
      "outputs": [
        {
          "internalType": "uint256",
          "name": "",
          "type": "uint256"
        }
      ],
      "stateMutability": "view",
      "type": "function"
    },
    {
      "inputs": [],
      "name": "owner",
      "outputs": [
        {
          "internalType": "address",
          "name": "",
          "type": "address"
        }
      ],
      "stateMutability": "view",
      "type": "function"
    },
    {
      "inputs": [
        {
          "internalType": "bytes32",
          "name": "inferenceHash",
          "type": "bytes32"
        }
      ],
      "name": "recordInference",
      "outputs": [],
      "stateMutability": "nonpayable",
      "type": "function"
    },
    {
      "inputs": [],
      "name": "renounceOwnership",
      "outputs": [],
      "stateMutability": "nonpayable",
      "type": "function"
    },
    {
      "inputs": [
        {
          "internalType": "uint256",
          "name": "",
          "type": "uint256"
        }
      ],
      "name": "reputations",
      "outputs": [
        {
          "internalType": "uint256",
          "name": "positiveCount",
          "type": "uint256"
        },
        {
          "internalType": "uint256",
          "name": "negativeCount",
          "type": "uint256"
        },
        {
          "internalType": "uint256",
          "name": "totalFeedback",
          "type": "uint256"
        },
        {
          "internalType": "uint256",
          "name": "lastFeedbackAt",
          "type": "uint256"
        }
      ],
      "stateMutability": "view",
      "type": "function"
    },
    {
      "inputs": [
        {
          "internalType": "address",
          "name": "_agentRegistry",
          "type": "address"
        }
      ],
      "name": "setAgentRegistry",
      "outputs": [],
      "stateMutability": "nonpayable",
      "type": "function"
    },
    {
      "inputs": [
        {
          "internalType": "uint256",
          "name": "agentId",
          "type": "uint256"
        },
        {
          "internalType": "bool",
          "name": "positive",
          "type": "bool"
        },
        {
          "internalType": "bytes32",
          "name": "inferenceHash",
          "type": "bytes32"
        }
      ],
      "name": "submitFeedback",
      "outputs": [],
      "stateMutability": "nonpayable",
      "type": "function"
    },
    {
      "inputs": [
        {
          "internalType": "address",
          "name": "newOwner",
          "type": "address"
        }
      ],
      "name": "transferOwnership",
      "outputs": [],
      "stateMutability": "nonpayable",
      "type": "function"
    }
  ],
  "bytecode": "0x6080346100c657601f610e6438819003918201601f19168301916001600160401b038311848410176100cb578084926020946040528339810103126100c657516001600160a01b0390818116908190036100c65733156100ad5760005460018060a01b0319903382821617600055604051933391167f8be0079c531659141344cd1fd0a4f28419497f9722a3daafe3b4186f6b6457e0600080a36001541617600155610d8290816100e28239f35b604051631e4fbdf760e01b815260006004820152602490fd5b600080fd5b634e487b7160e01b600052604160045260246000fdfe60806040908082526004918236101561001757600080fd5b600091823560e01c9081630d1cfcae1461089957508063136018bc1461087257806328342ecf1461082d57806337bf64bd146107b95780633a59fc1f1461073d57806359bc719d14610711578063715018a6146106b757806372fa9b851461066d5780637da147b51461065057806389370d8b146105d85780638a34aeb4146105935780638da5cb5b1461056c578063b426429f14610544578063c3445ca314610529578063cfe9ea2d146104c2578063d69b23ba1461042f578063f2fde38b146103a45763fb1eb7ec146100eb57600080fd5b346103a05760603660031901126103a05782359060243580151580820361039c5760443590841561038c57811561037c57835160208082018781523360601b6bffffffffffffffffffffffff1916604084015260548301859052909161015e81607481015b03601f19810183528261098b565b51902080885288825260ff868920541661036c5783885260058252858820548015159081610342575b50610332578752878152848720805460ff1916600117905585875260028152848720931561031d576101b98454610cfb565b84555b600284016101ca8154610cfb565b9055426003850155858752600381528487208551906101e882610921565b338252828201848152878301904282526060840192878452805490680100000000000000008210156103095790610224916001820181556108ef565b9490946102f75751845491516001600160a81b03199092166001600160a01b03919091161790151560a01b60ff60a01b1617835551600183015551600291909101558451918252429082015294955092937faf5692cc9b8ad144229fa0e32a83390bd644dbc02cc27ee00a357da85b2d47599390339086907f37abcfdc727ed95477ee6f5c95abdaef2ee61cfd45098fc31db6ffb73d942e84908690a46102f160018254920154926102d5866109ad565b9051938493846040919493926060820195825260208201520152565b0390a280f35b634e487b7160e01b8c528b8d5260248cfd5b50634e487b7160e01b8c5260418d5260248cfd5b6001840161032b8154610cfb565b90556101bc565b8551630af243e760e21b81528990fd5b905062015180810180911161035957421138610187565b634e487b7160e01b895260118a52602489fd5b8551633f872c1360e11b81528990fd5b83516365796b7760e11b81528790fd5b835163e6394a7760e01b81528790fd5b8480fd5b5080fd5b50823461042b57602036600319011261042b576103bf6108be565b906103c8610d20565b6001600160a01b0391821692831561041557505082546001600160a01b0319811683178455167f8be0079c531659141344cd1fd0a4f28419497f9722a3daafe3b4186f6b6457e08380a380f35b51631e4fbdf760e01b8152908101849052602490fd5b8280fd5b5090346104bf5760609260606003193601126103a0576024356001600160a01b038116810361042b57849291610469916044359135610be3565b93909181519485931515845260209483602086015281518094860152825b8481106104a95750505060608094508284010152601f80199101168101030190f35b8083018701518882018301528795508601610487565b80fd5b50346103a0576104d1366108d9565b9290815260036020528181209081548410156104bf57506080926104f4916108ef565b5090815491600260018201549101549160ff81519460018060a01b038116865260a01c16151560208501528301526060820152f35b50346103a057816003193601126103a0576020905160648152f35b50823461042b57602036600319011261042b5760209282913581526005845220549051908152f35b50346103a057816003193601126103a057905490516001600160a01b039091168152602090f35b50823461042b57602036600319011261042b5780359081156105ca57508252600560205281208054156105c4575080f35b42905580f35b82516365796b7760e11b8152fd5b50823461042b57602036600319011261042b5760809282916105f8610a5c565b503581526002602052209080519061060f82610921565b825492838352600181015460208401908152606060036002840154938587019485520154940193845282519485525160208501525190830152516060820152f35b50346103a057816003193601126103a05760209051620151808152f35b50823461042b57602036600319011261042b576080928291358152600260205220908154916001810154916003600283015492015492815194855260208501528301526060820152f35b82346104bf57806003193601126104bf576106d0610d20565b80546001600160a01b03198116825581906001600160a01b03167f8be0079c531659141344cd1fd0a4f28419497f9722a3daafe3b4186f6b6457e08280a380f35b50823461042b57602036600319011261042b57816020938260ff93358252855220541690519015158152f35b5090346104bf57610756610750366108d9565b90610a95565b8251916020808401908085528351809252808686019401925b82811061077c5785850386f35b835180516001600160a01b03168652808301511515868401528781015188870152606090810151908601526080909401939281019260010161076f565b50823461042b57602036600319011261042b57918192358152600260205220906108298151926107e884610921565b805492838552600182015494856020820152606060036002850154948585850152015491015251938493846040919493926060820195825260208201520152565b0390f35b82346104bf5760203660031901126104bf576108476108be565b61084f610d20565b60018060a01b03166bffffffffffffffffffffffff60a01b600154161760015580f35b5090346104bf5760203660031901126104bf5750610892602092356109ad565b9051908152f35b8390346103a057816003193601126103a0576001546001600160a01b03168152602090f35b600435906001600160a01b03821682036108d457565b600080fd5b60409060031901126108d4576004359060243590565b805482101561090b576000526003602060002091020190600090565b634e487b7160e01b600052603260045260246000fd5b6080810190811067ffffffffffffffff82111761093d57604052565b634e487b7160e01b600052604160045260246000fd5b6020810190811067ffffffffffffffff82111761093d57604052565b6040810190811067ffffffffffffffff82111761093d57604052565b90601f8019910116810190811067ffffffffffffffff82111761093d57604052565b6000908152600260205260408120604051906109c882610921565b80549182815260018201546020820152600282015490606060036040830194848652015491015215610a3c57606482029180830460641490151715610a285751918215610a1457500490565b634e487b7160e01b81526012600452602490fd5b634e487b7160e01b83526011600452602483fd5b505050603290565b67ffffffffffffffff811161093d5760051b60200190565b60405190610a6982610921565b60006060838281528260208201528260408201520152565b805182101561090b5760209160051b010190565b9060009182526020600360205260408084208054938415610bcc5784811115610bc5575083905b610ac585610a44565b95610ad3604051978861098b565b858752601f19610ae287610a44565b01815b818110610ba957505060001980840193808511835b898110610b0e575050505050505050505090565b81610b95578381840301878111610b81579089610b6f828e60028d610b356001988e6108ef565b5090805196610b4388610921565b60ff83548b8060a01b0381168a5260a01c16151590880152888201549087015201546060850152610a81565b52610b7a818d610a81565b5001610afa565b634e487b7160e01b86526011600452602486fd5b634e487b7160e01b85526011600452602485fd5b8690610bb6989598610a5c565b82828c01015201969396610ae5565b9390610abc565b505050505060405190610bde82610953565b815290565b604080516020810192835260609390931b6bffffffffffffffffffffffff19168382015260548301849052939291610c1e8160748101610150565b519020906000918252600460205260ff8483205416610cc25781526005602052828120548015159081610c97575b50610c5f576001925190610bde82610953565b9151610c6a8161096f565b601781527f466565646261636b2077696e646f772065787069726564000000000000000000602082015290565b9050620151808101809111610cae57421138610c4c565b634e487b7160e01b82526011600452602482fd5b509151610cce8161096f565b601a81527f416c7265616479207375626d697474656420666565646261636b000000000000602082015290565b6000198114610d0a5760010190565b634e487b7160e01b600052601160045260246000fd5b6000546001600160a01b03163303610d3457565b60405163118cdaa760e01b8152336004820152602490fdfea2646970667358221220c56ff2aca36db58a585f63527850779360b2edf668df615f2c961d21b7af461264736f6c63430008180033",
  "linkReferences": {},
  "deployedLinkReferences": {}
}