{
  "_format": "hh-sol-artifact-1",
  "contractName": "SplitterFactory",
  "sourceName": "contracts/SplitterFactory.sol",
  "abi": [
    {
      "inputs": [
        {
          "internalType": "address",
          "name": "_usdc",
          "type": "address"
        },
        {
          "internalType": "address",
          "name": "_marketplaceWallet",
          "type": "address"
        },
        {
          "internalType": "uint256",
          "name": "_defaultMarketplaceBps",
          "type": "uint256"
        }
      ],
      "stateMutability": "nonpayable",
      "type": "constructor"
    },
    {
      "inputs": [],
      "name": "FailedDeployment",
      "type": "error"
    },
    {
      "inputs": [
        {
          "internalType": "uint256",
          "name": "balance",
          "type": "uint256"
        },
        {
          "internalType": "uint256",
          "name": "needed",
          "type": "uint256"
        }
      ],
      "name": "InsufficientBalance",
      "type": "error"
    },
    {
      "inputs": [],
      "name": "InvalidBps",
      "type": "error"
    },
    {
      "inputs": [],
      "name": "OnlyAuthorized",
      "type": "error"
    },
    {
      "inputs": [
        {
          "internalType": "address",
          "name": "owner",
          "type": "address"
        }
      ],
      "name": "OwnableInvalidOwner",
      "type": "error"
    },
    {
      "inputs": [
        {
          "internalType": "address",
          "name": "account",
          "type": "address"
        }
      ],
      "name": "OwnableUnauthorizedAccount",
      "type": "error"
    },
    {
      "inputs": [],
      "name": "SplitterAlreadyExists",
      "type": "error"
    },
    {
      "inputs": [],
      "name": "SplitterDoesNotExist",
      "type": "error"
    },
    {
      "inputs": [],
      "name": "ZeroAddress",
      "type": "error"
    },
    {
      "anonymous": false,
      "inputs": [
        {
          "indexed": true,
          "internalType": "address",
          "name": "account",
          "type": "address"
        },
        {
          "indexed": false,
          "internalType": "bool",
          "name": "authorized",
          "type": "bool"
        }
      ],
      "name": "AuthorizationChanged",
      "type": "event"
    },
    {
      "anonymous": false,
      "inputs": [
        {
          "indexed": false,
          "internalType": "uint256",
          "name": "oldBps",
          "type": "uint256"
        },
        {
          "indexed": false,
          "internalType": "uint256",
          "name": "newBps",
          "type": "uint256"
        }
      ],
      "name": "DefaultMarketplaceBpsChanged",
      "type": "event"
    },
    {
      "anonymous": false,
      "inputs": [
        {
          "indexed": true,
          "internalType": "address",
          "name": "oldWallet",
          "type": "address"
        },
        {
          "indexed": true,
          "internalType": "address",
          "name": "newWallet",
          "type": "address"
        }
      ],
      "name": "MarketplaceWalletChanged",
      "type": "event"
    },
    {
      "anonymous": false,
      "inputs": [
        {
          "indexed": true,
          "internalType": "address",
          "name": "previousOwner",
          "type": "address"
        },
        {
          "indexed": true,
          "internalType": "address",
          "name": "newOwner",
          "type": "address"
        }
      ],
      "name": "OwnershipTransferStarted",
      "type": "event"
    },
    {
      "anonymous": false,
      "inputs": [
        {
          "indexed": true,
          "internalType": "address",
          "name": "previousOwner",
          "type": "address"
        },
        {
          "indexed": true,
          "internalType": "address",
          "name": "newOwner",
          "type": "address"
        }
      ],
      "name": "OwnershipTransferred",
      "type": "event"
    },
    {
      "anonymous": false,
      "inputs": [
        {
          "indexed": true,
          "internalType": "uint256",
          "name": "modelId",
          "type": "uint256"
        },
        {
          "indexed": true,
          "internalType": "address",
          "name": "splitter",
          "type": "address"
        },
        {
          "indexed": true,
          "internalType": "address",
          "name": "seller",
          "type": "address"
        },
        {
          "indexed": false,
          "internalType": "address",
          "name": "creator",
          "type": "address"
        },
        {
          "indexed": false,
          "internalType": "uint256",
          "name": "royaltyBps",
          "type": "uint256"
        },
        {
          "indexed": false,
          "internalType": "uint256",
          "name": "marketplaceBps",
          "type": "uint256"
        }
      ],
      "name": "SplitterCreated",
      "type": "event"
    },
    {
      "inputs": [],
      "name": "MAX_BPS",
      "outputs": [
        {
          "internalType": "uint256",
          "name": "",
          "type": "uint256"
        }
      ],
      "stateMutability": "view",
      "type": "function"
    },
    {
      "inputs": [],
      "name": "MAX_MARKETPLACE_BPS",
      "outputs": [
        {
          "internalType": "uint256",
          "name": "",
          "type": "uint256"
        }
      ],
      "stateMutability": "view",
      "type": "function"
    },
    {
      "inputs": [],
      "name": "MAX_ROYALTY_BPS",
      "outputs": [
        {
          "internalType": "uint256",
          "name": "",
          "type": "uint256"
        }
      ],
      "stateMutability": "view",
      "type": "function"
    },
    {
      "inputs": [],
      "name": "acceptOwnership",
      "outputs": [],
      "stateMutability": "nonpayable",
      "type": "function"
    },
    {
      "inputs": [
        {
          "internalType": "address",
          "name": "",
          "type": "address"
        }
      ],
      "name": "authorized",
      "outputs": [
        {
          "internalType": "bool",
          "name": "",
          "type": "bool"
        }
      ],
      "stateMutability": "view",
      "type": "function"
    },
    {
      "inputs": [
        {
          "internalType": "uint256",
          "name": "modelId",
          "type": "uint256"
        },
        {
          "internalType": "address",
          "name": "seller",
          "type": "address"
        },
        {
          "internalType": "address",
          "name": "creator",
          "type": "address"
        },
        {
          "internalType": "uint256",
          "name": "royaltyBps",
          "type": "uint256"
        }
      ],
      "name": "createSplitter",
      "outputs": [
        {
          "internalType": "address",
          "name": "splitter",
          "type": "address"
        }
      ],
      "stateMutability": "nonpayable",
      "type": "function"
    },
    {
      "inputs": [
        {
          "internalType": "uint256",
          "name": "modelId",
          "type": "uint256"
        },
        {
          "internalType": "address",
          "name": "seller",
          "type": "address"
        },
        {
          "internalType": "address",
          "name": "creator",
          "type": "address"
        },
        {
          "internalType": "uint256",
          "name": "royaltyBps",
          "type": "uint256"
        },
        {
          "internalType": "uint256",
          "name": "marketplaceBps",
          "type": "uint256"
        }
      ],
      "name": "createSplitterWithCustomFee",
      "outputs": [
        {
          "internalType": "address",
          "name": "splitter",
          "type": "address"
        }
      ],
      "stateMutability": "nonpayable",
      "type": "function"
    },
    {
      "inputs": [],
      "name": "defaultMarketplaceBps",
      "outputs": [
        {
          "internalType": "uint256",
          "name": "",
          "type": "uint256"
        }
      ],
      "stateMutability": "view",
      "type": "function"
    },
    {
      "inputs": [
        {
          "internalType": "uint256",
          "name": "modelId",
          "type": "uint256"
        }
      ],
      "name": "getSplitter",
      "outputs": [
        {
          "internalType": "address",
          "name": "splitter",
          "type": "address"
        }
      ],
      "stateMutability": "view",
      "type": "function"
    },
    {
      "inputs": [
        {
          "internalType": "uint256",
          "name": "modelId",
          "type": "uint256"
        }
      ],
      "name": "getSplitterInfo",
      "outputs": [
        {
          "internalType": "address",
          "name": "splitter",
          "type": "address"
        },
        {
          "internalType": "address",
          "name": "seller",
          "type": "address"
        },
        {
          "internalType": "address",
          "name": "creator",
          "type": "address"
        },
        {
          "internalType": "uint256",
          "name": "royaltyBps",
          "type": "uint256"
        },
        {
          "internalType": "uint256",
          "name": "marketplaceBps",
          "type": "uint256"
        },
        {
          "internalType": "uint256",
          "name": "totalDistributed",
          "type": "uint256"
        }
      ],
      "stateMutability": "view",
      "type": "function"
    },
    {
      "inputs": [],
      "name": "implementation",
      "outputs": [
        {
          "internalType": "address",
          "name": "",
          "type": "address"
        }
      ],
      "stateMutability": "view",
      "type": "function"
    },
    {
      "inputs": [],
      "name": "marketplaceWallet",
      "outputs": [
        {
          "internalType": "address",
          "name": "",
          "type": "address"
        }
      ],
      "stateMutability": "view",
      "type": "function"
    },
    {
      "inputs": [],
      "name": "owner",
      "outputs": [
        {
          "internalType": "address",
          "name": "",
          "type": "address"
        }
      ],
      "stateMutability": "view",
      "type": "function"
    },
    {
      "inputs": [],
      "name": "pendingOwner",
      "outputs": [
        {
          "internalType": "address",
          "name": "",
          "type": "address"
        }
      ],
      "stateMutability": "view",
      "type": "function"
    },
    {
      "inputs": [
        {
          "internalType": "uint256",
          "name": "modelId",
          "type": "uint256"
        }
      ],
      "name": "predictSplitterAddress",
      "outputs": [
        {
          "internalType": "address",
          "name": "predicted",
          "type": "address"
        }
      ],
      "stateMutability": "view",
      "type": "function"
    },
    {
      "inputs": [],
      "name": "renounceOwnership",
      "outputs": [],
      "stateMutability": "nonpayable",
      "type": "function"
    },
    {
      "inputs": [
        {
          "internalType": "address",
          "name": "account",
          "type": "address"
        },
        {
          "internalType": "bool",
          "name": "_authorized",
          "type": "bool"
        }
      ],
      "name": "setAuthorized",
      "outputs": [],
      "stateMutability": "nonpayable",
      "type": "function"
    },
    {
      "inputs": [
        {
          "internalType": "uint256",
          "name": "newBps",
          "type": "uint256"
        }
      ],
      "name": "setDefaultMarketplaceBps",
      "outputs": [],
      "stateMutability": "nonpayable",
      "type": "function"
    },
    {
      "inputs": [
        {
          "internalType": "address",
          "name": "newWallet",
          "type": "address"
        }
      ],
      "name": "setMarketplaceWallet",
      "outputs": [],
      "stateMutability": "nonpayable",
      "type": "function"
    },
    {
      "inputs": [
        {
          "internalType": "uint256",
          "name": "modelId",
          "type": "uint256"
        }
      ],
      "name": "splitterExists",
      "outputs": [
        {
          "internalType": "bool",
          "name": "exists",
          "type": "bool"
        }
      ],
      "stateMutability": "view",
      "type": "function"
    },
    {
      "inputs": [
        {
          "internalType": "uint256",
          "name": "",
          "type": "uint256"
        }
      ],
      "name": "splitters",
      "outputs": [
        {
          "internalType": "address",
          "name": "",
          "type": "address"
        }
      ],
      "stateMutability": "view",
      "type": "function"
    },
    {
      "inputs": [],
      "name": "totalSplitters",
      "outputs": [
        {
          "internalType": "uint256",
          "name": "",
          "type": "uint256"
        }
      ],
      "stateMutability": "view",
      "type": "function"
    },
    {
      "inputs": [
        {
          "internalType": "address",
          "name": "newOwner",
          "type": "address"
        }
      ],
      "name": "transferOwnership",
      "outputs": [],
      "stateMutability": "nonpayable",
      "type": "function"
    },
    {
      "inputs": [],
      "name": "usdc",
      "outputs": [
        {
          "internalType": "address",
          "name": "",
          "type": "address"
        }
      ],
      "stateMutability": "view",
      "type": "function"
    }
  ],
  "bytecode": "0x60c0346101ad57601f611c8538819003918201601f1916830192916001600160401b0391828511848610176101b25781606092859260409788528339810103126101ad5761004c826101c8565b908361005a602085016101c8565b930151331561019557600180546001600160a01b031990811690915560008054338184168117835588516001600160a01b0398939794939290919089167f8be0079c531659141344cd1fd0a4f28419497f9722a3daafe3b4186f6b6457e08980a38784161561018657508616918215610175576103e884116101645760a0526002541617600255600355835190610de2808301918383109083111761015057908291610ea38339039082f090811561014557501660805251610cc690816101dd82396080518181816104e0015281816108110152610ab3015260a0518181816107560152610b370152f35b8351903d90823e3d90fd5b634e487b7160e01b84526041600452602484fd5b875163c6cc5d7f60e01b8152600490fd5b875163d92e233d60e01b8152600490fd5b63d92e233d60e01b8152600490fd5b8451631e4fbdf760e01b815260006004820152602490fd5b600080fd5b634e487b7160e01b600052604160045260246000fd5b51906001600160a01b03821682036101ad5756fe6040608081526004908136101561001557600080fd5b600091823560e01c90816301f199f7146108df57816306e792ec146108735781630a08bcb4146107c15781630c508c01146107a25781633dca40e6146107855781633e413bee1461074157816345f79c521461072257816348807bbb146102fb5781634c8d4a921461070557816352e4ec9a1461067957816359f123041461050f5781635c60da1b146104cb578163702d8ba214610497578163711bf9b214610415578163715018a6146103b057816379ba50971461032d57816389980366146102fb5781638da5cb5b146102d3578163b918161114610295578163ca4c64cf1461020a57508063e30c3978146101e2578063ed9ed696146101ba578063f2fde38b1461014a5763fd967f471461012b57600080fd5b34610146578160031936011261014657602090516127108152f35b5080fd5b82346101b75760203660031901126101b75761016461097f565b61016c6109fd565b600180546001600160a01b0319166001600160a01b0392831690811790915582549091167f38d16b8cac22d99fc7c124b9cd0de2d3fa1faef420bfe791d8c362d765e227008380a380f35b80fd5b503461014657816003193601126101465760025490516001600160a01b039091168152602090f35b503461014657816003193601126101465760015490516001600160a01b039091168152602090f35b9050346102915760203660031901126102915761022561097f565b9061022e6109fd565b6001600160a01b03918216928315610284575050600254826bffffffffffffffffffffffff60a01b821617600255167f6f79e27210b19a4c7601e0a512e1a79bc305548722d4b80c87588effce7a55118380a380f35b5163d92e233d60e01b8152fd5b8280fd5b5050346101465760203660031901126101465760209160ff9082906001600160a01b036102c061097f565b1681526005855220541690519015158152f35b505034610146578160031936011261014657905490516001600160a01b039091168152602090f35b90503461029157602036600319011261029157803583526020908152918190205490516001600160a01b039091168152f35b91905034610291578260031936011261029157600154916001600160a01b039133838516036103995750506001600160a01b031991821660015582543392811683178455167f8be0079c531659141344cd1fd0a4f28419497f9722a3daafe3b4186f6b6457e08380a380f35b60249250519063118cdaa760e01b82523390820152fd5b83346101b757806003193601126101b7576103c96109fd565b600180546001600160a01b03199081169091558154908116825581906001600160a01b03167f8be0079c531659141344cd1fd0a4f28419497f9722a3daafe3b4186f6b6457e08280a380f35b50503461014657806003193601126101465761042f61097f565b60243590811515809203610493577f5fe3a0cb9aeae856eac34445ace9544f3e15c21fa6f9bffeca60d662a690ca1b9160209161046a6109fd565b6001600160a01b031680865260058352848620805460ff191660ff84161790559351908152a280f35b8380fd5b90503461029157602036600319011261029157803583526020908152918190205490516001600160a01b0390911615158152f35b505034610146578160031936011261014657517f00000000000000000000000000000000000000000000000000000000000000006001600160a01b03168152602090f35b8284346101b757602092836003193601126101465780358252808452828220546001600160a01b0390811693841561066a578051631b79279160e21b81529160c0838581895afa9384156106605785978691879588976105f2575b50818551809263efca2eed60e01b8252818c5afa9788156105e75780986105b2575b50508260c0998551998a52169088015216908501526060840152608083015260a0820152f35b90999750818a813d83116105e0575b6105cb81836109c7565b810103126101b757508260c09951979961058c565b503d6105c1565b8551903d90823e3d90fd5b9550955097505060c0833d60c011610658575b8161061260c093836109c7565b81010312610654576106258784016109e9565b926106318382016109e9565b9761063e606083016109e9565b5060a0608083015192015194989194958a61056a565b8480fd5b3d9150610605565b82513d87823e3d90fd5b51632cacf93560e01b81529050fd5b8284346101b75760803660031901126101b75761069461094e565b9061069d610969565b90338152600560205260ff84822054161590816106f0575b506106e157906020936106d092600354926064359235610a29565b90516001600160a01b039091168152f35b505051637d7b71b560e01b8152fd5b546001600160a01b03163314159050856106b5565b505034610146578160031936011261014657602090516103e88152f35b5050346101465781600319360112610146576020906006549051908152f35b505034610146578160031936011261014657517f00000000000000000000000000000000000000000000000000000000000000006001600160a01b03168152602090f35b505034610146578160031936011261014657602090516107d08152f35b5050346101465781600319360112610146576020906003549051908152f35b90503461029157602036600319011261029157602092508151838101913582528381526107ed81610995565b5190208151903060388301526f5af43d82803e903d91602b57fd5bf3ff60248301527f00000000000000000000000000000000000000000000000000000000000000006014830152733d602d80600a3d3981f3363d3d373d3d3d363d73825260588201526037600c82012060788201526055604360018060a01b03920120169051908152f35b8284346101b75760a03660031901126101b75761088e61094e565b90610897610969565b90338152600560205260ff84822054161590816108ca575b506106e157906020936106d092608435926064359235610a29565b546001600160a01b03163314159050856108af565b905034610291576020366003190112610291578035906108fd6109fd565b6103e882116109405750907f94150bd44dc151252e6fed96f99d18a1632237baddcc944ce5016825b0f79fcc91600354908060035582519182526020820152a180f35b825163c6cc5d7f60e01b8152fd5b602435906001600160a01b038216820361096457565b600080fd5b604435906001600160a01b038216820361096457565b600435906001600160a01b038216820361096457565b6040810190811067ffffffffffffffff8211176109b157604052565b634e487b7160e01b600052604160045260246000fd5b90601f8019910116810190811067ffffffffffffffff8211176109b157604052565b51906001600160a01b038216820361096457565b6000546001600160a01b03163303610a1157565b60405163118cdaa760e01b8152336004820152602490fd5b90949391929460009282845260049160209783895260018060a01b03986040928a8489205416610c80578a16978815610c70578a16948515610c62576107d08311610c41576103e88511610c4157848301808411610c4f5761271010610c4157835182810190888252838152610a9e81610995565b5190206e5af43d82803e903d91602b57fd5bf37f0000000000000000000000000000000000000000000000000000000000000000763d602d80600a3d3981f3363d3d373d3d3d363d7300000062ffffff8260881c16178b5260781b178352603760098af5978b8916988915610c31579b80600254168a3b15610291578960e48d93858e81958e8d51988997889663a432944560e01b88527f0000000000000000000000000000000000000000000000000000000000000000168d88015260248701526044860152606485015260848401528a60a48401528c60c48401525af18015610c2757610bfd575b5087815281835284812080546001600160a01b0319168a179055600654916000198314610bea57505060010160065582519485528401528201527f13f0ab3cc0ce6251e502076982de0501be274d59cfe1ff59d5b4bab74657b6d890606090a4565b634e487b7160e01b825260119052602490fd5b67ffffffffffffffff8111610c1457855238610b88565b506041602492634e487b7160e01b835252fd5b86513d84823e3d90fd5b855163b06ebf3d60e01b81528390fd5b835163c6cc5d7f60e01b8152fd5b634e487b7160e01b895260118252602489fd5b835163d92e233d60e01b8152fd5b835163d92e233d60e01b81528690fd5b8351634c62cb7b60e11b81528690fdfea26469706673582212202a8b9e4fb1cd4c80c05bd2b4f17b0ffbddd5154b1e50025ab1611c0f2694452b64736f6c634300081800336080806040523461001657610dc6908161001c8239f35b600080fdfe608060408181526004908136101561001657600080fd5b600091823560e01c93846302d05d3f14610b85575083630562b9f714610b0d57836308551a5314610ae557836327e235e314610aae5783633ccfd60b146109f85783633e413bee146109d157836343cdaad2146109b35783634f9e3e01146107785783636de49e441461071f578363867e7c27146106145783639c22b9a614610526578363a432944514610364578363c63adb2b14610346578363d15ca166146100f8578363d32627a114610328578363e4fc6b6d14610148578363ed9ed6961461011e57508263efca2eed146100fd57505063fd967f47146100f857600080fd5b610bc5565b3461011a578160031936011261011a576020906008549051908152f35b5080fd5b346101445782600319360112610144575490516001600160a01b03909116815260209150f35b8280fd5b9034610144578260031936011261014457610161610c5d565b825481516370a0823160e01b815230818501526020946001600160a01b0394919286908490602490829089165afa92831561031c5781936102ed575b506101e3856002541693848352600788526101dd6101c987852054896003541686528886205490610c3d565b88865416855260078a528785205490610c3d565b90610be2565b9485156102de5761024492857ff7576d8c2653e9d07af5ef229acf59b339e327d4e0eaddb4a96615534cf148f895936102c393612710936102498b8661022b60065483610c4a565b04998a9761023b60055484610c4a565b049a8b92610be2565b610be2565b96835260078c5283832061025e888254610c3d565b90558160035416835260078c52838320610279898254610c3d565b90555416815260078a522061028f828254610c3d565b905561029d87600854610c3d565b600855855193849388859094939260609260808301968352602083015260408201520152565b0390a16001600080516020610d718339815191525551908152f35b845162598fc960e21b81528390fd5b9092508581813d8311610315575b6103058183610c05565b810103126101445751918661019d565b503d6102fb565b508351903d90823e3d90fd5b503461011a578160031936011261011a576020906006549051908152f35b503461011a578160031936011261011a576020906005549051908152f35b346101445760e03660031901126101445761037d610baa565b6001600160a01b0360443581811693919290849003610522576064359083821680920361051e576084359184831680930361051a577ff0c57e16840df040f15088dc2f81fe391c3923bec73e23a9662efc9c229c6a009586549560ff878a1c16159667ffffffffffffffff811680159081610512575b6001149081610508575b1590816104ff575b506104ef5767ffffffffffffffff1981166001178955876104d0575b5061042a610d2f565b610432610d2f565b6001600080516020610d71833981519152556bffffffffffffffffffffffff60a01b9316838a541617895560243560015582600254161760025581600354161760035582541617905560a43560055560c43560065561048f578280f35b805468ff00000000000000001916905551600181527fc7f505b2f371ae2175ee4913f4499e1f2633a7b5936321eed1cdaeb6115181d290602090a181808280f35b68ffffffffffffffffff1916680100000000000000011788558a610421565b895163f92ee8a960e01b81528790fd5b9050158c610405565b303b1591506103fd565b8991506103f3565b8780fd5b8680fd5b8580fd5b9134610611578060031936011261061157805482516370a0823160e01b8152308186015260209490916001600160a01b039086908490602490829085165afa9283156106075784936105d2575b5090816105af926002541685526007875261059c86862054826003541687528787205490610c3d565b9154168452600786528484205490610c3d565b90818111156105ca576105c29250610be2565b905b51908152f35b5050906105c4565b9092508581813d8311610600575b6105ea8183610c05565b810103126105fc5751916105af610573565b8380fd5b503d6105e0565b85513d86823e3d90fd5b80fd5b92503461011a578160031936011261011a5760018060a01b03908160025416835260076020528083205491806003541684528184205493818654168152602083822054928254169660248551809981936370a0823160e01b835230908301525afa80156107135781906106de575b85965061069c8361069787986106d298610c3d565b610c3d565b90818111156106d6576106af9250610be2565b915b51948594859094939260609260808301968352602083015260408201520152565b0390f35b5050916106b1565b50946020813d60201161070b575b816106f960209383610c05565b81010312610522575193948594610682565b3d91506106ec565b508251903d90823e3d90fd5b34610144578260031936011261014457600154600254600354925460055460065486519485526001600160a01b03938416602086015294831695840195909552166060820152608081019290925260a082015260c09150f35b9034610144578260031936011261014457610791610c5d565b825481516370a0823160e01b81523084820152602092916001600160a01b03919084908290602490829086165afa9081156109a957869161097c575b50816002541680875261080d6007928387526101dd6107fa878b205487600354168c52888c205490610c3d565b868a54168b52858952878b205490610c3d565b90816108a6575b50503386528084528286205494851561089857612710861061088a5750847f7fcf532c15f0a6db0bd6d0e038bea71d30d808c7d98cb3bf7268a95bf5081b6594939261086e92338952855287848120553390885416610c8d565b519283523392a26001600080516020610d718339815191525580f35b8351630980da4560e11b8152fd5b8351631e9acf1760e31b8152fd5b7ff7576d8c2653e9d07af5ef229acf59b339e327d4e0eaddb4a96615534cf148f891610972612710806108db60065485610c4a565b04906108e960055485610c4a565b046108f8816102448487610be2565b948c52868a52888c2061090c868254610c3d565b905587600354168c52868a52888c20610926828254610c3d565b9055878b54168c52868a52888c2061093f838254610c3d565b905561094d84600854610c3d565b6008558851948594859094939260609260808301968352602083015260408201520152565b0390a18680610814565b90508381813d83116109a2575b6109938183610c05565b810103126105225751866107cd565b503d610989565b83513d88823e3d90fd5b503461011a578160031936011261011a576020906001549051908152f35b503461011a578160031936011261011a57905490516001600160a01b039091168152602090f35b9034610144578260031936011261014457610a11610c5d565b338352600760205280832054918215610aa0576127108310610a9257503380845260076020528184208490558354610a539184916001600160a01b0316610c8d565b519081527f7fcf532c15f0a6db0bd6d0e038bea71d30d808c7d98cb3bf7268a95bf5081b6560203392a26001600080516020610d718339815191525580f35b9051630980da4560e11b8152fd5b9051631e9acf1760e31b8152fd5b503461011a57602036600319011261011a5760209181906001600160a01b03610ad5610baa565b1681526007845220549051908152f35b503461011a578160031936011261011a5760025490516001600160a01b039091168152602090f35b903461014457602036600319011261014457813591610b2a610c5d565b82158015610b7a575b610a92573384526007602052828285205410610aa057503383526007602052808320610b60838254610be2565b90558254610a5390839033906001600160a01b0316610c8d565b506127108310610b33565b83903461011a578160031936011261011a576003546001600160a01b03168152602090f35b600435906001600160a01b0382168203610bc057565b600080fd5b34610bc0576000366003190112610bc05760206040516127108152f35b91908203918211610bef57565b634e487b7160e01b600052601160045260246000fd5b90601f8019910116810190811067ffffffffffffffff821117610c2757604052565b634e487b7160e01b600052604160045260246000fd5b91908201809211610bef57565b81810292918115918404141715610bef57565b600080516020610d718339815191526002815414610c7b5760029055565b604051633ee5aeb560e01b8152600490fd5b60405163a9059cbb60e01b602082019081526001600160a01b0393841660248301526044808301959095529381529092608082019067ffffffffffffffff821183831017610c2757602092600092604052519082865af115610d23576000513d610d1a57508082163b155b610d00575050565b604051635274afe760e01b81529116600482015260249150fd5b60011415610cf8565b6040513d6000823e3d90fd5b60ff7ff0c57e16840df040f15088dc2f81fe391c3923bec73e23a9662efc9c229c6a005460401c1615610d5e57565b604051631afcd79f60e31b8152600490fdfe9b779b17422d0df92223018b32b4d1fa46e071723d6817e2486d003becc55f00a2646970667358221220195d913d330af8f3666323e964b2b3f6f9bf2d8a3ea2c933965cca32d7b9ec0964736f6c63430008180033",
  "linkReferences": {},
  "deployedLinkReferences": {}
}