{"contracts/test/ReentrantFeeReceiver.sol":{"ReentrantFeeReceiver":{"abi":[{"inputs":[{"internalType":"contract Marketplace","name":"_market","type":"address"}],"stateMutability":"nonpayable","type":"constructor"},{"inputs":[],"name":"attempted","outputs":[{"internalType":"bool","name":"","type":"bool"}],"stateMutability":"view","type":"function"},{"inputs":[],"name":"kind","outputs":[{"internalType":"uint8","name":"","type":"uint8"}],"stateMutability":"view","type":"function"},{"inputs":[{"internalType":"string","name":"slug","type":"string"},{"internalType":"string","name":"name","type":"string"},{"internalType":"string","name":"uri","type":"string"},{"internalType":"uint256","name":"royaltyBps","type":"uint256"},{"internalType":"uint256","name":"pricePerpetual","type":"uint256"},{"internalType":"uint256","name":"priceSubscription","type":"uint256"},{"internalType":"uint256","name":"defaultDurationDays","type":"uint256"},{"internalType":"uint8","name":"deliveryRightsDefault","type":"uint8"},{"internalType":"uint8","name":"deliveryModeHint","type":"uint8"},{"internalType":"bytes32","name":"termsHash","type":"bytes32"}],"name":"listSelf","outputs":[],"stateMutability":"nonpayable","type":"function"},{"inputs":[],"name":"market","outputs":[{"internalType":"contract Marketplace","name":"","type":"address"}],"stateMutability":"view","type":"function"},{"inputs":[],"name":"modelId","outputs":[{"internalType":"uint256","name":"","type":"uint256"}],"stateMutability":"view","type":"function"},{"inputs":[],"name":"months","outputs":[{"internalType":"uint16","name":"","type":"uint16"}],"stateMutability":"view","type":"function"},{"inputs":[{"internalType":"uint256","name":"_modelId","type":"uint256"},{"internalType":"uint8","name":"_kind","type":"uint8"},{"internalType":"uint16","name":"_months","type":"uint16"}],"name":"setParams","outputs":[],"stateMutability":"nonpayable","type":"function"},{"stateMutability":"payable","type":"receive"}],"evm":{"bytecode":{"linkReferences":{},"object":"60a03461007e57601f61053738819003918201601f19168301916001600160401b038311848410176100835780849260209460405283398101031261007e57516001600160a01b038116810361007e5760805260405161049d908161009a8239608051818181604501528181610221015281816102ec01526103830152f35b600080fd5b634e487b7160e01b600052604160045260246000fdfe60808060405260043610156100c7575b50361561001b57600080fd5b60015460ff8160181c161561002c57005b63ff0000001981166301000000176001819055600054917f00000000000000000000000000000000000000000000000000000000000000006001600160a01b031691823b156100c25760ff9360009361ffff6084936040519788968795632236bdfd60e21b8752600487015216602485015260081c16604483015284606483015234905af16100b757005b6100c09061041c565b005b600080fd5b600090813560e01c90816304baa00b146103cf5750806343cdaad2146103b257806380f556051461036d578063917f51b414610347578063acd50c7314610197578063aeef8f36146101725763dc5e42e00361000f573461016f57606036600319011261016f5760243560ff81168091036100c2576044359061ffff8216820361016b57600435835562ffff006001549260081b169162ffffff1916171760015580f35b8280fd5b80fd5b503461016f578060031936011261016f57602061ffff60015460081c16604051908152f35b503461016f5761014036600319011261016f5767ffffffffffffffff81600435828111610343576101cc9036906004016103ee565b909260243581811161033f576101e69036906004016103ee565b909160443590811161033b576102009036906004016103ee565b909260e4359260ff8416840361033757610104359160ff83168303610333577f00000000000000000000000000000000000000000000000000000000000000006001600160a01b03163b15610333576101449560ff946102966102a89387956102846040519e8f9d8e9d8e632d88c21160e01b815261014060048201520191610446565b8b81036003190160248d015291610446565b8881036003190160448a015291610446565b936064356064870152608435608487015260a43560a487015260c43560c48701521660e4850152166101048301526101243561012483015203818360018060a01b037f0000000000000000000000000000000000000000000000000000000000000000165af180156103285761031c575080f35b6103259061041c565b80f35b6040513d84823e3d90fd5b8780fd5b8680fd5b8480fd5b8380fd5b5080fd5b503461016f578060031936011261016f57602060ff60015460181c166040519015158152f35b503461016f578060031936011261016f576040517f00000000000000000000000000000000000000000000000000000000000000006001600160a01b03168152602090f35b503461016f578060031936011261016f5760209054604051908152f35b90503461034357816003193601126103435760209060ff600154168152f35b9181601f840112156100c25782359167ffffffffffffffff83116100c257602083818601950101116100c257565b67ffffffffffffffff811161043057604052565b634e487b7160e01b600052604160045260246000fd5b908060209392818452848401376000828201840152601f01601f191601019056fea26469706673582212203ca797c3ec661b65016650ec3ed8a775265c9588e51dfaa9408312182e409dd364736f6c63430008180033","opcodes":"PUSH1 0xA0 CALLVALUE PUSH2 0x7E JUMPI PUSH1 0x1F PUSH2 0x537 CODESIZE DUP2 SWAP1 SUB SWAP2 DUP3 ADD PUSH1 0x1F NOT AND DUP4 ADD SWAP2 PUSH1 0x1 PUSH1 0x1 PUSH1 0x40 SHL SUB DUP4 GT DUP5 DUP5 LT OR PUSH2 0x83 JUMPI DUP1 DUP5 SWAP3 PUSH1 0x20 SWAP5 PUSH1 0x40 MSTORE DUP4 CODECOPY DUP2 ADD SUB SLT PUSH2 0x7E JUMPI MLOAD PUSH1 0x1 PUSH1 0x1 PUSH1 0xA0 SHL SUB DUP2 AND DUP2 SUB PUSH2 0x7E JUMPI PUSH1 0x80 MSTORE PUSH1 0x40 MLOAD PUSH2 0x49D SWAP1 DUP2 PUSH2 0x9A DUP3 CODECOPY PUSH1 0x80 MLOAD DUP2 DUP2 DUP2 PUSH1 0x45 ADD MSTORE DUP2 DUP2 PUSH2 0x221 ADD MSTORE DUP2 DUP2 PUSH2 0x2EC ADD MSTORE PUSH2 0x383 ADD MSTORE RETURN JUMPDEST PUSH1 0x0 DUP1 REVERT JUMPDEST PUSH4 0x4E487B71 PUSH1 0xE0 SHL PUSH1 0x0 MSTORE PUSH1 0x41 PUSH1 0x4 MSTORE PUSH1 0x24 PUSH1 0x0 REVERT INVALID PUSH1 0x80 DUP1 PUSH1 0x40 MSTORE PUSH1 0x4 CALLDATASIZE LT ISZERO PUSH2 0xC7 JUMPI JUMPDEST POP CALLDATASIZE ISZERO PUSH2 0x1B JUMPI PUSH1 0x0 DUP1 REVERT JUMPDEST PUSH1 0x1 SLOAD PUSH1 0xFF DUP2 PUSH1 0x18 SHR AND ISZERO PUSH2 0x2C JUMPI STOP JUMPDEST PUSH4 0xFF000000 NOT DUP2 AND PUSH4 0x1000000 OR PUSH1 0x1 DUP2 SWAP1 SSTORE PUSH1 0x0 SLOAD SWAP2 PUSH32 0x0 PUSH1 0x1 PUSH1 0x1 PUSH1 0xA0 SHL SUB AND SWAP2 DUP3 EXTCODESIZE ISZERO PUSH2 0xC2 JUMPI PUSH1 0xFF SWAP4 PUSH1 0x0 SWAP4 PUSH2 0xFFFF PUSH1 0x84 SWAP4 PUSH1 0x40 MLOAD SWAP8 DUP9 SWAP7 DUP8 SWAP6 PUSH4 0x2236BDFD PUSH1 0xE2 SHL DUP8 MSTORE PUSH1 0x4 DUP8 ADD MSTORE AND PUSH1 0x24 DUP6 ADD MSTORE PUSH1 0x8 SHR AND PUSH1 0x44 DUP4 ADD MSTORE DUP5 PUSH1 0x64 DUP4 ADD MSTORE CALLVALUE SWAP1 GAS CALL PUSH2 0xB7 JUMPI STOP JUMPDEST PUSH2 0xC0 SWAP1 PUSH2 0x41C JUMP JUMPDEST STOP JUMPDEST PUSH1 0x0 DUP1 REVERT JUMPDEST PUSH1 0x0 SWAP1 DUP2 CALLDATALOAD PUSH1 0xE0 SHR SWAP1 DUP2 PUSH4 0x4BAA00B EQ PUSH2 0x3CF JUMPI POP DUP1 PUSH4 0x43CDAAD2 EQ PUSH2 0x3B2 JUMPI DUP1 PUSH4 0x80F55605 EQ PUSH2 0x36D JUMPI DUP1 PUSH4 0x917F51B4 EQ PUSH2 0x347 JUMPI DUP1 PUSH4 0xACD50C73 EQ PUSH2 0x197 JUMPI DUP1 PUSH4 0xAEEF8F36 EQ PUSH2 0x172 JUMPI PUSH4 0xDC5E42E0 SUB PUSH2 0xF JUMPI CALLVALUE PUSH2 0x16F JUMPI PUSH1 0x60 CALLDATASIZE PUSH1 0x3 NOT ADD SLT PUSH2 0x16F JUMPI PUSH1 0x24 CALLDATALOAD PUSH1 0xFF DUP2 AND DUP1 SWAP2 SUB PUSH2 0xC2 JUMPI PUSH1 0x44 CALLDATALOAD SWAP1 PUSH2 0xFFFF DUP3 AND DUP3 SUB PUSH2 0x16B JUMPI PUSH1 0x4 CALLDATALOAD DUP4 SSTORE PUSH3 0xFFFF00 PUSH1 0x1 SLOAD SWAP3 PUSH1 0x8 SHL AND SWAP2 PUSH3 0xFFFFFF NOT AND OR OR PUSH1 0x1 SSTORE DUP1 RETURN JUMPDEST DUP3 DUP1 REVERT JUMPDEST DUP1 REVERT JUMPDEST POP CALLVALUE PUSH2 0x16F JUMPI DUP1 PUSH1 0x3 NOT CALLDATASIZE ADD SLT PUSH2 0x16F JUMPI PUSH1 0x20 PUSH2 0xFFFF PUSH1 0x1 SLOAD PUSH1 0x8 SHR AND PUSH1 0x40 MLOAD SWAP1 DUP2 MSTORE RETURN JUMPDEST POP CALLVALUE PUSH2 0x16F JUMPI PUSH2 0x140 CALLDATASIZE PUSH1 0x3 NOT ADD SLT PUSH2 0x16F JUMPI PUSH8 0xFFFFFFFFFFFFFFFF DUP2 PUSH1 0x4 CALLDATALOAD DUP3 DUP2 GT PUSH2 0x343 JUMPI PUSH2 0x1CC SWAP1 CALLDATASIZE SWAP1 PUSH1 0x4 ADD PUSH2 0x3EE JUMP JUMPDEST SWAP1 SWAP3 PUSH1 0x24 CALLDATALOAD DUP2 DUP2 GT PUSH2 0x33F JUMPI PUSH2 0x1E6 SWAP1 CALLDATASIZE SWAP1 PUSH1 0x4 ADD PUSH2 0x3EE JUMP JUMPDEST SWAP1 SWAP2 PUSH1 0x44 CALLDATALOAD SWAP1 DUP2 GT PUSH2 0x33B JUMPI PUSH2 0x200 SWAP1 CALLDATASIZE SWAP1 PUSH1 0x4 ADD PUSH2 0x3EE JUMP JUMPDEST SWAP1 SWAP3 PUSH1 0xE4 CALLDATALOAD SWAP3 PUSH1 0xFF DUP5 AND DUP5 SUB PUSH2 0x337 JUMPI PUSH2 0x104 CALLDATALOAD SWAP2 PUSH1 0xFF DUP4 AND DUP4 SUB PUSH2 0x333 JUMPI PUSH32 0x0 PUSH1 0x1 PUSH1 0x1 PUSH1 0xA0 SHL SUB AND EXTCODESIZE ISZERO PUSH2 0x333 JUMPI PUSH2 0x144 SWAP6 PUSH1 0xFF SWAP5 PUSH2 0x296 PUSH2 0x2A8 SWAP4 DUP8 SWAP6 PUSH2 0x284 PUSH1 0x40 MLOAD SWAP15 DUP16 SWAP14 DUP15 SWAP14 DUP15 PUSH4 0x2D88C211 PUSH1 0xE0 SHL DUP2 MSTORE PUSH2 0x140 PUSH1 0x4 DUP3 ADD MSTORE ADD SWAP2 PUSH2 0x446 JUMP JUMPDEST DUP12 DUP2 SUB PUSH1 0x3 NOT ADD PUSH1 0x24 DUP14 ADD MSTORE SWAP2 PUSH2 0x446 JUMP JUMPDEST DUP9 DUP2 SUB PUSH1 0x3 NOT ADD PUSH1 0x44 DUP11 ADD MSTORE SWAP2 PUSH2 0x446 JUMP JUMPDEST SWAP4 PUSH1 0x64 CALLDATALOAD PUSH1 0x64 DUP8 ADD MSTORE PUSH1 0x84 CALLDATALOAD PUSH1 0x84 DUP8 ADD MSTORE PUSH1 0xA4 CALLDATALOAD PUSH1 0xA4 DUP8 ADD MSTORE PUSH1 0xC4 CALLDATALOAD PUSH1 0xC4 DUP8 ADD MSTORE AND PUSH1 0xE4 DUP6 ADD MSTORE AND PUSH2 0x104 DUP4 ADD MSTORE PUSH2 0x124 CALLDATALOAD PUSH2 0x124 DUP4 ADD MSTORE SUB DUP2 DUP4 PUSH1 0x1 DUP1 PUSH1 0xA0 SHL SUB PUSH32 0x0 AND GAS CALL DUP1 ISZERO PUSH2 0x328 JUMPI PUSH2 0x31C JUMPI POP DUP1 RETURN JUMPDEST PUSH2 0x325 SWAP1 PUSH2 0x41C JUMP JUMPDEST DUP1 RETURN JUMPDEST PUSH1 0x40 MLOAD RETURNDATASIZE DUP5 DUP3 RETURNDATACOPY RETURNDATASIZE SWAP1 REVERT JUMPDEST DUP8 DUP1 REVERT JUMPDEST DUP7 DUP1 REVERT JUMPDEST DUP5 DUP1 REVERT JUMPDEST DUP4 DUP1 REVERT JUMPDEST POP DUP1 REVERT JUMPDEST POP CALLVALUE PUSH2 0x16F JUMPI DUP1 PUSH1 0x3 NOT CALLDATASIZE ADD SLT PUSH2 0x16F JUMPI PUSH1 0x20 PUSH1 0xFF PUSH1 0x1 SLOAD PUSH1 0x18 SHR AND PUSH1 0x40 MLOAD SWAP1 ISZERO ISZERO DUP2 MSTORE RETURN JUMPDEST POP CALLVALUE PUSH2 0x16F JUMPI DUP1 PUSH1 0x3 NOT CALLDATASIZE ADD SLT PUSH2 0x16F JUMPI PUSH1 0x40 MLOAD PUSH32 0x0 PUSH1 0x1 PUSH1 0x1 PUSH1 0xA0 SHL SUB AND DUP2 MSTORE PUSH1 0x20 SWAP1 RETURN JUMPDEST POP CALLVALUE PUSH2 0x16F JUMPI DUP1 PUSH1 0x3 NOT CALLDATASIZE ADD SLT PUSH2 0x16F JUMPI PUSH1 0x20 SWAP1 SLOAD PUSH1 0x40 MLOAD SWAP1 DUP2 MSTORE RETURN JUMPDEST SWAP1 POP CALLVALUE PUSH2 0x343 JUMPI DUP2 PUSH1 0x3 NOT CALLDATASIZE ADD SLT PUSH2 0x343 JUMPI PUSH1 0x20 SWAP1 PUSH1 0xFF PUSH1 0x1 SLOAD AND DUP2 MSTORE RETURN JUMPDEST SWAP2 DUP2 PUSH1 0x1F DUP5 ADD SLT ISZERO PUSH2 0xC2 JUMPI DUP3 CALLDATALOAD SWAP2 PUSH8 0xFFFFFFFFFFFFFFFF DUP4 GT PUSH2 0xC2 JUMPI PUSH1 0x20 DUP4 DUP2 DUP7 ADD SWAP6 ADD ADD GT PUSH2 0xC2 JUMPI JUMP JUMPDEST PUSH8 0xFFFFFFFFFFFFFFFF DUP2 GT PUSH2 0x430 JUMPI PUSH1 0x40 MSTORE JUMP JUMPDEST PUSH4 0x4E487B71 PUSH1 0xE0 SHL PUSH1 0x0 MSTORE PUSH1 0x41 PUSH1 0x4 MSTORE PUSH1 0x24 PUSH1 0x0 REVERT JUMPDEST SWAP1 DUP1 PUSH1 0x20 SWAP4 SWAP3 DUP2 DUP5 MSTORE DUP5 DUP5 ADD CALLDATACOPY PUSH1 0x0 DUP3 DUP3 ADD DUP5 ADD MSTORE PUSH1 0x1F ADD PUSH1 0x1F NOT AND ADD ADD SWAP1 JUMP INVALID LOG2 PUSH5 0x6970667358 0x22 SLT KECCAK256 EXTCODECOPY 0xA7 SWAP8 0xC3 0xEC PUSH7 0x1B65016650EC3E 0xD8 0xA7 PUSH22 0x265C9588E51DFAA9408312182E409DD364736F6C6343 STOP ADDMOD XOR STOP CALLER "},"methodIdentifiers":{"attempted()":"917f51b4","kind()":"04baa00b","listSelf(string,string,string,uint256,uint256,uint256,uint256,uint8,uint8,bytes32)":"acd50c73","market()":"80f55605","modelId()":"43cdaad2","months()":"aeef8f36","setParams(uint256,uint8,uint16)":"dc5e42e0"}}}}}